{
  "abi": [
    {
      "anonymous": false,
      "inputs": [
        {
          "indexed": true,
          "internalType": "bytes32",
          "name": "src",
          "type": "bytes32"
        },
        {
          "indexed": true,
          "internalType": "bytes32",
          "name": "dst",
          "type": "bytes32"
        },
        {
          "indexed": true,
          "internalType": "bytes32",
          "name": "sig",
          "type": "bytes32"
        }
      ],
      "name": "LogForbid",
      "type": "event"
    },
    {
      "anonymous": false,
      "inputs": [
        {
          "indexed": true,
          "internalType": "bytes32",
          "name": "src",
          "type": "bytes32"
        },
        {
          "indexed": true,
          "internalType": "bytes32",
          "name": "dst",
          "type": "bytes32"
        },
        {
          "indexed": true,
          "internalType": "bytes32",
          "name": "sig",
          "type": "bytes32"
        }
      ],
      "name": "LogPermit",
      "type": "event"
    },
    {
      "anonymous": false,
      "inputs": [
        {
          "indexed": true,
          "internalType": "address",
          "name": "authority",
          "type": "address"
        }
      ],
      "name": "LogSetAuthority",
      "type": "event"
    },
    {
      "anonymous": false,
      "inputs": [
        {
          "indexed": true,
          "internalType": "address",
          "name": "owner",
          "type": "address"
        }
      ],
      "name": "LogSetOwner",
      "type": "event"
    },
    {
      "inputs": [],
      "name": "ANY",
      "outputs": [
        {
          "internalType": "bytes32",
          "name": "",
          "type": "bytes32"
        }
      ],
      "stateMutability": "view",
      "type": "function"
    },
    {
      "inputs": [],
      "name": "authority",
      "outputs": [
        {
          "internalType": "contract DSAuthority",
          "name": "",
          "type": "address"
        }
      ],
      "stateMutability": "view",
      "type": "function"
    },
    {
      "inputs": [
        {
          "internalType": "address",
          "name": "src_",
          "type": "address"
        },
        {
          "internalType": "address",
          "name": "dst_",
          "type": "address"
        },
        {
          "internalType": "bytes4",
          "name": "sig",
          "type": "bytes4"
        }
      ],
      "name": "canCall",
      "outputs": [
        {
          "internalType": "bool",
          "name": "",
          "type": "bool"
        }
      ],
      "stateMutability": "view",
      "type": "function"
    },
    {
      "inputs": [
        {
          "internalType": "address",
          "name": "src",
          "type": "address"
        },
        {
          "internalType": "address",
          "name": "dst",
          "type": "address"
        },
        {
          "internalType": "bytes32",
          "name": "sig",
          "type": "bytes32"
        }
      ],
      "name": "forbid",
      "outputs": [],
      "stateMutability": "nonpayable",
      "type": "function"
    },
    {
      "inputs": [
        {
          "internalType": "bytes32",
          "name": "src",
          "type": "bytes32"
        },
        {
          "internalType": "bytes32",
          "name": "dst",
          "type": "bytes32"
        },
        {
          "internalType": "bytes32",
          "name": "sig",
          "type": "bytes32"
        }
      ],
      "name": "forbid",
      "outputs": [],
      "stateMutability": "nonpayable",
      "type": "function"
    },
    {
      "inputs": [],
      "name": "owner",
      "outputs": [
        {
          "internalType": "address",
          "name": "",
          "type": "address"
        }
      ],
      "stateMutability": "view",
      "type": "function"
    },
    {
      "inputs": [
        {
          "internalType": "address",
          "name": "src",
          "type": "address"
        },
        {
          "internalType": "address",
          "name": "dst",
          "type": "address"
        },
        {
          "internalType": "bytes32",
          "name": "sig",
          "type": "bytes32"
        }
      ],
      "name": "permit",
      "outputs": [],
      "stateMutability": "nonpayable",
      "type": "function"
    },
    {
      "inputs": [
        {
          "internalType": "bytes32",
          "name": "src",
          "type": "bytes32"
        },
        {
          "internalType": "bytes32",
          "name": "dst",
          "type": "bytes32"
        },
        {
          "internalType": "bytes32",
          "name": "sig",
          "type": "bytes32"
        }
      ],
      "name": "permit",
      "outputs": [],
      "stateMutability": "nonpayable",
      "type": "function"
    },
    {
      "inputs": [
        {
          "internalType": "contract DSAuthority",
          "name": "authority_",
          "type": "address"
        }
      ],
      "name": "setAuthority",
      "outputs": [],
      "stateMutability": "nonpayable",
      "type": "function"
    },
    {
      "inputs": [
        {
          "internalType": "address",
          "name": "owner_",
          "type": "address"
        }
      ],
      "name": "setOwner",
      "outputs": [],
      "stateMutability": "nonpayable",
      "type": "function"
    }
  ],
  "bytecode": "608060405234801561001057600080fd5b50600180546001600160a01b031916339081179091556040517fce241d7ca1f669fee44b6fc00b8eba2df3bb514eed0f6f668f8f89096e81ed9490600090a26108718061005e6000396000f3fe608060405234801561001057600080fd5b506004361061009e5760003560e01c8063a8542f6611610066578063a8542f6614610121578063b700961314610138578063bf7e214f1461015b578063cbeea68c1461016e578063f0217ce51461018157600080fd5b806313af4035146100a35780632bc3217d146100b857806379d88d87146100cb5780637a9e5e4b146100de5780638da5cb5b146100f1575b600080fd5b6100b66100b1366004610702565b610194565b005b6100b66100c6366004610726565b610219565b6100b66100d9366004610767565b610243565b6100b66100ec366004610702565b6102ce565b600154610104906001600160a01b031681565b6040516001600160a01b0390911681526020015b60405180910390f35b61012a60001981565b604051908152602001610118565b61014b610146366004610793565b610348565b6040519015158152602001610118565b600054610104906001600160a01b031681565b6100b661017c366004610726565b61055d565b6100b661018f366004610767565b61057e565b6101aa336000356001600160e01b03191661060c565b6101cf5760405162461bcd60e51b81526004016101c6906107eb565b60405180910390fd5b600180546001600160a01b0319166001600160a01b0383169081179091556040517fce241d7ca1f669fee44b6fc00b8eba2df3bb514eed0f6f668f8f89096e81ed9490600090a250565b61023e8360601b6001600160601b0319168360601b6001600160601b03191683610243565b505050565b610259336000356001600160e01b03191661060c565b6102755760405162461bcd60e51b81526004016101c6906107eb565b60008381526002602090815260408083208584528252808320848452909152808220805460ff19169055518291849186917f95ba64c95d85e67ac83a0476c4a62ac2cf8ab2d0407545b8c9d79c3eefa6282991a4505050565b6102e4336000356001600160e01b03191661060c565b6103005760405162461bcd60e51b81526004016101c6906107eb565b600080546001600160a01b0319166001600160a01b038316908117825560405190917f1abebea81bfa2637f28358c371278fb15ede7ea8dd28d2e03b112ff6d936ada491a250565b6bffffffffffffffffffffffff19606084811b821660008181526002602090815260408083209488901b9095168083529381528482206001600160e01b03198716835290529283205490919060ff16806103c5575060008281526002602090815260408083208484528252808320600019845290915290205460ff165b806103fd57506000828152600260209081526040808320600019845282528083206001600160e01b03198816845290915290205460ff165b80610428575060008281526002602090815260408083206000198452825280832090915290205460ff165b80610475575060008181527f38b5b2ceac7637132d27514ffcf440b705287635075af7b8bd5adcaa6a4cc5bb602090815260408083206001600160e01b03198816845290915290205460ff165b806104ba575060008181527f38b5b2ceac7637132d27514ffcf440b705287635075af7b8bd5adcaa6a4cc5bb60209081526040808320600019845290915290205460ff165b806104fd57506001600160e01b0319841660009081527f47fa60fbc027ac3984ea309688a33182f4193c478b40ba8d294eb2cd3ddc4d97602052604090205460ff165b8061055357506000196000527f47fa60fbc027ac3984ea309688a33182f4193c478b40ba8d294eb2cd3ddc4d976020527ff423d1317b37667cd26005728bffa7c8b0499e133951fcf8e814d4fc5f4c98f65460ff165b9695505050505050565b61023e8360601b6001600160601b0319168360601b6001600160601b031916835b610594336000356001600160e01b03191661060c565b6105b05760405162461bcd60e51b81526004016101c6906107eb565b60008381526002602090815260408083208584528252808320848452909152808220805460ff19166001179055518291849186917f6f50375045128971c5469d343039ba7b8e30a5b190453737b28bda6f7a30677191a4505050565b60006001600160a01b038316301415610627575060016106e4565b6001546001600160a01b0384811691161415610645575060016106e4565b6000546001600160a01b031661065d575060006106e4565b60005460405163b700961360e01b81526001600160a01b0385811660048301523060248301526001600160e01b0319851660448301529091169063b700961390606401602060405180830381865afa1580156106bd573d6000803e3d6000fd5b505050506040513d601f19601f820116820180604052508101906106e19190610819565b90505b92915050565b6001600160a01b03811681146106ff57600080fd5b50565b60006020828403121561071457600080fd5b813561071f816106ea565b9392505050565b60008060006060848603121561073b57600080fd5b8335610746816106ea565b92506020840135610756816106ea565b929592945050506040919091013590565b60008060006060848603121561077c57600080fd5b505081359360208301359350604090920135919050565b6000806000606084860312156107a857600080fd5b83356107b3816106ea565b925060208401356107c3816106ea565b915060408401356001600160e01b0319811681146107e057600080fd5b809150509250925092565b602080825260149082015273191ccb585d5d1a0b5d5b985d5d1a1bdc9a5e995960621b604082015260600190565b60006020828403121561082b57600080fd5b8151801515811461071f57600080fdfea26469706673582212201368ffd4b5ba7fef6fda401d1dfdb2e3df76441e16902c319b386abcb6866fbc64736f6c634300080a0033",
  "bytecodeSha1": "754508a1aeb23d5ddc7c6d1daebd69dc0ac1e4e1",
  "compiler": {
    "evm_version": "istanbul",
    "optimizer": {
      "enabled": true,
      "runs": 200
    },
    "version": "0.8.10+commit.fc410830"
  },
  "contractName": "DSGuard",
  "language": "Solidity",
  "natspec": {
    "kind": "dev",
    "methods": {},
    "version": 1
  },
  "opcodes": "PUSH1 0x80 PUSH1 0x40 MSTORE CALLVALUE DUP1 ISZERO PUSH2 0x10 JUMPI PUSH1 0x0 DUP1 REVERT JUMPDEST POP PUSH1 0x4 CALLDATASIZE LT PUSH2 0x9E JUMPI PUSH1 0x0 CALLDATALOAD PUSH1 0xE0 SHR DUP1 PUSH4 0xA8542F66 GT PUSH2 0x66 JUMPI DUP1 PUSH4 0xA8542F66 EQ PUSH2 0x121 JUMPI DUP1 PUSH4 0xB7009613 EQ PUSH2 0x138 JUMPI DUP1 PUSH4 0xBF7E214F EQ PUSH2 0x15B JUMPI DUP1 PUSH4 0xCBEEA68C EQ PUSH2 0x16E JUMPI DUP1 PUSH4 0xF0217CE5 EQ PUSH2 0x181 JUMPI PUSH1 0x0 DUP1 REVERT JUMPDEST DUP1 PUSH4 0x13AF4035 EQ PUSH2 0xA3 JUMPI DUP1 PUSH4 0x2BC3217D EQ PUSH2 0xB8 JUMPI DUP1 PUSH4 0x79D88D87 EQ PUSH2 0xCB JUMPI DUP1 PUSH4 0x7A9E5E4B EQ PUSH2 0xDE JUMPI DUP1 PUSH4 0x8DA5CB5B EQ PUSH2 0xF1 JUMPI JUMPDEST PUSH1 0x0 DUP1 REVERT JUMPDEST PUSH2 0xB6 PUSH2 0xB1 CALLDATASIZE PUSH1 0x4 PUSH2 0x702 JUMP JUMPDEST PUSH2 0x194 JUMP JUMPDEST STOP JUMPDEST PUSH2 0xB6 PUSH2 0xC6 CALLDATASIZE PUSH1 0x4 PUSH2 0x726 JUMP JUMPDEST PUSH2 0x219 JUMP JUMPDEST PUSH2 0xB6 PUSH2 0xD9 CALLDATASIZE PUSH1 0x4 PUSH2 0x767 JUMP JUMPDEST PUSH2 0x243 JUMP JUMPDEST PUSH2 0xB6 PUSH2 0xEC CALLDATASIZE PUSH1 0x4 PUSH2 0x702 JUMP JUMPDEST PUSH2 0x2CE JUMP JUMPDEST PUSH1 0x1 SLOAD PUSH2 0x104 SWAP1 PUSH1 0x1 PUSH1 0x1 PUSH1 0xA0 SHL SUB AND DUP2 JUMP JUMPDEST PUSH1 0x40 MLOAD PUSH1 0x1 PUSH1 0x1 PUSH1 0xA0 SHL SUB SWAP1 SWAP2 AND DUP2 MSTORE PUSH1 0x20 ADD JUMPDEST PUSH1 0x40 MLOAD DUP1 SWAP2 SUB SWAP1 RETURN JUMPDEST PUSH2 0x12A PUSH1 0x0 NOT DUP2 JUMP JUMPDEST PUSH1 0x40 MLOAD SWAP1 DUP2 MSTORE PUSH1 0x20 ADD PUSH2 0x118 JUMP JUMPDEST PUSH2 0x14B PUSH2 0x146 CALLDATASIZE PUSH1 0x4 PUSH2 0x793 JUMP JUMPDEST PUSH2 0x348 JUMP JUMPDEST PUSH1 0x40 MLOAD SWAP1 ISZERO ISZERO DUP2 MSTORE PUSH1 0x20 ADD PUSH2 0x118 JUMP JUMPDEST PUSH1 0x0 SLOAD PUSH2 0x104 SWAP1 PUSH1 0x1 PUSH1 0x1 PUSH1 0xA0 SHL SUB AND DUP2 JUMP JUMPDEST PUSH2 0xB6 PUSH2 0x17C CALLDATASIZE PUSH1 0x4 PUSH2 0x726 JUMP JUMPDEST PUSH2 0x55D JUMP JUMPDEST PUSH2 0xB6 PUSH2 0x18F CALLDATASIZE PUSH1 0x4 PUSH2 0x767 JUMP JUMPDEST PUSH2 0x57E JUMP JUMPDEST PUSH2 0x1AA CALLER PUSH1 0x0 CALLDATALOAD PUSH1 0x1 PUSH1 0x1 PUSH1 0xE0 SHL SUB NOT AND PUSH2 0x60C JUMP JUMPDEST PUSH2 0x1CF JUMPI PUSH1 0x40 MLOAD PUSH3 0x461BCD PUSH1 0xE5 SHL DUP2 MSTORE PUSH1 0x4 ADD PUSH2 0x1C6 SWAP1 PUSH2 0x7EB JUMP JUMPDEST PUSH1 0x40 MLOAD DUP1 SWAP2 SUB SWAP1 REVERT JUMPDEST PUSH1 0x1 DUP1 SLOAD PUSH1 0x1 PUSH1 0x1 PUSH1 0xA0 SHL SUB NOT AND PUSH1 0x1 PUSH1 0x1 PUSH1 0xA0 SHL SUB DUP4 AND SWAP1 DUP2 OR SWAP1 SWAP2 SSTORE PUSH1 0x40 MLOAD PUSH32 0xCE241D7CA1F669FEE44B6FC00B8EBA2DF3BB514EED0F6F668F8F89096E81ED94 SWAP1 PUSH1 0x0 SWAP1 LOG2 POP JUMP JUMPDEST PUSH2 0x23E DUP4 PUSH1 0x60 SHL PUSH1 0x1 PUSH1 0x1 PUSH1 0x60 SHL SUB NOT AND DUP4 PUSH1 0x60 SHL PUSH1 0x1 PUSH1 0x1 PUSH1 0x60 SHL SUB NOT AND DUP4 PUSH2 0x243 JUMP JUMPDEST POP POP POP JUMP JUMPDEST PUSH2 0x259 CALLER PUSH1 0x0 CALLDATALOAD PUSH1 0x1 PUSH1 0x1 PUSH1 0xE0 SHL SUB NOT AND PUSH2 0x60C JUMP JUMPDEST PUSH2 0x275 JUMPI PUSH1 0x40 MLOAD PUSH3 0x461BCD PUSH1 0xE5 SHL DUP2 MSTORE PUSH1 0x4 ADD PUSH2 0x1C6 SWAP1 PUSH2 0x7EB JUMP JUMPDEST PUSH1 0x0 DUP4 DUP2 MSTORE PUSH1 0x2 PUSH1 0x20 SWAP1 DUP2 MSTORE PUSH1 0x40 DUP1 DUP4 KECCAK256 DUP6 DUP5 MSTORE DUP3 MSTORE DUP1 DUP4 KECCAK256 DUP5 DUP5 MSTORE SWAP1 SWAP2 MSTORE DUP1 DUP3 KECCAK256 DUP1 SLOAD PUSH1 0xFF NOT AND SWAP1 SSTORE MLOAD DUP3 SWAP2 DUP5 SWAP2 DUP7 SWAP2 PUSH32 0x95BA64C95D85E67AC83A0476C4A62AC2CF8AB2D0407545B8C9D79C3EEFA62829 SWAP2 LOG4 POP POP POP JUMP JUMPDEST PUSH2 0x2E4 CALLER PUSH1 0x0 CALLDATALOAD PUSH1 0x1 PUSH1 0x1 PUSH1 0xE0 SHL SUB NOT AND PUSH2 0x60C JUMP JUMPDEST PUSH2 0x300 JUMPI PUSH1 0x40 MLOAD PUSH3 0x461BCD PUSH1 0xE5 SHL DUP2 MSTORE PUSH1 0x4 ADD PUSH2 0x1C6 SWAP1 PUSH2 0x7EB JUMP JUMPDEST PUSH1 0x0 DUP1 SLOAD PUSH1 0x1 PUSH1 0x1 PUSH1 0xA0 SHL SUB NOT AND PUSH1 0x1 PUSH1 0x1 PUSH1 0xA0 SHL SUB DUP4 AND SWAP1 DUP2 OR DUP3 SSTORE PUSH1 0x40 MLOAD SWAP1 SWAP2 PUSH32 0x1ABEBEA81BFA2637F28358C371278FB15EDE7EA8DD28D2E03B112FF6D936ADA4 SWAP2 LOG2 POP JUMP JUMPDEST PUSH12 0xFFFFFFFFFFFFFFFFFFFFFFFF NOT PUSH1 0x60 DUP5 DUP2 SHL DUP3 AND PUSH1 0x0 DUP2 DUP2 MSTORE PUSH1 0x2 PUSH1 0x20 SWAP1 DUP2 MSTORE PUSH1 0x40 DUP1 DUP4 KECCAK256 SWAP5 DUP9 SWAP1 SHL SWAP1 SWAP6 AND DUP1 DUP4 MSTORE SWAP4 DUP2 MSTORE DUP5 DUP3 KECCAK256 PUSH1 0x1 PUSH1 0x1 PUSH1 0xE0 SHL SUB NOT DUP8 AND DUP4 MSTORE SWAP1 MSTORE SWAP3 DUP4 KECCAK256 SLOAD SWAP1 SWAP2 SWAP1 PUSH1 0xFF AND DUP1 PUSH2 0x3C5 JUMPI POP PUSH1 0x0 DUP3 DUP2 MSTORE PUSH1 0x2 PUSH1 0x20 SWAP1 DUP2 MSTORE PUSH1 0x40 DUP1 DUP4 KECCAK256 DUP5 DUP5 MSTORE DUP3 MSTORE DUP1 DUP4 KECCAK256 PUSH1 0x0 NOT DUP5 MSTORE SWAP1 SWAP2 MSTORE SWAP1 KECCAK256 SLOAD PUSH1 0xFF AND JUMPDEST DUP1 PUSH2 0x3FD JUMPI POP PUSH1 0x0 DUP3 DUP2 MSTORE PUSH1 0x2 PUSH1 0x20 SWAP1 DUP2 MSTORE PUSH1 0x40 DUP1 DUP4 KECCAK256 PUSH1 0x0 NOT DUP5 MSTORE DUP3 MSTORE DUP1 DUP4 KECCAK256 PUSH1 0x1 PUSH1 0x1 PUSH1 0xE0 SHL SUB NOT DUP9 AND DUP5 MSTORE SWAP1 SWAP2 MSTORE SWAP1 KECCAK256 SLOAD PUSH1 0xFF AND JUMPDEST DUP1 PUSH2 0x428 JUMPI POP PUSH1 0x0 DUP3 DUP2 MSTORE PUSH1 0x2 PUSH1 0x20 SWAP1 DUP2 MSTORE PUSH1 0x40 DUP1 DUP4 KECCAK256 PUSH1 0x0 NOT DUP5 MSTORE DUP3 MSTORE DUP1 DUP4 KECCAK256 SWAP1 SWAP2 MSTORE SWAP1 KECCAK256 SLOAD PUSH1 0xFF AND JUMPDEST DUP1 PUSH2 0x475 JUMPI POP PUSH1 0x0 DUP2 DUP2 MSTORE PUSH32 0x38B5B2CEAC7637132D27514FFCF440B705287635075AF7B8BD5ADCAA6A4CC5BB PUSH1 0x20 SWAP1 DUP2 MSTORE PUSH1 0x40 DUP1 DUP4 KECCAK256 PUSH1 0x1 PUSH1 0x1 PUSH1 0xE0 SHL SUB NOT DUP9 AND DUP5 MSTORE SWAP1 SWAP2 MSTORE SWAP1 KECCAK256 SLOAD PUSH1 0xFF AND JUMPDEST DUP1 PUSH2 0x4BA JUMPI POP PUSH1 0x0 DUP2 DUP2 MSTORE PUSH32 0x38B5B2CEAC7637132D27514FFCF440B705287635075AF7B8BD5ADCAA6A4CC5BB PUSH1 0x20 SWAP1 DUP2 MSTORE PUSH1 0x40 DUP1 DUP4 KECCAK256 PUSH1 0x0 NOT DUP5 MSTORE SWAP1 SWAP2 MSTORE SWAP1 KECCAK256 SLOAD PUSH1 0xFF AND JUMPDEST DUP1 PUSH2 0x4FD JUMPI POP PUSH1 0x1 PUSH1 0x1 PUSH1 0xE0 SHL SUB NOT DUP5 AND PUSH1 0x0 SWAP1 DUP2 MSTORE PUSH32 0x47FA60FBC027AC3984EA309688A33182F4193C478B40BA8D294EB2CD3DDC4D97 PUSH1 0x20 MSTORE PUSH1 0x40 SWAP1 KECCAK256 SLOAD PUSH1 0xFF AND JUMPDEST DUP1 PUSH2 0x553 JUMPI POP PUSH1 0x0 NOT PUSH1 0x0 MSTORE PUSH32 0x47FA60FBC027AC3984EA309688A33182F4193C478B40BA8D294EB2CD3DDC4D97 PUSH1 0x20 MSTORE PUSH32 0xF423D1317B37667CD26005728BFFA7C8B0499E133951FCF8E814D4FC5F4C98F6 SLOAD PUSH1 0xFF AND JUMPDEST SWAP7 SWAP6 POP POP POP POP POP POP JUMP JUMPDEST PUSH2 0x23E DUP4 PUSH1 0x60 SHL PUSH1 0x1 PUSH1 0x1 PUSH1 0x60 SHL SUB NOT AND DUP4 PUSH1 0x60 SHL PUSH1 0x1 PUSH1 0x1 PUSH1 0x60 SHL SUB NOT AND DUP4 JUMPDEST PUSH2 0x594 CALLER PUSH1 0x0 CALLDATALOAD PUSH1 0x1 PUSH1 0x1 PUSH1 0xE0 SHL SUB NOT AND PUSH2 0x60C JUMP JUMPDEST PUSH2 0x5B0 JUMPI PUSH1 0x40 MLOAD PUSH3 0x461BCD PUSH1 0xE5 SHL DUP2 MSTORE PUSH1 0x4 ADD PUSH2 0x1C6 SWAP1 PUSH2 0x7EB JUMP JUMPDEST PUSH1 0x0 DUP4 DUP2 MSTORE PUSH1 0x2 PUSH1 0x20 SWAP1 DUP2 MSTORE PUSH1 0x40 DUP1 DUP4 KECCAK256 DUP6 DUP5 MSTORE DUP3 MSTORE DUP1 DUP4 KECCAK256 DUP5 DUP5 MSTORE SWAP1 SWAP2 MSTORE DUP1 DUP3 KECCAK256 DUP1 SLOAD PUSH1 0xFF NOT AND PUSH1 0x1 OR SWAP1 SSTORE MLOAD DUP3 SWAP2 DUP5 SWAP2 DUP7 SWAP2 PUSH32 0x6F50375045128971C5469D343039BA7B8E30A5B190453737B28BDA6F7A306771 SWAP2 LOG4 POP POP POP JUMP JUMPDEST PUSH1 0x0 PUSH1 0x1 PUSH1 0x1 PUSH1 0xA0 SHL SUB DUP4 AND ADDRESS EQ ISZERO PUSH2 0x627 JUMPI POP PUSH1 0x1 PUSH2 0x6E4 JUMP JUMPDEST PUSH1 0x1 SLOAD PUSH1 0x1 PUSH1 0x1 PUSH1 0xA0 SHL SUB DUP5 DUP2 AND SWAP2 AND EQ ISZERO PUSH2 0x645 JUMPI POP PUSH1 0x1 PUSH2 0x6E4 JUMP JUMPDEST PUSH1 0x0 SLOAD PUSH1 0x1 PUSH1 0x1 PUSH1 0xA0 SHL SUB AND PUSH2 0x65D JUMPI POP PUSH1 0x0 PUSH2 0x6E4 JUMP JUMPDEST PUSH1 0x0 SLOAD PUSH1 0x40 MLOAD PUSH4 0xB7009613 PUSH1 0xE0 SHL DUP2 MSTORE PUSH1 0x1 PUSH1 0x1 PUSH1 0xA0 SHL SUB DUP6 DUP2 AND PUSH1 0x4 DUP4 ADD MSTORE ADDRESS PUSH1 0x24 DUP4 ADD MSTORE PUSH1 0x1 PUSH1 0x1 PUSH1 0xE0 SHL SUB NOT DUP6 AND PUSH1 0x44 DUP4 ADD MSTORE SWAP1 SWAP2 AND SWAP1 PUSH4 0xB7009613 SWAP1 PUSH1 0x64 ADD PUSH1 0x20 PUSH1 0x40 MLOAD DUP1 DUP4 SUB DUP2 DUP7 GAS STATICCALL ISZERO DUP1 ISZERO PUSH2 0x6BD JUMPI RETURNDATASIZE PUSH1 0x0 DUP1 RETURNDATACOPY RETURNDATASIZE PUSH1 0x0 REVERT JUMPDEST POP POP POP POP PUSH1 0x40 MLOAD RETURNDATASIZE PUSH1 0x1F NOT PUSH1 0x1F DUP3 ADD AND DUP3 ADD DUP1 PUSH1 0x40 MSTORE POP DUP2 ADD SWAP1 PUSH2 0x6E1 SWAP2 SWAP1 PUSH2 0x819 JUMP JUMPDEST SWAP1 POP JUMPDEST SWAP3 SWAP2 POP POP JUMP JUMPDEST PUSH1 0x1 PUSH1 0x1 PUSH1 0xA0 SHL SUB DUP2 AND DUP2 EQ PUSH2 0x6FF JUMPI PUSH1 0x0 DUP1 REVERT JUMPDEST POP JUMP JUMPDEST PUSH1 0x0 PUSH1 0x20 DUP3 DUP5 SUB SLT ISZERO PUSH2 0x714 JUMPI PUSH1 0x0 DUP1 REVERT JUMPDEST DUP2 CALLDATALOAD PUSH2 0x71F DUP2 PUSH2 0x6EA JUMP JUMPDEST SWAP4 SWAP3 POP POP POP JUMP JUMPDEST PUSH1 0x0 DUP1 PUSH1 0x0 PUSH1 0x60 DUP5 DUP7 SUB SLT ISZERO PUSH2 0x73B JUMPI PUSH1 0x0 DUP1 REVERT JUMPDEST DUP4 CALLDATALOAD PUSH2 0x746 DUP2 PUSH2 0x6EA JUMP JUMPDEST SWAP3 POP PUSH1 0x20 DUP5 ADD CALLDATALOAD PUSH2 0x756 DUP2 PUSH2 0x6EA JUMP JUMPDEST SWAP3 SWAP6 SWAP3 SWAP5 POP POP POP PUSH1 0x40 SWAP2 SWAP1 SWAP2 ADD CALLDATALOAD SWAP1 JUMP JUMPDEST PUSH1 0x0 DUP1 PUSH1 0x0 PUSH1 0x60 DUP5 DUP7 SUB SLT ISZERO PUSH2 0x77C JUMPI PUSH1 0x0 DUP1 REVERT JUMPDEST POP POP DUP2 CALLDATALOAD SWAP4 PUSH1 0x20 DUP4 ADD CALLDATALOAD SWAP4 POP PUSH1 0x40 SWAP1 SWAP3 ADD CALLDATALOAD SWAP2 SWAP1 POP JUMP JUMPDEST PUSH1 0x0 DUP1 PUSH1 0x0 PUSH1 0x60 DUP5 DUP7 SUB SLT ISZERO PUSH2 0x7A8 JUMPI PUSH1 0x0 DUP1 REVERT JUMPDEST DUP4 CALLDATALOAD PUSH2 0x7B3 DUP2 PUSH2 0x6EA JUMP JUMPDEST SWAP3 POP PUSH1 0x20 DUP5 ADD CALLDATALOAD PUSH2 0x7C3 DUP2 PUSH2 0x6EA JUMP JUMPDEST SWAP2 POP PUSH1 0x40 DUP5 ADD CALLDATALOAD PUSH1 0x1 PUSH1 0x1 PUSH1 0xE0 SHL SUB NOT DUP2 AND DUP2 EQ PUSH2 0x7E0 JUMPI PUSH1 0x0 DUP1 REVERT JUMPDEST DUP1 SWAP2 POP POP SWAP3 POP SWAP3 POP SWAP3 JUMP JUMPDEST PUSH1 0x20 DUP1 DUP3 MSTORE PUSH1 0x14 SWAP1 DUP3 ADD MSTORE PUSH20 0x191CCB585D5D1A0B5D5B985D5D1A1BDC9A5E9959 PUSH1 0x62 SHL PUSH1 0x40 DUP3 ADD MSTORE PUSH1 0x60 ADD SWAP1 JUMP JUMPDEST PUSH1 0x0 PUSH1 0x20 DUP3 DUP5 SUB SLT ISZERO PUSH2 0x82B JUMPI PUSH1 0x0 DUP1 REVERT JUMPDEST DUP2 MLOAD DUP1 ISZERO ISZERO DUP2 EQ PUSH2 0x71F JUMPI PUSH1 0x0 DUP1 REVERT INVALID LOG2 PUSH5 0x6970667358 0x22 SLT KECCAK256 SGT PUSH9 0xFFD4B5BA7FEF6FDA40 SAR SAR REVERT 0xB2 0xE3 0xDF PUSH23 0x441E16902C319B386ABCB6866FBC64736F6C634300080A STOP CALLER ",
  "sha1": "347b563ae40070f8279d3a68cf8712cc8b30c8be",
  "source": "// guard.sol -- simple whitelist implementation of DSAuthority\n\n// Copyright (C) 2017  DappHub, LLC\n\n// This program is free software: you can redistribute it and/or modify\n// it under the terms of the GNU General Public License as published by\n// the Free Software Foundation, either version 3 of the License, or\n// (at your option) any later version.\n\n// This program is distributed in the hope that it will be useful,\n// but WITHOUT ANY WARRANTY; without even the implied warranty of\n// MERCHANTABILITY or FITNESS FOR A PARTICULAR PURPOSE.  See the\n// GNU General Public License for more details.\n\n// You should have received a copy of the GNU General Public License\n// along with this program.  If not, see <http://www.gnu.org/licenses/>.\n\npragma solidity =0.8.10;\n\nimport \"./DSAuth.sol\";\n\ncontract DSGuardEvents {\n    event LogPermit(bytes32 indexed src, bytes32 indexed dst, bytes32 indexed sig);\n\n    event LogForbid(bytes32 indexed src, bytes32 indexed dst, bytes32 indexed sig);\n}\n\ncontract DSGuard is DSAuth, DSAuthority, DSGuardEvents {\n    bytes32 public constant ANY = bytes32(type(uint256).max);\n\n    mapping(bytes32 => mapping(bytes32 => mapping(bytes32 => bool))) acl;\n\n    function canCall(\n        address src_,\n        address dst_,\n        bytes4 sig\n    ) public view returns (bool) {\n        bytes32 src = bytes32(bytes20(src_));\n        bytes32 dst = bytes32(bytes20(dst_));\n\n        return\n            acl[src][dst][sig] ||\n            acl[src][dst][ANY] ||\n            acl[src][ANY][sig] ||\n            acl[src][ANY][ANY] ||\n            acl[ANY][dst][sig] ||\n            acl[ANY][dst][ANY] ||\n            acl[ANY][ANY][sig] ||\n            acl[ANY][ANY][ANY];\n    }\n\n    function permit(\n        bytes32 src,\n        bytes32 dst,\n        bytes32 sig\n    ) public auth {\n        acl[src][dst][sig] = true;\n        emit LogPermit(src, dst, sig);\n    }\n\n    function forbid(\n        bytes32 src,\n        bytes32 dst,\n        bytes32 sig\n    ) public auth {\n        acl[src][dst][sig] = false;\n        emit LogForbid(src, dst, sig);\n    }\n\n    function permit(\n        address src,\n        address dst,\n        bytes32 sig\n    ) public {\n        permit(bytes32(bytes20(src)), bytes32(bytes20(dst)), sig);\n    }\n\n    function forbid(\n        address src,\n        address dst,\n        bytes32 sig\n    ) public {\n        forbid(bytes32(bytes20(src)), bytes32(bytes20(dst)), sig);\n    }\n}\n\ncontract DSGuardFactory {\n    mapping(address => bool) public isGuard;\n\n    function newGuard() public returns (DSGuard guard) {\n        guard = new DSGuard();\n        guard.setOwner(msg.sender);\n        isGuard[address(guard)] = true;\n    }\n}\n",
  "sourcePath": "contracts/core/auth/DSGuard.sol",
  "type": "contract"
}