{
  "abi": [
    {
      "inputs": [],
      "name": "Q112",
      "outputs": [
        {
          "internalType": "uint256",
          "name": "",
          "type": "uint256"
        }
      ],
      "stateMutability": "view",
      "type": "function"
    },
    {
      "inputs": [],
      "name": "RESOLUTION",
      "outputs": [
        {
          "internalType": "uint8",
          "name": "",
          "type": "uint8"
        }
      ],
      "stateMutability": "view",
      "type": "function"
    }
  ],
  "bytecode": "60ad610039600b82828239805160001a60731461002c57634e487b7160e01b600052600060045260246000fd5b30600052607381538281f3fe7300000000000000000000000000000000000000003014608060405260043610603d5760003560e01c80633bf7a83e146042578063552f888a14605f575b600080fd5b604c600160701b81565b6040519081526020015b60405180910390f35b6066607081565b60405160ff9091168152602001605656fea26469706673582212200fcd8a29ae5976bedeb11f542c19e4433f728ed11fc21b845ec680c4c25aaacc64736f6c634300080a0033",
  "bytecodeSha1": "8f11b574630cca6dea19cbcca79b8bb59e480b63",
  "compiler": {
    "evm_version": "istanbul",
    "optimizer": {
      "enabled": true,
      "runs": 200
    },
    "version": "0.8.10+commit.fc410830"
  },
  "contractName": "FixedPoint",
  "language": "Solidity",
  "natspec": {
    "kind": "dev",
    "methods": {},
    "version": 1
  },
  "opcodes": "PUSH20 0x0 ADDRESS EQ PUSH1 0x80 PUSH1 0x40 MSTORE PUSH1 0x4 CALLDATASIZE LT PUSH1 0x3D JUMPI PUSH1 0x0 CALLDATALOAD PUSH1 0xE0 SHR DUP1 PUSH4 0x3BF7A83E EQ PUSH1 0x42 JUMPI DUP1 PUSH4 0x552F888A EQ PUSH1 0x5F JUMPI JUMPDEST PUSH1 0x0 DUP1 REVERT JUMPDEST PUSH1 0x4C PUSH1 0x1 PUSH1 0x70 SHL DUP2 JUMP JUMPDEST PUSH1 0x40 MLOAD SWAP1 DUP2 MSTORE PUSH1 0x20 ADD JUMPDEST PUSH1 0x40 MLOAD DUP1 SWAP2 SUB SWAP1 RETURN JUMPDEST PUSH1 0x66 PUSH1 0x70 DUP2 JUMP JUMPDEST PUSH1 0x40 MLOAD PUSH1 0xFF SWAP1 SWAP2 AND DUP2 MSTORE PUSH1 0x20 ADD PUSH1 0x56 JUMP INVALID LOG2 PUSH5 0x6970667358 0x22 SLT KECCAK256 0xF 0xCD DUP11 0x29 0xAE MSIZE PUSH23 0xBEDEB11F542C19E4433F728ED11FC21B845EC680C4C25A 0xAA 0xCC PUSH5 0x736F6C6343 STOP ADDMOD EXP STOP CALLER ",
  "sha1": "a18b84e1e9c3d4bfb4ef483032d7a441cf64d81b",
  "source": "// SPDX-License-Identifier: GPL-3.0-or-later\npragma solidity >=0.4.0;\n\nimport {FullMath} from './FullMath.sol';\nimport {Babylonian} from './Babylonian.sol';\nimport {BitMath} from './BitMath.sol';\n\n// a library for handling binary fixed point numbers (https://en.wikipedia.org/wiki/Q_(number_format))\nlibrary FixedPoint {\n    // range: [0, 2**112 - 1]\n    // resolution: 1 / 2**112\n    struct uq112x112 {\n        uint224 _x;\n    }\n\n    // range: [0, 2**144 - 1]\n    // resolution: 1 / 2**112\n    struct uq144x112 {\n        uint256 _x;\n    }\n\n    uint8 public constant RESOLUTION = 112;\n    uint256 public constant Q112 = 0x10000000000000000000000000000; // 2**112\n    uint256 private constant Q224 = 0x100000000000000000000000000000000000000000000000000000000; // 2**224\n    uint256 private constant LOWER_MASK = 0xffffffffffffffffffffffffffff; // decimal of UQ*x112 (lower 112 bits)\n\n    // encode a uint112 as a UQ112x112\n    function encode(uint112 x) internal pure returns (uq112x112 memory) {\n        return uq112x112(uint224(x) << RESOLUTION);\n    }\n\n    // encodes a uint144 as a UQ144x112\n    function encode144(uint144 x) internal pure returns (uq144x112 memory) {\n        return uq144x112(uint256(x) << RESOLUTION);\n    }\n\n    // decode a UQ112x112 into a uint112 by truncating after the radix point\n    function decode(uq112x112 memory self) internal pure returns (uint112) {\n        return uint112(self._x >> RESOLUTION);\n    }\n\n    // decode a UQ144x112 into a uint144 by truncating after the radix point\n    function decode144(uq144x112 memory self) internal pure returns (uint144) {\n        return uint144(self._x >> RESOLUTION);\n    }\n\n    // multiply a UQ112x112 by a uint, returning a UQ144x112\n    // reverts on overflow\n    function mul(uq112x112 memory self, uint256 y) internal pure returns (uq144x112 memory) {\n        uint256 z = 0;\n        require(y == 0 || (z = self._x * y) / y == self._x, 'FixedPoint::mul: overflow');\n        return uq144x112(z);\n    }\n\n    // multiply a UQ112x112 by an int and decode, returning an int\n    // reverts on overflow\n    function muli(uq112x112 memory self, int256 y) internal pure returns (int256) {\n        uint256 z = FullMath.mulDiv(self._x, uint256(y < 0 ? -y : y), Q112);\n        require(z < 2**255, 'FixedPoint::muli: overflow');\n        return y < 0 ? -int256(z) : int256(z);\n    }\n\n    // multiply a UQ112x112 by a UQ112x112, returning a UQ112x112\n    // lossy\n    function muluq(uq112x112 memory self, uq112x112 memory other) internal pure returns (uq112x112 memory) {\n        if (self._x == 0 || other._x == 0) {\n            return uq112x112(0);\n        }\n        uint112 upper_self = uint112(self._x >> RESOLUTION); // * 2^0\n        uint112 lower_self = uint112(self._x & LOWER_MASK); // * 2^-112\n        uint112 upper_other = uint112(other._x >> RESOLUTION); // * 2^0\n        uint112 lower_other = uint112(other._x & LOWER_MASK); // * 2^-112\n\n        // partial products\n        uint224 upper = uint224(upper_self) * upper_other; // * 2^0\n        uint224 lower = uint224(lower_self) * lower_other; // * 2^-224\n        uint224 uppers_lowero = uint224(upper_self) * lower_other; // * 2^-112\n        uint224 uppero_lowers = uint224(upper_other) * lower_self; // * 2^-112\n\n        // so the bit shift does not overflow\n        require(upper <= 2**224 - 1, 'FixedPoint::muluq: upper overflow');\n\n        // this cannot exceed 256 bits, all values are 224 bits\n        uint256 sum = uint256(upper << RESOLUTION) + uppers_lowero + uppero_lowers + (lower >> RESOLUTION);\n\n        // so the cast does not overflow\n        require(sum <= 2**224 - 1, 'FixedPoint::muluq: sum overflow');\n\n        return uq112x112(uint224(sum));\n    }\n\n    // divide a UQ112x112 by a UQ112x112, returning a UQ112x112\n    function divuq(uq112x112 memory self, uq112x112 memory other) internal pure returns (uq112x112 memory) {\n        require(other._x > 0, 'FixedPoint::divuq: division by zero');\n        if (self._x == other._x) {\n            return uq112x112(uint224(Q112));\n        }\n        if (self._x <= 2**144-1) {\n            uint256 value = (uint256(self._x) << RESOLUTION) / other._x;\n            require(value <= 2**224-1, 'FixedPoint::divuq: overflow');\n            return uq112x112(uint224(value));\n        }\n\n        uint256 result = FullMath.mulDiv(Q112, self._x, other._x);\n        require(result <= 2**224-1, 'FixedPoint::divuq: overflow');\n        return uq112x112(uint224(result));\n    }\n\n    // returns a UQ112x112 which represents the ratio of the numerator to the denominator\n    // can be lossy\n    function fraction(uint256 numerator, uint256 denominator) internal pure returns (uq112x112 memory) {\n        require(denominator > 0, 'FixedPoint::fraction: division by zero');\n        if (numerator == 0) return FixedPoint.uq112x112(0);\n\n        if (numerator <= 2**144-1) {\n            uint256 result = (numerator << RESOLUTION) / denominator;\n            require(result <= 2**224-1, 'FixedPoint::fraction: overflow');\n            return uq112x112(uint224(result));\n        } else {\n            uint256 result = FullMath.mulDiv(numerator, Q112, denominator);\n            require(result <= 2**224-1, 'FixedPoint::fraction: overflow');\n            return uq112x112(uint224(result));\n        }\n    }\n\n    // take the reciprocal of a UQ112x112\n    // reverts on overflow\n    // lossy\n    function reciprocal(uq112x112 memory self) internal pure returns (uq112x112 memory) {\n        require(self._x != 0, 'FixedPoint::reciprocal: reciprocal of zero');\n        require(self._x != 1, 'FixedPoint::reciprocal: overflow');\n        return uq112x112(uint224(Q224 / self._x));\n    }\n\n    // square root of a UQ112x112\n    // lossy between 0/1 and 40 bits\n    function sqrt(uq112x112 memory self) internal pure returns (uq112x112 memory) {\n        if (self._x <= 2**144-1) {\n            return uq112x112(uint224(Babylonian.sqrt(uint256(self._x) << 112)));\n        }\n\n        uint8 safeShiftBits = 255 - BitMath.mostSignificantBit(self._x);\n        safeShiftBits -= safeShiftBits % 2;\n        return uq112x112(uint224(Babylonian.sqrt(uint256(self._x) << safeShiftBits) << ((112 - safeShiftBits) / 2)));\n    }\n}",
  "sourcePath": "contracts/libs/FixedPoint.sol",
  "type": "library"
}