{
  "abi": [
    {
      "inputs": [
        {
          "internalType": "address",
          "name": "pair_",
          "type": "address"
        }
      ],
      "stateMutability": "nonpayable",
      "type": "constructor"
    },
    {
      "inputs": [],
      "name": "PERIOD",
      "outputs": [
        {
          "internalType": "uint256",
          "name": "",
          "type": "uint256"
        }
      ],
      "stateMutability": "view",
      "type": "function"
    },
    {
      "inputs": [],
      "name": "blockTimestampLast",
      "outputs": [
        {
          "internalType": "uint32",
          "name": "",
          "type": "uint32"
        }
      ],
      "stateMutability": "view",
      "type": "function"
    },
    {
      "inputs": [
        {
          "internalType": "address",
          "name": "token",
          "type": "address"
        },
        {
          "internalType": "uint256",
          "name": "amountIn",
          "type": "uint256"
        }
      ],
      "name": "consult",
      "outputs": [
        {
          "internalType": "uint256",
          "name": "amountOut",
          "type": "uint256"
        }
      ],
      "stateMutability": "view",
      "type": "function"
    },
    {
      "inputs": [],
      "name": "price0Average",
      "outputs": [
        {
          "internalType": "uint224",
          "name": "_x",
          "type": "uint224"
        }
      ],
      "stateMutability": "view",
      "type": "function"
    },
    {
      "inputs": [],
      "name": "price0CumulativeLast",
      "outputs": [
        {
          "internalType": "uint256",
          "name": "",
          "type": "uint256"
        }
      ],
      "stateMutability": "view",
      "type": "function"
    },
    {
      "inputs": [],
      "name": "price1Average",
      "outputs": [
        {
          "internalType": "uint224",
          "name": "_x",
          "type": "uint224"
        }
      ],
      "stateMutability": "view",
      "type": "function"
    },
    {
      "inputs": [],
      "name": "price1CumulativeLast",
      "outputs": [
        {
          "internalType": "uint256",
          "name": "",
          "type": "uint256"
        }
      ],
      "stateMutability": "view",
      "type": "function"
    },
    {
      "inputs": [],
      "name": "token0",
      "outputs": [
        {
          "internalType": "address",
          "name": "",
          "type": "address"
        }
      ],
      "stateMutability": "view",
      "type": "function"
    },
    {
      "inputs": [],
      "name": "token1",
      "outputs": [
        {
          "internalType": "address",
          "name": "",
          "type": "address"
        }
      ],
      "stateMutability": "view",
      "type": "function"
    },
    {
      "inputs": [],
      "name": "update",
      "outputs": [],
      "stateMutability": "nonpayable",
      "type": "function"
    }
  ],
  "bytecode": "60e06040523480156200001157600080fd5b5060405162000f2d38038062000f2d83398101604081905262000034916200031c565b6001600160a01b038116608081905260408051630dfe168160e01b81529051630dfe1681916004808201926020929091908290030181865afa1580156200007f573d6000803e3d6000fd5b505050506040513d601f19601f82011682018060405250810190620000a591906200031c565b6001600160a01b031660a0816001600160a01b0316815250506080516001600160a01b031663d21220a76040518163ffffffff1660e01b8152600401602060405180830381865afa158015620000ff573d6000803e3d6000fd5b505050506040513d601f19601f820116820180604052508101906200012591906200031c565b6001600160a01b031660c0816001600160a01b0316815250506080516001600160a01b0316635909c0d56040518163ffffffff1660e01b8152600401602060405180830381865afa1580156200017f573d6000803e3d6000fd5b505050506040513d601f19601f82011682018060405250810190620001a591906200034e565b6000819055506080516001600160a01b0316635a3d54936040518163ffffffff1660e01b8152600401602060405180830381865afa158015620001ec573d6000803e3d6000fd5b505050506040513d601f19601f820116820180604052508101906200021291906200034e565b6001819055506000806080516001600160a01b0316630902f1ac6040518163ffffffff1660e01b8152600401606060405180830381865afa1580156200025c573d6000803e3d6000fd5b505050506040513d601f19601f8201168201806040525081019062000282919062000385565b6002805463ffffffff191663ffffffff9290921691909117905590925090506001600160701b03821615801590620002c257506001600160701b03811615155b620003135760405162461bcd60e51b815260206004820152601860248201527f5068616e746f6d545741503a204e4f5f52455345525645530000000000000000604482015260640160405180910390fd5b505050620003db565b6000602082840312156200032f57600080fd5b81516001600160a01b03811681146200034757600080fd5b9392505050565b6000602082840312156200036157600080fd5b5051919050565b80516001600160701b03811681146200038057600080fd5b919050565b6000806000606084860312156200039b57600080fd5b620003a68462000368565b9250620003b66020850162000368565b9150604084015163ffffffff81168114620003d057600080fd5b809150509250925092565b60805160a05160c051610b0e6200041f60003960008181610195015261030901526000818160a801526102ab0152600081816101fb01526103bc0152610b0e6000f3fe608060405234801561001057600080fd5b506004361061009e5760003560e01c8063a2e6204511610066578063a2e6204514610145578063a6bb45391461014f578063b4d1d79514610162578063c5700a021461016b578063d21220a71461019057600080fd5b80630dfe1681146100a35780633ddac953146100e75780635909c0d5146101085780635a3d5493146101115780635e6aaf2c1461011a575b600080fd5b6100ca7f000000000000000000000000000000000000000000000000000000000000000081565b6040516001600160a01b0390911681526020015b60405180910390f35b6100fa6100f5366004610991565b6101b7565b6040519081526020016100de565b6100fa60005481565b6100fa60015481565b60045461012d906001600160e01b031681565b6040516001600160e01b0390911681526020016100de565b61014d6103b2565b005b60035461012d906001600160e01b031681565b6100fa61070881565b60025461017b9063ffffffff1681565b60405163ffffffff90911681526020016100de565b6100ca7f000000000000000000000000000000000000000000000000000000000000000081565b6000816101c6575060006103ac565b60408051602080820183526003546001600160e01b03908116835283519182019093526004549092168252906000808061021f7f00000000000000000000000000000000000000000000000000000000000000006104c3565b600254929550909350915063ffffffff90811682039061070890821610156102a85760405180602001604052808263ffffffff16600054870381610265576102656109c9565b046001600160e01b0316815250955060405180602001604052808263ffffffff16600154860381610298576102986109c9565b046001600160e01b031681525094505b507f00000000000000000000000000000000000000000000000000000000000000006001600160a01b0316886001600160a01b03161415610307576102f76102f0868961068b565b5160701c90565b6001600160901b031695506103a6565b7f00000000000000000000000000000000000000000000000000000000000000006001600160a01b0316886001600160a01b03161461038d5760405162461bcd60e51b815260206004820152601a60248201527f5068616e746f6d545741503a20494e56414c49445f544f4b454e00000000000060448201526064015b60405180910390fd5b61039a6102f0858961068b565b6001600160901b031695505b50505050505b92915050565b60008060006103e07f00000000000000000000000000000000000000000000000000000000000000006104c3565b600254929550909350915063ffffffff908116820390610708908216106104075750505050565b60405180602001604052808263ffffffff1660005487038161042b5761042b6109c9565b046001600160e01b039081169091529051600380546001600160e01b031916919092161790556040805160208101909152600154819063ffffffff841690860381610478576104786109c9565b046001600160e01b039081169091529051600480546001600160e01b03191691909216179055506000929092556001556002805463ffffffff191663ffffffff909216919091179055565b60008060006104d0610729565b9050836001600160a01b0316635909c0d56040518163ffffffff1660e01b8152600401602060405180830381865afa158015610510573d6000803e3d6000fd5b505050506040513d601f19601f8201168201806040525081019061053491906109df565b9250836001600160a01b0316635a3d54936040518163ffffffff1660e01b8152600401602060405180830381865afa158015610574573d6000803e3d6000fd5b505050506040513d601f19601f8201168201806040525081019061059891906109df565b91506000806000866001600160a01b0316630902f1ac6040518163ffffffff1660e01b8152600401606060405180830381865afa1580156105dd573d6000803e3d6000fd5b505050506040513d601f19601f820116820180604052508101906106019190610a14565b9250925092508363ffffffff168163ffffffff16146106815780840363ffffffff811661063a6001600160701b0380861690871661073f565b600001516001600160e01b031602870196508063ffffffff1661066f856001600160701b0316856001600160701b031661073f565b516001600160e01b0316029590950194505b5050509193909250565b60408051602081019091526000815260008215806106c8575083516001600160e01b0316836106ba8183610a7a565b92506106c69083610a99565b145b6107145760405162461bcd60e51b815260206004820152601960248201527f4669786564506f696e743a3a6d756c3a206f766572666c6f77000000000000006044820152606401610384565b60408051602081019091529081529392505050565b600061073a64010000000042610aad565b905090565b604080516020810190915260008152600082116107ad5760405162461bcd60e51b815260206004820152602660248201527f4669786564506f696e743a3a6672616374696f6e3a206469766973696f6e206260448201526579207a65726f60d01b6064820152608401610384565b826107c757506040805160208101909152600081526103ac565b6001600160901b03831161085e5760006107e583607086901b610a99565b90506001600160e01b0381111561083e5760405162461bcd60e51b815260206004820152601e60248201527f4669786564506f696e743a3a6672616374696f6e3a206f766572666c6f7700006044820152606401610384565b6040518060200160405280826001600160e01b03168152509150506103ac565b60006107e584600160701b8560008060006108798686610934565b915091506000848061088d5761088d6109c9565b8688099050828111156108a8576108a5600183610ac1565b91505b6108b28184610ac1565b9250816108cd576108c38584610a99565b935050505061092d565b84821061091c5760405162461bcd60e51b815260206004820152601a60248201527f46756c6c4d6174683a2046554c4c4449565f4f564552464c4f570000000000006044820152606401610384565b610927838387610976565b93505050505b9392505050565b60008080600019848609905061094a8486610a7a565b92506109568382610ac1565b91508281101561096e5761096b600183610ac1565b91505b509250929050565b828202831584820484141761098a57600080fd5b0492915050565b600080604083850312156109a457600080fd5b82356001600160a01b03811681146109bb57600080fd5b946020939093013593505050565b634e487b7160e01b600052601260045260246000fd5b6000602082840312156109f157600080fd5b5051919050565b80516001600160701b0381168114610a0f57600080fd5b919050565b600080600060608486031215610a2957600080fd5b610a32846109f8565b9250610a40602085016109f8565b9150604084015163ffffffff81168114610a5957600080fd5b809150509250925092565b634e487b7160e01b600052601160045260246000fd5b6000816000190483118215151615610a9457610a94610a64565b500290565b600082610aa857610aa86109c9565b500490565b600082610abc57610abc6109c9565b500690565b600082821015610ad357610ad3610a64565b50039056fea2646970667358221220b74ec42a8187d763d3778d1673c8aac608dda95987937bec2b51aa32ea828dcb64736f6c634300080a0033",
  "bytecodeSha1": "70738cb96157b6921f6bcb3567a55b70cd92ff3c",
  "compiler": {
    "evm_version": "istanbul",
    "optimizer": {
      "enabled": true,
      "runs": 200
    },
    "version": "0.8.10+commit.fc410830"
  },
  "contractName": "PhantomTWAP",
  "language": "Solidity",
  "natspec": {
    "kind": "dev",
    "methods": {},
    "version": 1
  },
  "opcodes": "PUSH1 0x80 PUSH1 0x40 MSTORE CALLVALUE DUP1 ISZERO PUSH2 0x10 JUMPI PUSH1 0x0 DUP1 REVERT JUMPDEST POP PUSH1 0x4 CALLDATASIZE LT PUSH2 0x9E JUMPI PUSH1 0x0 CALLDATALOAD PUSH1 0xE0 SHR DUP1 PUSH4 0xA2E62045 GT PUSH2 0x66 JUMPI DUP1 PUSH4 0xA2E62045 EQ PUSH2 0x145 JUMPI DUP1 PUSH4 0xA6BB4539 EQ PUSH2 0x14F JUMPI DUP1 PUSH4 0xB4D1D795 EQ PUSH2 0x162 JUMPI DUP1 PUSH4 0xC5700A02 EQ PUSH2 0x16B JUMPI DUP1 PUSH4 0xD21220A7 EQ PUSH2 0x190 JUMPI PUSH1 0x0 DUP1 REVERT JUMPDEST DUP1 PUSH4 0xDFE1681 EQ PUSH2 0xA3 JUMPI DUP1 PUSH4 0x3DDAC953 EQ PUSH2 0xE7 JUMPI DUP1 PUSH4 0x5909C0D5 EQ PUSH2 0x108 JUMPI DUP1 PUSH4 0x5A3D5493 EQ PUSH2 0x111 JUMPI DUP1 PUSH4 0x5E6AAF2C EQ PUSH2 0x11A JUMPI JUMPDEST PUSH1 0x0 DUP1 REVERT JUMPDEST PUSH2 0xCA PUSH32 0x0 DUP2 JUMP JUMPDEST PUSH1 0x40 MLOAD PUSH1 0x1 PUSH1 0x1 PUSH1 0xA0 SHL SUB SWAP1 SWAP2 AND DUP2 MSTORE PUSH1 0x20 ADD JUMPDEST PUSH1 0x40 MLOAD DUP1 SWAP2 SUB SWAP1 RETURN JUMPDEST PUSH2 0xFA PUSH2 0xF5 CALLDATASIZE PUSH1 0x4 PUSH2 0x991 JUMP JUMPDEST PUSH2 0x1B7 JUMP JUMPDEST PUSH1 0x40 MLOAD SWAP1 DUP2 MSTORE PUSH1 0x20 ADD PUSH2 0xDE JUMP JUMPDEST PUSH2 0xFA PUSH1 0x0 SLOAD DUP2 JUMP JUMPDEST PUSH2 0xFA PUSH1 0x1 SLOAD DUP2 JUMP JUMPDEST PUSH1 0x4 SLOAD PUSH2 0x12D SWAP1 PUSH1 0x1 PUSH1 0x1 PUSH1 0xE0 SHL SUB AND DUP2 JUMP JUMPDEST PUSH1 0x40 MLOAD PUSH1 0x1 PUSH1 0x1 PUSH1 0xE0 SHL SUB SWAP1 SWAP2 AND DUP2 MSTORE PUSH1 0x20 ADD PUSH2 0xDE JUMP JUMPDEST PUSH2 0x14D PUSH2 0x3B2 JUMP JUMPDEST STOP JUMPDEST PUSH1 0x3 SLOAD PUSH2 0x12D SWAP1 PUSH1 0x1 PUSH1 0x1 PUSH1 0xE0 SHL SUB AND DUP2 JUMP JUMPDEST PUSH2 0xFA PUSH2 0x708 DUP2 JUMP JUMPDEST PUSH1 0x2 SLOAD PUSH2 0x17B SWAP1 PUSH4 0xFFFFFFFF AND DUP2 JUMP JUMPDEST PUSH1 0x40 MLOAD PUSH4 0xFFFFFFFF SWAP1 SWAP2 AND DUP2 MSTORE PUSH1 0x20 ADD PUSH2 0xDE JUMP JUMPDEST PUSH2 0xCA PUSH32 0x0 DUP2 JUMP JUMPDEST PUSH1 0x0 DUP2 PUSH2 0x1C6 JUMPI POP PUSH1 0x0 PUSH2 0x3AC JUMP JUMPDEST PUSH1 0x40 DUP1 MLOAD PUSH1 0x20 DUP1 DUP3 ADD DUP4 MSTORE PUSH1 0x3 SLOAD PUSH1 0x1 PUSH1 0x1 PUSH1 0xE0 SHL SUB SWAP1 DUP2 AND DUP4 MSTORE DUP4 MLOAD SWAP2 DUP3 ADD SWAP1 SWAP4 MSTORE PUSH1 0x4 SLOAD SWAP1 SWAP3 AND DUP3 MSTORE SWAP1 PUSH1 0x0 DUP1 DUP1 PUSH2 0x21F PUSH32 0x0 PUSH2 0x4C3 JUMP JUMPDEST PUSH1 0x2 SLOAD SWAP3 SWAP6 POP SWAP1 SWAP4 POP SWAP2 POP PUSH4 0xFFFFFFFF SWAP1 DUP2 AND DUP3 SUB SWAP1 PUSH2 0x708 SWAP1 DUP3 AND LT ISZERO PUSH2 0x2A8 JUMPI PUSH1 0x40 MLOAD DUP1 PUSH1 0x20 ADD PUSH1 0x40 MSTORE DUP1 DUP3 PUSH4 0xFFFFFFFF AND PUSH1 0x0 SLOAD DUP8 SUB DUP2 PUSH2 0x265 JUMPI PUSH2 0x265 PUSH2 0x9C9 JUMP JUMPDEST DIV PUSH1 0x1 PUSH1 0x1 PUSH1 0xE0 SHL SUB AND DUP2 MSTORE POP SWAP6 POP PUSH1 0x40 MLOAD DUP1 PUSH1 0x20 ADD PUSH1 0x40 MSTORE DUP1 DUP3 PUSH4 0xFFFFFFFF AND PUSH1 0x1 SLOAD DUP7 SUB DUP2 PUSH2 0x298 JUMPI PUSH2 0x298 PUSH2 0x9C9 JUMP JUMPDEST DIV PUSH1 0x1 PUSH1 0x1 PUSH1 0xE0 SHL SUB AND DUP2 MSTORE POP SWAP5 POP JUMPDEST POP PUSH32 0x0 PUSH1 0x1 PUSH1 0x1 PUSH1 0xA0 SHL SUB AND DUP9 PUSH1 0x1 PUSH1 0x1 PUSH1 0xA0 SHL SUB AND EQ ISZERO PUSH2 0x307 JUMPI PUSH2 0x2F7 PUSH2 0x2F0 DUP7 DUP10 PUSH2 0x68B JUMP JUMPDEST MLOAD PUSH1 0x70 SHR SWAP1 JUMP JUMPDEST PUSH1 0x1 PUSH1 0x1 PUSH1 0x90 SHL SUB AND SWAP6 POP PUSH2 0x3A6 JUMP JUMPDEST PUSH32 0x0 PUSH1 0x1 PUSH1 0x1 PUSH1 0xA0 SHL SUB AND DUP9 PUSH1 0x1 PUSH1 0x1 PUSH1 0xA0 SHL SUB AND EQ PUSH2 0x38D JUMPI PUSH1 0x40 MLOAD PUSH3 0x461BCD PUSH1 0xE5 SHL DUP2 MSTORE PUSH1 0x20 PUSH1 0x4 DUP3 ADD MSTORE PUSH1 0x1A PUSH1 0x24 DUP3 ADD MSTORE PUSH32 0x5068616E746F6D545741503A20494E56414C49445F544F4B454E000000000000 PUSH1 0x44 DUP3 ADD MSTORE PUSH1 0x64 ADD JUMPDEST PUSH1 0x40 MLOAD DUP1 SWAP2 SUB SWAP1 REVERT JUMPDEST PUSH2 0x39A PUSH2 0x2F0 DUP6 DUP10 PUSH2 0x68B JUMP JUMPDEST PUSH1 0x1 PUSH1 0x1 PUSH1 0x90 SHL SUB AND SWAP6 POP JUMPDEST POP POP POP POP POP JUMPDEST SWAP3 SWAP2 POP POP JUMP JUMPDEST PUSH1 0x0 DUP1 PUSH1 0x0 PUSH2 0x3E0 PUSH32 0x0 PUSH2 0x4C3 JUMP JUMPDEST PUSH1 0x2 SLOAD SWAP3 SWAP6 POP SWAP1 SWAP4 POP SWAP2 POP PUSH4 0xFFFFFFFF SWAP1 DUP2 AND DUP3 SUB SWAP1 PUSH2 0x708 SWAP1 DUP3 AND LT PUSH2 0x407 JUMPI POP POP POP POP JUMP JUMPDEST PUSH1 0x40 MLOAD DUP1 PUSH1 0x20 ADD PUSH1 0x40 MSTORE DUP1 DUP3 PUSH4 0xFFFFFFFF AND PUSH1 0x0 SLOAD DUP8 SUB DUP2 PUSH2 0x42B JUMPI PUSH2 0x42B PUSH2 0x9C9 JUMP JUMPDEST DIV PUSH1 0x1 PUSH1 0x1 PUSH1 0xE0 SHL SUB SWAP1 DUP2 AND SWAP1 SWAP2 MSTORE SWAP1 MLOAD PUSH1 0x3 DUP1 SLOAD PUSH1 0x1 PUSH1 0x1 PUSH1 0xE0 SHL SUB NOT AND SWAP2 SWAP1 SWAP3 AND OR SWAP1 SSTORE PUSH1 0x40 DUP1 MLOAD PUSH1 0x20 DUP2 ADD SWAP1 SWAP2 MSTORE PUSH1 0x1 SLOAD DUP2 SWAP1 PUSH4 0xFFFFFFFF DUP5 AND SWAP1 DUP7 SUB DUP2 PUSH2 0x478 JUMPI PUSH2 0x478 PUSH2 0x9C9 JUMP JUMPDEST DIV PUSH1 0x1 PUSH1 0x1 PUSH1 0xE0 SHL SUB SWAP1 DUP2 AND SWAP1 SWAP2 MSTORE SWAP1 MLOAD PUSH1 0x4 DUP1 SLOAD PUSH1 0x1 PUSH1 0x1 PUSH1 0xE0 SHL SUB NOT AND SWAP2 SWAP1 SWAP3 AND OR SWAP1 SSTORE POP PUSH1 0x0 SWAP3 SWAP1 SWAP3 SSTORE PUSH1 0x1 SSTORE PUSH1 0x2 DUP1 SLOAD PUSH4 0xFFFFFFFF NOT AND PUSH4 0xFFFFFFFF SWAP1 SWAP3 AND SWAP2 SWAP1 SWAP2 OR SWAP1 SSTORE JUMP JUMPDEST PUSH1 0x0 DUP1 PUSH1 0x0 PUSH2 0x4D0 PUSH2 0x729 JUMP JUMPDEST SWAP1 POP DUP4 PUSH1 0x1 PUSH1 0x1 PUSH1 0xA0 SHL SUB AND PUSH4 0x5909C0D5 PUSH1 0x40 MLOAD DUP2 PUSH4 0xFFFFFFFF AND PUSH1 0xE0 SHL DUP2 MSTORE PUSH1 0x4 ADD PUSH1 0x20 PUSH1 0x40 MLOAD DUP1 DUP4 SUB DUP2 DUP7 GAS STATICCALL ISZERO DUP1 ISZERO PUSH2 0x510 JUMPI RETURNDATASIZE PUSH1 0x0 DUP1 RETURNDATACOPY RETURNDATASIZE PUSH1 0x0 REVERT JUMPDEST POP POP POP POP PUSH1 0x40 MLOAD RETURNDATASIZE PUSH1 0x1F NOT PUSH1 0x1F DUP3 ADD AND DUP3 ADD DUP1 PUSH1 0x40 MSTORE POP DUP2 ADD SWAP1 PUSH2 0x534 SWAP2 SWAP1 PUSH2 0x9DF JUMP JUMPDEST SWAP3 POP DUP4 PUSH1 0x1 PUSH1 0x1 PUSH1 0xA0 SHL SUB AND PUSH4 0x5A3D5493 PUSH1 0x40 MLOAD DUP2 PUSH4 0xFFFFFFFF AND PUSH1 0xE0 SHL DUP2 MSTORE PUSH1 0x4 ADD PUSH1 0x20 PUSH1 0x40 MLOAD DUP1 DUP4 SUB DUP2 DUP7 GAS STATICCALL ISZERO DUP1 ISZERO PUSH2 0x574 JUMPI RETURNDATASIZE PUSH1 0x0 DUP1 RETURNDATACOPY RETURNDATASIZE PUSH1 0x0 REVERT JUMPDEST POP POP POP POP PUSH1 0x40 MLOAD RETURNDATASIZE PUSH1 0x1F NOT PUSH1 0x1F DUP3 ADD AND DUP3 ADD DUP1 PUSH1 0x40 MSTORE POP DUP2 ADD SWAP1 PUSH2 0x598 SWAP2 SWAP1 PUSH2 0x9DF JUMP JUMPDEST SWAP2 POP PUSH1 0x0 DUP1 PUSH1 0x0 DUP7 PUSH1 0x1 PUSH1 0x1 PUSH1 0xA0 SHL SUB AND PUSH4 0x902F1AC PUSH1 0x40 MLOAD DUP2 PUSH4 0xFFFFFFFF AND PUSH1 0xE0 SHL DUP2 MSTORE PUSH1 0x4 ADD PUSH1 0x60 PUSH1 0x40 MLOAD DUP1 DUP4 SUB DUP2 DUP7 GAS STATICCALL ISZERO DUP1 ISZERO PUSH2 0x5DD JUMPI RETURNDATASIZE PUSH1 0x0 DUP1 RETURNDATACOPY RETURNDATASIZE PUSH1 0x0 REVERT JUMPDEST POP POP POP POP PUSH1 0x40 MLOAD RETURNDATASIZE PUSH1 0x1F NOT PUSH1 0x1F DUP3 ADD AND DUP3 ADD DUP1 PUSH1 0x40 MSTORE POP DUP2 ADD SWAP1 PUSH2 0x601 SWAP2 SWAP1 PUSH2 0xA14 JUMP JUMPDEST SWAP3 POP SWAP3 POP SWAP3 POP DUP4 PUSH4 0xFFFFFFFF AND DUP2 PUSH4 0xFFFFFFFF AND EQ PUSH2 0x681 JUMPI DUP1 DUP5 SUB PUSH4 0xFFFFFFFF DUP2 AND PUSH2 0x63A PUSH1 0x1 PUSH1 0x1 PUSH1 0x70 SHL SUB DUP1 DUP7 AND SWAP1 DUP8 AND PUSH2 0x73F JUMP JUMPDEST PUSH1 0x0 ADD MLOAD PUSH1 0x1 PUSH1 0x1 PUSH1 0xE0 SHL SUB AND MUL DUP8 ADD SWAP7 POP DUP1 PUSH4 0xFFFFFFFF AND PUSH2 0x66F DUP6 PUSH1 0x1 PUSH1 0x1 PUSH1 0x70 SHL SUB AND DUP6 PUSH1 0x1 PUSH1 0x1 PUSH1 0x70 SHL SUB AND PUSH2 0x73F JUMP JUMPDEST MLOAD PUSH1 0x1 PUSH1 0x1 PUSH1 0xE0 SHL SUB AND MUL SWAP6 SWAP1 SWAP6 ADD SWAP5 POP JUMPDEST POP POP POP SWAP2 SWAP4 SWAP1 SWAP3 POP JUMP JUMPDEST PUSH1 0x40 DUP1 MLOAD PUSH1 0x20 DUP2 ADD SWAP1 SWAP2 MSTORE PUSH1 0x0 DUP2 MSTORE PUSH1 0x0 DUP3 ISZERO DUP1 PUSH2 0x6C8 JUMPI POP DUP4 MLOAD PUSH1 0x1 PUSH1 0x1 PUSH1 0xE0 SHL SUB AND DUP4 PUSH2 0x6BA DUP2 DUP4 PUSH2 0xA7A JUMP JUMPDEST SWAP3 POP PUSH2 0x6C6 SWAP1 DUP4 PUSH2 0xA99 JUMP JUMPDEST EQ JUMPDEST PUSH2 0x714 JUMPI PUSH1 0x40 MLOAD PUSH3 0x461BCD PUSH1 0xE5 SHL DUP2 MSTORE PUSH1 0x20 PUSH1 0x4 DUP3 ADD MSTORE PUSH1 0x19 PUSH1 0x24 DUP3 ADD MSTORE PUSH32 0x4669786564506F696E743A3A6D756C3A206F766572666C6F7700000000000000 PUSH1 0x44 DUP3 ADD MSTORE PUSH1 0x64 ADD PUSH2 0x384 JUMP JUMPDEST PUSH1 0x40 DUP1 MLOAD PUSH1 0x20 DUP2 ADD SWAP1 SWAP2 MSTORE SWAP1 DUP2 MSTORE SWAP4 SWAP3 POP POP POP JUMP JUMPDEST PUSH1 0x0 PUSH2 0x73A PUSH5 0x100000000 TIMESTAMP PUSH2 0xAAD JUMP JUMPDEST SWAP1 POP SWAP1 JUMP JUMPDEST PUSH1 0x40 DUP1 MLOAD PUSH1 0x20 DUP2 ADD SWAP1 SWAP2 MSTORE PUSH1 0x0 DUP2 MSTORE PUSH1 0x0 DUP3 GT PUSH2 0x7AD JUMPI PUSH1 0x40 MLOAD PUSH3 0x461BCD PUSH1 0xE5 SHL DUP2 MSTORE PUSH1 0x20 PUSH1 0x4 DUP3 ADD MSTORE PUSH1 0x26 PUSH1 0x24 DUP3 ADD MSTORE PUSH32 0x4669786564506F696E743A3A6672616374696F6E3A206469766973696F6E2062 PUSH1 0x44 DUP3 ADD MSTORE PUSH6 0x79207A65726F PUSH1 0xD0 SHL PUSH1 0x64 DUP3 ADD MSTORE PUSH1 0x84 ADD PUSH2 0x384 JUMP JUMPDEST DUP3 PUSH2 0x7C7 JUMPI POP PUSH1 0x40 DUP1 MLOAD PUSH1 0x20 DUP2 ADD SWAP1 SWAP2 MSTORE PUSH1 0x0 DUP2 MSTORE PUSH2 0x3AC JUMP JUMPDEST PUSH1 0x1 PUSH1 0x1 PUSH1 0x90 SHL SUB DUP4 GT PUSH2 0x85E JUMPI PUSH1 0x0 PUSH2 0x7E5 DUP4 PUSH1 0x70 DUP7 SWAP1 SHL PUSH2 0xA99 JUMP JUMPDEST SWAP1 POP PUSH1 0x1 PUSH1 0x1 PUSH1 0xE0 SHL SUB DUP2 GT ISZERO PUSH2 0x83E JUMPI PUSH1 0x40 MLOAD PUSH3 0x461BCD PUSH1 0xE5 SHL DUP2 MSTORE PUSH1 0x20 PUSH1 0x4 DUP3 ADD MSTORE PUSH1 0x1E PUSH1 0x24 DUP3 ADD MSTORE PUSH32 0x4669786564506F696E743A3A6672616374696F6E3A206F766572666C6F770000 PUSH1 0x44 DUP3 ADD MSTORE PUSH1 0x64 ADD PUSH2 0x384 JUMP JUMPDEST PUSH1 0x40 MLOAD DUP1 PUSH1 0x20 ADD PUSH1 0x40 MSTORE DUP1 DUP3 PUSH1 0x1 PUSH1 0x1 PUSH1 0xE0 SHL SUB AND DUP2 MSTORE POP SWAP2 POP POP PUSH2 0x3AC JUMP JUMPDEST PUSH1 0x0 PUSH2 0x7E5 DUP5 PUSH1 0x1 PUSH1 0x70 SHL DUP6 PUSH1 0x0 DUP1 PUSH1 0x0 PUSH2 0x879 DUP7 DUP7 PUSH2 0x934 JUMP JUMPDEST SWAP2 POP SWAP2 POP PUSH1 0x0 DUP5 DUP1 PUSH2 0x88D JUMPI PUSH2 0x88D PUSH2 0x9C9 JUMP JUMPDEST DUP7 DUP9 MULMOD SWAP1 POP DUP3 DUP2 GT ISZERO PUSH2 0x8A8 JUMPI PUSH2 0x8A5 PUSH1 0x1 DUP4 PUSH2 0xAC1 JUMP JUMPDEST SWAP2 POP JUMPDEST PUSH2 0x8B2 DUP2 DUP5 PUSH2 0xAC1 JUMP JUMPDEST SWAP3 POP DUP2 PUSH2 0x8CD JUMPI PUSH2 0x8C3 DUP6 DUP5 PUSH2 0xA99 JUMP JUMPDEST SWAP4 POP POP POP POP PUSH2 0x92D JUMP JUMPDEST DUP5 DUP3 LT PUSH2 0x91C JUMPI PUSH1 0x40 MLOAD PUSH3 0x461BCD PUSH1 0xE5 SHL DUP2 MSTORE PUSH1 0x20 PUSH1 0x4 DUP3 ADD MSTORE PUSH1 0x1A PUSH1 0x24 DUP3 ADD MSTORE PUSH32 0x46756C6C4D6174683A2046554C4C4449565F4F564552464C4F57000000000000 PUSH1 0x44 DUP3 ADD MSTORE PUSH1 0x64 ADD PUSH2 0x384 JUMP JUMPDEST PUSH2 0x927 DUP4 DUP4 DUP8 PUSH2 0x976 JUMP JUMPDEST SWAP4 POP POP POP POP JUMPDEST SWAP4 SWAP3 POP POP POP JUMP JUMPDEST PUSH1 0x0 DUP1 DUP1 PUSH1 0x0 NOT DUP5 DUP7 MULMOD SWAP1 POP PUSH2 0x94A DUP5 DUP7 PUSH2 0xA7A JUMP JUMPDEST SWAP3 POP PUSH2 0x956 DUP4 DUP3 PUSH2 0xAC1 JUMP JUMPDEST SWAP2 POP DUP3 DUP2 LT ISZERO PUSH2 0x96E JUMPI PUSH2 0x96B PUSH1 0x1 DUP4 PUSH2 0xAC1 JUMP JUMPDEST SWAP2 POP JUMPDEST POP SWAP3 POP SWAP3 SWAP1 POP JUMP JUMPDEST DUP3 DUP3 MUL DUP4 ISZERO DUP5 DUP3 DIV DUP5 EQ OR PUSH2 0x98A JUMPI PUSH1 0x0 DUP1 REVERT JUMPDEST DIV SWAP3 SWAP2 POP POP JUMP JUMPDEST PUSH1 0x0 DUP1 PUSH1 0x40 DUP4 DUP6 SUB SLT ISZERO PUSH2 0x9A4 JUMPI PUSH1 0x0 DUP1 REVERT JUMPDEST DUP3 CALLDATALOAD PUSH1 0x1 PUSH1 0x1 PUSH1 0xA0 SHL SUB DUP2 AND DUP2 EQ PUSH2 0x9BB JUMPI PUSH1 0x0 DUP1 REVERT JUMPDEST SWAP5 PUSH1 0x20 SWAP4 SWAP1 SWAP4 ADD CALLDATALOAD SWAP4 POP POP POP JUMP JUMPDEST PUSH4 0x4E487B71 PUSH1 0xE0 SHL PUSH1 0x0 MSTORE PUSH1 0x12 PUSH1 0x4 MSTORE PUSH1 0x24 PUSH1 0x0 REVERT JUMPDEST PUSH1 0x0 PUSH1 0x20 DUP3 DUP5 SUB SLT ISZERO PUSH2 0x9F1 JUMPI PUSH1 0x0 DUP1 REVERT JUMPDEST POP MLOAD SWAP2 SWAP1 POP JUMP JUMPDEST DUP1 MLOAD PUSH1 0x1 PUSH1 0x1 PUSH1 0x70 SHL SUB DUP2 AND DUP2 EQ PUSH2 0xA0F JUMPI PUSH1 0x0 DUP1 REVERT JUMPDEST SWAP2 SWAP1 POP JUMP JUMPDEST PUSH1 0x0 DUP1 PUSH1 0x0 PUSH1 0x60 DUP5 DUP7 SUB SLT ISZERO PUSH2 0xA29 JUMPI PUSH1 0x0 DUP1 REVERT JUMPDEST PUSH2 0xA32 DUP5 PUSH2 0x9F8 JUMP JUMPDEST SWAP3 POP PUSH2 0xA40 PUSH1 0x20 DUP6 ADD PUSH2 0x9F8 JUMP JUMPDEST SWAP2 POP PUSH1 0x40 DUP5 ADD MLOAD PUSH4 0xFFFFFFFF DUP2 AND DUP2 EQ PUSH2 0xA59 JUMPI PUSH1 0x0 DUP1 REVERT JUMPDEST DUP1 SWAP2 POP POP SWAP3 POP SWAP3 POP SWAP3 JUMP JUMPDEST PUSH4 0x4E487B71 PUSH1 0xE0 SHL PUSH1 0x0 MSTORE PUSH1 0x11 PUSH1 0x4 MSTORE PUSH1 0x24 PUSH1 0x0 REVERT JUMPDEST PUSH1 0x0 DUP2 PUSH1 0x0 NOT DIV DUP4 GT DUP3 ISZERO ISZERO AND ISZERO PUSH2 0xA94 JUMPI PUSH2 0xA94 PUSH2 0xA64 JUMP JUMPDEST POP MUL SWAP1 JUMP JUMPDEST PUSH1 0x0 DUP3 PUSH2 0xAA8 JUMPI PUSH2 0xAA8 PUSH2 0x9C9 JUMP JUMPDEST POP DIV SWAP1 JUMP JUMPDEST PUSH1 0x0 DUP3 PUSH2 0xABC JUMPI PUSH2 0xABC PUSH2 0x9C9 JUMP JUMPDEST POP MOD SWAP1 JUMP JUMPDEST PUSH1 0x0 DUP3 DUP3 LT ISZERO PUSH2 0xAD3 JUMPI PUSH2 0xAD3 PUSH2 0xA64 JUMP JUMPDEST POP SUB SWAP1 JUMP INVALID LOG2 PUSH5 0x6970667358 0x22 SLT KECCAK256 0xB7 0x4E 0xC4 0x2A DUP2 DUP8 0xD7 PUSH4 0xD3778D16 PUSH20 0xC8AAC608DDA95987937BEC2B51AA32EA828DCB64 PUSH20 0x6F6C634300080A00330000000000000000000000 ",
  "sha1": "060246e454041231ba035da387890ab5955cb5f7",
  "source": "/* SPDX-License-Identifier: MIT */\npragma solidity =0.8.10;\n\nimport {IUniswapV2Pair} from \"@uniswap/v2-core/contracts/interfaces/IUniswapV2Pair.sol\";\nimport '../libs/FixedPoint.sol';\n\nimport '../libs/UniswapV2OracleLibrary.sol';\nimport {IUniswapV2Router02} from \"../../../../interfaces/libs/IUniswapV2Router02.sol\";\n\nimport {IPhantomTWAP} from \"../../interfaces/core/IPhantomTWAP.sol\";\n\n\ncontract PhantomTWAP is IPhantomTWAP {\n    using FixedPoint for FixedPoint.uq144x112;\n    using FixedPoint for FixedPoint.uq112x112;\n\n    uint    public constant PERIOD = 30 minutes;\n\n    IUniswapV2Pair immutable pair;\n    address public immutable token0;\n    address public immutable token1;\n\n    uint    public price0CumulativeLast;\n    uint    public price1CumulativeLast;\n    uint32  public blockTimestampLast;\n    FixedPoint.uq112x112 public price0Average;\n    FixedPoint.uq112x112 public price1Average;\n\n    constructor(address pair_) public {\n        pair = IUniswapV2Pair(pair_);\n        token0 = pair.token0();\n        token1 = pair.token1();\n        price0CumulativeLast = pair.price0CumulativeLast(); // fetch the current accumulated price value (1 / 0)\n        price1CumulativeLast = pair.price1CumulativeLast(); // fetch the current accumulated price value (0 / 1)\n        uint112 reserve0;\n        uint112 reserve1;\n        (reserve0, reserve1, blockTimestampLast) = pair.getReserves();\n        require(reserve0 != 0 && reserve1 != 0, 'PhantomTWAP: NO_RESERVES'); // ensure that there's liquidity in the pair\n    }\n\n    function update() external override {\n        (uint price0Cumulative, uint price1Cumulative, uint32 blockTimestamp) =\n            UniswapV2OracleLibrary.currentCumulativePrices(address(pair));\n        unchecked {\n            uint32 timeElapsed = blockTimestamp - blockTimestampLast; // overflow is desired\n            // ensure that at least one full period has passed since the last update\n            if (timeElapsed >= PERIOD) return;\n\n            // overflow is desired, casting never truncates\n            // cumulative price is in (uq112x112 price * seconds) units so we simply wrap it after division by time elapsed\n            price0Average = FixedPoint.uq112x112(uint224((price0Cumulative - price0CumulativeLast) / timeElapsed));\n            price1Average = FixedPoint.uq112x112(uint224((price1Cumulative - price1CumulativeLast) / timeElapsed));\n\n            price0CumulativeLast = price0Cumulative;\n            price1CumulativeLast = price1Cumulative;\n            blockTimestampLast = blockTimestamp;\n        }\n    }\n\n    // note this will always return 0 before update has been called successfully for the first time.\n    function consult(address token, uint amountIn) external override view returns (uint amountOut) {\n        if (amountIn == 0) return 0;\n\n        FixedPoint.uq112x112 memory price0Average_ = price0Average;\n        FixedPoint.uq112x112 memory price1Average_ = price1Average;\n        (uint price0Cumulative, uint price1Cumulative, uint32 blockTimestamp) =\n            UniswapV2OracleLibrary.currentCumulativePrices(address(pair));\n\n        // Protect against stale price\n        unchecked {\n            uint32 timeElapsed = blockTimestamp - blockTimestampLast; // overflow is desired\n            // ensure that at least one full period has passed since the last update\n            if (timeElapsed < PERIOD) {\n\n                // overflow is desired, casting never truncates\n                // cumulative price is in (uq112x112 price * seconds) units so we simply wrap it after division by time elapsed\n                price0Average_ = FixedPoint.uq112x112(uint224((price0Cumulative - price0CumulativeLast) / timeElapsed));\n                price1Average_ = FixedPoint.uq112x112(uint224((price1Cumulative - price1CumulativeLast) / timeElapsed));\n            }\n        }\n\n        if (token == token0) {\n            amountOut = price0Average_.mul(amountIn).decode144();\n        } else {\n            require(token == token1, 'PhantomTWAP: INVALID_TOKEN');\n            amountOut = price1Average_.mul(amountIn).decode144();\n        }\n    }\n}",
  "sourcePath": "contracts/core/PhantomTWAP.sol",
  "type": "contract"
}