{
  "abi": [
    {
      "inputs": [
        {
          "internalType": "address",
          "name": "storageAddress",
          "type": "address"
        }
      ],
      "stateMutability": "nonpayable",
      "type": "constructor"
    },
    {
      "inputs": [
        {
          "internalType": "uint256",
          "name": "prod1",
          "type": "uint256"
        },
        {
          "internalType": "uint256",
          "name": "denominator",
          "type": "uint256"
        }
      ],
      "name": "PRBMath__MulDivOverflow",
      "type": "error"
    },
    {
      "inputs": [],
      "name": "PhantomBondingError_ExceedsDebtLimit",
      "type": "error"
    },
    {
      "inputs": [
        {
          "internalType": "address",
          "name": "inToken",
          "type": "address"
        }
      ],
      "name": "PhantomBondingError_IsNotValidBondingToken",
      "type": "error"
    },
    {
      "inputs": [
        {
          "internalType": "address",
          "name": "contractAddress",
          "type": "address"
        }
      ],
      "name": "PhantomStorageMixin__ContractNotFoundByAddressOrIsOutdated",
      "type": "error"
    },
    {
      "inputs": [
        {
          "internalType": "bytes32",
          "name": "contractName",
          "type": "bytes32"
        }
      ],
      "name": "PhantomStorageMixin__ContractNotFoundByNameOrIsOutdated",
      "type": "error"
    },
    {
      "inputs": [
        {
          "internalType": "address",
          "name": "user",
          "type": "address"
        }
      ],
      "name": "PhantomStorageMixin__UserIsNotGuardian",
      "type": "error"
    },
    {
      "anonymous": false,
      "inputs": [
        {
          "indexed": false,
          "internalType": "address",
          "name": "forUser",
          "type": "address"
        },
        {
          "indexed": false,
          "internalType": "uint256",
          "name": "payout",
          "type": "uint256"
        },
        {
          "indexed": false,
          "internalType": "uint256",
          "name": "nonce",
          "type": "uint256"
        }
      ],
      "name": "PhantomBonding_BondCreated",
      "type": "event"
    },
    {
      "anonymous": false,
      "inputs": [
        {
          "indexed": false,
          "internalType": "address",
          "name": "forUser",
          "type": "address"
        },
        {
          "indexed": false,
          "internalType": "uint256",
          "name": "payout",
          "type": "uint256"
        },
        {
          "indexed": false,
          "internalType": "uint256",
          "name": "nonce",
          "type": "uint256"
        }
      ],
      "name": "PhantomBonding_BondRedeemed",
      "type": "event"
    },
    {
      "inputs": [
        {
          "internalType": "address",
          "name": "inUser",
          "type": "address"
        },
        {
          "internalType": "uint256",
          "name": "inAmount",
          "type": "uint256"
        },
        {
          "internalType": "address",
          "name": "inToken",
          "type": "address"
        },
        {
          "internalType": "bytes",
          "name": "inBondType",
          "type": "bytes"
        }
      ],
      "name": "createBond",
      "outputs": [
        {
          "internalType": "uint256",
          "name": "",
          "type": "uint256"
        }
      ],
      "stateMutability": "nonpayable",
      "type": "function"
    },
    {
      "inputs": [
        {
          "internalType": "address",
          "name": "inBonder",
          "type": "address"
        }
      ],
      "name": "lowestNonceAssignable",
      "outputs": [
        {
          "internalType": "uint256",
          "name": "",
          "type": "uint256"
        }
      ],
      "stateMutability": "view",
      "type": "function"
    },
    {
      "inputs": [
        {
          "internalType": "address",
          "name": "inBonder",
          "type": "address"
        }
      ],
      "name": "lowestNonceStillVesting",
      "outputs": [
        {
          "internalType": "uint256",
          "name": "",
          "type": "uint256"
        }
      ],
      "stateMutability": "view",
      "type": "function"
    },
    {
      "inputs": [
        {
          "internalType": "address",
          "name": "inUser",
          "type": "address"
        },
        {
          "internalType": "bool",
          "name": "autoStake",
          "type": "bool"
        }
      ],
      "name": "redeemBonds",
      "outputs": [
        {
          "internalType": "uint256",
          "name": "",
          "type": "uint256"
        }
      ],
      "stateMutability": "nonpayable",
      "type": "function"
    },
    {
      "inputs": [
        {
          "internalType": "address",
          "name": "user",
          "type": "address"
        },
        {
          "internalType": "uint256",
          "name": "rewardForDeposit",
          "type": "uint256"
        }
      ],
      "name": "safeToBond",
      "outputs": [
        {
          "internalType": "bool",
          "name": "",
          "type": "bool"
        }
      ],
      "stateMutability": "view",
      "type": "function"
    }
  ],
  "bytecode": "601260e08181527139b2b1bab934ba3c9730b2323932b9b9b7b360711b6101009081526080918252600d6101209081526c73656375726974792e6e616d6560981b6101405260a0526101a060405260136101609081527f73656375726974792e72656769737465726564000000000000000000000000006101805260c0529091600091620000909183919062001690565b506020828101518051620000ab926001850192019062001690565b5060408201518051620000c991600284019160209091019062001690565b5050604080516103c081018252601b61038082019081527f7068616e746f6d2e636f6e7472616374732e616c7068617377617000000000006103a0830152610100820190815282518084018452601a8082527f7068616e746f6d2e636f6e7472616374732e666f756e646572730000000000006020838101919091526101208501929092528451808601865260198082527f7068616e746f6d2e636f6e7472616374732e7374616b696e67000000000000008285015261014086019190915285518087018752601f81527f7068616e746f6d2e636f6e7472616374732e7374616b696e677761726d75700081850152610160860152855180870187529081527f7068616e746f6d2e636f6e7472616374732e626f6e64696e67000000000000008184015261018085015284518086018652601581527f7068616e746f6d2e636f6e7472616374732e70686d0000000000000000000000818401526101a08501528451808601865260168082527f7068616e746f6d2e636f6e7472616374732e7370686d00000000000000000000828501526101c0860191909152855180870187528181527f7068616e746f6d2e636f6e7472616374732e6770686d00000000000000000000818501526101e0860152855180870187528181527f7068616e746f6d2e636f6e7472616374732e6170686d0000000000000000000081850152610200860152855180870187528181527f7068616e746f6d2e636f6e7472616374732e6670686d00000000000000000000818501526102208601528551808701875260178082527f7068616e746f6d2e636f6e7472616374732e7661756c7400000000000000000082860152610240870191909152865180880188528381527f7068616e746f6d2e636f6e7472616374732e747265617375727900000000000081860152610260870152865180880188529182527f7068616e746f6d2e636f6e7472616374732e74776170000000000000000000008285015261028086019190915285518087018752601d81527f7068616e746f6d2e636f6e7472616374732e626f6e6470726963696e67000000818501526102a086015285518087018752601c81527f7068616e746f6d2e636f6e7472616374732e6465785f726f7574657200000000818501526102c086015285518087018752601e8082527f7068616e746f6d2e636f6e7472616374732e796561726e5f726f757465720000828601526102e0870191909152865180880188528381527f7068616e746f6d2e636f6e7472616374732e6578656375746f7200000000000081860152610300870152865180880188529283527f7068616e746f6d2e636f6e7472616374732e7061796d656e747300000000000083850152610320860192909252855180870187529081527f7068616e746f6d2e636f6e7472616374732e677561726400000000000000000081840152610340850152845180860186529081527f7068616e746f6d2e636f6e7472616374732e61756374696f6e636c61696d000081830152610360840152908252825160c08101909352602a6060840181815292945090840192918291620033ef6080840139815260200160405180606001604052806040518060600160405280602b815260200162003374602b913981526020016040518060400160405280602081526020017f7068616e746f6d2e74726561737572792e6163636f756e745f6b65792e64616f8152508152602001604051806060016040528060258152602001620034ff6025913990528152604080518082018252601981527f7068616e746f6d2e74726561737572792e62616c616e636573000000000000006020828101919091529283015291835281516101c0810190925260246101608301818152938201938392830191829160c08501918291906200330a61018088013981526020016040518060600160405280602581526020016200356e602591398152602001604051806060016040528060248152602001620035246024913981526020016040518060600160405280602b81526020016200339f602b913981526020016040518060600160405280602481526020016200359360249139815250815260200160405180606001604052806025815260200162003469602591398152602001604051806060016040528060298152602001620034d66029913981526020016040518060400160405280601b81526020017f7068616e746f6d2e616c6c6f6361746f722e746f6b656e732e6c70000000000081525081526020016040518060400160405280601f81526020017f7068616e746f6d2e616c6c6f6361746f722e746f6b656e732e73696e676c65008152508152508152508152602001604051806101a0016040528060405180606001604052806040518060600160405280602b815260200162003419602b913981526020016040518060600160405280602c8152602001620032b8602c913981526020016040518060600160405280602f815260200162003289602f913981525081526020016040518060400160405280601d81526020017f7068616e746f6d2e626f6e64696e672e76657374696e67626c6f636b7300000081525081526020016040518060400160405280601c81526020017f7068616e746f6d2e626f6e64696e672e70726f6669745f726174696f0000000081525081526020016040518060400160405280601b81526020017f7068616e746f6d2e626f6e64696e672e69735f72656465656d6564000000000081525081526020016040518060600160405280602281526020016200348e6022913981526020016040518060400160405280601881526020017f7068616e746f6d2e626f6e64696e672e69735f76616c6964000000000000000081525081526020016040518060400160405280601a81526020017f7068616e746f6d2e626f6e64696e672e6d756c7469706c69657200000000000081525081526020016040518060400160405280601481526020017f7068616e746f6d2e626f6e64696e672e6465627400000000000000000000000081525081526020016040518060400160405280601e81526020017f7068616e746f6d2e626f6e64696e672e6d61785f646562745f726174696f00008152508152602001604051806060016040528060248152602001620036846024913981526020016040518060400160405280601581526020017f7068616e746f6d2e626f6e64696e672e746f6b656e000000000000000000000081525081526020016040518060400160405280601d81526020017f7068616e746f6d2e626f6e64696e672e6c6173745f636c61696d5f617400000081525081526020016040518060400160405280601b81526020017f7068616e746f6d2e626f6e64696e672e766573745f6c656e6774680000000000815250815250815260200160405180604001604052806040518060400160405280601d81526020017f7068616e746f6d2e7374616b696e672e726562617365436f756e7465720000008152508152602001604051806060016040528060228152602001620036626022913990528152604080516101408101909152602160e08201818152602090930192829160608301918291620035db610100860139815260200160405180606001604052806024815260200162003350602491398152602001604051806060016040528060268152602001620032e460269139815260408051808201825260208082527f7068616e746f6d2e666f756e6465722e636c61696d732e6c617374436c61696d828201529283015291835281516060810183528082018281527f7068616e746f6d2e666f756e6465722e6368616e6765732e6e65774f776e65728285015281528382015281518083018352601d81527f7068616e746f6d2e666f756e6465722e76657374696e6753746172747300000081830152928201929092529183528151610160810190925260226101008301818152939091019282916200332e6101208401398152602001604051806060016040528060238152602001620035fc60239139815260200160405180606001604052806025815260200162003444602591398152602001604051806060016040528060268152602001620034b0602691398152602001604051806060016040528060258152602001620033ca60259139815260200160405180606001604052806026815260200162003548602691398152602001604051806060016040528060248152602001620035b76024913981526020016040518060600160405280602a8152602001620036a8602a9139815250815260200160405180608001604052806040518060400160405280601c81526020017f7068616e746f6d2e676f7665726e6f722e766f74696e6744656c61790000000081525081526020016040518060400160405280601d81526020017f7068616e746f6d2e676f7665726e6f722e766f74696e67506572696f6400000081525081526020016040518060600160405280602181526020016200361f60219139815260200160405180606001604052806022815260200162003640602291399052905280518051805160039291839162000deb91839160209091019062001690565b50602082810151805162000e06926001850192019062001690565b506040820151805162000e2491600284019160209091019062001690565b506060820151805162000e4291600384019160209091019062001690565b506080820151805162000e6091600484019160209091019062001690565b5060a0820151805162000e7e91600584019160209091019062001690565b5060c0820151805162000e9c91600684019160209091019062001690565b5060e0820151805162000eba91600784019160209091019062001690565b50610100820151805162000ed991600884019160209091019062001690565b50610120820151805162000ef891600984019160209091019062001690565b50610140820151805162000f1791600a84019160209091019062001690565b50610160820151805162000f3691600b84019160209091019062001690565b50610180820151805162000f5591600c84019160209091019062001690565b506101a0820151805162000f7491600d84019160209091019062001690565b506101c0820151805162000f9391600e84019160209091019062001690565b506101e0820151805162000fb291600f84019160209091019062001690565b50610200820151805162000fd191601084019160209091019062001690565b50610220820151805162000ff091601184019160209091019062001690565b5061024082015180516200100f91601284019160209091019062001690565b5061026082015180516200102e91601384019160209091019062001690565b505050602082810151805180519192601485019262001051928492019062001690565b50602082810151805180519192600185019262001072928492019062001690565b5060208281015180516200108d926001850192019062001690565b5060408201518051620010ab91600284019160209091019062001690565b50505060408201518051620010cb91600484019160209091019062001690565b50505060408201518051805180518051601986019392849290918391620010f89183916020019062001690565b50602082810151805162001113926001850192019062001690565b50604082015180516200113191600284019160209091019062001690565b50606082015180516200114f91600384019160209091019062001690565b50608082015180516200116d91600484019160209091019062001690565b50505060208281015180516200118a926005850192019062001690565b5060408201518051620011a891600684019160209091019062001690565b5060608201518051620011c691600784019160209091019062001690565b5060808201518051620011e491600884019160209091019062001690565b505050506060830151805180518051929350602285019283916200120e9183916020019062001690565b50602082810151805162001229926001850192019062001690565b50604082015180516200124791600284019160209091019062001690565b505050602082810151805162001264926003850192019062001690565b50604082015180516200128291600484019160209091019062001690565b5060608201518051620012a091600584019160209091019062001690565b5060808201518051620012be91600684019160209091019062001690565b5060a08201518051620012dc91600784019160209091019062001690565b5060c08201518051620012fa91600884019160209091019062001690565b5060e082015180516200131891600984019160209091019062001690565b5061010082015180516200133791600a84019160209091019062001690565b5061012082015180516200135691600b84019160209091019062001690565b5061014082015180516200137591600c84019160209091019062001690565b5061016082015180516200139491600d84019160209091019062001690565b506101808201518051620013b391600e84019160209091019062001690565b5050506080820151805180516031840191620013d59183916020019062001690565b506020828101518051620013f0926001850192019062001690565b50505060a082015180518051805160338501929183916200141991839160209091019062001690565b50602082810151805162001434926001850192019062001690565b50604082015180516200145291600284019160209091019062001690565b50606082015180516200147091600384019160209091019062001690565b505050602082810151805180519192600485019262001493928492019062001690565b50505060408201518051620014b391600584019160209091019062001690565b50505060c0820151805180516039840191620014d59183916020019062001690565b506020828101518051620014f0926001850192019062001690565b50604082015180516200150e91600284019160209091019062001690565b50606082015180516200152c91600384019160209091019062001690565b50608082015180516200154a91600484019160209091019062001690565b5060a082015180516200156891600584019160209091019062001690565b5060c082015180516200158691600684019160209091019062001690565b5060e08201518051620015a491600784019160209091019062001690565b50505060e0820151805180516041840191620015c69183916020019062001690565b506020828101518051620015e1926001850192019062001690565b5060408201518051620015ff91600284019160209091019062001690565b50606082015180516200161d91600384019160209091019062001690565b50505050506d7068616e746f6d53746f7261676560901b604a553480156200164457600080fd5b50604051620036d2380380620036d2833981016040819052620016679162001736565b6001604855604980546001600160a01b0383166001600160a01b031990911617905550620017a5565b8280546200169e9062001768565b90600052602060002090601f016020900481019282620016c257600085556200170d565b82601f10620016dd57805160ff19168380011785556200170d565b828001600101855582156200170d579182015b828111156200170d578251825591602001919060010190620016f0565b506200171b9291506200171f565b5090565b5b808211156200171b576000815560010162001720565b6000602082840312156200174957600080fd5b81516001600160a01b03811681146200176157600080fd5b9392505050565b600181811c908216806200177d57607f821691505b602082108114156200179f57634e487b7160e01b600052602260045260246000fd5b50919050565b611ad480620017b56000396000f3fe608060405234801561001057600080fd5b50600436106100575760003560e01c806316d2e2731461005c578063256fbf931461008457806381352d6e146100a5578063b8ea4a13146100b8578063d5d60d63146100cb575b600080fd5b61006f61006a366004611605565b6100de565b60405190151581526020015b60405180910390f35b610097610092366004611631565b610311565b60405190815260200161007b565b6100976100b336600461165c565b6103c1565b6100976100c6366004611695565b6105b3565b6100976100d9366004611631565b6107bd565b60006100e86107f8565b6001600160a01b03166301ba79116040518163ffffffff1660e01b8152600401602060405180830381865afa158015610125573d6000803e3d6000fd5b505050506040513d601f19601f820116820180604052508101906101499190611734565b826101526107f8565b60405163acc9d9df60e01b81526001600160a01b038781166004830152919091169063acc9d9df90602401602060405180830381865afa15801561019a573d6000803e3d6000fd5b505050506040513d601f19601f820116820180604052508101906101be9190611734565b6101c89190611763565b11156101d65750600061030b565b60006101ea6049546001600160a01b031690565b6001600160a01b031663bd02d0f56003602201600a0160405161020d9190611815565b60405190819003812060e083901b6001600160e01b03191682526004820152602401602060405180830381865afa15801561024c573d6000803e3d6000fd5b505050506040513d601f19601f820116820180604052508101906102709190611734565b9050806102f861027e6107f8565b6001600160a01b03166318160ddd6040518163ffffffff1660e01b8152600401602060405180830381865afa1580156102bb573d6000803e3d6000fd5b505050506040513d601f19601f820116820180604052508101906102df9190611734565b856102e8610897565b6102f29190611763565b90610931565b11610304576001610307565b60005b9150505b92915050565b60006103256049546001600160a01b031690565b6040516001600160a01b03919091169063bd02d0f59061034c906027908690602001611821565b604051602081830303815290604052805190602001206040518263ffffffff1660e01b815260040161038091815260200190565b602060405180830381865afa15801561039d573d6000803e3d6000fd5b505050506040513d601f19601f8201168201806040525081019061030b9190611734565b60006002604854141561041b5760405162461bcd60e51b815260206004820152601f60248201527f5265656e7472616e637947756172643a207265656e7472616e742063616c6c0060448201526064015b60405180910390fd5b600260485560008061042c856107bd565b9050600061043986610311565b90505b8181101561046a5761045986826104528161184e565b935061094d565b6104639084611763565b925061043c565b841561051457610478610cee565b6001600160a01b031663c41ac8cf87856104906107f8565b87610499610d25565b60405160e087901b6001600160e01b03191681526001600160a01b039586166004820152602481019490945291841660448401526064830152909116608482015260a401600060405180830381600087803b1580156104f757600080fd5b505af115801561050b573d6000803e3d6000fd5b5050505061059c565b61051c610cee565b6001600160a01b031663a397104787600080876105376107f8565b61053f610d5c565b610547610dbc565b6040518863ffffffff1660e01b815260040161056997969594939291906118a4565b600060405180830381600087803b15801561058357600080fd5b505af1158015610597573d6000803e3d6000fd5b505050505b6105a583610dfe565b505060016048559392505050565b6000600260485414156106085760405162461bcd60e51b815260206004820152601f60248201527f5265656e7472616e637947756172643a207265656e7472616e742063616c6c006044820152606401610412565b600260485561061684610e81565b61063e576040516368401fd160e11b81526001600160a01b0385166004820152602401610412565b600061064b858585610f32565b90506000610657610cee565b6001600160a01b03166391c65e19898989610670610fef565b610678611073565b886106816110dc565b610689611113565b610691610dbc565b6040518a63ffffffff1660e01b81526004016106b599989796959493929190611906565b6020604051808303816000875af11580156106d4573d6000803e3d6000fd5b505050506040513d601f19601f820116820180604052508101906106f89190611734565b905061070488826100de565b6107215760405163022a7c3f60e51b815260040160405180910390fd5b600061072c896107bd565b9050610739898289611148565b61074586868b846111ec565b610750898284611402565b6107598961146b565b610762826114d2565b604080516001600160a01b038b168152602081018490529081018290527ff4b3f0ca8ff53d762c50e763e9954b0f2b30f227ae6f426094c3b374fb2785fe9060600160405180910390a1506001604855979650505050505050565b60006107d16049546001600160a01b031690565b6040516001600160a01b03919091169063bd02d0f59061034c906026908690602001611821565b600061080c6049546001600160a01b031690565b6001600160a01b03166321f8a721600360000160050160405161082f9190611815565b60405190819003812060e083901b6001600160e01b03191682526004820152602401602060405180830381865afa15801561086e573d6000803e3d6000fd5b505050506040513d601f19601f820116820180604052508101906108929190611993565b905090565b60006108ab6049546001600160a01b031690565b6001600160a01b031663bd02d0f560036022016009016040516108ce9190611815565b60405190819003812060e083901b6001600160e01b03191682526004820152602401602060405180830381865afa15801561090d573d6000803e3d6000fd5b505050506040513d601f19601f820116820180604052508101906108929190611734565b600061094683670de0b6b3a7640000846114f6565b9392505050565b6000806109626049546001600160a01b031690565b6001600160a01b031663bd02d0f56003602201600b01868660405160200161098c939291906119b0565b604051602081830303815290604052805190602001206040518263ffffffff1660e01b81526004016109c091815260200190565b602060405180830381865afa1580156109dd573d6000803e3d6000fd5b505050506040513d601f19601f82011682018060405250810190610a019190611734565b90506000610a176049546001600160a01b031690565b6001600160a01b031663bd02d0f56003602201600d018787604051602001610a41939291906119b0565b604051602081830303815290604052805190602001206040518263ffffffff1660e01b8152600401610a7591815260200190565b602060405180830381865afa158015610a92573d6000803e3d6000fd5b505050506040513d601f19601f82011682018060405250810190610ab69190611734565b90506000610acc6049546001600160a01b031690565b6001600160a01b031663bd02d0f560036022016006018888604051602001610af6939291906119b0565b604051602081830303815290604052805190602001206040518263ffffffff1660e01b8152600401610b2a91815260200190565b602060405180830381865afa158015610b47573d6000803e3d6000fd5b505050506040513d601f19601f82011682018060405250810190610b6b9190611734565b90506000814210610ce4575082610b8281806119e2565b935083158015610b995750610b9687610311565b86145b15610ba757610ba7876115c4565b6049546040516001600160a01b039091169063e2a4853a90610bd2906030908b908b906020016119b0565b60408051601f198184030181529082905280516020909101206001600160e01b031960e084901b168252600482015260248101879052604401600060405180830381600087803b158015610c2557600080fd5b505af1158015610c39573d6000803e3d6000fd5b50505050610c4f6049546001600160a01b031690565b6001600160a01b031663e2a4853a6003602201600d018989604051602001610c79939291906119b0565b60408051601f198184030181529082905280516020909101206001600160e01b031960e084901b1682526004820152426024820152604401600060405180830381600087803b158015610ccb57600080fd5b505af1158015610cdf573d6000803e3d6000fd5b505050505b9695505050505050565b6000610d026049546001600160a01b031690565b6001600160a01b03166321f8a7216003600001600b0160405161082f9190611815565b6000610d396049546001600160a01b031690565b6001600160a01b03166321f8a721600360000160060160405161082f9190611815565b60408051600180825281830190925260609160009190602080830190803683375050604051919250610d9191601a9150611815565b604051809103902081600081518110610dac57610dac6119f9565b6020908102919091010152919050565b6040805160018082528183019092526060916000919060208083019080368337019050509050670de0b6b3a764000081600081518110610dac57610dac6119f9565b6049546040516001600160a01b039091169063ebb9d8c990610e2290602e90611815565b60405190819003812060e083901b6001600160e01b03191682526004820152602481018490526044015b600060405180830381600087803b158015610e6657600080fd5b505af1158015610e7a573d6000803e3d6000fd5b5050505050565b6000610e956049546001600160a01b031690565b6001600160a01b0316637ae1cfca600360220160070184604051602001610ebd929190611821565b604051602081830303815290604052805190602001206040518263ffffffff1660e01b8152600401610ef191815260200190565b602060405180830381865afa158015610f0e573d6000803e3d6000fd5b505050506040513d601f19601f8201168201806040525081019061030b9190611a0f565b6000610f466049546001600160a01b031690565b6001600160a01b031663bd02d0f56003602201600801868686604051602001610f729493929190611a2c565b604051602081830303815290604052805190602001206040518263ffffffff1660e01b8152600401610fa691815260200190565b602060405180830381865afa158015610fc3573d6000803e3d6000fd5b505050506040513d601f19601f82011682018060405250810190610fe79190611734565b949350505050565b60408051600280825260608083018452926000929190602083019080368337505060405191925061102391601a9150611815565b60405180910390208160008151811061103e5761103e6119f9565b602090810291909101015260405161105890601890611815565b604051809103902081600181518110610dac57610dac6119f9565b60408051600280825260608083018452926000929190602083019080368337019050509050670c7d713b49da0000816000815181106110b4576110b46119f9565b60200260200101818152505067016345785d8a000081600181518110610dac57610dac6119f9565b60006110f06049546001600160a01b031690565b6001600160a01b031663bd02d0f560036022016004016040516108ce9190611815565b60408051600180825281830190925260609160009190602080830190803683375050604051919250610d919160199150611815565b6049546040516001600160a01b039091169063ca446dd99061117390603190879087906020016119b0565b60408051601f198184030181529082905280516020909101206001600160e01b031960e084901b16825260048201526001600160a01b03841660248201526044015b600060405180830381600087803b1580156111cf57600080fd5b505af11580156111e3573d6000803e3d6000fd5b50505050505050565b60006112006049546001600160a01b031690565b6001600160a01b031663bd02d0f56003602201600e01878760405160200161122a93929190611a68565b604051602081830303815290604052805190602001206040518263ffffffff1660e01b815260040161125e91815260200190565b602060405180830381865afa15801561127b573d6000803e3d6000fd5b505050506040513d601f19601f8201168201806040525081019061129f9190611734565b90506112b36049546001600160a01b031690565b6001600160a01b031663e2a4853a600360220160060185856040516020016112dd939291906119b0565b6040516020818303038152906040528051906020012083426112ff9190611763565b6040516001600160e01b031960e085901b16815260048101929092526024820152604401600060405180830381600087803b15801561133d57600080fd5b505af1158015611351573d6000803e3d6000fd5b505050506113676049546001600160a01b031690565b6001600160a01b031663e2a4853a6003602201600d018585604051602001611391939291906119b0565b60408051601f198184030181529082905280516020909101206001600160e01b031960e084901b1682526004820152426024820152604401600060405180830381600087803b1580156113e357600080fd5b505af11580156113f7573d6000803e3d6000fd5b505050505050505050565b6049546040516001600160a01b039091169063e2a4853a9061142d90603090879087906020016119b0565b60408051601f198184030181529082905280516020909101206001600160e01b031960e084901b1682526004820152602481018490526044016111b5565b6049546040516001600160a01b039091169063adb353dc90611494906026908590602001611821565b60408051601f198184030181529082905280516020909101206001600160e01b031960e084901b168252600482015260016024820152604401610e4c565b6049546040516001600160a01b039091169063adb353dc90610e2290602e90611815565b6000808060001985870985870292508281108382030391505080600014156115315783828161152757611527611a88565b0492505050610946565b83811061155b57604051631dcf306360e21b81526004810182905260248101859052604401610412565b60008486880960026001871981018816978890046003810283188082028403028082028403028082028403028082028403028082028403029081029092039091026000889003889004909101858311909403939093029303949094049190911702949350505050565b6049546040516001600160a01b039091169063adb353dc90611494906027908590602001611821565b6001600160a01b038116811461160257600080fd5b50565b6000806040838503121561161857600080fd5b8235611623816115ed565b946020939093013593505050565b60006020828403121561164357600080fd5b8135610946816115ed565b801515811461160257600080fd5b6000806040838503121561166f57600080fd5b823561167a816115ed565b9150602083013561168a8161164e565b809150509250929050565b6000806000806000608086880312156116ad57600080fd5b85356116b8816115ed565b94506020860135935060408601356116cf816115ed565b9250606086013567ffffffffffffffff808211156116ec57600080fd5b818801915088601f83011261170057600080fd5b81358181111561170f57600080fd5b89602082850101111561172157600080fd5b9699959850939650602001949392505050565b60006020828403121561174657600080fd5b5051919050565b634e487b7160e01b600052601160045260246000fd5b600082198211156117765761177661174d565b500190565b8054600090600181811c908083168061179557607f831692505b60208084108214156117b757634e487b7160e01b600052602260045260246000fd5b8180156117cb57600181146117dc57611809565b60ff19861689528489019650611809565b60008881526020902060005b868110156118015781548b8201529085019083016117e8565b505084890196505b50505050505092915050565b6000610946828461177b565b600061182d828561177b565b60609390931b6bffffffffffffffffffffffff191683525050601401919050565b60006000198214156118625761186261174d565b5060010190565b600081518084526020808501945080840160005b838110156118995781518752958201959082019060010161187d565b509495945050505050565b6001600160a01b038881168252602082018890528681166040830152606082018690528416608082015260e060a082018190526000906118e690830185611869565b82810360c08401526118f88185611869565b9a9950505050505050505050565b6001600160a01b038a81168252602082018a9052881660408201526101206060820181905260009061193a8382018a611869565b9050828103608084015261194e8189611869565b90508660a08401528560c084015282810360e084015261196e8186611869565b90508281036101008401526119838185611869565b9c9b505050505050505050505050565b6000602082840312156119a557600080fd5b8151610946816115ed565b60006119bc828661177b565b60609490941b6bffffffffffffffffffffffff1916845250506014820152603401919050565b6000828210156119f4576119f461174d565b500390565b634e487b7160e01b600052603260045260246000fd5b600060208284031215611a2157600080fd5b81516109468161164e565b6000611a38828761177b565b6bffffffffffffffffffffffff198660601b16815283856014830137600093016014019283525090949350505050565b6000611a74828661177b565b838582376000930192835250909392505050565b634e487b7160e01b600052601260045260246000fdfea26469706673582212201b493c106495c29737e03758268235fb39d18621cbcd56d5342ec539a44a673d64736f6c634300080a00337068616e746f6d2e626f6e64696e672e757365722e6c6f776573745f6e6f6e63655f7374696c6c5f76657374696e677068616e746f6d2e626f6e64696e672e757365722e6c6f776573745f61737369676e61626c655f6e6f6e63657068616e746f6d2e666f756e6465722e636c61696d732e72656d61696e696e67416d6f756e747068616e746f6d2e616c6c6f6361746f722e746f6b656e732e616464726573732e6461697068616e746f6d2e726f7574696e672e6465785f726f757465725f616464726573737068616e746f6d2e666f756e6465722e636c61696d732e696e697469616c416d6f756e747068616e746f6d2e74726561737572792e6163636f756e745f6b65792e76656e747572656361706974616c7068616e746f6d2e616c6c6f6361746f722e746f6b656e732e616464726573732e6461695f70686d5f6c707068616e746f6d2e726f7574696e672e73706f6f6b795f726f757465725f616464726573737068616e746f6d2e74726561737572792e617070726f7665642e65787465726e616c2e616464726573737068616e746f6d2e626f6e64696e672e757365722e66697273745f756e72656465656d65645f6e6f6e63657068616e746f6d2e726f7574696e672e7370697269745f726f757465725f616464726573737068616e746f6d2e616c6c6f6361746f722e746f6b656e732e64657374696e6174696f6e737068616e746f6d2e626f6e64696e672e76657374735f61745f74696d657374616d707068616e746f6d2e726f7574696e672e7370697269745f666163746f72795f616464726573737068616e746f6d2e616c6c6f6361746f722e746f6b656e732e646573745f70657263656e74616765737068616e746f6d2e74726561737572792e6163636f756e745f6b65792e72657365727665737068616e746f6d2e616c6c6f6361746f722e746f6b656e732e616464726573732e6d696d7068616e746f6d2e726f7574696e672e73706f6f6b795f666163746f72795f616464726573737068616e746f6d2e616c6c6f6361746f722e746f6b656e732e616464726573732e7766746d7068616e746f6d2e616c6c6f6361746f722e746f6b656e732e616464726573732e6465787068616e746f6d2e726f7574696e672e7370697269745f67617567655f616464726573737068616e746f6d2e666f756e6465722e636c61696d732e616c6c6f636174696f6e7068616e746f6d2e726f7574696e672e6465785f666163746f72795f616464726573737068616e746f6d2e676f7665726e6f722e71756f72756d50657263656e746167657068616e746f6d2e676f7665726e6f722e70726f706f73616c5468726573686f6c647068616e746f6d2e7374616b696e672e6e657874526562617365446561646c696e657068616e746f6d2e626f6e64696e672e72656d61696e696e675f7061796f75745f666f727068616e746f6d2e726f7574696e672e7370697269745f67617567655f70726f78795f61646472657373",
  "bytecodeSha1": "da39a3ee5e6b4b0d3255bfef95601890afd80709",
  "compiler": {
    "evm_version": "istanbul",
    "optimizer": {
      "enabled": true,
      "runs": 200
    },
    "version": "0.8.10+commit.fc410830"
  },
  "contractName": "PhantomBonding",
  "language": "Solidity",
  "natspec": {
    "author": "PhantomDao Team",
    "errors": {
      "PRBMath__MulDivOverflow(uint256,uint256)": [
        {
          "notice": "Emitted when the result overflows uint256."
        }
      ]
    },
    "kind": "dev",
    "methods": {},
    "notice": "The contract that handles bonding assets to get PHM",
    "title": "PhantomBonding",
    "version": 1
  },
  "opcodes": "PUSH1 0x80 PUSH1 0x40 MSTORE CALLVALUE DUP1 ISZERO PUSH2 0x10 JUMPI PUSH1 0x0 DUP1 REVERT JUMPDEST POP PUSH1 0x4 CALLDATASIZE LT PUSH2 0x57 JUMPI PUSH1 0x0 CALLDATALOAD PUSH1 0xE0 SHR DUP1 PUSH4 0x16D2E273 EQ PUSH2 0x5C JUMPI DUP1 PUSH4 0x256FBF93 EQ PUSH2 0x84 JUMPI DUP1 PUSH4 0x81352D6E EQ PUSH2 0xA5 JUMPI DUP1 PUSH4 0xB8EA4A13 EQ PUSH2 0xB8 JUMPI DUP1 PUSH4 0xD5D60D63 EQ PUSH2 0xCB JUMPI JUMPDEST PUSH1 0x0 DUP1 REVERT JUMPDEST PUSH2 0x6F PUSH2 0x6A CALLDATASIZE PUSH1 0x4 PUSH2 0x1605 JUMP JUMPDEST PUSH2 0xDE JUMP JUMPDEST PUSH1 0x40 MLOAD SWAP1 ISZERO ISZERO DUP2 MSTORE PUSH1 0x20 ADD JUMPDEST PUSH1 0x40 MLOAD DUP1 SWAP2 SUB SWAP1 RETURN JUMPDEST PUSH2 0x97 PUSH2 0x92 CALLDATASIZE PUSH1 0x4 PUSH2 0x1631 JUMP JUMPDEST PUSH2 0x311 JUMP JUMPDEST PUSH1 0x40 MLOAD SWAP1 DUP2 MSTORE PUSH1 0x20 ADD PUSH2 0x7B JUMP JUMPDEST PUSH2 0x97 PUSH2 0xB3 CALLDATASIZE PUSH1 0x4 PUSH2 0x165C JUMP JUMPDEST PUSH2 0x3C1 JUMP JUMPDEST PUSH2 0x97 PUSH2 0xC6 CALLDATASIZE PUSH1 0x4 PUSH2 0x1695 JUMP JUMPDEST PUSH2 0x5B3 JUMP JUMPDEST PUSH2 0x97 PUSH2 0xD9 CALLDATASIZE PUSH1 0x4 PUSH2 0x1631 JUMP JUMPDEST PUSH2 0x7BD JUMP JUMPDEST PUSH1 0x0 PUSH2 0xE8 PUSH2 0x7F8 JUMP JUMPDEST PUSH1 0x1 PUSH1 0x1 PUSH1 0xA0 SHL SUB AND PUSH4 0x1BA7911 PUSH1 0x40 MLOAD DUP2 PUSH4 0xFFFFFFFF AND PUSH1 0xE0 SHL DUP2 MSTORE PUSH1 0x4 ADD PUSH1 0x20 PUSH1 0x40 MLOAD DUP1 DUP4 SUB DUP2 DUP7 GAS STATICCALL ISZERO DUP1 ISZERO PUSH2 0x125 JUMPI RETURNDATASIZE PUSH1 0x0 DUP1 RETURNDATACOPY RETURNDATASIZE PUSH1 0x0 REVERT JUMPDEST POP POP POP POP PUSH1 0x40 MLOAD RETURNDATASIZE PUSH1 0x1F NOT PUSH1 0x1F DUP3 ADD AND DUP3 ADD DUP1 PUSH1 0x40 MSTORE POP DUP2 ADD SWAP1 PUSH2 0x149 SWAP2 SWAP1 PUSH2 0x1734 JUMP JUMPDEST DUP3 PUSH2 0x152 PUSH2 0x7F8 JUMP JUMPDEST PUSH1 0x40 MLOAD PUSH4 0xACC9D9DF PUSH1 0xE0 SHL DUP2 MSTORE PUSH1 0x1 PUSH1 0x1 PUSH1 0xA0 SHL SUB DUP8 DUP2 AND PUSH1 0x4 DUP4 ADD MSTORE SWAP2 SWAP1 SWAP2 AND SWAP1 PUSH4 0xACC9D9DF SWAP1 PUSH1 0x24 ADD PUSH1 0x20 PUSH1 0x40 MLOAD DUP1 DUP4 SUB DUP2 DUP7 GAS STATICCALL ISZERO DUP1 ISZERO PUSH2 0x19A JUMPI RETURNDATASIZE PUSH1 0x0 DUP1 RETURNDATACOPY RETURNDATASIZE PUSH1 0x0 REVERT JUMPDEST POP POP POP POP PUSH1 0x40 MLOAD RETURNDATASIZE PUSH1 0x1F NOT PUSH1 0x1F DUP3 ADD AND DUP3 ADD DUP1 PUSH1 0x40 MSTORE POP DUP2 ADD SWAP1 PUSH2 0x1BE SWAP2 SWAP1 PUSH2 0x1734 JUMP JUMPDEST PUSH2 0x1C8 SWAP2 SWAP1 PUSH2 0x1763 JUMP JUMPDEST GT ISZERO PUSH2 0x1D6 JUMPI POP PUSH1 0x0 PUSH2 0x30B JUMP JUMPDEST PUSH1 0x0 PUSH2 0x1EA PUSH1 0x49 SLOAD PUSH1 0x1 PUSH1 0x1 PUSH1 0xA0 SHL SUB AND SWAP1 JUMP JUMPDEST PUSH1 0x1 PUSH1 0x1 PUSH1 0xA0 SHL SUB AND PUSH4 0xBD02D0F5 PUSH1 0x3 PUSH1 0x22 ADD PUSH1 0xA ADD PUSH1 0x40 MLOAD PUSH2 0x20D SWAP2 SWAP1 PUSH2 0x1815 JUMP JUMPDEST PUSH1 0x40 MLOAD SWAP1 DUP2 SWAP1 SUB DUP2 KECCAK256 PUSH1 0xE0 DUP4 SWAP1 SHL PUSH1 0x1 PUSH1 0x1 PUSH1 0xE0 SHL SUB NOT AND DUP3 MSTORE PUSH1 0x4 DUP3 ADD MSTORE PUSH1 0x24 ADD PUSH1 0x20 PUSH1 0x40 MLOAD DUP1 DUP4 SUB DUP2 DUP7 GAS STATICCALL ISZERO DUP1 ISZERO PUSH2 0x24C JUMPI RETURNDATASIZE PUSH1 0x0 DUP1 RETURNDATACOPY RETURNDATASIZE PUSH1 0x0 REVERT JUMPDEST POP POP POP POP PUSH1 0x40 MLOAD RETURNDATASIZE PUSH1 0x1F NOT PUSH1 0x1F DUP3 ADD AND DUP3 ADD DUP1 PUSH1 0x40 MSTORE POP DUP2 ADD SWAP1 PUSH2 0x270 SWAP2 SWAP1 PUSH2 0x1734 JUMP JUMPDEST SWAP1 POP DUP1 PUSH2 0x2F8 PUSH2 0x27E PUSH2 0x7F8 JUMP JUMPDEST PUSH1 0x1 PUSH1 0x1 PUSH1 0xA0 SHL SUB AND PUSH4 0x18160DDD PUSH1 0x40 MLOAD DUP2 PUSH4 0xFFFFFFFF AND PUSH1 0xE0 SHL DUP2 MSTORE PUSH1 0x4 ADD PUSH1 0x20 PUSH1 0x40 MLOAD DUP1 DUP4 SUB DUP2 DUP7 GAS STATICCALL ISZERO DUP1 ISZERO PUSH2 0x2BB JUMPI RETURNDATASIZE PUSH1 0x0 DUP1 RETURNDATACOPY RETURNDATASIZE PUSH1 0x0 REVERT JUMPDEST POP POP POP POP PUSH1 0x40 MLOAD RETURNDATASIZE PUSH1 0x1F NOT PUSH1 0x1F DUP3 ADD AND DUP3 ADD DUP1 PUSH1 0x40 MSTORE POP DUP2 ADD SWAP1 PUSH2 0x2DF SWAP2 SWAP1 PUSH2 0x1734 JUMP JUMPDEST DUP6 PUSH2 0x2E8 PUSH2 0x897 JUMP JUMPDEST PUSH2 0x2F2 SWAP2 SWAP1 PUSH2 0x1763 JUMP JUMPDEST SWAP1 PUSH2 0x931 JUMP JUMPDEST GT PUSH2 0x304 JUMPI PUSH1 0x1 PUSH2 0x307 JUMP JUMPDEST PUSH1 0x0 JUMPDEST SWAP2 POP POP JUMPDEST SWAP3 SWAP2 POP POP JUMP JUMPDEST PUSH1 0x0 PUSH2 0x325 PUSH1 0x49 SLOAD PUSH1 0x1 PUSH1 0x1 PUSH1 0xA0 SHL SUB AND SWAP1 JUMP JUMPDEST PUSH1 0x40 MLOAD PUSH1 0x1 PUSH1 0x1 PUSH1 0xA0 SHL SUB SWAP2 SWAP1 SWAP2 AND SWAP1 PUSH4 0xBD02D0F5 SWAP1 PUSH2 0x34C SWAP1 PUSH1 0x27 SWAP1 DUP7 SWAP1 PUSH1 0x20 ADD PUSH2 0x1821 JUMP JUMPDEST PUSH1 0x40 MLOAD PUSH1 0x20 DUP2 DUP4 SUB SUB DUP2 MSTORE SWAP1 PUSH1 0x40 MSTORE DUP1 MLOAD SWAP1 PUSH1 0x20 ADD KECCAK256 PUSH1 0x40 MLOAD DUP3 PUSH4 0xFFFFFFFF AND PUSH1 0xE0 SHL DUP2 MSTORE PUSH1 0x4 ADD PUSH2 0x380 SWAP2 DUP2 MSTORE PUSH1 0x20 ADD SWAP1 JUMP JUMPDEST PUSH1 0x20 PUSH1 0x40 MLOAD DUP1 DUP4 SUB DUP2 DUP7 GAS STATICCALL ISZERO DUP1 ISZERO PUSH2 0x39D JUMPI RETURNDATASIZE PUSH1 0x0 DUP1 RETURNDATACOPY RETURNDATASIZE PUSH1 0x0 REVERT JUMPDEST POP POP POP POP PUSH1 0x40 MLOAD RETURNDATASIZE PUSH1 0x1F NOT PUSH1 0x1F DUP3 ADD AND DUP3 ADD DUP1 PUSH1 0x40 MSTORE POP DUP2 ADD SWAP1 PUSH2 0x30B SWAP2 SWAP1 PUSH2 0x1734 JUMP JUMPDEST PUSH1 0x0 PUSH1 0x2 PUSH1 0x48 SLOAD EQ ISZERO PUSH2 0x41B JUMPI PUSH1 0x40 MLOAD PUSH3 0x461BCD PUSH1 0xE5 SHL DUP2 MSTORE PUSH1 0x20 PUSH1 0x4 DUP3 ADD MSTORE PUSH1 0x1F PUSH1 0x24 DUP3 ADD MSTORE PUSH32 0x5265656E7472616E637947756172643A207265656E7472616E742063616C6C00 PUSH1 0x44 DUP3 ADD MSTORE PUSH1 0x64 ADD JUMPDEST PUSH1 0x40 MLOAD DUP1 SWAP2 SUB SWAP1 REVERT JUMPDEST PUSH1 0x2 PUSH1 0x48 SSTORE PUSH1 0x0 DUP1 PUSH2 0x42C DUP6 PUSH2 0x7BD JUMP JUMPDEST SWAP1 POP PUSH1 0x0 PUSH2 0x439 DUP7 PUSH2 0x311 JUMP JUMPDEST SWAP1 POP JUMPDEST DUP2 DUP2 LT ISZERO PUSH2 0x46A JUMPI PUSH2 0x459 DUP7 DUP3 PUSH2 0x452 DUP2 PUSH2 0x184E JUMP JUMPDEST SWAP4 POP PUSH2 0x94D JUMP JUMPDEST PUSH2 0x463 SWAP1 DUP5 PUSH2 0x1763 JUMP JUMPDEST SWAP3 POP PUSH2 0x43C JUMP JUMPDEST DUP5 ISZERO PUSH2 0x514 JUMPI PUSH2 0x478 PUSH2 0xCEE JUMP JUMPDEST PUSH1 0x1 PUSH1 0x1 PUSH1 0xA0 SHL SUB AND PUSH4 0xC41AC8CF DUP8 DUP6 PUSH2 0x490 PUSH2 0x7F8 JUMP JUMPDEST DUP8 PUSH2 0x499 PUSH2 0xD25 JUMP JUMPDEST PUSH1 0x40 MLOAD PUSH1 0xE0 DUP8 SWAP1 SHL PUSH1 0x1 PUSH1 0x1 PUSH1 0xE0 SHL SUB NOT AND DUP2 MSTORE PUSH1 0x1 PUSH1 0x1 PUSH1 0xA0 SHL SUB SWAP6 DUP7 AND PUSH1 0x4 DUP3 ADD MSTORE PUSH1 0x24 DUP2 ADD SWAP5 SWAP1 SWAP5 MSTORE SWAP2 DUP5 AND PUSH1 0x44 DUP5 ADD MSTORE PUSH1 0x64 DUP4 ADD MSTORE SWAP1 SWAP2 AND PUSH1 0x84 DUP3 ADD MSTORE PUSH1 0xA4 ADD PUSH1 0x0 PUSH1 0x40 MLOAD DUP1 DUP4 SUB DUP2 PUSH1 0x0 DUP8 DUP1 EXTCODESIZE ISZERO DUP1 ISZERO PUSH2 0x4F7 JUMPI PUSH1 0x0 DUP1 REVERT JUMPDEST POP GAS CALL ISZERO DUP1 ISZERO PUSH2 0x50B JUMPI RETURNDATASIZE PUSH1 0x0 DUP1 RETURNDATACOPY RETURNDATASIZE PUSH1 0x0 REVERT JUMPDEST POP POP POP POP PUSH2 0x59C JUMP JUMPDEST PUSH2 0x51C PUSH2 0xCEE JUMP JUMPDEST PUSH1 0x1 PUSH1 0x1 PUSH1 0xA0 SHL SUB AND PUSH4 0xA3971047 DUP8 PUSH1 0x0 DUP1 DUP8 PUSH2 0x537 PUSH2 0x7F8 JUMP JUMPDEST PUSH2 0x53F PUSH2 0xD5C JUMP JUMPDEST PUSH2 0x547 PUSH2 0xDBC JUMP JUMPDEST PUSH1 0x40 MLOAD DUP9 PUSH4 0xFFFFFFFF AND PUSH1 0xE0 SHL DUP2 MSTORE PUSH1 0x4 ADD PUSH2 0x569 SWAP8 SWAP7 SWAP6 SWAP5 SWAP4 SWAP3 SWAP2 SWAP1 PUSH2 0x18A4 JUMP JUMPDEST PUSH1 0x0 PUSH1 0x40 MLOAD DUP1 DUP4 SUB DUP2 PUSH1 0x0 DUP8 DUP1 EXTCODESIZE ISZERO DUP1 ISZERO PUSH2 0x583 JUMPI PUSH1 0x0 DUP1 REVERT JUMPDEST POP GAS CALL ISZERO DUP1 ISZERO PUSH2 0x597 JUMPI RETURNDATASIZE PUSH1 0x0 DUP1 RETURNDATACOPY RETURNDATASIZE PUSH1 0x0 REVERT JUMPDEST POP POP POP POP JUMPDEST PUSH2 0x5A5 DUP4 PUSH2 0xDFE JUMP JUMPDEST POP POP PUSH1 0x1 PUSH1 0x48 SSTORE SWAP4 SWAP3 POP POP POP JUMP JUMPDEST PUSH1 0x0 PUSH1 0x2 PUSH1 0x48 SLOAD EQ ISZERO PUSH2 0x608 JUMPI PUSH1 0x40 MLOAD PUSH3 0x461BCD PUSH1 0xE5 SHL DUP2 MSTORE PUSH1 0x20 PUSH1 0x4 DUP3 ADD MSTORE PUSH1 0x1F PUSH1 0x24 DUP3 ADD MSTORE PUSH32 0x5265656E7472616E637947756172643A207265656E7472616E742063616C6C00 PUSH1 0x44 DUP3 ADD MSTORE PUSH1 0x64 ADD PUSH2 0x412 JUMP JUMPDEST PUSH1 0x2 PUSH1 0x48 SSTORE PUSH2 0x616 DUP5 PUSH2 0xE81 JUMP JUMPDEST PUSH2 0x63E JUMPI PUSH1 0x40 MLOAD PUSH4 0x68401FD1 PUSH1 0xE1 SHL DUP2 MSTORE PUSH1 0x1 PUSH1 0x1 PUSH1 0xA0 SHL SUB DUP6 AND PUSH1 0x4 DUP3 ADD MSTORE PUSH1 0x24 ADD PUSH2 0x412 JUMP JUMPDEST PUSH1 0x0 PUSH2 0x64B DUP6 DUP6 DUP6 PUSH2 0xF32 JUMP JUMPDEST SWAP1 POP PUSH1 0x0 PUSH2 0x657 PUSH2 0xCEE JUMP JUMPDEST PUSH1 0x1 PUSH1 0x1 PUSH1 0xA0 SHL SUB AND PUSH4 0x91C65E19 DUP10 DUP10 DUP10 PUSH2 0x670 PUSH2 0xFEF JUMP JUMPDEST PUSH2 0x678 PUSH2 0x1073 JUMP JUMPDEST DUP9 PUSH2 0x681 PUSH2 0x10DC JUMP JUMPDEST PUSH2 0x689 PUSH2 0x1113 JUMP JUMPDEST PUSH2 0x691 PUSH2 0xDBC JUMP JUMPDEST PUSH1 0x40 MLOAD DUP11 PUSH4 0xFFFFFFFF AND PUSH1 0xE0 SHL DUP2 MSTORE PUSH1 0x4 ADD PUSH2 0x6B5 SWAP10 SWAP9 SWAP8 SWAP7 SWAP6 SWAP5 SWAP4 SWAP3 SWAP2 SWAP1 PUSH2 0x1906 JUMP JUMPDEST PUSH1 0x20 PUSH1 0x40 MLOAD DUP1 DUP4 SUB DUP2 PUSH1 0x0 DUP8 GAS CALL ISZERO DUP1 ISZERO PUSH2 0x6D4 JUMPI RETURNDATASIZE PUSH1 0x0 DUP1 RETURNDATACOPY RETURNDATASIZE PUSH1 0x0 REVERT JUMPDEST POP POP POP POP PUSH1 0x40 MLOAD RETURNDATASIZE PUSH1 0x1F NOT PUSH1 0x1F DUP3 ADD AND DUP3 ADD DUP1 PUSH1 0x40 MSTORE POP DUP2 ADD SWAP1 PUSH2 0x6F8 SWAP2 SWAP1 PUSH2 0x1734 JUMP JUMPDEST SWAP1 POP PUSH2 0x704 DUP9 DUP3 PUSH2 0xDE JUMP JUMPDEST PUSH2 0x721 JUMPI PUSH1 0x40 MLOAD PUSH4 0x22A7C3F PUSH1 0xE5 SHL DUP2 MSTORE PUSH1 0x4 ADD PUSH1 0x40 MLOAD DUP1 SWAP2 SUB SWAP1 REVERT JUMPDEST PUSH1 0x0 PUSH2 0x72C DUP10 PUSH2 0x7BD JUMP JUMPDEST SWAP1 POP PUSH2 0x739 DUP10 DUP3 DUP10 PUSH2 0x1148 JUMP JUMPDEST PUSH2 0x745 DUP7 DUP7 DUP12 DUP5 PUSH2 0x11EC JUMP JUMPDEST PUSH2 0x750 DUP10 DUP3 DUP5 PUSH2 0x1402 JUMP JUMPDEST PUSH2 0x759 DUP10 PUSH2 0x146B JUMP JUMPDEST PUSH2 0x762 DUP3 PUSH2 0x14D2 JUMP JUMPDEST PUSH1 0x40 DUP1 MLOAD PUSH1 0x1 PUSH1 0x1 PUSH1 0xA0 SHL SUB DUP12 AND DUP2 MSTORE PUSH1 0x20 DUP2 ADD DUP5 SWAP1 MSTORE SWAP1 DUP2 ADD DUP3 SWAP1 MSTORE PUSH32 0xF4B3F0CA8FF53D762C50E763E9954B0F2B30F227AE6F426094C3B374FB2785FE SWAP1 PUSH1 0x60 ADD PUSH1 0x40 MLOAD DUP1 SWAP2 SUB SWAP1 LOG1 POP PUSH1 0x1 PUSH1 0x48 SSTORE SWAP8 SWAP7 POP POP POP POP POP POP POP JUMP JUMPDEST PUSH1 0x0 PUSH2 0x7D1 PUSH1 0x49 SLOAD PUSH1 0x1 PUSH1 0x1 PUSH1 0xA0 SHL SUB AND SWAP1 JUMP JUMPDEST PUSH1 0x40 MLOAD PUSH1 0x1 PUSH1 0x1 PUSH1 0xA0 SHL SUB SWAP2 SWAP1 SWAP2 AND SWAP1 PUSH4 0xBD02D0F5 SWAP1 PUSH2 0x34C SWAP1 PUSH1 0x26 SWAP1 DUP7 SWAP1 PUSH1 0x20 ADD PUSH2 0x1821 JUMP JUMPDEST PUSH1 0x0 PUSH2 0x80C PUSH1 0x49 SLOAD PUSH1 0x1 PUSH1 0x1 PUSH1 0xA0 SHL SUB AND SWAP1 JUMP JUMPDEST PUSH1 0x1 PUSH1 0x1 PUSH1 0xA0 SHL SUB AND PUSH4 0x21F8A721 PUSH1 0x3 PUSH1 0x0 ADD PUSH1 0x5 ADD PUSH1 0x40 MLOAD PUSH2 0x82F SWAP2 SWAP1 PUSH2 0x1815 JUMP JUMPDEST PUSH1 0x40 MLOAD SWAP1 DUP2 SWAP1 SUB DUP2 KECCAK256 PUSH1 0xE0 DUP4 SWAP1 SHL PUSH1 0x1 PUSH1 0x1 PUSH1 0xE0 SHL SUB NOT AND DUP3 MSTORE PUSH1 0x4 DUP3 ADD MSTORE PUSH1 0x24 ADD PUSH1 0x20 PUSH1 0x40 MLOAD DUP1 DUP4 SUB DUP2 DUP7 GAS STATICCALL ISZERO DUP1 ISZERO PUSH2 0x86E JUMPI RETURNDATASIZE PUSH1 0x0 DUP1 RETURNDATACOPY RETURNDATASIZE PUSH1 0x0 REVERT JUMPDEST POP POP POP POP PUSH1 0x40 MLOAD RETURNDATASIZE PUSH1 0x1F NOT PUSH1 0x1F DUP3 ADD AND DUP3 ADD DUP1 PUSH1 0x40 MSTORE POP DUP2 ADD SWAP1 PUSH2 0x892 SWAP2 SWAP1 PUSH2 0x1993 JUMP JUMPDEST SWAP1 POP SWAP1 JUMP JUMPDEST PUSH1 0x0 PUSH2 0x8AB PUSH1 0x49 SLOAD PUSH1 0x1 PUSH1 0x1 PUSH1 0xA0 SHL SUB AND SWAP1 JUMP JUMPDEST PUSH1 0x1 PUSH1 0x1 PUSH1 0xA0 SHL SUB AND PUSH4 0xBD02D0F5 PUSH1 0x3 PUSH1 0x22 ADD PUSH1 0x9 ADD PUSH1 0x40 MLOAD PUSH2 0x8CE SWAP2 SWAP1 PUSH2 0x1815 JUMP JUMPDEST PUSH1 0x40 MLOAD SWAP1 DUP2 SWAP1 SUB DUP2 KECCAK256 PUSH1 0xE0 DUP4 SWAP1 SHL PUSH1 0x1 PUSH1 0x1 PUSH1 0xE0 SHL SUB NOT AND DUP3 MSTORE PUSH1 0x4 DUP3 ADD MSTORE PUSH1 0x24 ADD PUSH1 0x20 PUSH1 0x40 MLOAD DUP1 DUP4 SUB DUP2 DUP7 GAS STATICCALL ISZERO DUP1 ISZERO PUSH2 0x90D JUMPI RETURNDATASIZE PUSH1 0x0 DUP1 RETURNDATACOPY RETURNDATASIZE PUSH1 0x0 REVERT JUMPDEST POP POP POP POP PUSH1 0x40 MLOAD RETURNDATASIZE PUSH1 0x1F NOT PUSH1 0x1F DUP3 ADD AND DUP3 ADD DUP1 PUSH1 0x40 MSTORE POP DUP2 ADD SWAP1 PUSH2 0x892 SWAP2 SWAP1 PUSH2 0x1734 JUMP JUMPDEST PUSH1 0x0 PUSH2 0x946 DUP4 PUSH8 0xDE0B6B3A7640000 DUP5 PUSH2 0x14F6 JUMP JUMPDEST SWAP4 SWAP3 POP POP POP JUMP JUMPDEST PUSH1 0x0 DUP1 PUSH2 0x962 PUSH1 0x49 SLOAD PUSH1 0x1 PUSH1 0x1 PUSH1 0xA0 SHL SUB AND SWAP1 JUMP JUMPDEST PUSH1 0x1 PUSH1 0x1 PUSH1 0xA0 SHL SUB AND PUSH4 0xBD02D0F5 PUSH1 0x3 PUSH1 0x22 ADD PUSH1 0xB ADD DUP7 DUP7 PUSH1 0x40 MLOAD PUSH1 0x20 ADD PUSH2 0x98C SWAP4 SWAP3 SWAP2 SWAP1 PUSH2 0x19B0 JUMP JUMPDEST PUSH1 0x40 MLOAD PUSH1 0x20 DUP2 DUP4 SUB SUB DUP2 MSTORE SWAP1 PUSH1 0x40 MSTORE DUP1 MLOAD SWAP1 PUSH1 0x20 ADD KECCAK256 PUSH1 0x40 MLOAD DUP3 PUSH4 0xFFFFFFFF AND PUSH1 0xE0 SHL DUP2 MSTORE PUSH1 0x4 ADD PUSH2 0x9C0 SWAP2 DUP2 MSTORE PUSH1 0x20 ADD SWAP1 JUMP JUMPDEST PUSH1 0x20 PUSH1 0x40 MLOAD DUP1 DUP4 SUB DUP2 DUP7 GAS STATICCALL ISZERO DUP1 ISZERO PUSH2 0x9DD JUMPI RETURNDATASIZE PUSH1 0x0 DUP1 RETURNDATACOPY RETURNDATASIZE PUSH1 0x0 REVERT JUMPDEST POP POP POP POP PUSH1 0x40 MLOAD RETURNDATASIZE PUSH1 0x1F NOT PUSH1 0x1F DUP3 ADD AND DUP3 ADD DUP1 PUSH1 0x40 MSTORE POP DUP2 ADD SWAP1 PUSH2 0xA01 SWAP2 SWAP1 PUSH2 0x1734 JUMP JUMPDEST SWAP1 POP PUSH1 0x0 PUSH2 0xA17 PUSH1 0x49 SLOAD PUSH1 0x1 PUSH1 0x1 PUSH1 0xA0 SHL SUB AND SWAP1 JUMP JUMPDEST PUSH1 0x1 PUSH1 0x1 PUSH1 0xA0 SHL SUB AND PUSH4 0xBD02D0F5 PUSH1 0x3 PUSH1 0x22 ADD PUSH1 0xD ADD DUP8 DUP8 PUSH1 0x40 MLOAD PUSH1 0x20 ADD PUSH2 0xA41 SWAP4 SWAP3 SWAP2 SWAP1 PUSH2 0x19B0 JUMP JUMPDEST PUSH1 0x40 MLOAD PUSH1 0x20 DUP2 DUP4 SUB SUB DUP2 MSTORE SWAP1 PUSH1 0x40 MSTORE DUP1 MLOAD SWAP1 PUSH1 0x20 ADD KECCAK256 PUSH1 0x40 MLOAD DUP3 PUSH4 0xFFFFFFFF AND PUSH1 0xE0 SHL DUP2 MSTORE PUSH1 0x4 ADD PUSH2 0xA75 SWAP2 DUP2 MSTORE PUSH1 0x20 ADD SWAP1 JUMP JUMPDEST PUSH1 0x20 PUSH1 0x40 MLOAD DUP1 DUP4 SUB DUP2 DUP7 GAS STATICCALL ISZERO DUP1 ISZERO PUSH2 0xA92 JUMPI RETURNDATASIZE PUSH1 0x0 DUP1 RETURNDATACOPY RETURNDATASIZE PUSH1 0x0 REVERT JUMPDEST POP POP POP POP PUSH1 0x40 MLOAD RETURNDATASIZE PUSH1 0x1F NOT PUSH1 0x1F DUP3 ADD AND DUP3 ADD DUP1 PUSH1 0x40 MSTORE POP DUP2 ADD SWAP1 PUSH2 0xAB6 SWAP2 SWAP1 PUSH2 0x1734 JUMP JUMPDEST SWAP1 POP PUSH1 0x0 PUSH2 0xACC PUSH1 0x49 SLOAD PUSH1 0x1 PUSH1 0x1 PUSH1 0xA0 SHL SUB AND SWAP1 JUMP JUMPDEST PUSH1 0x1 PUSH1 0x1 PUSH1 0xA0 SHL SUB AND PUSH4 0xBD02D0F5 PUSH1 0x3 PUSH1 0x22 ADD PUSH1 0x6 ADD DUP9 DUP9 PUSH1 0x40 MLOAD PUSH1 0x20 ADD PUSH2 0xAF6 SWAP4 SWAP3 SWAP2 SWAP1 PUSH2 0x19B0 JUMP JUMPDEST PUSH1 0x40 MLOAD PUSH1 0x20 DUP2 DUP4 SUB SUB DUP2 MSTORE SWAP1 PUSH1 0x40 MSTORE DUP1 MLOAD SWAP1 PUSH1 0x20 ADD KECCAK256 PUSH1 0x40 MLOAD DUP3 PUSH4 0xFFFFFFFF AND PUSH1 0xE0 SHL DUP2 MSTORE PUSH1 0x4 ADD PUSH2 0xB2A SWAP2 DUP2 MSTORE PUSH1 0x20 ADD SWAP1 JUMP JUMPDEST PUSH1 0x20 PUSH1 0x40 MLOAD DUP1 DUP4 SUB DUP2 DUP7 GAS STATICCALL ISZERO DUP1 ISZERO PUSH2 0xB47 JUMPI RETURNDATASIZE PUSH1 0x0 DUP1 RETURNDATACOPY RETURNDATASIZE PUSH1 0x0 REVERT JUMPDEST POP POP POP POP PUSH1 0x40 MLOAD RETURNDATASIZE PUSH1 0x1F NOT PUSH1 0x1F DUP3 ADD AND DUP3 ADD DUP1 PUSH1 0x40 MSTORE POP DUP2 ADD SWAP1 PUSH2 0xB6B SWAP2 SWAP1 PUSH2 0x1734 JUMP JUMPDEST SWAP1 POP PUSH1 0x0 DUP2 TIMESTAMP LT PUSH2 0xCE4 JUMPI POP DUP3 PUSH2 0xB82 DUP2 DUP1 PUSH2 0x19E2 JUMP JUMPDEST SWAP4 POP DUP4 ISZERO DUP1 ISZERO PUSH2 0xB99 JUMPI POP PUSH2 0xB96 DUP8 PUSH2 0x311 JUMP JUMPDEST DUP7 EQ JUMPDEST ISZERO PUSH2 0xBA7 JUMPI PUSH2 0xBA7 DUP8 PUSH2 0x15C4 JUMP JUMPDEST PUSH1 0x49 SLOAD PUSH1 0x40 MLOAD PUSH1 0x1 PUSH1 0x1 PUSH1 0xA0 SHL SUB SWAP1 SWAP2 AND SWAP1 PUSH4 0xE2A4853A SWAP1 PUSH2 0xBD2 SWAP1 PUSH1 0x30 SWAP1 DUP12 SWAP1 DUP12 SWAP1 PUSH1 0x20 ADD PUSH2 0x19B0 JUMP JUMPDEST PUSH1 0x40 DUP1 MLOAD PUSH1 0x1F NOT DUP2 DUP5 SUB ADD DUP2 MSTORE SWAP1 DUP3 SWAP1 MSTORE DUP1 MLOAD PUSH1 0x20 SWAP1 SWAP2 ADD KECCAK256 PUSH1 0x1 PUSH1 0x1 PUSH1 0xE0 SHL SUB NOT PUSH1 0xE0 DUP5 SWAP1 SHL AND DUP3 MSTORE PUSH1 0x4 DUP3 ADD MSTORE PUSH1 0x24 DUP2 ADD DUP8 SWAP1 MSTORE PUSH1 0x44 ADD PUSH1 0x0 PUSH1 0x40 MLOAD DUP1 DUP4 SUB DUP2 PUSH1 0x0 DUP8 DUP1 EXTCODESIZE ISZERO DUP1 ISZERO PUSH2 0xC25 JUMPI PUSH1 0x0 DUP1 REVERT JUMPDEST POP GAS CALL ISZERO DUP1 ISZERO PUSH2 0xC39 JUMPI RETURNDATASIZE PUSH1 0x0 DUP1 RETURNDATACOPY RETURNDATASIZE PUSH1 0x0 REVERT JUMPDEST POP POP POP POP PUSH2 0xC4F PUSH1 0x49 SLOAD PUSH1 0x1 PUSH1 0x1 PUSH1 0xA0 SHL SUB AND SWAP1 JUMP JUMPDEST PUSH1 0x1 PUSH1 0x1 PUSH1 0xA0 SHL SUB AND PUSH4 0xE2A4853A PUSH1 0x3 PUSH1 0x22 ADD PUSH1 0xD ADD DUP10 DUP10 PUSH1 0x40 MLOAD PUSH1 0x20 ADD PUSH2 0xC79 SWAP4 SWAP3 SWAP2 SWAP1 PUSH2 0x19B0 JUMP JUMPDEST PUSH1 0x40 DUP1 MLOAD PUSH1 0x1F NOT DUP2 DUP5 SUB ADD DUP2 MSTORE SWAP1 DUP3 SWAP1 MSTORE DUP1 MLOAD PUSH1 0x20 SWAP1 SWAP2 ADD KECCAK256 PUSH1 0x1 PUSH1 0x1 PUSH1 0xE0 SHL SUB NOT PUSH1 0xE0 DUP5 SWAP1 SHL AND DUP3 MSTORE PUSH1 0x4 DUP3 ADD MSTORE TIMESTAMP PUSH1 0x24 DUP3 ADD MSTORE PUSH1 0x44 ADD PUSH1 0x0 PUSH1 0x40 MLOAD DUP1 DUP4 SUB DUP2 PUSH1 0x0 DUP8 DUP1 EXTCODESIZE ISZERO DUP1 ISZERO PUSH2 0xCCB JUMPI PUSH1 0x0 DUP1 REVERT JUMPDEST POP GAS CALL ISZERO DUP1 ISZERO PUSH2 0xCDF JUMPI RETURNDATASIZE PUSH1 0x0 DUP1 RETURNDATACOPY RETURNDATASIZE PUSH1 0x0 REVERT JUMPDEST POP POP POP POP JUMPDEST SWAP7 SWAP6 POP POP POP POP POP POP JUMP JUMPDEST PUSH1 0x0 PUSH2 0xD02 PUSH1 0x49 SLOAD PUSH1 0x1 PUSH1 0x1 PUSH1 0xA0 SHL SUB AND SWAP1 JUMP JUMPDEST PUSH1 0x1 PUSH1 0x1 PUSH1 0xA0 SHL SUB AND PUSH4 0x21F8A721 PUSH1 0x3 PUSH1 0x0 ADD PUSH1 0xB ADD PUSH1 0x40 MLOAD PUSH2 0x82F SWAP2 SWAP1 PUSH2 0x1815 JUMP JUMPDEST PUSH1 0x0 PUSH2 0xD39 PUSH1 0x49 SLOAD PUSH1 0x1 PUSH1 0x1 PUSH1 0xA0 SHL SUB AND SWAP1 JUMP JUMPDEST PUSH1 0x1 PUSH1 0x1 PUSH1 0xA0 SHL SUB AND PUSH4 0x21F8A721 PUSH1 0x3 PUSH1 0x0 ADD PUSH1 0x6 ADD PUSH1 0x40 MLOAD PUSH2 0x82F SWAP2 SWAP1 PUSH2 0x1815 JUMP JUMPDEST PUSH1 0x40 DUP1 MLOAD PUSH1 0x1 DUP1 DUP3 MSTORE DUP2 DUP4 ADD SWAP1 SWAP3 MSTORE PUSH1 0x60 SWAP2 PUSH1 0x0 SWAP2 SWAP1 PUSH1 0x20 DUP1 DUP4 ADD SWAP1 DUP1 CALLDATASIZE DUP4 CALLDATACOPY POP POP PUSH1 0x40 MLOAD SWAP2 SWAP3 POP PUSH2 0xD91 SWAP2 PUSH1 0x1A SWAP2 POP PUSH2 0x1815 JUMP JUMPDEST PUSH1 0x40 MLOAD DUP1 SWAP2 SUB SWAP1 KECCAK256 DUP2 PUSH1 0x0 DUP2 MLOAD DUP2 LT PUSH2 0xDAC JUMPI PUSH2 0xDAC PUSH2 0x19F9 JUMP JUMPDEST PUSH1 0x20 SWAP1 DUP2 MUL SWAP2 SWAP1 SWAP2 ADD ADD MSTORE SWAP2 SWAP1 POP JUMP JUMPDEST PUSH1 0x40 DUP1 MLOAD PUSH1 0x1 DUP1 DUP3 MSTORE DUP2 DUP4 ADD SWAP1 SWAP3 MSTORE PUSH1 0x60 SWAP2 PUSH1 0x0 SWAP2 SWAP1 PUSH1 0x20 DUP1 DUP4 ADD SWAP1 DUP1 CALLDATASIZE DUP4 CALLDATACOPY ADD SWAP1 POP POP SWAP1 POP PUSH8 0xDE0B6B3A7640000 DUP2 PUSH1 0x0 DUP2 MLOAD DUP2 LT PUSH2 0xDAC JUMPI PUSH2 0xDAC PUSH2 0x19F9 JUMP JUMPDEST PUSH1 0x49 SLOAD PUSH1 0x40 MLOAD PUSH1 0x1 PUSH1 0x1 PUSH1 0xA0 SHL SUB SWAP1 SWAP2 AND SWAP1 PUSH4 0xEBB9D8C9 SWAP1 PUSH2 0xE22 SWAP1 PUSH1 0x2E SWAP1 PUSH2 0x1815 JUMP JUMPDEST PUSH1 0x40 MLOAD SWAP1 DUP2 SWAP1 SUB DUP2 KECCAK256 PUSH1 0xE0 DUP4 SWAP1 SHL PUSH1 0x1 PUSH1 0x1 PUSH1 0xE0 SHL SUB NOT AND DUP3 MSTORE PUSH1 0x4 DUP3 ADD MSTORE PUSH1 0x24 DUP2 ADD DUP5 SWAP1 MSTORE PUSH1 0x44 ADD JUMPDEST PUSH1 0x0 PUSH1 0x40 MLOAD DUP1 DUP4 SUB DUP2 PUSH1 0x0 DUP8 DUP1 EXTCODESIZE ISZERO DUP1 ISZERO PUSH2 0xE66 JUMPI PUSH1 0x0 DUP1 REVERT JUMPDEST POP GAS CALL ISZERO DUP1 ISZERO PUSH2 0xE7A JUMPI RETURNDATASIZE PUSH1 0x0 DUP1 RETURNDATACOPY RETURNDATASIZE PUSH1 0x0 REVERT JUMPDEST POP POP POP POP POP JUMP JUMPDEST PUSH1 0x0 PUSH2 0xE95 PUSH1 0x49 SLOAD PUSH1 0x1 PUSH1 0x1 PUSH1 0xA0 SHL SUB AND SWAP1 JUMP JUMPDEST PUSH1 0x1 PUSH1 0x1 PUSH1 0xA0 SHL SUB AND PUSH4 0x7AE1CFCA PUSH1 0x3 PUSH1 0x22 ADD PUSH1 0x7 ADD DUP5 PUSH1 0x40 MLOAD PUSH1 0x20 ADD PUSH2 0xEBD SWAP3 SWAP2 SWAP1 PUSH2 0x1821 JUMP JUMPDEST PUSH1 0x40 MLOAD PUSH1 0x20 DUP2 DUP4 SUB SUB DUP2 MSTORE SWAP1 PUSH1 0x40 MSTORE DUP1 MLOAD SWAP1 PUSH1 0x20 ADD KECCAK256 PUSH1 0x40 MLOAD DUP3 PUSH4 0xFFFFFFFF AND PUSH1 0xE0 SHL DUP2 MSTORE PUSH1 0x4 ADD PUSH2 0xEF1 SWAP2 DUP2 MSTORE PUSH1 0x20 ADD SWAP1 JUMP JUMPDEST PUSH1 0x20 PUSH1 0x40 MLOAD DUP1 DUP4 SUB DUP2 DUP7 GAS STATICCALL ISZERO DUP1 ISZERO PUSH2 0xF0E JUMPI RETURNDATASIZE PUSH1 0x0 DUP1 RETURNDATACOPY RETURNDATASIZE PUSH1 0x0 REVERT JUMPDEST POP POP POP POP PUSH1 0x40 MLOAD RETURNDATASIZE PUSH1 0x1F NOT PUSH1 0x1F DUP3 ADD AND DUP3 ADD DUP1 PUSH1 0x40 MSTORE POP DUP2 ADD SWAP1 PUSH2 0x30B SWAP2 SWAP1 PUSH2 0x1A0F JUMP JUMPDEST PUSH1 0x0 PUSH2 0xF46 PUSH1 0x49 SLOAD PUSH1 0x1 PUSH1 0x1 PUSH1 0xA0 SHL SUB AND SWAP1 JUMP JUMPDEST PUSH1 0x1 PUSH1 0x1 PUSH1 0xA0 SHL SUB AND PUSH4 0xBD02D0F5 PUSH1 0x3 PUSH1 0x22 ADD PUSH1 0x8 ADD DUP7 DUP7 DUP7 PUSH1 0x40 MLOAD PUSH1 0x20 ADD PUSH2 0xF72 SWAP5 SWAP4 SWAP3 SWAP2 SWAP1 PUSH2 0x1A2C JUMP JUMPDEST PUSH1 0x40 MLOAD PUSH1 0x20 DUP2 DUP4 SUB SUB DUP2 MSTORE SWAP1 PUSH1 0x40 MSTORE DUP1 MLOAD SWAP1 PUSH1 0x20 ADD KECCAK256 PUSH1 0x40 MLOAD DUP3 PUSH4 0xFFFFFFFF AND PUSH1 0xE0 SHL DUP2 MSTORE PUSH1 0x4 ADD PUSH2 0xFA6 SWAP2 DUP2 MSTORE PUSH1 0x20 ADD SWAP1 JUMP JUMPDEST PUSH1 0x20 PUSH1 0x40 MLOAD DUP1 DUP4 SUB DUP2 DUP7 GAS STATICCALL ISZERO DUP1 ISZERO PUSH2 0xFC3 JUMPI RETURNDATASIZE PUSH1 0x0 DUP1 RETURNDATACOPY RETURNDATASIZE PUSH1 0x0 REVERT JUMPDEST POP POP POP POP PUSH1 0x40 MLOAD RETURNDATASIZE PUSH1 0x1F NOT PUSH1 0x1F DUP3 ADD AND DUP3 ADD DUP1 PUSH1 0x40 MSTORE POP DUP2 ADD SWAP1 PUSH2 0xFE7 SWAP2 SWAP1 PUSH2 0x1734 JUMP JUMPDEST SWAP5 SWAP4 POP POP POP POP JUMP JUMPDEST PUSH1 0x40 DUP1 MLOAD PUSH1 0x2 DUP1 DUP3 MSTORE PUSH1 0x60 DUP1 DUP4 ADD DUP5 MSTORE SWAP3 PUSH1 0x0 SWAP3 SWAP2 SWAP1 PUSH1 0x20 DUP4 ADD SWAP1 DUP1 CALLDATASIZE DUP4 CALLDATACOPY POP POP PUSH1 0x40 MLOAD SWAP2 SWAP3 POP PUSH2 0x1023 SWAP2 PUSH1 0x1A SWAP2 POP PUSH2 0x1815 JUMP JUMPDEST PUSH1 0x40 MLOAD DUP1 SWAP2 SUB SWAP1 KECCAK256 DUP2 PUSH1 0x0 DUP2 MLOAD DUP2 LT PUSH2 0x103E JUMPI PUSH2 0x103E PUSH2 0x19F9 JUMP JUMPDEST PUSH1 0x20 SWAP1 DUP2 MUL SWAP2 SWAP1 SWAP2 ADD ADD MSTORE PUSH1 0x40 MLOAD PUSH2 0x1058 SWAP1 PUSH1 0x18 SWAP1 PUSH2 0x1815 JUMP JUMPDEST PUSH1 0x40 MLOAD DUP1 SWAP2 SUB SWAP1 KECCAK256 DUP2 PUSH1 0x1 DUP2 MLOAD DUP2 LT PUSH2 0xDAC JUMPI PUSH2 0xDAC PUSH2 0x19F9 JUMP JUMPDEST PUSH1 0x40 DUP1 MLOAD PUSH1 0x2 DUP1 DUP3 MSTORE PUSH1 0x60 DUP1 DUP4 ADD DUP5 MSTORE SWAP3 PUSH1 0x0 SWAP3 SWAP2 SWAP1 PUSH1 0x20 DUP4 ADD SWAP1 DUP1 CALLDATASIZE DUP4 CALLDATACOPY ADD SWAP1 POP POP SWAP1 POP PUSH8 0xC7D713B49DA0000 DUP2 PUSH1 0x0 DUP2 MLOAD DUP2 LT PUSH2 0x10B4 JUMPI PUSH2 0x10B4 PUSH2 0x19F9 JUMP JUMPDEST PUSH1 0x20 MUL PUSH1 0x20 ADD ADD DUP2 DUP2 MSTORE POP POP PUSH8 0x16345785D8A0000 DUP2 PUSH1 0x1 DUP2 MLOAD DUP2 LT PUSH2 0xDAC JUMPI PUSH2 0xDAC PUSH2 0x19F9 JUMP JUMPDEST PUSH1 0x0 PUSH2 0x10F0 PUSH1 0x49 SLOAD PUSH1 0x1 PUSH1 0x1 PUSH1 0xA0 SHL SUB AND SWAP1 JUMP JUMPDEST PUSH1 0x1 PUSH1 0x1 PUSH1 0xA0 SHL SUB AND PUSH4 0xBD02D0F5 PUSH1 0x3 PUSH1 0x22 ADD PUSH1 0x4 ADD PUSH1 0x40 MLOAD PUSH2 0x8CE SWAP2 SWAP1 PUSH2 0x1815 JUMP JUMPDEST PUSH1 0x40 DUP1 MLOAD PUSH1 0x1 DUP1 DUP3 MSTORE DUP2 DUP4 ADD SWAP1 SWAP3 MSTORE PUSH1 0x60 SWAP2 PUSH1 0x0 SWAP2 SWAP1 PUSH1 0x20 DUP1 DUP4 ADD SWAP1 DUP1 CALLDATASIZE DUP4 CALLDATACOPY POP POP PUSH1 0x40 MLOAD SWAP2 SWAP3 POP PUSH2 0xD91 SWAP2 PUSH1 0x19 SWAP2 POP PUSH2 0x1815 JUMP JUMPDEST PUSH1 0x49 SLOAD PUSH1 0x40 MLOAD PUSH1 0x1 PUSH1 0x1 PUSH1 0xA0 SHL SUB SWAP1 SWAP2 AND SWAP1 PUSH4 0xCA446DD9 SWAP1 PUSH2 0x1173 SWAP1 PUSH1 0x31 SWAP1 DUP8 SWAP1 DUP8 SWAP1 PUSH1 0x20 ADD PUSH2 0x19B0 JUMP JUMPDEST PUSH1 0x40 DUP1 MLOAD PUSH1 0x1F NOT DUP2 DUP5 SUB ADD DUP2 MSTORE SWAP1 DUP3 SWAP1 MSTORE DUP1 MLOAD PUSH1 0x20 SWAP1 SWAP2 ADD KECCAK256 PUSH1 0x1 PUSH1 0x1 PUSH1 0xE0 SHL SUB NOT PUSH1 0xE0 DUP5 SWAP1 SHL AND DUP3 MSTORE PUSH1 0x4 DUP3 ADD MSTORE PUSH1 0x1 PUSH1 0x1 PUSH1 0xA0 SHL SUB DUP5 AND PUSH1 0x24 DUP3 ADD MSTORE PUSH1 0x44 ADD JUMPDEST PUSH1 0x0 PUSH1 0x40 MLOAD DUP1 DUP4 SUB DUP2 PUSH1 0x0 DUP8 DUP1 EXTCODESIZE ISZERO DUP1 ISZERO PUSH2 0x11CF JUMPI PUSH1 0x0 DUP1 REVERT JUMPDEST POP GAS CALL ISZERO DUP1 ISZERO PUSH2 0x11E3 JUMPI RETURNDATASIZE PUSH1 0x0 DUP1 RETURNDATACOPY RETURNDATASIZE PUSH1 0x0 REVERT JUMPDEST POP POP POP POP POP POP POP JUMP JUMPDEST PUSH1 0x0 PUSH2 0x1200 PUSH1 0x49 SLOAD PUSH1 0x1 PUSH1 0x1 PUSH1 0xA0 SHL SUB AND SWAP1 JUMP JUMPDEST PUSH1 0x1 PUSH1 0x1 PUSH1 0xA0 SHL SUB AND PUSH4 0xBD02D0F5 PUSH1 0x3 PUSH1 0x22 ADD PUSH1 0xE ADD DUP8 DUP8 PUSH1 0x40 MLOAD PUSH1 0x20 ADD PUSH2 0x122A SWAP4 SWAP3 SWAP2 SWAP1 PUSH2 0x1A68 JUMP JUMPDEST PUSH1 0x40 MLOAD PUSH1 0x20 DUP2 DUP4 SUB SUB DUP2 MSTORE SWAP1 PUSH1 0x40 MSTORE DUP1 MLOAD SWAP1 PUSH1 0x20 ADD KECCAK256 PUSH1 0x40 MLOAD DUP3 PUSH4 0xFFFFFFFF AND PUSH1 0xE0 SHL DUP2 MSTORE PUSH1 0x4 ADD PUSH2 0x125E SWAP2 DUP2 MSTORE PUSH1 0x20 ADD SWAP1 JUMP JUMPDEST PUSH1 0x20 PUSH1 0x40 MLOAD DUP1 DUP4 SUB DUP2 DUP7 GAS STATICCALL ISZERO DUP1 ISZERO PUSH2 0x127B JUMPI RETURNDATASIZE PUSH1 0x0 DUP1 RETURNDATACOPY RETURNDATASIZE PUSH1 0x0 REVERT JUMPDEST POP POP POP POP PUSH1 0x40 MLOAD RETURNDATASIZE PUSH1 0x1F NOT PUSH1 0x1F DUP3 ADD AND DUP3 ADD DUP1 PUSH1 0x40 MSTORE POP DUP2 ADD SWAP1 PUSH2 0x129F SWAP2 SWAP1 PUSH2 0x1734 JUMP JUMPDEST SWAP1 POP PUSH2 0x12B3 PUSH1 0x49 SLOAD PUSH1 0x1 PUSH1 0x1 PUSH1 0xA0 SHL SUB AND SWAP1 JUMP JUMPDEST PUSH1 0x1 PUSH1 0x1 PUSH1 0xA0 SHL SUB AND PUSH4 0xE2A4853A PUSH1 0x3 PUSH1 0x22 ADD PUSH1 0x6 ADD DUP6 DUP6 PUSH1 0x40 MLOAD PUSH1 0x20 ADD PUSH2 0x12DD SWAP4 SWAP3 SWAP2 SWAP1 PUSH2 0x19B0 JUMP JUMPDEST PUSH1 0x40 MLOAD PUSH1 0x20 DUP2 DUP4 SUB SUB DUP2 MSTORE SWAP1 PUSH1 0x40 MSTORE DUP1 MLOAD SWAP1 PUSH1 0x20 ADD KECCAK256 DUP4 TIMESTAMP PUSH2 0x12FF SWAP2 SWAP1 PUSH2 0x1763 JUMP JUMPDEST PUSH1 0x40 MLOAD PUSH1 0x1 PUSH1 0x1 PUSH1 0xE0 SHL SUB NOT PUSH1 0xE0 DUP6 SWAP1 SHL AND DUP2 MSTORE PUSH1 0x4 DUP2 ADD SWAP3 SWAP1 SWAP3 MSTORE PUSH1 0x24 DUP3 ADD MSTORE PUSH1 0x44 ADD PUSH1 0x0 PUSH1 0x40 MLOAD DUP1 DUP4 SUB DUP2 PUSH1 0x0 DUP8 DUP1 EXTCODESIZE ISZERO DUP1 ISZERO PUSH2 0x133D JUMPI PUSH1 0x0 DUP1 REVERT JUMPDEST POP GAS CALL ISZERO DUP1 ISZERO PUSH2 0x1351 JUMPI RETURNDATASIZE PUSH1 0x0 DUP1 RETURNDATACOPY RETURNDATASIZE PUSH1 0x0 REVERT JUMPDEST POP POP POP POP PUSH2 0x1367 PUSH1 0x49 SLOAD PUSH1 0x1 PUSH1 0x1 PUSH1 0xA0 SHL SUB AND SWAP1 JUMP JUMPDEST PUSH1 0x1 PUSH1 0x1 PUSH1 0xA0 SHL SUB AND PUSH4 0xE2A4853A PUSH1 0x3 PUSH1 0x22 ADD PUSH1 0xD ADD DUP6 DUP6 PUSH1 0x40 MLOAD PUSH1 0x20 ADD PUSH2 0x1391 SWAP4 SWAP3 SWAP2 SWAP1 PUSH2 0x19B0 JUMP JUMPDEST PUSH1 0x40 DUP1 MLOAD PUSH1 0x1F NOT DUP2 DUP5 SUB ADD DUP2 MSTORE SWAP1 DUP3 SWAP1 MSTORE DUP1 MLOAD PUSH1 0x20 SWAP1 SWAP2 ADD KECCAK256 PUSH1 0x1 PUSH1 0x1 PUSH1 0xE0 SHL SUB NOT PUSH1 0xE0 DUP5 SWAP1 SHL AND DUP3 MSTORE PUSH1 0x4 DUP3 ADD MSTORE TIMESTAMP PUSH1 0x24 DUP3 ADD MSTORE PUSH1 0x44 ADD PUSH1 0x0 PUSH1 0x40 MLOAD DUP1 DUP4 SUB DUP2 PUSH1 0x0 DUP8 DUP1 EXTCODESIZE ISZERO DUP1 ISZERO PUSH2 0x13E3 JUMPI PUSH1 0x0 DUP1 REVERT JUMPDEST POP GAS CALL ISZERO DUP1 ISZERO PUSH2 0x13F7 JUMPI RETURNDATASIZE PUSH1 0x0 DUP1 RETURNDATACOPY RETURNDATASIZE PUSH1 0x0 REVERT JUMPDEST POP POP POP POP POP POP POP POP POP JUMP JUMPDEST PUSH1 0x49 SLOAD PUSH1 0x40 MLOAD PUSH1 0x1 PUSH1 0x1 PUSH1 0xA0 SHL SUB SWAP1 SWAP2 AND SWAP1 PUSH4 0xE2A4853A SWAP1 PUSH2 0x142D SWAP1 PUSH1 0x30 SWAP1 DUP8 SWAP1 DUP8 SWAP1 PUSH1 0x20 ADD PUSH2 0x19B0 JUMP JUMPDEST PUSH1 0x40 DUP1 MLOAD PUSH1 0x1F NOT DUP2 DUP5 SUB ADD DUP2 MSTORE SWAP1 DUP3 SWAP1 MSTORE DUP1 MLOAD PUSH1 0x20 SWAP1 SWAP2 ADD KECCAK256 PUSH1 0x1 PUSH1 0x1 PUSH1 0xE0 SHL SUB NOT PUSH1 0xE0 DUP5 SWAP1 SHL AND DUP3 MSTORE PUSH1 0x4 DUP3 ADD MSTORE PUSH1 0x24 DUP2 ADD DUP5 SWAP1 MSTORE PUSH1 0x44 ADD PUSH2 0x11B5 JUMP JUMPDEST PUSH1 0x49 SLOAD PUSH1 0x40 MLOAD PUSH1 0x1 PUSH1 0x1 PUSH1 0xA0 SHL SUB SWAP1 SWAP2 AND SWAP1 PUSH4 0xADB353DC SWAP1 PUSH2 0x1494 SWAP1 PUSH1 0x26 SWAP1 DUP6 SWAP1 PUSH1 0x20 ADD PUSH2 0x1821 JUMP JUMPDEST PUSH1 0x40 DUP1 MLOAD PUSH1 0x1F NOT DUP2 DUP5 SUB ADD DUP2 MSTORE SWAP1 DUP3 SWAP1 MSTORE DUP1 MLOAD PUSH1 0x20 SWAP1 SWAP2 ADD KECCAK256 PUSH1 0x1 PUSH1 0x1 PUSH1 0xE0 SHL SUB NOT PUSH1 0xE0 DUP5 SWAP1 SHL AND DUP3 MSTORE PUSH1 0x4 DUP3 ADD MSTORE PUSH1 0x1 PUSH1 0x24 DUP3 ADD MSTORE PUSH1 0x44 ADD PUSH2 0xE4C JUMP JUMPDEST PUSH1 0x49 SLOAD PUSH1 0x40 MLOAD PUSH1 0x1 PUSH1 0x1 PUSH1 0xA0 SHL SUB SWAP1 SWAP2 AND SWAP1 PUSH4 0xADB353DC SWAP1 PUSH2 0xE22 SWAP1 PUSH1 0x2E SWAP1 PUSH2 0x1815 JUMP JUMPDEST PUSH1 0x0 DUP1 DUP1 PUSH1 0x0 NOT DUP6 DUP8 MULMOD DUP6 DUP8 MUL SWAP3 POP DUP3 DUP2 LT DUP4 DUP3 SUB SUB SWAP2 POP POP DUP1 PUSH1 0x0 EQ ISZERO PUSH2 0x1531 JUMPI DUP4 DUP3 DUP2 PUSH2 0x1527 JUMPI PUSH2 0x1527 PUSH2 0x1A88 JUMP JUMPDEST DIV SWAP3 POP POP POP PUSH2 0x946 JUMP JUMPDEST DUP4 DUP2 LT PUSH2 0x155B JUMPI PUSH1 0x40 MLOAD PUSH4 0x1DCF3063 PUSH1 0xE2 SHL DUP2 MSTORE PUSH1 0x4 DUP2 ADD DUP3 SWAP1 MSTORE PUSH1 0x24 DUP2 ADD DUP6 SWAP1 MSTORE PUSH1 0x44 ADD PUSH2 0x412 JUMP JUMPDEST PUSH1 0x0 DUP5 DUP7 DUP9 MULMOD PUSH1 0x2 PUSH1 0x1 DUP8 NOT DUP2 ADD DUP9 AND SWAP8 DUP9 SWAP1 DIV PUSH1 0x3 DUP2 MUL DUP4 XOR DUP1 DUP3 MUL DUP5 SUB MUL DUP1 DUP3 MUL DUP5 SUB MUL DUP1 DUP3 MUL DUP5 SUB MUL DUP1 DUP3 MUL DUP5 SUB MUL DUP1 DUP3 MUL DUP5 SUB MUL SWAP1 DUP2 MUL SWAP1 SWAP3 SUB SWAP1 SWAP2 MUL PUSH1 0x0 DUP9 SWAP1 SUB DUP9 SWAP1 DIV SWAP1 SWAP2 ADD DUP6 DUP4 GT SWAP1 SWAP5 SUB SWAP4 SWAP1 SWAP4 MUL SWAP4 SUB SWAP5 SWAP1 SWAP5 DIV SWAP2 SWAP1 SWAP2 OR MUL SWAP5 SWAP4 POP POP POP POP JUMP JUMPDEST PUSH1 0x49 SLOAD PUSH1 0x40 MLOAD PUSH1 0x1 PUSH1 0x1 PUSH1 0xA0 SHL SUB SWAP1 SWAP2 AND SWAP1 PUSH4 0xADB353DC SWAP1 PUSH2 0x1494 SWAP1 PUSH1 0x27 SWAP1 DUP6 SWAP1 PUSH1 0x20 ADD PUSH2 0x1821 JUMP JUMPDEST PUSH1 0x1 PUSH1 0x1 PUSH1 0xA0 SHL SUB DUP2 AND DUP2 EQ PUSH2 0x1602 JUMPI PUSH1 0x0 DUP1 REVERT JUMPDEST POP JUMP JUMPDEST PUSH1 0x0 DUP1 PUSH1 0x40 DUP4 DUP6 SUB SLT ISZERO PUSH2 0x1618 JUMPI PUSH1 0x0 DUP1 REVERT JUMPDEST DUP3 CALLDATALOAD PUSH2 0x1623 DUP2 PUSH2 0x15ED JUMP JUMPDEST SWAP5 PUSH1 0x20 SWAP4 SWAP1 SWAP4 ADD CALLDATALOAD SWAP4 POP POP POP JUMP JUMPDEST PUSH1 0x0 PUSH1 0x20 DUP3 DUP5 SUB SLT ISZERO PUSH2 0x1643 JUMPI PUSH1 0x0 DUP1 REVERT JUMPDEST DUP2 CALLDATALOAD PUSH2 0x946 DUP2 PUSH2 0x15ED JUMP JUMPDEST DUP1 ISZERO ISZERO DUP2 EQ PUSH2 0x1602 JUMPI PUSH1 0x0 DUP1 REVERT JUMPDEST PUSH1 0x0 DUP1 PUSH1 0x40 DUP4 DUP6 SUB SLT ISZERO PUSH2 0x166F JUMPI PUSH1 0x0 DUP1 REVERT JUMPDEST DUP3 CALLDATALOAD PUSH2 0x167A DUP2 PUSH2 0x15ED JUMP JUMPDEST SWAP2 POP PUSH1 0x20 DUP4 ADD CALLDATALOAD PUSH2 0x168A DUP2 PUSH2 0x164E JUMP JUMPDEST DUP1 SWAP2 POP POP SWAP3 POP SWAP3 SWAP1 POP JUMP JUMPDEST PUSH1 0x0 DUP1 PUSH1 0x0 DUP1 PUSH1 0x0 PUSH1 0x80 DUP7 DUP9 SUB SLT ISZERO PUSH2 0x16AD JUMPI PUSH1 0x0 DUP1 REVERT JUMPDEST DUP6 CALLDATALOAD PUSH2 0x16B8 DUP2 PUSH2 0x15ED JUMP JUMPDEST SWAP5 POP PUSH1 0x20 DUP7 ADD CALLDATALOAD SWAP4 POP PUSH1 0x40 DUP7 ADD CALLDATALOAD PUSH2 0x16CF DUP2 PUSH2 0x15ED JUMP JUMPDEST SWAP3 POP PUSH1 0x60 DUP7 ADD CALLDATALOAD PUSH8 0xFFFFFFFFFFFFFFFF DUP1 DUP3 GT ISZERO PUSH2 0x16EC JUMPI PUSH1 0x0 DUP1 REVERT JUMPDEST DUP2 DUP9 ADD SWAP2 POP DUP9 PUSH1 0x1F DUP4 ADD SLT PUSH2 0x1700 JUMPI PUSH1 0x0 DUP1 REVERT JUMPDEST DUP2 CALLDATALOAD DUP2 DUP2 GT ISZERO PUSH2 0x170F JUMPI PUSH1 0x0 DUP1 REVERT JUMPDEST DUP10 PUSH1 0x20 DUP3 DUP6 ADD ADD GT ISZERO PUSH2 0x1721 JUMPI PUSH1 0x0 DUP1 REVERT JUMPDEST SWAP7 SWAP10 SWAP6 SWAP9 POP SWAP4 SWAP7 POP PUSH1 0x20 ADD SWAP5 SWAP4 SWAP3 POP POP POP JUMP JUMPDEST PUSH1 0x0 PUSH1 0x20 DUP3 DUP5 SUB SLT ISZERO PUSH2 0x1746 JUMPI PUSH1 0x0 DUP1 REVERT JUMPDEST POP MLOAD SWAP2 SWAP1 POP JUMP JUMPDEST PUSH4 0x4E487B71 PUSH1 0xE0 SHL PUSH1 0x0 MSTORE PUSH1 0x11 PUSH1 0x4 MSTORE PUSH1 0x24 PUSH1 0x0 REVERT JUMPDEST PUSH1 0x0 DUP3 NOT DUP3 GT ISZERO PUSH2 0x1776 JUMPI PUSH2 0x1776 PUSH2 0x174D JUMP JUMPDEST POP ADD SWAP1 JUMP JUMPDEST DUP1 SLOAD PUSH1 0x0 SWAP1 PUSH1 0x1 DUP2 DUP2 SHR SWAP1 DUP1 DUP4 AND DUP1 PUSH2 0x1795 JUMPI PUSH1 0x7F DUP4 AND SWAP3 POP JUMPDEST PUSH1 0x20 DUP1 DUP5 LT DUP3 EQ ISZERO PUSH2 0x17B7 JUMPI PUSH4 0x4E487B71 PUSH1 0xE0 SHL PUSH1 0x0 MSTORE PUSH1 0x22 PUSH1 0x4 MSTORE PUSH1 0x24 PUSH1 0x0 REVERT JUMPDEST DUP2 DUP1 ISZERO PUSH2 0x17CB JUMPI PUSH1 0x1 DUP2 EQ PUSH2 0x17DC JUMPI PUSH2 0x1809 JUMP JUMPDEST PUSH1 0xFF NOT DUP7 AND DUP10 MSTORE DUP5 DUP10 ADD SWAP7 POP PUSH2 0x1809 JUMP JUMPDEST PUSH1 0x0 DUP9 DUP2 MSTORE PUSH1 0x20 SWAP1 KECCAK256 PUSH1 0x0 JUMPDEST DUP7 DUP2 LT ISZERO PUSH2 0x1801 JUMPI DUP2 SLOAD DUP12 DUP3 ADD MSTORE SWAP1 DUP6 ADD SWAP1 DUP4 ADD PUSH2 0x17E8 JUMP JUMPDEST POP POP DUP5 DUP10 ADD SWAP7 POP JUMPDEST POP POP POP POP POP POP SWAP3 SWAP2 POP POP JUMP JUMPDEST PUSH1 0x0 PUSH2 0x946 DUP3 DUP5 PUSH2 0x177B JUMP JUMPDEST PUSH1 0x0 PUSH2 0x182D DUP3 DUP6 PUSH2 0x177B JUMP JUMPDEST PUSH1 0x60 SWAP4 SWAP1 SWAP4 SHL PUSH12 0xFFFFFFFFFFFFFFFFFFFFFFFF NOT AND DUP4 MSTORE POP POP PUSH1 0x14 ADD SWAP2 SWAP1 POP JUMP JUMPDEST PUSH1 0x0 PUSH1 0x0 NOT DUP3 EQ ISZERO PUSH2 0x1862 JUMPI PUSH2 0x1862 PUSH2 0x174D JUMP JUMPDEST POP PUSH1 0x1 ADD SWAP1 JUMP JUMPDEST PUSH1 0x0 DUP2 MLOAD DUP1 DUP5 MSTORE PUSH1 0x20 DUP1 DUP6 ADD SWAP5 POP DUP1 DUP5 ADD PUSH1 0x0 JUMPDEST DUP4 DUP2 LT ISZERO PUSH2 0x1899 JUMPI DUP2 MLOAD DUP8 MSTORE SWAP6 DUP3 ADD SWAP6 SWAP1 DUP3 ADD SWAP1 PUSH1 0x1 ADD PUSH2 0x187D JUMP JUMPDEST POP SWAP5 SWAP6 SWAP5 POP POP POP POP POP JUMP JUMPDEST PUSH1 0x1 PUSH1 0x1 PUSH1 0xA0 SHL SUB DUP9 DUP2 AND DUP3 MSTORE PUSH1 0x20 DUP3 ADD DUP9 SWAP1 MSTORE DUP7 DUP2 AND PUSH1 0x40 DUP4 ADD MSTORE PUSH1 0x60 DUP3 ADD DUP7 SWAP1 MSTORE DUP5 AND PUSH1 0x80 DUP3 ADD MSTORE PUSH1 0xE0 PUSH1 0xA0 DUP3 ADD DUP2 SWAP1 MSTORE PUSH1 0x0 SWAP1 PUSH2 0x18E6 SWAP1 DUP4 ADD DUP6 PUSH2 0x1869 JUMP JUMPDEST DUP3 DUP2 SUB PUSH1 0xC0 DUP5 ADD MSTORE PUSH2 0x18F8 DUP2 DUP6 PUSH2 0x1869 JUMP JUMPDEST SWAP11 SWAP10 POP POP POP POP POP POP POP POP POP POP JUMP JUMPDEST PUSH1 0x1 PUSH1 0x1 PUSH1 0xA0 SHL SUB DUP11 DUP2 AND DUP3 MSTORE PUSH1 0x20 DUP3 ADD DUP11 SWAP1 MSTORE DUP9 AND PUSH1 0x40 DUP3 ADD MSTORE PUSH2 0x120 PUSH1 0x60 DUP3 ADD DUP2 SWAP1 MSTORE PUSH1 0x0 SWAP1 PUSH2 0x193A DUP4 DUP3 ADD DUP11 PUSH2 0x1869 JUMP JUMPDEST SWAP1 POP DUP3 DUP2 SUB PUSH1 0x80 DUP5 ADD MSTORE PUSH2 0x194E DUP2 DUP10 PUSH2 0x1869 JUMP JUMPDEST SWAP1 POP DUP7 PUSH1 0xA0 DUP5 ADD MSTORE DUP6 PUSH1 0xC0 DUP5 ADD MSTORE DUP3 DUP2 SUB PUSH1 0xE0 DUP5 ADD MSTORE PUSH2 0x196E DUP2 DUP7 PUSH2 0x1869 JUMP JUMPDEST SWAP1 POP DUP3 DUP2 SUB PUSH2 0x100 DUP5 ADD MSTORE PUSH2 0x1983 DUP2 DUP6 PUSH2 0x1869 JUMP JUMPDEST SWAP13 SWAP12 POP POP POP POP POP POP POP POP POP POP POP POP JUMP JUMPDEST PUSH1 0x0 PUSH1 0x20 DUP3 DUP5 SUB SLT ISZERO PUSH2 0x19A5 JUMPI PUSH1 0x0 DUP1 REVERT JUMPDEST DUP2 MLOAD PUSH2 0x946 DUP2 PUSH2 0x15ED JUMP JUMPDEST PUSH1 0x0 PUSH2 0x19BC DUP3 DUP7 PUSH2 0x177B JUMP JUMPDEST PUSH1 0x60 SWAP5 SWAP1 SWAP5 SHL PUSH12 0xFFFFFFFFFFFFFFFFFFFFFFFF NOT AND DUP5 MSTORE POP POP PUSH1 0x14 DUP3 ADD MSTORE PUSH1 0x34 ADD SWAP2 SWAP1 POP JUMP JUMPDEST PUSH1 0x0 DUP3 DUP3 LT ISZERO PUSH2 0x19F4 JUMPI PUSH2 0x19F4 PUSH2 0x174D JUMP JUMPDEST POP SUB SWAP1 JUMP JUMPDEST PUSH4 0x4E487B71 PUSH1 0xE0 SHL PUSH1 0x0 MSTORE PUSH1 0x32 PUSH1 0x4 MSTORE PUSH1 0x24 PUSH1 0x0 REVERT JUMPDEST PUSH1 0x0 PUSH1 0x20 DUP3 DUP5 SUB SLT ISZERO PUSH2 0x1A21 JUMPI PUSH1 0x0 DUP1 REVERT JUMPDEST DUP2 MLOAD PUSH2 0x946 DUP2 PUSH2 0x164E JUMP JUMPDEST PUSH1 0x0 PUSH2 0x1A38 DUP3 DUP8 PUSH2 0x177B JUMP JUMPDEST PUSH12 0xFFFFFFFFFFFFFFFFFFFFFFFF NOT DUP7 PUSH1 0x60 SHL AND DUP2 MSTORE DUP4 DUP6 PUSH1 0x14 DUP4 ADD CALLDATACOPY PUSH1 0x0 SWAP4 ADD PUSH1 0x14 ADD SWAP3 DUP4 MSTORE POP SWAP1 SWAP5 SWAP4 POP POP POP POP JUMP JUMPDEST PUSH1 0x0 PUSH2 0x1A74 DUP3 DUP7 PUSH2 0x177B JUMP JUMPDEST DUP4 DUP6 DUP3 CALLDATACOPY PUSH1 0x0 SWAP4 ADD SWAP3 DUP4 MSTORE POP SWAP1 SWAP4 SWAP3 POP POP POP JUMP JUMPDEST PUSH4 0x4E487B71 PUSH1 0xE0 SHL PUSH1 0x0 MSTORE PUSH1 0x12 PUSH1 0x4 MSTORE PUSH1 0x24 PUSH1 0x0 REVERT INVALID LOG2 PUSH5 0x6970667358 0x22 SLT KECCAK256 SHL 0x49 EXTCODECOPY LT PUSH5 0x95C29737E0 CALLDATACOPY PC 0x26 DUP3 CALLDATALOAD 0xFB CODECOPY 0xD1 DUP7 0x21 0xCB 0xCD JUMP 0xD5 CALLVALUE 0x2E 0xC5 CODECOPY LOG4 0x4A PUSH8 0x3D64736F6C634300 ADDMOD EXP STOP CALLER ",
  "sha1": "5b6221be7885d7ccc061d66a37d534368e178d96",
  "source": "/* SPDX-License-Identifier: MIT */\npragma solidity =0.8.10;\n\n/* Package Imports */\nimport {PRBMathUD60x18} from \"@hifi-finance/prb-math/contracts/PRBMathUD60x18.sol\";\nimport {PRBMathSD59x18} from \"@hifi-finance/prb-math/contracts/PRBMathSD59x18.sol\";\n/* Package Interface Imports */\nimport {IERC20} from \"@openzeppelin/contracts/token/ERC20/IERC20.sol\";\n\n/* Internal Imports */\nimport {PhantomStorageMixin} from \"../../mixins/PhantomStorageMixin.sol\";\n\n/* Internal Interface Imports */\nimport {IPhantomBonding} from \"../../../interfaces/level0/bonding/IPhantomBonding.sol\";\n\n/**\n * @title PhantomBonding\n * @author PhantomDao Team\n * @notice The contract that handles bonding assets to get PHM\n */\ncontract PhantomBonding is PhantomStorageMixin, IPhantomBonding {\n    using PRBMathUD60x18 for uint256;\n\n    constructor(address storageAddress) PhantomStorageMixin(storageAddress) {\n        return;\n    }\n\n    //=================================================================================================================\n    // Core Functions\n    //=================================================================================================================\n\n    function createBond(\n        address inUser,\n        uint256 inAmount,\n        address inToken,\n        bytes calldata inBondType\n    ) external override nonReentrant returns (uint256) {\n        if (!(isValidBond(inToken))) revert PhantomBondingError_IsNotValidBondingToken(inToken);\n        uint256 mintRatio = uint256(bondingMultiplierFor(inToken, inBondType));\n        uint256 rewardForDeposit = PhantomTreasury().deposit(\n            inUser,\n            inAmount,\n            inToken,\n            standardAccountKeys(),\n            standardAccountPercentages(),\n            mintRatio,\n            bondProfitRatio(),\n            daoKey(),\n            percentage100()\n        );\n        if (!safeToBond(inUser, rewardForDeposit)) revert PhantomBondingError_ExceedsDebtLimit();\n        uint256 nonce = lowestNonceAssignable(inUser);\n        setTokenForBond(inUser, nonce, inToken);\n        calculateAndSetVestingTimeForBond(inBondType, inUser, nonce);\n        setPayoutForBond(inUser, nonce, rewardForDeposit);\n        incrementLowestNonceAssignable(inUser);\n        increaseOutstandingBondDebt(rewardForDeposit);\n        emit PhantomBonding_BondCreated(inUser, rewardForDeposit, nonce);\n        return rewardForDeposit;\n    }\n\n    function redeemBonds(address inUser, bool autoStake) external override nonReentrant returns (uint256) {\n        uint256 toClaim;\n        uint256 _lowestNonceAssignable = lowestNonceAssignable(inUser);\n        uint256 nonceToClaimFrom = lowestNonceStillVesting(inUser);\n        while (nonceToClaimFrom < _lowestNonceAssignable) {\n            toClaim += claimFromBond(inUser, nonceToClaimFrom++);\n        }\n        if (autoStake) {\n            PhantomTreasury().swapBurnMint(inUser, toClaim, address(PHM()), toClaim, address(sPHM()));\n        } else {\n            PhantomTreasury().swap(inUser, (0), address(0), toClaim, address(PHM()), reserveKey(), percentage100());\n        }\n        decreaseOutstandingBondDebt(toClaim);\n        return toClaim;\n    }\n\n    //=================================================================================================================\n    //  Internal Functions\n    //=================================================================================================================\n\n    function claimFromBond(address inBonder, uint256 nonce) internal returns (uint256) {\n        uint256 remainingToClaim = PhantomStorage().getUint(\n            keccak256(abi.encodePacked(phantom.bonding.remaining_payout_for, inBonder, nonce))\n        );\n        uint256 timeofLastClaim = PhantomStorage().getUint(\n            keccak256(abi.encodePacked(phantom.bonding.last_claim_at, inBonder, nonce))\n        );\n        uint256 timeOfFullVest = PhantomStorage().getUint(\n            keccak256(abi.encodePacked(phantom.bonding.vests_at_timestamp, inBonder, nonce))\n        );\n        uint256 toClaim = 0;\n\n        if (block.timestamp >= timeOfFullVest) {\n            // Only allow claim at the end\n            toClaim = remainingToClaim;\n            remainingToClaim -= toClaim;\n            if (remainingToClaim == 0 && nonce == lowestNonceStillVesting(inBonder)) {\n                incrementLowestNonceStillVesting(inBonder);\n            }\n            PhantomStorage().setUint(\n                keccak256(abi.encodePacked(phantom.bonding.remaining_payout_for, inBonder, nonce)),\n                remainingToClaim\n            );\n            PhantomStorage().setUint(\n                keccak256(abi.encodePacked(phantom.bonding.last_claim_at, inBonder, nonce)),\n                block.timestamp\n            );\n        }\n\n        return toClaim;\n    }\n\n    function calculateAndSetVestingTimeForBond(\n        bytes calldata inBondType,\n        address inBonder,\n        uint256 nonce\n    ) internal {\n        uint256 vest_length = PhantomStorage().getUint(\n            keccak256(abi.encodePacked(phantom.bonding.vest_length, inBondType))\n        );\n        PhantomStorage().setUint(\n            keccak256(abi.encodePacked(phantom.bonding.vests_at_timestamp, inBonder, nonce)),\n            block.timestamp + vest_length\n        );\n        PhantomStorage().setUint(\n            keccak256(abi.encodePacked(phantom.bonding.last_claim_at, inBonder, nonce)),\n            block.timestamp\n        );\n    }\n\n    function setTokenForBond(\n        address inBonder,\n        uint256 nonce,\n        address token\n    ) internal {\n        PhantomStorage().setAddress(\n            keccak256(abi.encodePacked(phantom.bonding.token, inBonder, nonce)),\n            token\n        );\n    }\n\n    function setPayoutForBond(\n        address inBonder,\n        uint256 nonce,\n        uint256 payout\n    ) internal {\n        PhantomStorage().setUint(\n            keccak256(abi.encodePacked(phantom.bonding.remaining_payout_for, inBonder, nonce)),\n            payout\n        );\n    }\n\n    //=================================================================================================================\n    //  Nonce Managment\n    //=================================================================================================================\n\n    function incrementLowestNonceAssignable(address inBonder) internal {\n        PhantomStorage().addUint(\n            keccak256(abi.encodePacked(phantom.bonding.user.lowest_assignable_nonce, inBonder)),\n            1\n        );\n    }\n\n    function lowestNonceAssignable(address inBonder) public view returns (uint256) {\n        return\n            PhantomStorage().getUint(\n                keccak256(abi.encodePacked(phantom.bonding.user.lowest_assignable_nonce, inBonder))\n            );\n    }\n\n    function incrementLowestNonceStillVesting(address inBonder) internal {\n        PhantomStorage().addUint(\n            keccak256(abi.encodePacked(phantom.bonding.user.lowest_nonce_still_vesting, inBonder)),\n            1\n        );\n    }\n\n    function lowestNonceStillVesting(address inBonder) public view returns (uint256) {\n        return\n            PhantomStorage().getUint(\n                keccak256(abi.encodePacked(phantom.bonding.user.lowest_nonce_still_vesting, inBonder))\n            );\n    }\n\n    function bondingMultiplierFor(address inToken, bytes calldata inBondType) internal view returns (uint256) {\n        return PhantomStorage().getUint(keccak256(abi.encodePacked(phantom.bonding.multiplier, inToken, inBondType)));\n    }\n\n    function bondProfitRatio() internal view returns (uint256) {\n        return PhantomStorage().getUint(keccak256(phantom.bonding.profit_ratio));\n    }\n\n    function increaseOutstandingBondDebt(uint256 amount) internal {\n        PhantomStorage().addUint(keccak256(phantom.bonding.debt), amount);\n    }\n\n    function decreaseOutstandingBondDebt(uint256 amount) internal {\n        PhantomStorage().subUint(keccak256(phantom.bonding.debt), amount);\n    }\n\n    function outstandingBondDebt() internal view returns (uint256) {\n        return PhantomStorage().getUint(keccak256(phantom.bonding.debt));\n    }\n\n    function safeToBond(address user, uint256 rewardForDeposit) public view returns (bool) {\n        if (PHM().balanceAllDenoms(user) + rewardForDeposit > PHM().maxBalancePerWallet()) return false;\n        uint256 maxDebtRatio = PhantomStorage().getUint(keccak256(phantom.bonding.max_debt_ratio)); // fixed point\n        return (outstandingBondDebt() + rewardForDeposit).div(PHM().totalSupply()) > maxDebtRatio ? false : true;\n    }\n\n    function isValidBond(address inToken) internal view returns (bool) {\n        return PhantomStorage().getBool(keccak256(abi.encodePacked(phantom.bonding.is_valid, inToken)));\n    }\n}\n",
  "sourcePath": "contracts/level0/bonding/PhantomBonding.sol",
  "type": "contract"
}