{
  "abi": [
    {
      "inputs": [
        {
          "internalType": "address",
          "name": "storageFactoryAddress",
          "type": "address"
        },
        {
          "internalType": "contract ERC20Votes",
          "name": "_token",
          "type": "address"
        },
        {
          "internalType": "contract TimelockController",
          "name": "_timelock",
          "type": "address"
        },
        {
          "internalType": "uint256",
          "name": "_quorumPercentage",
          "type": "uint256"
        },
        {
          "internalType": "uint256",
          "name": "_votingPeriod",
          "type": "uint256"
        },
        {
          "internalType": "uint256",
          "name": "_votingDelay",
          "type": "uint256"
        },
        {
          "internalType": "uint256",
          "name": "_proposalThreshold",
          "type": "uint256"
        }
      ],
      "stateMutability": "nonpayable",
      "type": "constructor"
    },
    {
      "inputs": [
        {
          "internalType": "address",
          "name": "contractAddress",
          "type": "address"
        }
      ],
      "name": "PhantomStorageMixin__ContractNotFoundByAddressOrIsOutdated",
      "type": "error"
    },
    {
      "inputs": [
        {
          "internalType": "bytes32",
          "name": "contractName",
          "type": "bytes32"
        }
      ],
      "name": "PhantomStorageMixin__ContractNotFoundByNameOrIsOutdated",
      "type": "error"
    },
    {
      "inputs": [
        {
          "internalType": "address",
          "name": "user",
          "type": "address"
        }
      ],
      "name": "PhantomStorageMixin__UserIsNotGuardian",
      "type": "error"
    },
    {
      "anonymous": false,
      "inputs": [
        {
          "indexed": false,
          "internalType": "uint256",
          "name": "proposalId",
          "type": "uint256"
        }
      ],
      "name": "ProposalCanceled",
      "type": "event"
    },
    {
      "anonymous": false,
      "inputs": [
        {
          "indexed": false,
          "internalType": "uint256",
          "name": "proposalId",
          "type": "uint256"
        },
        {
          "indexed": false,
          "internalType": "address",
          "name": "proposer",
          "type": "address"
        },
        {
          "indexed": false,
          "internalType": "address[]",
          "name": "targets",
          "type": "address[]"
        },
        {
          "indexed": false,
          "internalType": "uint256[]",
          "name": "values",
          "type": "uint256[]"
        },
        {
          "indexed": false,
          "internalType": "string[]",
          "name": "signatures",
          "type": "string[]"
        },
        {
          "indexed": false,
          "internalType": "bytes[]",
          "name": "calldatas",
          "type": "bytes[]"
        },
        {
          "indexed": false,
          "internalType": "uint256",
          "name": "startBlock",
          "type": "uint256"
        },
        {
          "indexed": false,
          "internalType": "uint256",
          "name": "endBlock",
          "type": "uint256"
        },
        {
          "indexed": false,
          "internalType": "string",
          "name": "description",
          "type": "string"
        }
      ],
      "name": "ProposalCreated",
      "type": "event"
    },
    {
      "anonymous": false,
      "inputs": [
        {
          "indexed": false,
          "internalType": "uint256",
          "name": "proposalId",
          "type": "uint256"
        }
      ],
      "name": "ProposalExecuted",
      "type": "event"
    },
    {
      "anonymous": false,
      "inputs": [
        {
          "indexed": false,
          "internalType": "uint256",
          "name": "proposalId",
          "type": "uint256"
        },
        {
          "indexed": false,
          "internalType": "uint256",
          "name": "eta",
          "type": "uint256"
        }
      ],
      "name": "ProposalQueued",
      "type": "event"
    },
    {
      "anonymous": false,
      "inputs": [
        {
          "indexed": false,
          "internalType": "uint256",
          "name": "oldQuorumNumerator",
          "type": "uint256"
        },
        {
          "indexed": false,
          "internalType": "uint256",
          "name": "newQuorumNumerator",
          "type": "uint256"
        }
      ],
      "name": "QuorumNumeratorUpdated",
      "type": "event"
    },
    {
      "anonymous": false,
      "inputs": [
        {
          "indexed": false,
          "internalType": "address",
          "name": "oldTimelock",
          "type": "address"
        },
        {
          "indexed": false,
          "internalType": "address",
          "name": "newTimelock",
          "type": "address"
        }
      ],
      "name": "TimelockChange",
      "type": "event"
    },
    {
      "anonymous": false,
      "inputs": [
        {
          "indexed": true,
          "internalType": "address",
          "name": "voter",
          "type": "address"
        },
        {
          "indexed": false,
          "internalType": "uint256",
          "name": "proposalId",
          "type": "uint256"
        },
        {
          "indexed": false,
          "internalType": "uint8",
          "name": "support",
          "type": "uint8"
        },
        {
          "indexed": false,
          "internalType": "uint256",
          "name": "weight",
          "type": "uint256"
        },
        {
          "indexed": false,
          "internalType": "string",
          "name": "reason",
          "type": "string"
        }
      ],
      "name": "VoteCast",
      "type": "event"
    },
    {
      "inputs": [],
      "name": "BALLOT_TYPEHASH",
      "outputs": [
        {
          "internalType": "bytes32",
          "name": "",
          "type": "bytes32"
        }
      ],
      "stateMutability": "view",
      "type": "function"
    },
    {
      "inputs": [],
      "name": "COUNTING_MODE",
      "outputs": [
        {
          "internalType": "string",
          "name": "",
          "type": "string"
        }
      ],
      "stateMutability": "pure",
      "type": "function"
    },
    {
      "inputs": [
        {
          "internalType": "address[]",
          "name": "targets",
          "type": "address[]"
        },
        {
          "internalType": "uint256[]",
          "name": "values",
          "type": "uint256[]"
        },
        {
          "internalType": "bytes[]",
          "name": "calldatas",
          "type": "bytes[]"
        },
        {
          "internalType": "bytes32",
          "name": "descriptionHash",
          "type": "bytes32"
        }
      ],
      "name": "cancel",
      "outputs": [
        {
          "internalType": "uint256",
          "name": "",
          "type": "uint256"
        }
      ],
      "stateMutability": "nonpayable",
      "type": "function"
    },
    {
      "inputs": [
        {
          "internalType": "uint256",
          "name": "proposalId",
          "type": "uint256"
        },
        {
          "internalType": "uint8",
          "name": "support",
          "type": "uint8"
        }
      ],
      "name": "castVote",
      "outputs": [
        {
          "internalType": "uint256",
          "name": "",
          "type": "uint256"
        }
      ],
      "stateMutability": "nonpayable",
      "type": "function"
    },
    {
      "inputs": [
        {
          "internalType": "uint256",
          "name": "proposalId",
          "type": "uint256"
        },
        {
          "internalType": "uint8",
          "name": "support",
          "type": "uint8"
        },
        {
          "internalType": "uint8",
          "name": "v",
          "type": "uint8"
        },
        {
          "internalType": "bytes32",
          "name": "r",
          "type": "bytes32"
        },
        {
          "internalType": "bytes32",
          "name": "s",
          "type": "bytes32"
        }
      ],
      "name": "castVoteBySig",
      "outputs": [
        {
          "internalType": "uint256",
          "name": "",
          "type": "uint256"
        }
      ],
      "stateMutability": "nonpayable",
      "type": "function"
    },
    {
      "inputs": [
        {
          "internalType": "uint256",
          "name": "proposalId",
          "type": "uint256"
        },
        {
          "internalType": "uint8",
          "name": "support",
          "type": "uint8"
        },
        {
          "internalType": "string",
          "name": "reason",
          "type": "string"
        }
      ],
      "name": "castVoteWithReason",
      "outputs": [
        {
          "internalType": "uint256",
          "name": "",
          "type": "uint256"
        }
      ],
      "stateMutability": "nonpayable",
      "type": "function"
    },
    {
      "inputs": [
        {
          "internalType": "address[]",
          "name": "targets",
          "type": "address[]"
        },
        {
          "internalType": "uint256[]",
          "name": "values",
          "type": "uint256[]"
        },
        {
          "internalType": "bytes[]",
          "name": "calldatas",
          "type": "bytes[]"
        },
        {
          "internalType": "bytes32",
          "name": "descriptionHash",
          "type": "bytes32"
        }
      ],
      "name": "execute",
      "outputs": [
        {
          "internalType": "uint256",
          "name": "",
          "type": "uint256"
        }
      ],
      "stateMutability": "payable",
      "type": "function"
    },
    {
      "inputs": [
        {
          "internalType": "address",
          "name": "account",
          "type": "address"
        },
        {
          "internalType": "uint256",
          "name": "blockNumber",
          "type": "uint256"
        }
      ],
      "name": "getVotes",
      "outputs": [
        {
          "internalType": "uint256",
          "name": "",
          "type": "uint256"
        }
      ],
      "stateMutability": "view",
      "type": "function"
    },
    {
      "inputs": [
        {
          "internalType": "uint256",
          "name": "proposalId",
          "type": "uint256"
        },
        {
          "internalType": "address",
          "name": "account",
          "type": "address"
        }
      ],
      "name": "hasVoted",
      "outputs": [
        {
          "internalType": "bool",
          "name": "",
          "type": "bool"
        }
      ],
      "stateMutability": "view",
      "type": "function"
    },
    {
      "inputs": [
        {
          "internalType": "address[]",
          "name": "targets",
          "type": "address[]"
        },
        {
          "internalType": "uint256[]",
          "name": "values",
          "type": "uint256[]"
        },
        {
          "internalType": "bytes[]",
          "name": "calldatas",
          "type": "bytes[]"
        },
        {
          "internalType": "bytes32",
          "name": "descriptionHash",
          "type": "bytes32"
        }
      ],
      "name": "hashProposal",
      "outputs": [
        {
          "internalType": "uint256",
          "name": "",
          "type": "uint256"
        }
      ],
      "stateMutability": "pure",
      "type": "function"
    },
    {
      "inputs": [],
      "name": "name",
      "outputs": [
        {
          "internalType": "string",
          "name": "",
          "type": "string"
        }
      ],
      "stateMutability": "view",
      "type": "function"
    },
    {
      "inputs": [
        {
          "internalType": "uint256",
          "name": "proposalId",
          "type": "uint256"
        }
      ],
      "name": "proposalDeadline",
      "outputs": [
        {
          "internalType": "uint256",
          "name": "",
          "type": "uint256"
        }
      ],
      "stateMutability": "view",
      "type": "function"
    },
    {
      "inputs": [
        {
          "internalType": "uint256",
          "name": "proposalId",
          "type": "uint256"
        }
      ],
      "name": "proposalEta",
      "outputs": [
        {
          "internalType": "uint256",
          "name": "",
          "type": "uint256"
        }
      ],
      "stateMutability": "view",
      "type": "function"
    },
    {
      "inputs": [
        {
          "internalType": "uint256",
          "name": "proposalId",
          "type": "uint256"
        }
      ],
      "name": "proposalSnapshot",
      "outputs": [
        {
          "internalType": "uint256",
          "name": "",
          "type": "uint256"
        }
      ],
      "stateMutability": "view",
      "type": "function"
    },
    {
      "inputs": [],
      "name": "proposalThreshold",
      "outputs": [
        {
          "internalType": "uint256",
          "name": "",
          "type": "uint256"
        }
      ],
      "stateMutability": "view",
      "type": "function"
    },
    {
      "inputs": [
        {
          "internalType": "uint256",
          "name": "proposalId",
          "type": "uint256"
        }
      ],
      "name": "proposalVotes",
      "outputs": [
        {
          "internalType": "uint256",
          "name": "againstVotes",
          "type": "uint256"
        },
        {
          "internalType": "uint256",
          "name": "forVotes",
          "type": "uint256"
        },
        {
          "internalType": "uint256",
          "name": "abstainVotes",
          "type": "uint256"
        }
      ],
      "stateMutability": "view",
      "type": "function"
    },
    {
      "inputs": [
        {
          "internalType": "address[]",
          "name": "targets",
          "type": "address[]"
        },
        {
          "internalType": "uint256[]",
          "name": "values",
          "type": "uint256[]"
        },
        {
          "internalType": "bytes[]",
          "name": "calldatas",
          "type": "bytes[]"
        },
        {
          "internalType": "string",
          "name": "description",
          "type": "string"
        }
      ],
      "name": "propose",
      "outputs": [
        {
          "internalType": "uint256",
          "name": "",
          "type": "uint256"
        }
      ],
      "stateMutability": "nonpayable",
      "type": "function"
    },
    {
      "inputs": [
        {
          "internalType": "address[]",
          "name": "targets",
          "type": "address[]"
        },
        {
          "internalType": "uint256[]",
          "name": "values",
          "type": "uint256[]"
        },
        {
          "internalType": "bytes[]",
          "name": "calldatas",
          "type": "bytes[]"
        },
        {
          "internalType": "bytes32",
          "name": "descriptionHash",
          "type": "bytes32"
        }
      ],
      "name": "queue",
      "outputs": [
        {
          "internalType": "uint256",
          "name": "",
          "type": "uint256"
        }
      ],
      "stateMutability": "nonpayable",
      "type": "function"
    },
    {
      "inputs": [
        {
          "internalType": "uint256",
          "name": "blockNumber",
          "type": "uint256"
        }
      ],
      "name": "quorum",
      "outputs": [
        {
          "internalType": "uint256",
          "name": "",
          "type": "uint256"
        }
      ],
      "stateMutability": "view",
      "type": "function"
    },
    {
      "inputs": [],
      "name": "quorumDenominator",
      "outputs": [
        {
          "internalType": "uint256",
          "name": "",
          "type": "uint256"
        }
      ],
      "stateMutability": "view",
      "type": "function"
    },
    {
      "inputs": [],
      "name": "quorumNumerator",
      "outputs": [
        {
          "internalType": "uint256",
          "name": "",
          "type": "uint256"
        }
      ],
      "stateMutability": "view",
      "type": "function"
    },
    {
      "inputs": [
        {
          "internalType": "uint256",
          "name": "proposalId",
          "type": "uint256"
        }
      ],
      "name": "state",
      "outputs": [
        {
          "internalType": "enum IGovernor.ProposalState",
          "name": "",
          "type": "uint8"
        }
      ],
      "stateMutability": "view",
      "type": "function"
    },
    {
      "inputs": [
        {
          "internalType": "bytes4",
          "name": "interfaceId",
          "type": "bytes4"
        }
      ],
      "name": "supportsInterface",
      "outputs": [
        {
          "internalType": "bool",
          "name": "",
          "type": "bool"
        }
      ],
      "stateMutability": "view",
      "type": "function"
    },
    {
      "inputs": [],
      "name": "timelock",
      "outputs": [
        {
          "internalType": "address",
          "name": "",
          "type": "address"
        }
      ],
      "stateMutability": "view",
      "type": "function"
    },
    {
      "inputs": [],
      "name": "token",
      "outputs": [
        {
          "internalType": "contract ERC20Votes",
          "name": "",
          "type": "address"
        }
      ],
      "stateMutability": "view",
      "type": "function"
    },
    {
      "inputs": [
        {
          "internalType": "uint256",
          "name": "newQuorumNumerator",
          "type": "uint256"
        }
      ],
      "name": "updateQuorumNumerator",
      "outputs": [],
      "stateMutability": "nonpayable",
      "type": "function"
    },
    {
      "inputs": [
        {
          "internalType": "contract TimelockController",
          "name": "newTimelock",
          "type": "address"
        }
      ],
      "name": "updateTimelock",
      "outputs": [],
      "stateMutability": "nonpayable",
      "type": "function"
    },
    {
      "inputs": [],
      "name": "version",
      "outputs": [
        {
          "internalType": "string",
          "name": "",
          "type": "string"
        }
      ],
      "stateMutability": "view",
      "type": "function"
    },
    {
      "inputs": [],
      "name": "votingDelay",
      "outputs": [
        {
          "internalType": "uint256",
          "name": "",
          "type": "uint256"
        }
      ],
      "stateMutability": "view",
      "type": "function"
    },
    {
      "inputs": [],
      "name": "votingPeriod",
      "outputs": [
        {
          "internalType": "uint256",
          "name": "",
          "type": "uint256"
        }
      ],
      "stateMutability": "view",
      "type": "function"
    }
  ],
  "bytecode": "60126101a08181527139b2b1bab934ba3c9730b2323932b9b9b7b360711b6101c0908152610140918252600d6101e09081526c73656375726974792e6e616d6560981b610200526101605261026060405260136102209081527f73656375726974792e726567697374657265640000000000000000000000000061024052610180529091600691620000949183919062001b71565b506020828101518051620000af926001850192019062001b71565b5060408201518051620000cd91600284019160209091019062001b71565b5050604080516103c081018252601b61038082019081527f7068616e746f6d2e636f6e7472616374732e616c7068617377617000000000006103a0830152610100820190815282518084018452601a8082527f7068616e746f6d2e636f6e7472616374732e666f756e646572730000000000006020838101919091526101208501929092528451808601865260198082527f7068616e746f6d2e636f6e7472616374732e7374616b696e67000000000000008285015261014086019190915285518087018752601f81527f7068616e746f6d2e636f6e7472616374732e7374616b696e677761726d75700081850152610160860152855180870187529081527f7068616e746f6d2e636f6e7472616374732e626f6e64696e67000000000000008184015261018085015284518086018652601581527f7068616e746f6d2e636f6e7472616374732e70686d0000000000000000000000818401526101a08501528451808601865260168082527f7068616e746f6d2e636f6e7472616374732e7370686d00000000000000000000828501526101c0860191909152855180870187528181527f7068616e746f6d2e636f6e7472616374732e6770686d00000000000000000000818501526101e0860152855180870187528181527f7068616e746f6d2e636f6e7472616374732e6170686d0000000000000000000081850152610200860152855180870187528181527f7068616e746f6d2e636f6e7472616374732e6670686d00000000000000000000818501526102208601528551808701875260178082527f7068616e746f6d2e636f6e7472616374732e7661756c7400000000000000000082860152610240870191909152865180880188528381527f7068616e746f6d2e636f6e7472616374732e747265617375727900000000000081860152610260870152865180880188529182527f7068616e746f6d2e636f6e7472616374732e74776170000000000000000000008285015261028086019190915285518087018752601d81527f7068616e746f6d2e636f6e7472616374732e626f6e6470726963696e67000000818501526102a086015285518087018752601c81527f7068616e746f6d2e636f6e7472616374732e6465785f726f7574657200000000818501526102c086015285518087018752601e8082527f7068616e746f6d2e636f6e7472616374732e796561726e5f726f757465720000828601526102e0870191909152865180880188528381527f7068616e746f6d2e636f6e7472616374732e6578656375746f7200000000000081860152610300870152865180880188529283527f7068616e746f6d2e636f6e7472616374732e7061796d656e747300000000000083850152610320860192909252855180870187529081527f7068616e746f6d2e636f6e7472616374732e677561726400000000000000000081840152610340850152845180860186529081527f7068616e746f6d2e636f6e7472616374732e61756374696f6e636c61696d000081830152610360840152908252825160c08101909352602a606084018181529294509084019291829162004c916080840139815260200160405180606001604052806040518060600160405280602b815260200162004c16602b913981526020016040518060400160405280602081526020017f7068616e746f6d2e74726561737572792e6163636f756e745f6b65792e64616f815250815260200160405180606001604052806025815260200162004da16025913990528152604080518082018252601981527f7068616e746f6d2e74726561737572792e62616c616e636573000000000000006020828101919091529283015291835281516101c0810190925260246101608301818152938201938392830191829160c085019182919062004bac610180880139815260200160405180606001604052806025815260200162004e1060259139815260200160405180606001604052806024815260200162004dc66024913981526020016040518060600160405280602b815260200162004c41602b9139815260200160405180606001604052806024815260200162004e3560249139815250815260200160405180606001604052806025815260200162004d0b60259139815260200160405180606001604052806029815260200162004d786029913981526020016040518060400160405280601b81526020017f7068616e746f6d2e616c6c6f6361746f722e746f6b656e732e6c70000000000081525081526020016040518060400160405280601f81526020017f7068616e746f6d2e616c6c6f6361746f722e746f6b656e732e73696e676c65008152508152508152508152602001604051806101a0016040528060405180606001604052806040518060600160405280602b815260200162004cbb602b913981526020016040518060600160405280602c815260200162004b5a602c913981526020016040518060600160405280602f815260200162004b2b602f913981525081526020016040518060400160405280601d81526020017f7068616e746f6d2e626f6e64696e672e76657374696e67626c6f636b7300000081525081526020016040518060400160405280601c81526020017f7068616e746f6d2e626f6e64696e672e70726f6669745f726174696f0000000081525081526020016040518060400160405280601b81526020017f7068616e746f6d2e626f6e64696e672e69735f72656465656d65640000000000815250815260200160405180606001604052806022815260200162004d306022913981526020016040518060400160405280601881526020017f7068616e746f6d2e626f6e64696e672e69735f76616c6964000000000000000081525081526020016040518060400160405280601a81526020017f7068616e746f6d2e626f6e64696e672e6d756c7469706c69657200000000000081525081526020016040518060400160405280601481526020017f7068616e746f6d2e626f6e64696e672e6465627400000000000000000000000081525081526020016040518060400160405280601e81526020017f7068616e746f6d2e626f6e64696e672e6d61785f646562745f726174696f0000815250815260200160405180606001604052806024815260200162004f266024913981526020016040518060400160405280601581526020017f7068616e746f6d2e626f6e64696e672e746f6b656e000000000000000000000081525081526020016040518060400160405280601d81526020017f7068616e746f6d2e626f6e64696e672e6c6173745f636c61696d5f617400000081525081526020016040518060400160405280601b81526020017f7068616e746f6d2e626f6e64696e672e766573745f6c656e6774680000000000815250815250815260200160405180604001604052806040518060400160405280601d81526020017f7068616e746f6d2e7374616b696e672e726562617365436f756e746572000000815250815260200160405180606001604052806022815260200162004f046022913990528152604080516101408101909152602160e0820181815260209093019282916060830191829162004e7d610100860139815260200160405180606001604052806024815260200162004bf260249139815260200160405180606001604052806026815260200162004b8660269139815260408051808201825260208082527f7068616e746f6d2e666f756e6465722e636c61696d732e6c617374436c61696d828201529283015291835281516060810183528082018281527f7068616e746f6d2e666f756e6465722e6368616e6765732e6e65774f776e65728285015281528382015281518083018352601d81527f7068616e746f6d2e666f756e6465722e76657374696e67537461727473000000818301529282019290925291835281516101608101909252602261010083018181529390910192829162004bd0610120840139815260200160405180606001604052806023815260200162004e9e60239139815260200160405180606001604052806025815260200162004ce660259139815260200160405180606001604052806026815260200162004d5260269139815260200160405180606001604052806025815260200162004c6c60259139815260200160405180606001604052806026815260200162004dea60269139815260200160405180606001604052806024815260200162004e596024913981526020016040518060600160405280602a815260200162004f4a602a9139815250815260200160405180608001604052806040518060400160405280601c81526020017f7068616e746f6d2e676f7665726e6f722e766f74696e6744656c61790000000081525081526020016040518060400160405280601d81526020017f7068616e746f6d2e676f7665726e6f722e766f74696e67506572696f64000000815250815260200160405180606001604052806021815260200162004ec160219139815260200160405180606001604052806022815260200162004ee2602291399052905280518051805160099291839162000def91839160209091019062001b71565b50602082810151805162000e0a926001850192019062001b71565b506040820151805162000e2891600284019160209091019062001b71565b506060820151805162000e4691600384019160209091019062001b71565b506080820151805162000e6491600484019160209091019062001b71565b5060a0820151805162000e8291600584019160209091019062001b71565b5060c0820151805162000ea091600684019160209091019062001b71565b5060e0820151805162000ebe91600784019160209091019062001b71565b50610100820151805162000edd91600884019160209091019062001b71565b50610120820151805162000efc91600984019160209091019062001b71565b50610140820151805162000f1b91600a84019160209091019062001b71565b50610160820151805162000f3a91600b84019160209091019062001b71565b50610180820151805162000f5991600c84019160209091019062001b71565b506101a0820151805162000f7891600d84019160209091019062001b71565b506101c0820151805162000f9791600e84019160209091019062001b71565b506101e0820151805162000fb691600f84019160209091019062001b71565b50610200820151805162000fd591601084019160209091019062001b71565b50610220820151805162000ff491601184019160209091019062001b71565b5061024082015180516200101391601284019160209091019062001b71565b5061026082015180516200103291601384019160209091019062001b71565b505050602082810151805180519192601485019262001055928492019062001b71565b50602082810151805180519192600185019262001076928492019062001b71565b50602082810151805162001091926001850192019062001b71565b5060408201518051620010af91600284019160209091019062001b71565b50505060408201518051620010cf91600484019160209091019062001b71565b50505060408201518051805180518051601986019392849290918391620010fc9183916020019062001b71565b50602082810151805162001117926001850192019062001b71565b50604082015180516200113591600284019160209091019062001b71565b50606082015180516200115391600384019160209091019062001b71565b50608082015180516200117191600484019160209091019062001b71565b50505060208281015180516200118e926005850192019062001b71565b5060408201518051620011ac91600684019160209091019062001b71565b5060608201518051620011ca91600784019160209091019062001b71565b5060808201518051620011e891600884019160209091019062001b71565b50505050606083015180518051805192935060228501928391620012129183916020019062001b71565b5060208281015180516200122d926001850192019062001b71565b50604082015180516200124b91600284019160209091019062001b71565b505050602082810151805162001268926003850192019062001b71565b50604082015180516200128691600484019160209091019062001b71565b5060608201518051620012a491600584019160209091019062001b71565b5060808201518051620012c291600684019160209091019062001b71565b5060a08201518051620012e091600784019160209091019062001b71565b5060c08201518051620012fe91600884019160209091019062001b71565b5060e082015180516200131c91600984019160209091019062001b71565b5061010082015180516200133b91600a84019160209091019062001b71565b5061012082015180516200135a91600b84019160209091019062001b71565b5061014082015180516200137991600c84019160209091019062001b71565b5061016082015180516200139891600d84019160209091019062001b71565b506101808201518051620013b791600e84019160209091019062001b71565b5050506080820151805180516031840191620013d99183916020019062001b71565b506020828101518051620013f4926001850192019062001b71565b50505060a082015180518051805160338501929183916200141d91839160209091019062001b71565b50602082810151805162001438926001850192019062001b71565b50604082015180516200145691600284019160209091019062001b71565b50606082015180516200147491600384019160209091019062001b71565b505050602082810151805180519192600485019262001497928492019062001b71565b50505060408201518051620014b791600584019160209091019062001b71565b50505060c0820151805180516039840191620014d99183916020019062001b71565b506020828101518051620014f4926001850192019062001b71565b50604082015180516200151291600284019160209091019062001b71565b50606082015180516200153091600384019160209091019062001b71565b50608082015180516200154e91600484019160209091019062001b71565b5060a082015180516200156c91600584019160209091019062001b71565b5060c082015180516200158a91600684019160209091019062001b71565b5060e08201518051620015a891600784019160209091019062001b71565b50505060e0820151805180516041840191620015ca9183916020019062001b71565b506020828101518051620015e5926001850192019062001b71565b50604082015180516200160391600284019160209091019062001b71565b50606082015180516200162191600384019160209091019062001b71565b50505050506d7068616e746f6d53746f7261676560901b6050553480156200164857600080fd5b5060405162004f7438038062004f748339810160408190526200166b9162001c30565b868585886040518060400160405280601081526020016f283430b73a37b69023b7bb32b93737b960811b81525080620016a962001a1160201b60201c565b815160209283012081519183019190912060c082815260e08290524660a0818152604080517f8b73c3c69bb8fe3d512ecc4cf759cc79239f7b179b0ffacaa9a75d522b39400f81890181905281830197909752606081019590955260808086019390935230858301528051808603909201825293909201909252805190840120905261010052815162001743916000919084019062001b71565b50506001600160a01b0316610120526200175d8162001a2c565b50620017698162001af9565b506001604e55604f80546001600160a01b0319166001600160a01b0392909216918217905560405163e2a4853a90620017a890604a9060200162001ce8565b60408051601f198184030181529082905280516020909101206001600160e01b031960e084901b168252600482015260248101859052604401600060405180830381600087803b158015620017fc57600080fd5b505af115801562001811573d6000803e3d6000fd5b505050506200182562001b6260201b60201c565b6001600160a01b031663e2a4853a60096041016001016040516020016200184d919062001ce8565b60408051601f198184030181529082905280516020909101206001600160e01b031960e084901b168252600482015260248101869052604401600060405180830381600087803b158015620018a157600080fd5b505af1158015620018b6573d6000803e3d6000fd5b50505050620018ca62001b6260201b60201c565b6001600160a01b031663e2a4853a6009604101600201604051602001620018f2919062001ce8565b60408051601f198184030181529082905280516020909101206001600160e01b031960e084901b168252600482015260248101879052604401600060405180830381600087803b1580156200194657600080fd5b505af11580156200195b573d6000803e3d6000fd5b505050506200196f62001b6260201b60201c565b6001600160a01b031663e2a4853a600960410160030160405160200162001997919062001ce8565b60408051601f198184030181529082905280516020909101206001600160e01b031960e084901b168252600482015260248101849052604401600060405180830381600087803b158015620019eb57600080fd5b505af115801562001a00573d6000803e3d6000fd5b505050505050505050505062001d8c565b6040805180820190915260018152603160f81b602082015290565b606481111562001ab45760405162461bcd60e51b815260206004820152604360248201527f476f7665726e6f72566f74657351756f72756d4672616374696f6e3a2071756f60448201527f72756d4e756d657261746f72206f7665722071756f72756d44656e6f6d696e616064820152623a37b960e91b608482015260a40160405180910390fd5b600380549082905560408051828152602081018490527f0553476bf02ef2726e8ce5ced78d63e26e602e4a2257b1f559418e24b4633997910160405180910390a15050565b600454604080516001600160a01b03928316815291831660208301527f08f74ea46ef7894f65eabfb5e6e695de773a000b47c529ab559178069b226401910160405180910390a1600480546001600160a01b0319166001600160a01b0392909216919091179055565b604f546001600160a01b031690565b82805462001b7f9062001cab565b90600052602060002090601f01602090048101928262001ba3576000855562001bee565b82601f1062001bbe57805160ff191683800117855562001bee565b8280016001018555821562001bee579182015b8281111562001bee57825182559160200191906001019062001bd1565b5062001bfc92915062001c00565b5090565b5b8082111562001bfc576000815560010162001c01565b6001600160a01b038116811462001c2d57600080fd5b50565b600080600080600080600060e0888a03121562001c4c57600080fd5b875162001c598162001c17565b602089015190975062001c6c8162001c17565b604089015190965062001c7f8162001c17565b80955050606088015193506080880151925060a0880151915060c0880151905092959891949750929550565b600181811c9082168062001cc057607f821691505b6020821081141562001ce257634e487b7160e01b600052602260045260246000fd5b50919050565b600080835481600182811c91508083168062001d0557607f831692505b602080841082141562001d2657634e487b7160e01b86526022600452602486fd5b81801562001d3d576001811462001d4f5762001d7e565b60ff1986168952848901965062001d7e565b60008a81526020902060005b8681101562001d765781548b82015290850190830162001d5b565b505084890196505b509498975050505050505050565b60805160a05160c05160e0516101005161012051612d4162001dea6000396000818161062d015281816115020152611591015260006117160152600061176501526000611740015260006116c4015260006116ed0152612d416000f3fe6080604052600436106101cd5760003560e01c80637b3c71d3116100f7578063c01f9e3711610095578063deaaa7cc11610064578063deaaa7cc146105a7578063eb9019d4146105db578063f8ce560a146105fb578063fc0c546a1461061b57600080fd5b8063c01f9e37146104ef578063c59057e41461050f578063d33219b41461052f578063dd4e2ba51461056157600080fd5b8063a7713a70116100d1578063a7713a7014610485578063a890c9101461049a578063ab58fb8e146104ba578063b58131b0146104da57600080fd5b80637b3c71d3146104315780637d5e81e21461045157806397c3d3341461047157600080fd5b80633932abb11161016f578063452115d61161013e578063452115d61461036d578063544ffc9c1461038d57806354fd4d50146103e7578063567813881461041157600080fd5b80633932abb1146102c15780633bccf4fd146102d65780633e4f49e6146102f6578063438596321461032357600080fd5b806306fdde03116101ab57806306fdde031461024c578063160cbed71461026e5780632656227d1461028e5780632d63f693146102a157600080fd5b806301ffc9a7146101d257806302a251a31461020757806306f3f9e61461022a575b600080fd5b3480156101de57600080fd5b506101f26101ed366004612207565b61064f565b60405190151581526020015b60405180910390f35b34801561021357600080fd5b5061021c610660565b6040519081526020016101fe565b34801561023657600080fd5b5061024a610245366004612231565b610714565b005b34801561025857600080fd5b5061026161081a565b6040516101fe9190612297565b34801561027a57600080fd5b5061021c6102893660046124e2565b6108ac565b61021c61029c3660046124e2565b610ab7565b3480156102ad57600080fd5b5061021c6102bc366004612231565b610b8a565b3480156102cd57600080fd5b5061021c610bc1565b3480156102e257600080fd5b5061021c6102f1366004612587565b610bfb565b34801561030257600080fd5b50610316610311366004612231565b610c8f565b6040516101fe91906125eb565b34801561032f57600080fd5b506101f261033e366004612613565b60008281526002602090815260408083206001600160a01b038516845260030190915290205460ff1692915050565b34801561037957600080fd5b5061021c6103883660046124e2565b610c9a565b34801561039957600080fd5b506103cc6103a8366004612231565b60008181526002602081905260409091208054600182015491909201549193909250565b604080519384526020840192909252908201526060016101fe565b3480156103f357600080fd5b506040805180820190915260018152603160f81b6020820152610261565b34801561041d57600080fd5b5061021c61042c366004612643565b610d96565b34801561043d57600080fd5b5061021c61044c36600461266f565b610dbf565b34801561045d57600080fd5b5061021c61046c3660046126f5565b610e11565b34801561047d57600080fd5b50606461021c565b34801561049157600080fd5b5061021c610e49565b3480156104a657600080fd5b5061024a6104b53660046127b5565b610e83565b3480156104c657600080fd5b5061021c6104d5366004612231565b610ef2565b3480156104e657600080fd5b5061021c610f87565b3480156104fb57600080fd5b5061021c61050a366004612231565b610fc1565b34801561051b57600080fd5b5061021c61052a3660046124e2565b610ff0565b34801561053b57600080fd5b506004546001600160a01b03165b6040516001600160a01b0390911681526020016101fe565b34801561056d57600080fd5b506040805180820190915260208082527f737570706f72743d627261766f2671756f72756d3d666f722c6162737461696e90820152610261565b3480156105b357600080fd5b5061021c7f150214d74d59b7d1e90c73fc22ef3d991dd0a76b046543d4d80ab92d2a50328f81565b3480156105e757600080fd5b5061021c6105f63660046127d2565b61102a565b34801561060757600080fd5b5061021c610616366004612231565b611036565b34801561062757600080fd5b506105497f000000000000000000000000000000000000000000000000000000000000000081565b600061065a82611041565b92915050565b6000610674604f546001600160a01b031690565b6001600160a01b031663bd02d0f5600960410160010160405160200161069a9190612833565b604051602081830303815290604052805190602001206040518263ffffffff1660e01b81526004016106ce91815260200190565b602060405180830381865afa1580156106eb573d6000803e3d6000fd5b505050506040513d601f19601f8201168201806040525081019061070f91906128cf565b905090565b61071c611066565b6001600160a01b0316336001600160a01b03161461077c5760405162461bcd60e51b8152602060048201526018602482015277476f7665726e6f723a206f6e6c79476f7665726e616e636560401b60448201526064015b60405180910390fd5b6107858161107a565b604f546040516001600160a01b039091169063e2a4853a906107ac90604c90602001612833565b60408051601f198184030181529082905280516020909101206001600160e01b031960e084901b168252600482015260248101849052604401600060405180830381600087803b1580156107ff57600080fd5b505af1158015610813573d6000803e3d6000fd5b5050505050565b606060008054610829906127fe565b80601f0160208091040260200160405190810160405280929190818152602001828054610855906127fe565b80156108a25780601f10610877576101008083540402835291602001916108a2565b820191906000526020600020905b81548152906001019060200180831161088557829003601f168201915b5050505050905090565b6000806108bb86868686610ff0565b905060046108c882610c8f565b60078111156108d9576108d96125d5565b146108f65760405162461bcd60e51b8152600401610773906128e8565b6000600460009054906101000a90046001600160a01b03166001600160a01b031663f27a0c926040518163ffffffff1660e01b8152600401602060405180830381865afa15801561094b573d6000803e3d6000fd5b505050506040513d601f19601f8201168201806040525081019061096f91906128cf565b6004805460405163b1c5f42760e01b81529293506001600160a01b03169163b1c5f427916109a8918b918b918b916000918c91016129ef565b602060405180830381865afa1580156109c5573d6000803e3d6000fd5b505050506040513d601f19601f820116820180604052508101906109e991906128cf565b600083815260056020526040808220929092556004805492516308f2a0bb60e41b81526001600160a01b0390931692638f2a0bb092610a34928c928c928c9290918c918a9101612a3d565b600060405180830381600087803b158015610a4e57600080fd5b505af1158015610a62573d6000803e3d6000fd5b505050507f9a2e42fd6722813d69113e7d0079d3d940171428df7373df9c7f7617cfda2892828242610a949190612aab565b604080519283526020830191909152015b60405180910390a15095945050505050565b600080610ac686868686610ff0565b90506000610ad382610c8f565b90506004816007811115610ae957610ae96125d5565b1480610b0657506005816007811115610b0457610b046125d5565b145b610b225760405162461bcd60e51b8152600401610773906128e8565b600082815260016020818152604092839020600201805460ff191690921790915590518381527f712ae1383f79ac853f8d882153778e0260ef8f03b504e2866e0593e04d2b291f910160405180910390a1610b808288888888611142565b5095945050505050565b60008181526001602090815260408083208151928301909152546001600160401b0316908190525b6001600160401b031692915050565b6000610bd5604f546001600160a01b031690565b6001600160a01b031663bd02d0f5600960410160000160405160200161069a9190612833565b604080517f150214d74d59b7d1e90c73fc22ef3d991dd0a76b046543d4d80ab92d2a50328f602082015290810186905260ff851660608201526000908190610c6790610c5f9060800160405160208183030381529060405280519060200120611171565b8686866111bf565b9050610c84878288604051806020016040528060008152506111dd565b979650505050505050565b600061065a826112e8565b600080610ca986868686610ff0565b6000818152605160205260409020549091506001600160a01b0316331480610cfd5750610cd4610f87565b600082815260516020526040902054610cfb906001600160a01b03166105f6600143612ac3565b105b610d615760405162461bcd60e51b815260206004820152602f60248201527f5068616e746f6d476f7665726e6f723a206f6e6c792070726f706f73616c206f60448201526e1ddb995c8818d85b8818d85b98d95b608a1b6064820152608401610773565b6000610d6f878787876113b4565b60009283526051602052604090922080546001600160a01b03191690555095945050505050565b600080339050610db7848285604051806020016040528060008152506111dd565b949350505050565b600080339050610e0786828787878080601f0160208091040260200160405190810160405280939291908181526020018383808284376000920191909152506111dd92505050565b9695505050505050565b600080610e20868686866113cb565b600081815260516020526040902080546001600160a01b03191633179055915050949350505050565b6000610e5d604f546001600160a01b031690565b6001600160a01b031663bd02d0f5600960410160020160405160200161069a9190612833565b610e8b611066565b6001600160a01b0316336001600160a01b031614610ee65760405162461bcd60e51b8152602060048201526018602482015277476f7665726e6f723a206f6e6c79476f7665726e616e636560401b6044820152606401610773565b610eef81611470565b50565b6004805460008381526005602052604080822054905163d45c443560e01b8152938401529182916001600160a01b03169063d45c443590602401602060405180830381865afa158015610f49573d6000803e3d6000fd5b505050506040513d601f19601f82011682018060405250810190610f6d91906128cf565b905080600114610f7d5780610f80565b60005b9392505050565b6000610f9b604f546001600160a01b031690565b6001600160a01b031663bd02d0f5600960410160030160405160200161069a9190612833565b60008181526001602081815260408084208151928301909152909101546001600160401b031690819052610bb2565b6000848484846040516020016110099493929190612ada565b60408051601f19818403018152919052805160209091012095945050505050565b6000610f8083836114d9565b600061065a8261156f565b60006001600160e01b03198216636e665ced60e01b148061065a575061065a82611618565b600061070f6004546001600160a01b031690565b60648111156110fd5760405162461bcd60e51b815260206004820152604360248201527f476f7665726e6f72566f74657351756f72756d4672616374696f6e3a2071756f60448201527f72756d4e756d657261746f72206f7665722071756f72756d44656e6f6d696e616064820152623a37b960e91b608482015260a401610773565b600380549082905560408051828152602081018490527f0553476bf02ef2726e8ce5ced78d63e26e602e4a2257b1f559418e24b4633997910160405180910390a15050565b61114f858585858561164d565b50505060009182525060516020526040902080546001600160a01b0319169055565b600061065a61117e6116c0565b8360405161190160f01b6020820152602281018390526042810182905260009060620160405160208183030381529060405280519060200120905092915050565b60008060006111d0878787876117b3565b91509150610b80816118a0565b60008481526001602081905260408220906111f787610c8f565b6007811115611208576112086125d5565b146112615760405162461bcd60e51b815260206004820152602360248201527f476f7665726e6f723a20766f7465206e6f742063757272656e746c792061637460448201526269766560e81b6064820152608401610773565b604080516020810190915281546001600160401b03169081905260009061128990879061102a565b905061129787878784611a5b565b856001600160a01b03167fb8e138887d0aa13bab447e82de9d5c1777041ecd21ca36ba824ff1e6c07ddda4888784886040516112d69493929190612b25565b60405180910390a29695505050505050565b6000806112f483611bda565b9050600481600781111561130a5761130a6125d5565b146113155792915050565b60008381526005602052604090205480611330575092915050565b60048054604051632ab0f52960e01b81529182018390526001600160a01b031690632ab0f52990602401602060405180830381865afa158015611377573d6000803e3d6000fd5b505050506040513d601f19601f8201168201806040525081019061139b9190612b4d565b156113aa575060079392505050565b5060059392505050565b60006113c285858585611d3d565b95945050505050565b60006113d5610f87565b6113e4336105f6600143612ac3565b10156114645760405162461bcd60e51b815260206004820152604360248201527f476f7665726e6f72436f6d7061746962696c697479427261766f3a2070726f7060448201527f6f73657220766f7465732062656c6f772070726f706f73616c207468726573686064820152621bdb1960ea1b608482015260a401610773565b6113c285858585611de5565b600454604080516001600160a01b03928316815291831660208301527f08f74ea46ef7894f65eabfb5e6e695de773a000b47c529ab559178069b226401910160405180910390a1600480546001600160a01b0319166001600160a01b0392909216919091179055565b604051630748d63560e31b81526001600160a01b038381166004830152602482018390526000917f000000000000000000000000000000000000000000000000000000000000000090911690633a46b1a890604401602060405180830381865afa15801561154b573d6000803e3d6000fd5b505050506040513d601f19601f82011682018060405250810190610f8091906128cf565b6000606461157b610e49565b604051632394e7a360e21b8152600481018590527f00000000000000000000000000000000000000000000000000000000000000006001600160a01b031690638e539e8c90602401602060405180830381865afa1580156115e0573d6000803e3d6000fd5b505050506040513d601f19601f8201168201806040525081019061160491906128cf565b61160e9190612b6f565b61065a9190612b8e565b60006001600160e01b0319821663bf26d89760e01b148061065a57506301ffc9a760e01b6001600160e01b031983161461065a565b6004805460405163e38335e560e01b81526001600160a01b039091169163e38335e5913491611687918991899189916000918a91016129ef565b6000604051808303818588803b1580156116a057600080fd5b505af11580156116b4573d6000803e3d6000fd5b50505050505050505050565b60007f000000000000000000000000000000000000000000000000000000000000000046141561170f57507f000000000000000000000000000000000000000000000000000000000000000090565b50604080517f00000000000000000000000000000000000000000000000000000000000000006020808301919091527f0000000000000000000000000000000000000000000000000000000000000000828401527f000000000000000000000000000000000000000000000000000000000000000060608301524660808301523060a0808401919091528351808403909101815260c0909201909252805191012090565b6000807f7fffffffffffffffffffffffffffffff5d576e7357a4501ddfe92f46681b20a08311156117ea5750600090506003611897565b8460ff16601b1415801561180257508460ff16601c14155b156118135750600090506004611897565b6040805160008082526020820180845289905260ff881692820192909252606081018690526080810185905260019060a0016020604051602081039080840390855afa158015611867573d6000803e3d6000fd5b5050604051601f1901519150506001600160a01b03811661189057600060019250925050611897565b9150600090505b94509492505050565b60008160048111156118b4576118b46125d5565b14156118bd5750565b60018160048111156118d1576118d16125d5565b141561191f5760405162461bcd60e51b815260206004820152601860248201527f45434453413a20696e76616c6964207369676e617475726500000000000000006044820152606401610773565b6002816004811115611933576119336125d5565b14156119815760405162461bcd60e51b815260206004820152601f60248201527f45434453413a20696e76616c6964207369676e6174757265206c656e677468006044820152606401610773565b6003816004811115611995576119956125d5565b14156119ee5760405162461bcd60e51b815260206004820152602260248201527f45434453413a20696e76616c6964207369676e6174757265202773272076616c604482015261756560f01b6064820152608401610773565b6004816004811115611a0257611a026125d5565b1415610eef5760405162461bcd60e51b815260206004820152602260248201527f45434453413a20696e76616c6964207369676e6174757265202776272076616c604482015261756560f01b6064820152608401610773565b60008481526002602090815260408083206001600160a01b0387168452600381019092529091205460ff1615611ae35760405162461bcd60e51b815260206004820152602760248201527f476f7665726e6f72566f74696e6753696d706c653a20766f746520616c726561604482015266191e4818d85cdd60ca1b6064820152608401610773565b6001600160a01b03841660009081526003820160205260408120805460ff1916600117905560ff168360ff161415611b345781816000016000828254611b299190612aab565b909155506108139050565b60ff831660011415611b545781816001016000828254611b299190612aab565b60ff831660021415611b745781816002016000828254611b299190612aab565b60405162461bcd60e51b815260206004820152603560248201527f476f7665726e6f72566f74696e6753696d706c653a20696e76616c69642076616044820152746c756520666f7220656e756d20566f74655479706560581b6064820152608401610773565b6000818152600160208181526040808420815160a08101835281546001600160401b0390811660808301908152825283518086018552958301541685529283019390935260029092015460ff80821615801594840194909452610100909104161515606082015290611c4f5750600792915050565b806060015115611c625750600292915050565b805151436001600160401b039091161115611c805750600092915050565b602081015151436001600160401b039091161115611ca15750600192915050565b611cae8160200151612028565b15611cef57611cbc83612057565b8015611cdb575060008381526002602052604090208054600190910154115b611ce6576003610f80565b60049392505050565b60405162461bcd60e51b815260206004820152601d60248201527f476f7665726e6f723a20756e6b6e6f776e2070726f706f73616c2069640000006044820152606401610773565b50919050565b600080611d4c8686868661208f565b600081815260056020526040902054909150156113c257600480546000838152600560205260409081902054905163c4d252f560e01b8152928301526001600160a01b03169063c4d252f590602401600060405180830381600087803b158015611db557600080fd5b505af1158015611dc9573d6000803e3d6000fd5b5050506000828152600560205260408120555095945050505050565b600080611dfb8686868680519060200120610ff0565b90508451865114611e1e5760405162461bcd60e51b815260040161077390612bb0565b8351865114611e3f5760405162461bcd60e51b815260040161077390612bb0565b6000865111611e905760405162461bcd60e51b815260206004820152601860248201527f476f7665726e6f723a20656d7074792070726f706f73616c00000000000000006044820152606401610773565b600081815260016020908152604091829020825191820190925281546001600160401b03169081905215611f105760405162461bcd60e51b815260206004820152602160248201527f476f7665726e6f723a2070726f706f73616c20616c72656164792065786973746044820152607360f81b6064820152608401610773565b6000611f22611f1d610bc1565b61219b565b611f2b4361219b565b611f359190612bf1565b90506000611f44611f1d610660565b611f4e9083612bf1565b835467ffffffffffffffff19166001600160401b038416178455905060018301805467ffffffffffffffff19166001600160401b0383161790557f7d84a6263ae0d98d3329bd7b46bb4e8d6f98cd35a7adb45c274c8b7fd5ebd5e084338b8b8d516001600160401b03811115611fc657611fc66122aa565b604051908082528060200260200182016040528015611ff957816020015b6060815260200190600190039081611fe45790505b508c88888e60405161201399989796959493929190612c1c565b60405180910390a15091979650505050505050565b600061203d82516001600160401b0316151590565b801561065a57505051436001600160401b03909116111590565b6000818152600260208190526040822090810154600182015461207a9190612aab565b61208661061685610b8a565b11159392505050565b60008061209e86868686610ff0565b905060006120ab82610c8f565b905060028160078111156120c1576120c16125d5565b141580156120e1575060068160078111156120de576120de6125d5565b14155b80156120ff575060078160078111156120fc576120fc6125d5565b14155b61214b5760405162461bcd60e51b815260206004820152601d60248201527f476f7665726e6f723a2070726f706f73616c206e6f74206163746976650000006044820152606401610773565b60008281526001602052604090819020600201805461ff001916610100179055517f789cf55be980739dad1d0699b93b58e806b51c9d96619bfa8fe0a28abaa7b30c90610aa59084815260200190565b60006001600160401b038211156122035760405162461bcd60e51b815260206004820152602660248201527f53616665436173743a2076616c756520646f65736e27742066697420696e203660448201526534206269747360d01b6064820152608401610773565b5090565b60006020828403121561221957600080fd5b81356001600160e01b031981168114610f8057600080fd5b60006020828403121561224357600080fd5b5035919050565b6000815180845260005b8181101561227057602081850181015186830182015201612254565b81811115612282576000602083870101525b50601f01601f19169290920160200192915050565b602081526000610f80602083018461224a565b634e487b7160e01b600052604160045260246000fd5b604051601f8201601f191681016001600160401b03811182821017156122e8576122e86122aa565b604052919050565b60006001600160401b03821115612309576123096122aa565b5060051b60200190565b6001600160a01b0381168114610eef57600080fd5b600082601f83011261233957600080fd5b8135602061234e612349836122f0565b6122c0565b82815260059290921b8401810191818101908684111561236d57600080fd5b8286015b8481101561239157803561238481612313565b8352918301918301612371565b509695505050505050565b600082601f8301126123ad57600080fd5b813560206123bd612349836122f0565b82815260059290921b840181019181810190868411156123dc57600080fd5b8286015b8481101561239157803583529183019183016123e0565b60006001600160401b03831115612410576124106122aa565b612423601f8401601f19166020016122c0565b905082815283838301111561243757600080fd5b828260208301376000602084830101529392505050565b600082601f83011261245f57600080fd5b8135602061246f612349836122f0565b82815260059290921b8401810191818101908684111561248e57600080fd5b8286015b848110156123915780356001600160401b038111156124b15760008081fd5b8701603f810189136124c35760008081fd5b6124d48986830135604084016123f7565b845250918301918301612492565b600080600080608085870312156124f857600080fd5b84356001600160401b038082111561250f57600080fd5b61251b88838901612328565b9550602087013591508082111561253157600080fd5b61253d8883890161239c565b9450604087013591508082111561255357600080fd5b506125608782880161244e565b949793965093946060013593505050565b803560ff8116811461258257600080fd5b919050565b600080600080600060a0868803121561259f57600080fd5b853594506125af60208701612571565b93506125bd60408701612571565b94979396509394606081013594506080013592915050565b634e487b7160e01b600052602160045260246000fd5b602081016008831061260d57634e487b7160e01b600052602160045260246000fd5b91905290565b6000806040838503121561262657600080fd5b82359150602083013561263881612313565b809150509250929050565b6000806040838503121561265657600080fd5b8235915061266660208401612571565b90509250929050565b6000806000806060858703121561268557600080fd5b8435935061269560208601612571565b925060408501356001600160401b03808211156126b157600080fd5b818701915087601f8301126126c557600080fd5b8135818111156126d457600080fd5b8860208285010111156126e657600080fd5b95989497505060200194505050565b6000806000806080858703121561270b57600080fd5b84356001600160401b038082111561272257600080fd5b61272e88838901612328565b9550602087013591508082111561274457600080fd5b6127508883890161239c565b9450604087013591508082111561276657600080fd5b6127728883890161244e565b9350606087013591508082111561278857600080fd5b508501601f8101871361279a57600080fd5b6127a9878235602084016123f7565b91505092959194509250565b6000602082840312156127c757600080fd5b8135610f8081612313565b600080604083850312156127e557600080fd5b82356127f081612313565b946020939093013593505050565b600181811c9082168061281257607f821691505b60208210811415611d3757634e487b7160e01b600052602260045260246000fd5b600080835481600182811c91508083168061284f57607f831692505b602080841082141561286f57634e487b7160e01b86526022600452602486fd5b8180156128835760018114612894576128c1565b60ff198616895284890196506128c1565b60008a81526020902060005b868110156128b95781548b8201529085019083016128a0565b505084890196505b509498975050505050505050565b6000602082840312156128e157600080fd5b5051919050565b60208082526021908201527f476f7665726e6f723a2070726f706f73616c206e6f74207375636365737366756040820152601b60fa1b606082015260800190565b600081518084526020808501945080840160005b838110156129625781516001600160a01b03168752958201959082019060010161293d565b509495945050505050565b600081518084526020808501945080840160005b8381101561296257815187529582019590820190600101612981565b6000815180845260208085019450848260051b860182860160005b858110156129e25783830389526129d083835161224a565b988501989250908401906001016129b8565b5090979650505050505050565b60a081526000612a0260a0830188612929565b8281036020840152612a14818861296d565b90508281036040840152612a28818761299d565b60608401959095525050608001529392505050565b60c081526000612a5060c0830189612929565b8281036020840152612a62818961296d565b90508281036040840152612a76818861299d565b60608401969096525050608081019290925260a0909101529392505050565b634e487b7160e01b600052601160045260246000fd5b60008219821115612abe57612abe612a95565b500190565b600082821015612ad557612ad5612a95565b500390565b608081526000612aed6080830187612929565b8281036020840152612aff818761296d565b90508281036040840152612b13818661299d565b91505082606083015295945050505050565b84815260ff84166020820152826040820152608060608201526000610e07608083018461224a565b600060208284031215612b5f57600080fd5b81518015158114610f8057600080fd5b6000816000190483118215151615612b8957612b89612a95565b500290565b600082612bab57634e487b7160e01b600052601260045260246000fd5b500490565b60208082526021908201527f476f7665726e6f723a20696e76616c69642070726f706f73616c206c656e67746040820152600d60fb1b606082015260800190565b60006001600160401b03808316818516808303821115612c1357612c13612a95565b01949350505050565b60006101208b8352602060018060a01b038c1681850152816040850152612c458285018c612929565b91508382036060850152612c59828b61296d565b915083820360808501528189518084528284019150828160051b850101838c0160005b83811015612caa57601f19878403018552612c9883835161224a565b94860194925090850190600101612c7c565b505086810360a0880152612cbe818c61299d565b945050505050612cd960c08401876001600160401b03169052565b6001600160401b03851660e0840152828103610100840152612cfb818561224a565b9c9b50505050505050505050505056fea2646970667358221220c9b750f892138c62af40834d8577b777fbde61c30a02a8d85b0501776549cbee64736f6c634300080a00337068616e746f6d2e626f6e64696e672e757365722e6c6f776573745f6e6f6e63655f7374696c6c5f76657374696e677068616e746f6d2e626f6e64696e672e757365722e6c6f776573745f61737369676e61626c655f6e6f6e63657068616e746f6d2e666f756e6465722e636c61696d732e72656d61696e696e67416d6f756e747068616e746f6d2e616c6c6f6361746f722e746f6b656e732e616464726573732e6461697068616e746f6d2e726f7574696e672e6465785f726f757465725f616464726573737068616e746f6d2e666f756e6465722e636c61696d732e696e697469616c416d6f756e747068616e746f6d2e74726561737572792e6163636f756e745f6b65792e76656e747572656361706974616c7068616e746f6d2e616c6c6f6361746f722e746f6b656e732e616464726573732e6461695f70686d5f6c707068616e746f6d2e726f7574696e672e73706f6f6b795f726f757465725f616464726573737068616e746f6d2e74726561737572792e617070726f7665642e65787465726e616c2e616464726573737068616e746f6d2e626f6e64696e672e757365722e66697273745f756e72656465656d65645f6e6f6e63657068616e746f6d2e726f7574696e672e7370697269745f726f757465725f616464726573737068616e746f6d2e616c6c6f6361746f722e746f6b656e732e64657374696e6174696f6e737068616e746f6d2e626f6e64696e672e76657374735f61745f74696d657374616d707068616e746f6d2e726f7574696e672e7370697269745f666163746f72795f616464726573737068616e746f6d2e616c6c6f6361746f722e746f6b656e732e646573745f70657263656e74616765737068616e746f6d2e74726561737572792e6163636f756e745f6b65792e72657365727665737068616e746f6d2e616c6c6f6361746f722e746f6b656e732e616464726573732e6d696d7068616e746f6d2e726f7574696e672e73706f6f6b795f666163746f72795f616464726573737068616e746f6d2e616c6c6f6361746f722e746f6b656e732e616464726573732e7766746d7068616e746f6d2e616c6c6f6361746f722e746f6b656e732e616464726573732e6465787068616e746f6d2e726f7574696e672e7370697269745f67617567655f616464726573737068616e746f6d2e666f756e6465722e636c61696d732e616c6c6f636174696f6e7068616e746f6d2e726f7574696e672e6465785f666163746f72795f616464726573737068616e746f6d2e676f7665726e6f722e71756f72756d50657263656e746167657068616e746f6d2e676f7665726e6f722e70726f706f73616c5468726573686f6c647068616e746f6d2e7374616b696e672e6e657874526562617365446561646c696e657068616e746f6d2e626f6e64696e672e72656d61696e696e675f7061796f75745f666f727068616e746f6d2e726f7574696e672e7370697269745f67617567655f70726f78795f61646472657373",
  "bytecodeSha1": "da39a3ee5e6b4b0d3255bfef95601890afd80709",
  "compiler": {
    "evm_version": "istanbul",
    "optimizer": {
      "enabled": true,
      "runs": 200
    },
    "version": "0.8.10+commit.fc410830"
  },
  "contractName": "PhantomGovernor",
  "language": "Solidity",
  "natspec": {
    "author": "PhantomDao Team",
    "kind": "dev",
    "methods": {
      "COUNTING_MODE()": {
        "details": "See {IGovernor-COUNTING_MODE}."
      },
      "castVote(uint256,uint8)": {
        "details": "See {IGovernor-castVote}."
      },
      "castVoteBySig(uint256,uint8,uint8,bytes32,bytes32)": {
        "details": "See {IGovernor-castVoteBySig}."
      },
      "castVoteWithReason(uint256,uint8,string)": {
        "details": "See {IGovernor-castVoteWithReason}."
      },
      "execute(address[],uint256[],bytes[],bytes32)": {
        "details": "See {IGovernor-execute}."
      },
      "hasVoted(uint256,address)": {
        "details": "See {IGovernor-hasVoted}."
      },
      "hashProposal(address[],uint256[],bytes[],bytes32)": {
        "details": "See {IGovernor-hashProposal}. The proposal id is produced by hashing the RLC encoded `targets` array, the `values` array, the `calldatas` array and the descriptionHash (bytes32 which itself is the keccak256 hash of the description string). This proposal id can be produced from the proposal data which is part of the {ProposalCreated} event. It can even be computed in advance, before the proposal is submitted. Note that the chainId and the governor address are not part of the proposal id computation. Consequently, the same proposal (with same operation and same description) will have the same id if submitted on multiple governors accross multiple networks. This also means that in order to execute the same operation twice (on the same governor) the proposer will have to change the description in order to avoid proposal id conflicts."
      },
      "name()": {
        "details": "See {IGovernor-name}."
      },
      "proposalDeadline(uint256)": {
        "details": "See {IGovernor-proposalDeadline}."
      },
      "proposalEta(uint256)": {
        "details": "Public accessor to check the eta of a queued proposal"
      },
      "proposalSnapshot(uint256)": {
        "details": "See {IGovernor-proposalSnapshot}."
      },
      "proposalThreshold()": {
        "details": "Part of the Governor Bravo's interface: _\"The number of votes required in order for a voter to become a proposer\"_."
      },
      "proposalVotes(uint256)": {
        "details": "Accessor to the internal vote counts."
      },
      "queue(address[],uint256[],bytes[],bytes32)": {
        "details": "Function to queue a proposal to the timelock."
      },
      "timelock()": {
        "details": "Public accessor to check the address of the timelock"
      },
      "updateTimelock(address)": {
        "details": "Public endpoint to update the underlying timelock instance. Restricted to the timelock itself, so updates must be proposed, scheduled and executed using the {Governor} workflow."
      },
      "version()": {
        "details": "See {IGovernor-version}."
      },
      "votingDelay()": {
        "details": "delay, in number of block, between the proposal is created and the vote starts. This can be increassed to leave time for users to buy voting power, of delegate it, before the voting of a proposal starts.",
        "notice": "module:user-config"
      },
      "votingPeriod()": {
        "details": "delay, in number of blocks, between the vote start and vote ends. Note: the {votingDelay} can delay the start of the vote. This must be considered when setting the voting duration compared to the voting delay.",
        "notice": "module:user-config"
      }
    },
    "notice": "The Governor of the PhantomNetwork",
    "title": "PhantomGovernor",
    "version": 1
  },
  "opcodes": "PUSH1 0x80 PUSH1 0x40 MSTORE PUSH1 0x4 CALLDATASIZE LT PUSH2 0x1CD JUMPI PUSH1 0x0 CALLDATALOAD PUSH1 0xE0 SHR DUP1 PUSH4 0x7B3C71D3 GT PUSH2 0xF7 JUMPI DUP1 PUSH4 0xC01F9E37 GT PUSH2 0x95 JUMPI DUP1 PUSH4 0xDEAAA7CC GT PUSH2 0x64 JUMPI DUP1 PUSH4 0xDEAAA7CC EQ PUSH2 0x5A7 JUMPI DUP1 PUSH4 0xEB9019D4 EQ PUSH2 0x5DB JUMPI DUP1 PUSH4 0xF8CE560A EQ PUSH2 0x5FB JUMPI DUP1 PUSH4 0xFC0C546A EQ PUSH2 0x61B JUMPI PUSH1 0x0 DUP1 REVERT JUMPDEST DUP1 PUSH4 0xC01F9E37 EQ PUSH2 0x4EF JUMPI DUP1 PUSH4 0xC59057E4 EQ PUSH2 0x50F JUMPI DUP1 PUSH4 0xD33219B4 EQ PUSH2 0x52F JUMPI DUP1 PUSH4 0xDD4E2BA5 EQ PUSH2 0x561 JUMPI PUSH1 0x0 DUP1 REVERT JUMPDEST DUP1 PUSH4 0xA7713A70 GT PUSH2 0xD1 JUMPI DUP1 PUSH4 0xA7713A70 EQ PUSH2 0x485 JUMPI DUP1 PUSH4 0xA890C910 EQ PUSH2 0x49A JUMPI DUP1 PUSH4 0xAB58FB8E EQ PUSH2 0x4BA JUMPI DUP1 PUSH4 0xB58131B0 EQ PUSH2 0x4DA JUMPI PUSH1 0x0 DUP1 REVERT JUMPDEST DUP1 PUSH4 0x7B3C71D3 EQ PUSH2 0x431 JUMPI DUP1 PUSH4 0x7D5E81E2 EQ PUSH2 0x451 JUMPI DUP1 PUSH4 0x97C3D334 EQ PUSH2 0x471 JUMPI PUSH1 0x0 DUP1 REVERT JUMPDEST DUP1 PUSH4 0x3932ABB1 GT PUSH2 0x16F JUMPI DUP1 PUSH4 0x452115D6 GT PUSH2 0x13E JUMPI DUP1 PUSH4 0x452115D6 EQ PUSH2 0x36D JUMPI DUP1 PUSH4 0x544FFC9C EQ PUSH2 0x38D JUMPI DUP1 PUSH4 0x54FD4D50 EQ PUSH2 0x3E7 JUMPI DUP1 PUSH4 0x56781388 EQ PUSH2 0x411 JUMPI PUSH1 0x0 DUP1 REVERT JUMPDEST DUP1 PUSH4 0x3932ABB1 EQ PUSH2 0x2C1 JUMPI DUP1 PUSH4 0x3BCCF4FD EQ PUSH2 0x2D6 JUMPI DUP1 PUSH4 0x3E4F49E6 EQ PUSH2 0x2F6 JUMPI DUP1 PUSH4 0x43859632 EQ PUSH2 0x323 JUMPI PUSH1 0x0 DUP1 REVERT JUMPDEST DUP1 PUSH4 0x6FDDE03 GT PUSH2 0x1AB JUMPI DUP1 PUSH4 0x6FDDE03 EQ PUSH2 0x24C JUMPI DUP1 PUSH4 0x160CBED7 EQ PUSH2 0x26E JUMPI DUP1 PUSH4 0x2656227D EQ PUSH2 0x28E JUMPI DUP1 PUSH4 0x2D63F693 EQ PUSH2 0x2A1 JUMPI PUSH1 0x0 DUP1 REVERT JUMPDEST DUP1 PUSH4 0x1FFC9A7 EQ PUSH2 0x1D2 JUMPI DUP1 PUSH4 0x2A251A3 EQ PUSH2 0x207 JUMPI DUP1 PUSH4 0x6F3F9E6 EQ PUSH2 0x22A JUMPI JUMPDEST PUSH1 0x0 DUP1 REVERT JUMPDEST CALLVALUE DUP1 ISZERO PUSH2 0x1DE JUMPI PUSH1 0x0 DUP1 REVERT JUMPDEST POP PUSH2 0x1F2 PUSH2 0x1ED CALLDATASIZE PUSH1 0x4 PUSH2 0x2207 JUMP JUMPDEST PUSH2 0x64F JUMP JUMPDEST PUSH1 0x40 MLOAD SWAP1 ISZERO ISZERO DUP2 MSTORE PUSH1 0x20 ADD JUMPDEST PUSH1 0x40 MLOAD DUP1 SWAP2 SUB SWAP1 RETURN JUMPDEST CALLVALUE DUP1 ISZERO PUSH2 0x213 JUMPI PUSH1 0x0 DUP1 REVERT JUMPDEST POP PUSH2 0x21C PUSH2 0x660 JUMP JUMPDEST PUSH1 0x40 MLOAD SWAP1 DUP2 MSTORE PUSH1 0x20 ADD PUSH2 0x1FE JUMP JUMPDEST CALLVALUE DUP1 ISZERO PUSH2 0x236 JUMPI PUSH1 0x0 DUP1 REVERT JUMPDEST POP PUSH2 0x24A PUSH2 0x245 CALLDATASIZE PUSH1 0x4 PUSH2 0x2231 JUMP JUMPDEST PUSH2 0x714 JUMP JUMPDEST STOP JUMPDEST CALLVALUE DUP1 ISZERO PUSH2 0x258 JUMPI PUSH1 0x0 DUP1 REVERT JUMPDEST POP PUSH2 0x261 PUSH2 0x81A JUMP JUMPDEST PUSH1 0x40 MLOAD PUSH2 0x1FE SWAP2 SWAP1 PUSH2 0x2297 JUMP JUMPDEST CALLVALUE DUP1 ISZERO PUSH2 0x27A JUMPI PUSH1 0x0 DUP1 REVERT JUMPDEST POP PUSH2 0x21C PUSH2 0x289 CALLDATASIZE PUSH1 0x4 PUSH2 0x24E2 JUMP JUMPDEST PUSH2 0x8AC JUMP JUMPDEST PUSH2 0x21C PUSH2 0x29C CALLDATASIZE PUSH1 0x4 PUSH2 0x24E2 JUMP JUMPDEST PUSH2 0xAB7 JUMP JUMPDEST CALLVALUE DUP1 ISZERO PUSH2 0x2AD JUMPI PUSH1 0x0 DUP1 REVERT JUMPDEST POP PUSH2 0x21C PUSH2 0x2BC CALLDATASIZE PUSH1 0x4 PUSH2 0x2231 JUMP JUMPDEST PUSH2 0xB8A JUMP JUMPDEST CALLVALUE DUP1 ISZERO PUSH2 0x2CD JUMPI PUSH1 0x0 DUP1 REVERT JUMPDEST POP PUSH2 0x21C PUSH2 0xBC1 JUMP JUMPDEST CALLVALUE DUP1 ISZERO PUSH2 0x2E2 JUMPI PUSH1 0x0 DUP1 REVERT JUMPDEST POP PUSH2 0x21C PUSH2 0x2F1 CALLDATASIZE PUSH1 0x4 PUSH2 0x2587 JUMP JUMPDEST PUSH2 0xBFB JUMP JUMPDEST CALLVALUE DUP1 ISZERO PUSH2 0x302 JUMPI PUSH1 0x0 DUP1 REVERT JUMPDEST POP PUSH2 0x316 PUSH2 0x311 CALLDATASIZE PUSH1 0x4 PUSH2 0x2231 JUMP JUMPDEST PUSH2 0xC8F JUMP JUMPDEST PUSH1 0x40 MLOAD PUSH2 0x1FE SWAP2 SWAP1 PUSH2 0x25EB JUMP JUMPDEST CALLVALUE DUP1 ISZERO PUSH2 0x32F JUMPI PUSH1 0x0 DUP1 REVERT JUMPDEST POP PUSH2 0x1F2 PUSH2 0x33E CALLDATASIZE PUSH1 0x4 PUSH2 0x2613 JUMP JUMPDEST PUSH1 0x0 DUP3 DUP2 MSTORE PUSH1 0x2 PUSH1 0x20 SWAP1 DUP2 MSTORE PUSH1 0x40 DUP1 DUP4 KECCAK256 PUSH1 0x1 PUSH1 0x1 PUSH1 0xA0 SHL SUB DUP6 AND DUP5 MSTORE PUSH1 0x3 ADD SWAP1 SWAP2 MSTORE SWAP1 KECCAK256 SLOAD PUSH1 0xFF AND SWAP3 SWAP2 POP POP JUMP JUMPDEST CALLVALUE DUP1 ISZERO PUSH2 0x379 JUMPI PUSH1 0x0 DUP1 REVERT JUMPDEST POP PUSH2 0x21C PUSH2 0x388 CALLDATASIZE PUSH1 0x4 PUSH2 0x24E2 JUMP JUMPDEST PUSH2 0xC9A JUMP JUMPDEST CALLVALUE DUP1 ISZERO PUSH2 0x399 JUMPI PUSH1 0x0 DUP1 REVERT JUMPDEST POP PUSH2 0x3CC PUSH2 0x3A8 CALLDATASIZE PUSH1 0x4 PUSH2 0x2231 JUMP JUMPDEST PUSH1 0x0 DUP2 DUP2 MSTORE PUSH1 0x2 PUSH1 0x20 DUP2 SWAP1 MSTORE PUSH1 0x40 SWAP1 SWAP2 KECCAK256 DUP1 SLOAD PUSH1 0x1 DUP3 ADD SLOAD SWAP2 SWAP1 SWAP3 ADD SLOAD SWAP2 SWAP4 SWAP1 SWAP3 POP JUMP JUMPDEST PUSH1 0x40 DUP1 MLOAD SWAP4 DUP5 MSTORE PUSH1 0x20 DUP5 ADD SWAP3 SWAP1 SWAP3 MSTORE SWAP1 DUP3 ADD MSTORE PUSH1 0x60 ADD PUSH2 0x1FE JUMP JUMPDEST CALLVALUE DUP1 ISZERO PUSH2 0x3F3 JUMPI PUSH1 0x0 DUP1 REVERT JUMPDEST POP PUSH1 0x40 DUP1 MLOAD DUP1 DUP3 ADD SWAP1 SWAP2 MSTORE PUSH1 0x1 DUP2 MSTORE PUSH1 0x31 PUSH1 0xF8 SHL PUSH1 0x20 DUP3 ADD MSTORE PUSH2 0x261 JUMP JUMPDEST CALLVALUE DUP1 ISZERO PUSH2 0x41D JUMPI PUSH1 0x0 DUP1 REVERT JUMPDEST POP PUSH2 0x21C PUSH2 0x42C CALLDATASIZE PUSH1 0x4 PUSH2 0x2643 JUMP JUMPDEST PUSH2 0xD96 JUMP JUMPDEST CALLVALUE DUP1 ISZERO PUSH2 0x43D JUMPI PUSH1 0x0 DUP1 REVERT JUMPDEST POP PUSH2 0x21C PUSH2 0x44C CALLDATASIZE PUSH1 0x4 PUSH2 0x266F JUMP JUMPDEST PUSH2 0xDBF JUMP JUMPDEST CALLVALUE DUP1 ISZERO PUSH2 0x45D JUMPI PUSH1 0x0 DUP1 REVERT JUMPDEST POP PUSH2 0x21C PUSH2 0x46C CALLDATASIZE PUSH1 0x4 PUSH2 0x26F5 JUMP JUMPDEST PUSH2 0xE11 JUMP JUMPDEST CALLVALUE DUP1 ISZERO PUSH2 0x47D JUMPI PUSH1 0x0 DUP1 REVERT JUMPDEST POP PUSH1 0x64 PUSH2 0x21C JUMP JUMPDEST CALLVALUE DUP1 ISZERO PUSH2 0x491 JUMPI PUSH1 0x0 DUP1 REVERT JUMPDEST POP PUSH2 0x21C PUSH2 0xE49 JUMP JUMPDEST CALLVALUE DUP1 ISZERO PUSH2 0x4A6 JUMPI PUSH1 0x0 DUP1 REVERT JUMPDEST POP PUSH2 0x24A PUSH2 0x4B5 CALLDATASIZE PUSH1 0x4 PUSH2 0x27B5 JUMP JUMPDEST PUSH2 0xE83 JUMP JUMPDEST CALLVALUE DUP1 ISZERO PUSH2 0x4C6 JUMPI PUSH1 0x0 DUP1 REVERT JUMPDEST POP PUSH2 0x21C PUSH2 0x4D5 CALLDATASIZE PUSH1 0x4 PUSH2 0x2231 JUMP JUMPDEST PUSH2 0xEF2 JUMP JUMPDEST CALLVALUE DUP1 ISZERO PUSH2 0x4E6 JUMPI PUSH1 0x0 DUP1 REVERT JUMPDEST POP PUSH2 0x21C PUSH2 0xF87 JUMP JUMPDEST CALLVALUE DUP1 ISZERO PUSH2 0x4FB JUMPI PUSH1 0x0 DUP1 REVERT JUMPDEST POP PUSH2 0x21C PUSH2 0x50A CALLDATASIZE PUSH1 0x4 PUSH2 0x2231 JUMP JUMPDEST PUSH2 0xFC1 JUMP JUMPDEST CALLVALUE DUP1 ISZERO PUSH2 0x51B JUMPI PUSH1 0x0 DUP1 REVERT JUMPDEST POP PUSH2 0x21C PUSH2 0x52A CALLDATASIZE PUSH1 0x4 PUSH2 0x24E2 JUMP JUMPDEST PUSH2 0xFF0 JUMP JUMPDEST CALLVALUE DUP1 ISZERO PUSH2 0x53B JUMPI PUSH1 0x0 DUP1 REVERT JUMPDEST POP PUSH1 0x4 SLOAD PUSH1 0x1 PUSH1 0x1 PUSH1 0xA0 SHL SUB AND JUMPDEST PUSH1 0x40 MLOAD PUSH1 0x1 PUSH1 0x1 PUSH1 0xA0 SHL SUB SWAP1 SWAP2 AND DUP2 MSTORE PUSH1 0x20 ADD PUSH2 0x1FE JUMP JUMPDEST CALLVALUE DUP1 ISZERO PUSH2 0x56D JUMPI PUSH1 0x0 DUP1 REVERT JUMPDEST POP PUSH1 0x40 DUP1 MLOAD DUP1 DUP3 ADD SWAP1 SWAP2 MSTORE PUSH1 0x20 DUP1 DUP3 MSTORE PUSH32 0x737570706F72743D627261766F2671756F72756D3D666F722C6162737461696E SWAP1 DUP3 ADD MSTORE PUSH2 0x261 JUMP JUMPDEST CALLVALUE DUP1 ISZERO PUSH2 0x5B3 JUMPI PUSH1 0x0 DUP1 REVERT JUMPDEST POP PUSH2 0x21C PUSH32 0x150214D74D59B7D1E90C73FC22EF3D991DD0A76B046543D4D80AB92D2A50328F DUP2 JUMP JUMPDEST CALLVALUE DUP1 ISZERO PUSH2 0x5E7 JUMPI PUSH1 0x0 DUP1 REVERT JUMPDEST POP PUSH2 0x21C PUSH2 0x5F6 CALLDATASIZE PUSH1 0x4 PUSH2 0x27D2 JUMP JUMPDEST PUSH2 0x102A JUMP JUMPDEST CALLVALUE DUP1 ISZERO PUSH2 0x607 JUMPI PUSH1 0x0 DUP1 REVERT JUMPDEST POP PUSH2 0x21C PUSH2 0x616 CALLDATASIZE PUSH1 0x4 PUSH2 0x2231 JUMP JUMPDEST PUSH2 0x1036 JUMP JUMPDEST CALLVALUE DUP1 ISZERO PUSH2 0x627 JUMPI PUSH1 0x0 DUP1 REVERT JUMPDEST POP PUSH2 0x549 PUSH32 0x0 DUP2 JUMP JUMPDEST PUSH1 0x0 PUSH2 0x65A DUP3 PUSH2 0x1041 JUMP JUMPDEST SWAP3 SWAP2 POP POP JUMP JUMPDEST PUSH1 0x0 PUSH2 0x674 PUSH1 0x4F SLOAD PUSH1 0x1 PUSH1 0x1 PUSH1 0xA0 SHL SUB AND SWAP1 JUMP JUMPDEST PUSH1 0x1 PUSH1 0x1 PUSH1 0xA0 SHL SUB AND PUSH4 0xBD02D0F5 PUSH1 0x9 PUSH1 0x41 ADD PUSH1 0x1 ADD PUSH1 0x40 MLOAD PUSH1 0x20 ADD PUSH2 0x69A SWAP2 SWAP1 PUSH2 0x2833 JUMP JUMPDEST PUSH1 0x40 MLOAD PUSH1 0x20 DUP2 DUP4 SUB SUB DUP2 MSTORE SWAP1 PUSH1 0x40 MSTORE DUP1 MLOAD SWAP1 PUSH1 0x20 ADD KECCAK256 PUSH1 0x40 MLOAD DUP3 PUSH4 0xFFFFFFFF AND PUSH1 0xE0 SHL DUP2 MSTORE PUSH1 0x4 ADD PUSH2 0x6CE SWAP2 DUP2 MSTORE PUSH1 0x20 ADD SWAP1 JUMP JUMPDEST PUSH1 0x20 PUSH1 0x40 MLOAD DUP1 DUP4 SUB DUP2 DUP7 GAS STATICCALL ISZERO DUP1 ISZERO PUSH2 0x6EB JUMPI RETURNDATASIZE PUSH1 0x0 DUP1 RETURNDATACOPY RETURNDATASIZE PUSH1 0x0 REVERT JUMPDEST POP POP POP POP PUSH1 0x40 MLOAD RETURNDATASIZE PUSH1 0x1F NOT PUSH1 0x1F DUP3 ADD AND DUP3 ADD DUP1 PUSH1 0x40 MSTORE POP DUP2 ADD SWAP1 PUSH2 0x70F SWAP2 SWAP1 PUSH2 0x28CF JUMP JUMPDEST SWAP1 POP SWAP1 JUMP JUMPDEST PUSH2 0x71C PUSH2 0x1066 JUMP JUMPDEST PUSH1 0x1 PUSH1 0x1 PUSH1 0xA0 SHL SUB AND CALLER PUSH1 0x1 PUSH1 0x1 PUSH1 0xA0 SHL SUB AND EQ PUSH2 0x77C JUMPI PUSH1 0x40 MLOAD PUSH3 0x461BCD PUSH1 0xE5 SHL DUP2 MSTORE PUSH1 0x20 PUSH1 0x4 DUP3 ADD MSTORE PUSH1 0x18 PUSH1 0x24 DUP3 ADD MSTORE PUSH24 0x476F7665726E6F723A206F6E6C79476F7665726E616E6365 PUSH1 0x40 SHL PUSH1 0x44 DUP3 ADD MSTORE PUSH1 0x64 ADD JUMPDEST PUSH1 0x40 MLOAD DUP1 SWAP2 SUB SWAP1 REVERT JUMPDEST PUSH2 0x785 DUP2 PUSH2 0x107A JUMP JUMPDEST PUSH1 0x4F SLOAD PUSH1 0x40 MLOAD PUSH1 0x1 PUSH1 0x1 PUSH1 0xA0 SHL SUB SWAP1 SWAP2 AND SWAP1 PUSH4 0xE2A4853A SWAP1 PUSH2 0x7AC SWAP1 PUSH1 0x4C SWAP1 PUSH1 0x20 ADD PUSH2 0x2833 JUMP JUMPDEST PUSH1 0x40 DUP1 MLOAD PUSH1 0x1F NOT DUP2 DUP5 SUB ADD DUP2 MSTORE SWAP1 DUP3 SWAP1 MSTORE DUP1 MLOAD PUSH1 0x20 SWAP1 SWAP2 ADD KECCAK256 PUSH1 0x1 PUSH1 0x1 PUSH1 0xE0 SHL SUB NOT PUSH1 0xE0 DUP5 SWAP1 SHL AND DUP3 MSTORE PUSH1 0x4 DUP3 ADD MSTORE PUSH1 0x24 DUP2 ADD DUP5 SWAP1 MSTORE PUSH1 0x44 ADD PUSH1 0x0 PUSH1 0x40 MLOAD DUP1 DUP4 SUB DUP2 PUSH1 0x0 DUP8 DUP1 EXTCODESIZE ISZERO DUP1 ISZERO PUSH2 0x7FF JUMPI PUSH1 0x0 DUP1 REVERT JUMPDEST POP GAS CALL ISZERO DUP1 ISZERO PUSH2 0x813 JUMPI RETURNDATASIZE PUSH1 0x0 DUP1 RETURNDATACOPY RETURNDATASIZE PUSH1 0x0 REVERT JUMPDEST POP POP POP POP POP JUMP JUMPDEST PUSH1 0x60 PUSH1 0x0 DUP1 SLOAD PUSH2 0x829 SWAP1 PUSH2 0x27FE JUMP JUMPDEST DUP1 PUSH1 0x1F ADD PUSH1 0x20 DUP1 SWAP2 DIV MUL PUSH1 0x20 ADD PUSH1 0x40 MLOAD SWAP1 DUP2 ADD PUSH1 0x40 MSTORE DUP1 SWAP3 SWAP2 SWAP1 DUP2 DUP2 MSTORE PUSH1 0x20 ADD DUP3 DUP1 SLOAD PUSH2 0x855 SWAP1 PUSH2 0x27FE JUMP JUMPDEST DUP1 ISZERO PUSH2 0x8A2 JUMPI DUP1 PUSH1 0x1F LT PUSH2 0x877 JUMPI PUSH2 0x100 DUP1 DUP4 SLOAD DIV MUL DUP4 MSTORE SWAP2 PUSH1 0x20 ADD SWAP2 PUSH2 0x8A2 JUMP JUMPDEST DUP3 ADD SWAP2 SWAP1 PUSH1 0x0 MSTORE PUSH1 0x20 PUSH1 0x0 KECCAK256 SWAP1 JUMPDEST DUP2 SLOAD DUP2 MSTORE SWAP1 PUSH1 0x1 ADD SWAP1 PUSH1 0x20 ADD DUP1 DUP4 GT PUSH2 0x885 JUMPI DUP3 SWAP1 SUB PUSH1 0x1F AND DUP3 ADD SWAP2 JUMPDEST POP POP POP POP POP SWAP1 POP SWAP1 JUMP JUMPDEST PUSH1 0x0 DUP1 PUSH2 0x8BB DUP7 DUP7 DUP7 DUP7 PUSH2 0xFF0 JUMP JUMPDEST SWAP1 POP PUSH1 0x4 PUSH2 0x8C8 DUP3 PUSH2 0xC8F JUMP JUMPDEST PUSH1 0x7 DUP2 GT ISZERO PUSH2 0x8D9 JUMPI PUSH2 0x8D9 PUSH2 0x25D5 JUMP JUMPDEST EQ PUSH2 0x8F6 JUMPI PUSH1 0x40 MLOAD PUSH3 0x461BCD PUSH1 0xE5 SHL DUP2 MSTORE PUSH1 0x4 ADD PUSH2 0x773 SWAP1 PUSH2 0x28E8 JUMP JUMPDEST PUSH1 0x0 PUSH1 0x4 PUSH1 0x0 SWAP1 SLOAD SWAP1 PUSH2 0x100 EXP SWAP1 DIV PUSH1 0x1 PUSH1 0x1 PUSH1 0xA0 SHL SUB AND PUSH1 0x1 PUSH1 0x1 PUSH1 0xA0 SHL SUB AND PUSH4 0xF27A0C92 PUSH1 0x40 MLOAD DUP2 PUSH4 0xFFFFFFFF AND PUSH1 0xE0 SHL DUP2 MSTORE PUSH1 0x4 ADD PUSH1 0x20 PUSH1 0x40 MLOAD DUP1 DUP4 SUB DUP2 DUP7 GAS STATICCALL ISZERO DUP1 ISZERO PUSH2 0x94B JUMPI RETURNDATASIZE PUSH1 0x0 DUP1 RETURNDATACOPY RETURNDATASIZE PUSH1 0x0 REVERT JUMPDEST POP POP POP POP PUSH1 0x40 MLOAD RETURNDATASIZE PUSH1 0x1F NOT PUSH1 0x1F DUP3 ADD AND DUP3 ADD DUP1 PUSH1 0x40 MSTORE POP DUP2 ADD SWAP1 PUSH2 0x96F SWAP2 SWAP1 PUSH2 0x28CF JUMP JUMPDEST PUSH1 0x4 DUP1 SLOAD PUSH1 0x40 MLOAD PUSH4 0xB1C5F427 PUSH1 0xE0 SHL DUP2 MSTORE SWAP3 SWAP4 POP PUSH1 0x1 PUSH1 0x1 PUSH1 0xA0 SHL SUB AND SWAP2 PUSH4 0xB1C5F427 SWAP2 PUSH2 0x9A8 SWAP2 DUP12 SWAP2 DUP12 SWAP2 DUP12 SWAP2 PUSH1 0x0 SWAP2 DUP13 SWAP2 ADD PUSH2 0x29EF JUMP JUMPDEST PUSH1 0x20 PUSH1 0x40 MLOAD DUP1 DUP4 SUB DUP2 DUP7 GAS STATICCALL ISZERO DUP1 ISZERO PUSH2 0x9C5 JUMPI RETURNDATASIZE PUSH1 0x0 DUP1 RETURNDATACOPY RETURNDATASIZE PUSH1 0x0 REVERT JUMPDEST POP POP POP POP PUSH1 0x40 MLOAD RETURNDATASIZE PUSH1 0x1F NOT PUSH1 0x1F DUP3 ADD AND DUP3 ADD DUP1 PUSH1 0x40 MSTORE POP DUP2 ADD SWAP1 PUSH2 0x9E9 SWAP2 SWAP1 PUSH2 0x28CF JUMP JUMPDEST PUSH1 0x0 DUP4 DUP2 MSTORE PUSH1 0x5 PUSH1 0x20 MSTORE PUSH1 0x40 DUP1 DUP3 KECCAK256 SWAP3 SWAP1 SWAP3 SSTORE PUSH1 0x4 DUP1 SLOAD SWAP3 MLOAD PUSH4 0x8F2A0BB PUSH1 0xE4 SHL DUP2 MSTORE PUSH1 0x1 PUSH1 0x1 PUSH1 0xA0 SHL SUB SWAP1 SWAP4 AND SWAP3 PUSH4 0x8F2A0BB0 SWAP3 PUSH2 0xA34 SWAP3 DUP13 SWAP3 DUP13 SWAP3 DUP13 SWAP3 SWAP1 SWAP2 DUP13 SWAP2 DUP11 SWAP2 ADD PUSH2 0x2A3D JUMP JUMPDEST PUSH1 0x0 PUSH1 0x40 MLOAD DUP1 DUP4 SUB DUP2 PUSH1 0x0 DUP8 DUP1 EXTCODESIZE ISZERO DUP1 ISZERO PUSH2 0xA4E JUMPI PUSH1 0x0 DUP1 REVERT JUMPDEST POP GAS CALL ISZERO DUP1 ISZERO PUSH2 0xA62 JUMPI RETURNDATASIZE PUSH1 0x0 DUP1 RETURNDATACOPY RETURNDATASIZE PUSH1 0x0 REVERT JUMPDEST POP POP POP POP PUSH32 0x9A2E42FD6722813D69113E7D0079D3D940171428DF7373DF9C7F7617CFDA2892 DUP3 DUP3 TIMESTAMP PUSH2 0xA94 SWAP2 SWAP1 PUSH2 0x2AAB JUMP JUMPDEST PUSH1 0x40 DUP1 MLOAD SWAP3 DUP4 MSTORE PUSH1 0x20 DUP4 ADD SWAP2 SWAP1 SWAP2 MSTORE ADD JUMPDEST PUSH1 0x40 MLOAD DUP1 SWAP2 SUB SWAP1 LOG1 POP SWAP6 SWAP5 POP POP POP POP POP JUMP JUMPDEST PUSH1 0x0 DUP1 PUSH2 0xAC6 DUP7 DUP7 DUP7 DUP7 PUSH2 0xFF0 JUMP JUMPDEST SWAP1 POP PUSH1 0x0 PUSH2 0xAD3 DUP3 PUSH2 0xC8F JUMP JUMPDEST SWAP1 POP PUSH1 0x4 DUP2 PUSH1 0x7 DUP2 GT ISZERO PUSH2 0xAE9 JUMPI PUSH2 0xAE9 PUSH2 0x25D5 JUMP JUMPDEST EQ DUP1 PUSH2 0xB06 JUMPI POP PUSH1 0x5 DUP2 PUSH1 0x7 DUP2 GT ISZERO PUSH2 0xB04 JUMPI PUSH2 0xB04 PUSH2 0x25D5 JUMP JUMPDEST EQ JUMPDEST PUSH2 0xB22 JUMPI PUSH1 0x40 MLOAD PUSH3 0x461BCD PUSH1 0xE5 SHL DUP2 MSTORE PUSH1 0x4 ADD PUSH2 0x773 SWAP1 PUSH2 0x28E8 JUMP JUMPDEST PUSH1 0x0 DUP3 DUP2 MSTORE PUSH1 0x1 PUSH1 0x20 DUP2 DUP2 MSTORE PUSH1 0x40 SWAP3 DUP4 SWAP1 KECCAK256 PUSH1 0x2 ADD DUP1 SLOAD PUSH1 0xFF NOT AND SWAP1 SWAP3 OR SWAP1 SWAP2 SSTORE SWAP1 MLOAD DUP4 DUP2 MSTORE PUSH32 0x712AE1383F79AC853F8D882153778E0260EF8F03B504E2866E0593E04D2B291F SWAP2 ADD PUSH1 0x40 MLOAD DUP1 SWAP2 SUB SWAP1 LOG1 PUSH2 0xB80 DUP3 DUP9 DUP9 DUP9 DUP9 PUSH2 0x1142 JUMP JUMPDEST POP SWAP6 SWAP5 POP POP POP POP POP JUMP JUMPDEST PUSH1 0x0 DUP2 DUP2 MSTORE PUSH1 0x1 PUSH1 0x20 SWAP1 DUP2 MSTORE PUSH1 0x40 DUP1 DUP4 KECCAK256 DUP2 MLOAD SWAP3 DUP4 ADD SWAP1 SWAP2 MSTORE SLOAD PUSH1 0x1 PUSH1 0x1 PUSH1 0x40 SHL SUB AND SWAP1 DUP2 SWAP1 MSTORE JUMPDEST PUSH1 0x1 PUSH1 0x1 PUSH1 0x40 SHL SUB AND SWAP3 SWAP2 POP POP JUMP JUMPDEST PUSH1 0x0 PUSH2 0xBD5 PUSH1 0x4F SLOAD PUSH1 0x1 PUSH1 0x1 PUSH1 0xA0 SHL SUB AND SWAP1 JUMP JUMPDEST PUSH1 0x1 PUSH1 0x1 PUSH1 0xA0 SHL SUB AND PUSH4 0xBD02D0F5 PUSH1 0x9 PUSH1 0x41 ADD PUSH1 0x0 ADD PUSH1 0x40 MLOAD PUSH1 0x20 ADD PUSH2 0x69A SWAP2 SWAP1 PUSH2 0x2833 JUMP JUMPDEST PUSH1 0x40 DUP1 MLOAD PUSH32 0x150214D74D59B7D1E90C73FC22EF3D991DD0A76B046543D4D80AB92D2A50328F PUSH1 0x20 DUP3 ADD MSTORE SWAP1 DUP2 ADD DUP7 SWAP1 MSTORE PUSH1 0xFF DUP6 AND PUSH1 0x60 DUP3 ADD MSTORE PUSH1 0x0 SWAP1 DUP2 SWAP1 PUSH2 0xC67 SWAP1 PUSH2 0xC5F SWAP1 PUSH1 0x80 ADD PUSH1 0x40 MLOAD PUSH1 0x20 DUP2 DUP4 SUB SUB DUP2 MSTORE SWAP1 PUSH1 0x40 MSTORE DUP1 MLOAD SWAP1 PUSH1 0x20 ADD KECCAK256 PUSH2 0x1171 JUMP JUMPDEST DUP7 DUP7 DUP7 PUSH2 0x11BF JUMP JUMPDEST SWAP1 POP PUSH2 0xC84 DUP8 DUP3 DUP9 PUSH1 0x40 MLOAD DUP1 PUSH1 0x20 ADD PUSH1 0x40 MSTORE DUP1 PUSH1 0x0 DUP2 MSTORE POP PUSH2 0x11DD JUMP JUMPDEST SWAP8 SWAP7 POP POP POP POP POP POP POP JUMP JUMPDEST PUSH1 0x0 PUSH2 0x65A DUP3 PUSH2 0x12E8 JUMP JUMPDEST PUSH1 0x0 DUP1 PUSH2 0xCA9 DUP7 DUP7 DUP7 DUP7 PUSH2 0xFF0 JUMP JUMPDEST PUSH1 0x0 DUP2 DUP2 MSTORE PUSH1 0x51 PUSH1 0x20 MSTORE PUSH1 0x40 SWAP1 KECCAK256 SLOAD SWAP1 SWAP2 POP PUSH1 0x1 PUSH1 0x1 PUSH1 0xA0 SHL SUB AND CALLER EQ DUP1 PUSH2 0xCFD JUMPI POP PUSH2 0xCD4 PUSH2 0xF87 JUMP JUMPDEST PUSH1 0x0 DUP3 DUP2 MSTORE PUSH1 0x51 PUSH1 0x20 MSTORE PUSH1 0x40 SWAP1 KECCAK256 SLOAD PUSH2 0xCFB SWAP1 PUSH1 0x1 PUSH1 0x1 PUSH1 0xA0 SHL SUB AND PUSH2 0x5F6 PUSH1 0x1 NUMBER PUSH2 0x2AC3 JUMP JUMPDEST LT JUMPDEST PUSH2 0xD61 JUMPI PUSH1 0x40 MLOAD PUSH3 0x461BCD PUSH1 0xE5 SHL DUP2 MSTORE PUSH1 0x20 PUSH1 0x4 DUP3 ADD MSTORE PUSH1 0x2F PUSH1 0x24 DUP3 ADD MSTORE PUSH32 0x5068616E746F6D476F7665726E6F723A206F6E6C792070726F706F73616C206F PUSH1 0x44 DUP3 ADD MSTORE PUSH15 0x1DDB995C8818D85B8818D85B98D95B PUSH1 0x8A SHL PUSH1 0x64 DUP3 ADD MSTORE PUSH1 0x84 ADD PUSH2 0x773 JUMP JUMPDEST PUSH1 0x0 PUSH2 0xD6F DUP8 DUP8 DUP8 DUP8 PUSH2 0x13B4 JUMP JUMPDEST PUSH1 0x0 SWAP3 DUP4 MSTORE PUSH1 0x51 PUSH1 0x20 MSTORE PUSH1 0x40 SWAP1 SWAP3 KECCAK256 DUP1 SLOAD PUSH1 0x1 PUSH1 0x1 PUSH1 0xA0 SHL SUB NOT AND SWAP1 SSTORE POP SWAP6 SWAP5 POP POP POP POP POP JUMP JUMPDEST PUSH1 0x0 DUP1 CALLER SWAP1 POP PUSH2 0xDB7 DUP5 DUP3 DUP6 PUSH1 0x40 MLOAD DUP1 PUSH1 0x20 ADD PUSH1 0x40 MSTORE DUP1 PUSH1 0x0 DUP2 MSTORE POP PUSH2 0x11DD JUMP JUMPDEST SWAP5 SWAP4 POP POP POP POP JUMP JUMPDEST PUSH1 0x0 DUP1 CALLER SWAP1 POP PUSH2 0xE07 DUP7 DUP3 DUP8 DUP8 DUP8 DUP1 DUP1 PUSH1 0x1F ADD PUSH1 0x20 DUP1 SWAP2 DIV MUL PUSH1 0x20 ADD PUSH1 0x40 MLOAD SWAP1 DUP2 ADD PUSH1 0x40 MSTORE DUP1 SWAP4 SWAP3 SWAP2 SWAP1 DUP2 DUP2 MSTORE PUSH1 0x20 ADD DUP4 DUP4 DUP1 DUP3 DUP5 CALLDATACOPY PUSH1 0x0 SWAP3 ADD SWAP2 SWAP1 SWAP2 MSTORE POP PUSH2 0x11DD SWAP3 POP POP POP JUMP JUMPDEST SWAP7 SWAP6 POP POP POP POP POP POP JUMP JUMPDEST PUSH1 0x0 DUP1 PUSH2 0xE20 DUP7 DUP7 DUP7 DUP7 PUSH2 0x13CB JUMP JUMPDEST PUSH1 0x0 DUP2 DUP2 MSTORE PUSH1 0x51 PUSH1 0x20 MSTORE PUSH1 0x40 SWAP1 KECCAK256 DUP1 SLOAD PUSH1 0x1 PUSH1 0x1 PUSH1 0xA0 SHL SUB NOT AND CALLER OR SWAP1 SSTORE SWAP2 POP POP SWAP5 SWAP4 POP POP POP POP JUMP JUMPDEST PUSH1 0x0 PUSH2 0xE5D PUSH1 0x4F SLOAD PUSH1 0x1 PUSH1 0x1 PUSH1 0xA0 SHL SUB AND SWAP1 JUMP JUMPDEST PUSH1 0x1 PUSH1 0x1 PUSH1 0xA0 SHL SUB AND PUSH4 0xBD02D0F5 PUSH1 0x9 PUSH1 0x41 ADD PUSH1 0x2 ADD PUSH1 0x40 MLOAD PUSH1 0x20 ADD PUSH2 0x69A SWAP2 SWAP1 PUSH2 0x2833 JUMP JUMPDEST PUSH2 0xE8B PUSH2 0x1066 JUMP JUMPDEST PUSH1 0x1 PUSH1 0x1 PUSH1 0xA0 SHL SUB AND CALLER PUSH1 0x1 PUSH1 0x1 PUSH1 0xA0 SHL SUB AND EQ PUSH2 0xEE6 JUMPI PUSH1 0x40 MLOAD PUSH3 0x461BCD PUSH1 0xE5 SHL DUP2 MSTORE PUSH1 0x20 PUSH1 0x4 DUP3 ADD MSTORE PUSH1 0x18 PUSH1 0x24 DUP3 ADD MSTORE PUSH24 0x476F7665726E6F723A206F6E6C79476F7665726E616E6365 PUSH1 0x40 SHL PUSH1 0x44 DUP3 ADD MSTORE PUSH1 0x64 ADD PUSH2 0x773 JUMP JUMPDEST PUSH2 0xEEF DUP2 PUSH2 0x1470 JUMP JUMPDEST POP JUMP JUMPDEST PUSH1 0x4 DUP1 SLOAD PUSH1 0x0 DUP4 DUP2 MSTORE PUSH1 0x5 PUSH1 0x20 MSTORE PUSH1 0x40 DUP1 DUP3 KECCAK256 SLOAD SWAP1 MLOAD PUSH4 0xD45C4435 PUSH1 0xE0 SHL DUP2 MSTORE SWAP4 DUP5 ADD MSTORE SWAP2 DUP3 SWAP2 PUSH1 0x1 PUSH1 0x1 PUSH1 0xA0 SHL SUB AND SWAP1 PUSH4 0xD45C4435 SWAP1 PUSH1 0x24 ADD PUSH1 0x20 PUSH1 0x40 MLOAD DUP1 DUP4 SUB DUP2 DUP7 GAS STATICCALL ISZERO DUP1 ISZERO PUSH2 0xF49 JUMPI RETURNDATASIZE PUSH1 0x0 DUP1 RETURNDATACOPY RETURNDATASIZE PUSH1 0x0 REVERT JUMPDEST POP POP POP POP PUSH1 0x40 MLOAD RETURNDATASIZE PUSH1 0x1F NOT PUSH1 0x1F DUP3 ADD AND DUP3 ADD DUP1 PUSH1 0x40 MSTORE POP DUP2 ADD SWAP1 PUSH2 0xF6D SWAP2 SWAP1 PUSH2 0x28CF JUMP JUMPDEST SWAP1 POP DUP1 PUSH1 0x1 EQ PUSH2 0xF7D JUMPI DUP1 PUSH2 0xF80 JUMP JUMPDEST PUSH1 0x0 JUMPDEST SWAP4 SWAP3 POP POP POP JUMP JUMPDEST PUSH1 0x0 PUSH2 0xF9B PUSH1 0x4F SLOAD PUSH1 0x1 PUSH1 0x1 PUSH1 0xA0 SHL SUB AND SWAP1 JUMP JUMPDEST PUSH1 0x1 PUSH1 0x1 PUSH1 0xA0 SHL SUB AND PUSH4 0xBD02D0F5 PUSH1 0x9 PUSH1 0x41 ADD PUSH1 0x3 ADD PUSH1 0x40 MLOAD PUSH1 0x20 ADD PUSH2 0x69A SWAP2 SWAP1 PUSH2 0x2833 JUMP JUMPDEST PUSH1 0x0 DUP2 DUP2 MSTORE PUSH1 0x1 PUSH1 0x20 DUP2 DUP2 MSTORE PUSH1 0x40 DUP1 DUP5 KECCAK256 DUP2 MLOAD SWAP3 DUP4 ADD SWAP1 SWAP2 MSTORE SWAP1 SWAP2 ADD SLOAD PUSH1 0x1 PUSH1 0x1 PUSH1 0x40 SHL SUB AND SWAP1 DUP2 SWAP1 MSTORE PUSH2 0xBB2 JUMP JUMPDEST PUSH1 0x0 DUP5 DUP5 DUP5 DUP5 PUSH1 0x40 MLOAD PUSH1 0x20 ADD PUSH2 0x1009 SWAP5 SWAP4 SWAP3 SWAP2 SWAP1 PUSH2 0x2ADA JUMP JUMPDEST PUSH1 0x40 DUP1 MLOAD PUSH1 0x1F NOT DUP2 DUP5 SUB ADD DUP2 MSTORE SWAP2 SWAP1 MSTORE DUP1 MLOAD PUSH1 0x20 SWAP1 SWAP2 ADD KECCAK256 SWAP6 SWAP5 POP POP POP POP POP JUMP JUMPDEST PUSH1 0x0 PUSH2 0xF80 DUP4 DUP4 PUSH2 0x14D9 JUMP JUMPDEST PUSH1 0x0 PUSH2 0x65A DUP3 PUSH2 0x156F JUMP JUMPDEST PUSH1 0x0 PUSH1 0x1 PUSH1 0x1 PUSH1 0xE0 SHL SUB NOT DUP3 AND PUSH4 0x6E665CED PUSH1 0xE0 SHL EQ DUP1 PUSH2 0x65A JUMPI POP PUSH2 0x65A DUP3 PUSH2 0x1618 JUMP JUMPDEST PUSH1 0x0 PUSH2 0x70F PUSH1 0x4 SLOAD PUSH1 0x1 PUSH1 0x1 PUSH1 0xA0 SHL SUB AND SWAP1 JUMP JUMPDEST PUSH1 0x64 DUP2 GT ISZERO PUSH2 0x10FD JUMPI PUSH1 0x40 MLOAD PUSH3 0x461BCD PUSH1 0xE5 SHL DUP2 MSTORE PUSH1 0x20 PUSH1 0x4 DUP3 ADD MSTORE PUSH1 0x43 PUSH1 0x24 DUP3 ADD MSTORE PUSH32 0x476F7665726E6F72566F74657351756F72756D4672616374696F6E3A2071756F PUSH1 0x44 DUP3 ADD MSTORE PUSH32 0x72756D4E756D657261746F72206F7665722071756F72756D44656E6F6D696E61 PUSH1 0x64 DUP3 ADD MSTORE PUSH3 0x3A37B9 PUSH1 0xE9 SHL PUSH1 0x84 DUP3 ADD MSTORE PUSH1 0xA4 ADD PUSH2 0x773 JUMP JUMPDEST PUSH1 0x3 DUP1 SLOAD SWAP1 DUP3 SWAP1 SSTORE PUSH1 0x40 DUP1 MLOAD DUP3 DUP2 MSTORE PUSH1 0x20 DUP2 ADD DUP5 SWAP1 MSTORE PUSH32 0x553476BF02EF2726E8CE5CED78D63E26E602E4A2257B1F559418E24B4633997 SWAP2 ADD PUSH1 0x40 MLOAD DUP1 SWAP2 SUB SWAP1 LOG1 POP POP JUMP JUMPDEST PUSH2 0x114F DUP6 DUP6 DUP6 DUP6 DUP6 PUSH2 0x164D JUMP JUMPDEST POP POP POP PUSH1 0x0 SWAP2 DUP3 MSTORE POP PUSH1 0x51 PUSH1 0x20 MSTORE PUSH1 0x40 SWAP1 KECCAK256 DUP1 SLOAD PUSH1 0x1 PUSH1 0x1 PUSH1 0xA0 SHL SUB NOT AND SWAP1 SSTORE JUMP JUMPDEST PUSH1 0x0 PUSH2 0x65A PUSH2 0x117E PUSH2 0x16C0 JUMP JUMPDEST DUP4 PUSH1 0x40 MLOAD PUSH2 0x1901 PUSH1 0xF0 SHL PUSH1 0x20 DUP3 ADD MSTORE PUSH1 0x22 DUP2 ADD DUP4 SWAP1 MSTORE PUSH1 0x42 DUP2 ADD DUP3 SWAP1 MSTORE PUSH1 0x0 SWAP1 PUSH1 0x62 ADD PUSH1 0x40 MLOAD PUSH1 0x20 DUP2 DUP4 SUB SUB DUP2 MSTORE SWAP1 PUSH1 0x40 MSTORE DUP1 MLOAD SWAP1 PUSH1 0x20 ADD KECCAK256 SWAP1 POP SWAP3 SWAP2 POP POP JUMP JUMPDEST PUSH1 0x0 DUP1 PUSH1 0x0 PUSH2 0x11D0 DUP8 DUP8 DUP8 DUP8 PUSH2 0x17B3 JUMP JUMPDEST SWAP2 POP SWAP2 POP PUSH2 0xB80 DUP2 PUSH2 0x18A0 JUMP JUMPDEST PUSH1 0x0 DUP5 DUP2 MSTORE PUSH1 0x1 PUSH1 0x20 DUP2 SWAP1 MSTORE PUSH1 0x40 DUP3 KECCAK256 SWAP1 PUSH2 0x11F7 DUP8 PUSH2 0xC8F JUMP JUMPDEST PUSH1 0x7 DUP2 GT ISZERO PUSH2 0x1208 JUMPI PUSH2 0x1208 PUSH2 0x25D5 JUMP JUMPDEST EQ PUSH2 0x1261 JUMPI PUSH1 0x40 MLOAD PUSH3 0x461BCD PUSH1 0xE5 SHL DUP2 MSTORE PUSH1 0x20 PUSH1 0x4 DUP3 ADD MSTORE PUSH1 0x23 PUSH1 0x24 DUP3 ADD MSTORE PUSH32 0x476F7665726E6F723A20766F7465206E6F742063757272656E746C7920616374 PUSH1 0x44 DUP3 ADD MSTORE PUSH3 0x697665 PUSH1 0xE8 SHL PUSH1 0x64 DUP3 ADD MSTORE PUSH1 0x84 ADD PUSH2 0x773 JUMP JUMPDEST PUSH1 0x40 DUP1 MLOAD PUSH1 0x20 DUP2 ADD SWAP1 SWAP2 MSTORE DUP2 SLOAD PUSH1 0x1 PUSH1 0x1 PUSH1 0x40 SHL SUB AND SWAP1 DUP2 SWAP1 MSTORE PUSH1 0x0 SWAP1 PUSH2 0x1289 SWAP1 DUP8 SWAP1 PUSH2 0x102A JUMP JUMPDEST SWAP1 POP PUSH2 0x1297 DUP8 DUP8 DUP8 DUP5 PUSH2 0x1A5B JUMP JUMPDEST DUP6 PUSH1 0x1 PUSH1 0x1 PUSH1 0xA0 SHL SUB AND PUSH32 0xB8E138887D0AA13BAB447E82DE9D5C1777041ECD21CA36BA824FF1E6C07DDDA4 DUP9 DUP8 DUP5 DUP9 PUSH1 0x40 MLOAD PUSH2 0x12D6 SWAP5 SWAP4 SWAP3 SWAP2 SWAP1 PUSH2 0x2B25 JUMP JUMPDEST PUSH1 0x40 MLOAD DUP1 SWAP2 SUB SWAP1 LOG2 SWAP7 SWAP6 POP POP POP POP POP POP JUMP JUMPDEST PUSH1 0x0 DUP1 PUSH2 0x12F4 DUP4 PUSH2 0x1BDA JUMP JUMPDEST SWAP1 POP PUSH1 0x4 DUP2 PUSH1 0x7 DUP2 GT ISZERO PUSH2 0x130A JUMPI PUSH2 0x130A PUSH2 0x25D5 JUMP JUMPDEST EQ PUSH2 0x1315 JUMPI SWAP3 SWAP2 POP POP JUMP JUMPDEST PUSH1 0x0 DUP4 DUP2 MSTORE PUSH1 0x5 PUSH1 0x20 MSTORE PUSH1 0x40 SWAP1 KECCAK256 SLOAD DUP1 PUSH2 0x1330 JUMPI POP SWAP3 SWAP2 POP POP JUMP JUMPDEST PUSH1 0x4 DUP1 SLOAD PUSH1 0x40 MLOAD PUSH4 0x2AB0F529 PUSH1 0xE0 SHL DUP2 MSTORE SWAP2 DUP3 ADD DUP4 SWAP1 MSTORE PUSH1 0x1 PUSH1 0x1 PUSH1 0xA0 SHL SUB AND SWAP1 PUSH4 0x2AB0F529 SWAP1 PUSH1 0x24 ADD PUSH1 0x20 PUSH1 0x40 MLOAD DUP1 DUP4 SUB DUP2 DUP7 GAS STATICCALL ISZERO DUP1 ISZERO PUSH2 0x1377 JUMPI RETURNDATASIZE PUSH1 0x0 DUP1 RETURNDATACOPY RETURNDATASIZE PUSH1 0x0 REVERT JUMPDEST POP POP POP POP PUSH1 0x40 MLOAD RETURNDATASIZE PUSH1 0x1F NOT PUSH1 0x1F DUP3 ADD AND DUP3 ADD DUP1 PUSH1 0x40 MSTORE POP DUP2 ADD SWAP1 PUSH2 0x139B SWAP2 SWAP1 PUSH2 0x2B4D JUMP JUMPDEST ISZERO PUSH2 0x13AA JUMPI POP PUSH1 0x7 SWAP4 SWAP3 POP POP POP JUMP JUMPDEST POP PUSH1 0x5 SWAP4 SWAP3 POP POP POP JUMP JUMPDEST PUSH1 0x0 PUSH2 0x13C2 DUP6 DUP6 DUP6 DUP6 PUSH2 0x1D3D JUMP JUMPDEST SWAP6 SWAP5 POP POP POP POP POP JUMP JUMPDEST PUSH1 0x0 PUSH2 0x13D5 PUSH2 0xF87 JUMP JUMPDEST PUSH2 0x13E4 CALLER PUSH2 0x5F6 PUSH1 0x1 NUMBER PUSH2 0x2AC3 JUMP JUMPDEST LT ISZERO PUSH2 0x1464 JUMPI PUSH1 0x40 MLOAD PUSH3 0x461BCD PUSH1 0xE5 SHL DUP2 MSTORE PUSH1 0x20 PUSH1 0x4 DUP3 ADD MSTORE PUSH1 0x43 PUSH1 0x24 DUP3 ADD MSTORE PUSH32 0x476F7665726E6F72436F6D7061746962696C697479427261766F3A2070726F70 PUSH1 0x44 DUP3 ADD MSTORE PUSH32 0x6F73657220766F7465732062656C6F772070726F706F73616C20746872657368 PUSH1 0x64 DUP3 ADD MSTORE PUSH3 0x1BDB19 PUSH1 0xEA SHL PUSH1 0x84 DUP3 ADD MSTORE PUSH1 0xA4 ADD PUSH2 0x773 JUMP JUMPDEST PUSH2 0x13C2 DUP6 DUP6 DUP6 DUP6 PUSH2 0x1DE5 JUMP JUMPDEST PUSH1 0x4 SLOAD PUSH1 0x40 DUP1 MLOAD PUSH1 0x1 PUSH1 0x1 PUSH1 0xA0 SHL SUB SWAP3 DUP4 AND DUP2 MSTORE SWAP2 DUP4 AND PUSH1 0x20 DUP4 ADD MSTORE PUSH32 0x8F74EA46EF7894F65EABFB5E6E695DE773A000B47C529AB559178069B226401 SWAP2 ADD PUSH1 0x40 MLOAD DUP1 SWAP2 SUB SWAP1 LOG1 PUSH1 0x4 DUP1 SLOAD PUSH1 0x1 PUSH1 0x1 PUSH1 0xA0 SHL SUB NOT AND PUSH1 0x1 PUSH1 0x1 PUSH1 0xA0 SHL SUB SWAP3 SWAP1 SWAP3 AND SWAP2 SWAP1 SWAP2 OR SWAP1 SSTORE JUMP JUMPDEST PUSH1 0x40 MLOAD PUSH4 0x748D635 PUSH1 0xE3 SHL DUP2 MSTORE PUSH1 0x1 PUSH1 0x1 PUSH1 0xA0 SHL SUB DUP4 DUP2 AND PUSH1 0x4 DUP4 ADD MSTORE PUSH1 0x24 DUP3 ADD DUP4 SWAP1 MSTORE PUSH1 0x0 SWAP2 PUSH32 0x0 SWAP1 SWAP2 AND SWAP1 PUSH4 0x3A46B1A8 SWAP1 PUSH1 0x44 ADD PUSH1 0x20 PUSH1 0x40 MLOAD DUP1 DUP4 SUB DUP2 DUP7 GAS STATICCALL ISZERO DUP1 ISZERO PUSH2 0x154B JUMPI RETURNDATASIZE PUSH1 0x0 DUP1 RETURNDATACOPY RETURNDATASIZE PUSH1 0x0 REVERT JUMPDEST POP POP POP POP PUSH1 0x40 MLOAD RETURNDATASIZE PUSH1 0x1F NOT PUSH1 0x1F DUP3 ADD AND DUP3 ADD DUP1 PUSH1 0x40 MSTORE POP DUP2 ADD SWAP1 PUSH2 0xF80 SWAP2 SWAP1 PUSH2 0x28CF JUMP JUMPDEST PUSH1 0x0 PUSH1 0x64 PUSH2 0x157B PUSH2 0xE49 JUMP JUMPDEST PUSH1 0x40 MLOAD PUSH4 0x2394E7A3 PUSH1 0xE2 SHL DUP2 MSTORE PUSH1 0x4 DUP2 ADD DUP6 SWAP1 MSTORE PUSH32 0x0 PUSH1 0x1 PUSH1 0x1 PUSH1 0xA0 SHL SUB AND SWAP1 PUSH4 0x8E539E8C SWAP1 PUSH1 0x24 ADD PUSH1 0x20 PUSH1 0x40 MLOAD DUP1 DUP4 SUB DUP2 DUP7 GAS STATICCALL ISZERO DUP1 ISZERO PUSH2 0x15E0 JUMPI RETURNDATASIZE PUSH1 0x0 DUP1 RETURNDATACOPY RETURNDATASIZE PUSH1 0x0 REVERT JUMPDEST POP POP POP POP PUSH1 0x40 MLOAD RETURNDATASIZE PUSH1 0x1F NOT PUSH1 0x1F DUP3 ADD AND DUP3 ADD DUP1 PUSH1 0x40 MSTORE POP DUP2 ADD SWAP1 PUSH2 0x1604 SWAP2 SWAP1 PUSH2 0x28CF JUMP JUMPDEST PUSH2 0x160E SWAP2 SWAP1 PUSH2 0x2B6F JUMP JUMPDEST PUSH2 0x65A SWAP2 SWAP1 PUSH2 0x2B8E JUMP JUMPDEST PUSH1 0x0 PUSH1 0x1 PUSH1 0x1 PUSH1 0xE0 SHL SUB NOT DUP3 AND PUSH4 0xBF26D897 PUSH1 0xE0 SHL EQ DUP1 PUSH2 0x65A JUMPI POP PUSH4 0x1FFC9A7 PUSH1 0xE0 SHL PUSH1 0x1 PUSH1 0x1 PUSH1 0xE0 SHL SUB NOT DUP4 AND EQ PUSH2 0x65A JUMP JUMPDEST PUSH1 0x4 DUP1 SLOAD PUSH1 0x40 MLOAD PUSH4 0xE38335E5 PUSH1 0xE0 SHL DUP2 MSTORE PUSH1 0x1 PUSH1 0x1 PUSH1 0xA0 SHL SUB SWAP1 SWAP2 AND SWAP2 PUSH4 0xE38335E5 SWAP2 CALLVALUE SWAP2 PUSH2 0x1687 SWAP2 DUP10 SWAP2 DUP10 SWAP2 DUP10 SWAP2 PUSH1 0x0 SWAP2 DUP11 SWAP2 ADD PUSH2 0x29EF JUMP JUMPDEST PUSH1 0x0 PUSH1 0x40 MLOAD DUP1 DUP4 SUB DUP2 DUP6 DUP9 DUP1 EXTCODESIZE ISZERO DUP1 ISZERO PUSH2 0x16A0 JUMPI PUSH1 0x0 DUP1 REVERT JUMPDEST POP GAS CALL ISZERO DUP1 ISZERO PUSH2 0x16B4 JUMPI RETURNDATASIZE PUSH1 0x0 DUP1 RETURNDATACOPY RETURNDATASIZE PUSH1 0x0 REVERT JUMPDEST POP POP POP POP POP POP POP POP POP POP JUMP JUMPDEST PUSH1 0x0 PUSH32 0x0 CHAINID EQ ISZERO PUSH2 0x170F JUMPI POP PUSH32 0x0 SWAP1 JUMP JUMPDEST POP PUSH1 0x40 DUP1 MLOAD PUSH32 0x0 PUSH1 0x20 DUP1 DUP4 ADD SWAP2 SWAP1 SWAP2 MSTORE PUSH32 0x0 DUP3 DUP5 ADD MSTORE PUSH32 0x0 PUSH1 0x60 DUP4 ADD MSTORE CHAINID PUSH1 0x80 DUP4 ADD MSTORE ADDRESS PUSH1 0xA0 DUP1 DUP5 ADD SWAP2 SWAP1 SWAP2 MSTORE DUP4 MLOAD DUP1 DUP5 SUB SWAP1 SWAP2 ADD DUP2 MSTORE PUSH1 0xC0 SWAP1 SWAP3 ADD SWAP1 SWAP3 MSTORE DUP1 MLOAD SWAP2 ADD KECCAK256 SWAP1 JUMP JUMPDEST PUSH1 0x0 DUP1 PUSH32 0x7FFFFFFFFFFFFFFFFFFFFFFFFFFFFFFF5D576E7357A4501DDFE92F46681B20A0 DUP4 GT ISZERO PUSH2 0x17EA JUMPI POP PUSH1 0x0 SWAP1 POP PUSH1 0x3 PUSH2 0x1897 JUMP JUMPDEST DUP5 PUSH1 0xFF AND PUSH1 0x1B EQ ISZERO DUP1 ISZERO PUSH2 0x1802 JUMPI POP DUP5 PUSH1 0xFF AND PUSH1 0x1C EQ ISZERO JUMPDEST ISZERO PUSH2 0x1813 JUMPI POP PUSH1 0x0 SWAP1 POP PUSH1 0x4 PUSH2 0x1897 JUMP JUMPDEST PUSH1 0x40 DUP1 MLOAD PUSH1 0x0 DUP1 DUP3 MSTORE PUSH1 0x20 DUP3 ADD DUP1 DUP5 MSTORE DUP10 SWAP1 MSTORE PUSH1 0xFF DUP9 AND SWAP3 DUP3 ADD SWAP3 SWAP1 SWAP3 MSTORE PUSH1 0x60 DUP2 ADD DUP7 SWAP1 MSTORE PUSH1 0x80 DUP2 ADD DUP6 SWAP1 MSTORE PUSH1 0x1 SWAP1 PUSH1 0xA0 ADD PUSH1 0x20 PUSH1 0x40 MLOAD PUSH1 0x20 DUP2 SUB SWAP1 DUP1 DUP5 SUB SWAP1 DUP6 GAS STATICCALL ISZERO DUP1 ISZERO PUSH2 0x1867 JUMPI RETURNDATASIZE PUSH1 0x0 DUP1 RETURNDATACOPY RETURNDATASIZE PUSH1 0x0 REVERT JUMPDEST POP POP PUSH1 0x40 MLOAD PUSH1 0x1F NOT ADD MLOAD SWAP2 POP POP PUSH1 0x1 PUSH1 0x1 PUSH1 0xA0 SHL SUB DUP2 AND PUSH2 0x1890 JUMPI PUSH1 0x0 PUSH1 0x1 SWAP3 POP SWAP3 POP POP PUSH2 0x1897 JUMP JUMPDEST SWAP2 POP PUSH1 0x0 SWAP1 POP JUMPDEST SWAP5 POP SWAP5 SWAP3 POP POP POP JUMP JUMPDEST PUSH1 0x0 DUP2 PUSH1 0x4 DUP2 GT ISZERO PUSH2 0x18B4 JUMPI PUSH2 0x18B4 PUSH2 0x25D5 JUMP JUMPDEST EQ ISZERO PUSH2 0x18BD JUMPI POP JUMP JUMPDEST PUSH1 0x1 DUP2 PUSH1 0x4 DUP2 GT ISZERO PUSH2 0x18D1 JUMPI PUSH2 0x18D1 PUSH2 0x25D5 JUMP JUMPDEST EQ ISZERO PUSH2 0x191F JUMPI PUSH1 0x40 MLOAD PUSH3 0x461BCD PUSH1 0xE5 SHL DUP2 MSTORE PUSH1 0x20 PUSH1 0x4 DUP3 ADD MSTORE PUSH1 0x18 PUSH1 0x24 DUP3 ADD MSTORE PUSH32 0x45434453413A20696E76616C6964207369676E61747572650000000000000000 PUSH1 0x44 DUP3 ADD MSTORE PUSH1 0x64 ADD PUSH2 0x773 JUMP JUMPDEST PUSH1 0x2 DUP2 PUSH1 0x4 DUP2 GT ISZERO PUSH2 0x1933 JUMPI PUSH2 0x1933 PUSH2 0x25D5 JUMP JUMPDEST EQ ISZERO PUSH2 0x1981 JUMPI PUSH1 0x40 MLOAD PUSH3 0x461BCD PUSH1 0xE5 SHL DUP2 MSTORE PUSH1 0x20 PUSH1 0x4 DUP3 ADD MSTORE PUSH1 0x1F PUSH1 0x24 DUP3 ADD MSTORE PUSH32 0x45434453413A20696E76616C6964207369676E6174757265206C656E67746800 PUSH1 0x44 DUP3 ADD MSTORE PUSH1 0x64 ADD PUSH2 0x773 JUMP JUMPDEST PUSH1 0x3 DUP2 PUSH1 0x4 DUP2 GT ISZERO PUSH2 0x1995 JUMPI PUSH2 0x1995 PUSH2 0x25D5 JUMP JUMPDEST EQ ISZERO PUSH2 0x19EE JUMPI PUSH1 0x40 MLOAD PUSH3 0x461BCD PUSH1 0xE5 SHL DUP2 MSTORE PUSH1 0x20 PUSH1 0x4 DUP3 ADD MSTORE PUSH1 0x22 PUSH1 0x24 DUP3 ADD MSTORE PUSH32 0x45434453413A20696E76616C6964207369676E6174757265202773272076616C PUSH1 0x44 DUP3 ADD MSTORE PUSH2 0x7565 PUSH1 0xF0 SHL PUSH1 0x64 DUP3 ADD MSTORE PUSH1 0x84 ADD PUSH2 0x773 JUMP JUMPDEST PUSH1 0x4 DUP2 PUSH1 0x4 DUP2 GT ISZERO PUSH2 0x1A02 JUMPI PUSH2 0x1A02 PUSH2 0x25D5 JUMP JUMPDEST EQ ISZERO PUSH2 0xEEF JUMPI PUSH1 0x40 MLOAD PUSH3 0x461BCD PUSH1 0xE5 SHL DUP2 MSTORE PUSH1 0x20 PUSH1 0x4 DUP3 ADD MSTORE PUSH1 0x22 PUSH1 0x24 DUP3 ADD MSTORE PUSH32 0x45434453413A20696E76616C6964207369676E6174757265202776272076616C PUSH1 0x44 DUP3 ADD MSTORE PUSH2 0x7565 PUSH1 0xF0 SHL PUSH1 0x64 DUP3 ADD MSTORE PUSH1 0x84 ADD PUSH2 0x773 JUMP JUMPDEST PUSH1 0x0 DUP5 DUP2 MSTORE PUSH1 0x2 PUSH1 0x20 SWAP1 DUP2 MSTORE PUSH1 0x40 DUP1 DUP4 KECCAK256 PUSH1 0x1 PUSH1 0x1 PUSH1 0xA0 SHL SUB DUP8 AND DUP5 MSTORE PUSH1 0x3 DUP2 ADD SWAP1 SWAP3 MSTORE SWAP1 SWAP2 KECCAK256 SLOAD PUSH1 0xFF AND ISZERO PUSH2 0x1AE3 JUMPI PUSH1 0x40 MLOAD PUSH3 0x461BCD PUSH1 0xE5 SHL DUP2 MSTORE PUSH1 0x20 PUSH1 0x4 DUP3 ADD MSTORE PUSH1 0x27 PUSH1 0x24 DUP3 ADD MSTORE PUSH32 0x476F7665726E6F72566F74696E6753696D706C653A20766F746520616C726561 PUSH1 0x44 DUP3 ADD MSTORE PUSH7 0x191E4818D85CDD PUSH1 0xCA SHL PUSH1 0x64 DUP3 ADD MSTORE PUSH1 0x84 ADD PUSH2 0x773 JUMP JUMPDEST PUSH1 0x1 PUSH1 0x1 PUSH1 0xA0 SHL SUB DUP5 AND PUSH1 0x0 SWAP1 DUP2 MSTORE PUSH1 0x3 DUP3 ADD PUSH1 0x20 MSTORE PUSH1 0x40 DUP2 KECCAK256 DUP1 SLOAD PUSH1 0xFF NOT AND PUSH1 0x1 OR SWAP1 SSTORE PUSH1 0xFF AND DUP4 PUSH1 0xFF AND EQ ISZERO PUSH2 0x1B34 JUMPI DUP2 DUP2 PUSH1 0x0 ADD PUSH1 0x0 DUP3 DUP3 SLOAD PUSH2 0x1B29 SWAP2 SWAP1 PUSH2 0x2AAB JUMP JUMPDEST SWAP1 SWAP2 SSTORE POP PUSH2 0x813 SWAP1 POP JUMP JUMPDEST PUSH1 0xFF DUP4 AND PUSH1 0x1 EQ ISZERO PUSH2 0x1B54 JUMPI DUP2 DUP2 PUSH1 0x1 ADD PUSH1 0x0 DUP3 DUP3 SLOAD PUSH2 0x1B29 SWAP2 SWAP1 PUSH2 0x2AAB JUMP JUMPDEST PUSH1 0xFF DUP4 AND PUSH1 0x2 EQ ISZERO PUSH2 0x1B74 JUMPI DUP2 DUP2 PUSH1 0x2 ADD PUSH1 0x0 DUP3 DUP3 SLOAD PUSH2 0x1B29 SWAP2 SWAP1 PUSH2 0x2AAB JUMP JUMPDEST PUSH1 0x40 MLOAD PUSH3 0x461BCD PUSH1 0xE5 SHL DUP2 MSTORE PUSH1 0x20 PUSH1 0x4 DUP3 ADD MSTORE PUSH1 0x35 PUSH1 0x24 DUP3 ADD MSTORE PUSH32 0x476F7665726E6F72566F74696E6753696D706C653A20696E76616C6964207661 PUSH1 0x44 DUP3 ADD MSTORE PUSH21 0x6C756520666F7220656E756D20566F746554797065 PUSH1 0x58 SHL PUSH1 0x64 DUP3 ADD MSTORE PUSH1 0x84 ADD PUSH2 0x773 JUMP JUMPDEST PUSH1 0x0 DUP2 DUP2 MSTORE PUSH1 0x1 PUSH1 0x20 DUP2 DUP2 MSTORE PUSH1 0x40 DUP1 DUP5 KECCAK256 DUP2 MLOAD PUSH1 0xA0 DUP2 ADD DUP4 MSTORE DUP2 SLOAD PUSH1 0x1 PUSH1 0x1 PUSH1 0x40 SHL SUB SWAP1 DUP2 AND PUSH1 0x80 DUP4 ADD SWAP1 DUP2 MSTORE DUP3 MSTORE DUP4 MLOAD DUP1 DUP7 ADD DUP6 MSTORE SWAP6 DUP4 ADD SLOAD AND DUP6 MSTORE SWAP3 DUP4 ADD SWAP4 SWAP1 SWAP4 MSTORE PUSH1 0x2 SWAP1 SWAP3 ADD SLOAD PUSH1 0xFF DUP1 DUP3 AND ISZERO DUP1 ISZERO SWAP5 DUP5 ADD SWAP5 SWAP1 SWAP5 MSTORE PUSH2 0x100 SWAP1 SWAP2 DIV AND ISZERO ISZERO PUSH1 0x60 DUP3 ADD MSTORE SWAP1 PUSH2 0x1C4F JUMPI POP PUSH1 0x7 SWAP3 SWAP2 POP POP JUMP JUMPDEST DUP1 PUSH1 0x60 ADD MLOAD ISZERO PUSH2 0x1C62 JUMPI POP PUSH1 0x2 SWAP3 SWAP2 POP POP JUMP JUMPDEST DUP1 MLOAD MLOAD NUMBER PUSH1 0x1 PUSH1 0x1 PUSH1 0x40 SHL SUB SWAP1 SWAP2 AND GT ISZERO PUSH2 0x1C80 JUMPI POP PUSH1 0x0 SWAP3 SWAP2 POP POP JUMP JUMPDEST PUSH1 0x20 DUP2 ADD MLOAD MLOAD NUMBER PUSH1 0x1 PUSH1 0x1 PUSH1 0x40 SHL SUB SWAP1 SWAP2 AND GT ISZERO PUSH2 0x1CA1 JUMPI POP PUSH1 0x1 SWAP3 SWAP2 POP POP JUMP JUMPDEST PUSH2 0x1CAE DUP2 PUSH1 0x20 ADD MLOAD PUSH2 0x2028 JUMP JUMPDEST ISZERO PUSH2 0x1CEF JUMPI PUSH2 0x1CBC DUP4 PUSH2 0x2057 JUMP JUMPDEST DUP1 ISZERO PUSH2 0x1CDB JUMPI POP PUSH1 0x0 DUP4 DUP2 MSTORE PUSH1 0x2 PUSH1 0x20 MSTORE PUSH1 0x40 SWAP1 KECCAK256 DUP1 SLOAD PUSH1 0x1 SWAP1 SWAP2 ADD SLOAD GT JUMPDEST PUSH2 0x1CE6 JUMPI PUSH1 0x3 PUSH2 0xF80 JUMP JUMPDEST PUSH1 0x4 SWAP4 SWAP3 POP POP POP JUMP JUMPDEST PUSH1 0x40 MLOAD PUSH3 0x461BCD PUSH1 0xE5 SHL DUP2 MSTORE PUSH1 0x20 PUSH1 0x4 DUP3 ADD MSTORE PUSH1 0x1D PUSH1 0x24 DUP3 ADD MSTORE PUSH32 0x476F7665726E6F723A20756E6B6E6F776E2070726F706F73616C206964000000 PUSH1 0x44 DUP3 ADD MSTORE PUSH1 0x64 ADD PUSH2 0x773 JUMP JUMPDEST POP SWAP2 SWAP1 POP JUMP JUMPDEST PUSH1 0x0 DUP1 PUSH2 0x1D4C DUP7 DUP7 DUP7 DUP7 PUSH2 0x208F JUMP JUMPDEST PUSH1 0x0 DUP2 DUP2 MSTORE PUSH1 0x5 PUSH1 0x20 MSTORE PUSH1 0x40 SWAP1 KECCAK256 SLOAD SWAP1 SWAP2 POP ISZERO PUSH2 0x13C2 JUMPI PUSH1 0x4 DUP1 SLOAD PUSH1 0x0 DUP4 DUP2 MSTORE PUSH1 0x5 PUSH1 0x20 MSTORE PUSH1 0x40 SWAP1 DUP2 SWAP1 KECCAK256 SLOAD SWAP1 MLOAD PUSH4 0xC4D252F5 PUSH1 0xE0 SHL DUP2 MSTORE SWAP3 DUP4 ADD MSTORE PUSH1 0x1 PUSH1 0x1 PUSH1 0xA0 SHL SUB AND SWAP1 PUSH4 0xC4D252F5 SWAP1 PUSH1 0x24 ADD PUSH1 0x0 PUSH1 0x40 MLOAD DUP1 DUP4 SUB DUP2 PUSH1 0x0 DUP8 DUP1 EXTCODESIZE ISZERO DUP1 ISZERO PUSH2 0x1DB5 JUMPI PUSH1 0x0 DUP1 REVERT JUMPDEST POP GAS CALL ISZERO DUP1 ISZERO PUSH2 0x1DC9 JUMPI RETURNDATASIZE PUSH1 0x0 DUP1 RETURNDATACOPY RETURNDATASIZE PUSH1 0x0 REVERT JUMPDEST POP POP POP PUSH1 0x0 DUP3 DUP2 MSTORE PUSH1 0x5 PUSH1 0x20 MSTORE PUSH1 0x40 DUP2 KECCAK256 SSTORE POP SWAP6 SWAP5 POP POP POP POP POP JUMP JUMPDEST PUSH1 0x0 DUP1 PUSH2 0x1DFB DUP7 DUP7 DUP7 DUP7 DUP1 MLOAD SWAP1 PUSH1 0x20 ADD KECCAK256 PUSH2 0xFF0 JUMP JUMPDEST SWAP1 POP DUP5 MLOAD DUP7 MLOAD EQ PUSH2 0x1E1E JUMPI PUSH1 0x40 MLOAD PUSH3 0x461BCD PUSH1 0xE5 SHL DUP2 MSTORE PUSH1 0x4 ADD PUSH2 0x773 SWAP1 PUSH2 0x2BB0 JUMP JUMPDEST DUP4 MLOAD DUP7 MLOAD EQ PUSH2 0x1E3F JUMPI PUSH1 0x40 MLOAD PUSH3 0x461BCD PUSH1 0xE5 SHL DUP2 MSTORE PUSH1 0x4 ADD PUSH2 0x773 SWAP1 PUSH2 0x2BB0 JUMP JUMPDEST PUSH1 0x0 DUP7 MLOAD GT PUSH2 0x1E90 JUMPI PUSH1 0x40 MLOAD PUSH3 0x461BCD PUSH1 0xE5 SHL DUP2 MSTORE PUSH1 0x20 PUSH1 0x4 DUP3 ADD MSTORE PUSH1 0x18 PUSH1 0x24 DUP3 ADD MSTORE PUSH32 0x476F7665726E6F723A20656D7074792070726F706F73616C0000000000000000 PUSH1 0x44 DUP3 ADD MSTORE PUSH1 0x64 ADD PUSH2 0x773 JUMP JUMPDEST PUSH1 0x0 DUP2 DUP2 MSTORE PUSH1 0x1 PUSH1 0x20 SWAP1 DUP2 MSTORE PUSH1 0x40 SWAP2 DUP3 SWAP1 KECCAK256 DUP3 MLOAD SWAP2 DUP3 ADD SWAP1 SWAP3 MSTORE DUP2 SLOAD PUSH1 0x1 PUSH1 0x1 PUSH1 0x40 SHL SUB AND SWAP1 DUP2 SWAP1 MSTORE ISZERO PUSH2 0x1F10 JUMPI PUSH1 0x40 MLOAD PUSH3 0x461BCD PUSH1 0xE5 SHL DUP2 MSTORE PUSH1 0x20 PUSH1 0x4 DUP3 ADD MSTORE PUSH1 0x21 PUSH1 0x24 DUP3 ADD MSTORE PUSH32 0x476F7665726E6F723A2070726F706F73616C20616C7265616479206578697374 PUSH1 0x44 DUP3 ADD MSTORE PUSH1 0x73 PUSH1 0xF8 SHL PUSH1 0x64 DUP3 ADD MSTORE PUSH1 0x84 ADD PUSH2 0x773 JUMP JUMPDEST PUSH1 0x0 PUSH2 0x1F22 PUSH2 0x1F1D PUSH2 0xBC1 JUMP JUMPDEST PUSH2 0x219B JUMP JUMPDEST PUSH2 0x1F2B NUMBER PUSH2 0x219B JUMP JUMPDEST PUSH2 0x1F35 SWAP2 SWAP1 PUSH2 0x2BF1 JUMP JUMPDEST SWAP1 POP PUSH1 0x0 PUSH2 0x1F44 PUSH2 0x1F1D PUSH2 0x660 JUMP JUMPDEST PUSH2 0x1F4E SWAP1 DUP4 PUSH2 0x2BF1 JUMP JUMPDEST DUP4 SLOAD PUSH8 0xFFFFFFFFFFFFFFFF NOT AND PUSH1 0x1 PUSH1 0x1 PUSH1 0x40 SHL SUB DUP5 AND OR DUP5 SSTORE SWAP1 POP PUSH1 0x1 DUP4 ADD DUP1 SLOAD PUSH8 0xFFFFFFFFFFFFFFFF NOT AND PUSH1 0x1 PUSH1 0x1 PUSH1 0x40 SHL SUB DUP4 AND OR SWAP1 SSTORE PUSH32 0x7D84A6263AE0D98D3329BD7B46BB4E8D6F98CD35A7ADB45C274C8B7FD5EBD5E0 DUP5 CALLER DUP12 DUP12 DUP14 MLOAD PUSH1 0x1 PUSH1 0x1 PUSH1 0x40 SHL SUB DUP2 GT ISZERO PUSH2 0x1FC6 JUMPI PUSH2 0x1FC6 PUSH2 0x22AA JUMP JUMPDEST PUSH1 0x40 MLOAD SWAP1 DUP1 DUP3 MSTORE DUP1 PUSH1 0x20 MUL PUSH1 0x20 ADD DUP3 ADD PUSH1 0x40 MSTORE DUP1 ISZERO PUSH2 0x1FF9 JUMPI DUP2 PUSH1 0x20 ADD JUMPDEST PUSH1 0x60 DUP2 MSTORE PUSH1 0x20 ADD SWAP1 PUSH1 0x1 SWAP1 SUB SWAP1 DUP2 PUSH2 0x1FE4 JUMPI SWAP1 POP JUMPDEST POP DUP13 DUP9 DUP9 DUP15 PUSH1 0x40 MLOAD PUSH2 0x2013 SWAP10 SWAP9 SWAP8 SWAP7 SWAP6 SWAP5 SWAP4 SWAP3 SWAP2 SWAP1 PUSH2 0x2C1C JUMP JUMPDEST PUSH1 0x40 MLOAD DUP1 SWAP2 SUB SWAP1 LOG1 POP SWAP2 SWAP8 SWAP7 POP POP POP POP POP POP POP JUMP JUMPDEST PUSH1 0x0 PUSH2 0x203D DUP3 MLOAD PUSH1 0x1 PUSH1 0x1 PUSH1 0x40 SHL SUB AND ISZERO ISZERO SWAP1 JUMP JUMPDEST DUP1 ISZERO PUSH2 0x65A JUMPI POP POP MLOAD NUMBER PUSH1 0x1 PUSH1 0x1 PUSH1 0x40 SHL SUB SWAP1 SWAP2 AND GT ISZERO SWAP1 JUMP JUMPDEST PUSH1 0x0 DUP2 DUP2 MSTORE PUSH1 0x2 PUSH1 0x20 DUP2 SWAP1 MSTORE PUSH1 0x40 DUP3 KECCAK256 SWAP1 DUP2 ADD SLOAD PUSH1 0x1 DUP3 ADD SLOAD PUSH2 0x207A SWAP2 SWAP1 PUSH2 0x2AAB JUMP JUMPDEST PUSH2 0x2086 PUSH2 0x616 DUP6 PUSH2 0xB8A JUMP JUMPDEST GT ISZERO SWAP4 SWAP3 POP POP POP JUMP JUMPDEST PUSH1 0x0 DUP1 PUSH2 0x209E DUP7 DUP7 DUP7 DUP7 PUSH2 0xFF0 JUMP JUMPDEST SWAP1 POP PUSH1 0x0 PUSH2 0x20AB DUP3 PUSH2 0xC8F JUMP JUMPDEST SWAP1 POP PUSH1 0x2 DUP2 PUSH1 0x7 DUP2 GT ISZERO PUSH2 0x20C1 JUMPI PUSH2 0x20C1 PUSH2 0x25D5 JUMP JUMPDEST EQ ISZERO DUP1 ISZERO PUSH2 0x20E1 JUMPI POP PUSH1 0x6 DUP2 PUSH1 0x7 DUP2 GT ISZERO PUSH2 0x20DE JUMPI PUSH2 0x20DE PUSH2 0x25D5 JUMP JUMPDEST EQ ISZERO JUMPDEST DUP1 ISZERO PUSH2 0x20FF JUMPI POP PUSH1 0x7 DUP2 PUSH1 0x7 DUP2 GT ISZERO PUSH2 0x20FC JUMPI PUSH2 0x20FC PUSH2 0x25D5 JUMP JUMPDEST EQ ISZERO JUMPDEST PUSH2 0x214B JUMPI PUSH1 0x40 MLOAD PUSH3 0x461BCD PUSH1 0xE5 SHL DUP2 MSTORE PUSH1 0x20 PUSH1 0x4 DUP3 ADD MSTORE PUSH1 0x1D PUSH1 0x24 DUP3 ADD MSTORE PUSH32 0x476F7665726E6F723A2070726F706F73616C206E6F7420616374697665000000 PUSH1 0x44 DUP3 ADD MSTORE PUSH1 0x64 ADD PUSH2 0x773 JUMP JUMPDEST PUSH1 0x0 DUP3 DUP2 MSTORE PUSH1 0x1 PUSH1 0x20 MSTORE PUSH1 0x40 SWAP1 DUP2 SWAP1 KECCAK256 PUSH1 0x2 ADD DUP1 SLOAD PUSH2 0xFF00 NOT AND PUSH2 0x100 OR SWAP1 SSTORE MLOAD PUSH32 0x789CF55BE980739DAD1D0699B93B58E806B51C9D96619BFA8FE0A28ABAA7B30C SWAP1 PUSH2 0xAA5 SWAP1 DUP5 DUP2 MSTORE PUSH1 0x20 ADD SWAP1 JUMP JUMPDEST PUSH1 0x0 PUSH1 0x1 PUSH1 0x1 PUSH1 0x40 SHL SUB DUP3 GT ISZERO PUSH2 0x2203 JUMPI PUSH1 0x40 MLOAD PUSH3 0x461BCD PUSH1 0xE5 SHL DUP2 MSTORE PUSH1 0x20 PUSH1 0x4 DUP3 ADD MSTORE PUSH1 0x26 PUSH1 0x24 DUP3 ADD MSTORE PUSH32 0x53616665436173743A2076616C756520646F65736E27742066697420696E2036 PUSH1 0x44 DUP3 ADD MSTORE PUSH6 0x342062697473 PUSH1 0xD0 SHL PUSH1 0x64 DUP3 ADD MSTORE PUSH1 0x84 ADD PUSH2 0x773 JUMP JUMPDEST POP SWAP1 JUMP JUMPDEST PUSH1 0x0 PUSH1 0x20 DUP3 DUP5 SUB SLT ISZERO PUSH2 0x2219 JUMPI PUSH1 0x0 DUP1 REVERT JUMPDEST DUP2 CALLDATALOAD PUSH1 0x1 PUSH1 0x1 PUSH1 0xE0 SHL SUB NOT DUP2 AND DUP2 EQ PUSH2 0xF80 JUMPI PUSH1 0x0 DUP1 REVERT JUMPDEST PUSH1 0x0 PUSH1 0x20 DUP3 DUP5 SUB SLT ISZERO PUSH2 0x2243 JUMPI PUSH1 0x0 DUP1 REVERT JUMPDEST POP CALLDATALOAD SWAP2 SWAP1 POP JUMP JUMPDEST PUSH1 0x0 DUP2 MLOAD DUP1 DUP5 MSTORE PUSH1 0x0 JUMPDEST DUP2 DUP2 LT ISZERO PUSH2 0x2270 JUMPI PUSH1 0x20 DUP2 DUP6 ADD DUP2 ADD MLOAD DUP7 DUP4 ADD DUP3 ADD MSTORE ADD PUSH2 0x2254 JUMP JUMPDEST DUP2 DUP2 GT ISZERO PUSH2 0x2282 JUMPI PUSH1 0x0 PUSH1 0x20 DUP4 DUP8 ADD ADD MSTORE JUMPDEST POP PUSH1 0x1F ADD PUSH1 0x1F NOT AND SWAP3 SWAP1 SWAP3 ADD PUSH1 0x20 ADD SWAP3 SWAP2 POP POP JUMP JUMPDEST PUSH1 0x20 DUP2 MSTORE PUSH1 0x0 PUSH2 0xF80 PUSH1 0x20 DUP4 ADD DUP5 PUSH2 0x224A JUMP JUMPDEST PUSH4 0x4E487B71 PUSH1 0xE0 SHL PUSH1 0x0 MSTORE PUSH1 0x41 PUSH1 0x4 MSTORE PUSH1 0x24 PUSH1 0x0 REVERT JUMPDEST PUSH1 0x40 MLOAD PUSH1 0x1F DUP3 ADD PUSH1 0x1F NOT AND DUP2 ADD PUSH1 0x1 PUSH1 0x1 PUSH1 0x40 SHL SUB DUP2 GT DUP3 DUP3 LT OR ISZERO PUSH2 0x22E8 JUMPI PUSH2 0x22E8 PUSH2 0x22AA JUMP JUMPDEST PUSH1 0x40 MSTORE SWAP2 SWAP1 POP JUMP JUMPDEST PUSH1 0x0 PUSH1 0x1 PUSH1 0x1 PUSH1 0x40 SHL SUB DUP3 GT ISZERO PUSH2 0x2309 JUMPI PUSH2 0x2309 PUSH2 0x22AA JUMP JUMPDEST POP PUSH1 0x5 SHL PUSH1 0x20 ADD SWAP1 JUMP JUMPDEST PUSH1 0x1 PUSH1 0x1 PUSH1 0xA0 SHL SUB DUP2 AND DUP2 EQ PUSH2 0xEEF JUMPI PUSH1 0x0 DUP1 REVERT JUMPDEST PUSH1 0x0 DUP3 PUSH1 0x1F DUP4 ADD SLT PUSH2 0x2339 JUMPI PUSH1 0x0 DUP1 REVERT JUMPDEST DUP2 CALLDATALOAD PUSH1 0x20 PUSH2 0x234E PUSH2 0x2349 DUP4 PUSH2 0x22F0 JUMP JUMPDEST PUSH2 0x22C0 JUMP JUMPDEST DUP3 DUP2 MSTORE PUSH1 0x5 SWAP3 SWAP1 SWAP3 SHL DUP5 ADD DUP2 ADD SWAP2 DUP2 DUP2 ADD SWAP1 DUP7 DUP5 GT ISZERO PUSH2 0x236D JUMPI PUSH1 0x0 DUP1 REVERT JUMPDEST DUP3 DUP7 ADD JUMPDEST DUP5 DUP2 LT ISZERO PUSH2 0x2391 JUMPI DUP1 CALLDATALOAD PUSH2 0x2384 DUP2 PUSH2 0x2313 JUMP JUMPDEST DUP4 MSTORE SWAP2 DUP4 ADD SWAP2 DUP4 ADD PUSH2 0x2371 JUMP JUMPDEST POP SWAP7 SWAP6 POP POP POP POP POP POP JUMP JUMPDEST PUSH1 0x0 DUP3 PUSH1 0x1F DUP4 ADD SLT PUSH2 0x23AD JUMPI PUSH1 0x0 DUP1 REVERT JUMPDEST DUP2 CALLDATALOAD PUSH1 0x20 PUSH2 0x23BD PUSH2 0x2349 DUP4 PUSH2 0x22F0 JUMP JUMPDEST DUP3 DUP2 MSTORE PUSH1 0x5 SWAP3 SWAP1 SWAP3 SHL DUP5 ADD DUP2 ADD SWAP2 DUP2 DUP2 ADD SWAP1 DUP7 DUP5 GT ISZERO PUSH2 0x23DC JUMPI PUSH1 0x0 DUP1 REVERT JUMPDEST DUP3 DUP7 ADD JUMPDEST DUP5 DUP2 LT ISZERO PUSH2 0x2391 JUMPI DUP1 CALLDATALOAD DUP4 MSTORE SWAP2 DUP4 ADD SWAP2 DUP4 ADD PUSH2 0x23E0 JUMP JUMPDEST PUSH1 0x0 PUSH1 0x1 PUSH1 0x1 PUSH1 0x40 SHL SUB DUP4 GT ISZERO PUSH2 0x2410 JUMPI PUSH2 0x2410 PUSH2 0x22AA JUMP JUMPDEST PUSH2 0x2423 PUSH1 0x1F DUP5 ADD PUSH1 0x1F NOT AND PUSH1 0x20 ADD PUSH2 0x22C0 JUMP JUMPDEST SWAP1 POP DUP3 DUP2 MSTORE DUP4 DUP4 DUP4 ADD GT ISZERO PUSH2 0x2437 JUMPI PUSH1 0x0 DUP1 REVERT JUMPDEST DUP3 DUP3 PUSH1 0x20 DUP4 ADD CALLDATACOPY PUSH1 0x0 PUSH1 0x20 DUP5 DUP4 ADD ADD MSTORE SWAP4 SWAP3 POP POP POP JUMP JUMPDEST PUSH1 0x0 DUP3 PUSH1 0x1F DUP4 ADD SLT PUSH2 0x245F JUMPI PUSH1 0x0 DUP1 REVERT JUMPDEST DUP2 CALLDATALOAD PUSH1 0x20 PUSH2 0x246F PUSH2 0x2349 DUP4 PUSH2 0x22F0 JUMP JUMPDEST DUP3 DUP2 MSTORE PUSH1 0x5 SWAP3 SWAP1 SWAP3 SHL DUP5 ADD DUP2 ADD SWAP2 DUP2 DUP2 ADD SWAP1 DUP7 DUP5 GT ISZERO PUSH2 0x248E JUMPI PUSH1 0x0 DUP1 REVERT JUMPDEST DUP3 DUP7 ADD JUMPDEST DUP5 DUP2 LT ISZERO PUSH2 0x2391 JUMPI DUP1 CALLDATALOAD PUSH1 0x1 PUSH1 0x1 PUSH1 0x40 SHL SUB DUP2 GT ISZERO PUSH2 0x24B1 JUMPI PUSH1 0x0 DUP1 DUP2 REVERT JUMPDEST DUP8 ADD PUSH1 0x3F DUP2 ADD DUP10 SGT PUSH2 0x24C3 JUMPI PUSH1 0x0 DUP1 DUP2 REVERT JUMPDEST PUSH2 0x24D4 DUP10 DUP7 DUP4 ADD CALLDATALOAD PUSH1 0x40 DUP5 ADD PUSH2 0x23F7 JUMP JUMPDEST DUP5 MSTORE POP SWAP2 DUP4 ADD SWAP2 DUP4 ADD PUSH2 0x2492 JUMP JUMPDEST PUSH1 0x0 DUP1 PUSH1 0x0 DUP1 PUSH1 0x80 DUP6 DUP8 SUB SLT ISZERO PUSH2 0x24F8 JUMPI PUSH1 0x0 DUP1 REVERT JUMPDEST DUP5 CALLDATALOAD PUSH1 0x1 PUSH1 0x1 PUSH1 0x40 SHL SUB DUP1 DUP3 GT ISZERO PUSH2 0x250F JUMPI PUSH1 0x0 DUP1 REVERT JUMPDEST PUSH2 0x251B DUP9 DUP4 DUP10 ADD PUSH2 0x2328 JUMP JUMPDEST SWAP6 POP PUSH1 0x20 DUP8 ADD CALLDATALOAD SWAP2 POP DUP1 DUP3 GT ISZERO PUSH2 0x2531 JUMPI PUSH1 0x0 DUP1 REVERT JUMPDEST PUSH2 0x253D DUP9 DUP4 DUP10 ADD PUSH2 0x239C JUMP JUMPDEST SWAP5 POP PUSH1 0x40 DUP8 ADD CALLDATALOAD SWAP2 POP DUP1 DUP3 GT ISZERO PUSH2 0x2553 JUMPI PUSH1 0x0 DUP1 REVERT JUMPDEST POP PUSH2 0x2560 DUP8 DUP3 DUP9 ADD PUSH2 0x244E JUMP JUMPDEST SWAP5 SWAP8 SWAP4 SWAP7 POP SWAP4 SWAP5 PUSH1 0x60 ADD CALLDATALOAD SWAP4 POP POP POP JUMP JUMPDEST DUP1 CALLDATALOAD PUSH1 0xFF DUP2 AND DUP2 EQ PUSH2 0x2582 JUMPI PUSH1 0x0 DUP1 REVERT JUMPDEST SWAP2 SWAP1 POP JUMP JUMPDEST PUSH1 0x0 DUP1 PUSH1 0x0 DUP1 PUSH1 0x0 PUSH1 0xA0 DUP7 DUP9 SUB SLT ISZERO PUSH2 0x259F JUMPI PUSH1 0x0 DUP1 REVERT JUMPDEST DUP6 CALLDATALOAD SWAP5 POP PUSH2 0x25AF PUSH1 0x20 DUP8 ADD PUSH2 0x2571 JUMP JUMPDEST SWAP4 POP PUSH2 0x25BD PUSH1 0x40 DUP8 ADD PUSH2 0x2571 JUMP JUMPDEST SWAP5 SWAP8 SWAP4 SWAP7 POP SWAP4 SWAP5 PUSH1 0x60 DUP2 ADD CALLDATALOAD SWAP5 POP PUSH1 0x80 ADD CALLDATALOAD SWAP3 SWAP2 POP POP JUMP JUMPDEST PUSH4 0x4E487B71 PUSH1 0xE0 SHL PUSH1 0x0 MSTORE PUSH1 0x21 PUSH1 0x4 MSTORE PUSH1 0x24 PUSH1 0x0 REVERT JUMPDEST PUSH1 0x20 DUP2 ADD PUSH1 0x8 DUP4 LT PUSH2 0x260D JUMPI PUSH4 0x4E487B71 PUSH1 0xE0 SHL PUSH1 0x0 MSTORE PUSH1 0x21 PUSH1 0x4 MSTORE PUSH1 0x24 PUSH1 0x0 REVERT JUMPDEST SWAP2 SWAP1 MSTORE SWAP1 JUMP JUMPDEST PUSH1 0x0 DUP1 PUSH1 0x40 DUP4 DUP6 SUB SLT ISZERO PUSH2 0x2626 JUMPI PUSH1 0x0 DUP1 REVERT JUMPDEST DUP3 CALLDATALOAD SWAP2 POP PUSH1 0x20 DUP4 ADD CALLDATALOAD PUSH2 0x2638 DUP2 PUSH2 0x2313 JUMP JUMPDEST DUP1 SWAP2 POP POP SWAP3 POP SWAP3 SWAP1 POP JUMP JUMPDEST PUSH1 0x0 DUP1 PUSH1 0x40 DUP4 DUP6 SUB SLT ISZERO PUSH2 0x2656 JUMPI PUSH1 0x0 DUP1 REVERT JUMPDEST DUP3 CALLDATALOAD SWAP2 POP PUSH2 0x2666 PUSH1 0x20 DUP5 ADD PUSH2 0x2571 JUMP JUMPDEST SWAP1 POP SWAP3 POP SWAP3 SWAP1 POP JUMP JUMPDEST PUSH1 0x0 DUP1 PUSH1 0x0 DUP1 PUSH1 0x60 DUP6 DUP8 SUB SLT ISZERO PUSH2 0x2685 JUMPI PUSH1 0x0 DUP1 REVERT JUMPDEST DUP5 CALLDATALOAD SWAP4 POP PUSH2 0x2695 PUSH1 0x20 DUP7 ADD PUSH2 0x2571 JUMP JUMPDEST SWAP3 POP PUSH1 0x40 DUP6 ADD CALLDATALOAD PUSH1 0x1 PUSH1 0x1 PUSH1 0x40 SHL SUB DUP1 DUP3 GT ISZERO PUSH2 0x26B1 JUMPI PUSH1 0x0 DUP1 REVERT JUMPDEST DUP2 DUP8 ADD SWAP2 POP DUP8 PUSH1 0x1F DUP4 ADD SLT PUSH2 0x26C5 JUMPI PUSH1 0x0 DUP1 REVERT JUMPDEST DUP2 CALLDATALOAD DUP2 DUP2 GT ISZERO PUSH2 0x26D4 JUMPI PUSH1 0x0 DUP1 REVERT JUMPDEST DUP9 PUSH1 0x20 DUP3 DUP6 ADD ADD GT ISZERO PUSH2 0x26E6 JUMPI PUSH1 0x0 DUP1 REVERT JUMPDEST SWAP6 SWAP9 SWAP5 SWAP8 POP POP PUSH1 0x20 ADD SWAP5 POP POP POP JUMP JUMPDEST PUSH1 0x0 DUP1 PUSH1 0x0 DUP1 PUSH1 0x80 DUP6 DUP8 SUB SLT ISZERO PUSH2 0x270B JUMPI PUSH1 0x0 DUP1 REVERT JUMPDEST DUP5 CALLDATALOAD PUSH1 0x1 PUSH1 0x1 PUSH1 0x40 SHL SUB DUP1 DUP3 GT ISZERO PUSH2 0x2722 JUMPI PUSH1 0x0 DUP1 REVERT JUMPDEST PUSH2 0x272E DUP9 DUP4 DUP10 ADD PUSH2 0x2328 JUMP JUMPDEST SWAP6 POP PUSH1 0x20 DUP8 ADD CALLDATALOAD SWAP2 POP DUP1 DUP3 GT ISZERO PUSH2 0x2744 JUMPI PUSH1 0x0 DUP1 REVERT JUMPDEST PUSH2 0x2750 DUP9 DUP4 DUP10 ADD PUSH2 0x239C JUMP JUMPDEST SWAP5 POP PUSH1 0x40 DUP8 ADD CALLDATALOAD SWAP2 POP DUP1 DUP3 GT ISZERO PUSH2 0x2766 JUMPI PUSH1 0x0 DUP1 REVERT JUMPDEST PUSH2 0x2772 DUP9 DUP4 DUP10 ADD PUSH2 0x244E JUMP JUMPDEST SWAP4 POP PUSH1 0x60 DUP8 ADD CALLDATALOAD SWAP2 POP DUP1 DUP3 GT ISZERO PUSH2 0x2788 JUMPI PUSH1 0x0 DUP1 REVERT JUMPDEST POP DUP6 ADD PUSH1 0x1F DUP2 ADD DUP8 SGT PUSH2 0x279A JUMPI PUSH1 0x0 DUP1 REVERT JUMPDEST PUSH2 0x27A9 DUP8 DUP3 CALLDATALOAD PUSH1 0x20 DUP5 ADD PUSH2 0x23F7 JUMP JUMPDEST SWAP2 POP POP SWAP3 SWAP6 SWAP2 SWAP5 POP SWAP3 POP JUMP JUMPDEST PUSH1 0x0 PUSH1 0x20 DUP3 DUP5 SUB SLT ISZERO PUSH2 0x27C7 JUMPI PUSH1 0x0 DUP1 REVERT JUMPDEST DUP2 CALLDATALOAD PUSH2 0xF80 DUP2 PUSH2 0x2313 JUMP JUMPDEST PUSH1 0x0 DUP1 PUSH1 0x40 DUP4 DUP6 SUB SLT ISZERO PUSH2 0x27E5 JUMPI PUSH1 0x0 DUP1 REVERT JUMPDEST DUP3 CALLDATALOAD PUSH2 0x27F0 DUP2 PUSH2 0x2313 JUMP JUMPDEST SWAP5 PUSH1 0x20 SWAP4 SWAP1 SWAP4 ADD CALLDATALOAD SWAP4 POP POP POP JUMP JUMPDEST PUSH1 0x1 DUP2 DUP2 SHR SWAP1 DUP3 AND DUP1 PUSH2 0x2812 JUMPI PUSH1 0x7F DUP3 AND SWAP2 POP JUMPDEST PUSH1 0x20 DUP3 LT DUP2 EQ ISZERO PUSH2 0x1D37 JUMPI PUSH4 0x4E487B71 PUSH1 0xE0 SHL PUSH1 0x0 MSTORE PUSH1 0x22 PUSH1 0x4 MSTORE PUSH1 0x24 PUSH1 0x0 REVERT JUMPDEST PUSH1 0x0 DUP1 DUP4 SLOAD DUP2 PUSH1 0x1 DUP3 DUP2 SHR SWAP2 POP DUP1 DUP4 AND DUP1 PUSH2 0x284F JUMPI PUSH1 0x7F DUP4 AND SWAP3 POP JUMPDEST PUSH1 0x20 DUP1 DUP5 LT DUP3 EQ ISZERO PUSH2 0x286F JUMPI PUSH4 0x4E487B71 PUSH1 0xE0 SHL DUP7 MSTORE PUSH1 0x22 PUSH1 0x4 MSTORE PUSH1 0x24 DUP7 REVERT JUMPDEST DUP2 DUP1 ISZERO PUSH2 0x2883 JUMPI PUSH1 0x1 DUP2 EQ PUSH2 0x2894 JUMPI PUSH2 0x28C1 JUMP JUMPDEST PUSH1 0xFF NOT DUP7 AND DUP10 MSTORE DUP5 DUP10 ADD SWAP7 POP PUSH2 0x28C1 JUMP JUMPDEST PUSH1 0x0 DUP11 DUP2 MSTORE PUSH1 0x20 SWAP1 KECCAK256 PUSH1 0x0 JUMPDEST DUP7 DUP2 LT ISZERO PUSH2 0x28B9 JUMPI DUP2 SLOAD DUP12 DUP3 ADD MSTORE SWAP1 DUP6 ADD SWAP1 DUP4 ADD PUSH2 0x28A0 JUMP JUMPDEST POP POP DUP5 DUP10 ADD SWAP7 POP JUMPDEST POP SWAP5 SWAP9 SWAP8 POP POP POP POP POP POP POP POP JUMP JUMPDEST PUSH1 0x0 PUSH1 0x20 DUP3 DUP5 SUB SLT ISZERO PUSH2 0x28E1 JUMPI PUSH1 0x0 DUP1 REVERT JUMPDEST POP MLOAD SWAP2 SWAP1 POP JUMP JUMPDEST PUSH1 0x20 DUP1 DUP3 MSTORE PUSH1 0x21 SWAP1 DUP3 ADD MSTORE PUSH32 0x476F7665726E6F723A2070726F706F73616C206E6F7420737563636573736675 PUSH1 0x40 DUP3 ADD MSTORE PUSH1 0x1B PUSH1 0xFA SHL PUSH1 0x60 DUP3 ADD MSTORE PUSH1 0x80 ADD SWAP1 JUMP JUMPDEST PUSH1 0x0 DUP2 MLOAD DUP1 DUP5 MSTORE PUSH1 0x20 DUP1 DUP6 ADD SWAP5 POP DUP1 DUP5 ADD PUSH1 0x0 JUMPDEST DUP4 DUP2 LT ISZERO PUSH2 0x2962 JUMPI DUP2 MLOAD PUSH1 0x1 PUSH1 0x1 PUSH1 0xA0 SHL SUB AND DUP8 MSTORE SWAP6 DUP3 ADD SWAP6 SWAP1 DUP3 ADD SWAP1 PUSH1 0x1 ADD PUSH2 0x293D JUMP JUMPDEST POP SWAP5 SWAP6 SWAP5 POP POP POP POP POP JUMP JUMPDEST PUSH1 0x0 DUP2 MLOAD DUP1 DUP5 MSTORE PUSH1 0x20 DUP1 DUP6 ADD SWAP5 POP DUP1 DUP5 ADD PUSH1 0x0 JUMPDEST DUP4 DUP2 LT ISZERO PUSH2 0x2962 JUMPI DUP2 MLOAD DUP8 MSTORE SWAP6 DUP3 ADD SWAP6 SWAP1 DUP3 ADD SWAP1 PUSH1 0x1 ADD PUSH2 0x2981 JUMP JUMPDEST PUSH1 0x0 DUP2 MLOAD DUP1 DUP5 MSTORE PUSH1 0x20 DUP1 DUP6 ADD SWAP5 POP DUP5 DUP3 PUSH1 0x5 SHL DUP7 ADD DUP3 DUP7 ADD PUSH1 0x0 JUMPDEST DUP6 DUP2 LT ISZERO PUSH2 0x29E2 JUMPI DUP4 DUP4 SUB DUP10 MSTORE PUSH2 0x29D0 DUP4 DUP4 MLOAD PUSH2 0x224A JUMP JUMPDEST SWAP9 DUP6 ADD SWAP9 SWAP3 POP SWAP1 DUP5 ADD SWAP1 PUSH1 0x1 ADD PUSH2 0x29B8 JUMP JUMPDEST POP SWAP1 SWAP8 SWAP7 POP POP POP POP POP POP POP JUMP JUMPDEST PUSH1 0xA0 DUP2 MSTORE PUSH1 0x0 PUSH2 0x2A02 PUSH1 0xA0 DUP4 ADD DUP9 PUSH2 0x2929 JUMP JUMPDEST DUP3 DUP2 SUB PUSH1 0x20 DUP5 ADD MSTORE PUSH2 0x2A14 DUP2 DUP9 PUSH2 0x296D JUMP JUMPDEST SWAP1 POP DUP3 DUP2 SUB PUSH1 0x40 DUP5 ADD MSTORE PUSH2 0x2A28 DUP2 DUP8 PUSH2 0x299D JUMP JUMPDEST PUSH1 0x60 DUP5 ADD SWAP6 SWAP1 SWAP6 MSTORE POP POP PUSH1 0x80 ADD MSTORE SWAP4 SWAP3 POP POP POP JUMP JUMPDEST PUSH1 0xC0 DUP2 MSTORE PUSH1 0x0 PUSH2 0x2A50 PUSH1 0xC0 DUP4 ADD DUP10 PUSH2 0x2929 JUMP JUMPDEST DUP3 DUP2 SUB PUSH1 0x20 DUP5 ADD MSTORE PUSH2 0x2A62 DUP2 DUP10 PUSH2 0x296D JUMP JUMPDEST SWAP1 POP DUP3 DUP2 SUB PUSH1 0x40 DUP5 ADD MSTORE PUSH2 0x2A76 DUP2 DUP9 PUSH2 0x299D JUMP JUMPDEST PUSH1 0x60 DUP5 ADD SWAP7 SWAP1 SWAP7 MSTORE POP POP PUSH1 0x80 DUP2 ADD SWAP3 SWAP1 SWAP3 MSTORE PUSH1 0xA0 SWAP1 SWAP2 ADD MSTORE SWAP4 SWAP3 POP POP POP JUMP JUMPDEST PUSH4 0x4E487B71 PUSH1 0xE0 SHL PUSH1 0x0 MSTORE PUSH1 0x11 PUSH1 0x4 MSTORE PUSH1 0x24 PUSH1 0x0 REVERT JUMPDEST PUSH1 0x0 DUP3 NOT DUP3 GT ISZERO PUSH2 0x2ABE JUMPI PUSH2 0x2ABE PUSH2 0x2A95 JUMP JUMPDEST POP ADD SWAP1 JUMP JUMPDEST PUSH1 0x0 DUP3 DUP3 LT ISZERO PUSH2 0x2AD5 JUMPI PUSH2 0x2AD5 PUSH2 0x2A95 JUMP JUMPDEST POP SUB SWAP1 JUMP JUMPDEST PUSH1 0x80 DUP2 MSTORE PUSH1 0x0 PUSH2 0x2AED PUSH1 0x80 DUP4 ADD DUP8 PUSH2 0x2929 JUMP JUMPDEST DUP3 DUP2 SUB PUSH1 0x20 DUP5 ADD MSTORE PUSH2 0x2AFF DUP2 DUP8 PUSH2 0x296D JUMP JUMPDEST SWAP1 POP DUP3 DUP2 SUB PUSH1 0x40 DUP5 ADD MSTORE PUSH2 0x2B13 DUP2 DUP7 PUSH2 0x299D JUMP JUMPDEST SWAP2 POP POP DUP3 PUSH1 0x60 DUP4 ADD MSTORE SWAP6 SWAP5 POP POP POP POP POP JUMP JUMPDEST DUP5 DUP2 MSTORE PUSH1 0xFF DUP5 AND PUSH1 0x20 DUP3 ADD MSTORE DUP3 PUSH1 0x40 DUP3 ADD MSTORE PUSH1 0x80 PUSH1 0x60 DUP3 ADD MSTORE PUSH1 0x0 PUSH2 0xE07 PUSH1 0x80 DUP4 ADD DUP5 PUSH2 0x224A JUMP JUMPDEST PUSH1 0x0 PUSH1 0x20 DUP3 DUP5 SUB SLT ISZERO PUSH2 0x2B5F JUMPI PUSH1 0x0 DUP1 REVERT JUMPDEST DUP2 MLOAD DUP1 ISZERO ISZERO DUP2 EQ PUSH2 0xF80 JUMPI PUSH1 0x0 DUP1 REVERT JUMPDEST PUSH1 0x0 DUP2 PUSH1 0x0 NOT DIV DUP4 GT DUP3 ISZERO ISZERO AND ISZERO PUSH2 0x2B89 JUMPI PUSH2 0x2B89 PUSH2 0x2A95 JUMP JUMPDEST POP MUL SWAP1 JUMP JUMPDEST PUSH1 0x0 DUP3 PUSH2 0x2BAB JUMPI PUSH4 0x4E487B71 PUSH1 0xE0 SHL PUSH1 0x0 MSTORE PUSH1 0x12 PUSH1 0x4 MSTORE PUSH1 0x24 PUSH1 0x0 REVERT JUMPDEST POP DIV SWAP1 JUMP JUMPDEST PUSH1 0x20 DUP1 DUP3 MSTORE PUSH1 0x21 SWAP1 DUP3 ADD MSTORE PUSH32 0x476F7665726E6F723A20696E76616C69642070726F706F73616C206C656E6774 PUSH1 0x40 DUP3 ADD MSTORE PUSH1 0xD PUSH1 0xFB SHL PUSH1 0x60 DUP3 ADD MSTORE PUSH1 0x80 ADD SWAP1 JUMP JUMPDEST PUSH1 0x0 PUSH1 0x1 PUSH1 0x1 PUSH1 0x40 SHL SUB DUP1 DUP4 AND DUP2 DUP6 AND DUP1 DUP4 SUB DUP3 GT ISZERO PUSH2 0x2C13 JUMPI PUSH2 0x2C13 PUSH2 0x2A95 JUMP JUMPDEST ADD SWAP5 SWAP4 POP POP POP POP JUMP JUMPDEST PUSH1 0x0 PUSH2 0x120 DUP12 DUP4 MSTORE PUSH1 0x20 PUSH1 0x1 DUP1 PUSH1 0xA0 SHL SUB DUP13 AND DUP2 DUP6 ADD MSTORE DUP2 PUSH1 0x40 DUP6 ADD MSTORE PUSH2 0x2C45 DUP3 DUP6 ADD DUP13 PUSH2 0x2929 JUMP JUMPDEST SWAP2 POP DUP4 DUP3 SUB PUSH1 0x60 DUP6 ADD MSTORE PUSH2 0x2C59 DUP3 DUP12 PUSH2 0x296D JUMP JUMPDEST SWAP2 POP DUP4 DUP3 SUB PUSH1 0x80 DUP6 ADD MSTORE DUP2 DUP10 MLOAD DUP1 DUP5 MSTORE DUP3 DUP5 ADD SWAP2 POP DUP3 DUP2 PUSH1 0x5 SHL DUP6 ADD ADD DUP4 DUP13 ADD PUSH1 0x0 JUMPDEST DUP4 DUP2 LT ISZERO PUSH2 0x2CAA JUMPI PUSH1 0x1F NOT DUP8 DUP5 SUB ADD DUP6 MSTORE PUSH2 0x2C98 DUP4 DUP4 MLOAD PUSH2 0x224A JUMP JUMPDEST SWAP5 DUP7 ADD SWAP5 SWAP3 POP SWAP1 DUP6 ADD SWAP1 PUSH1 0x1 ADD PUSH2 0x2C7C JUMP JUMPDEST POP POP DUP7 DUP2 SUB PUSH1 0xA0 DUP9 ADD MSTORE PUSH2 0x2CBE DUP2 DUP13 PUSH2 0x299D JUMP JUMPDEST SWAP5 POP POP POP POP POP PUSH2 0x2CD9 PUSH1 0xC0 DUP5 ADD DUP8 PUSH1 0x1 PUSH1 0x1 PUSH1 0x40 SHL SUB AND SWAP1 MSTORE JUMP JUMPDEST PUSH1 0x1 PUSH1 0x1 PUSH1 0x40 SHL SUB DUP6 AND PUSH1 0xE0 DUP5 ADD MSTORE DUP3 DUP2 SUB PUSH2 0x100 DUP5 ADD MSTORE PUSH2 0x2CFB DUP2 DUP6 PUSH2 0x224A JUMP JUMPDEST SWAP13 SWAP12 POP POP POP POP POP POP POP POP POP POP POP POP JUMP INVALID LOG2 PUSH5 0x6970667358 0x22 SLT KECCAK256 0xC9 0xB7 POP 0xF8 SWAP3 SGT DUP13 PUSH3 0xAF4083 0x4D DUP6 PUSH24 0xB777FBDE61C30A02A8D85B0501776549CBEE64736F6C6343 STOP ADDMOD EXP STOP CALLER ",
  "sha1": "dd008a2ea19a300c6899b79f51879c53fcb5ca06",
  "source": "/* SPDX-License-Identifier: MIT */\npragma solidity =0.8.10;\n\n/* Package Imports */\nimport {PRBMathUD60x18} from \"@hifi-finance/prb-math/contracts/PRBMathUD60x18.sol\";\nimport {ERC20Votes} from \"@openzeppelin/contracts/token/ERC20/extensions/ERC20Votes.sol\";\nimport {Governor, IGovernor} from \"@openzeppelin/contracts/governance/Governor.sol\";\nimport {GovernorCountingSimple} from \"@openzeppelin/contracts/governance/extensions/GovernorCountingSimple.sol\";\nimport {GovernorProposalThreshold} from \"@openzeppelin/contracts/governance/extensions/GovernorProposalThreshold.sol\";\nimport {GovernorVotes} from \"@openzeppelin/contracts/governance/extensions/GovernorVotes.sol\";\nimport {GovernorVotesQuorumFraction} from \"@openzeppelin/contracts/governance/extensions/GovernorVotesQuorumFraction.sol\";\nimport {GovernorTimelockControl} from \"@openzeppelin/contracts/governance/extensions/GovernorTimelockControl.sol\";\nimport {TimelockController} from \"@openzeppelin/contracts/governance/TimelockController.sol\";\n\n/* Internal Imports */\nimport {PhantomStorageMixin} from \"../../mixins/PhantomStorageMixin.sol\";\n\n/* Internal Interface Imports */\nimport {IPhantomGovernor} from \"../../../interfaces/level0/governance/IPhantomGovernor.sol\";\nimport {IPhantomExecutor} from \"../../../interfaces/level0/governance/IPhantomExecutor.sol\";\nimport {IPhantomTreasury} from \"../../../interfaces/core/IPhantomTreasury.sol\";\n\n/**\n * @title PhantomGovernor\n * @author PhantomDao Team\n * @notice The Governor of the PhantomNetwork\n */\ncontract PhantomGovernor is\n    Governor,\n    GovernorCountingSimple,\n    GovernorProposalThreshold,\n    GovernorVotes,\n    GovernorVotesQuorumFraction,\n    GovernorTimelockControl,\n    PhantomStorageMixin\n{\n\n    mapping(uint256 => address) private _proposalOwners;\n\n    constructor(\n        address storageFactoryAddress,\n        ERC20Votes _token,\n        TimelockController _timelock,\n        uint256 _quorumPercentage,\n        uint256 _votingPeriod,\n        uint256 _votingDelay,\n        uint256 _proposalThreshold\n    )\n        Governor(\"Phantom Governor\")\n        GovernorVotes(_token)\n        GovernorVotesQuorumFraction(_quorumPercentage)\n        GovernorTimelockControl(_timelock)\n        PhantomStorageMixin(storageFactoryAddress)\n    {\n        PhantomStorage().setUint(keccak256(abi.encodePacked(phantom.governor.votingDelay)), _votingDelay);\n        PhantomStorage().setUint(keccak256(abi.encodePacked(phantom.governor.votingPeriod)), _votingPeriod);\n        PhantomStorage().setUint(keccak256(abi.encodePacked(phantom.governor.quorumPercentage)), _quorumPercentage);\n        PhantomStorage().setUint(keccak256(abi.encodePacked(phantom.governor.proposalThreshold)), _proposalThreshold);\n    }\n\n    function votingDelay() public view override returns (uint256) {\n        return PhantomStorage().getUint(keccak256(abi.encodePacked(phantom.governor.votingDelay))); // 1 = 1 block\n    }\n\n    function votingPeriod() public view override returns (uint256) {\n        return PhantomStorage().getUint(keccak256(abi.encodePacked(phantom.governor.votingPeriod))); // 45818 = 1 week\n    }\n\n    function quorumNumerator() public view override returns (uint256) {\n        return PhantomStorage().getUint(keccak256(abi.encodePacked(phantom.governor.quorumPercentage)));\n    }\n\n    function updateQuorumNumerator(uint256 newQuorumNumerator) external override onlyGovernance {\n        super._updateQuorumNumerator(newQuorumNumerator);\n        PhantomStorage().setUint(keccak256(abi.encodePacked(phantom.governor.quorumPercentage)), newQuorumNumerator);\n    }\n\n    function proposalThreshold() public view override returns (uint256) {\n        return PhantomStorage().getUint(keccak256(abi.encodePacked(phantom.governor.proposalThreshold)));\n    }\n\n    // The following functions are overrides required by Solidity.\n\n    function quorum(uint256 blockNumber)\n        public\n        view\n        override(IGovernor, GovernorVotesQuorumFraction)\n        returns (uint256)\n    {\n        return super.quorum(blockNumber);\n    }\n\n    function getVotes(address account, uint256 blockNumber)\n        public\n        view\n        override(IGovernor, GovernorVotes)\n        returns (uint256)\n    {\n        return super.getVotes(account, blockNumber);\n    }\n\n    function state(uint256 proposalId) public view override(Governor, GovernorTimelockControl) returns (ProposalState) {\n        return super.state(proposalId);\n    }\n\n    function propose(\n        address[] memory targets,\n        uint256[] memory values,\n        bytes[] memory calldatas,\n        string memory description\n    ) public override(GovernorProposalThreshold, Governor, IGovernor) returns (uint256) {\n        uint256 proposalId = super.propose(targets, values, calldatas, description);\n        _proposalOwners[proposalId] = msg.sender;\n        return proposalId;\n    }\n\n    function _execute(\n        uint256 proposalId,\n        address[] memory targets,\n        uint256[] memory values,\n        bytes[] memory calldatas,\n        bytes32 descriptionHash\n    ) internal override(Governor, GovernorTimelockControl) {\n        super._execute(proposalId, targets, values, calldatas, descriptionHash);\n        delete _proposalOwners[proposalId];\n    }\n\n    function cancel(\n        address[] memory targets,\n        uint256[] memory values,\n        bytes[] memory calldatas,\n        bytes32 descriptionHash\n    ) public virtual returns (uint256) {\n        uint256 proposalId = hashProposal(targets, values, calldatas, descriptionHash);\n\n        require(\n            _proposalOwners[proposalId] == msg.sender || getVotes(_proposalOwners[proposalId], block.number - 1) < proposalThreshold(),\n            \"PhantomGovernor: only proposal owner can cancel\"\n        );\n\n        uint256 result = _cancel(\n            targets,\n            values,\n            calldatas,\n            descriptionHash\n        );\n\n        delete _proposalOwners[proposalId];\n\n        return result;\n    }\n\n    function _cancel(\n        address[] memory targets,\n        uint256[] memory values,\n        bytes[] memory calldatas,\n        bytes32 descriptionHash\n    ) internal override(Governor, GovernorTimelockControl) returns (uint256) {\n        return super._cancel(targets, values, calldatas, descriptionHash);\n    }\n\n    function _executor() internal view override(Governor, GovernorTimelockControl) returns (address) {\n        return super._executor();\n    }\n\n    function supportsInterface(bytes4 interfaceId)\n        public\n        view\n        override(Governor, GovernorTimelockControl)\n        returns (bool)\n    {\n        return super.supportsInterface(interfaceId);\n    }\n}\n",
  "sourcePath": "contracts/level1/governance/PhantomGovernor.sol",
  "type": "contract"
}