{
  "abi": [
    {
      "inputs": [
        {
          "internalType": "address",
          "name": "storageAddress",
          "type": "address"
        }
      ],
      "stateMutability": "nonpayable",
      "type": "constructor"
    },
    {
      "inputs": [
        {
          "internalType": "address",
          "name": "contractAddress",
          "type": "address"
        }
      ],
      "name": "PhantomStorageMixin__ContractNotFoundByAddressOrIsOutdated",
      "type": "error"
    },
    {
      "inputs": [
        {
          "internalType": "bytes32",
          "name": "contractName",
          "type": "bytes32"
        }
      ],
      "name": "PhantomStorageMixin__ContractNotFoundByNameOrIsOutdated",
      "type": "error"
    },
    {
      "inputs": [
        {
          "internalType": "address",
          "name": "user",
          "type": "address"
        }
      ],
      "name": "PhantomStorageMixin__UserIsNotGuardian",
      "type": "error"
    },
    {
      "anonymous": false,
      "inputs": [
        {
          "indexed": true,
          "internalType": "bytes32",
          "name": "src",
          "type": "bytes32"
        },
        {
          "indexed": true,
          "internalType": "bytes32",
          "name": "dst",
          "type": "bytes32"
        },
        {
          "indexed": true,
          "internalType": "bytes32",
          "name": "sig",
          "type": "bytes32"
        }
      ],
      "name": "LogForbid",
      "type": "event"
    },
    {
      "anonymous": false,
      "inputs": [
        {
          "indexed": true,
          "internalType": "bytes32",
          "name": "src",
          "type": "bytes32"
        },
        {
          "indexed": true,
          "internalType": "bytes32",
          "name": "dst",
          "type": "bytes32"
        },
        {
          "indexed": true,
          "internalType": "bytes32",
          "name": "sig",
          "type": "bytes32"
        }
      ],
      "name": "LogPermit",
      "type": "event"
    },
    {
      "anonymous": false,
      "inputs": [
        {
          "indexed": true,
          "internalType": "address",
          "name": "authority",
          "type": "address"
        }
      ],
      "name": "LogSetAuthority",
      "type": "event"
    },
    {
      "anonymous": false,
      "inputs": [
        {
          "indexed": true,
          "internalType": "address",
          "name": "owner",
          "type": "address"
        }
      ],
      "name": "LogSetOwner",
      "type": "event"
    },
    {
      "inputs": [],
      "name": "ANY",
      "outputs": [
        {
          "internalType": "bytes32",
          "name": "",
          "type": "bytes32"
        }
      ],
      "stateMutability": "view",
      "type": "function"
    },
    {
      "inputs": [
        {
          "internalType": "bytes",
          "name": "bondType",
          "type": "bytes"
        },
        {
          "internalType": "uint256",
          "name": "vestInSeconds",
          "type": "uint256"
        }
      ],
      "name": "addBondType",
      "outputs": [],
      "stateMutability": "nonpayable",
      "type": "function"
    },
    {
      "inputs": [
        {
          "internalType": "address[]",
          "name": "inTokens",
          "type": "address[]"
        }
      ],
      "name": "addMultipleTokensToBondingList",
      "outputs": [],
      "stateMutability": "nonpayable",
      "type": "function"
    },
    {
      "inputs": [
        {
          "internalType": "address",
          "name": "inToken",
          "type": "address"
        }
      ],
      "name": "addTokenToBondingList",
      "outputs": [],
      "stateMutability": "nonpayable",
      "type": "function"
    },
    {
      "inputs": [],
      "name": "authority",
      "outputs": [
        {
          "internalType": "contract DSAuthority",
          "name": "",
          "type": "address"
        }
      ],
      "stateMutability": "view",
      "type": "function"
    },
    {
      "inputs": [
        {
          "internalType": "bytes",
          "name": "inBondType",
          "type": "bytes"
        },
        {
          "internalType": "address",
          "name": "inToken",
          "type": "address"
        }
      ],
      "name": "bondingMultiplierFor",
      "outputs": [
        {
          "internalType": "uint256",
          "name": "",
          "type": "uint256"
        }
      ],
      "stateMutability": "view",
      "type": "function"
    },
    {
      "inputs": [
        {
          "internalType": "address",
          "name": "src_",
          "type": "address"
        },
        {
          "internalType": "address",
          "name": "dst_",
          "type": "address"
        },
        {
          "internalType": "bytes4",
          "name": "sig",
          "type": "bytes4"
        }
      ],
      "name": "canCall",
      "outputs": [
        {
          "internalType": "bool",
          "name": "",
          "type": "bool"
        }
      ],
      "stateMutability": "view",
      "type": "function"
    },
    {
      "inputs": [
        {
          "internalType": "address",
          "name": "src",
          "type": "address"
        },
        {
          "internalType": "address",
          "name": "dst",
          "type": "address"
        },
        {
          "internalType": "bytes32",
          "name": "sig",
          "type": "bytes32"
        }
      ],
      "name": "forbid",
      "outputs": [],
      "stateMutability": "nonpayable",
      "type": "function"
    },
    {
      "inputs": [
        {
          "internalType": "bytes32",
          "name": "src",
          "type": "bytes32"
        },
        {
          "internalType": "bytes32",
          "name": "dst",
          "type": "bytes32"
        },
        {
          "internalType": "bytes32",
          "name": "sig",
          "type": "bytes32"
        }
      ],
      "name": "forbid",
      "outputs": [],
      "stateMutability": "nonpayable",
      "type": "function"
    },
    {
      "inputs": [
        {
          "internalType": "bytes",
          "name": "bondType",
          "type": "bytes"
        }
      ],
      "name": "infoOfBondType",
      "outputs": [
        {
          "internalType": "bool",
          "name": "",
          "type": "bool"
        },
        {
          "internalType": "uint256",
          "name": "",
          "type": "uint256"
        }
      ],
      "stateMutability": "view",
      "type": "function"
    },
    {
      "inputs": [
        {
          "internalType": "address",
          "name": "inToken",
          "type": "address"
        }
      ],
      "name": "isValidTokenForBond",
      "outputs": [
        {
          "internalType": "bool",
          "name": "",
          "type": "bool"
        }
      ],
      "stateMutability": "view",
      "type": "function"
    },
    {
      "inputs": [],
      "name": "owner",
      "outputs": [
        {
          "internalType": "address",
          "name": "",
          "type": "address"
        }
      ],
      "stateMutability": "view",
      "type": "function"
    },
    {
      "inputs": [
        {
          "internalType": "address",
          "name": "src",
          "type": "address"
        },
        {
          "internalType": "address",
          "name": "dst",
          "type": "address"
        },
        {
          "internalType": "bytes32",
          "name": "sig",
          "type": "bytes32"
        }
      ],
      "name": "permit",
      "outputs": [],
      "stateMutability": "nonpayable",
      "type": "function"
    },
    {
      "inputs": [
        {
          "internalType": "bytes32",
          "name": "src",
          "type": "bytes32"
        },
        {
          "internalType": "bytes32",
          "name": "dst",
          "type": "bytes32"
        },
        {
          "internalType": "bytes32",
          "name": "sig",
          "type": "bytes32"
        }
      ],
      "name": "permit",
      "outputs": [],
      "stateMutability": "nonpayable",
      "type": "function"
    },
    {
      "inputs": [
        {
          "internalType": "bytes",
          "name": "bondType",
          "type": "bytes"
        }
      ],
      "name": "removeBondType",
      "outputs": [],
      "stateMutability": "nonpayable",
      "type": "function"
    },
    {
      "inputs": [
        {
          "internalType": "address[]",
          "name": "inTokens",
          "type": "address[]"
        }
      ],
      "name": "removeMultipleTokensToBondingList",
      "outputs": [],
      "stateMutability": "nonpayable",
      "type": "function"
    },
    {
      "inputs": [
        {
          "internalType": "address",
          "name": "inToken",
          "type": "address"
        }
      ],
      "name": "removeTokenFromBondingList",
      "outputs": [],
      "stateMutability": "nonpayable",
      "type": "function"
    },
    {
      "inputs": [
        {
          "internalType": "contract DSAuthority",
          "name": "authority_",
          "type": "address"
        }
      ],
      "name": "setAuthority",
      "outputs": [],
      "stateMutability": "nonpayable",
      "type": "function"
    },
    {
      "inputs": [
        {
          "internalType": "bytes",
          "name": "inBondType",
          "type": "bytes"
        },
        {
          "internalType": "address",
          "name": "inToken",
          "type": "address"
        },
        {
          "internalType": "uint256",
          "name": "value",
          "type": "uint256"
        }
      ],
      "name": "setBondingMultiplierFor",
      "outputs": [],
      "stateMutability": "nonpayable",
      "type": "function"
    },
    {
      "inputs": [
        {
          "internalType": "address",
          "name": "dexRouter",
          "type": "address"
        },
        {
          "internalType": "address",
          "name": "dexFactory",
          "type": "address"
        }
      ],
      "name": "setCustomDefaultDex",
      "outputs": [],
      "stateMutability": "nonpayable",
      "type": "function"
    },
    {
      "inputs": [
        {
          "internalType": "address",
          "name": "owner_",
          "type": "address"
        }
      ],
      "name": "setOwner",
      "outputs": [],
      "stateMutability": "nonpayable",
      "type": "function"
    },
    {
      "inputs": [],
      "name": "setSpiritAsDefaultDex",
      "outputs": [],
      "stateMutability": "nonpayable",
      "type": "function"
    },
    {
      "inputs": [],
      "name": "setSpookyAsDefaultDex",
      "outputs": [],
      "stateMutability": "nonpayable",
      "type": "function"
    },
    {
      "inputs": [
        {
          "internalType": "uint256",
          "name": "newRewardRate",
          "type": "uint256"
        }
      ],
      "name": "updateStakingRewardRate",
      "outputs": [],
      "stateMutability": "nonpayable",
      "type": "function"
    }
  ],
  "bytecode": "601260e08181527139b2b1bab934ba3c9730b2323932b9b9b7b360711b6101009081526080918252600d6101209081526c73656375726974792e6e616d6560981b6101405260a0526101a060405260136101609081527f73656375726974792e72656769737465726564000000000000000000000000006101805260c0529091600091620000909183919062001367565b506020828101518051620000ab926001850192019062001367565b5060408201518051620000c991600284019160209091019062001367565b50506040805161032081018252601b6102e082019081527f7068616e746f6d2e636f6e7472616374732e616c706861737761700000000000610300830152610100820190815282518084018452601a8082527f7068616e746f6d2e636f6e7472616374732e666f756e646572730000000000006020838101919091526101208501929092528451808601865260198082527f7068616e746f6d2e636f6e7472616374732e7374616b696e67000000000000008285015261014086019190915285518087018752601f81527f7068616e746f6d2e636f6e7472616374732e7374616b696e677761726d75700081850152610160860152855180870187529081527f7068616e746f6d2e636f6e7472616374732e626f6e64696e67000000000000008184015261018085015284518086018652601581527f7068616e746f6d2e636f6e7472616374732e70686d0000000000000000000000818401526101a08501528451808601865260168082527f7068616e746f6d2e636f6e7472616374732e7370686d00000000000000000000828501526101c0860191909152855180870187528181527f7068616e746f6d2e636f6e7472616374732e6770686d00000000000000000000818501526101e0860152855180870187528181527f7068616e746f6d2e636f6e7472616374732e6170686d0000000000000000000081850152610200860152855180870187529081527f7068616e746f6d2e636f6e7472616374732e6670686d000000000000000000008184015261022085015284518086018652601781527f7068616e746f6d2e636f6e7472616374732e7661756c7400000000000000000081840152610240850152845180860186528181527f7068616e746f6d2e636f6e7472616374732e74726561737572790000000000008184015261026085015284518086018652601c81527f7068616e746f6d2e636f6e7472616374732e6465785f726f75746572000000008184015261028085015284518086018652601e81527f7068616e746f6d2e636f6e7472616374732e796561726e5f726f757465720000818401526102a0850152845180860186529081527f7068616e746f6d2e636f6e7472616374732e6578656375746f72000000000000818301526102c0840152908252825160c08101909352602a6060840181815292945090840192918291620033c16080840139815260200160405180606001604052806040518060600160405280602b815260200162003346602b913981526020016040518060400160405280602081526020017f7068616e746f6d2e74726561737572792e6163636f756e745f6b65792e64616f8152508152602001604051806060016040528060258152602001620034af6025913990528152604080518082018252601981527f7068616e746f6d2e74726561737572792e62616c616e636573000000000000006020828101919091529283015291835281516101c0810190925260246101608301818152938201938392830191829160c0850191829190620032dc61018088013981526020016040518060600160405280602581526020016200351e602591398152602001604051806060016040528060248152602001620034d46024913981526020016040518060600160405280602b815260200162003371602b91398152602001604051806060016040528060248152602001620035436024913981525081526020016040518060600160405280602581526020016200343b602591398152602001604051806060016040528060298152602001620034866029913981526020016040518060400160405280601b81526020017f7068616e746f6d2e616c6c6f6361746f722e746f6b656e732e6c70000000000081525081526020016040518060400160405280601f81526020017f7068616e746f6d2e616c6c6f6361746f722e746f6b656e732e73696e676c6500815250815250815250815260200160405180610100016040528060405180604001604052806040518060400160405280601a81526020017f7068616e746f6d2e626f6e64696e672e757365722e6e6f6e636500000000000081525081526020016040518060600160405280602b8152602001620033eb602b913981525081526020016040518060400160405280601d81526020017f7068616e746f6d2e626f6e64696e672e76657374696e67626c6f636b7300000081525081526020016040518060400160405280601c81526020017f7068616e746f6d2e626f6e64696e672e70726f6669745f726174696f0000000081525081526020016040518060400160405280601881526020017f7068616e746f6d2e626f6e64696e672e646973636f756e74000000000000000081525081526020016040518060400160405280601b81526020017f7068616e746f6d2e626f6e64696e672e69735f72656465656d6564000000000081525081526020016040518060400160405280601681526020017f7068616e746f6d2e626f6e64696e672e7061796f75740000000000000000000081525081526020016040518060400160405280601e81526020017f7068616e746f6d2e626f6e64696e672e76657374735f61745f626c6f636b000081525081526020016040518060400160405280601881526020017f7068616e746f6d2e626f6e64696e672e69735f76616c69640000000000000000815250815250815260200160405180604001604052806040518060400160405280601d81526020017f7068616e746f6d2e7374616b696e672e726562617365436f756e7465720000008152508152602001604051806060016040528060228152602001620036126022913990528152604080516101408101909152602160e082018181526020909301928291606083019182916200358b610100860139815260200160405180606001604052806024815260200162003322602491398152602001604051806060016040528060268152602001620032b660269139815260408051808201825260208082527f7068616e746f6d2e666f756e6465722e636c61696d732e6c617374436c61696d828201529283015291835281516060810183528082018281527f7068616e746f6d2e666f756e6465722e6368616e6765732e6e65774f776e65728285015281528382015281518083018352601d81527f7068616e746f6d2e666f756e6465722e76657374696e675374617274730000008183015292820192909252918352815161016081019092526022610100830181815293909101928291620033006101208401398152602001604051806060016040528060238152602001620035ac60239139815260200160405180606001604052806025815260200162003416602591398152602001604051806060016040528060268152602001620034606026913981526020016040518060600160405280602581526020016200339c602591398152602001604051806060016040528060268152602001620034f8602691398152602001604051806060016040528060248152602001620035676024913981526020016040518060600160405280602a815260200162003634602a9139815250815260200160405180608001604052806040518060400160405280601c81526020017f7068616e746f6d2e676f7665726e6f722e766f74696e6744656c61790000000081525081526020016040518060400160405280601d81526020017f7068616e746f6d2e676f7665726e6f722e766f74696e67506572696f640000008152508152602001604051806060016040528060218152602001620035cf602191398152602001604051806060016040528060228152602001620035f0602291399052905280518051805160039291839162000be191839160209091019062001367565b50602082810151805162000bfc926001850192019062001367565b506040820151805162000c1a91600284019160209091019062001367565b506060820151805162000c3891600384019160209091019062001367565b506080820151805162000c5691600484019160209091019062001367565b5060a0820151805162000c7491600584019160209091019062001367565b5060c0820151805162000c9291600684019160209091019062001367565b5060e0820151805162000cb091600784019160209091019062001367565b50610100820151805162000ccf91600884019160209091019062001367565b50610120820151805162000cee91600984019160209091019062001367565b50610140820151805162000d0d91600a84019160209091019062001367565b50610160820151805162000d2c91600b84019160209091019062001367565b50610180820151805162000d4b91600c84019160209091019062001367565b506101a0820151805162000d6a91600d84019160209091019062001367565b506101c0820151805162000d8991600e84019160209091019062001367565b505050602082810151805180519192600f85019262000dac928492019062001367565b50602082810151805180519192600185019262000dcd928492019062001367565b50602082810151805162000de8926001850192019062001367565b506040820151805162000e0691600284019160209091019062001367565b5050506040820151805162000e2691600484019160209091019062001367565b5050506040820151805180518051805160148601939284929091839162000e539183916020019062001367565b50602082810151805162000e6e926001850192019062001367565b506040820151805162000e8c91600284019160209091019062001367565b506060820151805162000eaa91600384019160209091019062001367565b506080820151805162000ec891600484019160209091019062001367565b505050602082810151805162000ee5926005850192019062001367565b506040820151805162000f0391600684019160209091019062001367565b506060820151805162000f2191600784019160209091019062001367565b506080820151805162000f3f91600884019160209091019062001367565b505050506060830151805180518051929350601d850192839162000f699183916020019062001367565b50602082810151805162000f84926001850192019062001367565b505050602082810151805162000fa1926002850192019062001367565b506040820151805162000fbf91600384019160209091019062001367565b506060820151805162000fdd91600484019160209091019062001367565b506080820151805162000ffb91600584019160209091019062001367565b5060a082015180516200101991600684019160209091019062001367565b5060c082015180516200103791600784019160209091019062001367565b5060e082015180516200105591600884019160209091019062001367565b5050506080820151805180516026840191620010779183916020019062001367565b50602082810151805162001092926001850192019062001367565b50505060a08201518051805180516028850192918391620010bb91839160209091019062001367565b506020828101518051620010d6926001850192019062001367565b5060408201518051620010f491600284019160209091019062001367565b50606082015180516200111291600384019160209091019062001367565b505050602082810151805180519192600485019262001135928492019062001367565b505050604082015180516200115591600584019160209091019062001367565b50505060c082015180518051602e840191620011779183916020019062001367565b50602082810151805162001192926001850192019062001367565b5060408201518051620011b091600284019160209091019062001367565b5060608201518051620011ce91600384019160209091019062001367565b5060808201518051620011ec91600484019160209091019062001367565b5060a082015180516200120a91600584019160209091019062001367565b5060c082015180516200122891600684019160209091019062001367565b5060e082015180516200124691600784019160209091019062001367565b50505060e0820151805180516036840191620012689183916020019062001367565b50602082810151805162001283926001850192019062001367565b5060408201518051620012a191600284019160209091019062001367565b5060608201518051620012bf91600384019160209091019062001367565b50505050506d7068616e746f6d53746f7261676560901b603f55348015620012e657600080fd5b506040516200365e3803806200365e83398101604081905262001309916200140d565b6001603d55603e80546001600160a01b03199081166001600160a01b0384161790915560418054339216821790556040517fce241d7ca1f669fee44b6fc00b8eba2df3bb514eed0f6f668f8f89096e81ed9490600090a2506200147c565b82805462001375906200143f565b90600052602060002090601f016020900481019282620013995760008555620013e4565b82601f10620013b457805160ff1916838001178555620013e4565b82800160010185558215620013e4579182015b82811115620013e4578251825591602001919060010190620013c7565b50620013f2929150620013f6565b5090565b5b80821115620013f25760008155600101620013f7565b6000602082840312156200142057600080fd5b81516001600160a01b03811681146200143857600080fd5b9392505050565b600181811c908216806200145457607f821691505b602082108114156200147657634e487b7160e01b600052602260045260246000fd5b50919050565b611e2a806200148c6000396000f3fe608060405234801561001057600080fd5b50600436106101585760003560e01c80638b11ad7a116100c3578063d8adb3f81161007c578063d8adb3f8146102d0578063e060d974146102e3578063e252b698146102f6578063e82e0eca14610320578063f0217ce514610333578063f0e1d3891461034657600080fd5b80638b11ad7a146102405780638da5cb5b14610253578063a8542f661461027e578063b700961314610287578063bf7e214f146102aa578063cbeea68c146102bd57600080fd5b80633ecd5ca9116101155780633ecd5ca9146101d9578063456aaa3f146101ec578063734092e6146101ff57806375089bc41461021257806379d88d871461021a5780637a9e5e4b1461022d57600080fd5b80630661768b1461015d5780630c221f73146101675780630f5ae2951461017a57806313af40351461018d57806325625e43146101a05780632bc3217d146101c6575b600080fd5b610165610359565b005b61016561017536600461185d565b6105ed565b6101656101883660046118ea565b61066b565b61016561019b3660046118ea565b610731565b6101b36101ae366004611949565b6107ad565b6040519081526020015b60405180910390f35b6101656101d43660046119a0565b610861565b6101656101e73660046118ea565b610886565b6101656101fa3660046119e1565b610921565b61016561020d36600461185d565b6109ff565b610165610a78565b6101656102283660046119fa565b610c3f565b61016561023b3660046118ea565b610cca565b61016561024e366004611a26565b610d44565b604154610266906001600160a01b031681565b6040516001600160a01b0390911681526020016101bd565b6101b360001981565b61029a610295366004611a83565b610e16565b60405190151581526020016101bd565b604054610266906001600160a01b031681565b6101656102cb3660046119a0565b611026565b6101656102de366004611ad0565b61104b565b61029a6102f13660046118ea565b6111ad565b610309610304366004611ad0565b61125b565b6040805192151583526020830191909152016101bd565b61016561032e366004611b12565b6113c3565b6101656103413660046119fa565b6114e7565b610165610354366004611b4b565b611575565b61036f336000356001600160e01b0319166116e2565b6103945760405162461bcd60e51b815260040161038b90611b97565b60405180910390fd5b603e546040516001600160a01b039091169063ca446dd9906103b890603190611bc5565b60405180910390206103d2603e546001600160a01b031690565b6001600160a01b03166321f8a7216003602e016002016040516103f59190611bc5565b60405190819003812060e083901b6001600160e01b03191682526004820152602401602060405180830381865afa158015610434573d6000803e3d6000fd5b505050506040513d601f19601f820116820180604052508101906104589190611c61565b6040516001600160e01b031960e085901b16815260048101929092526001600160a01b03166024820152604401600060405180830381600087803b15801561049f57600080fd5b505af11580156104b3573d6000803e3d6000fd5b505050506104c9603e546001600160a01b031690565b6001600160a01b031663ca446dd96003602e016001016040516104ec9190611bc5565b6040518091039020610506603e546001600160a01b031690565b6001600160a01b03166321f8a7216003602e016003016040516105299190611bc5565b60405190819003812060e083901b6001600160e01b03191682526004820152602401602060405180830381865afa158015610568573d6000803e3d6000fd5b505050506040513d601f19601f8201168201806040525081019061058c9190611c61565b6040516001600160e01b031960e085901b16815260048101929092526001600160a01b03166024820152604401600060405180830381600087803b1580156105d357600080fd5b505af11580156105e7573d6000803e3d6000fd5b50505050565b610603336000356001600160e01b0319166116e2565b61061f5760405162461bcd60e51b815260040161038b90611b97565b60005b818110156106665761065483838381811061063f5761063f611c7e565b905060200201602081019061018891906118ea565b61065f600182611c94565b9050610622565b505050565b610681336000356001600160e01b0319166116e2565b61069d5760405162461bcd60e51b815260040161038b90611b97565b603e546001600160a01b03166001600160a01b0316632c62ff2d826040516020016106c89190611cba565b604051602081830303815290604052805190602001206040518263ffffffff1660e01b81526004016106fc91815260200190565b600060405180830381600087803b15801561071657600080fd5b505af115801561072a573d6000803e3d6000fd5b5050505050565b610747336000356001600160e01b0319166116e2565b6107635760405162461bcd60e51b815260040161038b90611b97565b604180546001600160a01b0319166001600160a01b0383169081179091556040517fce241d7ca1f669fee44b6fc00b8eba2df3bb514eed0f6f668f8f89096e81ed9490600090a250565b60006107c1603e546001600160a01b031690565b6001600160a01b031663bd02d0f58585856040516020016107e493929190611cf8565b604051602081830303815290604052805190602001206040518263ffffffff1660e01b815260040161081891815260200190565b602060405180830381865afa158015610835573d6000803e3d6000fd5b505050506040513d601f19601f820116820180604052508101906108599190611d47565b949350505050565b6106668360601b6001600160601b0319168360601b6001600160601b03191683610c3f565b61089c336000356001600160e01b0319166116e2565b6108b85760405162461bcd60e51b815260040161038b90611b97565b603e546001600160a01b03166001600160a01b031663abfdcced826040516020016108e39190611cba565b60408051601f198184030181529082905280516020909101206001600160e01b031960e084901b1682526004820152600160248201526044016106fc565b610937336000356001600160e01b0319166116e2565b6109535760405162461bcd60e51b815260040161038b90611b97565b670de0b6b3a76400008111156109ca5760405162461bcd60e51b815260206004820152603660248201527f72657761726452617465206d757374206265206c657373207468616e206f7220604482015275657571616c20746f203165313820616b61203130302560501b606482015260840161038b565b6109d26117be565b6001600160a01b0316639ef3a261826040518263ffffffff1660e01b81526004016106fc91815260200190565b610a15336000356001600160e01b0319166116e2565b610a315760405162461bcd60e51b815260040161038b90611b97565b60005b8181101561066657610a66838383818110610a5157610a51611c7e565b90506020020160208101906101e791906118ea565b610a71600182611c94565b9050610a34565b610a8e336000356001600160e01b0319166116e2565b610aaa5760405162461bcd60e51b815260040161038b90611b97565b603e546040516001600160a01b039091169063ca446dd990610ace90603190611bc5565b6040518091039020610ae8603e546001600160a01b031690565b6001600160a01b03166321f8a7216003602e01600401604051610b0b9190611bc5565b60405190819003812060e083901b6001600160e01b03191682526004820152602401602060405180830381865afa158015610b4a573d6000803e3d6000fd5b505050506040513d601f19601f82011682018060405250810190610b6e9190611c61565b6040516001600160e01b031960e085901b16815260048101929092526001600160a01b03166024820152604401600060405180830381600087803b158015610bb557600080fd5b505af1158015610bc9573d6000803e3d6000fd5b50505050610bdf603e546001600160a01b031690565b6001600160a01b031663ca446dd96003602e01600101604051610c029190611bc5565b6040518091039020610c1c603e546001600160a01b031690565b6001600160a01b03166321f8a7216003602e016005016040516105299190611bc5565b610c55336000356001600160e01b0319166116e2565b610c715760405162461bcd60e51b815260040161038b90611b97565b60008381526042602090815260408083208584528252808320848452909152808220805460ff19169055518291849186917f95ba64c95d85e67ac83a0476c4a62ac2cf8ab2d0407545b8c9d79c3eefa6282991a4505050565b610ce0336000356001600160e01b0319166116e2565b610cfc5760405162461bcd60e51b815260040161038b90611b97565b604080546001600160a01b0319166001600160a01b038316908117825590517f1abebea81bfa2637f28358c371278fb15ede7ea8dd28d2e03b112ff6d936ada490600090a250565b610d5a336000356001600160e01b0319166116e2565b610d765760405162461bcd60e51b815260040161038b90611b97565b603e546001600160a01b03166001600160a01b031663e2a4853a858585604051602001610da593929190611cf8565b60408051601f198184030181529082905280516020909101206001600160e01b031960e084901b168252600482015260248101849052604401600060405180830381600087803b158015610df857600080fd5b505af1158015610e0c573d6000803e3d6000fd5b5050505050505050565b6001600160601b0319606084811b821660008181526042602090815260408083209488901b9095168083529381528482206001600160e01b03198716835290529283205490919060ff1680610e8e575060008281526042602090815260408083208484528252808320600019845290915290205460ff165b80610ec657506000828152604260209081526040808320600019845282528083206001600160e01b03198816845290915290205460ff165b80610ef1575060008281526042602090815260408083206000198452825280832090915290205460ff165b80610f3e575060008181527f08ad878264fb6114f908de715b98126ae5e313edca37361587095aa79974982c602090815260408083206001600160e01b03198816845290915290205460ff165b80610f83575060008181527f08ad878264fb6114f908de715b98126ae5e313edca37361587095aa79974982c60209081526040808320600019845290915290205460ff165b80610fc657506001600160e01b0319841660009081527fee130e11ffa87b36f99b54d77c808f5c2d619c8682f89cdfe370b4f782dd5d04602052604090205460ff165b8061101c57506000196000527fee130e11ffa87b36f99b54d77c808f5c2d619c8682f89cdfe370b4f782dd5d046020527feaff208a1be35c458653b3ac9101c651eab76399ed6ae9076544ea5528efbe365460ff165b9695505050505050565b6106668360601b6001600160601b0319168360601b6001600160601b031916836114e7565b611061336000356001600160e01b0319166116e2565b61107d5760405162461bcd60e51b815260040161038b90611b97565b603e546001600160a01b03166001600160a01b0316632c62ff2d83836040516020016110aa929190611d60565b604051602081830303815290604052805190602001206040518263ffffffff1660e01b81526004016110de91815260200190565b600060405180830381600087803b1580156110f857600080fd5b505af115801561110c573d6000803e3d6000fd5b50505050611122603e546001600160a01b031690565b6001600160a01b031663e2b202bf8383604051602001611143929190611d99565b604051602081830303815290604052805190602001206040518263ffffffff1660e01b815260040161117791815260200190565b600060405180830381600087803b15801561119157600080fd5b505af11580156111a5573d6000803e3d6000fd5b505050505050565b60006111c1603e546001600160a01b031690565b6001600160a01b0316637ae1cfca836040516020016111e09190611cba565b604051602081830303815290604052805190602001206040518263ffffffff1660e01b815260040161121491815260200190565b602060405180830381865afa158015611231573d6000803e3d6000fd5b505050506040513d601f19601f820116820180604052508101906112559190611dd2565b92915050565b6000806000611272603e546001600160a01b031690565b6001600160a01b0316637ae1cfca8686604051602001611293929190611d60565b604051602081830303815290604052805190602001206040518263ffffffff1660e01b81526004016112c791815260200190565b602060405180830381865afa1580156112e4573d6000803e3d6000fd5b505050506040513d601f19601f820116820180604052508101906113089190611dd2565b9050600061131e603e546001600160a01b031690565b6001600160a01b031663bd02d0f5878760405160200161133f929190611d99565b604051602081830303815290604052805190602001206040518263ffffffff1660e01b815260040161137391815260200190565b602060405180830381865afa158015611390573d6000803e3d6000fd5b505050506040513d601f19601f820116820180604052508101906113b49190611d47565b919350909150505b9250929050565b6113d9336000356001600160e01b0319166116e2565b6113f55760405162461bcd60e51b815260040161038b90611b97565b603e546040516001600160a01b039091169063ca446dd99061141990603190611bc5565b60405190819003812060e083901b6001600160e01b031916825260048201526001600160a01b0385166024820152604401600060405180830381600087803b15801561146457600080fd5b505af1158015611478573d6000803e3d6000fd5b5050505061148e603e546001600160a01b031690565b6001600160a01b031663ca446dd96003602e016001016040516114b19190611bc5565b60405190819003812060e083901b6001600160e01b031916825260048201526001600160a01b0384166024820152604401611177565b6114fd336000356001600160e01b0319166116e2565b6115195760405162461bcd60e51b815260040161038b90611b97565b60008381526042602090815260408083208584528252808320848452909152808220805460ff19166001179055518291849186917f6f50375045128971c5469d343039ba7b8e30a5b190453737b28bda6f7a30677191a4505050565b61158b336000356001600160e01b0319166116e2565b6115a75760405162461bcd60e51b815260040161038b90611b97565b603e546001600160a01b03166001600160a01b031663abfdcced84846040516020016115d4929190611d60565b60408051601f198184030181529082905280516020909101206001600160e01b031960e084901b168252600482015260016024820152604401600060405180830381600087803b15801561162757600080fd5b505af115801561163b573d6000803e3d6000fd5b50505050611651603e546001600160a01b031690565b6001600160a01b031663e2a4853a8484604051602001611672929190611d99565b60408051601f198184030181529082905280516020909101206001600160e01b031960e084901b168252600482015260248101849052604401600060405180830381600087803b1580156116c557600080fd5b505af11580156116d9573d6000803e3d6000fd5b50505050505050565b60006001600160a01b0383163014156116fd57506001611255565b6041546001600160a01b038481169116141561171b57506001611255565b6040546001600160a01b031661173357506000611255565b60408054905163b700961360e01b81526001600160a01b0385811660048301523060248301526001600160e01b0319851660448301529091169063b700961390606401602060405180830381865afa158015611793573d6000803e3d6000fd5b505050506040513d601f19601f820116820180604052508101906117b79190611dd2565b9392505050565b60006117d2603e546001600160a01b031690565b6001600160a01b03166321f8a72160036000016006016040516117f59190611bc5565b60405190819003812060e083901b6001600160e01b03191682526004820152602401602060405180830381865afa158015611834573d6000803e3d6000fd5b505050506040513d601f19601f820116820180604052508101906118589190611c61565b905090565b6000806020838503121561187057600080fd5b823567ffffffffffffffff8082111561188857600080fd5b818501915085601f83011261189c57600080fd5b8135818111156118ab57600080fd5b8660208260051b85010111156118c057600080fd5b60209290920196919550909350505050565b6001600160a01b03811681146118e757600080fd5b50565b6000602082840312156118fc57600080fd5b81356117b7816118d2565b60008083601f84011261191957600080fd5b50813567ffffffffffffffff81111561193157600080fd5b6020830191508360208285010111156113bc57600080fd5b60008060006040848603121561195e57600080fd5b833567ffffffffffffffff81111561197557600080fd5b61198186828701611907565b9094509250506020840135611995816118d2565b809150509250925092565b6000806000606084860312156119b557600080fd5b83356119c0816118d2565b925060208401356119d0816118d2565b929592945050506040919091013590565b6000602082840312156119f357600080fd5b5035919050565b600080600060608486031215611a0f57600080fd5b505081359360208301359350604090920135919050565b60008060008060608587031215611a3c57600080fd5b843567ffffffffffffffff811115611a5357600080fd5b611a5f87828801611907565b9095509350506020850135611a73816118d2565b9396929550929360400135925050565b600080600060608486031215611a9857600080fd5b8335611aa3816118d2565b92506020840135611ab3816118d2565b915060408401356001600160e01b03198116811461199557600080fd5b60008060208385031215611ae357600080fd5b823567ffffffffffffffff811115611afa57600080fd5b611b0685828601611907565b90969095509350505050565b60008060408385031215611b2557600080fd5b8235611b30816118d2565b91506020830135611b40816118d2565b809150509250929050565b600080600060408486031215611b6057600080fd5b833567ffffffffffffffff811115611b7757600080fd5b611b8386828701611907565b909790965060209590950135949350505050565b602080825260149082015273191ccb585d5d1a0b5d5b985d5d1a1bdc9a5e995960621b604082015260600190565b600080835481600182811c915080831680611be157607f831692505b6020808410821415611c0157634e487b7160e01b86526022600452602486fd5b818015611c155760018114611c2657611c53565b60ff19861689528489019650611c53565b60008a81526020902060005b86811015611c4b5781548b820152908501908301611c32565b505084890196505b509498975050505050505050565b600060208284031215611c7357600080fd5b81516117b7816118d2565b634e487b7160e01b600052603260045260246000fd5b60008219821115611cb557634e487b7160e01b600052601160045260246000fd5b500190565b7f7068616e746f6d2e626f6e64696e672e747970652e69735f76616c6964000000815260609190911b6001600160601b031916601d82015260310190565b7f7068616e746f6d2e626f6e64696e672e6d756c7469706c69657200000000000081528284601a83013760609190911b6001600160601b031916601a9190920190810191909152602e01919050565b600060208284031215611d5957600080fd5b5051919050565b7f7068616e746f6d2e626f6e64696e672e747970652e69735f76616c696400000081528183601d83013760009101601d01908152919050565b7f7068616e746f6d2e626f6e64696e672e747970652e766573745f6c656e67746881528183602083013760009101602001908152919050565b600060208284031215611de457600080fd5b815180151581146117b757600080fdfea26469706673582212205ed94ba9a5506a64985746158b290113b0b027361cdc243e7852185f607f064664736f6c634300080a00337068616e746f6d2e666f756e6465722e636c61696d732e72656d61696e696e67416d6f756e747068616e746f6d2e616c6c6f6361746f722e746f6b656e732e616464726573732e6461697068616e746f6d2e726f7574696e672e6465785f726f757465725f616464726573737068616e746f6d2e666f756e6465722e636c61696d732e696e697469616c416d6f756e747068616e746f6d2e74726561737572792e6163636f756e745f6b65792e76656e747572656361706974616c7068616e746f6d2e616c6c6f6361746f722e746f6b656e732e616464726573732e6461695f70686d5f6c707068616e746f6d2e726f7574696e672e73706f6f6b795f726f757465725f616464726573737068616e746f6d2e74726561737572792e617070726f7665642e65787465726e616c2e616464726573737068616e746f6d2e626f6e64696e672e757365722e66697273745f756e72656465656d65645f6e6f6e63657068616e746f6d2e726f7574696e672e7370697269745f726f757465725f616464726573737068616e746f6d2e616c6c6f6361746f722e746f6b656e732e64657374696e6174696f6e737068616e746f6d2e726f7574696e672e7370697269745f666163746f72795f616464726573737068616e746f6d2e616c6c6f6361746f722e746f6b656e732e646573745f70657263656e74616765737068616e746f6d2e74726561737572792e6163636f756e745f6b65792e72657365727665737068616e746f6d2e616c6c6f6361746f722e746f6b656e732e616464726573732e6d696d7068616e746f6d2e726f7574696e672e73706f6f6b795f666163746f72795f616464726573737068616e746f6d2e616c6c6f6361746f722e746f6b656e732e616464726573732e7766746d7068616e746f6d2e616c6c6f6361746f722e746f6b656e732e616464726573732e6465787068616e746f6d2e726f7574696e672e7370697269745f67617567655f616464726573737068616e746f6d2e666f756e6465722e636c61696d732e616c6c6f636174696f6e7068616e746f6d2e726f7574696e672e6465785f666163746f72795f616464726573737068616e746f6d2e676f7665726e6f722e71756f72756d50657263656e746167657068616e746f6d2e676f7665726e6f722e70726f706f73616c5468726573686f6c647068616e746f6d2e7374616b696e672e6e657874526562617365446561646c696e657068616e746f6d2e726f7574696e672e7370697269745f67617567655f70726f78795f61646472657373",
  "bytecodeSha1": "da39a3ee5e6b4b0d3255bfef95601890afd80709",
  "compiler": {
    "evm_version": "istanbul",
    "optimizer": {
      "enabled": true,
      "runs": 200
    },
    "version": "0.8.10+commit.fc410830"
  },
  "contractName": "PhantomAdmin",
  "language": "Solidity",
  "natspec": {
    "kind": "dev",
    "methods": {
      "addBondType(bytes,uint256)": {
        "notice": "Add a new bondtype with vesting length in seconds"
      },
      "addTokenToBondingList(address)": {
        "notice": "% Add/Remove tokens from being bondable"
      },
      "infoOfBondType(bytes)": {
        "notice": "Get info about a bond type"
      },
      "removeBondType(bytes)": {
        "notice": "Remove a bond type"
      }
    },
    "title": "PhantomAdmin",
    "version": 1
  },
  "opcodes": "PUSH1 0x80 PUSH1 0x40 MSTORE CALLVALUE DUP1 ISZERO PUSH2 0x10 JUMPI PUSH1 0x0 DUP1 REVERT JUMPDEST POP PUSH1 0x4 CALLDATASIZE LT PUSH2 0x158 JUMPI PUSH1 0x0 CALLDATALOAD PUSH1 0xE0 SHR DUP1 PUSH4 0x8B11AD7A GT PUSH2 0xC3 JUMPI DUP1 PUSH4 0xD8ADB3F8 GT PUSH2 0x7C JUMPI DUP1 PUSH4 0xD8ADB3F8 EQ PUSH2 0x2D0 JUMPI DUP1 PUSH4 0xE060D974 EQ PUSH2 0x2E3 JUMPI DUP1 PUSH4 0xE252B698 EQ PUSH2 0x2F6 JUMPI DUP1 PUSH4 0xE82E0ECA EQ PUSH2 0x320 JUMPI DUP1 PUSH4 0xF0217CE5 EQ PUSH2 0x333 JUMPI DUP1 PUSH4 0xF0E1D389 EQ PUSH2 0x346 JUMPI PUSH1 0x0 DUP1 REVERT JUMPDEST DUP1 PUSH4 0x8B11AD7A EQ PUSH2 0x240 JUMPI DUP1 PUSH4 0x8DA5CB5B EQ PUSH2 0x253 JUMPI DUP1 PUSH4 0xA8542F66 EQ PUSH2 0x27E JUMPI DUP1 PUSH4 0xB7009613 EQ PUSH2 0x287 JUMPI DUP1 PUSH4 0xBF7E214F EQ PUSH2 0x2AA JUMPI DUP1 PUSH4 0xCBEEA68C EQ PUSH2 0x2BD JUMPI PUSH1 0x0 DUP1 REVERT JUMPDEST DUP1 PUSH4 0x3ECD5CA9 GT PUSH2 0x115 JUMPI DUP1 PUSH4 0x3ECD5CA9 EQ PUSH2 0x1D9 JUMPI DUP1 PUSH4 0x456AAA3F EQ PUSH2 0x1EC JUMPI DUP1 PUSH4 0x734092E6 EQ PUSH2 0x1FF JUMPI DUP1 PUSH4 0x75089BC4 EQ PUSH2 0x212 JUMPI DUP1 PUSH4 0x79D88D87 EQ PUSH2 0x21A JUMPI DUP1 PUSH4 0x7A9E5E4B EQ PUSH2 0x22D JUMPI PUSH1 0x0 DUP1 REVERT JUMPDEST DUP1 PUSH4 0x661768B EQ PUSH2 0x15D JUMPI DUP1 PUSH4 0xC221F73 EQ PUSH2 0x167 JUMPI DUP1 PUSH4 0xF5AE295 EQ PUSH2 0x17A JUMPI DUP1 PUSH4 0x13AF4035 EQ PUSH2 0x18D JUMPI DUP1 PUSH4 0x25625E43 EQ PUSH2 0x1A0 JUMPI DUP1 PUSH4 0x2BC3217D EQ PUSH2 0x1C6 JUMPI JUMPDEST PUSH1 0x0 DUP1 REVERT JUMPDEST PUSH2 0x165 PUSH2 0x359 JUMP JUMPDEST STOP JUMPDEST PUSH2 0x165 PUSH2 0x175 CALLDATASIZE PUSH1 0x4 PUSH2 0x185D JUMP JUMPDEST PUSH2 0x5ED JUMP JUMPDEST PUSH2 0x165 PUSH2 0x188 CALLDATASIZE PUSH1 0x4 PUSH2 0x18EA JUMP JUMPDEST PUSH2 0x66B JUMP JUMPDEST PUSH2 0x165 PUSH2 0x19B CALLDATASIZE PUSH1 0x4 PUSH2 0x18EA JUMP JUMPDEST PUSH2 0x731 JUMP JUMPDEST PUSH2 0x1B3 PUSH2 0x1AE CALLDATASIZE PUSH1 0x4 PUSH2 0x1949 JUMP JUMPDEST PUSH2 0x7AD JUMP JUMPDEST PUSH1 0x40 MLOAD SWAP1 DUP2 MSTORE PUSH1 0x20 ADD JUMPDEST PUSH1 0x40 MLOAD DUP1 SWAP2 SUB SWAP1 RETURN JUMPDEST PUSH2 0x165 PUSH2 0x1D4 CALLDATASIZE PUSH1 0x4 PUSH2 0x19A0 JUMP JUMPDEST PUSH2 0x861 JUMP JUMPDEST PUSH2 0x165 PUSH2 0x1E7 CALLDATASIZE PUSH1 0x4 PUSH2 0x18EA JUMP JUMPDEST PUSH2 0x886 JUMP JUMPDEST PUSH2 0x165 PUSH2 0x1FA CALLDATASIZE PUSH1 0x4 PUSH2 0x19E1 JUMP JUMPDEST PUSH2 0x921 JUMP JUMPDEST PUSH2 0x165 PUSH2 0x20D CALLDATASIZE PUSH1 0x4 PUSH2 0x185D JUMP JUMPDEST PUSH2 0x9FF JUMP JUMPDEST PUSH2 0x165 PUSH2 0xA78 JUMP JUMPDEST PUSH2 0x165 PUSH2 0x228 CALLDATASIZE PUSH1 0x4 PUSH2 0x19FA JUMP JUMPDEST PUSH2 0xC3F JUMP JUMPDEST PUSH2 0x165 PUSH2 0x23B CALLDATASIZE PUSH1 0x4 PUSH2 0x18EA JUMP JUMPDEST PUSH2 0xCCA JUMP JUMPDEST PUSH2 0x165 PUSH2 0x24E CALLDATASIZE PUSH1 0x4 PUSH2 0x1A26 JUMP JUMPDEST PUSH2 0xD44 JUMP JUMPDEST PUSH1 0x41 SLOAD PUSH2 0x266 SWAP1 PUSH1 0x1 PUSH1 0x1 PUSH1 0xA0 SHL SUB AND DUP2 JUMP JUMPDEST PUSH1 0x40 MLOAD PUSH1 0x1 PUSH1 0x1 PUSH1 0xA0 SHL SUB SWAP1 SWAP2 AND DUP2 MSTORE PUSH1 0x20 ADD PUSH2 0x1BD JUMP JUMPDEST PUSH2 0x1B3 PUSH1 0x0 NOT DUP2 JUMP JUMPDEST PUSH2 0x29A PUSH2 0x295 CALLDATASIZE PUSH1 0x4 PUSH2 0x1A83 JUMP JUMPDEST PUSH2 0xE16 JUMP JUMPDEST PUSH1 0x40 MLOAD SWAP1 ISZERO ISZERO DUP2 MSTORE PUSH1 0x20 ADD PUSH2 0x1BD JUMP JUMPDEST PUSH1 0x40 SLOAD PUSH2 0x266 SWAP1 PUSH1 0x1 PUSH1 0x1 PUSH1 0xA0 SHL SUB AND DUP2 JUMP JUMPDEST PUSH2 0x165 PUSH2 0x2CB CALLDATASIZE PUSH1 0x4 PUSH2 0x19A0 JUMP JUMPDEST PUSH2 0x1026 JUMP JUMPDEST PUSH2 0x165 PUSH2 0x2DE CALLDATASIZE PUSH1 0x4 PUSH2 0x1AD0 JUMP JUMPDEST PUSH2 0x104B JUMP JUMPDEST PUSH2 0x29A PUSH2 0x2F1 CALLDATASIZE PUSH1 0x4 PUSH2 0x18EA JUMP JUMPDEST PUSH2 0x11AD JUMP JUMPDEST PUSH2 0x309 PUSH2 0x304 CALLDATASIZE PUSH1 0x4 PUSH2 0x1AD0 JUMP JUMPDEST PUSH2 0x125B JUMP JUMPDEST PUSH1 0x40 DUP1 MLOAD SWAP3 ISZERO ISZERO DUP4 MSTORE PUSH1 0x20 DUP4 ADD SWAP2 SWAP1 SWAP2 MSTORE ADD PUSH2 0x1BD JUMP JUMPDEST PUSH2 0x165 PUSH2 0x32E CALLDATASIZE PUSH1 0x4 PUSH2 0x1B12 JUMP JUMPDEST PUSH2 0x13C3 JUMP JUMPDEST PUSH2 0x165 PUSH2 0x341 CALLDATASIZE PUSH1 0x4 PUSH2 0x19FA JUMP JUMPDEST PUSH2 0x14E7 JUMP JUMPDEST PUSH2 0x165 PUSH2 0x354 CALLDATASIZE PUSH1 0x4 PUSH2 0x1B4B JUMP JUMPDEST PUSH2 0x1575 JUMP JUMPDEST PUSH2 0x36F CALLER PUSH1 0x0 CALLDATALOAD PUSH1 0x1 PUSH1 0x1 PUSH1 0xE0 SHL SUB NOT AND PUSH2 0x16E2 JUMP JUMPDEST PUSH2 0x394 JUMPI PUSH1 0x40 MLOAD PUSH3 0x461BCD PUSH1 0xE5 SHL DUP2 MSTORE PUSH1 0x4 ADD PUSH2 0x38B SWAP1 PUSH2 0x1B97 JUMP JUMPDEST PUSH1 0x40 MLOAD DUP1 SWAP2 SUB SWAP1 REVERT JUMPDEST PUSH1 0x3E SLOAD PUSH1 0x40 MLOAD PUSH1 0x1 PUSH1 0x1 PUSH1 0xA0 SHL SUB SWAP1 SWAP2 AND SWAP1 PUSH4 0xCA446DD9 SWAP1 PUSH2 0x3B8 SWAP1 PUSH1 0x31 SWAP1 PUSH2 0x1BC5 JUMP JUMPDEST PUSH1 0x40 MLOAD DUP1 SWAP2 SUB SWAP1 KECCAK256 PUSH2 0x3D2 PUSH1 0x3E SLOAD PUSH1 0x1 PUSH1 0x1 PUSH1 0xA0 SHL SUB AND SWAP1 JUMP JUMPDEST PUSH1 0x1 PUSH1 0x1 PUSH1 0xA0 SHL SUB AND PUSH4 0x21F8A721 PUSH1 0x3 PUSH1 0x2E ADD PUSH1 0x2 ADD PUSH1 0x40 MLOAD PUSH2 0x3F5 SWAP2 SWAP1 PUSH2 0x1BC5 JUMP JUMPDEST PUSH1 0x40 MLOAD SWAP1 DUP2 SWAP1 SUB DUP2 KECCAK256 PUSH1 0xE0 DUP4 SWAP1 SHL PUSH1 0x1 PUSH1 0x1 PUSH1 0xE0 SHL SUB NOT AND DUP3 MSTORE PUSH1 0x4 DUP3 ADD MSTORE PUSH1 0x24 ADD PUSH1 0x20 PUSH1 0x40 MLOAD DUP1 DUP4 SUB DUP2 DUP7 GAS STATICCALL ISZERO DUP1 ISZERO PUSH2 0x434 JUMPI RETURNDATASIZE PUSH1 0x0 DUP1 RETURNDATACOPY RETURNDATASIZE PUSH1 0x0 REVERT JUMPDEST POP POP POP POP PUSH1 0x40 MLOAD RETURNDATASIZE PUSH1 0x1F NOT PUSH1 0x1F DUP3 ADD AND DUP3 ADD DUP1 PUSH1 0x40 MSTORE POP DUP2 ADD SWAP1 PUSH2 0x458 SWAP2 SWAP1 PUSH2 0x1C61 JUMP JUMPDEST PUSH1 0x40 MLOAD PUSH1 0x1 PUSH1 0x1 PUSH1 0xE0 SHL SUB NOT PUSH1 0xE0 DUP6 SWAP1 SHL AND DUP2 MSTORE PUSH1 0x4 DUP2 ADD SWAP3 SWAP1 SWAP3 MSTORE PUSH1 0x1 PUSH1 0x1 PUSH1 0xA0 SHL SUB AND PUSH1 0x24 DUP3 ADD MSTORE PUSH1 0x44 ADD PUSH1 0x0 PUSH1 0x40 MLOAD DUP1 DUP4 SUB DUP2 PUSH1 0x0 DUP8 DUP1 EXTCODESIZE ISZERO DUP1 ISZERO PUSH2 0x49F JUMPI PUSH1 0x0 DUP1 REVERT JUMPDEST POP GAS CALL ISZERO DUP1 ISZERO PUSH2 0x4B3 JUMPI RETURNDATASIZE PUSH1 0x0 DUP1 RETURNDATACOPY RETURNDATASIZE PUSH1 0x0 REVERT JUMPDEST POP POP POP POP PUSH2 0x4C9 PUSH1 0x3E SLOAD PUSH1 0x1 PUSH1 0x1 PUSH1 0xA0 SHL SUB AND SWAP1 JUMP JUMPDEST PUSH1 0x1 PUSH1 0x1 PUSH1 0xA0 SHL SUB AND PUSH4 0xCA446DD9 PUSH1 0x3 PUSH1 0x2E ADD PUSH1 0x1 ADD PUSH1 0x40 MLOAD PUSH2 0x4EC SWAP2 SWAP1 PUSH2 0x1BC5 JUMP JUMPDEST PUSH1 0x40 MLOAD DUP1 SWAP2 SUB SWAP1 KECCAK256 PUSH2 0x506 PUSH1 0x3E SLOAD PUSH1 0x1 PUSH1 0x1 PUSH1 0xA0 SHL SUB AND SWAP1 JUMP JUMPDEST PUSH1 0x1 PUSH1 0x1 PUSH1 0xA0 SHL SUB AND PUSH4 0x21F8A721 PUSH1 0x3 PUSH1 0x2E ADD PUSH1 0x3 ADD PUSH1 0x40 MLOAD PUSH2 0x529 SWAP2 SWAP1 PUSH2 0x1BC5 JUMP JUMPDEST PUSH1 0x40 MLOAD SWAP1 DUP2 SWAP1 SUB DUP2 KECCAK256 PUSH1 0xE0 DUP4 SWAP1 SHL PUSH1 0x1 PUSH1 0x1 PUSH1 0xE0 SHL SUB NOT AND DUP3 MSTORE PUSH1 0x4 DUP3 ADD MSTORE PUSH1 0x24 ADD PUSH1 0x20 PUSH1 0x40 MLOAD DUP1 DUP4 SUB DUP2 DUP7 GAS STATICCALL ISZERO DUP1 ISZERO PUSH2 0x568 JUMPI RETURNDATASIZE PUSH1 0x0 DUP1 RETURNDATACOPY RETURNDATASIZE PUSH1 0x0 REVERT JUMPDEST POP POP POP POP PUSH1 0x40 MLOAD RETURNDATASIZE PUSH1 0x1F NOT PUSH1 0x1F DUP3 ADD AND DUP3 ADD DUP1 PUSH1 0x40 MSTORE POP DUP2 ADD SWAP1 PUSH2 0x58C SWAP2 SWAP1 PUSH2 0x1C61 JUMP JUMPDEST PUSH1 0x40 MLOAD PUSH1 0x1 PUSH1 0x1 PUSH1 0xE0 SHL SUB NOT PUSH1 0xE0 DUP6 SWAP1 SHL AND DUP2 MSTORE PUSH1 0x4 DUP2 ADD SWAP3 SWAP1 SWAP3 MSTORE PUSH1 0x1 PUSH1 0x1 PUSH1 0xA0 SHL SUB AND PUSH1 0x24 DUP3 ADD MSTORE PUSH1 0x44 ADD PUSH1 0x0 PUSH1 0x40 MLOAD DUP1 DUP4 SUB DUP2 PUSH1 0x0 DUP8 DUP1 EXTCODESIZE ISZERO DUP1 ISZERO PUSH2 0x5D3 JUMPI PUSH1 0x0 DUP1 REVERT JUMPDEST POP GAS CALL ISZERO DUP1 ISZERO PUSH2 0x5E7 JUMPI RETURNDATASIZE PUSH1 0x0 DUP1 RETURNDATACOPY RETURNDATASIZE PUSH1 0x0 REVERT JUMPDEST POP POP POP POP JUMP JUMPDEST PUSH2 0x603 CALLER PUSH1 0x0 CALLDATALOAD PUSH1 0x1 PUSH1 0x1 PUSH1 0xE0 SHL SUB NOT AND PUSH2 0x16E2 JUMP JUMPDEST PUSH2 0x61F JUMPI PUSH1 0x40 MLOAD PUSH3 0x461BCD PUSH1 0xE5 SHL DUP2 MSTORE PUSH1 0x4 ADD PUSH2 0x38B SWAP1 PUSH2 0x1B97 JUMP JUMPDEST PUSH1 0x0 JUMPDEST DUP2 DUP2 LT ISZERO PUSH2 0x666 JUMPI PUSH2 0x654 DUP4 DUP4 DUP4 DUP2 DUP2 LT PUSH2 0x63F JUMPI PUSH2 0x63F PUSH2 0x1C7E JUMP JUMPDEST SWAP1 POP PUSH1 0x20 MUL ADD PUSH1 0x20 DUP2 ADD SWAP1 PUSH2 0x188 SWAP2 SWAP1 PUSH2 0x18EA JUMP JUMPDEST PUSH2 0x65F PUSH1 0x1 DUP3 PUSH2 0x1C94 JUMP JUMPDEST SWAP1 POP PUSH2 0x622 JUMP JUMPDEST POP POP POP JUMP JUMPDEST PUSH2 0x681 CALLER PUSH1 0x0 CALLDATALOAD PUSH1 0x1 PUSH1 0x1 PUSH1 0xE0 SHL SUB NOT AND PUSH2 0x16E2 JUMP JUMPDEST PUSH2 0x69D JUMPI PUSH1 0x40 MLOAD PUSH3 0x461BCD PUSH1 0xE5 SHL DUP2 MSTORE PUSH1 0x4 ADD PUSH2 0x38B SWAP1 PUSH2 0x1B97 JUMP JUMPDEST PUSH1 0x3E SLOAD PUSH1 0x1 PUSH1 0x1 PUSH1 0xA0 SHL SUB AND PUSH1 0x1 PUSH1 0x1 PUSH1 0xA0 SHL SUB AND PUSH4 0x2C62FF2D DUP3 PUSH1 0x40 MLOAD PUSH1 0x20 ADD PUSH2 0x6C8 SWAP2 SWAP1 PUSH2 0x1CBA JUMP JUMPDEST PUSH1 0x40 MLOAD PUSH1 0x20 DUP2 DUP4 SUB SUB DUP2 MSTORE SWAP1 PUSH1 0x40 MSTORE DUP1 MLOAD SWAP1 PUSH1 0x20 ADD KECCAK256 PUSH1 0x40 MLOAD DUP3 PUSH4 0xFFFFFFFF AND PUSH1 0xE0 SHL DUP2 MSTORE PUSH1 0x4 ADD PUSH2 0x6FC SWAP2 DUP2 MSTORE PUSH1 0x20 ADD SWAP1 JUMP JUMPDEST PUSH1 0x0 PUSH1 0x40 MLOAD DUP1 DUP4 SUB DUP2 PUSH1 0x0 DUP8 DUP1 EXTCODESIZE ISZERO DUP1 ISZERO PUSH2 0x716 JUMPI PUSH1 0x0 DUP1 REVERT JUMPDEST POP GAS CALL ISZERO DUP1 ISZERO PUSH2 0x72A JUMPI RETURNDATASIZE PUSH1 0x0 DUP1 RETURNDATACOPY RETURNDATASIZE PUSH1 0x0 REVERT JUMPDEST POP POP POP POP POP JUMP JUMPDEST PUSH2 0x747 CALLER PUSH1 0x0 CALLDATALOAD PUSH1 0x1 PUSH1 0x1 PUSH1 0xE0 SHL SUB NOT AND PUSH2 0x16E2 JUMP JUMPDEST PUSH2 0x763 JUMPI PUSH1 0x40 MLOAD PUSH3 0x461BCD PUSH1 0xE5 SHL DUP2 MSTORE PUSH1 0x4 ADD PUSH2 0x38B SWAP1 PUSH2 0x1B97 JUMP JUMPDEST PUSH1 0x41 DUP1 SLOAD PUSH1 0x1 PUSH1 0x1 PUSH1 0xA0 SHL SUB NOT AND PUSH1 0x1 PUSH1 0x1 PUSH1 0xA0 SHL SUB DUP4 AND SWAP1 DUP2 OR SWAP1 SWAP2 SSTORE PUSH1 0x40 MLOAD PUSH32 0xCE241D7CA1F669FEE44B6FC00B8EBA2DF3BB514EED0F6F668F8F89096E81ED94 SWAP1 PUSH1 0x0 SWAP1 LOG2 POP JUMP JUMPDEST PUSH1 0x0 PUSH2 0x7C1 PUSH1 0x3E SLOAD PUSH1 0x1 PUSH1 0x1 PUSH1 0xA0 SHL SUB AND SWAP1 JUMP JUMPDEST PUSH1 0x1 PUSH1 0x1 PUSH1 0xA0 SHL SUB AND PUSH4 0xBD02D0F5 DUP6 DUP6 DUP6 PUSH1 0x40 MLOAD PUSH1 0x20 ADD PUSH2 0x7E4 SWAP4 SWAP3 SWAP2 SWAP1 PUSH2 0x1CF8 JUMP JUMPDEST PUSH1 0x40 MLOAD PUSH1 0x20 DUP2 DUP4 SUB SUB DUP2 MSTORE SWAP1 PUSH1 0x40 MSTORE DUP1 MLOAD SWAP1 PUSH1 0x20 ADD KECCAK256 PUSH1 0x40 MLOAD DUP3 PUSH4 0xFFFFFFFF AND PUSH1 0xE0 SHL DUP2 MSTORE PUSH1 0x4 ADD PUSH2 0x818 SWAP2 DUP2 MSTORE PUSH1 0x20 ADD SWAP1 JUMP JUMPDEST PUSH1 0x20 PUSH1 0x40 MLOAD DUP1 DUP4 SUB DUP2 DUP7 GAS STATICCALL ISZERO DUP1 ISZERO PUSH2 0x835 JUMPI RETURNDATASIZE PUSH1 0x0 DUP1 RETURNDATACOPY RETURNDATASIZE PUSH1 0x0 REVERT JUMPDEST POP POP POP POP PUSH1 0x40 MLOAD RETURNDATASIZE PUSH1 0x1F NOT PUSH1 0x1F DUP3 ADD AND DUP3 ADD DUP1 PUSH1 0x40 MSTORE POP DUP2 ADD SWAP1 PUSH2 0x859 SWAP2 SWAP1 PUSH2 0x1D47 JUMP JUMPDEST SWAP5 SWAP4 POP POP POP POP JUMP JUMPDEST PUSH2 0x666 DUP4 PUSH1 0x60 SHL PUSH1 0x1 PUSH1 0x1 PUSH1 0x60 SHL SUB NOT AND DUP4 PUSH1 0x60 SHL PUSH1 0x1 PUSH1 0x1 PUSH1 0x60 SHL SUB NOT AND DUP4 PUSH2 0xC3F JUMP JUMPDEST PUSH2 0x89C CALLER PUSH1 0x0 CALLDATALOAD PUSH1 0x1 PUSH1 0x1 PUSH1 0xE0 SHL SUB NOT AND PUSH2 0x16E2 JUMP JUMPDEST PUSH2 0x8B8 JUMPI PUSH1 0x40 MLOAD PUSH3 0x461BCD PUSH1 0xE5 SHL DUP2 MSTORE PUSH1 0x4 ADD PUSH2 0x38B SWAP1 PUSH2 0x1B97 JUMP JUMPDEST PUSH1 0x3E SLOAD PUSH1 0x1 PUSH1 0x1 PUSH1 0xA0 SHL SUB AND PUSH1 0x1 PUSH1 0x1 PUSH1 0xA0 SHL SUB AND PUSH4 0xABFDCCED DUP3 PUSH1 0x40 MLOAD PUSH1 0x20 ADD PUSH2 0x8E3 SWAP2 SWAP1 PUSH2 0x1CBA JUMP JUMPDEST PUSH1 0x40 DUP1 MLOAD PUSH1 0x1F NOT DUP2 DUP5 SUB ADD DUP2 MSTORE SWAP1 DUP3 SWAP1 MSTORE DUP1 MLOAD PUSH1 0x20 SWAP1 SWAP2 ADD KECCAK256 PUSH1 0x1 PUSH1 0x1 PUSH1 0xE0 SHL SUB NOT PUSH1 0xE0 DUP5 SWAP1 SHL AND DUP3 MSTORE PUSH1 0x4 DUP3 ADD MSTORE PUSH1 0x1 PUSH1 0x24 DUP3 ADD MSTORE PUSH1 0x44 ADD PUSH2 0x6FC JUMP JUMPDEST PUSH2 0x937 CALLER PUSH1 0x0 CALLDATALOAD PUSH1 0x1 PUSH1 0x1 PUSH1 0xE0 SHL SUB NOT AND PUSH2 0x16E2 JUMP JUMPDEST PUSH2 0x953 JUMPI PUSH1 0x40 MLOAD PUSH3 0x461BCD PUSH1 0xE5 SHL DUP2 MSTORE PUSH1 0x4 ADD PUSH2 0x38B SWAP1 PUSH2 0x1B97 JUMP JUMPDEST PUSH8 0xDE0B6B3A7640000 DUP2 GT ISZERO PUSH2 0x9CA JUMPI PUSH1 0x40 MLOAD PUSH3 0x461BCD PUSH1 0xE5 SHL DUP2 MSTORE PUSH1 0x20 PUSH1 0x4 DUP3 ADD MSTORE PUSH1 0x36 PUSH1 0x24 DUP3 ADD MSTORE PUSH32 0x72657761726452617465206D757374206265206C657373207468616E206F7220 PUSH1 0x44 DUP3 ADD MSTORE PUSH22 0x657571616C20746F203165313820616B612031303025 PUSH1 0x50 SHL PUSH1 0x64 DUP3 ADD MSTORE PUSH1 0x84 ADD PUSH2 0x38B JUMP JUMPDEST PUSH2 0x9D2 PUSH2 0x17BE JUMP JUMPDEST PUSH1 0x1 PUSH1 0x1 PUSH1 0xA0 SHL SUB AND PUSH4 0x9EF3A261 DUP3 PUSH1 0x40 MLOAD DUP3 PUSH4 0xFFFFFFFF AND PUSH1 0xE0 SHL DUP2 MSTORE PUSH1 0x4 ADD PUSH2 0x6FC SWAP2 DUP2 MSTORE PUSH1 0x20 ADD SWAP1 JUMP JUMPDEST PUSH2 0xA15 CALLER PUSH1 0x0 CALLDATALOAD PUSH1 0x1 PUSH1 0x1 PUSH1 0xE0 SHL SUB NOT AND PUSH2 0x16E2 JUMP JUMPDEST PUSH2 0xA31 JUMPI PUSH1 0x40 MLOAD PUSH3 0x461BCD PUSH1 0xE5 SHL DUP2 MSTORE PUSH1 0x4 ADD PUSH2 0x38B SWAP1 PUSH2 0x1B97 JUMP JUMPDEST PUSH1 0x0 JUMPDEST DUP2 DUP2 LT ISZERO PUSH2 0x666 JUMPI PUSH2 0xA66 DUP4 DUP4 DUP4 DUP2 DUP2 LT PUSH2 0xA51 JUMPI PUSH2 0xA51 PUSH2 0x1C7E JUMP JUMPDEST SWAP1 POP PUSH1 0x20 MUL ADD PUSH1 0x20 DUP2 ADD SWAP1 PUSH2 0x1E7 SWAP2 SWAP1 PUSH2 0x18EA JUMP JUMPDEST PUSH2 0xA71 PUSH1 0x1 DUP3 PUSH2 0x1C94 JUMP JUMPDEST SWAP1 POP PUSH2 0xA34 JUMP JUMPDEST PUSH2 0xA8E CALLER PUSH1 0x0 CALLDATALOAD PUSH1 0x1 PUSH1 0x1 PUSH1 0xE0 SHL SUB NOT AND PUSH2 0x16E2 JUMP JUMPDEST PUSH2 0xAAA JUMPI PUSH1 0x40 MLOAD PUSH3 0x461BCD PUSH1 0xE5 SHL DUP2 MSTORE PUSH1 0x4 ADD PUSH2 0x38B SWAP1 PUSH2 0x1B97 JUMP JUMPDEST PUSH1 0x3E SLOAD PUSH1 0x40 MLOAD PUSH1 0x1 PUSH1 0x1 PUSH1 0xA0 SHL SUB SWAP1 SWAP2 AND SWAP1 PUSH4 0xCA446DD9 SWAP1 PUSH2 0xACE SWAP1 PUSH1 0x31 SWAP1 PUSH2 0x1BC5 JUMP JUMPDEST PUSH1 0x40 MLOAD DUP1 SWAP2 SUB SWAP1 KECCAK256 PUSH2 0xAE8 PUSH1 0x3E SLOAD PUSH1 0x1 PUSH1 0x1 PUSH1 0xA0 SHL SUB AND SWAP1 JUMP JUMPDEST PUSH1 0x1 PUSH1 0x1 PUSH1 0xA0 SHL SUB AND PUSH4 0x21F8A721 PUSH1 0x3 PUSH1 0x2E ADD PUSH1 0x4 ADD PUSH1 0x40 MLOAD PUSH2 0xB0B SWAP2 SWAP1 PUSH2 0x1BC5 JUMP JUMPDEST PUSH1 0x40 MLOAD SWAP1 DUP2 SWAP1 SUB DUP2 KECCAK256 PUSH1 0xE0 DUP4 SWAP1 SHL PUSH1 0x1 PUSH1 0x1 PUSH1 0xE0 SHL SUB NOT AND DUP3 MSTORE PUSH1 0x4 DUP3 ADD MSTORE PUSH1 0x24 ADD PUSH1 0x20 PUSH1 0x40 MLOAD DUP1 DUP4 SUB DUP2 DUP7 GAS STATICCALL ISZERO DUP1 ISZERO PUSH2 0xB4A JUMPI RETURNDATASIZE PUSH1 0x0 DUP1 RETURNDATACOPY RETURNDATASIZE PUSH1 0x0 REVERT JUMPDEST POP POP POP POP PUSH1 0x40 MLOAD RETURNDATASIZE PUSH1 0x1F NOT PUSH1 0x1F DUP3 ADD AND DUP3 ADD DUP1 PUSH1 0x40 MSTORE POP DUP2 ADD SWAP1 PUSH2 0xB6E SWAP2 SWAP1 PUSH2 0x1C61 JUMP JUMPDEST PUSH1 0x40 MLOAD PUSH1 0x1 PUSH1 0x1 PUSH1 0xE0 SHL SUB NOT PUSH1 0xE0 DUP6 SWAP1 SHL AND DUP2 MSTORE PUSH1 0x4 DUP2 ADD SWAP3 SWAP1 SWAP3 MSTORE PUSH1 0x1 PUSH1 0x1 PUSH1 0xA0 SHL SUB AND PUSH1 0x24 DUP3 ADD MSTORE PUSH1 0x44 ADD PUSH1 0x0 PUSH1 0x40 MLOAD DUP1 DUP4 SUB DUP2 PUSH1 0x0 DUP8 DUP1 EXTCODESIZE ISZERO DUP1 ISZERO PUSH2 0xBB5 JUMPI PUSH1 0x0 DUP1 REVERT JUMPDEST POP GAS CALL ISZERO DUP1 ISZERO PUSH2 0xBC9 JUMPI RETURNDATASIZE PUSH1 0x0 DUP1 RETURNDATACOPY RETURNDATASIZE PUSH1 0x0 REVERT JUMPDEST POP POP POP POP PUSH2 0xBDF PUSH1 0x3E SLOAD PUSH1 0x1 PUSH1 0x1 PUSH1 0xA0 SHL SUB AND SWAP1 JUMP JUMPDEST PUSH1 0x1 PUSH1 0x1 PUSH1 0xA0 SHL SUB AND PUSH4 0xCA446DD9 PUSH1 0x3 PUSH1 0x2E ADD PUSH1 0x1 ADD PUSH1 0x40 MLOAD PUSH2 0xC02 SWAP2 SWAP1 PUSH2 0x1BC5 JUMP JUMPDEST PUSH1 0x40 MLOAD DUP1 SWAP2 SUB SWAP1 KECCAK256 PUSH2 0xC1C PUSH1 0x3E SLOAD PUSH1 0x1 PUSH1 0x1 PUSH1 0xA0 SHL SUB AND SWAP1 JUMP JUMPDEST PUSH1 0x1 PUSH1 0x1 PUSH1 0xA0 SHL SUB AND PUSH4 0x21F8A721 PUSH1 0x3 PUSH1 0x2E ADD PUSH1 0x5 ADD PUSH1 0x40 MLOAD PUSH2 0x529 SWAP2 SWAP1 PUSH2 0x1BC5 JUMP JUMPDEST PUSH2 0xC55 CALLER PUSH1 0x0 CALLDATALOAD PUSH1 0x1 PUSH1 0x1 PUSH1 0xE0 SHL SUB NOT AND PUSH2 0x16E2 JUMP JUMPDEST PUSH2 0xC71 JUMPI PUSH1 0x40 MLOAD PUSH3 0x461BCD PUSH1 0xE5 SHL DUP2 MSTORE PUSH1 0x4 ADD PUSH2 0x38B SWAP1 PUSH2 0x1B97 JUMP JUMPDEST PUSH1 0x0 DUP4 DUP2 MSTORE PUSH1 0x42 PUSH1 0x20 SWAP1 DUP2 MSTORE PUSH1 0x40 DUP1 DUP4 KECCAK256 DUP6 DUP5 MSTORE DUP3 MSTORE DUP1 DUP4 KECCAK256 DUP5 DUP5 MSTORE SWAP1 SWAP2 MSTORE DUP1 DUP3 KECCAK256 DUP1 SLOAD PUSH1 0xFF NOT AND SWAP1 SSTORE MLOAD DUP3 SWAP2 DUP5 SWAP2 DUP7 SWAP2 PUSH32 0x95BA64C95D85E67AC83A0476C4A62AC2CF8AB2D0407545B8C9D79C3EEFA62829 SWAP2 LOG4 POP POP POP JUMP JUMPDEST PUSH2 0xCE0 CALLER PUSH1 0x0 CALLDATALOAD PUSH1 0x1 PUSH1 0x1 PUSH1 0xE0 SHL SUB NOT AND PUSH2 0x16E2 JUMP JUMPDEST PUSH2 0xCFC JUMPI PUSH1 0x40 MLOAD PUSH3 0x461BCD PUSH1 0xE5 SHL DUP2 MSTORE PUSH1 0x4 ADD PUSH2 0x38B SWAP1 PUSH2 0x1B97 JUMP JUMPDEST PUSH1 0x40 DUP1 SLOAD PUSH1 0x1 PUSH1 0x1 PUSH1 0xA0 SHL SUB NOT AND PUSH1 0x1 PUSH1 0x1 PUSH1 0xA0 SHL SUB DUP4 AND SWAP1 DUP2 OR DUP3 SSTORE SWAP1 MLOAD PUSH32 0x1ABEBEA81BFA2637F28358C371278FB15EDE7EA8DD28D2E03B112FF6D936ADA4 SWAP1 PUSH1 0x0 SWAP1 LOG2 POP JUMP JUMPDEST PUSH2 0xD5A CALLER PUSH1 0x0 CALLDATALOAD PUSH1 0x1 PUSH1 0x1 PUSH1 0xE0 SHL SUB NOT AND PUSH2 0x16E2 JUMP JUMPDEST PUSH2 0xD76 JUMPI PUSH1 0x40 MLOAD PUSH3 0x461BCD PUSH1 0xE5 SHL DUP2 MSTORE PUSH1 0x4 ADD PUSH2 0x38B SWAP1 PUSH2 0x1B97 JUMP JUMPDEST PUSH1 0x3E SLOAD PUSH1 0x1 PUSH1 0x1 PUSH1 0xA0 SHL SUB AND PUSH1 0x1 PUSH1 0x1 PUSH1 0xA0 SHL SUB AND PUSH4 0xE2A4853A DUP6 DUP6 DUP6 PUSH1 0x40 MLOAD PUSH1 0x20 ADD PUSH2 0xDA5 SWAP4 SWAP3 SWAP2 SWAP1 PUSH2 0x1CF8 JUMP JUMPDEST PUSH1 0x40 DUP1 MLOAD PUSH1 0x1F NOT DUP2 DUP5 SUB ADD DUP2 MSTORE SWAP1 DUP3 SWAP1 MSTORE DUP1 MLOAD PUSH1 0x20 SWAP1 SWAP2 ADD KECCAK256 PUSH1 0x1 PUSH1 0x1 PUSH1 0xE0 SHL SUB NOT PUSH1 0xE0 DUP5 SWAP1 SHL AND DUP3 MSTORE PUSH1 0x4 DUP3 ADD MSTORE PUSH1 0x24 DUP2 ADD DUP5 SWAP1 MSTORE PUSH1 0x44 ADD PUSH1 0x0 PUSH1 0x40 MLOAD DUP1 DUP4 SUB DUP2 PUSH1 0x0 DUP8 DUP1 EXTCODESIZE ISZERO DUP1 ISZERO PUSH2 0xDF8 JUMPI PUSH1 0x0 DUP1 REVERT JUMPDEST POP GAS CALL ISZERO DUP1 ISZERO PUSH2 0xE0C JUMPI RETURNDATASIZE PUSH1 0x0 DUP1 RETURNDATACOPY RETURNDATASIZE PUSH1 0x0 REVERT JUMPDEST POP POP POP POP POP POP POP POP JUMP JUMPDEST PUSH1 0x1 PUSH1 0x1 PUSH1 0x60 SHL SUB NOT PUSH1 0x60 DUP5 DUP2 SHL DUP3 AND PUSH1 0x0 DUP2 DUP2 MSTORE PUSH1 0x42 PUSH1 0x20 SWAP1 DUP2 MSTORE PUSH1 0x40 DUP1 DUP4 KECCAK256 SWAP5 DUP9 SWAP1 SHL SWAP1 SWAP6 AND DUP1 DUP4 MSTORE SWAP4 DUP2 MSTORE DUP5 DUP3 KECCAK256 PUSH1 0x1 PUSH1 0x1 PUSH1 0xE0 SHL SUB NOT DUP8 AND DUP4 MSTORE SWAP1 MSTORE SWAP3 DUP4 KECCAK256 SLOAD SWAP1 SWAP2 SWAP1 PUSH1 0xFF AND DUP1 PUSH2 0xE8E JUMPI POP PUSH1 0x0 DUP3 DUP2 MSTORE PUSH1 0x42 PUSH1 0x20 SWAP1 DUP2 MSTORE PUSH1 0x40 DUP1 DUP4 KECCAK256 DUP5 DUP5 MSTORE DUP3 MSTORE DUP1 DUP4 KECCAK256 PUSH1 0x0 NOT DUP5 MSTORE SWAP1 SWAP2 MSTORE SWAP1 KECCAK256 SLOAD PUSH1 0xFF AND JUMPDEST DUP1 PUSH2 0xEC6 JUMPI POP PUSH1 0x0 DUP3 DUP2 MSTORE PUSH1 0x42 PUSH1 0x20 SWAP1 DUP2 MSTORE PUSH1 0x40 DUP1 DUP4 KECCAK256 PUSH1 0x0 NOT DUP5 MSTORE DUP3 MSTORE DUP1 DUP4 KECCAK256 PUSH1 0x1 PUSH1 0x1 PUSH1 0xE0 SHL SUB NOT DUP9 AND DUP5 MSTORE SWAP1 SWAP2 MSTORE SWAP1 KECCAK256 SLOAD PUSH1 0xFF AND JUMPDEST DUP1 PUSH2 0xEF1 JUMPI POP PUSH1 0x0 DUP3 DUP2 MSTORE PUSH1 0x42 PUSH1 0x20 SWAP1 DUP2 MSTORE PUSH1 0x40 DUP1 DUP4 KECCAK256 PUSH1 0x0 NOT DUP5 MSTORE DUP3 MSTORE DUP1 DUP4 KECCAK256 SWAP1 SWAP2 MSTORE SWAP1 KECCAK256 SLOAD PUSH1 0xFF AND JUMPDEST DUP1 PUSH2 0xF3E JUMPI POP PUSH1 0x0 DUP2 DUP2 MSTORE PUSH32 0x8AD878264FB6114F908DE715B98126AE5E313EDCA37361587095AA79974982C PUSH1 0x20 SWAP1 DUP2 MSTORE PUSH1 0x40 DUP1 DUP4 KECCAK256 PUSH1 0x1 PUSH1 0x1 PUSH1 0xE0 SHL SUB NOT DUP9 AND DUP5 MSTORE SWAP1 SWAP2 MSTORE SWAP1 KECCAK256 SLOAD PUSH1 0xFF AND JUMPDEST DUP1 PUSH2 0xF83 JUMPI POP PUSH1 0x0 DUP2 DUP2 MSTORE PUSH32 0x8AD878264FB6114F908DE715B98126AE5E313EDCA37361587095AA79974982C PUSH1 0x20 SWAP1 DUP2 MSTORE PUSH1 0x40 DUP1 DUP4 KECCAK256 PUSH1 0x0 NOT DUP5 MSTORE SWAP1 SWAP2 MSTORE SWAP1 KECCAK256 SLOAD PUSH1 0xFF AND JUMPDEST DUP1 PUSH2 0xFC6 JUMPI POP PUSH1 0x1 PUSH1 0x1 PUSH1 0xE0 SHL SUB NOT DUP5 AND PUSH1 0x0 SWAP1 DUP2 MSTORE PUSH32 0xEE130E11FFA87B36F99B54D77C808F5C2D619C8682F89CDFE370B4F782DD5D04 PUSH1 0x20 MSTORE PUSH1 0x40 SWAP1 KECCAK256 SLOAD PUSH1 0xFF AND JUMPDEST DUP1 PUSH2 0x101C JUMPI POP PUSH1 0x0 NOT PUSH1 0x0 MSTORE PUSH32 0xEE130E11FFA87B36F99B54D77C808F5C2D619C8682F89CDFE370B4F782DD5D04 PUSH1 0x20 MSTORE PUSH32 0xEAFF208A1BE35C458653B3AC9101C651EAB76399ED6AE9076544EA5528EFBE36 SLOAD PUSH1 0xFF AND JUMPDEST SWAP7 SWAP6 POP POP POP POP POP POP JUMP JUMPDEST PUSH2 0x666 DUP4 PUSH1 0x60 SHL PUSH1 0x1 PUSH1 0x1 PUSH1 0x60 SHL SUB NOT AND DUP4 PUSH1 0x60 SHL PUSH1 0x1 PUSH1 0x1 PUSH1 0x60 SHL SUB NOT AND DUP4 PUSH2 0x14E7 JUMP JUMPDEST PUSH2 0x1061 CALLER PUSH1 0x0 CALLDATALOAD PUSH1 0x1 PUSH1 0x1 PUSH1 0xE0 SHL SUB NOT AND PUSH2 0x16E2 JUMP JUMPDEST PUSH2 0x107D JUMPI PUSH1 0x40 MLOAD PUSH3 0x461BCD PUSH1 0xE5 SHL DUP2 MSTORE PUSH1 0x4 ADD PUSH2 0x38B SWAP1 PUSH2 0x1B97 JUMP JUMPDEST PUSH1 0x3E SLOAD PUSH1 0x1 PUSH1 0x1 PUSH1 0xA0 SHL SUB AND PUSH1 0x1 PUSH1 0x1 PUSH1 0xA0 SHL SUB AND PUSH4 0x2C62FF2D DUP4 DUP4 PUSH1 0x40 MLOAD PUSH1 0x20 ADD PUSH2 0x10AA SWAP3 SWAP2 SWAP1 PUSH2 0x1D60 JUMP JUMPDEST PUSH1 0x40 MLOAD PUSH1 0x20 DUP2 DUP4 SUB SUB DUP2 MSTORE SWAP1 PUSH1 0x40 MSTORE DUP1 MLOAD SWAP1 PUSH1 0x20 ADD KECCAK256 PUSH1 0x40 MLOAD DUP3 PUSH4 0xFFFFFFFF AND PUSH1 0xE0 SHL DUP2 MSTORE PUSH1 0x4 ADD PUSH2 0x10DE SWAP2 DUP2 MSTORE PUSH1 0x20 ADD SWAP1 JUMP JUMPDEST PUSH1 0x0 PUSH1 0x40 MLOAD DUP1 DUP4 SUB DUP2 PUSH1 0x0 DUP8 DUP1 EXTCODESIZE ISZERO DUP1 ISZERO PUSH2 0x10F8 JUMPI PUSH1 0x0 DUP1 REVERT JUMPDEST POP GAS CALL ISZERO DUP1 ISZERO PUSH2 0x110C JUMPI RETURNDATASIZE PUSH1 0x0 DUP1 RETURNDATACOPY RETURNDATASIZE PUSH1 0x0 REVERT JUMPDEST POP POP POP POP PUSH2 0x1122 PUSH1 0x3E SLOAD PUSH1 0x1 PUSH1 0x1 PUSH1 0xA0 SHL SUB AND SWAP1 JUMP JUMPDEST PUSH1 0x1 PUSH1 0x1 PUSH1 0xA0 SHL SUB AND PUSH4 0xE2B202BF DUP4 DUP4 PUSH1 0x40 MLOAD PUSH1 0x20 ADD PUSH2 0x1143 SWAP3 SWAP2 SWAP1 PUSH2 0x1D99 JUMP JUMPDEST PUSH1 0x40 MLOAD PUSH1 0x20 DUP2 DUP4 SUB SUB DUP2 MSTORE SWAP1 PUSH1 0x40 MSTORE DUP1 MLOAD SWAP1 PUSH1 0x20 ADD KECCAK256 PUSH1 0x40 MLOAD DUP3 PUSH4 0xFFFFFFFF AND PUSH1 0xE0 SHL DUP2 MSTORE PUSH1 0x4 ADD PUSH2 0x1177 SWAP2 DUP2 MSTORE PUSH1 0x20 ADD SWAP1 JUMP JUMPDEST PUSH1 0x0 PUSH1 0x40 MLOAD DUP1 DUP4 SUB DUP2 PUSH1 0x0 DUP8 DUP1 EXTCODESIZE ISZERO DUP1 ISZERO PUSH2 0x1191 JUMPI PUSH1 0x0 DUP1 REVERT JUMPDEST POP GAS CALL ISZERO DUP1 ISZERO PUSH2 0x11A5 JUMPI RETURNDATASIZE PUSH1 0x0 DUP1 RETURNDATACOPY RETURNDATASIZE PUSH1 0x0 REVERT JUMPDEST POP POP POP POP POP POP JUMP JUMPDEST PUSH1 0x0 PUSH2 0x11C1 PUSH1 0x3E SLOAD PUSH1 0x1 PUSH1 0x1 PUSH1 0xA0 SHL SUB AND SWAP1 JUMP JUMPDEST PUSH1 0x1 PUSH1 0x1 PUSH1 0xA0 SHL SUB AND PUSH4 0x7AE1CFCA DUP4 PUSH1 0x40 MLOAD PUSH1 0x20 ADD PUSH2 0x11E0 SWAP2 SWAP1 PUSH2 0x1CBA JUMP JUMPDEST PUSH1 0x40 MLOAD PUSH1 0x20 DUP2 DUP4 SUB SUB DUP2 MSTORE SWAP1 PUSH1 0x40 MSTORE DUP1 MLOAD SWAP1 PUSH1 0x20 ADD KECCAK256 PUSH1 0x40 MLOAD DUP3 PUSH4 0xFFFFFFFF AND PUSH1 0xE0 SHL DUP2 MSTORE PUSH1 0x4 ADD PUSH2 0x1214 SWAP2 DUP2 MSTORE PUSH1 0x20 ADD SWAP1 JUMP JUMPDEST PUSH1 0x20 PUSH1 0x40 MLOAD DUP1 DUP4 SUB DUP2 DUP7 GAS STATICCALL ISZERO DUP1 ISZERO PUSH2 0x1231 JUMPI RETURNDATASIZE PUSH1 0x0 DUP1 RETURNDATACOPY RETURNDATASIZE PUSH1 0x0 REVERT JUMPDEST POP POP POP POP PUSH1 0x40 MLOAD RETURNDATASIZE PUSH1 0x1F NOT PUSH1 0x1F DUP3 ADD AND DUP3 ADD DUP1 PUSH1 0x40 MSTORE POP DUP2 ADD SWAP1 PUSH2 0x1255 SWAP2 SWAP1 PUSH2 0x1DD2 JUMP JUMPDEST SWAP3 SWAP2 POP POP JUMP JUMPDEST PUSH1 0x0 DUP1 PUSH1 0x0 PUSH2 0x1272 PUSH1 0x3E SLOAD PUSH1 0x1 PUSH1 0x1 PUSH1 0xA0 SHL SUB AND SWAP1 JUMP JUMPDEST PUSH1 0x1 PUSH1 0x1 PUSH1 0xA0 SHL SUB AND PUSH4 0x7AE1CFCA DUP7 DUP7 PUSH1 0x40 MLOAD PUSH1 0x20 ADD PUSH2 0x1293 SWAP3 SWAP2 SWAP1 PUSH2 0x1D60 JUMP JUMPDEST PUSH1 0x40 MLOAD PUSH1 0x20 DUP2 DUP4 SUB SUB DUP2 MSTORE SWAP1 PUSH1 0x40 MSTORE DUP1 MLOAD SWAP1 PUSH1 0x20 ADD KECCAK256 PUSH1 0x40 MLOAD DUP3 PUSH4 0xFFFFFFFF AND PUSH1 0xE0 SHL DUP2 MSTORE PUSH1 0x4 ADD PUSH2 0x12C7 SWAP2 DUP2 MSTORE PUSH1 0x20 ADD SWAP1 JUMP JUMPDEST PUSH1 0x20 PUSH1 0x40 MLOAD DUP1 DUP4 SUB DUP2 DUP7 GAS STATICCALL ISZERO DUP1 ISZERO PUSH2 0x12E4 JUMPI RETURNDATASIZE PUSH1 0x0 DUP1 RETURNDATACOPY RETURNDATASIZE PUSH1 0x0 REVERT JUMPDEST POP POP POP POP PUSH1 0x40 MLOAD RETURNDATASIZE PUSH1 0x1F NOT PUSH1 0x1F DUP3 ADD AND DUP3 ADD DUP1 PUSH1 0x40 MSTORE POP DUP2 ADD SWAP1 PUSH2 0x1308 SWAP2 SWAP1 PUSH2 0x1DD2 JUMP JUMPDEST SWAP1 POP PUSH1 0x0 PUSH2 0x131E PUSH1 0x3E SLOAD PUSH1 0x1 PUSH1 0x1 PUSH1 0xA0 SHL SUB AND SWAP1 JUMP JUMPDEST PUSH1 0x1 PUSH1 0x1 PUSH1 0xA0 SHL SUB AND PUSH4 0xBD02D0F5 DUP8 DUP8 PUSH1 0x40 MLOAD PUSH1 0x20 ADD PUSH2 0x133F SWAP3 SWAP2 SWAP1 PUSH2 0x1D99 JUMP JUMPDEST PUSH1 0x40 MLOAD PUSH1 0x20 DUP2 DUP4 SUB SUB DUP2 MSTORE SWAP1 PUSH1 0x40 MSTORE DUP1 MLOAD SWAP1 PUSH1 0x20 ADD KECCAK256 PUSH1 0x40 MLOAD DUP3 PUSH4 0xFFFFFFFF AND PUSH1 0xE0 SHL DUP2 MSTORE PUSH1 0x4 ADD PUSH2 0x1373 SWAP2 DUP2 MSTORE PUSH1 0x20 ADD SWAP1 JUMP JUMPDEST PUSH1 0x20 PUSH1 0x40 MLOAD DUP1 DUP4 SUB DUP2 DUP7 GAS STATICCALL ISZERO DUP1 ISZERO PUSH2 0x1390 JUMPI RETURNDATASIZE PUSH1 0x0 DUP1 RETURNDATACOPY RETURNDATASIZE PUSH1 0x0 REVERT JUMPDEST POP POP POP POP PUSH1 0x40 MLOAD RETURNDATASIZE PUSH1 0x1F NOT PUSH1 0x1F DUP3 ADD AND DUP3 ADD DUP1 PUSH1 0x40 MSTORE POP DUP2 ADD SWAP1 PUSH2 0x13B4 SWAP2 SWAP1 PUSH2 0x1D47 JUMP JUMPDEST SWAP2 SWAP4 POP SWAP1 SWAP2 POP POP JUMPDEST SWAP3 POP SWAP3 SWAP1 POP JUMP JUMPDEST PUSH2 0x13D9 CALLER PUSH1 0x0 CALLDATALOAD PUSH1 0x1 PUSH1 0x1 PUSH1 0xE0 SHL SUB NOT AND PUSH2 0x16E2 JUMP JUMPDEST PUSH2 0x13F5 JUMPI PUSH1 0x40 MLOAD PUSH3 0x461BCD PUSH1 0xE5 SHL DUP2 MSTORE PUSH1 0x4 ADD PUSH2 0x38B SWAP1 PUSH2 0x1B97 JUMP JUMPDEST PUSH1 0x3E SLOAD PUSH1 0x40 MLOAD PUSH1 0x1 PUSH1 0x1 PUSH1 0xA0 SHL SUB SWAP1 SWAP2 AND SWAP1 PUSH4 0xCA446DD9 SWAP1 PUSH2 0x1419 SWAP1 PUSH1 0x31 SWAP1 PUSH2 0x1BC5 JUMP JUMPDEST PUSH1 0x40 MLOAD SWAP1 DUP2 SWAP1 SUB DUP2 KECCAK256 PUSH1 0xE0 DUP4 SWAP1 SHL PUSH1 0x1 PUSH1 0x1 PUSH1 0xE0 SHL SUB NOT AND DUP3 MSTORE PUSH1 0x4 DUP3 ADD MSTORE PUSH1 0x1 PUSH1 0x1 PUSH1 0xA0 SHL SUB DUP6 AND PUSH1 0x24 DUP3 ADD MSTORE PUSH1 0x44 ADD PUSH1 0x0 PUSH1 0x40 MLOAD DUP1 DUP4 SUB DUP2 PUSH1 0x0 DUP8 DUP1 EXTCODESIZE ISZERO DUP1 ISZERO PUSH2 0x1464 JUMPI PUSH1 0x0 DUP1 REVERT JUMPDEST POP GAS CALL ISZERO DUP1 ISZERO PUSH2 0x1478 JUMPI RETURNDATASIZE PUSH1 0x0 DUP1 RETURNDATACOPY RETURNDATASIZE PUSH1 0x0 REVERT JUMPDEST POP POP POP POP PUSH2 0x148E PUSH1 0x3E SLOAD PUSH1 0x1 PUSH1 0x1 PUSH1 0xA0 SHL SUB AND SWAP1 JUMP JUMPDEST PUSH1 0x1 PUSH1 0x1 PUSH1 0xA0 SHL SUB AND PUSH4 0xCA446DD9 PUSH1 0x3 PUSH1 0x2E ADD PUSH1 0x1 ADD PUSH1 0x40 MLOAD PUSH2 0x14B1 SWAP2 SWAP1 PUSH2 0x1BC5 JUMP JUMPDEST PUSH1 0x40 MLOAD SWAP1 DUP2 SWAP1 SUB DUP2 KECCAK256 PUSH1 0xE0 DUP4 SWAP1 SHL PUSH1 0x1 PUSH1 0x1 PUSH1 0xE0 SHL SUB NOT AND DUP3 MSTORE PUSH1 0x4 DUP3 ADD MSTORE PUSH1 0x1 PUSH1 0x1 PUSH1 0xA0 SHL SUB DUP5 AND PUSH1 0x24 DUP3 ADD MSTORE PUSH1 0x44 ADD PUSH2 0x1177 JUMP JUMPDEST PUSH2 0x14FD CALLER PUSH1 0x0 CALLDATALOAD PUSH1 0x1 PUSH1 0x1 PUSH1 0xE0 SHL SUB NOT AND PUSH2 0x16E2 JUMP JUMPDEST PUSH2 0x1519 JUMPI PUSH1 0x40 MLOAD PUSH3 0x461BCD PUSH1 0xE5 SHL DUP2 MSTORE PUSH1 0x4 ADD PUSH2 0x38B SWAP1 PUSH2 0x1B97 JUMP JUMPDEST PUSH1 0x0 DUP4 DUP2 MSTORE PUSH1 0x42 PUSH1 0x20 SWAP1 DUP2 MSTORE PUSH1 0x40 DUP1 DUP4 KECCAK256 DUP6 DUP5 MSTORE DUP3 MSTORE DUP1 DUP4 KECCAK256 DUP5 DUP5 MSTORE SWAP1 SWAP2 MSTORE DUP1 DUP3 KECCAK256 DUP1 SLOAD PUSH1 0xFF NOT AND PUSH1 0x1 OR SWAP1 SSTORE MLOAD DUP3 SWAP2 DUP5 SWAP2 DUP7 SWAP2 PUSH32 0x6F50375045128971C5469D343039BA7B8E30A5B190453737B28BDA6F7A306771 SWAP2 LOG4 POP POP POP JUMP JUMPDEST PUSH2 0x158B CALLER PUSH1 0x0 CALLDATALOAD PUSH1 0x1 PUSH1 0x1 PUSH1 0xE0 SHL SUB NOT AND PUSH2 0x16E2 JUMP JUMPDEST PUSH2 0x15A7 JUMPI PUSH1 0x40 MLOAD PUSH3 0x461BCD PUSH1 0xE5 SHL DUP2 MSTORE PUSH1 0x4 ADD PUSH2 0x38B SWAP1 PUSH2 0x1B97 JUMP JUMPDEST PUSH1 0x3E SLOAD PUSH1 0x1 PUSH1 0x1 PUSH1 0xA0 SHL SUB AND PUSH1 0x1 PUSH1 0x1 PUSH1 0xA0 SHL SUB AND PUSH4 0xABFDCCED DUP5 DUP5 PUSH1 0x40 MLOAD PUSH1 0x20 ADD PUSH2 0x15D4 SWAP3 SWAP2 SWAP1 PUSH2 0x1D60 JUMP JUMPDEST PUSH1 0x40 DUP1 MLOAD PUSH1 0x1F NOT DUP2 DUP5 SUB ADD DUP2 MSTORE SWAP1 DUP3 SWAP1 MSTORE DUP1 MLOAD PUSH1 0x20 SWAP1 SWAP2 ADD KECCAK256 PUSH1 0x1 PUSH1 0x1 PUSH1 0xE0 SHL SUB NOT PUSH1 0xE0 DUP5 SWAP1 SHL AND DUP3 MSTORE PUSH1 0x4 DUP3 ADD MSTORE PUSH1 0x1 PUSH1 0x24 DUP3 ADD MSTORE PUSH1 0x44 ADD PUSH1 0x0 PUSH1 0x40 MLOAD DUP1 DUP4 SUB DUP2 PUSH1 0x0 DUP8 DUP1 EXTCODESIZE ISZERO DUP1 ISZERO PUSH2 0x1627 JUMPI PUSH1 0x0 DUP1 REVERT JUMPDEST POP GAS CALL ISZERO DUP1 ISZERO PUSH2 0x163B JUMPI RETURNDATASIZE PUSH1 0x0 DUP1 RETURNDATACOPY RETURNDATASIZE PUSH1 0x0 REVERT JUMPDEST POP POP POP POP PUSH2 0x1651 PUSH1 0x3E SLOAD PUSH1 0x1 PUSH1 0x1 PUSH1 0xA0 SHL SUB AND SWAP1 JUMP JUMPDEST PUSH1 0x1 PUSH1 0x1 PUSH1 0xA0 SHL SUB AND PUSH4 0xE2A4853A DUP5 DUP5 PUSH1 0x40 MLOAD PUSH1 0x20 ADD PUSH2 0x1672 SWAP3 SWAP2 SWAP1 PUSH2 0x1D99 JUMP JUMPDEST PUSH1 0x40 DUP1 MLOAD PUSH1 0x1F NOT DUP2 DUP5 SUB ADD DUP2 MSTORE SWAP1 DUP3 SWAP1 MSTORE DUP1 MLOAD PUSH1 0x20 SWAP1 SWAP2 ADD KECCAK256 PUSH1 0x1 PUSH1 0x1 PUSH1 0xE0 SHL SUB NOT PUSH1 0xE0 DUP5 SWAP1 SHL AND DUP3 MSTORE PUSH1 0x4 DUP3 ADD MSTORE PUSH1 0x24 DUP2 ADD DUP5 SWAP1 MSTORE PUSH1 0x44 ADD PUSH1 0x0 PUSH1 0x40 MLOAD DUP1 DUP4 SUB DUP2 PUSH1 0x0 DUP8 DUP1 EXTCODESIZE ISZERO DUP1 ISZERO PUSH2 0x16C5 JUMPI PUSH1 0x0 DUP1 REVERT JUMPDEST POP GAS CALL ISZERO DUP1 ISZERO PUSH2 0x16D9 JUMPI RETURNDATASIZE PUSH1 0x0 DUP1 RETURNDATACOPY RETURNDATASIZE PUSH1 0x0 REVERT JUMPDEST POP POP POP POP POP POP POP JUMP JUMPDEST PUSH1 0x0 PUSH1 0x1 PUSH1 0x1 PUSH1 0xA0 SHL SUB DUP4 AND ADDRESS EQ ISZERO PUSH2 0x16FD JUMPI POP PUSH1 0x1 PUSH2 0x1255 JUMP JUMPDEST PUSH1 0x41 SLOAD PUSH1 0x1 PUSH1 0x1 PUSH1 0xA0 SHL SUB DUP5 DUP2 AND SWAP2 AND EQ ISZERO PUSH2 0x171B JUMPI POP PUSH1 0x1 PUSH2 0x1255 JUMP JUMPDEST PUSH1 0x40 SLOAD PUSH1 0x1 PUSH1 0x1 PUSH1 0xA0 SHL SUB AND PUSH2 0x1733 JUMPI POP PUSH1 0x0 PUSH2 0x1255 JUMP JUMPDEST PUSH1 0x40 DUP1 SLOAD SWAP1 MLOAD PUSH4 0xB7009613 PUSH1 0xE0 SHL DUP2 MSTORE PUSH1 0x1 PUSH1 0x1 PUSH1 0xA0 SHL SUB DUP6 DUP2 AND PUSH1 0x4 DUP4 ADD MSTORE ADDRESS PUSH1 0x24 DUP4 ADD MSTORE PUSH1 0x1 PUSH1 0x1 PUSH1 0xE0 SHL SUB NOT DUP6 AND PUSH1 0x44 DUP4 ADD MSTORE SWAP1 SWAP2 AND SWAP1 PUSH4 0xB7009613 SWAP1 PUSH1 0x64 ADD PUSH1 0x20 PUSH1 0x40 MLOAD DUP1 DUP4 SUB DUP2 DUP7 GAS STATICCALL ISZERO DUP1 ISZERO PUSH2 0x1793 JUMPI RETURNDATASIZE PUSH1 0x0 DUP1 RETURNDATACOPY RETURNDATASIZE PUSH1 0x0 REVERT JUMPDEST POP POP POP POP PUSH1 0x40 MLOAD RETURNDATASIZE PUSH1 0x1F NOT PUSH1 0x1F DUP3 ADD AND DUP3 ADD DUP1 PUSH1 0x40 MSTORE POP DUP2 ADD SWAP1 PUSH2 0x17B7 SWAP2 SWAP1 PUSH2 0x1DD2 JUMP JUMPDEST SWAP4 SWAP3 POP POP POP JUMP JUMPDEST PUSH1 0x0 PUSH2 0x17D2 PUSH1 0x3E SLOAD PUSH1 0x1 PUSH1 0x1 PUSH1 0xA0 SHL SUB AND SWAP1 JUMP JUMPDEST PUSH1 0x1 PUSH1 0x1 PUSH1 0xA0 SHL SUB AND PUSH4 0x21F8A721 PUSH1 0x3 PUSH1 0x0 ADD PUSH1 0x6 ADD PUSH1 0x40 MLOAD PUSH2 0x17F5 SWAP2 SWAP1 PUSH2 0x1BC5 JUMP JUMPDEST PUSH1 0x40 MLOAD SWAP1 DUP2 SWAP1 SUB DUP2 KECCAK256 PUSH1 0xE0 DUP4 SWAP1 SHL PUSH1 0x1 PUSH1 0x1 PUSH1 0xE0 SHL SUB NOT AND DUP3 MSTORE PUSH1 0x4 DUP3 ADD MSTORE PUSH1 0x24 ADD PUSH1 0x20 PUSH1 0x40 MLOAD DUP1 DUP4 SUB DUP2 DUP7 GAS STATICCALL ISZERO DUP1 ISZERO PUSH2 0x1834 JUMPI RETURNDATASIZE PUSH1 0x0 DUP1 RETURNDATACOPY RETURNDATASIZE PUSH1 0x0 REVERT JUMPDEST POP POP POP POP PUSH1 0x40 MLOAD RETURNDATASIZE PUSH1 0x1F NOT PUSH1 0x1F DUP3 ADD AND DUP3 ADD DUP1 PUSH1 0x40 MSTORE POP DUP2 ADD SWAP1 PUSH2 0x1858 SWAP2 SWAP1 PUSH2 0x1C61 JUMP JUMPDEST SWAP1 POP SWAP1 JUMP JUMPDEST PUSH1 0x0 DUP1 PUSH1 0x20 DUP4 DUP6 SUB SLT ISZERO PUSH2 0x1870 JUMPI PUSH1 0x0 DUP1 REVERT JUMPDEST DUP3 CALLDATALOAD PUSH8 0xFFFFFFFFFFFFFFFF DUP1 DUP3 GT ISZERO PUSH2 0x1888 JUMPI PUSH1 0x0 DUP1 REVERT JUMPDEST DUP2 DUP6 ADD SWAP2 POP DUP6 PUSH1 0x1F DUP4 ADD SLT PUSH2 0x189C JUMPI PUSH1 0x0 DUP1 REVERT JUMPDEST DUP2 CALLDATALOAD DUP2 DUP2 GT ISZERO PUSH2 0x18AB JUMPI PUSH1 0x0 DUP1 REVERT JUMPDEST DUP7 PUSH1 0x20 DUP3 PUSH1 0x5 SHL DUP6 ADD ADD GT ISZERO PUSH2 0x18C0 JUMPI PUSH1 0x0 DUP1 REVERT JUMPDEST PUSH1 0x20 SWAP3 SWAP1 SWAP3 ADD SWAP7 SWAP2 SWAP6 POP SWAP1 SWAP4 POP POP POP POP JUMP JUMPDEST PUSH1 0x1 PUSH1 0x1 PUSH1 0xA0 SHL SUB DUP2 AND DUP2 EQ PUSH2 0x18E7 JUMPI PUSH1 0x0 DUP1 REVERT JUMPDEST POP JUMP JUMPDEST PUSH1 0x0 PUSH1 0x20 DUP3 DUP5 SUB SLT ISZERO PUSH2 0x18FC JUMPI PUSH1 0x0 DUP1 REVERT JUMPDEST DUP2 CALLDATALOAD PUSH2 0x17B7 DUP2 PUSH2 0x18D2 JUMP JUMPDEST PUSH1 0x0 DUP1 DUP4 PUSH1 0x1F DUP5 ADD SLT PUSH2 0x1919 JUMPI PUSH1 0x0 DUP1 REVERT JUMPDEST POP DUP2 CALLDATALOAD PUSH8 0xFFFFFFFFFFFFFFFF DUP2 GT ISZERO PUSH2 0x1931 JUMPI PUSH1 0x0 DUP1 REVERT JUMPDEST PUSH1 0x20 DUP4 ADD SWAP2 POP DUP4 PUSH1 0x20 DUP3 DUP6 ADD ADD GT ISZERO PUSH2 0x13BC JUMPI PUSH1 0x0 DUP1 REVERT JUMPDEST PUSH1 0x0 DUP1 PUSH1 0x0 PUSH1 0x40 DUP5 DUP7 SUB SLT ISZERO PUSH2 0x195E JUMPI PUSH1 0x0 DUP1 REVERT JUMPDEST DUP4 CALLDATALOAD PUSH8 0xFFFFFFFFFFFFFFFF DUP2 GT ISZERO PUSH2 0x1975 JUMPI PUSH1 0x0 DUP1 REVERT JUMPDEST PUSH2 0x1981 DUP7 DUP3 DUP8 ADD PUSH2 0x1907 JUMP JUMPDEST SWAP1 SWAP5 POP SWAP3 POP POP PUSH1 0x20 DUP5 ADD CALLDATALOAD PUSH2 0x1995 DUP2 PUSH2 0x18D2 JUMP JUMPDEST DUP1 SWAP2 POP POP SWAP3 POP SWAP3 POP SWAP3 JUMP JUMPDEST PUSH1 0x0 DUP1 PUSH1 0x0 PUSH1 0x60 DUP5 DUP7 SUB SLT ISZERO PUSH2 0x19B5 JUMPI PUSH1 0x0 DUP1 REVERT JUMPDEST DUP4 CALLDATALOAD PUSH2 0x19C0 DUP2 PUSH2 0x18D2 JUMP JUMPDEST SWAP3 POP PUSH1 0x20 DUP5 ADD CALLDATALOAD PUSH2 0x19D0 DUP2 PUSH2 0x18D2 JUMP JUMPDEST SWAP3 SWAP6 SWAP3 SWAP5 POP POP POP PUSH1 0x40 SWAP2 SWAP1 SWAP2 ADD CALLDATALOAD SWAP1 JUMP JUMPDEST PUSH1 0x0 PUSH1 0x20 DUP3 DUP5 SUB SLT ISZERO PUSH2 0x19F3 JUMPI PUSH1 0x0 DUP1 REVERT JUMPDEST POP CALLDATALOAD SWAP2 SWAP1 POP JUMP JUMPDEST PUSH1 0x0 DUP1 PUSH1 0x0 PUSH1 0x60 DUP5 DUP7 SUB SLT ISZERO PUSH2 0x1A0F JUMPI PUSH1 0x0 DUP1 REVERT JUMPDEST POP POP DUP2 CALLDATALOAD SWAP4 PUSH1 0x20 DUP4 ADD CALLDATALOAD SWAP4 POP PUSH1 0x40 SWAP1 SWAP3 ADD CALLDATALOAD SWAP2 SWAP1 POP JUMP JUMPDEST PUSH1 0x0 DUP1 PUSH1 0x0 DUP1 PUSH1 0x60 DUP6 DUP8 SUB SLT ISZERO PUSH2 0x1A3C JUMPI PUSH1 0x0 DUP1 REVERT JUMPDEST DUP5 CALLDATALOAD PUSH8 0xFFFFFFFFFFFFFFFF DUP2 GT ISZERO PUSH2 0x1A53 JUMPI PUSH1 0x0 DUP1 REVERT JUMPDEST PUSH2 0x1A5F DUP8 DUP3 DUP9 ADD PUSH2 0x1907 JUMP JUMPDEST SWAP1 SWAP6 POP SWAP4 POP POP PUSH1 0x20 DUP6 ADD CALLDATALOAD PUSH2 0x1A73 DUP2 PUSH2 0x18D2 JUMP JUMPDEST SWAP4 SWAP7 SWAP3 SWAP6 POP SWAP3 SWAP4 PUSH1 0x40 ADD CALLDATALOAD SWAP3 POP POP JUMP JUMPDEST PUSH1 0x0 DUP1 PUSH1 0x0 PUSH1 0x60 DUP5 DUP7 SUB SLT ISZERO PUSH2 0x1A98 JUMPI PUSH1 0x0 DUP1 REVERT JUMPDEST DUP4 CALLDATALOAD PUSH2 0x1AA3 DUP2 PUSH2 0x18D2 JUMP JUMPDEST SWAP3 POP PUSH1 0x20 DUP5 ADD CALLDATALOAD PUSH2 0x1AB3 DUP2 PUSH2 0x18D2 JUMP JUMPDEST SWAP2 POP PUSH1 0x40 DUP5 ADD CALLDATALOAD PUSH1 0x1 PUSH1 0x1 PUSH1 0xE0 SHL SUB NOT DUP2 AND DUP2 EQ PUSH2 0x1995 JUMPI PUSH1 0x0 DUP1 REVERT JUMPDEST PUSH1 0x0 DUP1 PUSH1 0x20 DUP4 DUP6 SUB SLT ISZERO PUSH2 0x1AE3 JUMPI PUSH1 0x0 DUP1 REVERT JUMPDEST DUP3 CALLDATALOAD PUSH8 0xFFFFFFFFFFFFFFFF DUP2 GT ISZERO PUSH2 0x1AFA JUMPI PUSH1 0x0 DUP1 REVERT JUMPDEST PUSH2 0x1B06 DUP6 DUP3 DUP7 ADD PUSH2 0x1907 JUMP JUMPDEST SWAP1 SWAP7 SWAP1 SWAP6 POP SWAP4 POP POP POP POP JUMP JUMPDEST PUSH1 0x0 DUP1 PUSH1 0x40 DUP4 DUP6 SUB SLT ISZERO PUSH2 0x1B25 JUMPI PUSH1 0x0 DUP1 REVERT JUMPDEST DUP3 CALLDATALOAD PUSH2 0x1B30 DUP2 PUSH2 0x18D2 JUMP JUMPDEST SWAP2 POP PUSH1 0x20 DUP4 ADD CALLDATALOAD PUSH2 0x1B40 DUP2 PUSH2 0x18D2 JUMP JUMPDEST DUP1 SWAP2 POP POP SWAP3 POP SWAP3 SWAP1 POP JUMP JUMPDEST PUSH1 0x0 DUP1 PUSH1 0x0 PUSH1 0x40 DUP5 DUP7 SUB SLT ISZERO PUSH2 0x1B60 JUMPI PUSH1 0x0 DUP1 REVERT JUMPDEST DUP4 CALLDATALOAD PUSH8 0xFFFFFFFFFFFFFFFF DUP2 GT ISZERO PUSH2 0x1B77 JUMPI PUSH1 0x0 DUP1 REVERT JUMPDEST PUSH2 0x1B83 DUP7 DUP3 DUP8 ADD PUSH2 0x1907 JUMP JUMPDEST SWAP1 SWAP8 SWAP1 SWAP7 POP PUSH1 0x20 SWAP6 SWAP1 SWAP6 ADD CALLDATALOAD SWAP5 SWAP4 POP POP POP POP JUMP JUMPDEST PUSH1 0x20 DUP1 DUP3 MSTORE PUSH1 0x14 SWAP1 DUP3 ADD MSTORE PUSH20 0x191CCB585D5D1A0B5D5B985D5D1A1BDC9A5E9959 PUSH1 0x62 SHL PUSH1 0x40 DUP3 ADD MSTORE PUSH1 0x60 ADD SWAP1 JUMP JUMPDEST PUSH1 0x0 DUP1 DUP4 SLOAD DUP2 PUSH1 0x1 DUP3 DUP2 SHR SWAP2 POP DUP1 DUP4 AND DUP1 PUSH2 0x1BE1 JUMPI PUSH1 0x7F DUP4 AND SWAP3 POP JUMPDEST PUSH1 0x20 DUP1 DUP5 LT DUP3 EQ ISZERO PUSH2 0x1C01 JUMPI PUSH4 0x4E487B71 PUSH1 0xE0 SHL DUP7 MSTORE PUSH1 0x22 PUSH1 0x4 MSTORE PUSH1 0x24 DUP7 REVERT JUMPDEST DUP2 DUP1 ISZERO PUSH2 0x1C15 JUMPI PUSH1 0x1 DUP2 EQ PUSH2 0x1C26 JUMPI PUSH2 0x1C53 JUMP JUMPDEST PUSH1 0xFF NOT DUP7 AND DUP10 MSTORE DUP5 DUP10 ADD SWAP7 POP PUSH2 0x1C53 JUMP JUMPDEST PUSH1 0x0 DUP11 DUP2 MSTORE PUSH1 0x20 SWAP1 KECCAK256 PUSH1 0x0 JUMPDEST DUP7 DUP2 LT ISZERO PUSH2 0x1C4B JUMPI DUP2 SLOAD DUP12 DUP3 ADD MSTORE SWAP1 DUP6 ADD SWAP1 DUP4 ADD PUSH2 0x1C32 JUMP JUMPDEST POP POP DUP5 DUP10 ADD SWAP7 POP JUMPDEST POP SWAP5 SWAP9 SWAP8 POP POP POP POP POP POP POP POP JUMP JUMPDEST PUSH1 0x0 PUSH1 0x20 DUP3 DUP5 SUB SLT ISZERO PUSH2 0x1C73 JUMPI PUSH1 0x0 DUP1 REVERT JUMPDEST DUP2 MLOAD PUSH2 0x17B7 DUP2 PUSH2 0x18D2 JUMP JUMPDEST PUSH4 0x4E487B71 PUSH1 0xE0 SHL PUSH1 0x0 MSTORE PUSH1 0x32 PUSH1 0x4 MSTORE PUSH1 0x24 PUSH1 0x0 REVERT JUMPDEST PUSH1 0x0 DUP3 NOT DUP3 GT ISZERO PUSH2 0x1CB5 JUMPI PUSH4 0x4E487B71 PUSH1 0xE0 SHL PUSH1 0x0 MSTORE PUSH1 0x11 PUSH1 0x4 MSTORE PUSH1 0x24 PUSH1 0x0 REVERT JUMPDEST POP ADD SWAP1 JUMP JUMPDEST PUSH32 0x7068616E746F6D2E626F6E64696E672E747970652E69735F76616C6964000000 DUP2 MSTORE PUSH1 0x60 SWAP2 SWAP1 SWAP2 SHL PUSH1 0x1 PUSH1 0x1 PUSH1 0x60 SHL SUB NOT AND PUSH1 0x1D DUP3 ADD MSTORE PUSH1 0x31 ADD SWAP1 JUMP JUMPDEST PUSH32 0x7068616E746F6D2E626F6E64696E672E6D756C7469706C696572000000000000 DUP2 MSTORE DUP3 DUP5 PUSH1 0x1A DUP4 ADD CALLDATACOPY PUSH1 0x60 SWAP2 SWAP1 SWAP2 SHL PUSH1 0x1 PUSH1 0x1 PUSH1 0x60 SHL SUB NOT AND PUSH1 0x1A SWAP2 SWAP1 SWAP3 ADD SWAP1 DUP2 ADD SWAP2 SWAP1 SWAP2 MSTORE PUSH1 0x2E ADD SWAP2 SWAP1 POP JUMP JUMPDEST PUSH1 0x0 PUSH1 0x20 DUP3 DUP5 SUB SLT ISZERO PUSH2 0x1D59 JUMPI PUSH1 0x0 DUP1 REVERT JUMPDEST POP MLOAD SWAP2 SWAP1 POP JUMP JUMPDEST PUSH32 0x7068616E746F6D2E626F6E64696E672E747970652E69735F76616C6964000000 DUP2 MSTORE DUP2 DUP4 PUSH1 0x1D DUP4 ADD CALLDATACOPY PUSH1 0x0 SWAP2 ADD PUSH1 0x1D ADD SWAP1 DUP2 MSTORE SWAP2 SWAP1 POP JUMP JUMPDEST PUSH32 0x7068616E746F6D2E626F6E64696E672E747970652E766573745F6C656E677468 DUP2 MSTORE DUP2 DUP4 PUSH1 0x20 DUP4 ADD CALLDATACOPY PUSH1 0x0 SWAP2 ADD PUSH1 0x20 ADD SWAP1 DUP2 MSTORE SWAP2 SWAP1 POP JUMP JUMPDEST PUSH1 0x0 PUSH1 0x20 DUP3 DUP5 SUB SLT ISZERO PUSH2 0x1DE4 JUMPI PUSH1 0x0 DUP1 REVERT JUMPDEST DUP2 MLOAD DUP1 ISZERO ISZERO DUP2 EQ PUSH2 0x17B7 JUMPI PUSH1 0x0 DUP1 REVERT INVALID LOG2 PUSH5 0x6970667358 0x22 SLT KECCAK256 0x5E 0xD9 0x4B 0xA9 0xA5 POP PUSH11 0x64985746158B290113B0B0 0x27 CALLDATASIZE SHR 0xDC 0x24 RETURNDATACOPY PUSH25 0x52185F607F064664736F6C634300080A003300000000000000 ",
  "sha1": "53d992edd257874125e8b0e2fba1e89a13cf71ec",
  "source": "/* SPDX-License-Identifier: MIT */\npragma solidity =0.8.10;\n\n/* Package Imports */\nimport {PRBMathUD60x18} from \"@hifi-finance/prb-math/contracts/PRBMathUD60x18.sol\";\n\n/* Internal Imports */\nimport {PhantomStorageMixin} from \"../mixins/PhantomStorageMixin.sol\";\nimport {DSGuard} from \"./auth/DSGuard.sol\";\n\n/**\n * @title PhantomAdmin\n */\ncontract PhantomAdmin is PhantomStorageMixin, DSGuard {\n    using PRBMathUD60x18 for uint256;\n\n    constructor(address storageAddress) PhantomStorageMixin(storageAddress) {\n        return;\n    }\n\n    //=================================================================================================================\n    // Staking\n    //=================================================================================================================\n\n    function updateStakingRewardRate(uint256 newRewardRate) external auth {\n        require(newRewardRate <= 1e18, \"rewardRate must be less than or euqal to 1e18 aka 100%\");\n        sPHM().updateRewardRate(newRewardRate);\n    }\n\n    //=================================================================================================================\n    // Bonding\n    //=================================================================================================================\n\n    /**\n     * @notice % Add/Remove tokens from being bondable\n     */\n    function addTokenToBondingList(address inToken) public auth {\n        PhantomStorage().setBool(keccak256(abi.encodePacked(\"phantom.bonding.type.is_valid\", inToken)), true);\n    }\n\n    function addMultipleTokensToBondingList(address[] calldata inTokens) external auth {\n        for (uint256 i = 0; i < inTokens.length; i += 1) {\n            addTokenToBondingList(inTokens[i]);\n        }\n    }\n\n    function removeTokenFromBondingList(address inToken) public auth {\n        PhantomStorage().deleteBool(keccak256(abi.encodePacked(\"phantom.bonding.type.is_valid\", inToken)));\n    }\n\n    function removeMultipleTokensToBondingList(address[] calldata inTokens) external auth {\n        for (uint256 i = 0; i < inTokens.length; i += 1) {\n            removeTokenFromBondingList(inTokens[i]);\n        }\n    }\n\n    function isValidTokenForBond(address inToken) external view returns (bool) {\n        return PhantomStorage().getBool(keccak256(abi.encodePacked(\"phantom.bonding.type.is_valid\", inToken)));\n    }\n\n    //=================================================================================================================\n    // Bond Types (Lengths)\n    //=================================================================================================================\n\n    /**\n    @notice Add a new bondtype with vesting length in seconds\n    */\n    function addBondType(bytes calldata bondType, uint256 vestInSeconds) external auth {\n        PhantomStorage().setBool(keccak256(abi.encodePacked(\"phantom.bonding.type.is_valid\", bondType)), true);\n        PhantomStorage().setUint(\n            keccak256(abi.encodePacked(\"phantom.bonding.type.vest_length\", bondType)),\n            vestInSeconds\n        );\n    }\n\n    /**\n    @notice Remove a bond type\n    */\n    function removeBondType(bytes calldata bondType) external auth {\n        PhantomStorage().deleteBool(keccak256(abi.encodePacked(\"phantom.bonding.type.is_valid\", bondType)));\n        PhantomStorage().deleteUint(keccak256(abi.encodePacked(\"phantom.bonding.type.vest_length\", bondType)));\n    }\n\n    /**\n    @notice Get info about a bond type\n    */\n    function infoOfBondType(bytes calldata bondType) external view returns (bool, uint256) {\n        bool isValid = PhantomStorage().getBool(keccak256(abi.encodePacked(\"phantom.bonding.type.is_valid\", bondType)));\n        uint256 vestInBlocks = PhantomStorage().getUint(\n            keccak256(abi.encodePacked(\"phantom.bonding.type.vest_length\", bondType))\n        );\n        return (isValid, vestInBlocks);\n    }\n\n    //=================================================================================================================\n    // Bond Multipliers\n    //=================================================================================================================\n\n    // 18 decimals 1e18 = 1x, 2e18 = 2x/100%, 3e18 = 3x/200%\n    function setBondingMultiplierFor(\n        bytes calldata inBondType,\n        address inToken,\n        uint256 value\n    ) external auth {\n        PhantomStorage().setUint(keccak256(abi.encodePacked(\"phantom.bonding.multiplier\", inBondType, inToken)), value);\n    }\n\n    function bondingMultiplierFor(bytes calldata inBondType, address inToken) external view returns (uint256) {\n        return PhantomStorage().getUint(keccak256(abi.encodePacked(\"phantom.bonding.multiplier\", inBondType, inToken)));\n    }\n\n    //=================================================================================================================\n    // Protocol Management\n    //=================================================================================================================\n\n    function setSpiritAsDefaultDex() external auth {\n        PhantomStorage().setAddress(\n            keccak256(phantom.routing.dex_router_address),\n            PhantomStorage().getAddress(keccak256(phantom.routing.spirit_router_address))\n        );\n        PhantomStorage().setAddress(\n            keccak256(phantom.routing.dex_factory_address),\n            PhantomStorage().getAddress(keccak256(phantom.routing.spirit_factory_address))\n        );\n    }\n\n    function setSpookyAsDefaultDex() external auth {\n        PhantomStorage().setAddress(\n            keccak256(phantom.routing.dex_router_address),\n            PhantomStorage().getAddress(keccak256(phantom.routing.spooky_router_address))\n        );\n        PhantomStorage().setAddress(\n            keccak256(phantom.routing.dex_factory_address),\n            PhantomStorage().getAddress(keccak256(phantom.routing.spooky_factory_address))\n        );\n    }\n\n    function setCustomDefaultDex(address dexRouter, address dexFactory) external auth {\n        PhantomStorage().setAddress(keccak256(phantom.routing.dex_router_address), dexRouter);\n        PhantomStorage().setAddress(keccak256(phantom.routing.dex_factory_address), dexFactory);\n    }\n}\n",
  "sourcePath": "contracts/core/PhantomAdmin.sol",
  "type": "contract"
}