{
  "abi": [
    {
      "inputs": [
        {
          "internalType": "address",
          "name": "storageFactoryAddress",
          "type": "address"
        }
      ],
      "stateMutability": "nonpayable",
      "type": "constructor"
    },
    {
      "inputs": [
        {
          "internalType": "address",
          "name": "contractAddress",
          "type": "address"
        }
      ],
      "name": "PhantomStorageMixin__ContractNotFoundByAddressOrIsOutdated",
      "type": "error"
    },
    {
      "inputs": [
        {
          "internalType": "bytes32",
          "name": "contractName",
          "type": "bytes32"
        }
      ],
      "name": "PhantomStorageMixin__ContractNotFoundByNameOrIsOutdated",
      "type": "error"
    },
    {
      "inputs": [
        {
          "internalType": "address",
          "name": "user",
          "type": "address"
        }
      ],
      "name": "PhantomStorageMixin__UserIsNotGuardian",
      "type": "error"
    },
    {
      "inputs": [
        {
          "internalType": "uint256",
          "name": "inAmount",
          "type": "uint256"
        },
        {
          "internalType": "address",
          "name": "inToken",
          "type": "address"
        },
        {
          "internalType": "bytes",
          "name": "inBondType",
          "type": "bytes"
        }
      ],
      "name": "bond",
      "outputs": [],
      "stateMutability": "nonpayable",
      "type": "function"
    },
    {
      "inputs": [
        {
          "internalType": "uint256",
          "name": "inAmount",
          "type": "uint256"
        },
        {
          "internalType": "address",
          "name": "inToken",
          "type": "address"
        }
      ],
      "name": "donate",
      "outputs": [],
      "stateMutability": "nonpayable",
      "type": "function"
    },
    {
      "inputs": [
        {
          "internalType": "uint256",
          "name": "inAmount",
          "type": "uint256"
        }
      ],
      "name": "stake",
      "outputs": [],
      "stateMutability": "nonpayable",
      "type": "function"
    },
    {
      "inputs": [
        {
          "internalType": "uint256",
          "name": "inAmount",
          "type": "uint256"
        }
      ],
      "name": "unstake",
      "outputs": [],
      "stateMutability": "nonpayable",
      "type": "function"
    },
    {
      "inputs": [
        {
          "internalType": "uint256",
          "name": "inAmount",
          "type": "uint256"
        }
      ],
      "name": "unwrap",
      "outputs": [],
      "stateMutability": "nonpayable",
      "type": "function"
    },
    {
      "inputs": [
        {
          "internalType": "uint256",
          "name": "inAmount",
          "type": "uint256"
        }
      ],
      "name": "wrap",
      "outputs": [],
      "stateMutability": "nonpayable",
      "type": "function"
    }
  ],
  "bytecode": "601260e08181527139b2b1bab934ba3c9730b2323932b9b9b7b360711b6101009081526080918252600d6101209081526c73656375726974792e6e616d6560981b6101405260a0526101a060405260136101609081527f73656375726974792e72656769737465726564000000000000000000000000006101805260c0529091600091620000909183919062001332565b506020828101518051620000ab926001850192019062001332565b5060408201518051620000c991600284019160209091019062001332565b50506040805161032081018252601b6102e082019081527f7068616e746f6d2e636f6e7472616374732e616c706861737761700000000000610300830152610100820190815282518084018452601a8082527f7068616e746f6d2e636f6e7472616374732e666f756e646572730000000000006020838101919091526101208501929092528451808601865260198082527f7068616e746f6d2e636f6e7472616374732e7374616b696e67000000000000008285015261014086019190915285518087018752601f81527f7068616e746f6d2e636f6e7472616374732e7374616b696e677761726d75700081850152610160860152855180870187529081527f7068616e746f6d2e636f6e7472616374732e626f6e64696e67000000000000008184015261018085015284518086018652601581527f7068616e746f6d2e636f6e7472616374732e70686d0000000000000000000000818401526101a08501528451808601865260168082527f7068616e746f6d2e636f6e7472616374732e7370686d00000000000000000000828501526101c0860191909152855180870187528181527f7068616e746f6d2e636f6e7472616374732e6770686d00000000000000000000818501526101e0860152855180870187528181527f7068616e746f6d2e636f6e7472616374732e6170686d0000000000000000000081850152610200860152855180870187529081527f7068616e746f6d2e636f6e7472616374732e6670686d000000000000000000008184015261022085015284518086018652601781527f7068616e746f6d2e636f6e7472616374732e7661756c7400000000000000000081840152610240850152845180860186528181527f7068616e746f6d2e636f6e7472616374732e74726561737572790000000000008184015261026085015284518086018652601c81527f7068616e746f6d2e636f6e7472616374732e6465785f726f75746572000000008184015261028085015284518086018652601e81527f7068616e746f6d2e636f6e7472616374732e796561726e5f726f757465720000818401526102a0850152845180860186529081527f7068616e746f6d2e636f6e7472616374732e6578656375746f72000000000000818301526102c0840152908252825160c08101909352602a606084018181529294509084019291829162001f1b6080840139815260200160405180606001604052806040518060600160405280602b815260200162001ea0602b913981526020016040518060400160405280602081526020017f7068616e746f6d2e74726561737572792e6163636f756e745f6b65792e64616f8152508152602001604051806060016040528060258152602001620020096025913990528152604080518082018252601981527f7068616e746f6d2e74726561737572792e62616c616e636573000000000000006020828101919091529283015291835281516101c0810190925260246101608301818152938201938392830191829160c085019182919062001e366101808801398152602001604051806060016040528060258152602001620020786025913981526020016040518060600160405280602481526020016200202e6024913981526020016040518060600160405280602b815260200162001ecb602b913981526020016040518060600160405280602481526020016200209d60249139815250815260200160405180606001604052806025815260200162001f9560259139815260200160405180606001604052806029815260200162001fe06029913981526020016040518060400160405280601b81526020017f7068616e746f6d2e616c6c6f6361746f722e746f6b656e732e6c70000000000081525081526020016040518060400160405280601f81526020017f7068616e746f6d2e616c6c6f6361746f722e746f6b656e732e73696e676c6500815250815250815250815260200160405180610100016040528060405180604001604052806040518060400160405280601a81526020017f7068616e746f6d2e626f6e64696e672e757365722e6e6f6e636500000000000081525081526020016040518060600160405280602b815260200162001f45602b913981525081526020016040518060400160405280601d81526020017f7068616e746f6d2e626f6e64696e672e76657374696e67626c6f636b7300000081525081526020016040518060400160405280601c81526020017f7068616e746f6d2e626f6e64696e672e70726f6669745f726174696f0000000081525081526020016040518060400160405280601881526020017f7068616e746f6d2e626f6e64696e672e646973636f756e74000000000000000081525081526020016040518060400160405280601b81526020017f7068616e746f6d2e626f6e64696e672e69735f72656465656d6564000000000081525081526020016040518060400160405280601681526020017f7068616e746f6d2e626f6e64696e672e7061796f75740000000000000000000081525081526020016040518060400160405280601e81526020017f7068616e746f6d2e626f6e64696e672e76657374735f61745f626c6f636b000081525081526020016040518060400160405280601881526020017f7068616e746f6d2e626f6e64696e672e69735f76616c69640000000000000000815250815250815260200160405180604001604052806040518060400160405280601d81526020017f7068616e746f6d2e7374616b696e672e726562617365436f756e74657200000081525081526020016040518060600160405280602281526020016200216c6022913990528152604080516101408101909152602160e08201818152602090930192829160608301918291620020e5610100860139815260200160405180606001604052806024815260200162001e7c60249139815260200160405180606001604052806026815260200162001e1060269139815260408051808201825260208082527f7068616e746f6d2e666f756e6465722e636c61696d732e6c617374436c61696d828201529283015291835281516060810183528082018281527f7068616e746f6d2e666f756e6465722e6368616e6765732e6e65774f776e65728285015281528382015281518083018352601d81527f7068616e746f6d2e666f756e6465722e76657374696e67537461727473000000818301529282019290925291835281516101608101909252602261010083018181529390910192829162001e5a61012084013981526020016040518060600160405280602381526020016200210660239139815260200160405180606001604052806025815260200162001f7060259139815260200160405180606001604052806026815260200162001fba60269139815260200160405180606001604052806025815260200162001ef660259139815260200160405180606001604052806026815260200162002052602691398152602001604051806060016040528060248152602001620020c16024913981526020016040518060600160405280602a81526020016200218e602a9139815250815260200160405180608001604052806040518060400160405280601c81526020017f7068616e746f6d2e676f7665726e6f722e766f74696e6744656c61790000000081525081526020016040518060400160405280601d81526020017f7068616e746f6d2e676f7665726e6f722e766f74696e67506572696f640000008152508152602001604051806060016040528060218152602001620021296021913981526020016040518060600160405280602281526020016200214a602291399052905280518051805160039291839162000be191839160209091019062001332565b50602082810151805162000bfc926001850192019062001332565b506040820151805162000c1a91600284019160209091019062001332565b506060820151805162000c3891600384019160209091019062001332565b506080820151805162000c5691600484019160209091019062001332565b5060a0820151805162000c7491600584019160209091019062001332565b5060c0820151805162000c9291600684019160209091019062001332565b5060e0820151805162000cb091600784019160209091019062001332565b50610100820151805162000ccf91600884019160209091019062001332565b50610120820151805162000cee91600984019160209091019062001332565b50610140820151805162000d0d91600a84019160209091019062001332565b50610160820151805162000d2c91600b84019160209091019062001332565b50610180820151805162000d4b91600c84019160209091019062001332565b506101a0820151805162000d6a91600d84019160209091019062001332565b506101c0820151805162000d8991600e84019160209091019062001332565b505050602082810151805180519192600f85019262000dac928492019062001332565b50602082810151805180519192600185019262000dcd928492019062001332565b50602082810151805162000de8926001850192019062001332565b506040820151805162000e0691600284019160209091019062001332565b5050506040820151805162000e2691600484019160209091019062001332565b5050506040820151805180518051805160148601939284929091839162000e539183916020019062001332565b50602082810151805162000e6e926001850192019062001332565b506040820151805162000e8c91600284019160209091019062001332565b506060820151805162000eaa91600384019160209091019062001332565b506080820151805162000ec891600484019160209091019062001332565b505050602082810151805162000ee5926005850192019062001332565b506040820151805162000f0391600684019160209091019062001332565b506060820151805162000f2191600784019160209091019062001332565b506080820151805162000f3f91600884019160209091019062001332565b505050506060830151805180518051929350601d850192839162000f699183916020019062001332565b50602082810151805162000f84926001850192019062001332565b505050602082810151805162000fa1926002850192019062001332565b506040820151805162000fbf91600384019160209091019062001332565b506060820151805162000fdd91600484019160209091019062001332565b506080820151805162000ffb91600584019160209091019062001332565b5060a082015180516200101991600684019160209091019062001332565b5060c082015180516200103791600784019160209091019062001332565b5060e082015180516200105591600884019160209091019062001332565b5050506080820151805180516026840191620010779183916020019062001332565b50602082810151805162001092926001850192019062001332565b50505060a08201518051805180516028850192918391620010bb91839160209091019062001332565b506020828101518051620010d6926001850192019062001332565b5060408201518051620010f491600284019160209091019062001332565b50606082015180516200111291600384019160209091019062001332565b505050602082810151805180519192600485019262001135928492019062001332565b505050604082015180516200115591600584019160209091019062001332565b50505060c082015180518051602e840191620011779183916020019062001332565b50602082810151805162001192926001850192019062001332565b5060408201518051620011b091600284019160209091019062001332565b5060608201518051620011ce91600384019160209091019062001332565b5060808201518051620011ec91600484019160209091019062001332565b5060a082015180516200120a91600584019160209091019062001332565b5060c082015180516200122891600684019160209091019062001332565b5060e082015180516200124691600784019160209091019062001332565b50505060e0820151805180516036840191620012689183916020019062001332565b50602082810151805162001283926001850192019062001332565b5060408201518051620012a191600284019160209091019062001332565b5060608201518051620012bf91600384019160209091019062001332565b50505050506d7068616e746f6d53746f7261676560901b603f55348015620012e657600080fd5b50604051620021b8380380620021b88339810160408190526200130991620013d8565b6001603d55603e80546001600160a01b0383166001600160a01b03199091161790555062001447565b82805462001340906200140a565b90600052602060002090601f016020900481019282620013645760008555620013af565b82601f106200137f57805160ff1916838001178555620013af565b82800160010185558215620013af579182015b82811115620013af57825182559160200191906001019062001392565b50620013bd929150620013c1565b5090565b5b80821115620013bd5760008155600101620013c2565b600060208284031215620013eb57600080fd5b81516001600160a01b03811681146200140357600080fd5b9392505050565b600181811c908216806200141f57607f821691505b602082108114156200144157634e487b7160e01b600052602260045260246000fd5b50919050565b6109b980620014576000396000f3fe608060405234801561001057600080fd5b50600436106100625760003560e01c80632e17de781461006757806368e9f1181461007c5780638004f9fa1461008f578063a694fc3a146100a2578063de0e9a3e146100b5578063ea598cb0146100c8575b600080fd5b61007a610075366004610657565b6100db565b005b61007a61008a366004610688565b61017f565b61007a61009d366004610711565b610225565b61007a6100b0366004610657565b6102d6565b61007a6100c3366004610657565b61033b565b61007a6100d6366004610657565b6103e8565b6002603d5414156101075760405162461bcd60e51b81526004016100fe90610741565b60405180910390fd5b6002603d5561011461044d565b604051630615339760e51b8152336004820152602481018390526001600160a01b03919091169063c2a672e0906044015b600060405180830381600087803b15801561015f57600080fd5b505af1158015610173573d6000803e3d6000fd5b50506001603d55505050565b6002603d5414156101a25760405162461bcd60e51b81526004016100fe90610741565b6002603d556101af6104ec565b6001600160a01b031663b8ea4a1333868686866040518663ffffffff1660e01b81526004016101e2959493929190610778565b6020604051808303816000875af1158015610201573d6000803e3d6000fd5b505050506040513d601f19601f8201168201806040525081019061017391906107cc565b6002603d5414156102485760405162461bcd60e51b81526004016100fe90610741565b6002603d55610255610523565b6001600160a01b031663a397104733848460008061027161055a565b6102796105ee565b6040518863ffffffff1660e01b815260040161029b9796959493929190610820565b600060405180830381600087803b1580156102b557600080fd5b505af11580156102c9573d6000803e3d6000fd5b50506001603d5550505050565b6002603d5414156102f95760405162461bcd60e51b81526004016100fe90610741565b6002603d5561030661044d565b6040516356e4bb9760e11b8152336004820152602481018390526001600160a01b03919091169063adc9772e90604401610145565b6002603d54141561035e5760405162461bcd60e51b81526004016100fe90610741565b6002603d5561036b61044d565b6040516339f4769360e01b8152336004820152602481018390526001600160a01b0391909116906339f47693906044015b6020604051808303816000875af11580156103bb573d6000803e3d6000fd5b505050506040513d601f19601f820116820180604052508101906103df91906107cc565b50506001603d55565b6002603d54141561040b5760405162461bcd60e51b81526004016100fe90610741565b6002603d5561041861044d565b604051635f9bb63d60e11b8152336004820152602481018390526001600160a01b03919091169063bf376c7a9060440161039c565b6000610461603e546001600160a01b031690565b6001600160a01b03166321f8a721600360000160020160405161048491906108ad565b60405190819003812060e083901b6001600160e01b03191682526004820152602401602060405180830381865afa1580156104c3573d6000803e3d6000fd5b505050506040513d601f19601f820116820180604052508101906104e79190610949565b905090565b6000610500603e546001600160a01b031690565b6001600160a01b03166321f8a721600360000160040160405161048491906108ad565b6000610537603e546001600160a01b031690565b6001600160a01b03166321f8a7216003600001600b0160405161048491906108ad565b60408051600280825260608083018452926000929190602083019080368337505060405191925061058e91601591506108ad565b6040518091039020816000815181106105a9576105a961096d565b60209081029190910101526040516105c3906013906108ad565b6040518091039020816001815181106105de576105de61096d565b6020908102919091010152919050565b60408051600280825260608083018452926000929190602083019080368337019050509050670c7d713b49da00008160008151811061062f5761062f61096d565b60200260200101818152505067016345785d8a0000816001815181106105de576105de61096d565b60006020828403121561066957600080fd5b5035919050565b6001600160a01b038116811461068557600080fd5b50565b6000806000806060858703121561069e57600080fd5b8435935060208501356106b081610670565b9250604085013567ffffffffffffffff808211156106cd57600080fd5b818701915087601f8301126106e157600080fd5b8135818111156106f057600080fd5b88602082850101111561070257600080fd5b95989497505060200194505050565b6000806040838503121561072457600080fd5b82359150602083013561073681610670565b809150509250929050565b6020808252601f908201527f5265656e7472616e637947756172643a207265656e7472616e742063616c6c00604082015260600190565b6001600160a01b038681168252602082018690528416604082015260806060820181905281018290526000828460a0840137600060a0848401015260a0601f19601f85011683010190509695505050505050565b6000602082840312156107de57600080fd5b5051919050565b600081518084526020808501945080840160005b83811015610815578151875295820195908201906001016107f9565b509495945050505050565b6001600160a01b0388811682526020808301899052878216604084015260608301879052908516608083015260e060a0830181905284519083018190526000918581019161010085019190845b818110156108895784518452938201939282019260010161086d565b50505083810360c085015261089e81866107e5565b9b9a5050505050505050505050565b600080835481600182811c9150808316806108c957607f831692505b60208084108214156108e957634e487b7160e01b86526022600452602486fd5b8180156108fd576001811461090e5761093b565b60ff1986168952848901965061093b565b60008a81526020902060005b868110156109335781548b82015290850190830161091a565b505084890196505b509498975050505050505050565b60006020828403121561095b57600080fd5b815161096681610670565b9392505050565b634e487b7160e01b600052603260045260246000fdfea2646970667358221220176b6de2fbebd4fe226ac39fa99d75a7c2cd89acf31608d5145c0ebcb806e30364736f6c634300080a00337068616e746f6d2e666f756e6465722e636c61696d732e72656d61696e696e67416d6f756e747068616e746f6d2e616c6c6f6361746f722e746f6b656e732e616464726573732e6461697068616e746f6d2e726f7574696e672e6465785f726f757465725f616464726573737068616e746f6d2e666f756e6465722e636c61696d732e696e697469616c416d6f756e747068616e746f6d2e74726561737572792e6163636f756e745f6b65792e76656e747572656361706974616c7068616e746f6d2e616c6c6f6361746f722e746f6b656e732e616464726573732e6461695f70686d5f6c707068616e746f6d2e726f7574696e672e73706f6f6b795f726f757465725f616464726573737068616e746f6d2e74726561737572792e617070726f7665642e65787465726e616c2e616464726573737068616e746f6d2e626f6e64696e672e757365722e66697273745f756e72656465656d65645f6e6f6e63657068616e746f6d2e726f7574696e672e7370697269745f726f757465725f616464726573737068616e746f6d2e616c6c6f6361746f722e746f6b656e732e64657374696e6174696f6e737068616e746f6d2e726f7574696e672e7370697269745f666163746f72795f616464726573737068616e746f6d2e616c6c6f6361746f722e746f6b656e732e646573745f70657263656e74616765737068616e746f6d2e74726561737572792e6163636f756e745f6b65792e72657365727665737068616e746f6d2e616c6c6f6361746f722e746f6b656e732e616464726573732e6d696d7068616e746f6d2e726f7574696e672e73706f6f6b795f666163746f72795f616464726573737068616e746f6d2e616c6c6f6361746f722e746f6b656e732e616464726573732e7766746d7068616e746f6d2e616c6c6f6361746f722e746f6b656e732e616464726573732e6465787068616e746f6d2e726f7574696e672e7370697269745f67617567655f616464726573737068616e746f6d2e666f756e6465722e636c61696d732e616c6c6f636174696f6e7068616e746f6d2e726f7574696e672e6465785f666163746f72795f616464726573737068616e746f6d2e676f7665726e6f722e71756f72756d50657263656e746167657068616e746f6d2e676f7665726e6f722e70726f706f73616c5468726573686f6c647068616e746f6d2e7374616b696e672e6e657874526562617365446561646c696e657068616e746f6d2e726f7574696e672e7370697269745f67617567655f70726f78795f61646472657373",
  "bytecodeSha1": "da39a3ee5e6b4b0d3255bfef95601890afd80709",
  "compiler": {
    "evm_version": "istanbul",
    "optimizer": {
      "enabled": true,
      "runs": 200
    },
    "version": "0.8.10+commit.fc410830"
  },
  "contractName": "PhantomFinance",
  "language": "Solidity",
  "natspec": {
    "author": "PhantomDao Team",
    "kind": "dev",
    "methods": {},
    "notice": "The dApp facing contract used for finance functions",
    "title": "PhantomFinance",
    "version": 1
  },
  "opcodes": "PUSH1 0x80 PUSH1 0x40 MSTORE CALLVALUE DUP1 ISZERO PUSH2 0x10 JUMPI PUSH1 0x0 DUP1 REVERT JUMPDEST POP PUSH1 0x4 CALLDATASIZE LT PUSH2 0x62 JUMPI PUSH1 0x0 CALLDATALOAD PUSH1 0xE0 SHR DUP1 PUSH4 0x2E17DE78 EQ PUSH2 0x67 JUMPI DUP1 PUSH4 0x68E9F118 EQ PUSH2 0x7C JUMPI DUP1 PUSH4 0x8004F9FA EQ PUSH2 0x8F JUMPI DUP1 PUSH4 0xA694FC3A EQ PUSH2 0xA2 JUMPI DUP1 PUSH4 0xDE0E9A3E EQ PUSH2 0xB5 JUMPI DUP1 PUSH4 0xEA598CB0 EQ PUSH2 0xC8 JUMPI JUMPDEST PUSH1 0x0 DUP1 REVERT JUMPDEST PUSH2 0x7A PUSH2 0x75 CALLDATASIZE PUSH1 0x4 PUSH2 0x657 JUMP JUMPDEST PUSH2 0xDB JUMP JUMPDEST STOP JUMPDEST PUSH2 0x7A PUSH2 0x8A CALLDATASIZE PUSH1 0x4 PUSH2 0x688 JUMP JUMPDEST PUSH2 0x17F JUMP JUMPDEST PUSH2 0x7A PUSH2 0x9D CALLDATASIZE PUSH1 0x4 PUSH2 0x711 JUMP JUMPDEST PUSH2 0x225 JUMP JUMPDEST PUSH2 0x7A PUSH2 0xB0 CALLDATASIZE PUSH1 0x4 PUSH2 0x657 JUMP JUMPDEST PUSH2 0x2D6 JUMP JUMPDEST PUSH2 0x7A PUSH2 0xC3 CALLDATASIZE PUSH1 0x4 PUSH2 0x657 JUMP JUMPDEST PUSH2 0x33B JUMP JUMPDEST PUSH2 0x7A PUSH2 0xD6 CALLDATASIZE PUSH1 0x4 PUSH2 0x657 JUMP JUMPDEST PUSH2 0x3E8 JUMP JUMPDEST PUSH1 0x2 PUSH1 0x3D SLOAD EQ ISZERO PUSH2 0x107 JUMPI PUSH1 0x40 MLOAD PUSH3 0x461BCD PUSH1 0xE5 SHL DUP2 MSTORE PUSH1 0x4 ADD PUSH2 0xFE SWAP1 PUSH2 0x741 JUMP JUMPDEST PUSH1 0x40 MLOAD DUP1 SWAP2 SUB SWAP1 REVERT JUMPDEST PUSH1 0x2 PUSH1 0x3D SSTORE PUSH2 0x114 PUSH2 0x44D JUMP JUMPDEST PUSH1 0x40 MLOAD PUSH4 0x6153397 PUSH1 0xE5 SHL DUP2 MSTORE CALLER PUSH1 0x4 DUP3 ADD MSTORE PUSH1 0x24 DUP2 ADD DUP4 SWAP1 MSTORE PUSH1 0x1 PUSH1 0x1 PUSH1 0xA0 SHL SUB SWAP2 SWAP1 SWAP2 AND SWAP1 PUSH4 0xC2A672E0 SWAP1 PUSH1 0x44 ADD JUMPDEST PUSH1 0x0 PUSH1 0x40 MLOAD DUP1 DUP4 SUB DUP2 PUSH1 0x0 DUP8 DUP1 EXTCODESIZE ISZERO DUP1 ISZERO PUSH2 0x15F JUMPI PUSH1 0x0 DUP1 REVERT JUMPDEST POP GAS CALL ISZERO DUP1 ISZERO PUSH2 0x173 JUMPI RETURNDATASIZE PUSH1 0x0 DUP1 RETURNDATACOPY RETURNDATASIZE PUSH1 0x0 REVERT JUMPDEST POP POP PUSH1 0x1 PUSH1 0x3D SSTORE POP POP POP JUMP JUMPDEST PUSH1 0x2 PUSH1 0x3D SLOAD EQ ISZERO PUSH2 0x1A2 JUMPI PUSH1 0x40 MLOAD PUSH3 0x461BCD PUSH1 0xE5 SHL DUP2 MSTORE PUSH1 0x4 ADD PUSH2 0xFE SWAP1 PUSH2 0x741 JUMP JUMPDEST PUSH1 0x2 PUSH1 0x3D SSTORE PUSH2 0x1AF PUSH2 0x4EC JUMP JUMPDEST PUSH1 0x1 PUSH1 0x1 PUSH1 0xA0 SHL SUB AND PUSH4 0xB8EA4A13 CALLER DUP7 DUP7 DUP7 DUP7 PUSH1 0x40 MLOAD DUP7 PUSH4 0xFFFFFFFF AND PUSH1 0xE0 SHL DUP2 MSTORE PUSH1 0x4 ADD PUSH2 0x1E2 SWAP6 SWAP5 SWAP4 SWAP3 SWAP2 SWAP1 PUSH2 0x778 JUMP JUMPDEST PUSH1 0x20 PUSH1 0x40 MLOAD DUP1 DUP4 SUB DUP2 PUSH1 0x0 DUP8 GAS CALL ISZERO DUP1 ISZERO PUSH2 0x201 JUMPI RETURNDATASIZE PUSH1 0x0 DUP1 RETURNDATACOPY RETURNDATASIZE PUSH1 0x0 REVERT JUMPDEST POP POP POP POP PUSH1 0x40 MLOAD RETURNDATASIZE PUSH1 0x1F NOT PUSH1 0x1F DUP3 ADD AND DUP3 ADD DUP1 PUSH1 0x40 MSTORE POP DUP2 ADD SWAP1 PUSH2 0x173 SWAP2 SWAP1 PUSH2 0x7CC JUMP JUMPDEST PUSH1 0x2 PUSH1 0x3D SLOAD EQ ISZERO PUSH2 0x248 JUMPI PUSH1 0x40 MLOAD PUSH3 0x461BCD PUSH1 0xE5 SHL DUP2 MSTORE PUSH1 0x4 ADD PUSH2 0xFE SWAP1 PUSH2 0x741 JUMP JUMPDEST PUSH1 0x2 PUSH1 0x3D SSTORE PUSH2 0x255 PUSH2 0x523 JUMP JUMPDEST PUSH1 0x1 PUSH1 0x1 PUSH1 0xA0 SHL SUB AND PUSH4 0xA3971047 CALLER DUP5 DUP5 PUSH1 0x0 DUP1 PUSH2 0x271 PUSH2 0x55A JUMP JUMPDEST PUSH2 0x279 PUSH2 0x5EE JUMP JUMPDEST PUSH1 0x40 MLOAD DUP9 PUSH4 0xFFFFFFFF AND PUSH1 0xE0 SHL DUP2 MSTORE PUSH1 0x4 ADD PUSH2 0x29B SWAP8 SWAP7 SWAP6 SWAP5 SWAP4 SWAP3 SWAP2 SWAP1 PUSH2 0x820 JUMP JUMPDEST PUSH1 0x0 PUSH1 0x40 MLOAD DUP1 DUP4 SUB DUP2 PUSH1 0x0 DUP8 DUP1 EXTCODESIZE ISZERO DUP1 ISZERO PUSH2 0x2B5 JUMPI PUSH1 0x0 DUP1 REVERT JUMPDEST POP GAS CALL ISZERO DUP1 ISZERO PUSH2 0x2C9 JUMPI RETURNDATASIZE PUSH1 0x0 DUP1 RETURNDATACOPY RETURNDATASIZE PUSH1 0x0 REVERT JUMPDEST POP POP PUSH1 0x1 PUSH1 0x3D SSTORE POP POP POP POP JUMP JUMPDEST PUSH1 0x2 PUSH1 0x3D SLOAD EQ ISZERO PUSH2 0x2F9 JUMPI PUSH1 0x40 MLOAD PUSH3 0x461BCD PUSH1 0xE5 SHL DUP2 MSTORE PUSH1 0x4 ADD PUSH2 0xFE SWAP1 PUSH2 0x741 JUMP JUMPDEST PUSH1 0x2 PUSH1 0x3D SSTORE PUSH2 0x306 PUSH2 0x44D JUMP JUMPDEST PUSH1 0x40 MLOAD PUSH4 0x56E4BB97 PUSH1 0xE1 SHL DUP2 MSTORE CALLER PUSH1 0x4 DUP3 ADD MSTORE PUSH1 0x24 DUP2 ADD DUP4 SWAP1 MSTORE PUSH1 0x1 PUSH1 0x1 PUSH1 0xA0 SHL SUB SWAP2 SWAP1 SWAP2 AND SWAP1 PUSH4 0xADC9772E SWAP1 PUSH1 0x44 ADD PUSH2 0x145 JUMP JUMPDEST PUSH1 0x2 PUSH1 0x3D SLOAD EQ ISZERO PUSH2 0x35E JUMPI PUSH1 0x40 MLOAD PUSH3 0x461BCD PUSH1 0xE5 SHL DUP2 MSTORE PUSH1 0x4 ADD PUSH2 0xFE SWAP1 PUSH2 0x741 JUMP JUMPDEST PUSH1 0x2 PUSH1 0x3D SSTORE PUSH2 0x36B PUSH2 0x44D JUMP JUMPDEST PUSH1 0x40 MLOAD PUSH4 0x39F47693 PUSH1 0xE0 SHL DUP2 MSTORE CALLER PUSH1 0x4 DUP3 ADD MSTORE PUSH1 0x24 DUP2 ADD DUP4 SWAP1 MSTORE PUSH1 0x1 PUSH1 0x1 PUSH1 0xA0 SHL SUB SWAP2 SWAP1 SWAP2 AND SWAP1 PUSH4 0x39F47693 SWAP1 PUSH1 0x44 ADD JUMPDEST PUSH1 0x20 PUSH1 0x40 MLOAD DUP1 DUP4 SUB DUP2 PUSH1 0x0 DUP8 GAS CALL ISZERO DUP1 ISZERO PUSH2 0x3BB JUMPI RETURNDATASIZE PUSH1 0x0 DUP1 RETURNDATACOPY RETURNDATASIZE PUSH1 0x0 REVERT JUMPDEST POP POP POP POP PUSH1 0x40 MLOAD RETURNDATASIZE PUSH1 0x1F NOT PUSH1 0x1F DUP3 ADD AND DUP3 ADD DUP1 PUSH1 0x40 MSTORE POP DUP2 ADD SWAP1 PUSH2 0x3DF SWAP2 SWAP1 PUSH2 0x7CC JUMP JUMPDEST POP POP PUSH1 0x1 PUSH1 0x3D SSTORE JUMP JUMPDEST PUSH1 0x2 PUSH1 0x3D SLOAD EQ ISZERO PUSH2 0x40B JUMPI PUSH1 0x40 MLOAD PUSH3 0x461BCD PUSH1 0xE5 SHL DUP2 MSTORE PUSH1 0x4 ADD PUSH2 0xFE SWAP1 PUSH2 0x741 JUMP JUMPDEST PUSH1 0x2 PUSH1 0x3D SSTORE PUSH2 0x418 PUSH2 0x44D JUMP JUMPDEST PUSH1 0x40 MLOAD PUSH4 0x5F9BB63D PUSH1 0xE1 SHL DUP2 MSTORE CALLER PUSH1 0x4 DUP3 ADD MSTORE PUSH1 0x24 DUP2 ADD DUP4 SWAP1 MSTORE PUSH1 0x1 PUSH1 0x1 PUSH1 0xA0 SHL SUB SWAP2 SWAP1 SWAP2 AND SWAP1 PUSH4 0xBF376C7A SWAP1 PUSH1 0x44 ADD PUSH2 0x39C JUMP JUMPDEST PUSH1 0x0 PUSH2 0x461 PUSH1 0x3E SLOAD PUSH1 0x1 PUSH1 0x1 PUSH1 0xA0 SHL SUB AND SWAP1 JUMP JUMPDEST PUSH1 0x1 PUSH1 0x1 PUSH1 0xA0 SHL SUB AND PUSH4 0x21F8A721 PUSH1 0x3 PUSH1 0x0 ADD PUSH1 0x2 ADD PUSH1 0x40 MLOAD PUSH2 0x484 SWAP2 SWAP1 PUSH2 0x8AD JUMP JUMPDEST PUSH1 0x40 MLOAD SWAP1 DUP2 SWAP1 SUB DUP2 KECCAK256 PUSH1 0xE0 DUP4 SWAP1 SHL PUSH1 0x1 PUSH1 0x1 PUSH1 0xE0 SHL SUB NOT AND DUP3 MSTORE PUSH1 0x4 DUP3 ADD MSTORE PUSH1 0x24 ADD PUSH1 0x20 PUSH1 0x40 MLOAD DUP1 DUP4 SUB DUP2 DUP7 GAS STATICCALL ISZERO DUP1 ISZERO PUSH2 0x4C3 JUMPI RETURNDATASIZE PUSH1 0x0 DUP1 RETURNDATACOPY RETURNDATASIZE PUSH1 0x0 REVERT JUMPDEST POP POP POP POP PUSH1 0x40 MLOAD RETURNDATASIZE PUSH1 0x1F NOT PUSH1 0x1F DUP3 ADD AND DUP3 ADD DUP1 PUSH1 0x40 MSTORE POP DUP2 ADD SWAP1 PUSH2 0x4E7 SWAP2 SWAP1 PUSH2 0x949 JUMP JUMPDEST SWAP1 POP SWAP1 JUMP JUMPDEST PUSH1 0x0 PUSH2 0x500 PUSH1 0x3E SLOAD PUSH1 0x1 PUSH1 0x1 PUSH1 0xA0 SHL SUB AND SWAP1 JUMP JUMPDEST PUSH1 0x1 PUSH1 0x1 PUSH1 0xA0 SHL SUB AND PUSH4 0x21F8A721 PUSH1 0x3 PUSH1 0x0 ADD PUSH1 0x4 ADD PUSH1 0x40 MLOAD PUSH2 0x484 SWAP2 SWAP1 PUSH2 0x8AD JUMP JUMPDEST PUSH1 0x0 PUSH2 0x537 PUSH1 0x3E SLOAD PUSH1 0x1 PUSH1 0x1 PUSH1 0xA0 SHL SUB AND SWAP1 JUMP JUMPDEST PUSH1 0x1 PUSH1 0x1 PUSH1 0xA0 SHL SUB AND PUSH4 0x21F8A721 PUSH1 0x3 PUSH1 0x0 ADD PUSH1 0xB ADD PUSH1 0x40 MLOAD PUSH2 0x484 SWAP2 SWAP1 PUSH2 0x8AD JUMP JUMPDEST PUSH1 0x40 DUP1 MLOAD PUSH1 0x2 DUP1 DUP3 MSTORE PUSH1 0x60 DUP1 DUP4 ADD DUP5 MSTORE SWAP3 PUSH1 0x0 SWAP3 SWAP2 SWAP1 PUSH1 0x20 DUP4 ADD SWAP1 DUP1 CALLDATASIZE DUP4 CALLDATACOPY POP POP PUSH1 0x40 MLOAD SWAP2 SWAP3 POP PUSH2 0x58E SWAP2 PUSH1 0x15 SWAP2 POP PUSH2 0x8AD JUMP JUMPDEST PUSH1 0x40 MLOAD DUP1 SWAP2 SUB SWAP1 KECCAK256 DUP2 PUSH1 0x0 DUP2 MLOAD DUP2 LT PUSH2 0x5A9 JUMPI PUSH2 0x5A9 PUSH2 0x96D JUMP JUMPDEST PUSH1 0x20 SWAP1 DUP2 MUL SWAP2 SWAP1 SWAP2 ADD ADD MSTORE PUSH1 0x40 MLOAD PUSH2 0x5C3 SWAP1 PUSH1 0x13 SWAP1 PUSH2 0x8AD JUMP JUMPDEST PUSH1 0x40 MLOAD DUP1 SWAP2 SUB SWAP1 KECCAK256 DUP2 PUSH1 0x1 DUP2 MLOAD DUP2 LT PUSH2 0x5DE JUMPI PUSH2 0x5DE PUSH2 0x96D JUMP JUMPDEST PUSH1 0x20 SWAP1 DUP2 MUL SWAP2 SWAP1 SWAP2 ADD ADD MSTORE SWAP2 SWAP1 POP JUMP JUMPDEST PUSH1 0x40 DUP1 MLOAD PUSH1 0x2 DUP1 DUP3 MSTORE PUSH1 0x60 DUP1 DUP4 ADD DUP5 MSTORE SWAP3 PUSH1 0x0 SWAP3 SWAP2 SWAP1 PUSH1 0x20 DUP4 ADD SWAP1 DUP1 CALLDATASIZE DUP4 CALLDATACOPY ADD SWAP1 POP POP SWAP1 POP PUSH8 0xC7D713B49DA0000 DUP2 PUSH1 0x0 DUP2 MLOAD DUP2 LT PUSH2 0x62F JUMPI PUSH2 0x62F PUSH2 0x96D JUMP JUMPDEST PUSH1 0x20 MUL PUSH1 0x20 ADD ADD DUP2 DUP2 MSTORE POP POP PUSH8 0x16345785D8A0000 DUP2 PUSH1 0x1 DUP2 MLOAD DUP2 LT PUSH2 0x5DE JUMPI PUSH2 0x5DE PUSH2 0x96D JUMP JUMPDEST PUSH1 0x0 PUSH1 0x20 DUP3 DUP5 SUB SLT ISZERO PUSH2 0x669 JUMPI PUSH1 0x0 DUP1 REVERT JUMPDEST POP CALLDATALOAD SWAP2 SWAP1 POP JUMP JUMPDEST PUSH1 0x1 PUSH1 0x1 PUSH1 0xA0 SHL SUB DUP2 AND DUP2 EQ PUSH2 0x685 JUMPI PUSH1 0x0 DUP1 REVERT JUMPDEST POP JUMP JUMPDEST PUSH1 0x0 DUP1 PUSH1 0x0 DUP1 PUSH1 0x60 DUP6 DUP8 SUB SLT ISZERO PUSH2 0x69E JUMPI PUSH1 0x0 DUP1 REVERT JUMPDEST DUP5 CALLDATALOAD SWAP4 POP PUSH1 0x20 DUP6 ADD CALLDATALOAD PUSH2 0x6B0 DUP2 PUSH2 0x670 JUMP JUMPDEST SWAP3 POP PUSH1 0x40 DUP6 ADD CALLDATALOAD PUSH8 0xFFFFFFFFFFFFFFFF DUP1 DUP3 GT ISZERO PUSH2 0x6CD JUMPI PUSH1 0x0 DUP1 REVERT JUMPDEST DUP2 DUP8 ADD SWAP2 POP DUP8 PUSH1 0x1F DUP4 ADD SLT PUSH2 0x6E1 JUMPI PUSH1 0x0 DUP1 REVERT JUMPDEST DUP2 CALLDATALOAD DUP2 DUP2 GT ISZERO PUSH2 0x6F0 JUMPI PUSH1 0x0 DUP1 REVERT JUMPDEST DUP9 PUSH1 0x20 DUP3 DUP6 ADD ADD GT ISZERO PUSH2 0x702 JUMPI PUSH1 0x0 DUP1 REVERT JUMPDEST SWAP6 SWAP9 SWAP5 SWAP8 POP POP PUSH1 0x20 ADD SWAP5 POP POP POP JUMP JUMPDEST PUSH1 0x0 DUP1 PUSH1 0x40 DUP4 DUP6 SUB SLT ISZERO PUSH2 0x724 JUMPI PUSH1 0x0 DUP1 REVERT JUMPDEST DUP3 CALLDATALOAD SWAP2 POP PUSH1 0x20 DUP4 ADD CALLDATALOAD PUSH2 0x736 DUP2 PUSH2 0x670 JUMP JUMPDEST DUP1 SWAP2 POP POP SWAP3 POP SWAP3 SWAP1 POP JUMP JUMPDEST PUSH1 0x20 DUP1 DUP3 MSTORE PUSH1 0x1F SWAP1 DUP3 ADD MSTORE PUSH32 0x5265656E7472616E637947756172643A207265656E7472616E742063616C6C00 PUSH1 0x40 DUP3 ADD MSTORE PUSH1 0x60 ADD SWAP1 JUMP JUMPDEST PUSH1 0x1 PUSH1 0x1 PUSH1 0xA0 SHL SUB DUP7 DUP2 AND DUP3 MSTORE PUSH1 0x20 DUP3 ADD DUP7 SWAP1 MSTORE DUP5 AND PUSH1 0x40 DUP3 ADD MSTORE PUSH1 0x80 PUSH1 0x60 DUP3 ADD DUP2 SWAP1 MSTORE DUP2 ADD DUP3 SWAP1 MSTORE PUSH1 0x0 DUP3 DUP5 PUSH1 0xA0 DUP5 ADD CALLDATACOPY PUSH1 0x0 PUSH1 0xA0 DUP5 DUP5 ADD ADD MSTORE PUSH1 0xA0 PUSH1 0x1F NOT PUSH1 0x1F DUP6 ADD AND DUP4 ADD ADD SWAP1 POP SWAP7 SWAP6 POP POP POP POP POP POP JUMP JUMPDEST PUSH1 0x0 PUSH1 0x20 DUP3 DUP5 SUB SLT ISZERO PUSH2 0x7DE JUMPI PUSH1 0x0 DUP1 REVERT JUMPDEST POP MLOAD SWAP2 SWAP1 POP JUMP JUMPDEST PUSH1 0x0 DUP2 MLOAD DUP1 DUP5 MSTORE PUSH1 0x20 DUP1 DUP6 ADD SWAP5 POP DUP1 DUP5 ADD PUSH1 0x0 JUMPDEST DUP4 DUP2 LT ISZERO PUSH2 0x815 JUMPI DUP2 MLOAD DUP8 MSTORE SWAP6 DUP3 ADD SWAP6 SWAP1 DUP3 ADD SWAP1 PUSH1 0x1 ADD PUSH2 0x7F9 JUMP JUMPDEST POP SWAP5 SWAP6 SWAP5 POP POP POP POP POP JUMP JUMPDEST PUSH1 0x1 PUSH1 0x1 PUSH1 0xA0 SHL SUB DUP9 DUP2 AND DUP3 MSTORE PUSH1 0x20 DUP1 DUP4 ADD DUP10 SWAP1 MSTORE DUP8 DUP3 AND PUSH1 0x40 DUP5 ADD MSTORE PUSH1 0x60 DUP4 ADD DUP8 SWAP1 MSTORE SWAP1 DUP6 AND PUSH1 0x80 DUP4 ADD MSTORE PUSH1 0xE0 PUSH1 0xA0 DUP4 ADD DUP2 SWAP1 MSTORE DUP5 MLOAD SWAP1 DUP4 ADD DUP2 SWAP1 MSTORE PUSH1 0x0 SWAP2 DUP6 DUP2 ADD SWAP2 PUSH2 0x100 DUP6 ADD SWAP2 SWAP1 DUP5 JUMPDEST DUP2 DUP2 LT ISZERO PUSH2 0x889 JUMPI DUP5 MLOAD DUP5 MSTORE SWAP4 DUP3 ADD SWAP4 SWAP3 DUP3 ADD SWAP3 PUSH1 0x1 ADD PUSH2 0x86D JUMP JUMPDEST POP POP POP DUP4 DUP2 SUB PUSH1 0xC0 DUP6 ADD MSTORE PUSH2 0x89E DUP2 DUP7 PUSH2 0x7E5 JUMP JUMPDEST SWAP12 SWAP11 POP POP POP POP POP POP POP POP POP POP POP JUMP JUMPDEST PUSH1 0x0 DUP1 DUP4 SLOAD DUP2 PUSH1 0x1 DUP3 DUP2 SHR SWAP2 POP DUP1 DUP4 AND DUP1 PUSH2 0x8C9 JUMPI PUSH1 0x7F DUP4 AND SWAP3 POP JUMPDEST PUSH1 0x20 DUP1 DUP5 LT DUP3 EQ ISZERO PUSH2 0x8E9 JUMPI PUSH4 0x4E487B71 PUSH1 0xE0 SHL DUP7 MSTORE PUSH1 0x22 PUSH1 0x4 MSTORE PUSH1 0x24 DUP7 REVERT JUMPDEST DUP2 DUP1 ISZERO PUSH2 0x8FD JUMPI PUSH1 0x1 DUP2 EQ PUSH2 0x90E JUMPI PUSH2 0x93B JUMP JUMPDEST PUSH1 0xFF NOT DUP7 AND DUP10 MSTORE DUP5 DUP10 ADD SWAP7 POP PUSH2 0x93B JUMP JUMPDEST PUSH1 0x0 DUP11 DUP2 MSTORE PUSH1 0x20 SWAP1 KECCAK256 PUSH1 0x0 JUMPDEST DUP7 DUP2 LT ISZERO PUSH2 0x933 JUMPI DUP2 SLOAD DUP12 DUP3 ADD MSTORE SWAP1 DUP6 ADD SWAP1 DUP4 ADD PUSH2 0x91A JUMP JUMPDEST POP POP DUP5 DUP10 ADD SWAP7 POP JUMPDEST POP SWAP5 SWAP9 SWAP8 POP POP POP POP POP POP POP POP JUMP JUMPDEST PUSH1 0x0 PUSH1 0x20 DUP3 DUP5 SUB SLT ISZERO PUSH2 0x95B JUMPI PUSH1 0x0 DUP1 REVERT JUMPDEST DUP2 MLOAD PUSH2 0x966 DUP2 PUSH2 0x670 JUMP JUMPDEST SWAP4 SWAP3 POP POP POP JUMP JUMPDEST PUSH4 0x4E487B71 PUSH1 0xE0 SHL PUSH1 0x0 MSTORE PUSH1 0x32 PUSH1 0x4 MSTORE PUSH1 0x24 PUSH1 0x0 REVERT INVALID LOG2 PUSH5 0x6970667358 0x22 SLT KECCAK256 OR PUSH12 0x6DE2FBEBD4FE226AC39FA99D PUSH22 0xA7C2CD89ACF31608D5145C0EBCB806E30364736F6C63 NUMBER STOP ADDMOD EXP STOP CALLER ",
  "sha1": "bf92382ec014a32da363e37f6593d9443cbee6f3",
  "source": "/* SPDX-License-Identifier: MIT */\npragma solidity =0.8.10;\n\n/* Package Imports */\nimport {PRBMathUD60x18} from \"@hifi-finance/prb-math/contracts/PRBMathUD60x18.sol\";\n\n/* Internal Imports */\nimport {PhantomStorageMixin} from \"../../mixins/PhantomStorageMixin.sol\";\n\n/* Internal Interface Imports */\nimport {IPhantomFinance} from \"../../../interfaces/level1/finance/IPhantomFinance.sol\";\nimport {IPhantomERC20} from \"../../../interfaces/core/erc20/IPhantomERC20.sol\";\n\n/**\n * @title PhantomFinance\n * @author PhantomDao Team\n * @notice The dApp facing contract used for finance functions\n */\ncontract PhantomFinance is PhantomStorageMixin, IPhantomFinance {\n    using PRBMathUD60x18 for uint256;\n\n    constructor(address storageFactoryAddress) PhantomStorageMixin(storageFactoryAddress) {\n        return;\n    }\n\n    //=================================================================================================================\n    // External Functions\n    //=================================================================================================================\n\n    function stake(uint256 inAmount) external override nonReentrant {\n        PhantomStaking().stake(msg.sender, inAmount);\n    }\n\n    function unstake(uint256 inAmount) external override nonReentrant {\n        PhantomStaking().unstake(msg.sender, inAmount);\n    }\n\n    function wrap(uint256 inAmount) external override nonReentrant {\n        PhantomStaking().wrap(msg.sender, inAmount);\n    }\n\n    function unwrap(uint256 inAmount) external override nonReentrant {\n        PhantomStaking().unwrap(msg.sender, inAmount);\n    }\n\n    function bond(\n        uint256 inAmount,\n        address inToken,\n        bytes calldata inBondType\n    ) external override nonReentrant {\n        PhantomBonding().createBond(msg.sender, inAmount, inToken, inBondType);\n    }\n\n    function donate(\n        uint256 inAmount,\n        address inToken\n    ) external override nonReentrant {\n        PhantomTreasury().swap(\n            msg.sender,\n            inAmount,\n            inToken,\n            0,\n            address(0),\n            standardAccountKeys(),\n            standardAccountPercentages()\n        );\n    }\n}\n",
  "sourcePath": "contracts/level1/finance/PhantomFinance.sol",
  "type": "contract"
}