{
  "abi": [
    {
      "inputs": [
        {
          "internalType": "address",
          "name": "storageFactoryAddress",
          "type": "address"
        }
      ],
      "stateMutability": "nonpayable",
      "type": "constructor"
    },
    {
      "inputs": [
        {
          "internalType": "address",
          "name": "contractAddress",
          "type": "address"
        }
      ],
      "name": "PhantomStorageMixin__ContractNotFoundByAddressOrIsOutdated",
      "type": "error"
    },
    {
      "inputs": [
        {
          "internalType": "bytes32",
          "name": "contractName",
          "type": "bytes32"
        }
      ],
      "name": "PhantomStorageMixin__ContractNotFoundByNameOrIsOutdated",
      "type": "error"
    },
    {
      "inputs": [
        {
          "internalType": "address",
          "name": "user",
          "type": "address"
        }
      ],
      "name": "PhantomStorageMixin__UserIsNotGuardian",
      "type": "error"
    },
    {
      "inputs": [
        {
          "internalType": "address",
          "name": "dexRouter",
          "type": "address"
        },
        {
          "internalType": "address",
          "name": "dexFactory",
          "type": "address"
        },
        {
          "internalType": "uint256",
          "name": "inAmount",
          "type": "uint256"
        },
        {
          "internalType": "address",
          "name": "inToken",
          "type": "address"
        },
        {
          "internalType": "address",
          "name": "outToken",
          "type": "address"
        }
      ],
      "name": "getQuote",
      "outputs": [
        {
          "internalType": "uint256",
          "name": "",
          "type": "uint256"
        }
      ],
      "stateMutability": "view",
      "type": "function"
    },
    {
      "inputs": [
        {
          "internalType": "address",
          "name": "dexRouter",
          "type": "address"
        },
        {
          "internalType": "uint256",
          "name": "inAmount",
          "type": "uint256"
        },
        {
          "internalType": "uint256",
          "name": "minOutAmount",
          "type": "uint256"
        },
        {
          "internalType": "address[]",
          "name": "path",
          "type": "address[]"
        },
        {
          "internalType": "uint256",
          "name": "deadline",
          "type": "uint256"
        },
        {
          "internalType": "bytes32[]",
          "name": "keys",
          "type": "bytes32[]"
        },
        {
          "internalType": "uint256[]",
          "name": "percentages",
          "type": "uint256[]"
        }
      ],
      "name": "swapReceiveMinimum",
      "outputs": [],
      "stateMutability": "nonpayable",
      "type": "function"
    },
    {
      "inputs": [
        {
          "internalType": "address",
          "name": "dexRouter",
          "type": "address"
        },
        {
          "internalType": "uint256",
          "name": "outAmount",
          "type": "uint256"
        },
        {
          "internalType": "uint256",
          "name": "maxInAmount",
          "type": "uint256"
        },
        {
          "internalType": "address[]",
          "name": "path",
          "type": "address[]"
        },
        {
          "internalType": "uint256",
          "name": "deadline",
          "type": "uint256"
        },
        {
          "internalType": "bytes32[]",
          "name": "keys",
          "type": "bytes32[]"
        },
        {
          "internalType": "uint256[]",
          "name": "percentages",
          "type": "uint256[]"
        }
      ],
      "name": "swapSpendMaximum",
      "outputs": [],
      "stateMutability": "nonpayable",
      "type": "function"
    }
  ],
  "bytecode": "601260e08181527139b2b1bab934ba3c9730b2323932b9b9b7b360711b6101009081526080918252600d6101209081526c73656375726974792e6e616d6560981b6101405260a0526101a060405260136101609081527f73656375726974792e72656769737465726564000000000000000000000000006101805260c0529091600091620000909183919062001690565b506020828101518051620000ab926001850192019062001690565b5060408201518051620000c991600284019160209091019062001690565b5050604080516103c081018252601b61038082019081527f7068616e746f6d2e636f6e7472616374732e616c7068617377617000000000006103a0830152610100820190815282518084018452601a8082527f7068616e746f6d2e636f6e7472616374732e666f756e646572730000000000006020838101919091526101208501929092528451808601865260198082527f7068616e746f6d2e636f6e7472616374732e7374616b696e67000000000000008285015261014086019190915285518087018752601f81527f7068616e746f6d2e636f6e7472616374732e7374616b696e677761726d75700081850152610160860152855180870187529081527f7068616e746f6d2e636f6e7472616374732e626f6e64696e67000000000000008184015261018085015284518086018652601581527f7068616e746f6d2e636f6e7472616374732e70686d0000000000000000000000818401526101a08501528451808601865260168082527f7068616e746f6d2e636f6e7472616374732e7370686d00000000000000000000828501526101c0860191909152855180870187528181527f7068616e746f6d2e636f6e7472616374732e6770686d00000000000000000000818501526101e0860152855180870187528181527f7068616e746f6d2e636f6e7472616374732e6170686d0000000000000000000081850152610200860152855180870187528181527f7068616e746f6d2e636f6e7472616374732e6670686d00000000000000000000818501526102208601528551808701875260178082527f7068616e746f6d2e636f6e7472616374732e7661756c7400000000000000000082860152610240870191909152865180880188528381527f7068616e746f6d2e636f6e7472616374732e747265617375727900000000000081860152610260870152865180880188529182527f7068616e746f6d2e636f6e7472616374732e74776170000000000000000000008285015261028086019190915285518087018752601d81527f7068616e746f6d2e636f6e7472616374732e626f6e6470726963696e67000000818501526102a086015285518087018752601c81527f7068616e746f6d2e636f6e7472616374732e6465785f726f7574657200000000818501526102c086015285518087018752601e8082527f7068616e746f6d2e636f6e7472616374732e796561726e5f726f757465720000828601526102e0870191909152865180880188528381527f7068616e746f6d2e636f6e7472616374732e6578656375746f7200000000000081860152610300870152865180880188529283527f7068616e746f6d2e636f6e7472616374732e7061796d656e747300000000000083850152610320860192909252855180870187529081527f7068616e746f6d2e636f6e7472616374732e677561726400000000000000000081840152610340850152845180860186529081527f7068616e746f6d2e636f6e7472616374732e61756374696f6e636c61696d000081830152610360840152908252825160c08101909352602a606084018181529294509084019291829162002daa6080840139815260200160405180606001604052806040518060600160405280602b815260200162002d2f602b913981526020016040518060400160405280602081526020017f7068616e746f6d2e74726561737572792e6163636f756e745f6b65792e64616f815250815260200160405180606001604052806025815260200162002eba6025913990528152604080518082018252601981527f7068616e746f6d2e74726561737572792e62616c616e636573000000000000006020828101919091529283015291835281516101c0810190925260246101608301818152938201938392830191829160c085019182919062002cc5610180880139815260200160405180606001604052806025815260200162002f2960259139815260200160405180606001604052806024815260200162002edf6024913981526020016040518060600160405280602b815260200162002d5a602b9139815260200160405180606001604052806024815260200162002f4e60249139815250815260200160405180606001604052806025815260200162002e2460259139815260200160405180606001604052806029815260200162002e916029913981526020016040518060400160405280601b81526020017f7068616e746f6d2e616c6c6f6361746f722e746f6b656e732e6c70000000000081525081526020016040518060400160405280601f81526020017f7068616e746f6d2e616c6c6f6361746f722e746f6b656e732e73696e676c65008152508152508152508152602001604051806101a0016040528060405180606001604052806040518060600160405280602b815260200162002dd4602b913981526020016040518060600160405280602c815260200162002c73602c913981526020016040518060600160405280602f815260200162002c44602f913981525081526020016040518060400160405280601d81526020017f7068616e746f6d2e626f6e64696e672e76657374696e67626c6f636b7300000081525081526020016040518060400160405280601c81526020017f7068616e746f6d2e626f6e64696e672e70726f6669745f726174696f0000000081525081526020016040518060400160405280601b81526020017f7068616e746f6d2e626f6e64696e672e69735f72656465656d65640000000000815250815260200160405180606001604052806022815260200162002e496022913981526020016040518060400160405280601881526020017f7068616e746f6d2e626f6e64696e672e69735f76616c6964000000000000000081525081526020016040518060400160405280601a81526020017f7068616e746f6d2e626f6e64696e672e6d756c7469706c69657200000000000081525081526020016040518060400160405280601481526020017f7068616e746f6d2e626f6e64696e672e6465627400000000000000000000000081525081526020016040518060400160405280601e81526020017f7068616e746f6d2e626f6e64696e672e6d61785f646562745f726174696f000081525081526020016040518060600160405280602481526020016200303f6024913981526020016040518060400160405280601581526020017f7068616e746f6d2e626f6e64696e672e746f6b656e000000000000000000000081525081526020016040518060400160405280601d81526020017f7068616e746f6d2e626f6e64696e672e6c6173745f636c61696d5f617400000081525081526020016040518060400160405280601b81526020017f7068616e746f6d2e626f6e64696e672e766573745f6c656e6774680000000000815250815250815260200160405180604001604052806040518060400160405280601d81526020017f7068616e746f6d2e7374616b696e672e726562617365436f756e74657200000081525081526020016040518060600160405280602281526020016200301d6022913990528152604080516101408101909152602160e0820181815260209093019282916060830191829162002f96610100860139815260200160405180606001604052806024815260200162002d0b60249139815260200160405180606001604052806026815260200162002c9f60269139815260408051808201825260208082527f7068616e746f6d2e666f756e6465722e636c61696d732e6c617374436c61696d828201529283015291835281516060810183528082018281527f7068616e746f6d2e666f756e6465722e6368616e6765732e6e65774f776e65728285015281528382015281518083018352601d81527f7068616e746f6d2e666f756e6465722e76657374696e67537461727473000000818301529282019290925291835281516101608101909252602261010083018181529390910192829162002ce9610120840139815260200160405180606001604052806023815260200162002fb760239139815260200160405180606001604052806025815260200162002dff60259139815260200160405180606001604052806026815260200162002e6b60269139815260200160405180606001604052806025815260200162002d8560259139815260200160405180606001604052806026815260200162002f0360269139815260200160405180606001604052806024815260200162002f726024913981526020016040518060600160405280602a815260200162003063602a9139815250815260200160405180608001604052806040518060400160405280601c81526020017f7068616e746f6d2e676f7665726e6f722e766f74696e6744656c61790000000081525081526020016040518060400160405280601d81526020017f7068616e746f6d2e676f7665726e6f722e766f74696e67506572696f64000000815250815260200160405180606001604052806021815260200162002fda60219139815260200160405180606001604052806022815260200162002ffb602291399052905280518051805160039291839162000deb91839160209091019062001690565b50602082810151805162000e06926001850192019062001690565b506040820151805162000e2491600284019160209091019062001690565b506060820151805162000e4291600384019160209091019062001690565b506080820151805162000e6091600484019160209091019062001690565b5060a0820151805162000e7e91600584019160209091019062001690565b5060c0820151805162000e9c91600684019160209091019062001690565b5060e0820151805162000eba91600784019160209091019062001690565b50610100820151805162000ed991600884019160209091019062001690565b50610120820151805162000ef891600984019160209091019062001690565b50610140820151805162000f1791600a84019160209091019062001690565b50610160820151805162000f3691600b84019160209091019062001690565b50610180820151805162000f5591600c84019160209091019062001690565b506101a0820151805162000f7491600d84019160209091019062001690565b506101c0820151805162000f9391600e84019160209091019062001690565b506101e0820151805162000fb291600f84019160209091019062001690565b50610200820151805162000fd191601084019160209091019062001690565b50610220820151805162000ff091601184019160209091019062001690565b5061024082015180516200100f91601284019160209091019062001690565b5061026082015180516200102e91601384019160209091019062001690565b505050602082810151805180519192601485019262001051928492019062001690565b50602082810151805180519192600185019262001072928492019062001690565b5060208281015180516200108d926001850192019062001690565b5060408201518051620010ab91600284019160209091019062001690565b50505060408201518051620010cb91600484019160209091019062001690565b50505060408201518051805180518051601986019392849290918391620010f89183916020019062001690565b50602082810151805162001113926001850192019062001690565b50604082015180516200113191600284019160209091019062001690565b50606082015180516200114f91600384019160209091019062001690565b50608082015180516200116d91600484019160209091019062001690565b50505060208281015180516200118a926005850192019062001690565b5060408201518051620011a891600684019160209091019062001690565b5060608201518051620011c691600784019160209091019062001690565b5060808201518051620011e491600884019160209091019062001690565b505050506060830151805180518051929350602285019283916200120e9183916020019062001690565b50602082810151805162001229926001850192019062001690565b50604082015180516200124791600284019160209091019062001690565b505050602082810151805162001264926003850192019062001690565b50604082015180516200128291600484019160209091019062001690565b5060608201518051620012a091600584019160209091019062001690565b5060808201518051620012be91600684019160209091019062001690565b5060a08201518051620012dc91600784019160209091019062001690565b5060c08201518051620012fa91600884019160209091019062001690565b5060e082015180516200131891600984019160209091019062001690565b5061010082015180516200133791600a84019160209091019062001690565b5061012082015180516200135691600b84019160209091019062001690565b5061014082015180516200137591600c84019160209091019062001690565b5061016082015180516200139491600d84019160209091019062001690565b506101808201518051620013b391600e84019160209091019062001690565b5050506080820151805180516031840191620013d59183916020019062001690565b506020828101518051620013f0926001850192019062001690565b50505060a082015180518051805160338501929183916200141991839160209091019062001690565b50602082810151805162001434926001850192019062001690565b50604082015180516200145291600284019160209091019062001690565b50606082015180516200147091600384019160209091019062001690565b505050602082810151805180519192600485019262001493928492019062001690565b50505060408201518051620014b391600584019160209091019062001690565b50505060c0820151805180516039840191620014d59183916020019062001690565b506020828101518051620014f0926001850192019062001690565b50604082015180516200150e91600284019160209091019062001690565b50606082015180516200152c91600384019160209091019062001690565b50608082015180516200154a91600484019160209091019062001690565b5060a082015180516200156891600584019160209091019062001690565b5060c082015180516200158691600684019160209091019062001690565b5060e08201518051620015a491600784019160209091019062001690565b50505060e0820151805180516041840191620015c69183916020019062001690565b506020828101518051620015e1926001850192019062001690565b5060408201518051620015ff91600284019160209091019062001690565b50606082015180516200161d91600384019160209091019062001690565b50505050506d7068616e746f6d53746f7261676560901b604a553480156200164457600080fd5b506040516200308d3803806200308d833981016040819052620016679162001736565b6001604855604980546001600160a01b0383166001600160a01b031990911617905550620017a5565b8280546200169e9062001768565b90600052602060002090601f016020900481019282620016c257600085556200170d565b82601f10620016dd57805160ff19168380011785556200170d565b828001600101855582156200170d579182015b828111156200170d578251825591602001919060010190620016f0565b506200171b9291506200171f565b5090565b5b808211156200171b576000815560010162001720565b6000602082840312156200174957600080fd5b81516001600160a01b03811681146200176157600080fd5b9392505050565b600181811c908216806200177d57607f821691505b602082108114156200179f57634e487b7160e01b600052602260045260246000fd5b50919050565b61148f80620017b56000396000f3fe608060405234801561001057600080fd5b50600436106100415760003560e01c80632a0bbedf1461004657806344b291c31461006b5780639c221fdc14610080575b600080fd5b610059610054366004610e84565b610093565b60405190815260200160405180910390f35b61007e610079366004610fc2565b61012f565b005b61007e61008e366004610fc2565b6104b9565b60008060006100a38786866107d9565b604051632b58577b60e21b815260048101899052602481018390526044810182905291935091506000906001600160a01b038a169063ad615dec90606401602060405180830381865afa1580156100fe573d6000803e3d6000fd5b505050506040513d601f19601f8201168201806040525081019061012291906110da565b9998505050505050505050565b60006101436049546001600160a01b031690565b6001600160a01b0316631bed52416040518163ffffffff1660e01b8152600401602060405180830381865afa158015610180573d6000803e3d6000fd5b505050506040513d601f19601f820116820180604052508101906101a491906110f3565b90506001811515141561027a576049546001600160a01b03166001600160a01b0316637ae1cfca336040516020016101dc919061111c565b604051602081830303815290604052805190602001206040518263ffffffff1660e01b815260040161021091815260200190565b602060405180830381865afa15801561022d573d6000803e3d6000fd5b505050506040513d601f19601f8201168201806040525081019061025191906110f3565b6102755760405163372463e360e01b81523360048201526024015b60405180910390fd5b6103c1565b6049546001600160a01b03166001600160a01b0316637ae1cfca336040516020016102a5919061111c565b604051602081830303815290604052805190602001206040518263ffffffff1660e01b81526004016102d991815260200190565b602060405180830381865afa1580156102f6573d6000803e3d6000fd5b505050506040513d601f19601f8201168201806040525081019061031a91906110f3565b806103a257506049546001600160a01b03166001600160a01b031663a75b87d26040518163ffffffff1660e01b8152600401602060405180830381865afa158015610369573d6000803e3d6000fd5b505050506040513d601f19601f8201168201806040525081019061038d919061115a565b6001600160a01b0316326001600160a01b0316145b6103c15760405163372463e360e01b815233600482015260240161026c565b6103e787866000815181106103d8576103d8611177565b602002602001015185856108a3565b6040516338ed173960e01b81526001600160a01b038916906338ed17399061041b908a908a908a9030908b9060040161118d565b6000604051808303816000875af115801561043a573d6000803e3d6000fd5b505050506040513d6000823e601f3d908101601f1916820160405261046291908101906111fe565b506104af8560008151811061047957610479611177565b60200260200101518660018851610490919061128f565b815181106104a0576104a0611177565b60200260200101518585610911565b5050505050505050565b60006104cd6049546001600160a01b031690565b6001600160a01b0316631bed52416040518163ffffffff1660e01b8152600401602060405180830381865afa15801561050a573d6000803e3d6000fd5b505050506040513d601f19601f8201168201806040525081019061052e91906110f3565b9050600181151514156105ff576049546001600160a01b03166001600160a01b0316637ae1cfca33604051602001610566919061111c565b604051602081830303815290604052805190602001206040518263ffffffff1660e01b815260040161059a91815260200190565b602060405180830381865afa1580156105b7573d6000803e3d6000fd5b505050506040513d601f19601f820116820180604052508101906105db91906110f3565b6105fa5760405163372463e360e01b815233600482015260240161026c565b610746565b6049546001600160a01b03166001600160a01b0316637ae1cfca3360405160200161062a919061111c565b604051602081830303815290604052805190602001206040518263ffffffff1660e01b815260040161065e91815260200190565b602060405180830381865afa15801561067b573d6000803e3d6000fd5b505050506040513d601f19601f8201168201806040525081019061069f91906110f3565b8061072757506049546001600160a01b03166001600160a01b031663a75b87d26040518163ffffffff1660e01b8152600401602060405180830381865afa1580156106ee573d6000803e3d6000fd5b505050506040513d601f19601f82011682018060405250810190610712919061115a565b6001600160a01b0316326001600160a01b0316145b6107465760405163372463e360e01b815233600482015260240161026c565b61075d86866000815181106103d8576103d8611177565b604051635c11d79560e01b81526001600160a01b03891690635c11d79590610791908a908a908a9030908b9060040161118d565b600060405180830381600087803b1580156107ab57600080fd5b505af11580156107bf573d6000803e3d6000fd5b505050506104af8560008151811061047957610479611177565b60008060006107e88585610c06565b5090506000806107f9888888610cfe565b6001600160a01b0316630902f1ac6040518163ffffffff1660e01b8152600401606060405180830381865afa158015610836573d6000803e3d6000fd5b505050506040513d601f19601f8201168201806040525081019061085a91906112d0565b506001600160701b031691506001600160701b03169150826001600160a01b0316876001600160a01b031614610891578082610894565b81815b90999098509650505050505050565b6108ab610dcd565b6001600160a01b031663a397104730600080888888886040518863ffffffff1660e01b81526004016108e3979695949392919061135b565b600060405180830381600087803b1580156108fd57600080fd5b505af11580156104af573d6000803e3d6000fd5b6040516370a0823160e01b81523060048201526000906001600160a01b038616906370a0823190602401602060405180830381865afa158015610958573d6000803e3d6000fd5b505050506040513d601f19601f8201168201806040525081019061097c91906110da565b6040516370a0823160e01b81523060048201529091506000906001600160a01b038616906370a0823190602401602060405180830381865afa1580156109c6573d6000803e3d6000fd5b505050506040513d601f19601f820116820180604052508101906109ea91906110da565b90508115610af557856001600160a01b031663095ea7b3610a09610dcd565b6040516001600160e01b031960e084901b1681526001600160a01b039091166004820152602481018590526044016020604051808303816000875af1158015610a56573d6000803e3d6000fd5b505050506040513d601f19601f82011682018060405250810190610a7a91906110f3565b50610a83610dcd565b6001600160a01b031663a39710473084610a9b610dcd565b6000808a8a6040518863ffffffff1660e01b8152600401610ac2979695949392919061135b565b600060405180830381600087803b158015610adc57600080fd5b505af1158015610af0573d6000803e3d6000fd5b505050505b8015610bfe57846001600160a01b031663095ea7b3610b12610dcd565b6040516001600160e01b031960e084901b1681526001600160a01b039091166004820152602481018490526044016020604051808303816000875af1158015610b5f573d6000803e3d6000fd5b505050506040513d601f19601f82011682018060405250810190610b8391906110f3565b50610b8c610dcd565b6001600160a01b031663a39710473083610ba4610dcd565b6000808a8a6040518863ffffffff1660e01b8152600401610bcb979695949392919061135b565b600060405180830381600087803b158015610be557600080fd5b505af1158015610bf9573d6000803e3d6000fd5b505050505b505050505050565b600080826001600160a01b0316846001600160a01b03161415610c795760405162461bcd60e51b815260206004820152602560248201527f556e697377617056324c6962726172793a204944454e544943414c5f41444452604482015264455353455360d81b606482015260840161026c565b826001600160a01b0316846001600160a01b031610610c99578284610c9c565b83835b90925090506001600160a01b038216610cf75760405162461bcd60e51b815260206004820152601e60248201527f556e697377617056324c6962726172793a205a45524f5f414444524553530000604482015260640161026c565b9250929050565b6000806000610d0d8585610c06565b6040516001600160601b0319606084811b8216602084015283901b1660348201529193509150869060480160405160208183030381529060405280519060200120604051602001610dab9291906001600160f81b0319815260609290921b6001600160601b031916600183015260158201527f96e8ac4277198ff8b6f785478aa9a39f403cb768dd02cbee326c3e7da348845f603582015260550190565b60408051601f1981840301815291905280516020909101209695505050505050565b6000610de16049546001600160a01b031690565b6001600160a01b03166321f8a7216003600001600b01604051610e0491906113bd565b60405190819003812060e083901b6001600160e01b03191682526004820152602401602060405180830381865afa158015610e43573d6000803e3d6000fd5b505050506040513d601f19601f82011682018060405250810190610e67919061115a565b905090565b6001600160a01b0381168114610e8157600080fd5b50565b600080600080600060a08688031215610e9c57600080fd5b8535610ea781610e6c565b94506020860135610eb781610e6c565b9350604086013592506060860135610ece81610e6c565b91506080860135610ede81610e6c565b809150509295509295909350565b634e487b7160e01b600052604160045260246000fd5b604051601f8201601f1916810167ffffffffffffffff81118282101715610f2b57610f2b610eec565b604052919050565b600067ffffffffffffffff821115610f4d57610f4d610eec565b5060051b60200190565b600082601f830112610f6857600080fd5b81356020610f7d610f7883610f33565b610f02565b82815260059290921b84018101918181019086841115610f9c57600080fd5b8286015b84811015610fb75780358352918301918301610fa0565b509695505050505050565b600080600080600080600060e0888a031215610fdd57600080fd5b8735610fe881610e6c565b9650602088810135965060408901359550606089013567ffffffffffffffff8082111561101457600080fd5b818b0191508b601f83011261102857600080fd5b8135611036610f7882610f33565b81815260059190911b8301840190848101908e83111561105557600080fd5b938501935b8285101561107c57843561106d81610e6c565b8252938501939085019061105a565b9850505060808b0135955060a08b013592508083111561109b57600080fd5b6110a78c848d01610f57565b945060c08b01359250808311156110bd57600080fd5b50506110cb8a828b01610f57565b91505092959891949750929550565b6000602082840312156110ec57600080fd5b5051919050565b60006020828403121561110557600080fd5b8151801515811461111557600080fd5b9392505050565b7f7068616e746f6d2e636f6e74726163742e726567697374657265640000000000815260609190911b6001600160601b031916601b820152602f0190565b60006020828403121561116c57600080fd5b815161111581610e6c565b634e487b7160e01b600052603260045260246000fd5b600060a082018783526020878185015260a0604085015281875180845260c086019150828901935060005b818110156111dd5784516001600160a01b0316835293830193918301916001016111b8565b50506001600160a01b03969096166060850152505050608001529392505050565b6000602080838503121561121157600080fd5b825167ffffffffffffffff81111561122857600080fd5b8301601f8101851361123957600080fd5b8051611247610f7882610f33565b81815260059190911b8201830190838101908783111561126657600080fd5b928401925b828410156112845783518252928401929084019061126b565b979650505050505050565b6000828210156112af57634e487b7160e01b600052601160045260246000fd5b500390565b80516001600160701b03811681146112cb57600080fd5b919050565b6000806000606084860312156112e557600080fd5b6112ee846112b4565b92506112fc602085016112b4565b9150604084015163ffffffff8116811461131557600080fd5b809150509250925092565b600081518084526020808501945080840160005b8381101561135057815187529582019590820190600101611334565b509495945050505050565b6001600160a01b038881168252602082018890528681166040830152606082018690528416608082015260e060a0820181905260009061139d90830185611320565b82810360c08401526113af8185611320565b9a9950505050505050505050565b600080835481600182811c9150808316806113d957607f831692505b60208084108214156113f957634e487b7160e01b86526022600452602486fd5b81801561140d576001811461141e5761144b565b60ff1986168952848901965061144b565b60008a81526020902060005b868110156114435781548b82015290850190830161142a565b505084890196505b50949897505050505050505056fea2646970667358221220d5ab0ed8d732f5f0ddbb0747bb71903da89646312be01264dcb08d8530ef6a0e64736f6c634300080a00337068616e746f6d2e626f6e64696e672e757365722e6c6f776573745f6e6f6e63655f7374696c6c5f76657374696e677068616e746f6d2e626f6e64696e672e757365722e6c6f776573745f61737369676e61626c655f6e6f6e63657068616e746f6d2e666f756e6465722e636c61696d732e72656d61696e696e67416d6f756e747068616e746f6d2e616c6c6f6361746f722e746f6b656e732e616464726573732e6461697068616e746f6d2e726f7574696e672e6465785f726f757465725f616464726573737068616e746f6d2e666f756e6465722e636c61696d732e696e697469616c416d6f756e747068616e746f6d2e74726561737572792e6163636f756e745f6b65792e76656e747572656361706974616c7068616e746f6d2e616c6c6f6361746f722e746f6b656e732e616464726573732e6461695f70686d5f6c707068616e746f6d2e726f7574696e672e73706f6f6b795f726f757465725f616464726573737068616e746f6d2e74726561737572792e617070726f7665642e65787465726e616c2e616464726573737068616e746f6d2e626f6e64696e672e757365722e66697273745f756e72656465656d65645f6e6f6e63657068616e746f6d2e726f7574696e672e7370697269745f726f757465725f616464726573737068616e746f6d2e616c6c6f6361746f722e746f6b656e732e64657374696e6174696f6e737068616e746f6d2e626f6e64696e672e76657374735f61745f74696d657374616d707068616e746f6d2e726f7574696e672e7370697269745f666163746f72795f616464726573737068616e746f6d2e616c6c6f6361746f722e746f6b656e732e646573745f70657263656e74616765737068616e746f6d2e74726561737572792e6163636f756e745f6b65792e72657365727665737068616e746f6d2e616c6c6f6361746f722e746f6b656e732e616464726573732e6d696d7068616e746f6d2e726f7574696e672e73706f6f6b795f666163746f72795f616464726573737068616e746f6d2e616c6c6f6361746f722e746f6b656e732e616464726573732e7766746d7068616e746f6d2e616c6c6f6361746f722e746f6b656e732e616464726573732e6465787068616e746f6d2e726f7574696e672e7370697269745f67617567655f616464726573737068616e746f6d2e666f756e6465722e636c61696d732e616c6c6f636174696f6e7068616e746f6d2e726f7574696e672e6465785f666163746f72795f616464726573737068616e746f6d2e676f7665726e6f722e71756f72756d50657263656e746167657068616e746f6d2e676f7665726e6f722e70726f706f73616c5468726573686f6c647068616e746f6d2e7374616b696e672e6e657874526562617365446561646c696e657068616e746f6d2e626f6e64696e672e72656d61696e696e675f7061796f75745f666f727068616e746f6d2e726f7574696e672e7370697269745f67617567655f70726f78795f61646472657373",
  "bytecodeSha1": "da39a3ee5e6b4b0d3255bfef95601890afd80709",
  "compiler": {
    "evm_version": "istanbul",
    "optimizer": {
      "enabled": true,
      "runs": 200
    },
    "version": "0.8.10+commit.fc410830"
  },
  "contractName": "PhantomDexRouter",
  "language": "Solidity",
  "natspec": {
    "author": "PhantomDao Team",
    "kind": "dev",
    "methods": {},
    "notice": "Communicate with a UniSwap dex",
    "title": "PhantomDexRouter",
    "version": 1
  },
  "opcodes": "PUSH1 0x80 PUSH1 0x40 MSTORE CALLVALUE DUP1 ISZERO PUSH2 0x10 JUMPI PUSH1 0x0 DUP1 REVERT JUMPDEST POP PUSH1 0x4 CALLDATASIZE LT PUSH2 0x41 JUMPI PUSH1 0x0 CALLDATALOAD PUSH1 0xE0 SHR DUP1 PUSH4 0x2A0BBEDF EQ PUSH2 0x46 JUMPI DUP1 PUSH4 0x44B291C3 EQ PUSH2 0x6B JUMPI DUP1 PUSH4 0x9C221FDC EQ PUSH2 0x80 JUMPI JUMPDEST PUSH1 0x0 DUP1 REVERT JUMPDEST PUSH2 0x59 PUSH2 0x54 CALLDATASIZE PUSH1 0x4 PUSH2 0xE84 JUMP JUMPDEST PUSH2 0x93 JUMP JUMPDEST PUSH1 0x40 MLOAD SWAP1 DUP2 MSTORE PUSH1 0x20 ADD PUSH1 0x40 MLOAD DUP1 SWAP2 SUB SWAP1 RETURN JUMPDEST PUSH2 0x7E PUSH2 0x79 CALLDATASIZE PUSH1 0x4 PUSH2 0xFC2 JUMP JUMPDEST PUSH2 0x12F JUMP JUMPDEST STOP JUMPDEST PUSH2 0x7E PUSH2 0x8E CALLDATASIZE PUSH1 0x4 PUSH2 0xFC2 JUMP JUMPDEST PUSH2 0x4B9 JUMP JUMPDEST PUSH1 0x0 DUP1 PUSH1 0x0 PUSH2 0xA3 DUP8 DUP7 DUP7 PUSH2 0x7D9 JUMP JUMPDEST PUSH1 0x40 MLOAD PUSH4 0x2B58577B PUSH1 0xE2 SHL DUP2 MSTORE PUSH1 0x4 DUP2 ADD DUP10 SWAP1 MSTORE PUSH1 0x24 DUP2 ADD DUP4 SWAP1 MSTORE PUSH1 0x44 DUP2 ADD DUP3 SWAP1 MSTORE SWAP2 SWAP4 POP SWAP2 POP PUSH1 0x0 SWAP1 PUSH1 0x1 PUSH1 0x1 PUSH1 0xA0 SHL SUB DUP11 AND SWAP1 PUSH4 0xAD615DEC SWAP1 PUSH1 0x64 ADD PUSH1 0x20 PUSH1 0x40 MLOAD DUP1 DUP4 SUB DUP2 DUP7 GAS STATICCALL ISZERO DUP1 ISZERO PUSH2 0xFE JUMPI RETURNDATASIZE PUSH1 0x0 DUP1 RETURNDATACOPY RETURNDATASIZE PUSH1 0x0 REVERT JUMPDEST POP POP POP POP PUSH1 0x40 MLOAD RETURNDATASIZE PUSH1 0x1F NOT PUSH1 0x1F DUP3 ADD AND DUP3 ADD DUP1 PUSH1 0x40 MSTORE POP DUP2 ADD SWAP1 PUSH2 0x122 SWAP2 SWAP1 PUSH2 0x10DA JUMP JUMPDEST SWAP10 SWAP9 POP POP POP POP POP POP POP POP POP JUMP JUMPDEST PUSH1 0x0 PUSH2 0x143 PUSH1 0x49 SLOAD PUSH1 0x1 PUSH1 0x1 PUSH1 0xA0 SHL SUB AND SWAP1 JUMP JUMPDEST PUSH1 0x1 PUSH1 0x1 PUSH1 0xA0 SHL SUB AND PUSH4 0x1BED5241 PUSH1 0x40 MLOAD DUP2 PUSH4 0xFFFFFFFF AND PUSH1 0xE0 SHL DUP2 MSTORE PUSH1 0x4 ADD PUSH1 0x20 PUSH1 0x40 MLOAD DUP1 DUP4 SUB DUP2 DUP7 GAS STATICCALL ISZERO DUP1 ISZERO PUSH2 0x180 JUMPI RETURNDATASIZE PUSH1 0x0 DUP1 RETURNDATACOPY RETURNDATASIZE PUSH1 0x0 REVERT JUMPDEST POP POP POP POP PUSH1 0x40 MLOAD RETURNDATASIZE PUSH1 0x1F NOT PUSH1 0x1F DUP3 ADD AND DUP3 ADD DUP1 PUSH1 0x40 MSTORE POP DUP2 ADD SWAP1 PUSH2 0x1A4 SWAP2 SWAP1 PUSH2 0x10F3 JUMP JUMPDEST SWAP1 POP PUSH1 0x1 DUP2 ISZERO ISZERO EQ ISZERO PUSH2 0x27A JUMPI PUSH1 0x49 SLOAD PUSH1 0x1 PUSH1 0x1 PUSH1 0xA0 SHL SUB AND PUSH1 0x1 PUSH1 0x1 PUSH1 0xA0 SHL SUB AND PUSH4 0x7AE1CFCA CALLER PUSH1 0x40 MLOAD PUSH1 0x20 ADD PUSH2 0x1DC SWAP2 SWAP1 PUSH2 0x111C JUMP JUMPDEST PUSH1 0x40 MLOAD PUSH1 0x20 DUP2 DUP4 SUB SUB DUP2 MSTORE SWAP1 PUSH1 0x40 MSTORE DUP1 MLOAD SWAP1 PUSH1 0x20 ADD KECCAK256 PUSH1 0x40 MLOAD DUP3 PUSH4 0xFFFFFFFF AND PUSH1 0xE0 SHL DUP2 MSTORE PUSH1 0x4 ADD PUSH2 0x210 SWAP2 DUP2 MSTORE PUSH1 0x20 ADD SWAP1 JUMP JUMPDEST PUSH1 0x20 PUSH1 0x40 MLOAD DUP1 DUP4 SUB DUP2 DUP7 GAS STATICCALL ISZERO DUP1 ISZERO PUSH2 0x22D JUMPI RETURNDATASIZE PUSH1 0x0 DUP1 RETURNDATACOPY RETURNDATASIZE PUSH1 0x0 REVERT JUMPDEST POP POP POP POP PUSH1 0x40 MLOAD RETURNDATASIZE PUSH1 0x1F NOT PUSH1 0x1F DUP3 ADD AND DUP3 ADD DUP1 PUSH1 0x40 MSTORE POP DUP2 ADD SWAP1 PUSH2 0x251 SWAP2 SWAP1 PUSH2 0x10F3 JUMP JUMPDEST PUSH2 0x275 JUMPI PUSH1 0x40 MLOAD PUSH4 0x372463E3 PUSH1 0xE0 SHL DUP2 MSTORE CALLER PUSH1 0x4 DUP3 ADD MSTORE PUSH1 0x24 ADD JUMPDEST PUSH1 0x40 MLOAD DUP1 SWAP2 SUB SWAP1 REVERT JUMPDEST PUSH2 0x3C1 JUMP JUMPDEST PUSH1 0x49 SLOAD PUSH1 0x1 PUSH1 0x1 PUSH1 0xA0 SHL SUB AND PUSH1 0x1 PUSH1 0x1 PUSH1 0xA0 SHL SUB AND PUSH4 0x7AE1CFCA CALLER PUSH1 0x40 MLOAD PUSH1 0x20 ADD PUSH2 0x2A5 SWAP2 SWAP1 PUSH2 0x111C JUMP JUMPDEST PUSH1 0x40 MLOAD PUSH1 0x20 DUP2 DUP4 SUB SUB DUP2 MSTORE SWAP1 PUSH1 0x40 MSTORE DUP1 MLOAD SWAP1 PUSH1 0x20 ADD KECCAK256 PUSH1 0x40 MLOAD DUP3 PUSH4 0xFFFFFFFF AND PUSH1 0xE0 SHL DUP2 MSTORE PUSH1 0x4 ADD PUSH2 0x2D9 SWAP2 DUP2 MSTORE PUSH1 0x20 ADD SWAP1 JUMP JUMPDEST PUSH1 0x20 PUSH1 0x40 MLOAD DUP1 DUP4 SUB DUP2 DUP7 GAS STATICCALL ISZERO DUP1 ISZERO PUSH2 0x2F6 JUMPI RETURNDATASIZE PUSH1 0x0 DUP1 RETURNDATACOPY RETURNDATASIZE PUSH1 0x0 REVERT JUMPDEST POP POP POP POP PUSH1 0x40 MLOAD RETURNDATASIZE PUSH1 0x1F NOT PUSH1 0x1F DUP3 ADD AND DUP3 ADD DUP1 PUSH1 0x40 MSTORE POP DUP2 ADD SWAP1 PUSH2 0x31A SWAP2 SWAP1 PUSH2 0x10F3 JUMP JUMPDEST DUP1 PUSH2 0x3A2 JUMPI POP PUSH1 0x49 SLOAD PUSH1 0x1 PUSH1 0x1 PUSH1 0xA0 SHL SUB AND PUSH1 0x1 PUSH1 0x1 PUSH1 0xA0 SHL SUB AND PUSH4 0xA75B87D2 PUSH1 0x40 MLOAD DUP2 PUSH4 0xFFFFFFFF AND PUSH1 0xE0 SHL DUP2 MSTORE PUSH1 0x4 ADD PUSH1 0x20 PUSH1 0x40 MLOAD DUP1 DUP4 SUB DUP2 DUP7 GAS STATICCALL ISZERO DUP1 ISZERO PUSH2 0x369 JUMPI RETURNDATASIZE PUSH1 0x0 DUP1 RETURNDATACOPY RETURNDATASIZE PUSH1 0x0 REVERT JUMPDEST POP POP POP POP PUSH1 0x40 MLOAD RETURNDATASIZE PUSH1 0x1F NOT PUSH1 0x1F DUP3 ADD AND DUP3 ADD DUP1 PUSH1 0x40 MSTORE POP DUP2 ADD SWAP1 PUSH2 0x38D SWAP2 SWAP1 PUSH2 0x115A JUMP JUMPDEST PUSH1 0x1 PUSH1 0x1 PUSH1 0xA0 SHL SUB AND ORIGIN PUSH1 0x1 PUSH1 0x1 PUSH1 0xA0 SHL SUB AND EQ JUMPDEST PUSH2 0x3C1 JUMPI PUSH1 0x40 MLOAD PUSH4 0x372463E3 PUSH1 0xE0 SHL DUP2 MSTORE CALLER PUSH1 0x4 DUP3 ADD MSTORE PUSH1 0x24 ADD PUSH2 0x26C JUMP JUMPDEST PUSH2 0x3E7 DUP8 DUP7 PUSH1 0x0 DUP2 MLOAD DUP2 LT PUSH2 0x3D8 JUMPI PUSH2 0x3D8 PUSH2 0x1177 JUMP JUMPDEST PUSH1 0x20 MUL PUSH1 0x20 ADD ADD MLOAD DUP6 DUP6 PUSH2 0x8A3 JUMP JUMPDEST PUSH1 0x40 MLOAD PUSH4 0x38ED1739 PUSH1 0xE0 SHL DUP2 MSTORE PUSH1 0x1 PUSH1 0x1 PUSH1 0xA0 SHL SUB DUP10 AND SWAP1 PUSH4 0x38ED1739 SWAP1 PUSH2 0x41B SWAP1 DUP11 SWAP1 DUP11 SWAP1 DUP11 SWAP1 ADDRESS SWAP1 DUP12 SWAP1 PUSH1 0x4 ADD PUSH2 0x118D JUMP JUMPDEST PUSH1 0x0 PUSH1 0x40 MLOAD DUP1 DUP4 SUB DUP2 PUSH1 0x0 DUP8 GAS CALL ISZERO DUP1 ISZERO PUSH2 0x43A JUMPI RETURNDATASIZE PUSH1 0x0 DUP1 RETURNDATACOPY RETURNDATASIZE PUSH1 0x0 REVERT JUMPDEST POP POP POP POP PUSH1 0x40 MLOAD RETURNDATASIZE PUSH1 0x0 DUP3 RETURNDATACOPY PUSH1 0x1F RETURNDATASIZE SWAP1 DUP2 ADD PUSH1 0x1F NOT AND DUP3 ADD PUSH1 0x40 MSTORE PUSH2 0x462 SWAP2 SWAP1 DUP2 ADD SWAP1 PUSH2 0x11FE JUMP JUMPDEST POP PUSH2 0x4AF DUP6 PUSH1 0x0 DUP2 MLOAD DUP2 LT PUSH2 0x479 JUMPI PUSH2 0x479 PUSH2 0x1177 JUMP JUMPDEST PUSH1 0x20 MUL PUSH1 0x20 ADD ADD MLOAD DUP7 PUSH1 0x1 DUP9 MLOAD PUSH2 0x490 SWAP2 SWAP1 PUSH2 0x128F JUMP JUMPDEST DUP2 MLOAD DUP2 LT PUSH2 0x4A0 JUMPI PUSH2 0x4A0 PUSH2 0x1177 JUMP JUMPDEST PUSH1 0x20 MUL PUSH1 0x20 ADD ADD MLOAD DUP6 DUP6 PUSH2 0x911 JUMP JUMPDEST POP POP POP POP POP POP POP POP JUMP JUMPDEST PUSH1 0x0 PUSH2 0x4CD PUSH1 0x49 SLOAD PUSH1 0x1 PUSH1 0x1 PUSH1 0xA0 SHL SUB AND SWAP1 JUMP JUMPDEST PUSH1 0x1 PUSH1 0x1 PUSH1 0xA0 SHL SUB AND PUSH4 0x1BED5241 PUSH1 0x40 MLOAD DUP2 PUSH4 0xFFFFFFFF AND PUSH1 0xE0 SHL DUP2 MSTORE PUSH1 0x4 ADD PUSH1 0x20 PUSH1 0x40 MLOAD DUP1 DUP4 SUB DUP2 DUP7 GAS STATICCALL ISZERO DUP1 ISZERO PUSH2 0x50A JUMPI RETURNDATASIZE PUSH1 0x0 DUP1 RETURNDATACOPY RETURNDATASIZE PUSH1 0x0 REVERT JUMPDEST POP POP POP POP PUSH1 0x40 MLOAD RETURNDATASIZE PUSH1 0x1F NOT PUSH1 0x1F DUP3 ADD AND DUP3 ADD DUP1 PUSH1 0x40 MSTORE POP DUP2 ADD SWAP1 PUSH2 0x52E SWAP2 SWAP1 PUSH2 0x10F3 JUMP JUMPDEST SWAP1 POP PUSH1 0x1 DUP2 ISZERO ISZERO EQ ISZERO PUSH2 0x5FF JUMPI PUSH1 0x49 SLOAD PUSH1 0x1 PUSH1 0x1 PUSH1 0xA0 SHL SUB AND PUSH1 0x1 PUSH1 0x1 PUSH1 0xA0 SHL SUB AND PUSH4 0x7AE1CFCA CALLER PUSH1 0x40 MLOAD PUSH1 0x20 ADD PUSH2 0x566 SWAP2 SWAP1 PUSH2 0x111C JUMP JUMPDEST PUSH1 0x40 MLOAD PUSH1 0x20 DUP2 DUP4 SUB SUB DUP2 MSTORE SWAP1 PUSH1 0x40 MSTORE DUP1 MLOAD SWAP1 PUSH1 0x20 ADD KECCAK256 PUSH1 0x40 MLOAD DUP3 PUSH4 0xFFFFFFFF AND PUSH1 0xE0 SHL DUP2 MSTORE PUSH1 0x4 ADD PUSH2 0x59A SWAP2 DUP2 MSTORE PUSH1 0x20 ADD SWAP1 JUMP JUMPDEST PUSH1 0x20 PUSH1 0x40 MLOAD DUP1 DUP4 SUB DUP2 DUP7 GAS STATICCALL ISZERO DUP1 ISZERO PUSH2 0x5B7 JUMPI RETURNDATASIZE PUSH1 0x0 DUP1 RETURNDATACOPY RETURNDATASIZE PUSH1 0x0 REVERT JUMPDEST POP POP POP POP PUSH1 0x40 MLOAD RETURNDATASIZE PUSH1 0x1F NOT PUSH1 0x1F DUP3 ADD AND DUP3 ADD DUP1 PUSH1 0x40 MSTORE POP DUP2 ADD SWAP1 PUSH2 0x5DB SWAP2 SWAP1 PUSH2 0x10F3 JUMP JUMPDEST PUSH2 0x5FA JUMPI PUSH1 0x40 MLOAD PUSH4 0x372463E3 PUSH1 0xE0 SHL DUP2 MSTORE CALLER PUSH1 0x4 DUP3 ADD MSTORE PUSH1 0x24 ADD PUSH2 0x26C JUMP JUMPDEST PUSH2 0x746 JUMP JUMPDEST PUSH1 0x49 SLOAD PUSH1 0x1 PUSH1 0x1 PUSH1 0xA0 SHL SUB AND PUSH1 0x1 PUSH1 0x1 PUSH1 0xA0 SHL SUB AND PUSH4 0x7AE1CFCA CALLER PUSH1 0x40 MLOAD PUSH1 0x20 ADD PUSH2 0x62A SWAP2 SWAP1 PUSH2 0x111C JUMP JUMPDEST PUSH1 0x40 MLOAD PUSH1 0x20 DUP2 DUP4 SUB SUB DUP2 MSTORE SWAP1 PUSH1 0x40 MSTORE DUP1 MLOAD SWAP1 PUSH1 0x20 ADD KECCAK256 PUSH1 0x40 MLOAD DUP3 PUSH4 0xFFFFFFFF AND PUSH1 0xE0 SHL DUP2 MSTORE PUSH1 0x4 ADD PUSH2 0x65E SWAP2 DUP2 MSTORE PUSH1 0x20 ADD SWAP1 JUMP JUMPDEST PUSH1 0x20 PUSH1 0x40 MLOAD DUP1 DUP4 SUB DUP2 DUP7 GAS STATICCALL ISZERO DUP1 ISZERO PUSH2 0x67B JUMPI RETURNDATASIZE PUSH1 0x0 DUP1 RETURNDATACOPY RETURNDATASIZE PUSH1 0x0 REVERT JUMPDEST POP POP POP POP PUSH1 0x40 MLOAD RETURNDATASIZE PUSH1 0x1F NOT PUSH1 0x1F DUP3 ADD AND DUP3 ADD DUP1 PUSH1 0x40 MSTORE POP DUP2 ADD SWAP1 PUSH2 0x69F SWAP2 SWAP1 PUSH2 0x10F3 JUMP JUMPDEST DUP1 PUSH2 0x727 JUMPI POP PUSH1 0x49 SLOAD PUSH1 0x1 PUSH1 0x1 PUSH1 0xA0 SHL SUB AND PUSH1 0x1 PUSH1 0x1 PUSH1 0xA0 SHL SUB AND PUSH4 0xA75B87D2 PUSH1 0x40 MLOAD DUP2 PUSH4 0xFFFFFFFF AND PUSH1 0xE0 SHL DUP2 MSTORE PUSH1 0x4 ADD PUSH1 0x20 PUSH1 0x40 MLOAD DUP1 DUP4 SUB DUP2 DUP7 GAS STATICCALL ISZERO DUP1 ISZERO PUSH2 0x6EE JUMPI RETURNDATASIZE PUSH1 0x0 DUP1 RETURNDATACOPY RETURNDATASIZE PUSH1 0x0 REVERT JUMPDEST POP POP POP POP PUSH1 0x40 MLOAD RETURNDATASIZE PUSH1 0x1F NOT PUSH1 0x1F DUP3 ADD AND DUP3 ADD DUP1 PUSH1 0x40 MSTORE POP DUP2 ADD SWAP1 PUSH2 0x712 SWAP2 SWAP1 PUSH2 0x115A JUMP JUMPDEST PUSH1 0x1 PUSH1 0x1 PUSH1 0xA0 SHL SUB AND ORIGIN PUSH1 0x1 PUSH1 0x1 PUSH1 0xA0 SHL SUB AND EQ JUMPDEST PUSH2 0x746 JUMPI PUSH1 0x40 MLOAD PUSH4 0x372463E3 PUSH1 0xE0 SHL DUP2 MSTORE CALLER PUSH1 0x4 DUP3 ADD MSTORE PUSH1 0x24 ADD PUSH2 0x26C JUMP JUMPDEST PUSH2 0x75D DUP7 DUP7 PUSH1 0x0 DUP2 MLOAD DUP2 LT PUSH2 0x3D8 JUMPI PUSH2 0x3D8 PUSH2 0x1177 JUMP JUMPDEST PUSH1 0x40 MLOAD PUSH4 0x5C11D795 PUSH1 0xE0 SHL DUP2 MSTORE PUSH1 0x1 PUSH1 0x1 PUSH1 0xA0 SHL SUB DUP10 AND SWAP1 PUSH4 0x5C11D795 SWAP1 PUSH2 0x791 SWAP1 DUP11 SWAP1 DUP11 SWAP1 DUP11 SWAP1 ADDRESS SWAP1 DUP12 SWAP1 PUSH1 0x4 ADD PUSH2 0x118D JUMP JUMPDEST PUSH1 0x0 PUSH1 0x40 MLOAD DUP1 DUP4 SUB DUP2 PUSH1 0x0 DUP8 DUP1 EXTCODESIZE ISZERO DUP1 ISZERO PUSH2 0x7AB JUMPI PUSH1 0x0 DUP1 REVERT JUMPDEST POP GAS CALL ISZERO DUP1 ISZERO PUSH2 0x7BF JUMPI RETURNDATASIZE PUSH1 0x0 DUP1 RETURNDATACOPY RETURNDATASIZE PUSH1 0x0 REVERT JUMPDEST POP POP POP POP PUSH2 0x4AF DUP6 PUSH1 0x0 DUP2 MLOAD DUP2 LT PUSH2 0x479 JUMPI PUSH2 0x479 PUSH2 0x1177 JUMP JUMPDEST PUSH1 0x0 DUP1 PUSH1 0x0 PUSH2 0x7E8 DUP6 DUP6 PUSH2 0xC06 JUMP JUMPDEST POP SWAP1 POP PUSH1 0x0 DUP1 PUSH2 0x7F9 DUP9 DUP9 DUP9 PUSH2 0xCFE JUMP JUMPDEST PUSH1 0x1 PUSH1 0x1 PUSH1 0xA0 SHL SUB AND PUSH4 0x902F1AC PUSH1 0x40 MLOAD DUP2 PUSH4 0xFFFFFFFF AND PUSH1 0xE0 SHL DUP2 MSTORE PUSH1 0x4 ADD PUSH1 0x60 PUSH1 0x40 MLOAD DUP1 DUP4 SUB DUP2 DUP7 GAS STATICCALL ISZERO DUP1 ISZERO PUSH2 0x836 JUMPI RETURNDATASIZE PUSH1 0x0 DUP1 RETURNDATACOPY RETURNDATASIZE PUSH1 0x0 REVERT JUMPDEST POP POP POP POP PUSH1 0x40 MLOAD RETURNDATASIZE PUSH1 0x1F NOT PUSH1 0x1F DUP3 ADD AND DUP3 ADD DUP1 PUSH1 0x40 MSTORE POP DUP2 ADD SWAP1 PUSH2 0x85A SWAP2 SWAP1 PUSH2 0x12D0 JUMP JUMPDEST POP PUSH1 0x1 PUSH1 0x1 PUSH1 0x70 SHL SUB AND SWAP2 POP PUSH1 0x1 PUSH1 0x1 PUSH1 0x70 SHL SUB AND SWAP2 POP DUP3 PUSH1 0x1 PUSH1 0x1 PUSH1 0xA0 SHL SUB AND DUP8 PUSH1 0x1 PUSH1 0x1 PUSH1 0xA0 SHL SUB AND EQ PUSH2 0x891 JUMPI DUP1 DUP3 PUSH2 0x894 JUMP JUMPDEST DUP2 DUP2 JUMPDEST SWAP1 SWAP10 SWAP1 SWAP9 POP SWAP7 POP POP POP POP POP POP POP JUMP JUMPDEST PUSH2 0x8AB PUSH2 0xDCD JUMP JUMPDEST PUSH1 0x1 PUSH1 0x1 PUSH1 0xA0 SHL SUB AND PUSH4 0xA3971047 ADDRESS PUSH1 0x0 DUP1 DUP9 DUP9 DUP9 DUP9 PUSH1 0x40 MLOAD DUP9 PUSH4 0xFFFFFFFF AND PUSH1 0xE0 SHL DUP2 MSTORE PUSH1 0x4 ADD PUSH2 0x8E3 SWAP8 SWAP7 SWAP6 SWAP5 SWAP4 SWAP3 SWAP2 SWAP1 PUSH2 0x135B JUMP JUMPDEST PUSH1 0x0 PUSH1 0x40 MLOAD DUP1 DUP4 SUB DUP2 PUSH1 0x0 DUP8 DUP1 EXTCODESIZE ISZERO DUP1 ISZERO PUSH2 0x8FD JUMPI PUSH1 0x0 DUP1 REVERT JUMPDEST POP GAS CALL ISZERO DUP1 ISZERO PUSH2 0x4AF JUMPI RETURNDATASIZE PUSH1 0x0 DUP1 RETURNDATACOPY RETURNDATASIZE PUSH1 0x0 REVERT JUMPDEST PUSH1 0x40 MLOAD PUSH4 0x70A08231 PUSH1 0xE0 SHL DUP2 MSTORE ADDRESS PUSH1 0x4 DUP3 ADD MSTORE PUSH1 0x0 SWAP1 PUSH1 0x1 PUSH1 0x1 PUSH1 0xA0 SHL SUB DUP7 AND SWAP1 PUSH4 0x70A08231 SWAP1 PUSH1 0x24 ADD PUSH1 0x20 PUSH1 0x40 MLOAD DUP1 DUP4 SUB DUP2 DUP7 GAS STATICCALL ISZERO DUP1 ISZERO PUSH2 0x958 JUMPI RETURNDATASIZE PUSH1 0x0 DUP1 RETURNDATACOPY RETURNDATASIZE PUSH1 0x0 REVERT JUMPDEST POP POP POP POP PUSH1 0x40 MLOAD RETURNDATASIZE PUSH1 0x1F NOT PUSH1 0x1F DUP3 ADD AND DUP3 ADD DUP1 PUSH1 0x40 MSTORE POP DUP2 ADD SWAP1 PUSH2 0x97C SWAP2 SWAP1 PUSH2 0x10DA JUMP JUMPDEST PUSH1 0x40 MLOAD PUSH4 0x70A08231 PUSH1 0xE0 SHL DUP2 MSTORE ADDRESS PUSH1 0x4 DUP3 ADD MSTORE SWAP1 SWAP2 POP PUSH1 0x0 SWAP1 PUSH1 0x1 PUSH1 0x1 PUSH1 0xA0 SHL SUB DUP7 AND SWAP1 PUSH4 0x70A08231 SWAP1 PUSH1 0x24 ADD PUSH1 0x20 PUSH1 0x40 MLOAD DUP1 DUP4 SUB DUP2 DUP7 GAS STATICCALL ISZERO DUP1 ISZERO PUSH2 0x9C6 JUMPI RETURNDATASIZE PUSH1 0x0 DUP1 RETURNDATACOPY RETURNDATASIZE PUSH1 0x0 REVERT JUMPDEST POP POP POP POP PUSH1 0x40 MLOAD RETURNDATASIZE PUSH1 0x1F NOT PUSH1 0x1F DUP3 ADD AND DUP3 ADD DUP1 PUSH1 0x40 MSTORE POP DUP2 ADD SWAP1 PUSH2 0x9EA SWAP2 SWAP1 PUSH2 0x10DA JUMP JUMPDEST SWAP1 POP DUP2 ISZERO PUSH2 0xAF5 JUMPI DUP6 PUSH1 0x1 PUSH1 0x1 PUSH1 0xA0 SHL SUB AND PUSH4 0x95EA7B3 PUSH2 0xA09 PUSH2 0xDCD JUMP JUMPDEST PUSH1 0x40 MLOAD PUSH1 0x1 PUSH1 0x1 PUSH1 0xE0 SHL SUB NOT PUSH1 0xE0 DUP5 SWAP1 SHL AND DUP2 MSTORE PUSH1 0x1 PUSH1 0x1 PUSH1 0xA0 SHL SUB SWAP1 SWAP2 AND PUSH1 0x4 DUP3 ADD MSTORE PUSH1 0x24 DUP2 ADD DUP6 SWAP1 MSTORE PUSH1 0x44 ADD PUSH1 0x20 PUSH1 0x40 MLOAD DUP1 DUP4 SUB DUP2 PUSH1 0x0 DUP8 GAS CALL ISZERO DUP1 ISZERO PUSH2 0xA56 JUMPI RETURNDATASIZE PUSH1 0x0 DUP1 RETURNDATACOPY RETURNDATASIZE PUSH1 0x0 REVERT JUMPDEST POP POP POP POP PUSH1 0x40 MLOAD RETURNDATASIZE PUSH1 0x1F NOT PUSH1 0x1F DUP3 ADD AND DUP3 ADD DUP1 PUSH1 0x40 MSTORE POP DUP2 ADD SWAP1 PUSH2 0xA7A SWAP2 SWAP1 PUSH2 0x10F3 JUMP JUMPDEST POP PUSH2 0xA83 PUSH2 0xDCD JUMP JUMPDEST PUSH1 0x1 PUSH1 0x1 PUSH1 0xA0 SHL SUB AND PUSH4 0xA3971047 ADDRESS DUP5 PUSH2 0xA9B PUSH2 0xDCD JUMP JUMPDEST PUSH1 0x0 DUP1 DUP11 DUP11 PUSH1 0x40 MLOAD DUP9 PUSH4 0xFFFFFFFF AND PUSH1 0xE0 SHL DUP2 MSTORE PUSH1 0x4 ADD PUSH2 0xAC2 SWAP8 SWAP7 SWAP6 SWAP5 SWAP4 SWAP3 SWAP2 SWAP1 PUSH2 0x135B JUMP JUMPDEST PUSH1 0x0 PUSH1 0x40 MLOAD DUP1 DUP4 SUB DUP2 PUSH1 0x0 DUP8 DUP1 EXTCODESIZE ISZERO DUP1 ISZERO PUSH2 0xADC JUMPI PUSH1 0x0 DUP1 REVERT JUMPDEST POP GAS CALL ISZERO DUP1 ISZERO PUSH2 0xAF0 JUMPI RETURNDATASIZE PUSH1 0x0 DUP1 RETURNDATACOPY RETURNDATASIZE PUSH1 0x0 REVERT JUMPDEST POP POP POP POP JUMPDEST DUP1 ISZERO PUSH2 0xBFE JUMPI DUP5 PUSH1 0x1 PUSH1 0x1 PUSH1 0xA0 SHL SUB AND PUSH4 0x95EA7B3 PUSH2 0xB12 PUSH2 0xDCD JUMP JUMPDEST PUSH1 0x40 MLOAD PUSH1 0x1 PUSH1 0x1 PUSH1 0xE0 SHL SUB NOT PUSH1 0xE0 DUP5 SWAP1 SHL AND DUP2 MSTORE PUSH1 0x1 PUSH1 0x1 PUSH1 0xA0 SHL SUB SWAP1 SWAP2 AND PUSH1 0x4 DUP3 ADD MSTORE PUSH1 0x24 DUP2 ADD DUP5 SWAP1 MSTORE PUSH1 0x44 ADD PUSH1 0x20 PUSH1 0x40 MLOAD DUP1 DUP4 SUB DUP2 PUSH1 0x0 DUP8 GAS CALL ISZERO DUP1 ISZERO PUSH2 0xB5F JUMPI RETURNDATASIZE PUSH1 0x0 DUP1 RETURNDATACOPY RETURNDATASIZE PUSH1 0x0 REVERT JUMPDEST POP POP POP POP PUSH1 0x40 MLOAD RETURNDATASIZE PUSH1 0x1F NOT PUSH1 0x1F DUP3 ADD AND DUP3 ADD DUP1 PUSH1 0x40 MSTORE POP DUP2 ADD SWAP1 PUSH2 0xB83 SWAP2 SWAP1 PUSH2 0x10F3 JUMP JUMPDEST POP PUSH2 0xB8C PUSH2 0xDCD JUMP JUMPDEST PUSH1 0x1 PUSH1 0x1 PUSH1 0xA0 SHL SUB AND PUSH4 0xA3971047 ADDRESS DUP4 PUSH2 0xBA4 PUSH2 0xDCD JUMP JUMPDEST PUSH1 0x0 DUP1 DUP11 DUP11 PUSH1 0x40 MLOAD DUP9 PUSH4 0xFFFFFFFF AND PUSH1 0xE0 SHL DUP2 MSTORE PUSH1 0x4 ADD PUSH2 0xBCB SWAP8 SWAP7 SWAP6 SWAP5 SWAP4 SWAP3 SWAP2 SWAP1 PUSH2 0x135B JUMP JUMPDEST PUSH1 0x0 PUSH1 0x40 MLOAD DUP1 DUP4 SUB DUP2 PUSH1 0x0 DUP8 DUP1 EXTCODESIZE ISZERO DUP1 ISZERO PUSH2 0xBE5 JUMPI PUSH1 0x0 DUP1 REVERT JUMPDEST POP GAS CALL ISZERO DUP1 ISZERO PUSH2 0xBF9 JUMPI RETURNDATASIZE PUSH1 0x0 DUP1 RETURNDATACOPY RETURNDATASIZE PUSH1 0x0 REVERT JUMPDEST POP POP POP POP JUMPDEST POP POP POP POP POP POP JUMP JUMPDEST PUSH1 0x0 DUP1 DUP3 PUSH1 0x1 PUSH1 0x1 PUSH1 0xA0 SHL SUB AND DUP5 PUSH1 0x1 PUSH1 0x1 PUSH1 0xA0 SHL SUB AND EQ ISZERO PUSH2 0xC79 JUMPI PUSH1 0x40 MLOAD PUSH3 0x461BCD PUSH1 0xE5 SHL DUP2 MSTORE PUSH1 0x20 PUSH1 0x4 DUP3 ADD MSTORE PUSH1 0x25 PUSH1 0x24 DUP3 ADD MSTORE PUSH32 0x556E697377617056324C6962726172793A204944454E544943414C5F41444452 PUSH1 0x44 DUP3 ADD MSTORE PUSH5 0x4553534553 PUSH1 0xD8 SHL PUSH1 0x64 DUP3 ADD MSTORE PUSH1 0x84 ADD PUSH2 0x26C JUMP JUMPDEST DUP3 PUSH1 0x1 PUSH1 0x1 PUSH1 0xA0 SHL SUB AND DUP5 PUSH1 0x1 PUSH1 0x1 PUSH1 0xA0 SHL SUB AND LT PUSH2 0xC99 JUMPI DUP3 DUP5 PUSH2 0xC9C JUMP JUMPDEST DUP4 DUP4 JUMPDEST SWAP1 SWAP3 POP SWAP1 POP PUSH1 0x1 PUSH1 0x1 PUSH1 0xA0 SHL SUB DUP3 AND PUSH2 0xCF7 JUMPI PUSH1 0x40 MLOAD PUSH3 0x461BCD PUSH1 0xE5 SHL DUP2 MSTORE PUSH1 0x20 PUSH1 0x4 DUP3 ADD MSTORE PUSH1 0x1E PUSH1 0x24 DUP3 ADD MSTORE PUSH32 0x556E697377617056324C6962726172793A205A45524F5F414444524553530000 PUSH1 0x44 DUP3 ADD MSTORE PUSH1 0x64 ADD PUSH2 0x26C JUMP JUMPDEST SWAP3 POP SWAP3 SWAP1 POP JUMP JUMPDEST PUSH1 0x0 DUP1 PUSH1 0x0 PUSH2 0xD0D DUP6 DUP6 PUSH2 0xC06 JUMP JUMPDEST PUSH1 0x40 MLOAD PUSH1 0x1 PUSH1 0x1 PUSH1 0x60 SHL SUB NOT PUSH1 0x60 DUP5 DUP2 SHL DUP3 AND PUSH1 0x20 DUP5 ADD MSTORE DUP4 SWAP1 SHL AND PUSH1 0x34 DUP3 ADD MSTORE SWAP2 SWAP4 POP SWAP2 POP DUP7 SWAP1 PUSH1 0x48 ADD PUSH1 0x40 MLOAD PUSH1 0x20 DUP2 DUP4 SUB SUB DUP2 MSTORE SWAP1 PUSH1 0x40 MSTORE DUP1 MLOAD SWAP1 PUSH1 0x20 ADD KECCAK256 PUSH1 0x40 MLOAD PUSH1 0x20 ADD PUSH2 0xDAB SWAP3 SWAP2 SWAP1 PUSH1 0x1 PUSH1 0x1 PUSH1 0xF8 SHL SUB NOT DUP2 MSTORE PUSH1 0x60 SWAP3 SWAP1 SWAP3 SHL PUSH1 0x1 PUSH1 0x1 PUSH1 0x60 SHL SUB NOT AND PUSH1 0x1 DUP4 ADD MSTORE PUSH1 0x15 DUP3 ADD MSTORE PUSH32 0x96E8AC4277198FF8B6F785478AA9A39F403CB768DD02CBEE326C3E7DA348845F PUSH1 0x35 DUP3 ADD MSTORE PUSH1 0x55 ADD SWAP1 JUMP JUMPDEST PUSH1 0x40 DUP1 MLOAD PUSH1 0x1F NOT DUP2 DUP5 SUB ADD DUP2 MSTORE SWAP2 SWAP1 MSTORE DUP1 MLOAD PUSH1 0x20 SWAP1 SWAP2 ADD KECCAK256 SWAP7 SWAP6 POP POP POP POP POP POP JUMP JUMPDEST PUSH1 0x0 PUSH2 0xDE1 PUSH1 0x49 SLOAD PUSH1 0x1 PUSH1 0x1 PUSH1 0xA0 SHL SUB AND SWAP1 JUMP JUMPDEST PUSH1 0x1 PUSH1 0x1 PUSH1 0xA0 SHL SUB AND PUSH4 0x21F8A721 PUSH1 0x3 PUSH1 0x0 ADD PUSH1 0xB ADD PUSH1 0x40 MLOAD PUSH2 0xE04 SWAP2 SWAP1 PUSH2 0x13BD JUMP JUMPDEST PUSH1 0x40 MLOAD SWAP1 DUP2 SWAP1 SUB DUP2 KECCAK256 PUSH1 0xE0 DUP4 SWAP1 SHL PUSH1 0x1 PUSH1 0x1 PUSH1 0xE0 SHL SUB NOT AND DUP3 MSTORE PUSH1 0x4 DUP3 ADD MSTORE PUSH1 0x24 ADD PUSH1 0x20 PUSH1 0x40 MLOAD DUP1 DUP4 SUB DUP2 DUP7 GAS STATICCALL ISZERO DUP1 ISZERO PUSH2 0xE43 JUMPI RETURNDATASIZE PUSH1 0x0 DUP1 RETURNDATACOPY RETURNDATASIZE PUSH1 0x0 REVERT JUMPDEST POP POP POP POP PUSH1 0x40 MLOAD RETURNDATASIZE PUSH1 0x1F NOT PUSH1 0x1F DUP3 ADD AND DUP3 ADD DUP1 PUSH1 0x40 MSTORE POP DUP2 ADD SWAP1 PUSH2 0xE67 SWAP2 SWAP1 PUSH2 0x115A JUMP JUMPDEST SWAP1 POP SWAP1 JUMP JUMPDEST PUSH1 0x1 PUSH1 0x1 PUSH1 0xA0 SHL SUB DUP2 AND DUP2 EQ PUSH2 0xE81 JUMPI PUSH1 0x0 DUP1 REVERT JUMPDEST POP JUMP JUMPDEST PUSH1 0x0 DUP1 PUSH1 0x0 DUP1 PUSH1 0x0 PUSH1 0xA0 DUP7 DUP9 SUB SLT ISZERO PUSH2 0xE9C JUMPI PUSH1 0x0 DUP1 REVERT JUMPDEST DUP6 CALLDATALOAD PUSH2 0xEA7 DUP2 PUSH2 0xE6C JUMP JUMPDEST SWAP5 POP PUSH1 0x20 DUP7 ADD CALLDATALOAD PUSH2 0xEB7 DUP2 PUSH2 0xE6C JUMP JUMPDEST SWAP4 POP PUSH1 0x40 DUP7 ADD CALLDATALOAD SWAP3 POP PUSH1 0x60 DUP7 ADD CALLDATALOAD PUSH2 0xECE DUP2 PUSH2 0xE6C JUMP JUMPDEST SWAP2 POP PUSH1 0x80 DUP7 ADD CALLDATALOAD PUSH2 0xEDE DUP2 PUSH2 0xE6C JUMP JUMPDEST DUP1 SWAP2 POP POP SWAP3 SWAP6 POP SWAP3 SWAP6 SWAP1 SWAP4 POP JUMP JUMPDEST PUSH4 0x4E487B71 PUSH1 0xE0 SHL PUSH1 0x0 MSTORE PUSH1 0x41 PUSH1 0x4 MSTORE PUSH1 0x24 PUSH1 0x0 REVERT JUMPDEST PUSH1 0x40 MLOAD PUSH1 0x1F DUP3 ADD PUSH1 0x1F NOT AND DUP2 ADD PUSH8 0xFFFFFFFFFFFFFFFF DUP2 GT DUP3 DUP3 LT OR ISZERO PUSH2 0xF2B JUMPI PUSH2 0xF2B PUSH2 0xEEC JUMP JUMPDEST PUSH1 0x40 MSTORE SWAP2 SWAP1 POP JUMP JUMPDEST PUSH1 0x0 PUSH8 0xFFFFFFFFFFFFFFFF DUP3 GT ISZERO PUSH2 0xF4D JUMPI PUSH2 0xF4D PUSH2 0xEEC JUMP JUMPDEST POP PUSH1 0x5 SHL PUSH1 0x20 ADD SWAP1 JUMP JUMPDEST PUSH1 0x0 DUP3 PUSH1 0x1F DUP4 ADD SLT PUSH2 0xF68 JUMPI PUSH1 0x0 DUP1 REVERT JUMPDEST DUP2 CALLDATALOAD PUSH1 0x20 PUSH2 0xF7D PUSH2 0xF78 DUP4 PUSH2 0xF33 JUMP JUMPDEST PUSH2 0xF02 JUMP JUMPDEST DUP3 DUP2 MSTORE PUSH1 0x5 SWAP3 SWAP1 SWAP3 SHL DUP5 ADD DUP2 ADD SWAP2 DUP2 DUP2 ADD SWAP1 DUP7 DUP5 GT ISZERO PUSH2 0xF9C JUMPI PUSH1 0x0 DUP1 REVERT JUMPDEST DUP3 DUP7 ADD JUMPDEST DUP5 DUP2 LT ISZERO PUSH2 0xFB7 JUMPI DUP1 CALLDATALOAD DUP4 MSTORE SWAP2 DUP4 ADD SWAP2 DUP4 ADD PUSH2 0xFA0 JUMP JUMPDEST POP SWAP7 SWAP6 POP POP POP POP POP POP JUMP JUMPDEST PUSH1 0x0 DUP1 PUSH1 0x0 DUP1 PUSH1 0x0 DUP1 PUSH1 0x0 PUSH1 0xE0 DUP9 DUP11 SUB SLT ISZERO PUSH2 0xFDD JUMPI PUSH1 0x0 DUP1 REVERT JUMPDEST DUP8 CALLDATALOAD PUSH2 0xFE8 DUP2 PUSH2 0xE6C JUMP JUMPDEST SWAP7 POP PUSH1 0x20 DUP9 DUP2 ADD CALLDATALOAD SWAP7 POP PUSH1 0x40 DUP10 ADD CALLDATALOAD SWAP6 POP PUSH1 0x60 DUP10 ADD CALLDATALOAD PUSH8 0xFFFFFFFFFFFFFFFF DUP1 DUP3 GT ISZERO PUSH2 0x1014 JUMPI PUSH1 0x0 DUP1 REVERT JUMPDEST DUP2 DUP12 ADD SWAP2 POP DUP12 PUSH1 0x1F DUP4 ADD SLT PUSH2 0x1028 JUMPI PUSH1 0x0 DUP1 REVERT JUMPDEST DUP2 CALLDATALOAD PUSH2 0x1036 PUSH2 0xF78 DUP3 PUSH2 0xF33 JUMP JUMPDEST DUP2 DUP2 MSTORE PUSH1 0x5 SWAP2 SWAP1 SWAP2 SHL DUP4 ADD DUP5 ADD SWAP1 DUP5 DUP2 ADD SWAP1 DUP15 DUP4 GT ISZERO PUSH2 0x1055 JUMPI PUSH1 0x0 DUP1 REVERT JUMPDEST SWAP4 DUP6 ADD SWAP4 JUMPDEST DUP3 DUP6 LT ISZERO PUSH2 0x107C JUMPI DUP5 CALLDATALOAD PUSH2 0x106D DUP2 PUSH2 0xE6C JUMP JUMPDEST DUP3 MSTORE SWAP4 DUP6 ADD SWAP4 SWAP1 DUP6 ADD SWAP1 PUSH2 0x105A JUMP JUMPDEST SWAP9 POP POP POP PUSH1 0x80 DUP12 ADD CALLDATALOAD SWAP6 POP PUSH1 0xA0 DUP12 ADD CALLDATALOAD SWAP3 POP DUP1 DUP4 GT ISZERO PUSH2 0x109B JUMPI PUSH1 0x0 DUP1 REVERT JUMPDEST PUSH2 0x10A7 DUP13 DUP5 DUP14 ADD PUSH2 0xF57 JUMP JUMPDEST SWAP5 POP PUSH1 0xC0 DUP12 ADD CALLDATALOAD SWAP3 POP DUP1 DUP4 GT ISZERO PUSH2 0x10BD JUMPI PUSH1 0x0 DUP1 REVERT JUMPDEST POP POP PUSH2 0x10CB DUP11 DUP3 DUP12 ADD PUSH2 0xF57 JUMP JUMPDEST SWAP2 POP POP SWAP3 SWAP6 SWAP9 SWAP2 SWAP5 SWAP8 POP SWAP3 SWAP6 POP JUMP JUMPDEST PUSH1 0x0 PUSH1 0x20 DUP3 DUP5 SUB SLT ISZERO PUSH2 0x10EC JUMPI PUSH1 0x0 DUP1 REVERT JUMPDEST POP MLOAD SWAP2 SWAP1 POP JUMP JUMPDEST PUSH1 0x0 PUSH1 0x20 DUP3 DUP5 SUB SLT ISZERO PUSH2 0x1105 JUMPI PUSH1 0x0 DUP1 REVERT JUMPDEST DUP2 MLOAD DUP1 ISZERO ISZERO DUP2 EQ PUSH2 0x1115 JUMPI PUSH1 0x0 DUP1 REVERT JUMPDEST SWAP4 SWAP3 POP POP POP JUMP JUMPDEST PUSH32 0x7068616E746F6D2E636F6E74726163742E726567697374657265640000000000 DUP2 MSTORE PUSH1 0x60 SWAP2 SWAP1 SWAP2 SHL PUSH1 0x1 PUSH1 0x1 PUSH1 0x60 SHL SUB NOT AND PUSH1 0x1B DUP3 ADD MSTORE PUSH1 0x2F ADD SWAP1 JUMP JUMPDEST PUSH1 0x0 PUSH1 0x20 DUP3 DUP5 SUB SLT ISZERO PUSH2 0x116C JUMPI PUSH1 0x0 DUP1 REVERT JUMPDEST DUP2 MLOAD PUSH2 0x1115 DUP2 PUSH2 0xE6C JUMP JUMPDEST PUSH4 0x4E487B71 PUSH1 0xE0 SHL PUSH1 0x0 MSTORE PUSH1 0x32 PUSH1 0x4 MSTORE PUSH1 0x24 PUSH1 0x0 REVERT JUMPDEST PUSH1 0x0 PUSH1 0xA0 DUP3 ADD DUP8 DUP4 MSTORE PUSH1 0x20 DUP8 DUP2 DUP6 ADD MSTORE PUSH1 0xA0 PUSH1 0x40 DUP6 ADD MSTORE DUP2 DUP8 MLOAD DUP1 DUP5 MSTORE PUSH1 0xC0 DUP7 ADD SWAP2 POP DUP3 DUP10 ADD SWAP4 POP PUSH1 0x0 JUMPDEST DUP2 DUP2 LT ISZERO PUSH2 0x11DD JUMPI DUP5 MLOAD PUSH1 0x1 PUSH1 0x1 PUSH1 0xA0 SHL SUB AND DUP4 MSTORE SWAP4 DUP4 ADD SWAP4 SWAP2 DUP4 ADD SWAP2 PUSH1 0x1 ADD PUSH2 0x11B8 JUMP JUMPDEST POP POP PUSH1 0x1 PUSH1 0x1 PUSH1 0xA0 SHL SUB SWAP7 SWAP1 SWAP7 AND PUSH1 0x60 DUP6 ADD MSTORE POP POP POP PUSH1 0x80 ADD MSTORE SWAP4 SWAP3 POP POP POP JUMP JUMPDEST PUSH1 0x0 PUSH1 0x20 DUP1 DUP4 DUP6 SUB SLT ISZERO PUSH2 0x1211 JUMPI PUSH1 0x0 DUP1 REVERT JUMPDEST DUP3 MLOAD PUSH8 0xFFFFFFFFFFFFFFFF DUP2 GT ISZERO PUSH2 0x1228 JUMPI PUSH1 0x0 DUP1 REVERT JUMPDEST DUP4 ADD PUSH1 0x1F DUP2 ADD DUP6 SGT PUSH2 0x1239 JUMPI PUSH1 0x0 DUP1 REVERT JUMPDEST DUP1 MLOAD PUSH2 0x1247 PUSH2 0xF78 DUP3 PUSH2 0xF33 JUMP JUMPDEST DUP2 DUP2 MSTORE PUSH1 0x5 SWAP2 SWAP1 SWAP2 SHL DUP3 ADD DUP4 ADD SWAP1 DUP4 DUP2 ADD SWAP1 DUP8 DUP4 GT ISZERO PUSH2 0x1266 JUMPI PUSH1 0x0 DUP1 REVERT JUMPDEST SWAP3 DUP5 ADD SWAP3 JUMPDEST DUP3 DUP5 LT ISZERO PUSH2 0x1284 JUMPI DUP4 MLOAD DUP3 MSTORE SWAP3 DUP5 ADD SWAP3 SWAP1 DUP5 ADD SWAP1 PUSH2 0x126B JUMP JUMPDEST SWAP8 SWAP7 POP POP POP POP POP POP POP JUMP JUMPDEST PUSH1 0x0 DUP3 DUP3 LT ISZERO PUSH2 0x12AF JUMPI PUSH4 0x4E487B71 PUSH1 0xE0 SHL PUSH1 0x0 MSTORE PUSH1 0x11 PUSH1 0x4 MSTORE PUSH1 0x24 PUSH1 0x0 REVERT JUMPDEST POP SUB SWAP1 JUMP JUMPDEST DUP1 MLOAD PUSH1 0x1 PUSH1 0x1 PUSH1 0x70 SHL SUB DUP2 AND DUP2 EQ PUSH2 0x12CB JUMPI PUSH1 0x0 DUP1 REVERT JUMPDEST SWAP2 SWAP1 POP JUMP JUMPDEST PUSH1 0x0 DUP1 PUSH1 0x0 PUSH1 0x60 DUP5 DUP7 SUB SLT ISZERO PUSH2 0x12E5 JUMPI PUSH1 0x0 DUP1 REVERT JUMPDEST PUSH2 0x12EE DUP5 PUSH2 0x12B4 JUMP JUMPDEST SWAP3 POP PUSH2 0x12FC PUSH1 0x20 DUP6 ADD PUSH2 0x12B4 JUMP JUMPDEST SWAP2 POP PUSH1 0x40 DUP5 ADD MLOAD PUSH4 0xFFFFFFFF DUP2 AND DUP2 EQ PUSH2 0x1315 JUMPI PUSH1 0x0 DUP1 REVERT JUMPDEST DUP1 SWAP2 POP POP SWAP3 POP SWAP3 POP SWAP3 JUMP JUMPDEST PUSH1 0x0 DUP2 MLOAD DUP1 DUP5 MSTORE PUSH1 0x20 DUP1 DUP6 ADD SWAP5 POP DUP1 DUP5 ADD PUSH1 0x0 JUMPDEST DUP4 DUP2 LT ISZERO PUSH2 0x1350 JUMPI DUP2 MLOAD DUP8 MSTORE SWAP6 DUP3 ADD SWAP6 SWAP1 DUP3 ADD SWAP1 PUSH1 0x1 ADD PUSH2 0x1334 JUMP JUMPDEST POP SWAP5 SWAP6 SWAP5 POP POP POP POP POP JUMP JUMPDEST PUSH1 0x1 PUSH1 0x1 PUSH1 0xA0 SHL SUB DUP9 DUP2 AND DUP3 MSTORE PUSH1 0x20 DUP3 ADD DUP9 SWAP1 MSTORE DUP7 DUP2 AND PUSH1 0x40 DUP4 ADD MSTORE PUSH1 0x60 DUP3 ADD DUP7 SWAP1 MSTORE DUP5 AND PUSH1 0x80 DUP3 ADD MSTORE PUSH1 0xE0 PUSH1 0xA0 DUP3 ADD DUP2 SWAP1 MSTORE PUSH1 0x0 SWAP1 PUSH2 0x139D SWAP1 DUP4 ADD DUP6 PUSH2 0x1320 JUMP JUMPDEST DUP3 DUP2 SUB PUSH1 0xC0 DUP5 ADD MSTORE PUSH2 0x13AF DUP2 DUP6 PUSH2 0x1320 JUMP JUMPDEST SWAP11 SWAP10 POP POP POP POP POP POP POP POP POP POP JUMP JUMPDEST PUSH1 0x0 DUP1 DUP4 SLOAD DUP2 PUSH1 0x1 DUP3 DUP2 SHR SWAP2 POP DUP1 DUP4 AND DUP1 PUSH2 0x13D9 JUMPI PUSH1 0x7F DUP4 AND SWAP3 POP JUMPDEST PUSH1 0x20 DUP1 DUP5 LT DUP3 EQ ISZERO PUSH2 0x13F9 JUMPI PUSH4 0x4E487B71 PUSH1 0xE0 SHL DUP7 MSTORE PUSH1 0x22 PUSH1 0x4 MSTORE PUSH1 0x24 DUP7 REVERT JUMPDEST DUP2 DUP1 ISZERO PUSH2 0x140D JUMPI PUSH1 0x1 DUP2 EQ PUSH2 0x141E JUMPI PUSH2 0x144B JUMP JUMPDEST PUSH1 0xFF NOT DUP7 AND DUP10 MSTORE DUP5 DUP10 ADD SWAP7 POP PUSH2 0x144B JUMP JUMPDEST PUSH1 0x0 DUP11 DUP2 MSTORE PUSH1 0x20 SWAP1 KECCAK256 PUSH1 0x0 JUMPDEST DUP7 DUP2 LT ISZERO PUSH2 0x1443 JUMPI DUP2 SLOAD DUP12 DUP3 ADD MSTORE SWAP1 DUP6 ADD SWAP1 DUP4 ADD PUSH2 0x142A JUMP JUMPDEST POP POP DUP5 DUP10 ADD SWAP7 POP JUMPDEST POP SWAP5 SWAP9 SWAP8 POP POP POP POP POP POP POP POP JUMP INVALID LOG2 PUSH5 0x6970667358 0x22 SLT KECCAK256 0xD5 0xAB 0xE 0xD8 0xD7 ORIGIN CREATE2 CREATE 0xDD 0xBB SMOD SELFBALANCE 0xBB PUSH18 0x903DA89646312BE01264DCB08D8530EF6A0E PUSH5 0x736F6C6343 STOP ADDMOD EXP STOP CALLER ",
  "sha1": "15f98fa515e78d773c1b6c09c87929b65048c2f8",
  "source": "/* SPDX-License-Identifier: MIT */\npragma solidity =0.8.10;\n\n/* Package Imports */\nimport {PRBMathUD60x18} from \"@hifi-finance/prb-math/contracts/PRBMathUD60x18.sol\";\n\n/* Package Interface Imports */\nimport {IERC20} from \"@openzeppelin/contracts/token/ERC20/IERC20.sol\";\nimport {IUniswapV2Pair} from \"@uniswap/v2-core/contracts/interfaces/IUniswapV2Pair.sol\";\nimport {IUniswapV2Factory} from \"@uniswap/v2-core/contracts/interfaces/IUniswapV2Factory.sol\";\nimport {IUniswapV2Router02} from \"../../../../interfaces/libs/IUniswapV2Router02.sol\";\n\n/* Internal Imports */\nimport {PhantomStorageMixin} from \"../../../mixins/PhantomStorageMixin.sol\";\n\n/* Internal Interface Imports */\nimport {IPhantomDexRouter} from \"../../../../interfaces/level0/finance/routers/IPhantomDexRouter.sol\";\n\n/**\n * @title PhantomDexRouter\n * @author PhantomDao Team\n * @notice Communicate with a UniSwap dex\n */\ncontract PhantomDexRouter is PhantomStorageMixin, IPhantomDexRouter {\n    using PRBMathUD60x18 for uint256;\n\n    constructor(address storageFactoryAddress) PhantomStorageMixin(storageFactoryAddress) {\n        return;\n    }\n\n    //=================================================================================================================\n    // External Functions\n    //=================================================================================================================\n\n    function getQuote(\n        address dexRouter,\n        address dexFactory,\n        uint256 inAmount,\n        address inToken,\n        address outToken\n    ) external view virtual override returns (uint256) {\n        (uint256 inReserves, uint256 outReserves) = getReserves(dexFactory, inToken, outToken);\n        uint256 quote = IUniswapV2Router02(dexRouter).quote(inAmount, inReserves, outReserves);\n        return (quote);\n    }\n\n    function swapReceiveMinimum(\n        address dexRouter,\n        uint256 inAmount,\n        uint256 minOutAmount,\n        address[] memory path,\n        uint256 deadline,\n        bytes32[] memory keys,\n        uint256[] memory percentages\n    ) external virtual override onlyRegisteredContracts {\n        preSwap(inAmount, path[0], keys, percentages);\n        IUniswapV2Router02(dexRouter).swapExactTokensForTokens(\n            inAmount, \n            minOutAmount, \n            path,\n            address(this), \n            deadline\n        );\n        postSwap(path[0], path[path.length - 1], keys, percentages);\n    }\n\n    function swapSpendMaximum(\n        address dexRouter,\n        uint256 outAmount,\n        uint256 maxInAmount,\n        address[] memory path,\n        uint256 deadline,\n        bytes32[] memory keys,\n        uint256[] memory percentages\n    ) external virtual override onlyRegisteredContracts {\n        preSwap(maxInAmount, path[0], keys, percentages);\n        IUniswapV2Router02(dexRouter).swapExactTokensForTokensSupportingFeeOnTransferTokens(\n            outAmount,\n            maxInAmount,\n            path,\n            address(this),\n            deadline\n        );\n        postSwap(path[0], path[path.length - 1], keys, percentages);\n    }\n\n    //=================================================================================================================\n    // Internal Functions\n    //=================================================================================================================\n\n    function preSwap(\n        uint256 requiredFunds,\n        address requiredToken,\n        bytes32[] memory keys,\n        uint256[] memory percentages\n    ) internal {\n        PhantomTreasury().swap(address(this), 0, address(0), requiredFunds, requiredToken, keys, percentages);\n    }\n\n    function postSwap(\n        address sentToken,\n        address receivedToken,\n        bytes32[] memory keys,\n        uint256[] memory percentages\n    ) internal {\n        uint256 sentBalance = IERC20(sentToken).balanceOf(address(this));\n        uint256 receivedBalance = IERC20(receivedToken).balanceOf(address(this));\n\n        if (sentBalance != 0) {\n            IERC20(sentToken).approve(address(PhantomTreasury()), sentBalance);\n            PhantomTreasury().swap(\n                address(this),\n                sentBalance,\n                address(PhantomTreasury()),\n                0,\n                address(0),\n                keys,\n                percentages\n            );\n        }\n\n        if (receivedBalance != 0) {\n            IERC20(receivedToken).approve(address(PhantomTreasury()), receivedBalance);\n            PhantomTreasury().swap(\n                address(this),\n                receivedBalance,\n                address(PhantomTreasury()),\n                0,\n                address(0),\n                keys,\n                percentages\n            );\n        }\n    }\n\n    //=================================================================================================================\n    // UniswapV2 Library\n    //=================================================================================================================\n\n    function getReserves(\n        address factory,\n        address tokenA,\n        address tokenB\n    ) internal view returns (uint256 reserveA, uint256 reserveB) {\n        (address token0, ) = sortTokens(tokenA, tokenB);\n        (uint256 reserve0, uint256 reserve1, ) = IUniswapV2Pair(pairFor(factory, tokenA, tokenB)).getReserves();\n        (reserveA, reserveB) = tokenA == token0 ? (reserve0, reserve1) : (reserve1, reserve0);\n    }\n\n    function sortTokens(address tokenA, address tokenB) internal pure returns (address token0, address token1) {\n        require(tokenA != tokenB, \"UniswapV2Library: IDENTICAL_ADDRESSES\");\n        (token0, token1) = tokenA < tokenB ? (tokenA, tokenB) : (tokenB, tokenA);\n        require(token0 != address(0), \"UniswapV2Library: ZERO_ADDRESS\");\n    }\n\n    function pairFor(\n        address factory,\n        address tokenA,\n        address tokenB\n    ) internal pure returns (address pair) {\n        (address token0, address token1) = sortTokens(tokenA, tokenB);\n        pair = address(\n            uint160(\n                uint256(\n                    keccak256(\n                        abi.encodePacked(\n                            hex\"ff\",\n                            factory,\n                            keccak256(abi.encodePacked(token0, token1)),\n                            hex\"96e8ac4277198ff8b6f785478aa9a39f403cb768dd02cbee326c3e7da348845f\" // init code hash\n                        )\n                    )\n                )\n            )\n        );\n    }\n}\n",
  "sourcePath": "contracts/level0/finance/routers/PhantomDexRouter.sol",
  "type": "contract"
}