{
  "abi": [
    {
      "inputs": [
        {
          "internalType": "address",
          "name": "storageFactoryAddress",
          "type": "address"
        }
      ],
      "stateMutability": "nonpayable",
      "type": "constructor"
    },
    {
      "inputs": [
        {
          "internalType": "address",
          "name": "contractAddress",
          "type": "address"
        }
      ],
      "name": "PhantomStorageMixin__ContractNotFoundByAddressOrIsOutdated",
      "type": "error"
    },
    {
      "inputs": [
        {
          "internalType": "bytes32",
          "name": "contractName",
          "type": "bytes32"
        }
      ],
      "name": "PhantomStorageMixin__ContractNotFoundByNameOrIsOutdated",
      "type": "error"
    },
    {
      "inputs": [
        {
          "internalType": "address",
          "name": "user",
          "type": "address"
        }
      ],
      "name": "PhantomStorageMixin__UserIsNotGuardian",
      "type": "error"
    },
    {
      "inputs": [
        {
          "internalType": "address",
          "name": "dexRouter",
          "type": "address"
        },
        {
          "internalType": "address",
          "name": "dexFactory",
          "type": "address"
        },
        {
          "internalType": "uint256",
          "name": "inAmount",
          "type": "uint256"
        },
        {
          "internalType": "address",
          "name": "inToken",
          "type": "address"
        },
        {
          "internalType": "address",
          "name": "outToken",
          "type": "address"
        }
      ],
      "name": "getQuote",
      "outputs": [
        {
          "internalType": "uint256",
          "name": "",
          "type": "uint256"
        }
      ],
      "stateMutability": "view",
      "type": "function"
    },
    {
      "inputs": [
        {
          "internalType": "address",
          "name": "dexRouter",
          "type": "address"
        },
        {
          "internalType": "uint256",
          "name": "inAmount",
          "type": "uint256"
        },
        {
          "internalType": "uint256",
          "name": "minOutAmount",
          "type": "uint256"
        },
        {
          "internalType": "address[]",
          "name": "path",
          "type": "address[]"
        },
        {
          "internalType": "address",
          "name": "toUser",
          "type": "address"
        },
        {
          "internalType": "uint256",
          "name": "deadline",
          "type": "uint256"
        },
        {
          "internalType": "bytes32[]",
          "name": "keys",
          "type": "bytes32[]"
        },
        {
          "internalType": "uint256[]",
          "name": "percentages",
          "type": "uint256[]"
        }
      ],
      "name": "swapReceiveMinimum",
      "outputs": [],
      "stateMutability": "nonpayable",
      "type": "function"
    },
    {
      "inputs": [
        {
          "internalType": "address",
          "name": "dexRouter",
          "type": "address"
        },
        {
          "internalType": "uint256",
          "name": "outAmount",
          "type": "uint256"
        },
        {
          "internalType": "uint256",
          "name": "maxInAmount",
          "type": "uint256"
        },
        {
          "internalType": "address[]",
          "name": "path",
          "type": "address[]"
        },
        {
          "internalType": "address",
          "name": "toUser",
          "type": "address"
        },
        {
          "internalType": "uint256",
          "name": "deadline",
          "type": "uint256"
        },
        {
          "internalType": "bytes32[]",
          "name": "keys",
          "type": "bytes32[]"
        },
        {
          "internalType": "uint256[]",
          "name": "percentages",
          "type": "uint256[]"
        }
      ],
      "name": "swapSpendMaximum",
      "outputs": [],
      "stateMutability": "nonpayable",
      "type": "function"
    }
  ],
  "bytecode": "601260e08181527139b2b1bab934ba3c9730b2323932b9b9b7b360711b6101009081526080918252600d6101209081526c73656375726974792e6e616d6560981b6101405260a0526101a060405260136101609081527f73656375726974792e72656769737465726564000000000000000000000000006101805260c0529091600091620000909183919062001332565b506020828101518051620000ab926001850192019062001332565b5060408201518051620000c991600284019160209091019062001332565b50506040805161032081018252601b6102e082019081527f7068616e746f6d2e636f6e7472616374732e616c706861737761700000000000610300830152610100820190815282518084018452601a8082527f7068616e746f6d2e636f6e7472616374732e666f756e646572730000000000006020838101919091526101208501929092528451808601865260198082527f7068616e746f6d2e636f6e7472616374732e7374616b696e67000000000000008285015261014086019190915285518087018752601f81527f7068616e746f6d2e636f6e7472616374732e7374616b696e677761726d75700081850152610160860152855180870187529081527f7068616e746f6d2e636f6e7472616374732e626f6e64696e67000000000000008184015261018085015284518086018652601581527f7068616e746f6d2e636f6e7472616374732e70686d0000000000000000000000818401526101a08501528451808601865260168082527f7068616e746f6d2e636f6e7472616374732e7370686d00000000000000000000828501526101c0860191909152855180870187528181527f7068616e746f6d2e636f6e7472616374732e6770686d00000000000000000000818501526101e0860152855180870187528181527f7068616e746f6d2e636f6e7472616374732e6170686d0000000000000000000081850152610200860152855180870187529081527f7068616e746f6d2e636f6e7472616374732e6670686d000000000000000000008184015261022085015284518086018652601781527f7068616e746f6d2e636f6e7472616374732e7661756c7400000000000000000081840152610240850152845180860186528181527f7068616e746f6d2e636f6e7472616374732e74726561737572790000000000008184015261026085015284518086018652601c81527f7068616e746f6d2e636f6e7472616374732e6465785f726f75746572000000008184015261028085015284518086018652601e81527f7068616e746f6d2e636f6e7472616374732e796561726e5f726f757465720000818401526102a0850152845180860186529081527f7068616e746f6d2e636f6e7472616374732e6578656375746f72000000000000818301526102c0840152908252825160c08101909352602a606084018181529294509084019291829162002a1a6080840139815260200160405180606001604052806040518060600160405280602b81526020016200299f602b913981526020016040518060400160405280602081526020017f7068616e746f6d2e74726561737572792e6163636f756e745f6b65792e64616f815250815260200160405180606001604052806025815260200162002b086025913990528152604080518082018252601981527f7068616e746f6d2e74726561737572792e62616c616e636573000000000000006020828101919091529283015291835281516101c0810190925260246101608301818152938201938392830191829160c085019182919062002935610180880139815260200160405180606001604052806025815260200162002b7760259139815260200160405180606001604052806024815260200162002b2d6024913981526020016040518060600160405280602b8152602001620029ca602b9139815260200160405180606001604052806024815260200162002b9c60249139815250815260200160405180606001604052806025815260200162002a9460259139815260200160405180606001604052806029815260200162002adf6029913981526020016040518060400160405280601b81526020017f7068616e746f6d2e616c6c6f6361746f722e746f6b656e732e6c70000000000081525081526020016040518060400160405280601f81526020017f7068616e746f6d2e616c6c6f6361746f722e746f6b656e732e73696e676c6500815250815250815250815260200160405180610100016040528060405180604001604052806040518060400160405280601a81526020017f7068616e746f6d2e626f6e64696e672e757365722e6e6f6e636500000000000081525081526020016040518060600160405280602b815260200162002a44602b913981525081526020016040518060400160405280601d81526020017f7068616e746f6d2e626f6e64696e672e76657374696e67626c6f636b7300000081525081526020016040518060400160405280601c81526020017f7068616e746f6d2e626f6e64696e672e70726f6669745f726174696f0000000081525081526020016040518060400160405280601881526020017f7068616e746f6d2e626f6e64696e672e646973636f756e74000000000000000081525081526020016040518060400160405280601b81526020017f7068616e746f6d2e626f6e64696e672e69735f72656465656d6564000000000081525081526020016040518060400160405280601681526020017f7068616e746f6d2e626f6e64696e672e7061796f75740000000000000000000081525081526020016040518060400160405280601e81526020017f7068616e746f6d2e626f6e64696e672e76657374735f61745f626c6f636b000081525081526020016040518060400160405280601881526020017f7068616e746f6d2e626f6e64696e672e69735f76616c69640000000000000000815250815250815260200160405180604001604052806040518060400160405280601d81526020017f7068616e746f6d2e7374616b696e672e726562617365436f756e746572000000815250815260200160405180606001604052806022815260200162002c6b6022913990528152604080516101408101909152602160e0820181815260209093019282916060830191829162002be461010086013981526020016040518060600160405280602481526020016200297b6024913981526020016040518060600160405280602681526020016200290f60269139815260408051808201825260208082527f7068616e746f6d2e666f756e6465722e636c61696d732e6c617374436c61696d828201529283015291835281516060810183528082018281527f7068616e746f6d2e666f756e6465722e6368616e6765732e6e65774f776e65728285015281528382015281518083018352601d81527f7068616e746f6d2e666f756e6465722e76657374696e67537461727473000000818301529282019290925291835281516101608101909252602261010083018181529390910192829162002959610120840139815260200160405180606001604052806023815260200162002c0560239139815260200160405180606001604052806025815260200162002a6f60259139815260200160405180606001604052806026815260200162002ab9602691398152602001604051806060016040528060258152602001620029f560259139815260200160405180606001604052806026815260200162002b5160269139815260200160405180606001604052806024815260200162002bc06024913981526020016040518060600160405280602a815260200162002c8d602a9139815250815260200160405180608001604052806040518060400160405280601c81526020017f7068616e746f6d2e676f7665726e6f722e766f74696e6744656c61790000000081525081526020016040518060400160405280601d81526020017f7068616e746f6d2e676f7665726e6f722e766f74696e67506572696f64000000815250815260200160405180606001604052806021815260200162002c2860219139815260200160405180606001604052806022815260200162002c49602291399052905280518051805160039291839162000be191839160209091019062001332565b50602082810151805162000bfc926001850192019062001332565b506040820151805162000c1a91600284019160209091019062001332565b506060820151805162000c3891600384019160209091019062001332565b506080820151805162000c5691600484019160209091019062001332565b5060a0820151805162000c7491600584019160209091019062001332565b5060c0820151805162000c9291600684019160209091019062001332565b5060e0820151805162000cb091600784019160209091019062001332565b50610100820151805162000ccf91600884019160209091019062001332565b50610120820151805162000cee91600984019160209091019062001332565b50610140820151805162000d0d91600a84019160209091019062001332565b50610160820151805162000d2c91600b84019160209091019062001332565b50610180820151805162000d4b91600c84019160209091019062001332565b506101a0820151805162000d6a91600d84019160209091019062001332565b506101c0820151805162000d8991600e84019160209091019062001332565b505050602082810151805180519192600f85019262000dac928492019062001332565b50602082810151805180519192600185019262000dcd928492019062001332565b50602082810151805162000de8926001850192019062001332565b506040820151805162000e0691600284019160209091019062001332565b5050506040820151805162000e2691600484019160209091019062001332565b5050506040820151805180518051805160148601939284929091839162000e539183916020019062001332565b50602082810151805162000e6e926001850192019062001332565b506040820151805162000e8c91600284019160209091019062001332565b506060820151805162000eaa91600384019160209091019062001332565b506080820151805162000ec891600484019160209091019062001332565b505050602082810151805162000ee5926005850192019062001332565b506040820151805162000f0391600684019160209091019062001332565b506060820151805162000f2191600784019160209091019062001332565b506080820151805162000f3f91600884019160209091019062001332565b505050506060830151805180518051929350601d850192839162000f699183916020019062001332565b50602082810151805162000f84926001850192019062001332565b505050602082810151805162000fa1926002850192019062001332565b506040820151805162000fbf91600384019160209091019062001332565b506060820151805162000fdd91600484019160209091019062001332565b506080820151805162000ffb91600584019160209091019062001332565b5060a082015180516200101991600684019160209091019062001332565b5060c082015180516200103791600784019160209091019062001332565b5060e082015180516200105591600884019160209091019062001332565b5050506080820151805180516026840191620010779183916020019062001332565b50602082810151805162001092926001850192019062001332565b50505060a08201518051805180516028850192918391620010bb91839160209091019062001332565b506020828101518051620010d6926001850192019062001332565b5060408201518051620010f491600284019160209091019062001332565b50606082015180516200111291600384019160209091019062001332565b505050602082810151805180519192600485019262001135928492019062001332565b505050604082015180516200115591600584019160209091019062001332565b50505060c082015180518051602e840191620011779183916020019062001332565b50602082810151805162001192926001850192019062001332565b5060408201518051620011b091600284019160209091019062001332565b5060608201518051620011ce91600384019160209091019062001332565b5060808201518051620011ec91600484019160209091019062001332565b5060a082015180516200120a91600584019160209091019062001332565b5060c082015180516200122891600684019160209091019062001332565b5060e082015180516200124691600784019160209091019062001332565b50505060e0820151805180516036840191620012689183916020019062001332565b50602082810151805162001283926001850192019062001332565b5060408201518051620012a191600284019160209091019062001332565b5060608201518051620012bf91600384019160209091019062001332565b50505050506d7068616e746f6d53746f7261676560901b603f55348015620012e657600080fd5b5060405162002cb738038062002cb78339810160408190526200130991620013d8565b6001603d55603e80546001600160a01b0383166001600160a01b03199091161790555062001447565b82805462001340906200140a565b90600052602060002090601f016020900481019282620013645760008555620013af565b82601f106200137f57805160ff1916838001178555620013af565b82800160010185558215620013af579182015b82811115620013af57825182559160200191906001019062001392565b50620013bd929150620013c1565b5090565b5b80821115620013bd5760008155600101620013c2565b600060208284031215620013eb57600080fd5b81516001600160a01b03811681146200140357600080fd5b9392505050565b600181811c908216806200141f57607f821691505b602082108114156200144157634e487b7160e01b600052602260045260246000fd5b50919050565b6114b880620014576000396000f3fe608060405234801561001057600080fd5b50600436106100415760003560e01c806304ebb34c146100465780632a0bbedf1461005b5780638a4c867c14610080575b600080fd5b610059610054366004610fd9565b610093565b005b61006e6100693660046110a0565b61041e565b60405190815260200160405180910390f35b61005961008e366004610fd9565b6104ba565b60006100a7603e546001600160a01b031690565b6001600160a01b0316631bed52416040518163ffffffff1660e01b8152600401602060405180830381865afa1580156100e4573d6000803e3d6000fd5b505050506040513d601f19601f820116820180604052508101906101089190611108565b9050600181151514156101de57603e546001600160a01b03166001600160a01b0316637ae1cfca336040516020016101409190611131565b604051602081830303815290604052805190602001206040518263ffffffff1660e01b815260040161017491815260200190565b602060405180830381865afa158015610191573d6000803e3d6000fd5b505050506040513d601f19601f820116820180604052508101906101b59190611108565b6101d95760405163372463e360e01b81523360048201526024015b60405180910390fd5b610325565b603e546001600160a01b03166001600160a01b0316637ae1cfca336040516020016102099190611131565b604051602081830303815290604052805190602001206040518263ffffffff1660e01b815260040161023d91815260200190565b602060405180830381865afa15801561025a573d6000803e3d6000fd5b505050506040513d601f19601f8201168201806040525081019061027e9190611108565b806103065750603e546001600160a01b03166001600160a01b031663a75b87d26040518163ffffffff1660e01b8152600401602060405180830381865afa1580156102cd573d6000803e3d6000fd5b505050506040513d601f19601f820116820180604052508101906102f1919061116f565b6001600160a01b0316326001600160a01b0316145b6103255760405163372463e360e01b81523360048201526024016101d0565b61034b888760008151811061033c5761033c61118c565b602002602001015185856107da565b6040516338ed173960e01b81526001600160a01b038a16906338ed17399061037f908b908b908b908b908b906004016111a2565b6000604051808303816000875af115801561039e573d6000803e3d6000fd5b505050506040513d6000823e601f3d908101601f191682016040526103c69190810190611213565b50610413866000815181106103dd576103dd61118c565b602002602001015187600189516103f491906112a4565b815181106104045761040461118c565b60200260200101518585610852565b505050505050505050565b600080600061042e878686610b47565b604051632b58577b60e21b815260048101899052602481018390526044810182905291935091506000906001600160a01b038a169063ad615dec90606401602060405180830381865afa158015610489573d6000803e3d6000fd5b505050506040513d601f19601f820116820180604052508101906104ad91906112c9565b9998505050505050505050565b60006104ce603e546001600160a01b031690565b6001600160a01b0316631bed52416040518163ffffffff1660e01b8152600401602060405180830381865afa15801561050b573d6000803e3d6000fd5b505050506040513d601f19601f8201168201806040525081019061052f9190611108565b90506001811515141561060057603e546001600160a01b03166001600160a01b0316637ae1cfca336040516020016105679190611131565b604051602081830303815290604052805190602001206040518263ffffffff1660e01b815260040161059b91815260200190565b602060405180830381865afa1580156105b8573d6000803e3d6000fd5b505050506040513d601f19601f820116820180604052508101906105dc9190611108565b6105fb5760405163372463e360e01b81523360048201526024016101d0565b610747565b603e546001600160a01b03166001600160a01b0316637ae1cfca3360405160200161062b9190611131565b604051602081830303815290604052805190602001206040518263ffffffff1660e01b815260040161065f91815260200190565b602060405180830381865afa15801561067c573d6000803e3d6000fd5b505050506040513d601f19601f820116820180604052508101906106a09190611108565b806107285750603e546001600160a01b03166001600160a01b031663a75b87d26040518163ffffffff1660e01b8152600401602060405180830381865afa1580156106ef573d6000803e3d6000fd5b505050506040513d601f19601f82011682018060405250810190610713919061116f565b6001600160a01b0316326001600160a01b0316145b6107475760405163372463e360e01b81523360048201526024016101d0565b61075e878760008151811061033c5761033c61118c565b604051635c11d79560e01b81526001600160a01b038a1690635c11d79590610792908b908b908b908b908b906004016111a2565b600060405180830381600087803b1580156107ac57600080fd5b505af11580156107c0573d6000803e3d6000fd5b50505050610413866000815181106103dd576103dd61118c565b6107e2610c11565b6001600160a01b031663a397104730600080888888886040518863ffffffff1660e01b815260040161081a979695949392919061131d565b600060405180830381600087803b15801561083457600080fd5b505af1158015610848573d6000803e3d6000fd5b5050505050505050565b6040516370a0823160e01b81523060048201526000906001600160a01b038616906370a0823190602401602060405180830381865afa158015610899573d6000803e3d6000fd5b505050506040513d601f19601f820116820180604052508101906108bd91906112c9565b6040516370a0823160e01b81523060048201529091506000906001600160a01b038616906370a0823190602401602060405180830381865afa158015610907573d6000803e3d6000fd5b505050506040513d601f19601f8201168201806040525081019061092b91906112c9565b90508115610a3657856001600160a01b031663095ea7b361094a610c11565b6040516001600160e01b031960e084901b1681526001600160a01b039091166004820152602481018590526044016020604051808303816000875af1158015610997573d6000803e3d6000fd5b505050506040513d601f19601f820116820180604052508101906109bb9190611108565b506109c4610c11565b6001600160a01b031663a397104730846109dc610c11565b6000808a8a6040518863ffffffff1660e01b8152600401610a03979695949392919061131d565b600060405180830381600087803b158015610a1d57600080fd5b505af1158015610a31573d6000803e3d6000fd5b505050505b8015610b3f57846001600160a01b031663095ea7b3610a53610c11565b6040516001600160e01b031960e084901b1681526001600160a01b039091166004820152602481018490526044016020604051808303816000875af1158015610aa0573d6000803e3d6000fd5b505050506040513d601f19601f82011682018060405250810190610ac49190611108565b50610acd610c11565b6001600160a01b031663a39710473083610ae5610c11565b6000808a8a6040518863ffffffff1660e01b8152600401610b0c979695949392919061131d565b600060405180830381600087803b158015610b2657600080fd5b505af1158015610b3a573d6000803e3d6000fd5b505050505b505050505050565b6000806000610b568585610cb0565b509050600080610b67888888610da8565b6001600160a01b0316630902f1ac6040518163ffffffff1660e01b8152600401606060405180830381865afa158015610ba4573d6000803e3d6000fd5b505050506040513d601f19601f82011682018060405250810190610bc89190611396565b506001600160701b031691506001600160701b03169150826001600160a01b0316876001600160a01b031614610bff578082610c02565b81815b90999098509650505050505050565b6000610c25603e546001600160a01b031690565b6001600160a01b03166321f8a7216003600001600b01604051610c4891906113e6565b60405190819003812060e083901b6001600160e01b03191682526004820152602401602060405180830381865afa158015610c87573d6000803e3d6000fd5b505050506040513d601f19601f82011682018060405250810190610cab919061116f565b905090565b600080826001600160a01b0316846001600160a01b03161415610d235760405162461bcd60e51b815260206004820152602560248201527f556e697377617056324c6962726172793a204944454e544943414c5f41444452604482015264455353455360d81b60648201526084016101d0565b826001600160a01b0316846001600160a01b031610610d43578284610d46565b83835b90925090506001600160a01b038216610da15760405162461bcd60e51b815260206004820152601e60248201527f556e697377617056324c6962726172793a205a45524f5f41444452455353000060448201526064016101d0565b9250929050565b6000806000610db78585610cb0565b6040516001600160601b0319606084811b8216602084015283901b1660348201529193509150869060480160405160208183030381529060405280519060200120604051602001610e559291906001600160f81b0319815260609290921b6001600160601b031916600183015260158201527f96e8ac4277198ff8b6f785478aa9a39f403cb768dd02cbee326c3e7da348845f603582015260550190565b60408051601f1981840301815291905280516020909101209695505050505050565b6001600160a01b0381168114610e8c57600080fd5b50565b8035610e9a81610e77565b919050565b634e487b7160e01b600052604160045260246000fd5b604051601f8201601f1916810167ffffffffffffffff81118282101715610ede57610ede610e9f565b604052919050565b600067ffffffffffffffff821115610f0057610f00610e9f565b5060051b60200190565b600082601f830112610f1b57600080fd5b81356020610f30610f2b83610ee6565b610eb5565b82815260059290921b84018101918181019086841115610f4f57600080fd5b8286015b84811015610f73578035610f6681610e77565b8352918301918301610f53565b509695505050505050565b600082601f830112610f8f57600080fd5b81356020610f9f610f2b83610ee6565b82815260059290921b84018101918181019086841115610fbe57600080fd5b8286015b84811015610f735780358352918301918301610fc2565b600080600080600080600080610100898b031215610ff657600080fd5b610fff89610e8f565b97506020890135965060408901359550606089013567ffffffffffffffff8082111561102a57600080fd5b6110368c838d01610f0a565b965061104460808c01610e8f565b955060a08b0135945060c08b013591508082111561106157600080fd5b61106d8c838d01610f7e565b935060e08b013591508082111561108357600080fd5b506110908b828c01610f7e565b9150509295985092959890939650565b600080600080600060a086880312156110b857600080fd5b85356110c381610e77565b945060208601356110d381610e77565b93506040860135925060608601356110ea81610e77565b915060808601356110fa81610e77565b809150509295509295909350565b60006020828403121561111a57600080fd5b8151801515811461112a57600080fd5b9392505050565b7f7068616e746f6d2e636f6e74726163742e726567697374657265640000000000815260609190911b6001600160601b031916601b820152602f0190565b60006020828403121561118157600080fd5b815161112a81610e77565b634e487b7160e01b600052603260045260246000fd5b600060a082018783526020878185015260a0604085015281875180845260c086019150828901935060005b818110156111f25784516001600160a01b0316835293830193918301916001016111cd565b50506001600160a01b03969096166060850152505050608001529392505050565b6000602080838503121561122657600080fd5b825167ffffffffffffffff81111561123d57600080fd5b8301601f8101851361124e57600080fd5b805161125c610f2b82610ee6565b81815260059190911b8201830190838101908783111561127b57600080fd5b928401925b8284101561129957835182529284019290840190611280565b979650505050505050565b6000828210156112c457634e487b7160e01b600052601160045260246000fd5b500390565b6000602082840312156112db57600080fd5b5051919050565b600081518084526020808501945080840160005b83811015611312578151875295820195908201906001016112f6565b509495945050505050565b6001600160a01b038881168252602082018890528681166040830152606082018690528416608082015260e060a0820181905260009061135f908301856112e2565b82810360c084015261137181856112e2565b9a9950505050505050505050565b80516001600160701b0381168114610e9a57600080fd5b6000806000606084860312156113ab57600080fd5b6113b48461137f565b92506113c26020850161137f565b9150604084015163ffffffff811681146113db57600080fd5b809150509250925092565b600080835481600182811c91508083168061140257607f831692505b602080841082141561142257634e487b7160e01b86526022600452602486fd5b818015611436576001811461144757611474565b60ff19861689528489019650611474565b60008a81526020902060005b8681101561146c5781548b820152908501908301611453565b505084890196505b50949897505050505050505056fea2646970667358221220b6c593835d02aee878a5682a3130fbdcd94270b3fc6349d6d31837b46fb989cb64736f6c634300080a00337068616e746f6d2e666f756e6465722e636c61696d732e72656d61696e696e67416d6f756e747068616e746f6d2e616c6c6f6361746f722e746f6b656e732e616464726573732e6461697068616e746f6d2e726f7574696e672e6465785f726f757465725f616464726573737068616e746f6d2e666f756e6465722e636c61696d732e696e697469616c416d6f756e747068616e746f6d2e74726561737572792e6163636f756e745f6b65792e76656e747572656361706974616c7068616e746f6d2e616c6c6f6361746f722e746f6b656e732e616464726573732e6461695f70686d5f6c707068616e746f6d2e726f7574696e672e73706f6f6b795f726f757465725f616464726573737068616e746f6d2e74726561737572792e617070726f7665642e65787465726e616c2e616464726573737068616e746f6d2e626f6e64696e672e757365722e66697273745f756e72656465656d65645f6e6f6e63657068616e746f6d2e726f7574696e672e7370697269745f726f757465725f616464726573737068616e746f6d2e616c6c6f6361746f722e746f6b656e732e64657374696e6174696f6e737068616e746f6d2e726f7574696e672e7370697269745f666163746f72795f616464726573737068616e746f6d2e616c6c6f6361746f722e746f6b656e732e646573745f70657263656e74616765737068616e746f6d2e74726561737572792e6163636f756e745f6b65792e72657365727665737068616e746f6d2e616c6c6f6361746f722e746f6b656e732e616464726573732e6d696d7068616e746f6d2e726f7574696e672e73706f6f6b795f666163746f72795f616464726573737068616e746f6d2e616c6c6f6361746f722e746f6b656e732e616464726573732e7766746d7068616e746f6d2e616c6c6f6361746f722e746f6b656e732e616464726573732e6465787068616e746f6d2e726f7574696e672e7370697269745f67617567655f616464726573737068616e746f6d2e666f756e6465722e636c61696d732e616c6c6f636174696f6e7068616e746f6d2e726f7574696e672e6465785f666163746f72795f616464726573737068616e746f6d2e676f7665726e6f722e71756f72756d50657263656e746167657068616e746f6d2e676f7665726e6f722e70726f706f73616c5468726573686f6c647068616e746f6d2e7374616b696e672e6e657874526562617365446561646c696e657068616e746f6d2e726f7574696e672e7370697269745f67617567655f70726f78795f61646472657373",
  "bytecodeSha1": "da39a3ee5e6b4b0d3255bfef95601890afd80709",
  "compiler": {
    "evm_version": "istanbul",
    "optimizer": {
      "enabled": true,
      "runs": 200
    },
    "version": "0.8.10+commit.fc410830"
  },
  "contractName": "PhantomDexRouter",
  "language": "Solidity",
  "natspec": {
    "author": "PhantomDao Team",
    "kind": "dev",
    "methods": {},
    "notice": "Communicate with a UniSwap dex",
    "title": "PhantomDexRouter",
    "version": 1
  },
  "opcodes": "PUSH1 0x80 PUSH1 0x40 MSTORE CALLVALUE DUP1 ISZERO PUSH2 0x10 JUMPI PUSH1 0x0 DUP1 REVERT JUMPDEST POP PUSH1 0x4 CALLDATASIZE LT PUSH2 0x41 JUMPI PUSH1 0x0 CALLDATALOAD PUSH1 0xE0 SHR DUP1 PUSH4 0x4EBB34C EQ PUSH2 0x46 JUMPI DUP1 PUSH4 0x2A0BBEDF EQ PUSH2 0x5B JUMPI DUP1 PUSH4 0x8A4C867C EQ PUSH2 0x80 JUMPI JUMPDEST PUSH1 0x0 DUP1 REVERT JUMPDEST PUSH2 0x59 PUSH2 0x54 CALLDATASIZE PUSH1 0x4 PUSH2 0xFD9 JUMP JUMPDEST PUSH2 0x93 JUMP JUMPDEST STOP JUMPDEST PUSH2 0x6E PUSH2 0x69 CALLDATASIZE PUSH1 0x4 PUSH2 0x10A0 JUMP JUMPDEST PUSH2 0x41E JUMP JUMPDEST PUSH1 0x40 MLOAD SWAP1 DUP2 MSTORE PUSH1 0x20 ADD PUSH1 0x40 MLOAD DUP1 SWAP2 SUB SWAP1 RETURN JUMPDEST PUSH2 0x59 PUSH2 0x8E CALLDATASIZE PUSH1 0x4 PUSH2 0xFD9 JUMP JUMPDEST PUSH2 0x4BA JUMP JUMPDEST PUSH1 0x0 PUSH2 0xA7 PUSH1 0x3E SLOAD PUSH1 0x1 PUSH1 0x1 PUSH1 0xA0 SHL SUB AND SWAP1 JUMP JUMPDEST PUSH1 0x1 PUSH1 0x1 PUSH1 0xA0 SHL SUB AND PUSH4 0x1BED5241 PUSH1 0x40 MLOAD DUP2 PUSH4 0xFFFFFFFF AND PUSH1 0xE0 SHL DUP2 MSTORE PUSH1 0x4 ADD PUSH1 0x20 PUSH1 0x40 MLOAD DUP1 DUP4 SUB DUP2 DUP7 GAS STATICCALL ISZERO DUP1 ISZERO PUSH2 0xE4 JUMPI RETURNDATASIZE PUSH1 0x0 DUP1 RETURNDATACOPY RETURNDATASIZE PUSH1 0x0 REVERT JUMPDEST POP POP POP POP PUSH1 0x40 MLOAD RETURNDATASIZE PUSH1 0x1F NOT PUSH1 0x1F DUP3 ADD AND DUP3 ADD DUP1 PUSH1 0x40 MSTORE POP DUP2 ADD SWAP1 PUSH2 0x108 SWAP2 SWAP1 PUSH2 0x1108 JUMP JUMPDEST SWAP1 POP PUSH1 0x1 DUP2 ISZERO ISZERO EQ ISZERO PUSH2 0x1DE JUMPI PUSH1 0x3E SLOAD PUSH1 0x1 PUSH1 0x1 PUSH1 0xA0 SHL SUB AND PUSH1 0x1 PUSH1 0x1 PUSH1 0xA0 SHL SUB AND PUSH4 0x7AE1CFCA CALLER PUSH1 0x40 MLOAD PUSH1 0x20 ADD PUSH2 0x140 SWAP2 SWAP1 PUSH2 0x1131 JUMP JUMPDEST PUSH1 0x40 MLOAD PUSH1 0x20 DUP2 DUP4 SUB SUB DUP2 MSTORE SWAP1 PUSH1 0x40 MSTORE DUP1 MLOAD SWAP1 PUSH1 0x20 ADD KECCAK256 PUSH1 0x40 MLOAD DUP3 PUSH4 0xFFFFFFFF AND PUSH1 0xE0 SHL DUP2 MSTORE PUSH1 0x4 ADD PUSH2 0x174 SWAP2 DUP2 MSTORE PUSH1 0x20 ADD SWAP1 JUMP JUMPDEST PUSH1 0x20 PUSH1 0x40 MLOAD DUP1 DUP4 SUB DUP2 DUP7 GAS STATICCALL ISZERO DUP1 ISZERO PUSH2 0x191 JUMPI RETURNDATASIZE PUSH1 0x0 DUP1 RETURNDATACOPY RETURNDATASIZE PUSH1 0x0 REVERT JUMPDEST POP POP POP POP PUSH1 0x40 MLOAD RETURNDATASIZE PUSH1 0x1F NOT PUSH1 0x1F DUP3 ADD AND DUP3 ADD DUP1 PUSH1 0x40 MSTORE POP DUP2 ADD SWAP1 PUSH2 0x1B5 SWAP2 SWAP1 PUSH2 0x1108 JUMP JUMPDEST PUSH2 0x1D9 JUMPI PUSH1 0x40 MLOAD PUSH4 0x372463E3 PUSH1 0xE0 SHL DUP2 MSTORE CALLER PUSH1 0x4 DUP3 ADD MSTORE PUSH1 0x24 ADD JUMPDEST PUSH1 0x40 MLOAD DUP1 SWAP2 SUB SWAP1 REVERT JUMPDEST PUSH2 0x325 JUMP JUMPDEST PUSH1 0x3E SLOAD PUSH1 0x1 PUSH1 0x1 PUSH1 0xA0 SHL SUB AND PUSH1 0x1 PUSH1 0x1 PUSH1 0xA0 SHL SUB AND PUSH4 0x7AE1CFCA CALLER PUSH1 0x40 MLOAD PUSH1 0x20 ADD PUSH2 0x209 SWAP2 SWAP1 PUSH2 0x1131 JUMP JUMPDEST PUSH1 0x40 MLOAD PUSH1 0x20 DUP2 DUP4 SUB SUB DUP2 MSTORE SWAP1 PUSH1 0x40 MSTORE DUP1 MLOAD SWAP1 PUSH1 0x20 ADD KECCAK256 PUSH1 0x40 MLOAD DUP3 PUSH4 0xFFFFFFFF AND PUSH1 0xE0 SHL DUP2 MSTORE PUSH1 0x4 ADD PUSH2 0x23D SWAP2 DUP2 MSTORE PUSH1 0x20 ADD SWAP1 JUMP JUMPDEST PUSH1 0x20 PUSH1 0x40 MLOAD DUP1 DUP4 SUB DUP2 DUP7 GAS STATICCALL ISZERO DUP1 ISZERO PUSH2 0x25A JUMPI RETURNDATASIZE PUSH1 0x0 DUP1 RETURNDATACOPY RETURNDATASIZE PUSH1 0x0 REVERT JUMPDEST POP POP POP POP PUSH1 0x40 MLOAD RETURNDATASIZE PUSH1 0x1F NOT PUSH1 0x1F DUP3 ADD AND DUP3 ADD DUP1 PUSH1 0x40 MSTORE POP DUP2 ADD SWAP1 PUSH2 0x27E SWAP2 SWAP1 PUSH2 0x1108 JUMP JUMPDEST DUP1 PUSH2 0x306 JUMPI POP PUSH1 0x3E SLOAD PUSH1 0x1 PUSH1 0x1 PUSH1 0xA0 SHL SUB AND PUSH1 0x1 PUSH1 0x1 PUSH1 0xA0 SHL SUB AND PUSH4 0xA75B87D2 PUSH1 0x40 MLOAD DUP2 PUSH4 0xFFFFFFFF AND PUSH1 0xE0 SHL DUP2 MSTORE PUSH1 0x4 ADD PUSH1 0x20 PUSH1 0x40 MLOAD DUP1 DUP4 SUB DUP2 DUP7 GAS STATICCALL ISZERO DUP1 ISZERO PUSH2 0x2CD JUMPI RETURNDATASIZE PUSH1 0x0 DUP1 RETURNDATACOPY RETURNDATASIZE PUSH1 0x0 REVERT JUMPDEST POP POP POP POP PUSH1 0x40 MLOAD RETURNDATASIZE PUSH1 0x1F NOT PUSH1 0x1F DUP3 ADD AND DUP3 ADD DUP1 PUSH1 0x40 MSTORE POP DUP2 ADD SWAP1 PUSH2 0x2F1 SWAP2 SWAP1 PUSH2 0x116F JUMP JUMPDEST PUSH1 0x1 PUSH1 0x1 PUSH1 0xA0 SHL SUB AND ORIGIN PUSH1 0x1 PUSH1 0x1 PUSH1 0xA0 SHL SUB AND EQ JUMPDEST PUSH2 0x325 JUMPI PUSH1 0x40 MLOAD PUSH4 0x372463E3 PUSH1 0xE0 SHL DUP2 MSTORE CALLER PUSH1 0x4 DUP3 ADD MSTORE PUSH1 0x24 ADD PUSH2 0x1D0 JUMP JUMPDEST PUSH2 0x34B DUP9 DUP8 PUSH1 0x0 DUP2 MLOAD DUP2 LT PUSH2 0x33C JUMPI PUSH2 0x33C PUSH2 0x118C JUMP JUMPDEST PUSH1 0x20 MUL PUSH1 0x20 ADD ADD MLOAD DUP6 DUP6 PUSH2 0x7DA JUMP JUMPDEST PUSH1 0x40 MLOAD PUSH4 0x38ED1739 PUSH1 0xE0 SHL DUP2 MSTORE PUSH1 0x1 PUSH1 0x1 PUSH1 0xA0 SHL SUB DUP11 AND SWAP1 PUSH4 0x38ED1739 SWAP1 PUSH2 0x37F SWAP1 DUP12 SWAP1 DUP12 SWAP1 DUP12 SWAP1 DUP12 SWAP1 DUP12 SWAP1 PUSH1 0x4 ADD PUSH2 0x11A2 JUMP JUMPDEST PUSH1 0x0 PUSH1 0x40 MLOAD DUP1 DUP4 SUB DUP2 PUSH1 0x0 DUP8 GAS CALL ISZERO DUP1 ISZERO PUSH2 0x39E JUMPI RETURNDATASIZE PUSH1 0x0 DUP1 RETURNDATACOPY RETURNDATASIZE PUSH1 0x0 REVERT JUMPDEST POP POP POP POP PUSH1 0x40 MLOAD RETURNDATASIZE PUSH1 0x0 DUP3 RETURNDATACOPY PUSH1 0x1F RETURNDATASIZE SWAP1 DUP2 ADD PUSH1 0x1F NOT AND DUP3 ADD PUSH1 0x40 MSTORE PUSH2 0x3C6 SWAP2 SWAP1 DUP2 ADD SWAP1 PUSH2 0x1213 JUMP JUMPDEST POP PUSH2 0x413 DUP7 PUSH1 0x0 DUP2 MLOAD DUP2 LT PUSH2 0x3DD JUMPI PUSH2 0x3DD PUSH2 0x118C JUMP JUMPDEST PUSH1 0x20 MUL PUSH1 0x20 ADD ADD MLOAD DUP8 PUSH1 0x1 DUP10 MLOAD PUSH2 0x3F4 SWAP2 SWAP1 PUSH2 0x12A4 JUMP JUMPDEST DUP2 MLOAD DUP2 LT PUSH2 0x404 JUMPI PUSH2 0x404 PUSH2 0x118C JUMP JUMPDEST PUSH1 0x20 MUL PUSH1 0x20 ADD ADD MLOAD DUP6 DUP6 PUSH2 0x852 JUMP JUMPDEST POP POP POP POP POP POP POP POP POP JUMP JUMPDEST PUSH1 0x0 DUP1 PUSH1 0x0 PUSH2 0x42E DUP8 DUP7 DUP7 PUSH2 0xB47 JUMP JUMPDEST PUSH1 0x40 MLOAD PUSH4 0x2B58577B PUSH1 0xE2 SHL DUP2 MSTORE PUSH1 0x4 DUP2 ADD DUP10 SWAP1 MSTORE PUSH1 0x24 DUP2 ADD DUP4 SWAP1 MSTORE PUSH1 0x44 DUP2 ADD DUP3 SWAP1 MSTORE SWAP2 SWAP4 POP SWAP2 POP PUSH1 0x0 SWAP1 PUSH1 0x1 PUSH1 0x1 PUSH1 0xA0 SHL SUB DUP11 AND SWAP1 PUSH4 0xAD615DEC SWAP1 PUSH1 0x64 ADD PUSH1 0x20 PUSH1 0x40 MLOAD DUP1 DUP4 SUB DUP2 DUP7 GAS STATICCALL ISZERO DUP1 ISZERO PUSH2 0x489 JUMPI RETURNDATASIZE PUSH1 0x0 DUP1 RETURNDATACOPY RETURNDATASIZE PUSH1 0x0 REVERT JUMPDEST POP POP POP POP PUSH1 0x40 MLOAD RETURNDATASIZE PUSH1 0x1F NOT PUSH1 0x1F DUP3 ADD AND DUP3 ADD DUP1 PUSH1 0x40 MSTORE POP DUP2 ADD SWAP1 PUSH2 0x4AD SWAP2 SWAP1 PUSH2 0x12C9 JUMP JUMPDEST SWAP10 SWAP9 POP POP POP POP POP POP POP POP POP JUMP JUMPDEST PUSH1 0x0 PUSH2 0x4CE PUSH1 0x3E SLOAD PUSH1 0x1 PUSH1 0x1 PUSH1 0xA0 SHL SUB AND SWAP1 JUMP JUMPDEST PUSH1 0x1 PUSH1 0x1 PUSH1 0xA0 SHL SUB AND PUSH4 0x1BED5241 PUSH1 0x40 MLOAD DUP2 PUSH4 0xFFFFFFFF AND PUSH1 0xE0 SHL DUP2 MSTORE PUSH1 0x4 ADD PUSH1 0x20 PUSH1 0x40 MLOAD DUP1 DUP4 SUB DUP2 DUP7 GAS STATICCALL ISZERO DUP1 ISZERO PUSH2 0x50B JUMPI RETURNDATASIZE PUSH1 0x0 DUP1 RETURNDATACOPY RETURNDATASIZE PUSH1 0x0 REVERT JUMPDEST POP POP POP POP PUSH1 0x40 MLOAD RETURNDATASIZE PUSH1 0x1F NOT PUSH1 0x1F DUP3 ADD AND DUP3 ADD DUP1 PUSH1 0x40 MSTORE POP DUP2 ADD SWAP1 PUSH2 0x52F SWAP2 SWAP1 PUSH2 0x1108 JUMP JUMPDEST SWAP1 POP PUSH1 0x1 DUP2 ISZERO ISZERO EQ ISZERO PUSH2 0x600 JUMPI PUSH1 0x3E SLOAD PUSH1 0x1 PUSH1 0x1 PUSH1 0xA0 SHL SUB AND PUSH1 0x1 PUSH1 0x1 PUSH1 0xA0 SHL SUB AND PUSH4 0x7AE1CFCA CALLER PUSH1 0x40 MLOAD PUSH1 0x20 ADD PUSH2 0x567 SWAP2 SWAP1 PUSH2 0x1131 JUMP JUMPDEST PUSH1 0x40 MLOAD PUSH1 0x20 DUP2 DUP4 SUB SUB DUP2 MSTORE SWAP1 PUSH1 0x40 MSTORE DUP1 MLOAD SWAP1 PUSH1 0x20 ADD KECCAK256 PUSH1 0x40 MLOAD DUP3 PUSH4 0xFFFFFFFF AND PUSH1 0xE0 SHL DUP2 MSTORE PUSH1 0x4 ADD PUSH2 0x59B SWAP2 DUP2 MSTORE PUSH1 0x20 ADD SWAP1 JUMP JUMPDEST PUSH1 0x20 PUSH1 0x40 MLOAD DUP1 DUP4 SUB DUP2 DUP7 GAS STATICCALL ISZERO DUP1 ISZERO PUSH2 0x5B8 JUMPI RETURNDATASIZE PUSH1 0x0 DUP1 RETURNDATACOPY RETURNDATASIZE PUSH1 0x0 REVERT JUMPDEST POP POP POP POP PUSH1 0x40 MLOAD RETURNDATASIZE PUSH1 0x1F NOT PUSH1 0x1F DUP3 ADD AND DUP3 ADD DUP1 PUSH1 0x40 MSTORE POP DUP2 ADD SWAP1 PUSH2 0x5DC SWAP2 SWAP1 PUSH2 0x1108 JUMP JUMPDEST PUSH2 0x5FB JUMPI PUSH1 0x40 MLOAD PUSH4 0x372463E3 PUSH1 0xE0 SHL DUP2 MSTORE CALLER PUSH1 0x4 DUP3 ADD MSTORE PUSH1 0x24 ADD PUSH2 0x1D0 JUMP JUMPDEST PUSH2 0x747 JUMP JUMPDEST PUSH1 0x3E SLOAD PUSH1 0x1 PUSH1 0x1 PUSH1 0xA0 SHL SUB AND PUSH1 0x1 PUSH1 0x1 PUSH1 0xA0 SHL SUB AND PUSH4 0x7AE1CFCA CALLER PUSH1 0x40 MLOAD PUSH1 0x20 ADD PUSH2 0x62B SWAP2 SWAP1 PUSH2 0x1131 JUMP JUMPDEST PUSH1 0x40 MLOAD PUSH1 0x20 DUP2 DUP4 SUB SUB DUP2 MSTORE SWAP1 PUSH1 0x40 MSTORE DUP1 MLOAD SWAP1 PUSH1 0x20 ADD KECCAK256 PUSH1 0x40 MLOAD DUP3 PUSH4 0xFFFFFFFF AND PUSH1 0xE0 SHL DUP2 MSTORE PUSH1 0x4 ADD PUSH2 0x65F SWAP2 DUP2 MSTORE PUSH1 0x20 ADD SWAP1 JUMP JUMPDEST PUSH1 0x20 PUSH1 0x40 MLOAD DUP1 DUP4 SUB DUP2 DUP7 GAS STATICCALL ISZERO DUP1 ISZERO PUSH2 0x67C JUMPI RETURNDATASIZE PUSH1 0x0 DUP1 RETURNDATACOPY RETURNDATASIZE PUSH1 0x0 REVERT JUMPDEST POP POP POP POP PUSH1 0x40 MLOAD RETURNDATASIZE PUSH1 0x1F NOT PUSH1 0x1F DUP3 ADD AND DUP3 ADD DUP1 PUSH1 0x40 MSTORE POP DUP2 ADD SWAP1 PUSH2 0x6A0 SWAP2 SWAP1 PUSH2 0x1108 JUMP JUMPDEST DUP1 PUSH2 0x728 JUMPI POP PUSH1 0x3E SLOAD PUSH1 0x1 PUSH1 0x1 PUSH1 0xA0 SHL SUB AND PUSH1 0x1 PUSH1 0x1 PUSH1 0xA0 SHL SUB AND PUSH4 0xA75B87D2 PUSH1 0x40 MLOAD DUP2 PUSH4 0xFFFFFFFF AND PUSH1 0xE0 SHL DUP2 MSTORE PUSH1 0x4 ADD PUSH1 0x20 PUSH1 0x40 MLOAD DUP1 DUP4 SUB DUP2 DUP7 GAS STATICCALL ISZERO DUP1 ISZERO PUSH2 0x6EF JUMPI RETURNDATASIZE PUSH1 0x0 DUP1 RETURNDATACOPY RETURNDATASIZE PUSH1 0x0 REVERT JUMPDEST POP POP POP POP PUSH1 0x40 MLOAD RETURNDATASIZE PUSH1 0x1F NOT PUSH1 0x1F DUP3 ADD AND DUP3 ADD DUP1 PUSH1 0x40 MSTORE POP DUP2 ADD SWAP1 PUSH2 0x713 SWAP2 SWAP1 PUSH2 0x116F JUMP JUMPDEST PUSH1 0x1 PUSH1 0x1 PUSH1 0xA0 SHL SUB AND ORIGIN PUSH1 0x1 PUSH1 0x1 PUSH1 0xA0 SHL SUB AND EQ JUMPDEST PUSH2 0x747 JUMPI PUSH1 0x40 MLOAD PUSH4 0x372463E3 PUSH1 0xE0 SHL DUP2 MSTORE CALLER PUSH1 0x4 DUP3 ADD MSTORE PUSH1 0x24 ADD PUSH2 0x1D0 JUMP JUMPDEST PUSH2 0x75E DUP8 DUP8 PUSH1 0x0 DUP2 MLOAD DUP2 LT PUSH2 0x33C JUMPI PUSH2 0x33C PUSH2 0x118C JUMP JUMPDEST PUSH1 0x40 MLOAD PUSH4 0x5C11D795 PUSH1 0xE0 SHL DUP2 MSTORE PUSH1 0x1 PUSH1 0x1 PUSH1 0xA0 SHL SUB DUP11 AND SWAP1 PUSH4 0x5C11D795 SWAP1 PUSH2 0x792 SWAP1 DUP12 SWAP1 DUP12 SWAP1 DUP12 SWAP1 DUP12 SWAP1 DUP12 SWAP1 PUSH1 0x4 ADD PUSH2 0x11A2 JUMP JUMPDEST PUSH1 0x0 PUSH1 0x40 MLOAD DUP1 DUP4 SUB DUP2 PUSH1 0x0 DUP8 DUP1 EXTCODESIZE ISZERO DUP1 ISZERO PUSH2 0x7AC JUMPI PUSH1 0x0 DUP1 REVERT JUMPDEST POP GAS CALL ISZERO DUP1 ISZERO PUSH2 0x7C0 JUMPI RETURNDATASIZE PUSH1 0x0 DUP1 RETURNDATACOPY RETURNDATASIZE PUSH1 0x0 REVERT JUMPDEST POP POP POP POP PUSH2 0x413 DUP7 PUSH1 0x0 DUP2 MLOAD DUP2 LT PUSH2 0x3DD JUMPI PUSH2 0x3DD PUSH2 0x118C JUMP JUMPDEST PUSH2 0x7E2 PUSH2 0xC11 JUMP JUMPDEST PUSH1 0x1 PUSH1 0x1 PUSH1 0xA0 SHL SUB AND PUSH4 0xA3971047 ADDRESS PUSH1 0x0 DUP1 DUP9 DUP9 DUP9 DUP9 PUSH1 0x40 MLOAD DUP9 PUSH4 0xFFFFFFFF AND PUSH1 0xE0 SHL DUP2 MSTORE PUSH1 0x4 ADD PUSH2 0x81A SWAP8 SWAP7 SWAP6 SWAP5 SWAP4 SWAP3 SWAP2 SWAP1 PUSH2 0x131D JUMP JUMPDEST PUSH1 0x0 PUSH1 0x40 MLOAD DUP1 DUP4 SUB DUP2 PUSH1 0x0 DUP8 DUP1 EXTCODESIZE ISZERO DUP1 ISZERO PUSH2 0x834 JUMPI PUSH1 0x0 DUP1 REVERT JUMPDEST POP GAS CALL ISZERO DUP1 ISZERO PUSH2 0x848 JUMPI RETURNDATASIZE PUSH1 0x0 DUP1 RETURNDATACOPY RETURNDATASIZE PUSH1 0x0 REVERT JUMPDEST POP POP POP POP POP POP POP POP JUMP JUMPDEST PUSH1 0x40 MLOAD PUSH4 0x70A08231 PUSH1 0xE0 SHL DUP2 MSTORE ADDRESS PUSH1 0x4 DUP3 ADD MSTORE PUSH1 0x0 SWAP1 PUSH1 0x1 PUSH1 0x1 PUSH1 0xA0 SHL SUB DUP7 AND SWAP1 PUSH4 0x70A08231 SWAP1 PUSH1 0x24 ADD PUSH1 0x20 PUSH1 0x40 MLOAD DUP1 DUP4 SUB DUP2 DUP7 GAS STATICCALL ISZERO DUP1 ISZERO PUSH2 0x899 JUMPI RETURNDATASIZE PUSH1 0x0 DUP1 RETURNDATACOPY RETURNDATASIZE PUSH1 0x0 REVERT JUMPDEST POP POP POP POP PUSH1 0x40 MLOAD RETURNDATASIZE PUSH1 0x1F NOT PUSH1 0x1F DUP3 ADD AND DUP3 ADD DUP1 PUSH1 0x40 MSTORE POP DUP2 ADD SWAP1 PUSH2 0x8BD SWAP2 SWAP1 PUSH2 0x12C9 JUMP JUMPDEST PUSH1 0x40 MLOAD PUSH4 0x70A08231 PUSH1 0xE0 SHL DUP2 MSTORE ADDRESS PUSH1 0x4 DUP3 ADD MSTORE SWAP1 SWAP2 POP PUSH1 0x0 SWAP1 PUSH1 0x1 PUSH1 0x1 PUSH1 0xA0 SHL SUB DUP7 AND SWAP1 PUSH4 0x70A08231 SWAP1 PUSH1 0x24 ADD PUSH1 0x20 PUSH1 0x40 MLOAD DUP1 DUP4 SUB DUP2 DUP7 GAS STATICCALL ISZERO DUP1 ISZERO PUSH2 0x907 JUMPI RETURNDATASIZE PUSH1 0x0 DUP1 RETURNDATACOPY RETURNDATASIZE PUSH1 0x0 REVERT JUMPDEST POP POP POP POP PUSH1 0x40 MLOAD RETURNDATASIZE PUSH1 0x1F NOT PUSH1 0x1F DUP3 ADD AND DUP3 ADD DUP1 PUSH1 0x40 MSTORE POP DUP2 ADD SWAP1 PUSH2 0x92B SWAP2 SWAP1 PUSH2 0x12C9 JUMP JUMPDEST SWAP1 POP DUP2 ISZERO PUSH2 0xA36 JUMPI DUP6 PUSH1 0x1 PUSH1 0x1 PUSH1 0xA0 SHL SUB AND PUSH4 0x95EA7B3 PUSH2 0x94A PUSH2 0xC11 JUMP JUMPDEST PUSH1 0x40 MLOAD PUSH1 0x1 PUSH1 0x1 PUSH1 0xE0 SHL SUB NOT PUSH1 0xE0 DUP5 SWAP1 SHL AND DUP2 MSTORE PUSH1 0x1 PUSH1 0x1 PUSH1 0xA0 SHL SUB SWAP1 SWAP2 AND PUSH1 0x4 DUP3 ADD MSTORE PUSH1 0x24 DUP2 ADD DUP6 SWAP1 MSTORE PUSH1 0x44 ADD PUSH1 0x20 PUSH1 0x40 MLOAD DUP1 DUP4 SUB DUP2 PUSH1 0x0 DUP8 GAS CALL ISZERO DUP1 ISZERO PUSH2 0x997 JUMPI RETURNDATASIZE PUSH1 0x0 DUP1 RETURNDATACOPY RETURNDATASIZE PUSH1 0x0 REVERT JUMPDEST POP POP POP POP PUSH1 0x40 MLOAD RETURNDATASIZE PUSH1 0x1F NOT PUSH1 0x1F DUP3 ADD AND DUP3 ADD DUP1 PUSH1 0x40 MSTORE POP DUP2 ADD SWAP1 PUSH2 0x9BB SWAP2 SWAP1 PUSH2 0x1108 JUMP JUMPDEST POP PUSH2 0x9C4 PUSH2 0xC11 JUMP JUMPDEST PUSH1 0x1 PUSH1 0x1 PUSH1 0xA0 SHL SUB AND PUSH4 0xA3971047 ADDRESS DUP5 PUSH2 0x9DC PUSH2 0xC11 JUMP JUMPDEST PUSH1 0x0 DUP1 DUP11 DUP11 PUSH1 0x40 MLOAD DUP9 PUSH4 0xFFFFFFFF AND PUSH1 0xE0 SHL DUP2 MSTORE PUSH1 0x4 ADD PUSH2 0xA03 SWAP8 SWAP7 SWAP6 SWAP5 SWAP4 SWAP3 SWAP2 SWAP1 PUSH2 0x131D JUMP JUMPDEST PUSH1 0x0 PUSH1 0x40 MLOAD DUP1 DUP4 SUB DUP2 PUSH1 0x0 DUP8 DUP1 EXTCODESIZE ISZERO DUP1 ISZERO PUSH2 0xA1D JUMPI PUSH1 0x0 DUP1 REVERT JUMPDEST POP GAS CALL ISZERO DUP1 ISZERO PUSH2 0xA31 JUMPI RETURNDATASIZE PUSH1 0x0 DUP1 RETURNDATACOPY RETURNDATASIZE PUSH1 0x0 REVERT JUMPDEST POP POP POP POP JUMPDEST DUP1 ISZERO PUSH2 0xB3F JUMPI DUP5 PUSH1 0x1 PUSH1 0x1 PUSH1 0xA0 SHL SUB AND PUSH4 0x95EA7B3 PUSH2 0xA53 PUSH2 0xC11 JUMP JUMPDEST PUSH1 0x40 MLOAD PUSH1 0x1 PUSH1 0x1 PUSH1 0xE0 SHL SUB NOT PUSH1 0xE0 DUP5 SWAP1 SHL AND DUP2 MSTORE PUSH1 0x1 PUSH1 0x1 PUSH1 0xA0 SHL SUB SWAP1 SWAP2 AND PUSH1 0x4 DUP3 ADD MSTORE PUSH1 0x24 DUP2 ADD DUP5 SWAP1 MSTORE PUSH1 0x44 ADD PUSH1 0x20 PUSH1 0x40 MLOAD DUP1 DUP4 SUB DUP2 PUSH1 0x0 DUP8 GAS CALL ISZERO DUP1 ISZERO PUSH2 0xAA0 JUMPI RETURNDATASIZE PUSH1 0x0 DUP1 RETURNDATACOPY RETURNDATASIZE PUSH1 0x0 REVERT JUMPDEST POP POP POP POP PUSH1 0x40 MLOAD RETURNDATASIZE PUSH1 0x1F NOT PUSH1 0x1F DUP3 ADD AND DUP3 ADD DUP1 PUSH1 0x40 MSTORE POP DUP2 ADD SWAP1 PUSH2 0xAC4 SWAP2 SWAP1 PUSH2 0x1108 JUMP JUMPDEST POP PUSH2 0xACD PUSH2 0xC11 JUMP JUMPDEST PUSH1 0x1 PUSH1 0x1 PUSH1 0xA0 SHL SUB AND PUSH4 0xA3971047 ADDRESS DUP4 PUSH2 0xAE5 PUSH2 0xC11 JUMP JUMPDEST PUSH1 0x0 DUP1 DUP11 DUP11 PUSH1 0x40 MLOAD DUP9 PUSH4 0xFFFFFFFF AND PUSH1 0xE0 SHL DUP2 MSTORE PUSH1 0x4 ADD PUSH2 0xB0C SWAP8 SWAP7 SWAP6 SWAP5 SWAP4 SWAP3 SWAP2 SWAP1 PUSH2 0x131D JUMP JUMPDEST PUSH1 0x0 PUSH1 0x40 MLOAD DUP1 DUP4 SUB DUP2 PUSH1 0x0 DUP8 DUP1 EXTCODESIZE ISZERO DUP1 ISZERO PUSH2 0xB26 JUMPI PUSH1 0x0 DUP1 REVERT JUMPDEST POP GAS CALL ISZERO DUP1 ISZERO PUSH2 0xB3A JUMPI RETURNDATASIZE PUSH1 0x0 DUP1 RETURNDATACOPY RETURNDATASIZE PUSH1 0x0 REVERT JUMPDEST POP POP POP POP JUMPDEST POP POP POP POP POP POP JUMP JUMPDEST PUSH1 0x0 DUP1 PUSH1 0x0 PUSH2 0xB56 DUP6 DUP6 PUSH2 0xCB0 JUMP JUMPDEST POP SWAP1 POP PUSH1 0x0 DUP1 PUSH2 0xB67 DUP9 DUP9 DUP9 PUSH2 0xDA8 JUMP JUMPDEST PUSH1 0x1 PUSH1 0x1 PUSH1 0xA0 SHL SUB AND PUSH4 0x902F1AC PUSH1 0x40 MLOAD DUP2 PUSH4 0xFFFFFFFF AND PUSH1 0xE0 SHL DUP2 MSTORE PUSH1 0x4 ADD PUSH1 0x60 PUSH1 0x40 MLOAD DUP1 DUP4 SUB DUP2 DUP7 GAS STATICCALL ISZERO DUP1 ISZERO PUSH2 0xBA4 JUMPI RETURNDATASIZE PUSH1 0x0 DUP1 RETURNDATACOPY RETURNDATASIZE PUSH1 0x0 REVERT JUMPDEST POP POP POP POP PUSH1 0x40 MLOAD RETURNDATASIZE PUSH1 0x1F NOT PUSH1 0x1F DUP3 ADD AND DUP3 ADD DUP1 PUSH1 0x40 MSTORE POP DUP2 ADD SWAP1 PUSH2 0xBC8 SWAP2 SWAP1 PUSH2 0x1396 JUMP JUMPDEST POP PUSH1 0x1 PUSH1 0x1 PUSH1 0x70 SHL SUB AND SWAP2 POP PUSH1 0x1 PUSH1 0x1 PUSH1 0x70 SHL SUB AND SWAP2 POP DUP3 PUSH1 0x1 PUSH1 0x1 PUSH1 0xA0 SHL SUB AND DUP8 PUSH1 0x1 PUSH1 0x1 PUSH1 0xA0 SHL SUB AND EQ PUSH2 0xBFF JUMPI DUP1 DUP3 PUSH2 0xC02 JUMP JUMPDEST DUP2 DUP2 JUMPDEST SWAP1 SWAP10 SWAP1 SWAP9 POP SWAP7 POP POP POP POP POP POP POP JUMP JUMPDEST PUSH1 0x0 PUSH2 0xC25 PUSH1 0x3E SLOAD PUSH1 0x1 PUSH1 0x1 PUSH1 0xA0 SHL SUB AND SWAP1 JUMP JUMPDEST PUSH1 0x1 PUSH1 0x1 PUSH1 0xA0 SHL SUB AND PUSH4 0x21F8A721 PUSH1 0x3 PUSH1 0x0 ADD PUSH1 0xB ADD PUSH1 0x40 MLOAD PUSH2 0xC48 SWAP2 SWAP1 PUSH2 0x13E6 JUMP JUMPDEST PUSH1 0x40 MLOAD SWAP1 DUP2 SWAP1 SUB DUP2 KECCAK256 PUSH1 0xE0 DUP4 SWAP1 SHL PUSH1 0x1 PUSH1 0x1 PUSH1 0xE0 SHL SUB NOT AND DUP3 MSTORE PUSH1 0x4 DUP3 ADD MSTORE PUSH1 0x24 ADD PUSH1 0x20 PUSH1 0x40 MLOAD DUP1 DUP4 SUB DUP2 DUP7 GAS STATICCALL ISZERO DUP1 ISZERO PUSH2 0xC87 JUMPI RETURNDATASIZE PUSH1 0x0 DUP1 RETURNDATACOPY RETURNDATASIZE PUSH1 0x0 REVERT JUMPDEST POP POP POP POP PUSH1 0x40 MLOAD RETURNDATASIZE PUSH1 0x1F NOT PUSH1 0x1F DUP3 ADD AND DUP3 ADD DUP1 PUSH1 0x40 MSTORE POP DUP2 ADD SWAP1 PUSH2 0xCAB SWAP2 SWAP1 PUSH2 0x116F JUMP JUMPDEST SWAP1 POP SWAP1 JUMP JUMPDEST PUSH1 0x0 DUP1 DUP3 PUSH1 0x1 PUSH1 0x1 PUSH1 0xA0 SHL SUB AND DUP5 PUSH1 0x1 PUSH1 0x1 PUSH1 0xA0 SHL SUB AND EQ ISZERO PUSH2 0xD23 JUMPI PUSH1 0x40 MLOAD PUSH3 0x461BCD PUSH1 0xE5 SHL DUP2 MSTORE PUSH1 0x20 PUSH1 0x4 DUP3 ADD MSTORE PUSH1 0x25 PUSH1 0x24 DUP3 ADD MSTORE PUSH32 0x556E697377617056324C6962726172793A204944454E544943414C5F41444452 PUSH1 0x44 DUP3 ADD MSTORE PUSH5 0x4553534553 PUSH1 0xD8 SHL PUSH1 0x64 DUP3 ADD MSTORE PUSH1 0x84 ADD PUSH2 0x1D0 JUMP JUMPDEST DUP3 PUSH1 0x1 PUSH1 0x1 PUSH1 0xA0 SHL SUB AND DUP5 PUSH1 0x1 PUSH1 0x1 PUSH1 0xA0 SHL SUB AND LT PUSH2 0xD43 JUMPI DUP3 DUP5 PUSH2 0xD46 JUMP JUMPDEST DUP4 DUP4 JUMPDEST SWAP1 SWAP3 POP SWAP1 POP PUSH1 0x1 PUSH1 0x1 PUSH1 0xA0 SHL SUB DUP3 AND PUSH2 0xDA1 JUMPI PUSH1 0x40 MLOAD PUSH3 0x461BCD PUSH1 0xE5 SHL DUP2 MSTORE PUSH1 0x20 PUSH1 0x4 DUP3 ADD MSTORE PUSH1 0x1E PUSH1 0x24 DUP3 ADD MSTORE PUSH32 0x556E697377617056324C6962726172793A205A45524F5F414444524553530000 PUSH1 0x44 DUP3 ADD MSTORE PUSH1 0x64 ADD PUSH2 0x1D0 JUMP JUMPDEST SWAP3 POP SWAP3 SWAP1 POP JUMP JUMPDEST PUSH1 0x0 DUP1 PUSH1 0x0 PUSH2 0xDB7 DUP6 DUP6 PUSH2 0xCB0 JUMP JUMPDEST PUSH1 0x40 MLOAD PUSH1 0x1 PUSH1 0x1 PUSH1 0x60 SHL SUB NOT PUSH1 0x60 DUP5 DUP2 SHL DUP3 AND PUSH1 0x20 DUP5 ADD MSTORE DUP4 SWAP1 SHL AND PUSH1 0x34 DUP3 ADD MSTORE SWAP2 SWAP4 POP SWAP2 POP DUP7 SWAP1 PUSH1 0x48 ADD PUSH1 0x40 MLOAD PUSH1 0x20 DUP2 DUP4 SUB SUB DUP2 MSTORE SWAP1 PUSH1 0x40 MSTORE DUP1 MLOAD SWAP1 PUSH1 0x20 ADD KECCAK256 PUSH1 0x40 MLOAD PUSH1 0x20 ADD PUSH2 0xE55 SWAP3 SWAP2 SWAP1 PUSH1 0x1 PUSH1 0x1 PUSH1 0xF8 SHL SUB NOT DUP2 MSTORE PUSH1 0x60 SWAP3 SWAP1 SWAP3 SHL PUSH1 0x1 PUSH1 0x1 PUSH1 0x60 SHL SUB NOT AND PUSH1 0x1 DUP4 ADD MSTORE PUSH1 0x15 DUP3 ADD MSTORE PUSH32 0x96E8AC4277198FF8B6F785478AA9A39F403CB768DD02CBEE326C3E7DA348845F PUSH1 0x35 DUP3 ADD MSTORE PUSH1 0x55 ADD SWAP1 JUMP JUMPDEST PUSH1 0x40 DUP1 MLOAD PUSH1 0x1F NOT DUP2 DUP5 SUB ADD DUP2 MSTORE SWAP2 SWAP1 MSTORE DUP1 MLOAD PUSH1 0x20 SWAP1 SWAP2 ADD KECCAK256 SWAP7 SWAP6 POP POP POP POP POP POP JUMP JUMPDEST PUSH1 0x1 PUSH1 0x1 PUSH1 0xA0 SHL SUB DUP2 AND DUP2 EQ PUSH2 0xE8C JUMPI PUSH1 0x0 DUP1 REVERT JUMPDEST POP JUMP JUMPDEST DUP1 CALLDATALOAD PUSH2 0xE9A DUP2 PUSH2 0xE77 JUMP JUMPDEST SWAP2 SWAP1 POP JUMP JUMPDEST PUSH4 0x4E487B71 PUSH1 0xE0 SHL PUSH1 0x0 MSTORE PUSH1 0x41 PUSH1 0x4 MSTORE PUSH1 0x24 PUSH1 0x0 REVERT JUMPDEST PUSH1 0x40 MLOAD PUSH1 0x1F DUP3 ADD PUSH1 0x1F NOT AND DUP2 ADD PUSH8 0xFFFFFFFFFFFFFFFF DUP2 GT DUP3 DUP3 LT OR ISZERO PUSH2 0xEDE JUMPI PUSH2 0xEDE PUSH2 0xE9F JUMP JUMPDEST PUSH1 0x40 MSTORE SWAP2 SWAP1 POP JUMP JUMPDEST PUSH1 0x0 PUSH8 0xFFFFFFFFFFFFFFFF DUP3 GT ISZERO PUSH2 0xF00 JUMPI PUSH2 0xF00 PUSH2 0xE9F JUMP JUMPDEST POP PUSH1 0x5 SHL PUSH1 0x20 ADD SWAP1 JUMP JUMPDEST PUSH1 0x0 DUP3 PUSH1 0x1F DUP4 ADD SLT PUSH2 0xF1B JUMPI PUSH1 0x0 DUP1 REVERT JUMPDEST DUP2 CALLDATALOAD PUSH1 0x20 PUSH2 0xF30 PUSH2 0xF2B DUP4 PUSH2 0xEE6 JUMP JUMPDEST PUSH2 0xEB5 JUMP JUMPDEST DUP3 DUP2 MSTORE PUSH1 0x5 SWAP3 SWAP1 SWAP3 SHL DUP5 ADD DUP2 ADD SWAP2 DUP2 DUP2 ADD SWAP1 DUP7 DUP5 GT ISZERO PUSH2 0xF4F JUMPI PUSH1 0x0 DUP1 REVERT JUMPDEST DUP3 DUP7 ADD JUMPDEST DUP5 DUP2 LT ISZERO PUSH2 0xF73 JUMPI DUP1 CALLDATALOAD PUSH2 0xF66 DUP2 PUSH2 0xE77 JUMP JUMPDEST DUP4 MSTORE SWAP2 DUP4 ADD SWAP2 DUP4 ADD PUSH2 0xF53 JUMP JUMPDEST POP SWAP7 SWAP6 POP POP POP POP POP POP JUMP JUMPDEST PUSH1 0x0 DUP3 PUSH1 0x1F DUP4 ADD SLT PUSH2 0xF8F JUMPI PUSH1 0x0 DUP1 REVERT JUMPDEST DUP2 CALLDATALOAD PUSH1 0x20 PUSH2 0xF9F PUSH2 0xF2B DUP4 PUSH2 0xEE6 JUMP JUMPDEST DUP3 DUP2 MSTORE PUSH1 0x5 SWAP3 SWAP1 SWAP3 SHL DUP5 ADD DUP2 ADD SWAP2 DUP2 DUP2 ADD SWAP1 DUP7 DUP5 GT ISZERO PUSH2 0xFBE JUMPI PUSH1 0x0 DUP1 REVERT JUMPDEST DUP3 DUP7 ADD JUMPDEST DUP5 DUP2 LT ISZERO PUSH2 0xF73 JUMPI DUP1 CALLDATALOAD DUP4 MSTORE SWAP2 DUP4 ADD SWAP2 DUP4 ADD PUSH2 0xFC2 JUMP JUMPDEST PUSH1 0x0 DUP1 PUSH1 0x0 DUP1 PUSH1 0x0 DUP1 PUSH1 0x0 DUP1 PUSH2 0x100 DUP10 DUP12 SUB SLT ISZERO PUSH2 0xFF6 JUMPI PUSH1 0x0 DUP1 REVERT JUMPDEST PUSH2 0xFFF DUP10 PUSH2 0xE8F JUMP JUMPDEST SWAP8 POP PUSH1 0x20 DUP10 ADD CALLDATALOAD SWAP7 POP PUSH1 0x40 DUP10 ADD CALLDATALOAD SWAP6 POP PUSH1 0x60 DUP10 ADD CALLDATALOAD PUSH8 0xFFFFFFFFFFFFFFFF DUP1 DUP3 GT ISZERO PUSH2 0x102A JUMPI PUSH1 0x0 DUP1 REVERT JUMPDEST PUSH2 0x1036 DUP13 DUP4 DUP14 ADD PUSH2 0xF0A JUMP JUMPDEST SWAP7 POP PUSH2 0x1044 PUSH1 0x80 DUP13 ADD PUSH2 0xE8F JUMP JUMPDEST SWAP6 POP PUSH1 0xA0 DUP12 ADD CALLDATALOAD SWAP5 POP PUSH1 0xC0 DUP12 ADD CALLDATALOAD SWAP2 POP DUP1 DUP3 GT ISZERO PUSH2 0x1061 JUMPI PUSH1 0x0 DUP1 REVERT JUMPDEST PUSH2 0x106D DUP13 DUP4 DUP14 ADD PUSH2 0xF7E JUMP JUMPDEST SWAP4 POP PUSH1 0xE0 DUP12 ADD CALLDATALOAD SWAP2 POP DUP1 DUP3 GT ISZERO PUSH2 0x1083 JUMPI PUSH1 0x0 DUP1 REVERT JUMPDEST POP PUSH2 0x1090 DUP12 DUP3 DUP13 ADD PUSH2 0xF7E JUMP JUMPDEST SWAP2 POP POP SWAP3 SWAP6 SWAP9 POP SWAP3 SWAP6 SWAP9 SWAP1 SWAP4 SWAP7 POP JUMP JUMPDEST PUSH1 0x0 DUP1 PUSH1 0x0 DUP1 PUSH1 0x0 PUSH1 0xA0 DUP7 DUP9 SUB SLT ISZERO PUSH2 0x10B8 JUMPI PUSH1 0x0 DUP1 REVERT JUMPDEST DUP6 CALLDATALOAD PUSH2 0x10C3 DUP2 PUSH2 0xE77 JUMP JUMPDEST SWAP5 POP PUSH1 0x20 DUP7 ADD CALLDATALOAD PUSH2 0x10D3 DUP2 PUSH2 0xE77 JUMP JUMPDEST SWAP4 POP PUSH1 0x40 DUP7 ADD CALLDATALOAD SWAP3 POP PUSH1 0x60 DUP7 ADD CALLDATALOAD PUSH2 0x10EA DUP2 PUSH2 0xE77 JUMP JUMPDEST SWAP2 POP PUSH1 0x80 DUP7 ADD CALLDATALOAD PUSH2 0x10FA DUP2 PUSH2 0xE77 JUMP JUMPDEST DUP1 SWAP2 POP POP SWAP3 SWAP6 POP SWAP3 SWAP6 SWAP1 SWAP4 POP JUMP JUMPDEST PUSH1 0x0 PUSH1 0x20 DUP3 DUP5 SUB SLT ISZERO PUSH2 0x111A JUMPI PUSH1 0x0 DUP1 REVERT JUMPDEST DUP2 MLOAD DUP1 ISZERO ISZERO DUP2 EQ PUSH2 0x112A JUMPI PUSH1 0x0 DUP1 REVERT JUMPDEST SWAP4 SWAP3 POP POP POP JUMP JUMPDEST PUSH32 0x7068616E746F6D2E636F6E74726163742E726567697374657265640000000000 DUP2 MSTORE PUSH1 0x60 SWAP2 SWAP1 SWAP2 SHL PUSH1 0x1 PUSH1 0x1 PUSH1 0x60 SHL SUB NOT AND PUSH1 0x1B DUP3 ADD MSTORE PUSH1 0x2F ADD SWAP1 JUMP JUMPDEST PUSH1 0x0 PUSH1 0x20 DUP3 DUP5 SUB SLT ISZERO PUSH2 0x1181 JUMPI PUSH1 0x0 DUP1 REVERT JUMPDEST DUP2 MLOAD PUSH2 0x112A DUP2 PUSH2 0xE77 JUMP JUMPDEST PUSH4 0x4E487B71 PUSH1 0xE0 SHL PUSH1 0x0 MSTORE PUSH1 0x32 PUSH1 0x4 MSTORE PUSH1 0x24 PUSH1 0x0 REVERT JUMPDEST PUSH1 0x0 PUSH1 0xA0 DUP3 ADD DUP8 DUP4 MSTORE PUSH1 0x20 DUP8 DUP2 DUP6 ADD MSTORE PUSH1 0xA0 PUSH1 0x40 DUP6 ADD MSTORE DUP2 DUP8 MLOAD DUP1 DUP5 MSTORE PUSH1 0xC0 DUP7 ADD SWAP2 POP DUP3 DUP10 ADD SWAP4 POP PUSH1 0x0 JUMPDEST DUP2 DUP2 LT ISZERO PUSH2 0x11F2 JUMPI DUP5 MLOAD PUSH1 0x1 PUSH1 0x1 PUSH1 0xA0 SHL SUB AND DUP4 MSTORE SWAP4 DUP4 ADD SWAP4 SWAP2 DUP4 ADD SWAP2 PUSH1 0x1 ADD PUSH2 0x11CD JUMP JUMPDEST POP POP PUSH1 0x1 PUSH1 0x1 PUSH1 0xA0 SHL SUB SWAP7 SWAP1 SWAP7 AND PUSH1 0x60 DUP6 ADD MSTORE POP POP POP PUSH1 0x80 ADD MSTORE SWAP4 SWAP3 POP POP POP JUMP JUMPDEST PUSH1 0x0 PUSH1 0x20 DUP1 DUP4 DUP6 SUB SLT ISZERO PUSH2 0x1226 JUMPI PUSH1 0x0 DUP1 REVERT JUMPDEST DUP3 MLOAD PUSH8 0xFFFFFFFFFFFFFFFF DUP2 GT ISZERO PUSH2 0x123D JUMPI PUSH1 0x0 DUP1 REVERT JUMPDEST DUP4 ADD PUSH1 0x1F DUP2 ADD DUP6 SGT PUSH2 0x124E JUMPI PUSH1 0x0 DUP1 REVERT JUMPDEST DUP1 MLOAD PUSH2 0x125C PUSH2 0xF2B DUP3 PUSH2 0xEE6 JUMP JUMPDEST DUP2 DUP2 MSTORE PUSH1 0x5 SWAP2 SWAP1 SWAP2 SHL DUP3 ADD DUP4 ADD SWAP1 DUP4 DUP2 ADD SWAP1 DUP8 DUP4 GT ISZERO PUSH2 0x127B JUMPI PUSH1 0x0 DUP1 REVERT JUMPDEST SWAP3 DUP5 ADD SWAP3 JUMPDEST DUP3 DUP5 LT ISZERO PUSH2 0x1299 JUMPI DUP4 MLOAD DUP3 MSTORE SWAP3 DUP5 ADD SWAP3 SWAP1 DUP5 ADD SWAP1 PUSH2 0x1280 JUMP JUMPDEST SWAP8 SWAP7 POP POP POP POP POP POP POP JUMP JUMPDEST PUSH1 0x0 DUP3 DUP3 LT ISZERO PUSH2 0x12C4 JUMPI PUSH4 0x4E487B71 PUSH1 0xE0 SHL PUSH1 0x0 MSTORE PUSH1 0x11 PUSH1 0x4 MSTORE PUSH1 0x24 PUSH1 0x0 REVERT JUMPDEST POP SUB SWAP1 JUMP JUMPDEST PUSH1 0x0 PUSH1 0x20 DUP3 DUP5 SUB SLT ISZERO PUSH2 0x12DB JUMPI PUSH1 0x0 DUP1 REVERT JUMPDEST POP MLOAD SWAP2 SWAP1 POP JUMP JUMPDEST PUSH1 0x0 DUP2 MLOAD DUP1 DUP5 MSTORE PUSH1 0x20 DUP1 DUP6 ADD SWAP5 POP DUP1 DUP5 ADD PUSH1 0x0 JUMPDEST DUP4 DUP2 LT ISZERO PUSH2 0x1312 JUMPI DUP2 MLOAD DUP8 MSTORE SWAP6 DUP3 ADD SWAP6 SWAP1 DUP3 ADD SWAP1 PUSH1 0x1 ADD PUSH2 0x12F6 JUMP JUMPDEST POP SWAP5 SWAP6 SWAP5 POP POP POP POP POP JUMP JUMPDEST PUSH1 0x1 PUSH1 0x1 PUSH1 0xA0 SHL SUB DUP9 DUP2 AND DUP3 MSTORE PUSH1 0x20 DUP3 ADD DUP9 SWAP1 MSTORE DUP7 DUP2 AND PUSH1 0x40 DUP4 ADD MSTORE PUSH1 0x60 DUP3 ADD DUP7 SWAP1 MSTORE DUP5 AND PUSH1 0x80 DUP3 ADD MSTORE PUSH1 0xE0 PUSH1 0xA0 DUP3 ADD DUP2 SWAP1 MSTORE PUSH1 0x0 SWAP1 PUSH2 0x135F SWAP1 DUP4 ADD DUP6 PUSH2 0x12E2 JUMP JUMPDEST DUP3 DUP2 SUB PUSH1 0xC0 DUP5 ADD MSTORE PUSH2 0x1371 DUP2 DUP6 PUSH2 0x12E2 JUMP JUMPDEST SWAP11 SWAP10 POP POP POP POP POP POP POP POP POP POP JUMP JUMPDEST DUP1 MLOAD PUSH1 0x1 PUSH1 0x1 PUSH1 0x70 SHL SUB DUP2 AND DUP2 EQ PUSH2 0xE9A JUMPI PUSH1 0x0 DUP1 REVERT JUMPDEST PUSH1 0x0 DUP1 PUSH1 0x0 PUSH1 0x60 DUP5 DUP7 SUB SLT ISZERO PUSH2 0x13AB JUMPI PUSH1 0x0 DUP1 REVERT JUMPDEST PUSH2 0x13B4 DUP5 PUSH2 0x137F JUMP JUMPDEST SWAP3 POP PUSH2 0x13C2 PUSH1 0x20 DUP6 ADD PUSH2 0x137F JUMP JUMPDEST SWAP2 POP PUSH1 0x40 DUP5 ADD MLOAD PUSH4 0xFFFFFFFF DUP2 AND DUP2 EQ PUSH2 0x13DB JUMPI PUSH1 0x0 DUP1 REVERT JUMPDEST DUP1 SWAP2 POP POP SWAP3 POP SWAP3 POP SWAP3 JUMP JUMPDEST PUSH1 0x0 DUP1 DUP4 SLOAD DUP2 PUSH1 0x1 DUP3 DUP2 SHR SWAP2 POP DUP1 DUP4 AND DUP1 PUSH2 0x1402 JUMPI PUSH1 0x7F DUP4 AND SWAP3 POP JUMPDEST PUSH1 0x20 DUP1 DUP5 LT DUP3 EQ ISZERO PUSH2 0x1422 JUMPI PUSH4 0x4E487B71 PUSH1 0xE0 SHL DUP7 MSTORE PUSH1 0x22 PUSH1 0x4 MSTORE PUSH1 0x24 DUP7 REVERT JUMPDEST DUP2 DUP1 ISZERO PUSH2 0x1436 JUMPI PUSH1 0x1 DUP2 EQ PUSH2 0x1447 JUMPI PUSH2 0x1474 JUMP JUMPDEST PUSH1 0xFF NOT DUP7 AND DUP10 MSTORE DUP5 DUP10 ADD SWAP7 POP PUSH2 0x1474 JUMP JUMPDEST PUSH1 0x0 DUP11 DUP2 MSTORE PUSH1 0x20 SWAP1 KECCAK256 PUSH1 0x0 JUMPDEST DUP7 DUP2 LT ISZERO PUSH2 0x146C JUMPI DUP2 SLOAD DUP12 DUP3 ADD MSTORE SWAP1 DUP6 ADD SWAP1 DUP4 ADD PUSH2 0x1453 JUMP JUMPDEST POP POP DUP5 DUP10 ADD SWAP7 POP JUMPDEST POP SWAP5 SWAP9 SWAP8 POP POP POP POP POP POP POP POP JUMP INVALID LOG2 PUSH5 0x6970667358 0x22 SLT KECCAK256 0xB6 0xC5 SWAP4 DUP4 0x5D MUL 0xAE 0xE8 PUSH25 0xA5682A3130FBDCD94270B3FC6349D6D31837B46FB989CB6473 PUSH16 0x6C634300080A00330000000000000000 ",
  "sha1": "39296be1b2d4e84c659bb0166e48c1b13410e5ba",
  "source": "/* SPDX-License-Identifier: MIT */\npragma solidity =0.8.10;\n\n/* Package Imports */\nimport {PRBMathUD60x18} from \"@hifi-finance/prb-math/contracts/PRBMathUD60x18.sol\";\n\n/* Package Interface Imports */\nimport {IERC20} from \"@openzeppelin/contracts/token/ERC20/IERC20.sol\";\nimport {IUniswapV2Pair} from \"@uniswap/v2-core/contracts/interfaces/IUniswapV2Pair.sol\";\nimport {IUniswapV2Factory} from \"@uniswap/v2-core/contracts/interfaces/IUniswapV2Factory.sol\";\nimport {IUniswapV2Router02} from \"@bonga-bera-capital/uniswap-helper/contracts/interfaces/IUniswapV2Router02.sol\";\n\n/* Internal Imports */\nimport {PhantomStorageMixin} from \"../../../mixins/PhantomStorageMixin.sol\";\n\n/* Internal Interface Imports */\nimport {IPhantomDexRouter} from \"../../../../interfaces/level0/finance/routers/IPhantomDexRouter.sol\";\n\n/**\n * @title PhantomDexRouter\n * @author PhantomDao Team\n * @notice Communicate with a UniSwap dex\n */\ncontract PhantomDexRouter is PhantomStorageMixin, IPhantomDexRouter {\n    using PRBMathUD60x18 for uint256;\n\n    constructor(address storageFactoryAddress) PhantomStorageMixin(storageFactoryAddress) {\n        return;\n    }\n\n    //=================================================================================================================\n    // External Functions\n    //=================================================================================================================\n\n    function getQuote(\n        address dexRouter,\n        address dexFactory,\n        uint256 inAmount,\n        address inToken,\n        address outToken\n    ) external view virtual override returns (uint256) {\n        (uint256 inReserves, uint256 outReserves) = getReserves(dexFactory, inToken, outToken);\n        uint256 quote = IUniswapV2Router02(dexRouter).quote(inAmount, inReserves, outReserves);\n        return (quote);\n    }\n\n    function swapReceiveMinimum(\n        address dexRouter,\n        uint256 inAmount,\n        uint256 minOutAmount,\n        address[] memory path,\n        address toUser,\n        uint256 deadline,\n        bytes32[] memory keys,\n        uint256[] memory percentages\n    ) external virtual override onlyRegisteredContracts {\n        preSwap(inAmount, path[0], keys, percentages);\n        IUniswapV2Router02(dexRouter).swapExactTokensForTokens(inAmount, minOutAmount, path, toUser, deadline);\n        postSwap(path[0], path[path.length - 1], keys, percentages);\n    }\n\n    function swapSpendMaximum(\n        address dexRouter,\n        uint256 outAmount,\n        uint256 maxInAmount,\n        address[] memory path,\n        address toUser,\n        uint256 deadline,\n        bytes32[] memory keys,\n        uint256[] memory percentages\n    ) external virtual override onlyRegisteredContracts {\n        preSwap(maxInAmount, path[0], keys, percentages);\n        IUniswapV2Router02(dexRouter).swapExactTokensForTokensSupportingFeeOnTransferTokens(\n            outAmount,\n            maxInAmount,\n            path,\n            toUser,\n            deadline\n        );\n        postSwap(path[0], path[path.length - 1], keys, percentages);\n    }\n\n    //=================================================================================================================\n    // Internal Functions\n    //=================================================================================================================\n\n    function preSwap(\n        uint256 requiredFunds,\n        address requiredToken,\n        bytes32[] memory keys,\n        uint256[] memory percentages\n    ) internal {\n        PhantomTreasury().swap(address(this), 0, address(0), requiredFunds, requiredToken, keys, percentages);\n    }\n\n    function postSwap(\n        address sentToken,\n        address receivedToken,\n        bytes32[] memory keys,\n        uint256[] memory percentages\n    ) internal {\n        uint256 sentBalance = IERC20(sentToken).balanceOf(address(this));\n        uint256 receivedBalance = IERC20(receivedToken).balanceOf(address(this));\n\n        if (sentBalance != 0) {\n            IERC20(sentToken).approve(address(PhantomTreasury()), sentBalance);\n            PhantomTreasury().swap(\n                address(this),\n                sentBalance,\n                address(PhantomTreasury()),\n                0,\n                address(0),\n                keys,\n                percentages\n            );\n        }\n\n        if (receivedBalance != 0) {\n            IERC20(receivedToken).approve(address(PhantomTreasury()), receivedBalance);\n            PhantomTreasury().swap(\n                address(this),\n                receivedBalance,\n                address(PhantomTreasury()),\n                0,\n                address(0),\n                keys,\n                percentages\n            );\n        }\n    }\n\n    //=================================================================================================================\n    // UniswapV2 Library\n    //=================================================================================================================\n\n    function getReserves(\n        address factory,\n        address tokenA,\n        address tokenB\n    ) internal view returns (uint256 reserveA, uint256 reserveB) {\n        (address token0, ) = sortTokens(tokenA, tokenB);\n        (uint256 reserve0, uint256 reserve1, ) = IUniswapV2Pair(pairFor(factory, tokenA, tokenB)).getReserves();\n        (reserveA, reserveB) = tokenA == token0 ? (reserve0, reserve1) : (reserve1, reserve0);\n    }\n\n    function sortTokens(address tokenA, address tokenB) internal pure returns (address token0, address token1) {\n        require(tokenA != tokenB, \"UniswapV2Library: IDENTICAL_ADDRESSES\");\n        (token0, token1) = tokenA < tokenB ? (tokenA, tokenB) : (tokenB, tokenA);\n        require(token0 != address(0), \"UniswapV2Library: ZERO_ADDRESS\");\n    }\n\n    function pairFor(\n        address factory,\n        address tokenA,\n        address tokenB\n    ) internal pure returns (address pair) {\n        (address token0, address token1) = sortTokens(tokenA, tokenB);\n        pair = address(\n            uint160(\n                uint256(\n                    keccak256(\n                        abi.encodePacked(\n                            hex\"ff\",\n                            factory,\n                            keccak256(abi.encodePacked(token0, token1)),\n                            hex\"96e8ac4277198ff8b6f785478aa9a39f403cb768dd02cbee326c3e7da348845f\" // init code hash\n                        )\n                    )\n                )\n            )\n        );\n    }\n}\n",
  "sourcePath": "contracts/level0/finance/routers/PhantomDexRouter.sol",
  "type": "contract"
}