{
  "abi": [
    {
      "inputs": [
        {
          "internalType": "address[]",
          "name": "twaps_",
          "type": "address[]"
        }
      ],
      "stateMutability": "nonpayable",
      "type": "constructor"
    },
    {
      "inputs": [
        {
          "internalType": "address",
          "name": "token",
          "type": "address"
        },
        {
          "internalType": "uint256",
          "name": "amountIn",
          "type": "uint256"
        }
      ],
      "name": "consult",
      "outputs": [
        {
          "internalType": "uint256",
          "name": "",
          "type": "uint256"
        }
      ],
      "stateMutability": "view",
      "type": "function"
    },
    {
      "inputs": [],
      "name": "update",
      "outputs": [],
      "stateMutability": "nonpayable",
      "type": "function"
    }
  ],
  "bytecode": "608060405234801561001057600080fd5b506040516108fd3803806108fd83398101604081905261002f916100d6565b60005b60005481101561009d5760008282815181106100505761005061019a565b60209081029190910181015182546001810184556000938452919092200180546001600160a01b0319166001600160a01b0390921691909117905580610095816101b0565b915050610032565b50506101d9565b634e487b7160e01b600052604160045260246000fd5b80516001600160a01b03811681146100d157600080fd5b919050565b600060208083850312156100e957600080fd5b82516001600160401b038082111561010057600080fd5b818501915085601f83011261011457600080fd5b815181811115610126576101266100a4565b8060051b604051601f19603f8301168101818110858211171561014b5761014b6100a4565b60405291825284820192508381018501918883111561016957600080fd5b938501935b8285101561018e5761017f856100ba565b8452938501939285019261016e565b98975050505050505050565b634e487b7160e01b600052603260045260246000fd5b60006000198214156101d257634e487b7160e01b600052601160045260246000fd5b5060010190565b610715806101e86000396000f3fe608060405234801561001057600080fd5b50600436106100365760003560e01c80633ddac9531461003b578063a2e6204514610060575b600080fd5b61004e6100493660046104e6565b61006a565b60405190815260200160405180910390f35b61006861043b565b005b60008161007957506000610435565b818360005b60005481101561030a57600080828154811061009c5761009c610512565b6000918252602082200154604051633ddac95360e01b81526001600160a01b0386811660048301526024820188905290911692508290633ddac95390604401602060405180830381865afa1580156100f8573d6000803e3d6000fd5b505050506040513d601f19601f8201168201806040525081019061011c9190610528565b90506000826001600160a01b0316630dfe16816040518163ffffffff1660e01b8152600401602060405180830381865afa15801561015e573d6000803e3d6000fd5b505050506040513d601f19601f820116820180604052508101906101829190610541565b6001600160a01b0316896001600160a01b03161461020157826001600160a01b0316630dfe16816040518163ffffffff1660e01b8152600401602060405180830381865afa1580156101d8573d6000803e3d6000fd5b505050506040513d601f19601f820116820180604052508101906101fc9190610541565b610263565b826001600160a01b031663d21220a76040518163ffffffff1660e01b8152600401602060405180830381865afa15801561023f573d6000803e3d6000fd5b505050506040513d601f19601f820116820180604052508101906102639190610541565b90506000816001600160a01b031663313ce5676040518163ffffffff1660e01b8152600401602060405180830381865afa1580156102a5573d6000803e3d6000fd5b505050506040513d601f19601f820116820180604052508101906102c99190610565565b60ff1690506102d981601261059e565b6102e490600a610699565b6102ee90846106a5565b9650819550505050508080610302906106c4565b91505061007e565b506001600160a01b03811673af319e5789945197e365e7f7fbfc56b130523b33146103925760405162461bcd60e51b815260206004820152602e60248201527f5068616e746f6d426f6e6450726963696e673a206c6173742070616972206d7560448201526d737420626520465241582f50484d60901b606482015260840160405180910390fd5b600080546103a29060019061059e565b815481106103b2576103b2610512565b600091825260209091200154604051633ddac95360e01b81526001600160a01b0383811660048301526024820185905290911690633ddac95390604401602060405180830381865afa15801561040c573d6000803e3d6000fd5b505050506040513d601f19601f820116820180604052508101906104309190610528565b925050505b92915050565b60005b6000548110156104ce576000818154811061045b5761045b610512565b60009182526020822001546040805163a2e6204560e01b815290516001600160a01b039092169263a2e620459260048084019382900301818387803b1580156104a357600080fd5b505af11580156104b7573d6000803e3d6000fd5b5050505080806104c6906106c4565b91505061043e565b50565b6001600160a01b03811681146104ce57600080fd5b600080604083850312156104f957600080fd5b8235610504816104d1565b946020939093013593505050565b634e487b7160e01b600052603260045260246000fd5b60006020828403121561053a57600080fd5b5051919050565b60006020828403121561055357600080fd5b815161055e816104d1565b9392505050565b60006020828403121561057757600080fd5b815160ff8116811461055e57600080fd5b634e487b7160e01b600052601160045260246000fd5b6000828210156105b0576105b0610588565b500390565b600181815b808511156105f05781600019048211156105d6576105d6610588565b808516156105e357918102915b93841c93908002906105ba565b509250929050565b60008261060757506001610435565b8161061457506000610435565b816001811461062a576002811461063457610650565b6001915050610435565b60ff84111561064557610645610588565b50506001821b610435565b5060208310610133831016604e8410600b8410161715610673575081810a610435565b61067d83836105b5565b806000190482111561069157610691610588565b029392505050565b600061055e83836105f8565b60008160001904831182151516156106bf576106bf610588565b500290565b60006000198214156106d8576106d8610588565b506001019056fea2646970667358221220c509ae24d8097e85e0d24b9b15404b5ae43173250d0ccc932cd774def52a803464736f6c634300080a0033",
  "bytecodeSha1": "cf635deb233ce9d13afff4517044681249768a3e",
  "compiler": {
    "evm_version": "istanbul",
    "optimizer": {
      "enabled": true,
      "runs": 200
    },
    "version": "0.8.10+commit.fc410830"
  },
  "contractName": "PhantomBondPricing",
  "language": "Solidity",
  "natspec": {
    "kind": "dev",
    "methods": {},
    "version": 1
  },
  "opcodes": "PUSH1 0x80 PUSH1 0x40 MSTORE CALLVALUE DUP1 ISZERO PUSH2 0x10 JUMPI PUSH1 0x0 DUP1 REVERT JUMPDEST POP PUSH1 0x4 CALLDATASIZE LT PUSH2 0x36 JUMPI PUSH1 0x0 CALLDATALOAD PUSH1 0xE0 SHR DUP1 PUSH4 0x3DDAC953 EQ PUSH2 0x3B JUMPI DUP1 PUSH4 0xA2E62045 EQ PUSH2 0x60 JUMPI JUMPDEST PUSH1 0x0 DUP1 REVERT JUMPDEST PUSH2 0x4E PUSH2 0x49 CALLDATASIZE PUSH1 0x4 PUSH2 0x4E6 JUMP JUMPDEST PUSH2 0x6A JUMP JUMPDEST PUSH1 0x40 MLOAD SWAP1 DUP2 MSTORE PUSH1 0x20 ADD PUSH1 0x40 MLOAD DUP1 SWAP2 SUB SWAP1 RETURN JUMPDEST PUSH2 0x68 PUSH2 0x43B JUMP JUMPDEST STOP JUMPDEST PUSH1 0x0 DUP2 PUSH2 0x79 JUMPI POP PUSH1 0x0 PUSH2 0x435 JUMP JUMPDEST DUP2 DUP4 PUSH1 0x0 JUMPDEST PUSH1 0x0 SLOAD DUP2 LT ISZERO PUSH2 0x30A JUMPI PUSH1 0x0 DUP1 DUP3 DUP2 SLOAD DUP2 LT PUSH2 0x9C JUMPI PUSH2 0x9C PUSH2 0x512 JUMP JUMPDEST PUSH1 0x0 SWAP2 DUP3 MSTORE PUSH1 0x20 DUP3 KECCAK256 ADD SLOAD PUSH1 0x40 MLOAD PUSH4 0x3DDAC953 PUSH1 0xE0 SHL DUP2 MSTORE PUSH1 0x1 PUSH1 0x1 PUSH1 0xA0 SHL SUB DUP7 DUP2 AND PUSH1 0x4 DUP4 ADD MSTORE PUSH1 0x24 DUP3 ADD DUP9 SWAP1 MSTORE SWAP1 SWAP2 AND SWAP3 POP DUP3 SWAP1 PUSH4 0x3DDAC953 SWAP1 PUSH1 0x44 ADD PUSH1 0x20 PUSH1 0x40 MLOAD DUP1 DUP4 SUB DUP2 DUP7 GAS STATICCALL ISZERO DUP1 ISZERO PUSH2 0xF8 JUMPI RETURNDATASIZE PUSH1 0x0 DUP1 RETURNDATACOPY RETURNDATASIZE PUSH1 0x0 REVERT JUMPDEST POP POP POP POP PUSH1 0x40 MLOAD RETURNDATASIZE PUSH1 0x1F NOT PUSH1 0x1F DUP3 ADD AND DUP3 ADD DUP1 PUSH1 0x40 MSTORE POP DUP2 ADD SWAP1 PUSH2 0x11C SWAP2 SWAP1 PUSH2 0x528 JUMP JUMPDEST SWAP1 POP PUSH1 0x0 DUP3 PUSH1 0x1 PUSH1 0x1 PUSH1 0xA0 SHL SUB AND PUSH4 0xDFE1681 PUSH1 0x40 MLOAD DUP2 PUSH4 0xFFFFFFFF AND PUSH1 0xE0 SHL DUP2 MSTORE PUSH1 0x4 ADD PUSH1 0x20 PUSH1 0x40 MLOAD DUP1 DUP4 SUB DUP2 DUP7 GAS STATICCALL ISZERO DUP1 ISZERO PUSH2 0x15E JUMPI RETURNDATASIZE PUSH1 0x0 DUP1 RETURNDATACOPY RETURNDATASIZE PUSH1 0x0 REVERT JUMPDEST POP POP POP POP PUSH1 0x40 MLOAD RETURNDATASIZE PUSH1 0x1F NOT PUSH1 0x1F DUP3 ADD AND DUP3 ADD DUP1 PUSH1 0x40 MSTORE POP DUP2 ADD SWAP1 PUSH2 0x182 SWAP2 SWAP1 PUSH2 0x541 JUMP JUMPDEST PUSH1 0x1 PUSH1 0x1 PUSH1 0xA0 SHL SUB AND DUP10 PUSH1 0x1 PUSH1 0x1 PUSH1 0xA0 SHL SUB AND EQ PUSH2 0x201 JUMPI DUP3 PUSH1 0x1 PUSH1 0x1 PUSH1 0xA0 SHL SUB AND PUSH4 0xDFE1681 PUSH1 0x40 MLOAD DUP2 PUSH4 0xFFFFFFFF AND PUSH1 0xE0 SHL DUP2 MSTORE PUSH1 0x4 ADD PUSH1 0x20 PUSH1 0x40 MLOAD DUP1 DUP4 SUB DUP2 DUP7 GAS STATICCALL ISZERO DUP1 ISZERO PUSH2 0x1D8 JUMPI RETURNDATASIZE PUSH1 0x0 DUP1 RETURNDATACOPY RETURNDATASIZE PUSH1 0x0 REVERT JUMPDEST POP POP POP POP PUSH1 0x40 MLOAD RETURNDATASIZE PUSH1 0x1F NOT PUSH1 0x1F DUP3 ADD AND DUP3 ADD DUP1 PUSH1 0x40 MSTORE POP DUP2 ADD SWAP1 PUSH2 0x1FC SWAP2 SWAP1 PUSH2 0x541 JUMP JUMPDEST PUSH2 0x263 JUMP JUMPDEST DUP3 PUSH1 0x1 PUSH1 0x1 PUSH1 0xA0 SHL SUB AND PUSH4 0xD21220A7 PUSH1 0x40 MLOAD DUP2 PUSH4 0xFFFFFFFF AND PUSH1 0xE0 SHL DUP2 MSTORE PUSH1 0x4 ADD PUSH1 0x20 PUSH1 0x40 MLOAD DUP1 DUP4 SUB DUP2 DUP7 GAS STATICCALL ISZERO DUP1 ISZERO PUSH2 0x23F JUMPI RETURNDATASIZE PUSH1 0x0 DUP1 RETURNDATACOPY RETURNDATASIZE PUSH1 0x0 REVERT JUMPDEST POP POP POP POP PUSH1 0x40 MLOAD RETURNDATASIZE PUSH1 0x1F NOT PUSH1 0x1F DUP3 ADD AND DUP3 ADD DUP1 PUSH1 0x40 MSTORE POP DUP2 ADD SWAP1 PUSH2 0x263 SWAP2 SWAP1 PUSH2 0x541 JUMP JUMPDEST SWAP1 POP PUSH1 0x0 DUP2 PUSH1 0x1 PUSH1 0x1 PUSH1 0xA0 SHL SUB AND PUSH4 0x313CE567 PUSH1 0x40 MLOAD DUP2 PUSH4 0xFFFFFFFF AND PUSH1 0xE0 SHL DUP2 MSTORE PUSH1 0x4 ADD PUSH1 0x20 PUSH1 0x40 MLOAD DUP1 DUP4 SUB DUP2 DUP7 GAS STATICCALL ISZERO DUP1 ISZERO PUSH2 0x2A5 JUMPI RETURNDATASIZE PUSH1 0x0 DUP1 RETURNDATACOPY RETURNDATASIZE PUSH1 0x0 REVERT JUMPDEST POP POP POP POP PUSH1 0x40 MLOAD RETURNDATASIZE PUSH1 0x1F NOT PUSH1 0x1F DUP3 ADD AND DUP3 ADD DUP1 PUSH1 0x40 MSTORE POP DUP2 ADD SWAP1 PUSH2 0x2C9 SWAP2 SWAP1 PUSH2 0x565 JUMP JUMPDEST PUSH1 0xFF AND SWAP1 POP PUSH2 0x2D9 DUP2 PUSH1 0x12 PUSH2 0x59E JUMP JUMPDEST PUSH2 0x2E4 SWAP1 PUSH1 0xA PUSH2 0x699 JUMP JUMPDEST PUSH2 0x2EE SWAP1 DUP5 PUSH2 0x6A5 JUMP JUMPDEST SWAP7 POP DUP2 SWAP6 POP POP POP POP POP DUP1 DUP1 PUSH2 0x302 SWAP1 PUSH2 0x6C4 JUMP JUMPDEST SWAP2 POP POP PUSH2 0x7E JUMP JUMPDEST POP PUSH1 0x1 PUSH1 0x1 PUSH1 0xA0 SHL SUB DUP2 AND PUSH20 0xAF319E5789945197E365E7F7FBFC56B130523B33 EQ PUSH2 0x392 JUMPI PUSH1 0x40 MLOAD PUSH3 0x461BCD PUSH1 0xE5 SHL DUP2 MSTORE PUSH1 0x20 PUSH1 0x4 DUP3 ADD MSTORE PUSH1 0x2E PUSH1 0x24 DUP3 ADD MSTORE PUSH32 0x5068616E746F6D426F6E6450726963696E673A206C6173742070616972206D75 PUSH1 0x44 DUP3 ADD MSTORE PUSH14 0x737420626520465241582F50484D PUSH1 0x90 SHL PUSH1 0x64 DUP3 ADD MSTORE PUSH1 0x84 ADD PUSH1 0x40 MLOAD DUP1 SWAP2 SUB SWAP1 REVERT JUMPDEST PUSH1 0x0 DUP1 SLOAD PUSH2 0x3A2 SWAP1 PUSH1 0x1 SWAP1 PUSH2 0x59E JUMP JUMPDEST DUP2 SLOAD DUP2 LT PUSH2 0x3B2 JUMPI PUSH2 0x3B2 PUSH2 0x512 JUMP JUMPDEST PUSH1 0x0 SWAP2 DUP3 MSTORE PUSH1 0x20 SWAP1 SWAP2 KECCAK256 ADD SLOAD PUSH1 0x40 MLOAD PUSH4 0x3DDAC953 PUSH1 0xE0 SHL DUP2 MSTORE PUSH1 0x1 PUSH1 0x1 PUSH1 0xA0 SHL SUB DUP4 DUP2 AND PUSH1 0x4 DUP4 ADD MSTORE PUSH1 0x24 DUP3 ADD DUP6 SWAP1 MSTORE SWAP1 SWAP2 AND SWAP1 PUSH4 0x3DDAC953 SWAP1 PUSH1 0x44 ADD PUSH1 0x20 PUSH1 0x40 MLOAD DUP1 DUP4 SUB DUP2 DUP7 GAS STATICCALL ISZERO DUP1 ISZERO PUSH2 0x40C JUMPI RETURNDATASIZE PUSH1 0x0 DUP1 RETURNDATACOPY RETURNDATASIZE PUSH1 0x0 REVERT JUMPDEST POP POP POP POP PUSH1 0x40 MLOAD RETURNDATASIZE PUSH1 0x1F NOT PUSH1 0x1F DUP3 ADD AND DUP3 ADD DUP1 PUSH1 0x40 MSTORE POP DUP2 ADD SWAP1 PUSH2 0x430 SWAP2 SWAP1 PUSH2 0x528 JUMP JUMPDEST SWAP3 POP POP POP JUMPDEST SWAP3 SWAP2 POP POP JUMP JUMPDEST PUSH1 0x0 JUMPDEST PUSH1 0x0 SLOAD DUP2 LT ISZERO PUSH2 0x4CE JUMPI PUSH1 0x0 DUP2 DUP2 SLOAD DUP2 LT PUSH2 0x45B JUMPI PUSH2 0x45B PUSH2 0x512 JUMP JUMPDEST PUSH1 0x0 SWAP2 DUP3 MSTORE PUSH1 0x20 DUP3 KECCAK256 ADD SLOAD PUSH1 0x40 DUP1 MLOAD PUSH4 0xA2E62045 PUSH1 0xE0 SHL DUP2 MSTORE SWAP1 MLOAD PUSH1 0x1 PUSH1 0x1 PUSH1 0xA0 SHL SUB SWAP1 SWAP3 AND SWAP3 PUSH4 0xA2E62045 SWAP3 PUSH1 0x4 DUP1 DUP5 ADD SWAP4 DUP3 SWAP1 SUB ADD DUP2 DUP4 DUP8 DUP1 EXTCODESIZE ISZERO DUP1 ISZERO PUSH2 0x4A3 JUMPI PUSH1 0x0 DUP1 REVERT JUMPDEST POP GAS CALL ISZERO DUP1 ISZERO PUSH2 0x4B7 JUMPI RETURNDATASIZE PUSH1 0x0 DUP1 RETURNDATACOPY RETURNDATASIZE PUSH1 0x0 REVERT JUMPDEST POP POP POP POP DUP1 DUP1 PUSH2 0x4C6 SWAP1 PUSH2 0x6C4 JUMP JUMPDEST SWAP2 POP POP PUSH2 0x43E JUMP JUMPDEST POP JUMP JUMPDEST PUSH1 0x1 PUSH1 0x1 PUSH1 0xA0 SHL SUB DUP2 AND DUP2 EQ PUSH2 0x4CE JUMPI PUSH1 0x0 DUP1 REVERT JUMPDEST PUSH1 0x0 DUP1 PUSH1 0x40 DUP4 DUP6 SUB SLT ISZERO PUSH2 0x4F9 JUMPI PUSH1 0x0 DUP1 REVERT JUMPDEST DUP3 CALLDATALOAD PUSH2 0x504 DUP2 PUSH2 0x4D1 JUMP JUMPDEST SWAP5 PUSH1 0x20 SWAP4 SWAP1 SWAP4 ADD CALLDATALOAD SWAP4 POP POP POP JUMP JUMPDEST PUSH4 0x4E487B71 PUSH1 0xE0 SHL PUSH1 0x0 MSTORE PUSH1 0x32 PUSH1 0x4 MSTORE PUSH1 0x24 PUSH1 0x0 REVERT JUMPDEST PUSH1 0x0 PUSH1 0x20 DUP3 DUP5 SUB SLT ISZERO PUSH2 0x53A JUMPI PUSH1 0x0 DUP1 REVERT JUMPDEST POP MLOAD SWAP2 SWAP1 POP JUMP JUMPDEST PUSH1 0x0 PUSH1 0x20 DUP3 DUP5 SUB SLT ISZERO PUSH2 0x553 JUMPI PUSH1 0x0 DUP1 REVERT JUMPDEST DUP2 MLOAD PUSH2 0x55E DUP2 PUSH2 0x4D1 JUMP JUMPDEST SWAP4 SWAP3 POP POP POP JUMP JUMPDEST PUSH1 0x0 PUSH1 0x20 DUP3 DUP5 SUB SLT ISZERO PUSH2 0x577 JUMPI PUSH1 0x0 DUP1 REVERT JUMPDEST DUP2 MLOAD PUSH1 0xFF DUP2 AND DUP2 EQ PUSH2 0x55E JUMPI PUSH1 0x0 DUP1 REVERT JUMPDEST PUSH4 0x4E487B71 PUSH1 0xE0 SHL PUSH1 0x0 MSTORE PUSH1 0x11 PUSH1 0x4 MSTORE PUSH1 0x24 PUSH1 0x0 REVERT JUMPDEST PUSH1 0x0 DUP3 DUP3 LT ISZERO PUSH2 0x5B0 JUMPI PUSH2 0x5B0 PUSH2 0x588 JUMP JUMPDEST POP SUB SWAP1 JUMP JUMPDEST PUSH1 0x1 DUP2 DUP2 JUMPDEST DUP1 DUP6 GT ISZERO PUSH2 0x5F0 JUMPI DUP2 PUSH1 0x0 NOT DIV DUP3 GT ISZERO PUSH2 0x5D6 JUMPI PUSH2 0x5D6 PUSH2 0x588 JUMP JUMPDEST DUP1 DUP6 AND ISZERO PUSH2 0x5E3 JUMPI SWAP2 DUP2 MUL SWAP2 JUMPDEST SWAP4 DUP5 SHR SWAP4 SWAP1 DUP1 MUL SWAP1 PUSH2 0x5BA JUMP JUMPDEST POP SWAP3 POP SWAP3 SWAP1 POP JUMP JUMPDEST PUSH1 0x0 DUP3 PUSH2 0x607 JUMPI POP PUSH1 0x1 PUSH2 0x435 JUMP JUMPDEST DUP2 PUSH2 0x614 JUMPI POP PUSH1 0x0 PUSH2 0x435 JUMP JUMPDEST DUP2 PUSH1 0x1 DUP2 EQ PUSH2 0x62A JUMPI PUSH1 0x2 DUP2 EQ PUSH2 0x634 JUMPI PUSH2 0x650 JUMP JUMPDEST PUSH1 0x1 SWAP2 POP POP PUSH2 0x435 JUMP JUMPDEST PUSH1 0xFF DUP5 GT ISZERO PUSH2 0x645 JUMPI PUSH2 0x645 PUSH2 0x588 JUMP JUMPDEST POP POP PUSH1 0x1 DUP3 SHL PUSH2 0x435 JUMP JUMPDEST POP PUSH1 0x20 DUP4 LT PUSH2 0x133 DUP4 LT AND PUSH1 0x4E DUP5 LT PUSH1 0xB DUP5 LT AND OR ISZERO PUSH2 0x673 JUMPI POP DUP2 DUP2 EXP PUSH2 0x435 JUMP JUMPDEST PUSH2 0x67D DUP4 DUP4 PUSH2 0x5B5 JUMP JUMPDEST DUP1 PUSH1 0x0 NOT DIV DUP3 GT ISZERO PUSH2 0x691 JUMPI PUSH2 0x691 PUSH2 0x588 JUMP JUMPDEST MUL SWAP4 SWAP3 POP POP POP JUMP JUMPDEST PUSH1 0x0 PUSH2 0x55E DUP4 DUP4 PUSH2 0x5F8 JUMP JUMPDEST PUSH1 0x0 DUP2 PUSH1 0x0 NOT DIV DUP4 GT DUP3 ISZERO ISZERO AND ISZERO PUSH2 0x6BF JUMPI PUSH2 0x6BF PUSH2 0x588 JUMP JUMPDEST POP MUL SWAP1 JUMP JUMPDEST PUSH1 0x0 PUSH1 0x0 NOT DUP3 EQ ISZERO PUSH2 0x6D8 JUMPI PUSH2 0x6D8 PUSH2 0x588 JUMP JUMPDEST POP PUSH1 0x1 ADD SWAP1 JUMP INVALID LOG2 PUSH5 0x6970667358 0x22 SLT KECCAK256 0xC5 MULMOD 0xAE 0x24 0xD8 MULMOD PUSH31 0x85E0D24B9B15404B5AE43173250D0CCC932CD774DEF52A803464736F6C6343 STOP ADDMOD EXP STOP CALLER ",
  "sha1": "c068fe3c4454c16e3ab485d81dd49b32e4969df8",
  "source": "/* SPDX-License-Identifier: MIT */\npragma solidity =0.8.10;\n\n\nimport {IPhantomTWAP} from \"../../interfaces/core/IPhantomTWAP.sol\";\nimport {PhantomTWAP} from \"./PhantomTWAP.sol\";\n\ninterface IERC20 {\n    function decimals() external view returns(uint8);\n}\n\ncontract PhantomBondPricing is IPhantomTWAP {\n\n    PhantomTWAP[] private twaps;\n\n    address constant FRAX = 0xaf319E5789945197e365E7f7fbFc56B130523B33;\n    \n    constructor(address[] memory twaps_) public {\n        for (uint i = 0; i < twaps.length; i++) {\n            twaps.push(PhantomTWAP(twaps_[i]));\n        }\n    }\n\n    function update() external override {\n        for (uint i = 0; i < twaps.length; i++) {\n            twaps[i].update();\n        }\n    }\n\n    // note this will always return 0 before update has been called successfully for the first time.\n    function consult(address token, uint amountIn) external view override returns (uint) {\n        if (amountIn == 0) return 0;\n\n        uint256 currentAmount = amountIn;\n        address currentToken = token;\n\n        // Pretty (super) Ghetto. Assumes there is matching sides for each step of the path. \n        // EG: gOMH/wFTM > wFTM/FRAX > FRAX/PHM (last pair must be FRAX/PHM)\n        // TODO: unghetto this whole thing\n        for (uint256 i; i < twaps.length; i++) {\n            PhantomTWAP twap = twaps[i];\n            uint256 outAmount = twap.consult(currentToken, currentAmount);\n            address outToken = token == twap.token0()  ? twap.token1() : twap.token0();\n            uint256 outDecimals = IERC20(outToken).decimals();\n\n            // check decimal places\n            currentAmount = outAmount * 10**(18 - outDecimals); // Pad to Match 18 FRAX decimals if needed\n            currentToken = outToken;\n        }\n\n        require(currentToken == FRAX, \"PhantomBondPricing: last pair must be FRAX/PHM\");\n\n        return twaps[twaps.length-1].consult(currentToken, currentAmount);\n    }\n}\n",
  "sourcePath": "contracts/core/PhantomBondPricing.sol",
  "type": "contract"
}