{
  "abi": [
    {
      "inputs": [
        {
          "internalType": "address",
          "name": "storageAddress",
          "type": "address"
        }
      ],
      "stateMutability": "nonpayable",
      "type": "constructor"
    },
    {
      "inputs": [
        {
          "internalType": "uint256",
          "name": "x",
          "type": "uint256"
        }
      ],
      "name": "PRBMathUD60x18__FromUintOverflow",
      "type": "error"
    },
    {
      "inputs": [
        {
          "internalType": "uint256",
          "name": "prod1",
          "type": "uint256"
        }
      ],
      "name": "PRBMath__MulDivFixedPointOverflow",
      "type": "error"
    },
    {
      "inputs": [
        {
          "internalType": "uint256",
          "name": "prod1",
          "type": "uint256"
        },
        {
          "internalType": "uint256",
          "name": "denominator",
          "type": "uint256"
        }
      ],
      "name": "PRBMath__MulDivOverflow",
      "type": "error"
    },
    {
      "inputs": [],
      "name": "PhantomBondingError_ExceedsDebtLimit",
      "type": "error"
    },
    {
      "inputs": [
        {
          "internalType": "address",
          "name": "inToken",
          "type": "address"
        }
      ],
      "name": "PhantomBondingError_IsNotValidBondingToken",
      "type": "error"
    },
    {
      "inputs": [
        {
          "internalType": "address",
          "name": "contractAddress",
          "type": "address"
        }
      ],
      "name": "PhantomStorageMixin__ContractNotFoundByAddressOrIsOutdated",
      "type": "error"
    },
    {
      "inputs": [
        {
          "internalType": "bytes32",
          "name": "contractName",
          "type": "bytes32"
        }
      ],
      "name": "PhantomStorageMixin__ContractNotFoundByNameOrIsOutdated",
      "type": "error"
    },
    {
      "inputs": [
        {
          "internalType": "address",
          "name": "user",
          "type": "address"
        }
      ],
      "name": "PhantomStorageMixin__UserIsNotGuardian",
      "type": "error"
    },
    {
      "anonymous": false,
      "inputs": [
        {
          "indexed": false,
          "internalType": "address",
          "name": "forUser",
          "type": "address"
        },
        {
          "indexed": false,
          "internalType": "uint256",
          "name": "payout",
          "type": "uint256"
        },
        {
          "indexed": false,
          "internalType": "uint256",
          "name": "nonce",
          "type": "uint256"
        }
      ],
      "name": "PhantomBonding_BondCreated",
      "type": "event"
    },
    {
      "anonymous": false,
      "inputs": [
        {
          "indexed": false,
          "internalType": "address",
          "name": "forUser",
          "type": "address"
        },
        {
          "indexed": false,
          "internalType": "uint256",
          "name": "payout",
          "type": "uint256"
        },
        {
          "indexed": false,
          "internalType": "uint256",
          "name": "nonce",
          "type": "uint256"
        }
      ],
      "name": "PhantomBonding_BondRedeemed",
      "type": "event"
    },
    {
      "inputs": [
        {
          "internalType": "address",
          "name": "inUser",
          "type": "address"
        },
        {
          "internalType": "uint256",
          "name": "inAmount",
          "type": "uint256"
        },
        {
          "internalType": "address",
          "name": "inToken",
          "type": "address"
        },
        {
          "internalType": "bytes",
          "name": "inBondType",
          "type": "bytes"
        }
      ],
      "name": "createBond",
      "outputs": [
        {
          "internalType": "uint256",
          "name": "",
          "type": "uint256"
        }
      ],
      "stateMutability": "nonpayable",
      "type": "function"
    },
    {
      "inputs": [
        {
          "internalType": "address",
          "name": "inBonder",
          "type": "address"
        }
      ],
      "name": "lowestNonceAssignable",
      "outputs": [
        {
          "internalType": "uint256",
          "name": "",
          "type": "uint256"
        }
      ],
      "stateMutability": "view",
      "type": "function"
    },
    {
      "inputs": [
        {
          "internalType": "address",
          "name": "inBonder",
          "type": "address"
        }
      ],
      "name": "lowestNonceStillVesting",
      "outputs": [
        {
          "internalType": "uint256",
          "name": "",
          "type": "uint256"
        }
      ],
      "stateMutability": "view",
      "type": "function"
    },
    {
      "inputs": [
        {
          "internalType": "address",
          "name": "inUser",
          "type": "address"
        },
        {
          "internalType": "bool",
          "name": "autoStake",
          "type": "bool"
        }
      ],
      "name": "redeemBonds",
      "outputs": [
        {
          "internalType": "uint256",
          "name": "",
          "type": "uint256"
        }
      ],
      "stateMutability": "nonpayable",
      "type": "function"
    },
    {
      "inputs": [
        {
          "internalType": "address",
          "name": "user",
          "type": "address"
        },
        {
          "internalType": "uint256",
          "name": "rewardForDeposit",
          "type": "uint256"
        }
      ],
      "name": "safeToBond",
      "outputs": [
        {
          "internalType": "bool",
          "name": "",
          "type": "bool"
        }
      ],
      "stateMutability": "view",
      "type": "function"
    }
  ],
  "bytecode": "601260e08181527139b2b1bab934ba3c9730b2323932b9b9b7b360711b6101009081526080918252600d6101209081526c73656375726974792e6e616d6560981b6101405260a0526101a060405260136101609081527f73656375726974792e72656769737465726564000000000000000000000000006101805260c0529091600091620000909183919062001332565b506020828101518051620000ab926001850192019062001332565b5060408201518051620000c991600284019160209091019062001332565b50506040805161032081018252601b6102e082019081527f7068616e746f6d2e636f6e7472616374732e616c706861737761700000000000610300830152610100820190815282518084018452601a8082527f7068616e746f6d2e636f6e7472616374732e666f756e646572730000000000006020838101919091526101208501929092528451808601865260198082527f7068616e746f6d2e636f6e7472616374732e7374616b696e67000000000000008285015261014086019190915285518087018752601f81527f7068616e746f6d2e636f6e7472616374732e7374616b696e677761726d75700081850152610160860152855180870187529081527f7068616e746f6d2e636f6e7472616374732e626f6e64696e67000000000000008184015261018085015284518086018652601581527f7068616e746f6d2e636f6e7472616374732e70686d0000000000000000000000818401526101a08501528451808601865260168082527f7068616e746f6d2e636f6e7472616374732e7370686d00000000000000000000828501526101c0860191909152855180870187528181527f7068616e746f6d2e636f6e7472616374732e6770686d00000000000000000000818501526101e0860152855180870187528181527f7068616e746f6d2e636f6e7472616374732e6170686d0000000000000000000081850152610200860152855180870187529081527f7068616e746f6d2e636f6e7472616374732e6670686d000000000000000000008184015261022085015284518086018652601781527f7068616e746f6d2e636f6e7472616374732e7661756c7400000000000000000081840152610240850152845180860186528181527f7068616e746f6d2e636f6e7472616374732e74726561737572790000000000008184015261026085015284518086018652601c81527f7068616e746f6d2e636f6e7472616374732e6465785f726f75746572000000008184015261028085015284518086018652601e81527f7068616e746f6d2e636f6e7472616374732e796561726e5f726f757465720000818401526102a0850152845180860186529081527f7068616e746f6d2e636f6e7472616374732e6578656375746f72000000000000818301526102c0840152908252825160c08101909352602a6060840181815292945090840192918291620032e76080840139815260200160405180606001604052806040518060600160405280602b81526020016200326c602b913981526020016040518060400160405280602081526020017f7068616e746f6d2e74726561737572792e6163636f756e745f6b65792e64616f8152508152602001604051806060016040528060258152602001620033d56025913990528152604080518082018252601981527f7068616e746f6d2e74726561737572792e62616c616e636573000000000000006020828101919091529283015291835281516101c0810190925260246101608301818152938201938392830191829160c085019182919062003202610180880139815260200160405180606001604052806025815260200162003444602591398152602001604051806060016040528060248152602001620033fa6024913981526020016040518060600160405280602b815260200162003297602b913981526020016040518060600160405280602481526020016200346960249139815250815260200160405180606001604052806025815260200162003361602591398152602001604051806060016040528060298152602001620033ac6029913981526020016040518060400160405280601b81526020017f7068616e746f6d2e616c6c6f6361746f722e746f6b656e732e6c70000000000081525081526020016040518060400160405280601f81526020017f7068616e746f6d2e616c6c6f6361746f722e746f6b656e732e73696e676c6500815250815250815250815260200160405180610100016040528060405180604001604052806040518060400160405280601a81526020017f7068616e746f6d2e626f6e64696e672e757365722e6e6f6e636500000000000081525081526020016040518060600160405280602b815260200162003311602b913981525081526020016040518060400160405280601d81526020017f7068616e746f6d2e626f6e64696e672e76657374696e67626c6f636b7300000081525081526020016040518060400160405280601c81526020017f7068616e746f6d2e626f6e64696e672e70726f6669745f726174696f0000000081525081526020016040518060400160405280601881526020017f7068616e746f6d2e626f6e64696e672e646973636f756e74000000000000000081525081526020016040518060400160405280601b81526020017f7068616e746f6d2e626f6e64696e672e69735f72656465656d6564000000000081525081526020016040518060400160405280601681526020017f7068616e746f6d2e626f6e64696e672e7061796f75740000000000000000000081525081526020016040518060400160405280601e81526020017f7068616e746f6d2e626f6e64696e672e76657374735f61745f626c6f636b000081525081526020016040518060400160405280601881526020017f7068616e746f6d2e626f6e64696e672e69735f76616c69640000000000000000815250815250815260200160405180604001604052806040518060400160405280601d81526020017f7068616e746f6d2e7374616b696e672e726562617365436f756e7465720000008152508152602001604051806060016040528060228152602001620035386022913990528152604080516101408101909152602160e08201818152602090930192829160608301918291620034b1610100860139815260200160405180606001604052806024815260200162003248602491398152602001604051806060016040528060268152602001620031dc60269139815260408051808201825260208082527f7068616e746f6d2e666f756e6465722e636c61696d732e6c617374436c61696d828201529283015291835281516060810183528082018281527f7068616e746f6d2e666f756e6465722e6368616e6765732e6e65774f776e65728285015281528382015281518083018352601d81527f7068616e746f6d2e666f756e6465722e76657374696e675374617274730000008183015292820192909252918352815161016081019092526022610100830181815293909101928291620032266101208401398152602001604051806060016040528060238152602001620034d26023913981526020016040518060600160405280602581526020016200333c60259139815260200160405180606001604052806026815260200162003386602691398152602001604051806060016040528060258152602001620032c26025913981526020016040518060600160405280602681526020016200341e6026913981526020016040518060600160405280602481526020016200348d6024913981526020016040518060600160405280602a81526020016200355a602a9139815250815260200160405180608001604052806040518060400160405280601c81526020017f7068616e746f6d2e676f7665726e6f722e766f74696e6744656c61790000000081525081526020016040518060400160405280601d81526020017f7068616e746f6d2e676f7665726e6f722e766f74696e67506572696f640000008152508152602001604051806060016040528060218152602001620034f560219139815260200160405180606001604052806022815260200162003516602291399052905280518051805160039291839162000be191839160209091019062001332565b50602082810151805162000bfc926001850192019062001332565b506040820151805162000c1a91600284019160209091019062001332565b506060820151805162000c3891600384019160209091019062001332565b506080820151805162000c5691600484019160209091019062001332565b5060a0820151805162000c7491600584019160209091019062001332565b5060c0820151805162000c9291600684019160209091019062001332565b5060e0820151805162000cb091600784019160209091019062001332565b50610100820151805162000ccf91600884019160209091019062001332565b50610120820151805162000cee91600984019160209091019062001332565b50610140820151805162000d0d91600a84019160209091019062001332565b50610160820151805162000d2c91600b84019160209091019062001332565b50610180820151805162000d4b91600c84019160209091019062001332565b506101a0820151805162000d6a91600d84019160209091019062001332565b506101c0820151805162000d8991600e84019160209091019062001332565b505050602082810151805180519192600f85019262000dac928492019062001332565b50602082810151805180519192600185019262000dcd928492019062001332565b50602082810151805162000de8926001850192019062001332565b506040820151805162000e0691600284019160209091019062001332565b5050506040820151805162000e2691600484019160209091019062001332565b5050506040820151805180518051805160148601939284929091839162000e539183916020019062001332565b50602082810151805162000e6e926001850192019062001332565b506040820151805162000e8c91600284019160209091019062001332565b506060820151805162000eaa91600384019160209091019062001332565b506080820151805162000ec891600484019160209091019062001332565b505050602082810151805162000ee5926005850192019062001332565b506040820151805162000f0391600684019160209091019062001332565b506060820151805162000f2191600784019160209091019062001332565b506080820151805162000f3f91600884019160209091019062001332565b505050506060830151805180518051929350601d850192839162000f699183916020019062001332565b50602082810151805162000f84926001850192019062001332565b505050602082810151805162000fa1926002850192019062001332565b506040820151805162000fbf91600384019160209091019062001332565b506060820151805162000fdd91600484019160209091019062001332565b506080820151805162000ffb91600584019160209091019062001332565b5060a082015180516200101991600684019160209091019062001332565b5060c082015180516200103791600784019160209091019062001332565b5060e082015180516200105591600884019160209091019062001332565b5050506080820151805180516026840191620010779183916020019062001332565b50602082810151805162001092926001850192019062001332565b50505060a08201518051805180516028850192918391620010bb91839160209091019062001332565b506020828101518051620010d6926001850192019062001332565b5060408201518051620010f491600284019160209091019062001332565b50606082015180516200111291600384019160209091019062001332565b505050602082810151805180519192600485019262001135928492019062001332565b505050604082015180516200115591600584019160209091019062001332565b50505060c082015180518051602e840191620011779183916020019062001332565b50602082810151805162001192926001850192019062001332565b5060408201518051620011b091600284019160209091019062001332565b5060608201518051620011ce91600384019160209091019062001332565b5060808201518051620011ec91600484019160209091019062001332565b5060a082015180516200120a91600584019160209091019062001332565b5060c082015180516200122891600684019160209091019062001332565b5060e082015180516200124691600784019160209091019062001332565b50505060e0820151805180516036840191620012689183916020019062001332565b50602082810151805162001283926001850192019062001332565b5060408201518051620012a191600284019160209091019062001332565b5060608201518051620012bf91600384019160209091019062001332565b50505050506d7068616e746f6d53746f7261676560901b603f55348015620012e657600080fd5b5060405162003584380380620035848339810160408190526200130991620013d8565b6001603d55603e80546001600160a01b0383166001600160a01b03199091161790555062001447565b82805462001340906200140a565b90600052602060002090601f016020900481019282620013645760008555620013af565b82601f106200137f57805160ff1916838001178555620013af565b82800160010185558215620013af579182015b82811115620013af57825182559160200191906001019062001392565b50620013bd929150620013c1565b5090565b5b80821115620013bd5760008155600101620013c2565b600060208284031215620013eb57600080fd5b81516001600160a01b03811681146200140357600080fd5b9392505050565b600181811c908216806200141f57607f821691505b602082108114156200144157634e487b7160e01b600052602260045260246000fd5b50919050565b611d8580620014576000396000f3fe608060405234801561001057600080fd5b50600436106100575760003560e01c806316d2e2731461005c578063256fbf931461008457806381352d6e146100a5578063b8ea4a13146100b8578063d5d60d63146100cb575b600080fd5b61006f61006a3660046117bc565b6100de565b60405190151581526020015b60405180910390f35b6100976100923660046117e8565b610315565b60405190815260200161007b565b6100976100b3366004611813565b61040e565b6100976100c636600461184c565b610600565b6100976100d93660046117e8565b6107ff565b60006100e8610832565b6001600160a01b03166301ba79116040518163ffffffff1660e01b8152600401602060405180830381865afa158015610125573d6000803e3d6000fd5b505050506040513d601f19601f8201168201806040525081019061014991906118eb565b82610152610832565b60405163acc9d9df60e01b81526001600160a01b038781166004830152919091169063acc9d9df90602401602060405180830381865afa15801561019a573d6000803e3d6000fd5b505050506040513d601f19601f820116820180604052508101906101be91906118eb565b6101c8919061191a565b11156101d65750600061030f565b60006101ea603e546001600160a01b031690565b60405163bd02d0f560e01b81527f4c0ab503e4a10b4d35a4531a716b2bf7e03b8f828a21472aa24161ea45b085c560048201526001600160a01b03919091169063bd02d0f590602401602060405180830381865afa158015610250573d6000803e3d6000fd5b505050506040513d601f19601f8201168201806040525081019061027491906118eb565b9050806102fc610282610832565b6001600160a01b03166318160ddd6040518163ffffffff1660e01b8152600401602060405180830381865afa1580156102bf573d6000803e3d6000fd5b505050506040513d601f19601f820116820180604052508101906102e391906118eb565b856102ec6108d1565b6102f6919061191a565b90610970565b1161030857600161030b565b60005b9150505b92915050565b6000610329603e546001600160a01b031690565b6001600160a01b031663bd02d0f58360405160200161039991907f7068616e746f6d2e626f6e64696e672e757365722e6c6f776573745f6e6f6e6381526e655f7374696c6c5f76657374696e6760881b602082015260609190911b6001600160601b031916602f82015260430190565b604051602081830303815290604052805190602001206040518263ffffffff1660e01b81526004016103cd91815260200190565b602060405180830381865afa1580156103ea573d6000803e3d6000fd5b505050506040513d601f19601f8201168201806040525081019061030f91906118eb565b60006002603d5414156104685760405162461bcd60e51b815260206004820152601f60248201527f5265656e7472616e637947756172643a207265656e7472616e742063616c6c0060448201526064015b60405180910390fd5b6002603d55600080610479856107ff565b9050600061048686610315565b90505b818110156104b7576104a6868261049f81611932565b935061098c565b6104b0908461191a565b9250610489565b8415610561576104c5610d3b565b6001600160a01b031663c41ac8cf87856104dd610832565b876104e6610d72565b60405160e087901b6001600160e01b03191681526001600160a01b039586166004820152602481019490945291841660448401526064830152909116608482015260a401600060405180830381600087803b15801561054457600080fd5b505af1158015610558573d6000803e3d6000fd5b505050506105e9565b610569610d3b565b6001600160a01b031663a39710478760008087610584610832565b61058c610da9565b610594610e09565b6040518863ffffffff1660e01b81526004016105b69796959493929190611988565b600060405180830381600087803b1580156105d057600080fd5b505af11580156105e4573d6000803e3d6000fd5b505050505b6105f283610e4b565b50506001603d559392505050565b60006002603d5414156106555760405162461bcd60e51b815260206004820152601f60248201527f5265656e7472616e637947756172643a207265656e7472616e742063616c6c00604482015260640161045f565b6002603d5561066384610ed3565b61068b576040516368401fd160e11b81526001600160a01b038516600482015260240161045f565b6000610698858585610fb4565b905060006106a4610d3b565b6001600160a01b03166391c65e198989896106bd611068565b6106c56110ec565b886106ce611155565b6106d66111b7565b6106de610e09565b6040518a63ffffffff1660e01b8152600401610702999897969594939291906119ea565b6020604051808303816000875af1158015610721573d6000803e3d6000fd5b505050506040513d601f19601f8201168201806040525081019061074591906118eb565b905061075188826100de565b61076e5760405163022a7c3f60e51b815260040160405180910390fd5b6000610779896107ff565b905061078786868b846111ec565b6107928982846113e7565b61079b89611484565b6107a4826114ed565b604080516001600160a01b038b168152602081018490529081018290527ff4b3f0ca8ff53d762c50e763e9954b0f2b30f227ae6f426094c3b374fb2785fe9060600160405180910390a1506001603d55979650505050505050565b6000610813603e546001600160a01b031690565b6001600160a01b031663bd02d0f5836040516020016103999190611a77565b6000610846603e546001600160a01b031690565b6001600160a01b03166321f8a72160036000016005016040516108699190611aca565b60405190819003812060e083901b6001600160e01b03191682526004820152602401602060405180830381865afa1580156108a8573d6000803e3d6000fd5b505050506040513d601f19601f820116820180604052508101906108cc9190611b66565b905090565b60006108e5603e546001600160a01b031690565b60405163bd02d0f560e01b81527fb67eec94184c7ecff5deac18de0b19bb655bada4e9fda5909850767259ea07ea60048201526001600160a01b03919091169063bd02d0f5906024015b602060405180830381865afa15801561094c573d6000803e3d6000fd5b505050506040513d601f19601f820116820180604052508101906108cc91906118eb565b600061098583670de0b6b3a764000084611544565b9392505050565b6000806109a1603e546001600160a01b031690565b6001600160a01b031663bd02d0f585856040516020016109c2929190611b83565b604051602081830303815290604052805190602001206040518263ffffffff1660e01b81526004016109f691815260200190565b602060405180830381865afa158015610a13573d6000803e3d6000fd5b505050506040513d601f19601f82011682018060405250810190610a3791906118eb565b90506000610a4d603e546001600160a01b031690565b6001600160a01b031663bd02d0f58686604051602001610a6e929190611bd3565b604051602081830303815290604052805190602001206040518263ffffffff1660e01b8152600401610aa291815260200190565b602060405180830381865afa158015610abf573d6000803e3d6000fd5b505050506040513d601f19601f82011682018060405250810190610ae391906118eb565b90506000610af9603e546001600160a01b031690565b6001600160a01b031663bd02d0f58787604051602001610b1a929190611c16565b604051602081830303815290604052805190602001206040518263ffffffff1660e01b8152600401610b4e91815260200190565b602060405180830381865afa158015610b6b573d6000803e3d6000fd5b505050506040513d601f19601f82011682018060405250810190610b8f91906118eb565b90506000814210610ba1575082610be1565b6000610bb5610bb08542611c64565b611612565b90506000610bc6610bb08686611c64565b9050610bdc610bd58383610970565b879061165f565b925050505b610beb8185611c64565b935083610bfb57610bfb8761166b565b603e546001600160a01b03166001600160a01b031663e2a4853a8888604051602001610c28929190611b83565b60408051601f198184030181529082905280516020909101206001600160e01b031960e084901b168252600482015260248101879052604401600060405180830381600087803b158015610c7b57600080fd5b505af1158015610c8f573d6000803e3d6000fd5b50505050610ca5603e546001600160a01b031690565b6001600160a01b031663e2a4853a8888604051602001610cc6929190611bd3565b60408051601f198184030181529082905280516020909101206001600160e01b031960e084901b1682526004820152426024820152604401600060405180830381600087803b158015610d1857600080fd5b505af1158015610d2c573d6000803e3d6000fd5b50929998505050505050505050565b6000610d4f603e546001600160a01b031690565b6001600160a01b03166321f8a7216003600001600b016040516108699190611aca565b6000610d86603e546001600160a01b031690565b6001600160a01b03166321f8a72160036000016006016040516108699190611aca565b60408051600180825281830190925260609160009190602080830190803683375050604051919250610dde9160159150611aca565b604051809103902081600081518110610df957610df9611c7b565b6020908102919091010152919050565b6040805160018082528183019092526060916000919060208083019080368337019050509050670de0b6b3a764000081600081518110610df957610df9611c7b565b603e5460405163ebb9d8c960e01b81527fb67eec94184c7ecff5deac18de0b19bb655bada4e9fda5909850767259ea07ea6004820152602481018390526001600160a01b039091169063ebb9d8c9906044015b600060405180830381600087803b158015610eb857600080fd5b505af1158015610ecc573d6000803e3d6000fd5b5050505050565b6000610ee7603e546001600160a01b031690565b6001600160a01b0316637ae1cfca83604051602001610f3f91907f7068616e746f6d2e626f6e64696e672e69735f76616c69640000000000000000815260609190911b6001600160601b0319166018820152602c0190565b604051602081830303815290604052805190602001206040518263ffffffff1660e01b8152600401610f7391815260200190565b602060405180830381865afa158015610f90573d6000803e3d6000fd5b505050506040513d601f19601f8201168201806040525081019061030f9190611c91565b6000610fc8603e546001600160a01b031690565b6001600160a01b031663bd02d0f5858585604051602001610feb93929190611cae565b604051602081830303815290604052805190602001206040518263ffffffff1660e01b815260040161101f91815260200190565b602060405180830381865afa15801561103c573d6000803e3d6000fd5b505050506040513d601f19601f8201168201806040525081019061106091906118eb565b949350505050565b60408051600280825260608083018452926000929190602083019080368337505060405191925061109c9160159150611aca565b6040518091039020816000815181106110b7576110b7611c7b565b60209081029190910101526040516110d190601390611aca565b604051809103902081600181518110610df957610df9611c7b565b60408051600280825260608083018452926000929190602083019080368337019050509050670c7d713b49da00008160008151811061112d5761112d611c7b565b60200260200101818152505067016345785d8a000081600181518110610df957610df9611c7b565b6000611169603e546001600160a01b031690565b60405163bd02d0f560e01b81527f43f8aa1ada4b1e7bc63a4b6f55554b2efc4393bb4f2037b7ddd0dea41cfe025260048201526001600160a01b03919091169063bd02d0f59060240161092f565b60408051600180825281830190925260609160009190602080830190803683375050604051919250610dde9160149150611aca565b6000611200603e546001600160a01b031690565b6001600160a01b031663bd02d0f58686604051602001611221929190611d00565b604051602081830303815290604052805190602001206040518263ffffffff1660e01b815260040161125591815260200190565b602060405180830381865afa158015611272573d6000803e3d6000fd5b505050506040513d601f19601f8201168201806040525081019061129691906118eb565b90506112aa603e546001600160a01b031690565b6001600160a01b031663e2a4853a84846040516020016112cb929190611c16565b6040516020818303038152906040528051906020012083426112ed919061191a565b6040516001600160e01b031960e085901b16815260048101929092526024820152604401600060405180830381600087803b15801561132b57600080fd5b505af115801561133f573d6000803e3d6000fd5b50505050611355603e546001600160a01b031690565b6001600160a01b031663e2a4853a8484604051602001611376929190611bd3565b60408051601f198184030181529082905280516020909101206001600160e01b031960e084901b1682526004820152426024820152604401600060405180830381600087803b1580156113c857600080fd5b505af11580156113dc573d6000803e3d6000fd5b505050505050505050565b603e546001600160a01b03166001600160a01b031663e2a4853a8484604051602001611414929190611b83565b60408051601f198184030181529082905280516020909101206001600160e01b031960e084901b168252600482015260248101849052604401600060405180830381600087803b15801561146757600080fd5b505af115801561147b573d6000803e3d6000fd5b50505050505050565b603e546001600160a01b03166001600160a01b031663adb353dc826040516020016114af9190611a77565b60408051601f198184030181529082905280516020909101206001600160e01b031960e084901b168252600482015260016024820152604401610e9e565b603e54604051632b6cd4f760e21b81527fb67eec94184c7ecff5deac18de0b19bb655bada4e9fda5909850767259ea07ea6004820152602481018390526001600160a01b039091169063adb353dc90604401610e9e565b60008080600019858709858702925082811083820303915050806000141561157f5783828161157557611575611d39565b0492505050610985565b8381106115a957604051631dcf306360e21b8152600481018290526024810185905260440161045f565b60008486880960026001871981018816978890046003810283188082028403028082028403028082028403028082028403028082028403029081029092039091026000889003889004909101858311909403939093029303949094049190911702949350505050565b60007812725dd1d243aba0e75fe645cc4873f9e65afe688c928e1f2182111561165157604051633492ffd960e01b81526004810183905260240161045f565b50670de0b6b3a76400000290565b600061098583836116e2565b603e546001600160a01b03166001600160a01b031663adb353dc826040516020016114af91907f7068616e746f6d2e626f6e64696e672e6c6f776573745f6e6f6e63655f7374698152696c6c5f76657374696e6760b01b602082015260609190911b6001600160601b031916602a820152603e0190565b60008080600019848609848602925082811083820303915050670de0b6b3a764000081106117265760405163698d9a0160e11b81526004810182905260240161045f565b600080670de0b6b3a76400008688099150506706f05b59d3b1ffff8111826117605780670de0b6b3a764000085040194505050505061030f565b620400008285030493909111909103600160ee1b02919091177faccb18165bd6fe31ae1cf318dc5b51eee0e1ba569b88cd74c1773b91fac106690201905092915050565b6001600160a01b03811681146117b957600080fd5b50565b600080604083850312156117cf57600080fd5b82356117da816117a4565b946020939093013593505050565b6000602082840312156117fa57600080fd5b8135610985816117a4565b80151581146117b957600080fd5b6000806040838503121561182657600080fd5b8235611831816117a4565b9150602083013561184181611805565b809150509250929050565b60008060008060006080868803121561186457600080fd5b853561186f816117a4565b9450602086013593506040860135611886816117a4565b9250606086013567ffffffffffffffff808211156118a357600080fd5b818801915088601f8301126118b757600080fd5b8135818111156118c657600080fd5b8960208285010111156118d857600080fd5b9699959850939650602001949392505050565b6000602082840312156118fd57600080fd5b5051919050565b634e487b7160e01b600052601160045260246000fd5b6000821982111561192d5761192d611904565b500190565b600060001982141561194657611946611904565b5060010190565b600081518084526020808501945080840160005b8381101561197d57815187529582019590820190600101611961565b509495945050505050565b6001600160a01b038881168252602082018890528681166040830152606082018690528416608082015260e060a082018190526000906119ca9083018561194d565b82810360c08401526119dc818561194d565b9a9950505050505050505050565b6001600160a01b038a81168252602082018a90528816604082015261012060608201819052600090611a1e8382018a61194d565b90508281036080840152611a32818961194d565b90508660a08401528560c084015282810360e0840152611a52818661194d565b9050828103610100840152611a67818561194d565b9c9b505050505050505050505050565b7f7068616e746f6d2e626f6e64696e672e757365722e6c6f776573745f6173736981526b676e61626c655f6e6f6e636560a01b602082015260609190911b6001600160601b031916602c82015260400190565b600080835481600182811c915080831680611ae657607f831692505b6020808410821415611b0657634e487b7160e01b86526022600452602486fd5b818015611b1a5760018114611b2b57611b58565b60ff19861689528489019650611b58565b60008a81526020902060005b86811015611b505781548b820152908501908301611b37565b505084890196505b509498975050505050505050565b600060208284031215611b7857600080fd5b8151610985816117a4565b7f7068616e746f6d2e626f6e64696e672e72656d61696e696e675f7061796f75748152632fb337b960e11b602082015260609290921b6001600160601b0319166024830152603882015260580190565b7f7068616e746f6d2e626f6e64696e672e6c6173745f636c61696d5f6174000000815260609290921b6001600160601b031916601d830152603182015260510190565b7f7068616e746f6d2e626f6e64696e672e76657374735f61745f74696d6573746181526106d760f41b602082015260609290921b6001600160601b0319166022830152603682015260560190565b600082821015611c7657611c76611904565b500390565b634e487b7160e01b600052603260045260246000fd5b600060208284031215611ca357600080fd5b815161098581611805565b7f7068616e746f6d2e626f6e64696e672e6d756c7469706c69657200000000000081526bffffffffffffffffffffffff198460601b16601a8201528183602e83013760009101602e0190815292915050565b7f7068616e746f6d2e626f6e64696e672e747970652e766573745f6c656e67746881528183602083013760009101602001908152919050565b634e487b7160e01b600052601260045260246000fdfea2646970667358221220de27653fa500267791dedaceeae9b9ba818c0ff481857abb8ead2628a1c2b41664736f6c634300080a00337068616e746f6d2e666f756e6465722e636c61696d732e72656d61696e696e67416d6f756e747068616e746f6d2e616c6c6f6361746f722e746f6b656e732e616464726573732e6461697068616e746f6d2e726f7574696e672e6465785f726f757465725f616464726573737068616e746f6d2e666f756e6465722e636c61696d732e696e697469616c416d6f756e747068616e746f6d2e74726561737572792e6163636f756e745f6b65792e76656e747572656361706974616c7068616e746f6d2e616c6c6f6361746f722e746f6b656e732e616464726573732e6461695f70686d5f6c707068616e746f6d2e726f7574696e672e73706f6f6b795f726f757465725f616464726573737068616e746f6d2e74726561737572792e617070726f7665642e65787465726e616c2e616464726573737068616e746f6d2e626f6e64696e672e757365722e66697273745f756e72656465656d65645f6e6f6e63657068616e746f6d2e726f7574696e672e7370697269745f726f757465725f616464726573737068616e746f6d2e616c6c6f6361746f722e746f6b656e732e64657374696e6174696f6e737068616e746f6d2e726f7574696e672e7370697269745f666163746f72795f616464726573737068616e746f6d2e616c6c6f6361746f722e746f6b656e732e646573745f70657263656e74616765737068616e746f6d2e74726561737572792e6163636f756e745f6b65792e72657365727665737068616e746f6d2e616c6c6f6361746f722e746f6b656e732e616464726573732e6d696d7068616e746f6d2e726f7574696e672e73706f6f6b795f666163746f72795f616464726573737068616e746f6d2e616c6c6f6361746f722e746f6b656e732e616464726573732e7766746d7068616e746f6d2e616c6c6f6361746f722e746f6b656e732e616464726573732e6465787068616e746f6d2e726f7574696e672e7370697269745f67617567655f616464726573737068616e746f6d2e666f756e6465722e636c61696d732e616c6c6f636174696f6e7068616e746f6d2e726f7574696e672e6465785f666163746f72795f616464726573737068616e746f6d2e676f7665726e6f722e71756f72756d50657263656e746167657068616e746f6d2e676f7665726e6f722e70726f706f73616c5468726573686f6c647068616e746f6d2e7374616b696e672e6e657874526562617365446561646c696e657068616e746f6d2e726f7574696e672e7370697269745f67617567655f70726f78795f61646472657373",
  "bytecodeSha1": "da39a3ee5e6b4b0d3255bfef95601890afd80709",
  "compiler": {
    "evm_version": "istanbul",
    "optimizer": {
      "enabled": true,
      "runs": 200
    },
    "version": "0.8.10+commit.fc410830"
  },
  "contractName": "PhantomBonding",
  "language": "Solidity",
  "natspec": {
    "author": "PhantomDao Team",
    "errors": {
      "PRBMathUD60x18__FromUintOverflow(uint256)": [
        {
          "notice": "Emitted when converting a basic integer to the fixed-point format format overflows UD60x18."
        }
      ],
      "PRBMath__MulDivFixedPointOverflow(uint256)": [
        {
          "notice": "Emitted when the result overflows uint256."
        }
      ],
      "PRBMath__MulDivOverflow(uint256,uint256)": [
        {
          "notice": "Emitted when the result overflows uint256."
        }
      ]
    },
    "kind": "dev",
    "methods": {},
    "notice": "The contract that handles bonding assets to get PHM",
    "title": "PhantomBonding",
    "version": 1
  },
  "opcodes": "PUSH1 0x80 PUSH1 0x40 MSTORE CALLVALUE DUP1 ISZERO PUSH2 0x10 JUMPI PUSH1 0x0 DUP1 REVERT JUMPDEST POP PUSH1 0x4 CALLDATASIZE LT PUSH2 0x57 JUMPI PUSH1 0x0 CALLDATALOAD PUSH1 0xE0 SHR DUP1 PUSH4 0x16D2E273 EQ PUSH2 0x5C JUMPI DUP1 PUSH4 0x256FBF93 EQ PUSH2 0x84 JUMPI DUP1 PUSH4 0x81352D6E EQ PUSH2 0xA5 JUMPI DUP1 PUSH4 0xB8EA4A13 EQ PUSH2 0xB8 JUMPI DUP1 PUSH4 0xD5D60D63 EQ PUSH2 0xCB JUMPI JUMPDEST PUSH1 0x0 DUP1 REVERT JUMPDEST PUSH2 0x6F PUSH2 0x6A CALLDATASIZE PUSH1 0x4 PUSH2 0x17BC JUMP JUMPDEST PUSH2 0xDE JUMP JUMPDEST PUSH1 0x40 MLOAD SWAP1 ISZERO ISZERO DUP2 MSTORE PUSH1 0x20 ADD JUMPDEST PUSH1 0x40 MLOAD DUP1 SWAP2 SUB SWAP1 RETURN JUMPDEST PUSH2 0x97 PUSH2 0x92 CALLDATASIZE PUSH1 0x4 PUSH2 0x17E8 JUMP JUMPDEST PUSH2 0x315 JUMP JUMPDEST PUSH1 0x40 MLOAD SWAP1 DUP2 MSTORE PUSH1 0x20 ADD PUSH2 0x7B JUMP JUMPDEST PUSH2 0x97 PUSH2 0xB3 CALLDATASIZE PUSH1 0x4 PUSH2 0x1813 JUMP JUMPDEST PUSH2 0x40E JUMP JUMPDEST PUSH2 0x97 PUSH2 0xC6 CALLDATASIZE PUSH1 0x4 PUSH2 0x184C JUMP JUMPDEST PUSH2 0x600 JUMP JUMPDEST PUSH2 0x97 PUSH2 0xD9 CALLDATASIZE PUSH1 0x4 PUSH2 0x17E8 JUMP JUMPDEST PUSH2 0x7FF JUMP JUMPDEST PUSH1 0x0 PUSH2 0xE8 PUSH2 0x832 JUMP JUMPDEST PUSH1 0x1 PUSH1 0x1 PUSH1 0xA0 SHL SUB AND PUSH4 0x1BA7911 PUSH1 0x40 MLOAD DUP2 PUSH4 0xFFFFFFFF AND PUSH1 0xE0 SHL DUP2 MSTORE PUSH1 0x4 ADD PUSH1 0x20 PUSH1 0x40 MLOAD DUP1 DUP4 SUB DUP2 DUP7 GAS STATICCALL ISZERO DUP1 ISZERO PUSH2 0x125 JUMPI RETURNDATASIZE PUSH1 0x0 DUP1 RETURNDATACOPY RETURNDATASIZE PUSH1 0x0 REVERT JUMPDEST POP POP POP POP PUSH1 0x40 MLOAD RETURNDATASIZE PUSH1 0x1F NOT PUSH1 0x1F DUP3 ADD AND DUP3 ADD DUP1 PUSH1 0x40 MSTORE POP DUP2 ADD SWAP1 PUSH2 0x149 SWAP2 SWAP1 PUSH2 0x18EB JUMP JUMPDEST DUP3 PUSH2 0x152 PUSH2 0x832 JUMP JUMPDEST PUSH1 0x40 MLOAD PUSH4 0xACC9D9DF PUSH1 0xE0 SHL DUP2 MSTORE PUSH1 0x1 PUSH1 0x1 PUSH1 0xA0 SHL SUB DUP8 DUP2 AND PUSH1 0x4 DUP4 ADD MSTORE SWAP2 SWAP1 SWAP2 AND SWAP1 PUSH4 0xACC9D9DF SWAP1 PUSH1 0x24 ADD PUSH1 0x20 PUSH1 0x40 MLOAD DUP1 DUP4 SUB DUP2 DUP7 GAS STATICCALL ISZERO DUP1 ISZERO PUSH2 0x19A JUMPI RETURNDATASIZE PUSH1 0x0 DUP1 RETURNDATACOPY RETURNDATASIZE PUSH1 0x0 REVERT JUMPDEST POP POP POP POP PUSH1 0x40 MLOAD RETURNDATASIZE PUSH1 0x1F NOT PUSH1 0x1F DUP3 ADD AND DUP3 ADD DUP1 PUSH1 0x40 MSTORE POP DUP2 ADD SWAP1 PUSH2 0x1BE SWAP2 SWAP1 PUSH2 0x18EB JUMP JUMPDEST PUSH2 0x1C8 SWAP2 SWAP1 PUSH2 0x191A JUMP JUMPDEST GT ISZERO PUSH2 0x1D6 JUMPI POP PUSH1 0x0 PUSH2 0x30F JUMP JUMPDEST PUSH1 0x0 PUSH2 0x1EA PUSH1 0x3E SLOAD PUSH1 0x1 PUSH1 0x1 PUSH1 0xA0 SHL SUB AND SWAP1 JUMP JUMPDEST PUSH1 0x40 MLOAD PUSH4 0xBD02D0F5 PUSH1 0xE0 SHL DUP2 MSTORE PUSH32 0x4C0AB503E4A10B4D35A4531A716B2BF7E03B8F828A21472AA24161EA45B085C5 PUSH1 0x4 DUP3 ADD MSTORE PUSH1 0x1 PUSH1 0x1 PUSH1 0xA0 SHL SUB SWAP2 SWAP1 SWAP2 AND SWAP1 PUSH4 0xBD02D0F5 SWAP1 PUSH1 0x24 ADD PUSH1 0x20 PUSH1 0x40 MLOAD DUP1 DUP4 SUB DUP2 DUP7 GAS STATICCALL ISZERO DUP1 ISZERO PUSH2 0x250 JUMPI RETURNDATASIZE PUSH1 0x0 DUP1 RETURNDATACOPY RETURNDATASIZE PUSH1 0x0 REVERT JUMPDEST POP POP POP POP PUSH1 0x40 MLOAD RETURNDATASIZE PUSH1 0x1F NOT PUSH1 0x1F DUP3 ADD AND DUP3 ADD DUP1 PUSH1 0x40 MSTORE POP DUP2 ADD SWAP1 PUSH2 0x274 SWAP2 SWAP1 PUSH2 0x18EB JUMP JUMPDEST SWAP1 POP DUP1 PUSH2 0x2FC PUSH2 0x282 PUSH2 0x832 JUMP JUMPDEST PUSH1 0x1 PUSH1 0x1 PUSH1 0xA0 SHL SUB AND PUSH4 0x18160DDD PUSH1 0x40 MLOAD DUP2 PUSH4 0xFFFFFFFF AND PUSH1 0xE0 SHL DUP2 MSTORE PUSH1 0x4 ADD PUSH1 0x20 PUSH1 0x40 MLOAD DUP1 DUP4 SUB DUP2 DUP7 GAS STATICCALL ISZERO DUP1 ISZERO PUSH2 0x2BF JUMPI RETURNDATASIZE PUSH1 0x0 DUP1 RETURNDATACOPY RETURNDATASIZE PUSH1 0x0 REVERT JUMPDEST POP POP POP POP PUSH1 0x40 MLOAD RETURNDATASIZE PUSH1 0x1F NOT PUSH1 0x1F DUP3 ADD AND DUP3 ADD DUP1 PUSH1 0x40 MSTORE POP DUP2 ADD SWAP1 PUSH2 0x2E3 SWAP2 SWAP1 PUSH2 0x18EB JUMP JUMPDEST DUP6 PUSH2 0x2EC PUSH2 0x8D1 JUMP JUMPDEST PUSH2 0x2F6 SWAP2 SWAP1 PUSH2 0x191A JUMP JUMPDEST SWAP1 PUSH2 0x970 JUMP JUMPDEST GT PUSH2 0x308 JUMPI PUSH1 0x1 PUSH2 0x30B JUMP JUMPDEST PUSH1 0x0 JUMPDEST SWAP2 POP POP JUMPDEST SWAP3 SWAP2 POP POP JUMP JUMPDEST PUSH1 0x0 PUSH2 0x329 PUSH1 0x3E SLOAD PUSH1 0x1 PUSH1 0x1 PUSH1 0xA0 SHL SUB AND SWAP1 JUMP JUMPDEST PUSH1 0x1 PUSH1 0x1 PUSH1 0xA0 SHL SUB AND PUSH4 0xBD02D0F5 DUP4 PUSH1 0x40 MLOAD PUSH1 0x20 ADD PUSH2 0x399 SWAP2 SWAP1 PUSH32 0x7068616E746F6D2E626F6E64696E672E757365722E6C6F776573745F6E6F6E63 DUP2 MSTORE PUSH15 0x655F7374696C6C5F76657374696E67 PUSH1 0x88 SHL PUSH1 0x20 DUP3 ADD MSTORE PUSH1 0x60 SWAP2 SWAP1 SWAP2 SHL PUSH1 0x1 PUSH1 0x1 PUSH1 0x60 SHL SUB NOT AND PUSH1 0x2F DUP3 ADD MSTORE PUSH1 0x43 ADD SWAP1 JUMP JUMPDEST PUSH1 0x40 MLOAD PUSH1 0x20 DUP2 DUP4 SUB SUB DUP2 MSTORE SWAP1 PUSH1 0x40 MSTORE DUP1 MLOAD SWAP1 PUSH1 0x20 ADD KECCAK256 PUSH1 0x40 MLOAD DUP3 PUSH4 0xFFFFFFFF AND PUSH1 0xE0 SHL DUP2 MSTORE PUSH1 0x4 ADD PUSH2 0x3CD SWAP2 DUP2 MSTORE PUSH1 0x20 ADD SWAP1 JUMP JUMPDEST PUSH1 0x20 PUSH1 0x40 MLOAD DUP1 DUP4 SUB DUP2 DUP7 GAS STATICCALL ISZERO DUP1 ISZERO PUSH2 0x3EA JUMPI RETURNDATASIZE PUSH1 0x0 DUP1 RETURNDATACOPY RETURNDATASIZE PUSH1 0x0 REVERT JUMPDEST POP POP POP POP PUSH1 0x40 MLOAD RETURNDATASIZE PUSH1 0x1F NOT PUSH1 0x1F DUP3 ADD AND DUP3 ADD DUP1 PUSH1 0x40 MSTORE POP DUP2 ADD SWAP1 PUSH2 0x30F SWAP2 SWAP1 PUSH2 0x18EB JUMP JUMPDEST PUSH1 0x0 PUSH1 0x2 PUSH1 0x3D SLOAD EQ ISZERO PUSH2 0x468 JUMPI PUSH1 0x40 MLOAD PUSH3 0x461BCD PUSH1 0xE5 SHL DUP2 MSTORE PUSH1 0x20 PUSH1 0x4 DUP3 ADD MSTORE PUSH1 0x1F PUSH1 0x24 DUP3 ADD MSTORE PUSH32 0x5265656E7472616E637947756172643A207265656E7472616E742063616C6C00 PUSH1 0x44 DUP3 ADD MSTORE PUSH1 0x64 ADD JUMPDEST PUSH1 0x40 MLOAD DUP1 SWAP2 SUB SWAP1 REVERT JUMPDEST PUSH1 0x2 PUSH1 0x3D SSTORE PUSH1 0x0 DUP1 PUSH2 0x479 DUP6 PUSH2 0x7FF JUMP JUMPDEST SWAP1 POP PUSH1 0x0 PUSH2 0x486 DUP7 PUSH2 0x315 JUMP JUMPDEST SWAP1 POP JUMPDEST DUP2 DUP2 LT ISZERO PUSH2 0x4B7 JUMPI PUSH2 0x4A6 DUP7 DUP3 PUSH2 0x49F DUP2 PUSH2 0x1932 JUMP JUMPDEST SWAP4 POP PUSH2 0x98C JUMP JUMPDEST PUSH2 0x4B0 SWAP1 DUP5 PUSH2 0x191A JUMP JUMPDEST SWAP3 POP PUSH2 0x489 JUMP JUMPDEST DUP5 ISZERO PUSH2 0x561 JUMPI PUSH2 0x4C5 PUSH2 0xD3B JUMP JUMPDEST PUSH1 0x1 PUSH1 0x1 PUSH1 0xA0 SHL SUB AND PUSH4 0xC41AC8CF DUP8 DUP6 PUSH2 0x4DD PUSH2 0x832 JUMP JUMPDEST DUP8 PUSH2 0x4E6 PUSH2 0xD72 JUMP JUMPDEST PUSH1 0x40 MLOAD PUSH1 0xE0 DUP8 SWAP1 SHL PUSH1 0x1 PUSH1 0x1 PUSH1 0xE0 SHL SUB NOT AND DUP2 MSTORE PUSH1 0x1 PUSH1 0x1 PUSH1 0xA0 SHL SUB SWAP6 DUP7 AND PUSH1 0x4 DUP3 ADD MSTORE PUSH1 0x24 DUP2 ADD SWAP5 SWAP1 SWAP5 MSTORE SWAP2 DUP5 AND PUSH1 0x44 DUP5 ADD MSTORE PUSH1 0x64 DUP4 ADD MSTORE SWAP1 SWAP2 AND PUSH1 0x84 DUP3 ADD MSTORE PUSH1 0xA4 ADD PUSH1 0x0 PUSH1 0x40 MLOAD DUP1 DUP4 SUB DUP2 PUSH1 0x0 DUP8 DUP1 EXTCODESIZE ISZERO DUP1 ISZERO PUSH2 0x544 JUMPI PUSH1 0x0 DUP1 REVERT JUMPDEST POP GAS CALL ISZERO DUP1 ISZERO PUSH2 0x558 JUMPI RETURNDATASIZE PUSH1 0x0 DUP1 RETURNDATACOPY RETURNDATASIZE PUSH1 0x0 REVERT JUMPDEST POP POP POP POP PUSH2 0x5E9 JUMP JUMPDEST PUSH2 0x569 PUSH2 0xD3B JUMP JUMPDEST PUSH1 0x1 PUSH1 0x1 PUSH1 0xA0 SHL SUB AND PUSH4 0xA3971047 DUP8 PUSH1 0x0 DUP1 DUP8 PUSH2 0x584 PUSH2 0x832 JUMP JUMPDEST PUSH2 0x58C PUSH2 0xDA9 JUMP JUMPDEST PUSH2 0x594 PUSH2 0xE09 JUMP JUMPDEST PUSH1 0x40 MLOAD DUP9 PUSH4 0xFFFFFFFF AND PUSH1 0xE0 SHL DUP2 MSTORE PUSH1 0x4 ADD PUSH2 0x5B6 SWAP8 SWAP7 SWAP6 SWAP5 SWAP4 SWAP3 SWAP2 SWAP1 PUSH2 0x1988 JUMP JUMPDEST PUSH1 0x0 PUSH1 0x40 MLOAD DUP1 DUP4 SUB DUP2 PUSH1 0x0 DUP8 DUP1 EXTCODESIZE ISZERO DUP1 ISZERO PUSH2 0x5D0 JUMPI PUSH1 0x0 DUP1 REVERT JUMPDEST POP GAS CALL ISZERO DUP1 ISZERO PUSH2 0x5E4 JUMPI RETURNDATASIZE PUSH1 0x0 DUP1 RETURNDATACOPY RETURNDATASIZE PUSH1 0x0 REVERT JUMPDEST POP POP POP POP JUMPDEST PUSH2 0x5F2 DUP4 PUSH2 0xE4B JUMP JUMPDEST POP POP PUSH1 0x1 PUSH1 0x3D SSTORE SWAP4 SWAP3 POP POP POP JUMP JUMPDEST PUSH1 0x0 PUSH1 0x2 PUSH1 0x3D SLOAD EQ ISZERO PUSH2 0x655 JUMPI PUSH1 0x40 MLOAD PUSH3 0x461BCD PUSH1 0xE5 SHL DUP2 MSTORE PUSH1 0x20 PUSH1 0x4 DUP3 ADD MSTORE PUSH1 0x1F PUSH1 0x24 DUP3 ADD MSTORE PUSH32 0x5265656E7472616E637947756172643A207265656E7472616E742063616C6C00 PUSH1 0x44 DUP3 ADD MSTORE PUSH1 0x64 ADD PUSH2 0x45F JUMP JUMPDEST PUSH1 0x2 PUSH1 0x3D SSTORE PUSH2 0x663 DUP5 PUSH2 0xED3 JUMP JUMPDEST PUSH2 0x68B JUMPI PUSH1 0x40 MLOAD PUSH4 0x68401FD1 PUSH1 0xE1 SHL DUP2 MSTORE PUSH1 0x1 PUSH1 0x1 PUSH1 0xA0 SHL SUB DUP6 AND PUSH1 0x4 DUP3 ADD MSTORE PUSH1 0x24 ADD PUSH2 0x45F JUMP JUMPDEST PUSH1 0x0 PUSH2 0x698 DUP6 DUP6 DUP6 PUSH2 0xFB4 JUMP JUMPDEST SWAP1 POP PUSH1 0x0 PUSH2 0x6A4 PUSH2 0xD3B JUMP JUMPDEST PUSH1 0x1 PUSH1 0x1 PUSH1 0xA0 SHL SUB AND PUSH4 0x91C65E19 DUP10 DUP10 DUP10 PUSH2 0x6BD PUSH2 0x1068 JUMP JUMPDEST PUSH2 0x6C5 PUSH2 0x10EC JUMP JUMPDEST DUP9 PUSH2 0x6CE PUSH2 0x1155 JUMP JUMPDEST PUSH2 0x6D6 PUSH2 0x11B7 JUMP JUMPDEST PUSH2 0x6DE PUSH2 0xE09 JUMP JUMPDEST PUSH1 0x40 MLOAD DUP11 PUSH4 0xFFFFFFFF AND PUSH1 0xE0 SHL DUP2 MSTORE PUSH1 0x4 ADD PUSH2 0x702 SWAP10 SWAP9 SWAP8 SWAP7 SWAP6 SWAP5 SWAP4 SWAP3 SWAP2 SWAP1 PUSH2 0x19EA JUMP JUMPDEST PUSH1 0x20 PUSH1 0x40 MLOAD DUP1 DUP4 SUB DUP2 PUSH1 0x0 DUP8 GAS CALL ISZERO DUP1 ISZERO PUSH2 0x721 JUMPI RETURNDATASIZE PUSH1 0x0 DUP1 RETURNDATACOPY RETURNDATASIZE PUSH1 0x0 REVERT JUMPDEST POP POP POP POP PUSH1 0x40 MLOAD RETURNDATASIZE PUSH1 0x1F NOT PUSH1 0x1F DUP3 ADD AND DUP3 ADD DUP1 PUSH1 0x40 MSTORE POP DUP2 ADD SWAP1 PUSH2 0x745 SWAP2 SWAP1 PUSH2 0x18EB JUMP JUMPDEST SWAP1 POP PUSH2 0x751 DUP9 DUP3 PUSH2 0xDE JUMP JUMPDEST PUSH2 0x76E JUMPI PUSH1 0x40 MLOAD PUSH4 0x22A7C3F PUSH1 0xE5 SHL DUP2 MSTORE PUSH1 0x4 ADD PUSH1 0x40 MLOAD DUP1 SWAP2 SUB SWAP1 REVERT JUMPDEST PUSH1 0x0 PUSH2 0x779 DUP10 PUSH2 0x7FF JUMP JUMPDEST SWAP1 POP PUSH2 0x787 DUP7 DUP7 DUP12 DUP5 PUSH2 0x11EC JUMP JUMPDEST PUSH2 0x792 DUP10 DUP3 DUP5 PUSH2 0x13E7 JUMP JUMPDEST PUSH2 0x79B DUP10 PUSH2 0x1484 JUMP JUMPDEST PUSH2 0x7A4 DUP3 PUSH2 0x14ED JUMP JUMPDEST PUSH1 0x40 DUP1 MLOAD PUSH1 0x1 PUSH1 0x1 PUSH1 0xA0 SHL SUB DUP12 AND DUP2 MSTORE PUSH1 0x20 DUP2 ADD DUP5 SWAP1 MSTORE SWAP1 DUP2 ADD DUP3 SWAP1 MSTORE PUSH32 0xF4B3F0CA8FF53D762C50E763E9954B0F2B30F227AE6F426094C3B374FB2785FE SWAP1 PUSH1 0x60 ADD PUSH1 0x40 MLOAD DUP1 SWAP2 SUB SWAP1 LOG1 POP PUSH1 0x1 PUSH1 0x3D SSTORE SWAP8 SWAP7 POP POP POP POP POP POP POP JUMP JUMPDEST PUSH1 0x0 PUSH2 0x813 PUSH1 0x3E SLOAD PUSH1 0x1 PUSH1 0x1 PUSH1 0xA0 SHL SUB AND SWAP1 JUMP JUMPDEST PUSH1 0x1 PUSH1 0x1 PUSH1 0xA0 SHL SUB AND PUSH4 0xBD02D0F5 DUP4 PUSH1 0x40 MLOAD PUSH1 0x20 ADD PUSH2 0x399 SWAP2 SWAP1 PUSH2 0x1A77 JUMP JUMPDEST PUSH1 0x0 PUSH2 0x846 PUSH1 0x3E SLOAD PUSH1 0x1 PUSH1 0x1 PUSH1 0xA0 SHL SUB AND SWAP1 JUMP JUMPDEST PUSH1 0x1 PUSH1 0x1 PUSH1 0xA0 SHL SUB AND PUSH4 0x21F8A721 PUSH1 0x3 PUSH1 0x0 ADD PUSH1 0x5 ADD PUSH1 0x40 MLOAD PUSH2 0x869 SWAP2 SWAP1 PUSH2 0x1ACA JUMP JUMPDEST PUSH1 0x40 MLOAD SWAP1 DUP2 SWAP1 SUB DUP2 KECCAK256 PUSH1 0xE0 DUP4 SWAP1 SHL PUSH1 0x1 PUSH1 0x1 PUSH1 0xE0 SHL SUB NOT AND DUP3 MSTORE PUSH1 0x4 DUP3 ADD MSTORE PUSH1 0x24 ADD PUSH1 0x20 PUSH1 0x40 MLOAD DUP1 DUP4 SUB DUP2 DUP7 GAS STATICCALL ISZERO DUP1 ISZERO PUSH2 0x8A8 JUMPI RETURNDATASIZE PUSH1 0x0 DUP1 RETURNDATACOPY RETURNDATASIZE PUSH1 0x0 REVERT JUMPDEST POP POP POP POP PUSH1 0x40 MLOAD RETURNDATASIZE PUSH1 0x1F NOT PUSH1 0x1F DUP3 ADD AND DUP3 ADD DUP1 PUSH1 0x40 MSTORE POP DUP2 ADD SWAP1 PUSH2 0x8CC SWAP2 SWAP1 PUSH2 0x1B66 JUMP JUMPDEST SWAP1 POP SWAP1 JUMP JUMPDEST PUSH1 0x0 PUSH2 0x8E5 PUSH1 0x3E SLOAD PUSH1 0x1 PUSH1 0x1 PUSH1 0xA0 SHL SUB AND SWAP1 JUMP JUMPDEST PUSH1 0x40 MLOAD PUSH4 0xBD02D0F5 PUSH1 0xE0 SHL DUP2 MSTORE PUSH32 0xB67EEC94184C7ECFF5DEAC18DE0B19BB655BADA4E9FDA5909850767259EA07EA PUSH1 0x4 DUP3 ADD MSTORE PUSH1 0x1 PUSH1 0x1 PUSH1 0xA0 SHL SUB SWAP2 SWAP1 SWAP2 AND SWAP1 PUSH4 0xBD02D0F5 SWAP1 PUSH1 0x24 ADD JUMPDEST PUSH1 0x20 PUSH1 0x40 MLOAD DUP1 DUP4 SUB DUP2 DUP7 GAS STATICCALL ISZERO DUP1 ISZERO PUSH2 0x94C JUMPI RETURNDATASIZE PUSH1 0x0 DUP1 RETURNDATACOPY RETURNDATASIZE PUSH1 0x0 REVERT JUMPDEST POP POP POP POP PUSH1 0x40 MLOAD RETURNDATASIZE PUSH1 0x1F NOT PUSH1 0x1F DUP3 ADD AND DUP3 ADD DUP1 PUSH1 0x40 MSTORE POP DUP2 ADD SWAP1 PUSH2 0x8CC SWAP2 SWAP1 PUSH2 0x18EB JUMP JUMPDEST PUSH1 0x0 PUSH2 0x985 DUP4 PUSH8 0xDE0B6B3A7640000 DUP5 PUSH2 0x1544 JUMP JUMPDEST SWAP4 SWAP3 POP POP POP JUMP JUMPDEST PUSH1 0x0 DUP1 PUSH2 0x9A1 PUSH1 0x3E SLOAD PUSH1 0x1 PUSH1 0x1 PUSH1 0xA0 SHL SUB AND SWAP1 JUMP JUMPDEST PUSH1 0x1 PUSH1 0x1 PUSH1 0xA0 SHL SUB AND PUSH4 0xBD02D0F5 DUP6 DUP6 PUSH1 0x40 MLOAD PUSH1 0x20 ADD PUSH2 0x9C2 SWAP3 SWAP2 SWAP1 PUSH2 0x1B83 JUMP JUMPDEST PUSH1 0x40 MLOAD PUSH1 0x20 DUP2 DUP4 SUB SUB DUP2 MSTORE SWAP1 PUSH1 0x40 MSTORE DUP1 MLOAD SWAP1 PUSH1 0x20 ADD KECCAK256 PUSH1 0x40 MLOAD DUP3 PUSH4 0xFFFFFFFF AND PUSH1 0xE0 SHL DUP2 MSTORE PUSH1 0x4 ADD PUSH2 0x9F6 SWAP2 DUP2 MSTORE PUSH1 0x20 ADD SWAP1 JUMP JUMPDEST PUSH1 0x20 PUSH1 0x40 MLOAD DUP1 DUP4 SUB DUP2 DUP7 GAS STATICCALL ISZERO DUP1 ISZERO PUSH2 0xA13 JUMPI RETURNDATASIZE PUSH1 0x0 DUP1 RETURNDATACOPY RETURNDATASIZE PUSH1 0x0 REVERT JUMPDEST POP POP POP POP PUSH1 0x40 MLOAD RETURNDATASIZE PUSH1 0x1F NOT PUSH1 0x1F DUP3 ADD AND DUP3 ADD DUP1 PUSH1 0x40 MSTORE POP DUP2 ADD SWAP1 PUSH2 0xA37 SWAP2 SWAP1 PUSH2 0x18EB JUMP JUMPDEST SWAP1 POP PUSH1 0x0 PUSH2 0xA4D PUSH1 0x3E SLOAD PUSH1 0x1 PUSH1 0x1 PUSH1 0xA0 SHL SUB AND SWAP1 JUMP JUMPDEST PUSH1 0x1 PUSH1 0x1 PUSH1 0xA0 SHL SUB AND PUSH4 0xBD02D0F5 DUP7 DUP7 PUSH1 0x40 MLOAD PUSH1 0x20 ADD PUSH2 0xA6E SWAP3 SWAP2 SWAP1 PUSH2 0x1BD3 JUMP JUMPDEST PUSH1 0x40 MLOAD PUSH1 0x20 DUP2 DUP4 SUB SUB DUP2 MSTORE SWAP1 PUSH1 0x40 MSTORE DUP1 MLOAD SWAP1 PUSH1 0x20 ADD KECCAK256 PUSH1 0x40 MLOAD DUP3 PUSH4 0xFFFFFFFF AND PUSH1 0xE0 SHL DUP2 MSTORE PUSH1 0x4 ADD PUSH2 0xAA2 SWAP2 DUP2 MSTORE PUSH1 0x20 ADD SWAP1 JUMP JUMPDEST PUSH1 0x20 PUSH1 0x40 MLOAD DUP1 DUP4 SUB DUP2 DUP7 GAS STATICCALL ISZERO DUP1 ISZERO PUSH2 0xABF JUMPI RETURNDATASIZE PUSH1 0x0 DUP1 RETURNDATACOPY RETURNDATASIZE PUSH1 0x0 REVERT JUMPDEST POP POP POP POP PUSH1 0x40 MLOAD RETURNDATASIZE PUSH1 0x1F NOT PUSH1 0x1F DUP3 ADD AND DUP3 ADD DUP1 PUSH1 0x40 MSTORE POP DUP2 ADD SWAP1 PUSH2 0xAE3 SWAP2 SWAP1 PUSH2 0x18EB JUMP JUMPDEST SWAP1 POP PUSH1 0x0 PUSH2 0xAF9 PUSH1 0x3E SLOAD PUSH1 0x1 PUSH1 0x1 PUSH1 0xA0 SHL SUB AND SWAP1 JUMP JUMPDEST PUSH1 0x1 PUSH1 0x1 PUSH1 0xA0 SHL SUB AND PUSH4 0xBD02D0F5 DUP8 DUP8 PUSH1 0x40 MLOAD PUSH1 0x20 ADD PUSH2 0xB1A SWAP3 SWAP2 SWAP1 PUSH2 0x1C16 JUMP JUMPDEST PUSH1 0x40 MLOAD PUSH1 0x20 DUP2 DUP4 SUB SUB DUP2 MSTORE SWAP1 PUSH1 0x40 MSTORE DUP1 MLOAD SWAP1 PUSH1 0x20 ADD KECCAK256 PUSH1 0x40 MLOAD DUP3 PUSH4 0xFFFFFFFF AND PUSH1 0xE0 SHL DUP2 MSTORE PUSH1 0x4 ADD PUSH2 0xB4E SWAP2 DUP2 MSTORE PUSH1 0x20 ADD SWAP1 JUMP JUMPDEST PUSH1 0x20 PUSH1 0x40 MLOAD DUP1 DUP4 SUB DUP2 DUP7 GAS STATICCALL ISZERO DUP1 ISZERO PUSH2 0xB6B JUMPI RETURNDATASIZE PUSH1 0x0 DUP1 RETURNDATACOPY RETURNDATASIZE PUSH1 0x0 REVERT JUMPDEST POP POP POP POP PUSH1 0x40 MLOAD RETURNDATASIZE PUSH1 0x1F NOT PUSH1 0x1F DUP3 ADD AND DUP3 ADD DUP1 PUSH1 0x40 MSTORE POP DUP2 ADD SWAP1 PUSH2 0xB8F SWAP2 SWAP1 PUSH2 0x18EB JUMP JUMPDEST SWAP1 POP PUSH1 0x0 DUP2 TIMESTAMP LT PUSH2 0xBA1 JUMPI POP DUP3 PUSH2 0xBE1 JUMP JUMPDEST PUSH1 0x0 PUSH2 0xBB5 PUSH2 0xBB0 DUP6 TIMESTAMP PUSH2 0x1C64 JUMP JUMPDEST PUSH2 0x1612 JUMP JUMPDEST SWAP1 POP PUSH1 0x0 PUSH2 0xBC6 PUSH2 0xBB0 DUP7 DUP7 PUSH2 0x1C64 JUMP JUMPDEST SWAP1 POP PUSH2 0xBDC PUSH2 0xBD5 DUP4 DUP4 PUSH2 0x970 JUMP JUMPDEST DUP8 SWAP1 PUSH2 0x165F JUMP JUMPDEST SWAP3 POP POP POP JUMPDEST PUSH2 0xBEB DUP2 DUP6 PUSH2 0x1C64 JUMP JUMPDEST SWAP4 POP DUP4 PUSH2 0xBFB JUMPI PUSH2 0xBFB DUP8 PUSH2 0x166B JUMP JUMPDEST PUSH1 0x3E SLOAD PUSH1 0x1 PUSH1 0x1 PUSH1 0xA0 SHL SUB AND PUSH1 0x1 PUSH1 0x1 PUSH1 0xA0 SHL SUB AND PUSH4 0xE2A4853A DUP9 DUP9 PUSH1 0x40 MLOAD PUSH1 0x20 ADD PUSH2 0xC28 SWAP3 SWAP2 SWAP1 PUSH2 0x1B83 JUMP JUMPDEST PUSH1 0x40 DUP1 MLOAD PUSH1 0x1F NOT DUP2 DUP5 SUB ADD DUP2 MSTORE SWAP1 DUP3 SWAP1 MSTORE DUP1 MLOAD PUSH1 0x20 SWAP1 SWAP2 ADD KECCAK256 PUSH1 0x1 PUSH1 0x1 PUSH1 0xE0 SHL SUB NOT PUSH1 0xE0 DUP5 SWAP1 SHL AND DUP3 MSTORE PUSH1 0x4 DUP3 ADD MSTORE PUSH1 0x24 DUP2 ADD DUP8 SWAP1 MSTORE PUSH1 0x44 ADD PUSH1 0x0 PUSH1 0x40 MLOAD DUP1 DUP4 SUB DUP2 PUSH1 0x0 DUP8 DUP1 EXTCODESIZE ISZERO DUP1 ISZERO PUSH2 0xC7B JUMPI PUSH1 0x0 DUP1 REVERT JUMPDEST POP GAS CALL ISZERO DUP1 ISZERO PUSH2 0xC8F JUMPI RETURNDATASIZE PUSH1 0x0 DUP1 RETURNDATACOPY RETURNDATASIZE PUSH1 0x0 REVERT JUMPDEST POP POP POP POP PUSH2 0xCA5 PUSH1 0x3E SLOAD PUSH1 0x1 PUSH1 0x1 PUSH1 0xA0 SHL SUB AND SWAP1 JUMP JUMPDEST PUSH1 0x1 PUSH1 0x1 PUSH1 0xA0 SHL SUB AND PUSH4 0xE2A4853A DUP9 DUP9 PUSH1 0x40 MLOAD PUSH1 0x20 ADD PUSH2 0xCC6 SWAP3 SWAP2 SWAP1 PUSH2 0x1BD3 JUMP JUMPDEST PUSH1 0x40 DUP1 MLOAD PUSH1 0x1F NOT DUP2 DUP5 SUB ADD DUP2 MSTORE SWAP1 DUP3 SWAP1 MSTORE DUP1 MLOAD PUSH1 0x20 SWAP1 SWAP2 ADD KECCAK256 PUSH1 0x1 PUSH1 0x1 PUSH1 0xE0 SHL SUB NOT PUSH1 0xE0 DUP5 SWAP1 SHL AND DUP3 MSTORE PUSH1 0x4 DUP3 ADD MSTORE TIMESTAMP PUSH1 0x24 DUP3 ADD MSTORE PUSH1 0x44 ADD PUSH1 0x0 PUSH1 0x40 MLOAD DUP1 DUP4 SUB DUP2 PUSH1 0x0 DUP8 DUP1 EXTCODESIZE ISZERO DUP1 ISZERO PUSH2 0xD18 JUMPI PUSH1 0x0 DUP1 REVERT JUMPDEST POP GAS CALL ISZERO DUP1 ISZERO PUSH2 0xD2C JUMPI RETURNDATASIZE PUSH1 0x0 DUP1 RETURNDATACOPY RETURNDATASIZE PUSH1 0x0 REVERT JUMPDEST POP SWAP3 SWAP10 SWAP9 POP POP POP POP POP POP POP POP POP JUMP JUMPDEST PUSH1 0x0 PUSH2 0xD4F PUSH1 0x3E SLOAD PUSH1 0x1 PUSH1 0x1 PUSH1 0xA0 SHL SUB AND SWAP1 JUMP JUMPDEST PUSH1 0x1 PUSH1 0x1 PUSH1 0xA0 SHL SUB AND PUSH4 0x21F8A721 PUSH1 0x3 PUSH1 0x0 ADD PUSH1 0xB ADD PUSH1 0x40 MLOAD PUSH2 0x869 SWAP2 SWAP1 PUSH2 0x1ACA JUMP JUMPDEST PUSH1 0x0 PUSH2 0xD86 PUSH1 0x3E SLOAD PUSH1 0x1 PUSH1 0x1 PUSH1 0xA0 SHL SUB AND SWAP1 JUMP JUMPDEST PUSH1 0x1 PUSH1 0x1 PUSH1 0xA0 SHL SUB AND PUSH4 0x21F8A721 PUSH1 0x3 PUSH1 0x0 ADD PUSH1 0x6 ADD PUSH1 0x40 MLOAD PUSH2 0x869 SWAP2 SWAP1 PUSH2 0x1ACA JUMP JUMPDEST PUSH1 0x40 DUP1 MLOAD PUSH1 0x1 DUP1 DUP3 MSTORE DUP2 DUP4 ADD SWAP1 SWAP3 MSTORE PUSH1 0x60 SWAP2 PUSH1 0x0 SWAP2 SWAP1 PUSH1 0x20 DUP1 DUP4 ADD SWAP1 DUP1 CALLDATASIZE DUP4 CALLDATACOPY POP POP PUSH1 0x40 MLOAD SWAP2 SWAP3 POP PUSH2 0xDDE SWAP2 PUSH1 0x15 SWAP2 POP PUSH2 0x1ACA JUMP JUMPDEST PUSH1 0x40 MLOAD DUP1 SWAP2 SUB SWAP1 KECCAK256 DUP2 PUSH1 0x0 DUP2 MLOAD DUP2 LT PUSH2 0xDF9 JUMPI PUSH2 0xDF9 PUSH2 0x1C7B JUMP JUMPDEST PUSH1 0x20 SWAP1 DUP2 MUL SWAP2 SWAP1 SWAP2 ADD ADD MSTORE SWAP2 SWAP1 POP JUMP JUMPDEST PUSH1 0x40 DUP1 MLOAD PUSH1 0x1 DUP1 DUP3 MSTORE DUP2 DUP4 ADD SWAP1 SWAP3 MSTORE PUSH1 0x60 SWAP2 PUSH1 0x0 SWAP2 SWAP1 PUSH1 0x20 DUP1 DUP4 ADD SWAP1 DUP1 CALLDATASIZE DUP4 CALLDATACOPY ADD SWAP1 POP POP SWAP1 POP PUSH8 0xDE0B6B3A7640000 DUP2 PUSH1 0x0 DUP2 MLOAD DUP2 LT PUSH2 0xDF9 JUMPI PUSH2 0xDF9 PUSH2 0x1C7B JUMP JUMPDEST PUSH1 0x3E SLOAD PUSH1 0x40 MLOAD PUSH4 0xEBB9D8C9 PUSH1 0xE0 SHL DUP2 MSTORE PUSH32 0xB67EEC94184C7ECFF5DEAC18DE0B19BB655BADA4E9FDA5909850767259EA07EA PUSH1 0x4 DUP3 ADD MSTORE PUSH1 0x24 DUP2 ADD DUP4 SWAP1 MSTORE PUSH1 0x1 PUSH1 0x1 PUSH1 0xA0 SHL SUB SWAP1 SWAP2 AND SWAP1 PUSH4 0xEBB9D8C9 SWAP1 PUSH1 0x44 ADD JUMPDEST PUSH1 0x0 PUSH1 0x40 MLOAD DUP1 DUP4 SUB DUP2 PUSH1 0x0 DUP8 DUP1 EXTCODESIZE ISZERO DUP1 ISZERO PUSH2 0xEB8 JUMPI PUSH1 0x0 DUP1 REVERT JUMPDEST POP GAS CALL ISZERO DUP1 ISZERO PUSH2 0xECC JUMPI RETURNDATASIZE PUSH1 0x0 DUP1 RETURNDATACOPY RETURNDATASIZE PUSH1 0x0 REVERT JUMPDEST POP POP POP POP POP JUMP JUMPDEST PUSH1 0x0 PUSH2 0xEE7 PUSH1 0x3E SLOAD PUSH1 0x1 PUSH1 0x1 PUSH1 0xA0 SHL SUB AND SWAP1 JUMP JUMPDEST PUSH1 0x1 PUSH1 0x1 PUSH1 0xA0 SHL SUB AND PUSH4 0x7AE1CFCA DUP4 PUSH1 0x40 MLOAD PUSH1 0x20 ADD PUSH2 0xF3F SWAP2 SWAP1 PUSH32 0x7068616E746F6D2E626F6E64696E672E69735F76616C69640000000000000000 DUP2 MSTORE PUSH1 0x60 SWAP2 SWAP1 SWAP2 SHL PUSH1 0x1 PUSH1 0x1 PUSH1 0x60 SHL SUB NOT AND PUSH1 0x18 DUP3 ADD MSTORE PUSH1 0x2C ADD SWAP1 JUMP JUMPDEST PUSH1 0x40 MLOAD PUSH1 0x20 DUP2 DUP4 SUB SUB DUP2 MSTORE SWAP1 PUSH1 0x40 MSTORE DUP1 MLOAD SWAP1 PUSH1 0x20 ADD KECCAK256 PUSH1 0x40 MLOAD DUP3 PUSH4 0xFFFFFFFF AND PUSH1 0xE0 SHL DUP2 MSTORE PUSH1 0x4 ADD PUSH2 0xF73 SWAP2 DUP2 MSTORE PUSH1 0x20 ADD SWAP1 JUMP JUMPDEST PUSH1 0x20 PUSH1 0x40 MLOAD DUP1 DUP4 SUB DUP2 DUP7 GAS STATICCALL ISZERO DUP1 ISZERO PUSH2 0xF90 JUMPI RETURNDATASIZE PUSH1 0x0 DUP1 RETURNDATACOPY RETURNDATASIZE PUSH1 0x0 REVERT JUMPDEST POP POP POP POP PUSH1 0x40 MLOAD RETURNDATASIZE PUSH1 0x1F NOT PUSH1 0x1F DUP3 ADD AND DUP3 ADD DUP1 PUSH1 0x40 MSTORE POP DUP2 ADD SWAP1 PUSH2 0x30F SWAP2 SWAP1 PUSH2 0x1C91 JUMP JUMPDEST PUSH1 0x0 PUSH2 0xFC8 PUSH1 0x3E SLOAD PUSH1 0x1 PUSH1 0x1 PUSH1 0xA0 SHL SUB AND SWAP1 JUMP JUMPDEST PUSH1 0x1 PUSH1 0x1 PUSH1 0xA0 SHL SUB AND PUSH4 0xBD02D0F5 DUP6 DUP6 DUP6 PUSH1 0x40 MLOAD PUSH1 0x20 ADD PUSH2 0xFEB SWAP4 SWAP3 SWAP2 SWAP1 PUSH2 0x1CAE JUMP JUMPDEST PUSH1 0x40 MLOAD PUSH1 0x20 DUP2 DUP4 SUB SUB DUP2 MSTORE SWAP1 PUSH1 0x40 MSTORE DUP1 MLOAD SWAP1 PUSH1 0x20 ADD KECCAK256 PUSH1 0x40 MLOAD DUP3 PUSH4 0xFFFFFFFF AND PUSH1 0xE0 SHL DUP2 MSTORE PUSH1 0x4 ADD PUSH2 0x101F SWAP2 DUP2 MSTORE PUSH1 0x20 ADD SWAP1 JUMP JUMPDEST PUSH1 0x20 PUSH1 0x40 MLOAD DUP1 DUP4 SUB DUP2 DUP7 GAS STATICCALL ISZERO DUP1 ISZERO PUSH2 0x103C JUMPI RETURNDATASIZE PUSH1 0x0 DUP1 RETURNDATACOPY RETURNDATASIZE PUSH1 0x0 REVERT JUMPDEST POP POP POP POP PUSH1 0x40 MLOAD RETURNDATASIZE PUSH1 0x1F NOT PUSH1 0x1F DUP3 ADD AND DUP3 ADD DUP1 PUSH1 0x40 MSTORE POP DUP2 ADD SWAP1 PUSH2 0x1060 SWAP2 SWAP1 PUSH2 0x18EB JUMP JUMPDEST SWAP5 SWAP4 POP POP POP POP JUMP JUMPDEST PUSH1 0x40 DUP1 MLOAD PUSH1 0x2 DUP1 DUP3 MSTORE PUSH1 0x60 DUP1 DUP4 ADD DUP5 MSTORE SWAP3 PUSH1 0x0 SWAP3 SWAP2 SWAP1 PUSH1 0x20 DUP4 ADD SWAP1 DUP1 CALLDATASIZE DUP4 CALLDATACOPY POP POP PUSH1 0x40 MLOAD SWAP2 SWAP3 POP PUSH2 0x109C SWAP2 PUSH1 0x15 SWAP2 POP PUSH2 0x1ACA JUMP JUMPDEST PUSH1 0x40 MLOAD DUP1 SWAP2 SUB SWAP1 KECCAK256 DUP2 PUSH1 0x0 DUP2 MLOAD DUP2 LT PUSH2 0x10B7 JUMPI PUSH2 0x10B7 PUSH2 0x1C7B JUMP JUMPDEST PUSH1 0x20 SWAP1 DUP2 MUL SWAP2 SWAP1 SWAP2 ADD ADD MSTORE PUSH1 0x40 MLOAD PUSH2 0x10D1 SWAP1 PUSH1 0x13 SWAP1 PUSH2 0x1ACA JUMP JUMPDEST PUSH1 0x40 MLOAD DUP1 SWAP2 SUB SWAP1 KECCAK256 DUP2 PUSH1 0x1 DUP2 MLOAD DUP2 LT PUSH2 0xDF9 JUMPI PUSH2 0xDF9 PUSH2 0x1C7B JUMP JUMPDEST PUSH1 0x40 DUP1 MLOAD PUSH1 0x2 DUP1 DUP3 MSTORE PUSH1 0x60 DUP1 DUP4 ADD DUP5 MSTORE SWAP3 PUSH1 0x0 SWAP3 SWAP2 SWAP1 PUSH1 0x20 DUP4 ADD SWAP1 DUP1 CALLDATASIZE DUP4 CALLDATACOPY ADD SWAP1 POP POP SWAP1 POP PUSH8 0xC7D713B49DA0000 DUP2 PUSH1 0x0 DUP2 MLOAD DUP2 LT PUSH2 0x112D JUMPI PUSH2 0x112D PUSH2 0x1C7B JUMP JUMPDEST PUSH1 0x20 MUL PUSH1 0x20 ADD ADD DUP2 DUP2 MSTORE POP POP PUSH8 0x16345785D8A0000 DUP2 PUSH1 0x1 DUP2 MLOAD DUP2 LT PUSH2 0xDF9 JUMPI PUSH2 0xDF9 PUSH2 0x1C7B JUMP JUMPDEST PUSH1 0x0 PUSH2 0x1169 PUSH1 0x3E SLOAD PUSH1 0x1 PUSH1 0x1 PUSH1 0xA0 SHL SUB AND SWAP1 JUMP JUMPDEST PUSH1 0x40 MLOAD PUSH4 0xBD02D0F5 PUSH1 0xE0 SHL DUP2 MSTORE PUSH32 0x43F8AA1ADA4B1E7BC63A4B6F55554B2EFC4393BB4F2037B7DDD0DEA41CFE0252 PUSH1 0x4 DUP3 ADD MSTORE PUSH1 0x1 PUSH1 0x1 PUSH1 0xA0 SHL SUB SWAP2 SWAP1 SWAP2 AND SWAP1 PUSH4 0xBD02D0F5 SWAP1 PUSH1 0x24 ADD PUSH2 0x92F JUMP JUMPDEST PUSH1 0x40 DUP1 MLOAD PUSH1 0x1 DUP1 DUP3 MSTORE DUP2 DUP4 ADD SWAP1 SWAP3 MSTORE PUSH1 0x60 SWAP2 PUSH1 0x0 SWAP2 SWAP1 PUSH1 0x20 DUP1 DUP4 ADD SWAP1 DUP1 CALLDATASIZE DUP4 CALLDATACOPY POP POP PUSH1 0x40 MLOAD SWAP2 SWAP3 POP PUSH2 0xDDE SWAP2 PUSH1 0x14 SWAP2 POP PUSH2 0x1ACA JUMP JUMPDEST PUSH1 0x0 PUSH2 0x1200 PUSH1 0x3E SLOAD PUSH1 0x1 PUSH1 0x1 PUSH1 0xA0 SHL SUB AND SWAP1 JUMP JUMPDEST PUSH1 0x1 PUSH1 0x1 PUSH1 0xA0 SHL SUB AND PUSH4 0xBD02D0F5 DUP7 DUP7 PUSH1 0x40 MLOAD PUSH1 0x20 ADD PUSH2 0x1221 SWAP3 SWAP2 SWAP1 PUSH2 0x1D00 JUMP JUMPDEST PUSH1 0x40 MLOAD PUSH1 0x20 DUP2 DUP4 SUB SUB DUP2 MSTORE SWAP1 PUSH1 0x40 MSTORE DUP1 MLOAD SWAP1 PUSH1 0x20 ADD KECCAK256 PUSH1 0x40 MLOAD DUP3 PUSH4 0xFFFFFFFF AND PUSH1 0xE0 SHL DUP2 MSTORE PUSH1 0x4 ADD PUSH2 0x1255 SWAP2 DUP2 MSTORE PUSH1 0x20 ADD SWAP1 JUMP JUMPDEST PUSH1 0x20 PUSH1 0x40 MLOAD DUP1 DUP4 SUB DUP2 DUP7 GAS STATICCALL ISZERO DUP1 ISZERO PUSH2 0x1272 JUMPI RETURNDATASIZE PUSH1 0x0 DUP1 RETURNDATACOPY RETURNDATASIZE PUSH1 0x0 REVERT JUMPDEST POP POP POP POP PUSH1 0x40 MLOAD RETURNDATASIZE PUSH1 0x1F NOT PUSH1 0x1F DUP3 ADD AND DUP3 ADD DUP1 PUSH1 0x40 MSTORE POP DUP2 ADD SWAP1 PUSH2 0x1296 SWAP2 SWAP1 PUSH2 0x18EB JUMP JUMPDEST SWAP1 POP PUSH2 0x12AA PUSH1 0x3E SLOAD PUSH1 0x1 PUSH1 0x1 PUSH1 0xA0 SHL SUB AND SWAP1 JUMP JUMPDEST PUSH1 0x1 PUSH1 0x1 PUSH1 0xA0 SHL SUB AND PUSH4 0xE2A4853A DUP5 DUP5 PUSH1 0x40 MLOAD PUSH1 0x20 ADD PUSH2 0x12CB SWAP3 SWAP2 SWAP1 PUSH2 0x1C16 JUMP JUMPDEST PUSH1 0x40 MLOAD PUSH1 0x20 DUP2 DUP4 SUB SUB DUP2 MSTORE SWAP1 PUSH1 0x40 MSTORE DUP1 MLOAD SWAP1 PUSH1 0x20 ADD KECCAK256 DUP4 TIMESTAMP PUSH2 0x12ED SWAP2 SWAP1 PUSH2 0x191A JUMP JUMPDEST PUSH1 0x40 MLOAD PUSH1 0x1 PUSH1 0x1 PUSH1 0xE0 SHL SUB NOT PUSH1 0xE0 DUP6 SWAP1 SHL AND DUP2 MSTORE PUSH1 0x4 DUP2 ADD SWAP3 SWAP1 SWAP3 MSTORE PUSH1 0x24 DUP3 ADD MSTORE PUSH1 0x44 ADD PUSH1 0x0 PUSH1 0x40 MLOAD DUP1 DUP4 SUB DUP2 PUSH1 0x0 DUP8 DUP1 EXTCODESIZE ISZERO DUP1 ISZERO PUSH2 0x132B JUMPI PUSH1 0x0 DUP1 REVERT JUMPDEST POP GAS CALL ISZERO DUP1 ISZERO PUSH2 0x133F JUMPI RETURNDATASIZE PUSH1 0x0 DUP1 RETURNDATACOPY RETURNDATASIZE PUSH1 0x0 REVERT JUMPDEST POP POP POP POP PUSH2 0x1355 PUSH1 0x3E SLOAD PUSH1 0x1 PUSH1 0x1 PUSH1 0xA0 SHL SUB AND SWAP1 JUMP JUMPDEST PUSH1 0x1 PUSH1 0x1 PUSH1 0xA0 SHL SUB AND PUSH4 0xE2A4853A DUP5 DUP5 PUSH1 0x40 MLOAD PUSH1 0x20 ADD PUSH2 0x1376 SWAP3 SWAP2 SWAP1 PUSH2 0x1BD3 JUMP JUMPDEST PUSH1 0x40 DUP1 MLOAD PUSH1 0x1F NOT DUP2 DUP5 SUB ADD DUP2 MSTORE SWAP1 DUP3 SWAP1 MSTORE DUP1 MLOAD PUSH1 0x20 SWAP1 SWAP2 ADD KECCAK256 PUSH1 0x1 PUSH1 0x1 PUSH1 0xE0 SHL SUB NOT PUSH1 0xE0 DUP5 SWAP1 SHL AND DUP3 MSTORE PUSH1 0x4 DUP3 ADD MSTORE TIMESTAMP PUSH1 0x24 DUP3 ADD MSTORE PUSH1 0x44 ADD PUSH1 0x0 PUSH1 0x40 MLOAD DUP1 DUP4 SUB DUP2 PUSH1 0x0 DUP8 DUP1 EXTCODESIZE ISZERO DUP1 ISZERO PUSH2 0x13C8 JUMPI PUSH1 0x0 DUP1 REVERT JUMPDEST POP GAS CALL ISZERO DUP1 ISZERO PUSH2 0x13DC JUMPI RETURNDATASIZE PUSH1 0x0 DUP1 RETURNDATACOPY RETURNDATASIZE PUSH1 0x0 REVERT JUMPDEST POP POP POP POP POP POP POP POP POP JUMP JUMPDEST PUSH1 0x3E SLOAD PUSH1 0x1 PUSH1 0x1 PUSH1 0xA0 SHL SUB AND PUSH1 0x1 PUSH1 0x1 PUSH1 0xA0 SHL SUB AND PUSH4 0xE2A4853A DUP5 DUP5 PUSH1 0x40 MLOAD PUSH1 0x20 ADD PUSH2 0x1414 SWAP3 SWAP2 SWAP1 PUSH2 0x1B83 JUMP JUMPDEST PUSH1 0x40 DUP1 MLOAD PUSH1 0x1F NOT DUP2 DUP5 SUB ADD DUP2 MSTORE SWAP1 DUP3 SWAP1 MSTORE DUP1 MLOAD PUSH1 0x20 SWAP1 SWAP2 ADD KECCAK256 PUSH1 0x1 PUSH1 0x1 PUSH1 0xE0 SHL SUB NOT PUSH1 0xE0 DUP5 SWAP1 SHL AND DUP3 MSTORE PUSH1 0x4 DUP3 ADD MSTORE PUSH1 0x24 DUP2 ADD DUP5 SWAP1 MSTORE PUSH1 0x44 ADD PUSH1 0x0 PUSH1 0x40 MLOAD DUP1 DUP4 SUB DUP2 PUSH1 0x0 DUP8 DUP1 EXTCODESIZE ISZERO DUP1 ISZERO PUSH2 0x1467 JUMPI PUSH1 0x0 DUP1 REVERT JUMPDEST POP GAS CALL ISZERO DUP1 ISZERO PUSH2 0x147B JUMPI RETURNDATASIZE PUSH1 0x0 DUP1 RETURNDATACOPY RETURNDATASIZE PUSH1 0x0 REVERT JUMPDEST POP POP POP POP POP POP POP JUMP JUMPDEST PUSH1 0x3E SLOAD PUSH1 0x1 PUSH1 0x1 PUSH1 0xA0 SHL SUB AND PUSH1 0x1 PUSH1 0x1 PUSH1 0xA0 SHL SUB AND PUSH4 0xADB353DC DUP3 PUSH1 0x40 MLOAD PUSH1 0x20 ADD PUSH2 0x14AF SWAP2 SWAP1 PUSH2 0x1A77 JUMP JUMPDEST PUSH1 0x40 DUP1 MLOAD PUSH1 0x1F NOT DUP2 DUP5 SUB ADD DUP2 MSTORE SWAP1 DUP3 SWAP1 MSTORE DUP1 MLOAD PUSH1 0x20 SWAP1 SWAP2 ADD KECCAK256 PUSH1 0x1 PUSH1 0x1 PUSH1 0xE0 SHL SUB NOT PUSH1 0xE0 DUP5 SWAP1 SHL AND DUP3 MSTORE PUSH1 0x4 DUP3 ADD MSTORE PUSH1 0x1 PUSH1 0x24 DUP3 ADD MSTORE PUSH1 0x44 ADD PUSH2 0xE9E JUMP JUMPDEST PUSH1 0x3E SLOAD PUSH1 0x40 MLOAD PUSH4 0x2B6CD4F7 PUSH1 0xE2 SHL DUP2 MSTORE PUSH32 0xB67EEC94184C7ECFF5DEAC18DE0B19BB655BADA4E9FDA5909850767259EA07EA PUSH1 0x4 DUP3 ADD MSTORE PUSH1 0x24 DUP2 ADD DUP4 SWAP1 MSTORE PUSH1 0x1 PUSH1 0x1 PUSH1 0xA0 SHL SUB SWAP1 SWAP2 AND SWAP1 PUSH4 0xADB353DC SWAP1 PUSH1 0x44 ADD PUSH2 0xE9E JUMP JUMPDEST PUSH1 0x0 DUP1 DUP1 PUSH1 0x0 NOT DUP6 DUP8 MULMOD DUP6 DUP8 MUL SWAP3 POP DUP3 DUP2 LT DUP4 DUP3 SUB SUB SWAP2 POP POP DUP1 PUSH1 0x0 EQ ISZERO PUSH2 0x157F JUMPI DUP4 DUP3 DUP2 PUSH2 0x1575 JUMPI PUSH2 0x1575 PUSH2 0x1D39 JUMP JUMPDEST DIV SWAP3 POP POP POP PUSH2 0x985 JUMP JUMPDEST DUP4 DUP2 LT PUSH2 0x15A9 JUMPI PUSH1 0x40 MLOAD PUSH4 0x1DCF3063 PUSH1 0xE2 SHL DUP2 MSTORE PUSH1 0x4 DUP2 ADD DUP3 SWAP1 MSTORE PUSH1 0x24 DUP2 ADD DUP6 SWAP1 MSTORE PUSH1 0x44 ADD PUSH2 0x45F JUMP JUMPDEST PUSH1 0x0 DUP5 DUP7 DUP9 MULMOD PUSH1 0x2 PUSH1 0x1 DUP8 NOT DUP2 ADD DUP9 AND SWAP8 DUP9 SWAP1 DIV PUSH1 0x3 DUP2 MUL DUP4 XOR DUP1 DUP3 MUL DUP5 SUB MUL DUP1 DUP3 MUL DUP5 SUB MUL DUP1 DUP3 MUL DUP5 SUB MUL DUP1 DUP3 MUL DUP5 SUB MUL DUP1 DUP3 MUL DUP5 SUB MUL SWAP1 DUP2 MUL SWAP1 SWAP3 SUB SWAP1 SWAP2 MUL PUSH1 0x0 DUP9 SWAP1 SUB DUP9 SWAP1 DIV SWAP1 SWAP2 ADD DUP6 DUP4 GT SWAP1 SWAP5 SUB SWAP4 SWAP1 SWAP4 MUL SWAP4 SUB SWAP5 SWAP1 SWAP5 DIV SWAP2 SWAP1 SWAP2 OR MUL SWAP5 SWAP4 POP POP POP POP JUMP JUMPDEST PUSH1 0x0 PUSH25 0x12725DD1D243ABA0E75FE645CC4873F9E65AFE688C928E1F21 DUP3 GT ISZERO PUSH2 0x1651 JUMPI PUSH1 0x40 MLOAD PUSH4 0x3492FFD9 PUSH1 0xE0 SHL DUP2 MSTORE PUSH1 0x4 DUP2 ADD DUP4 SWAP1 MSTORE PUSH1 0x24 ADD PUSH2 0x45F JUMP JUMPDEST POP PUSH8 0xDE0B6B3A7640000 MUL SWAP1 JUMP JUMPDEST PUSH1 0x0 PUSH2 0x985 DUP4 DUP4 PUSH2 0x16E2 JUMP JUMPDEST PUSH1 0x3E SLOAD PUSH1 0x1 PUSH1 0x1 PUSH1 0xA0 SHL SUB AND PUSH1 0x1 PUSH1 0x1 PUSH1 0xA0 SHL SUB AND PUSH4 0xADB353DC DUP3 PUSH1 0x40 MLOAD PUSH1 0x20 ADD PUSH2 0x14AF SWAP2 SWAP1 PUSH32 0x7068616E746F6D2E626F6E64696E672E6C6F776573745F6E6F6E63655F737469 DUP2 MSTORE PUSH10 0x6C6C5F76657374696E67 PUSH1 0xB0 SHL PUSH1 0x20 DUP3 ADD MSTORE PUSH1 0x60 SWAP2 SWAP1 SWAP2 SHL PUSH1 0x1 PUSH1 0x1 PUSH1 0x60 SHL SUB NOT AND PUSH1 0x2A DUP3 ADD MSTORE PUSH1 0x3E ADD SWAP1 JUMP JUMPDEST PUSH1 0x0 DUP1 DUP1 PUSH1 0x0 NOT DUP5 DUP7 MULMOD DUP5 DUP7 MUL SWAP3 POP DUP3 DUP2 LT DUP4 DUP3 SUB SUB SWAP2 POP POP PUSH8 0xDE0B6B3A7640000 DUP2 LT PUSH2 0x1726 JUMPI PUSH1 0x40 MLOAD PUSH4 0x698D9A01 PUSH1 0xE1 SHL DUP2 MSTORE PUSH1 0x4 DUP2 ADD DUP3 SWAP1 MSTORE PUSH1 0x24 ADD PUSH2 0x45F JUMP JUMPDEST PUSH1 0x0 DUP1 PUSH8 0xDE0B6B3A7640000 DUP7 DUP9 MULMOD SWAP2 POP POP PUSH8 0x6F05B59D3B1FFFF DUP2 GT DUP3 PUSH2 0x1760 JUMPI DUP1 PUSH8 0xDE0B6B3A7640000 DUP6 DIV ADD SWAP5 POP POP POP POP POP PUSH2 0x30F JUMP JUMPDEST PUSH3 0x40000 DUP3 DUP6 SUB DIV SWAP4 SWAP1 SWAP2 GT SWAP1 SWAP2 SUB PUSH1 0x1 PUSH1 0xEE SHL MUL SWAP2 SWAP1 SWAP2 OR PUSH32 0xACCB18165BD6FE31AE1CF318DC5B51EEE0E1BA569B88CD74C1773B91FAC10669 MUL ADD SWAP1 POP SWAP3 SWAP2 POP POP JUMP JUMPDEST PUSH1 0x1 PUSH1 0x1 PUSH1 0xA0 SHL SUB DUP2 AND DUP2 EQ PUSH2 0x17B9 JUMPI PUSH1 0x0 DUP1 REVERT JUMPDEST POP JUMP JUMPDEST PUSH1 0x0 DUP1 PUSH1 0x40 DUP4 DUP6 SUB SLT ISZERO PUSH2 0x17CF JUMPI PUSH1 0x0 DUP1 REVERT JUMPDEST DUP3 CALLDATALOAD PUSH2 0x17DA DUP2 PUSH2 0x17A4 JUMP JUMPDEST SWAP5 PUSH1 0x20 SWAP4 SWAP1 SWAP4 ADD CALLDATALOAD SWAP4 POP POP POP JUMP JUMPDEST PUSH1 0x0 PUSH1 0x20 DUP3 DUP5 SUB SLT ISZERO PUSH2 0x17FA JUMPI PUSH1 0x0 DUP1 REVERT JUMPDEST DUP2 CALLDATALOAD PUSH2 0x985 DUP2 PUSH2 0x17A4 JUMP JUMPDEST DUP1 ISZERO ISZERO DUP2 EQ PUSH2 0x17B9 JUMPI PUSH1 0x0 DUP1 REVERT JUMPDEST PUSH1 0x0 DUP1 PUSH1 0x40 DUP4 DUP6 SUB SLT ISZERO PUSH2 0x1826 JUMPI PUSH1 0x0 DUP1 REVERT JUMPDEST DUP3 CALLDATALOAD PUSH2 0x1831 DUP2 PUSH2 0x17A4 JUMP JUMPDEST SWAP2 POP PUSH1 0x20 DUP4 ADD CALLDATALOAD PUSH2 0x1841 DUP2 PUSH2 0x1805 JUMP JUMPDEST DUP1 SWAP2 POP POP SWAP3 POP SWAP3 SWAP1 POP JUMP JUMPDEST PUSH1 0x0 DUP1 PUSH1 0x0 DUP1 PUSH1 0x0 PUSH1 0x80 DUP7 DUP9 SUB SLT ISZERO PUSH2 0x1864 JUMPI PUSH1 0x0 DUP1 REVERT JUMPDEST DUP6 CALLDATALOAD PUSH2 0x186F DUP2 PUSH2 0x17A4 JUMP JUMPDEST SWAP5 POP PUSH1 0x20 DUP7 ADD CALLDATALOAD SWAP4 POP PUSH1 0x40 DUP7 ADD CALLDATALOAD PUSH2 0x1886 DUP2 PUSH2 0x17A4 JUMP JUMPDEST SWAP3 POP PUSH1 0x60 DUP7 ADD CALLDATALOAD PUSH8 0xFFFFFFFFFFFFFFFF DUP1 DUP3 GT ISZERO PUSH2 0x18A3 JUMPI PUSH1 0x0 DUP1 REVERT JUMPDEST DUP2 DUP9 ADD SWAP2 POP DUP9 PUSH1 0x1F DUP4 ADD SLT PUSH2 0x18B7 JUMPI PUSH1 0x0 DUP1 REVERT JUMPDEST DUP2 CALLDATALOAD DUP2 DUP2 GT ISZERO PUSH2 0x18C6 JUMPI PUSH1 0x0 DUP1 REVERT JUMPDEST DUP10 PUSH1 0x20 DUP3 DUP6 ADD ADD GT ISZERO PUSH2 0x18D8 JUMPI PUSH1 0x0 DUP1 REVERT JUMPDEST SWAP7 SWAP10 SWAP6 SWAP9 POP SWAP4 SWAP7 POP PUSH1 0x20 ADD SWAP5 SWAP4 SWAP3 POP POP POP JUMP JUMPDEST PUSH1 0x0 PUSH1 0x20 DUP3 DUP5 SUB SLT ISZERO PUSH2 0x18FD JUMPI PUSH1 0x0 DUP1 REVERT JUMPDEST POP MLOAD SWAP2 SWAP1 POP JUMP JUMPDEST PUSH4 0x4E487B71 PUSH1 0xE0 SHL PUSH1 0x0 MSTORE PUSH1 0x11 PUSH1 0x4 MSTORE PUSH1 0x24 PUSH1 0x0 REVERT JUMPDEST PUSH1 0x0 DUP3 NOT DUP3 GT ISZERO PUSH2 0x192D JUMPI PUSH2 0x192D PUSH2 0x1904 JUMP JUMPDEST POP ADD SWAP1 JUMP JUMPDEST PUSH1 0x0 PUSH1 0x0 NOT DUP3 EQ ISZERO PUSH2 0x1946 JUMPI PUSH2 0x1946 PUSH2 0x1904 JUMP JUMPDEST POP PUSH1 0x1 ADD SWAP1 JUMP JUMPDEST PUSH1 0x0 DUP2 MLOAD DUP1 DUP5 MSTORE PUSH1 0x20 DUP1 DUP6 ADD SWAP5 POP DUP1 DUP5 ADD PUSH1 0x0 JUMPDEST DUP4 DUP2 LT ISZERO PUSH2 0x197D JUMPI DUP2 MLOAD DUP8 MSTORE SWAP6 DUP3 ADD SWAP6 SWAP1 DUP3 ADD SWAP1 PUSH1 0x1 ADD PUSH2 0x1961 JUMP JUMPDEST POP SWAP5 SWAP6 SWAP5 POP POP POP POP POP JUMP JUMPDEST PUSH1 0x1 PUSH1 0x1 PUSH1 0xA0 SHL SUB DUP9 DUP2 AND DUP3 MSTORE PUSH1 0x20 DUP3 ADD DUP9 SWAP1 MSTORE DUP7 DUP2 AND PUSH1 0x40 DUP4 ADD MSTORE PUSH1 0x60 DUP3 ADD DUP7 SWAP1 MSTORE DUP5 AND PUSH1 0x80 DUP3 ADD MSTORE PUSH1 0xE0 PUSH1 0xA0 DUP3 ADD DUP2 SWAP1 MSTORE PUSH1 0x0 SWAP1 PUSH2 0x19CA SWAP1 DUP4 ADD DUP6 PUSH2 0x194D JUMP JUMPDEST DUP3 DUP2 SUB PUSH1 0xC0 DUP5 ADD MSTORE PUSH2 0x19DC DUP2 DUP6 PUSH2 0x194D JUMP JUMPDEST SWAP11 SWAP10 POP POP POP POP POP POP POP POP POP POP JUMP JUMPDEST PUSH1 0x1 PUSH1 0x1 PUSH1 0xA0 SHL SUB DUP11 DUP2 AND DUP3 MSTORE PUSH1 0x20 DUP3 ADD DUP11 SWAP1 MSTORE DUP9 AND PUSH1 0x40 DUP3 ADD MSTORE PUSH2 0x120 PUSH1 0x60 DUP3 ADD DUP2 SWAP1 MSTORE PUSH1 0x0 SWAP1 PUSH2 0x1A1E DUP4 DUP3 ADD DUP11 PUSH2 0x194D JUMP JUMPDEST SWAP1 POP DUP3 DUP2 SUB PUSH1 0x80 DUP5 ADD MSTORE PUSH2 0x1A32 DUP2 DUP10 PUSH2 0x194D JUMP JUMPDEST SWAP1 POP DUP7 PUSH1 0xA0 DUP5 ADD MSTORE DUP6 PUSH1 0xC0 DUP5 ADD MSTORE DUP3 DUP2 SUB PUSH1 0xE0 DUP5 ADD MSTORE PUSH2 0x1A52 DUP2 DUP7 PUSH2 0x194D JUMP JUMPDEST SWAP1 POP DUP3 DUP2 SUB PUSH2 0x100 DUP5 ADD MSTORE PUSH2 0x1A67 DUP2 DUP6 PUSH2 0x194D JUMP JUMPDEST SWAP13 SWAP12 POP POP POP POP POP POP POP POP POP POP POP POP JUMP JUMPDEST PUSH32 0x7068616E746F6D2E626F6E64696E672E757365722E6C6F776573745F61737369 DUP2 MSTORE PUSH12 0x676E61626C655F6E6F6E6365 PUSH1 0xA0 SHL PUSH1 0x20 DUP3 ADD MSTORE PUSH1 0x60 SWAP2 SWAP1 SWAP2 SHL PUSH1 0x1 PUSH1 0x1 PUSH1 0x60 SHL SUB NOT AND PUSH1 0x2C DUP3 ADD MSTORE PUSH1 0x40 ADD SWAP1 JUMP JUMPDEST PUSH1 0x0 DUP1 DUP4 SLOAD DUP2 PUSH1 0x1 DUP3 DUP2 SHR SWAP2 POP DUP1 DUP4 AND DUP1 PUSH2 0x1AE6 JUMPI PUSH1 0x7F DUP4 AND SWAP3 POP JUMPDEST PUSH1 0x20 DUP1 DUP5 LT DUP3 EQ ISZERO PUSH2 0x1B06 JUMPI PUSH4 0x4E487B71 PUSH1 0xE0 SHL DUP7 MSTORE PUSH1 0x22 PUSH1 0x4 MSTORE PUSH1 0x24 DUP7 REVERT JUMPDEST DUP2 DUP1 ISZERO PUSH2 0x1B1A JUMPI PUSH1 0x1 DUP2 EQ PUSH2 0x1B2B JUMPI PUSH2 0x1B58 JUMP JUMPDEST PUSH1 0xFF NOT DUP7 AND DUP10 MSTORE DUP5 DUP10 ADD SWAP7 POP PUSH2 0x1B58 JUMP JUMPDEST PUSH1 0x0 DUP11 DUP2 MSTORE PUSH1 0x20 SWAP1 KECCAK256 PUSH1 0x0 JUMPDEST DUP7 DUP2 LT ISZERO PUSH2 0x1B50 JUMPI DUP2 SLOAD DUP12 DUP3 ADD MSTORE SWAP1 DUP6 ADD SWAP1 DUP4 ADD PUSH2 0x1B37 JUMP JUMPDEST POP POP DUP5 DUP10 ADD SWAP7 POP JUMPDEST POP SWAP5 SWAP9 SWAP8 POP POP POP POP POP POP POP POP JUMP JUMPDEST PUSH1 0x0 PUSH1 0x20 DUP3 DUP5 SUB SLT ISZERO PUSH2 0x1B78 JUMPI PUSH1 0x0 DUP1 REVERT JUMPDEST DUP2 MLOAD PUSH2 0x985 DUP2 PUSH2 0x17A4 JUMP JUMPDEST PUSH32 0x7068616E746F6D2E626F6E64696E672E72656D61696E696E675F7061796F7574 DUP2 MSTORE PUSH4 0x2FB337B9 PUSH1 0xE1 SHL PUSH1 0x20 DUP3 ADD MSTORE PUSH1 0x60 SWAP3 SWAP1 SWAP3 SHL PUSH1 0x1 PUSH1 0x1 PUSH1 0x60 SHL SUB NOT AND PUSH1 0x24 DUP4 ADD MSTORE PUSH1 0x38 DUP3 ADD MSTORE PUSH1 0x58 ADD SWAP1 JUMP JUMPDEST PUSH32 0x7068616E746F6D2E626F6E64696E672E6C6173745F636C61696D5F6174000000 DUP2 MSTORE PUSH1 0x60 SWAP3 SWAP1 SWAP3 SHL PUSH1 0x1 PUSH1 0x1 PUSH1 0x60 SHL SUB NOT AND PUSH1 0x1D DUP4 ADD MSTORE PUSH1 0x31 DUP3 ADD MSTORE PUSH1 0x51 ADD SWAP1 JUMP JUMPDEST PUSH32 0x7068616E746F6D2E626F6E64696E672E76657374735F61745F74696D65737461 DUP2 MSTORE PUSH2 0x6D7 PUSH1 0xF4 SHL PUSH1 0x20 DUP3 ADD MSTORE PUSH1 0x60 SWAP3 SWAP1 SWAP3 SHL PUSH1 0x1 PUSH1 0x1 PUSH1 0x60 SHL SUB NOT AND PUSH1 0x22 DUP4 ADD MSTORE PUSH1 0x36 DUP3 ADD MSTORE PUSH1 0x56 ADD SWAP1 JUMP JUMPDEST PUSH1 0x0 DUP3 DUP3 LT ISZERO PUSH2 0x1C76 JUMPI PUSH2 0x1C76 PUSH2 0x1904 JUMP JUMPDEST POP SUB SWAP1 JUMP JUMPDEST PUSH4 0x4E487B71 PUSH1 0xE0 SHL PUSH1 0x0 MSTORE PUSH1 0x32 PUSH1 0x4 MSTORE PUSH1 0x24 PUSH1 0x0 REVERT JUMPDEST PUSH1 0x0 PUSH1 0x20 DUP3 DUP5 SUB SLT ISZERO PUSH2 0x1CA3 JUMPI PUSH1 0x0 DUP1 REVERT JUMPDEST DUP2 MLOAD PUSH2 0x985 DUP2 PUSH2 0x1805 JUMP JUMPDEST PUSH32 0x7068616E746F6D2E626F6E64696E672E6D756C7469706C696572000000000000 DUP2 MSTORE PUSH12 0xFFFFFFFFFFFFFFFFFFFFFFFF NOT DUP5 PUSH1 0x60 SHL AND PUSH1 0x1A DUP3 ADD MSTORE DUP2 DUP4 PUSH1 0x2E DUP4 ADD CALLDATACOPY PUSH1 0x0 SWAP2 ADD PUSH1 0x2E ADD SWAP1 DUP2 MSTORE SWAP3 SWAP2 POP POP JUMP JUMPDEST PUSH32 0x7068616E746F6D2E626F6E64696E672E747970652E766573745F6C656E677468 DUP2 MSTORE DUP2 DUP4 PUSH1 0x20 DUP4 ADD CALLDATACOPY PUSH1 0x0 SWAP2 ADD PUSH1 0x20 ADD SWAP1 DUP2 MSTORE SWAP2 SWAP1 POP JUMP JUMPDEST PUSH4 0x4E487B71 PUSH1 0xE0 SHL PUSH1 0x0 MSTORE PUSH1 0x12 PUSH1 0x4 MSTORE PUSH1 0x24 PUSH1 0x0 REVERT INVALID LOG2 PUSH5 0x6970667358 0x22 SLT KECCAK256 0xDE 0x27 PUSH6 0x3FA500267791 0xDE 0xDA 0xCE 0xEA 0xE9 0xB9 0xBA DUP2 DUP13 0xF DELEGATECALL DUP2 DUP6 PUSH27 0xBB8EAD2628A1C2B41664736F6C634300080A003300000000000000 ",
  "sha1": "aeb287aac1d9a3b5ac824d25d36968f6f6ea6620",
  "source": "/* SPDX-License-Identifier: MIT */\npragma solidity =0.8.10;\n\n/* Package Imports */\nimport {PRBMathUD60x18} from \"@hifi-finance/prb-math/contracts/PRBMathUD60x18.sol\";\nimport {PRBMathSD59x18} from \"@hifi-finance/prb-math/contracts/PRBMathSD59x18.sol\";\n/* Package Interface Imports */\nimport {IERC20} from \"@openzeppelin/contracts/token/ERC20/IERC20.sol\";\n\n/* Internal Imports */\nimport {PhantomStorageMixin} from \"../../mixins/PhantomStorageMixin.sol\";\n\n/* Internal Interface Imports */\nimport {IPhantomBonding} from \"../../../interfaces/level0/bonding/IPhantomBonding.sol\";\n\n/**\n * @title PhantomBonding\n * @author PhantomDao Team\n * @notice The contract that handles bonding assets to get PHM\n */\ncontract PhantomBonding is PhantomStorageMixin, IPhantomBonding {\n    using PRBMathUD60x18 for uint256;\n\n    constructor(address storageAddress) PhantomStorageMixin(storageAddress) {\n        return;\n    }\n\n    //=================================================================================================================\n    // Core Functions\n    //=================================================================================================================\n\n    function createBond(\n        address inUser,\n        uint256 inAmount,\n        address inToken,\n        bytes calldata inBondType\n    ) external override nonReentrant returns (uint256) {\n        if (!(isValidBond(inToken))) revert PhantomBondingError_IsNotValidBondingToken(inToken);\n        uint256 mintRatio = uint256(bondingMultiplierFor(inToken, inBondType));\n        uint256 rewardForDeposit = PhantomTreasury().deposit(\n            inUser,\n            inAmount,\n            inToken,\n            standardAccountKeys(),\n            standardAccountPercentages(),\n            mintRatio,\n            bondProfitRatio(),\n            daoKey(),\n            percentage100()\n        );\n        if (!safeToBond(inUser, rewardForDeposit)) revert PhantomBondingError_ExceedsDebtLimit();\n        uint256 nonce = lowestNonceAssignable(inUser);\n        calculateAndSetVestingTimeForBond(inBondType, inUser, nonce);\n        setPayoutForBond(inUser, nonce, rewardForDeposit);\n        incrementLowestNonceAssignable(inUser);\n        increaseOutstandingBondDebt(rewardForDeposit);\n        emit PhantomBonding_BondCreated(inUser, rewardForDeposit, nonce);\n        return rewardForDeposit;\n    }\n\n    function redeemBonds(address inUser, bool autoStake) external override nonReentrant returns (uint256) {\n        uint256 toClaim;\n        uint256 _lowestNonceAssignable = lowestNonceAssignable(inUser);\n        uint256 nonceToClaimFrom = lowestNonceStillVesting(inUser);\n        while (nonceToClaimFrom < _lowestNonceAssignable) {\n            toClaim += claimFromBond(inUser, nonceToClaimFrom++);\n        }\n        if (autoStake) {\n            PhantomTreasury().swapBurnMint(inUser, toClaim, address(PHM()), toClaim, address(sPHM()));\n        } else {\n            PhantomTreasury().swap(inUser, (0), address(0), toClaim, address(PHM()), reserveKey(), percentage100());\n        }\n        decreaseOutstandingBondDebt(toClaim);\n        return toClaim;\n    }\n\n    //=================================================================================================================\n    //  Internal Functions\n    //=================================================================================================================\n\n    function claimFromBond(address inBonder, uint256 nonce) internal returns (uint256) {\n        uint256 remainingToClaim = PhantomStorage().getUint(\n            keccak256(abi.encodePacked(\"phantom.bonding.remaining_payout_for\", inBonder, nonce))\n        );\n        uint256 timeofLastClaim = PhantomStorage().getUint(\n            keccak256(abi.encodePacked(\"phantom.bonding.last_claim_at\", inBonder, nonce))\n        );\n        uint256 timeOfFullVest = PhantomStorage().getUint(\n            keccak256(abi.encodePacked(\"phantom.bonding.vests_at_timestamp\", inBonder, nonce))\n        );\n        uint256 toClaim;\n        if (block.timestamp >= timeOfFullVest) {\n            toClaim = remainingToClaim;\n        } else {\n            uint256 num = (block.timestamp - timeofLastClaim).fromUint();\n            uint256 den = (timeOfFullVest - timeofLastClaim).fromUint();\n            toClaim = remainingToClaim.mul(num.div(den));\n        }\n        remainingToClaim -= toClaim;\n        if (remainingToClaim == 0) {\n            incrementLowestNonceStillVesting(inBonder);\n        }\n        PhantomStorage().setUint(\n            keccak256(abi.encodePacked(\"phantom.bonding.remaining_payout_for\", inBonder, nonce)),\n            remainingToClaim\n        );\n        PhantomStorage().setUint(\n            keccak256(abi.encodePacked(\"phantom.bonding.last_claim_at\", inBonder, nonce)),\n            block.timestamp\n        );\n\n        return toClaim;\n    }\n\n    function calculateAndSetVestingTimeForBond(\n        bytes calldata inBondType,\n        address inBonder,\n        uint256 nonce\n    ) internal {\n        uint256 vest_length = PhantomStorage().getUint(\n            keccak256(abi.encodePacked(\"phantom.bonding.type.vest_length\", inBondType))\n        );\n        PhantomStorage().setUint(\n            keccak256(abi.encodePacked(\"phantom.bonding.vests_at_timestamp\", inBonder, nonce)),\n            block.timestamp + vest_length\n        );\n        PhantomStorage().setUint(\n            keccak256(abi.encodePacked(\"phantom.bonding.last_claim_at\", inBonder, nonce)),\n            block.timestamp\n        );\n    }\n\n    function setPayoutForBond(\n        address inBonder,\n        uint256 nonce,\n        uint256 payout\n    ) internal {\n        PhantomStorage().setUint(\n            keccak256(abi.encodePacked(\"phantom.bonding.remaining_payout_for\", inBonder, nonce)),\n            payout\n        );\n    }\n\n    //=================================================================================================================\n    //  Nonce Managment\n    //=================================================================================================================\n\n    function incrementLowestNonceAssignable(address inBonder) internal {\n        PhantomStorage().addUint(\n            keccak256(abi.encodePacked(\"phantom.bonding.user.lowest_assignable_nonce\", inBonder)),\n            1\n        );\n    }\n\n    function lowestNonceAssignable(address inBonder) public view returns (uint256) {\n        return\n            PhantomStorage().getUint(\n                keccak256(abi.encodePacked(\"phantom.bonding.user.lowest_assignable_nonce\", inBonder))\n            );\n    }\n\n    function incrementLowestNonceStillVesting(address inBonder) internal {\n        PhantomStorage().addUint(\n            keccak256(abi.encodePacked(\"phantom.bonding.lowest_nonce_still_vesting\", inBonder)),\n            1\n        );\n    }\n\n    function lowestNonceStillVesting(address inBonder) public view returns (uint256) {\n        return\n            PhantomStorage().getUint(\n                keccak256(abi.encodePacked(\"phantom.bonding.user.lowest_nonce_still_vesting\", inBonder))\n            );\n    }\n\n    function bondVestingBlocks() internal view returns (uint256) {\n        return PhantomStorage().getUint(keccak256(\"phantom.bonding.vestingblocks\"));\n    }\n\n    function bondingMultiplierFor(address inToken, bytes calldata inBondType) internal view returns (uint256) {\n        return PhantomStorage().getUint(keccak256(abi.encodePacked(\"phantom.bonding.multiplier\", inToken, inBondType)));\n    }\n\n    function bondProfitRatio() internal view returns (uint256) {\n        return PhantomStorage().getUint(keccak256(\"phantom.bonding.profit_ratio\"));\n    }\n\n    function increaseOutstandingBondDebt(uint256 amount) internal {\n        PhantomStorage().addUint(keccak256(\"phantom.bonding.debt\"), amount);\n    }\n\n    function decreaseOutstandingBondDebt(uint256 amount) internal {\n        PhantomStorage().subUint(keccak256(\"phantom.bonding.debt\"), amount);\n    }\n\n    function outstandingBondDebt() internal view returns (uint256) {\n        return PhantomStorage().getUint(keccak256(\"phantom.bonding.debt\"));\n    }\n\n    function safeToBond(address user, uint256 rewardForDeposit) public view returns (bool) {\n        if (PHM().balanceAllDenoms(user) + rewardForDeposit > PHM().maxBalancePerWallet()) return false;\n        uint256 maxDebtRatio = PhantomStorage().getUint(keccak256(\"phantom.bonding.max_debt_ratio\")); // fixed point\n        return (outstandingBondDebt() + rewardForDeposit).div(PHM().totalSupply()) > maxDebtRatio ? false : true;\n    }\n\n    function isValidBond(address inToken) internal view returns (bool) {\n        return PhantomStorage().getBool(keccak256(abi.encodePacked(\"phantom.bonding.is_valid\", inToken)));\n    }\n}\n",
  "sourcePath": "contracts/level0/bonding/PhantomBonding.sol",
  "type": "contract"
}