{
  "abi": [
    {
      "inputs": [
        {
          "internalType": "address",
          "name": "storageFactoryAddress",
          "type": "address"
        }
      ],
      "stateMutability": "nonpayable",
      "type": "constructor"
    },
    {
      "inputs": [
        {
          "internalType": "uint256",
          "name": "prod1",
          "type": "uint256"
        }
      ],
      "name": "PRBMath__MulDivFixedPointOverflow",
      "type": "error"
    },
    {
      "inputs": [
        {
          "internalType": "address",
          "name": "contractAddress",
          "type": "address"
        }
      ],
      "name": "PhantomStorageMixin__ContractNotFoundByAddressOrIsOutdated",
      "type": "error"
    },
    {
      "inputs": [
        {
          "internalType": "bytes32",
          "name": "contractName",
          "type": "bytes32"
        }
      ],
      "name": "PhantomStorageMixin__ContractNotFoundByNameOrIsOutdated",
      "type": "error"
    },
    {
      "inputs": [
        {
          "internalType": "address",
          "name": "user",
          "type": "address"
        }
      ],
      "name": "PhantomStorageMixin__UserIsNotGuardian",
      "type": "error"
    },
    {
      "inputs": [
        {
          "internalType": "address",
          "name": "target",
          "type": "address"
        },
        {
          "internalType": "uint256",
          "name": "value",
          "type": "uint256"
        },
        {
          "internalType": "bytes",
          "name": "data",
          "type": "bytes"
        }
      ],
      "name": "PhantomTreasury_ExternalCallReverted",
      "type": "error"
    },
    {
      "inputs": [
        {
          "internalType": "uint256",
          "name": "num",
          "type": "uint256"
        },
        {
          "internalType": "address",
          "name": "target",
          "type": "address"
        },
        {
          "internalType": "uint256",
          "name": "value",
          "type": "uint256"
        },
        {
          "internalType": "bytes",
          "name": "data",
          "type": "bytes"
        }
      ],
      "name": "PhantomTreasury_ExternalReturnedInsufficientTokens",
      "type": "error"
    },
    {
      "inputs": [
        {
          "internalType": "address",
          "name": "target",
          "type": "address"
        },
        {
          "internalType": "uint256",
          "name": "value",
          "type": "uint256"
        },
        {
          "internalType": "bytes",
          "name": "data",
          "type": "bytes"
        }
      ],
      "name": "PhantomTreasury_ExternalReturnedNoTokens",
      "type": "error"
    },
    {
      "inputs": [
        {
          "internalType": "uint256",
          "name": "numMint",
          "type": "uint256"
        },
        {
          "internalType": "address",
          "name": "token",
          "type": "address"
        }
      ],
      "name": "PhantomTreasury_InsufficientBalance",
      "type": "error"
    },
    {
      "inputs": [
        {
          "internalType": "uint256",
          "name": "numMint",
          "type": "uint256"
        }
      ],
      "name": "PhantomTreasury_InsufficientReserves",
      "type": "error"
    },
    {
      "inputs": [
        {
          "internalType": "address",
          "name": "inToken",
          "type": "address"
        }
      ],
      "name": "PhantomTreasury_InvalidToken",
      "type": "error"
    },
    {
      "inputs": [],
      "name": "PhantomTreasury_LengthsDoNotMatch",
      "type": "error"
    },
    {
      "inputs": [],
      "name": "PhantomTreasury_PercentagesDoNotAddTo100",
      "type": "error"
    },
    {
      "inputs": [
        {
          "internalType": "address",
          "name": "target",
          "type": "address"
        },
        {
          "internalType": "uint256",
          "name": "value",
          "type": "uint256"
        },
        {
          "internalType": "bytes",
          "name": "data",
          "type": "bytes"
        }
      ],
      "name": "PhantomTreasury_UnapprovedExternalCall",
      "type": "error"
    },
    {
      "anonymous": false,
      "inputs": [
        {
          "indexed": false,
          "internalType": "address",
          "name": "inToken",
          "type": "address"
        },
        {
          "indexed": false,
          "internalType": "address",
          "name": "fromUser",
          "type": "address"
        },
        {
          "indexed": false,
          "internalType": "uint256",
          "name": "amount",
          "type": "uint256"
        }
      ],
      "name": "PhantomTreasury_Burned",
      "type": "event"
    },
    {
      "anonymous": false,
      "inputs": [
        {
          "indexed": false,
          "internalType": "address",
          "name": "inToken",
          "type": "address"
        },
        {
          "indexed": false,
          "internalType": "address",
          "name": "fromUser",
          "type": "address"
        },
        {
          "indexed": false,
          "internalType": "uint256",
          "name": "amount",
          "type": "uint256"
        }
      ],
      "name": "PhantomTreasury_DepositedToVault",
      "type": "event"
    },
    {
      "anonymous": false,
      "inputs": [
        {
          "indexed": false,
          "internalType": "address",
          "name": "inToken",
          "type": "address"
        },
        {
          "indexed": false,
          "internalType": "address",
          "name": "toUser",
          "type": "address"
        },
        {
          "indexed": false,
          "internalType": "uint256",
          "name": "amount",
          "type": "uint256"
        }
      ],
      "name": "PhantomTreasury_Minted",
      "type": "event"
    },
    {
      "anonymous": false,
      "inputs": [
        {
          "indexed": false,
          "internalType": "address",
          "name": "inToken",
          "type": "address"
        },
        {
          "indexed": false,
          "internalType": "address",
          "name": "outToken",
          "type": "address"
        },
        {
          "indexed": false,
          "internalType": "address",
          "name": "forUser",
          "type": "address"
        },
        {
          "indexed": false,
          "internalType": "uint256",
          "name": "amount",
          "type": "uint256"
        }
      ],
      "name": "PhantomTreasury_Swap",
      "type": "event"
    },
    {
      "anonymous": false,
      "inputs": [
        {
          "indexed": false,
          "internalType": "address",
          "name": "inToken",
          "type": "address"
        },
        {
          "indexed": false,
          "internalType": "address",
          "name": "outToken",
          "type": "address"
        },
        {
          "indexed": false,
          "internalType": "address",
          "name": "forUser",
          "type": "address"
        },
        {
          "indexed": false,
          "internalType": "uint256",
          "name": "amount",
          "type": "uint256"
        }
      ],
      "name": "PhantomTreasury_SwapBurn",
      "type": "event"
    },
    {
      "anonymous": false,
      "inputs": [
        {
          "indexed": false,
          "internalType": "address",
          "name": "burnToken",
          "type": "address"
        },
        {
          "indexed": false,
          "internalType": "uint256",
          "name": "burnAmount",
          "type": "uint256"
        },
        {
          "indexed": false,
          "internalType": "address",
          "name": "forUser",
          "type": "address"
        },
        {
          "indexed": false,
          "internalType": "uint256",
          "name": "mintAmount",
          "type": "uint256"
        },
        {
          "indexed": false,
          "internalType": "address",
          "name": "mintToken",
          "type": "address"
        }
      ],
      "name": "PhantomTreasury_SwapBurnMint",
      "type": "event"
    },
    {
      "anonymous": false,
      "inputs": [
        {
          "indexed": false,
          "internalType": "address",
          "name": "inToken",
          "type": "address"
        },
        {
          "indexed": false,
          "internalType": "address",
          "name": "outToken",
          "type": "address"
        },
        {
          "indexed": false,
          "internalType": "address",
          "name": "forUser",
          "type": "address"
        },
        {
          "indexed": false,
          "internalType": "uint256",
          "name": "amount",
          "type": "uint256"
        }
      ],
      "name": "PhantomTreasury_SwapMint",
      "type": "event"
    },
    {
      "anonymous": false,
      "inputs": [
        {
          "indexed": false,
          "internalType": "address",
          "name": "inToken",
          "type": "address"
        },
        {
          "indexed": false,
          "internalType": "address",
          "name": "toUser",
          "type": "address"
        },
        {
          "indexed": false,
          "internalType": "uint256",
          "name": "amount",
          "type": "uint256"
        }
      ],
      "name": "PhantomTreasury_WithdrawalFromVault",
      "type": "event"
    },
    {
      "inputs": [
        {
          "internalType": "address",
          "name": "inDepositor",
          "type": "address"
        },
        {
          "internalType": "uint256",
          "name": "inAmount",
          "type": "uint256"
        },
        {
          "internalType": "address",
          "name": "inToken",
          "type": "address"
        },
        {
          "internalType": "bytes32[]",
          "name": "keys",
          "type": "bytes32[]"
        },
        {
          "internalType": "uint256[]",
          "name": "percentages",
          "type": "uint256[]"
        },
        {
          "internalType": "uint256",
          "name": "mintRatio",
          "type": "uint256"
        },
        {
          "internalType": "uint256",
          "name": "profitRatio",
          "type": "uint256"
        },
        {
          "internalType": "bytes32[]",
          "name": "profitKeys",
          "type": "bytes32[]"
        },
        {
          "internalType": "uint256[]",
          "name": "profitPercentages",
          "type": "uint256[]"
        }
      ],
      "name": "deposit",
      "outputs": [
        {
          "internalType": "uint256",
          "name": "",
          "type": "uint256"
        }
      ],
      "stateMutability": "nonpayable",
      "type": "function"
    },
    {
      "inputs": [
        {
          "internalType": "address",
          "name": "token",
          "type": "address"
        }
      ],
      "name": "registerReserveToken",
      "outputs": [],
      "stateMutability": "nonpayable",
      "type": "function"
    },
    {
      "inputs": [
        {
          "internalType": "address",
          "name": "vault",
          "type": "address"
        },
        {
          "internalType": "uint256",
          "name": "amount",
          "type": "uint256"
        },
        {
          "internalType": "bytes32[]",
          "name": "keys",
          "type": "bytes32[]"
        },
        {
          "internalType": "uint256[]",
          "name": "percentages",
          "type": "uint256[]"
        }
      ],
      "name": "sendToYearn",
      "outputs": [],
      "stateMutability": "nonpayable",
      "type": "function"
    },
    {
      "inputs": [
        {
          "internalType": "uint256[]",
          "name": "data",
          "type": "uint256[]"
        }
      ],
      "name": "sum",
      "outputs": [
        {
          "internalType": "uint256",
          "name": "",
          "type": "uint256"
        }
      ],
      "stateMutability": "pure",
      "type": "function"
    },
    {
      "inputs": [],
      "name": "sumReserves",
      "outputs": [
        {
          "internalType": "uint256",
          "name": "",
          "type": "uint256"
        }
      ],
      "stateMutability": "view",
      "type": "function"
    },
    {
      "inputs": [
        {
          "internalType": "address",
          "name": "forUser",
          "type": "address"
        },
        {
          "internalType": "uint256",
          "name": "inAmount",
          "type": "uint256"
        },
        {
          "internalType": "address",
          "name": "inToken",
          "type": "address"
        },
        {
          "internalType": "uint256",
          "name": "outAmount",
          "type": "uint256"
        },
        {
          "internalType": "address",
          "name": "outToken",
          "type": "address"
        },
        {
          "internalType": "bytes32[]",
          "name": "keys",
          "type": "bytes32[]"
        },
        {
          "internalType": "uint256[]",
          "name": "percentages",
          "type": "uint256[]"
        }
      ],
      "name": "swap",
      "outputs": [],
      "stateMutability": "nonpayable",
      "type": "function"
    },
    {
      "inputs": [
        {
          "internalType": "address",
          "name": "forUser",
          "type": "address"
        },
        {
          "internalType": "uint256",
          "name": "burnAmount",
          "type": "uint256"
        },
        {
          "internalType": "address",
          "name": "burnToken",
          "type": "address"
        },
        {
          "internalType": "uint256",
          "name": "outAmount",
          "type": "uint256"
        },
        {
          "internalType": "address",
          "name": "outToken",
          "type": "address"
        },
        {
          "internalType": "bytes32[]",
          "name": "keys",
          "type": "bytes32[]"
        },
        {
          "internalType": "uint256[]",
          "name": "percentages",
          "type": "uint256[]"
        }
      ],
      "name": "swapBurn",
      "outputs": [],
      "stateMutability": "nonpayable",
      "type": "function"
    },
    {
      "inputs": [
        {
          "internalType": "address",
          "name": "forUser",
          "type": "address"
        },
        {
          "internalType": "uint256",
          "name": "burnAmount",
          "type": "uint256"
        },
        {
          "internalType": "address",
          "name": "burnToken",
          "type": "address"
        },
        {
          "internalType": "uint256",
          "name": "mintAmount",
          "type": "uint256"
        },
        {
          "internalType": "address",
          "name": "mintToken",
          "type": "address"
        }
      ],
      "name": "swapBurnMint",
      "outputs": [],
      "stateMutability": "nonpayable",
      "type": "function"
    },
    {
      "inputs": [
        {
          "internalType": "address",
          "name": "forUser",
          "type": "address"
        },
        {
          "internalType": "uint256",
          "name": "inAmount",
          "type": "uint256"
        },
        {
          "internalType": "address",
          "name": "inToken",
          "type": "address"
        },
        {
          "internalType": "uint256",
          "name": "mintAmount",
          "type": "uint256"
        },
        {
          "internalType": "address",
          "name": "mintToken",
          "type": "address"
        },
        {
          "internalType": "bytes32[]",
          "name": "keys",
          "type": "bytes32[]"
        },
        {
          "internalType": "uint256[]",
          "name": "percentages",
          "type": "uint256[]"
        }
      ],
      "name": "swapMint",
      "outputs": [],
      "stateMutability": "nonpayable",
      "type": "function"
    },
    {
      "inputs": [
        {
          "internalType": "address",
          "name": "outWithdrawer",
          "type": "address"
        },
        {
          "internalType": "uint256",
          "name": "outAmount",
          "type": "uint256"
        },
        {
          "internalType": "address",
          "name": "outToken",
          "type": "address"
        },
        {
          "internalType": "bytes32[]",
          "name": "keys",
          "type": "bytes32[]"
        },
        {
          "internalType": "uint256[]",
          "name": "percentages",
          "type": "uint256[]"
        },
        {
          "internalType": "uint256",
          "name": "burnRatio",
          "type": "uint256"
        }
      ],
      "name": "withdraw",
      "outputs": [
        {
          "internalType": "uint256",
          "name": "",
          "type": "uint256"
        }
      ],
      "stateMutability": "nonpayable",
      "type": "function"
    },
    {
      "inputs": [
        {
          "internalType": "address",
          "name": "vault",
          "type": "address"
        },
        {
          "internalType": "uint256",
          "name": "maxShares",
          "type": "uint256"
        },
        {
          "internalType": "uint256",
          "name": "maxLoss",
          "type": "uint256"
        },
        {
          "internalType": "bytes32[]",
          "name": "keys",
          "type": "bytes32[]"
        },
        {
          "internalType": "uint256[]",
          "name": "percentages",
          "type": "uint256[]"
        }
      ],
      "name": "withdrawFromYearn",
      "outputs": [],
      "stateMutability": "nonpayable",
      "type": "function"
    }
  ],
  "bytecode": "601260e08181527139b2b1bab934ba3c9730b2323932b9b9b7b360711b6101009081526080918252600d6101209081526c73656375726974792e6e616d6560981b6101405260a0526101a060405260136101609081527f73656375726974792e72656769737465726564000000000000000000000000006101805260c0529091600091620000909183919062001332565b506020828101518051620000ab926001850192019062001332565b5060408201518051620000c991600284019160209091019062001332565b50506040805161032081018252601b6102e082019081527f7068616e746f6d2e636f6e7472616374732e616c706861737761700000000000610300830152610100820190815282518084018452601a8082527f7068616e746f6d2e636f6e7472616374732e666f756e646572730000000000006020838101919091526101208501929092528451808601865260198082527f7068616e746f6d2e636f6e7472616374732e7374616b696e67000000000000008285015261014086019190915285518087018752601f81527f7068616e746f6d2e636f6e7472616374732e7374616b696e677761726d75700081850152610160860152855180870187529081527f7068616e746f6d2e636f6e7472616374732e626f6e64696e67000000000000008184015261018085015284518086018652601581527f7068616e746f6d2e636f6e7472616374732e70686d0000000000000000000000818401526101a08501528451808601865260168082527f7068616e746f6d2e636f6e7472616374732e7370686d00000000000000000000828501526101c0860191909152855180870187528181527f7068616e746f6d2e636f6e7472616374732e6770686d00000000000000000000818501526101e0860152855180870187528181527f7068616e746f6d2e636f6e7472616374732e6170686d0000000000000000000081850152610200860152855180870187529081527f7068616e746f6d2e636f6e7472616374732e6670686d000000000000000000008184015261022085015284518086018652601781527f7068616e746f6d2e636f6e7472616374732e7661756c7400000000000000000081840152610240850152845180860186528181527f7068616e746f6d2e636f6e7472616374732e74726561737572790000000000008184015261026085015284518086018652601c81527f7068616e746f6d2e636f6e7472616374732e6465785f726f75746572000000008184015261028085015284518086018652601e81527f7068616e746f6d2e636f6e7472616374732e796561726e5f726f757465720000818401526102a0850152845180860186529081527f7068616e746f6d2e636f6e7472616374732e6578656375746f72000000000000818301526102c0840152908252825160c08101909352602a60608401818152929450908401929182916200512a6080840139815260200160405180606001604052806040518060600160405280602b8152602001620050af602b913981526020016040518060400160405280602081526020017f7068616e746f6d2e74726561737572792e6163636f756e745f6b65792e64616f8152508152602001604051806060016040528060258152602001620052186025913990528152604080518082018252601981527f7068616e746f6d2e74726561737572792e62616c616e636573000000000000006020828101919091529283015291835281516101c0810190925260246101608301818152938201938392830191829160c0850191829190620050456101808801398152602001604051806060016040528060258152602001620052876025913981526020016040518060600160405280602481526020016200523d6024913981526020016040518060600160405280602b8152602001620050da602b91398152602001604051806060016040528060248152602001620052ac602491398152508152602001604051806060016040528060258152602001620051a4602591398152602001604051806060016040528060298152602001620051ef6029913981526020016040518060400160405280601b81526020017f7068616e746f6d2e616c6c6f6361746f722e746f6b656e732e6c70000000000081525081526020016040518060400160405280601f81526020017f7068616e746f6d2e616c6c6f6361746f722e746f6b656e732e73696e676c6500815250815250815250815260200160405180610100016040528060405180604001604052806040518060400160405280601a81526020017f7068616e746f6d2e626f6e64696e672e757365722e6e6f6e636500000000000081525081526020016040518060600160405280602b815260200162005154602b913981525081526020016040518060400160405280601d81526020017f7068616e746f6d2e626f6e64696e672e76657374696e67626c6f636b7300000081525081526020016040518060400160405280601c81526020017f7068616e746f6d2e626f6e64696e672e70726f6669745f726174696f0000000081525081526020016040518060400160405280601881526020017f7068616e746f6d2e626f6e64696e672e646973636f756e74000000000000000081525081526020016040518060400160405280601b81526020017f7068616e746f6d2e626f6e64696e672e69735f72656465656d6564000000000081525081526020016040518060400160405280601681526020017f7068616e746f6d2e626f6e64696e672e7061796f75740000000000000000000081525081526020016040518060400160405280601e81526020017f7068616e746f6d2e626f6e64696e672e76657374735f61745f626c6f636b000081525081526020016040518060400160405280601881526020017f7068616e746f6d2e626f6e64696e672e69735f76616c69640000000000000000815250815250815260200160405180604001604052806040518060400160405280601d81526020017f7068616e746f6d2e7374616b696e672e726562617365436f756e74657200000081525081526020016040518060600160405280602281526020016200537b6022913990528152604080516101408101909152602160e08201818152602090930192829160608301918291620052f461010086013981526020016040518060600160405280602481526020016200508b6024913981526020016040518060600160405280602681526020016200501f60269139815260408051808201825260208082527f7068616e746f6d2e666f756e6465722e636c61696d732e6c617374436c61696d828201529283015291835281516060810183528082018281527f7068616e746f6d2e666f756e6465722e6368616e6765732e6e65774f776e65728285015281528382015281518083018352601d81527f7068616e746f6d2e666f756e6465722e76657374696e675374617274730000008183015292820192909252918352815161016081019092526022610100830181815293909101928291620050696101208401398152602001604051806060016040528060238152602001620053156023913981526020016040518060600160405280602581526020016200517f602591398152602001604051806060016040528060268152602001620051c96026913981526020016040518060600160405280602581526020016200510560259139815260200160405180606001604052806026815260200162005261602691398152602001604051806060016040528060248152602001620052d06024913981526020016040518060600160405280602a81526020016200539d602a9139815250815260200160405180608001604052806040518060400160405280601c81526020017f7068616e746f6d2e676f7665726e6f722e766f74696e6744656c61790000000081525081526020016040518060400160405280601d81526020017f7068616e746f6d2e676f7665726e6f722e766f74696e67506572696f6400000081525081526020016040518060600160405280602181526020016200533860219139815260200160405180606001604052806022815260200162005359602291399052905280518051805160039291839162000be191839160209091019062001332565b50602082810151805162000bfc926001850192019062001332565b506040820151805162000c1a91600284019160209091019062001332565b506060820151805162000c3891600384019160209091019062001332565b506080820151805162000c5691600484019160209091019062001332565b5060a0820151805162000c7491600584019160209091019062001332565b5060c0820151805162000c9291600684019160209091019062001332565b5060e0820151805162000cb091600784019160209091019062001332565b50610100820151805162000ccf91600884019160209091019062001332565b50610120820151805162000cee91600984019160209091019062001332565b50610140820151805162000d0d91600a84019160209091019062001332565b50610160820151805162000d2c91600b84019160209091019062001332565b50610180820151805162000d4b91600c84019160209091019062001332565b506101a0820151805162000d6a91600d84019160209091019062001332565b506101c0820151805162000d8991600e84019160209091019062001332565b505050602082810151805180519192600f85019262000dac928492019062001332565b50602082810151805180519192600185019262000dcd928492019062001332565b50602082810151805162000de8926001850192019062001332565b506040820151805162000e0691600284019160209091019062001332565b5050506040820151805162000e2691600484019160209091019062001332565b5050506040820151805180518051805160148601939284929091839162000e539183916020019062001332565b50602082810151805162000e6e926001850192019062001332565b506040820151805162000e8c91600284019160209091019062001332565b506060820151805162000eaa91600384019160209091019062001332565b506080820151805162000ec891600484019160209091019062001332565b505050602082810151805162000ee5926005850192019062001332565b506040820151805162000f0391600684019160209091019062001332565b506060820151805162000f2191600784019160209091019062001332565b506080820151805162000f3f91600884019160209091019062001332565b505050506060830151805180518051929350601d850192839162000f699183916020019062001332565b50602082810151805162000f84926001850192019062001332565b505050602082810151805162000fa1926002850192019062001332565b506040820151805162000fbf91600384019160209091019062001332565b506060820151805162000fdd91600484019160209091019062001332565b506080820151805162000ffb91600584019160209091019062001332565b5060a082015180516200101991600684019160209091019062001332565b5060c082015180516200103791600784019160209091019062001332565b5060e082015180516200105591600884019160209091019062001332565b5050506080820151805180516026840191620010779183916020019062001332565b50602082810151805162001092926001850192019062001332565b50505060a08201518051805180516028850192918391620010bb91839160209091019062001332565b506020828101518051620010d6926001850192019062001332565b5060408201518051620010f491600284019160209091019062001332565b50606082015180516200111291600384019160209091019062001332565b505050602082810151805180519192600485019262001135928492019062001332565b505050604082015180516200115591600584019160209091019062001332565b50505060c082015180518051602e840191620011779183916020019062001332565b50602082810151805162001192926001850192019062001332565b5060408201518051620011b091600284019160209091019062001332565b5060608201518051620011ce91600384019160209091019062001332565b5060808201518051620011ec91600484019160209091019062001332565b5060a082015180516200120a91600584019160209091019062001332565b5060c082015180516200122891600684019160209091019062001332565b5060e082015180516200124691600784019160209091019062001332565b50505060e0820151805180516036840191620012689183916020019062001332565b50602082810151805162001283926001850192019062001332565b5060408201518051620012a191600284019160209091019062001332565b5060608201518051620012bf91600384019160209091019062001332565b50505050506d7068616e746f6d53746f7261676560901b603f55348015620012e657600080fd5b50604051620053c7380380620053c78339810160408190526200130991620013d8565b6001603d55603e80546001600160a01b0383166001600160a01b03199091161790555062001447565b82805462001340906200140a565b90600052602060002090601f016020900481019282620013645760008555620013af565b82601f106200137f57805160ff1916838001178555620013af565b82800160010185558215620013af579182015b82811115620013af57825182559160200191906001019062001392565b50620013bd929150620013c1565b5090565b5b80821115620013bd5760008155600101620013c2565b600060208284031215620013eb57600080fd5b81516001600160a01b03811681146200140357600080fd5b9392505050565b600181811c908216806200141f57607f821691505b602082108114156200144157634e487b7160e01b600052602260045260246000fd5b50919050565b613bc880620014576000396000f3fe608060405234801561001057600080fd5b50600436106100a95760003560e01c8063a397104711610071578063a397104714610116578063c41ac8cf14610129578063d480dd3f1461013c578063db457c911461014f578063ddf0a2c414610162578063f6d78b1c1461017557600080fd5b80630194db8e146100ae57806349d13d43146100d357806376997eb5146100db57806391c65e19146100f057806397d632b114610103575b600080fd5b6100c16100bc3660046134d0565b610188565b60405190815260200160405180910390f35b6100c16101d7565b6100ee6100e936600461352d565b610499565b005b6100c16100fe3660046135dc565b61083c565b6100ee6101113660046136c8565b610e37565b6100ee61012436600461352d565b611293565b6100ee610137366004613752565b611581565b6100c161014a3660046137b1565b61198f565b6100ee61015d36600461384c565b611e7a565b6100ee61017036600461352d565b612265565b6100ee6101833660046138cc565b6125c8565b60008060005b83518110156101d0578381815181106101a9576101a96138e9565b6020026020010151826101bc9190613915565b9150806101c88161392d565b91505061018e565b5092915050565b60008060005b604054811015610493576101ef612924565b6001600160a01b0316632a0bbedf61020f603e546001600160a01b031690565b6001600160a01b03166321f8a7216003602e0160000160405161023291906139e2565b60405190819003812060e083901b6001600160e01b03191682526004820152602401602060405180830381865afa158015610271573d6000803e3d6000fd5b505050506040513d601f19601f8201168201806040525081019061029591906139ee565b603e546040516001600160a01b03909116906321f8a721906102b9906032906139e2565b60405190819003812060e083901b6001600160e01b03191682526004820152602401602060405180830381865afa1580156102f8573d6000803e3d6000fd5b505050506040513d601f19601f8201168201806040525081019061031c91906139ee565b6103e46103276129c3565b600081518110610339576103396138e9565b602002602001015160408781548110610354576103546138e9565b6000918252602090912001546001600160a01b03166370a08231610376612a3c565b6040516001600160e01b031960e084901b1681526001600160a01b039091166004820152602401602060405180830381865afa1580156103ba573d6000803e3d6000fd5b505050506040513d601f19601f820116820180604052508101906103de9190613a0b565b90612a73565b604086815481106103f7576103f76138e9565b6000918252602090912001546001600160a01b0316610414612a86565b6040518663ffffffff1660e01b8152600401610434959493929190613a24565b602060405180830381865afa158015610451573d6000803e3d6000fd5b505050506040513d601f19601f820116820180604052508101906104759190613a0b565b61047f9083613915565b91508061048b8161392d565b9150506101dd565b50919050565b60006104ad603e546001600160a01b031690565b6001600160a01b0316631bed52416040518163ffffffff1660e01b8152600401602060405180830381865afa1580156104ea573d6000803e3d6000fd5b505050506040513d601f19601f8201168201806040525081019061050e9190613a56565b9050600181151514156105e457603e546001600160a01b03166001600160a01b0316637ae1cfca336040516020016105469190613a78565b604051602081830303815290604052805190602001206040518263ffffffff1660e01b815260040161057a91815260200190565b602060405180830381865afa158015610597573d6000803e3d6000fd5b505050506040513d601f19601f820116820180604052508101906105bb9190613a56565b6105df5760405163372463e360e01b81523360048201526024015b60405180910390fd5b61072b565b603e546001600160a01b03166001600160a01b0316637ae1cfca3360405160200161060f9190613a78565b604051602081830303815290604052805190602001206040518263ffffffff1660e01b815260040161064391815260200190565b602060405180830381865afa158015610660573d6000803e3d6000fd5b505050506040513d601f19601f820116820180604052508101906106849190613a56565b8061070c5750603e546001600160a01b03166001600160a01b031663a75b87d26040518163ffffffff1660e01b8152600401602060405180830381865afa1580156106d3573d6000803e3d6000fd5b505050506040513d601f19601f820116820180604052508101906106f791906139ee565b6001600160a01b0316326001600160a01b0316145b61072b5760405163372463e360e01b81523360048201526024016105d6565b8561073581612abd565b61075d576040516349e82b5f60e11b81526001600160a01b03821660048201526024016105d6565b61077b89610769612a3c565b6001600160a01b038a1691908b612b6d565b610783612a3c565b604051633f34d4cf60e21b8152600481018a90526001600160a01b038981166024830152919091169063fcd3533c90604401600060405180830381600087803b1580156107cf57600080fd5b505af11580156107e3573d6000803e3d6000fd5b505050506107f48987878787612bde565b7f89e19257a72f4118164f2754032ae310fb86b3f1192fd8f6953c36e665e3ceec87868b8b6040516108299493929190613abb565b60405180910390a1505050505050505050565b600080610851603e546001600160a01b031690565b6001600160a01b0316631bed52416040518163ffffffff1660e01b8152600401602060405180830381865afa15801561088e573d6000803e3d6000fd5b505050506040513d601f19601f820116820180604052508101906108b29190613a56565b90506001811515141561098357603e546001600160a01b03166001600160a01b0316637ae1cfca336040516020016108ea9190613a78565b604051602081830303815290604052805190602001206040518263ffffffff1660e01b815260040161091e91815260200190565b602060405180830381865afa15801561093b573d6000803e3d6000fd5b505050506040513d601f19601f8201168201806040525081019061095f9190613a56565b61097e5760405163372463e360e01b81523360048201526024016105d6565b610aca565b603e546001600160a01b03166001600160a01b0316637ae1cfca336040516020016109ae9190613a78565b604051602081830303815290604052805190602001206040518263ffffffff1660e01b81526004016109e291815260200190565b602060405180830381865afa1580156109ff573d6000803e3d6000fd5b505050506040513d601f19601f82011682018060405250810190610a239190613a56565b80610aab5750603e546001600160a01b03166001600160a01b031663a75b87d26040518163ffffffff1660e01b8152600401602060405180830381865afa158015610a72573d6000803e3d6000fd5b505050506040513d601f19601f82011682018060405250810190610a9691906139ee565b6001600160a01b0316326001600160a01b0316145b610aca5760405163372463e360e01b81523360048201526024016105d6565b6000610ad4612924565b6001600160a01b0316632a0bbedf610af4603e546001600160a01b031690565b6001600160a01b03166321f8a7216003602e01600001604051610b1791906139e2565b60405190819003812060e083901b6001600160e01b03191682526004820152602401602060405180830381865afa158015610b56573d6000803e3d6000fd5b505050506040513d601f19601f82011682018060405250810190610b7a91906139ee565b603e546040516001600160a01b03909116906321f8a72190610b9e906032906139e2565b60405190819003812060e083901b6001600160e01b03191682526004820152602401602060405180830381865afa158015610bdd573d6000803e3d6000fd5b505050506040513d601f19601f82011682018060405250810190610c0191906139ee565b8e8e610c0b612a86565b6040518663ffffffff1660e01b8152600401610c2b959493929190613a24565b602060405180830381865afa158015610c48573d6000803e3d6000fd5b505050506040513d601f19601f82011682018060405250810190610c6c9190613a0b565b9050610c7b8c8c8c8c8c612c8e565b6000610c878289612a73565b9050610c9c81610c95612a86565b8c8c612cd6565b610ca4612a86565b6001600160a01b03166340c10f19610cba612a3c565b6040516001600160e01b031960e084901b1681526001600160a01b03909116600482015260248101849052604401600060405180830381600087803b158015610d0257600080fd5b505af1158015610d16573d6000803e3d6000fd5b505050506000610d2f8883612a7390919063ffffffff16565b9050610d39612a86565b6001600160a01b03166340c10f19610d4f612a3c565b6040516001600160e01b031960e084901b1681526001600160a01b03909116600482015260248101849052604401600060405180830381600087803b158015610d9757600080fd5b505af1158015610dab573d6000803e3d6000fd5b50505050610dc281610dbb612a86565b8989612cd6565b7f65c8e1561580499f923aa822a51733482432ba4eb7d5fca6606044cd16c7157b610deb612a86565b610df3612a3c565b610dfd8486613915565b604080516001600160a01b0394851681529390921660208401529082015260600160405180910390a1509c9b505050505050505050505050565b6000610e4b603e546001600160a01b031690565b6001600160a01b0316631bed52416040518163ffffffff1660e01b8152600401602060405180830381865afa158015610e88573d6000803e3d6000fd5b505050506040513d601f19601f82011682018060405250810190610eac9190613a56565b905060018115151415610f7d57603e546001600160a01b03166001600160a01b0316637ae1cfca33604051602001610ee49190613a78565b604051602081830303815290604052805190602001206040518263ffffffff1660e01b8152600401610f1891815260200190565b602060405180830381865afa158015610f35573d6000803e3d6000fd5b505050506040513d601f19601f82011682018060405250810190610f599190613a56565b610f785760405163372463e360e01b81523360048201526024016105d6565b6110c4565b603e546001600160a01b03166001600160a01b0316637ae1cfca33604051602001610fa89190613a78565b604051602081830303815290604052805190602001206040518263ffffffff1660e01b8152600401610fdc91815260200190565b602060405180830381865afa158015610ff9573d6000803e3d6000fd5b505050506040513d601f19601f8201168201806040525081019061101d9190613a56565b806110a55750603e546001600160a01b03166001600160a01b031663a75b87d26040518163ffffffff1660e01b8152600401602060405180830381865afa15801561106c573d6000803e3d6000fd5b505050506040513d601f19601f8201168201806040525081019061109091906139ee565b6001600160a01b0316326001600160a01b0316145b6110c45760405163372463e360e01b81523360048201526024016105d6565b6000866001600160a01b031663fc0c546a6040518163ffffffff1660e01b81526004016020604051808303816000875af1158015611106573d6000803e3d6000fd5b505050506040513d601f19601f8201168201806040525081019061112a91906139ee565b90506111393087898787612bde565b60405163095ea7b360e01b81526001600160a01b03881660048201819052602482018890529063095ea7b3906044016020604051808303816000875af1158015611187573d6000803e3d6000fd5b505050506040513d601f19601f820116820180604052508101906111ab9190613a56565b50604051631cc6d2f960e31b815260048101879052306024820152604481018690526001600160a01b0388169063e63697c890606401600060405180830381600087803b1580156111fb57600080fd5b505af115801561120f573d6000803e3d6000fd5b50506040516370a0823160e01b8152306004820181905261128a935091506001600160a01b038416906370a0823190602401602060405180830381865afa15801561125e573d6000803e3d6000fd5b505050506040513d601f19601f820116820180604052508101906112829190613a0b565b838787612c8e565b50505050505050565b60006112a7603e546001600160a01b031690565b6001600160a01b0316631bed52416040518163ffffffff1660e01b8152600401602060405180830381865afa1580156112e4573d6000803e3d6000fd5b505050506040513d601f19601f820116820180604052508101906113089190613a56565b9050600181151514156113d957603e546001600160a01b03166001600160a01b0316637ae1cfca336040516020016113409190613a78565b604051602081830303815290604052805190602001206040518263ffffffff1660e01b815260040161137491815260200190565b602060405180830381865afa158015611391573d6000803e3d6000fd5b505050506040513d601f19601f820116820180604052508101906113b59190613a56565b6113d45760405163372463e360e01b81523360048201526024016105d6565b611520565b603e546001600160a01b03166001600160a01b0316637ae1cfca336040516020016114049190613a78565b604051602081830303815290604052805190602001206040518263ffffffff1660e01b815260040161143891815260200190565b602060405180830381865afa158015611455573d6000803e3d6000fd5b505050506040513d601f19601f820116820180604052508101906114799190613a56565b806115015750603e546001600160a01b03166001600160a01b031663a75b87d26040518163ffffffff1660e01b8152600401602060405180830381865afa1580156114c8573d6000803e3d6000fd5b505050506040513d601f19601f820116820180604052508101906114ec91906139ee565b6001600160a01b0316326001600160a01b0316145b6115205760405163372463e360e01b81523360048201526024016105d6565b61152d8888888686612c8e565b61153a8886868686612bde565b7f6d29754df4dd9e7170da58f3c4e90c771e6f29f8d2387e37131c2dd725a4073f86858a8a60405161156f9493929190613abb565b60405180910390a15050505050505050565b6000611595603e546001600160a01b031690565b6001600160a01b0316631bed52416040518163ffffffff1660e01b8152600401602060405180830381865afa1580156115d2573d6000803e3d6000fd5b505050506040513d601f19601f820116820180604052508101906115f69190613a56565b9050600181151514156116c757603e546001600160a01b03166001600160a01b0316637ae1cfca3360405160200161162e9190613a78565b604051602081830303815290604052805190602001206040518263ffffffff1660e01b815260040161166291815260200190565b602060405180830381865afa15801561167f573d6000803e3d6000fd5b505050506040513d601f19601f820116820180604052508101906116a39190613a56565b6116c25760405163372463e360e01b81523360048201526024016105d6565b61180e565b603e546001600160a01b03166001600160a01b0316637ae1cfca336040516020016116f29190613a78565b604051602081830303815290604052805190602001206040518263ffffffff1660e01b815260040161172691815260200190565b602060405180830381865afa158015611743573d6000803e3d6000fd5b505050506040513d601f19601f820116820180604052508101906117679190613a56565b806117ef5750603e546001600160a01b03166001600160a01b031663a75b87d26040518163ffffffff1660e01b8152600401602060405180830381865afa1580156117b6573d6000803e3d6000fd5b505050506040513d601f19601f820116820180604052508101906117da91906139ee565b6001600160a01b0316326001600160a01b0316145b61180e5760405163372463e360e01b81523360048201526024016105d6565b8161181881612abd565b611840576040516349e82b5f60e11b81526001600160a01b03821660048201526024016105d6565b61185e8761184c612a3c565b6001600160a01b038816919089612b6d565b611866612a3c565b604051633f34d4cf60e21b8152600481018890526001600160a01b038781166024830152919091169063fcd3533c90604401600060405180830381600087803b1580156118b257600080fd5b505af11580156118c6573d6000803e3d6000fd5b50506040516340c10f1960e01b81526001600160a01b038a8116600483015260248201889052861692506340c10f199150604401600060405180830381600087803b15801561191457600080fd5b505af1158015611928573d6000803e3d6000fd5b5050604080516001600160a01b038981168252602082018b90528b811682840152606082018990528716608082015290517f93172819afebd69a5dac534316f8e5e7181cf128ecb33b0a24a0e1d8b203b65b93509081900360a0019150a150505050505050565b6000806119a4603e546001600160a01b031690565b6001600160a01b0316631bed52416040518163ffffffff1660e01b8152600401602060405180830381865afa1580156119e1573d6000803e3d6000fd5b505050506040513d601f19601f82011682018060405250810190611a059190613a56565b905060018115151415611ad657603e546001600160a01b03166001600160a01b0316637ae1cfca33604051602001611a3d9190613a78565b604051602081830303815290604052805190602001206040518263ffffffff1660e01b8152600401611a7191815260200190565b602060405180830381865afa158015611a8e573d6000803e3d6000fd5b505050506040513d601f19601f82011682018060405250810190611ab29190613a56565b611ad15760405163372463e360e01b81523360048201526024016105d6565b611c1d565b603e546001600160a01b03166001600160a01b0316637ae1cfca33604051602001611b019190613a78565b604051602081830303815290604052805190602001206040518263ffffffff1660e01b8152600401611b3591815260200190565b602060405180830381865afa158015611b52573d6000803e3d6000fd5b505050506040513d601f19601f82011682018060405250810190611b769190613a56565b80611bfe5750603e546001600160a01b03166001600160a01b031663a75b87d26040518163ffffffff1660e01b8152600401602060405180830381865afa158015611bc5573d6000803e3d6000fd5b505050506040513d601f19601f82011682018060405250810190611be991906139ee565b6001600160a01b0316326001600160a01b0316145b611c1d5760405163372463e360e01b81523360048201526024016105d6565b6000611c27612924565b6001600160a01b0316632a0bbedf611c47603e546001600160a01b031690565b6001600160a01b03166321f8a7216003602e01600001604051611c6a91906139e2565b60405190819003812060e083901b6001600160e01b03191682526004820152602401602060405180830381865afa158015611ca9573d6000803e3d6000fd5b505050506040513d601f19601f82011682018060405250810190611ccd91906139ee565b603e546040516001600160a01b03909116906321f8a72190611cf1906032906139e2565b60405190819003812060e083901b6001600160e01b03191682526004820152602401602060405180830381865afa158015611d30573d6000803e3d6000fd5b505050506040513d601f19601f82011682018060405250810190611d5491906139ee565b8b8b611d5e612a86565b6040518663ffffffff1660e01b8152600401611d7e959493929190613a24565b602060405180830381865afa158015611d9b573d6000803e3d6000fd5b505050506040513d601f19601f82011682018060405250810190611dbf9190613a0b565b90506000611dcd8286612a73565b9050611dd7612a3c565b6001600160a01b031663fcd3533c82611dee612a86565b6040516001600160e01b031960e085901b16815260048101929092526001600160a01b03166024820152604401600060405180830381600087803b158015611e3557600080fd5b505af1158015611e49573d6000803e3d6000fd5b50505050611e6081611e59612a86565b8989612d95565b611e6d8a8a8a8a8a612bde565b9998505050505050505050565b6000611e8e603e546001600160a01b031690565b6001600160a01b0316631bed52416040518163ffffffff1660e01b8152600401602060405180830381865afa158015611ecb573d6000803e3d6000fd5b505050506040513d601f19601f82011682018060405250810190611eef9190613a56565b905060018115151415611fc057603e546001600160a01b03166001600160a01b0316637ae1cfca33604051602001611f279190613a78565b604051602081830303815290604052805190602001206040518263ffffffff1660e01b8152600401611f5b91815260200190565b602060405180830381865afa158015611f78573d6000803e3d6000fd5b505050506040513d601f19601f82011682018060405250810190611f9c9190613a56565b611fbb5760405163372463e360e01b81523360048201526024016105d6565b612107565b603e546001600160a01b03166001600160a01b0316637ae1cfca33604051602001611feb9190613a78565b604051602081830303815290604052805190602001206040518263ffffffff1660e01b815260040161201f91815260200190565b602060405180830381865afa15801561203c573d6000803e3d6000fd5b505050506040513d601f19601f820116820180604052508101906120609190613a56565b806120e85750603e546001600160a01b03166001600160a01b031663a75b87d26040518163ffffffff1660e01b8152600401602060405180830381865afa1580156120af573d6000803e3d6000fd5b505050506040513d601f19601f820116820180604052508101906120d391906139ee565b6001600160a01b0316326001600160a01b0316145b6121075760405163372463e360e01b81523360048201526024016105d6565b6000856001600160a01b031663fc0c546a6040518163ffffffff1660e01b81526004016020604051808303816000875af1158015612149573d6000803e3d6000fd5b505050506040513d601f19601f8201168201806040525081019061216d91906139ee565b905061217c3086838787612bde565b60405163095ea7b360e01b81526001600160a01b0387811660048301526024820187905282169063095ea7b3906044016020604051808303816000875af11580156121cb573d6000803e3d6000fd5b505050506040513d601f19601f820116820180604052508101906121ef9190613a56565b50604051636e553f6560e01b8152600481018690523060248201526001600160a01b03871690636e553f6590604401600060405180830381600087803b15801561223857600080fd5b505af115801561224c573d6000803e3d6000fd5b5050505061225d3086888787612c8e565b505050505050565b6000612279603e546001600160a01b031690565b6001600160a01b0316631bed52416040518163ffffffff1660e01b8152600401602060405180830381865afa1580156122b6573d6000803e3d6000fd5b505050506040513d601f19601f820116820180604052508101906122da9190613a56565b9050600181151514156123ab57603e546001600160a01b03166001600160a01b0316637ae1cfca336040516020016123129190613a78565b604051602081830303815290604052805190602001206040518263ffffffff1660e01b815260040161234691815260200190565b602060405180830381865afa158015612363573d6000803e3d6000fd5b505050506040513d601f19601f820116820180604052508101906123879190613a56565b6123a65760405163372463e360e01b81523360048201526024016105d6565b6124f2565b603e546001600160a01b03166001600160a01b0316637ae1cfca336040516020016123d69190613a78565b604051602081830303815290604052805190602001206040518263ffffffff1660e01b815260040161240a91815260200190565b602060405180830381865afa158015612427573d6000803e3d6000fd5b505050506040513d601f19601f8201168201806040525081019061244b9190613a56565b806124d35750603e546001600160a01b03166001600160a01b031663a75b87d26040518163ffffffff1660e01b8152600401602060405180830381865afa15801561249a573d6000803e3d6000fd5b505050506040513d601f19601f820116820180604052508101906124be91906139ee565b6001600160a01b0316326001600160a01b0316145b6124f25760405163372463e360e01b81523360048201526024016105d6565b836124fc81612abd565b612524576040516349e82b5f60e11b81526001600160a01b03821660048201526024016105d6565b6125318989898787612c8e565b6040516340c10f1960e01b81526001600160a01b038a81166004830152602482018890528616906340c10f1990604401600060405180830381600087803b15801561257b57600080fd5b505af115801561258f573d6000803e3d6000fd5b505050507f33f7e8834abb6db2d9d937d5702755a17292c57cbdce1e3cf535e256bb9a999887868b8b6040516108299493929190613abb565b60006125dc603e546001600160a01b031690565b6001600160a01b0316631bed52416040518163ffffffff1660e01b8152600401602060405180830381865afa158015612619573d6000803e3d6000fd5b505050506040513d601f19601f8201168201806040525081019061263d9190613a56565b90506001811515141561270e57603e546001600160a01b03166001600160a01b0316637ae1cfca336040516020016126759190613a78565b604051602081830303815290604052805190602001206040518263ffffffff1660e01b81526004016126a991815260200190565b602060405180830381865afa1580156126c6573d6000803e3d6000fd5b505050506040513d601f19601f820116820180604052508101906126ea9190613a56565b6127095760405163372463e360e01b81523360048201526024016105d6565b612855565b603e546001600160a01b03166001600160a01b0316637ae1cfca336040516020016127399190613a78565b604051602081830303815290604052805190602001206040518263ffffffff1660e01b815260040161276d91815260200190565b602060405180830381865afa15801561278a573d6000803e3d6000fd5b505050506040513d601f19601f820116820180604052508101906127ae9190613a56565b806128365750603e546001600160a01b03166001600160a01b031663a75b87d26040518163ffffffff1660e01b8152600401602060405180830381865afa1580156127fd573d6000803e3d6000fd5b505050506040513d601f19601f8201168201806040525081019061282191906139ee565b6001600160a01b0316326001600160a01b0316145b6128555760405163372463e360e01b81523360048201526024016105d6565b6001600160a01b03821660009081526041602052604090205460ff16156128be5760405162461bcd60e51b815260206004820152601860248201527f546f6b656e20616c72656164792072656769737465726564000000000000000060448201526064016105d6565b5060408054600181810183557f352feee0eea125f11f791c1b77524172e9bc20f1b719b6cef0fc24f64db8e15e90910180546001600160a01b039094166001600160a01b031990941684179055600092835260416020529120805460ff19169091179055565b6000612938603e546001600160a01b031690565b6001600160a01b03166321f8a7216003600001600c0160405161295b91906139e2565b60405190819003812060e083901b6001600160e01b03191682526004820152602401602060405180830381865afa15801561299a573d6000803e3d6000fd5b505050506040513d601f19601f820116820180604052508101906129be91906139ee565b905090565b60408051600280825260608083018452926000929190602083019080368337019050509050670c7d713b49da000081600081518110612a0457612a046138e9565b60200260200101818152505067016345785d8a000081600181518110612a2c57612a2c6138e9565b6020908102919091010152919050565b6000612a50603e546001600160a01b031690565b6001600160a01b03166321f8a7216003600001600a0160405161295b91906139e2565b6000612a7f8383612e3d565b9392505050565b6000612a9a603e546001600160a01b031690565b6001600160a01b03166321f8a721600360000160050160405161295b91906139e2565b6000612ac7612a86565b6001600160a01b0316826001600160a01b03161480612afe5750612ae9612eff565b6001600160a01b0316826001600160a01b0316145b80612b215750612b0c612f36565b6001600160a01b0316826001600160a01b0316145b80612b445750612b2f612f6d565b6001600160a01b0316826001600160a01b0316145b80612b675750612b52612fa4565b6001600160a01b0316826001600160a01b0316145b92915050565b6040516001600160a01b0380851660248301528316604482015260648101829052612bd89085906323b872dd60e01b906084015b60408051601f198184030181529190526020810180516001600160e01b03166001600160e01b031990931692909217909152612fdb565b50505050565b831580612bf257506001600160a01b038316155b15612bfc57612c87565b612c0884848484612d95565b612c10612a3c565b604051627b8a6760e11b8152600481018690526001600160a01b038581166024830152919091169062f714ce90604401600060405180830381600087803b158015612c5a57600080fd5b505af1158015612c6e573d6000803e3d6000fd5b50612c87925050506001600160a01b03841686866130b2565b5050505050565b831580612ca257506001600160a01b038316155b15612cac57612c87565b612cb884848484612cd6565b612c8785612cc4612a3c565b6001600160a01b038616919087612b6d565b612cdf81610188565b670de0b6b3a764000014612d0657604051634a6603c960e11b815260040160405180910390fd5b8051825114612d2857604051632f6b708f60e21b815260040160405180910390fd5b60005b8251811015612c8757612d83838281518110612d4957612d496138e9565b602002602001015185612d7e858581518110612d6757612d676138e9565b602002602001015189612a7390919063ffffffff16565b6130e2565b612d8e600182613915565b9050612d2b565b612d9e81610188565b670de0b6b3a764000014612dc557604051634a6603c960e11b815260040160405180910390fd5b8051825114612de757604051632f6b708f60e21b815260040160405180910390fd5b60005b8251811015612c8757612e2b838281518110612e0857612e086138e9565b602002602001015185612e26858581518110612d6757612d676138e9565b613174565b612e36600182613915565b9050612dea565b60008080600019848609848602925082811083820303915050670de0b6b3a76400008110612e815760405163698d9a0160e11b8152600481018290526024016105d6565b600080670de0b6b3a76400008688099150506706f05b59d3b1ffff811182612ebb5780670de0b6b3a7640000850401945050505050612b67565b620400008285030493909111909103600160ee1b02919091177faccb18165bd6fe31ae1cf318dc5b51eee0e1ba569b88cd74c1773b91fac106690201905092915050565b6000612f13603e546001600160a01b031690565b6001600160a01b03166321f8a721600360000160060160405161295b91906139e2565b6000612f4a603e546001600160a01b031690565b6001600160a01b03166321f8a721600360000160090160405161295b91906139e2565b6000612f81603e546001600160a01b031690565b6001600160a01b03166321f8a721600360000160080160405161295b91906139e2565b6000612fb8603e546001600160a01b031690565b6001600160a01b03166321f8a721600360000160070160405161295b91906139e2565b6000613030826040518060400160405280602081526020017f5361666545524332303a206c6f772d6c6576656c2063616c6c206661696c6564815250856001600160a01b03166132829092919063ffffffff16565b8051909150156130ad578080602001905181019061304e9190613a56565b6130ad5760405162461bcd60e51b815260206004820152602a60248201527f5361666545524332303a204552433230206f7065726174696f6e20646964206e6044820152691bdd081cdd58d8d9595960b21b60648201526084016105d6565b505050565b6040516001600160a01b0383166024820152604481018290526130ad90849063a9059cbb60e01b90606401612ba1565b603e546040516001600160a01b039091169063adb353dc9061310d9060169086908890602001613ae5565b60408051601f198184030181529082905280516020909101206001600160e01b031960e084901b168252600482015260248101849052604401600060405180830381600087803b15801561316057600080fd5b505af115801561128a573d6000803e3d6000fd5b80613187603e546001600160a01b031690565b6001600160a01b031663bd02d0f56003600f0160040185876040516020016131b193929190613ae5565b604051602081830303815290604052805190602001206040518263ffffffff1660e01b81526004016131e591815260200190565b602060405180830381865afa158015613202573d6000803e3d6000fd5b505050506040513d601f19601f820116820180604052508101906132269190613a0b565b10156132575760405163229585e760e11b8152600481018290526001600160a01b03831660248201526044016105d6565b603e546040516001600160a01b039091169063ebb9d8c99061310d9060169086908890602001613ae5565b60606132918484600085613299565b949350505050565b6060824710156132fa5760405162461bcd60e51b815260206004820152602660248201527f416464726573733a20696e73756666696369656e742062616c616e636520666f6044820152651c8818d85b1b60d21b60648201526084016105d6565b843b6133485760405162461bcd60e51b815260206004820152601d60248201527f416464726573733a2063616c6c20746f206e6f6e2d636f6e747261637400000060448201526064016105d6565b600080866001600160a01b031685876040516133649190613b43565b60006040518083038185875af1925050503d80600081146133a1576040519150601f19603f3d011682016040523d82523d6000602084013e6133a6565b606091505b50915091506133b68282866133c1565b979650505050505050565b606083156133d0575081612a7f565b8251156133e05782518084602001fd5b8160405162461bcd60e51b81526004016105d69190613b5f565b634e487b7160e01b600052604160045260246000fd5b604051601f8201601f1916810167ffffffffffffffff81118282101715613439576134396133fa565b604052919050565b600067ffffffffffffffff82111561345b5761345b6133fa565b5060051b60200190565b600082601f83011261347657600080fd5b8135602061348b61348683613441565b613410565b82815260059290921b840181019181810190868411156134aa57600080fd5b8286015b848110156134c557803583529183019183016134ae565b509695505050505050565b6000602082840312156134e257600080fd5b813567ffffffffffffffff8111156134f957600080fd5b61329184828501613465565b6001600160a01b038116811461351a57600080fd5b50565b803561352881613505565b919050565b600080600080600080600060e0888a03121561354857600080fd5b873561355381613505565b965060208801359550604088013561356a81613505565b945060608801359350608088013561358181613505565b925060a088013567ffffffffffffffff8082111561359e57600080fd5b6135aa8b838c01613465565b935060c08a01359150808211156135c057600080fd5b506135cd8a828b01613465565b91505092959891949750929550565b60008060008060008060008060006101208a8c0312156135fb57600080fd5b6136048a61351d565b985060208a0135975061361960408b0161351d565b965060608a013567ffffffffffffffff8082111561363657600080fd5b6136428d838e01613465565b975060808c013591508082111561365857600080fd5b6136648d838e01613465565b965060a08c0135955060c08c0135945060e08c013591508082111561368857600080fd5b6136948d838e01613465565b93506101008c01359150808211156136ab57600080fd5b506136b88c828d01613465565b9150509295985092959850929598565b600080600080600060a086880312156136e057600080fd5b85356136eb81613505565b94506020860135935060408601359250606086013567ffffffffffffffff8082111561371657600080fd5b61372289838a01613465565b9350608088013591508082111561373857600080fd5b5061374588828901613465565b9150509295509295909350565b600080600080600060a0868803121561376a57600080fd5b853561377581613505565b945060208601359350604086013561378c81613505565b92506060860135915060808601356137a381613505565b809150509295509295909350565b60008060008060008060c087890312156137ca57600080fd5b86356137d581613505565b95506020870135945060408701356137ec81613505565b9350606087013567ffffffffffffffff8082111561380957600080fd5b6138158a838b01613465565b9450608089013591508082111561382b57600080fd5b5061383889828a01613465565b92505060a087013590509295509295509295565b6000806000806080858703121561386257600080fd5b843561386d81613505565b935060208501359250604085013567ffffffffffffffff8082111561389157600080fd5b61389d88838901613465565b935060608701359150808211156138b357600080fd5b506138c087828801613465565b91505092959194509250565b6000602082840312156138de57600080fd5b8135612a7f81613505565b634e487b7160e01b600052603260045260246000fd5b634e487b7160e01b600052601160045260246000fd5b60008219821115613928576139286138ff565b500190565b6000600019821415613941576139416138ff565b5060010190565b8054600090600181811c908083168061396257607f831692505b602080841082141561398457634e487b7160e01b600052602260045260246000fd5b81801561399857600181146139a9576139d6565b60ff198616895284890196506139d6565b60008881526020902060005b868110156139ce5781548b8201529085019083016139b5565b505084890196505b50505050505092915050565b6000612a7f8284613948565b600060208284031215613a0057600080fd5b8151612a7f81613505565b600060208284031215613a1d57600080fd5b5051919050565b6001600160a01b0395861681529385166020850152604084019290925283166060830152909116608082015260a00190565b600060208284031215613a6857600080fd5b81518015158114612a7f57600080fd5b7f7068616e746f6d2e636f6e74726163742e726567697374657265640000000000815260609190911b6bffffffffffffffffffffffff1916601b820152602f0190565b6001600160a01b039485168152928416602084015292166040820152606081019190915260800190565b6000613af18286613948565b60609490941b6bffffffffffffffffffffffff1916845250506014820152603401919050565b60005b83811015613b32578181015183820152602001613b1a565b83811115612bd85750506000910152565b60008251613b55818460208701613b17565b9190910192915050565b6020815260008251806020840152613b7e816040850160208701613b17565b601f01601f1916919091016040019291505056fea26469706673582212201a34f4eaaa8436d4a966d9ee5ada7d49b35d12852c98bbbf8022ee1bc747d52064736f6c634300080a00337068616e746f6d2e666f756e6465722e636c61696d732e72656d61696e696e67416d6f756e747068616e746f6d2e616c6c6f6361746f722e746f6b656e732e616464726573732e6461697068616e746f6d2e726f7574696e672e6465785f726f757465725f616464726573737068616e746f6d2e666f756e6465722e636c61696d732e696e697469616c416d6f756e747068616e746f6d2e74726561737572792e6163636f756e745f6b65792e76656e747572656361706974616c7068616e746f6d2e616c6c6f6361746f722e746f6b656e732e616464726573732e6461695f70686d5f6c707068616e746f6d2e726f7574696e672e73706f6f6b795f726f757465725f616464726573737068616e746f6d2e74726561737572792e617070726f7665642e65787465726e616c2e616464726573737068616e746f6d2e626f6e64696e672e757365722e66697273745f756e72656465656d65645f6e6f6e63657068616e746f6d2e726f7574696e672e7370697269745f726f757465725f616464726573737068616e746f6d2e616c6c6f6361746f722e746f6b656e732e64657374696e6174696f6e737068616e746f6d2e726f7574696e672e7370697269745f666163746f72795f616464726573737068616e746f6d2e616c6c6f6361746f722e746f6b656e732e646573745f70657263656e74616765737068616e746f6d2e74726561737572792e6163636f756e745f6b65792e72657365727665737068616e746f6d2e616c6c6f6361746f722e746f6b656e732e616464726573732e6d696d7068616e746f6d2e726f7574696e672e73706f6f6b795f666163746f72795f616464726573737068616e746f6d2e616c6c6f6361746f722e746f6b656e732e616464726573732e7766746d7068616e746f6d2e616c6c6f6361746f722e746f6b656e732e616464726573732e6465787068616e746f6d2e726f7574696e672e7370697269745f67617567655f616464726573737068616e746f6d2e666f756e6465722e636c61696d732e616c6c6f636174696f6e7068616e746f6d2e726f7574696e672e6465785f666163746f72795f616464726573737068616e746f6d2e676f7665726e6f722e71756f72756d50657263656e746167657068616e746f6d2e676f7665726e6f722e70726f706f73616c5468726573686f6c647068616e746f6d2e7374616b696e672e6e657874526562617365446561646c696e657068616e746f6d2e726f7574696e672e7370697269745f67617567655f70726f78795f61646472657373",
  "bytecodeSha1": "da39a3ee5e6b4b0d3255bfef95601890afd80709",
  "compiler": {
    "evm_version": "istanbul",
    "optimizer": {
      "enabled": true,
      "runs": 200
    },
    "version": "0.8.10+commit.fc410830"
  },
  "contractName": "PhantomTreasury",
  "language": "Solidity",
  "natspec": {
    "author": "PhantomDao Team",
    "errors": {
      "PRBMath__MulDivFixedPointOverflow(uint256)": [
        {
          "notice": "Emitted when the result overflows uint256."
        }
      ]
    },
    "kind": "dev",
    "methods": {
      "deposit(address,uint256,address,bytes32[],uint256[],uint256,uint256,bytes32[],uint256[])": {
        "details": "deposit funds into the treasury",
        "params": {
          "inAmount": "how much is being deposited?",
          "inDepositor": "who is depositing the money?",
          "inToken": "what type of token is being deposited?",
          "keys": "which balances need to be updated",
          "mintRatio": "what discount to apply to price of inToken in order to determine how many PHM to mint.",
          "percentages": "what percentage of this transaction should be attributed to each balance",
          "profitKeys": "where DAO profit should be credited to",
          "profitPercentages": "in what percentages should the profit be allocated across profitKeys ",
          "profitRatio": "want multiplier to use to determine DAO profit amount in PHM"
        },
        "returns": {
          "_0": "the amount deposited"
        }
      },
      "registerReserveToken(address)": {
        "details": "register a token as being one of the reserve tokens"
      },
      "swap(address,uint256,address,uint256,address,bytes32[],uint256[])": {
        "details": "swap some tokens in the treasury for another type of token",
        "params": {
          "forUser": "who is doing this swap?",
          "inAmount": "amount of tokens to be swapped",
          "inToken": "the token type being swapped",
          "keys": "which balances need to be updated",
          "outAmount": "the amount of new tokens to receive in exchange",
          "outToken": "the type of token to receive in exchange",
          "percentages": "what percentage of this transaction should be attributed to each balance"
        }
      },
      "swapBurn(address,uint256,address,uint256,address,bytes32[],uint256[])": {
        "details": "swap some tokens in the treasury for another type of token, burning the original tokens",
        "params": {
          "burnAmount": "amount of tokens to be brned",
          "burnToken": "the token type being burned",
          "forUser": "who is doing this swap?",
          "keys": "which balances need to be updated",
          "outAmount": "the amount of new tokens to receive in exchange",
          "outToken": "the type of token to receive in exchange",
          "percentages": "what percentage of this transaction should be attributed to each balance"
        }
      },
      "swapBurnMint(address,uint256,address,uint256,address)": {
        "details": "burn an amount of tokens and mint an amount of tokens in its place",
        "params": {
          "burnAmount": "amount of tokens to be burned",
          "burnToken": "the token type being burned",
          "forUser": "who is doing this swap?",
          "mintAmount": "the amount of new tokens to be minted and receive in exchange",
          "mintToken": "the type of token to be minted and receive in exchange"
        }
      },
      "swapMint(address,uint256,address,uint256,address,bytes32[],uint256[])": {
        "details": "swap some tokens in the treasury for another type of newly minted tokens",
        "params": {
          "forUser": "who is doing this swap?",
          "inAmount": "amount of tokens to be swapped",
          "inToken": "the token type being swapped",
          "keys": "which balances need to be updated",
          "mintAmount": "the amount of new tokens to be minted and receive in exchange",
          "mintToken": "the type of token to be minted and receive in exchange",
          "percentages": "what percentage of this transaction should be attributed to each balance"
        }
      },
      "withdraw(address,uint256,address,bytes32[],uint256[],uint256)": {
        "details": "Withdraw funds from the treasury",
        "params": {
          "burnRatio": "what discount to apply to price of inToken in order to determine how many PHM to burn.",
          "keys": "which balances need to be updated",
          "outAmount": "how much is being withdrawn?",
          "outToken": "what type of token is being withdrawn?",
          "outWithdrawer": "who is withdrawing the funds?",
          "percentages": "what percentage of this transaction should be attributed to each balance"
        },
        "returns": {
          "_0": "the amount withdrawn"
        }
      }
    },
    "notice": "The contract responsible for handle all token transactions",
    "title": "PhantomTreasury",
    "version": 1
  },
  "opcodes": "PUSH1 0x80 PUSH1 0x40 MSTORE CALLVALUE DUP1 ISZERO PUSH2 0x10 JUMPI PUSH1 0x0 DUP1 REVERT JUMPDEST POP PUSH1 0x4 CALLDATASIZE LT PUSH2 0xA9 JUMPI PUSH1 0x0 CALLDATALOAD PUSH1 0xE0 SHR DUP1 PUSH4 0xA3971047 GT PUSH2 0x71 JUMPI DUP1 PUSH4 0xA3971047 EQ PUSH2 0x116 JUMPI DUP1 PUSH4 0xC41AC8CF EQ PUSH2 0x129 JUMPI DUP1 PUSH4 0xD480DD3F EQ PUSH2 0x13C JUMPI DUP1 PUSH4 0xDB457C91 EQ PUSH2 0x14F JUMPI DUP1 PUSH4 0xDDF0A2C4 EQ PUSH2 0x162 JUMPI DUP1 PUSH4 0xF6D78B1C EQ PUSH2 0x175 JUMPI PUSH1 0x0 DUP1 REVERT JUMPDEST DUP1 PUSH4 0x194DB8E EQ PUSH2 0xAE JUMPI DUP1 PUSH4 0x49D13D43 EQ PUSH2 0xD3 JUMPI DUP1 PUSH4 0x76997EB5 EQ PUSH2 0xDB JUMPI DUP1 PUSH4 0x91C65E19 EQ PUSH2 0xF0 JUMPI DUP1 PUSH4 0x97D632B1 EQ PUSH2 0x103 JUMPI JUMPDEST PUSH1 0x0 DUP1 REVERT JUMPDEST PUSH2 0xC1 PUSH2 0xBC CALLDATASIZE PUSH1 0x4 PUSH2 0x34D0 JUMP JUMPDEST PUSH2 0x188 JUMP JUMPDEST PUSH1 0x40 MLOAD SWAP1 DUP2 MSTORE PUSH1 0x20 ADD PUSH1 0x40 MLOAD DUP1 SWAP2 SUB SWAP1 RETURN JUMPDEST PUSH2 0xC1 PUSH2 0x1D7 JUMP JUMPDEST PUSH2 0xEE PUSH2 0xE9 CALLDATASIZE PUSH1 0x4 PUSH2 0x352D JUMP JUMPDEST PUSH2 0x499 JUMP JUMPDEST STOP JUMPDEST PUSH2 0xC1 PUSH2 0xFE CALLDATASIZE PUSH1 0x4 PUSH2 0x35DC JUMP JUMPDEST PUSH2 0x83C JUMP JUMPDEST PUSH2 0xEE PUSH2 0x111 CALLDATASIZE PUSH1 0x4 PUSH2 0x36C8 JUMP JUMPDEST PUSH2 0xE37 JUMP JUMPDEST PUSH2 0xEE PUSH2 0x124 CALLDATASIZE PUSH1 0x4 PUSH2 0x352D JUMP JUMPDEST PUSH2 0x1293 JUMP JUMPDEST PUSH2 0xEE PUSH2 0x137 CALLDATASIZE PUSH1 0x4 PUSH2 0x3752 JUMP JUMPDEST PUSH2 0x1581 JUMP JUMPDEST PUSH2 0xC1 PUSH2 0x14A CALLDATASIZE PUSH1 0x4 PUSH2 0x37B1 JUMP JUMPDEST PUSH2 0x198F JUMP JUMPDEST PUSH2 0xEE PUSH2 0x15D CALLDATASIZE PUSH1 0x4 PUSH2 0x384C JUMP JUMPDEST PUSH2 0x1E7A JUMP JUMPDEST PUSH2 0xEE PUSH2 0x170 CALLDATASIZE PUSH1 0x4 PUSH2 0x352D JUMP JUMPDEST PUSH2 0x2265 JUMP JUMPDEST PUSH2 0xEE PUSH2 0x183 CALLDATASIZE PUSH1 0x4 PUSH2 0x38CC JUMP JUMPDEST PUSH2 0x25C8 JUMP JUMPDEST PUSH1 0x0 DUP1 PUSH1 0x0 JUMPDEST DUP4 MLOAD DUP2 LT ISZERO PUSH2 0x1D0 JUMPI DUP4 DUP2 DUP2 MLOAD DUP2 LT PUSH2 0x1A9 JUMPI PUSH2 0x1A9 PUSH2 0x38E9 JUMP JUMPDEST PUSH1 0x20 MUL PUSH1 0x20 ADD ADD MLOAD DUP3 PUSH2 0x1BC SWAP2 SWAP1 PUSH2 0x3915 JUMP JUMPDEST SWAP2 POP DUP1 PUSH2 0x1C8 DUP2 PUSH2 0x392D JUMP JUMPDEST SWAP2 POP POP PUSH2 0x18E JUMP JUMPDEST POP SWAP3 SWAP2 POP POP JUMP JUMPDEST PUSH1 0x0 DUP1 PUSH1 0x0 JUMPDEST PUSH1 0x40 SLOAD DUP2 LT ISZERO PUSH2 0x493 JUMPI PUSH2 0x1EF PUSH2 0x2924 JUMP JUMPDEST PUSH1 0x1 PUSH1 0x1 PUSH1 0xA0 SHL SUB AND PUSH4 0x2A0BBEDF PUSH2 0x20F PUSH1 0x3E SLOAD PUSH1 0x1 PUSH1 0x1 PUSH1 0xA0 SHL SUB AND SWAP1 JUMP JUMPDEST PUSH1 0x1 PUSH1 0x1 PUSH1 0xA0 SHL SUB AND PUSH4 0x21F8A721 PUSH1 0x3 PUSH1 0x2E ADD PUSH1 0x0 ADD PUSH1 0x40 MLOAD PUSH2 0x232 SWAP2 SWAP1 PUSH2 0x39E2 JUMP JUMPDEST PUSH1 0x40 MLOAD SWAP1 DUP2 SWAP1 SUB DUP2 KECCAK256 PUSH1 0xE0 DUP4 SWAP1 SHL PUSH1 0x1 PUSH1 0x1 PUSH1 0xE0 SHL SUB NOT AND DUP3 MSTORE PUSH1 0x4 DUP3 ADD MSTORE PUSH1 0x24 ADD PUSH1 0x20 PUSH1 0x40 MLOAD DUP1 DUP4 SUB DUP2 DUP7 GAS STATICCALL ISZERO DUP1 ISZERO PUSH2 0x271 JUMPI RETURNDATASIZE PUSH1 0x0 DUP1 RETURNDATACOPY RETURNDATASIZE PUSH1 0x0 REVERT JUMPDEST POP POP POP POP PUSH1 0x40 MLOAD RETURNDATASIZE PUSH1 0x1F NOT PUSH1 0x1F DUP3 ADD AND DUP3 ADD DUP1 PUSH1 0x40 MSTORE POP DUP2 ADD SWAP1 PUSH2 0x295 SWAP2 SWAP1 PUSH2 0x39EE JUMP JUMPDEST PUSH1 0x3E SLOAD PUSH1 0x40 MLOAD PUSH1 0x1 PUSH1 0x1 PUSH1 0xA0 SHL SUB SWAP1 SWAP2 AND SWAP1 PUSH4 0x21F8A721 SWAP1 PUSH2 0x2B9 SWAP1 PUSH1 0x32 SWAP1 PUSH2 0x39E2 JUMP JUMPDEST PUSH1 0x40 MLOAD SWAP1 DUP2 SWAP1 SUB DUP2 KECCAK256 PUSH1 0xE0 DUP4 SWAP1 SHL PUSH1 0x1 PUSH1 0x1 PUSH1 0xE0 SHL SUB NOT AND DUP3 MSTORE PUSH1 0x4 DUP3 ADD MSTORE PUSH1 0x24 ADD PUSH1 0x20 PUSH1 0x40 MLOAD DUP1 DUP4 SUB DUP2 DUP7 GAS STATICCALL ISZERO DUP1 ISZERO PUSH2 0x2F8 JUMPI RETURNDATASIZE PUSH1 0x0 DUP1 RETURNDATACOPY RETURNDATASIZE PUSH1 0x0 REVERT JUMPDEST POP POP POP POP PUSH1 0x40 MLOAD RETURNDATASIZE PUSH1 0x1F NOT PUSH1 0x1F DUP3 ADD AND DUP3 ADD DUP1 PUSH1 0x40 MSTORE POP DUP2 ADD SWAP1 PUSH2 0x31C SWAP2 SWAP1 PUSH2 0x39EE JUMP JUMPDEST PUSH2 0x3E4 PUSH2 0x327 PUSH2 0x29C3 JUMP JUMPDEST PUSH1 0x0 DUP2 MLOAD DUP2 LT PUSH2 0x339 JUMPI PUSH2 0x339 PUSH2 0x38E9 JUMP JUMPDEST PUSH1 0x20 MUL PUSH1 0x20 ADD ADD MLOAD PUSH1 0x40 DUP8 DUP2 SLOAD DUP2 LT PUSH2 0x354 JUMPI PUSH2 0x354 PUSH2 0x38E9 JUMP JUMPDEST PUSH1 0x0 SWAP2 DUP3 MSTORE PUSH1 0x20 SWAP1 SWAP2 KECCAK256 ADD SLOAD PUSH1 0x1 PUSH1 0x1 PUSH1 0xA0 SHL SUB AND PUSH4 0x70A08231 PUSH2 0x376 PUSH2 0x2A3C JUMP JUMPDEST PUSH1 0x40 MLOAD PUSH1 0x1 PUSH1 0x1 PUSH1 0xE0 SHL SUB NOT PUSH1 0xE0 DUP5 SWAP1 SHL AND DUP2 MSTORE PUSH1 0x1 PUSH1 0x1 PUSH1 0xA0 SHL SUB SWAP1 SWAP2 AND PUSH1 0x4 DUP3 ADD MSTORE PUSH1 0x24 ADD PUSH1 0x20 PUSH1 0x40 MLOAD DUP1 DUP4 SUB DUP2 DUP7 GAS STATICCALL ISZERO DUP1 ISZERO PUSH2 0x3BA JUMPI RETURNDATASIZE PUSH1 0x0 DUP1 RETURNDATACOPY RETURNDATASIZE PUSH1 0x0 REVERT JUMPDEST POP POP POP POP PUSH1 0x40 MLOAD RETURNDATASIZE PUSH1 0x1F NOT PUSH1 0x1F DUP3 ADD AND DUP3 ADD DUP1 PUSH1 0x40 MSTORE POP DUP2 ADD SWAP1 PUSH2 0x3DE SWAP2 SWAP1 PUSH2 0x3A0B JUMP JUMPDEST SWAP1 PUSH2 0x2A73 JUMP JUMPDEST PUSH1 0x40 DUP7 DUP2 SLOAD DUP2 LT PUSH2 0x3F7 JUMPI PUSH2 0x3F7 PUSH2 0x38E9 JUMP JUMPDEST PUSH1 0x0 SWAP2 DUP3 MSTORE PUSH1 0x20 SWAP1 SWAP2 KECCAK256 ADD SLOAD PUSH1 0x1 PUSH1 0x1 PUSH1 0xA0 SHL SUB AND PUSH2 0x414 PUSH2 0x2A86 JUMP JUMPDEST PUSH1 0x40 MLOAD DUP7 PUSH4 0xFFFFFFFF AND PUSH1 0xE0 SHL DUP2 MSTORE PUSH1 0x4 ADD PUSH2 0x434 SWAP6 SWAP5 SWAP4 SWAP3 SWAP2 SWAP1 PUSH2 0x3A24 JUMP JUMPDEST PUSH1 0x20 PUSH1 0x40 MLOAD DUP1 DUP4 SUB DUP2 DUP7 GAS STATICCALL ISZERO DUP1 ISZERO PUSH2 0x451 JUMPI RETURNDATASIZE PUSH1 0x0 DUP1 RETURNDATACOPY RETURNDATASIZE PUSH1 0x0 REVERT JUMPDEST POP POP POP POP PUSH1 0x40 MLOAD RETURNDATASIZE PUSH1 0x1F NOT PUSH1 0x1F DUP3 ADD AND DUP3 ADD DUP1 PUSH1 0x40 MSTORE POP DUP2 ADD SWAP1 PUSH2 0x475 SWAP2 SWAP1 PUSH2 0x3A0B JUMP JUMPDEST PUSH2 0x47F SWAP1 DUP4 PUSH2 0x3915 JUMP JUMPDEST SWAP2 POP DUP1 PUSH2 0x48B DUP2 PUSH2 0x392D JUMP JUMPDEST SWAP2 POP POP PUSH2 0x1DD JUMP JUMPDEST POP SWAP2 SWAP1 POP JUMP JUMPDEST PUSH1 0x0 PUSH2 0x4AD PUSH1 0x3E SLOAD PUSH1 0x1 PUSH1 0x1 PUSH1 0xA0 SHL SUB AND SWAP1 JUMP JUMPDEST PUSH1 0x1 PUSH1 0x1 PUSH1 0xA0 SHL SUB AND PUSH4 0x1BED5241 PUSH1 0x40 MLOAD DUP2 PUSH4 0xFFFFFFFF AND PUSH1 0xE0 SHL DUP2 MSTORE PUSH1 0x4 ADD PUSH1 0x20 PUSH1 0x40 MLOAD DUP1 DUP4 SUB DUP2 DUP7 GAS STATICCALL ISZERO DUP1 ISZERO PUSH2 0x4EA JUMPI RETURNDATASIZE PUSH1 0x0 DUP1 RETURNDATACOPY RETURNDATASIZE PUSH1 0x0 REVERT JUMPDEST POP POP POP POP PUSH1 0x40 MLOAD RETURNDATASIZE PUSH1 0x1F NOT PUSH1 0x1F DUP3 ADD AND DUP3 ADD DUP1 PUSH1 0x40 MSTORE POP DUP2 ADD SWAP1 PUSH2 0x50E SWAP2 SWAP1 PUSH2 0x3A56 JUMP JUMPDEST SWAP1 POP PUSH1 0x1 DUP2 ISZERO ISZERO EQ ISZERO PUSH2 0x5E4 JUMPI PUSH1 0x3E SLOAD PUSH1 0x1 PUSH1 0x1 PUSH1 0xA0 SHL SUB AND PUSH1 0x1 PUSH1 0x1 PUSH1 0xA0 SHL SUB AND PUSH4 0x7AE1CFCA CALLER PUSH1 0x40 MLOAD PUSH1 0x20 ADD PUSH2 0x546 SWAP2 SWAP1 PUSH2 0x3A78 JUMP JUMPDEST PUSH1 0x40 MLOAD PUSH1 0x20 DUP2 DUP4 SUB SUB DUP2 MSTORE SWAP1 PUSH1 0x40 MSTORE DUP1 MLOAD SWAP1 PUSH1 0x20 ADD KECCAK256 PUSH1 0x40 MLOAD DUP3 PUSH4 0xFFFFFFFF AND PUSH1 0xE0 SHL DUP2 MSTORE PUSH1 0x4 ADD PUSH2 0x57A SWAP2 DUP2 MSTORE PUSH1 0x20 ADD SWAP1 JUMP JUMPDEST PUSH1 0x20 PUSH1 0x40 MLOAD DUP1 DUP4 SUB DUP2 DUP7 GAS STATICCALL ISZERO DUP1 ISZERO PUSH2 0x597 JUMPI RETURNDATASIZE PUSH1 0x0 DUP1 RETURNDATACOPY RETURNDATASIZE PUSH1 0x0 REVERT JUMPDEST POP POP POP POP PUSH1 0x40 MLOAD RETURNDATASIZE PUSH1 0x1F NOT PUSH1 0x1F DUP3 ADD AND DUP3 ADD DUP1 PUSH1 0x40 MSTORE POP DUP2 ADD SWAP1 PUSH2 0x5BB SWAP2 SWAP1 PUSH2 0x3A56 JUMP JUMPDEST PUSH2 0x5DF JUMPI PUSH1 0x40 MLOAD PUSH4 0x372463E3 PUSH1 0xE0 SHL DUP2 MSTORE CALLER PUSH1 0x4 DUP3 ADD MSTORE PUSH1 0x24 ADD JUMPDEST PUSH1 0x40 MLOAD DUP1 SWAP2 SUB SWAP1 REVERT JUMPDEST PUSH2 0x72B JUMP JUMPDEST PUSH1 0x3E SLOAD PUSH1 0x1 PUSH1 0x1 PUSH1 0xA0 SHL SUB AND PUSH1 0x1 PUSH1 0x1 PUSH1 0xA0 SHL SUB AND PUSH4 0x7AE1CFCA CALLER PUSH1 0x40 MLOAD PUSH1 0x20 ADD PUSH2 0x60F SWAP2 SWAP1 PUSH2 0x3A78 JUMP JUMPDEST PUSH1 0x40 MLOAD PUSH1 0x20 DUP2 DUP4 SUB SUB DUP2 MSTORE SWAP1 PUSH1 0x40 MSTORE DUP1 MLOAD SWAP1 PUSH1 0x20 ADD KECCAK256 PUSH1 0x40 MLOAD DUP3 PUSH4 0xFFFFFFFF AND PUSH1 0xE0 SHL DUP2 MSTORE PUSH1 0x4 ADD PUSH2 0x643 SWAP2 DUP2 MSTORE PUSH1 0x20 ADD SWAP1 JUMP JUMPDEST PUSH1 0x20 PUSH1 0x40 MLOAD DUP1 DUP4 SUB DUP2 DUP7 GAS STATICCALL ISZERO DUP1 ISZERO PUSH2 0x660 JUMPI RETURNDATASIZE PUSH1 0x0 DUP1 RETURNDATACOPY RETURNDATASIZE PUSH1 0x0 REVERT JUMPDEST POP POP POP POP PUSH1 0x40 MLOAD RETURNDATASIZE PUSH1 0x1F NOT PUSH1 0x1F DUP3 ADD AND DUP3 ADD DUP1 PUSH1 0x40 MSTORE POP DUP2 ADD SWAP1 PUSH2 0x684 SWAP2 SWAP1 PUSH2 0x3A56 JUMP JUMPDEST DUP1 PUSH2 0x70C JUMPI POP PUSH1 0x3E SLOAD PUSH1 0x1 PUSH1 0x1 PUSH1 0xA0 SHL SUB AND PUSH1 0x1 PUSH1 0x1 PUSH1 0xA0 SHL SUB AND PUSH4 0xA75B87D2 PUSH1 0x40 MLOAD DUP2 PUSH4 0xFFFFFFFF AND PUSH1 0xE0 SHL DUP2 MSTORE PUSH1 0x4 ADD PUSH1 0x20 PUSH1 0x40 MLOAD DUP1 DUP4 SUB DUP2 DUP7 GAS STATICCALL ISZERO DUP1 ISZERO PUSH2 0x6D3 JUMPI RETURNDATASIZE PUSH1 0x0 DUP1 RETURNDATACOPY RETURNDATASIZE PUSH1 0x0 REVERT JUMPDEST POP POP POP POP PUSH1 0x40 MLOAD RETURNDATASIZE PUSH1 0x1F NOT PUSH1 0x1F DUP3 ADD AND DUP3 ADD DUP1 PUSH1 0x40 MSTORE POP DUP2 ADD SWAP1 PUSH2 0x6F7 SWAP2 SWAP1 PUSH2 0x39EE JUMP JUMPDEST PUSH1 0x1 PUSH1 0x1 PUSH1 0xA0 SHL SUB AND ORIGIN PUSH1 0x1 PUSH1 0x1 PUSH1 0xA0 SHL SUB AND EQ JUMPDEST PUSH2 0x72B JUMPI PUSH1 0x40 MLOAD PUSH4 0x372463E3 PUSH1 0xE0 SHL DUP2 MSTORE CALLER PUSH1 0x4 DUP3 ADD MSTORE PUSH1 0x24 ADD PUSH2 0x5D6 JUMP JUMPDEST DUP6 PUSH2 0x735 DUP2 PUSH2 0x2ABD JUMP JUMPDEST PUSH2 0x75D JUMPI PUSH1 0x40 MLOAD PUSH4 0x49E82B5F PUSH1 0xE1 SHL DUP2 MSTORE PUSH1 0x1 PUSH1 0x1 PUSH1 0xA0 SHL SUB DUP3 AND PUSH1 0x4 DUP3 ADD MSTORE PUSH1 0x24 ADD PUSH2 0x5D6 JUMP JUMPDEST PUSH2 0x77B DUP10 PUSH2 0x769 PUSH2 0x2A3C JUMP JUMPDEST PUSH1 0x1 PUSH1 0x1 PUSH1 0xA0 SHL SUB DUP11 AND SWAP2 SWAP1 DUP12 PUSH2 0x2B6D JUMP JUMPDEST PUSH2 0x783 PUSH2 0x2A3C JUMP JUMPDEST PUSH1 0x40 MLOAD PUSH4 0x3F34D4CF PUSH1 0xE2 SHL DUP2 MSTORE PUSH1 0x4 DUP2 ADD DUP11 SWAP1 MSTORE PUSH1 0x1 PUSH1 0x1 PUSH1 0xA0 SHL SUB DUP10 DUP2 AND PUSH1 0x24 DUP4 ADD MSTORE SWAP2 SWAP1 SWAP2 AND SWAP1 PUSH4 0xFCD3533C SWAP1 PUSH1 0x44 ADD PUSH1 0x0 PUSH1 0x40 MLOAD DUP1 DUP4 SUB DUP2 PUSH1 0x0 DUP8 DUP1 EXTCODESIZE ISZERO DUP1 ISZERO PUSH2 0x7CF JUMPI PUSH1 0x0 DUP1 REVERT JUMPDEST POP GAS CALL ISZERO DUP1 ISZERO PUSH2 0x7E3 JUMPI RETURNDATASIZE PUSH1 0x0 DUP1 RETURNDATACOPY RETURNDATASIZE PUSH1 0x0 REVERT JUMPDEST POP POP POP POP PUSH2 0x7F4 DUP10 DUP8 DUP8 DUP8 DUP8 PUSH2 0x2BDE JUMP JUMPDEST PUSH32 0x89E19257A72F4118164F2754032AE310FB86B3F1192FD8F6953C36E665E3CEEC DUP8 DUP7 DUP12 DUP12 PUSH1 0x40 MLOAD PUSH2 0x829 SWAP5 SWAP4 SWAP3 SWAP2 SWAP1 PUSH2 0x3ABB JUMP JUMPDEST PUSH1 0x40 MLOAD DUP1 SWAP2 SUB SWAP1 LOG1 POP POP POP POP POP POP POP POP POP JUMP JUMPDEST PUSH1 0x0 DUP1 PUSH2 0x851 PUSH1 0x3E SLOAD PUSH1 0x1 PUSH1 0x1 PUSH1 0xA0 SHL SUB AND SWAP1 JUMP JUMPDEST PUSH1 0x1 PUSH1 0x1 PUSH1 0xA0 SHL SUB AND PUSH4 0x1BED5241 PUSH1 0x40 MLOAD DUP2 PUSH4 0xFFFFFFFF AND PUSH1 0xE0 SHL DUP2 MSTORE PUSH1 0x4 ADD PUSH1 0x20 PUSH1 0x40 MLOAD DUP1 DUP4 SUB DUP2 DUP7 GAS STATICCALL ISZERO DUP1 ISZERO PUSH2 0x88E JUMPI RETURNDATASIZE PUSH1 0x0 DUP1 RETURNDATACOPY RETURNDATASIZE PUSH1 0x0 REVERT JUMPDEST POP POP POP POP PUSH1 0x40 MLOAD RETURNDATASIZE PUSH1 0x1F NOT PUSH1 0x1F DUP3 ADD AND DUP3 ADD DUP1 PUSH1 0x40 MSTORE POP DUP2 ADD SWAP1 PUSH2 0x8B2 SWAP2 SWAP1 PUSH2 0x3A56 JUMP JUMPDEST SWAP1 POP PUSH1 0x1 DUP2 ISZERO ISZERO EQ ISZERO PUSH2 0x983 JUMPI PUSH1 0x3E SLOAD PUSH1 0x1 PUSH1 0x1 PUSH1 0xA0 SHL SUB AND PUSH1 0x1 PUSH1 0x1 PUSH1 0xA0 SHL SUB AND PUSH4 0x7AE1CFCA CALLER PUSH1 0x40 MLOAD PUSH1 0x20 ADD PUSH2 0x8EA SWAP2 SWAP1 PUSH2 0x3A78 JUMP JUMPDEST PUSH1 0x40 MLOAD PUSH1 0x20 DUP2 DUP4 SUB SUB DUP2 MSTORE SWAP1 PUSH1 0x40 MSTORE DUP1 MLOAD SWAP1 PUSH1 0x20 ADD KECCAK256 PUSH1 0x40 MLOAD DUP3 PUSH4 0xFFFFFFFF AND PUSH1 0xE0 SHL DUP2 MSTORE PUSH1 0x4 ADD PUSH2 0x91E SWAP2 DUP2 MSTORE PUSH1 0x20 ADD SWAP1 JUMP JUMPDEST PUSH1 0x20 PUSH1 0x40 MLOAD DUP1 DUP4 SUB DUP2 DUP7 GAS STATICCALL ISZERO DUP1 ISZERO PUSH2 0x93B JUMPI RETURNDATASIZE PUSH1 0x0 DUP1 RETURNDATACOPY RETURNDATASIZE PUSH1 0x0 REVERT JUMPDEST POP POP POP POP PUSH1 0x40 MLOAD RETURNDATASIZE PUSH1 0x1F NOT PUSH1 0x1F DUP3 ADD AND DUP3 ADD DUP1 PUSH1 0x40 MSTORE POP DUP2 ADD SWAP1 PUSH2 0x95F SWAP2 SWAP1 PUSH2 0x3A56 JUMP JUMPDEST PUSH2 0x97E JUMPI PUSH1 0x40 MLOAD PUSH4 0x372463E3 PUSH1 0xE0 SHL DUP2 MSTORE CALLER PUSH1 0x4 DUP3 ADD MSTORE PUSH1 0x24 ADD PUSH2 0x5D6 JUMP JUMPDEST PUSH2 0xACA JUMP JUMPDEST PUSH1 0x3E SLOAD PUSH1 0x1 PUSH1 0x1 PUSH1 0xA0 SHL SUB AND PUSH1 0x1 PUSH1 0x1 PUSH1 0xA0 SHL SUB AND PUSH4 0x7AE1CFCA CALLER PUSH1 0x40 MLOAD PUSH1 0x20 ADD PUSH2 0x9AE SWAP2 SWAP1 PUSH2 0x3A78 JUMP JUMPDEST PUSH1 0x40 MLOAD PUSH1 0x20 DUP2 DUP4 SUB SUB DUP2 MSTORE SWAP1 PUSH1 0x40 MSTORE DUP1 MLOAD SWAP1 PUSH1 0x20 ADD KECCAK256 PUSH1 0x40 MLOAD DUP3 PUSH4 0xFFFFFFFF AND PUSH1 0xE0 SHL DUP2 MSTORE PUSH1 0x4 ADD PUSH2 0x9E2 SWAP2 DUP2 MSTORE PUSH1 0x20 ADD SWAP1 JUMP JUMPDEST PUSH1 0x20 PUSH1 0x40 MLOAD DUP1 DUP4 SUB DUP2 DUP7 GAS STATICCALL ISZERO DUP1 ISZERO PUSH2 0x9FF JUMPI RETURNDATASIZE PUSH1 0x0 DUP1 RETURNDATACOPY RETURNDATASIZE PUSH1 0x0 REVERT JUMPDEST POP POP POP POP PUSH1 0x40 MLOAD RETURNDATASIZE PUSH1 0x1F NOT PUSH1 0x1F DUP3 ADD AND DUP3 ADD DUP1 PUSH1 0x40 MSTORE POP DUP2 ADD SWAP1 PUSH2 0xA23 SWAP2 SWAP1 PUSH2 0x3A56 JUMP JUMPDEST DUP1 PUSH2 0xAAB JUMPI POP PUSH1 0x3E SLOAD PUSH1 0x1 PUSH1 0x1 PUSH1 0xA0 SHL SUB AND PUSH1 0x1 PUSH1 0x1 PUSH1 0xA0 SHL SUB AND PUSH4 0xA75B87D2 PUSH1 0x40 MLOAD DUP2 PUSH4 0xFFFFFFFF AND PUSH1 0xE0 SHL DUP2 MSTORE PUSH1 0x4 ADD PUSH1 0x20 PUSH1 0x40 MLOAD DUP1 DUP4 SUB DUP2 DUP7 GAS STATICCALL ISZERO DUP1 ISZERO PUSH2 0xA72 JUMPI RETURNDATASIZE PUSH1 0x0 DUP1 RETURNDATACOPY RETURNDATASIZE PUSH1 0x0 REVERT JUMPDEST POP POP POP POP PUSH1 0x40 MLOAD RETURNDATASIZE PUSH1 0x1F NOT PUSH1 0x1F DUP3 ADD AND DUP3 ADD DUP1 PUSH1 0x40 MSTORE POP DUP2 ADD SWAP1 PUSH2 0xA96 SWAP2 SWAP1 PUSH2 0x39EE JUMP JUMPDEST PUSH1 0x1 PUSH1 0x1 PUSH1 0xA0 SHL SUB AND ORIGIN PUSH1 0x1 PUSH1 0x1 PUSH1 0xA0 SHL SUB AND EQ JUMPDEST PUSH2 0xACA JUMPI PUSH1 0x40 MLOAD PUSH4 0x372463E3 PUSH1 0xE0 SHL DUP2 MSTORE CALLER PUSH1 0x4 DUP3 ADD MSTORE PUSH1 0x24 ADD PUSH2 0x5D6 JUMP JUMPDEST PUSH1 0x0 PUSH2 0xAD4 PUSH2 0x2924 JUMP JUMPDEST PUSH1 0x1 PUSH1 0x1 PUSH1 0xA0 SHL SUB AND PUSH4 0x2A0BBEDF PUSH2 0xAF4 PUSH1 0x3E SLOAD PUSH1 0x1 PUSH1 0x1 PUSH1 0xA0 SHL SUB AND SWAP1 JUMP JUMPDEST PUSH1 0x1 PUSH1 0x1 PUSH1 0xA0 SHL SUB AND PUSH4 0x21F8A721 PUSH1 0x3 PUSH1 0x2E ADD PUSH1 0x0 ADD PUSH1 0x40 MLOAD PUSH2 0xB17 SWAP2 SWAP1 PUSH2 0x39E2 JUMP JUMPDEST PUSH1 0x40 MLOAD SWAP1 DUP2 SWAP1 SUB DUP2 KECCAK256 PUSH1 0xE0 DUP4 SWAP1 SHL PUSH1 0x1 PUSH1 0x1 PUSH1 0xE0 SHL SUB NOT AND DUP3 MSTORE PUSH1 0x4 DUP3 ADD MSTORE PUSH1 0x24 ADD PUSH1 0x20 PUSH1 0x40 MLOAD DUP1 DUP4 SUB DUP2 DUP7 GAS STATICCALL ISZERO DUP1 ISZERO PUSH2 0xB56 JUMPI RETURNDATASIZE PUSH1 0x0 DUP1 RETURNDATACOPY RETURNDATASIZE PUSH1 0x0 REVERT JUMPDEST POP POP POP POP PUSH1 0x40 MLOAD RETURNDATASIZE PUSH1 0x1F NOT PUSH1 0x1F DUP3 ADD AND DUP3 ADD DUP1 PUSH1 0x40 MSTORE POP DUP2 ADD SWAP1 PUSH2 0xB7A SWAP2 SWAP1 PUSH2 0x39EE JUMP JUMPDEST PUSH1 0x3E SLOAD PUSH1 0x40 MLOAD PUSH1 0x1 PUSH1 0x1 PUSH1 0xA0 SHL SUB SWAP1 SWAP2 AND SWAP1 PUSH4 0x21F8A721 SWAP1 PUSH2 0xB9E SWAP1 PUSH1 0x32 SWAP1 PUSH2 0x39E2 JUMP JUMPDEST PUSH1 0x40 MLOAD SWAP1 DUP2 SWAP1 SUB DUP2 KECCAK256 PUSH1 0xE0 DUP4 SWAP1 SHL PUSH1 0x1 PUSH1 0x1 PUSH1 0xE0 SHL SUB NOT AND DUP3 MSTORE PUSH1 0x4 DUP3 ADD MSTORE PUSH1 0x24 ADD PUSH1 0x20 PUSH1 0x40 MLOAD DUP1 DUP4 SUB DUP2 DUP7 GAS STATICCALL ISZERO DUP1 ISZERO PUSH2 0xBDD JUMPI RETURNDATASIZE PUSH1 0x0 DUP1 RETURNDATACOPY RETURNDATASIZE PUSH1 0x0 REVERT JUMPDEST POP POP POP POP PUSH1 0x40 MLOAD RETURNDATASIZE PUSH1 0x1F NOT PUSH1 0x1F DUP3 ADD AND DUP3 ADD DUP1 PUSH1 0x40 MSTORE POP DUP2 ADD SWAP1 PUSH2 0xC01 SWAP2 SWAP1 PUSH2 0x39EE JUMP JUMPDEST DUP15 DUP15 PUSH2 0xC0B PUSH2 0x2A86 JUMP JUMPDEST PUSH1 0x40 MLOAD DUP7 PUSH4 0xFFFFFFFF AND PUSH1 0xE0 SHL DUP2 MSTORE PUSH1 0x4 ADD PUSH2 0xC2B SWAP6 SWAP5 SWAP4 SWAP3 SWAP2 SWAP1 PUSH2 0x3A24 JUMP JUMPDEST PUSH1 0x20 PUSH1 0x40 MLOAD DUP1 DUP4 SUB DUP2 DUP7 GAS STATICCALL ISZERO DUP1 ISZERO PUSH2 0xC48 JUMPI RETURNDATASIZE PUSH1 0x0 DUP1 RETURNDATACOPY RETURNDATASIZE PUSH1 0x0 REVERT JUMPDEST POP POP POP POP PUSH1 0x40 MLOAD RETURNDATASIZE PUSH1 0x1F NOT PUSH1 0x1F DUP3 ADD AND DUP3 ADD DUP1 PUSH1 0x40 MSTORE POP DUP2 ADD SWAP1 PUSH2 0xC6C SWAP2 SWAP1 PUSH2 0x3A0B JUMP JUMPDEST SWAP1 POP PUSH2 0xC7B DUP13 DUP13 DUP13 DUP13 DUP13 PUSH2 0x2C8E JUMP JUMPDEST PUSH1 0x0 PUSH2 0xC87 DUP3 DUP10 PUSH2 0x2A73 JUMP JUMPDEST SWAP1 POP PUSH2 0xC9C DUP2 PUSH2 0xC95 PUSH2 0x2A86 JUMP JUMPDEST DUP13 DUP13 PUSH2 0x2CD6 JUMP JUMPDEST PUSH2 0xCA4 PUSH2 0x2A86 JUMP JUMPDEST PUSH1 0x1 PUSH1 0x1 PUSH1 0xA0 SHL SUB AND PUSH4 0x40C10F19 PUSH2 0xCBA PUSH2 0x2A3C JUMP JUMPDEST PUSH1 0x40 MLOAD PUSH1 0x1 PUSH1 0x1 PUSH1 0xE0 SHL SUB NOT PUSH1 0xE0 DUP5 SWAP1 SHL AND DUP2 MSTORE PUSH1 0x1 PUSH1 0x1 PUSH1 0xA0 SHL SUB SWAP1 SWAP2 AND PUSH1 0x4 DUP3 ADD MSTORE PUSH1 0x24 DUP2 ADD DUP5 SWAP1 MSTORE PUSH1 0x44 ADD PUSH1 0x0 PUSH1 0x40 MLOAD DUP1 DUP4 SUB DUP2 PUSH1 0x0 DUP8 DUP1 EXTCODESIZE ISZERO DUP1 ISZERO PUSH2 0xD02 JUMPI PUSH1 0x0 DUP1 REVERT JUMPDEST POP GAS CALL ISZERO DUP1 ISZERO PUSH2 0xD16 JUMPI RETURNDATASIZE PUSH1 0x0 DUP1 RETURNDATACOPY RETURNDATASIZE PUSH1 0x0 REVERT JUMPDEST POP POP POP POP PUSH1 0x0 PUSH2 0xD2F DUP9 DUP4 PUSH2 0x2A73 SWAP1 SWAP2 SWAP1 PUSH4 0xFFFFFFFF AND JUMP JUMPDEST SWAP1 POP PUSH2 0xD39 PUSH2 0x2A86 JUMP JUMPDEST PUSH1 0x1 PUSH1 0x1 PUSH1 0xA0 SHL SUB AND PUSH4 0x40C10F19 PUSH2 0xD4F PUSH2 0x2A3C JUMP JUMPDEST PUSH1 0x40 MLOAD PUSH1 0x1 PUSH1 0x1 PUSH1 0xE0 SHL SUB NOT PUSH1 0xE0 DUP5 SWAP1 SHL AND DUP2 MSTORE PUSH1 0x1 PUSH1 0x1 PUSH1 0xA0 SHL SUB SWAP1 SWAP2 AND PUSH1 0x4 DUP3 ADD MSTORE PUSH1 0x24 DUP2 ADD DUP5 SWAP1 MSTORE PUSH1 0x44 ADD PUSH1 0x0 PUSH1 0x40 MLOAD DUP1 DUP4 SUB DUP2 PUSH1 0x0 DUP8 DUP1 EXTCODESIZE ISZERO DUP1 ISZERO PUSH2 0xD97 JUMPI PUSH1 0x0 DUP1 REVERT JUMPDEST POP GAS CALL ISZERO DUP1 ISZERO PUSH2 0xDAB JUMPI RETURNDATASIZE PUSH1 0x0 DUP1 RETURNDATACOPY RETURNDATASIZE PUSH1 0x0 REVERT JUMPDEST POP POP POP POP PUSH2 0xDC2 DUP2 PUSH2 0xDBB PUSH2 0x2A86 JUMP JUMPDEST DUP10 DUP10 PUSH2 0x2CD6 JUMP JUMPDEST PUSH32 0x65C8E1561580499F923AA822A51733482432BA4EB7D5FCA6606044CD16C7157B PUSH2 0xDEB PUSH2 0x2A86 JUMP JUMPDEST PUSH2 0xDF3 PUSH2 0x2A3C JUMP JUMPDEST PUSH2 0xDFD DUP5 DUP7 PUSH2 0x3915 JUMP JUMPDEST PUSH1 0x40 DUP1 MLOAD PUSH1 0x1 PUSH1 0x1 PUSH1 0xA0 SHL SUB SWAP5 DUP6 AND DUP2 MSTORE SWAP4 SWAP1 SWAP3 AND PUSH1 0x20 DUP5 ADD MSTORE SWAP1 DUP3 ADD MSTORE PUSH1 0x60 ADD PUSH1 0x40 MLOAD DUP1 SWAP2 SUB SWAP1 LOG1 POP SWAP13 SWAP12 POP POP POP POP POP POP POP POP POP POP POP POP JUMP JUMPDEST PUSH1 0x0 PUSH2 0xE4B PUSH1 0x3E SLOAD PUSH1 0x1 PUSH1 0x1 PUSH1 0xA0 SHL SUB AND SWAP1 JUMP JUMPDEST PUSH1 0x1 PUSH1 0x1 PUSH1 0xA0 SHL SUB AND PUSH4 0x1BED5241 PUSH1 0x40 MLOAD DUP2 PUSH4 0xFFFFFFFF AND PUSH1 0xE0 SHL DUP2 MSTORE PUSH1 0x4 ADD PUSH1 0x20 PUSH1 0x40 MLOAD DUP1 DUP4 SUB DUP2 DUP7 GAS STATICCALL ISZERO DUP1 ISZERO PUSH2 0xE88 JUMPI RETURNDATASIZE PUSH1 0x0 DUP1 RETURNDATACOPY RETURNDATASIZE PUSH1 0x0 REVERT JUMPDEST POP POP POP POP PUSH1 0x40 MLOAD RETURNDATASIZE PUSH1 0x1F NOT PUSH1 0x1F DUP3 ADD AND DUP3 ADD DUP1 PUSH1 0x40 MSTORE POP DUP2 ADD SWAP1 PUSH2 0xEAC SWAP2 SWAP1 PUSH2 0x3A56 JUMP JUMPDEST SWAP1 POP PUSH1 0x1 DUP2 ISZERO ISZERO EQ ISZERO PUSH2 0xF7D JUMPI PUSH1 0x3E SLOAD PUSH1 0x1 PUSH1 0x1 PUSH1 0xA0 SHL SUB AND PUSH1 0x1 PUSH1 0x1 PUSH1 0xA0 SHL SUB AND PUSH4 0x7AE1CFCA CALLER PUSH1 0x40 MLOAD PUSH1 0x20 ADD PUSH2 0xEE4 SWAP2 SWAP1 PUSH2 0x3A78 JUMP JUMPDEST PUSH1 0x40 MLOAD PUSH1 0x20 DUP2 DUP4 SUB SUB DUP2 MSTORE SWAP1 PUSH1 0x40 MSTORE DUP1 MLOAD SWAP1 PUSH1 0x20 ADD KECCAK256 PUSH1 0x40 MLOAD DUP3 PUSH4 0xFFFFFFFF AND PUSH1 0xE0 SHL DUP2 MSTORE PUSH1 0x4 ADD PUSH2 0xF18 SWAP2 DUP2 MSTORE PUSH1 0x20 ADD SWAP1 JUMP JUMPDEST PUSH1 0x20 PUSH1 0x40 MLOAD DUP1 DUP4 SUB DUP2 DUP7 GAS STATICCALL ISZERO DUP1 ISZERO PUSH2 0xF35 JUMPI RETURNDATASIZE PUSH1 0x0 DUP1 RETURNDATACOPY RETURNDATASIZE PUSH1 0x0 REVERT JUMPDEST POP POP POP POP PUSH1 0x40 MLOAD RETURNDATASIZE PUSH1 0x1F NOT PUSH1 0x1F DUP3 ADD AND DUP3 ADD DUP1 PUSH1 0x40 MSTORE POP DUP2 ADD SWAP1 PUSH2 0xF59 SWAP2 SWAP1 PUSH2 0x3A56 JUMP JUMPDEST PUSH2 0xF78 JUMPI PUSH1 0x40 MLOAD PUSH4 0x372463E3 PUSH1 0xE0 SHL DUP2 MSTORE CALLER PUSH1 0x4 DUP3 ADD MSTORE PUSH1 0x24 ADD PUSH2 0x5D6 JUMP JUMPDEST PUSH2 0x10C4 JUMP JUMPDEST PUSH1 0x3E SLOAD PUSH1 0x1 PUSH1 0x1 PUSH1 0xA0 SHL SUB AND PUSH1 0x1 PUSH1 0x1 PUSH1 0xA0 SHL SUB AND PUSH4 0x7AE1CFCA CALLER PUSH1 0x40 MLOAD PUSH1 0x20 ADD PUSH2 0xFA8 SWAP2 SWAP1 PUSH2 0x3A78 JUMP JUMPDEST PUSH1 0x40 MLOAD PUSH1 0x20 DUP2 DUP4 SUB SUB DUP2 MSTORE SWAP1 PUSH1 0x40 MSTORE DUP1 MLOAD SWAP1 PUSH1 0x20 ADD KECCAK256 PUSH1 0x40 MLOAD DUP3 PUSH4 0xFFFFFFFF AND PUSH1 0xE0 SHL DUP2 MSTORE PUSH1 0x4 ADD PUSH2 0xFDC SWAP2 DUP2 MSTORE PUSH1 0x20 ADD SWAP1 JUMP JUMPDEST PUSH1 0x20 PUSH1 0x40 MLOAD DUP1 DUP4 SUB DUP2 DUP7 GAS STATICCALL ISZERO DUP1 ISZERO PUSH2 0xFF9 JUMPI RETURNDATASIZE PUSH1 0x0 DUP1 RETURNDATACOPY RETURNDATASIZE PUSH1 0x0 REVERT JUMPDEST POP POP POP POP PUSH1 0x40 MLOAD RETURNDATASIZE PUSH1 0x1F NOT PUSH1 0x1F DUP3 ADD AND DUP3 ADD DUP1 PUSH1 0x40 MSTORE POP DUP2 ADD SWAP1 PUSH2 0x101D SWAP2 SWAP1 PUSH2 0x3A56 JUMP JUMPDEST DUP1 PUSH2 0x10A5 JUMPI POP PUSH1 0x3E SLOAD PUSH1 0x1 PUSH1 0x1 PUSH1 0xA0 SHL SUB AND PUSH1 0x1 PUSH1 0x1 PUSH1 0xA0 SHL SUB AND PUSH4 0xA75B87D2 PUSH1 0x40 MLOAD DUP2 PUSH4 0xFFFFFFFF AND PUSH1 0xE0 SHL DUP2 MSTORE PUSH1 0x4 ADD PUSH1 0x20 PUSH1 0x40 MLOAD DUP1 DUP4 SUB DUP2 DUP7 GAS STATICCALL ISZERO DUP1 ISZERO PUSH2 0x106C JUMPI RETURNDATASIZE PUSH1 0x0 DUP1 RETURNDATACOPY RETURNDATASIZE PUSH1 0x0 REVERT JUMPDEST POP POP POP POP PUSH1 0x40 MLOAD RETURNDATASIZE PUSH1 0x1F NOT PUSH1 0x1F DUP3 ADD AND DUP3 ADD DUP1 PUSH1 0x40 MSTORE POP DUP2 ADD SWAP1 PUSH2 0x1090 SWAP2 SWAP1 PUSH2 0x39EE JUMP JUMPDEST PUSH1 0x1 PUSH1 0x1 PUSH1 0xA0 SHL SUB AND ORIGIN PUSH1 0x1 PUSH1 0x1 PUSH1 0xA0 SHL SUB AND EQ JUMPDEST PUSH2 0x10C4 JUMPI PUSH1 0x40 MLOAD PUSH4 0x372463E3 PUSH1 0xE0 SHL DUP2 MSTORE CALLER PUSH1 0x4 DUP3 ADD MSTORE PUSH1 0x24 ADD PUSH2 0x5D6 JUMP JUMPDEST PUSH1 0x0 DUP7 PUSH1 0x1 PUSH1 0x1 PUSH1 0xA0 SHL SUB AND PUSH4 0xFC0C546A PUSH1 0x40 MLOAD DUP2 PUSH4 0xFFFFFFFF AND PUSH1 0xE0 SHL DUP2 MSTORE PUSH1 0x4 ADD PUSH1 0x20 PUSH1 0x40 MLOAD DUP1 DUP4 SUB DUP2 PUSH1 0x0 DUP8 GAS CALL ISZERO DUP1 ISZERO PUSH2 0x1106 JUMPI RETURNDATASIZE PUSH1 0x0 DUP1 RETURNDATACOPY RETURNDATASIZE PUSH1 0x0 REVERT JUMPDEST POP POP POP POP PUSH1 0x40 MLOAD RETURNDATASIZE PUSH1 0x1F NOT PUSH1 0x1F DUP3 ADD AND DUP3 ADD DUP1 PUSH1 0x40 MSTORE POP DUP2 ADD SWAP1 PUSH2 0x112A SWAP2 SWAP1 PUSH2 0x39EE JUMP JUMPDEST SWAP1 POP PUSH2 0x1139 ADDRESS DUP8 DUP10 DUP8 DUP8 PUSH2 0x2BDE JUMP JUMPDEST PUSH1 0x40 MLOAD PUSH4 0x95EA7B3 PUSH1 0xE0 SHL DUP2 MSTORE PUSH1 0x1 PUSH1 0x1 PUSH1 0xA0 SHL SUB DUP9 AND PUSH1 0x4 DUP3 ADD DUP2 SWAP1 MSTORE PUSH1 0x24 DUP3 ADD DUP9 SWAP1 MSTORE SWAP1 PUSH4 0x95EA7B3 SWAP1 PUSH1 0x44 ADD PUSH1 0x20 PUSH1 0x40 MLOAD DUP1 DUP4 SUB DUP2 PUSH1 0x0 DUP8 GAS CALL ISZERO DUP1 ISZERO PUSH2 0x1187 JUMPI RETURNDATASIZE PUSH1 0x0 DUP1 RETURNDATACOPY RETURNDATASIZE PUSH1 0x0 REVERT JUMPDEST POP POP POP POP PUSH1 0x40 MLOAD RETURNDATASIZE PUSH1 0x1F NOT PUSH1 0x1F DUP3 ADD AND DUP3 ADD DUP1 PUSH1 0x40 MSTORE POP DUP2 ADD SWAP1 PUSH2 0x11AB SWAP2 SWAP1 PUSH2 0x3A56 JUMP JUMPDEST POP PUSH1 0x40 MLOAD PUSH4 0x1CC6D2F9 PUSH1 0xE3 SHL DUP2 MSTORE PUSH1 0x4 DUP2 ADD DUP8 SWAP1 MSTORE ADDRESS PUSH1 0x24 DUP3 ADD MSTORE PUSH1 0x44 DUP2 ADD DUP7 SWAP1 MSTORE PUSH1 0x1 PUSH1 0x1 PUSH1 0xA0 SHL SUB DUP9 AND SWAP1 PUSH4 0xE63697C8 SWAP1 PUSH1 0x64 ADD PUSH1 0x0 PUSH1 0x40 MLOAD DUP1 DUP4 SUB DUP2 PUSH1 0x0 DUP8 DUP1 EXTCODESIZE ISZERO DUP1 ISZERO PUSH2 0x11FB JUMPI PUSH1 0x0 DUP1 REVERT JUMPDEST POP GAS CALL ISZERO DUP1 ISZERO PUSH2 0x120F JUMPI RETURNDATASIZE PUSH1 0x0 DUP1 RETURNDATACOPY RETURNDATASIZE PUSH1 0x0 REVERT JUMPDEST POP POP PUSH1 0x40 MLOAD PUSH4 0x70A08231 PUSH1 0xE0 SHL DUP2 MSTORE ADDRESS PUSH1 0x4 DUP3 ADD DUP2 SWAP1 MSTORE PUSH2 0x128A SWAP4 POP SWAP2 POP PUSH1 0x1 PUSH1 0x1 PUSH1 0xA0 SHL SUB DUP5 AND SWAP1 PUSH4 0x70A08231 SWAP1 PUSH1 0x24 ADD PUSH1 0x20 PUSH1 0x40 MLOAD DUP1 DUP4 SUB DUP2 DUP7 GAS STATICCALL ISZERO DUP1 ISZERO PUSH2 0x125E JUMPI RETURNDATASIZE PUSH1 0x0 DUP1 RETURNDATACOPY RETURNDATASIZE PUSH1 0x0 REVERT JUMPDEST POP POP POP POP PUSH1 0x40 MLOAD RETURNDATASIZE PUSH1 0x1F NOT PUSH1 0x1F DUP3 ADD AND DUP3 ADD DUP1 PUSH1 0x40 MSTORE POP DUP2 ADD SWAP1 PUSH2 0x1282 SWAP2 SWAP1 PUSH2 0x3A0B JUMP JUMPDEST DUP4 DUP8 DUP8 PUSH2 0x2C8E JUMP JUMPDEST POP POP POP POP POP POP POP JUMP JUMPDEST PUSH1 0x0 PUSH2 0x12A7 PUSH1 0x3E SLOAD PUSH1 0x1 PUSH1 0x1 PUSH1 0xA0 SHL SUB AND SWAP1 JUMP JUMPDEST PUSH1 0x1 PUSH1 0x1 PUSH1 0xA0 SHL SUB AND PUSH4 0x1BED5241 PUSH1 0x40 MLOAD DUP2 PUSH4 0xFFFFFFFF AND PUSH1 0xE0 SHL DUP2 MSTORE PUSH1 0x4 ADD PUSH1 0x20 PUSH1 0x40 MLOAD DUP1 DUP4 SUB DUP2 DUP7 GAS STATICCALL ISZERO DUP1 ISZERO PUSH2 0x12E4 JUMPI RETURNDATASIZE PUSH1 0x0 DUP1 RETURNDATACOPY RETURNDATASIZE PUSH1 0x0 REVERT JUMPDEST POP POP POP POP PUSH1 0x40 MLOAD RETURNDATASIZE PUSH1 0x1F NOT PUSH1 0x1F DUP3 ADD AND DUP3 ADD DUP1 PUSH1 0x40 MSTORE POP DUP2 ADD SWAP1 PUSH2 0x1308 SWAP2 SWAP1 PUSH2 0x3A56 JUMP JUMPDEST SWAP1 POP PUSH1 0x1 DUP2 ISZERO ISZERO EQ ISZERO PUSH2 0x13D9 JUMPI PUSH1 0x3E SLOAD PUSH1 0x1 PUSH1 0x1 PUSH1 0xA0 SHL SUB AND PUSH1 0x1 PUSH1 0x1 PUSH1 0xA0 SHL SUB AND PUSH4 0x7AE1CFCA CALLER PUSH1 0x40 MLOAD PUSH1 0x20 ADD PUSH2 0x1340 SWAP2 SWAP1 PUSH2 0x3A78 JUMP JUMPDEST PUSH1 0x40 MLOAD PUSH1 0x20 DUP2 DUP4 SUB SUB DUP2 MSTORE SWAP1 PUSH1 0x40 MSTORE DUP1 MLOAD SWAP1 PUSH1 0x20 ADD KECCAK256 PUSH1 0x40 MLOAD DUP3 PUSH4 0xFFFFFFFF AND PUSH1 0xE0 SHL DUP2 MSTORE PUSH1 0x4 ADD PUSH2 0x1374 SWAP2 DUP2 MSTORE PUSH1 0x20 ADD SWAP1 JUMP JUMPDEST PUSH1 0x20 PUSH1 0x40 MLOAD DUP1 DUP4 SUB DUP2 DUP7 GAS STATICCALL ISZERO DUP1 ISZERO PUSH2 0x1391 JUMPI RETURNDATASIZE PUSH1 0x0 DUP1 RETURNDATACOPY RETURNDATASIZE PUSH1 0x0 REVERT JUMPDEST POP POP POP POP PUSH1 0x40 MLOAD RETURNDATASIZE PUSH1 0x1F NOT PUSH1 0x1F DUP3 ADD AND DUP3 ADD DUP1 PUSH1 0x40 MSTORE POP DUP2 ADD SWAP1 PUSH2 0x13B5 SWAP2 SWAP1 PUSH2 0x3A56 JUMP JUMPDEST PUSH2 0x13D4 JUMPI PUSH1 0x40 MLOAD PUSH4 0x372463E3 PUSH1 0xE0 SHL DUP2 MSTORE CALLER PUSH1 0x4 DUP3 ADD MSTORE PUSH1 0x24 ADD PUSH2 0x5D6 JUMP JUMPDEST PUSH2 0x1520 JUMP JUMPDEST PUSH1 0x3E SLOAD PUSH1 0x1 PUSH1 0x1 PUSH1 0xA0 SHL SUB AND PUSH1 0x1 PUSH1 0x1 PUSH1 0xA0 SHL SUB AND PUSH4 0x7AE1CFCA CALLER PUSH1 0x40 MLOAD PUSH1 0x20 ADD PUSH2 0x1404 SWAP2 SWAP1 PUSH2 0x3A78 JUMP JUMPDEST PUSH1 0x40 MLOAD PUSH1 0x20 DUP2 DUP4 SUB SUB DUP2 MSTORE SWAP1 PUSH1 0x40 MSTORE DUP1 MLOAD SWAP1 PUSH1 0x20 ADD KECCAK256 PUSH1 0x40 MLOAD DUP3 PUSH4 0xFFFFFFFF AND PUSH1 0xE0 SHL DUP2 MSTORE PUSH1 0x4 ADD PUSH2 0x1438 SWAP2 DUP2 MSTORE PUSH1 0x20 ADD SWAP1 JUMP JUMPDEST PUSH1 0x20 PUSH1 0x40 MLOAD DUP1 DUP4 SUB DUP2 DUP7 GAS STATICCALL ISZERO DUP1 ISZERO PUSH2 0x1455 JUMPI RETURNDATASIZE PUSH1 0x0 DUP1 RETURNDATACOPY RETURNDATASIZE PUSH1 0x0 REVERT JUMPDEST POP POP POP POP PUSH1 0x40 MLOAD RETURNDATASIZE PUSH1 0x1F NOT PUSH1 0x1F DUP3 ADD AND DUP3 ADD DUP1 PUSH1 0x40 MSTORE POP DUP2 ADD SWAP1 PUSH2 0x1479 SWAP2 SWAP1 PUSH2 0x3A56 JUMP JUMPDEST DUP1 PUSH2 0x1501 JUMPI POP PUSH1 0x3E SLOAD PUSH1 0x1 PUSH1 0x1 PUSH1 0xA0 SHL SUB AND PUSH1 0x1 PUSH1 0x1 PUSH1 0xA0 SHL SUB AND PUSH4 0xA75B87D2 PUSH1 0x40 MLOAD DUP2 PUSH4 0xFFFFFFFF AND PUSH1 0xE0 SHL DUP2 MSTORE PUSH1 0x4 ADD PUSH1 0x20 PUSH1 0x40 MLOAD DUP1 DUP4 SUB DUP2 DUP7 GAS STATICCALL ISZERO DUP1 ISZERO PUSH2 0x14C8 JUMPI RETURNDATASIZE PUSH1 0x0 DUP1 RETURNDATACOPY RETURNDATASIZE PUSH1 0x0 REVERT JUMPDEST POP POP POP POP PUSH1 0x40 MLOAD RETURNDATASIZE PUSH1 0x1F NOT PUSH1 0x1F DUP3 ADD AND DUP3 ADD DUP1 PUSH1 0x40 MSTORE POP DUP2 ADD SWAP1 PUSH2 0x14EC SWAP2 SWAP1 PUSH2 0x39EE JUMP JUMPDEST PUSH1 0x1 PUSH1 0x1 PUSH1 0xA0 SHL SUB AND ORIGIN PUSH1 0x1 PUSH1 0x1 PUSH1 0xA0 SHL SUB AND EQ JUMPDEST PUSH2 0x1520 JUMPI PUSH1 0x40 MLOAD PUSH4 0x372463E3 PUSH1 0xE0 SHL DUP2 MSTORE CALLER PUSH1 0x4 DUP3 ADD MSTORE PUSH1 0x24 ADD PUSH2 0x5D6 JUMP JUMPDEST PUSH2 0x152D DUP9 DUP9 DUP9 DUP7 DUP7 PUSH2 0x2C8E JUMP JUMPDEST PUSH2 0x153A DUP9 DUP7 DUP7 DUP7 DUP7 PUSH2 0x2BDE JUMP JUMPDEST PUSH32 0x6D29754DF4DD9E7170DA58F3C4E90C771E6F29F8D2387E37131C2DD725A4073F DUP7 DUP6 DUP11 DUP11 PUSH1 0x40 MLOAD PUSH2 0x156F SWAP5 SWAP4 SWAP3 SWAP2 SWAP1 PUSH2 0x3ABB JUMP JUMPDEST PUSH1 0x40 MLOAD DUP1 SWAP2 SUB SWAP1 LOG1 POP POP POP POP POP POP POP POP JUMP JUMPDEST PUSH1 0x0 PUSH2 0x1595 PUSH1 0x3E SLOAD PUSH1 0x1 PUSH1 0x1 PUSH1 0xA0 SHL SUB AND SWAP1 JUMP JUMPDEST PUSH1 0x1 PUSH1 0x1 PUSH1 0xA0 SHL SUB AND PUSH4 0x1BED5241 PUSH1 0x40 MLOAD DUP2 PUSH4 0xFFFFFFFF AND PUSH1 0xE0 SHL DUP2 MSTORE PUSH1 0x4 ADD PUSH1 0x20 PUSH1 0x40 MLOAD DUP1 DUP4 SUB DUP2 DUP7 GAS STATICCALL ISZERO DUP1 ISZERO PUSH2 0x15D2 JUMPI RETURNDATASIZE PUSH1 0x0 DUP1 RETURNDATACOPY RETURNDATASIZE PUSH1 0x0 REVERT JUMPDEST POP POP POP POP PUSH1 0x40 MLOAD RETURNDATASIZE PUSH1 0x1F NOT PUSH1 0x1F DUP3 ADD AND DUP3 ADD DUP1 PUSH1 0x40 MSTORE POP DUP2 ADD SWAP1 PUSH2 0x15F6 SWAP2 SWAP1 PUSH2 0x3A56 JUMP JUMPDEST SWAP1 POP PUSH1 0x1 DUP2 ISZERO ISZERO EQ ISZERO PUSH2 0x16C7 JUMPI PUSH1 0x3E SLOAD PUSH1 0x1 PUSH1 0x1 PUSH1 0xA0 SHL SUB AND PUSH1 0x1 PUSH1 0x1 PUSH1 0xA0 SHL SUB AND PUSH4 0x7AE1CFCA CALLER PUSH1 0x40 MLOAD PUSH1 0x20 ADD PUSH2 0x162E SWAP2 SWAP1 PUSH2 0x3A78 JUMP JUMPDEST PUSH1 0x40 MLOAD PUSH1 0x20 DUP2 DUP4 SUB SUB DUP2 MSTORE SWAP1 PUSH1 0x40 MSTORE DUP1 MLOAD SWAP1 PUSH1 0x20 ADD KECCAK256 PUSH1 0x40 MLOAD DUP3 PUSH4 0xFFFFFFFF AND PUSH1 0xE0 SHL DUP2 MSTORE PUSH1 0x4 ADD PUSH2 0x1662 SWAP2 DUP2 MSTORE PUSH1 0x20 ADD SWAP1 JUMP JUMPDEST PUSH1 0x20 PUSH1 0x40 MLOAD DUP1 DUP4 SUB DUP2 DUP7 GAS STATICCALL ISZERO DUP1 ISZERO PUSH2 0x167F JUMPI RETURNDATASIZE PUSH1 0x0 DUP1 RETURNDATACOPY RETURNDATASIZE PUSH1 0x0 REVERT JUMPDEST POP POP POP POP PUSH1 0x40 MLOAD RETURNDATASIZE PUSH1 0x1F NOT PUSH1 0x1F DUP3 ADD AND DUP3 ADD DUP1 PUSH1 0x40 MSTORE POP DUP2 ADD SWAP1 PUSH2 0x16A3 SWAP2 SWAP1 PUSH2 0x3A56 JUMP JUMPDEST PUSH2 0x16C2 JUMPI PUSH1 0x40 MLOAD PUSH4 0x372463E3 PUSH1 0xE0 SHL DUP2 MSTORE CALLER PUSH1 0x4 DUP3 ADD MSTORE PUSH1 0x24 ADD PUSH2 0x5D6 JUMP JUMPDEST PUSH2 0x180E JUMP JUMPDEST PUSH1 0x3E SLOAD PUSH1 0x1 PUSH1 0x1 PUSH1 0xA0 SHL SUB AND PUSH1 0x1 PUSH1 0x1 PUSH1 0xA0 SHL SUB AND PUSH4 0x7AE1CFCA CALLER PUSH1 0x40 MLOAD PUSH1 0x20 ADD PUSH2 0x16F2 SWAP2 SWAP1 PUSH2 0x3A78 JUMP JUMPDEST PUSH1 0x40 MLOAD PUSH1 0x20 DUP2 DUP4 SUB SUB DUP2 MSTORE SWAP1 PUSH1 0x40 MSTORE DUP1 MLOAD SWAP1 PUSH1 0x20 ADD KECCAK256 PUSH1 0x40 MLOAD DUP3 PUSH4 0xFFFFFFFF AND PUSH1 0xE0 SHL DUP2 MSTORE PUSH1 0x4 ADD PUSH2 0x1726 SWAP2 DUP2 MSTORE PUSH1 0x20 ADD SWAP1 JUMP JUMPDEST PUSH1 0x20 PUSH1 0x40 MLOAD DUP1 DUP4 SUB DUP2 DUP7 GAS STATICCALL ISZERO DUP1 ISZERO PUSH2 0x1743 JUMPI RETURNDATASIZE PUSH1 0x0 DUP1 RETURNDATACOPY RETURNDATASIZE PUSH1 0x0 REVERT JUMPDEST POP POP POP POP PUSH1 0x40 MLOAD RETURNDATASIZE PUSH1 0x1F NOT PUSH1 0x1F DUP3 ADD AND DUP3 ADD DUP1 PUSH1 0x40 MSTORE POP DUP2 ADD SWAP1 PUSH2 0x1767 SWAP2 SWAP1 PUSH2 0x3A56 JUMP JUMPDEST DUP1 PUSH2 0x17EF JUMPI POP PUSH1 0x3E SLOAD PUSH1 0x1 PUSH1 0x1 PUSH1 0xA0 SHL SUB AND PUSH1 0x1 PUSH1 0x1 PUSH1 0xA0 SHL SUB AND PUSH4 0xA75B87D2 PUSH1 0x40 MLOAD DUP2 PUSH4 0xFFFFFFFF AND PUSH1 0xE0 SHL DUP2 MSTORE PUSH1 0x4 ADD PUSH1 0x20 PUSH1 0x40 MLOAD DUP1 DUP4 SUB DUP2 DUP7 GAS STATICCALL ISZERO DUP1 ISZERO PUSH2 0x17B6 JUMPI RETURNDATASIZE PUSH1 0x0 DUP1 RETURNDATACOPY RETURNDATASIZE PUSH1 0x0 REVERT JUMPDEST POP POP POP POP PUSH1 0x40 MLOAD RETURNDATASIZE PUSH1 0x1F NOT PUSH1 0x1F DUP3 ADD AND DUP3 ADD DUP1 PUSH1 0x40 MSTORE POP DUP2 ADD SWAP1 PUSH2 0x17DA SWAP2 SWAP1 PUSH2 0x39EE JUMP JUMPDEST PUSH1 0x1 PUSH1 0x1 PUSH1 0xA0 SHL SUB AND ORIGIN PUSH1 0x1 PUSH1 0x1 PUSH1 0xA0 SHL SUB AND EQ JUMPDEST PUSH2 0x180E JUMPI PUSH1 0x40 MLOAD PUSH4 0x372463E3 PUSH1 0xE0 SHL DUP2 MSTORE CALLER PUSH1 0x4 DUP3 ADD MSTORE PUSH1 0x24 ADD PUSH2 0x5D6 JUMP JUMPDEST DUP2 PUSH2 0x1818 DUP2 PUSH2 0x2ABD JUMP JUMPDEST PUSH2 0x1840 JUMPI PUSH1 0x40 MLOAD PUSH4 0x49E82B5F PUSH1 0xE1 SHL DUP2 MSTORE PUSH1 0x1 PUSH1 0x1 PUSH1 0xA0 SHL SUB DUP3 AND PUSH1 0x4 DUP3 ADD MSTORE PUSH1 0x24 ADD PUSH2 0x5D6 JUMP JUMPDEST PUSH2 0x185E DUP8 PUSH2 0x184C PUSH2 0x2A3C JUMP JUMPDEST PUSH1 0x1 PUSH1 0x1 PUSH1 0xA0 SHL SUB DUP9 AND SWAP2 SWAP1 DUP10 PUSH2 0x2B6D JUMP JUMPDEST PUSH2 0x1866 PUSH2 0x2A3C JUMP JUMPDEST PUSH1 0x40 MLOAD PUSH4 0x3F34D4CF PUSH1 0xE2 SHL DUP2 MSTORE PUSH1 0x4 DUP2 ADD DUP9 SWAP1 MSTORE PUSH1 0x1 PUSH1 0x1 PUSH1 0xA0 SHL SUB DUP8 DUP2 AND PUSH1 0x24 DUP4 ADD MSTORE SWAP2 SWAP1 SWAP2 AND SWAP1 PUSH4 0xFCD3533C SWAP1 PUSH1 0x44 ADD PUSH1 0x0 PUSH1 0x40 MLOAD DUP1 DUP4 SUB DUP2 PUSH1 0x0 DUP8 DUP1 EXTCODESIZE ISZERO DUP1 ISZERO PUSH2 0x18B2 JUMPI PUSH1 0x0 DUP1 REVERT JUMPDEST POP GAS CALL ISZERO DUP1 ISZERO PUSH2 0x18C6 JUMPI RETURNDATASIZE PUSH1 0x0 DUP1 RETURNDATACOPY RETURNDATASIZE PUSH1 0x0 REVERT JUMPDEST POP POP PUSH1 0x40 MLOAD PUSH4 0x40C10F19 PUSH1 0xE0 SHL DUP2 MSTORE PUSH1 0x1 PUSH1 0x1 PUSH1 0xA0 SHL SUB DUP11 DUP2 AND PUSH1 0x4 DUP4 ADD MSTORE PUSH1 0x24 DUP3 ADD DUP9 SWAP1 MSTORE DUP7 AND SWAP3 POP PUSH4 0x40C10F19 SWAP2 POP PUSH1 0x44 ADD PUSH1 0x0 PUSH1 0x40 MLOAD DUP1 DUP4 SUB DUP2 PUSH1 0x0 DUP8 DUP1 EXTCODESIZE ISZERO DUP1 ISZERO PUSH2 0x1914 JUMPI PUSH1 0x0 DUP1 REVERT JUMPDEST POP GAS CALL ISZERO DUP1 ISZERO PUSH2 0x1928 JUMPI RETURNDATASIZE PUSH1 0x0 DUP1 RETURNDATACOPY RETURNDATASIZE PUSH1 0x0 REVERT JUMPDEST POP POP PUSH1 0x40 DUP1 MLOAD PUSH1 0x1 PUSH1 0x1 PUSH1 0xA0 SHL SUB DUP10 DUP2 AND DUP3 MSTORE PUSH1 0x20 DUP3 ADD DUP12 SWAP1 MSTORE DUP12 DUP2 AND DUP3 DUP5 ADD MSTORE PUSH1 0x60 DUP3 ADD DUP10 SWAP1 MSTORE DUP8 AND PUSH1 0x80 DUP3 ADD MSTORE SWAP1 MLOAD PUSH32 0x93172819AFEBD69A5DAC534316F8E5E7181CF128ECB33B0A24A0E1D8B203B65B SWAP4 POP SWAP1 DUP2 SWAP1 SUB PUSH1 0xA0 ADD SWAP2 POP LOG1 POP POP POP POP POP POP POP JUMP JUMPDEST PUSH1 0x0 DUP1 PUSH2 0x19A4 PUSH1 0x3E SLOAD PUSH1 0x1 PUSH1 0x1 PUSH1 0xA0 SHL SUB AND SWAP1 JUMP JUMPDEST PUSH1 0x1 PUSH1 0x1 PUSH1 0xA0 SHL SUB AND PUSH4 0x1BED5241 PUSH1 0x40 MLOAD DUP2 PUSH4 0xFFFFFFFF AND PUSH1 0xE0 SHL DUP2 MSTORE PUSH1 0x4 ADD PUSH1 0x20 PUSH1 0x40 MLOAD DUP1 DUP4 SUB DUP2 DUP7 GAS STATICCALL ISZERO DUP1 ISZERO PUSH2 0x19E1 JUMPI RETURNDATASIZE PUSH1 0x0 DUP1 RETURNDATACOPY RETURNDATASIZE PUSH1 0x0 REVERT JUMPDEST POP POP POP POP PUSH1 0x40 MLOAD RETURNDATASIZE PUSH1 0x1F NOT PUSH1 0x1F DUP3 ADD AND DUP3 ADD DUP1 PUSH1 0x40 MSTORE POP DUP2 ADD SWAP1 PUSH2 0x1A05 SWAP2 SWAP1 PUSH2 0x3A56 JUMP JUMPDEST SWAP1 POP PUSH1 0x1 DUP2 ISZERO ISZERO EQ ISZERO PUSH2 0x1AD6 JUMPI PUSH1 0x3E SLOAD PUSH1 0x1 PUSH1 0x1 PUSH1 0xA0 SHL SUB AND PUSH1 0x1 PUSH1 0x1 PUSH1 0xA0 SHL SUB AND PUSH4 0x7AE1CFCA CALLER PUSH1 0x40 MLOAD PUSH1 0x20 ADD PUSH2 0x1A3D SWAP2 SWAP1 PUSH2 0x3A78 JUMP JUMPDEST PUSH1 0x40 MLOAD PUSH1 0x20 DUP2 DUP4 SUB SUB DUP2 MSTORE SWAP1 PUSH1 0x40 MSTORE DUP1 MLOAD SWAP1 PUSH1 0x20 ADD KECCAK256 PUSH1 0x40 MLOAD DUP3 PUSH4 0xFFFFFFFF AND PUSH1 0xE0 SHL DUP2 MSTORE PUSH1 0x4 ADD PUSH2 0x1A71 SWAP2 DUP2 MSTORE PUSH1 0x20 ADD SWAP1 JUMP JUMPDEST PUSH1 0x20 PUSH1 0x40 MLOAD DUP1 DUP4 SUB DUP2 DUP7 GAS STATICCALL ISZERO DUP1 ISZERO PUSH2 0x1A8E JUMPI RETURNDATASIZE PUSH1 0x0 DUP1 RETURNDATACOPY RETURNDATASIZE PUSH1 0x0 REVERT JUMPDEST POP POP POP POP PUSH1 0x40 MLOAD RETURNDATASIZE PUSH1 0x1F NOT PUSH1 0x1F DUP3 ADD AND DUP3 ADD DUP1 PUSH1 0x40 MSTORE POP DUP2 ADD SWAP1 PUSH2 0x1AB2 SWAP2 SWAP1 PUSH2 0x3A56 JUMP JUMPDEST PUSH2 0x1AD1 JUMPI PUSH1 0x40 MLOAD PUSH4 0x372463E3 PUSH1 0xE0 SHL DUP2 MSTORE CALLER PUSH1 0x4 DUP3 ADD MSTORE PUSH1 0x24 ADD PUSH2 0x5D6 JUMP JUMPDEST PUSH2 0x1C1D JUMP JUMPDEST PUSH1 0x3E SLOAD PUSH1 0x1 PUSH1 0x1 PUSH1 0xA0 SHL SUB AND PUSH1 0x1 PUSH1 0x1 PUSH1 0xA0 SHL SUB AND PUSH4 0x7AE1CFCA CALLER PUSH1 0x40 MLOAD PUSH1 0x20 ADD PUSH2 0x1B01 SWAP2 SWAP1 PUSH2 0x3A78 JUMP JUMPDEST PUSH1 0x40 MLOAD PUSH1 0x20 DUP2 DUP4 SUB SUB DUP2 MSTORE SWAP1 PUSH1 0x40 MSTORE DUP1 MLOAD SWAP1 PUSH1 0x20 ADD KECCAK256 PUSH1 0x40 MLOAD DUP3 PUSH4 0xFFFFFFFF AND PUSH1 0xE0 SHL DUP2 MSTORE PUSH1 0x4 ADD PUSH2 0x1B35 SWAP2 DUP2 MSTORE PUSH1 0x20 ADD SWAP1 JUMP JUMPDEST PUSH1 0x20 PUSH1 0x40 MLOAD DUP1 DUP4 SUB DUP2 DUP7 GAS STATICCALL ISZERO DUP1 ISZERO PUSH2 0x1B52 JUMPI RETURNDATASIZE PUSH1 0x0 DUP1 RETURNDATACOPY RETURNDATASIZE PUSH1 0x0 REVERT JUMPDEST POP POP POP POP PUSH1 0x40 MLOAD RETURNDATASIZE PUSH1 0x1F NOT PUSH1 0x1F DUP3 ADD AND DUP3 ADD DUP1 PUSH1 0x40 MSTORE POP DUP2 ADD SWAP1 PUSH2 0x1B76 SWAP2 SWAP1 PUSH2 0x3A56 JUMP JUMPDEST DUP1 PUSH2 0x1BFE JUMPI POP PUSH1 0x3E SLOAD PUSH1 0x1 PUSH1 0x1 PUSH1 0xA0 SHL SUB AND PUSH1 0x1 PUSH1 0x1 PUSH1 0xA0 SHL SUB AND PUSH4 0xA75B87D2 PUSH1 0x40 MLOAD DUP2 PUSH4 0xFFFFFFFF AND PUSH1 0xE0 SHL DUP2 MSTORE PUSH1 0x4 ADD PUSH1 0x20 PUSH1 0x40 MLOAD DUP1 DUP4 SUB DUP2 DUP7 GAS STATICCALL ISZERO DUP1 ISZERO PUSH2 0x1BC5 JUMPI RETURNDATASIZE PUSH1 0x0 DUP1 RETURNDATACOPY RETURNDATASIZE PUSH1 0x0 REVERT JUMPDEST POP POP POP POP PUSH1 0x40 MLOAD RETURNDATASIZE PUSH1 0x1F NOT PUSH1 0x1F DUP3 ADD AND DUP3 ADD DUP1 PUSH1 0x40 MSTORE POP DUP2 ADD SWAP1 PUSH2 0x1BE9 SWAP2 SWAP1 PUSH2 0x39EE JUMP JUMPDEST PUSH1 0x1 PUSH1 0x1 PUSH1 0xA0 SHL SUB AND ORIGIN PUSH1 0x1 PUSH1 0x1 PUSH1 0xA0 SHL SUB AND EQ JUMPDEST PUSH2 0x1C1D JUMPI PUSH1 0x40 MLOAD PUSH4 0x372463E3 PUSH1 0xE0 SHL DUP2 MSTORE CALLER PUSH1 0x4 DUP3 ADD MSTORE PUSH1 0x24 ADD PUSH2 0x5D6 JUMP JUMPDEST PUSH1 0x0 PUSH2 0x1C27 PUSH2 0x2924 JUMP JUMPDEST PUSH1 0x1 PUSH1 0x1 PUSH1 0xA0 SHL SUB AND PUSH4 0x2A0BBEDF PUSH2 0x1C47 PUSH1 0x3E SLOAD PUSH1 0x1 PUSH1 0x1 PUSH1 0xA0 SHL SUB AND SWAP1 JUMP JUMPDEST PUSH1 0x1 PUSH1 0x1 PUSH1 0xA0 SHL SUB AND PUSH4 0x21F8A721 PUSH1 0x3 PUSH1 0x2E ADD PUSH1 0x0 ADD PUSH1 0x40 MLOAD PUSH2 0x1C6A SWAP2 SWAP1 PUSH2 0x39E2 JUMP JUMPDEST PUSH1 0x40 MLOAD SWAP1 DUP2 SWAP1 SUB DUP2 KECCAK256 PUSH1 0xE0 DUP4 SWAP1 SHL PUSH1 0x1 PUSH1 0x1 PUSH1 0xE0 SHL SUB NOT AND DUP3 MSTORE PUSH1 0x4 DUP3 ADD MSTORE PUSH1 0x24 ADD PUSH1 0x20 PUSH1 0x40 MLOAD DUP1 DUP4 SUB DUP2 DUP7 GAS STATICCALL ISZERO DUP1 ISZERO PUSH2 0x1CA9 JUMPI RETURNDATASIZE PUSH1 0x0 DUP1 RETURNDATACOPY RETURNDATASIZE PUSH1 0x0 REVERT JUMPDEST POP POP POP POP PUSH1 0x40 MLOAD RETURNDATASIZE PUSH1 0x1F NOT PUSH1 0x1F DUP3 ADD AND DUP3 ADD DUP1 PUSH1 0x40 MSTORE POP DUP2 ADD SWAP1 PUSH2 0x1CCD SWAP2 SWAP1 PUSH2 0x39EE JUMP JUMPDEST PUSH1 0x3E SLOAD PUSH1 0x40 MLOAD PUSH1 0x1 PUSH1 0x1 PUSH1 0xA0 SHL SUB SWAP1 SWAP2 AND SWAP1 PUSH4 0x21F8A721 SWAP1 PUSH2 0x1CF1 SWAP1 PUSH1 0x32 SWAP1 PUSH2 0x39E2 JUMP JUMPDEST PUSH1 0x40 MLOAD SWAP1 DUP2 SWAP1 SUB DUP2 KECCAK256 PUSH1 0xE0 DUP4 SWAP1 SHL PUSH1 0x1 PUSH1 0x1 PUSH1 0xE0 SHL SUB NOT AND DUP3 MSTORE PUSH1 0x4 DUP3 ADD MSTORE PUSH1 0x24 ADD PUSH1 0x20 PUSH1 0x40 MLOAD DUP1 DUP4 SUB DUP2 DUP7 GAS STATICCALL ISZERO DUP1 ISZERO PUSH2 0x1D30 JUMPI RETURNDATASIZE PUSH1 0x0 DUP1 RETURNDATACOPY RETURNDATASIZE PUSH1 0x0 REVERT JUMPDEST POP POP POP POP PUSH1 0x40 MLOAD RETURNDATASIZE PUSH1 0x1F NOT PUSH1 0x1F DUP3 ADD AND DUP3 ADD DUP1 PUSH1 0x40 MSTORE POP DUP2 ADD SWAP1 PUSH2 0x1D54 SWAP2 SWAP1 PUSH2 0x39EE JUMP JUMPDEST DUP12 DUP12 PUSH2 0x1D5E PUSH2 0x2A86 JUMP JUMPDEST PUSH1 0x40 MLOAD DUP7 PUSH4 0xFFFFFFFF AND PUSH1 0xE0 SHL DUP2 MSTORE PUSH1 0x4 ADD PUSH2 0x1D7E SWAP6 SWAP5 SWAP4 SWAP3 SWAP2 SWAP1 PUSH2 0x3A24 JUMP JUMPDEST PUSH1 0x20 PUSH1 0x40 MLOAD DUP1 DUP4 SUB DUP2 DUP7 GAS STATICCALL ISZERO DUP1 ISZERO PUSH2 0x1D9B JUMPI RETURNDATASIZE PUSH1 0x0 DUP1 RETURNDATACOPY RETURNDATASIZE PUSH1 0x0 REVERT JUMPDEST POP POP POP POP PUSH1 0x40 MLOAD RETURNDATASIZE PUSH1 0x1F NOT PUSH1 0x1F DUP3 ADD AND DUP3 ADD DUP1 PUSH1 0x40 MSTORE POP DUP2 ADD SWAP1 PUSH2 0x1DBF SWAP2 SWAP1 PUSH2 0x3A0B JUMP JUMPDEST SWAP1 POP PUSH1 0x0 PUSH2 0x1DCD DUP3 DUP7 PUSH2 0x2A73 JUMP JUMPDEST SWAP1 POP PUSH2 0x1DD7 PUSH2 0x2A3C JUMP JUMPDEST PUSH1 0x1 PUSH1 0x1 PUSH1 0xA0 SHL SUB AND PUSH4 0xFCD3533C DUP3 PUSH2 0x1DEE PUSH2 0x2A86 JUMP JUMPDEST PUSH1 0x40 MLOAD PUSH1 0x1 PUSH1 0x1 PUSH1 0xE0 SHL SUB NOT PUSH1 0xE0 DUP6 SWAP1 SHL AND DUP2 MSTORE PUSH1 0x4 DUP2 ADD SWAP3 SWAP1 SWAP3 MSTORE PUSH1 0x1 PUSH1 0x1 PUSH1 0xA0 SHL SUB AND PUSH1 0x24 DUP3 ADD MSTORE PUSH1 0x44 ADD PUSH1 0x0 PUSH1 0x40 MLOAD DUP1 DUP4 SUB DUP2 PUSH1 0x0 DUP8 DUP1 EXTCODESIZE ISZERO DUP1 ISZERO PUSH2 0x1E35 JUMPI PUSH1 0x0 DUP1 REVERT JUMPDEST POP GAS CALL ISZERO DUP1 ISZERO PUSH2 0x1E49 JUMPI RETURNDATASIZE PUSH1 0x0 DUP1 RETURNDATACOPY RETURNDATASIZE PUSH1 0x0 REVERT JUMPDEST POP POP POP POP PUSH2 0x1E60 DUP2 PUSH2 0x1E59 PUSH2 0x2A86 JUMP JUMPDEST DUP10 DUP10 PUSH2 0x2D95 JUMP JUMPDEST PUSH2 0x1E6D DUP11 DUP11 DUP11 DUP11 DUP11 PUSH2 0x2BDE JUMP JUMPDEST SWAP10 SWAP9 POP POP POP POP POP POP POP POP POP JUMP JUMPDEST PUSH1 0x0 PUSH2 0x1E8E PUSH1 0x3E SLOAD PUSH1 0x1 PUSH1 0x1 PUSH1 0xA0 SHL SUB AND SWAP1 JUMP JUMPDEST PUSH1 0x1 PUSH1 0x1 PUSH1 0xA0 SHL SUB AND PUSH4 0x1BED5241 PUSH1 0x40 MLOAD DUP2 PUSH4 0xFFFFFFFF AND PUSH1 0xE0 SHL DUP2 MSTORE PUSH1 0x4 ADD PUSH1 0x20 PUSH1 0x40 MLOAD DUP1 DUP4 SUB DUP2 DUP7 GAS STATICCALL ISZERO DUP1 ISZERO PUSH2 0x1ECB JUMPI RETURNDATASIZE PUSH1 0x0 DUP1 RETURNDATACOPY RETURNDATASIZE PUSH1 0x0 REVERT JUMPDEST POP POP POP POP PUSH1 0x40 MLOAD RETURNDATASIZE PUSH1 0x1F NOT PUSH1 0x1F DUP3 ADD AND DUP3 ADD DUP1 PUSH1 0x40 MSTORE POP DUP2 ADD SWAP1 PUSH2 0x1EEF SWAP2 SWAP1 PUSH2 0x3A56 JUMP JUMPDEST SWAP1 POP PUSH1 0x1 DUP2 ISZERO ISZERO EQ ISZERO PUSH2 0x1FC0 JUMPI PUSH1 0x3E SLOAD PUSH1 0x1 PUSH1 0x1 PUSH1 0xA0 SHL SUB AND PUSH1 0x1 PUSH1 0x1 PUSH1 0xA0 SHL SUB AND PUSH4 0x7AE1CFCA CALLER PUSH1 0x40 MLOAD PUSH1 0x20 ADD PUSH2 0x1F27 SWAP2 SWAP1 PUSH2 0x3A78 JUMP JUMPDEST PUSH1 0x40 MLOAD PUSH1 0x20 DUP2 DUP4 SUB SUB DUP2 MSTORE SWAP1 PUSH1 0x40 MSTORE DUP1 MLOAD SWAP1 PUSH1 0x20 ADD KECCAK256 PUSH1 0x40 MLOAD DUP3 PUSH4 0xFFFFFFFF AND PUSH1 0xE0 SHL DUP2 MSTORE PUSH1 0x4 ADD PUSH2 0x1F5B SWAP2 DUP2 MSTORE PUSH1 0x20 ADD SWAP1 JUMP JUMPDEST PUSH1 0x20 PUSH1 0x40 MLOAD DUP1 DUP4 SUB DUP2 DUP7 GAS STATICCALL ISZERO DUP1 ISZERO PUSH2 0x1F78 JUMPI RETURNDATASIZE PUSH1 0x0 DUP1 RETURNDATACOPY RETURNDATASIZE PUSH1 0x0 REVERT JUMPDEST POP POP POP POP PUSH1 0x40 MLOAD RETURNDATASIZE PUSH1 0x1F NOT PUSH1 0x1F DUP3 ADD AND DUP3 ADD DUP1 PUSH1 0x40 MSTORE POP DUP2 ADD SWAP1 PUSH2 0x1F9C SWAP2 SWAP1 PUSH2 0x3A56 JUMP JUMPDEST PUSH2 0x1FBB JUMPI PUSH1 0x40 MLOAD PUSH4 0x372463E3 PUSH1 0xE0 SHL DUP2 MSTORE CALLER PUSH1 0x4 DUP3 ADD MSTORE PUSH1 0x24 ADD PUSH2 0x5D6 JUMP JUMPDEST PUSH2 0x2107 JUMP JUMPDEST PUSH1 0x3E SLOAD PUSH1 0x1 PUSH1 0x1 PUSH1 0xA0 SHL SUB AND PUSH1 0x1 PUSH1 0x1 PUSH1 0xA0 SHL SUB AND PUSH4 0x7AE1CFCA CALLER PUSH1 0x40 MLOAD PUSH1 0x20 ADD PUSH2 0x1FEB SWAP2 SWAP1 PUSH2 0x3A78 JUMP JUMPDEST PUSH1 0x40 MLOAD PUSH1 0x20 DUP2 DUP4 SUB SUB DUP2 MSTORE SWAP1 PUSH1 0x40 MSTORE DUP1 MLOAD SWAP1 PUSH1 0x20 ADD KECCAK256 PUSH1 0x40 MLOAD DUP3 PUSH4 0xFFFFFFFF AND PUSH1 0xE0 SHL DUP2 MSTORE PUSH1 0x4 ADD PUSH2 0x201F SWAP2 DUP2 MSTORE PUSH1 0x20 ADD SWAP1 JUMP JUMPDEST PUSH1 0x20 PUSH1 0x40 MLOAD DUP1 DUP4 SUB DUP2 DUP7 GAS STATICCALL ISZERO DUP1 ISZERO PUSH2 0x203C JUMPI RETURNDATASIZE PUSH1 0x0 DUP1 RETURNDATACOPY RETURNDATASIZE PUSH1 0x0 REVERT JUMPDEST POP POP POP POP PUSH1 0x40 MLOAD RETURNDATASIZE PUSH1 0x1F NOT PUSH1 0x1F DUP3 ADD AND DUP3 ADD DUP1 PUSH1 0x40 MSTORE POP DUP2 ADD SWAP1 PUSH2 0x2060 SWAP2 SWAP1 PUSH2 0x3A56 JUMP JUMPDEST DUP1 PUSH2 0x20E8 JUMPI POP PUSH1 0x3E SLOAD PUSH1 0x1 PUSH1 0x1 PUSH1 0xA0 SHL SUB AND PUSH1 0x1 PUSH1 0x1 PUSH1 0xA0 SHL SUB AND PUSH4 0xA75B87D2 PUSH1 0x40 MLOAD DUP2 PUSH4 0xFFFFFFFF AND PUSH1 0xE0 SHL DUP2 MSTORE PUSH1 0x4 ADD PUSH1 0x20 PUSH1 0x40 MLOAD DUP1 DUP4 SUB DUP2 DUP7 GAS STATICCALL ISZERO DUP1 ISZERO PUSH2 0x20AF JUMPI RETURNDATASIZE PUSH1 0x0 DUP1 RETURNDATACOPY RETURNDATASIZE PUSH1 0x0 REVERT JUMPDEST POP POP POP POP PUSH1 0x40 MLOAD RETURNDATASIZE PUSH1 0x1F NOT PUSH1 0x1F DUP3 ADD AND DUP3 ADD DUP1 PUSH1 0x40 MSTORE POP DUP2 ADD SWAP1 PUSH2 0x20D3 SWAP2 SWAP1 PUSH2 0x39EE JUMP JUMPDEST PUSH1 0x1 PUSH1 0x1 PUSH1 0xA0 SHL SUB AND ORIGIN PUSH1 0x1 PUSH1 0x1 PUSH1 0xA0 SHL SUB AND EQ JUMPDEST PUSH2 0x2107 JUMPI PUSH1 0x40 MLOAD PUSH4 0x372463E3 PUSH1 0xE0 SHL DUP2 MSTORE CALLER PUSH1 0x4 DUP3 ADD MSTORE PUSH1 0x24 ADD PUSH2 0x5D6 JUMP JUMPDEST PUSH1 0x0 DUP6 PUSH1 0x1 PUSH1 0x1 PUSH1 0xA0 SHL SUB AND PUSH4 0xFC0C546A PUSH1 0x40 MLOAD DUP2 PUSH4 0xFFFFFFFF AND PUSH1 0xE0 SHL DUP2 MSTORE PUSH1 0x4 ADD PUSH1 0x20 PUSH1 0x40 MLOAD DUP1 DUP4 SUB DUP2 PUSH1 0x0 DUP8 GAS CALL ISZERO DUP1 ISZERO PUSH2 0x2149 JUMPI RETURNDATASIZE PUSH1 0x0 DUP1 RETURNDATACOPY RETURNDATASIZE PUSH1 0x0 REVERT JUMPDEST POP POP POP POP PUSH1 0x40 MLOAD RETURNDATASIZE PUSH1 0x1F NOT PUSH1 0x1F DUP3 ADD AND DUP3 ADD DUP1 PUSH1 0x40 MSTORE POP DUP2 ADD SWAP1 PUSH2 0x216D SWAP2 SWAP1 PUSH2 0x39EE JUMP JUMPDEST SWAP1 POP PUSH2 0x217C ADDRESS DUP7 DUP4 DUP8 DUP8 PUSH2 0x2BDE JUMP JUMPDEST PUSH1 0x40 MLOAD PUSH4 0x95EA7B3 PUSH1 0xE0 SHL DUP2 MSTORE PUSH1 0x1 PUSH1 0x1 PUSH1 0xA0 SHL SUB DUP8 DUP2 AND PUSH1 0x4 DUP4 ADD MSTORE PUSH1 0x24 DUP3 ADD DUP8 SWAP1 MSTORE DUP3 AND SWAP1 PUSH4 0x95EA7B3 SWAP1 PUSH1 0x44 ADD PUSH1 0x20 PUSH1 0x40 MLOAD DUP1 DUP4 SUB DUP2 PUSH1 0x0 DUP8 GAS CALL ISZERO DUP1 ISZERO PUSH2 0x21CB JUMPI RETURNDATASIZE PUSH1 0x0 DUP1 RETURNDATACOPY RETURNDATASIZE PUSH1 0x0 REVERT JUMPDEST POP POP POP POP PUSH1 0x40 MLOAD RETURNDATASIZE PUSH1 0x1F NOT PUSH1 0x1F DUP3 ADD AND DUP3 ADD DUP1 PUSH1 0x40 MSTORE POP DUP2 ADD SWAP1 PUSH2 0x21EF SWAP2 SWAP1 PUSH2 0x3A56 JUMP JUMPDEST POP PUSH1 0x40 MLOAD PUSH4 0x6E553F65 PUSH1 0xE0 SHL DUP2 MSTORE PUSH1 0x4 DUP2 ADD DUP7 SWAP1 MSTORE ADDRESS PUSH1 0x24 DUP3 ADD MSTORE PUSH1 0x1 PUSH1 0x1 PUSH1 0xA0 SHL SUB DUP8 AND SWAP1 PUSH4 0x6E553F65 SWAP1 PUSH1 0x44 ADD PUSH1 0x0 PUSH1 0x40 MLOAD DUP1 DUP4 SUB DUP2 PUSH1 0x0 DUP8 DUP1 EXTCODESIZE ISZERO DUP1 ISZERO PUSH2 0x2238 JUMPI PUSH1 0x0 DUP1 REVERT JUMPDEST POP GAS CALL ISZERO DUP1 ISZERO PUSH2 0x224C JUMPI RETURNDATASIZE PUSH1 0x0 DUP1 RETURNDATACOPY RETURNDATASIZE PUSH1 0x0 REVERT JUMPDEST POP POP POP POP PUSH2 0x225D ADDRESS DUP7 DUP9 DUP8 DUP8 PUSH2 0x2C8E JUMP JUMPDEST POP POP POP POP POP POP JUMP JUMPDEST PUSH1 0x0 PUSH2 0x2279 PUSH1 0x3E SLOAD PUSH1 0x1 PUSH1 0x1 PUSH1 0xA0 SHL SUB AND SWAP1 JUMP JUMPDEST PUSH1 0x1 PUSH1 0x1 PUSH1 0xA0 SHL SUB AND PUSH4 0x1BED5241 PUSH1 0x40 MLOAD DUP2 PUSH4 0xFFFFFFFF AND PUSH1 0xE0 SHL DUP2 MSTORE PUSH1 0x4 ADD PUSH1 0x20 PUSH1 0x40 MLOAD DUP1 DUP4 SUB DUP2 DUP7 GAS STATICCALL ISZERO DUP1 ISZERO PUSH2 0x22B6 JUMPI RETURNDATASIZE PUSH1 0x0 DUP1 RETURNDATACOPY RETURNDATASIZE PUSH1 0x0 REVERT JUMPDEST POP POP POP POP PUSH1 0x40 MLOAD RETURNDATASIZE PUSH1 0x1F NOT PUSH1 0x1F DUP3 ADD AND DUP3 ADD DUP1 PUSH1 0x40 MSTORE POP DUP2 ADD SWAP1 PUSH2 0x22DA SWAP2 SWAP1 PUSH2 0x3A56 JUMP JUMPDEST SWAP1 POP PUSH1 0x1 DUP2 ISZERO ISZERO EQ ISZERO PUSH2 0x23AB JUMPI PUSH1 0x3E SLOAD PUSH1 0x1 PUSH1 0x1 PUSH1 0xA0 SHL SUB AND PUSH1 0x1 PUSH1 0x1 PUSH1 0xA0 SHL SUB AND PUSH4 0x7AE1CFCA CALLER PUSH1 0x40 MLOAD PUSH1 0x20 ADD PUSH2 0x2312 SWAP2 SWAP1 PUSH2 0x3A78 JUMP JUMPDEST PUSH1 0x40 MLOAD PUSH1 0x20 DUP2 DUP4 SUB SUB DUP2 MSTORE SWAP1 PUSH1 0x40 MSTORE DUP1 MLOAD SWAP1 PUSH1 0x20 ADD KECCAK256 PUSH1 0x40 MLOAD DUP3 PUSH4 0xFFFFFFFF AND PUSH1 0xE0 SHL DUP2 MSTORE PUSH1 0x4 ADD PUSH2 0x2346 SWAP2 DUP2 MSTORE PUSH1 0x20 ADD SWAP1 JUMP JUMPDEST PUSH1 0x20 PUSH1 0x40 MLOAD DUP1 DUP4 SUB DUP2 DUP7 GAS STATICCALL ISZERO DUP1 ISZERO PUSH2 0x2363 JUMPI RETURNDATASIZE PUSH1 0x0 DUP1 RETURNDATACOPY RETURNDATASIZE PUSH1 0x0 REVERT JUMPDEST POP POP POP POP PUSH1 0x40 MLOAD RETURNDATASIZE PUSH1 0x1F NOT PUSH1 0x1F DUP3 ADD AND DUP3 ADD DUP1 PUSH1 0x40 MSTORE POP DUP2 ADD SWAP1 PUSH2 0x2387 SWAP2 SWAP1 PUSH2 0x3A56 JUMP JUMPDEST PUSH2 0x23A6 JUMPI PUSH1 0x40 MLOAD PUSH4 0x372463E3 PUSH1 0xE0 SHL DUP2 MSTORE CALLER PUSH1 0x4 DUP3 ADD MSTORE PUSH1 0x24 ADD PUSH2 0x5D6 JUMP JUMPDEST PUSH2 0x24F2 JUMP JUMPDEST PUSH1 0x3E SLOAD PUSH1 0x1 PUSH1 0x1 PUSH1 0xA0 SHL SUB AND PUSH1 0x1 PUSH1 0x1 PUSH1 0xA0 SHL SUB AND PUSH4 0x7AE1CFCA CALLER PUSH1 0x40 MLOAD PUSH1 0x20 ADD PUSH2 0x23D6 SWAP2 SWAP1 PUSH2 0x3A78 JUMP JUMPDEST PUSH1 0x40 MLOAD PUSH1 0x20 DUP2 DUP4 SUB SUB DUP2 MSTORE SWAP1 PUSH1 0x40 MSTORE DUP1 MLOAD SWAP1 PUSH1 0x20 ADD KECCAK256 PUSH1 0x40 MLOAD DUP3 PUSH4 0xFFFFFFFF AND PUSH1 0xE0 SHL DUP2 MSTORE PUSH1 0x4 ADD PUSH2 0x240A SWAP2 DUP2 MSTORE PUSH1 0x20 ADD SWAP1 JUMP JUMPDEST PUSH1 0x20 PUSH1 0x40 MLOAD DUP1 DUP4 SUB DUP2 DUP7 GAS STATICCALL ISZERO DUP1 ISZERO PUSH2 0x2427 JUMPI RETURNDATASIZE PUSH1 0x0 DUP1 RETURNDATACOPY RETURNDATASIZE PUSH1 0x0 REVERT JUMPDEST POP POP POP POP PUSH1 0x40 MLOAD RETURNDATASIZE PUSH1 0x1F NOT PUSH1 0x1F DUP3 ADD AND DUP3 ADD DUP1 PUSH1 0x40 MSTORE POP DUP2 ADD SWAP1 PUSH2 0x244B SWAP2 SWAP1 PUSH2 0x3A56 JUMP JUMPDEST DUP1 PUSH2 0x24D3 JUMPI POP PUSH1 0x3E SLOAD PUSH1 0x1 PUSH1 0x1 PUSH1 0xA0 SHL SUB AND PUSH1 0x1 PUSH1 0x1 PUSH1 0xA0 SHL SUB AND PUSH4 0xA75B87D2 PUSH1 0x40 MLOAD DUP2 PUSH4 0xFFFFFFFF AND PUSH1 0xE0 SHL DUP2 MSTORE PUSH1 0x4 ADD PUSH1 0x20 PUSH1 0x40 MLOAD DUP1 DUP4 SUB DUP2 DUP7 GAS STATICCALL ISZERO DUP1 ISZERO PUSH2 0x249A JUMPI RETURNDATASIZE PUSH1 0x0 DUP1 RETURNDATACOPY RETURNDATASIZE PUSH1 0x0 REVERT JUMPDEST POP POP POP POP PUSH1 0x40 MLOAD RETURNDATASIZE PUSH1 0x1F NOT PUSH1 0x1F DUP3 ADD AND DUP3 ADD DUP1 PUSH1 0x40 MSTORE POP DUP2 ADD SWAP1 PUSH2 0x24BE SWAP2 SWAP1 PUSH2 0x39EE JUMP JUMPDEST PUSH1 0x1 PUSH1 0x1 PUSH1 0xA0 SHL SUB AND ORIGIN PUSH1 0x1 PUSH1 0x1 PUSH1 0xA0 SHL SUB AND EQ JUMPDEST PUSH2 0x24F2 JUMPI PUSH1 0x40 MLOAD PUSH4 0x372463E3 PUSH1 0xE0 SHL DUP2 MSTORE CALLER PUSH1 0x4 DUP3 ADD MSTORE PUSH1 0x24 ADD PUSH2 0x5D6 JUMP JUMPDEST DUP4 PUSH2 0x24FC DUP2 PUSH2 0x2ABD JUMP JUMPDEST PUSH2 0x2524 JUMPI PUSH1 0x40 MLOAD PUSH4 0x49E82B5F PUSH1 0xE1 SHL DUP2 MSTORE PUSH1 0x1 PUSH1 0x1 PUSH1 0xA0 SHL SUB DUP3 AND PUSH1 0x4 DUP3 ADD MSTORE PUSH1 0x24 ADD PUSH2 0x5D6 JUMP JUMPDEST PUSH2 0x2531 DUP10 DUP10 DUP10 DUP8 DUP8 PUSH2 0x2C8E JUMP JUMPDEST PUSH1 0x40 MLOAD PUSH4 0x40C10F19 PUSH1 0xE0 SHL DUP2 MSTORE PUSH1 0x1 PUSH1 0x1 PUSH1 0xA0 SHL SUB DUP11 DUP2 AND PUSH1 0x4 DUP4 ADD MSTORE PUSH1 0x24 DUP3 ADD DUP9 SWAP1 MSTORE DUP7 AND SWAP1 PUSH4 0x40C10F19 SWAP1 PUSH1 0x44 ADD PUSH1 0x0 PUSH1 0x40 MLOAD DUP1 DUP4 SUB DUP2 PUSH1 0x0 DUP8 DUP1 EXTCODESIZE ISZERO DUP1 ISZERO PUSH2 0x257B JUMPI PUSH1 0x0 DUP1 REVERT JUMPDEST POP GAS CALL ISZERO DUP1 ISZERO PUSH2 0x258F JUMPI RETURNDATASIZE PUSH1 0x0 DUP1 RETURNDATACOPY RETURNDATASIZE PUSH1 0x0 REVERT JUMPDEST POP POP POP POP PUSH32 0x33F7E8834ABB6DB2D9D937D5702755A17292C57CBDCE1E3CF535E256BB9A9998 DUP8 DUP7 DUP12 DUP12 PUSH1 0x40 MLOAD PUSH2 0x829 SWAP5 SWAP4 SWAP3 SWAP2 SWAP1 PUSH2 0x3ABB JUMP JUMPDEST PUSH1 0x0 PUSH2 0x25DC PUSH1 0x3E SLOAD PUSH1 0x1 PUSH1 0x1 PUSH1 0xA0 SHL SUB AND SWAP1 JUMP JUMPDEST PUSH1 0x1 PUSH1 0x1 PUSH1 0xA0 SHL SUB AND PUSH4 0x1BED5241 PUSH1 0x40 MLOAD DUP2 PUSH4 0xFFFFFFFF AND PUSH1 0xE0 SHL DUP2 MSTORE PUSH1 0x4 ADD PUSH1 0x20 PUSH1 0x40 MLOAD DUP1 DUP4 SUB DUP2 DUP7 GAS STATICCALL ISZERO DUP1 ISZERO PUSH2 0x2619 JUMPI RETURNDATASIZE PUSH1 0x0 DUP1 RETURNDATACOPY RETURNDATASIZE PUSH1 0x0 REVERT JUMPDEST POP POP POP POP PUSH1 0x40 MLOAD RETURNDATASIZE PUSH1 0x1F NOT PUSH1 0x1F DUP3 ADD AND DUP3 ADD DUP1 PUSH1 0x40 MSTORE POP DUP2 ADD SWAP1 PUSH2 0x263D SWAP2 SWAP1 PUSH2 0x3A56 JUMP JUMPDEST SWAP1 POP PUSH1 0x1 DUP2 ISZERO ISZERO EQ ISZERO PUSH2 0x270E JUMPI PUSH1 0x3E SLOAD PUSH1 0x1 PUSH1 0x1 PUSH1 0xA0 SHL SUB AND PUSH1 0x1 PUSH1 0x1 PUSH1 0xA0 SHL SUB AND PUSH4 0x7AE1CFCA CALLER PUSH1 0x40 MLOAD PUSH1 0x20 ADD PUSH2 0x2675 SWAP2 SWAP1 PUSH2 0x3A78 JUMP JUMPDEST PUSH1 0x40 MLOAD PUSH1 0x20 DUP2 DUP4 SUB SUB DUP2 MSTORE SWAP1 PUSH1 0x40 MSTORE DUP1 MLOAD SWAP1 PUSH1 0x20 ADD KECCAK256 PUSH1 0x40 MLOAD DUP3 PUSH4 0xFFFFFFFF AND PUSH1 0xE0 SHL DUP2 MSTORE PUSH1 0x4 ADD PUSH2 0x26A9 SWAP2 DUP2 MSTORE PUSH1 0x20 ADD SWAP1 JUMP JUMPDEST PUSH1 0x20 PUSH1 0x40 MLOAD DUP1 DUP4 SUB DUP2 DUP7 GAS STATICCALL ISZERO DUP1 ISZERO PUSH2 0x26C6 JUMPI RETURNDATASIZE PUSH1 0x0 DUP1 RETURNDATACOPY RETURNDATASIZE PUSH1 0x0 REVERT JUMPDEST POP POP POP POP PUSH1 0x40 MLOAD RETURNDATASIZE PUSH1 0x1F NOT PUSH1 0x1F DUP3 ADD AND DUP3 ADD DUP1 PUSH1 0x40 MSTORE POP DUP2 ADD SWAP1 PUSH2 0x26EA SWAP2 SWAP1 PUSH2 0x3A56 JUMP JUMPDEST PUSH2 0x2709 JUMPI PUSH1 0x40 MLOAD PUSH4 0x372463E3 PUSH1 0xE0 SHL DUP2 MSTORE CALLER PUSH1 0x4 DUP3 ADD MSTORE PUSH1 0x24 ADD PUSH2 0x5D6 JUMP JUMPDEST PUSH2 0x2855 JUMP JUMPDEST PUSH1 0x3E SLOAD PUSH1 0x1 PUSH1 0x1 PUSH1 0xA0 SHL SUB AND PUSH1 0x1 PUSH1 0x1 PUSH1 0xA0 SHL SUB AND PUSH4 0x7AE1CFCA CALLER PUSH1 0x40 MLOAD PUSH1 0x20 ADD PUSH2 0x2739 SWAP2 SWAP1 PUSH2 0x3A78 JUMP JUMPDEST PUSH1 0x40 MLOAD PUSH1 0x20 DUP2 DUP4 SUB SUB DUP2 MSTORE SWAP1 PUSH1 0x40 MSTORE DUP1 MLOAD SWAP1 PUSH1 0x20 ADD KECCAK256 PUSH1 0x40 MLOAD DUP3 PUSH4 0xFFFFFFFF AND PUSH1 0xE0 SHL DUP2 MSTORE PUSH1 0x4 ADD PUSH2 0x276D SWAP2 DUP2 MSTORE PUSH1 0x20 ADD SWAP1 JUMP JUMPDEST PUSH1 0x20 PUSH1 0x40 MLOAD DUP1 DUP4 SUB DUP2 DUP7 GAS STATICCALL ISZERO DUP1 ISZERO PUSH2 0x278A JUMPI RETURNDATASIZE PUSH1 0x0 DUP1 RETURNDATACOPY RETURNDATASIZE PUSH1 0x0 REVERT JUMPDEST POP POP POP POP PUSH1 0x40 MLOAD RETURNDATASIZE PUSH1 0x1F NOT PUSH1 0x1F DUP3 ADD AND DUP3 ADD DUP1 PUSH1 0x40 MSTORE POP DUP2 ADD SWAP1 PUSH2 0x27AE SWAP2 SWAP1 PUSH2 0x3A56 JUMP JUMPDEST DUP1 PUSH2 0x2836 JUMPI POP PUSH1 0x3E SLOAD PUSH1 0x1 PUSH1 0x1 PUSH1 0xA0 SHL SUB AND PUSH1 0x1 PUSH1 0x1 PUSH1 0xA0 SHL SUB AND PUSH4 0xA75B87D2 PUSH1 0x40 MLOAD DUP2 PUSH4 0xFFFFFFFF AND PUSH1 0xE0 SHL DUP2 MSTORE PUSH1 0x4 ADD PUSH1 0x20 PUSH1 0x40 MLOAD DUP1 DUP4 SUB DUP2 DUP7 GAS STATICCALL ISZERO DUP1 ISZERO PUSH2 0x27FD JUMPI RETURNDATASIZE PUSH1 0x0 DUP1 RETURNDATACOPY RETURNDATASIZE PUSH1 0x0 REVERT JUMPDEST POP POP POP POP PUSH1 0x40 MLOAD RETURNDATASIZE PUSH1 0x1F NOT PUSH1 0x1F DUP3 ADD AND DUP3 ADD DUP1 PUSH1 0x40 MSTORE POP DUP2 ADD SWAP1 PUSH2 0x2821 SWAP2 SWAP1 PUSH2 0x39EE JUMP JUMPDEST PUSH1 0x1 PUSH1 0x1 PUSH1 0xA0 SHL SUB AND ORIGIN PUSH1 0x1 PUSH1 0x1 PUSH1 0xA0 SHL SUB AND EQ JUMPDEST PUSH2 0x2855 JUMPI PUSH1 0x40 MLOAD PUSH4 0x372463E3 PUSH1 0xE0 SHL DUP2 MSTORE CALLER PUSH1 0x4 DUP3 ADD MSTORE PUSH1 0x24 ADD PUSH2 0x5D6 JUMP JUMPDEST PUSH1 0x1 PUSH1 0x1 PUSH1 0xA0 SHL SUB DUP3 AND PUSH1 0x0 SWAP1 DUP2 MSTORE PUSH1 0x41 PUSH1 0x20 MSTORE PUSH1 0x40 SWAP1 KECCAK256 SLOAD PUSH1 0xFF AND ISZERO PUSH2 0x28BE JUMPI PUSH1 0x40 MLOAD PUSH3 0x461BCD PUSH1 0xE5 SHL DUP2 MSTORE PUSH1 0x20 PUSH1 0x4 DUP3 ADD MSTORE PUSH1 0x18 PUSH1 0x24 DUP3 ADD MSTORE PUSH32 0x546F6B656E20616C726561647920726567697374657265640000000000000000 PUSH1 0x44 DUP3 ADD MSTORE PUSH1 0x64 ADD PUSH2 0x5D6 JUMP JUMPDEST POP PUSH1 0x40 DUP1 SLOAD PUSH1 0x1 DUP2 DUP2 ADD DUP4 SSTORE PUSH32 0x352FEEE0EEA125F11F791C1B77524172E9BC20F1B719B6CEF0FC24F64DB8E15E SWAP1 SWAP2 ADD DUP1 SLOAD PUSH1 0x1 PUSH1 0x1 PUSH1 0xA0 SHL SUB SWAP1 SWAP5 AND PUSH1 0x1 PUSH1 0x1 PUSH1 0xA0 SHL SUB NOT SWAP1 SWAP5 AND DUP5 OR SWAP1 SSTORE PUSH1 0x0 SWAP3 DUP4 MSTORE PUSH1 0x41 PUSH1 0x20 MSTORE SWAP2 KECCAK256 DUP1 SLOAD PUSH1 0xFF NOT AND SWAP1 SWAP2 OR SWAP1 SSTORE JUMP JUMPDEST PUSH1 0x0 PUSH2 0x2938 PUSH1 0x3E SLOAD PUSH1 0x1 PUSH1 0x1 PUSH1 0xA0 SHL SUB AND SWAP1 JUMP JUMPDEST PUSH1 0x1 PUSH1 0x1 PUSH1 0xA0 SHL SUB AND PUSH4 0x21F8A721 PUSH1 0x3 PUSH1 0x0 ADD PUSH1 0xC ADD PUSH1 0x40 MLOAD PUSH2 0x295B SWAP2 SWAP1 PUSH2 0x39E2 JUMP JUMPDEST PUSH1 0x40 MLOAD SWAP1 DUP2 SWAP1 SUB DUP2 KECCAK256 PUSH1 0xE0 DUP4 SWAP1 SHL PUSH1 0x1 PUSH1 0x1 PUSH1 0xE0 SHL SUB NOT AND DUP3 MSTORE PUSH1 0x4 DUP3 ADD MSTORE PUSH1 0x24 ADD PUSH1 0x20 PUSH1 0x40 MLOAD DUP1 DUP4 SUB DUP2 DUP7 GAS STATICCALL ISZERO DUP1 ISZERO PUSH2 0x299A JUMPI RETURNDATASIZE PUSH1 0x0 DUP1 RETURNDATACOPY RETURNDATASIZE PUSH1 0x0 REVERT JUMPDEST POP POP POP POP PUSH1 0x40 MLOAD RETURNDATASIZE PUSH1 0x1F NOT PUSH1 0x1F DUP3 ADD AND DUP3 ADD DUP1 PUSH1 0x40 MSTORE POP DUP2 ADD SWAP1 PUSH2 0x29BE SWAP2 SWAP1 PUSH2 0x39EE JUMP JUMPDEST SWAP1 POP SWAP1 JUMP JUMPDEST PUSH1 0x40 DUP1 MLOAD PUSH1 0x2 DUP1 DUP3 MSTORE PUSH1 0x60 DUP1 DUP4 ADD DUP5 MSTORE SWAP3 PUSH1 0x0 SWAP3 SWAP2 SWAP1 PUSH1 0x20 DUP4 ADD SWAP1 DUP1 CALLDATASIZE DUP4 CALLDATACOPY ADD SWAP1 POP POP SWAP1 POP PUSH8 0xC7D713B49DA0000 DUP2 PUSH1 0x0 DUP2 MLOAD DUP2 LT PUSH2 0x2A04 JUMPI PUSH2 0x2A04 PUSH2 0x38E9 JUMP JUMPDEST PUSH1 0x20 MUL PUSH1 0x20 ADD ADD DUP2 DUP2 MSTORE POP POP PUSH8 0x16345785D8A0000 DUP2 PUSH1 0x1 DUP2 MLOAD DUP2 LT PUSH2 0x2A2C JUMPI PUSH2 0x2A2C PUSH2 0x38E9 JUMP JUMPDEST PUSH1 0x20 SWAP1 DUP2 MUL SWAP2 SWAP1 SWAP2 ADD ADD MSTORE SWAP2 SWAP1 POP JUMP JUMPDEST PUSH1 0x0 PUSH2 0x2A50 PUSH1 0x3E SLOAD PUSH1 0x1 PUSH1 0x1 PUSH1 0xA0 SHL SUB AND SWAP1 JUMP JUMPDEST PUSH1 0x1 PUSH1 0x1 PUSH1 0xA0 SHL SUB AND PUSH4 0x21F8A721 PUSH1 0x3 PUSH1 0x0 ADD PUSH1 0xA ADD PUSH1 0x40 MLOAD PUSH2 0x295B SWAP2 SWAP1 PUSH2 0x39E2 JUMP JUMPDEST PUSH1 0x0 PUSH2 0x2A7F DUP4 DUP4 PUSH2 0x2E3D JUMP JUMPDEST SWAP4 SWAP3 POP POP POP JUMP JUMPDEST PUSH1 0x0 PUSH2 0x2A9A PUSH1 0x3E SLOAD PUSH1 0x1 PUSH1 0x1 PUSH1 0xA0 SHL SUB AND SWAP1 JUMP JUMPDEST PUSH1 0x1 PUSH1 0x1 PUSH1 0xA0 SHL SUB AND PUSH4 0x21F8A721 PUSH1 0x3 PUSH1 0x0 ADD PUSH1 0x5 ADD PUSH1 0x40 MLOAD PUSH2 0x295B SWAP2 SWAP1 PUSH2 0x39E2 JUMP JUMPDEST PUSH1 0x0 PUSH2 0x2AC7 PUSH2 0x2A86 JUMP JUMPDEST PUSH1 0x1 PUSH1 0x1 PUSH1 0xA0 SHL SUB AND DUP3 PUSH1 0x1 PUSH1 0x1 PUSH1 0xA0 SHL SUB AND EQ DUP1 PUSH2 0x2AFE JUMPI POP PUSH2 0x2AE9 PUSH2 0x2EFF JUMP JUMPDEST PUSH1 0x1 PUSH1 0x1 PUSH1 0xA0 SHL SUB AND DUP3 PUSH1 0x1 PUSH1 0x1 PUSH1 0xA0 SHL SUB AND EQ JUMPDEST DUP1 PUSH2 0x2B21 JUMPI POP PUSH2 0x2B0C PUSH2 0x2F36 JUMP JUMPDEST PUSH1 0x1 PUSH1 0x1 PUSH1 0xA0 SHL SUB AND DUP3 PUSH1 0x1 PUSH1 0x1 PUSH1 0xA0 SHL SUB AND EQ JUMPDEST DUP1 PUSH2 0x2B44 JUMPI POP PUSH2 0x2B2F PUSH2 0x2F6D JUMP JUMPDEST PUSH1 0x1 PUSH1 0x1 PUSH1 0xA0 SHL SUB AND DUP3 PUSH1 0x1 PUSH1 0x1 PUSH1 0xA0 SHL SUB AND EQ JUMPDEST DUP1 PUSH2 0x2B67 JUMPI POP PUSH2 0x2B52 PUSH2 0x2FA4 JUMP JUMPDEST PUSH1 0x1 PUSH1 0x1 PUSH1 0xA0 SHL SUB AND DUP3 PUSH1 0x1 PUSH1 0x1 PUSH1 0xA0 SHL SUB AND EQ JUMPDEST SWAP3 SWAP2 POP POP JUMP JUMPDEST PUSH1 0x40 MLOAD PUSH1 0x1 PUSH1 0x1 PUSH1 0xA0 SHL SUB DUP1 DUP6 AND PUSH1 0x24 DUP4 ADD MSTORE DUP4 AND PUSH1 0x44 DUP3 ADD MSTORE PUSH1 0x64 DUP2 ADD DUP3 SWAP1 MSTORE PUSH2 0x2BD8 SWAP1 DUP6 SWAP1 PUSH4 0x23B872DD PUSH1 0xE0 SHL SWAP1 PUSH1 0x84 ADD JUMPDEST PUSH1 0x40 DUP1 MLOAD PUSH1 0x1F NOT DUP2 DUP5 SUB ADD DUP2 MSTORE SWAP2 SWAP1 MSTORE PUSH1 0x20 DUP2 ADD DUP1 MLOAD PUSH1 0x1 PUSH1 0x1 PUSH1 0xE0 SHL SUB AND PUSH1 0x1 PUSH1 0x1 PUSH1 0xE0 SHL SUB NOT SWAP1 SWAP4 AND SWAP3 SWAP1 SWAP3 OR SWAP1 SWAP2 MSTORE PUSH2 0x2FDB JUMP JUMPDEST POP POP POP POP JUMP JUMPDEST DUP4 ISZERO DUP1 PUSH2 0x2BF2 JUMPI POP PUSH1 0x1 PUSH1 0x1 PUSH1 0xA0 SHL SUB DUP4 AND ISZERO JUMPDEST ISZERO PUSH2 0x2BFC JUMPI PUSH2 0x2C87 JUMP JUMPDEST PUSH2 0x2C08 DUP5 DUP5 DUP5 DUP5 PUSH2 0x2D95 JUMP JUMPDEST PUSH2 0x2C10 PUSH2 0x2A3C JUMP JUMPDEST PUSH1 0x40 MLOAD PUSH3 0x7B8A67 PUSH1 0xE1 SHL DUP2 MSTORE PUSH1 0x4 DUP2 ADD DUP7 SWAP1 MSTORE PUSH1 0x1 PUSH1 0x1 PUSH1 0xA0 SHL SUB DUP6 DUP2 AND PUSH1 0x24 DUP4 ADD MSTORE SWAP2 SWAP1 SWAP2 AND SWAP1 PUSH3 0xF714CE SWAP1 PUSH1 0x44 ADD PUSH1 0x0 PUSH1 0x40 MLOAD DUP1 DUP4 SUB DUP2 PUSH1 0x0 DUP8 DUP1 EXTCODESIZE ISZERO DUP1 ISZERO PUSH2 0x2C5A JUMPI PUSH1 0x0 DUP1 REVERT JUMPDEST POP GAS CALL ISZERO DUP1 ISZERO PUSH2 0x2C6E JUMPI RETURNDATASIZE PUSH1 0x0 DUP1 RETURNDATACOPY RETURNDATASIZE PUSH1 0x0 REVERT JUMPDEST POP PUSH2 0x2C87 SWAP3 POP POP POP PUSH1 0x1 PUSH1 0x1 PUSH1 0xA0 SHL SUB DUP5 AND DUP7 DUP7 PUSH2 0x30B2 JUMP JUMPDEST POP POP POP POP POP JUMP JUMPDEST DUP4 ISZERO DUP1 PUSH2 0x2CA2 JUMPI POP PUSH1 0x1 PUSH1 0x1 PUSH1 0xA0 SHL SUB DUP4 AND ISZERO JUMPDEST ISZERO PUSH2 0x2CAC JUMPI PUSH2 0x2C87 JUMP JUMPDEST PUSH2 0x2CB8 DUP5 DUP5 DUP5 DUP5 PUSH2 0x2CD6 JUMP JUMPDEST PUSH2 0x2C87 DUP6 PUSH2 0x2CC4 PUSH2 0x2A3C JUMP JUMPDEST PUSH1 0x1 PUSH1 0x1 PUSH1 0xA0 SHL SUB DUP7 AND SWAP2 SWAP1 DUP8 PUSH2 0x2B6D JUMP JUMPDEST PUSH2 0x2CDF DUP2 PUSH2 0x188 JUMP JUMPDEST PUSH8 0xDE0B6B3A7640000 EQ PUSH2 0x2D06 JUMPI PUSH1 0x40 MLOAD PUSH4 0x4A6603C9 PUSH1 0xE1 SHL DUP2 MSTORE PUSH1 0x4 ADD PUSH1 0x40 MLOAD DUP1 SWAP2 SUB SWAP1 REVERT JUMPDEST DUP1 MLOAD DUP3 MLOAD EQ PUSH2 0x2D28 JUMPI PUSH1 0x40 MLOAD PUSH4 0x2F6B708F PUSH1 0xE2 SHL DUP2 MSTORE PUSH1 0x4 ADD PUSH1 0x40 MLOAD DUP1 SWAP2 SUB SWAP1 REVERT JUMPDEST PUSH1 0x0 JUMPDEST DUP3 MLOAD DUP2 LT ISZERO PUSH2 0x2C87 JUMPI PUSH2 0x2D83 DUP4 DUP3 DUP2 MLOAD DUP2 LT PUSH2 0x2D49 JUMPI PUSH2 0x2D49 PUSH2 0x38E9 JUMP JUMPDEST PUSH1 0x20 MUL PUSH1 0x20 ADD ADD MLOAD DUP6 PUSH2 0x2D7E DUP6 DUP6 DUP2 MLOAD DUP2 LT PUSH2 0x2D67 JUMPI PUSH2 0x2D67 PUSH2 0x38E9 JUMP JUMPDEST PUSH1 0x20 MUL PUSH1 0x20 ADD ADD MLOAD DUP10 PUSH2 0x2A73 SWAP1 SWAP2 SWAP1 PUSH4 0xFFFFFFFF AND JUMP JUMPDEST PUSH2 0x30E2 JUMP JUMPDEST PUSH2 0x2D8E PUSH1 0x1 DUP3 PUSH2 0x3915 JUMP JUMPDEST SWAP1 POP PUSH2 0x2D2B JUMP JUMPDEST PUSH2 0x2D9E DUP2 PUSH2 0x188 JUMP JUMPDEST PUSH8 0xDE0B6B3A7640000 EQ PUSH2 0x2DC5 JUMPI PUSH1 0x40 MLOAD PUSH4 0x4A6603C9 PUSH1 0xE1 SHL DUP2 MSTORE PUSH1 0x4 ADD PUSH1 0x40 MLOAD DUP1 SWAP2 SUB SWAP1 REVERT JUMPDEST DUP1 MLOAD DUP3 MLOAD EQ PUSH2 0x2DE7 JUMPI PUSH1 0x40 MLOAD PUSH4 0x2F6B708F PUSH1 0xE2 SHL DUP2 MSTORE PUSH1 0x4 ADD PUSH1 0x40 MLOAD DUP1 SWAP2 SUB SWAP1 REVERT JUMPDEST PUSH1 0x0 JUMPDEST DUP3 MLOAD DUP2 LT ISZERO PUSH2 0x2C87 JUMPI PUSH2 0x2E2B DUP4 DUP3 DUP2 MLOAD DUP2 LT PUSH2 0x2E08 JUMPI PUSH2 0x2E08 PUSH2 0x38E9 JUMP JUMPDEST PUSH1 0x20 MUL PUSH1 0x20 ADD ADD MLOAD DUP6 PUSH2 0x2E26 DUP6 DUP6 DUP2 MLOAD DUP2 LT PUSH2 0x2D67 JUMPI PUSH2 0x2D67 PUSH2 0x38E9 JUMP JUMPDEST PUSH2 0x3174 JUMP JUMPDEST PUSH2 0x2E36 PUSH1 0x1 DUP3 PUSH2 0x3915 JUMP JUMPDEST SWAP1 POP PUSH2 0x2DEA JUMP JUMPDEST PUSH1 0x0 DUP1 DUP1 PUSH1 0x0 NOT DUP5 DUP7 MULMOD DUP5 DUP7 MUL SWAP3 POP DUP3 DUP2 LT DUP4 DUP3 SUB SUB SWAP2 POP POP PUSH8 0xDE0B6B3A7640000 DUP2 LT PUSH2 0x2E81 JUMPI PUSH1 0x40 MLOAD PUSH4 0x698D9A01 PUSH1 0xE1 SHL DUP2 MSTORE PUSH1 0x4 DUP2 ADD DUP3 SWAP1 MSTORE PUSH1 0x24 ADD PUSH2 0x5D6 JUMP JUMPDEST PUSH1 0x0 DUP1 PUSH8 0xDE0B6B3A7640000 DUP7 DUP9 MULMOD SWAP2 POP POP PUSH8 0x6F05B59D3B1FFFF DUP2 GT DUP3 PUSH2 0x2EBB JUMPI DUP1 PUSH8 0xDE0B6B3A7640000 DUP6 DIV ADD SWAP5 POP POP POP POP POP PUSH2 0x2B67 JUMP JUMPDEST PUSH3 0x40000 DUP3 DUP6 SUB DIV SWAP4 SWAP1 SWAP2 GT SWAP1 SWAP2 SUB PUSH1 0x1 PUSH1 0xEE SHL MUL SWAP2 SWAP1 SWAP2 OR PUSH32 0xACCB18165BD6FE31AE1CF318DC5B51EEE0E1BA569B88CD74C1773B91FAC10669 MUL ADD SWAP1 POP SWAP3 SWAP2 POP POP JUMP JUMPDEST PUSH1 0x0 PUSH2 0x2F13 PUSH1 0x3E SLOAD PUSH1 0x1 PUSH1 0x1 PUSH1 0xA0 SHL SUB AND SWAP1 JUMP JUMPDEST PUSH1 0x1 PUSH1 0x1 PUSH1 0xA0 SHL SUB AND PUSH4 0x21F8A721 PUSH1 0x3 PUSH1 0x0 ADD PUSH1 0x6 ADD PUSH1 0x40 MLOAD PUSH2 0x295B SWAP2 SWAP1 PUSH2 0x39E2 JUMP JUMPDEST PUSH1 0x0 PUSH2 0x2F4A PUSH1 0x3E SLOAD PUSH1 0x1 PUSH1 0x1 PUSH1 0xA0 SHL SUB AND SWAP1 JUMP JUMPDEST PUSH1 0x1 PUSH1 0x1 PUSH1 0xA0 SHL SUB AND PUSH4 0x21F8A721 PUSH1 0x3 PUSH1 0x0 ADD PUSH1 0x9 ADD PUSH1 0x40 MLOAD PUSH2 0x295B SWAP2 SWAP1 PUSH2 0x39E2 JUMP JUMPDEST PUSH1 0x0 PUSH2 0x2F81 PUSH1 0x3E SLOAD PUSH1 0x1 PUSH1 0x1 PUSH1 0xA0 SHL SUB AND SWAP1 JUMP JUMPDEST PUSH1 0x1 PUSH1 0x1 PUSH1 0xA0 SHL SUB AND PUSH4 0x21F8A721 PUSH1 0x3 PUSH1 0x0 ADD PUSH1 0x8 ADD PUSH1 0x40 MLOAD PUSH2 0x295B SWAP2 SWAP1 PUSH2 0x39E2 JUMP JUMPDEST PUSH1 0x0 PUSH2 0x2FB8 PUSH1 0x3E SLOAD PUSH1 0x1 PUSH1 0x1 PUSH1 0xA0 SHL SUB AND SWAP1 JUMP JUMPDEST PUSH1 0x1 PUSH1 0x1 PUSH1 0xA0 SHL SUB AND PUSH4 0x21F8A721 PUSH1 0x3 PUSH1 0x0 ADD PUSH1 0x7 ADD PUSH1 0x40 MLOAD PUSH2 0x295B SWAP2 SWAP1 PUSH2 0x39E2 JUMP JUMPDEST PUSH1 0x0 PUSH2 0x3030 DUP3 PUSH1 0x40 MLOAD DUP1 PUSH1 0x40 ADD PUSH1 0x40 MSTORE DUP1 PUSH1 0x20 DUP2 MSTORE PUSH1 0x20 ADD PUSH32 0x5361666545524332303A206C6F772D6C6576656C2063616C6C206661696C6564 DUP2 MSTORE POP DUP6 PUSH1 0x1 PUSH1 0x1 PUSH1 0xA0 SHL SUB AND PUSH2 0x3282 SWAP1 SWAP3 SWAP2 SWAP1 PUSH4 0xFFFFFFFF AND JUMP JUMPDEST DUP1 MLOAD SWAP1 SWAP2 POP ISZERO PUSH2 0x30AD JUMPI DUP1 DUP1 PUSH1 0x20 ADD SWAP1 MLOAD DUP2 ADD SWAP1 PUSH2 0x304E SWAP2 SWAP1 PUSH2 0x3A56 JUMP JUMPDEST PUSH2 0x30AD JUMPI PUSH1 0x40 MLOAD PUSH3 0x461BCD PUSH1 0xE5 SHL DUP2 MSTORE PUSH1 0x20 PUSH1 0x4 DUP3 ADD MSTORE PUSH1 0x2A PUSH1 0x24 DUP3 ADD MSTORE PUSH32 0x5361666545524332303A204552433230206F7065726174696F6E20646964206E PUSH1 0x44 DUP3 ADD MSTORE PUSH10 0x1BDD081CDD58D8D95959 PUSH1 0xB2 SHL PUSH1 0x64 DUP3 ADD MSTORE PUSH1 0x84 ADD PUSH2 0x5D6 JUMP JUMPDEST POP POP POP JUMP JUMPDEST PUSH1 0x40 MLOAD PUSH1 0x1 PUSH1 0x1 PUSH1 0xA0 SHL SUB DUP4 AND PUSH1 0x24 DUP3 ADD MSTORE PUSH1 0x44 DUP2 ADD DUP3 SWAP1 MSTORE PUSH2 0x30AD SWAP1 DUP5 SWAP1 PUSH4 0xA9059CBB PUSH1 0xE0 SHL SWAP1 PUSH1 0x64 ADD PUSH2 0x2BA1 JUMP JUMPDEST PUSH1 0x3E SLOAD PUSH1 0x40 MLOAD PUSH1 0x1 PUSH1 0x1 PUSH1 0xA0 SHL SUB SWAP1 SWAP2 AND SWAP1 PUSH4 0xADB353DC SWAP1 PUSH2 0x310D SWAP1 PUSH1 0x16 SWAP1 DUP7 SWAP1 DUP9 SWAP1 PUSH1 0x20 ADD PUSH2 0x3AE5 JUMP JUMPDEST PUSH1 0x40 DUP1 MLOAD PUSH1 0x1F NOT DUP2 DUP5 SUB ADD DUP2 MSTORE SWAP1 DUP3 SWAP1 MSTORE DUP1 MLOAD PUSH1 0x20 SWAP1 SWAP2 ADD KECCAK256 PUSH1 0x1 PUSH1 0x1 PUSH1 0xE0 SHL SUB NOT PUSH1 0xE0 DUP5 SWAP1 SHL AND DUP3 MSTORE PUSH1 0x4 DUP3 ADD MSTORE PUSH1 0x24 DUP2 ADD DUP5 SWAP1 MSTORE PUSH1 0x44 ADD PUSH1 0x0 PUSH1 0x40 MLOAD DUP1 DUP4 SUB DUP2 PUSH1 0x0 DUP8 DUP1 EXTCODESIZE ISZERO DUP1 ISZERO PUSH2 0x3160 JUMPI PUSH1 0x0 DUP1 REVERT JUMPDEST POP GAS CALL ISZERO DUP1 ISZERO PUSH2 0x128A JUMPI RETURNDATASIZE PUSH1 0x0 DUP1 RETURNDATACOPY RETURNDATASIZE PUSH1 0x0 REVERT JUMPDEST DUP1 PUSH2 0x3187 PUSH1 0x3E SLOAD PUSH1 0x1 PUSH1 0x1 PUSH1 0xA0 SHL SUB AND SWAP1 JUMP JUMPDEST PUSH1 0x1 PUSH1 0x1 PUSH1 0xA0 SHL SUB AND PUSH4 0xBD02D0F5 PUSH1 0x3 PUSH1 0xF ADD PUSH1 0x4 ADD DUP6 DUP8 PUSH1 0x40 MLOAD PUSH1 0x20 ADD PUSH2 0x31B1 SWAP4 SWAP3 SWAP2 SWAP1 PUSH2 0x3AE5 JUMP JUMPDEST PUSH1 0x40 MLOAD PUSH1 0x20 DUP2 DUP4 SUB SUB DUP2 MSTORE SWAP1 PUSH1 0x40 MSTORE DUP1 MLOAD SWAP1 PUSH1 0x20 ADD KECCAK256 PUSH1 0x40 MLOAD DUP3 PUSH4 0xFFFFFFFF AND PUSH1 0xE0 SHL DUP2 MSTORE PUSH1 0x4 ADD PUSH2 0x31E5 SWAP2 DUP2 MSTORE PUSH1 0x20 ADD SWAP1 JUMP JUMPDEST PUSH1 0x20 PUSH1 0x40 MLOAD DUP1 DUP4 SUB DUP2 DUP7 GAS STATICCALL ISZERO DUP1 ISZERO PUSH2 0x3202 JUMPI RETURNDATASIZE PUSH1 0x0 DUP1 RETURNDATACOPY RETURNDATASIZE PUSH1 0x0 REVERT JUMPDEST POP POP POP POP PUSH1 0x40 MLOAD RETURNDATASIZE PUSH1 0x1F NOT PUSH1 0x1F DUP3 ADD AND DUP3 ADD DUP1 PUSH1 0x40 MSTORE POP DUP2 ADD SWAP1 PUSH2 0x3226 SWAP2 SWAP1 PUSH2 0x3A0B JUMP JUMPDEST LT ISZERO PUSH2 0x3257 JUMPI PUSH1 0x40 MLOAD PUSH4 0x229585E7 PUSH1 0xE1 SHL DUP2 MSTORE PUSH1 0x4 DUP2 ADD DUP3 SWAP1 MSTORE PUSH1 0x1 PUSH1 0x1 PUSH1 0xA0 SHL SUB DUP4 AND PUSH1 0x24 DUP3 ADD MSTORE PUSH1 0x44 ADD PUSH2 0x5D6 JUMP JUMPDEST PUSH1 0x3E SLOAD PUSH1 0x40 MLOAD PUSH1 0x1 PUSH1 0x1 PUSH1 0xA0 SHL SUB SWAP1 SWAP2 AND SWAP1 PUSH4 0xEBB9D8C9 SWAP1 PUSH2 0x310D SWAP1 PUSH1 0x16 SWAP1 DUP7 SWAP1 DUP9 SWAP1 PUSH1 0x20 ADD PUSH2 0x3AE5 JUMP JUMPDEST PUSH1 0x60 PUSH2 0x3291 DUP5 DUP5 PUSH1 0x0 DUP6 PUSH2 0x3299 JUMP JUMPDEST SWAP5 SWAP4 POP POP POP POP JUMP JUMPDEST PUSH1 0x60 DUP3 SELFBALANCE LT ISZERO PUSH2 0x32FA JUMPI PUSH1 0x40 MLOAD PUSH3 0x461BCD PUSH1 0xE5 SHL DUP2 MSTORE PUSH1 0x20 PUSH1 0x4 DUP3 ADD MSTORE PUSH1 0x26 PUSH1 0x24 DUP3 ADD MSTORE PUSH32 0x416464726573733A20696E73756666696369656E742062616C616E636520666F PUSH1 0x44 DUP3 ADD MSTORE PUSH6 0x1C8818D85B1B PUSH1 0xD2 SHL PUSH1 0x64 DUP3 ADD MSTORE PUSH1 0x84 ADD PUSH2 0x5D6 JUMP JUMPDEST DUP5 EXTCODESIZE PUSH2 0x3348 JUMPI PUSH1 0x40 MLOAD PUSH3 0x461BCD PUSH1 0xE5 SHL DUP2 MSTORE PUSH1 0x20 PUSH1 0x4 DUP3 ADD MSTORE PUSH1 0x1D PUSH1 0x24 DUP3 ADD MSTORE PUSH32 0x416464726573733A2063616C6C20746F206E6F6E2D636F6E7472616374000000 PUSH1 0x44 DUP3 ADD MSTORE PUSH1 0x64 ADD PUSH2 0x5D6 JUMP JUMPDEST PUSH1 0x0 DUP1 DUP7 PUSH1 0x1 PUSH1 0x1 PUSH1 0xA0 SHL SUB AND DUP6 DUP8 PUSH1 0x40 MLOAD PUSH2 0x3364 SWAP2 SWAP1 PUSH2 0x3B43 JUMP JUMPDEST PUSH1 0x0 PUSH1 0x40 MLOAD DUP1 DUP4 SUB DUP2 DUP6 DUP8 GAS CALL SWAP3 POP POP POP RETURNDATASIZE DUP1 PUSH1 0x0 DUP2 EQ PUSH2 0x33A1 JUMPI PUSH1 0x40 MLOAD SWAP2 POP PUSH1 0x1F NOT PUSH1 0x3F RETURNDATASIZE ADD AND DUP3 ADD PUSH1 0x40 MSTORE RETURNDATASIZE DUP3 MSTORE RETURNDATASIZE PUSH1 0x0 PUSH1 0x20 DUP5 ADD RETURNDATACOPY PUSH2 0x33A6 JUMP JUMPDEST PUSH1 0x60 SWAP2 POP JUMPDEST POP SWAP2 POP SWAP2 POP PUSH2 0x33B6 DUP3 DUP3 DUP7 PUSH2 0x33C1 JUMP JUMPDEST SWAP8 SWAP7 POP POP POP POP POP POP POP JUMP JUMPDEST PUSH1 0x60 DUP4 ISZERO PUSH2 0x33D0 JUMPI POP DUP2 PUSH2 0x2A7F JUMP JUMPDEST DUP3 MLOAD ISZERO PUSH2 0x33E0 JUMPI DUP3 MLOAD DUP1 DUP5 PUSH1 0x20 ADD REVERT JUMPDEST DUP2 PUSH1 0x40 MLOAD PUSH3 0x461BCD PUSH1 0xE5 SHL DUP2 MSTORE PUSH1 0x4 ADD PUSH2 0x5D6 SWAP2 SWAP1 PUSH2 0x3B5F JUMP JUMPDEST PUSH4 0x4E487B71 PUSH1 0xE0 SHL PUSH1 0x0 MSTORE PUSH1 0x41 PUSH1 0x4 MSTORE PUSH1 0x24 PUSH1 0x0 REVERT JUMPDEST PUSH1 0x40 MLOAD PUSH1 0x1F DUP3 ADD PUSH1 0x1F NOT AND DUP2 ADD PUSH8 0xFFFFFFFFFFFFFFFF DUP2 GT DUP3 DUP3 LT OR ISZERO PUSH2 0x3439 JUMPI PUSH2 0x3439 PUSH2 0x33FA JUMP JUMPDEST PUSH1 0x40 MSTORE SWAP2 SWAP1 POP JUMP JUMPDEST PUSH1 0x0 PUSH8 0xFFFFFFFFFFFFFFFF DUP3 GT ISZERO PUSH2 0x345B JUMPI PUSH2 0x345B PUSH2 0x33FA JUMP JUMPDEST POP PUSH1 0x5 SHL PUSH1 0x20 ADD SWAP1 JUMP JUMPDEST PUSH1 0x0 DUP3 PUSH1 0x1F DUP4 ADD SLT PUSH2 0x3476 JUMPI PUSH1 0x0 DUP1 REVERT JUMPDEST DUP2 CALLDATALOAD PUSH1 0x20 PUSH2 0x348B PUSH2 0x3486 DUP4 PUSH2 0x3441 JUMP JUMPDEST PUSH2 0x3410 JUMP JUMPDEST DUP3 DUP2 MSTORE PUSH1 0x5 SWAP3 SWAP1 SWAP3 SHL DUP5 ADD DUP2 ADD SWAP2 DUP2 DUP2 ADD SWAP1 DUP7 DUP5 GT ISZERO PUSH2 0x34AA JUMPI PUSH1 0x0 DUP1 REVERT JUMPDEST DUP3 DUP7 ADD JUMPDEST DUP5 DUP2 LT ISZERO PUSH2 0x34C5 JUMPI DUP1 CALLDATALOAD DUP4 MSTORE SWAP2 DUP4 ADD SWAP2 DUP4 ADD PUSH2 0x34AE JUMP JUMPDEST POP SWAP7 SWAP6 POP POP POP POP POP POP JUMP JUMPDEST PUSH1 0x0 PUSH1 0x20 DUP3 DUP5 SUB SLT ISZERO PUSH2 0x34E2 JUMPI PUSH1 0x0 DUP1 REVERT JUMPDEST DUP2 CALLDATALOAD PUSH8 0xFFFFFFFFFFFFFFFF DUP2 GT ISZERO PUSH2 0x34F9 JUMPI PUSH1 0x0 DUP1 REVERT JUMPDEST PUSH2 0x3291 DUP5 DUP3 DUP6 ADD PUSH2 0x3465 JUMP JUMPDEST PUSH1 0x1 PUSH1 0x1 PUSH1 0xA0 SHL SUB DUP2 AND DUP2 EQ PUSH2 0x351A JUMPI PUSH1 0x0 DUP1 REVERT JUMPDEST POP JUMP JUMPDEST DUP1 CALLDATALOAD PUSH2 0x3528 DUP2 PUSH2 0x3505 JUMP JUMPDEST SWAP2 SWAP1 POP JUMP JUMPDEST PUSH1 0x0 DUP1 PUSH1 0x0 DUP1 PUSH1 0x0 DUP1 PUSH1 0x0 PUSH1 0xE0 DUP9 DUP11 SUB SLT ISZERO PUSH2 0x3548 JUMPI PUSH1 0x0 DUP1 REVERT JUMPDEST DUP8 CALLDATALOAD PUSH2 0x3553 DUP2 PUSH2 0x3505 JUMP JUMPDEST SWAP7 POP PUSH1 0x20 DUP9 ADD CALLDATALOAD SWAP6 POP PUSH1 0x40 DUP9 ADD CALLDATALOAD PUSH2 0x356A DUP2 PUSH2 0x3505 JUMP JUMPDEST SWAP5 POP PUSH1 0x60 DUP9 ADD CALLDATALOAD SWAP4 POP PUSH1 0x80 DUP9 ADD CALLDATALOAD PUSH2 0x3581 DUP2 PUSH2 0x3505 JUMP JUMPDEST SWAP3 POP PUSH1 0xA0 DUP9 ADD CALLDATALOAD PUSH8 0xFFFFFFFFFFFFFFFF DUP1 DUP3 GT ISZERO PUSH2 0x359E JUMPI PUSH1 0x0 DUP1 REVERT JUMPDEST PUSH2 0x35AA DUP12 DUP4 DUP13 ADD PUSH2 0x3465 JUMP JUMPDEST SWAP4 POP PUSH1 0xC0 DUP11 ADD CALLDATALOAD SWAP2 POP DUP1 DUP3 GT ISZERO PUSH2 0x35C0 JUMPI PUSH1 0x0 DUP1 REVERT JUMPDEST POP PUSH2 0x35CD DUP11 DUP3 DUP12 ADD PUSH2 0x3465 JUMP JUMPDEST SWAP2 POP POP SWAP3 SWAP6 SWAP9 SWAP2 SWAP5 SWAP8 POP SWAP3 SWAP6 POP JUMP JUMPDEST PUSH1 0x0 DUP1 PUSH1 0x0 DUP1 PUSH1 0x0 DUP1 PUSH1 0x0 DUP1 PUSH1 0x0 PUSH2 0x120 DUP11 DUP13 SUB SLT ISZERO PUSH2 0x35FB JUMPI PUSH1 0x0 DUP1 REVERT JUMPDEST PUSH2 0x3604 DUP11 PUSH2 0x351D JUMP JUMPDEST SWAP9 POP PUSH1 0x20 DUP11 ADD CALLDATALOAD SWAP8 POP PUSH2 0x3619 PUSH1 0x40 DUP12 ADD PUSH2 0x351D JUMP JUMPDEST SWAP7 POP PUSH1 0x60 DUP11 ADD CALLDATALOAD PUSH8 0xFFFFFFFFFFFFFFFF DUP1 DUP3 GT ISZERO PUSH2 0x3636 JUMPI PUSH1 0x0 DUP1 REVERT JUMPDEST PUSH2 0x3642 DUP14 DUP4 DUP15 ADD PUSH2 0x3465 JUMP JUMPDEST SWAP8 POP PUSH1 0x80 DUP13 ADD CALLDATALOAD SWAP2 POP DUP1 DUP3 GT ISZERO PUSH2 0x3658 JUMPI PUSH1 0x0 DUP1 REVERT JUMPDEST PUSH2 0x3664 DUP14 DUP4 DUP15 ADD PUSH2 0x3465 JUMP JUMPDEST SWAP7 POP PUSH1 0xA0 DUP13 ADD CALLDATALOAD SWAP6 POP PUSH1 0xC0 DUP13 ADD CALLDATALOAD SWAP5 POP PUSH1 0xE0 DUP13 ADD CALLDATALOAD SWAP2 POP DUP1 DUP3 GT ISZERO PUSH2 0x3688 JUMPI PUSH1 0x0 DUP1 REVERT JUMPDEST PUSH2 0x3694 DUP14 DUP4 DUP15 ADD PUSH2 0x3465 JUMP JUMPDEST SWAP4 POP PUSH2 0x100 DUP13 ADD CALLDATALOAD SWAP2 POP DUP1 DUP3 GT ISZERO PUSH2 0x36AB JUMPI PUSH1 0x0 DUP1 REVERT JUMPDEST POP PUSH2 0x36B8 DUP13 DUP3 DUP14 ADD PUSH2 0x3465 JUMP JUMPDEST SWAP2 POP POP SWAP3 SWAP6 SWAP9 POP SWAP3 SWAP6 SWAP9 POP SWAP3 SWAP6 SWAP9 JUMP JUMPDEST PUSH1 0x0 DUP1 PUSH1 0x0 DUP1 PUSH1 0x0 PUSH1 0xA0 DUP7 DUP9 SUB SLT ISZERO PUSH2 0x36E0 JUMPI PUSH1 0x0 DUP1 REVERT JUMPDEST DUP6 CALLDATALOAD PUSH2 0x36EB DUP2 PUSH2 0x3505 JUMP JUMPDEST SWAP5 POP PUSH1 0x20 DUP7 ADD CALLDATALOAD SWAP4 POP PUSH1 0x40 DUP7 ADD CALLDATALOAD SWAP3 POP PUSH1 0x60 DUP7 ADD CALLDATALOAD PUSH8 0xFFFFFFFFFFFFFFFF DUP1 DUP3 GT ISZERO PUSH2 0x3716 JUMPI PUSH1 0x0 DUP1 REVERT JUMPDEST PUSH2 0x3722 DUP10 DUP4 DUP11 ADD PUSH2 0x3465 JUMP JUMPDEST SWAP4 POP PUSH1 0x80 DUP9 ADD CALLDATALOAD SWAP2 POP DUP1 DUP3 GT ISZERO PUSH2 0x3738 JUMPI PUSH1 0x0 DUP1 REVERT JUMPDEST POP PUSH2 0x3745 DUP9 DUP3 DUP10 ADD PUSH2 0x3465 JUMP JUMPDEST SWAP2 POP POP SWAP3 SWAP6 POP SWAP3 SWAP6 SWAP1 SWAP4 POP JUMP JUMPDEST PUSH1 0x0 DUP1 PUSH1 0x0 DUP1 PUSH1 0x0 PUSH1 0xA0 DUP7 DUP9 SUB SLT ISZERO PUSH2 0x376A JUMPI PUSH1 0x0 DUP1 REVERT JUMPDEST DUP6 CALLDATALOAD PUSH2 0x3775 DUP2 PUSH2 0x3505 JUMP JUMPDEST SWAP5 POP PUSH1 0x20 DUP7 ADD CALLDATALOAD SWAP4 POP PUSH1 0x40 DUP7 ADD CALLDATALOAD PUSH2 0x378C DUP2 PUSH2 0x3505 JUMP JUMPDEST SWAP3 POP PUSH1 0x60 DUP7 ADD CALLDATALOAD SWAP2 POP PUSH1 0x80 DUP7 ADD CALLDATALOAD PUSH2 0x37A3 DUP2 PUSH2 0x3505 JUMP JUMPDEST DUP1 SWAP2 POP POP SWAP3 SWAP6 POP SWAP3 SWAP6 SWAP1 SWAP4 POP JUMP JUMPDEST PUSH1 0x0 DUP1 PUSH1 0x0 DUP1 PUSH1 0x0 DUP1 PUSH1 0xC0 DUP8 DUP10 SUB SLT ISZERO PUSH2 0x37CA JUMPI PUSH1 0x0 DUP1 REVERT JUMPDEST DUP7 CALLDATALOAD PUSH2 0x37D5 DUP2 PUSH2 0x3505 JUMP JUMPDEST SWAP6 POP PUSH1 0x20 DUP8 ADD CALLDATALOAD SWAP5 POP PUSH1 0x40 DUP8 ADD CALLDATALOAD PUSH2 0x37EC DUP2 PUSH2 0x3505 JUMP JUMPDEST SWAP4 POP PUSH1 0x60 DUP8 ADD CALLDATALOAD PUSH8 0xFFFFFFFFFFFFFFFF DUP1 DUP3 GT ISZERO PUSH2 0x3809 JUMPI PUSH1 0x0 DUP1 REVERT JUMPDEST PUSH2 0x3815 DUP11 DUP4 DUP12 ADD PUSH2 0x3465 JUMP JUMPDEST SWAP5 POP PUSH1 0x80 DUP10 ADD CALLDATALOAD SWAP2 POP DUP1 DUP3 GT ISZERO PUSH2 0x382B JUMPI PUSH1 0x0 DUP1 REVERT JUMPDEST POP PUSH2 0x3838 DUP10 DUP3 DUP11 ADD PUSH2 0x3465 JUMP JUMPDEST SWAP3 POP POP PUSH1 0xA0 DUP8 ADD CALLDATALOAD SWAP1 POP SWAP3 SWAP6 POP SWAP3 SWAP6 POP SWAP3 SWAP6 JUMP JUMPDEST PUSH1 0x0 DUP1 PUSH1 0x0 DUP1 PUSH1 0x80 DUP6 DUP8 SUB SLT ISZERO PUSH2 0x3862 JUMPI PUSH1 0x0 DUP1 REVERT JUMPDEST DUP5 CALLDATALOAD PUSH2 0x386D DUP2 PUSH2 0x3505 JUMP JUMPDEST SWAP4 POP PUSH1 0x20 DUP6 ADD CALLDATALOAD SWAP3 POP PUSH1 0x40 DUP6 ADD CALLDATALOAD PUSH8 0xFFFFFFFFFFFFFFFF DUP1 DUP3 GT ISZERO PUSH2 0x3891 JUMPI PUSH1 0x0 DUP1 REVERT JUMPDEST PUSH2 0x389D DUP9 DUP4 DUP10 ADD PUSH2 0x3465 JUMP JUMPDEST SWAP4 POP PUSH1 0x60 DUP8 ADD CALLDATALOAD SWAP2 POP DUP1 DUP3 GT ISZERO PUSH2 0x38B3 JUMPI PUSH1 0x0 DUP1 REVERT JUMPDEST POP PUSH2 0x38C0 DUP8 DUP3 DUP9 ADD PUSH2 0x3465 JUMP JUMPDEST SWAP2 POP POP SWAP3 SWAP6 SWAP2 SWAP5 POP SWAP3 POP JUMP JUMPDEST PUSH1 0x0 PUSH1 0x20 DUP3 DUP5 SUB SLT ISZERO PUSH2 0x38DE JUMPI PUSH1 0x0 DUP1 REVERT JUMPDEST DUP2 CALLDATALOAD PUSH2 0x2A7F DUP2 PUSH2 0x3505 JUMP JUMPDEST PUSH4 0x4E487B71 PUSH1 0xE0 SHL PUSH1 0x0 MSTORE PUSH1 0x32 PUSH1 0x4 MSTORE PUSH1 0x24 PUSH1 0x0 REVERT JUMPDEST PUSH4 0x4E487B71 PUSH1 0xE0 SHL PUSH1 0x0 MSTORE PUSH1 0x11 PUSH1 0x4 MSTORE PUSH1 0x24 PUSH1 0x0 REVERT JUMPDEST PUSH1 0x0 DUP3 NOT DUP3 GT ISZERO PUSH2 0x3928 JUMPI PUSH2 0x3928 PUSH2 0x38FF JUMP JUMPDEST POP ADD SWAP1 JUMP JUMPDEST PUSH1 0x0 PUSH1 0x0 NOT DUP3 EQ ISZERO PUSH2 0x3941 JUMPI PUSH2 0x3941 PUSH2 0x38FF JUMP JUMPDEST POP PUSH1 0x1 ADD SWAP1 JUMP JUMPDEST DUP1 SLOAD PUSH1 0x0 SWAP1 PUSH1 0x1 DUP2 DUP2 SHR SWAP1 DUP1 DUP4 AND DUP1 PUSH2 0x3962 JUMPI PUSH1 0x7F DUP4 AND SWAP3 POP JUMPDEST PUSH1 0x20 DUP1 DUP5 LT DUP3 EQ ISZERO PUSH2 0x3984 JUMPI PUSH4 0x4E487B71 PUSH1 0xE0 SHL PUSH1 0x0 MSTORE PUSH1 0x22 PUSH1 0x4 MSTORE PUSH1 0x24 PUSH1 0x0 REVERT JUMPDEST DUP2 DUP1 ISZERO PUSH2 0x3998 JUMPI PUSH1 0x1 DUP2 EQ PUSH2 0x39A9 JUMPI PUSH2 0x39D6 JUMP JUMPDEST PUSH1 0xFF NOT DUP7 AND DUP10 MSTORE DUP5 DUP10 ADD SWAP7 POP PUSH2 0x39D6 JUMP JUMPDEST PUSH1 0x0 DUP9 DUP2 MSTORE PUSH1 0x20 SWAP1 KECCAK256 PUSH1 0x0 JUMPDEST DUP7 DUP2 LT ISZERO PUSH2 0x39CE JUMPI DUP2 SLOAD DUP12 DUP3 ADD MSTORE SWAP1 DUP6 ADD SWAP1 DUP4 ADD PUSH2 0x39B5 JUMP JUMPDEST POP POP DUP5 DUP10 ADD SWAP7 POP JUMPDEST POP POP POP POP POP POP SWAP3 SWAP2 POP POP JUMP JUMPDEST PUSH1 0x0 PUSH2 0x2A7F DUP3 DUP5 PUSH2 0x3948 JUMP JUMPDEST PUSH1 0x0 PUSH1 0x20 DUP3 DUP5 SUB SLT ISZERO PUSH2 0x3A00 JUMPI PUSH1 0x0 DUP1 REVERT JUMPDEST DUP2 MLOAD PUSH2 0x2A7F DUP2 PUSH2 0x3505 JUMP JUMPDEST PUSH1 0x0 PUSH1 0x20 DUP3 DUP5 SUB SLT ISZERO PUSH2 0x3A1D JUMPI PUSH1 0x0 DUP1 REVERT JUMPDEST POP MLOAD SWAP2 SWAP1 POP JUMP JUMPDEST PUSH1 0x1 PUSH1 0x1 PUSH1 0xA0 SHL SUB SWAP6 DUP7 AND DUP2 MSTORE SWAP4 DUP6 AND PUSH1 0x20 DUP6 ADD MSTORE PUSH1 0x40 DUP5 ADD SWAP3 SWAP1 SWAP3 MSTORE DUP4 AND PUSH1 0x60 DUP4 ADD MSTORE SWAP1 SWAP2 AND PUSH1 0x80 DUP3 ADD MSTORE PUSH1 0xA0 ADD SWAP1 JUMP JUMPDEST PUSH1 0x0 PUSH1 0x20 DUP3 DUP5 SUB SLT ISZERO PUSH2 0x3A68 JUMPI PUSH1 0x0 DUP1 REVERT JUMPDEST DUP2 MLOAD DUP1 ISZERO ISZERO DUP2 EQ PUSH2 0x2A7F JUMPI PUSH1 0x0 DUP1 REVERT JUMPDEST PUSH32 0x7068616E746F6D2E636F6E74726163742E726567697374657265640000000000 DUP2 MSTORE PUSH1 0x60 SWAP2 SWAP1 SWAP2 SHL PUSH12 0xFFFFFFFFFFFFFFFFFFFFFFFF NOT AND PUSH1 0x1B DUP3 ADD MSTORE PUSH1 0x2F ADD SWAP1 JUMP JUMPDEST PUSH1 0x1 PUSH1 0x1 PUSH1 0xA0 SHL SUB SWAP5 DUP6 AND DUP2 MSTORE SWAP3 DUP5 AND PUSH1 0x20 DUP5 ADD MSTORE SWAP3 AND PUSH1 0x40 DUP3 ADD MSTORE PUSH1 0x60 DUP2 ADD SWAP2 SWAP1 SWAP2 MSTORE PUSH1 0x80 ADD SWAP1 JUMP JUMPDEST PUSH1 0x0 PUSH2 0x3AF1 DUP3 DUP7 PUSH2 0x3948 JUMP JUMPDEST PUSH1 0x60 SWAP5 SWAP1 SWAP5 SHL PUSH12 0xFFFFFFFFFFFFFFFFFFFFFFFF NOT AND DUP5 MSTORE POP POP PUSH1 0x14 DUP3 ADD MSTORE PUSH1 0x34 ADD SWAP2 SWAP1 POP JUMP JUMPDEST PUSH1 0x0 JUMPDEST DUP4 DUP2 LT ISZERO PUSH2 0x3B32 JUMPI DUP2 DUP2 ADD MLOAD DUP4 DUP3 ADD MSTORE PUSH1 0x20 ADD PUSH2 0x3B1A JUMP JUMPDEST DUP4 DUP2 GT ISZERO PUSH2 0x2BD8 JUMPI POP POP PUSH1 0x0 SWAP2 ADD MSTORE JUMP JUMPDEST PUSH1 0x0 DUP3 MLOAD PUSH2 0x3B55 DUP2 DUP5 PUSH1 0x20 DUP8 ADD PUSH2 0x3B17 JUMP JUMPDEST SWAP2 SWAP1 SWAP2 ADD SWAP3 SWAP2 POP POP JUMP JUMPDEST PUSH1 0x20 DUP2 MSTORE PUSH1 0x0 DUP3 MLOAD DUP1 PUSH1 0x20 DUP5 ADD MSTORE PUSH2 0x3B7E DUP2 PUSH1 0x40 DUP6 ADD PUSH1 0x20 DUP8 ADD PUSH2 0x3B17 JUMP JUMPDEST PUSH1 0x1F ADD PUSH1 0x1F NOT AND SWAP2 SWAP1 SWAP2 ADD PUSH1 0x40 ADD SWAP3 SWAP2 POP POP JUMP INVALID LOG2 PUSH5 0x6970667358 0x22 SLT KECCAK256 BYTE CALLVALUE DELEGATECALL 0xEA 0xAA DUP5 CALLDATASIZE 0xD4 0xA9 PUSH7 0xD9EE5ADA7D49B3 0x5D SLT DUP6 0x2C SWAP9 0xBB 0xBF DUP1 0x22 0xEE SHL 0xC7 SELFBALANCE 0xD5 KECCAK256 PUSH5 0x736F6C6343 STOP ADDMOD EXP STOP CALLER ",
  "sha1": "ea210ff70ce57191981fea79ac58eff50972c9a8",
  "source": "/* SPDX-License-Identifier: MIT */\npragma solidity =0.8.10;\n\n/* Package Imports */\nimport {PRBMathUD60x18} from \"@hifi-finance/prb-math/contracts/PRBMathUD60x18.sol\";\nimport {SafeERC20} from \"@openzeppelin/contracts/token/ERC20/utils/SafeERC20.sol\";\n\n/* Package Interface Imports */\nimport {IERC20} from \"@openzeppelin/contracts/token/ERC20/IERC20.sol\";\n\n/* Internal Imports */\nimport {PhantomStorageMixin} from \"../mixins/PhantomStorageMixin.sol\";\n\n/* Internal Interface Imports */\nimport {IPhantomERC20} from \"../../interfaces/core/erc20/IPhantomERC20.sol\";\nimport {IPhantomTreasury} from \"../../interfaces/core/IPhantomTreasury.sol\";\nimport {IyVault} from \"../../interfaces/external/IyVault.sol\";\n\n/**\n * @title PhantomTreasury\n * @author PhantomDao Team\n * @notice The contract responsible for handle all token transactions\n */\ncontract PhantomTreasury is PhantomStorageMixin, IPhantomTreasury {\n    using PRBMathUD60x18 for uint256;\n    using SafeERC20 for IERC20;\n    using SafeERC20 for IPhantomERC20;\n\n    address[] reserveTokens;\n    mapping(address => bool) isReserveToken;\n\n    constructor(address storageFactoryAddress) PhantomStorageMixin(storageFactoryAddress) {\n        return;\n    }\n\n    //=================================================================================================================\n    // External Functions\n    //=================================================================================================================\n\n    function swap(\n        address forUser,\n        uint256 inAmount,\n        address inToken,\n        uint256 outAmount,\n        address outToken,\n        bytes32[] memory keys,\n        uint256[] memory percentages\n    ) external virtual override onlyRegisteredContracts {\n        transferFromUserToVault(forUser, inAmount, inToken, keys, percentages);\n        transferFromVaultToUser(forUser, outAmount, outToken, keys, percentages);\n        emit PhantomTreasury_Swap(inToken, outToken, forUser, inAmount);\n    }\n\n    function swapBurn(\n        address forUser,\n        uint256 burnAmount,\n        address burnToken,\n        uint256 outAmount,\n        address outToken,\n        bytes32[] memory keys,\n        uint256[] memory percentages\n    ) external virtual override onlyRegisteredContracts requirePHMTypeToken(burnToken) {\n        // Burn\n        IPhantomERC20(burnToken).safeTransferFrom(forUser, address(PhantomVault()), burnAmount);\n        PhantomVault().burn(burnAmount, burnToken);\n        // Swap\n        transferFromVaultToUser(forUser, outAmount, outToken, keys, percentages);\n        emit PhantomTreasury_SwapBurn(burnToken, outToken, forUser, burnAmount);\n    }\n\n    function swapMint(\n        address forUser,\n        uint256 inAmount,\n        address inToken,\n        uint256 mintAmount,\n        address mintToken,\n        bytes32[] memory keys,\n        uint256[] memory percentages\n    ) external virtual override onlyRegisteredContracts requirePHMTypeToken(mintToken) {\n        transferFromUserToVault(forUser, inAmount, inToken, keys, percentages);\n        IPhantomERC20(mintToken).mint(forUser, mintAmount);\n        emit PhantomTreasury_SwapMint(inToken, mintToken, forUser, inAmount);\n    }\n\n    function swapBurnMint(\n        address forUser,\n        uint256 burnAmount,\n        address burnToken,\n        uint256 mintAmount,\n        address mintToken\n    ) external virtual override onlyRegisteredContracts requirePHMTypeToken(mintToken) {\n        // Burn\n        IPhantomERC20(burnToken).safeTransferFrom(forUser, address(PhantomVault()), burnAmount);\n        PhantomVault().burn(burnAmount, burnToken);\n        // Mint\n        IPhantomERC20(mintToken).mint(forUser, mintAmount);\n        emit PhantomTreasury_SwapBurnMint(burnToken, burnAmount, forUser, mintAmount, mintToken);\n    }\n\n    function deposit(\n        address inDepositor,\n        uint256 inAmount,\n        address inToken,\n        bytes32[] memory keys,\n        uint256[] memory percentages,\n        uint256 mintRatio,\n        uint256 profitRatio,\n        bytes32[] memory profitKeys,\n        uint256[] memory profitPercentages\n    ) external virtual override onlyRegisteredContracts returns (uint256) {\n        // Figure out market price for asset in PHM denomination`\n        uint256 quote = PhantomDexRouter().getQuote(\n            PhantomStorage().getAddress(keccak256(phantom.routing.dex_router_address)),\n            PhantomStorage().getAddress(keccak256(phantom.routing.dex_factory_address)),\n            inAmount,\n            inToken,\n            address(PHM())\n        );\n        // if (quote > excessReserves()) revert PhantomTreasury_InsufficientReserves(inAmount);\n        transferFromUserToVault(inDepositor, inAmount, inToken, keys, percentages);\n        // Apply the bond discount and mint the reward for the deposit\n        uint256 mintAmount = quote.mul(mintRatio);\n        splitCredit(mintAmount, address(PHM()), keys, percentages);\n        PHM().mint(address(PhantomVault()), mintAmount);\n        // Mint profits\n        uint256 profitAmount = mintAmount.mul(profitRatio);\n        PHM().mint(address(PhantomVault()), profitAmount);\n        splitCredit(profitAmount, address(PHM()), profitKeys, profitPercentages);\n        emit PhantomTreasury_Minted(address(PHM()), address(PhantomVault()), mintAmount + profitAmount);\n        return mintAmount;\n    }\n\n    function withdraw(\n        address outWithdrawer,\n        uint256 outAmount,\n        address outToken,\n        bytes32[] memory keys,\n        uint256[] memory percentages,\n        uint256 burnRatio\n    ) external virtual override onlyRegisteredContracts returns (uint256) {\n        uint256 quote = PhantomDexRouter().getQuote(\n            PhantomStorage().getAddress(keccak256(phantom.routing.dex_router_address)),\n            PhantomStorage().getAddress(keccak256(phantom.routing.dex_factory_address)),\n            outAmount,\n            outToken,\n            address(PHM())\n        );\n        uint256 burnAmount = quote.mul(burnRatio);\n        PhantomVault().burn(burnAmount, address(PHM()));\n        splitDebit(burnAmount, address(PHM()), keys, percentages);\n        transferFromVaultToUser(outWithdrawer, outAmount, outToken, keys, percentages);\n        return burnAmount;\n    }\n\n    function sendToYearn(\n        address vault,\n        uint256 amount,\n        bytes32[] memory keys,\n        uint256[] memory percentages\n    ) external override onlyRegisteredContracts {\n        IERC20 token = IyVault(vault).token();\n        transferFromVaultToUser(address(this), amount, address(token), keys, percentages);\n        token.approve(vault, amount);\n        IyVault(vault).deposit(amount, address(this));\n        transferFromUserToVault(address(this), amount, vault, keys, percentages);\n    }\n\n    function withdrawFromYearn(\n        address vault,\n        uint256 maxShares,\n        uint256 maxLoss,\n        bytes32[] memory keys,\n        uint256[] memory percentages\n    ) external override onlyRegisteredContracts {\n        IERC20 token = IyVault(vault).token();\n        transferFromVaultToUser(address(this), maxShares, vault, keys, percentages);\n        IERC20(vault).approve(vault, maxShares);\n        IyVault(vault).withdraw(maxShares, address(this), maxLoss);\n        transferFromUserToVault(address(this), token.balanceOf(address(this)), address(token), keys, percentages);\n    }\n\n    /**\n     * @dev register a token as being one of the reserve tokens\n     */\n    function registerReserveToken(address token) external override onlyRegisteredContracts {\n        require(isReserveToken[token] == false, \"Token already registered\");\n        reserveTokens.push(token);\n        isReserveToken[token] = true;\n    }\n\n    function sumReserves() public view override returns (uint256) {\n        uint256 S;\n        for (uint256 i; i < reserveTokens.length; i++) {\n            S += PhantomDexRouter().getQuote(\n                PhantomStorage().getAddress(keccak256(phantom.routing.dex_router_address)),\n                PhantomStorage().getAddress(keccak256(phantom.routing.dex_factory_address)),\n                IERC20(reserveTokens[i]).balanceOf(address(PhantomVault())).mul(standardAccountPercentages()[0]),\n                reserveTokens[i],\n                address(PHM())\n            );\n        }\n        return S;\n    }\n\n    //=================================================================================================================\n    // Internal Functions\n    //=================================================================================================================\n\n    function transferFromUserToVault(\n        address forUser,\n        uint256 inAmount,\n        address inToken,\n        bytes32[] memory keys,\n        uint256[] memory percentages\n    ) internal {\n        if (inAmount == 0 || inToken == address(0)) return;\n        splitCredit(inAmount, inToken, keys, percentages);\n        IERC20(inToken).safeTransferFrom(forUser, address(PhantomVault()), inAmount);\n    }\n\n    function transferFromVaultToUser(\n        address forUser,\n        uint256 outAmount,\n        address outToken,\n        bytes32[] memory keys,\n        uint256[] memory percentages\n    ) internal {\n        /*\n         * Vault only ever sends to the Treasury, this intermediate step increases gas consumption\n         * but provides an extra layer of security. By doing this step in two transfers the Vault never has to be approved\n         * to withdrawl directly to a users wallet. Overkill? Probably, but risk mitigation is important.\n         * TODO: Discuss this design choice\n         */\n        if (outAmount == 0 || outToken == address(0)) return;\n        splitDebit(outAmount, outToken, keys, percentages);\n        PhantomVault().withdraw(outAmount, outToken);\n        IERC20(outToken).safeTransfer(forUser, outAmount);\n    }\n\n    function excessReserves() internal view returns (uint256) {\n        uint256 balance;\n        for (uint256 i; i < reserveTokens.length; i++) {\n            balance += PhantomDexRouter().getQuote(\n                PhantomStorage().getAddress(keccak256(phantom.routing.dex_router_address)),\n                PhantomStorage().getAddress(keccak256(phantom.routing.dex_factory_address)),\n                getBalanceFor(reserveKey()[0], reserveTokens[i]),\n                reserveTokens[i],\n                address(PHM())\n            );\n        }\n        return balance - PHM().totalSupply();\n    }\n\n    function getBalanceFor(bytes32 accountKey, address token) internal view returns (uint256) {\n        return PhantomStorage().getUint(keccak256(abi.encodePacked(phantom.treasury.balances, token, accountKey)));\n    }\n\n    function increaseBalanceFor(\n        bytes32 accountKey,\n        address token,\n        uint256 amount\n    ) internal {\n        PhantomStorage().addUint(keccak256(abi.encodePacked(phantom.treasury.balances, token, accountKey)), amount);\n    }\n\n    function decreaseBalanceFor(\n        bytes32 accountKey,\n        address token,\n        uint256 amount\n    ) internal {\n        if (\n            PhantomStorage().getUint(keccak256(abi.encodePacked(phantom.treasury.balances, token, accountKey))) < amount\n        ) {\n            revert PhantomTreasury_InsufficientBalance(amount, token);\n        }\n        PhantomStorage().subUint(keccak256(abi.encodePacked(phantom.treasury.balances, token, accountKey)), amount);\n    }\n\n    function isPHMTypeToken(address inToken) internal view returns (bool) {\n        return\n            inToken == address(PHM()) ||\n            inToken == address(sPHM()) ||\n            inToken == address(fPHM()) ||\n            inToken == address(aPHM()) ||\n            inToken == address(gPHM());\n    }\n\n    function splitDebit(\n        uint256 outAmount,\n        address outToken,\n        bytes32[] memory keys,\n        uint256[] memory percentages\n    ) internal {\n        if (sum(percentages) != 1e18) revert PhantomTreasury_PercentagesDoNotAddTo100();\n        if (keys.length != percentages.length) revert PhantomTreasury_LengthsDoNotMatch();\n        for (uint256 i = 0; i < keys.length; i += 1) {\n            decreaseBalanceFor(keys[i], outToken, outAmount.mul(percentages[i]));\n        }\n    }\n\n    function splitCredit(\n        uint256 inAmount,\n        address inToken,\n        bytes32[] memory keys,\n        uint256[] memory percentages\n    ) internal {\n        if (sum(percentages) != 1e18) revert PhantomTreasury_PercentagesDoNotAddTo100();\n        if (keys.length != percentages.length) revert PhantomTreasury_LengthsDoNotMatch();\n        for (uint256 i = 0; i < keys.length; i += 1) {\n            increaseBalanceFor(keys[i], inToken, inAmount.mul(percentages[i]));\n        }\n    }\n\n    function sum(uint256[] memory data) public pure returns (uint256) {\n        uint256 S;\n        for (uint256 i; i < data.length; i++) {\n            S += (data[i]);\n        }\n        return S;\n    }\n\n    //=================================================================================================================\n    // Modifiers\n    //=================================================================================================================\n\n    modifier requirePHMTypeToken(address inToken) {\n        if (!isPHMTypeToken(inToken)) revert PhantomTreasury_InvalidToken(inToken);\n        _;\n    }\n}\n",
  "sourcePath": "contracts/core/PhantomTreasury.sol",
  "type": "contract"
}