{
  "abi": [
    {
      "inputs": [
        {
          "internalType": "address",
          "name": "storageAddress",
          "type": "address"
        }
      ],
      "stateMutability": "nonpayable",
      "type": "constructor"
    },
    {
      "inputs": [
        {
          "internalType": "uint256",
          "name": "prod1",
          "type": "uint256"
        }
      ],
      "name": "PRBMath__MulDivFixedPointOverflow",
      "type": "error"
    },
    {
      "inputs": [
        {
          "internalType": "uint256",
          "name": "prod1",
          "type": "uint256"
        },
        {
          "internalType": "uint256",
          "name": "denominator",
          "type": "uint256"
        }
      ],
      "name": "PRBMath__MulDivOverflow",
      "type": "error"
    },
    {
      "inputs": [
        {
          "internalType": "address",
          "name": "contractAddress",
          "type": "address"
        }
      ],
      "name": "PhantomStorageMixin__ContractNotFoundByAddressOrIsOutdated",
      "type": "error"
    },
    {
      "inputs": [
        {
          "internalType": "bytes32",
          "name": "contractName",
          "type": "bytes32"
        }
      ],
      "name": "PhantomStorageMixin__ContractNotFoundByNameOrIsOutdated",
      "type": "error"
    },
    {
      "inputs": [
        {
          "internalType": "address",
          "name": "user",
          "type": "address"
        }
      ],
      "name": "PhantomStorageMixin__UserIsNotGuardian",
      "type": "error"
    },
    {
      "anonymous": false,
      "inputs": [
        {
          "indexed": true,
          "internalType": "address",
          "name": "authority",
          "type": "address"
        }
      ],
      "name": "LogSetAuthority",
      "type": "event"
    },
    {
      "anonymous": false,
      "inputs": [
        {
          "indexed": true,
          "internalType": "address",
          "name": "owner",
          "type": "address"
        }
      ],
      "name": "LogSetOwner",
      "type": "event"
    },
    {
      "inputs": [
        {
          "internalType": "bytes",
          "name": "bondType",
          "type": "bytes"
        },
        {
          "internalType": "uint256",
          "name": "vestInSeconds",
          "type": "uint256"
        }
      ],
      "name": "addBondType",
      "outputs": [],
      "stateMutability": "nonpayable",
      "type": "function"
    },
    {
      "inputs": [
        {
          "internalType": "address[]",
          "name": "inTokens",
          "type": "address[]"
        }
      ],
      "name": "addMultipleTokensToBondingList",
      "outputs": [],
      "stateMutability": "nonpayable",
      "type": "function"
    },
    {
      "inputs": [
        {
          "internalType": "address",
          "name": "inToken",
          "type": "address"
        }
      ],
      "name": "addTokenToBondingList",
      "outputs": [],
      "stateMutability": "nonpayable",
      "type": "function"
    },
    {
      "inputs": [],
      "name": "authority",
      "outputs": [
        {
          "internalType": "contract DSAuthority",
          "name": "",
          "type": "address"
        }
      ],
      "stateMutability": "view",
      "type": "function"
    },
    {
      "inputs": [
        {
          "internalType": "bytes",
          "name": "inBondType",
          "type": "bytes"
        },
        {
          "internalType": "address",
          "name": "inToken",
          "type": "address"
        }
      ],
      "name": "bondingMultiplierFor",
      "outputs": [
        {
          "internalType": "uint256",
          "name": "",
          "type": "uint256"
        }
      ],
      "stateMutability": "view",
      "type": "function"
    },
    {
      "inputs": [],
      "name": "currentBondRatio",
      "outputs": [
        {
          "internalType": "uint256",
          "name": "",
          "type": "uint256"
        }
      ],
      "stateMutability": "view",
      "type": "function"
    },
    {
      "inputs": [
        {
          "internalType": "bytes",
          "name": "bondType",
          "type": "bytes"
        }
      ],
      "name": "infoOfBondType",
      "outputs": [
        {
          "internalType": "bool",
          "name": "",
          "type": "bool"
        },
        {
          "internalType": "uint256",
          "name": "",
          "type": "uint256"
        }
      ],
      "stateMutability": "view",
      "type": "function"
    },
    {
      "inputs": [
        {
          "internalType": "address",
          "name": "inToken",
          "type": "address"
        }
      ],
      "name": "isValidTokenForBond",
      "outputs": [
        {
          "internalType": "bool",
          "name": "",
          "type": "bool"
        }
      ],
      "stateMutability": "view",
      "type": "function"
    },
    {
      "inputs": [],
      "name": "maxBondPayoutPHM",
      "outputs": [
        {
          "internalType": "uint256",
          "name": "",
          "type": "uint256"
        }
      ],
      "stateMutability": "view",
      "type": "function"
    },
    {
      "inputs": [],
      "name": "opsDAOBalance",
      "outputs": [
        {
          "internalType": "uint256",
          "name": "",
          "type": "uint256"
        }
      ],
      "stateMutability": "view",
      "type": "function"
    },
    {
      "inputs": [],
      "name": "owner",
      "outputs": [
        {
          "internalType": "address",
          "name": "",
          "type": "address"
        }
      ],
      "stateMutability": "view",
      "type": "function"
    },
    {
      "inputs": [
        {
          "internalType": "address[]",
          "name": "path",
          "type": "address[]"
        },
        {
          "internalType": "uint256",
          "name": "outAmount",
          "type": "uint256"
        },
        {
          "internalType": "uint256",
          "name": "minInAmount",
          "type": "uint256"
        },
        {
          "internalType": "uint256",
          "name": "deadline",
          "type": "uint256"
        }
      ],
      "name": "rebalanceReserveTokens",
      "outputs": [],
      "stateMutability": "nonpayable",
      "type": "function"
    },
    {
      "inputs": [
        {
          "internalType": "address",
          "name": "twap",
          "type": "address"
        },
        {
          "internalType": "address",
          "name": "token",
          "type": "address"
        }
      ],
      "name": "registerBondPricingTWAP",
      "outputs": [],
      "stateMutability": "nonpayable",
      "type": "function"
    },
    {
      "inputs": [
        {
          "internalType": "bytes",
          "name": "bondType",
          "type": "bytes"
        }
      ],
      "name": "removeBondType",
      "outputs": [],
      "stateMutability": "nonpayable",
      "type": "function"
    },
    {
      "inputs": [
        {
          "internalType": "address[]",
          "name": "inTokens",
          "type": "address[]"
        }
      ],
      "name": "removeMultipleTokensToBondingList",
      "outputs": [],
      "stateMutability": "nonpayable",
      "type": "function"
    },
    {
      "inputs": [
        {
          "internalType": "address",
          "name": "inToken",
          "type": "address"
        }
      ],
      "name": "removeTokenFromBondingList",
      "outputs": [],
      "stateMutability": "nonpayable",
      "type": "function"
    },
    {
      "inputs": [
        {
          "internalType": "address",
          "name": "token",
          "type": "address"
        }
      ],
      "name": "reservesTokenBalance",
      "outputs": [
        {
          "internalType": "uint256",
          "name": "",
          "type": "uint256"
        }
      ],
      "stateMutability": "view",
      "type": "function"
    },
    {
      "inputs": [
        {
          "internalType": "contract DSAuthority",
          "name": "authority_",
          "type": "address"
        }
      ],
      "name": "setAuthority",
      "outputs": [],
      "stateMutability": "nonpayable",
      "type": "function"
    },
    {
      "inputs": [
        {
          "internalType": "uint256",
          "name": "limit",
          "type": "uint256"
        }
      ],
      "name": "setBondLimit",
      "outputs": [],
      "stateMutability": "nonpayable",
      "type": "function"
    },
    {
      "inputs": [
        {
          "internalType": "bytes",
          "name": "inBondType",
          "type": "bytes"
        },
        {
          "internalType": "address",
          "name": "inToken",
          "type": "address"
        },
        {
          "internalType": "uint256",
          "name": "value",
          "type": "uint256"
        }
      ],
      "name": "setBondingMultiplierFor",
      "outputs": [],
      "stateMutability": "nonpayable",
      "type": "function"
    },
    {
      "inputs": [
        {
          "internalType": "address",
          "name": "dexRouter",
          "type": "address"
        },
        {
          "internalType": "address",
          "name": "dexFactory",
          "type": "address"
        }
      ],
      "name": "setCustomDefaultDex",
      "outputs": [],
      "stateMutability": "nonpayable",
      "type": "function"
    },
    {
      "inputs": [
        {
          "internalType": "address",
          "name": "owner_",
          "type": "address"
        }
      ],
      "name": "setOwner",
      "outputs": [],
      "stateMutability": "nonpayable",
      "type": "function"
    },
    {
      "inputs": [],
      "name": "setSpiritAsDefaultDex",
      "outputs": [],
      "stateMutability": "nonpayable",
      "type": "function"
    },
    {
      "inputs": [],
      "name": "setSpookyAsDefaultDex",
      "outputs": [],
      "stateMutability": "nonpayable",
      "type": "function"
    },
    {
      "inputs": [
        {
          "internalType": "address",
          "name": "token",
          "type": "address"
        }
      ],
      "name": "treasuryTokenBalance",
      "outputs": [
        {
          "internalType": "uint256",
          "name": "",
          "type": "uint256"
        }
      ],
      "stateMutability": "view",
      "type": "function"
    },
    {
      "inputs": [
        {
          "internalType": "uint256",
          "name": "newRewardRate",
          "type": "uint256"
        }
      ],
      "name": "updateStakingRewardRate",
      "outputs": [],
      "stateMutability": "nonpayable",
      "type": "function"
    },
    {
      "inputs": [
        {
          "internalType": "address",
          "name": "destination",
          "type": "address"
        },
        {
          "internalType": "uint256",
          "name": "amount",
          "type": "uint256"
        }
      ],
      "name": "withdrawOpsDAOFunds",
      "outputs": [],
      "stateMutability": "nonpayable",
      "type": "function"
    }
  ],
  "bytecode": "601260e08181527139b2b1bab934ba3c9730b2323932b9b9b7b360711b6101009081526080918252600d6101209081526c73656375726974792e6e616d6560981b6101405260a0526101a060405260136101609081527f73656375726974792e72656769737465726564000000000000000000000000006101805260c05290916000916200009091839190620016c5565b506020828101518051620000ab9260018501920190620016c5565b5060408201518051620000c9916002840191602090910190620016c5565b5050604080516103c081018252601b61038082019081527f7068616e746f6d2e636f6e7472616374732e616c7068617377617000000000006103a0830152610100820190815282518084018452601a8082527f7068616e746f6d2e636f6e7472616374732e666f756e646572730000000000006020838101919091526101208501929092528451808601865260198082527f7068616e746f6d2e636f6e7472616374732e7374616b696e67000000000000008285015261014086019190915285518087018752601f81527f7068616e746f6d2e636f6e7472616374732e7374616b696e677761726d75700081850152610160860152855180870187529081527f7068616e746f6d2e636f6e7472616374732e626f6e64696e67000000000000008184015261018085015284518086018652601581527f7068616e746f6d2e636f6e7472616374732e70686d0000000000000000000000818401526101a08501528451808601865260168082527f7068616e746f6d2e636f6e7472616374732e7370686d00000000000000000000828501526101c0860191909152855180870187528181527f7068616e746f6d2e636f6e7472616374732e6770686d00000000000000000000818501526101e0860152855180870187528181527f7068616e746f6d2e636f6e7472616374732e6170686d0000000000000000000081850152610200860152855180870187528181527f7068616e746f6d2e636f6e7472616374732e6670686d00000000000000000000818501526102208601528551808701875260178082527f7068616e746f6d2e636f6e7472616374732e7661756c7400000000000000000082860152610240870191909152865180880188528381527f7068616e746f6d2e636f6e7472616374732e747265617375727900000000000081860152610260870152865180880188529182527f7068616e746f6d2e636f6e7472616374732e74776170000000000000000000008285015261028086019190915285518087018752601d81527f7068616e746f6d2e636f6e7472616374732e626f6e6470726963696e67000000818501526102a086015285518087018752601c81527f7068616e746f6d2e636f6e7472616374732e6465785f726f7574657200000000818501526102c086015285518087018752601e8082527f7068616e746f6d2e636f6e7472616374732e796561726e5f726f757465720000828601526102e0870191909152865180880188528381527f7068616e746f6d2e636f6e7472616374732e6578656375746f7200000000000081860152610300870152865180880188529283527f7068616e746f6d2e636f6e7472616374732e7061796d656e747300000000000083850152610320860192909252855180870187529081527f7068616e746f6d2e636f6e7472616374732e677561726400000000000000000081840152610340850152845180860186529081527f7068616e746f6d2e636f6e7472616374732e61756374696f6e636c61696d000081830152610360840152908252825160c08101909352602a6060840181815292945090840192918291620046e66080840139815260200160405180606001604052806040518060600160405280602b81526020016200466b602b913981526020016040518060400160405280602081526020017f7068616e746f6d2e74726561737572792e6163636f756e745f6b65792e64616f8152508152602001604051806060016040528060258152602001620047f66025913990528152604080518082018252601981527f7068616e746f6d2e74726561737572792e62616c616e636573000000000000006020828101919091529283015291835281516101c0810190925260246101608301818152938201938392830191829160c0850191829190620046016101808801398152602001604051806060016040528060258152602001620048656025913981526020016040518060600160405280602481526020016200481b6024913981526020016040518060600160405280602b815260200162004696602b913981526020016040518060600160405280602481526020016200488a60249139815250815260200160405180606001604052806025815260200162004760602591398152602001604051806060016040528060298152602001620047cd6029913981526020016040518060400160405280601b81526020017f7068616e746f6d2e616c6c6f6361746f722e746f6b656e732e6c70000000000081525081526020016040518060400160405280601f81526020017f7068616e746f6d2e616c6c6f6361746f722e746f6b656e732e73696e676c65008152508152508152508152602001604051806101a0016040528060405180606001604052806040518060600160405280602b815260200162004710602b913981526020016040518060600160405280602c8152602001620045af602c913981526020016040518060600160405280602f815260200162004580602f913981525081526020016040518060400160405280601d81526020017f7068616e746f6d2e626f6e64696e672e76657374696e67626c6f636b7300000081525081526020016040518060400160405280601c81526020017f7068616e746f6d2e626f6e64696e672e70726f6669745f726174696f0000000081525081526020016040518060400160405280601b81526020017f7068616e746f6d2e626f6e64696e672e69735f72656465656d656400000000008152508152602001604051806060016040528060228152602001620047856022913981526020016040518060400160405280601881526020017f7068616e746f6d2e626f6e64696e672e69735f76616c6964000000000000000081525081526020016040518060400160405280601a81526020017f7068616e746f6d2e626f6e64696e672e6d756c7469706c69657200000000000081525081526020016040518060400160405280601481526020017f7068616e746f6d2e626f6e64696e672e6465627400000000000000000000000081525081526020016040518060400160405280601e81526020017f7068616e746f6d2e626f6e64696e672e6d61785f646562745f726174696f000081525081526020016040518060600160405280602481526020016200497b6024913981526020016040518060400160405280601581526020017f7068616e746f6d2e626f6e64696e672e746f6b656e000000000000000000000081525081526020016040518060400160405280601d81526020017f7068616e746f6d2e626f6e64696e672e6c6173745f636c61696d5f617400000081525081526020016040518060400160405280601b81526020017f7068616e746f6d2e626f6e64696e672e766573745f6c656e6774680000000000815250815250815260200160405180604001604052806040518060400160405280601d81526020017f7068616e746f6d2e7374616b696e672e726562617365436f756e7465720000008152508152602001604051806060016040528060228152602001620049596022913990528152604080516101408101909152602160e08201818152602090930192829160608301918291620048d2610100860139815260200160405180606001604052806024815260200162004647602491398152602001604051806060016040528060268152602001620045db60269139815260408051808201825260208082527f7068616e746f6d2e666f756e6465722e636c61696d732e6c617374436c61696d828201529283015291835281516060810183528082018281527f7068616e746f6d2e666f756e6465722e6368616e6765732e6e65774f776e65728285015281528382015281518083018352601d81527f7068616e746f6d2e666f756e6465722e76657374696e675374617274730000008183015292820192909252918352815161016081019092526022610100830181815293909101928291620046256101208401398152602001604051806060016040528060238152602001620048f36023913981526020016040518060600160405280602581526020016200473b602591398152602001604051806060016040528060268152602001620047a7602691398152602001604051806060016040528060258152602001620046c16025913981526020016040518060600160405280602681526020016200483f602691398152602001604051806060016040528060248152602001620048ae6024913981526020016040518060600160405280602a81526020016200499f602a9139815250815260200160405180608001604052806040518060400160405280601c81526020017f7068616e746f6d2e676f7665726e6f722e766f74696e6744656c61790000000081525081526020016040518060400160405280601d81526020017f7068616e746f6d2e676f7665726e6f722e766f74696e67506572696f6400000081525081526020016040518060600160405280602181526020016200491660219139815260200160405180606001604052806022815260200162004937602291399052905280518051805160039291839162000deb918391602090910190620016c5565b50602082810151805162000e069260018501920190620016c5565b506040820151805162000e24916002840191602090910190620016c5565b506060820151805162000e42916003840191602090910190620016c5565b506080820151805162000e60916004840191602090910190620016c5565b5060a0820151805162000e7e916005840191602090910190620016c5565b5060c0820151805162000e9c916006840191602090910190620016c5565b5060e0820151805162000eba916007840191602090910190620016c5565b50610100820151805162000ed9916008840191602090910190620016c5565b50610120820151805162000ef8916009840191602090910190620016c5565b50610140820151805162000f1791600a840191602090910190620016c5565b50610160820151805162000f3691600b840191602090910190620016c5565b50610180820151805162000f5591600c840191602090910190620016c5565b506101a0820151805162000f7491600d840191602090910190620016c5565b506101c0820151805162000f9391600e840191602090910190620016c5565b506101e0820151805162000fb291600f840191602090910190620016c5565b50610200820151805162000fd1916010840191602090910190620016c5565b50610220820151805162000ff0916011840191602090910190620016c5565b5061024082015180516200100f916012840191602090910190620016c5565b5061026082015180516200102e916013840191602090910190620016c5565b5050506020828101518051805191926014850192620010519284920190620016c5565b506020828101518051805191926001850192620010729284920190620016c5565b5060208281015180516200108d9260018501920190620016c5565b5060408201518051620010ab916002840191602090910190620016c5565b50505060408201518051620010cb916004840191602090910190620016c5565b50505060408201518051805180518051601986019392849290918391620010f891839160200190620016c5565b506020828101518051620011139260018501920190620016c5565b506040820151805162001131916002840191602090910190620016c5565b50606082015180516200114f916003840191602090910190620016c5565b50608082015180516200116d916004840191602090910190620016c5565b50505060208281015180516200118a9260058501920190620016c5565b5060408201518051620011a8916006840191602090910190620016c5565b5060608201518051620011c6916007840191602090910190620016c5565b5060808201518051620011e4916008840191602090910190620016c5565b505050506060830151805180518051929350602285019283916200120e91839160200190620016c5565b506020828101518051620012299260018501920190620016c5565b506040820151805162001247916002840191602090910190620016c5565b5050506020828101518051620012649260038501920190620016c5565b506040820151805162001282916004840191602090910190620016c5565b5060608201518051620012a0916005840191602090910190620016c5565b5060808201518051620012be916006840191602090910190620016c5565b5060a08201518051620012dc916007840191602090910190620016c5565b5060c08201518051620012fa916008840191602090910190620016c5565b5060e0820151805162001318916009840191602090910190620016c5565b5061010082015180516200133791600a840191602090910190620016c5565b5061012082015180516200135691600b840191602090910190620016c5565b5061014082015180516200137591600c840191602090910190620016c5565b5061016082015180516200139491600d840191602090910190620016c5565b506101808201518051620013b391600e840191602090910190620016c5565b5050506080820151805180516031840191620013d591839160200190620016c5565b506020828101518051620013f09260018501920190620016c5565b50505060a0820151805180518051603385019291839162001419918391602090910190620016c5565b506020828101518051620014349260018501920190620016c5565b506040820151805162001452916002840191602090910190620016c5565b506060820151805162001470916003840191602090910190620016c5565b5050506020828101518051805191926004850192620014939284920190620016c5565b50505060408201518051620014b3916005840191602090910190620016c5565b50505060c0820151805180516039840191620014d591839160200190620016c5565b506020828101518051620014f09260018501920190620016c5565b50604082015180516200150e916002840191602090910190620016c5565b50606082015180516200152c916003840191602090910190620016c5565b50608082015180516200154a916004840191602090910190620016c5565b5060a0820151805162001568916005840191602090910190620016c5565b5060c0820151805162001586916006840191602090910190620016c5565b5060e08201518051620015a4916007840191602090910190620016c5565b50505060e0820151805180516041840191620015c691839160200190620016c5565b506020828101518051620015e19260018501920190620016c5565b5060408201518051620015ff916002840191602090910190620016c5565b50606082015180516200161d916003840191602090910190620016c5565b50505050506d7068616e746f6d53746f7261676560901b604a553480156200164457600080fd5b50604051620049c9380380620049c983398101604081905262001667916200176b565b6001604855604980546001600160a01b03199081166001600160a01b03841617909155604c8054339216821790556040517fce241d7ca1f669fee44b6fc00b8eba2df3bb514eed0f6f668f8f89096e81ed9490600090a250620017da565b828054620016d3906200179d565b90600052602060002090601f016020900481019282620016f7576000855562001742565b82601f106200171257805160ff191683800117855562001742565b8280016001018555821562001742579182015b828111156200174257825182559160200191906001019062001725565b506200175092915062001754565b5090565b5b8082111562001750576000815560010162001755565b6000602082840312156200177e57600080fd5b81516001600160a01b03811681146200179657600080fd5b9392505050565b600181811c90821680620017b257607f821691505b60208210811415620017d457634e487b7160e01b600052602260045260246000fd5b50919050565b612d9680620017ea6000396000f3fe608060405234801561001057600080fd5b50600436106101a95760003560e01c80637a9e5e4b116100f9578063c4dacd6511610097578063e060d97411610071578063e060d97414610359578063e252b6981461037c578063e82e0eca146103a6578063f0e1d389146103b957600080fd5b8063c4dacd651461032b578063d8128ee414610333578063d8adb3f81461034657600080fd5b806390996966116100d357806390996966146102f5578063959bfc381461030857806396c0f78414610310578063bf7e214f1461031857600080fd5b80637a9e5e4b146102a45780638b11ad7a146102b75780638da5cb5b146102ca57600080fd5b80633ecd5ca91161016657806366232b2d1161014057806366232b2d1461026357806372aba79314610276578063734092e61461028957806375089bc41461029c57600080fd5b80633ecd5ca91461022a578063456aaa3f1461023d5780634b02246d1461025057600080fd5b806302d0d868146101ae5780630661768b146101c35780630c221f73146101cb5780630f5ae295146101de57806313af4035146101f157806325625e4314610204575b600080fd5b6101c16101bc366004612533565b6103cc565b005b6101c161048f565b6101c16101d936600461254c565b61071a565b6101c16101ec3660046125e9565b610798565b6101c16101ff3660046125e9565b610827565b610217610212366004612648565b6108a3565b6040519081526020015b60405180910390f35b6101c16102383660046125e9565b610962565b6101c161024b366004612533565b6109fb565b6101c161025e36600461269f565b610ad9565b6102176102713660046125e9565b610b97565b6102176102843660046125e9565b610c9b565b6101c161029736600461254c565b610d97565b6101c1610e10565b6101c16102b23660046125e9565b610fd7565b6101c16102c53660046126d8565b611053565b604c546102dd906001600160a01b031681565b6040516001600160a01b039091168152602001610221565b6101c1610303366004612735565b611123565b6102176111aa565b61021761137d565b604b546102dd906001600160a01b031681565b61021761143d565b6101c1610341366004612777565b611538565b6101c1610354366004612852565b611980565b61036c6103673660046125e9565b611ab3565b6040519015158152602001610221565b61038f61038a366004612852565b611b6a565b604080519215158352602083019190915201610221565b6101c16103b436600461269f565b611ce4565b6101c16103c7366004612894565b611e08565b6103e2336000356001600160e01b031916611f73565b6104075760405162461bcd60e51b81526004016103fe906128e0565b60405180910390fd5b604954604051637152429d60e11b81527f4c0ab503e4a10b4d35a4531a716b2bf7e03b8f828a21472aa24161ea45b085c56004820152602481018390526001600160a01b039091169063e2a4853a906044015b600060405180830381600087803b15801561047457600080fd5b505af1158015610488573d6000803e3d6000fd5b5050505050565b6104a5336000356001600160e01b031916611f73565b6104c15760405162461bcd60e51b81526004016103fe906128e0565b6049546040516001600160a01b039091169063ca446dd9906104e590603c906129a8565b60405180910390206104ff6049546001600160a01b031690565b6001600160a01b03166321f8a721600360390160020160405161052291906129a8565b60405190819003812060e083901b6001600160e01b03191682526004820152602401602060405180830381865afa158015610561573d6000803e3d6000fd5b505050506040513d601f19601f8201168201806040525081019061058591906129b4565b6040516001600160e01b031960e085901b16815260048101929092526001600160a01b03166024820152604401600060405180830381600087803b1580156105cc57600080fd5b505af11580156105e0573d6000803e3d6000fd5b505050506105f66049546001600160a01b031690565b6001600160a01b031663ca446dd9600360390160010160405161061991906129a8565b60405180910390206106336049546001600160a01b031690565b6001600160a01b03166321f8a721600360390160030160405161065691906129a8565b60405190819003812060e083901b6001600160e01b03191682526004820152602401602060405180830381865afa158015610695573d6000803e3d6000fd5b505050506040513d601f19601f820116820180604052508101906106b991906129b4565b6040516001600160e01b031960e085901b16815260048101929092526001600160a01b03166024820152604401600060405180830381600087803b15801561070057600080fd5b505af1158015610714573d6000803e3d6000fd5b50505050565b610730336000356001600160e01b031916611f73565b61074c5760405162461bcd60e51b81526004016103fe906128e0565b60005b818110156107935761078183838381811061076c5761076c6129d1565b90506020020160208101906101ec91906125e9565b61078c6001826129fd565b905061074f565b505050565b6107ae336000356001600160e01b031916611f73565b6107ca5760405162461bcd60e51b81526004016103fe906128e0565b6049546040516001600160a01b0390911690632c62ff2d906107f390602c908590602001612a15565b604051602081830303815290604052805190602001206040518263ffffffff1660e01b815260040161045a91815260200190565b61083d336000356001600160e01b031916611f73565b6108595760405162461bcd60e51b81526004016103fe906128e0565b604c80546001600160a01b0319166001600160a01b0383169081179091556040517fce241d7ca1f669fee44b6fc00b8eba2df3bb514eed0f6f668f8f89096e81ed9490600090a250565b60006108b76049546001600160a01b031690565b6001600160a01b031663bd02d0f560036022016008018686866040516020016108e39493929190612a3d565b604051602081830303815290604052805190602001206040518263ffffffff1660e01b815260040161091791815260200190565b602060405180830381865afa158015610934573d6000803e3d6000fd5b505050506040513d601f19601f820116820180604052508101906109589190612a6f565b90505b9392505050565b610978336000356001600160e01b031916611f73565b6109945760405162461bcd60e51b81526004016103fe906128e0565b6049546040516001600160a01b039091169063abfdcced906109bd90602c908590602001612a15565b60408051601f198184030181529082905280516020909101206001600160e01b031960e084901b16825260048201526001602482015260440161045a565b610a11336000356001600160e01b031916611f73565b610a2d5760405162461bcd60e51b81526004016103fe906128e0565b670de0b6b3a7640000811115610aa45760405162461bcd60e51b815260206004820152603660248201527f72657761726452617465206d757374206265206c657373207468616e206f7220604482015275657571616c20746f203165313820616b61203130302560501b60648201526084016103fe565b610aac612048565b6001600160a01b0316639ef3a261826040518263ffffffff1660e01b815260040161045a91815260200190565b610aef336000356001600160e01b031916611f73565b610b0b5760405162461bcd60e51b81526004016103fe906128e0565b6049546040516001600160a01b0390911690634bad105a90610b34906010908590602001612a15565b604051602081830303815290604052846040518363ffffffff1660e01b8152600401610b61929190612a88565b600060405180830381600087803b158015610b7b57600080fd5b505af1158015610b8f573d6000803e3d6000fd5b505050505050565b600080610ba26120e2565b90506000805b8251811015610c93576049546001600160a01b03166001600160a01b031663bd02d0f5600360140160040187868581518110610be657610be66129d1565b6020026020010151604051602001610c0093929190612aee565b604051602081830303815290604052805190602001206040518263ffffffff1660e01b8152600401610c3491815260200190565b602060405180830381865afa158015610c51573d6000803e3d6000fd5b505050506040513d601f19601f82011682018060405250810190610c759190612a6f565b610c7f90836129fd565b915080610c8b81612b1b565b915050610ba8565b509392505050565b600080610ca6612176565b90506000805b8251811015610c93576049546001600160a01b03166001600160a01b031663bd02d0f5600360140160040187868581518110610cea57610cea6129d1565b6020026020010151604051602001610d0493929190612aee565b604051602081830303815290604052805190602001206040518263ffffffff1660e01b8152600401610d3891815260200190565b602060405180830381865afa158015610d55573d6000803e3d6000fd5b505050506040513d601f19601f82011682018060405250810190610d799190612a6f565b610d8390836129fd565b915080610d8f81612b1b565b915050610cac565b610dad336000356001600160e01b031916611f73565b610dc95760405162461bcd60e51b81526004016103fe906128e0565b60005b8181101561079357610dfe838383818110610de957610de96129d1565b905060200201602081019061023891906125e9565b610e096001826129fd565b9050610dcc565b610e26336000356001600160e01b031916611f73565b610e425760405162461bcd60e51b81526004016103fe906128e0565b6049546040516001600160a01b039091169063ca446dd990610e6690603c906129a8565b6040518091039020610e806049546001600160a01b031690565b6001600160a01b03166321f8a7216003603901600401604051610ea391906129a8565b60405190819003812060e083901b6001600160e01b03191682526004820152602401602060405180830381865afa158015610ee2573d6000803e3d6000fd5b505050506040513d601f19601f82011682018060405250810190610f0691906129b4565b6040516001600160e01b031960e085901b16815260048101929092526001600160a01b03166024820152604401600060405180830381600087803b158015610f4d57600080fd5b505af1158015610f61573d6000803e3d6000fd5b50505050610f776049546001600160a01b031690565b6001600160a01b031663ca446dd96003603901600101604051610f9a91906129a8565b6040518091039020610fb46049546001600160a01b031690565b6001600160a01b03166321f8a721600360390160050160405161065691906129a8565b610fed336000356001600160e01b031916611f73565b6110095760405162461bcd60e51b81526004016103fe906128e0565b604b80546001600160a01b0319166001600160a01b0383169081179091556040517f1abebea81bfa2637f28358c371278fb15ede7ea8dd28d2e03b112ff6d936ada490600090a250565b611069336000356001600160e01b031916611f73565b6110855760405162461bcd60e51b81526004016103fe906128e0565b6049546040516001600160a01b039091169063e2a4853a906110b290602d90889088908890602001612a3d565b60408051601f198184030181529082905280516020909101206001600160e01b031960e084901b168252600482015260248101849052604401600060405180830381600087803b15801561110557600080fd5b505af1158015611119573d6000803e3d6000fd5b5050505050505050565b611139336000356001600160e01b031916611f73565b6111555760405162461bcd60e51b81526004016103fe906128e0565b61115d6121c6565b6001600160a01b031663a397104783600080856111786121fd565b611180612234565b611188612269565b6040518863ffffffff1660e01b8152600401610b619796959493929190612b71565b6000806111bf6049546001600160a01b031690565b6001600160a01b031663bd02d0f56003602201600a016040516111e291906129a8565b60405190819003812060e083901b6001600160e01b03191682526004820152602401602060405180830381865afa158015611221573d6000803e3d6000fd5b505050506040513d601f19601f820116820180604052508101906112459190612a6f565b9050600061125b6049546001600160a01b031690565b6001600160a01b031663bd02d0f5600360220160090160405161127e91906129a8565b60405190819003812060e083901b6001600160e01b03191682526004820152602401602060405180830381865afa1580156112bd573d6000803e3d6000fd5b505050506040513d601f19601f820116820180604052508101906112e19190612a6f565b90506000611358836112f16121fd565b6001600160a01b03166318160ddd6040518163ffffffff1660e01b8152600401602060405180830381865afa15801561132e573d6000803e3d6000fd5b505050506040513d601f19601f820116820180604052508101906113529190612a6f565b906122ab565b905081811061136b576000935050505090565b6113758282612bd3565b935050505090565b60006113916049546001600160a01b031690565b6001600160a01b031663bd02d0f5601b6113a96121fd565b6113b1612234565b6040516020016113c393929190612bea565b604051602081830303815290604052805190602001206040518263ffffffff1660e01b81526004016113f791815260200190565b602060405180830381865afa158015611414573d6000803e3d6000fd5b505050506040513d601f19601f820116820180604052508101906114389190612a6f565b905090565b600061143861144a6121fd565b6001600160a01b03166318160ddd6040518163ffffffff1660e01b8152600401602060405180830381865afa158015611487573d6000803e3d6000fd5b505050506040513d601f19601f820116820180604052508101906114ab9190612a6f565b6049546040516001600160a01b039091169063bd02d0f5906114cf90602e906129a8565b60405190819003812060e083901b6001600160e01b03191682526004820152602401602060405180830381865afa15801561150e573d6000803e3d6000fd5b505050506040513d601f19601f820116820180604052508101906115329190612a6f565b906122b7565b61154e336000356001600160e01b031916611f73565b61156a5760405162461bcd60e51b81526004016103fe906128e0565b60008460008151811061157f5761157f6129d1565b602002602001015190506000856001875161159a9190612bd3565b815181106115aa576115aa6129d1565b602002602001015190506115bc6121c6565b6040516368c31dd560e01b81526001600160a01b03848116600483015291909116906368c31dd590602401602060405180830381865afa158015611604573d6000803e3d6000fd5b505050506040513d601f19601f820116820180604052508101906116289190612c45565b61169a5760405162461bcd60e51b815260206004820152603760248201527f5068616e746f6d41646d696e3a20666972737420746f6b656e20696e2070617460448201527f682069736e27742061207265736572766520746f6b656e00000000000000000060648201526084016103fe565b6116a26121c6565b6040516368c31dd560e01b81526001600160a01b03838116600483015291909116906368c31dd590602401602060405180830381865afa1580156116ea573d6000803e3d6000fd5b505050506040513d601f19601f8201168201806040525081019061170e9190612c45565b6117795760405162461bcd60e51b815260206004820152603660248201527f5068616e746f6d41646d696e3a206c61737420746f6b656e20696e20706174686044820152751034b9b713ba1030903932b9b2b93b32903a37b5b2b760511b60648201526084016103fe565b84826001600160a01b03166370a082316117916122cc565b6040516001600160e01b031960e084901b1681526001600160a01b039091166004820152602401602060405180830381865afa1580156117d5573d6000803e3d6000fd5b505050506040513d601f19601f820116820180604052508101906117f99190612a6f565b10156118625760405162461bcd60e51b815260206004820152603260248201527f5068616e746f6d41646d696e3a205661756c742062616c616e6365206f66206f6044820152717574546f6b656e20697320746f6f206c6f7760701b60648201526084016103fe565b61186a612303565b6001600160a01b0316639c221fdc61188a6049546001600160a01b031690565b6001600160a01b03166321f8a72160036039016000016040516118ad91906129a8565b60405190819003812060e083901b6001600160e01b03191682526004820152602401602060405180830381865afa1580156118ec573d6000803e3d6000fd5b505050506040513d601f19601f8201168201806040525081019061191091906129b4565b87878a8861191c6120e2565b61192461233a565b6040518863ffffffff1660e01b81526004016119469796959493929190612c67565b600060405180830381600087803b15801561196057600080fd5b505af1158015611974573d6000803e3d6000fd5b50505050505050505050565b611996336000356001600160e01b031916611f73565b6119b25760405162461bcd60e51b81526004016103fe906128e0565b6049546040516001600160a01b0390911690632c62ff2d906119dd90602c9086908690602001612cf1565b604051602081830303815290604052805190602001206040518263ffffffff1660e01b8152600401611a1191815260200190565b600060405180830381600087803b158015611a2b57600080fd5b505af1158015611a3f573d6000803e3d6000fd5b50505050611a556049546001600160a01b031690565b6001600160a01b031663e2b202bf6003602201600e018484604051602001611a7f93929190612cf1565b604051602081830303815290604052805190602001206040518263ffffffff1660e01b8152600401610b6191815260200190565b6000611ac76049546001600160a01b031690565b6001600160a01b0316637ae1cfca600360220160070184604051602001611aef929190612a15565b604051602081830303815290604052805190602001206040518263ffffffff1660e01b8152600401611b2391815260200190565b602060405180830381865afa158015611b40573d6000803e3d6000fd5b505050506040513d601f19601f82011682018060405250810190611b649190612c45565b92915050565b6000806000611b816049546001600160a01b031690565b6001600160a01b0316637ae1cfca60036022016007018787604051602001611bab93929190612cf1565b604051602081830303815290604052805190602001206040518263ffffffff1660e01b8152600401611bdf91815260200190565b602060405180830381865afa158015611bfc573d6000803e3d6000fd5b505050506040513d601f19601f82011682018060405250810190611c209190612c45565b90506000611c366049546001600160a01b031690565b6001600160a01b031663bd02d0f56003602201600e018888604051602001611c6093929190612cf1565b604051602081830303815290604052805190602001206040518263ffffffff1660e01b8152600401611c9491815260200190565b602060405180830381865afa158015611cb1573d6000803e3d6000fd5b505050506040513d601f19601f82011682018060405250810190611cd59190612a6f565b919350909150505b9250929050565b611cfa336000356001600160e01b031916611f73565b611d165760405162461bcd60e51b81526004016103fe906128e0565b6049546040516001600160a01b039091169063ca446dd990611d3a90603c906129a8565b60405190819003812060e083901b6001600160e01b031916825260048201526001600160a01b0385166024820152604401600060405180830381600087803b158015611d8557600080fd5b505af1158015611d99573d6000803e3d6000fd5b50505050611daf6049546001600160a01b031690565b6001600160a01b031663ca446dd96003603901600101604051611dd291906129a8565b60405190819003812060e083901b6001600160e01b031916825260048201526001600160a01b0384166024820152604401610b61565b611e1e336000356001600160e01b031916611f73565b611e3a5760405162461bcd60e51b81526004016103fe906128e0565b6049546040516001600160a01b039091169063abfdcced90611e6590602c9087908790602001612cf1565b60408051601f198184030181529082905280516020909101206001600160e01b031960e084901b168252600482015260016024820152604401600060405180830381600087803b158015611eb857600080fd5b505af1158015611ecc573d6000803e3d6000fd5b50505050611ee26049546001600160a01b031690565b6001600160a01b031663e2a4853a8484604051602001611f03929190612d11565b60408051601f198184030181529082905280516020909101206001600160e01b031960e084901b168252600482015260248101849052604401600060405180830381600087803b158015611f5657600080fd5b505af1158015611f6a573d6000803e3d6000fd5b50505050505050565b60006001600160a01b038316301415611f8e57506001611b64565b604c546001600160a01b0384811691161415611fac57506001611b64565b604b546001600160a01b0316611fc457506000611b64565b604b5460405163b700961360e01b81526001600160a01b0385811660048301523060248301526001600160e01b0319851660448301529091169063b700961390606401602060405180830381865afa158015612024573d6000803e3d6000fd5b505050506040513d601f19601f8201168201806040525081019061095b9190612c45565b600061205c6049546001600160a01b031690565b6001600160a01b03166321f8a721600360000160060160405161207f91906129a8565b60405190819003812060e083901b6001600160e01b03191682526004820152602401602060405180830381865afa1580156120be573d6000803e3d6000fd5b505050506040513d601f19601f8201168201806040525081019061143891906129b4565b60408051600280825260608083018452926000929190602083019080368337505060405191925061211691601a91506129a8565b604051809103902081600081518110612131576121316129d1565b602090810291909101015260405161214b906018906129a8565b604051809103902081600181518110612166576121666129d1565b6020908102919091010152919050565b604080516001808252818301909252606091600091906020808301908036833750506040519192506121ab91601a91506129a8565b604051809103902081600081518110612166576121666129d1565b60006121da6049546001600160a01b031690565b6001600160a01b03166321f8a7216003600001600b0160405161207f91906129a8565b60006122116049546001600160a01b031690565b6001600160a01b03166321f8a721600360000160050160405161207f91906129a8565b604080516001808252818301909252606091600091906020808301908036833750506040519192506121ab91601991506129a8565b6040805160018082528183019092526060916000919060208083019080368337019050509050670de0b6b3a764000081600081518110612166576121666129d1565b600061095b83836123a3565b600061095b83670de0b6b3a764000084612465565b60006122e06049546001600160a01b031690565b6001600160a01b03166321f8a7216003600001600a0160405161207f91906129a8565b60006123176049546001600160a01b031690565b6001600160a01b03166321f8a7216003600001600e0160405161207f91906129a8565b60408051600280825260608083018452926000929190602083019080368337019050509050670c7d713b49da00008160008151811061237b5761237b6129d1565b60200260200101818152505067016345785d8a000081600181518110612166576121666129d1565b60008080600019848609848602925082811083820303915050670de0b6b3a764000081106123e75760405163698d9a0160e11b8152600481018290526024016103fe565b600080670de0b6b3a76400008688099150506706f05b59d3b1ffff8111826124215780670de0b6b3a7640000850401945050505050611b64565b620400008285030493909111909103600160ee1b02919091177faccb18165bd6fe31ae1cf318dc5b51eee0e1ba569b88cd74c1773b91fac106690201905092915050565b6000808060001985870985870292508281108382030391505080600014156124a05783828161249657612496612d4a565b049250505061095b565b8381106124ca57604051631dcf306360e21b815260048101829052602481018590526044016103fe565b60008486880960026001871981018816978890046003810283188082028403028082028403028082028403028082028403028082028403029081029092039091026000889003889004909101858311909403939093029303949094049190911702949350505050565b60006020828403121561254557600080fd5b5035919050565b6000806020838503121561255f57600080fd5b823567ffffffffffffffff8082111561257757600080fd5b818501915085601f83011261258b57600080fd5b81358181111561259a57600080fd5b8660208260051b85010111156125af57600080fd5b60209290920196919550909350505050565b6001600160a01b03811681146125d657600080fd5b50565b80356125e4816125c1565b919050565b6000602082840312156125fb57600080fd5b813561095b816125c1565b60008083601f84011261261857600080fd5b50813567ffffffffffffffff81111561263057600080fd5b602083019150836020828501011115611cdd57600080fd5b60008060006040848603121561265d57600080fd5b833567ffffffffffffffff81111561267457600080fd5b61268086828701612606565b9094509250506020840135612694816125c1565b809150509250925092565b600080604083850312156126b257600080fd5b82356126bd816125c1565b915060208301356126cd816125c1565b809150509250929050565b600080600080606085870312156126ee57600080fd5b843567ffffffffffffffff81111561270557600080fd5b61271187828801612606565b9095509350506020850135612725816125c1565b9396929550929360400135925050565b6000806040838503121561274857600080fd5b8235612753816125c1565b946020939093013593505050565b634e487b7160e01b600052604160045260246000fd5b6000806000806080858703121561278d57600080fd5b843567ffffffffffffffff808211156127a557600080fd5b818701915087601f8301126127b957600080fd5b81356020828211156127cd576127cd612761565b8160051b604051601f19603f830116810181811086821117156127f2576127f2612761565b60405292835281830193508481018201928b84111561281057600080fd5b948201945b8386101561283557612826866125d9565b85529482019493820193612815565b9b918a01359a505060408901359860600135975095505050505050565b6000806020838503121561286557600080fd5b823567ffffffffffffffff81111561287c57600080fd5b61288885828601612606565b90969095509350505050565b6000806000604084860312156128a957600080fd5b833567ffffffffffffffff8111156128c057600080fd5b6128cc86828701612606565b909790965060209590950135949350505050565b602080825260149082015273191ccb585d5d1a0b5d5b985d5d1a1bdc9a5e995960621b604082015260600190565b8054600090600181811c908083168061292857607f831692505b602080841082141561294a57634e487b7160e01b600052602260045260246000fd5b81801561295e576001811461296f5761299c565b60ff1986168952848901965061299c565b60008881526020902060005b868110156129945781548b82015290850190830161297b565b505084890196505b50505050505092915050565b600061095b828461290e565b6000602082840312156129c657600080fd5b815161095b816125c1565b634e487b7160e01b600052603260045260246000fd5b634e487b7160e01b600052601160045260246000fd5b60008219821115612a1057612a106129e7565b500190565b6000612a21828561290e565b60609390931b6001600160601b03191683525050601401919050565b6000612a49828761290e565b8486823760609390931b6001600160601b03191692909301918252506014019392505050565b600060208284031215612a8157600080fd5b5051919050565b604081526000835180604084015260005b81811015612ab65760208187018101516060868401015201612a99565b81811115612ac8576000606083860101525b506001600160a01b0393909316602083015250601f91909101601f191601606001919050565b6000612afa828661290e565b60609490941b6001600160601b031916845250506014820152603401919050565b6000600019821415612b2f57612b2f6129e7565b5060010190565b600081518084526020808501945080840160005b83811015612b6657815187529582019590820190600101612b4a565b509495945050505050565b6001600160a01b038881168252602082018890528681166040830152606082018690528416608082015260e060a08201819052600090612bb390830185612b36565b82810360c0840152612bc58185612b36565b9a9950505050505050505050565b600082821015612be557612be56129e7565b500390565b6000612bf6828661290e565b6bffffffffffffffffffffffff198560601b1681526014810190508351602080860160005b83811015612c3757815185529382019390820190600101612c1b565b509298975050505050505050565b600060208284031215612c5757600080fd5b8151801515811461095b57600080fd5b600060e0820160018060a01b03808b16845260208a8186015289604086015260e0606086015282895180855261010087019150828b01945060005b81811015612cc0578551851683529483019491830191600101612ca2565b505088608087015285810360a0870152612cda8189612b36565b935050505082810360c0840152612bc58185612b36565b6000612cfd828661290e565b838582376000930192835250909392505050565b7f7068616e746f6d2e626f6e64696e672e747970652e766573745f6c656e67746881528183602083013760009101602001908152919050565b634e487b7160e01b600052601260045260246000fdfea264697066735822122045e1bdb1559670e2a10d8051afa4eaa09fb110f25b0a58cf6c1eeaec3da73f0764736f6c634300080a00337068616e746f6d2e626f6e64696e672e757365722e6c6f776573745f6e6f6e63655f7374696c6c5f76657374696e677068616e746f6d2e626f6e64696e672e757365722e6c6f776573745f61737369676e61626c655f6e6f6e63657068616e746f6d2e666f756e6465722e636c61696d732e72656d61696e696e67416d6f756e747068616e746f6d2e616c6c6f6361746f722e746f6b656e732e616464726573732e6461697068616e746f6d2e726f7574696e672e6465785f726f757465725f616464726573737068616e746f6d2e666f756e6465722e636c61696d732e696e697469616c416d6f756e747068616e746f6d2e74726561737572792e6163636f756e745f6b65792e76656e747572656361706974616c7068616e746f6d2e616c6c6f6361746f722e746f6b656e732e616464726573732e6461695f70686d5f6c707068616e746f6d2e726f7574696e672e73706f6f6b795f726f757465725f616464726573737068616e746f6d2e74726561737572792e617070726f7665642e65787465726e616c2e616464726573737068616e746f6d2e626f6e64696e672e757365722e66697273745f756e72656465656d65645f6e6f6e63657068616e746f6d2e726f7574696e672e7370697269745f726f757465725f616464726573737068616e746f6d2e616c6c6f6361746f722e746f6b656e732e64657374696e6174696f6e737068616e746f6d2e626f6e64696e672e76657374735f61745f74696d657374616d707068616e746f6d2e726f7574696e672e7370697269745f666163746f72795f616464726573737068616e746f6d2e616c6c6f6361746f722e746f6b656e732e646573745f70657263656e74616765737068616e746f6d2e74726561737572792e6163636f756e745f6b65792e72657365727665737068616e746f6d2e616c6c6f6361746f722e746f6b656e732e616464726573732e6d696d7068616e746f6d2e726f7574696e672e73706f6f6b795f666163746f72795f616464726573737068616e746f6d2e616c6c6f6361746f722e746f6b656e732e616464726573732e7766746d7068616e746f6d2e616c6c6f6361746f722e746f6b656e732e616464726573732e6465787068616e746f6d2e726f7574696e672e7370697269745f67617567655f616464726573737068616e746f6d2e666f756e6465722e636c61696d732e616c6c6f636174696f6e7068616e746f6d2e726f7574696e672e6465785f666163746f72795f616464726573737068616e746f6d2e676f7665726e6f722e71756f72756d50657263656e746167657068616e746f6d2e676f7665726e6f722e70726f706f73616c5468726573686f6c647068616e746f6d2e7374616b696e672e6e657874526562617365446561646c696e657068616e746f6d2e626f6e64696e672e72656d61696e696e675f7061796f75745f666f727068616e746f6d2e726f7574696e672e7370697269745f67617567655f70726f78795f61646472657373",
  "bytecodeSha1": "da39a3ee5e6b4b0d3255bfef95601890afd80709",
  "compiler": {
    "evm_version": "istanbul",
    "optimizer": {
      "enabled": true,
      "runs": 200
    },
    "version": "0.8.10+commit.fc410830"
  },
  "contractName": "PhantomAdmin",
  "language": "Solidity",
  "natspec": {
    "errors": {
      "PRBMath__MulDivFixedPointOverflow(uint256)": [
        {
          "notice": "Emitted when the result overflows uint256."
        }
      ],
      "PRBMath__MulDivOverflow(uint256,uint256)": [
        {
          "notice": "Emitted when the result overflows uint256."
        }
      ]
    },
    "kind": "dev",
    "methods": {
      "addBondType(bytes,uint256)": {
        "notice": "Add a new bondtype with vesting length in seconds"
      },
      "addTokenToBondingList(address)": {
        "notice": "% Add/Remove tokens from being bondable"
      },
      "infoOfBondType(bytes)": {
        "notice": "Get info about a bond type"
      },
      "rebalanceReserveTokens(address[],uint256,uint256,uint256)": {
        "notice": "Exchange reserves, going via path to do the exchange. The first and last element of the path must be reserve tokens. Transaction will revert if the minInAmount of tokens isn't received for the exchange."
      },
      "removeBondType(bytes)": {
        "notice": "Remove a bond type"
      },
      "setBondLimit(uint256)": {
        "notice": "Set the debt limit for bonding.",
        "params": {
          "limit": "the debt limit expressed as a ratio of PHM total suppyl"
        }
      }
    },
    "title": "PhantomAdmin",
    "version": 1
  },
  "opcodes": "PUSH1 0x80 PUSH1 0x40 MSTORE CALLVALUE DUP1 ISZERO PUSH2 0x10 JUMPI PUSH1 0x0 DUP1 REVERT JUMPDEST POP PUSH1 0x4 CALLDATASIZE LT PUSH2 0x1A9 JUMPI PUSH1 0x0 CALLDATALOAD PUSH1 0xE0 SHR DUP1 PUSH4 0x7A9E5E4B GT PUSH2 0xF9 JUMPI DUP1 PUSH4 0xC4DACD65 GT PUSH2 0x97 JUMPI DUP1 PUSH4 0xE060D974 GT PUSH2 0x71 JUMPI DUP1 PUSH4 0xE060D974 EQ PUSH2 0x359 JUMPI DUP1 PUSH4 0xE252B698 EQ PUSH2 0x37C JUMPI DUP1 PUSH4 0xE82E0ECA EQ PUSH2 0x3A6 JUMPI DUP1 PUSH4 0xF0E1D389 EQ PUSH2 0x3B9 JUMPI PUSH1 0x0 DUP1 REVERT JUMPDEST DUP1 PUSH4 0xC4DACD65 EQ PUSH2 0x32B JUMPI DUP1 PUSH4 0xD8128EE4 EQ PUSH2 0x333 JUMPI DUP1 PUSH4 0xD8ADB3F8 EQ PUSH2 0x346 JUMPI PUSH1 0x0 DUP1 REVERT JUMPDEST DUP1 PUSH4 0x90996966 GT PUSH2 0xD3 JUMPI DUP1 PUSH4 0x90996966 EQ PUSH2 0x2F5 JUMPI DUP1 PUSH4 0x959BFC38 EQ PUSH2 0x308 JUMPI DUP1 PUSH4 0x96C0F784 EQ PUSH2 0x310 JUMPI DUP1 PUSH4 0xBF7E214F EQ PUSH2 0x318 JUMPI PUSH1 0x0 DUP1 REVERT JUMPDEST DUP1 PUSH4 0x7A9E5E4B EQ PUSH2 0x2A4 JUMPI DUP1 PUSH4 0x8B11AD7A EQ PUSH2 0x2B7 JUMPI DUP1 PUSH4 0x8DA5CB5B EQ PUSH2 0x2CA JUMPI PUSH1 0x0 DUP1 REVERT JUMPDEST DUP1 PUSH4 0x3ECD5CA9 GT PUSH2 0x166 JUMPI DUP1 PUSH4 0x66232B2D GT PUSH2 0x140 JUMPI DUP1 PUSH4 0x66232B2D EQ PUSH2 0x263 JUMPI DUP1 PUSH4 0x72ABA793 EQ PUSH2 0x276 JUMPI DUP1 PUSH4 0x734092E6 EQ PUSH2 0x289 JUMPI DUP1 PUSH4 0x75089BC4 EQ PUSH2 0x29C JUMPI PUSH1 0x0 DUP1 REVERT JUMPDEST DUP1 PUSH4 0x3ECD5CA9 EQ PUSH2 0x22A JUMPI DUP1 PUSH4 0x456AAA3F EQ PUSH2 0x23D JUMPI DUP1 PUSH4 0x4B02246D EQ PUSH2 0x250 JUMPI PUSH1 0x0 DUP1 REVERT JUMPDEST DUP1 PUSH4 0x2D0D868 EQ PUSH2 0x1AE JUMPI DUP1 PUSH4 0x661768B EQ PUSH2 0x1C3 JUMPI DUP1 PUSH4 0xC221F73 EQ PUSH2 0x1CB JUMPI DUP1 PUSH4 0xF5AE295 EQ PUSH2 0x1DE JUMPI DUP1 PUSH4 0x13AF4035 EQ PUSH2 0x1F1 JUMPI DUP1 PUSH4 0x25625E43 EQ PUSH2 0x204 JUMPI JUMPDEST PUSH1 0x0 DUP1 REVERT JUMPDEST PUSH2 0x1C1 PUSH2 0x1BC CALLDATASIZE PUSH1 0x4 PUSH2 0x2533 JUMP JUMPDEST PUSH2 0x3CC JUMP JUMPDEST STOP JUMPDEST PUSH2 0x1C1 PUSH2 0x48F JUMP JUMPDEST PUSH2 0x1C1 PUSH2 0x1D9 CALLDATASIZE PUSH1 0x4 PUSH2 0x254C JUMP JUMPDEST PUSH2 0x71A JUMP JUMPDEST PUSH2 0x1C1 PUSH2 0x1EC CALLDATASIZE PUSH1 0x4 PUSH2 0x25E9 JUMP JUMPDEST PUSH2 0x798 JUMP JUMPDEST PUSH2 0x1C1 PUSH2 0x1FF CALLDATASIZE PUSH1 0x4 PUSH2 0x25E9 JUMP JUMPDEST PUSH2 0x827 JUMP JUMPDEST PUSH2 0x217 PUSH2 0x212 CALLDATASIZE PUSH1 0x4 PUSH2 0x2648 JUMP JUMPDEST PUSH2 0x8A3 JUMP JUMPDEST PUSH1 0x40 MLOAD SWAP1 DUP2 MSTORE PUSH1 0x20 ADD JUMPDEST PUSH1 0x40 MLOAD DUP1 SWAP2 SUB SWAP1 RETURN JUMPDEST PUSH2 0x1C1 PUSH2 0x238 CALLDATASIZE PUSH1 0x4 PUSH2 0x25E9 JUMP JUMPDEST PUSH2 0x962 JUMP JUMPDEST PUSH2 0x1C1 PUSH2 0x24B CALLDATASIZE PUSH1 0x4 PUSH2 0x2533 JUMP JUMPDEST PUSH2 0x9FB JUMP JUMPDEST PUSH2 0x1C1 PUSH2 0x25E CALLDATASIZE PUSH1 0x4 PUSH2 0x269F JUMP JUMPDEST PUSH2 0xAD9 JUMP JUMPDEST PUSH2 0x217 PUSH2 0x271 CALLDATASIZE PUSH1 0x4 PUSH2 0x25E9 JUMP JUMPDEST PUSH2 0xB97 JUMP JUMPDEST PUSH2 0x217 PUSH2 0x284 CALLDATASIZE PUSH1 0x4 PUSH2 0x25E9 JUMP JUMPDEST PUSH2 0xC9B JUMP JUMPDEST PUSH2 0x1C1 PUSH2 0x297 CALLDATASIZE PUSH1 0x4 PUSH2 0x254C JUMP JUMPDEST PUSH2 0xD97 JUMP JUMPDEST PUSH2 0x1C1 PUSH2 0xE10 JUMP JUMPDEST PUSH2 0x1C1 PUSH2 0x2B2 CALLDATASIZE PUSH1 0x4 PUSH2 0x25E9 JUMP JUMPDEST PUSH2 0xFD7 JUMP JUMPDEST PUSH2 0x1C1 PUSH2 0x2C5 CALLDATASIZE PUSH1 0x4 PUSH2 0x26D8 JUMP JUMPDEST PUSH2 0x1053 JUMP JUMPDEST PUSH1 0x4C SLOAD PUSH2 0x2DD SWAP1 PUSH1 0x1 PUSH1 0x1 PUSH1 0xA0 SHL SUB AND DUP2 JUMP JUMPDEST PUSH1 0x40 MLOAD PUSH1 0x1 PUSH1 0x1 PUSH1 0xA0 SHL SUB SWAP1 SWAP2 AND DUP2 MSTORE PUSH1 0x20 ADD PUSH2 0x221 JUMP JUMPDEST PUSH2 0x1C1 PUSH2 0x303 CALLDATASIZE PUSH1 0x4 PUSH2 0x2735 JUMP JUMPDEST PUSH2 0x1123 JUMP JUMPDEST PUSH2 0x217 PUSH2 0x11AA JUMP JUMPDEST PUSH2 0x217 PUSH2 0x137D JUMP JUMPDEST PUSH1 0x4B SLOAD PUSH2 0x2DD SWAP1 PUSH1 0x1 PUSH1 0x1 PUSH1 0xA0 SHL SUB AND DUP2 JUMP JUMPDEST PUSH2 0x217 PUSH2 0x143D JUMP JUMPDEST PUSH2 0x1C1 PUSH2 0x341 CALLDATASIZE PUSH1 0x4 PUSH2 0x2777 JUMP JUMPDEST PUSH2 0x1538 JUMP JUMPDEST PUSH2 0x1C1 PUSH2 0x354 CALLDATASIZE PUSH1 0x4 PUSH2 0x2852 JUMP JUMPDEST PUSH2 0x1980 JUMP JUMPDEST PUSH2 0x36C PUSH2 0x367 CALLDATASIZE PUSH1 0x4 PUSH2 0x25E9 JUMP JUMPDEST PUSH2 0x1AB3 JUMP JUMPDEST PUSH1 0x40 MLOAD SWAP1 ISZERO ISZERO DUP2 MSTORE PUSH1 0x20 ADD PUSH2 0x221 JUMP JUMPDEST PUSH2 0x38F PUSH2 0x38A CALLDATASIZE PUSH1 0x4 PUSH2 0x2852 JUMP JUMPDEST PUSH2 0x1B6A JUMP JUMPDEST PUSH1 0x40 DUP1 MLOAD SWAP3 ISZERO ISZERO DUP4 MSTORE PUSH1 0x20 DUP4 ADD SWAP2 SWAP1 SWAP2 MSTORE ADD PUSH2 0x221 JUMP JUMPDEST PUSH2 0x1C1 PUSH2 0x3B4 CALLDATASIZE PUSH1 0x4 PUSH2 0x269F JUMP JUMPDEST PUSH2 0x1CE4 JUMP JUMPDEST PUSH2 0x1C1 PUSH2 0x3C7 CALLDATASIZE PUSH1 0x4 PUSH2 0x2894 JUMP JUMPDEST PUSH2 0x1E08 JUMP JUMPDEST PUSH2 0x3E2 CALLER PUSH1 0x0 CALLDATALOAD PUSH1 0x1 PUSH1 0x1 PUSH1 0xE0 SHL SUB NOT AND PUSH2 0x1F73 JUMP JUMPDEST PUSH2 0x407 JUMPI PUSH1 0x40 MLOAD PUSH3 0x461BCD PUSH1 0xE5 SHL DUP2 MSTORE PUSH1 0x4 ADD PUSH2 0x3FE SWAP1 PUSH2 0x28E0 JUMP JUMPDEST PUSH1 0x40 MLOAD DUP1 SWAP2 SUB SWAP1 REVERT JUMPDEST PUSH1 0x49 SLOAD PUSH1 0x40 MLOAD PUSH4 0x7152429D PUSH1 0xE1 SHL DUP2 MSTORE PUSH32 0x4C0AB503E4A10B4D35A4531A716B2BF7E03B8F828A21472AA24161EA45B085C5 PUSH1 0x4 DUP3 ADD MSTORE PUSH1 0x24 DUP2 ADD DUP4 SWAP1 MSTORE PUSH1 0x1 PUSH1 0x1 PUSH1 0xA0 SHL SUB SWAP1 SWAP2 AND SWAP1 PUSH4 0xE2A4853A SWAP1 PUSH1 0x44 ADD JUMPDEST PUSH1 0x0 PUSH1 0x40 MLOAD DUP1 DUP4 SUB DUP2 PUSH1 0x0 DUP8 DUP1 EXTCODESIZE ISZERO DUP1 ISZERO PUSH2 0x474 JUMPI PUSH1 0x0 DUP1 REVERT JUMPDEST POP GAS CALL ISZERO DUP1 ISZERO PUSH2 0x488 JUMPI RETURNDATASIZE PUSH1 0x0 DUP1 RETURNDATACOPY RETURNDATASIZE PUSH1 0x0 REVERT JUMPDEST POP POP POP POP POP JUMP JUMPDEST PUSH2 0x4A5 CALLER PUSH1 0x0 CALLDATALOAD PUSH1 0x1 PUSH1 0x1 PUSH1 0xE0 SHL SUB NOT AND PUSH2 0x1F73 JUMP JUMPDEST PUSH2 0x4C1 JUMPI PUSH1 0x40 MLOAD PUSH3 0x461BCD PUSH1 0xE5 SHL DUP2 MSTORE PUSH1 0x4 ADD PUSH2 0x3FE SWAP1 PUSH2 0x28E0 JUMP JUMPDEST PUSH1 0x49 SLOAD PUSH1 0x40 MLOAD PUSH1 0x1 PUSH1 0x1 PUSH1 0xA0 SHL SUB SWAP1 SWAP2 AND SWAP1 PUSH4 0xCA446DD9 SWAP1 PUSH2 0x4E5 SWAP1 PUSH1 0x3C SWAP1 PUSH2 0x29A8 JUMP JUMPDEST PUSH1 0x40 MLOAD DUP1 SWAP2 SUB SWAP1 KECCAK256 PUSH2 0x4FF PUSH1 0x49 SLOAD PUSH1 0x1 PUSH1 0x1 PUSH1 0xA0 SHL SUB AND SWAP1 JUMP JUMPDEST PUSH1 0x1 PUSH1 0x1 PUSH1 0xA0 SHL SUB AND PUSH4 0x21F8A721 PUSH1 0x3 PUSH1 0x39 ADD PUSH1 0x2 ADD PUSH1 0x40 MLOAD PUSH2 0x522 SWAP2 SWAP1 PUSH2 0x29A8 JUMP JUMPDEST PUSH1 0x40 MLOAD SWAP1 DUP2 SWAP1 SUB DUP2 KECCAK256 PUSH1 0xE0 DUP4 SWAP1 SHL PUSH1 0x1 PUSH1 0x1 PUSH1 0xE0 SHL SUB NOT AND DUP3 MSTORE PUSH1 0x4 DUP3 ADD MSTORE PUSH1 0x24 ADD PUSH1 0x20 PUSH1 0x40 MLOAD DUP1 DUP4 SUB DUP2 DUP7 GAS STATICCALL ISZERO DUP1 ISZERO PUSH2 0x561 JUMPI RETURNDATASIZE PUSH1 0x0 DUP1 RETURNDATACOPY RETURNDATASIZE PUSH1 0x0 REVERT JUMPDEST POP POP POP POP PUSH1 0x40 MLOAD RETURNDATASIZE PUSH1 0x1F NOT PUSH1 0x1F DUP3 ADD AND DUP3 ADD DUP1 PUSH1 0x40 MSTORE POP DUP2 ADD SWAP1 PUSH2 0x585 SWAP2 SWAP1 PUSH2 0x29B4 JUMP JUMPDEST PUSH1 0x40 MLOAD PUSH1 0x1 PUSH1 0x1 PUSH1 0xE0 SHL SUB NOT PUSH1 0xE0 DUP6 SWAP1 SHL AND DUP2 MSTORE PUSH1 0x4 DUP2 ADD SWAP3 SWAP1 SWAP3 MSTORE PUSH1 0x1 PUSH1 0x1 PUSH1 0xA0 SHL SUB AND PUSH1 0x24 DUP3 ADD MSTORE PUSH1 0x44 ADD PUSH1 0x0 PUSH1 0x40 MLOAD DUP1 DUP4 SUB DUP2 PUSH1 0x0 DUP8 DUP1 EXTCODESIZE ISZERO DUP1 ISZERO PUSH2 0x5CC JUMPI PUSH1 0x0 DUP1 REVERT JUMPDEST POP GAS CALL ISZERO DUP1 ISZERO PUSH2 0x5E0 JUMPI RETURNDATASIZE PUSH1 0x0 DUP1 RETURNDATACOPY RETURNDATASIZE PUSH1 0x0 REVERT JUMPDEST POP POP POP POP PUSH2 0x5F6 PUSH1 0x49 SLOAD PUSH1 0x1 PUSH1 0x1 PUSH1 0xA0 SHL SUB AND SWAP1 JUMP JUMPDEST PUSH1 0x1 PUSH1 0x1 PUSH1 0xA0 SHL SUB AND PUSH4 0xCA446DD9 PUSH1 0x3 PUSH1 0x39 ADD PUSH1 0x1 ADD PUSH1 0x40 MLOAD PUSH2 0x619 SWAP2 SWAP1 PUSH2 0x29A8 JUMP JUMPDEST PUSH1 0x40 MLOAD DUP1 SWAP2 SUB SWAP1 KECCAK256 PUSH2 0x633 PUSH1 0x49 SLOAD PUSH1 0x1 PUSH1 0x1 PUSH1 0xA0 SHL SUB AND SWAP1 JUMP JUMPDEST PUSH1 0x1 PUSH1 0x1 PUSH1 0xA0 SHL SUB AND PUSH4 0x21F8A721 PUSH1 0x3 PUSH1 0x39 ADD PUSH1 0x3 ADD PUSH1 0x40 MLOAD PUSH2 0x656 SWAP2 SWAP1 PUSH2 0x29A8 JUMP JUMPDEST PUSH1 0x40 MLOAD SWAP1 DUP2 SWAP1 SUB DUP2 KECCAK256 PUSH1 0xE0 DUP4 SWAP1 SHL PUSH1 0x1 PUSH1 0x1 PUSH1 0xE0 SHL SUB NOT AND DUP3 MSTORE PUSH1 0x4 DUP3 ADD MSTORE PUSH1 0x24 ADD PUSH1 0x20 PUSH1 0x40 MLOAD DUP1 DUP4 SUB DUP2 DUP7 GAS STATICCALL ISZERO DUP1 ISZERO PUSH2 0x695 JUMPI RETURNDATASIZE PUSH1 0x0 DUP1 RETURNDATACOPY RETURNDATASIZE PUSH1 0x0 REVERT JUMPDEST POP POP POP POP PUSH1 0x40 MLOAD RETURNDATASIZE PUSH1 0x1F NOT PUSH1 0x1F DUP3 ADD AND DUP3 ADD DUP1 PUSH1 0x40 MSTORE POP DUP2 ADD SWAP1 PUSH2 0x6B9 SWAP2 SWAP1 PUSH2 0x29B4 JUMP JUMPDEST PUSH1 0x40 MLOAD PUSH1 0x1 PUSH1 0x1 PUSH1 0xE0 SHL SUB NOT PUSH1 0xE0 DUP6 SWAP1 SHL AND DUP2 MSTORE PUSH1 0x4 DUP2 ADD SWAP3 SWAP1 SWAP3 MSTORE PUSH1 0x1 PUSH1 0x1 PUSH1 0xA0 SHL SUB AND PUSH1 0x24 DUP3 ADD MSTORE PUSH1 0x44 ADD PUSH1 0x0 PUSH1 0x40 MLOAD DUP1 DUP4 SUB DUP2 PUSH1 0x0 DUP8 DUP1 EXTCODESIZE ISZERO DUP1 ISZERO PUSH2 0x700 JUMPI PUSH1 0x0 DUP1 REVERT JUMPDEST POP GAS CALL ISZERO DUP1 ISZERO PUSH2 0x714 JUMPI RETURNDATASIZE PUSH1 0x0 DUP1 RETURNDATACOPY RETURNDATASIZE PUSH1 0x0 REVERT JUMPDEST POP POP POP POP JUMP JUMPDEST PUSH2 0x730 CALLER PUSH1 0x0 CALLDATALOAD PUSH1 0x1 PUSH1 0x1 PUSH1 0xE0 SHL SUB NOT AND PUSH2 0x1F73 JUMP JUMPDEST PUSH2 0x74C JUMPI PUSH1 0x40 MLOAD PUSH3 0x461BCD PUSH1 0xE5 SHL DUP2 MSTORE PUSH1 0x4 ADD PUSH2 0x3FE SWAP1 PUSH2 0x28E0 JUMP JUMPDEST PUSH1 0x0 JUMPDEST DUP2 DUP2 LT ISZERO PUSH2 0x793 JUMPI PUSH2 0x781 DUP4 DUP4 DUP4 DUP2 DUP2 LT PUSH2 0x76C JUMPI PUSH2 0x76C PUSH2 0x29D1 JUMP JUMPDEST SWAP1 POP PUSH1 0x20 MUL ADD PUSH1 0x20 DUP2 ADD SWAP1 PUSH2 0x1EC SWAP2 SWAP1 PUSH2 0x25E9 JUMP JUMPDEST PUSH2 0x78C PUSH1 0x1 DUP3 PUSH2 0x29FD JUMP JUMPDEST SWAP1 POP PUSH2 0x74F JUMP JUMPDEST POP POP POP JUMP JUMPDEST PUSH2 0x7AE CALLER PUSH1 0x0 CALLDATALOAD PUSH1 0x1 PUSH1 0x1 PUSH1 0xE0 SHL SUB NOT AND PUSH2 0x1F73 JUMP JUMPDEST PUSH2 0x7CA JUMPI PUSH1 0x40 MLOAD PUSH3 0x461BCD PUSH1 0xE5 SHL DUP2 MSTORE PUSH1 0x4 ADD PUSH2 0x3FE SWAP1 PUSH2 0x28E0 JUMP JUMPDEST PUSH1 0x49 SLOAD PUSH1 0x40 MLOAD PUSH1 0x1 PUSH1 0x1 PUSH1 0xA0 SHL SUB SWAP1 SWAP2 AND SWAP1 PUSH4 0x2C62FF2D SWAP1 PUSH2 0x7F3 SWAP1 PUSH1 0x2C SWAP1 DUP6 SWAP1 PUSH1 0x20 ADD PUSH2 0x2A15 JUMP JUMPDEST PUSH1 0x40 MLOAD PUSH1 0x20 DUP2 DUP4 SUB SUB DUP2 MSTORE SWAP1 PUSH1 0x40 MSTORE DUP1 MLOAD SWAP1 PUSH1 0x20 ADD KECCAK256 PUSH1 0x40 MLOAD DUP3 PUSH4 0xFFFFFFFF AND PUSH1 0xE0 SHL DUP2 MSTORE PUSH1 0x4 ADD PUSH2 0x45A SWAP2 DUP2 MSTORE PUSH1 0x20 ADD SWAP1 JUMP JUMPDEST PUSH2 0x83D CALLER PUSH1 0x0 CALLDATALOAD PUSH1 0x1 PUSH1 0x1 PUSH1 0xE0 SHL SUB NOT AND PUSH2 0x1F73 JUMP JUMPDEST PUSH2 0x859 JUMPI PUSH1 0x40 MLOAD PUSH3 0x461BCD PUSH1 0xE5 SHL DUP2 MSTORE PUSH1 0x4 ADD PUSH2 0x3FE SWAP1 PUSH2 0x28E0 JUMP JUMPDEST PUSH1 0x4C DUP1 SLOAD PUSH1 0x1 PUSH1 0x1 PUSH1 0xA0 SHL SUB NOT AND PUSH1 0x1 PUSH1 0x1 PUSH1 0xA0 SHL SUB DUP4 AND SWAP1 DUP2 OR SWAP1 SWAP2 SSTORE PUSH1 0x40 MLOAD PUSH32 0xCE241D7CA1F669FEE44B6FC00B8EBA2DF3BB514EED0F6F668F8F89096E81ED94 SWAP1 PUSH1 0x0 SWAP1 LOG2 POP JUMP JUMPDEST PUSH1 0x0 PUSH2 0x8B7 PUSH1 0x49 SLOAD PUSH1 0x1 PUSH1 0x1 PUSH1 0xA0 SHL SUB AND SWAP1 JUMP JUMPDEST PUSH1 0x1 PUSH1 0x1 PUSH1 0xA0 SHL SUB AND PUSH4 0xBD02D0F5 PUSH1 0x3 PUSH1 0x22 ADD PUSH1 0x8 ADD DUP7 DUP7 DUP7 PUSH1 0x40 MLOAD PUSH1 0x20 ADD PUSH2 0x8E3 SWAP5 SWAP4 SWAP3 SWAP2 SWAP1 PUSH2 0x2A3D JUMP JUMPDEST PUSH1 0x40 MLOAD PUSH1 0x20 DUP2 DUP4 SUB SUB DUP2 MSTORE SWAP1 PUSH1 0x40 MSTORE DUP1 MLOAD SWAP1 PUSH1 0x20 ADD KECCAK256 PUSH1 0x40 MLOAD DUP3 PUSH4 0xFFFFFFFF AND PUSH1 0xE0 SHL DUP2 MSTORE PUSH1 0x4 ADD PUSH2 0x917 SWAP2 DUP2 MSTORE PUSH1 0x20 ADD SWAP1 JUMP JUMPDEST PUSH1 0x20 PUSH1 0x40 MLOAD DUP1 DUP4 SUB DUP2 DUP7 GAS STATICCALL ISZERO DUP1 ISZERO PUSH2 0x934 JUMPI RETURNDATASIZE PUSH1 0x0 DUP1 RETURNDATACOPY RETURNDATASIZE PUSH1 0x0 REVERT JUMPDEST POP POP POP POP PUSH1 0x40 MLOAD RETURNDATASIZE PUSH1 0x1F NOT PUSH1 0x1F DUP3 ADD AND DUP3 ADD DUP1 PUSH1 0x40 MSTORE POP DUP2 ADD SWAP1 PUSH2 0x958 SWAP2 SWAP1 PUSH2 0x2A6F JUMP JUMPDEST SWAP1 POP JUMPDEST SWAP4 SWAP3 POP POP POP JUMP JUMPDEST PUSH2 0x978 CALLER PUSH1 0x0 CALLDATALOAD PUSH1 0x1 PUSH1 0x1 PUSH1 0xE0 SHL SUB NOT AND PUSH2 0x1F73 JUMP JUMPDEST PUSH2 0x994 JUMPI PUSH1 0x40 MLOAD PUSH3 0x461BCD PUSH1 0xE5 SHL DUP2 MSTORE PUSH1 0x4 ADD PUSH2 0x3FE SWAP1 PUSH2 0x28E0 JUMP JUMPDEST PUSH1 0x49 SLOAD PUSH1 0x40 MLOAD PUSH1 0x1 PUSH1 0x1 PUSH1 0xA0 SHL SUB SWAP1 SWAP2 AND SWAP1 PUSH4 0xABFDCCED SWAP1 PUSH2 0x9BD SWAP1 PUSH1 0x2C SWAP1 DUP6 SWAP1 PUSH1 0x20 ADD PUSH2 0x2A15 JUMP JUMPDEST PUSH1 0x40 DUP1 MLOAD PUSH1 0x1F NOT DUP2 DUP5 SUB ADD DUP2 MSTORE SWAP1 DUP3 SWAP1 MSTORE DUP1 MLOAD PUSH1 0x20 SWAP1 SWAP2 ADD KECCAK256 PUSH1 0x1 PUSH1 0x1 PUSH1 0xE0 SHL SUB NOT PUSH1 0xE0 DUP5 SWAP1 SHL AND DUP3 MSTORE PUSH1 0x4 DUP3 ADD MSTORE PUSH1 0x1 PUSH1 0x24 DUP3 ADD MSTORE PUSH1 0x44 ADD PUSH2 0x45A JUMP JUMPDEST PUSH2 0xA11 CALLER PUSH1 0x0 CALLDATALOAD PUSH1 0x1 PUSH1 0x1 PUSH1 0xE0 SHL SUB NOT AND PUSH2 0x1F73 JUMP JUMPDEST PUSH2 0xA2D JUMPI PUSH1 0x40 MLOAD PUSH3 0x461BCD PUSH1 0xE5 SHL DUP2 MSTORE PUSH1 0x4 ADD PUSH2 0x3FE SWAP1 PUSH2 0x28E0 JUMP JUMPDEST PUSH8 0xDE0B6B3A7640000 DUP2 GT ISZERO PUSH2 0xAA4 JUMPI PUSH1 0x40 MLOAD PUSH3 0x461BCD PUSH1 0xE5 SHL DUP2 MSTORE PUSH1 0x20 PUSH1 0x4 DUP3 ADD MSTORE PUSH1 0x36 PUSH1 0x24 DUP3 ADD MSTORE PUSH32 0x72657761726452617465206D757374206265206C657373207468616E206F7220 PUSH1 0x44 DUP3 ADD MSTORE PUSH22 0x657571616C20746F203165313820616B612031303025 PUSH1 0x50 SHL PUSH1 0x64 DUP3 ADD MSTORE PUSH1 0x84 ADD PUSH2 0x3FE JUMP JUMPDEST PUSH2 0xAAC PUSH2 0x2048 JUMP JUMPDEST PUSH1 0x1 PUSH1 0x1 PUSH1 0xA0 SHL SUB AND PUSH4 0x9EF3A261 DUP3 PUSH1 0x40 MLOAD DUP3 PUSH4 0xFFFFFFFF AND PUSH1 0xE0 SHL DUP2 MSTORE PUSH1 0x4 ADD PUSH2 0x45A SWAP2 DUP2 MSTORE PUSH1 0x20 ADD SWAP1 JUMP JUMPDEST PUSH2 0xAEF CALLER PUSH1 0x0 CALLDATALOAD PUSH1 0x1 PUSH1 0x1 PUSH1 0xE0 SHL SUB NOT AND PUSH2 0x1F73 JUMP JUMPDEST PUSH2 0xB0B JUMPI PUSH1 0x40 MLOAD PUSH3 0x461BCD PUSH1 0xE5 SHL DUP2 MSTORE PUSH1 0x4 ADD PUSH2 0x3FE SWAP1 PUSH2 0x28E0 JUMP JUMPDEST PUSH1 0x49 SLOAD PUSH1 0x40 MLOAD PUSH1 0x1 PUSH1 0x1 PUSH1 0xA0 SHL SUB SWAP1 SWAP2 AND SWAP1 PUSH4 0x4BAD105A SWAP1 PUSH2 0xB34 SWAP1 PUSH1 0x10 SWAP1 DUP6 SWAP1 PUSH1 0x20 ADD PUSH2 0x2A15 JUMP JUMPDEST PUSH1 0x40 MLOAD PUSH1 0x20 DUP2 DUP4 SUB SUB DUP2 MSTORE SWAP1 PUSH1 0x40 MSTORE DUP5 PUSH1 0x40 MLOAD DUP4 PUSH4 0xFFFFFFFF AND PUSH1 0xE0 SHL DUP2 MSTORE PUSH1 0x4 ADD PUSH2 0xB61 SWAP3 SWAP2 SWAP1 PUSH2 0x2A88 JUMP JUMPDEST PUSH1 0x0 PUSH1 0x40 MLOAD DUP1 DUP4 SUB DUP2 PUSH1 0x0 DUP8 DUP1 EXTCODESIZE ISZERO DUP1 ISZERO PUSH2 0xB7B JUMPI PUSH1 0x0 DUP1 REVERT JUMPDEST POP GAS CALL ISZERO DUP1 ISZERO PUSH2 0xB8F JUMPI RETURNDATASIZE PUSH1 0x0 DUP1 RETURNDATACOPY RETURNDATASIZE PUSH1 0x0 REVERT JUMPDEST POP POP POP POP POP POP JUMP JUMPDEST PUSH1 0x0 DUP1 PUSH2 0xBA2 PUSH2 0x20E2 JUMP JUMPDEST SWAP1 POP PUSH1 0x0 DUP1 JUMPDEST DUP3 MLOAD DUP2 LT ISZERO PUSH2 0xC93 JUMPI PUSH1 0x49 SLOAD PUSH1 0x1 PUSH1 0x1 PUSH1 0xA0 SHL SUB AND PUSH1 0x1 PUSH1 0x1 PUSH1 0xA0 SHL SUB AND PUSH4 0xBD02D0F5 PUSH1 0x3 PUSH1 0x14 ADD PUSH1 0x4 ADD DUP8 DUP7 DUP6 DUP2 MLOAD DUP2 LT PUSH2 0xBE6 JUMPI PUSH2 0xBE6 PUSH2 0x29D1 JUMP JUMPDEST PUSH1 0x20 MUL PUSH1 0x20 ADD ADD MLOAD PUSH1 0x40 MLOAD PUSH1 0x20 ADD PUSH2 0xC00 SWAP4 SWAP3 SWAP2 SWAP1 PUSH2 0x2AEE JUMP JUMPDEST PUSH1 0x40 MLOAD PUSH1 0x20 DUP2 DUP4 SUB SUB DUP2 MSTORE SWAP1 PUSH1 0x40 MSTORE DUP1 MLOAD SWAP1 PUSH1 0x20 ADD KECCAK256 PUSH1 0x40 MLOAD DUP3 PUSH4 0xFFFFFFFF AND PUSH1 0xE0 SHL DUP2 MSTORE PUSH1 0x4 ADD PUSH2 0xC34 SWAP2 DUP2 MSTORE PUSH1 0x20 ADD SWAP1 JUMP JUMPDEST PUSH1 0x20 PUSH1 0x40 MLOAD DUP1 DUP4 SUB DUP2 DUP7 GAS STATICCALL ISZERO DUP1 ISZERO PUSH2 0xC51 JUMPI RETURNDATASIZE PUSH1 0x0 DUP1 RETURNDATACOPY RETURNDATASIZE PUSH1 0x0 REVERT JUMPDEST POP POP POP POP PUSH1 0x40 MLOAD RETURNDATASIZE PUSH1 0x1F NOT PUSH1 0x1F DUP3 ADD AND DUP3 ADD DUP1 PUSH1 0x40 MSTORE POP DUP2 ADD SWAP1 PUSH2 0xC75 SWAP2 SWAP1 PUSH2 0x2A6F JUMP JUMPDEST PUSH2 0xC7F SWAP1 DUP4 PUSH2 0x29FD JUMP JUMPDEST SWAP2 POP DUP1 PUSH2 0xC8B DUP2 PUSH2 0x2B1B JUMP JUMPDEST SWAP2 POP POP PUSH2 0xBA8 JUMP JUMPDEST POP SWAP4 SWAP3 POP POP POP JUMP JUMPDEST PUSH1 0x0 DUP1 PUSH2 0xCA6 PUSH2 0x2176 JUMP JUMPDEST SWAP1 POP PUSH1 0x0 DUP1 JUMPDEST DUP3 MLOAD DUP2 LT ISZERO PUSH2 0xC93 JUMPI PUSH1 0x49 SLOAD PUSH1 0x1 PUSH1 0x1 PUSH1 0xA0 SHL SUB AND PUSH1 0x1 PUSH1 0x1 PUSH1 0xA0 SHL SUB AND PUSH4 0xBD02D0F5 PUSH1 0x3 PUSH1 0x14 ADD PUSH1 0x4 ADD DUP8 DUP7 DUP6 DUP2 MLOAD DUP2 LT PUSH2 0xCEA JUMPI PUSH2 0xCEA PUSH2 0x29D1 JUMP JUMPDEST PUSH1 0x20 MUL PUSH1 0x20 ADD ADD MLOAD PUSH1 0x40 MLOAD PUSH1 0x20 ADD PUSH2 0xD04 SWAP4 SWAP3 SWAP2 SWAP1 PUSH2 0x2AEE JUMP JUMPDEST PUSH1 0x40 MLOAD PUSH1 0x20 DUP2 DUP4 SUB SUB DUP2 MSTORE SWAP1 PUSH1 0x40 MSTORE DUP1 MLOAD SWAP1 PUSH1 0x20 ADD KECCAK256 PUSH1 0x40 MLOAD DUP3 PUSH4 0xFFFFFFFF AND PUSH1 0xE0 SHL DUP2 MSTORE PUSH1 0x4 ADD PUSH2 0xD38 SWAP2 DUP2 MSTORE PUSH1 0x20 ADD SWAP1 JUMP JUMPDEST PUSH1 0x20 PUSH1 0x40 MLOAD DUP1 DUP4 SUB DUP2 DUP7 GAS STATICCALL ISZERO DUP1 ISZERO PUSH2 0xD55 JUMPI RETURNDATASIZE PUSH1 0x0 DUP1 RETURNDATACOPY RETURNDATASIZE PUSH1 0x0 REVERT JUMPDEST POP POP POP POP PUSH1 0x40 MLOAD RETURNDATASIZE PUSH1 0x1F NOT PUSH1 0x1F DUP3 ADD AND DUP3 ADD DUP1 PUSH1 0x40 MSTORE POP DUP2 ADD SWAP1 PUSH2 0xD79 SWAP2 SWAP1 PUSH2 0x2A6F JUMP JUMPDEST PUSH2 0xD83 SWAP1 DUP4 PUSH2 0x29FD JUMP JUMPDEST SWAP2 POP DUP1 PUSH2 0xD8F DUP2 PUSH2 0x2B1B JUMP JUMPDEST SWAP2 POP POP PUSH2 0xCAC JUMP JUMPDEST PUSH2 0xDAD CALLER PUSH1 0x0 CALLDATALOAD PUSH1 0x1 PUSH1 0x1 PUSH1 0xE0 SHL SUB NOT AND PUSH2 0x1F73 JUMP JUMPDEST PUSH2 0xDC9 JUMPI PUSH1 0x40 MLOAD PUSH3 0x461BCD PUSH1 0xE5 SHL DUP2 MSTORE PUSH1 0x4 ADD PUSH2 0x3FE SWAP1 PUSH2 0x28E0 JUMP JUMPDEST PUSH1 0x0 JUMPDEST DUP2 DUP2 LT ISZERO PUSH2 0x793 JUMPI PUSH2 0xDFE DUP4 DUP4 DUP4 DUP2 DUP2 LT PUSH2 0xDE9 JUMPI PUSH2 0xDE9 PUSH2 0x29D1 JUMP JUMPDEST SWAP1 POP PUSH1 0x20 MUL ADD PUSH1 0x20 DUP2 ADD SWAP1 PUSH2 0x238 SWAP2 SWAP1 PUSH2 0x25E9 JUMP JUMPDEST PUSH2 0xE09 PUSH1 0x1 DUP3 PUSH2 0x29FD JUMP JUMPDEST SWAP1 POP PUSH2 0xDCC JUMP JUMPDEST PUSH2 0xE26 CALLER PUSH1 0x0 CALLDATALOAD PUSH1 0x1 PUSH1 0x1 PUSH1 0xE0 SHL SUB NOT AND PUSH2 0x1F73 JUMP JUMPDEST PUSH2 0xE42 JUMPI PUSH1 0x40 MLOAD PUSH3 0x461BCD PUSH1 0xE5 SHL DUP2 MSTORE PUSH1 0x4 ADD PUSH2 0x3FE SWAP1 PUSH2 0x28E0 JUMP JUMPDEST PUSH1 0x49 SLOAD PUSH1 0x40 MLOAD PUSH1 0x1 PUSH1 0x1 PUSH1 0xA0 SHL SUB SWAP1 SWAP2 AND SWAP1 PUSH4 0xCA446DD9 SWAP1 PUSH2 0xE66 SWAP1 PUSH1 0x3C SWAP1 PUSH2 0x29A8 JUMP JUMPDEST PUSH1 0x40 MLOAD DUP1 SWAP2 SUB SWAP1 KECCAK256 PUSH2 0xE80 PUSH1 0x49 SLOAD PUSH1 0x1 PUSH1 0x1 PUSH1 0xA0 SHL SUB AND SWAP1 JUMP JUMPDEST PUSH1 0x1 PUSH1 0x1 PUSH1 0xA0 SHL SUB AND PUSH4 0x21F8A721 PUSH1 0x3 PUSH1 0x39 ADD PUSH1 0x4 ADD PUSH1 0x40 MLOAD PUSH2 0xEA3 SWAP2 SWAP1 PUSH2 0x29A8 JUMP JUMPDEST PUSH1 0x40 MLOAD SWAP1 DUP2 SWAP1 SUB DUP2 KECCAK256 PUSH1 0xE0 DUP4 SWAP1 SHL PUSH1 0x1 PUSH1 0x1 PUSH1 0xE0 SHL SUB NOT AND DUP3 MSTORE PUSH1 0x4 DUP3 ADD MSTORE PUSH1 0x24 ADD PUSH1 0x20 PUSH1 0x40 MLOAD DUP1 DUP4 SUB DUP2 DUP7 GAS STATICCALL ISZERO DUP1 ISZERO PUSH2 0xEE2 JUMPI RETURNDATASIZE PUSH1 0x0 DUP1 RETURNDATACOPY RETURNDATASIZE PUSH1 0x0 REVERT JUMPDEST POP POP POP POP PUSH1 0x40 MLOAD RETURNDATASIZE PUSH1 0x1F NOT PUSH1 0x1F DUP3 ADD AND DUP3 ADD DUP1 PUSH1 0x40 MSTORE POP DUP2 ADD SWAP1 PUSH2 0xF06 SWAP2 SWAP1 PUSH2 0x29B4 JUMP JUMPDEST PUSH1 0x40 MLOAD PUSH1 0x1 PUSH1 0x1 PUSH1 0xE0 SHL SUB NOT PUSH1 0xE0 DUP6 SWAP1 SHL AND DUP2 MSTORE PUSH1 0x4 DUP2 ADD SWAP3 SWAP1 SWAP3 MSTORE PUSH1 0x1 PUSH1 0x1 PUSH1 0xA0 SHL SUB AND PUSH1 0x24 DUP3 ADD MSTORE PUSH1 0x44 ADD PUSH1 0x0 PUSH1 0x40 MLOAD DUP1 DUP4 SUB DUP2 PUSH1 0x0 DUP8 DUP1 EXTCODESIZE ISZERO DUP1 ISZERO PUSH2 0xF4D JUMPI PUSH1 0x0 DUP1 REVERT JUMPDEST POP GAS CALL ISZERO DUP1 ISZERO PUSH2 0xF61 JUMPI RETURNDATASIZE PUSH1 0x0 DUP1 RETURNDATACOPY RETURNDATASIZE PUSH1 0x0 REVERT JUMPDEST POP POP POP POP PUSH2 0xF77 PUSH1 0x49 SLOAD PUSH1 0x1 PUSH1 0x1 PUSH1 0xA0 SHL SUB AND SWAP1 JUMP JUMPDEST PUSH1 0x1 PUSH1 0x1 PUSH1 0xA0 SHL SUB AND PUSH4 0xCA446DD9 PUSH1 0x3 PUSH1 0x39 ADD PUSH1 0x1 ADD PUSH1 0x40 MLOAD PUSH2 0xF9A SWAP2 SWAP1 PUSH2 0x29A8 JUMP JUMPDEST PUSH1 0x40 MLOAD DUP1 SWAP2 SUB SWAP1 KECCAK256 PUSH2 0xFB4 PUSH1 0x49 SLOAD PUSH1 0x1 PUSH1 0x1 PUSH1 0xA0 SHL SUB AND SWAP1 JUMP JUMPDEST PUSH1 0x1 PUSH1 0x1 PUSH1 0xA0 SHL SUB AND PUSH4 0x21F8A721 PUSH1 0x3 PUSH1 0x39 ADD PUSH1 0x5 ADD PUSH1 0x40 MLOAD PUSH2 0x656 SWAP2 SWAP1 PUSH2 0x29A8 JUMP JUMPDEST PUSH2 0xFED CALLER PUSH1 0x0 CALLDATALOAD PUSH1 0x1 PUSH1 0x1 PUSH1 0xE0 SHL SUB NOT AND PUSH2 0x1F73 JUMP JUMPDEST PUSH2 0x1009 JUMPI PUSH1 0x40 MLOAD PUSH3 0x461BCD PUSH1 0xE5 SHL DUP2 MSTORE PUSH1 0x4 ADD PUSH2 0x3FE SWAP1 PUSH2 0x28E0 JUMP JUMPDEST PUSH1 0x4B DUP1 SLOAD PUSH1 0x1 PUSH1 0x1 PUSH1 0xA0 SHL SUB NOT AND PUSH1 0x1 PUSH1 0x1 PUSH1 0xA0 SHL SUB DUP4 AND SWAP1 DUP2 OR SWAP1 SWAP2 SSTORE PUSH1 0x40 MLOAD PUSH32 0x1ABEBEA81BFA2637F28358C371278FB15EDE7EA8DD28D2E03B112FF6D936ADA4 SWAP1 PUSH1 0x0 SWAP1 LOG2 POP JUMP JUMPDEST PUSH2 0x1069 CALLER PUSH1 0x0 CALLDATALOAD PUSH1 0x1 PUSH1 0x1 PUSH1 0xE0 SHL SUB NOT AND PUSH2 0x1F73 JUMP JUMPDEST PUSH2 0x1085 JUMPI PUSH1 0x40 MLOAD PUSH3 0x461BCD PUSH1 0xE5 SHL DUP2 MSTORE PUSH1 0x4 ADD PUSH2 0x3FE SWAP1 PUSH2 0x28E0 JUMP JUMPDEST PUSH1 0x49 SLOAD PUSH1 0x40 MLOAD PUSH1 0x1 PUSH1 0x1 PUSH1 0xA0 SHL SUB SWAP1 SWAP2 AND SWAP1 PUSH4 0xE2A4853A SWAP1 PUSH2 0x10B2 SWAP1 PUSH1 0x2D SWAP1 DUP9 SWAP1 DUP9 SWAP1 DUP9 SWAP1 PUSH1 0x20 ADD PUSH2 0x2A3D JUMP JUMPDEST PUSH1 0x40 DUP1 MLOAD PUSH1 0x1F NOT DUP2 DUP5 SUB ADD DUP2 MSTORE SWAP1 DUP3 SWAP1 MSTORE DUP1 MLOAD PUSH1 0x20 SWAP1 SWAP2 ADD KECCAK256 PUSH1 0x1 PUSH1 0x1 PUSH1 0xE0 SHL SUB NOT PUSH1 0xE0 DUP5 SWAP1 SHL AND DUP3 MSTORE PUSH1 0x4 DUP3 ADD MSTORE PUSH1 0x24 DUP2 ADD DUP5 SWAP1 MSTORE PUSH1 0x44 ADD PUSH1 0x0 PUSH1 0x40 MLOAD DUP1 DUP4 SUB DUP2 PUSH1 0x0 DUP8 DUP1 EXTCODESIZE ISZERO DUP1 ISZERO PUSH2 0x1105 JUMPI PUSH1 0x0 DUP1 REVERT JUMPDEST POP GAS CALL ISZERO DUP1 ISZERO PUSH2 0x1119 JUMPI RETURNDATASIZE PUSH1 0x0 DUP1 RETURNDATACOPY RETURNDATASIZE PUSH1 0x0 REVERT JUMPDEST POP POP POP POP POP POP POP POP JUMP JUMPDEST PUSH2 0x1139 CALLER PUSH1 0x0 CALLDATALOAD PUSH1 0x1 PUSH1 0x1 PUSH1 0xE0 SHL SUB NOT AND PUSH2 0x1F73 JUMP JUMPDEST PUSH2 0x1155 JUMPI PUSH1 0x40 MLOAD PUSH3 0x461BCD PUSH1 0xE5 SHL DUP2 MSTORE PUSH1 0x4 ADD PUSH2 0x3FE SWAP1 PUSH2 0x28E0 JUMP JUMPDEST PUSH2 0x115D PUSH2 0x21C6 JUMP JUMPDEST PUSH1 0x1 PUSH1 0x1 PUSH1 0xA0 SHL SUB AND PUSH4 0xA3971047 DUP4 PUSH1 0x0 DUP1 DUP6 PUSH2 0x1178 PUSH2 0x21FD JUMP JUMPDEST PUSH2 0x1180 PUSH2 0x2234 JUMP JUMPDEST PUSH2 0x1188 PUSH2 0x2269 JUMP JUMPDEST PUSH1 0x40 MLOAD DUP9 PUSH4 0xFFFFFFFF AND PUSH1 0xE0 SHL DUP2 MSTORE PUSH1 0x4 ADD PUSH2 0xB61 SWAP8 SWAP7 SWAP6 SWAP5 SWAP4 SWAP3 SWAP2 SWAP1 PUSH2 0x2B71 JUMP JUMPDEST PUSH1 0x0 DUP1 PUSH2 0x11BF PUSH1 0x49 SLOAD PUSH1 0x1 PUSH1 0x1 PUSH1 0xA0 SHL SUB AND SWAP1 JUMP JUMPDEST PUSH1 0x1 PUSH1 0x1 PUSH1 0xA0 SHL SUB AND PUSH4 0xBD02D0F5 PUSH1 0x3 PUSH1 0x22 ADD PUSH1 0xA ADD PUSH1 0x40 MLOAD PUSH2 0x11E2 SWAP2 SWAP1 PUSH2 0x29A8 JUMP JUMPDEST PUSH1 0x40 MLOAD SWAP1 DUP2 SWAP1 SUB DUP2 KECCAK256 PUSH1 0xE0 DUP4 SWAP1 SHL PUSH1 0x1 PUSH1 0x1 PUSH1 0xE0 SHL SUB NOT AND DUP3 MSTORE PUSH1 0x4 DUP3 ADD MSTORE PUSH1 0x24 ADD PUSH1 0x20 PUSH1 0x40 MLOAD DUP1 DUP4 SUB DUP2 DUP7 GAS STATICCALL ISZERO DUP1 ISZERO PUSH2 0x1221 JUMPI RETURNDATASIZE PUSH1 0x0 DUP1 RETURNDATACOPY RETURNDATASIZE PUSH1 0x0 REVERT JUMPDEST POP POP POP POP PUSH1 0x40 MLOAD RETURNDATASIZE PUSH1 0x1F NOT PUSH1 0x1F DUP3 ADD AND DUP3 ADD DUP1 PUSH1 0x40 MSTORE POP DUP2 ADD SWAP1 PUSH2 0x1245 SWAP2 SWAP1 PUSH2 0x2A6F JUMP JUMPDEST SWAP1 POP PUSH1 0x0 PUSH2 0x125B PUSH1 0x49 SLOAD PUSH1 0x1 PUSH1 0x1 PUSH1 0xA0 SHL SUB AND SWAP1 JUMP JUMPDEST PUSH1 0x1 PUSH1 0x1 PUSH1 0xA0 SHL SUB AND PUSH4 0xBD02D0F5 PUSH1 0x3 PUSH1 0x22 ADD PUSH1 0x9 ADD PUSH1 0x40 MLOAD PUSH2 0x127E SWAP2 SWAP1 PUSH2 0x29A8 JUMP JUMPDEST PUSH1 0x40 MLOAD SWAP1 DUP2 SWAP1 SUB DUP2 KECCAK256 PUSH1 0xE0 DUP4 SWAP1 SHL PUSH1 0x1 PUSH1 0x1 PUSH1 0xE0 SHL SUB NOT AND DUP3 MSTORE PUSH1 0x4 DUP3 ADD MSTORE PUSH1 0x24 ADD PUSH1 0x20 PUSH1 0x40 MLOAD DUP1 DUP4 SUB DUP2 DUP7 GAS STATICCALL ISZERO DUP1 ISZERO PUSH2 0x12BD JUMPI RETURNDATASIZE PUSH1 0x0 DUP1 RETURNDATACOPY RETURNDATASIZE PUSH1 0x0 REVERT JUMPDEST POP POP POP POP PUSH1 0x40 MLOAD RETURNDATASIZE PUSH1 0x1F NOT PUSH1 0x1F DUP3 ADD AND DUP3 ADD DUP1 PUSH1 0x40 MSTORE POP DUP2 ADD SWAP1 PUSH2 0x12E1 SWAP2 SWAP1 PUSH2 0x2A6F JUMP JUMPDEST SWAP1 POP PUSH1 0x0 PUSH2 0x1358 DUP4 PUSH2 0x12F1 PUSH2 0x21FD JUMP JUMPDEST PUSH1 0x1 PUSH1 0x1 PUSH1 0xA0 SHL SUB AND PUSH4 0x18160DDD PUSH1 0x40 MLOAD DUP2 PUSH4 0xFFFFFFFF AND PUSH1 0xE0 SHL DUP2 MSTORE PUSH1 0x4 ADD PUSH1 0x20 PUSH1 0x40 MLOAD DUP1 DUP4 SUB DUP2 DUP7 GAS STATICCALL ISZERO DUP1 ISZERO PUSH2 0x132E JUMPI RETURNDATASIZE PUSH1 0x0 DUP1 RETURNDATACOPY RETURNDATASIZE PUSH1 0x0 REVERT JUMPDEST POP POP POP POP PUSH1 0x40 MLOAD RETURNDATASIZE PUSH1 0x1F NOT PUSH1 0x1F DUP3 ADD AND DUP3 ADD DUP1 PUSH1 0x40 MSTORE POP DUP2 ADD SWAP1 PUSH2 0x1352 SWAP2 SWAP1 PUSH2 0x2A6F JUMP JUMPDEST SWAP1 PUSH2 0x22AB JUMP JUMPDEST SWAP1 POP DUP2 DUP2 LT PUSH2 0x136B JUMPI PUSH1 0x0 SWAP4 POP POP POP POP SWAP1 JUMP JUMPDEST PUSH2 0x1375 DUP3 DUP3 PUSH2 0x2BD3 JUMP JUMPDEST SWAP4 POP POP POP POP SWAP1 JUMP JUMPDEST PUSH1 0x0 PUSH2 0x1391 PUSH1 0x49 SLOAD PUSH1 0x1 PUSH1 0x1 PUSH1 0xA0 SHL SUB AND SWAP1 JUMP JUMPDEST PUSH1 0x1 PUSH1 0x1 PUSH1 0xA0 SHL SUB AND PUSH4 0xBD02D0F5 PUSH1 0x1B PUSH2 0x13A9 PUSH2 0x21FD JUMP JUMPDEST PUSH2 0x13B1 PUSH2 0x2234 JUMP JUMPDEST PUSH1 0x40 MLOAD PUSH1 0x20 ADD PUSH2 0x13C3 SWAP4 SWAP3 SWAP2 SWAP1 PUSH2 0x2BEA JUMP JUMPDEST PUSH1 0x40 MLOAD PUSH1 0x20 DUP2 DUP4 SUB SUB DUP2 MSTORE SWAP1 PUSH1 0x40 MSTORE DUP1 MLOAD SWAP1 PUSH1 0x20 ADD KECCAK256 PUSH1 0x40 MLOAD DUP3 PUSH4 0xFFFFFFFF AND PUSH1 0xE0 SHL DUP2 MSTORE PUSH1 0x4 ADD PUSH2 0x13F7 SWAP2 DUP2 MSTORE PUSH1 0x20 ADD SWAP1 JUMP JUMPDEST PUSH1 0x20 PUSH1 0x40 MLOAD DUP1 DUP4 SUB DUP2 DUP7 GAS STATICCALL ISZERO DUP1 ISZERO PUSH2 0x1414 JUMPI RETURNDATASIZE PUSH1 0x0 DUP1 RETURNDATACOPY RETURNDATASIZE PUSH1 0x0 REVERT JUMPDEST POP POP POP POP PUSH1 0x40 MLOAD RETURNDATASIZE PUSH1 0x1F NOT PUSH1 0x1F DUP3 ADD AND DUP3 ADD DUP1 PUSH1 0x40 MSTORE POP DUP2 ADD SWAP1 PUSH2 0x1438 SWAP2 SWAP1 PUSH2 0x2A6F JUMP JUMPDEST SWAP1 POP SWAP1 JUMP JUMPDEST PUSH1 0x0 PUSH2 0x1438 PUSH2 0x144A PUSH2 0x21FD JUMP JUMPDEST PUSH1 0x1 PUSH1 0x1 PUSH1 0xA0 SHL SUB AND PUSH4 0x18160DDD PUSH1 0x40 MLOAD DUP2 PUSH4 0xFFFFFFFF AND PUSH1 0xE0 SHL DUP2 MSTORE PUSH1 0x4 ADD PUSH1 0x20 PUSH1 0x40 MLOAD DUP1 DUP4 SUB DUP2 DUP7 GAS STATICCALL ISZERO DUP1 ISZERO PUSH2 0x1487 JUMPI RETURNDATASIZE PUSH1 0x0 DUP1 RETURNDATACOPY RETURNDATASIZE PUSH1 0x0 REVERT JUMPDEST POP POP POP POP PUSH1 0x40 MLOAD RETURNDATASIZE PUSH1 0x1F NOT PUSH1 0x1F DUP3 ADD AND DUP3 ADD DUP1 PUSH1 0x40 MSTORE POP DUP2 ADD SWAP1 PUSH2 0x14AB SWAP2 SWAP1 PUSH2 0x2A6F JUMP JUMPDEST PUSH1 0x49 SLOAD PUSH1 0x40 MLOAD PUSH1 0x1 PUSH1 0x1 PUSH1 0xA0 SHL SUB SWAP1 SWAP2 AND SWAP1 PUSH4 0xBD02D0F5 SWAP1 PUSH2 0x14CF SWAP1 PUSH1 0x2E SWAP1 PUSH2 0x29A8 JUMP JUMPDEST PUSH1 0x40 MLOAD SWAP1 DUP2 SWAP1 SUB DUP2 KECCAK256 PUSH1 0xE0 DUP4 SWAP1 SHL PUSH1 0x1 PUSH1 0x1 PUSH1 0xE0 SHL SUB NOT AND DUP3 MSTORE PUSH1 0x4 DUP3 ADD MSTORE PUSH1 0x24 ADD PUSH1 0x20 PUSH1 0x40 MLOAD DUP1 DUP4 SUB DUP2 DUP7 GAS STATICCALL ISZERO DUP1 ISZERO PUSH2 0x150E JUMPI RETURNDATASIZE PUSH1 0x0 DUP1 RETURNDATACOPY RETURNDATASIZE PUSH1 0x0 REVERT JUMPDEST POP POP POP POP PUSH1 0x40 MLOAD RETURNDATASIZE PUSH1 0x1F NOT PUSH1 0x1F DUP3 ADD AND DUP3 ADD DUP1 PUSH1 0x40 MSTORE POP DUP2 ADD SWAP1 PUSH2 0x1532 SWAP2 SWAP1 PUSH2 0x2A6F JUMP JUMPDEST SWAP1 PUSH2 0x22B7 JUMP JUMPDEST PUSH2 0x154E CALLER PUSH1 0x0 CALLDATALOAD PUSH1 0x1 PUSH1 0x1 PUSH1 0xE0 SHL SUB NOT AND PUSH2 0x1F73 JUMP JUMPDEST PUSH2 0x156A JUMPI PUSH1 0x40 MLOAD PUSH3 0x461BCD PUSH1 0xE5 SHL DUP2 MSTORE PUSH1 0x4 ADD PUSH2 0x3FE SWAP1 PUSH2 0x28E0 JUMP JUMPDEST PUSH1 0x0 DUP5 PUSH1 0x0 DUP2 MLOAD DUP2 LT PUSH2 0x157F JUMPI PUSH2 0x157F PUSH2 0x29D1 JUMP JUMPDEST PUSH1 0x20 MUL PUSH1 0x20 ADD ADD MLOAD SWAP1 POP PUSH1 0x0 DUP6 PUSH1 0x1 DUP8 MLOAD PUSH2 0x159A SWAP2 SWAP1 PUSH2 0x2BD3 JUMP JUMPDEST DUP2 MLOAD DUP2 LT PUSH2 0x15AA JUMPI PUSH2 0x15AA PUSH2 0x29D1 JUMP JUMPDEST PUSH1 0x20 MUL PUSH1 0x20 ADD ADD MLOAD SWAP1 POP PUSH2 0x15BC PUSH2 0x21C6 JUMP JUMPDEST PUSH1 0x40 MLOAD PUSH4 0x68C31DD5 PUSH1 0xE0 SHL DUP2 MSTORE PUSH1 0x1 PUSH1 0x1 PUSH1 0xA0 SHL SUB DUP5 DUP2 AND PUSH1 0x4 DUP4 ADD MSTORE SWAP2 SWAP1 SWAP2 AND SWAP1 PUSH4 0x68C31DD5 SWAP1 PUSH1 0x24 ADD PUSH1 0x20 PUSH1 0x40 MLOAD DUP1 DUP4 SUB DUP2 DUP7 GAS STATICCALL ISZERO DUP1 ISZERO PUSH2 0x1604 JUMPI RETURNDATASIZE PUSH1 0x0 DUP1 RETURNDATACOPY RETURNDATASIZE PUSH1 0x0 REVERT JUMPDEST POP POP POP POP PUSH1 0x40 MLOAD RETURNDATASIZE PUSH1 0x1F NOT PUSH1 0x1F DUP3 ADD AND DUP3 ADD DUP1 PUSH1 0x40 MSTORE POP DUP2 ADD SWAP1 PUSH2 0x1628 SWAP2 SWAP1 PUSH2 0x2C45 JUMP JUMPDEST PUSH2 0x169A JUMPI PUSH1 0x40 MLOAD PUSH3 0x461BCD PUSH1 0xE5 SHL DUP2 MSTORE PUSH1 0x20 PUSH1 0x4 DUP3 ADD MSTORE PUSH1 0x37 PUSH1 0x24 DUP3 ADD MSTORE PUSH32 0x5068616E746F6D41646D696E3A20666972737420746F6B656E20696E20706174 PUSH1 0x44 DUP3 ADD MSTORE PUSH32 0x682069736E27742061207265736572766520746F6B656E000000000000000000 PUSH1 0x64 DUP3 ADD MSTORE PUSH1 0x84 ADD PUSH2 0x3FE JUMP JUMPDEST PUSH2 0x16A2 PUSH2 0x21C6 JUMP JUMPDEST PUSH1 0x40 MLOAD PUSH4 0x68C31DD5 PUSH1 0xE0 SHL DUP2 MSTORE PUSH1 0x1 PUSH1 0x1 PUSH1 0xA0 SHL SUB DUP4 DUP2 AND PUSH1 0x4 DUP4 ADD MSTORE SWAP2 SWAP1 SWAP2 AND SWAP1 PUSH4 0x68C31DD5 SWAP1 PUSH1 0x24 ADD PUSH1 0x20 PUSH1 0x40 MLOAD DUP1 DUP4 SUB DUP2 DUP7 GAS STATICCALL ISZERO DUP1 ISZERO PUSH2 0x16EA JUMPI RETURNDATASIZE PUSH1 0x0 DUP1 RETURNDATACOPY RETURNDATASIZE PUSH1 0x0 REVERT JUMPDEST POP POP POP POP PUSH1 0x40 MLOAD RETURNDATASIZE PUSH1 0x1F NOT PUSH1 0x1F DUP3 ADD AND DUP3 ADD DUP1 PUSH1 0x40 MSTORE POP DUP2 ADD SWAP1 PUSH2 0x170E SWAP2 SWAP1 PUSH2 0x2C45 JUMP JUMPDEST PUSH2 0x1779 JUMPI PUSH1 0x40 MLOAD PUSH3 0x461BCD PUSH1 0xE5 SHL DUP2 MSTORE PUSH1 0x20 PUSH1 0x4 DUP3 ADD MSTORE PUSH1 0x36 PUSH1 0x24 DUP3 ADD MSTORE PUSH32 0x5068616E746F6D41646D696E3A206C61737420746F6B656E20696E2070617468 PUSH1 0x44 DUP3 ADD MSTORE PUSH22 0x1034B9B713BA1030903932B9B2B93B32903A37B5B2B7 PUSH1 0x51 SHL PUSH1 0x64 DUP3 ADD MSTORE PUSH1 0x84 ADD PUSH2 0x3FE JUMP JUMPDEST DUP5 DUP3 PUSH1 0x1 PUSH1 0x1 PUSH1 0xA0 SHL SUB AND PUSH4 0x70A08231 PUSH2 0x1791 PUSH2 0x22CC JUMP JUMPDEST PUSH1 0x40 MLOAD PUSH1 0x1 PUSH1 0x1 PUSH1 0xE0 SHL SUB NOT PUSH1 0xE0 DUP5 SWAP1 SHL AND DUP2 MSTORE PUSH1 0x1 PUSH1 0x1 PUSH1 0xA0 SHL SUB SWAP1 SWAP2 AND PUSH1 0x4 DUP3 ADD MSTORE PUSH1 0x24 ADD PUSH1 0x20 PUSH1 0x40 MLOAD DUP1 DUP4 SUB DUP2 DUP7 GAS STATICCALL ISZERO DUP1 ISZERO PUSH2 0x17D5 JUMPI RETURNDATASIZE PUSH1 0x0 DUP1 RETURNDATACOPY RETURNDATASIZE PUSH1 0x0 REVERT JUMPDEST POP POP POP POP PUSH1 0x40 MLOAD RETURNDATASIZE PUSH1 0x1F NOT PUSH1 0x1F DUP3 ADD AND DUP3 ADD DUP1 PUSH1 0x40 MSTORE POP DUP2 ADD SWAP1 PUSH2 0x17F9 SWAP2 SWAP1 PUSH2 0x2A6F JUMP JUMPDEST LT ISZERO PUSH2 0x1862 JUMPI PUSH1 0x40 MLOAD PUSH3 0x461BCD PUSH1 0xE5 SHL DUP2 MSTORE PUSH1 0x20 PUSH1 0x4 DUP3 ADD MSTORE PUSH1 0x32 PUSH1 0x24 DUP3 ADD MSTORE PUSH32 0x5068616E746F6D41646D696E3A205661756C742062616C616E6365206F66206F PUSH1 0x44 DUP3 ADD MSTORE PUSH18 0x7574546F6B656E20697320746F6F206C6F77 PUSH1 0x70 SHL PUSH1 0x64 DUP3 ADD MSTORE PUSH1 0x84 ADD PUSH2 0x3FE JUMP JUMPDEST PUSH2 0x186A PUSH2 0x2303 JUMP JUMPDEST PUSH1 0x1 PUSH1 0x1 PUSH1 0xA0 SHL SUB AND PUSH4 0x9C221FDC PUSH2 0x188A PUSH1 0x49 SLOAD PUSH1 0x1 PUSH1 0x1 PUSH1 0xA0 SHL SUB AND SWAP1 JUMP JUMPDEST PUSH1 0x1 PUSH1 0x1 PUSH1 0xA0 SHL SUB AND PUSH4 0x21F8A721 PUSH1 0x3 PUSH1 0x39 ADD PUSH1 0x0 ADD PUSH1 0x40 MLOAD PUSH2 0x18AD SWAP2 SWAP1 PUSH2 0x29A8 JUMP JUMPDEST PUSH1 0x40 MLOAD SWAP1 DUP2 SWAP1 SUB DUP2 KECCAK256 PUSH1 0xE0 DUP4 SWAP1 SHL PUSH1 0x1 PUSH1 0x1 PUSH1 0xE0 SHL SUB NOT AND DUP3 MSTORE PUSH1 0x4 DUP3 ADD MSTORE PUSH1 0x24 ADD PUSH1 0x20 PUSH1 0x40 MLOAD DUP1 DUP4 SUB DUP2 DUP7 GAS STATICCALL ISZERO DUP1 ISZERO PUSH2 0x18EC JUMPI RETURNDATASIZE PUSH1 0x0 DUP1 RETURNDATACOPY RETURNDATASIZE PUSH1 0x0 REVERT JUMPDEST POP POP POP POP PUSH1 0x40 MLOAD RETURNDATASIZE PUSH1 0x1F NOT PUSH1 0x1F DUP3 ADD AND DUP3 ADD DUP1 PUSH1 0x40 MSTORE POP DUP2 ADD SWAP1 PUSH2 0x1910 SWAP2 SWAP1 PUSH2 0x29B4 JUMP JUMPDEST DUP8 DUP8 DUP11 DUP9 PUSH2 0x191C PUSH2 0x20E2 JUMP JUMPDEST PUSH2 0x1924 PUSH2 0x233A JUMP JUMPDEST PUSH1 0x40 MLOAD DUP9 PUSH4 0xFFFFFFFF AND PUSH1 0xE0 SHL DUP2 MSTORE PUSH1 0x4 ADD PUSH2 0x1946 SWAP8 SWAP7 SWAP6 SWAP5 SWAP4 SWAP3 SWAP2 SWAP1 PUSH2 0x2C67 JUMP JUMPDEST PUSH1 0x0 PUSH1 0x40 MLOAD DUP1 DUP4 SUB DUP2 PUSH1 0x0 DUP8 DUP1 EXTCODESIZE ISZERO DUP1 ISZERO PUSH2 0x1960 JUMPI PUSH1 0x0 DUP1 REVERT JUMPDEST POP GAS CALL ISZERO DUP1 ISZERO PUSH2 0x1974 JUMPI RETURNDATASIZE PUSH1 0x0 DUP1 RETURNDATACOPY RETURNDATASIZE PUSH1 0x0 REVERT JUMPDEST POP POP POP POP POP POP POP POP POP POP JUMP JUMPDEST PUSH2 0x1996 CALLER PUSH1 0x0 CALLDATALOAD PUSH1 0x1 PUSH1 0x1 PUSH1 0xE0 SHL SUB NOT AND PUSH2 0x1F73 JUMP JUMPDEST PUSH2 0x19B2 JUMPI PUSH1 0x40 MLOAD PUSH3 0x461BCD PUSH1 0xE5 SHL DUP2 MSTORE PUSH1 0x4 ADD PUSH2 0x3FE SWAP1 PUSH2 0x28E0 JUMP JUMPDEST PUSH1 0x49 SLOAD PUSH1 0x40 MLOAD PUSH1 0x1 PUSH1 0x1 PUSH1 0xA0 SHL SUB SWAP1 SWAP2 AND SWAP1 PUSH4 0x2C62FF2D SWAP1 PUSH2 0x19DD SWAP1 PUSH1 0x2C SWAP1 DUP7 SWAP1 DUP7 SWAP1 PUSH1 0x20 ADD PUSH2 0x2CF1 JUMP JUMPDEST PUSH1 0x40 MLOAD PUSH1 0x20 DUP2 DUP4 SUB SUB DUP2 MSTORE SWAP1 PUSH1 0x40 MSTORE DUP1 MLOAD SWAP1 PUSH1 0x20 ADD KECCAK256 PUSH1 0x40 MLOAD DUP3 PUSH4 0xFFFFFFFF AND PUSH1 0xE0 SHL DUP2 MSTORE PUSH1 0x4 ADD PUSH2 0x1A11 SWAP2 DUP2 MSTORE PUSH1 0x20 ADD SWAP1 JUMP JUMPDEST PUSH1 0x0 PUSH1 0x40 MLOAD DUP1 DUP4 SUB DUP2 PUSH1 0x0 DUP8 DUP1 EXTCODESIZE ISZERO DUP1 ISZERO PUSH2 0x1A2B JUMPI PUSH1 0x0 DUP1 REVERT JUMPDEST POP GAS CALL ISZERO DUP1 ISZERO PUSH2 0x1A3F JUMPI RETURNDATASIZE PUSH1 0x0 DUP1 RETURNDATACOPY RETURNDATASIZE PUSH1 0x0 REVERT JUMPDEST POP POP POP POP PUSH2 0x1A55 PUSH1 0x49 SLOAD PUSH1 0x1 PUSH1 0x1 PUSH1 0xA0 SHL SUB AND SWAP1 JUMP JUMPDEST PUSH1 0x1 PUSH1 0x1 PUSH1 0xA0 SHL SUB AND PUSH4 0xE2B202BF PUSH1 0x3 PUSH1 0x22 ADD PUSH1 0xE ADD DUP5 DUP5 PUSH1 0x40 MLOAD PUSH1 0x20 ADD PUSH2 0x1A7F SWAP4 SWAP3 SWAP2 SWAP1 PUSH2 0x2CF1 JUMP JUMPDEST PUSH1 0x40 MLOAD PUSH1 0x20 DUP2 DUP4 SUB SUB DUP2 MSTORE SWAP1 PUSH1 0x40 MSTORE DUP1 MLOAD SWAP1 PUSH1 0x20 ADD KECCAK256 PUSH1 0x40 MLOAD DUP3 PUSH4 0xFFFFFFFF AND PUSH1 0xE0 SHL DUP2 MSTORE PUSH1 0x4 ADD PUSH2 0xB61 SWAP2 DUP2 MSTORE PUSH1 0x20 ADD SWAP1 JUMP JUMPDEST PUSH1 0x0 PUSH2 0x1AC7 PUSH1 0x49 SLOAD PUSH1 0x1 PUSH1 0x1 PUSH1 0xA0 SHL SUB AND SWAP1 JUMP JUMPDEST PUSH1 0x1 PUSH1 0x1 PUSH1 0xA0 SHL SUB AND PUSH4 0x7AE1CFCA PUSH1 0x3 PUSH1 0x22 ADD PUSH1 0x7 ADD DUP5 PUSH1 0x40 MLOAD PUSH1 0x20 ADD PUSH2 0x1AEF SWAP3 SWAP2 SWAP1 PUSH2 0x2A15 JUMP JUMPDEST PUSH1 0x40 MLOAD PUSH1 0x20 DUP2 DUP4 SUB SUB DUP2 MSTORE SWAP1 PUSH1 0x40 MSTORE DUP1 MLOAD SWAP1 PUSH1 0x20 ADD KECCAK256 PUSH1 0x40 MLOAD DUP3 PUSH4 0xFFFFFFFF AND PUSH1 0xE0 SHL DUP2 MSTORE PUSH1 0x4 ADD PUSH2 0x1B23 SWAP2 DUP2 MSTORE PUSH1 0x20 ADD SWAP1 JUMP JUMPDEST PUSH1 0x20 PUSH1 0x40 MLOAD DUP1 DUP4 SUB DUP2 DUP7 GAS STATICCALL ISZERO DUP1 ISZERO PUSH2 0x1B40 JUMPI RETURNDATASIZE PUSH1 0x0 DUP1 RETURNDATACOPY RETURNDATASIZE PUSH1 0x0 REVERT JUMPDEST POP POP POP POP PUSH1 0x40 MLOAD RETURNDATASIZE PUSH1 0x1F NOT PUSH1 0x1F DUP3 ADD AND DUP3 ADD DUP1 PUSH1 0x40 MSTORE POP DUP2 ADD SWAP1 PUSH2 0x1B64 SWAP2 SWAP1 PUSH2 0x2C45 JUMP JUMPDEST SWAP3 SWAP2 POP POP JUMP JUMPDEST PUSH1 0x0 DUP1 PUSH1 0x0 PUSH2 0x1B81 PUSH1 0x49 SLOAD PUSH1 0x1 PUSH1 0x1 PUSH1 0xA0 SHL SUB AND SWAP1 JUMP JUMPDEST PUSH1 0x1 PUSH1 0x1 PUSH1 0xA0 SHL SUB AND PUSH4 0x7AE1CFCA PUSH1 0x3 PUSH1 0x22 ADD PUSH1 0x7 ADD DUP8 DUP8 PUSH1 0x40 MLOAD PUSH1 0x20 ADD PUSH2 0x1BAB SWAP4 SWAP3 SWAP2 SWAP1 PUSH2 0x2CF1 JUMP JUMPDEST PUSH1 0x40 MLOAD PUSH1 0x20 DUP2 DUP4 SUB SUB DUP2 MSTORE SWAP1 PUSH1 0x40 MSTORE DUP1 MLOAD SWAP1 PUSH1 0x20 ADD KECCAK256 PUSH1 0x40 MLOAD DUP3 PUSH4 0xFFFFFFFF AND PUSH1 0xE0 SHL DUP2 MSTORE PUSH1 0x4 ADD PUSH2 0x1BDF SWAP2 DUP2 MSTORE PUSH1 0x20 ADD SWAP1 JUMP JUMPDEST PUSH1 0x20 PUSH1 0x40 MLOAD DUP1 DUP4 SUB DUP2 DUP7 GAS STATICCALL ISZERO DUP1 ISZERO PUSH2 0x1BFC JUMPI RETURNDATASIZE PUSH1 0x0 DUP1 RETURNDATACOPY RETURNDATASIZE PUSH1 0x0 REVERT JUMPDEST POP POP POP POP PUSH1 0x40 MLOAD RETURNDATASIZE PUSH1 0x1F NOT PUSH1 0x1F DUP3 ADD AND DUP3 ADD DUP1 PUSH1 0x40 MSTORE POP DUP2 ADD SWAP1 PUSH2 0x1C20 SWAP2 SWAP1 PUSH2 0x2C45 JUMP JUMPDEST SWAP1 POP PUSH1 0x0 PUSH2 0x1C36 PUSH1 0x49 SLOAD PUSH1 0x1 PUSH1 0x1 PUSH1 0xA0 SHL SUB AND SWAP1 JUMP JUMPDEST PUSH1 0x1 PUSH1 0x1 PUSH1 0xA0 SHL SUB AND PUSH4 0xBD02D0F5 PUSH1 0x3 PUSH1 0x22 ADD PUSH1 0xE ADD DUP9 DUP9 PUSH1 0x40 MLOAD PUSH1 0x20 ADD PUSH2 0x1C60 SWAP4 SWAP3 SWAP2 SWAP1 PUSH2 0x2CF1 JUMP JUMPDEST PUSH1 0x40 MLOAD PUSH1 0x20 DUP2 DUP4 SUB SUB DUP2 MSTORE SWAP1 PUSH1 0x40 MSTORE DUP1 MLOAD SWAP1 PUSH1 0x20 ADD KECCAK256 PUSH1 0x40 MLOAD DUP3 PUSH4 0xFFFFFFFF AND PUSH1 0xE0 SHL DUP2 MSTORE PUSH1 0x4 ADD PUSH2 0x1C94 SWAP2 DUP2 MSTORE PUSH1 0x20 ADD SWAP1 JUMP JUMPDEST PUSH1 0x20 PUSH1 0x40 MLOAD DUP1 DUP4 SUB DUP2 DUP7 GAS STATICCALL ISZERO DUP1 ISZERO PUSH2 0x1CB1 JUMPI RETURNDATASIZE PUSH1 0x0 DUP1 RETURNDATACOPY RETURNDATASIZE PUSH1 0x0 REVERT JUMPDEST POP POP POP POP PUSH1 0x40 MLOAD RETURNDATASIZE PUSH1 0x1F NOT PUSH1 0x1F DUP3 ADD AND DUP3 ADD DUP1 PUSH1 0x40 MSTORE POP DUP2 ADD SWAP1 PUSH2 0x1CD5 SWAP2 SWAP1 PUSH2 0x2A6F JUMP JUMPDEST SWAP2 SWAP4 POP SWAP1 SWAP2 POP POP JUMPDEST SWAP3 POP SWAP3 SWAP1 POP JUMP JUMPDEST PUSH2 0x1CFA CALLER PUSH1 0x0 CALLDATALOAD PUSH1 0x1 PUSH1 0x1 PUSH1 0xE0 SHL SUB NOT AND PUSH2 0x1F73 JUMP JUMPDEST PUSH2 0x1D16 JUMPI PUSH1 0x40 MLOAD PUSH3 0x461BCD PUSH1 0xE5 SHL DUP2 MSTORE PUSH1 0x4 ADD PUSH2 0x3FE SWAP1 PUSH2 0x28E0 JUMP JUMPDEST PUSH1 0x49 SLOAD PUSH1 0x40 MLOAD PUSH1 0x1 PUSH1 0x1 PUSH1 0xA0 SHL SUB SWAP1 SWAP2 AND SWAP1 PUSH4 0xCA446DD9 SWAP1 PUSH2 0x1D3A SWAP1 PUSH1 0x3C SWAP1 PUSH2 0x29A8 JUMP JUMPDEST PUSH1 0x40 MLOAD SWAP1 DUP2 SWAP1 SUB DUP2 KECCAK256 PUSH1 0xE0 DUP4 SWAP1 SHL PUSH1 0x1 PUSH1 0x1 PUSH1 0xE0 SHL SUB NOT AND DUP3 MSTORE PUSH1 0x4 DUP3 ADD MSTORE PUSH1 0x1 PUSH1 0x1 PUSH1 0xA0 SHL SUB DUP6 AND PUSH1 0x24 DUP3 ADD MSTORE PUSH1 0x44 ADD PUSH1 0x0 PUSH1 0x40 MLOAD DUP1 DUP4 SUB DUP2 PUSH1 0x0 DUP8 DUP1 EXTCODESIZE ISZERO DUP1 ISZERO PUSH2 0x1D85 JUMPI PUSH1 0x0 DUP1 REVERT JUMPDEST POP GAS CALL ISZERO DUP1 ISZERO PUSH2 0x1D99 JUMPI RETURNDATASIZE PUSH1 0x0 DUP1 RETURNDATACOPY RETURNDATASIZE PUSH1 0x0 REVERT JUMPDEST POP POP POP POP PUSH2 0x1DAF PUSH1 0x49 SLOAD PUSH1 0x1 PUSH1 0x1 PUSH1 0xA0 SHL SUB AND SWAP1 JUMP JUMPDEST PUSH1 0x1 PUSH1 0x1 PUSH1 0xA0 SHL SUB AND PUSH4 0xCA446DD9 PUSH1 0x3 PUSH1 0x39 ADD PUSH1 0x1 ADD PUSH1 0x40 MLOAD PUSH2 0x1DD2 SWAP2 SWAP1 PUSH2 0x29A8 JUMP JUMPDEST PUSH1 0x40 MLOAD SWAP1 DUP2 SWAP1 SUB DUP2 KECCAK256 PUSH1 0xE0 DUP4 SWAP1 SHL PUSH1 0x1 PUSH1 0x1 PUSH1 0xE0 SHL SUB NOT AND DUP3 MSTORE PUSH1 0x4 DUP3 ADD MSTORE PUSH1 0x1 PUSH1 0x1 PUSH1 0xA0 SHL SUB DUP5 AND PUSH1 0x24 DUP3 ADD MSTORE PUSH1 0x44 ADD PUSH2 0xB61 JUMP JUMPDEST PUSH2 0x1E1E CALLER PUSH1 0x0 CALLDATALOAD PUSH1 0x1 PUSH1 0x1 PUSH1 0xE0 SHL SUB NOT AND PUSH2 0x1F73 JUMP JUMPDEST PUSH2 0x1E3A JUMPI PUSH1 0x40 MLOAD PUSH3 0x461BCD PUSH1 0xE5 SHL DUP2 MSTORE PUSH1 0x4 ADD PUSH2 0x3FE SWAP1 PUSH2 0x28E0 JUMP JUMPDEST PUSH1 0x49 SLOAD PUSH1 0x40 MLOAD PUSH1 0x1 PUSH1 0x1 PUSH1 0xA0 SHL SUB SWAP1 SWAP2 AND SWAP1 PUSH4 0xABFDCCED SWAP1 PUSH2 0x1E65 SWAP1 PUSH1 0x2C SWAP1 DUP8 SWAP1 DUP8 SWAP1 PUSH1 0x20 ADD PUSH2 0x2CF1 JUMP JUMPDEST PUSH1 0x40 DUP1 MLOAD PUSH1 0x1F NOT DUP2 DUP5 SUB ADD DUP2 MSTORE SWAP1 DUP3 SWAP1 MSTORE DUP1 MLOAD PUSH1 0x20 SWAP1 SWAP2 ADD KECCAK256 PUSH1 0x1 PUSH1 0x1 PUSH1 0xE0 SHL SUB NOT PUSH1 0xE0 DUP5 SWAP1 SHL AND DUP3 MSTORE PUSH1 0x4 DUP3 ADD MSTORE PUSH1 0x1 PUSH1 0x24 DUP3 ADD MSTORE PUSH1 0x44 ADD PUSH1 0x0 PUSH1 0x40 MLOAD DUP1 DUP4 SUB DUP2 PUSH1 0x0 DUP8 DUP1 EXTCODESIZE ISZERO DUP1 ISZERO PUSH2 0x1EB8 JUMPI PUSH1 0x0 DUP1 REVERT JUMPDEST POP GAS CALL ISZERO DUP1 ISZERO PUSH2 0x1ECC JUMPI RETURNDATASIZE PUSH1 0x0 DUP1 RETURNDATACOPY RETURNDATASIZE PUSH1 0x0 REVERT JUMPDEST POP POP POP POP PUSH2 0x1EE2 PUSH1 0x49 SLOAD PUSH1 0x1 PUSH1 0x1 PUSH1 0xA0 SHL SUB AND SWAP1 JUMP JUMPDEST PUSH1 0x1 PUSH1 0x1 PUSH1 0xA0 SHL SUB AND PUSH4 0xE2A4853A DUP5 DUP5 PUSH1 0x40 MLOAD PUSH1 0x20 ADD PUSH2 0x1F03 SWAP3 SWAP2 SWAP1 PUSH2 0x2D11 JUMP JUMPDEST PUSH1 0x40 DUP1 MLOAD PUSH1 0x1F NOT DUP2 DUP5 SUB ADD DUP2 MSTORE SWAP1 DUP3 SWAP1 MSTORE DUP1 MLOAD PUSH1 0x20 SWAP1 SWAP2 ADD KECCAK256 PUSH1 0x1 PUSH1 0x1 PUSH1 0xE0 SHL SUB NOT PUSH1 0xE0 DUP5 SWAP1 SHL AND DUP3 MSTORE PUSH1 0x4 DUP3 ADD MSTORE PUSH1 0x24 DUP2 ADD DUP5 SWAP1 MSTORE PUSH1 0x44 ADD PUSH1 0x0 PUSH1 0x40 MLOAD DUP1 DUP4 SUB DUP2 PUSH1 0x0 DUP8 DUP1 EXTCODESIZE ISZERO DUP1 ISZERO PUSH2 0x1F56 JUMPI PUSH1 0x0 DUP1 REVERT JUMPDEST POP GAS CALL ISZERO DUP1 ISZERO PUSH2 0x1F6A JUMPI RETURNDATASIZE PUSH1 0x0 DUP1 RETURNDATACOPY RETURNDATASIZE PUSH1 0x0 REVERT JUMPDEST POP POP POP POP POP POP POP JUMP JUMPDEST PUSH1 0x0 PUSH1 0x1 PUSH1 0x1 PUSH1 0xA0 SHL SUB DUP4 AND ADDRESS EQ ISZERO PUSH2 0x1F8E JUMPI POP PUSH1 0x1 PUSH2 0x1B64 JUMP JUMPDEST PUSH1 0x4C SLOAD PUSH1 0x1 PUSH1 0x1 PUSH1 0xA0 SHL SUB DUP5 DUP2 AND SWAP2 AND EQ ISZERO PUSH2 0x1FAC JUMPI POP PUSH1 0x1 PUSH2 0x1B64 JUMP JUMPDEST PUSH1 0x4B SLOAD PUSH1 0x1 PUSH1 0x1 PUSH1 0xA0 SHL SUB AND PUSH2 0x1FC4 JUMPI POP PUSH1 0x0 PUSH2 0x1B64 JUMP JUMPDEST PUSH1 0x4B SLOAD PUSH1 0x40 MLOAD PUSH4 0xB7009613 PUSH1 0xE0 SHL DUP2 MSTORE PUSH1 0x1 PUSH1 0x1 PUSH1 0xA0 SHL SUB DUP6 DUP2 AND PUSH1 0x4 DUP4 ADD MSTORE ADDRESS PUSH1 0x24 DUP4 ADD MSTORE PUSH1 0x1 PUSH1 0x1 PUSH1 0xE0 SHL SUB NOT DUP6 AND PUSH1 0x44 DUP4 ADD MSTORE SWAP1 SWAP2 AND SWAP1 PUSH4 0xB7009613 SWAP1 PUSH1 0x64 ADD PUSH1 0x20 PUSH1 0x40 MLOAD DUP1 DUP4 SUB DUP2 DUP7 GAS STATICCALL ISZERO DUP1 ISZERO PUSH2 0x2024 JUMPI RETURNDATASIZE PUSH1 0x0 DUP1 RETURNDATACOPY RETURNDATASIZE PUSH1 0x0 REVERT JUMPDEST POP POP POP POP PUSH1 0x40 MLOAD RETURNDATASIZE PUSH1 0x1F NOT PUSH1 0x1F DUP3 ADD AND DUP3 ADD DUP1 PUSH1 0x40 MSTORE POP DUP2 ADD SWAP1 PUSH2 0x95B SWAP2 SWAP1 PUSH2 0x2C45 JUMP JUMPDEST PUSH1 0x0 PUSH2 0x205C PUSH1 0x49 SLOAD PUSH1 0x1 PUSH1 0x1 PUSH1 0xA0 SHL SUB AND SWAP1 JUMP JUMPDEST PUSH1 0x1 PUSH1 0x1 PUSH1 0xA0 SHL SUB AND PUSH4 0x21F8A721 PUSH1 0x3 PUSH1 0x0 ADD PUSH1 0x6 ADD PUSH1 0x40 MLOAD PUSH2 0x207F SWAP2 SWAP1 PUSH2 0x29A8 JUMP JUMPDEST PUSH1 0x40 MLOAD SWAP1 DUP2 SWAP1 SUB DUP2 KECCAK256 PUSH1 0xE0 DUP4 SWAP1 SHL PUSH1 0x1 PUSH1 0x1 PUSH1 0xE0 SHL SUB NOT AND DUP3 MSTORE PUSH1 0x4 DUP3 ADD MSTORE PUSH1 0x24 ADD PUSH1 0x20 PUSH1 0x40 MLOAD DUP1 DUP4 SUB DUP2 DUP7 GAS STATICCALL ISZERO DUP1 ISZERO PUSH2 0x20BE JUMPI RETURNDATASIZE PUSH1 0x0 DUP1 RETURNDATACOPY RETURNDATASIZE PUSH1 0x0 REVERT JUMPDEST POP POP POP POP PUSH1 0x40 MLOAD RETURNDATASIZE PUSH1 0x1F NOT PUSH1 0x1F DUP3 ADD AND DUP3 ADD DUP1 PUSH1 0x40 MSTORE POP DUP2 ADD SWAP1 PUSH2 0x1438 SWAP2 SWAP1 PUSH2 0x29B4 JUMP JUMPDEST PUSH1 0x40 DUP1 MLOAD PUSH1 0x2 DUP1 DUP3 MSTORE PUSH1 0x60 DUP1 DUP4 ADD DUP5 MSTORE SWAP3 PUSH1 0x0 SWAP3 SWAP2 SWAP1 PUSH1 0x20 DUP4 ADD SWAP1 DUP1 CALLDATASIZE DUP4 CALLDATACOPY POP POP PUSH1 0x40 MLOAD SWAP2 SWAP3 POP PUSH2 0x2116 SWAP2 PUSH1 0x1A SWAP2 POP PUSH2 0x29A8 JUMP JUMPDEST PUSH1 0x40 MLOAD DUP1 SWAP2 SUB SWAP1 KECCAK256 DUP2 PUSH1 0x0 DUP2 MLOAD DUP2 LT PUSH2 0x2131 JUMPI PUSH2 0x2131 PUSH2 0x29D1 JUMP JUMPDEST PUSH1 0x20 SWAP1 DUP2 MUL SWAP2 SWAP1 SWAP2 ADD ADD MSTORE PUSH1 0x40 MLOAD PUSH2 0x214B SWAP1 PUSH1 0x18 SWAP1 PUSH2 0x29A8 JUMP JUMPDEST PUSH1 0x40 MLOAD DUP1 SWAP2 SUB SWAP1 KECCAK256 DUP2 PUSH1 0x1 DUP2 MLOAD DUP2 LT PUSH2 0x2166 JUMPI PUSH2 0x2166 PUSH2 0x29D1 JUMP JUMPDEST PUSH1 0x20 SWAP1 DUP2 MUL SWAP2 SWAP1 SWAP2 ADD ADD MSTORE SWAP2 SWAP1 POP JUMP JUMPDEST PUSH1 0x40 DUP1 MLOAD PUSH1 0x1 DUP1 DUP3 MSTORE DUP2 DUP4 ADD SWAP1 SWAP3 MSTORE PUSH1 0x60 SWAP2 PUSH1 0x0 SWAP2 SWAP1 PUSH1 0x20 DUP1 DUP4 ADD SWAP1 DUP1 CALLDATASIZE DUP4 CALLDATACOPY POP POP PUSH1 0x40 MLOAD SWAP2 SWAP3 POP PUSH2 0x21AB SWAP2 PUSH1 0x1A SWAP2 POP PUSH2 0x29A8 JUMP JUMPDEST PUSH1 0x40 MLOAD DUP1 SWAP2 SUB SWAP1 KECCAK256 DUP2 PUSH1 0x0 DUP2 MLOAD DUP2 LT PUSH2 0x2166 JUMPI PUSH2 0x2166 PUSH2 0x29D1 JUMP JUMPDEST PUSH1 0x0 PUSH2 0x21DA PUSH1 0x49 SLOAD PUSH1 0x1 PUSH1 0x1 PUSH1 0xA0 SHL SUB AND SWAP1 JUMP JUMPDEST PUSH1 0x1 PUSH1 0x1 PUSH1 0xA0 SHL SUB AND PUSH4 0x21F8A721 PUSH1 0x3 PUSH1 0x0 ADD PUSH1 0xB ADD PUSH1 0x40 MLOAD PUSH2 0x207F SWAP2 SWAP1 PUSH2 0x29A8 JUMP JUMPDEST PUSH1 0x0 PUSH2 0x2211 PUSH1 0x49 SLOAD PUSH1 0x1 PUSH1 0x1 PUSH1 0xA0 SHL SUB AND SWAP1 JUMP JUMPDEST PUSH1 0x1 PUSH1 0x1 PUSH1 0xA0 SHL SUB AND PUSH4 0x21F8A721 PUSH1 0x3 PUSH1 0x0 ADD PUSH1 0x5 ADD PUSH1 0x40 MLOAD PUSH2 0x207F SWAP2 SWAP1 PUSH2 0x29A8 JUMP JUMPDEST PUSH1 0x40 DUP1 MLOAD PUSH1 0x1 DUP1 DUP3 MSTORE DUP2 DUP4 ADD SWAP1 SWAP3 MSTORE PUSH1 0x60 SWAP2 PUSH1 0x0 SWAP2 SWAP1 PUSH1 0x20 DUP1 DUP4 ADD SWAP1 DUP1 CALLDATASIZE DUP4 CALLDATACOPY POP POP PUSH1 0x40 MLOAD SWAP2 SWAP3 POP PUSH2 0x21AB SWAP2 PUSH1 0x19 SWAP2 POP PUSH2 0x29A8 JUMP JUMPDEST PUSH1 0x40 DUP1 MLOAD PUSH1 0x1 DUP1 DUP3 MSTORE DUP2 DUP4 ADD SWAP1 SWAP3 MSTORE PUSH1 0x60 SWAP2 PUSH1 0x0 SWAP2 SWAP1 PUSH1 0x20 DUP1 DUP4 ADD SWAP1 DUP1 CALLDATASIZE DUP4 CALLDATACOPY ADD SWAP1 POP POP SWAP1 POP PUSH8 0xDE0B6B3A7640000 DUP2 PUSH1 0x0 DUP2 MLOAD DUP2 LT PUSH2 0x2166 JUMPI PUSH2 0x2166 PUSH2 0x29D1 JUMP JUMPDEST PUSH1 0x0 PUSH2 0x95B DUP4 DUP4 PUSH2 0x23A3 JUMP JUMPDEST PUSH1 0x0 PUSH2 0x95B DUP4 PUSH8 0xDE0B6B3A7640000 DUP5 PUSH2 0x2465 JUMP JUMPDEST PUSH1 0x0 PUSH2 0x22E0 PUSH1 0x49 SLOAD PUSH1 0x1 PUSH1 0x1 PUSH1 0xA0 SHL SUB AND SWAP1 JUMP JUMPDEST PUSH1 0x1 PUSH1 0x1 PUSH1 0xA0 SHL SUB AND PUSH4 0x21F8A721 PUSH1 0x3 PUSH1 0x0 ADD PUSH1 0xA ADD PUSH1 0x40 MLOAD PUSH2 0x207F SWAP2 SWAP1 PUSH2 0x29A8 JUMP JUMPDEST PUSH1 0x0 PUSH2 0x2317 PUSH1 0x49 SLOAD PUSH1 0x1 PUSH1 0x1 PUSH1 0xA0 SHL SUB AND SWAP1 JUMP JUMPDEST PUSH1 0x1 PUSH1 0x1 PUSH1 0xA0 SHL SUB AND PUSH4 0x21F8A721 PUSH1 0x3 PUSH1 0x0 ADD PUSH1 0xE ADD PUSH1 0x40 MLOAD PUSH2 0x207F SWAP2 SWAP1 PUSH2 0x29A8 JUMP JUMPDEST PUSH1 0x40 DUP1 MLOAD PUSH1 0x2 DUP1 DUP3 MSTORE PUSH1 0x60 DUP1 DUP4 ADD DUP5 MSTORE SWAP3 PUSH1 0x0 SWAP3 SWAP2 SWAP1 PUSH1 0x20 DUP4 ADD SWAP1 DUP1 CALLDATASIZE DUP4 CALLDATACOPY ADD SWAP1 POP POP SWAP1 POP PUSH8 0xC7D713B49DA0000 DUP2 PUSH1 0x0 DUP2 MLOAD DUP2 LT PUSH2 0x237B JUMPI PUSH2 0x237B PUSH2 0x29D1 JUMP JUMPDEST PUSH1 0x20 MUL PUSH1 0x20 ADD ADD DUP2 DUP2 MSTORE POP POP PUSH8 0x16345785D8A0000 DUP2 PUSH1 0x1 DUP2 MLOAD DUP2 LT PUSH2 0x2166 JUMPI PUSH2 0x2166 PUSH2 0x29D1 JUMP JUMPDEST PUSH1 0x0 DUP1 DUP1 PUSH1 0x0 NOT DUP5 DUP7 MULMOD DUP5 DUP7 MUL SWAP3 POP DUP3 DUP2 LT DUP4 DUP3 SUB SUB SWAP2 POP POP PUSH8 0xDE0B6B3A7640000 DUP2 LT PUSH2 0x23E7 JUMPI PUSH1 0x40 MLOAD PUSH4 0x698D9A01 PUSH1 0xE1 SHL DUP2 MSTORE PUSH1 0x4 DUP2 ADD DUP3 SWAP1 MSTORE PUSH1 0x24 ADD PUSH2 0x3FE JUMP JUMPDEST PUSH1 0x0 DUP1 PUSH8 0xDE0B6B3A7640000 DUP7 DUP9 MULMOD SWAP2 POP POP PUSH8 0x6F05B59D3B1FFFF DUP2 GT DUP3 PUSH2 0x2421 JUMPI DUP1 PUSH8 0xDE0B6B3A7640000 DUP6 DIV ADD SWAP5 POP POP POP POP POP PUSH2 0x1B64 JUMP JUMPDEST PUSH3 0x40000 DUP3 DUP6 SUB DIV SWAP4 SWAP1 SWAP2 GT SWAP1 SWAP2 SUB PUSH1 0x1 PUSH1 0xEE SHL MUL SWAP2 SWAP1 SWAP2 OR PUSH32 0xACCB18165BD6FE31AE1CF318DC5B51EEE0E1BA569B88CD74C1773B91FAC10669 MUL ADD SWAP1 POP SWAP3 SWAP2 POP POP JUMP JUMPDEST PUSH1 0x0 DUP1 DUP1 PUSH1 0x0 NOT DUP6 DUP8 MULMOD DUP6 DUP8 MUL SWAP3 POP DUP3 DUP2 LT DUP4 DUP3 SUB SUB SWAP2 POP POP DUP1 PUSH1 0x0 EQ ISZERO PUSH2 0x24A0 JUMPI DUP4 DUP3 DUP2 PUSH2 0x2496 JUMPI PUSH2 0x2496 PUSH2 0x2D4A JUMP JUMPDEST DIV SWAP3 POP POP POP PUSH2 0x95B JUMP JUMPDEST DUP4 DUP2 LT PUSH2 0x24CA JUMPI PUSH1 0x40 MLOAD PUSH4 0x1DCF3063 PUSH1 0xE2 SHL DUP2 MSTORE PUSH1 0x4 DUP2 ADD DUP3 SWAP1 MSTORE PUSH1 0x24 DUP2 ADD DUP6 SWAP1 MSTORE PUSH1 0x44 ADD PUSH2 0x3FE JUMP JUMPDEST PUSH1 0x0 DUP5 DUP7 DUP9 MULMOD PUSH1 0x2 PUSH1 0x1 DUP8 NOT DUP2 ADD DUP9 AND SWAP8 DUP9 SWAP1 DIV PUSH1 0x3 DUP2 MUL DUP4 XOR DUP1 DUP3 MUL DUP5 SUB MUL DUP1 DUP3 MUL DUP5 SUB MUL DUP1 DUP3 MUL DUP5 SUB MUL DUP1 DUP3 MUL DUP5 SUB MUL DUP1 DUP3 MUL DUP5 SUB MUL SWAP1 DUP2 MUL SWAP1 SWAP3 SUB SWAP1 SWAP2 MUL PUSH1 0x0 DUP9 SWAP1 SUB DUP9 SWAP1 DIV SWAP1 SWAP2 ADD DUP6 DUP4 GT SWAP1 SWAP5 SUB SWAP4 SWAP1 SWAP4 MUL SWAP4 SUB SWAP5 SWAP1 SWAP5 DIV SWAP2 SWAP1 SWAP2 OR MUL SWAP5 SWAP4 POP POP POP POP JUMP JUMPDEST PUSH1 0x0 PUSH1 0x20 DUP3 DUP5 SUB SLT ISZERO PUSH2 0x2545 JUMPI PUSH1 0x0 DUP1 REVERT JUMPDEST POP CALLDATALOAD SWAP2 SWAP1 POP JUMP JUMPDEST PUSH1 0x0 DUP1 PUSH1 0x20 DUP4 DUP6 SUB SLT ISZERO PUSH2 0x255F JUMPI PUSH1 0x0 DUP1 REVERT JUMPDEST DUP3 CALLDATALOAD PUSH8 0xFFFFFFFFFFFFFFFF DUP1 DUP3 GT ISZERO PUSH2 0x2577 JUMPI PUSH1 0x0 DUP1 REVERT JUMPDEST DUP2 DUP6 ADD SWAP2 POP DUP6 PUSH1 0x1F DUP4 ADD SLT PUSH2 0x258B JUMPI PUSH1 0x0 DUP1 REVERT JUMPDEST DUP2 CALLDATALOAD DUP2 DUP2 GT ISZERO PUSH2 0x259A JUMPI PUSH1 0x0 DUP1 REVERT JUMPDEST DUP7 PUSH1 0x20 DUP3 PUSH1 0x5 SHL DUP6 ADD ADD GT ISZERO PUSH2 0x25AF JUMPI PUSH1 0x0 DUP1 REVERT JUMPDEST PUSH1 0x20 SWAP3 SWAP1 SWAP3 ADD SWAP7 SWAP2 SWAP6 POP SWAP1 SWAP4 POP POP POP POP JUMP JUMPDEST PUSH1 0x1 PUSH1 0x1 PUSH1 0xA0 SHL SUB DUP2 AND DUP2 EQ PUSH2 0x25D6 JUMPI PUSH1 0x0 DUP1 REVERT JUMPDEST POP JUMP JUMPDEST DUP1 CALLDATALOAD PUSH2 0x25E4 DUP2 PUSH2 0x25C1 JUMP JUMPDEST SWAP2 SWAP1 POP JUMP JUMPDEST PUSH1 0x0 PUSH1 0x20 DUP3 DUP5 SUB SLT ISZERO PUSH2 0x25FB JUMPI PUSH1 0x0 DUP1 REVERT JUMPDEST DUP2 CALLDATALOAD PUSH2 0x95B DUP2 PUSH2 0x25C1 JUMP JUMPDEST PUSH1 0x0 DUP1 DUP4 PUSH1 0x1F DUP5 ADD SLT PUSH2 0x2618 JUMPI PUSH1 0x0 DUP1 REVERT JUMPDEST POP DUP2 CALLDATALOAD PUSH8 0xFFFFFFFFFFFFFFFF DUP2 GT ISZERO PUSH2 0x2630 JUMPI PUSH1 0x0 DUP1 REVERT JUMPDEST PUSH1 0x20 DUP4 ADD SWAP2 POP DUP4 PUSH1 0x20 DUP3 DUP6 ADD ADD GT ISZERO PUSH2 0x1CDD JUMPI PUSH1 0x0 DUP1 REVERT JUMPDEST PUSH1 0x0 DUP1 PUSH1 0x0 PUSH1 0x40 DUP5 DUP7 SUB SLT ISZERO PUSH2 0x265D JUMPI PUSH1 0x0 DUP1 REVERT JUMPDEST DUP4 CALLDATALOAD PUSH8 0xFFFFFFFFFFFFFFFF DUP2 GT ISZERO PUSH2 0x2674 JUMPI PUSH1 0x0 DUP1 REVERT JUMPDEST PUSH2 0x2680 DUP7 DUP3 DUP8 ADD PUSH2 0x2606 JUMP JUMPDEST SWAP1 SWAP5 POP SWAP3 POP POP PUSH1 0x20 DUP5 ADD CALLDATALOAD PUSH2 0x2694 DUP2 PUSH2 0x25C1 JUMP JUMPDEST DUP1 SWAP2 POP POP SWAP3 POP SWAP3 POP SWAP3 JUMP JUMPDEST PUSH1 0x0 DUP1 PUSH1 0x40 DUP4 DUP6 SUB SLT ISZERO PUSH2 0x26B2 JUMPI PUSH1 0x0 DUP1 REVERT JUMPDEST DUP3 CALLDATALOAD PUSH2 0x26BD DUP2 PUSH2 0x25C1 JUMP JUMPDEST SWAP2 POP PUSH1 0x20 DUP4 ADD CALLDATALOAD PUSH2 0x26CD DUP2 PUSH2 0x25C1 JUMP JUMPDEST DUP1 SWAP2 POP POP SWAP3 POP SWAP3 SWAP1 POP JUMP JUMPDEST PUSH1 0x0 DUP1 PUSH1 0x0 DUP1 PUSH1 0x60 DUP6 DUP8 SUB SLT ISZERO PUSH2 0x26EE JUMPI PUSH1 0x0 DUP1 REVERT JUMPDEST DUP5 CALLDATALOAD PUSH8 0xFFFFFFFFFFFFFFFF DUP2 GT ISZERO PUSH2 0x2705 JUMPI PUSH1 0x0 DUP1 REVERT JUMPDEST PUSH2 0x2711 DUP8 DUP3 DUP9 ADD PUSH2 0x2606 JUMP JUMPDEST SWAP1 SWAP6 POP SWAP4 POP POP PUSH1 0x20 DUP6 ADD CALLDATALOAD PUSH2 0x2725 DUP2 PUSH2 0x25C1 JUMP JUMPDEST SWAP4 SWAP7 SWAP3 SWAP6 POP SWAP3 SWAP4 PUSH1 0x40 ADD CALLDATALOAD SWAP3 POP POP JUMP JUMPDEST PUSH1 0x0 DUP1 PUSH1 0x40 DUP4 DUP6 SUB SLT ISZERO PUSH2 0x2748 JUMPI PUSH1 0x0 DUP1 REVERT JUMPDEST DUP3 CALLDATALOAD PUSH2 0x2753 DUP2 PUSH2 0x25C1 JUMP JUMPDEST SWAP5 PUSH1 0x20 SWAP4 SWAP1 SWAP4 ADD CALLDATALOAD SWAP4 POP POP POP JUMP JUMPDEST PUSH4 0x4E487B71 PUSH1 0xE0 SHL PUSH1 0x0 MSTORE PUSH1 0x41 PUSH1 0x4 MSTORE PUSH1 0x24 PUSH1 0x0 REVERT JUMPDEST PUSH1 0x0 DUP1 PUSH1 0x0 DUP1 PUSH1 0x80 DUP6 DUP8 SUB SLT ISZERO PUSH2 0x278D JUMPI PUSH1 0x0 DUP1 REVERT JUMPDEST DUP5 CALLDATALOAD PUSH8 0xFFFFFFFFFFFFFFFF DUP1 DUP3 GT ISZERO PUSH2 0x27A5 JUMPI PUSH1 0x0 DUP1 REVERT JUMPDEST DUP2 DUP8 ADD SWAP2 POP DUP8 PUSH1 0x1F DUP4 ADD SLT PUSH2 0x27B9 JUMPI PUSH1 0x0 DUP1 REVERT JUMPDEST DUP2 CALLDATALOAD PUSH1 0x20 DUP3 DUP3 GT ISZERO PUSH2 0x27CD JUMPI PUSH2 0x27CD PUSH2 0x2761 JUMP JUMPDEST DUP2 PUSH1 0x5 SHL PUSH1 0x40 MLOAD PUSH1 0x1F NOT PUSH1 0x3F DUP4 ADD AND DUP2 ADD DUP2 DUP2 LT DUP7 DUP3 GT OR ISZERO PUSH2 0x27F2 JUMPI PUSH2 0x27F2 PUSH2 0x2761 JUMP JUMPDEST PUSH1 0x40 MSTORE SWAP3 DUP4 MSTORE DUP2 DUP4 ADD SWAP4 POP DUP5 DUP2 ADD DUP3 ADD SWAP3 DUP12 DUP5 GT ISZERO PUSH2 0x2810 JUMPI PUSH1 0x0 DUP1 REVERT JUMPDEST SWAP5 DUP3 ADD SWAP5 JUMPDEST DUP4 DUP7 LT ISZERO PUSH2 0x2835 JUMPI PUSH2 0x2826 DUP7 PUSH2 0x25D9 JUMP JUMPDEST DUP6 MSTORE SWAP5 DUP3 ADD SWAP5 SWAP4 DUP3 ADD SWAP4 PUSH2 0x2815 JUMP JUMPDEST SWAP12 SWAP2 DUP11 ADD CALLDATALOAD SWAP11 POP POP PUSH1 0x40 DUP10 ADD CALLDATALOAD SWAP9 PUSH1 0x60 ADD CALLDATALOAD SWAP8 POP SWAP6 POP POP POP POP POP POP JUMP JUMPDEST PUSH1 0x0 DUP1 PUSH1 0x20 DUP4 DUP6 SUB SLT ISZERO PUSH2 0x2865 JUMPI PUSH1 0x0 DUP1 REVERT JUMPDEST DUP3 CALLDATALOAD PUSH8 0xFFFFFFFFFFFFFFFF DUP2 GT ISZERO PUSH2 0x287C JUMPI PUSH1 0x0 DUP1 REVERT JUMPDEST PUSH2 0x2888 DUP6 DUP3 DUP7 ADD PUSH2 0x2606 JUMP JUMPDEST SWAP1 SWAP7 SWAP1 SWAP6 POP SWAP4 POP POP POP POP JUMP JUMPDEST PUSH1 0x0 DUP1 PUSH1 0x0 PUSH1 0x40 DUP5 DUP7 SUB SLT ISZERO PUSH2 0x28A9 JUMPI PUSH1 0x0 DUP1 REVERT JUMPDEST DUP4 CALLDATALOAD PUSH8 0xFFFFFFFFFFFFFFFF DUP2 GT ISZERO PUSH2 0x28C0 JUMPI PUSH1 0x0 DUP1 REVERT JUMPDEST PUSH2 0x28CC DUP7 DUP3 DUP8 ADD PUSH2 0x2606 JUMP JUMPDEST SWAP1 SWAP8 SWAP1 SWAP7 POP PUSH1 0x20 SWAP6 SWAP1 SWAP6 ADD CALLDATALOAD SWAP5 SWAP4 POP POP POP POP JUMP JUMPDEST PUSH1 0x20 DUP1 DUP3 MSTORE PUSH1 0x14 SWAP1 DUP3 ADD MSTORE PUSH20 0x191CCB585D5D1A0B5D5B985D5D1A1BDC9A5E9959 PUSH1 0x62 SHL PUSH1 0x40 DUP3 ADD MSTORE PUSH1 0x60 ADD SWAP1 JUMP JUMPDEST DUP1 SLOAD PUSH1 0x0 SWAP1 PUSH1 0x1 DUP2 DUP2 SHR SWAP1 DUP1 DUP4 AND DUP1 PUSH2 0x2928 JUMPI PUSH1 0x7F DUP4 AND SWAP3 POP JUMPDEST PUSH1 0x20 DUP1 DUP5 LT DUP3 EQ ISZERO PUSH2 0x294A JUMPI PUSH4 0x4E487B71 PUSH1 0xE0 SHL PUSH1 0x0 MSTORE PUSH1 0x22 PUSH1 0x4 MSTORE PUSH1 0x24 PUSH1 0x0 REVERT JUMPDEST DUP2 DUP1 ISZERO PUSH2 0x295E JUMPI PUSH1 0x1 DUP2 EQ PUSH2 0x296F JUMPI PUSH2 0x299C JUMP JUMPDEST PUSH1 0xFF NOT DUP7 AND DUP10 MSTORE DUP5 DUP10 ADD SWAP7 POP PUSH2 0x299C JUMP JUMPDEST PUSH1 0x0 DUP9 DUP2 MSTORE PUSH1 0x20 SWAP1 KECCAK256 PUSH1 0x0 JUMPDEST DUP7 DUP2 LT ISZERO PUSH2 0x2994 JUMPI DUP2 SLOAD DUP12 DUP3 ADD MSTORE SWAP1 DUP6 ADD SWAP1 DUP4 ADD PUSH2 0x297B JUMP JUMPDEST POP POP DUP5 DUP10 ADD SWAP7 POP JUMPDEST POP POP POP POP POP POP SWAP3 SWAP2 POP POP JUMP JUMPDEST PUSH1 0x0 PUSH2 0x95B DUP3 DUP5 PUSH2 0x290E JUMP JUMPDEST PUSH1 0x0 PUSH1 0x20 DUP3 DUP5 SUB SLT ISZERO PUSH2 0x29C6 JUMPI PUSH1 0x0 DUP1 REVERT JUMPDEST DUP2 MLOAD PUSH2 0x95B DUP2 PUSH2 0x25C1 JUMP JUMPDEST PUSH4 0x4E487B71 PUSH1 0xE0 SHL PUSH1 0x0 MSTORE PUSH1 0x32 PUSH1 0x4 MSTORE PUSH1 0x24 PUSH1 0x0 REVERT JUMPDEST PUSH4 0x4E487B71 PUSH1 0xE0 SHL PUSH1 0x0 MSTORE PUSH1 0x11 PUSH1 0x4 MSTORE PUSH1 0x24 PUSH1 0x0 REVERT JUMPDEST PUSH1 0x0 DUP3 NOT DUP3 GT ISZERO PUSH2 0x2A10 JUMPI PUSH2 0x2A10 PUSH2 0x29E7 JUMP JUMPDEST POP ADD SWAP1 JUMP JUMPDEST PUSH1 0x0 PUSH2 0x2A21 DUP3 DUP6 PUSH2 0x290E JUMP JUMPDEST PUSH1 0x60 SWAP4 SWAP1 SWAP4 SHL PUSH1 0x1 PUSH1 0x1 PUSH1 0x60 SHL SUB NOT AND DUP4 MSTORE POP POP PUSH1 0x14 ADD SWAP2 SWAP1 POP JUMP JUMPDEST PUSH1 0x0 PUSH2 0x2A49 DUP3 DUP8 PUSH2 0x290E JUMP JUMPDEST DUP5 DUP7 DUP3 CALLDATACOPY PUSH1 0x60 SWAP4 SWAP1 SWAP4 SHL PUSH1 0x1 PUSH1 0x1 PUSH1 0x60 SHL SUB NOT AND SWAP3 SWAP1 SWAP4 ADD SWAP2 DUP3 MSTORE POP PUSH1 0x14 ADD SWAP4 SWAP3 POP POP POP JUMP JUMPDEST PUSH1 0x0 PUSH1 0x20 DUP3 DUP5 SUB SLT ISZERO PUSH2 0x2A81 JUMPI PUSH1 0x0 DUP1 REVERT JUMPDEST POP MLOAD SWAP2 SWAP1 POP JUMP JUMPDEST PUSH1 0x40 DUP2 MSTORE PUSH1 0x0 DUP4 MLOAD DUP1 PUSH1 0x40 DUP5 ADD MSTORE PUSH1 0x0 JUMPDEST DUP2 DUP2 LT ISZERO PUSH2 0x2AB6 JUMPI PUSH1 0x20 DUP2 DUP8 ADD DUP2 ADD MLOAD PUSH1 0x60 DUP7 DUP5 ADD ADD MSTORE ADD PUSH2 0x2A99 JUMP JUMPDEST DUP2 DUP2 GT ISZERO PUSH2 0x2AC8 JUMPI PUSH1 0x0 PUSH1 0x60 DUP4 DUP7 ADD ADD MSTORE JUMPDEST POP PUSH1 0x1 PUSH1 0x1 PUSH1 0xA0 SHL SUB SWAP4 SWAP1 SWAP4 AND PUSH1 0x20 DUP4 ADD MSTORE POP PUSH1 0x1F SWAP2 SWAP1 SWAP2 ADD PUSH1 0x1F NOT AND ADD PUSH1 0x60 ADD SWAP2 SWAP1 POP JUMP JUMPDEST PUSH1 0x0 PUSH2 0x2AFA DUP3 DUP7 PUSH2 0x290E JUMP JUMPDEST PUSH1 0x60 SWAP5 SWAP1 SWAP5 SHL PUSH1 0x1 PUSH1 0x1 PUSH1 0x60 SHL SUB NOT AND DUP5 MSTORE POP POP PUSH1 0x14 DUP3 ADD MSTORE PUSH1 0x34 ADD SWAP2 SWAP1 POP JUMP JUMPDEST PUSH1 0x0 PUSH1 0x0 NOT DUP3 EQ ISZERO PUSH2 0x2B2F JUMPI PUSH2 0x2B2F PUSH2 0x29E7 JUMP JUMPDEST POP PUSH1 0x1 ADD SWAP1 JUMP JUMPDEST PUSH1 0x0 DUP2 MLOAD DUP1 DUP5 MSTORE PUSH1 0x20 DUP1 DUP6 ADD SWAP5 POP DUP1 DUP5 ADD PUSH1 0x0 JUMPDEST DUP4 DUP2 LT ISZERO PUSH2 0x2B66 JUMPI DUP2 MLOAD DUP8 MSTORE SWAP6 DUP3 ADD SWAP6 SWAP1 DUP3 ADD SWAP1 PUSH1 0x1 ADD PUSH2 0x2B4A JUMP JUMPDEST POP SWAP5 SWAP6 SWAP5 POP POP POP POP POP JUMP JUMPDEST PUSH1 0x1 PUSH1 0x1 PUSH1 0xA0 SHL SUB DUP9 DUP2 AND DUP3 MSTORE PUSH1 0x20 DUP3 ADD DUP9 SWAP1 MSTORE DUP7 DUP2 AND PUSH1 0x40 DUP4 ADD MSTORE PUSH1 0x60 DUP3 ADD DUP7 SWAP1 MSTORE DUP5 AND PUSH1 0x80 DUP3 ADD MSTORE PUSH1 0xE0 PUSH1 0xA0 DUP3 ADD DUP2 SWAP1 MSTORE PUSH1 0x0 SWAP1 PUSH2 0x2BB3 SWAP1 DUP4 ADD DUP6 PUSH2 0x2B36 JUMP JUMPDEST DUP3 DUP2 SUB PUSH1 0xC0 DUP5 ADD MSTORE PUSH2 0x2BC5 DUP2 DUP6 PUSH2 0x2B36 JUMP JUMPDEST SWAP11 SWAP10 POP POP POP POP POP POP POP POP POP POP JUMP JUMPDEST PUSH1 0x0 DUP3 DUP3 LT ISZERO PUSH2 0x2BE5 JUMPI PUSH2 0x2BE5 PUSH2 0x29E7 JUMP JUMPDEST POP SUB SWAP1 JUMP JUMPDEST PUSH1 0x0 PUSH2 0x2BF6 DUP3 DUP7 PUSH2 0x290E JUMP JUMPDEST PUSH12 0xFFFFFFFFFFFFFFFFFFFFFFFF NOT DUP6 PUSH1 0x60 SHL AND DUP2 MSTORE PUSH1 0x14 DUP2 ADD SWAP1 POP DUP4 MLOAD PUSH1 0x20 DUP1 DUP7 ADD PUSH1 0x0 JUMPDEST DUP4 DUP2 LT ISZERO PUSH2 0x2C37 JUMPI DUP2 MLOAD DUP6 MSTORE SWAP4 DUP3 ADD SWAP4 SWAP1 DUP3 ADD SWAP1 PUSH1 0x1 ADD PUSH2 0x2C1B JUMP JUMPDEST POP SWAP3 SWAP9 SWAP8 POP POP POP POP POP POP POP POP JUMP JUMPDEST PUSH1 0x0 PUSH1 0x20 DUP3 DUP5 SUB SLT ISZERO PUSH2 0x2C57 JUMPI PUSH1 0x0 DUP1 REVERT JUMPDEST DUP2 MLOAD DUP1 ISZERO ISZERO DUP2 EQ PUSH2 0x95B JUMPI PUSH1 0x0 DUP1 REVERT JUMPDEST PUSH1 0x0 PUSH1 0xE0 DUP3 ADD PUSH1 0x1 DUP1 PUSH1 0xA0 SHL SUB DUP1 DUP12 AND DUP5 MSTORE PUSH1 0x20 DUP11 DUP2 DUP7 ADD MSTORE DUP10 PUSH1 0x40 DUP7 ADD MSTORE PUSH1 0xE0 PUSH1 0x60 DUP7 ADD MSTORE DUP3 DUP10 MLOAD DUP1 DUP6 MSTORE PUSH2 0x100 DUP8 ADD SWAP2 POP DUP3 DUP12 ADD SWAP5 POP PUSH1 0x0 JUMPDEST DUP2 DUP2 LT ISZERO PUSH2 0x2CC0 JUMPI DUP6 MLOAD DUP6 AND DUP4 MSTORE SWAP5 DUP4 ADD SWAP5 SWAP2 DUP4 ADD SWAP2 PUSH1 0x1 ADD PUSH2 0x2CA2 JUMP JUMPDEST POP POP DUP9 PUSH1 0x80 DUP8 ADD MSTORE DUP6 DUP2 SUB PUSH1 0xA0 DUP8 ADD MSTORE PUSH2 0x2CDA DUP2 DUP10 PUSH2 0x2B36 JUMP JUMPDEST SWAP4 POP POP POP POP DUP3 DUP2 SUB PUSH1 0xC0 DUP5 ADD MSTORE PUSH2 0x2BC5 DUP2 DUP6 PUSH2 0x2B36 JUMP JUMPDEST PUSH1 0x0 PUSH2 0x2CFD DUP3 DUP7 PUSH2 0x290E JUMP JUMPDEST DUP4 DUP6 DUP3 CALLDATACOPY PUSH1 0x0 SWAP4 ADD SWAP3 DUP4 MSTORE POP SWAP1 SWAP4 SWAP3 POP POP POP JUMP JUMPDEST PUSH32 0x7068616E746F6D2E626F6E64696E672E747970652E766573745F6C656E677468 DUP2 MSTORE DUP2 DUP4 PUSH1 0x20 DUP4 ADD CALLDATACOPY PUSH1 0x0 SWAP2 ADD PUSH1 0x20 ADD SWAP1 DUP2 MSTORE SWAP2 SWAP1 POP JUMP JUMPDEST PUSH4 0x4E487B71 PUSH1 0xE0 SHL PUSH1 0x0 MSTORE PUSH1 0x12 PUSH1 0x4 MSTORE PUSH1 0x24 PUSH1 0x0 REVERT INVALID LOG2 PUSH5 0x6970667358 0x22 SLT KECCAK256 GASLIMIT 0xE1 0xBD 0xB1 SSTORE SWAP7 PUSH17 0xE2A10D8051AFA4EAA09FB110F25B0A58CF PUSH13 0x1EEAEC3DA73F0764736F6C6343 STOP ADDMOD EXP STOP CALLER ",
  "sha1": "03ff5c21c9a1869a868c19e61974f5d9df1c6eff",
  "source": "/* SPDX-License-Identifier: MIT */\npragma solidity =0.8.10;\n\n/* Package Imports */\nimport {DSAuth} from \"../libs/DSAuth.sol\";\nimport {IERC20} from \"@openzeppelin/contracts/token/ERC20/IERC20.sol\";\nimport {PRBMathUD60x18} from \"@hifi-finance/prb-math/contracts/PRBMathUD60x18.sol\";\n\n\n/* Internal Imports */\nimport {PhantomStorageMixin} from \"../mixins/PhantomStorageMixin.sol\";\n\n/**\n * @title PhantomAdmin\n */\ncontract PhantomAdmin is PhantomStorageMixin, DSAuth {\n    using PRBMathUD60x18 for uint256;\n\n    constructor(address storageAddress) PhantomStorageMixin(storageAddress) DSAuth() {\n        return;\n    }\n\n    //=================================================================================================================\n    // Staking\n    //=================================================================================================================\n\n    function updateStakingRewardRate(uint256 newRewardRate) external auth {\n        require(newRewardRate <= 1e18, \"rewardRate must be less than or euqal to 1e18 aka 100%\");\n        sPHM().updateRewardRate(newRewardRate);\n    }\n\n    //=================================================================================================================\n    // Bonding\n    //=================================================================================================================\n\n    /**\n     * @notice % Add/Remove tokens from being bondable\n     */\n    function addTokenToBondingList(address inToken) public auth {\n        PhantomStorage().setBool(keccak256(abi.encodePacked(phantom.bonding.is_valid, inToken)), true);\n    }\n\n    function addMultipleTokensToBondingList(address[] calldata inTokens) external auth {\n        for (uint256 i = 0; i < inTokens.length; i += 1) {\n            addTokenToBondingList(inTokens[i]);\n        }\n    }\n\n    function removeTokenFromBondingList(address inToken) public auth {\n        PhantomStorage().deleteBool(keccak256(abi.encodePacked(phantom.bonding.is_valid, inToken)));\n    }\n\n    function removeMultipleTokensToBondingList(address[] calldata inTokens) external auth {\n        for (uint256 i = 0; i < inTokens.length; i += 1) {\n            removeTokenFromBondingList(inTokens[i]);\n        }\n    }\n\n    function isValidTokenForBond(address inToken) external view returns (bool) {\n        return PhantomStorage().getBool(keccak256(abi.encodePacked(phantom.bonding.is_valid, inToken)));\n    }\n\n    /**\n     * Set the debt limit for bonding.\n     * @param limit the debt limit expressed as a ratio of PHM total suppyl\n     */\n    function setBondLimit(uint256 limit) external auth {\n        PhantomStorage().setUint(keccak256(\"phantom.bonding.max_debt_ratio\"), limit);\n    }\n\n    function currentBondRatio() external view returns (uint256) {\n        return PhantomStorage().getUint(keccak256(phantom.bonding.debt)).div(PHM().totalSupply());\n    }\n\n    /**\n     * @notice Add a new bondtype with vesting length in seconds\n     */\n    function addBondType(bytes calldata bondType, uint256 vestInSeconds) external auth {\n        PhantomStorage().setBool(keccak256(abi.encodePacked(phantom.bonding.is_valid, bondType)), true);\n        PhantomStorage().setUint(\n            keccak256(abi.encodePacked(\"phantom.bonding.type.vest_length\", bondType)),\n            vestInSeconds\n        );\n    }\n\n    /**\n     * @notice Remove a bond type\n     */\n    function removeBondType(bytes calldata bondType) external auth {\n        PhantomStorage().deleteBool(keccak256(abi.encodePacked(phantom.bonding.is_valid, bondType)));\n        PhantomStorage().deleteUint(keccak256(abi.encodePacked(phantom.bonding.vest_length, bondType)));\n    }\n\n    /**\n     * @notice Get info about a bond type\n     */\n    function infoOfBondType(bytes calldata bondType) external view returns (bool, uint256) {\n        bool isValid = PhantomStorage().getBool(keccak256(abi.encodePacked(phantom.bonding.is_valid, bondType)));\n        uint256 vestInBlocks = PhantomStorage().getUint(\n            keccak256(abi.encodePacked(phantom.bonding.vest_length, bondType))\n        );\n        return (isValid, vestInBlocks);\n    }\n\n    // 18 decimals 1e18 = 1x, 2e18 = 2x/100%, 3e18 = 3x/200%\n    function setBondingMultiplierFor(\n        bytes calldata inBondType,\n        address inToken,\n        uint256 value\n    ) external auth {\n        PhantomStorage().setUint(keccak256(abi.encodePacked(phantom.bonding.multiplier, inBondType, inToken)), value);\n    }\n\n    function bondingMultiplierFor(bytes calldata inBondType, address inToken) external view returns (uint256) {\n        return PhantomStorage().getUint(keccak256(abi.encodePacked(phantom.bonding.multiplier, inBondType, inToken)));\n    }\n\n    function registerBondPricingTWAP(address twap, address token) external auth {\n        PhantomStorage().registerContract(abi.encodePacked(phantom.contracts.bondpricing, token), twap);\n    }\n\n    function maxBondPayoutPHM() external view returns (uint256) {\n        uint256 maxDebtRatio = PhantomStorage().getUint(keccak256(phantom.bonding.max_debt_ratio)); // fixed point\n        uint256 outstandingBondDebt = PhantomStorage().getUint(keccak256(phantom.bonding.debt));\n        uint256 maxDebt = PHM().totalSupply().mul(maxDebtRatio);\n\n        if (maxDebt >= outstandingBondDebt) return 0;\n        return maxDebt - outstandingBondDebt;\n    }\n\n    //=================================================================================================================\n    // Protocol Management\n    //=================================================================================================================\n\n    function setSpiritAsDefaultDex() external auth {\n        PhantomStorage().setAddress(\n            keccak256(phantom.routing.dex_router_address),\n            PhantomStorage().getAddress(keccak256(phantom.routing.spirit_router_address))\n        );\n        PhantomStorage().setAddress(\n            keccak256(phantom.routing.dex_factory_address),\n            PhantomStorage().getAddress(keccak256(phantom.routing.spirit_factory_address))\n        );\n    }\n\n    function setSpookyAsDefaultDex() external auth {\n        PhantomStorage().setAddress(\n            keccak256(phantom.routing.dex_router_address),\n            PhantomStorage().getAddress(keccak256(phantom.routing.spooky_router_address))\n        );\n        PhantomStorage().setAddress(\n            keccak256(phantom.routing.dex_factory_address),\n            PhantomStorage().getAddress(keccak256(phantom.routing.spooky_factory_address))\n        );\n    }\n\n    function setCustomDefaultDex(address dexRouter, address dexFactory) external auth {\n        PhantomStorage().setAddress(keccak256(phantom.routing.dex_router_address), dexRouter);\n        PhantomStorage().setAddress(keccak256(phantom.routing.dex_factory_address), dexFactory);\n    }\n\n    /**\n     * Exchange reserves, going via path to do the exchange. The first and last element of the\n     * path must be reserve tokens. Transaction will revert if the minInAmount of tokens isn't\n     * received for the exchange.\n     */\n    function rebalanceReserveTokens(\n        address[] memory path, \n        uint256 outAmount, \n        uint256 minInAmount, \n        uint256 deadline\n    ) external auth {\n        address outToken = path[0];\n        address inToken = path[path.length-1];\n        require(\n            PhantomTreasury().isReserveToken(outToken), \n            \"PhantomAdmin: first token in path isn't a reserve token\"\n        );\n        require(\n            PhantomTreasury().isReserveToken(inToken), \n            \"PhantomAdmin: last token in path isn't a reserve token\"\n        );\n        require(\n            IERC20(outToken).balanceOf(address(PhantomVault())) >= outAmount, \n            \"PhantomAdmin: Vault balance of outToken is too low\"\n        );\n        PhantomDexRouter().swapSpendMaximum(\n            PhantomStorage().getAddress(keccak256(phantom.routing.dex_router_address)),\n            outAmount,\n            minInAmount,\n            path,\n            deadline,\n            standardAccountKeys(),\n            standardAccountPercentages()\n        );\n    }\n\n    //=================================================================================================================\n    // Employee Management\n    //=================================================================================================================\n\n    // function hireEmployee(address employee, uint256 salary) external auth {\n    //     PhantomPayments().addEmployee(employee, salary, address(PHM()));\n    // }\n\n    // function fireEmployee(address employee, uint256 salary) external auth {\n    //     PhantomPayments().deleteEmployee(employee);\n    // }\n\n    // function changeSalary(address employee, uint256 newSalary) external auth {\n    //     PhantomPayments().modifyEmployee(employee, address(PHM()), newSalary);\n    // }\n\n    //=================================================================================================================\n    // DAO Operations Funds\n    //=================================================================================================================\n\n    function withdrawOpsDAOFunds(address destination, uint256 amount) external auth {\n        PhantomTreasury().swap(\n            destination,\n            (0), \n            address(0), \n            amount, \n            address(PHM()), \n            daoKey(), \n            percentage100()\n        );\n    }\n\n    function opsDAOBalance() external view returns (uint256) {\n        return PhantomStorage().getUint(keccak256(\n            abi.encodePacked(phantom.treasury.balances, address(PHM()), daoKey()))\n        );\n    }\n\n    //=================================================================================================================\n    // Protocol Information\n    //=================================================================================================================\n\n    function treasuryTokenBalance(address token) external view returns (uint256) {\n        bytes32[] memory keys = standardAccountKeys();\n        uint256 balance;\n        for (uint256 i; i < keys.length; i++) {\n            balance += PhantomStorage().getUint(\n                keccak256(abi.encodePacked(phantom.treasury.balances, token, keys[i]))\n            );\n        }\n        return balance;\n    }\n\n    function reservesTokenBalance(address token) external view returns (uint256) {\n        bytes32[] memory keys = reserveKey();\n        uint256 balance;\n        for (uint256 i; i < keys.length; i++) {\n            balance += PhantomStorage().getUint(\n                keccak256(abi.encodePacked(phantom.treasury.balances, token, keys[i]))\n            );\n        }\n        return balance;\n    }\n}\n",
  "sourcePath": "contracts/core/PhantomAdmin.sol",
  "type": "contract"
}