{
  "abi": [
    {
      "inputs": [],
      "stateMutability": "nonpayable",
      "type": "constructor"
    },
    {
      "inputs": [
        {
          "internalType": "address",
          "name": "contractAddress",
          "type": "address"
        }
      ],
      "name": "PhantomStorage__ContractNotRegistered",
      "type": "error"
    },
    {
      "inputs": [
        {
          "internalType": "address",
          "name": "user",
          "type": "address"
        }
      ],
      "name": "PhantomStorage__NoGuardianInvitation",
      "type": "error"
    },
    {
      "inputs": [
        {
          "internalType": "address",
          "name": "user",
          "type": "address"
        }
      ],
      "name": "PhantomStorage__NotStorageGuardian",
      "type": "error"
    },
    {
      "anonymous": false,
      "inputs": [
        {
          "indexed": false,
          "internalType": "address",
          "name": "contractRegistered",
          "type": "address"
        }
      ],
      "name": "ContractRegistered",
      "type": "event"
    },
    {
      "anonymous": false,
      "inputs": [
        {
          "indexed": false,
          "internalType": "address",
          "name": "oldStorageGuardian",
          "type": "address"
        },
        {
          "indexed": false,
          "internalType": "address",
          "name": "newStorageGuardian",
          "type": "address"
        }
      ],
      "name": "GuardianChanged",
      "type": "event"
    },
    {
      "inputs": [],
      "name": "acceptGuardianInvitation",
      "outputs": [],
      "stateMutability": "nonpayable",
      "type": "function"
    },
    {
      "inputs": [
        {
          "internalType": "bytes32",
          "name": "_key",
          "type": "bytes32"
        },
        {
          "internalType": "uint256",
          "name": "_amount",
          "type": "uint256"
        }
      ],
      "name": "addUint",
      "outputs": [],
      "stateMutability": "nonpayable",
      "type": "function"
    },
    {
      "inputs": [
        {
          "internalType": "bytes32",
          "name": "_key",
          "type": "bytes32"
        }
      ],
      "name": "deleteAddress",
      "outputs": [],
      "stateMutability": "nonpayable",
      "type": "function"
    },
    {
      "inputs": [
        {
          "internalType": "bytes32",
          "name": "_key",
          "type": "bytes32"
        }
      ],
      "name": "deleteAddressArray",
      "outputs": [],
      "stateMutability": "nonpayable",
      "type": "function"
    },
    {
      "inputs": [
        {
          "internalType": "bytes32",
          "name": "_key",
          "type": "bytes32"
        }
      ],
      "name": "deleteBool",
      "outputs": [],
      "stateMutability": "nonpayable",
      "type": "function"
    },
    {
      "inputs": [
        {
          "internalType": "bytes32",
          "name": "_key",
          "type": "bytes32"
        }
      ],
      "name": "deleteBoolArray",
      "outputs": [],
      "stateMutability": "nonpayable",
      "type": "function"
    },
    {
      "inputs": [
        {
          "internalType": "bytes32",
          "name": "_key",
          "type": "bytes32"
        }
      ],
      "name": "deleteBytes",
      "outputs": [],
      "stateMutability": "nonpayable",
      "type": "function"
    },
    {
      "inputs": [
        {
          "internalType": "bytes32",
          "name": "_key",
          "type": "bytes32"
        }
      ],
      "name": "deleteBytes32",
      "outputs": [],
      "stateMutability": "nonpayable",
      "type": "function"
    },
    {
      "inputs": [
        {
          "internalType": "bytes32",
          "name": "_key",
          "type": "bytes32"
        }
      ],
      "name": "deleteBytes32Array",
      "outputs": [],
      "stateMutability": "nonpayable",
      "type": "function"
    },
    {
      "inputs": [
        {
          "internalType": "bytes32",
          "name": "_key",
          "type": "bytes32"
        }
      ],
      "name": "deleteBytesArray",
      "outputs": [],
      "stateMutability": "nonpayable",
      "type": "function"
    },
    {
      "inputs": [
        {
          "internalType": "bytes32",
          "name": "_key",
          "type": "bytes32"
        }
      ],
      "name": "deleteInt",
      "outputs": [],
      "stateMutability": "nonpayable",
      "type": "function"
    },
    {
      "inputs": [
        {
          "internalType": "bytes32",
          "name": "_key",
          "type": "bytes32"
        }
      ],
      "name": "deleteIntArray",
      "outputs": [],
      "stateMutability": "nonpayable",
      "type": "function"
    },
    {
      "inputs": [
        {
          "internalType": "bytes32",
          "name": "_key",
          "type": "bytes32"
        }
      ],
      "name": "deleteString",
      "outputs": [],
      "stateMutability": "nonpayable",
      "type": "function"
    },
    {
      "inputs": [
        {
          "internalType": "bytes32",
          "name": "_key",
          "type": "bytes32"
        }
      ],
      "name": "deleteStringArray",
      "outputs": [],
      "stateMutability": "nonpayable",
      "type": "function"
    },
    {
      "inputs": [
        {
          "internalType": "bytes32",
          "name": "_key",
          "type": "bytes32"
        }
      ],
      "name": "deleteUint",
      "outputs": [],
      "stateMutability": "nonpayable",
      "type": "function"
    },
    {
      "inputs": [
        {
          "internalType": "bytes32",
          "name": "_key",
          "type": "bytes32"
        }
      ],
      "name": "deleteUintArray",
      "outputs": [],
      "stateMutability": "nonpayable",
      "type": "function"
    },
    {
      "inputs": [
        {
          "internalType": "bytes32",
          "name": "_key",
          "type": "bytes32"
        }
      ],
      "name": "getAddress",
      "outputs": [
        {
          "internalType": "address",
          "name": "r",
          "type": "address"
        }
      ],
      "stateMutability": "view",
      "type": "function"
    },
    {
      "inputs": [
        {
          "internalType": "bytes32",
          "name": "_key",
          "type": "bytes32"
        }
      ],
      "name": "getAddressArray",
      "outputs": [
        {
          "internalType": "address[]",
          "name": "r",
          "type": "address[]"
        }
      ],
      "stateMutability": "view",
      "type": "function"
    },
    {
      "inputs": [
        {
          "internalType": "bytes32",
          "name": "_key",
          "type": "bytes32"
        }
      ],
      "name": "getBool",
      "outputs": [
        {
          "internalType": "bool",
          "name": "r",
          "type": "bool"
        }
      ],
      "stateMutability": "view",
      "type": "function"
    },
    {
      "inputs": [
        {
          "internalType": "bytes32",
          "name": "_key",
          "type": "bytes32"
        }
      ],
      "name": "getBoolArray",
      "outputs": [
        {
          "internalType": "bool[]",
          "name": "r",
          "type": "bool[]"
        }
      ],
      "stateMutability": "view",
      "type": "function"
    },
    {
      "inputs": [
        {
          "internalType": "bytes32",
          "name": "_key",
          "type": "bytes32"
        }
      ],
      "name": "getBytes",
      "outputs": [
        {
          "internalType": "bytes",
          "name": "",
          "type": "bytes"
        }
      ],
      "stateMutability": "view",
      "type": "function"
    },
    {
      "inputs": [
        {
          "internalType": "bytes32",
          "name": "_key",
          "type": "bytes32"
        }
      ],
      "name": "getBytes32",
      "outputs": [
        {
          "internalType": "bytes32",
          "name": "r",
          "type": "bytes32"
        }
      ],
      "stateMutability": "view",
      "type": "function"
    },
    {
      "inputs": [
        {
          "internalType": "bytes32",
          "name": "_key",
          "type": "bytes32"
        }
      ],
      "name": "getBytes32Array",
      "outputs": [
        {
          "internalType": "bytes32[]",
          "name": "r",
          "type": "bytes32[]"
        }
      ],
      "stateMutability": "view",
      "type": "function"
    },
    {
      "inputs": [
        {
          "internalType": "bytes32",
          "name": "_key",
          "type": "bytes32"
        }
      ],
      "name": "getBytesArray",
      "outputs": [
        {
          "internalType": "bytes[]",
          "name": "",
          "type": "bytes[]"
        }
      ],
      "stateMutability": "view",
      "type": "function"
    },
    {
      "inputs": [],
      "name": "getDeployedStatus",
      "outputs": [
        {
          "internalType": "bool",
          "name": "",
          "type": "bool"
        }
      ],
      "stateMutability": "view",
      "type": "function"
    },
    {
      "inputs": [],
      "name": "getGuardian",
      "outputs": [
        {
          "internalType": "address",
          "name": "",
          "type": "address"
        }
      ],
      "stateMutability": "view",
      "type": "function"
    },
    {
      "inputs": [
        {
          "internalType": "bytes32",
          "name": "_key",
          "type": "bytes32"
        }
      ],
      "name": "getInt",
      "outputs": [
        {
          "internalType": "int256",
          "name": "r",
          "type": "int256"
        }
      ],
      "stateMutability": "view",
      "type": "function"
    },
    {
      "inputs": [
        {
          "internalType": "bytes32",
          "name": "_key",
          "type": "bytes32"
        }
      ],
      "name": "getIntArray",
      "outputs": [
        {
          "internalType": "int256[]",
          "name": "r",
          "type": "int256[]"
        }
      ],
      "stateMutability": "view",
      "type": "function"
    },
    {
      "inputs": [
        {
          "internalType": "bytes32",
          "name": "_key",
          "type": "bytes32"
        }
      ],
      "name": "getString",
      "outputs": [
        {
          "internalType": "string",
          "name": "",
          "type": "string"
        }
      ],
      "stateMutability": "view",
      "type": "function"
    },
    {
      "inputs": [
        {
          "internalType": "bytes32",
          "name": "_key",
          "type": "bytes32"
        }
      ],
      "name": "getStringArray",
      "outputs": [
        {
          "internalType": "string[]",
          "name": "",
          "type": "string[]"
        }
      ],
      "stateMutability": "view",
      "type": "function"
    },
    {
      "inputs": [
        {
          "internalType": "bytes32",
          "name": "_key",
          "type": "bytes32"
        }
      ],
      "name": "getUint",
      "outputs": [
        {
          "internalType": "uint256",
          "name": "r",
          "type": "uint256"
        }
      ],
      "stateMutability": "view",
      "type": "function"
    },
    {
      "inputs": [
        {
          "internalType": "bytes32",
          "name": "_key",
          "type": "bytes32"
        }
      ],
      "name": "getUintArray",
      "outputs": [
        {
          "internalType": "uint256[]",
          "name": "r",
          "type": "uint256[]"
        }
      ],
      "stateMutability": "view",
      "type": "function"
    },
    {
      "inputs": [
        {
          "internalType": "bytes",
          "name": "contractName",
          "type": "bytes"
        },
        {
          "internalType": "address",
          "name": "contractAddress",
          "type": "address"
        }
      ],
      "name": "registerContract",
      "outputs": [],
      "stateMutability": "nonpayable",
      "type": "function"
    },
    {
      "inputs": [
        {
          "internalType": "address",
          "name": "_newAddress",
          "type": "address"
        }
      ],
      "name": "sendGuardianInvitation",
      "outputs": [],
      "stateMutability": "nonpayable",
      "type": "function"
    },
    {
      "inputs": [
        {
          "internalType": "bytes32",
          "name": "_key",
          "type": "bytes32"
        },
        {
          "internalType": "address",
          "name": "_value",
          "type": "address"
        }
      ],
      "name": "setAddress",
      "outputs": [],
      "stateMutability": "nonpayable",
      "type": "function"
    },
    {
      "inputs": [
        {
          "internalType": "bytes32",
          "name": "_key",
          "type": "bytes32"
        },
        {
          "internalType": "address[]",
          "name": "_value",
          "type": "address[]"
        }
      ],
      "name": "setAddressArray",
      "outputs": [],
      "stateMutability": "nonpayable",
      "type": "function"
    },
    {
      "inputs": [
        {
          "internalType": "bytes32",
          "name": "_key",
          "type": "bytes32"
        },
        {
          "internalType": "bool",
          "name": "_value",
          "type": "bool"
        }
      ],
      "name": "setBool",
      "outputs": [],
      "stateMutability": "nonpayable",
      "type": "function"
    },
    {
      "inputs": [
        {
          "internalType": "bytes32",
          "name": "_key",
          "type": "bytes32"
        },
        {
          "internalType": "bool[]",
          "name": "_value",
          "type": "bool[]"
        }
      ],
      "name": "setBoolArray",
      "outputs": [],
      "stateMutability": "nonpayable",
      "type": "function"
    },
    {
      "inputs": [
        {
          "internalType": "bytes32",
          "name": "_key",
          "type": "bytes32"
        },
        {
          "internalType": "bytes",
          "name": "_value",
          "type": "bytes"
        }
      ],
      "name": "setBytes",
      "outputs": [],
      "stateMutability": "nonpayable",
      "type": "function"
    },
    {
      "inputs": [
        {
          "internalType": "bytes32",
          "name": "_key",
          "type": "bytes32"
        },
        {
          "internalType": "bytes32",
          "name": "_value",
          "type": "bytes32"
        }
      ],
      "name": "setBytes32",
      "outputs": [],
      "stateMutability": "nonpayable",
      "type": "function"
    },
    {
      "inputs": [
        {
          "internalType": "bytes32",
          "name": "_key",
          "type": "bytes32"
        },
        {
          "internalType": "bytes32[]",
          "name": "_value",
          "type": "bytes32[]"
        }
      ],
      "name": "setBytes32Array",
      "outputs": [],
      "stateMutability": "nonpayable",
      "type": "function"
    },
    {
      "inputs": [
        {
          "internalType": "bytes32",
          "name": "_key",
          "type": "bytes32"
        },
        {
          "internalType": "bytes[]",
          "name": "_value",
          "type": "bytes[]"
        }
      ],
      "name": "setBytesArray",
      "outputs": [],
      "stateMutability": "nonpayable",
      "type": "function"
    },
    {
      "inputs": [],
      "name": "setDeployedStatus",
      "outputs": [],
      "stateMutability": "nonpayable",
      "type": "function"
    },
    {
      "inputs": [
        {
          "internalType": "bytes32",
          "name": "_key",
          "type": "bytes32"
        },
        {
          "internalType": "int256",
          "name": "_value",
          "type": "int256"
        }
      ],
      "name": "setInt",
      "outputs": [],
      "stateMutability": "nonpayable",
      "type": "function"
    },
    {
      "inputs": [
        {
          "internalType": "bytes32",
          "name": "_key",
          "type": "bytes32"
        },
        {
          "internalType": "int256[]",
          "name": "_value",
          "type": "int256[]"
        }
      ],
      "name": "setIntArray",
      "outputs": [],
      "stateMutability": "nonpayable",
      "type": "function"
    },
    {
      "inputs": [
        {
          "internalType": "bytes32",
          "name": "_key",
          "type": "bytes32"
        },
        {
          "internalType": "string",
          "name": "_value",
          "type": "string"
        }
      ],
      "name": "setString",
      "outputs": [],
      "stateMutability": "nonpayable",
      "type": "function"
    },
    {
      "inputs": [
        {
          "internalType": "bytes32",
          "name": "_key",
          "type": "bytes32"
        },
        {
          "internalType": "string[]",
          "name": "_value",
          "type": "string[]"
        }
      ],
      "name": "setStringArray",
      "outputs": [],
      "stateMutability": "nonpayable",
      "type": "function"
    },
    {
      "inputs": [
        {
          "internalType": "bytes32",
          "name": "_key",
          "type": "bytes32"
        },
        {
          "internalType": "uint256",
          "name": "_value",
          "type": "uint256"
        }
      ],
      "name": "setUint",
      "outputs": [],
      "stateMutability": "nonpayable",
      "type": "function"
    },
    {
      "inputs": [
        {
          "internalType": "bytes32",
          "name": "_key",
          "type": "bytes32"
        },
        {
          "internalType": "uint256[]",
          "name": "_value",
          "type": "uint256[]"
        }
      ],
      "name": "setUintArray",
      "outputs": [],
      "stateMutability": "nonpayable",
      "type": "function"
    },
    {
      "inputs": [
        {
          "internalType": "bytes32",
          "name": "_key",
          "type": "bytes32"
        },
        {
          "internalType": "uint256",
          "name": "_amount",
          "type": "uint256"
        }
      ],
      "name": "subUint",
      "outputs": [],
      "stateMutability": "nonpayable",
      "type": "function"
    },
    {
      "inputs": [
        {
          "internalType": "bytes",
          "name": "contractName",
          "type": "bytes"
        }
      ],
      "name": "unregisterContract",
      "outputs": [],
      "stateMutability": "nonpayable",
      "type": "function"
    }
  ],
  "bytecode": "601260e08181527139b2b1bab934ba3c9730b2323932b9b9b7b360711b6101009081526080918252600d6101209081526c73656375726974792e6e616d6560981b6101405260a0526101a060405260136101609081527f73656375726974792e72656769737465726564000000000000000000000000006101805260c0529091600091620000909183919062001656565b506020828101518051620000ab926001850192019062001656565b5060408201518051620000c991600284019160209091019062001656565b5050604080516103c081018252601b61038082019081527f7068616e746f6d2e636f6e7472616374732e616c7068617377617000000000006103a0830152610100820190815282518084018452601a8082527f7068616e746f6d2e636f6e7472616374732e666f756e646572730000000000006020838101919091526101208501929092528451808601865260198082527f7068616e746f6d2e636f6e7472616374732e7374616b696e67000000000000008285015261014086019190915285518087018752601f81527f7068616e746f6d2e636f6e7472616374732e7374616b696e677761726d75700081850152610160860152855180870187529081527f7068616e746f6d2e636f6e7472616374732e626f6e64696e67000000000000008184015261018085015284518086018652601581527f7068616e746f6d2e636f6e7472616374732e70686d0000000000000000000000818401526101a08501528451808601865260168082527f7068616e746f6d2e636f6e7472616374732e7370686d00000000000000000000828501526101c0860191909152855180870187528181527f7068616e746f6d2e636f6e7472616374732e6770686d00000000000000000000818501526101e0860152855180870187528181527f7068616e746f6d2e636f6e7472616374732e6170686d0000000000000000000081850152610200860152855180870187528181527f7068616e746f6d2e636f6e7472616374732e6670686d00000000000000000000818501526102208601528551808701875260178082527f7068616e746f6d2e636f6e7472616374732e7661756c7400000000000000000082860152610240870191909152865180880188528381527f7068616e746f6d2e636f6e7472616374732e747265617375727900000000000081860152610260870152865180880188529182527f7068616e746f6d2e636f6e7472616374732e74776170000000000000000000008285015261028086019190915285518087018752601d81527f7068616e746f6d2e636f6e7472616374732e626f6e6470726963696e67000000818501526102a086015285518087018752601c81527f7068616e746f6d2e636f6e7472616374732e6465785f726f7574657200000000818501526102c086015285518087018752601e8082527f7068616e746f6d2e636f6e7472616374732e796561726e5f726f757465720000828601526102e0870191909152865180880188528381527f7068616e746f6d2e636f6e7472616374732e6578656375746f7200000000000081860152610300870152865180880188529283527f7068616e746f6d2e636f6e7472616374732e7061796d656e747300000000000083850152610320860192909252855180870187529081527f7068616e746f6d2e636f6e7472616374732e677561726400000000000000000081840152610340850152845180860186529081527f7068616e746f6d2e636f6e7472616374732e61756374696f6e636c61696d000081830152610360840152908252825160c08101909352602a6060840181815292945090840192918291620054f36080840139815260200160405180606001604052806040518060600160405280602b815260200162005478602b913981526020016040518060400160405280602081526020017f7068616e746f6d2e74726561737572792e6163636f756e745f6b65792e64616f8152508152602001604051806060016040528060258152602001620056036025913990528152604080518082018252601981527f7068616e746f6d2e74726561737572792e62616c616e636573000000000000006020828101919091529283015291835281516101c0810190925260246101608301818152938201938392830191829160c08501918291906200540e610180880139815260200160405180606001604052806025815260200162005672602591398152602001604051806060016040528060248152602001620056286024913981526020016040518060600160405280602b8152602001620054a3602b91398152602001604051806060016040528060248152602001620056976024913981525081526020016040518060600160405280602581526020016200556d602591398152602001604051806060016040528060298152602001620055da6029913981526020016040518060400160405280601b81526020017f7068616e746f6d2e616c6c6f6361746f722e746f6b656e732e6c70000000000081525081526020016040518060400160405280601f81526020017f7068616e746f6d2e616c6c6f6361746f722e746f6b656e732e73696e676c65008152508152508152508152602001604051806101a0016040528060405180606001604052806040518060600160405280602b81526020016200551d602b913981526020016040518060600160405280602c8152602001620053bc602c913981526020016040518060600160405280602f81526020016200538d602f913981525081526020016040518060400160405280601d81526020017f7068616e746f6d2e626f6e64696e672e76657374696e67626c6f636b7300000081525081526020016040518060400160405280601c81526020017f7068616e746f6d2e626f6e64696e672e70726f6669745f726174696f0000000081525081526020016040518060400160405280601b81526020017f7068616e746f6d2e626f6e64696e672e69735f72656465656d656400000000008152508152602001604051806060016040528060228152602001620055926022913981526020016040518060400160405280601881526020017f7068616e746f6d2e626f6e64696e672e69735f76616c6964000000000000000081525081526020016040518060400160405280601a81526020017f7068616e746f6d2e626f6e64696e672e6d756c7469706c69657200000000000081525081526020016040518060400160405280601481526020017f7068616e746f6d2e626f6e64696e672e6465627400000000000000000000000081525081526020016040518060400160405280601e81526020017f7068616e746f6d2e626f6e64696e672e6d61785f646562745f726174696f00008152508152602001604051806060016040528060248152602001620057886024913981526020016040518060400160405280601581526020017f7068616e746f6d2e626f6e64696e672e746f6b656e000000000000000000000081525081526020016040518060400160405280601d81526020017f7068616e746f6d2e626f6e64696e672e6c6173745f636c61696d5f617400000081525081526020016040518060400160405280601b81526020017f7068616e746f6d2e626f6e64696e672e766573745f6c656e6774680000000000815250815250815260200160405180604001604052806040518060400160405280601d81526020017f7068616e746f6d2e7374616b696e672e726562617365436f756e7465720000008152508152602001604051806060016040528060228152602001620057666022913990528152604080516101408101909152602160e08201818152602090930192829160608301918291620056df610100860139815260200160405180606001604052806024815260200162005454602491398152602001604051806060016040528060268152602001620053e860269139815260408051808201825260208082527f7068616e746f6d2e666f756e6465722e636c61696d732e6c617374436c61696d828201529283015291835281516060810183528082018281527f7068616e746f6d2e666f756e6465722e6368616e6765732e6e65774f776e65728285015281528382015281518083018352601d81527f7068616e746f6d2e666f756e6465722e76657374696e6753746172747300000081830152928201929092529183528151610160810190925260226101008301818152939091019282916200543261012084013981526020016040518060600160405280602381526020016200570060239139815260200160405180606001604052806025815260200162005548602591398152602001604051806060016040528060268152602001620055b4602691398152602001604051806060016040528060258152602001620054ce6025913981526020016040518060600160405280602681526020016200564c602691398152602001604051806060016040528060248152602001620056bb6024913981526020016040518060600160405280602a8152602001620057ac602a9139815250815260200160405180608001604052806040518060400160405280601c81526020017f7068616e746f6d2e676f7665726e6f722e766f74696e6744656c61790000000081525081526020016040518060400160405280601d81526020017f7068616e746f6d2e676f7665726e6f722e766f74696e67506572696f6400000081525081526020016040518060600160405280602181526020016200572360219139815260200160405180606001604052806022815260200162005744602291399052905280518051805160039291839162000deb91839160209091019062001656565b50602082810151805162000e06926001850192019062001656565b506040820151805162000e2491600284019160209091019062001656565b506060820151805162000e4291600384019160209091019062001656565b506080820151805162000e6091600484019160209091019062001656565b5060a0820151805162000e7e91600584019160209091019062001656565b5060c0820151805162000e9c91600684019160209091019062001656565b5060e0820151805162000eba91600784019160209091019062001656565b50610100820151805162000ed991600884019160209091019062001656565b50610120820151805162000ef891600984019160209091019062001656565b50610140820151805162000f1791600a84019160209091019062001656565b50610160820151805162000f3691600b84019160209091019062001656565b50610180820151805162000f5591600c84019160209091019062001656565b506101a0820151805162000f7491600d84019160209091019062001656565b506101c0820151805162000f9391600e84019160209091019062001656565b506101e0820151805162000fb291600f84019160209091019062001656565b50610200820151805162000fd191601084019160209091019062001656565b50610220820151805162000ff091601184019160209091019062001656565b5061024082015180516200100f91601284019160209091019062001656565b5061026082015180516200102e91601384019160209091019062001656565b505050602082810151805180519192601485019262001051928492019062001656565b50602082810151805180519192600185019262001072928492019062001656565b5060208281015180516200108d926001850192019062001656565b5060408201518051620010ab91600284019160209091019062001656565b50505060408201518051620010cb91600484019160209091019062001656565b50505060408201518051805180518051601986019392849290918391620010f89183916020019062001656565b50602082810151805162001113926001850192019062001656565b50604082015180516200113191600284019160209091019062001656565b50606082015180516200114f91600384019160209091019062001656565b50608082015180516200116d91600484019160209091019062001656565b50505060208281015180516200118a926005850192019062001656565b5060408201518051620011a891600684019160209091019062001656565b5060608201518051620011c691600784019160209091019062001656565b5060808201518051620011e491600884019160209091019062001656565b505050506060830151805180518051929350602285019283916200120e9183916020019062001656565b50602082810151805162001229926001850192019062001656565b50604082015180516200124791600284019160209091019062001656565b505050602082810151805162001264926003850192019062001656565b50604082015180516200128291600484019160209091019062001656565b5060608201518051620012a091600584019160209091019062001656565b5060808201518051620012be91600684019160209091019062001656565b5060a08201518051620012dc91600784019160209091019062001656565b5060c08201518051620012fa91600884019160209091019062001656565b5060e082015180516200131891600984019160209091019062001656565b5061010082015180516200133791600a84019160209091019062001656565b5061012082015180516200135691600b84019160209091019062001656565b5061014082015180516200137591600c84019160209091019062001656565b5061016082015180516200139491600d84019160209091019062001656565b506101808201518051620013b391600e84019160209091019062001656565b5050506080820151805180516031840191620013d59183916020019062001656565b506020828101518051620013f0926001850192019062001656565b50505060a082015180518051805160338501929183916200141991839160209091019062001656565b50602082810151805162001434926001850192019062001656565b50604082015180516200145291600284019160209091019062001656565b50606082015180516200147091600384019160209091019062001656565b505050602082810151805180519192600485019262001493928492019062001656565b50505060408201518051620014b391600584019160209091019062001656565b50505060c0820151805180516039840191620014d59183916020019062001656565b506020828101518051620014f0926001850192019062001656565b50604082015180516200150e91600284019160209091019062001656565b50606082015180516200152c91600384019160209091019062001656565b50608082015180516200154a91600484019160209091019062001656565b5060a082015180516200156891600584019160209091019062001656565b5060c082015180516200158691600684019160209091019062001656565b5060e08201518051620015a491600784019160209091019062001656565b50505060e0820151805180516041840191620015c69183916020019062001656565b506020828101518051620015e1926001850192019062001656565b5060408201518051620015ff91600284019160209091019062001656565b50606082015180516200161d91600384019160209091019062001656565b50506057805460ff60a01b19169055503491505080156200163d57600080fd5b50605680546001600160a01b0319163317905562001739565b8280546200166490620016fc565b90600052602060002090601f016020900481019282620016885760008555620016d3565b82601f10620016a357805160ff1916838001178555620016d3565b82800160010185558215620016d3579182015b82811115620016d3578251825591602001919060010190620016b6565b50620016e1929150620016e5565b5090565b5b80821115620016e15760008155600101620016e6565b600181811c908216806200171157607f821691505b602082108114156200173357634e487b7160e01b600052602260045260246000fd5b50919050565b613c4480620017496000396000f3fe608060405234801561001057600080fd5b50600436106102f15760003560e01c806386ac6bdf1161019d578063c031a180116100e9578063e2b202bf116100a2578063ec672cf61161007c578063ec672cf61461073d578063f6bb3cc414610750578063f89358b114610763578063febffd991461077657600080fd5b8063e2b202bf14610704578063ea19200614610717578063ebb9d8c91461072a57600080fd5b8063c031a18014610685578063ca446dd914610698578063d6401653146106ab578063dc97d962146106be578063dd031997146106de578063e2a4853a146106f157600080fd5b8063a6ed563e11610156578063abfdcced11610130578063abfdcced14610637578063adb353dc1461064a578063b5ec98fc1461065d578063bd02d0f51461066557600080fd5b8063a6ed563e146105e5578063a75b87d214610613578063a9fcf76b1461062457600080fd5b806386ac6bdf1461055957806388021a721461056c5780638c1600951461057f5780638db0e83b146105925780638e6c408e146105b2578063986e791a146105c557600080fd5b8063396d044c1161025c5780635beff993116102155780636a7888b3116101ef5780636a7888b3146104fd5780636e8995501461051057806376608f40146105235780637ae1cfca1461053657600080fd5b80635beff993146104c45780635eb07dbd146104d7578063616b59f6146104ea57600080fd5b8063396d044c146104455780633e49bed0146104585780634bad105a1461046b5780634e91db081461047e57806352164cc1146104915780635948f733146104a457600080fd5b806326004846116102ae57806326004846146103c657806327f2bc11146103d95780632c62ff2d146103ec5780632d2899b6146103ff5780632e28d0841461041f57806335d4d4071461043257600080fd5b806301677da2146102f65780630b9adc571461031f5780630e14a37614610334578063116bb929146103475780631bed52411461036757806321f8a72114610385575b600080fd5b61030961030436600461333f565b61077e565b60405161031691906133a5565b60405180910390f35b61033261032d36600461333f565b61086a565b005b61033261034236600461333f565b61096b565b61035a61035536600461333f565b610a74565b6040516103169190613407565b605754600160a01b900460ff165b6040519015158152602001610316565b6103ae61039336600461333f565b6000908152604c60205260409020546001600160a01b031690565b6040516001600160a01b039091168152602001610316565b6103326103d43660046134b8565b610af6565b6103326103e736600461333f565b610c05565b6103326103fa36600461333f565b610d0a565b61041261040d36600461333f565b610e0d565b604051610316919061355a565b61033261042d3660046135db565b610e6e565b61033261044036600461363c565b610f78565b61033261045336600461333f565b611082565b6103326104663660046136d1565b611184565b61033261047936600461370a565b611281565b61033261048c3660046136d1565b611423565b61033261049f36600461333f565b611520565b6104b76104b236600461333f565b611622565b604051610316919061375e565b6103326104d236600461333f565b61168d565b6103326104e53660046134b8565b61178f565b6103326104f836600461333f565b611899565b61033261050b36600461379f565b61199b565b61033261051e3660046135db565b6119ea565b61033261053136600461333f565b611aee565b61037561054436600461333f565b6000908152604d602052604090205460ff1690565b61041261056736600461333f565b611bf0565b61033261057a366004613819565b611c50565b61033261058d36600461333f565b611d5a565b6105a56105a036600461333f565b611e56565b60405161031691906138ec565b6103326105c0366004613941565b611f37565b6105d86105d336600461333f565b61210d565b6040516103169190613983565b6106056105f336600461333f565b6000908152604e602052604090205490565b604051908152602001610316565b6056546001600160a01b03166103ae565b6103326106323660046134b8565b6121a5565b610332610645366004613996565b6122af565b6103326106583660046136d1565b6123ba565b6103326124d5565b61060561067336600461333f565b6000908152604a602052604090205490565b6105d861069336600461333f565b61256e565b6103326106a63660046139c2565b61258b565b6103326106b936600461333f565b6126a4565b6106056106cc36600461333f565b6000908152604b602052604090205490565b6104126106ec36600461333f565b6127a6565b6103326106ff3660046136d1565b612806565b61033261071236600461333f565b612903565b61033261072536600461333f565b6129ff565b6103326107383660046136d1565b612b01565b61033261074b3660046139e5565b612c06565b61033261075e36600461333f565b612d10565b610332610771366004613a7a565b612e12565b610332612f1c565b6060604f6000838152602001908152602001600020805480602002602001604051908101604052809291908181526020016000905b8282101561085f5783829060005260206000200180546107d290613b3b565b80601f01602080910402602001604051908101604052809291908181526020018280546107fe90613b3b565b801561084b5780601f106108205761010080835404028352916020019161084b565b820191906000526020600020905b81548152906001019060200180831161082e57829003601f168201915b5050505050815260200190600101906107b3565b505050509050919050565b605754600160a01b900460ff161515600114156108e857604d6000336040516020016108969190613b76565b60408051601f198184030181529181528151602092830120835290820192909252016000205460ff166108e3576040516365ba7fab60e11b81523360048201526024015b60405180910390fd5b61095a565b604d6000336040516020016108fd9190613b76565b60408051601f198184030181529181528151602092830120835290820192909252016000205460ff168061093b57506056546001600160a01b031632145b61095a576040516365ba7fab60e11b81523360048201526024016108da565b6000908152604e6020526040812055565b605754600160a01b900460ff161515600114156109e457604d6000336040516020016109979190613b76565b60408051601f198184030181529181528151602092830120835290820192909252016000205460ff166109df576040516365ba7fab60e11b81523360048201526024016108da565b610a56565b604d6000336040516020016109f99190613b76565b60408051601f198184030181529181528151602092830120835290820192909252016000205460ff1680610a3757506056546001600160a01b031632145b610a56576040516365ba7fab60e11b81523360048201526024016108da565b6000908152604c6020526040902080546001600160a01b0319169055565b600081815260546020908152604091829020805483518184028101840190945280845260609392830182828015610aea57602002820191906000526020600020906000905b825461010083900a900460ff161515815260206001928301818104948501949093039092029101808411610ab95790505b50505050509050919050565b605754600160a01b900460ff16151560011415610b6f57604d600033604051602001610b229190613b76565b60408051601f198184030181529181528151602092830120835290820192909252016000205460ff16610b6a576040516365ba7fab60e11b81523360048201526024016108da565b610be1565b604d600033604051602001610b849190613b76565b60408051601f198184030181529181528151602092830120835290820192909252016000205460ff1680610bc257506056546001600160a01b031632145b610be1576040516365ba7fab60e11b81523360048201526024016108da565b60008281526055602090815260409091208251610c0092840190612f5e565b505050565b605754600160a01b900460ff16151560011415610c7e57604d600033604051602001610c319190613b76565b60408051601f198184030181529181528151602092830120835290820192909252016000205460ff16610c79576040516365ba7fab60e11b81523360048201526024016108da565b610cf0565b604d600033604051602001610c939190613b76565b60408051601f198184030181529181528151602092830120835290820192909252016000205460ff1680610cd157506056546001600160a01b031632145b610cf0576040516365ba7fab60e11b81523360048201526024016108da565b6000818152605460205260408120610d0791612fa9565b50565b605754600160a01b900460ff16151560011415610d8357604d600033604051602001610d369190613b76565b60408051601f198184030181529181528151602092830120835290820192909252016000205460ff16610d7e576040516365ba7fab60e11b81523360048201526024016108da565b610df5565b604d600033604051602001610d989190613b76565b60408051601f198184030181529181528151602092830120835290820192909252016000205460ff1680610dd657506056546001600160a01b031632145b610df5576040516365ba7fab60e11b81523360048201526024016108da565b6000908152604d60205260409020805460ff19169055565b600081815260526020908152604091829020805483518184028101840190945280845260609392830182828015610aea57602002820191906000526020600020905b815481526020019060010190808311610e4f5750505050509050919050565b605754600160a01b900460ff16151560011415610ee757604d600033604051602001610e9a9190613b76565b60408051601f198184030181529181528151602092830120835290820192909252016000205460ff16610ee2576040516365ba7fab60e11b81523360048201526024016108da565b610f59565b604d600033604051602001610efc9190613b76565b60408051601f198184030181529181528151602092830120835290820192909252016000205460ff1680610f3a57506056546001600160a01b031632145b610f59576040516365ba7fab60e11b81523360048201526024016108da565b6000838152604960205260409020610f72908383612fce565b50505050565b605754600160a01b900460ff16151560011415610ff157604d600033604051602001610fa49190613b76565b60408051601f198184030181529181528151602092830120835290820192909252016000205460ff16610fec576040516365ba7fab60e11b81523360048201526024016108da565b611063565b604d6000336040516020016110069190613b76565b60408051601f198184030181529181528151602092830120835290820192909252016000205460ff168061104457506056546001600160a01b031632145b611063576040516365ba7fab60e11b81523360048201526024016108da565b60008281526054602090815260409091208251610c0092840190613042565b605754600160a01b900460ff161515600114156110fb57604d6000336040516020016110ae9190613b76565b60408051601f198184030181529181528151602092830120835290820192909252016000205460ff166110f6576040516365ba7fab60e11b81523360048201526024016108da565b61116d565b604d6000336040516020016111109190613b76565b60408051601f198184030181529181528151602092830120835290820192909252016000205460ff168061114e57506056546001600160a01b031632145b61116d576040516365ba7fab60e11b81523360048201526024016108da565b6000818152604f60205260408120610d07916130e2565b605754600160a01b900460ff161515600114156111fd57604d6000336040516020016111b09190613b76565b60408051601f198184030181529181528151602092830120835290820192909252016000205460ff166111f8576040516365ba7fab60e11b81523360048201526024016108da565b61126f565b604d6000336040516020016112129190613b76565b60408051601f198184030181529181528151602092830120835290820192909252016000205460ff168061125057506056546001600160a01b031632145b61126f576040516365ba7fab60e11b81523360048201526024016108da565b6000918252604b602052604090912055565b605754600160a01b900460ff161515600114156112fa57604d6000336040516020016112ad9190613b76565b60408051601f198184030181529181528151602092830120835290820192909252016000205460ff166112f5576040516365ba7fab60e11b81523360048201526024016108da565b61136c565b604d60003360405160200161130f9190613b76565b60408051601f198184030181529181528151602092830120835290820192909252016000205460ff168061134d57506056546001600160a01b031632145b61136c576040516365ba7fab60e11b81523360048201526024016108da565b6001604d6000836040516020016113839190613b76565b60405160208183030381529060405280519060200120815260200190815260200160002060006101000a81548160ff02191690831515021790555080604c600085856040516020016113d6929190613bb9565b60405160208183030381529060405280519060200120815260200190815260200160002060006101000a8154816001600160a01b0302191690836001600160a01b03160217905550505050565b605754600160a01b900460ff1615156001141561149c57604d60003360405160200161144f9190613b76565b60408051601f198184030181529181528151602092830120835290820192909252016000205460ff16611497576040516365ba7fab60e11b81523360048201526024016108da565b61150e565b604d6000336040516020016114b19190613b76565b60408051601f198184030181529181528151602092830120835290820192909252016000205460ff16806114ef57506056546001600160a01b031632145b61150e576040516365ba7fab60e11b81523360048201526024016108da565b6000918252604e602052604090912055565b605754600160a01b900460ff1615156001141561159957604d60003360405160200161154c9190613b76565b60408051601f198184030181529181528151602092830120835290820192909252016000205460ff16611594576040516365ba7fab60e11b81523360048201526024016108da565b61160b565b604d6000336040516020016115ae9190613b76565b60408051601f198184030181529181528151602092830120835290820192909252016000205460ff16806115ec57506056546001600160a01b031632145b61160b576040516365ba7fab60e11b81523360048201526024016108da565b6000818152605560205260408120610d0791613100565b600081815260536020908152604091829020805483518184028101840190945280845260609392830182828015610aea57602002820191906000526020600020905b81546001600160a01b031681526001909101906020018083116116645750505050509050919050565b605754600160a01b900460ff1615156001141561170657604d6000336040516020016116b99190613b76565b60408051601f198184030181529181528151602092830120835290820192909252016000205460ff16611701576040516365ba7fab60e11b81523360048201526024016108da565b611778565b604d60003360405160200161171b9190613b76565b60408051601f198184030181529181528151602092830120835290820192909252016000205460ff168061175957506056546001600160a01b031632145b611778576040516365ba7fab60e11b81523360048201526024016108da565b6000818152605360205260408120610d0791613100565b605754600160a01b900460ff1615156001141561180857604d6000336040516020016117bb9190613b76565b60408051601f198184030181529181528151602092830120835290820192909252016000205460ff16611803576040516365ba7fab60e11b81523360048201526024016108da565b61187a565b604d60003360405160200161181d9190613b76565b60408051601f198184030181529181528151602092830120835290820192909252016000205460ff168061185b57506056546001600160a01b031632145b61187a576040516365ba7fab60e11b81523360048201526024016108da565b60008281526051602090815260409091208251610c0092840190612f5e565b605754600160a01b900460ff1615156001141561191257604d6000336040516020016118c59190613b76565b60408051601f198184030181529181528151602092830120835290820192909252016000205460ff1661190d576040516365ba7fab60e11b81523360048201526024016108da565b611984565b604d6000336040516020016119279190613b76565b60408051601f198184030181529181528151602092830120835290820192909252016000205460ff168061196557506056546001600160a01b031632145b611984576040516365ba7fab60e11b81523360048201526024016108da565b6000818152604960205260408120610d079161311e565b6056546001600160a01b031633146119c85760405163f850142560e01b81523360048201526024016108da565b605780546001600160a01b0319166001600160a01b0392909216919091179055565b605754600160a01b900460ff16151560011415611a6357604d600033604051602001611a169190613b76565b60408051601f198184030181529181528151602092830120835290820192909252016000205460ff16611a5e576040516365ba7fab60e11b81523360048201526024016108da565b611ad5565b604d600033604051602001611a789190613b76565b60408051601f198184030181529181528151602092830120835290820192909252016000205460ff1680611ab657506056546001600160a01b031632145b611ad5576040516365ba7fab60e11b81523360048201526024016108da565b6000838152604860205260409020610f72908383612fce565b605754600160a01b900460ff16151560011415611b6757604d600033604051602001611b1a9190613b76565b60408051601f198184030181529181528151602092830120835290820192909252016000205460ff16611b62576040516365ba7fab60e11b81523360048201526024016108da565b611bd9565b604d600033604051602001611b7c9190613b76565b60408051601f198184030181529181528151602092830120835290820192909252016000205460ff1680611bba57506056546001600160a01b031632145b611bd9576040516365ba7fab60e11b81523360048201526024016108da565b6000818152605160205260408120610d0791613100565b600081815260516020908152604091829020805483518184028101840190945280845260609392830182828015610aea5760200282019190600052602060002090815481526020019060010190808311610e4f5750505050509050919050565b605754600160a01b900460ff16151560011415611cc957604d600033604051602001611c7c9190613b76565b60408051601f198184030181529181528151602092830120835290820192909252016000205460ff16611cc4576040516365ba7fab60e11b81523360048201526024016108da565b611d3b565b604d600033604051602001611cde9190613b76565b60408051601f198184030181529181528151602092830120835290820192909252016000205460ff1680611d1c57506056546001600160a01b031632145b611d3b576040516365ba7fab60e11b81523360048201526024016108da565b6000828152604f602090815260409091208251610c0092840190613158565b605754600160a01b900460ff16151560011415611dd357604d600033604051602001611d869190613b76565b60408051601f198184030181529181528151602092830120835290820192909252016000205460ff16611dce576040516365ba7fab60e11b81523360048201526024016108da565b611e45565b604d600033604051602001611de89190613b76565b60408051601f198184030181529181528151602092830120835290820192909252016000205460ff1680611e2657506056546001600160a01b031632145b611e45576040516365ba7fab60e11b81523360048201526024016108da565b6000908152604b6020526040812055565b606060506000838152602001908152602001600020805480602002602001604051908101604052809291908181526020016000905b8282101561085f578382906000526020600020018054611eaa90613b3b565b80601f0160208091040260200160405190810160405280929190818152602001828054611ed690613b3b565b8015611f235780601f10611ef857610100808354040283529160200191611f23565b820191906000526020600020905b815481529060010190602001808311611f0657829003601f168201915b505050505081526020019060010190611e8b565b605754600160a01b900460ff16151560011415611fb057604d600033604051602001611f639190613b76565b60408051601f198184030181529181528151602092830120835290820192909252016000205460ff16611fab576040516365ba7fab60e11b81523360048201526024016108da565b612022565b604d600033604051602001611fc59190613b76565b60408051601f198184030181529181528151602092830120835290820192909252016000205460ff168061200357506056546001600160a01b031632145b612022576040516365ba7fab60e11b81523360048201526024016108da565b6000604c6000848460405160200161203b929190613bb9565b60405160208183030381529060405280519060200120815260200190815260200160002060009054906101000a90046001600160a01b03169050604d60008260405160200161208a9190613b76565b60405160208183030381529060405280519060200120815260200190815260200160002060006101000a81549060ff0219169055604c600084846040516020016120d5929190613bb9565b60408051601f1981840301815291815281516020928301208352908201929092520160002080546001600160a01b0319169055505050565b600081815260486020526040902080546060919061212a90613b3b565b80601f016020809104026020016040519081016040528092919081815260200182805461215690613b3b565b8015610aea5780601f1061217857610100808354040283529160200191610aea565b820191906000526020600020905b8154815290600101906020018083116121865750939695505050505050565b605754600160a01b900460ff1615156001141561221e57604d6000336040516020016121d19190613b76565b60408051601f198184030181529181528151602092830120835290820192909252016000205460ff16612219576040516365ba7fab60e11b81523360048201526024016108da565b612290565b604d6000336040516020016122339190613b76565b60408051601f198184030181529181528151602092830120835290820192909252016000205460ff168061227157506056546001600160a01b031632145b612290576040516365ba7fab60e11b81523360048201526024016108da565b60008281526052602090815260409091208251610c0092840190612f5e565b605754600160a01b900460ff1615156001141561232857604d6000336040516020016122db9190613b76565b60408051601f198184030181529181528151602092830120835290820192909252016000205460ff16612323576040516365ba7fab60e11b81523360048201526024016108da565b61239a565b604d60003360405160200161233d9190613b76565b60408051601f198184030181529181528151602092830120835290820192909252016000205460ff168061237b57506056546001600160a01b031632145b61239a576040516365ba7fab60e11b81523360048201526024016108da565b6000918252604d6020526040909120805460ff1916911515919091179055565b605754600160a01b900460ff1615156001141561243357604d6000336040516020016123e69190613b76565b60408051601f198184030181529181528151602092830120835290820192909252016000205460ff1661242e576040516365ba7fab60e11b81523360048201526024016108da565b6124a5565b604d6000336040516020016124489190613b76565b60408051601f198184030181529181528151602092830120835290820192909252016000205460ff168061248657506056546001600160a01b031632145b6124a5576040516365ba7fab60e11b81523360048201526024016108da565b6000828152604a60205260409020546124bf908290613bdf565b6000928352604a60205260409092209190915550565b6057546001600160a01b031633146125025760405163659b73df60e01b81523360048201526024016108da565b60568054605780546001600160a01b038082166001600160a01b0319808616821790965594909116909155604080519190921680825260208201939093527fa14fc14d8620a708a896fd11392a235647d99385500a295f0d7da2a258b2e967910160405180910390a150565b600081815260496020526040902080546060919061212a90613b3b565b605754600160a01b900460ff1615156001141561260457604d6000336040516020016125b79190613b76565b60408051601f198184030181529181528151602092830120835290820192909252016000205460ff166125ff576040516365ba7fab60e11b81523360048201526024016108da565b612676565b604d6000336040516020016126199190613b76565b60408051601f198184030181529181528151602092830120835290820192909252016000205460ff168061265757506056546001600160a01b031632145b612676576040516365ba7fab60e11b81523360048201526024016108da565b6000918252604c602052604090912080546001600160a01b0319166001600160a01b03909216919091179055565b605754600160a01b900460ff1615156001141561271d57604d6000336040516020016126d09190613b76565b60408051601f198184030181529181528151602092830120835290820192909252016000205460ff16612718576040516365ba7fab60e11b81523360048201526024016108da565b61278f565b604d6000336040516020016127329190613b76565b60408051601f198184030181529181528151602092830120835290820192909252016000205460ff168061277057506056546001600160a01b031632145b61278f576040516365ba7fab60e11b81523360048201526024016108da565b6000818152605060205260408120610d07916131b1565b600081815260556020908152604091829020805483518184028101840190945280845260609392830182828015610aea5760200282019190600052602060002090815481526020019060010190808311610e4f5750505050509050919050565b605754600160a01b900460ff1615156001141561287f57604d6000336040516020016128329190613b76565b60408051601f198184030181529181528151602092830120835290820192909252016000205460ff1661287a576040516365ba7fab60e11b81523360048201526024016108da565b6128f1565b604d6000336040516020016128949190613b76565b60408051601f198184030181529181528151602092830120835290820192909252016000205460ff16806128d257506056546001600160a01b031632145b6128f1576040516365ba7fab60e11b81523360048201526024016108da565b6000918252604a602052604090912055565b605754600160a01b900460ff1615156001141561297c57604d60003360405160200161292f9190613b76565b60408051601f198184030181529181528151602092830120835290820192909252016000205460ff16612977576040516365ba7fab60e11b81523360048201526024016108da565b6129ee565b604d6000336040516020016129919190613b76565b60408051601f198184030181529181528151602092830120835290820192909252016000205460ff16806129cf57506056546001600160a01b031632145b6129ee576040516365ba7fab60e11b81523360048201526024016108da565b6000908152604a6020526040812055565b605754600160a01b900460ff16151560011415612a7857604d600033604051602001612a2b9190613b76565b60408051601f198184030181529181528151602092830120835290820192909252016000205460ff16612a73576040516365ba7fab60e11b81523360048201526024016108da565b612aea565b604d600033604051602001612a8d9190613b76565b60408051601f198184030181529181528151602092830120835290820192909252016000205460ff1680612acb57506056546001600160a01b031632145b612aea576040516365ba7fab60e11b81523360048201526024016108da565b6000818152605260205260408120610d0791613100565b605754600160a01b900460ff16151560011415612b7a57604d600033604051602001612b2d9190613b76565b60408051601f198184030181529181528151602092830120835290820192909252016000205460ff16612b75576040516365ba7fab60e11b81523360048201526024016108da565b612bec565b604d600033604051602001612b8f9190613b76565b60408051601f198184030181529181528151602092830120835290820192909252016000205460ff1680612bcd57506056546001600160a01b031632145b612bec576040516365ba7fab60e11b81523360048201526024016108da565b6000828152604a60205260409020546124bf908290613bf7565b605754600160a01b900460ff16151560011415612c7f57604d600033604051602001612c329190613b76565b60408051601f198184030181529181528151602092830120835290820192909252016000205460ff16612c7a576040516365ba7fab60e11b81523360048201526024016108da565b612cf1565b604d600033604051602001612c949190613b76565b60408051601f198184030181529181528151602092830120835290820192909252016000205460ff1680612cd257506056546001600160a01b031632145b612cf1576040516365ba7fab60e11b81523360048201526024016108da565b60008281526053602090815260409091208251610c00928401906131cf565b605754600160a01b900460ff16151560011415612d8957604d600033604051602001612d3c9190613b76565b60408051601f198184030181529181528151602092830120835290820192909252016000205460ff16612d84576040516365ba7fab60e11b81523360048201526024016108da565b612dfb565b604d600033604051602001612d9e9190613b76565b60408051601f198184030181529181528151602092830120835290820192909252016000205460ff1680612ddc57506056546001600160a01b031632145b612dfb576040516365ba7fab60e11b81523360048201526024016108da565b6000818152604860205260408120610d079161311e565b605754600160a01b900460ff16151560011415612e8b57604d600033604051602001612e3e9190613b76565b60408051601f198184030181529181528151602092830120835290820192909252016000205460ff16612e86576040516365ba7fab60e11b81523360048201526024016108da565b612efd565b604d600033604051602001612ea09190613b76565b60408051601f198184030181529181528151602092830120835290820192909252016000205460ff1680612ede57506056546001600160a01b031632145b612efd576040516365ba7fab60e11b81523360048201526024016108da565b60008281526050602090815260409091208251610c0092840190613224565b6056546001600160a01b03163314612f495760405163f850142560e01b81523360048201526024016108da565b6057805460ff60a01b1916600160a01b179055565b828054828255906000526020600020908101928215612f99579160200282015b82811115612f99578251825591602001919060010190612f7e565b50612fa592915061327d565b5090565b50805460008255601f016020900490600052602060002090810190610d07919061327d565b828054612fda90613b3b565b90600052602060002090601f016020900481019282612ffc5760008555612f99565b82601f106130155782800160ff19823516178555612f99565b82800160010185558215612f99579182015b82811115612f99578235825591602001919060010190613027565b82805482825590600052602060002090601f01602090048101928215612f995791602002820160005b838211156130a857835183826101000a81548160ff021916908315150217905550926020019260010160208160000104928301926001030261306b565b80156130d55782816101000a81549060ff02191690556001016020816000010492830192600103026130a8565b5050612fa592915061327d565b5080546000825590600052602060002090810190610d079190613292565b5080546000825590600052602060002090810190610d07919061327d565b50805461312a90613b3b565b6000825580601f1061313a575050565b601f016020900490600052602060002090810190610d07919061327d565b8280548282559060005260206000209081019282156131a5579160200282015b828111156131a557825180516131959184916020909101906132af565b5091602001919060010190613178565b50612fa5929150613292565b5080546000825590600052602060002090810190610d079190613322565b828054828255906000526020600020908101928215612f99579160200282015b82811115612f9957825182546001600160a01b0319166001600160a01b039091161782556020909201916001909101906131ef565b828054828255906000526020600020908101928215613271579160200282015b8281111561327157825180516132619184916020909101906132af565b5091602001919060010190613244565b50612fa5929150613322565b5b80821115612fa5576000815560010161327e565b80821115612fa55760006132a6828261311e565b50600101613292565b8280546132bb90613b3b565b90600052602060002090601f0160209004810192826132dd5760008555612f99565b82601f106132f657805160ff1916838001178555612f99565b82800160010185558215612f995791820182811115612f99578251825591602001919060010190612f7e565b80821115612fa5576000613336828261311e565b50600101613322565b60006020828403121561335157600080fd5b5035919050565b6000815180845260005b8181101561337e57602081850181015186830182015201613362565b81811115613390576000602083870101525b50601f01601f19169290920160200192915050565b6000602080830181845280855180835260408601915060408160051b870101925083870160005b828110156133fa57603f198886030184526133e8858351613358565b945092850192908501906001016133cc565b5092979650505050505050565b6020808252825182820181905260009190848201906040850190845b81811015613441578351151583529284019291840191600101613423565b50909695505050505050565b634e487b7160e01b600052604160045260246000fd5b604051601f8201601f1916810167ffffffffffffffff8111828210171561348c5761348c61344d565b604052919050565b600067ffffffffffffffff8211156134ae576134ae61344d565b5060051b60200190565b600080604083850312156134cb57600080fd5b8235915060208084013567ffffffffffffffff8111156134ea57600080fd5b8401601f810186136134fb57600080fd5b803561350e61350982613494565b613463565b81815260059190911b8201830190838101908883111561352d57600080fd5b928401925b8284101561354b57833582529284019290840190613532565b80955050505050509250929050565b6020808252825182820181905260009190848201906040850190845b8181101561344157835183529284019291840191600101613576565b60008083601f8401126135a457600080fd5b50813567ffffffffffffffff8111156135bc57600080fd5b6020830191508360208285010111156135d457600080fd5b9250929050565b6000806000604084860312156135f057600080fd5b83359250602084013567ffffffffffffffff81111561360e57600080fd5b61361a86828701613592565b9497909650939450505050565b8035801515811461363757600080fd5b919050565b6000806040838503121561364f57600080fd5b8235915060208084013567ffffffffffffffff81111561366e57600080fd5b8401601f8101861361367f57600080fd5b803561368d61350982613494565b81815260059190911b820183019083810190888311156136ac57600080fd5b928401925b8284101561354b576136c284613627565b825292840192908401906136b1565b600080604083850312156136e457600080fd5b50508035926020909101359150565b80356001600160a01b038116811461363757600080fd5b60008060006040848603121561371f57600080fd5b833567ffffffffffffffff81111561373657600080fd5b61374286828701613592565b90945092506137559050602085016136f3565b90509250925092565b6020808252825182820181905260009190848201906040850190845b818110156134415783516001600160a01b03168352928401929184019160010161377a565b6000602082840312156137b157600080fd5b6137ba826136f3565b9392505050565b600067ffffffffffffffff8311156137db576137db61344d565b6137ee601f8401601f1916602001613463565b905082815283838301111561380257600080fd5b828260208301376000602084830101529392505050565b600080604080848603121561382d57600080fd5b8335925060208085013567ffffffffffffffff8082111561384d57600080fd5b818701915087601f83011261386157600080fd5b813561386f61350982613494565b81815260059190911b8301840190848101908a83111561388e57600080fd5b8585015b838110156138da578035858111156138aa5760008081fd5b8601603f81018d136138bc5760008081fd5b6138cc8d898301358b84016137c1565b845250918601918601613892565b50809750505050505050509250929050565b6000602080830181845280855180835260408601915060408160051b870101925083870160005b828110156133fa57603f1988860301845261392f858351613358565b94509285019290850190600101613913565b6000806020838503121561395457600080fd5b823567ffffffffffffffff81111561396b57600080fd5b61397785828601613592565b90969095509350505050565b6020815260006137ba6020830184613358565b600080604083850312156139a957600080fd5b823591506139b960208401613627565b90509250929050565b600080604083850312156139d557600080fd5b823591506139b9602084016136f3565b600080604083850312156139f857600080fd5b8235915060208084013567ffffffffffffffff811115613a1757600080fd5b8401601f81018613613a2857600080fd5b8035613a3661350982613494565b81815260059190911b82018301908381019088831115613a5557600080fd5b928401925b8284101561354b57613a6b846136f3565b82529284019290840190613a5a565b6000806040808486031215613a8e57600080fd5b8335925060208085013567ffffffffffffffff80821115613aae57600080fd5b818701915087601f830112613ac257600080fd5b8135613ad061350982613494565b81815260059190911b8301840190848101908a831115613aef57600080fd5b8585015b838110156138da57803585811115613b0b5760008081fd5b8601603f81018d13613b1d5760008081fd5b613b2d8d898301358b84016137c1565b845250918601918601613af3565b600181811c90821680613b4f57607f821691505b60208210811415613b7057634e487b7160e01b600052602260045260246000fd5b50919050565b7f7068616e746f6d2e636f6e74726163742e726567697374657265640000000000815260609190911b6bffffffffffffffffffffffff1916601b820152602f0190565b8183823760009101908152919050565b634e487b7160e01b600052601160045260246000fd5b60008219821115613bf257613bf2613bc9565b500190565b600082821015613c0957613c09613bc9565b50039056fea26469706673582212202cf70af496113372f9a21558fba7197041bf103550ee34e9ee8a01c781e658e864736f6c634300080a00337068616e746f6d2e626f6e64696e672e757365722e6c6f776573745f6e6f6e63655f7374696c6c5f76657374696e677068616e746f6d2e626f6e64696e672e757365722e6c6f776573745f61737369676e61626c655f6e6f6e63657068616e746f6d2e666f756e6465722e636c61696d732e72656d61696e696e67416d6f756e747068616e746f6d2e616c6c6f6361746f722e746f6b656e732e616464726573732e6461697068616e746f6d2e726f7574696e672e6465785f726f757465725f616464726573737068616e746f6d2e666f756e6465722e636c61696d732e696e697469616c416d6f756e747068616e746f6d2e74726561737572792e6163636f756e745f6b65792e76656e747572656361706974616c7068616e746f6d2e616c6c6f6361746f722e746f6b656e732e616464726573732e6461695f70686d5f6c707068616e746f6d2e726f7574696e672e73706f6f6b795f726f757465725f616464726573737068616e746f6d2e74726561737572792e617070726f7665642e65787465726e616c2e616464726573737068616e746f6d2e626f6e64696e672e757365722e66697273745f756e72656465656d65645f6e6f6e63657068616e746f6d2e726f7574696e672e7370697269745f726f757465725f616464726573737068616e746f6d2e616c6c6f6361746f722e746f6b656e732e64657374696e6174696f6e737068616e746f6d2e626f6e64696e672e76657374735f61745f74696d657374616d707068616e746f6d2e726f7574696e672e7370697269745f666163746f72795f616464726573737068616e746f6d2e616c6c6f6361746f722e746f6b656e732e646573745f70657263656e74616765737068616e746f6d2e74726561737572792e6163636f756e745f6b65792e72657365727665737068616e746f6d2e616c6c6f6361746f722e746f6b656e732e616464726573732e6d696d7068616e746f6d2e726f7574696e672e73706f6f6b795f666163746f72795f616464726573737068616e746f6d2e616c6c6f6361746f722e746f6b656e732e616464726573732e7766746d7068616e746f6d2e616c6c6f6361746f722e746f6b656e732e616464726573732e6465787068616e746f6d2e726f7574696e672e7370697269745f67617567655f616464726573737068616e746f6d2e666f756e6465722e636c61696d732e616c6c6f636174696f6e7068616e746f6d2e726f7574696e672e6465785f666163746f72795f616464726573737068616e746f6d2e676f7665726e6f722e71756f72756d50657263656e746167657068616e746f6d2e676f7665726e6f722e70726f706f73616c5468726573686f6c647068616e746f6d2e7374616b696e672e6e657874526562617365446561646c696e657068616e746f6d2e626f6e64696e672e72656d61696e696e675f7061796f75745f666f727068616e746f6d2e726f7574696e672e7370697269745f67617567655f70726f78795f61646472657373",
  "bytecodeSha1": "da39a3ee5e6b4b0d3255bfef95601890afd80709",
  "compiler": {
    "evm_version": "istanbul",
    "optimizer": {
      "enabled": true,
      "runs": 200
    },
    "version": "0.8.10+commit.fc410830"
  },
  "contractName": "PhantomStorage",
  "language": "Solidity",
  "natspec": {
    "author": "PhantomDao Team",
    "kind": "dev",
    "methods": {
      "addUint(bytes32,uint256)": {
        "params": {
          "_amount": "An amount to add to the record's value",
          "_key": "The key for the record"
        }
      },
      "deleteAddress(bytes32)": {
        "params": {
          "_key": "The key for the record"
        }
      },
      "deleteAddressArray(bytes32)": {
        "params": {
          "_key": "The key for the record"
        }
      },
      "deleteBool(bytes32)": {
        "params": {
          "_key": "The key for the record"
        }
      },
      "deleteBoolArray(bytes32)": {
        "params": {
          "_key": "The key for the record"
        }
      },
      "deleteBytes(bytes32)": {
        "params": {
          "_key": "The key for the record"
        }
      },
      "deleteBytes32(bytes32)": {
        "params": {
          "_key": "The key for the record"
        }
      },
      "deleteBytes32Array(bytes32)": {
        "params": {
          "_key": "The key for the record"
        }
      },
      "deleteBytesArray(bytes32)": {
        "params": {
          "_key": "The key for the record"
        }
      },
      "deleteInt(bytes32)": {
        "params": {
          "_key": "The key for the record"
        }
      },
      "deleteIntArray(bytes32)": {
        "params": {
          "_key": "The key for the record"
        }
      },
      "deleteString(bytes32)": {
        "params": {
          "_key": "The key for the record"
        }
      },
      "deleteStringArray(bytes32)": {
        "params": {
          "_key": "The key for the record"
        }
      },
      "deleteUint(bytes32)": {
        "params": {
          "_key": "The key for the record"
        }
      },
      "deleteUintArray(bytes32)": {
        "params": {
          "_key": "The key for the record"
        }
      },
      "getAddress(bytes32)": {
        "params": {
          "_key": "The key for the record"
        }
      },
      "getAddressArray(bytes32)": {
        "params": {
          "_key": "The key for the record"
        }
      },
      "getBool(bytes32)": {
        "params": {
          "_key": "The key for the record"
        }
      },
      "getBoolArray(bytes32)": {
        "params": {
          "_key": "The key for the record"
        }
      },
      "getBytes(bytes32)": {
        "params": {
          "_key": "The key for the record"
        }
      },
      "getBytes32(bytes32)": {
        "params": {
          "_key": "The key for the record"
        }
      },
      "getBytes32Array(bytes32)": {
        "params": {
          "_key": "The key for the record"
        }
      },
      "getBytesArray(bytes32)": {
        "params": {
          "_key": "The key for the record"
        }
      },
      "getInt(bytes32)": {
        "params": {
          "_key": "The key for the record"
        }
      },
      "getIntArray(bytes32)": {
        "params": {
          "_key": "The key for the record"
        }
      },
      "getString(bytes32)": {
        "params": {
          "_key": "The key for the record"
        }
      },
      "getStringArray(bytes32)": {
        "params": {
          "_key": "The key for the record"
        }
      },
      "getUint(bytes32)": {
        "params": {
          "_key": "The key for the record"
        }
      },
      "getUintArray(bytes32)": {
        "params": {
          "_key": "The key for the record"
        }
      },
      "setAddress(bytes32,address)": {
        "params": {
          "_key": "The key for the record"
        }
      },
      "setAddressArray(bytes32,address[])": {
        "params": {
          "_key": "The key for the record"
        }
      },
      "setBool(bytes32,bool)": {
        "params": {
          "_key": "The key for the record"
        }
      },
      "setBoolArray(bytes32,bool[])": {
        "params": {
          "_key": "The key for the record"
        }
      },
      "setBytes(bytes32,bytes)": {
        "params": {
          "_key": "The key for the record"
        }
      },
      "setBytes32(bytes32,bytes32)": {
        "params": {
          "_key": "The key for the record"
        }
      },
      "setBytes32Array(bytes32,bytes32[])": {
        "params": {
          "_key": "The key for the record"
        }
      },
      "setBytesArray(bytes32,bytes[])": {
        "params": {
          "_key": "The key for the record"
        }
      },
      "setInt(bytes32,int256)": {
        "params": {
          "_key": "The key for the record"
        }
      },
      "setIntArray(bytes32,int256[])": {
        "params": {
          "_key": "The key for the record"
        }
      },
      "setString(bytes32,string)": {
        "params": {
          "_key": "The key for the record"
        }
      },
      "setStringArray(bytes32,string[])": {
        "params": {
          "_key": "The key for the record"
        }
      },
      "subUint(bytes32,uint256)": {
        "params": {
          "_amount": "An amount to subtract from the record's value",
          "_key": "The key for the record"
        }
      }
    },
    "notice": "The Eternal Storage contract powering the Phantom Network",
    "title": "PhantomStorage()",
    "version": 1
  },
  "opcodes": "PUSH1 0x80 PUSH1 0x40 MSTORE CALLVALUE DUP1 ISZERO PUSH2 0x10 JUMPI PUSH1 0x0 DUP1 REVERT JUMPDEST POP PUSH1 0x4 CALLDATASIZE LT PUSH2 0x2F1 JUMPI PUSH1 0x0 CALLDATALOAD PUSH1 0xE0 SHR DUP1 PUSH4 0x86AC6BDF GT PUSH2 0x19D JUMPI DUP1 PUSH4 0xC031A180 GT PUSH2 0xE9 JUMPI DUP1 PUSH4 0xE2B202BF GT PUSH2 0xA2 JUMPI DUP1 PUSH4 0xEC672CF6 GT PUSH2 0x7C JUMPI DUP1 PUSH4 0xEC672CF6 EQ PUSH2 0x73D JUMPI DUP1 PUSH4 0xF6BB3CC4 EQ PUSH2 0x750 JUMPI DUP1 PUSH4 0xF89358B1 EQ PUSH2 0x763 JUMPI DUP1 PUSH4 0xFEBFFD99 EQ PUSH2 0x776 JUMPI PUSH1 0x0 DUP1 REVERT JUMPDEST DUP1 PUSH4 0xE2B202BF EQ PUSH2 0x704 JUMPI DUP1 PUSH4 0xEA192006 EQ PUSH2 0x717 JUMPI DUP1 PUSH4 0xEBB9D8C9 EQ PUSH2 0x72A JUMPI PUSH1 0x0 DUP1 REVERT JUMPDEST DUP1 PUSH4 0xC031A180 EQ PUSH2 0x685 JUMPI DUP1 PUSH4 0xCA446DD9 EQ PUSH2 0x698 JUMPI DUP1 PUSH4 0xD6401653 EQ PUSH2 0x6AB JUMPI DUP1 PUSH4 0xDC97D962 EQ PUSH2 0x6BE JUMPI DUP1 PUSH4 0xDD031997 EQ PUSH2 0x6DE JUMPI DUP1 PUSH4 0xE2A4853A EQ PUSH2 0x6F1 JUMPI PUSH1 0x0 DUP1 REVERT JUMPDEST DUP1 PUSH4 0xA6ED563E GT PUSH2 0x156 JUMPI DUP1 PUSH4 0xABFDCCED GT PUSH2 0x130 JUMPI DUP1 PUSH4 0xABFDCCED EQ PUSH2 0x637 JUMPI DUP1 PUSH4 0xADB353DC EQ PUSH2 0x64A JUMPI DUP1 PUSH4 0xB5EC98FC EQ PUSH2 0x65D JUMPI DUP1 PUSH4 0xBD02D0F5 EQ PUSH2 0x665 JUMPI PUSH1 0x0 DUP1 REVERT JUMPDEST DUP1 PUSH4 0xA6ED563E EQ PUSH2 0x5E5 JUMPI DUP1 PUSH4 0xA75B87D2 EQ PUSH2 0x613 JUMPI DUP1 PUSH4 0xA9FCF76B EQ PUSH2 0x624 JUMPI PUSH1 0x0 DUP1 REVERT JUMPDEST DUP1 PUSH4 0x86AC6BDF EQ PUSH2 0x559 JUMPI DUP1 PUSH4 0x88021A72 EQ PUSH2 0x56C JUMPI DUP1 PUSH4 0x8C160095 EQ PUSH2 0x57F JUMPI DUP1 PUSH4 0x8DB0E83B EQ PUSH2 0x592 JUMPI DUP1 PUSH4 0x8E6C408E EQ PUSH2 0x5B2 JUMPI DUP1 PUSH4 0x986E791A EQ PUSH2 0x5C5 JUMPI PUSH1 0x0 DUP1 REVERT JUMPDEST DUP1 PUSH4 0x396D044C GT PUSH2 0x25C JUMPI DUP1 PUSH4 0x5BEFF993 GT PUSH2 0x215 JUMPI DUP1 PUSH4 0x6A7888B3 GT PUSH2 0x1EF JUMPI DUP1 PUSH4 0x6A7888B3 EQ PUSH2 0x4FD JUMPI DUP1 PUSH4 0x6E899550 EQ PUSH2 0x510 JUMPI DUP1 PUSH4 0x76608F40 EQ PUSH2 0x523 JUMPI DUP1 PUSH4 0x7AE1CFCA EQ PUSH2 0x536 JUMPI PUSH1 0x0 DUP1 REVERT JUMPDEST DUP1 PUSH4 0x5BEFF993 EQ PUSH2 0x4C4 JUMPI DUP1 PUSH4 0x5EB07DBD EQ PUSH2 0x4D7 JUMPI DUP1 PUSH4 0x616B59F6 EQ PUSH2 0x4EA JUMPI PUSH1 0x0 DUP1 REVERT JUMPDEST DUP1 PUSH4 0x396D044C EQ PUSH2 0x445 JUMPI DUP1 PUSH4 0x3E49BED0 EQ PUSH2 0x458 JUMPI DUP1 PUSH4 0x4BAD105A EQ PUSH2 0x46B JUMPI DUP1 PUSH4 0x4E91DB08 EQ PUSH2 0x47E JUMPI DUP1 PUSH4 0x52164CC1 EQ PUSH2 0x491 JUMPI DUP1 PUSH4 0x5948F733 EQ PUSH2 0x4A4 JUMPI PUSH1 0x0 DUP1 REVERT JUMPDEST DUP1 PUSH4 0x26004846 GT PUSH2 0x2AE JUMPI DUP1 PUSH4 0x26004846 EQ PUSH2 0x3C6 JUMPI DUP1 PUSH4 0x27F2BC11 EQ PUSH2 0x3D9 JUMPI DUP1 PUSH4 0x2C62FF2D EQ PUSH2 0x3EC JUMPI DUP1 PUSH4 0x2D2899B6 EQ PUSH2 0x3FF JUMPI DUP1 PUSH4 0x2E28D084 EQ PUSH2 0x41F JUMPI DUP1 PUSH4 0x35D4D407 EQ PUSH2 0x432 JUMPI PUSH1 0x0 DUP1 REVERT JUMPDEST DUP1 PUSH4 0x1677DA2 EQ PUSH2 0x2F6 JUMPI DUP1 PUSH4 0xB9ADC57 EQ PUSH2 0x31F JUMPI DUP1 PUSH4 0xE14A376 EQ PUSH2 0x334 JUMPI DUP1 PUSH4 0x116BB929 EQ PUSH2 0x347 JUMPI DUP1 PUSH4 0x1BED5241 EQ PUSH2 0x367 JUMPI DUP1 PUSH4 0x21F8A721 EQ PUSH2 0x385 JUMPI JUMPDEST PUSH1 0x0 DUP1 REVERT JUMPDEST PUSH2 0x309 PUSH2 0x304 CALLDATASIZE PUSH1 0x4 PUSH2 0x333F JUMP JUMPDEST PUSH2 0x77E JUMP JUMPDEST PUSH1 0x40 MLOAD PUSH2 0x316 SWAP2 SWAP1 PUSH2 0x33A5 JUMP JUMPDEST PUSH1 0x40 MLOAD DUP1 SWAP2 SUB SWAP1 RETURN JUMPDEST PUSH2 0x332 PUSH2 0x32D CALLDATASIZE PUSH1 0x4 PUSH2 0x333F JUMP JUMPDEST PUSH2 0x86A JUMP JUMPDEST STOP JUMPDEST PUSH2 0x332 PUSH2 0x342 CALLDATASIZE PUSH1 0x4 PUSH2 0x333F JUMP JUMPDEST PUSH2 0x96B JUMP JUMPDEST PUSH2 0x35A PUSH2 0x355 CALLDATASIZE PUSH1 0x4 PUSH2 0x333F JUMP JUMPDEST PUSH2 0xA74 JUMP JUMPDEST PUSH1 0x40 MLOAD PUSH2 0x316 SWAP2 SWAP1 PUSH2 0x3407 JUMP JUMPDEST PUSH1 0x57 SLOAD PUSH1 0x1 PUSH1 0xA0 SHL SWAP1 DIV PUSH1 0xFF AND JUMPDEST PUSH1 0x40 MLOAD SWAP1 ISZERO ISZERO DUP2 MSTORE PUSH1 0x20 ADD PUSH2 0x316 JUMP JUMPDEST PUSH2 0x3AE PUSH2 0x393 CALLDATASIZE PUSH1 0x4 PUSH2 0x333F JUMP JUMPDEST PUSH1 0x0 SWAP1 DUP2 MSTORE PUSH1 0x4C PUSH1 0x20 MSTORE PUSH1 0x40 SWAP1 KECCAK256 SLOAD PUSH1 0x1 PUSH1 0x1 PUSH1 0xA0 SHL SUB AND SWAP1 JUMP JUMPDEST PUSH1 0x40 MLOAD PUSH1 0x1 PUSH1 0x1 PUSH1 0xA0 SHL SUB SWAP1 SWAP2 AND DUP2 MSTORE PUSH1 0x20 ADD PUSH2 0x316 JUMP JUMPDEST PUSH2 0x332 PUSH2 0x3D4 CALLDATASIZE PUSH1 0x4 PUSH2 0x34B8 JUMP JUMPDEST PUSH2 0xAF6 JUMP JUMPDEST PUSH2 0x332 PUSH2 0x3E7 CALLDATASIZE PUSH1 0x4 PUSH2 0x333F JUMP JUMPDEST PUSH2 0xC05 JUMP JUMPDEST PUSH2 0x332 PUSH2 0x3FA CALLDATASIZE PUSH1 0x4 PUSH2 0x333F JUMP JUMPDEST PUSH2 0xD0A JUMP JUMPDEST PUSH2 0x412 PUSH2 0x40D CALLDATASIZE PUSH1 0x4 PUSH2 0x333F JUMP JUMPDEST PUSH2 0xE0D JUMP JUMPDEST PUSH1 0x40 MLOAD PUSH2 0x316 SWAP2 SWAP1 PUSH2 0x355A JUMP JUMPDEST PUSH2 0x332 PUSH2 0x42D CALLDATASIZE PUSH1 0x4 PUSH2 0x35DB JUMP JUMPDEST PUSH2 0xE6E JUMP JUMPDEST PUSH2 0x332 PUSH2 0x440 CALLDATASIZE PUSH1 0x4 PUSH2 0x363C JUMP JUMPDEST PUSH2 0xF78 JUMP JUMPDEST PUSH2 0x332 PUSH2 0x453 CALLDATASIZE PUSH1 0x4 PUSH2 0x333F JUMP JUMPDEST PUSH2 0x1082 JUMP JUMPDEST PUSH2 0x332 PUSH2 0x466 CALLDATASIZE PUSH1 0x4 PUSH2 0x36D1 JUMP JUMPDEST PUSH2 0x1184 JUMP JUMPDEST PUSH2 0x332 PUSH2 0x479 CALLDATASIZE PUSH1 0x4 PUSH2 0x370A JUMP JUMPDEST PUSH2 0x1281 JUMP JUMPDEST PUSH2 0x332 PUSH2 0x48C CALLDATASIZE PUSH1 0x4 PUSH2 0x36D1 JUMP JUMPDEST PUSH2 0x1423 JUMP JUMPDEST PUSH2 0x332 PUSH2 0x49F CALLDATASIZE PUSH1 0x4 PUSH2 0x333F JUMP JUMPDEST PUSH2 0x1520 JUMP JUMPDEST PUSH2 0x4B7 PUSH2 0x4B2 CALLDATASIZE PUSH1 0x4 PUSH2 0x333F JUMP JUMPDEST PUSH2 0x1622 JUMP JUMPDEST PUSH1 0x40 MLOAD PUSH2 0x316 SWAP2 SWAP1 PUSH2 0x375E JUMP JUMPDEST PUSH2 0x332 PUSH2 0x4D2 CALLDATASIZE PUSH1 0x4 PUSH2 0x333F JUMP JUMPDEST PUSH2 0x168D JUMP JUMPDEST PUSH2 0x332 PUSH2 0x4E5 CALLDATASIZE PUSH1 0x4 PUSH2 0x34B8 JUMP JUMPDEST PUSH2 0x178F JUMP JUMPDEST PUSH2 0x332 PUSH2 0x4F8 CALLDATASIZE PUSH1 0x4 PUSH2 0x333F JUMP JUMPDEST PUSH2 0x1899 JUMP JUMPDEST PUSH2 0x332 PUSH2 0x50B CALLDATASIZE PUSH1 0x4 PUSH2 0x379F JUMP JUMPDEST PUSH2 0x199B JUMP JUMPDEST PUSH2 0x332 PUSH2 0x51E CALLDATASIZE PUSH1 0x4 PUSH2 0x35DB JUMP JUMPDEST PUSH2 0x19EA JUMP JUMPDEST PUSH2 0x332 PUSH2 0x531 CALLDATASIZE PUSH1 0x4 PUSH2 0x333F JUMP JUMPDEST PUSH2 0x1AEE JUMP JUMPDEST PUSH2 0x375 PUSH2 0x544 CALLDATASIZE PUSH1 0x4 PUSH2 0x333F JUMP JUMPDEST PUSH1 0x0 SWAP1 DUP2 MSTORE PUSH1 0x4D PUSH1 0x20 MSTORE PUSH1 0x40 SWAP1 KECCAK256 SLOAD PUSH1 0xFF AND SWAP1 JUMP JUMPDEST PUSH2 0x412 PUSH2 0x567 CALLDATASIZE PUSH1 0x4 PUSH2 0x333F JUMP JUMPDEST PUSH2 0x1BF0 JUMP JUMPDEST PUSH2 0x332 PUSH2 0x57A CALLDATASIZE PUSH1 0x4 PUSH2 0x3819 JUMP JUMPDEST PUSH2 0x1C50 JUMP JUMPDEST PUSH2 0x332 PUSH2 0x58D CALLDATASIZE PUSH1 0x4 PUSH2 0x333F JUMP JUMPDEST PUSH2 0x1D5A JUMP JUMPDEST PUSH2 0x5A5 PUSH2 0x5A0 CALLDATASIZE PUSH1 0x4 PUSH2 0x333F JUMP JUMPDEST PUSH2 0x1E56 JUMP JUMPDEST PUSH1 0x40 MLOAD PUSH2 0x316 SWAP2 SWAP1 PUSH2 0x38EC JUMP JUMPDEST PUSH2 0x332 PUSH2 0x5C0 CALLDATASIZE PUSH1 0x4 PUSH2 0x3941 JUMP JUMPDEST PUSH2 0x1F37 JUMP JUMPDEST PUSH2 0x5D8 PUSH2 0x5D3 CALLDATASIZE PUSH1 0x4 PUSH2 0x333F JUMP JUMPDEST PUSH2 0x210D JUMP JUMPDEST PUSH1 0x40 MLOAD PUSH2 0x316 SWAP2 SWAP1 PUSH2 0x3983 JUMP JUMPDEST PUSH2 0x605 PUSH2 0x5F3 CALLDATASIZE PUSH1 0x4 PUSH2 0x333F JUMP JUMPDEST PUSH1 0x0 SWAP1 DUP2 MSTORE PUSH1 0x4E PUSH1 0x20 MSTORE PUSH1 0x40 SWAP1 KECCAK256 SLOAD SWAP1 JUMP JUMPDEST PUSH1 0x40 MLOAD SWAP1 DUP2 MSTORE PUSH1 0x20 ADD PUSH2 0x316 JUMP JUMPDEST PUSH1 0x56 SLOAD PUSH1 0x1 PUSH1 0x1 PUSH1 0xA0 SHL SUB AND PUSH2 0x3AE JUMP JUMPDEST PUSH2 0x332 PUSH2 0x632 CALLDATASIZE PUSH1 0x4 PUSH2 0x34B8 JUMP JUMPDEST PUSH2 0x21A5 JUMP JUMPDEST PUSH2 0x332 PUSH2 0x645 CALLDATASIZE PUSH1 0x4 PUSH2 0x3996 JUMP JUMPDEST PUSH2 0x22AF JUMP JUMPDEST PUSH2 0x332 PUSH2 0x658 CALLDATASIZE PUSH1 0x4 PUSH2 0x36D1 JUMP JUMPDEST PUSH2 0x23BA JUMP JUMPDEST PUSH2 0x332 PUSH2 0x24D5 JUMP JUMPDEST PUSH2 0x605 PUSH2 0x673 CALLDATASIZE PUSH1 0x4 PUSH2 0x333F JUMP JUMPDEST PUSH1 0x0 SWAP1 DUP2 MSTORE PUSH1 0x4A PUSH1 0x20 MSTORE PUSH1 0x40 SWAP1 KECCAK256 SLOAD SWAP1 JUMP JUMPDEST PUSH2 0x5D8 PUSH2 0x693 CALLDATASIZE PUSH1 0x4 PUSH2 0x333F JUMP JUMPDEST PUSH2 0x256E JUMP JUMPDEST PUSH2 0x332 PUSH2 0x6A6 CALLDATASIZE PUSH1 0x4 PUSH2 0x39C2 JUMP JUMPDEST PUSH2 0x258B JUMP JUMPDEST PUSH2 0x332 PUSH2 0x6B9 CALLDATASIZE PUSH1 0x4 PUSH2 0x333F JUMP JUMPDEST PUSH2 0x26A4 JUMP JUMPDEST PUSH2 0x605 PUSH2 0x6CC CALLDATASIZE PUSH1 0x4 PUSH2 0x333F JUMP JUMPDEST PUSH1 0x0 SWAP1 DUP2 MSTORE PUSH1 0x4B PUSH1 0x20 MSTORE PUSH1 0x40 SWAP1 KECCAK256 SLOAD SWAP1 JUMP JUMPDEST PUSH2 0x412 PUSH2 0x6EC CALLDATASIZE PUSH1 0x4 PUSH2 0x333F JUMP JUMPDEST PUSH2 0x27A6 JUMP JUMPDEST PUSH2 0x332 PUSH2 0x6FF CALLDATASIZE PUSH1 0x4 PUSH2 0x36D1 JUMP JUMPDEST PUSH2 0x2806 JUMP JUMPDEST PUSH2 0x332 PUSH2 0x712 CALLDATASIZE PUSH1 0x4 PUSH2 0x333F JUMP JUMPDEST PUSH2 0x2903 JUMP JUMPDEST PUSH2 0x332 PUSH2 0x725 CALLDATASIZE PUSH1 0x4 PUSH2 0x333F JUMP JUMPDEST PUSH2 0x29FF JUMP JUMPDEST PUSH2 0x332 PUSH2 0x738 CALLDATASIZE PUSH1 0x4 PUSH2 0x36D1 JUMP JUMPDEST PUSH2 0x2B01 JUMP JUMPDEST PUSH2 0x332 PUSH2 0x74B CALLDATASIZE PUSH1 0x4 PUSH2 0x39E5 JUMP JUMPDEST PUSH2 0x2C06 JUMP JUMPDEST PUSH2 0x332 PUSH2 0x75E CALLDATASIZE PUSH1 0x4 PUSH2 0x333F JUMP JUMPDEST PUSH2 0x2D10 JUMP JUMPDEST PUSH2 0x332 PUSH2 0x771 CALLDATASIZE PUSH1 0x4 PUSH2 0x3A7A JUMP JUMPDEST PUSH2 0x2E12 JUMP JUMPDEST PUSH2 0x332 PUSH2 0x2F1C JUMP JUMPDEST PUSH1 0x60 PUSH1 0x4F PUSH1 0x0 DUP4 DUP2 MSTORE PUSH1 0x20 ADD SWAP1 DUP2 MSTORE PUSH1 0x20 ADD PUSH1 0x0 KECCAK256 DUP1 SLOAD DUP1 PUSH1 0x20 MUL PUSH1 0x20 ADD PUSH1 0x40 MLOAD SWAP1 DUP2 ADD PUSH1 0x40 MSTORE DUP1 SWAP3 SWAP2 SWAP1 DUP2 DUP2 MSTORE PUSH1 0x20 ADD PUSH1 0x0 SWAP1 JUMPDEST DUP3 DUP3 LT ISZERO PUSH2 0x85F JUMPI DUP4 DUP3 SWAP1 PUSH1 0x0 MSTORE PUSH1 0x20 PUSH1 0x0 KECCAK256 ADD DUP1 SLOAD PUSH2 0x7D2 SWAP1 PUSH2 0x3B3B JUMP JUMPDEST DUP1 PUSH1 0x1F ADD PUSH1 0x20 DUP1 SWAP2 DIV MUL PUSH1 0x20 ADD PUSH1 0x40 MLOAD SWAP1 DUP2 ADD PUSH1 0x40 MSTORE DUP1 SWAP3 SWAP2 SWAP1 DUP2 DUP2 MSTORE PUSH1 0x20 ADD DUP3 DUP1 SLOAD PUSH2 0x7FE SWAP1 PUSH2 0x3B3B JUMP JUMPDEST DUP1 ISZERO PUSH2 0x84B JUMPI DUP1 PUSH1 0x1F LT PUSH2 0x820 JUMPI PUSH2 0x100 DUP1 DUP4 SLOAD DIV MUL DUP4 MSTORE SWAP2 PUSH1 0x20 ADD SWAP2 PUSH2 0x84B JUMP JUMPDEST DUP3 ADD SWAP2 SWAP1 PUSH1 0x0 MSTORE PUSH1 0x20 PUSH1 0x0 KECCAK256 SWAP1 JUMPDEST DUP2 SLOAD DUP2 MSTORE SWAP1 PUSH1 0x1 ADD SWAP1 PUSH1 0x20 ADD DUP1 DUP4 GT PUSH2 0x82E JUMPI DUP3 SWAP1 SUB PUSH1 0x1F AND DUP3 ADD SWAP2 JUMPDEST POP POP POP POP POP DUP2 MSTORE PUSH1 0x20 ADD SWAP1 PUSH1 0x1 ADD SWAP1 PUSH2 0x7B3 JUMP JUMPDEST POP POP POP POP SWAP1 POP SWAP2 SWAP1 POP JUMP JUMPDEST PUSH1 0x57 SLOAD PUSH1 0x1 PUSH1 0xA0 SHL SWAP1 DIV PUSH1 0xFF AND ISZERO ISZERO PUSH1 0x1 EQ ISZERO PUSH2 0x8E8 JUMPI PUSH1 0x4D PUSH1 0x0 CALLER PUSH1 0x40 MLOAD PUSH1 0x20 ADD PUSH2 0x896 SWAP2 SWAP1 PUSH2 0x3B76 JUMP JUMPDEST PUSH1 0x40 DUP1 MLOAD PUSH1 0x1F NOT DUP2 DUP5 SUB ADD DUP2 MSTORE SWAP2 DUP2 MSTORE DUP2 MLOAD PUSH1 0x20 SWAP3 DUP4 ADD KECCAK256 DUP4 MSTORE SWAP1 DUP3 ADD SWAP3 SWAP1 SWAP3 MSTORE ADD PUSH1 0x0 KECCAK256 SLOAD PUSH1 0xFF AND PUSH2 0x8E3 JUMPI PUSH1 0x40 MLOAD PUSH4 0x65BA7FAB PUSH1 0xE1 SHL DUP2 MSTORE CALLER PUSH1 0x4 DUP3 ADD MSTORE PUSH1 0x24 ADD JUMPDEST PUSH1 0x40 MLOAD DUP1 SWAP2 SUB SWAP1 REVERT JUMPDEST PUSH2 0x95A JUMP JUMPDEST PUSH1 0x4D PUSH1 0x0 CALLER PUSH1 0x40 MLOAD PUSH1 0x20 ADD PUSH2 0x8FD SWAP2 SWAP1 PUSH2 0x3B76 JUMP JUMPDEST PUSH1 0x40 DUP1 MLOAD PUSH1 0x1F NOT DUP2 DUP5 SUB ADD DUP2 MSTORE SWAP2 DUP2 MSTORE DUP2 MLOAD PUSH1 0x20 SWAP3 DUP4 ADD KECCAK256 DUP4 MSTORE SWAP1 DUP3 ADD SWAP3 SWAP1 SWAP3 MSTORE ADD PUSH1 0x0 KECCAK256 SLOAD PUSH1 0xFF AND DUP1 PUSH2 0x93B JUMPI POP PUSH1 0x56 SLOAD PUSH1 0x1 PUSH1 0x1 PUSH1 0xA0 SHL SUB AND ORIGIN EQ JUMPDEST PUSH2 0x95A JUMPI PUSH1 0x40 MLOAD PUSH4 0x65BA7FAB PUSH1 0xE1 SHL DUP2 MSTORE CALLER PUSH1 0x4 DUP3 ADD MSTORE PUSH1 0x24 ADD PUSH2 0x8DA JUMP JUMPDEST PUSH1 0x0 SWAP1 DUP2 MSTORE PUSH1 0x4E PUSH1 0x20 MSTORE PUSH1 0x40 DUP2 KECCAK256 SSTORE JUMP JUMPDEST PUSH1 0x57 SLOAD PUSH1 0x1 PUSH1 0xA0 SHL SWAP1 DIV PUSH1 0xFF AND ISZERO ISZERO PUSH1 0x1 EQ ISZERO PUSH2 0x9E4 JUMPI PUSH1 0x4D PUSH1 0x0 CALLER PUSH1 0x40 MLOAD PUSH1 0x20 ADD PUSH2 0x997 SWAP2 SWAP1 PUSH2 0x3B76 JUMP JUMPDEST PUSH1 0x40 DUP1 MLOAD PUSH1 0x1F NOT DUP2 DUP5 SUB ADD DUP2 MSTORE SWAP2 DUP2 MSTORE DUP2 MLOAD PUSH1 0x20 SWAP3 DUP4 ADD KECCAK256 DUP4 MSTORE SWAP1 DUP3 ADD SWAP3 SWAP1 SWAP3 MSTORE ADD PUSH1 0x0 KECCAK256 SLOAD PUSH1 0xFF AND PUSH2 0x9DF JUMPI PUSH1 0x40 MLOAD PUSH4 0x65BA7FAB PUSH1 0xE1 SHL DUP2 MSTORE CALLER PUSH1 0x4 DUP3 ADD MSTORE PUSH1 0x24 ADD PUSH2 0x8DA JUMP JUMPDEST PUSH2 0xA56 JUMP JUMPDEST PUSH1 0x4D PUSH1 0x0 CALLER PUSH1 0x40 MLOAD PUSH1 0x20 ADD PUSH2 0x9F9 SWAP2 SWAP1 PUSH2 0x3B76 JUMP JUMPDEST PUSH1 0x40 DUP1 MLOAD PUSH1 0x1F NOT DUP2 DUP5 SUB ADD DUP2 MSTORE SWAP2 DUP2 MSTORE DUP2 MLOAD PUSH1 0x20 SWAP3 DUP4 ADD KECCAK256 DUP4 MSTORE SWAP1 DUP3 ADD SWAP3 SWAP1 SWAP3 MSTORE ADD PUSH1 0x0 KECCAK256 SLOAD PUSH1 0xFF AND DUP1 PUSH2 0xA37 JUMPI POP PUSH1 0x56 SLOAD PUSH1 0x1 PUSH1 0x1 PUSH1 0xA0 SHL SUB AND ORIGIN EQ JUMPDEST PUSH2 0xA56 JUMPI PUSH1 0x40 MLOAD PUSH4 0x65BA7FAB PUSH1 0xE1 SHL DUP2 MSTORE CALLER PUSH1 0x4 DUP3 ADD MSTORE PUSH1 0x24 ADD PUSH2 0x8DA JUMP JUMPDEST PUSH1 0x0 SWAP1 DUP2 MSTORE PUSH1 0x4C PUSH1 0x20 MSTORE PUSH1 0x40 SWAP1 KECCAK256 DUP1 SLOAD PUSH1 0x1 PUSH1 0x1 PUSH1 0xA0 SHL SUB NOT AND SWAP1 SSTORE JUMP JUMPDEST PUSH1 0x0 DUP2 DUP2 MSTORE PUSH1 0x54 PUSH1 0x20 SWAP1 DUP2 MSTORE PUSH1 0x40 SWAP2 DUP3 SWAP1 KECCAK256 DUP1 SLOAD DUP4 MLOAD DUP2 DUP5 MUL DUP2 ADD DUP5 ADD SWAP1 SWAP5 MSTORE DUP1 DUP5 MSTORE PUSH1 0x60 SWAP4 SWAP3 DUP4 ADD DUP3 DUP3 DUP1 ISZERO PUSH2 0xAEA JUMPI PUSH1 0x20 MUL DUP3 ADD SWAP2 SWAP1 PUSH1 0x0 MSTORE PUSH1 0x20 PUSH1 0x0 KECCAK256 SWAP1 PUSH1 0x0 SWAP1 JUMPDEST DUP3 SLOAD PUSH2 0x100 DUP4 SWAP1 EXP SWAP1 DIV PUSH1 0xFF AND ISZERO ISZERO DUP2 MSTORE PUSH1 0x20 PUSH1 0x1 SWAP3 DUP4 ADD DUP2 DUP2 DIV SWAP5 DUP6 ADD SWAP5 SWAP1 SWAP4 SUB SWAP1 SWAP3 MUL SWAP2 ADD DUP1 DUP5 GT PUSH2 0xAB9 JUMPI SWAP1 POP JUMPDEST POP POP POP POP POP SWAP1 POP SWAP2 SWAP1 POP JUMP JUMPDEST PUSH1 0x57 SLOAD PUSH1 0x1 PUSH1 0xA0 SHL SWAP1 DIV PUSH1 0xFF AND ISZERO ISZERO PUSH1 0x1 EQ ISZERO PUSH2 0xB6F JUMPI PUSH1 0x4D PUSH1 0x0 CALLER PUSH1 0x40 MLOAD PUSH1 0x20 ADD PUSH2 0xB22 SWAP2 SWAP1 PUSH2 0x3B76 JUMP JUMPDEST PUSH1 0x40 DUP1 MLOAD PUSH1 0x1F NOT DUP2 DUP5 SUB ADD DUP2 MSTORE SWAP2 DUP2 MSTORE DUP2 MLOAD PUSH1 0x20 SWAP3 DUP4 ADD KECCAK256 DUP4 MSTORE SWAP1 DUP3 ADD SWAP3 SWAP1 SWAP3 MSTORE ADD PUSH1 0x0 KECCAK256 SLOAD PUSH1 0xFF AND PUSH2 0xB6A JUMPI PUSH1 0x40 MLOAD PUSH4 0x65BA7FAB PUSH1 0xE1 SHL DUP2 MSTORE CALLER PUSH1 0x4 DUP3 ADD MSTORE PUSH1 0x24 ADD PUSH2 0x8DA JUMP JUMPDEST PUSH2 0xBE1 JUMP JUMPDEST PUSH1 0x4D PUSH1 0x0 CALLER PUSH1 0x40 MLOAD PUSH1 0x20 ADD PUSH2 0xB84 SWAP2 SWAP1 PUSH2 0x3B76 JUMP JUMPDEST PUSH1 0x40 DUP1 MLOAD PUSH1 0x1F NOT DUP2 DUP5 SUB ADD DUP2 MSTORE SWAP2 DUP2 MSTORE DUP2 MLOAD PUSH1 0x20 SWAP3 DUP4 ADD KECCAK256 DUP4 MSTORE SWAP1 DUP3 ADD SWAP3 SWAP1 SWAP3 MSTORE ADD PUSH1 0x0 KECCAK256 SLOAD PUSH1 0xFF AND DUP1 PUSH2 0xBC2 JUMPI POP PUSH1 0x56 SLOAD PUSH1 0x1 PUSH1 0x1 PUSH1 0xA0 SHL SUB AND ORIGIN EQ JUMPDEST PUSH2 0xBE1 JUMPI PUSH1 0x40 MLOAD PUSH4 0x65BA7FAB PUSH1 0xE1 SHL DUP2 MSTORE CALLER PUSH1 0x4 DUP3 ADD MSTORE PUSH1 0x24 ADD PUSH2 0x8DA JUMP JUMPDEST PUSH1 0x0 DUP3 DUP2 MSTORE PUSH1 0x55 PUSH1 0x20 SWAP1 DUP2 MSTORE PUSH1 0x40 SWAP1 SWAP2 KECCAK256 DUP3 MLOAD PUSH2 0xC00 SWAP3 DUP5 ADD SWAP1 PUSH2 0x2F5E JUMP JUMPDEST POP POP POP JUMP JUMPDEST PUSH1 0x57 SLOAD PUSH1 0x1 PUSH1 0xA0 SHL SWAP1 DIV PUSH1 0xFF AND ISZERO ISZERO PUSH1 0x1 EQ ISZERO PUSH2 0xC7E JUMPI PUSH1 0x4D PUSH1 0x0 CALLER PUSH1 0x40 MLOAD PUSH1 0x20 ADD PUSH2 0xC31 SWAP2 SWAP1 PUSH2 0x3B76 JUMP JUMPDEST PUSH1 0x40 DUP1 MLOAD PUSH1 0x1F NOT DUP2 DUP5 SUB ADD DUP2 MSTORE SWAP2 DUP2 MSTORE DUP2 MLOAD PUSH1 0x20 SWAP3 DUP4 ADD KECCAK256 DUP4 MSTORE SWAP1 DUP3 ADD SWAP3 SWAP1 SWAP3 MSTORE ADD PUSH1 0x0 KECCAK256 SLOAD PUSH1 0xFF AND PUSH2 0xC79 JUMPI PUSH1 0x40 MLOAD PUSH4 0x65BA7FAB PUSH1 0xE1 SHL DUP2 MSTORE CALLER PUSH1 0x4 DUP3 ADD MSTORE PUSH1 0x24 ADD PUSH2 0x8DA JUMP JUMPDEST PUSH2 0xCF0 JUMP JUMPDEST PUSH1 0x4D PUSH1 0x0 CALLER PUSH1 0x40 MLOAD PUSH1 0x20 ADD PUSH2 0xC93 SWAP2 SWAP1 PUSH2 0x3B76 JUMP JUMPDEST PUSH1 0x40 DUP1 MLOAD PUSH1 0x1F NOT DUP2 DUP5 SUB ADD DUP2 MSTORE SWAP2 DUP2 MSTORE DUP2 MLOAD PUSH1 0x20 SWAP3 DUP4 ADD KECCAK256 DUP4 MSTORE SWAP1 DUP3 ADD SWAP3 SWAP1 SWAP3 MSTORE ADD PUSH1 0x0 KECCAK256 SLOAD PUSH1 0xFF AND DUP1 PUSH2 0xCD1 JUMPI POP PUSH1 0x56 SLOAD PUSH1 0x1 PUSH1 0x1 PUSH1 0xA0 SHL SUB AND ORIGIN EQ JUMPDEST PUSH2 0xCF0 JUMPI PUSH1 0x40 MLOAD PUSH4 0x65BA7FAB PUSH1 0xE1 SHL DUP2 MSTORE CALLER PUSH1 0x4 DUP3 ADD MSTORE PUSH1 0x24 ADD PUSH2 0x8DA JUMP JUMPDEST PUSH1 0x0 DUP2 DUP2 MSTORE PUSH1 0x54 PUSH1 0x20 MSTORE PUSH1 0x40 DUP2 KECCAK256 PUSH2 0xD07 SWAP2 PUSH2 0x2FA9 JUMP JUMPDEST POP JUMP JUMPDEST PUSH1 0x57 SLOAD PUSH1 0x1 PUSH1 0xA0 SHL SWAP1 DIV PUSH1 0xFF AND ISZERO ISZERO PUSH1 0x1 EQ ISZERO PUSH2 0xD83 JUMPI PUSH1 0x4D PUSH1 0x0 CALLER PUSH1 0x40 MLOAD PUSH1 0x20 ADD PUSH2 0xD36 SWAP2 SWAP1 PUSH2 0x3B76 JUMP JUMPDEST PUSH1 0x40 DUP1 MLOAD PUSH1 0x1F NOT DUP2 DUP5 SUB ADD DUP2 MSTORE SWAP2 DUP2 MSTORE DUP2 MLOAD PUSH1 0x20 SWAP3 DUP4 ADD KECCAK256 DUP4 MSTORE SWAP1 DUP3 ADD SWAP3 SWAP1 SWAP3 MSTORE ADD PUSH1 0x0 KECCAK256 SLOAD PUSH1 0xFF AND PUSH2 0xD7E JUMPI PUSH1 0x40 MLOAD PUSH4 0x65BA7FAB PUSH1 0xE1 SHL DUP2 MSTORE CALLER PUSH1 0x4 DUP3 ADD MSTORE PUSH1 0x24 ADD PUSH2 0x8DA JUMP JUMPDEST PUSH2 0xDF5 JUMP JUMPDEST PUSH1 0x4D PUSH1 0x0 CALLER PUSH1 0x40 MLOAD PUSH1 0x20 ADD PUSH2 0xD98 SWAP2 SWAP1 PUSH2 0x3B76 JUMP JUMPDEST PUSH1 0x40 DUP1 MLOAD PUSH1 0x1F NOT DUP2 DUP5 SUB ADD DUP2 MSTORE SWAP2 DUP2 MSTORE DUP2 MLOAD PUSH1 0x20 SWAP3 DUP4 ADD KECCAK256 DUP4 MSTORE SWAP1 DUP3 ADD SWAP3 SWAP1 SWAP3 MSTORE ADD PUSH1 0x0 KECCAK256 SLOAD PUSH1 0xFF AND DUP1 PUSH2 0xDD6 JUMPI POP PUSH1 0x56 SLOAD PUSH1 0x1 PUSH1 0x1 PUSH1 0xA0 SHL SUB AND ORIGIN EQ JUMPDEST PUSH2 0xDF5 JUMPI PUSH1 0x40 MLOAD PUSH4 0x65BA7FAB PUSH1 0xE1 SHL DUP2 MSTORE CALLER PUSH1 0x4 DUP3 ADD MSTORE PUSH1 0x24 ADD PUSH2 0x8DA JUMP JUMPDEST PUSH1 0x0 SWAP1 DUP2 MSTORE PUSH1 0x4D PUSH1 0x20 MSTORE PUSH1 0x40 SWAP1 KECCAK256 DUP1 SLOAD PUSH1 0xFF NOT AND SWAP1 SSTORE JUMP JUMPDEST PUSH1 0x0 DUP2 DUP2 MSTORE PUSH1 0x52 PUSH1 0x20 SWAP1 DUP2 MSTORE PUSH1 0x40 SWAP2 DUP3 SWAP1 KECCAK256 DUP1 SLOAD DUP4 MLOAD DUP2 DUP5 MUL DUP2 ADD DUP5 ADD SWAP1 SWAP5 MSTORE DUP1 DUP5 MSTORE PUSH1 0x60 SWAP4 SWAP3 DUP4 ADD DUP3 DUP3 DUP1 ISZERO PUSH2 0xAEA JUMPI PUSH1 0x20 MUL DUP3 ADD SWAP2 SWAP1 PUSH1 0x0 MSTORE PUSH1 0x20 PUSH1 0x0 KECCAK256 SWAP1 JUMPDEST DUP2 SLOAD DUP2 MSTORE PUSH1 0x20 ADD SWAP1 PUSH1 0x1 ADD SWAP1 DUP1 DUP4 GT PUSH2 0xE4F JUMPI POP POP POP POP POP SWAP1 POP SWAP2 SWAP1 POP JUMP JUMPDEST PUSH1 0x57 SLOAD PUSH1 0x1 PUSH1 0xA0 SHL SWAP1 DIV PUSH1 0xFF AND ISZERO ISZERO PUSH1 0x1 EQ ISZERO PUSH2 0xEE7 JUMPI PUSH1 0x4D PUSH1 0x0 CALLER PUSH1 0x40 MLOAD PUSH1 0x20 ADD PUSH2 0xE9A SWAP2 SWAP1 PUSH2 0x3B76 JUMP JUMPDEST PUSH1 0x40 DUP1 MLOAD PUSH1 0x1F NOT DUP2 DUP5 SUB ADD DUP2 MSTORE SWAP2 DUP2 MSTORE DUP2 MLOAD PUSH1 0x20 SWAP3 DUP4 ADD KECCAK256 DUP4 MSTORE SWAP1 DUP3 ADD SWAP3 SWAP1 SWAP3 MSTORE ADD PUSH1 0x0 KECCAK256 SLOAD PUSH1 0xFF AND PUSH2 0xEE2 JUMPI PUSH1 0x40 MLOAD PUSH4 0x65BA7FAB PUSH1 0xE1 SHL DUP2 MSTORE CALLER PUSH1 0x4 DUP3 ADD MSTORE PUSH1 0x24 ADD PUSH2 0x8DA JUMP JUMPDEST PUSH2 0xF59 JUMP JUMPDEST PUSH1 0x4D PUSH1 0x0 CALLER PUSH1 0x40 MLOAD PUSH1 0x20 ADD PUSH2 0xEFC SWAP2 SWAP1 PUSH2 0x3B76 JUMP JUMPDEST PUSH1 0x40 DUP1 MLOAD PUSH1 0x1F NOT DUP2 DUP5 SUB ADD DUP2 MSTORE SWAP2 DUP2 MSTORE DUP2 MLOAD PUSH1 0x20 SWAP3 DUP4 ADD KECCAK256 DUP4 MSTORE SWAP1 DUP3 ADD SWAP3 SWAP1 SWAP3 MSTORE ADD PUSH1 0x0 KECCAK256 SLOAD PUSH1 0xFF AND DUP1 PUSH2 0xF3A JUMPI POP PUSH1 0x56 SLOAD PUSH1 0x1 PUSH1 0x1 PUSH1 0xA0 SHL SUB AND ORIGIN EQ JUMPDEST PUSH2 0xF59 JUMPI PUSH1 0x40 MLOAD PUSH4 0x65BA7FAB PUSH1 0xE1 SHL DUP2 MSTORE CALLER PUSH1 0x4 DUP3 ADD MSTORE PUSH1 0x24 ADD PUSH2 0x8DA JUMP JUMPDEST PUSH1 0x0 DUP4 DUP2 MSTORE PUSH1 0x49 PUSH1 0x20 MSTORE PUSH1 0x40 SWAP1 KECCAK256 PUSH2 0xF72 SWAP1 DUP4 DUP4 PUSH2 0x2FCE JUMP JUMPDEST POP POP POP POP JUMP JUMPDEST PUSH1 0x57 SLOAD PUSH1 0x1 PUSH1 0xA0 SHL SWAP1 DIV PUSH1 0xFF AND ISZERO ISZERO PUSH1 0x1 EQ ISZERO PUSH2 0xFF1 JUMPI PUSH1 0x4D PUSH1 0x0 CALLER PUSH1 0x40 MLOAD PUSH1 0x20 ADD PUSH2 0xFA4 SWAP2 SWAP1 PUSH2 0x3B76 JUMP JUMPDEST PUSH1 0x40 DUP1 MLOAD PUSH1 0x1F NOT DUP2 DUP5 SUB ADD DUP2 MSTORE SWAP2 DUP2 MSTORE DUP2 MLOAD PUSH1 0x20 SWAP3 DUP4 ADD KECCAK256 DUP4 MSTORE SWAP1 DUP3 ADD SWAP3 SWAP1 SWAP3 MSTORE ADD PUSH1 0x0 KECCAK256 SLOAD PUSH1 0xFF AND PUSH2 0xFEC JUMPI PUSH1 0x40 MLOAD PUSH4 0x65BA7FAB PUSH1 0xE1 SHL DUP2 MSTORE CALLER PUSH1 0x4 DUP3 ADD MSTORE PUSH1 0x24 ADD PUSH2 0x8DA JUMP JUMPDEST PUSH2 0x1063 JUMP JUMPDEST PUSH1 0x4D PUSH1 0x0 CALLER PUSH1 0x40 MLOAD PUSH1 0x20 ADD PUSH2 0x1006 SWAP2 SWAP1 PUSH2 0x3B76 JUMP JUMPDEST PUSH1 0x40 DUP1 MLOAD PUSH1 0x1F NOT DUP2 DUP5 SUB ADD DUP2 MSTORE SWAP2 DUP2 MSTORE DUP2 MLOAD PUSH1 0x20 SWAP3 DUP4 ADD KECCAK256 DUP4 MSTORE SWAP1 DUP3 ADD SWAP3 SWAP1 SWAP3 MSTORE ADD PUSH1 0x0 KECCAK256 SLOAD PUSH1 0xFF AND DUP1 PUSH2 0x1044 JUMPI POP PUSH1 0x56 SLOAD PUSH1 0x1 PUSH1 0x1 PUSH1 0xA0 SHL SUB AND ORIGIN EQ JUMPDEST PUSH2 0x1063 JUMPI PUSH1 0x40 MLOAD PUSH4 0x65BA7FAB PUSH1 0xE1 SHL DUP2 MSTORE CALLER PUSH1 0x4 DUP3 ADD MSTORE PUSH1 0x24 ADD PUSH2 0x8DA JUMP JUMPDEST PUSH1 0x0 DUP3 DUP2 MSTORE PUSH1 0x54 PUSH1 0x20 SWAP1 DUP2 MSTORE PUSH1 0x40 SWAP1 SWAP2 KECCAK256 DUP3 MLOAD PUSH2 0xC00 SWAP3 DUP5 ADD SWAP1 PUSH2 0x3042 JUMP JUMPDEST PUSH1 0x57 SLOAD PUSH1 0x1 PUSH1 0xA0 SHL SWAP1 DIV PUSH1 0xFF AND ISZERO ISZERO PUSH1 0x1 EQ ISZERO PUSH2 0x10FB JUMPI PUSH1 0x4D PUSH1 0x0 CALLER PUSH1 0x40 MLOAD PUSH1 0x20 ADD PUSH2 0x10AE SWAP2 SWAP1 PUSH2 0x3B76 JUMP JUMPDEST PUSH1 0x40 DUP1 MLOAD PUSH1 0x1F NOT DUP2 DUP5 SUB ADD DUP2 MSTORE SWAP2 DUP2 MSTORE DUP2 MLOAD PUSH1 0x20 SWAP3 DUP4 ADD KECCAK256 DUP4 MSTORE SWAP1 DUP3 ADD SWAP3 SWAP1 SWAP3 MSTORE ADD PUSH1 0x0 KECCAK256 SLOAD PUSH1 0xFF AND PUSH2 0x10F6 JUMPI PUSH1 0x40 MLOAD PUSH4 0x65BA7FAB PUSH1 0xE1 SHL DUP2 MSTORE CALLER PUSH1 0x4 DUP3 ADD MSTORE PUSH1 0x24 ADD PUSH2 0x8DA JUMP JUMPDEST PUSH2 0x116D JUMP JUMPDEST PUSH1 0x4D PUSH1 0x0 CALLER PUSH1 0x40 MLOAD PUSH1 0x20 ADD PUSH2 0x1110 SWAP2 SWAP1 PUSH2 0x3B76 JUMP JUMPDEST PUSH1 0x40 DUP1 MLOAD PUSH1 0x1F NOT DUP2 DUP5 SUB ADD DUP2 MSTORE SWAP2 DUP2 MSTORE DUP2 MLOAD PUSH1 0x20 SWAP3 DUP4 ADD KECCAK256 DUP4 MSTORE SWAP1 DUP3 ADD SWAP3 SWAP1 SWAP3 MSTORE ADD PUSH1 0x0 KECCAK256 SLOAD PUSH1 0xFF AND DUP1 PUSH2 0x114E JUMPI POP PUSH1 0x56 SLOAD PUSH1 0x1 PUSH1 0x1 PUSH1 0xA0 SHL SUB AND ORIGIN EQ JUMPDEST PUSH2 0x116D JUMPI PUSH1 0x40 MLOAD PUSH4 0x65BA7FAB PUSH1 0xE1 SHL DUP2 MSTORE CALLER PUSH1 0x4 DUP3 ADD MSTORE PUSH1 0x24 ADD PUSH2 0x8DA JUMP JUMPDEST PUSH1 0x0 DUP2 DUP2 MSTORE PUSH1 0x4F PUSH1 0x20 MSTORE PUSH1 0x40 DUP2 KECCAK256 PUSH2 0xD07 SWAP2 PUSH2 0x30E2 JUMP JUMPDEST PUSH1 0x57 SLOAD PUSH1 0x1 PUSH1 0xA0 SHL SWAP1 DIV PUSH1 0xFF AND ISZERO ISZERO PUSH1 0x1 EQ ISZERO PUSH2 0x11FD JUMPI PUSH1 0x4D PUSH1 0x0 CALLER PUSH1 0x40 MLOAD PUSH1 0x20 ADD PUSH2 0x11B0 SWAP2 SWAP1 PUSH2 0x3B76 JUMP JUMPDEST PUSH1 0x40 DUP1 MLOAD PUSH1 0x1F NOT DUP2 DUP5 SUB ADD DUP2 MSTORE SWAP2 DUP2 MSTORE DUP2 MLOAD PUSH1 0x20 SWAP3 DUP4 ADD KECCAK256 DUP4 MSTORE SWAP1 DUP3 ADD SWAP3 SWAP1 SWAP3 MSTORE ADD PUSH1 0x0 KECCAK256 SLOAD PUSH1 0xFF AND PUSH2 0x11F8 JUMPI PUSH1 0x40 MLOAD PUSH4 0x65BA7FAB PUSH1 0xE1 SHL DUP2 MSTORE CALLER PUSH1 0x4 DUP3 ADD MSTORE PUSH1 0x24 ADD PUSH2 0x8DA JUMP JUMPDEST PUSH2 0x126F JUMP JUMPDEST PUSH1 0x4D PUSH1 0x0 CALLER PUSH1 0x40 MLOAD PUSH1 0x20 ADD PUSH2 0x1212 SWAP2 SWAP1 PUSH2 0x3B76 JUMP JUMPDEST PUSH1 0x40 DUP1 MLOAD PUSH1 0x1F NOT DUP2 DUP5 SUB ADD DUP2 MSTORE SWAP2 DUP2 MSTORE DUP2 MLOAD PUSH1 0x20 SWAP3 DUP4 ADD KECCAK256 DUP4 MSTORE SWAP1 DUP3 ADD SWAP3 SWAP1 SWAP3 MSTORE ADD PUSH1 0x0 KECCAK256 SLOAD PUSH1 0xFF AND DUP1 PUSH2 0x1250 JUMPI POP PUSH1 0x56 SLOAD PUSH1 0x1 PUSH1 0x1 PUSH1 0xA0 SHL SUB AND ORIGIN EQ JUMPDEST PUSH2 0x126F JUMPI PUSH1 0x40 MLOAD PUSH4 0x65BA7FAB PUSH1 0xE1 SHL DUP2 MSTORE CALLER PUSH1 0x4 DUP3 ADD MSTORE PUSH1 0x24 ADD PUSH2 0x8DA JUMP JUMPDEST PUSH1 0x0 SWAP2 DUP3 MSTORE PUSH1 0x4B PUSH1 0x20 MSTORE PUSH1 0x40 SWAP1 SWAP2 KECCAK256 SSTORE JUMP JUMPDEST PUSH1 0x57 SLOAD PUSH1 0x1 PUSH1 0xA0 SHL SWAP1 DIV PUSH1 0xFF AND ISZERO ISZERO PUSH1 0x1 EQ ISZERO PUSH2 0x12FA JUMPI PUSH1 0x4D PUSH1 0x0 CALLER PUSH1 0x40 MLOAD PUSH1 0x20 ADD PUSH2 0x12AD SWAP2 SWAP1 PUSH2 0x3B76 JUMP JUMPDEST PUSH1 0x40 DUP1 MLOAD PUSH1 0x1F NOT DUP2 DUP5 SUB ADD DUP2 MSTORE SWAP2 DUP2 MSTORE DUP2 MLOAD PUSH1 0x20 SWAP3 DUP4 ADD KECCAK256 DUP4 MSTORE SWAP1 DUP3 ADD SWAP3 SWAP1 SWAP3 MSTORE ADD PUSH1 0x0 KECCAK256 SLOAD PUSH1 0xFF AND PUSH2 0x12F5 JUMPI PUSH1 0x40 MLOAD PUSH4 0x65BA7FAB PUSH1 0xE1 SHL DUP2 MSTORE CALLER PUSH1 0x4 DUP3 ADD MSTORE PUSH1 0x24 ADD PUSH2 0x8DA JUMP JUMPDEST PUSH2 0x136C JUMP JUMPDEST PUSH1 0x4D PUSH1 0x0 CALLER PUSH1 0x40 MLOAD PUSH1 0x20 ADD PUSH2 0x130F SWAP2 SWAP1 PUSH2 0x3B76 JUMP JUMPDEST PUSH1 0x40 DUP1 MLOAD PUSH1 0x1F NOT DUP2 DUP5 SUB ADD DUP2 MSTORE SWAP2 DUP2 MSTORE DUP2 MLOAD PUSH1 0x20 SWAP3 DUP4 ADD KECCAK256 DUP4 MSTORE SWAP1 DUP3 ADD SWAP3 SWAP1 SWAP3 MSTORE ADD PUSH1 0x0 KECCAK256 SLOAD PUSH1 0xFF AND DUP1 PUSH2 0x134D JUMPI POP PUSH1 0x56 SLOAD PUSH1 0x1 PUSH1 0x1 PUSH1 0xA0 SHL SUB AND ORIGIN EQ JUMPDEST PUSH2 0x136C JUMPI PUSH1 0x40 MLOAD PUSH4 0x65BA7FAB PUSH1 0xE1 SHL DUP2 MSTORE CALLER PUSH1 0x4 DUP3 ADD MSTORE PUSH1 0x24 ADD PUSH2 0x8DA JUMP JUMPDEST PUSH1 0x1 PUSH1 0x4D PUSH1 0x0 DUP4 PUSH1 0x40 MLOAD PUSH1 0x20 ADD PUSH2 0x1383 SWAP2 SWAP1 PUSH2 0x3B76 JUMP JUMPDEST PUSH1 0x40 MLOAD PUSH1 0x20 DUP2 DUP4 SUB SUB DUP2 MSTORE SWAP1 PUSH1 0x40 MSTORE DUP1 MLOAD SWAP1 PUSH1 0x20 ADD KECCAK256 DUP2 MSTORE PUSH1 0x20 ADD SWAP1 DUP2 MSTORE PUSH1 0x20 ADD PUSH1 0x0 KECCAK256 PUSH1 0x0 PUSH2 0x100 EXP DUP2 SLOAD DUP2 PUSH1 0xFF MUL NOT AND SWAP1 DUP4 ISZERO ISZERO MUL OR SWAP1 SSTORE POP DUP1 PUSH1 0x4C PUSH1 0x0 DUP6 DUP6 PUSH1 0x40 MLOAD PUSH1 0x20 ADD PUSH2 0x13D6 SWAP3 SWAP2 SWAP1 PUSH2 0x3BB9 JUMP JUMPDEST PUSH1 0x40 MLOAD PUSH1 0x20 DUP2 DUP4 SUB SUB DUP2 MSTORE SWAP1 PUSH1 0x40 MSTORE DUP1 MLOAD SWAP1 PUSH1 0x20 ADD KECCAK256 DUP2 MSTORE PUSH1 0x20 ADD SWAP1 DUP2 MSTORE PUSH1 0x20 ADD PUSH1 0x0 KECCAK256 PUSH1 0x0 PUSH2 0x100 EXP DUP2 SLOAD DUP2 PUSH1 0x1 PUSH1 0x1 PUSH1 0xA0 SHL SUB MUL NOT AND SWAP1 DUP4 PUSH1 0x1 PUSH1 0x1 PUSH1 0xA0 SHL SUB AND MUL OR SWAP1 SSTORE POP POP POP POP JUMP JUMPDEST PUSH1 0x57 SLOAD PUSH1 0x1 PUSH1 0xA0 SHL SWAP1 DIV PUSH1 0xFF AND ISZERO ISZERO PUSH1 0x1 EQ ISZERO PUSH2 0x149C JUMPI PUSH1 0x4D PUSH1 0x0 CALLER PUSH1 0x40 MLOAD PUSH1 0x20 ADD PUSH2 0x144F SWAP2 SWAP1 PUSH2 0x3B76 JUMP JUMPDEST PUSH1 0x40 DUP1 MLOAD PUSH1 0x1F NOT DUP2 DUP5 SUB ADD DUP2 MSTORE SWAP2 DUP2 MSTORE DUP2 MLOAD PUSH1 0x20 SWAP3 DUP4 ADD KECCAK256 DUP4 MSTORE SWAP1 DUP3 ADD SWAP3 SWAP1 SWAP3 MSTORE ADD PUSH1 0x0 KECCAK256 SLOAD PUSH1 0xFF AND PUSH2 0x1497 JUMPI PUSH1 0x40 MLOAD PUSH4 0x65BA7FAB PUSH1 0xE1 SHL DUP2 MSTORE CALLER PUSH1 0x4 DUP3 ADD MSTORE PUSH1 0x24 ADD PUSH2 0x8DA JUMP JUMPDEST PUSH2 0x150E JUMP JUMPDEST PUSH1 0x4D PUSH1 0x0 CALLER PUSH1 0x40 MLOAD PUSH1 0x20 ADD PUSH2 0x14B1 SWAP2 SWAP1 PUSH2 0x3B76 JUMP JUMPDEST PUSH1 0x40 DUP1 MLOAD PUSH1 0x1F NOT DUP2 DUP5 SUB ADD DUP2 MSTORE SWAP2 DUP2 MSTORE DUP2 MLOAD PUSH1 0x20 SWAP3 DUP4 ADD KECCAK256 DUP4 MSTORE SWAP1 DUP3 ADD SWAP3 SWAP1 SWAP3 MSTORE ADD PUSH1 0x0 KECCAK256 SLOAD PUSH1 0xFF AND DUP1 PUSH2 0x14EF JUMPI POP PUSH1 0x56 SLOAD PUSH1 0x1 PUSH1 0x1 PUSH1 0xA0 SHL SUB AND ORIGIN EQ JUMPDEST PUSH2 0x150E JUMPI PUSH1 0x40 MLOAD PUSH4 0x65BA7FAB PUSH1 0xE1 SHL DUP2 MSTORE CALLER PUSH1 0x4 DUP3 ADD MSTORE PUSH1 0x24 ADD PUSH2 0x8DA JUMP JUMPDEST PUSH1 0x0 SWAP2 DUP3 MSTORE PUSH1 0x4E PUSH1 0x20 MSTORE PUSH1 0x40 SWAP1 SWAP2 KECCAK256 SSTORE JUMP JUMPDEST PUSH1 0x57 SLOAD PUSH1 0x1 PUSH1 0xA0 SHL SWAP1 DIV PUSH1 0xFF AND ISZERO ISZERO PUSH1 0x1 EQ ISZERO PUSH2 0x1599 JUMPI PUSH1 0x4D PUSH1 0x0 CALLER PUSH1 0x40 MLOAD PUSH1 0x20 ADD PUSH2 0x154C SWAP2 SWAP1 PUSH2 0x3B76 JUMP JUMPDEST PUSH1 0x40 DUP1 MLOAD PUSH1 0x1F NOT DUP2 DUP5 SUB ADD DUP2 MSTORE SWAP2 DUP2 MSTORE DUP2 MLOAD PUSH1 0x20 SWAP3 DUP4 ADD KECCAK256 DUP4 MSTORE SWAP1 DUP3 ADD SWAP3 SWAP1 SWAP3 MSTORE ADD PUSH1 0x0 KECCAK256 SLOAD PUSH1 0xFF AND PUSH2 0x1594 JUMPI PUSH1 0x40 MLOAD PUSH4 0x65BA7FAB PUSH1 0xE1 SHL DUP2 MSTORE CALLER PUSH1 0x4 DUP3 ADD MSTORE PUSH1 0x24 ADD PUSH2 0x8DA JUMP JUMPDEST PUSH2 0x160B JUMP JUMPDEST PUSH1 0x4D PUSH1 0x0 CALLER PUSH1 0x40 MLOAD PUSH1 0x20 ADD PUSH2 0x15AE SWAP2 SWAP1 PUSH2 0x3B76 JUMP JUMPDEST PUSH1 0x40 DUP1 MLOAD PUSH1 0x1F NOT DUP2 DUP5 SUB ADD DUP2 MSTORE SWAP2 DUP2 MSTORE DUP2 MLOAD PUSH1 0x20 SWAP3 DUP4 ADD KECCAK256 DUP4 MSTORE SWAP1 DUP3 ADD SWAP3 SWAP1 SWAP3 MSTORE ADD PUSH1 0x0 KECCAK256 SLOAD PUSH1 0xFF AND DUP1 PUSH2 0x15EC JUMPI POP PUSH1 0x56 SLOAD PUSH1 0x1 PUSH1 0x1 PUSH1 0xA0 SHL SUB AND ORIGIN EQ JUMPDEST PUSH2 0x160B JUMPI PUSH1 0x40 MLOAD PUSH4 0x65BA7FAB PUSH1 0xE1 SHL DUP2 MSTORE CALLER PUSH1 0x4 DUP3 ADD MSTORE PUSH1 0x24 ADD PUSH2 0x8DA JUMP JUMPDEST PUSH1 0x0 DUP2 DUP2 MSTORE PUSH1 0x55 PUSH1 0x20 MSTORE PUSH1 0x40 DUP2 KECCAK256 PUSH2 0xD07 SWAP2 PUSH2 0x3100 JUMP JUMPDEST PUSH1 0x0 DUP2 DUP2 MSTORE PUSH1 0x53 PUSH1 0x20 SWAP1 DUP2 MSTORE PUSH1 0x40 SWAP2 DUP3 SWAP1 KECCAK256 DUP1 SLOAD DUP4 MLOAD DUP2 DUP5 MUL DUP2 ADD DUP5 ADD SWAP1 SWAP5 MSTORE DUP1 DUP5 MSTORE PUSH1 0x60 SWAP4 SWAP3 DUP4 ADD DUP3 DUP3 DUP1 ISZERO PUSH2 0xAEA JUMPI PUSH1 0x20 MUL DUP3 ADD SWAP2 SWAP1 PUSH1 0x0 MSTORE PUSH1 0x20 PUSH1 0x0 KECCAK256 SWAP1 JUMPDEST DUP2 SLOAD PUSH1 0x1 PUSH1 0x1 PUSH1 0xA0 SHL SUB AND DUP2 MSTORE PUSH1 0x1 SWAP1 SWAP2 ADD SWAP1 PUSH1 0x20 ADD DUP1 DUP4 GT PUSH2 0x1664 JUMPI POP POP POP POP POP SWAP1 POP SWAP2 SWAP1 POP JUMP JUMPDEST PUSH1 0x57 SLOAD PUSH1 0x1 PUSH1 0xA0 SHL SWAP1 DIV PUSH1 0xFF AND ISZERO ISZERO PUSH1 0x1 EQ ISZERO PUSH2 0x1706 JUMPI PUSH1 0x4D PUSH1 0x0 CALLER PUSH1 0x40 MLOAD PUSH1 0x20 ADD PUSH2 0x16B9 SWAP2 SWAP1 PUSH2 0x3B76 JUMP JUMPDEST PUSH1 0x40 DUP1 MLOAD PUSH1 0x1F NOT DUP2 DUP5 SUB ADD DUP2 MSTORE SWAP2 DUP2 MSTORE DUP2 MLOAD PUSH1 0x20 SWAP3 DUP4 ADD KECCAK256 DUP4 MSTORE SWAP1 DUP3 ADD SWAP3 SWAP1 SWAP3 MSTORE ADD PUSH1 0x0 KECCAK256 SLOAD PUSH1 0xFF AND PUSH2 0x1701 JUMPI PUSH1 0x40 MLOAD PUSH4 0x65BA7FAB PUSH1 0xE1 SHL DUP2 MSTORE CALLER PUSH1 0x4 DUP3 ADD MSTORE PUSH1 0x24 ADD PUSH2 0x8DA JUMP JUMPDEST PUSH2 0x1778 JUMP JUMPDEST PUSH1 0x4D PUSH1 0x0 CALLER PUSH1 0x40 MLOAD PUSH1 0x20 ADD PUSH2 0x171B SWAP2 SWAP1 PUSH2 0x3B76 JUMP JUMPDEST PUSH1 0x40 DUP1 MLOAD PUSH1 0x1F NOT DUP2 DUP5 SUB ADD DUP2 MSTORE SWAP2 DUP2 MSTORE DUP2 MLOAD PUSH1 0x20 SWAP3 DUP4 ADD KECCAK256 DUP4 MSTORE SWAP1 DUP3 ADD SWAP3 SWAP1 SWAP3 MSTORE ADD PUSH1 0x0 KECCAK256 SLOAD PUSH1 0xFF AND DUP1 PUSH2 0x1759 JUMPI POP PUSH1 0x56 SLOAD PUSH1 0x1 PUSH1 0x1 PUSH1 0xA0 SHL SUB AND ORIGIN EQ JUMPDEST PUSH2 0x1778 JUMPI PUSH1 0x40 MLOAD PUSH4 0x65BA7FAB PUSH1 0xE1 SHL DUP2 MSTORE CALLER PUSH1 0x4 DUP3 ADD MSTORE PUSH1 0x24 ADD PUSH2 0x8DA JUMP JUMPDEST PUSH1 0x0 DUP2 DUP2 MSTORE PUSH1 0x53 PUSH1 0x20 MSTORE PUSH1 0x40 DUP2 KECCAK256 PUSH2 0xD07 SWAP2 PUSH2 0x3100 JUMP JUMPDEST PUSH1 0x57 SLOAD PUSH1 0x1 PUSH1 0xA0 SHL SWAP1 DIV PUSH1 0xFF AND ISZERO ISZERO PUSH1 0x1 EQ ISZERO PUSH2 0x1808 JUMPI PUSH1 0x4D PUSH1 0x0 CALLER PUSH1 0x40 MLOAD PUSH1 0x20 ADD PUSH2 0x17BB SWAP2 SWAP1 PUSH2 0x3B76 JUMP JUMPDEST PUSH1 0x40 DUP1 MLOAD PUSH1 0x1F NOT DUP2 DUP5 SUB ADD DUP2 MSTORE SWAP2 DUP2 MSTORE DUP2 MLOAD PUSH1 0x20 SWAP3 DUP4 ADD KECCAK256 DUP4 MSTORE SWAP1 DUP3 ADD SWAP3 SWAP1 SWAP3 MSTORE ADD PUSH1 0x0 KECCAK256 SLOAD PUSH1 0xFF AND PUSH2 0x1803 JUMPI PUSH1 0x40 MLOAD PUSH4 0x65BA7FAB PUSH1 0xE1 SHL DUP2 MSTORE CALLER PUSH1 0x4 DUP3 ADD MSTORE PUSH1 0x24 ADD PUSH2 0x8DA JUMP JUMPDEST PUSH2 0x187A JUMP JUMPDEST PUSH1 0x4D PUSH1 0x0 CALLER PUSH1 0x40 MLOAD PUSH1 0x20 ADD PUSH2 0x181D SWAP2 SWAP1 PUSH2 0x3B76 JUMP JUMPDEST PUSH1 0x40 DUP1 MLOAD PUSH1 0x1F NOT DUP2 DUP5 SUB ADD DUP2 MSTORE SWAP2 DUP2 MSTORE DUP2 MLOAD PUSH1 0x20 SWAP3 DUP4 ADD KECCAK256 DUP4 MSTORE SWAP1 DUP3 ADD SWAP3 SWAP1 SWAP3 MSTORE ADD PUSH1 0x0 KECCAK256 SLOAD PUSH1 0xFF AND DUP1 PUSH2 0x185B JUMPI POP PUSH1 0x56 SLOAD PUSH1 0x1 PUSH1 0x1 PUSH1 0xA0 SHL SUB AND ORIGIN EQ JUMPDEST PUSH2 0x187A JUMPI PUSH1 0x40 MLOAD PUSH4 0x65BA7FAB PUSH1 0xE1 SHL DUP2 MSTORE CALLER PUSH1 0x4 DUP3 ADD MSTORE PUSH1 0x24 ADD PUSH2 0x8DA JUMP JUMPDEST PUSH1 0x0 DUP3 DUP2 MSTORE PUSH1 0x51 PUSH1 0x20 SWAP1 DUP2 MSTORE PUSH1 0x40 SWAP1 SWAP2 KECCAK256 DUP3 MLOAD PUSH2 0xC00 SWAP3 DUP5 ADD SWAP1 PUSH2 0x2F5E JUMP JUMPDEST PUSH1 0x57 SLOAD PUSH1 0x1 PUSH1 0xA0 SHL SWAP1 DIV PUSH1 0xFF AND ISZERO ISZERO PUSH1 0x1 EQ ISZERO PUSH2 0x1912 JUMPI PUSH1 0x4D PUSH1 0x0 CALLER PUSH1 0x40 MLOAD PUSH1 0x20 ADD PUSH2 0x18C5 SWAP2 SWAP1 PUSH2 0x3B76 JUMP JUMPDEST PUSH1 0x40 DUP1 MLOAD PUSH1 0x1F NOT DUP2 DUP5 SUB ADD DUP2 MSTORE SWAP2 DUP2 MSTORE DUP2 MLOAD PUSH1 0x20 SWAP3 DUP4 ADD KECCAK256 DUP4 MSTORE SWAP1 DUP3 ADD SWAP3 SWAP1 SWAP3 MSTORE ADD PUSH1 0x0 KECCAK256 SLOAD PUSH1 0xFF AND PUSH2 0x190D JUMPI PUSH1 0x40 MLOAD PUSH4 0x65BA7FAB PUSH1 0xE1 SHL DUP2 MSTORE CALLER PUSH1 0x4 DUP3 ADD MSTORE PUSH1 0x24 ADD PUSH2 0x8DA JUMP JUMPDEST PUSH2 0x1984 JUMP JUMPDEST PUSH1 0x4D PUSH1 0x0 CALLER PUSH1 0x40 MLOAD PUSH1 0x20 ADD PUSH2 0x1927 SWAP2 SWAP1 PUSH2 0x3B76 JUMP JUMPDEST PUSH1 0x40 DUP1 MLOAD PUSH1 0x1F NOT DUP2 DUP5 SUB ADD DUP2 MSTORE SWAP2 DUP2 MSTORE DUP2 MLOAD PUSH1 0x20 SWAP3 DUP4 ADD KECCAK256 DUP4 MSTORE SWAP1 DUP3 ADD SWAP3 SWAP1 SWAP3 MSTORE ADD PUSH1 0x0 KECCAK256 SLOAD PUSH1 0xFF AND DUP1 PUSH2 0x1965 JUMPI POP PUSH1 0x56 SLOAD PUSH1 0x1 PUSH1 0x1 PUSH1 0xA0 SHL SUB AND ORIGIN EQ JUMPDEST PUSH2 0x1984 JUMPI PUSH1 0x40 MLOAD PUSH4 0x65BA7FAB PUSH1 0xE1 SHL DUP2 MSTORE CALLER PUSH1 0x4 DUP3 ADD MSTORE PUSH1 0x24 ADD PUSH2 0x8DA JUMP JUMPDEST PUSH1 0x0 DUP2 DUP2 MSTORE PUSH1 0x49 PUSH1 0x20 MSTORE PUSH1 0x40 DUP2 KECCAK256 PUSH2 0xD07 SWAP2 PUSH2 0x311E JUMP JUMPDEST PUSH1 0x56 SLOAD PUSH1 0x1 PUSH1 0x1 PUSH1 0xA0 SHL SUB AND CALLER EQ PUSH2 0x19C8 JUMPI PUSH1 0x40 MLOAD PUSH4 0xF8501425 PUSH1 0xE0 SHL DUP2 MSTORE CALLER PUSH1 0x4 DUP3 ADD MSTORE PUSH1 0x24 ADD PUSH2 0x8DA JUMP JUMPDEST PUSH1 0x57 DUP1 SLOAD PUSH1 0x1 PUSH1 0x1 PUSH1 0xA0 SHL SUB NOT AND PUSH1 0x1 PUSH1 0x1 PUSH1 0xA0 SHL SUB SWAP3 SWAP1 SWAP3 AND SWAP2 SWAP1 SWAP2 OR SWAP1 SSTORE JUMP JUMPDEST PUSH1 0x57 SLOAD PUSH1 0x1 PUSH1 0xA0 SHL SWAP1 DIV PUSH1 0xFF AND ISZERO ISZERO PUSH1 0x1 EQ ISZERO PUSH2 0x1A63 JUMPI PUSH1 0x4D PUSH1 0x0 CALLER PUSH1 0x40 MLOAD PUSH1 0x20 ADD PUSH2 0x1A16 SWAP2 SWAP1 PUSH2 0x3B76 JUMP JUMPDEST PUSH1 0x40 DUP1 MLOAD PUSH1 0x1F NOT DUP2 DUP5 SUB ADD DUP2 MSTORE SWAP2 DUP2 MSTORE DUP2 MLOAD PUSH1 0x20 SWAP3 DUP4 ADD KECCAK256 DUP4 MSTORE SWAP1 DUP3 ADD SWAP3 SWAP1 SWAP3 MSTORE ADD PUSH1 0x0 KECCAK256 SLOAD PUSH1 0xFF AND PUSH2 0x1A5E JUMPI PUSH1 0x40 MLOAD PUSH4 0x65BA7FAB PUSH1 0xE1 SHL DUP2 MSTORE CALLER PUSH1 0x4 DUP3 ADD MSTORE PUSH1 0x24 ADD PUSH2 0x8DA JUMP JUMPDEST PUSH2 0x1AD5 JUMP JUMPDEST PUSH1 0x4D PUSH1 0x0 CALLER PUSH1 0x40 MLOAD PUSH1 0x20 ADD PUSH2 0x1A78 SWAP2 SWAP1 PUSH2 0x3B76 JUMP JUMPDEST PUSH1 0x40 DUP1 MLOAD PUSH1 0x1F NOT DUP2 DUP5 SUB ADD DUP2 MSTORE SWAP2 DUP2 MSTORE DUP2 MLOAD PUSH1 0x20 SWAP3 DUP4 ADD KECCAK256 DUP4 MSTORE SWAP1 DUP3 ADD SWAP3 SWAP1 SWAP3 MSTORE ADD PUSH1 0x0 KECCAK256 SLOAD PUSH1 0xFF AND DUP1 PUSH2 0x1AB6 JUMPI POP PUSH1 0x56 SLOAD PUSH1 0x1 PUSH1 0x1 PUSH1 0xA0 SHL SUB AND ORIGIN EQ JUMPDEST PUSH2 0x1AD5 JUMPI PUSH1 0x40 MLOAD PUSH4 0x65BA7FAB PUSH1 0xE1 SHL DUP2 MSTORE CALLER PUSH1 0x4 DUP3 ADD MSTORE PUSH1 0x24 ADD PUSH2 0x8DA JUMP JUMPDEST PUSH1 0x0 DUP4 DUP2 MSTORE PUSH1 0x48 PUSH1 0x20 MSTORE PUSH1 0x40 SWAP1 KECCAK256 PUSH2 0xF72 SWAP1 DUP4 DUP4 PUSH2 0x2FCE JUMP JUMPDEST PUSH1 0x57 SLOAD PUSH1 0x1 PUSH1 0xA0 SHL SWAP1 DIV PUSH1 0xFF AND ISZERO ISZERO PUSH1 0x1 EQ ISZERO PUSH2 0x1B67 JUMPI PUSH1 0x4D PUSH1 0x0 CALLER PUSH1 0x40 MLOAD PUSH1 0x20 ADD PUSH2 0x1B1A SWAP2 SWAP1 PUSH2 0x3B76 JUMP JUMPDEST PUSH1 0x40 DUP1 MLOAD PUSH1 0x1F NOT DUP2 DUP5 SUB ADD DUP2 MSTORE SWAP2 DUP2 MSTORE DUP2 MLOAD PUSH1 0x20 SWAP3 DUP4 ADD KECCAK256 DUP4 MSTORE SWAP1 DUP3 ADD SWAP3 SWAP1 SWAP3 MSTORE ADD PUSH1 0x0 KECCAK256 SLOAD PUSH1 0xFF AND PUSH2 0x1B62 JUMPI PUSH1 0x40 MLOAD PUSH4 0x65BA7FAB PUSH1 0xE1 SHL DUP2 MSTORE CALLER PUSH1 0x4 DUP3 ADD MSTORE PUSH1 0x24 ADD PUSH2 0x8DA JUMP JUMPDEST PUSH2 0x1BD9 JUMP JUMPDEST PUSH1 0x4D PUSH1 0x0 CALLER PUSH1 0x40 MLOAD PUSH1 0x20 ADD PUSH2 0x1B7C SWAP2 SWAP1 PUSH2 0x3B76 JUMP JUMPDEST PUSH1 0x40 DUP1 MLOAD PUSH1 0x1F NOT DUP2 DUP5 SUB ADD DUP2 MSTORE SWAP2 DUP2 MSTORE DUP2 MLOAD PUSH1 0x20 SWAP3 DUP4 ADD KECCAK256 DUP4 MSTORE SWAP1 DUP3 ADD SWAP3 SWAP1 SWAP3 MSTORE ADD PUSH1 0x0 KECCAK256 SLOAD PUSH1 0xFF AND DUP1 PUSH2 0x1BBA JUMPI POP PUSH1 0x56 SLOAD PUSH1 0x1 PUSH1 0x1 PUSH1 0xA0 SHL SUB AND ORIGIN EQ JUMPDEST PUSH2 0x1BD9 JUMPI PUSH1 0x40 MLOAD PUSH4 0x65BA7FAB PUSH1 0xE1 SHL DUP2 MSTORE CALLER PUSH1 0x4 DUP3 ADD MSTORE PUSH1 0x24 ADD PUSH2 0x8DA JUMP JUMPDEST PUSH1 0x0 DUP2 DUP2 MSTORE PUSH1 0x51 PUSH1 0x20 MSTORE PUSH1 0x40 DUP2 KECCAK256 PUSH2 0xD07 SWAP2 PUSH2 0x3100 JUMP JUMPDEST PUSH1 0x0 DUP2 DUP2 MSTORE PUSH1 0x51 PUSH1 0x20 SWAP1 DUP2 MSTORE PUSH1 0x40 SWAP2 DUP3 SWAP1 KECCAK256 DUP1 SLOAD DUP4 MLOAD DUP2 DUP5 MUL DUP2 ADD DUP5 ADD SWAP1 SWAP5 MSTORE DUP1 DUP5 MSTORE PUSH1 0x60 SWAP4 SWAP3 DUP4 ADD DUP3 DUP3 DUP1 ISZERO PUSH2 0xAEA JUMPI PUSH1 0x20 MUL DUP3 ADD SWAP2 SWAP1 PUSH1 0x0 MSTORE PUSH1 0x20 PUSH1 0x0 KECCAK256 SWAP1 DUP2 SLOAD DUP2 MSTORE PUSH1 0x20 ADD SWAP1 PUSH1 0x1 ADD SWAP1 DUP1 DUP4 GT PUSH2 0xE4F JUMPI POP POP POP POP POP SWAP1 POP SWAP2 SWAP1 POP JUMP JUMPDEST PUSH1 0x57 SLOAD PUSH1 0x1 PUSH1 0xA0 SHL SWAP1 DIV PUSH1 0xFF AND ISZERO ISZERO PUSH1 0x1 EQ ISZERO PUSH2 0x1CC9 JUMPI PUSH1 0x4D PUSH1 0x0 CALLER PUSH1 0x40 MLOAD PUSH1 0x20 ADD PUSH2 0x1C7C SWAP2 SWAP1 PUSH2 0x3B76 JUMP JUMPDEST PUSH1 0x40 DUP1 MLOAD PUSH1 0x1F NOT DUP2 DUP5 SUB ADD DUP2 MSTORE SWAP2 DUP2 MSTORE DUP2 MLOAD PUSH1 0x20 SWAP3 DUP4 ADD KECCAK256 DUP4 MSTORE SWAP1 DUP3 ADD SWAP3 SWAP1 SWAP3 MSTORE ADD PUSH1 0x0 KECCAK256 SLOAD PUSH1 0xFF AND PUSH2 0x1CC4 JUMPI PUSH1 0x40 MLOAD PUSH4 0x65BA7FAB PUSH1 0xE1 SHL DUP2 MSTORE CALLER PUSH1 0x4 DUP3 ADD MSTORE PUSH1 0x24 ADD PUSH2 0x8DA JUMP JUMPDEST PUSH2 0x1D3B JUMP JUMPDEST PUSH1 0x4D PUSH1 0x0 CALLER PUSH1 0x40 MLOAD PUSH1 0x20 ADD PUSH2 0x1CDE SWAP2 SWAP1 PUSH2 0x3B76 JUMP JUMPDEST PUSH1 0x40 DUP1 MLOAD PUSH1 0x1F NOT DUP2 DUP5 SUB ADD DUP2 MSTORE SWAP2 DUP2 MSTORE DUP2 MLOAD PUSH1 0x20 SWAP3 DUP4 ADD KECCAK256 DUP4 MSTORE SWAP1 DUP3 ADD SWAP3 SWAP1 SWAP3 MSTORE ADD PUSH1 0x0 KECCAK256 SLOAD PUSH1 0xFF AND DUP1 PUSH2 0x1D1C JUMPI POP PUSH1 0x56 SLOAD PUSH1 0x1 PUSH1 0x1 PUSH1 0xA0 SHL SUB AND ORIGIN EQ JUMPDEST PUSH2 0x1D3B JUMPI PUSH1 0x40 MLOAD PUSH4 0x65BA7FAB PUSH1 0xE1 SHL DUP2 MSTORE CALLER PUSH1 0x4 DUP3 ADD MSTORE PUSH1 0x24 ADD PUSH2 0x8DA JUMP JUMPDEST PUSH1 0x0 DUP3 DUP2 MSTORE PUSH1 0x4F PUSH1 0x20 SWAP1 DUP2 MSTORE PUSH1 0x40 SWAP1 SWAP2 KECCAK256 DUP3 MLOAD PUSH2 0xC00 SWAP3 DUP5 ADD SWAP1 PUSH2 0x3158 JUMP JUMPDEST PUSH1 0x57 SLOAD PUSH1 0x1 PUSH1 0xA0 SHL SWAP1 DIV PUSH1 0xFF AND ISZERO ISZERO PUSH1 0x1 EQ ISZERO PUSH2 0x1DD3 JUMPI PUSH1 0x4D PUSH1 0x0 CALLER PUSH1 0x40 MLOAD PUSH1 0x20 ADD PUSH2 0x1D86 SWAP2 SWAP1 PUSH2 0x3B76 JUMP JUMPDEST PUSH1 0x40 DUP1 MLOAD PUSH1 0x1F NOT DUP2 DUP5 SUB ADD DUP2 MSTORE SWAP2 DUP2 MSTORE DUP2 MLOAD PUSH1 0x20 SWAP3 DUP4 ADD KECCAK256 DUP4 MSTORE SWAP1 DUP3 ADD SWAP3 SWAP1 SWAP3 MSTORE ADD PUSH1 0x0 KECCAK256 SLOAD PUSH1 0xFF AND PUSH2 0x1DCE JUMPI PUSH1 0x40 MLOAD PUSH4 0x65BA7FAB PUSH1 0xE1 SHL DUP2 MSTORE CALLER PUSH1 0x4 DUP3 ADD MSTORE PUSH1 0x24 ADD PUSH2 0x8DA JUMP JUMPDEST PUSH2 0x1E45 JUMP JUMPDEST PUSH1 0x4D PUSH1 0x0 CALLER PUSH1 0x40 MLOAD PUSH1 0x20 ADD PUSH2 0x1DE8 SWAP2 SWAP1 PUSH2 0x3B76 JUMP JUMPDEST PUSH1 0x40 DUP1 MLOAD PUSH1 0x1F NOT DUP2 DUP5 SUB ADD DUP2 MSTORE SWAP2 DUP2 MSTORE DUP2 MLOAD PUSH1 0x20 SWAP3 DUP4 ADD KECCAK256 DUP4 MSTORE SWAP1 DUP3 ADD SWAP3 SWAP1 SWAP3 MSTORE ADD PUSH1 0x0 KECCAK256 SLOAD PUSH1 0xFF AND DUP1 PUSH2 0x1E26 JUMPI POP PUSH1 0x56 SLOAD PUSH1 0x1 PUSH1 0x1 PUSH1 0xA0 SHL SUB AND ORIGIN EQ JUMPDEST PUSH2 0x1E45 JUMPI PUSH1 0x40 MLOAD PUSH4 0x65BA7FAB PUSH1 0xE1 SHL DUP2 MSTORE CALLER PUSH1 0x4 DUP3 ADD MSTORE PUSH1 0x24 ADD PUSH2 0x8DA JUMP JUMPDEST PUSH1 0x0 SWAP1 DUP2 MSTORE PUSH1 0x4B PUSH1 0x20 MSTORE PUSH1 0x40 DUP2 KECCAK256 SSTORE JUMP JUMPDEST PUSH1 0x60 PUSH1 0x50 PUSH1 0x0 DUP4 DUP2 MSTORE PUSH1 0x20 ADD SWAP1 DUP2 MSTORE PUSH1 0x20 ADD PUSH1 0x0 KECCAK256 DUP1 SLOAD DUP1 PUSH1 0x20 MUL PUSH1 0x20 ADD PUSH1 0x40 MLOAD SWAP1 DUP2 ADD PUSH1 0x40 MSTORE DUP1 SWAP3 SWAP2 SWAP1 DUP2 DUP2 MSTORE PUSH1 0x20 ADD PUSH1 0x0 SWAP1 JUMPDEST DUP3 DUP3 LT ISZERO PUSH2 0x85F JUMPI DUP4 DUP3 SWAP1 PUSH1 0x0 MSTORE PUSH1 0x20 PUSH1 0x0 KECCAK256 ADD DUP1 SLOAD PUSH2 0x1EAA SWAP1 PUSH2 0x3B3B JUMP JUMPDEST DUP1 PUSH1 0x1F ADD PUSH1 0x20 DUP1 SWAP2 DIV MUL PUSH1 0x20 ADD PUSH1 0x40 MLOAD SWAP1 DUP2 ADD PUSH1 0x40 MSTORE DUP1 SWAP3 SWAP2 SWAP1 DUP2 DUP2 MSTORE PUSH1 0x20 ADD DUP3 DUP1 SLOAD PUSH2 0x1ED6 SWAP1 PUSH2 0x3B3B JUMP JUMPDEST DUP1 ISZERO PUSH2 0x1F23 JUMPI DUP1 PUSH1 0x1F LT PUSH2 0x1EF8 JUMPI PUSH2 0x100 DUP1 DUP4 SLOAD DIV MUL DUP4 MSTORE SWAP2 PUSH1 0x20 ADD SWAP2 PUSH2 0x1F23 JUMP JUMPDEST DUP3 ADD SWAP2 SWAP1 PUSH1 0x0 MSTORE PUSH1 0x20 PUSH1 0x0 KECCAK256 SWAP1 JUMPDEST DUP2 SLOAD DUP2 MSTORE SWAP1 PUSH1 0x1 ADD SWAP1 PUSH1 0x20 ADD DUP1 DUP4 GT PUSH2 0x1F06 JUMPI DUP3 SWAP1 SUB PUSH1 0x1F AND DUP3 ADD SWAP2 JUMPDEST POP POP POP POP POP DUP2 MSTORE PUSH1 0x20 ADD SWAP1 PUSH1 0x1 ADD SWAP1 PUSH2 0x1E8B JUMP JUMPDEST PUSH1 0x57 SLOAD PUSH1 0x1 PUSH1 0xA0 SHL SWAP1 DIV PUSH1 0xFF AND ISZERO ISZERO PUSH1 0x1 EQ ISZERO PUSH2 0x1FB0 JUMPI PUSH1 0x4D PUSH1 0x0 CALLER PUSH1 0x40 MLOAD PUSH1 0x20 ADD PUSH2 0x1F63 SWAP2 SWAP1 PUSH2 0x3B76 JUMP JUMPDEST PUSH1 0x40 DUP1 MLOAD PUSH1 0x1F NOT DUP2 DUP5 SUB ADD DUP2 MSTORE SWAP2 DUP2 MSTORE DUP2 MLOAD PUSH1 0x20 SWAP3 DUP4 ADD KECCAK256 DUP4 MSTORE SWAP1 DUP3 ADD SWAP3 SWAP1 SWAP3 MSTORE ADD PUSH1 0x0 KECCAK256 SLOAD PUSH1 0xFF AND PUSH2 0x1FAB JUMPI PUSH1 0x40 MLOAD PUSH4 0x65BA7FAB PUSH1 0xE1 SHL DUP2 MSTORE CALLER PUSH1 0x4 DUP3 ADD MSTORE PUSH1 0x24 ADD PUSH2 0x8DA JUMP JUMPDEST PUSH2 0x2022 JUMP JUMPDEST PUSH1 0x4D PUSH1 0x0 CALLER PUSH1 0x40 MLOAD PUSH1 0x20 ADD PUSH2 0x1FC5 SWAP2 SWAP1 PUSH2 0x3B76 JUMP JUMPDEST PUSH1 0x40 DUP1 MLOAD PUSH1 0x1F NOT DUP2 DUP5 SUB ADD DUP2 MSTORE SWAP2 DUP2 MSTORE DUP2 MLOAD PUSH1 0x20 SWAP3 DUP4 ADD KECCAK256 DUP4 MSTORE SWAP1 DUP3 ADD SWAP3 SWAP1 SWAP3 MSTORE ADD PUSH1 0x0 KECCAK256 SLOAD PUSH1 0xFF AND DUP1 PUSH2 0x2003 JUMPI POP PUSH1 0x56 SLOAD PUSH1 0x1 PUSH1 0x1 PUSH1 0xA0 SHL SUB AND ORIGIN EQ JUMPDEST PUSH2 0x2022 JUMPI PUSH1 0x40 MLOAD PUSH4 0x65BA7FAB PUSH1 0xE1 SHL DUP2 MSTORE CALLER PUSH1 0x4 DUP3 ADD MSTORE PUSH1 0x24 ADD PUSH2 0x8DA JUMP JUMPDEST PUSH1 0x0 PUSH1 0x4C PUSH1 0x0 DUP5 DUP5 PUSH1 0x40 MLOAD PUSH1 0x20 ADD PUSH2 0x203B SWAP3 SWAP2 SWAP1 PUSH2 0x3BB9 JUMP JUMPDEST PUSH1 0x40 MLOAD PUSH1 0x20 DUP2 DUP4 SUB SUB DUP2 MSTORE SWAP1 PUSH1 0x40 MSTORE DUP1 MLOAD SWAP1 PUSH1 0x20 ADD KECCAK256 DUP2 MSTORE PUSH1 0x20 ADD SWAP1 DUP2 MSTORE PUSH1 0x20 ADD PUSH1 0x0 KECCAK256 PUSH1 0x0 SWAP1 SLOAD SWAP1 PUSH2 0x100 EXP SWAP1 DIV PUSH1 0x1 PUSH1 0x1 PUSH1 0xA0 SHL SUB AND SWAP1 POP PUSH1 0x4D PUSH1 0x0 DUP3 PUSH1 0x40 MLOAD PUSH1 0x20 ADD PUSH2 0x208A SWAP2 SWAP1 PUSH2 0x3B76 JUMP JUMPDEST PUSH1 0x40 MLOAD PUSH1 0x20 DUP2 DUP4 SUB SUB DUP2 MSTORE SWAP1 PUSH1 0x40 MSTORE DUP1 MLOAD SWAP1 PUSH1 0x20 ADD KECCAK256 DUP2 MSTORE PUSH1 0x20 ADD SWAP1 DUP2 MSTORE PUSH1 0x20 ADD PUSH1 0x0 KECCAK256 PUSH1 0x0 PUSH2 0x100 EXP DUP2 SLOAD SWAP1 PUSH1 0xFF MUL NOT AND SWAP1 SSTORE PUSH1 0x4C PUSH1 0x0 DUP5 DUP5 PUSH1 0x40 MLOAD PUSH1 0x20 ADD PUSH2 0x20D5 SWAP3 SWAP2 SWAP1 PUSH2 0x3BB9 JUMP JUMPDEST PUSH1 0x40 DUP1 MLOAD PUSH1 0x1F NOT DUP2 DUP5 SUB ADD DUP2 MSTORE SWAP2 DUP2 MSTORE DUP2 MLOAD PUSH1 0x20 SWAP3 DUP4 ADD KECCAK256 DUP4 MSTORE SWAP1 DUP3 ADD SWAP3 SWAP1 SWAP3 MSTORE ADD PUSH1 0x0 KECCAK256 DUP1 SLOAD PUSH1 0x1 PUSH1 0x1 PUSH1 0xA0 SHL SUB NOT AND SWAP1 SSTORE POP POP POP JUMP JUMPDEST PUSH1 0x0 DUP2 DUP2 MSTORE PUSH1 0x48 PUSH1 0x20 MSTORE PUSH1 0x40 SWAP1 KECCAK256 DUP1 SLOAD PUSH1 0x60 SWAP2 SWAP1 PUSH2 0x212A SWAP1 PUSH2 0x3B3B JUMP JUMPDEST DUP1 PUSH1 0x1F ADD PUSH1 0x20 DUP1 SWAP2 DIV MUL PUSH1 0x20 ADD PUSH1 0x40 MLOAD SWAP1 DUP2 ADD PUSH1 0x40 MSTORE DUP1 SWAP3 SWAP2 SWAP1 DUP2 DUP2 MSTORE PUSH1 0x20 ADD DUP3 DUP1 SLOAD PUSH2 0x2156 SWAP1 PUSH2 0x3B3B JUMP JUMPDEST DUP1 ISZERO PUSH2 0xAEA JUMPI DUP1 PUSH1 0x1F LT PUSH2 0x2178 JUMPI PUSH2 0x100 DUP1 DUP4 SLOAD DIV MUL DUP4 MSTORE SWAP2 PUSH1 0x20 ADD SWAP2 PUSH2 0xAEA JUMP JUMPDEST DUP3 ADD SWAP2 SWAP1 PUSH1 0x0 MSTORE PUSH1 0x20 PUSH1 0x0 KECCAK256 SWAP1 JUMPDEST DUP2 SLOAD DUP2 MSTORE SWAP1 PUSH1 0x1 ADD SWAP1 PUSH1 0x20 ADD DUP1 DUP4 GT PUSH2 0x2186 JUMPI POP SWAP4 SWAP7 SWAP6 POP POP POP POP POP POP JUMP JUMPDEST PUSH1 0x57 SLOAD PUSH1 0x1 PUSH1 0xA0 SHL SWAP1 DIV PUSH1 0xFF AND ISZERO ISZERO PUSH1 0x1 EQ ISZERO PUSH2 0x221E JUMPI PUSH1 0x4D PUSH1 0x0 CALLER PUSH1 0x40 MLOAD PUSH1 0x20 ADD PUSH2 0x21D1 SWAP2 SWAP1 PUSH2 0x3B76 JUMP JUMPDEST PUSH1 0x40 DUP1 MLOAD PUSH1 0x1F NOT DUP2 DUP5 SUB ADD DUP2 MSTORE SWAP2 DUP2 MSTORE DUP2 MLOAD PUSH1 0x20 SWAP3 DUP4 ADD KECCAK256 DUP4 MSTORE SWAP1 DUP3 ADD SWAP3 SWAP1 SWAP3 MSTORE ADD PUSH1 0x0 KECCAK256 SLOAD PUSH1 0xFF AND PUSH2 0x2219 JUMPI PUSH1 0x40 MLOAD PUSH4 0x65BA7FAB PUSH1 0xE1 SHL DUP2 MSTORE CALLER PUSH1 0x4 DUP3 ADD MSTORE PUSH1 0x24 ADD PUSH2 0x8DA JUMP JUMPDEST PUSH2 0x2290 JUMP JUMPDEST PUSH1 0x4D PUSH1 0x0 CALLER PUSH1 0x40 MLOAD PUSH1 0x20 ADD PUSH2 0x2233 SWAP2 SWAP1 PUSH2 0x3B76 JUMP JUMPDEST PUSH1 0x40 DUP1 MLOAD PUSH1 0x1F NOT DUP2 DUP5 SUB ADD DUP2 MSTORE SWAP2 DUP2 MSTORE DUP2 MLOAD PUSH1 0x20 SWAP3 DUP4 ADD KECCAK256 DUP4 MSTORE SWAP1 DUP3 ADD SWAP3 SWAP1 SWAP3 MSTORE ADD PUSH1 0x0 KECCAK256 SLOAD PUSH1 0xFF AND DUP1 PUSH2 0x2271 JUMPI POP PUSH1 0x56 SLOAD PUSH1 0x1 PUSH1 0x1 PUSH1 0xA0 SHL SUB AND ORIGIN EQ JUMPDEST PUSH2 0x2290 JUMPI PUSH1 0x40 MLOAD PUSH4 0x65BA7FAB PUSH1 0xE1 SHL DUP2 MSTORE CALLER PUSH1 0x4 DUP3 ADD MSTORE PUSH1 0x24 ADD PUSH2 0x8DA JUMP JUMPDEST PUSH1 0x0 DUP3 DUP2 MSTORE PUSH1 0x52 PUSH1 0x20 SWAP1 DUP2 MSTORE PUSH1 0x40 SWAP1 SWAP2 KECCAK256 DUP3 MLOAD PUSH2 0xC00 SWAP3 DUP5 ADD SWAP1 PUSH2 0x2F5E JUMP JUMPDEST PUSH1 0x57 SLOAD PUSH1 0x1 PUSH1 0xA0 SHL SWAP1 DIV PUSH1 0xFF AND ISZERO ISZERO PUSH1 0x1 EQ ISZERO PUSH2 0x2328 JUMPI PUSH1 0x4D PUSH1 0x0 CALLER PUSH1 0x40 MLOAD PUSH1 0x20 ADD PUSH2 0x22DB SWAP2 SWAP1 PUSH2 0x3B76 JUMP JUMPDEST PUSH1 0x40 DUP1 MLOAD PUSH1 0x1F NOT DUP2 DUP5 SUB ADD DUP2 MSTORE SWAP2 DUP2 MSTORE DUP2 MLOAD PUSH1 0x20 SWAP3 DUP4 ADD KECCAK256 DUP4 MSTORE SWAP1 DUP3 ADD SWAP3 SWAP1 SWAP3 MSTORE ADD PUSH1 0x0 KECCAK256 SLOAD PUSH1 0xFF AND PUSH2 0x2323 JUMPI PUSH1 0x40 MLOAD PUSH4 0x65BA7FAB PUSH1 0xE1 SHL DUP2 MSTORE CALLER PUSH1 0x4 DUP3 ADD MSTORE PUSH1 0x24 ADD PUSH2 0x8DA JUMP JUMPDEST PUSH2 0x239A JUMP JUMPDEST PUSH1 0x4D PUSH1 0x0 CALLER PUSH1 0x40 MLOAD PUSH1 0x20 ADD PUSH2 0x233D SWAP2 SWAP1 PUSH2 0x3B76 JUMP JUMPDEST PUSH1 0x40 DUP1 MLOAD PUSH1 0x1F NOT DUP2 DUP5 SUB ADD DUP2 MSTORE SWAP2 DUP2 MSTORE DUP2 MLOAD PUSH1 0x20 SWAP3 DUP4 ADD KECCAK256 DUP4 MSTORE SWAP1 DUP3 ADD SWAP3 SWAP1 SWAP3 MSTORE ADD PUSH1 0x0 KECCAK256 SLOAD PUSH1 0xFF AND DUP1 PUSH2 0x237B JUMPI POP PUSH1 0x56 SLOAD PUSH1 0x1 PUSH1 0x1 PUSH1 0xA0 SHL SUB AND ORIGIN EQ JUMPDEST PUSH2 0x239A JUMPI PUSH1 0x40 MLOAD PUSH4 0x65BA7FAB PUSH1 0xE1 SHL DUP2 MSTORE CALLER PUSH1 0x4 DUP3 ADD MSTORE PUSH1 0x24 ADD PUSH2 0x8DA JUMP JUMPDEST PUSH1 0x0 SWAP2 DUP3 MSTORE PUSH1 0x4D PUSH1 0x20 MSTORE PUSH1 0x40 SWAP1 SWAP2 KECCAK256 DUP1 SLOAD PUSH1 0xFF NOT AND SWAP2 ISZERO ISZERO SWAP2 SWAP1 SWAP2 OR SWAP1 SSTORE JUMP JUMPDEST PUSH1 0x57 SLOAD PUSH1 0x1 PUSH1 0xA0 SHL SWAP1 DIV PUSH1 0xFF AND ISZERO ISZERO PUSH1 0x1 EQ ISZERO PUSH2 0x2433 JUMPI PUSH1 0x4D PUSH1 0x0 CALLER PUSH1 0x40 MLOAD PUSH1 0x20 ADD PUSH2 0x23E6 SWAP2 SWAP1 PUSH2 0x3B76 JUMP JUMPDEST PUSH1 0x40 DUP1 MLOAD PUSH1 0x1F NOT DUP2 DUP5 SUB ADD DUP2 MSTORE SWAP2 DUP2 MSTORE DUP2 MLOAD PUSH1 0x20 SWAP3 DUP4 ADD KECCAK256 DUP4 MSTORE SWAP1 DUP3 ADD SWAP3 SWAP1 SWAP3 MSTORE ADD PUSH1 0x0 KECCAK256 SLOAD PUSH1 0xFF AND PUSH2 0x242E JUMPI PUSH1 0x40 MLOAD PUSH4 0x65BA7FAB PUSH1 0xE1 SHL DUP2 MSTORE CALLER PUSH1 0x4 DUP3 ADD MSTORE PUSH1 0x24 ADD PUSH2 0x8DA JUMP JUMPDEST PUSH2 0x24A5 JUMP JUMPDEST PUSH1 0x4D PUSH1 0x0 CALLER PUSH1 0x40 MLOAD PUSH1 0x20 ADD PUSH2 0x2448 SWAP2 SWAP1 PUSH2 0x3B76 JUMP JUMPDEST PUSH1 0x40 DUP1 MLOAD PUSH1 0x1F NOT DUP2 DUP5 SUB ADD DUP2 MSTORE SWAP2 DUP2 MSTORE DUP2 MLOAD PUSH1 0x20 SWAP3 DUP4 ADD KECCAK256 DUP4 MSTORE SWAP1 DUP3 ADD SWAP3 SWAP1 SWAP3 MSTORE ADD PUSH1 0x0 KECCAK256 SLOAD PUSH1 0xFF AND DUP1 PUSH2 0x2486 JUMPI POP PUSH1 0x56 SLOAD PUSH1 0x1 PUSH1 0x1 PUSH1 0xA0 SHL SUB AND ORIGIN EQ JUMPDEST PUSH2 0x24A5 JUMPI PUSH1 0x40 MLOAD PUSH4 0x65BA7FAB PUSH1 0xE1 SHL DUP2 MSTORE CALLER PUSH1 0x4 DUP3 ADD MSTORE PUSH1 0x24 ADD PUSH2 0x8DA JUMP JUMPDEST PUSH1 0x0 DUP3 DUP2 MSTORE PUSH1 0x4A PUSH1 0x20 MSTORE PUSH1 0x40 SWAP1 KECCAK256 SLOAD PUSH2 0x24BF SWAP1 DUP3 SWAP1 PUSH2 0x3BDF JUMP JUMPDEST PUSH1 0x0 SWAP3 DUP4 MSTORE PUSH1 0x4A PUSH1 0x20 MSTORE PUSH1 0x40 SWAP1 SWAP3 KECCAK256 SWAP2 SWAP1 SWAP2 SSTORE POP JUMP JUMPDEST PUSH1 0x57 SLOAD PUSH1 0x1 PUSH1 0x1 PUSH1 0xA0 SHL SUB AND CALLER EQ PUSH2 0x2502 JUMPI PUSH1 0x40 MLOAD PUSH4 0x659B73DF PUSH1 0xE0 SHL DUP2 MSTORE CALLER PUSH1 0x4 DUP3 ADD MSTORE PUSH1 0x24 ADD PUSH2 0x8DA JUMP JUMPDEST PUSH1 0x56 DUP1 SLOAD PUSH1 0x57 DUP1 SLOAD PUSH1 0x1 PUSH1 0x1 PUSH1 0xA0 SHL SUB DUP1 DUP3 AND PUSH1 0x1 PUSH1 0x1 PUSH1 0xA0 SHL SUB NOT DUP1 DUP7 AND DUP3 OR SWAP1 SWAP7 SSTORE SWAP5 SWAP1 SWAP2 AND SWAP1 SWAP2 SSTORE PUSH1 0x40 DUP1 MLOAD SWAP2 SWAP1 SWAP3 AND DUP1 DUP3 MSTORE PUSH1 0x20 DUP3 ADD SWAP4 SWAP1 SWAP4 MSTORE PUSH32 0xA14FC14D8620A708A896FD11392A235647D99385500A295F0D7DA2A258B2E967 SWAP2 ADD PUSH1 0x40 MLOAD DUP1 SWAP2 SUB SWAP1 LOG1 POP JUMP JUMPDEST PUSH1 0x0 DUP2 DUP2 MSTORE PUSH1 0x49 PUSH1 0x20 MSTORE PUSH1 0x40 SWAP1 KECCAK256 DUP1 SLOAD PUSH1 0x60 SWAP2 SWAP1 PUSH2 0x212A SWAP1 PUSH2 0x3B3B JUMP JUMPDEST PUSH1 0x57 SLOAD PUSH1 0x1 PUSH1 0xA0 SHL SWAP1 DIV PUSH1 0xFF AND ISZERO ISZERO PUSH1 0x1 EQ ISZERO PUSH2 0x2604 JUMPI PUSH1 0x4D PUSH1 0x0 CALLER PUSH1 0x40 MLOAD PUSH1 0x20 ADD PUSH2 0x25B7 SWAP2 SWAP1 PUSH2 0x3B76 JUMP JUMPDEST PUSH1 0x40 DUP1 MLOAD PUSH1 0x1F NOT DUP2 DUP5 SUB ADD DUP2 MSTORE SWAP2 DUP2 MSTORE DUP2 MLOAD PUSH1 0x20 SWAP3 DUP4 ADD KECCAK256 DUP4 MSTORE SWAP1 DUP3 ADD SWAP3 SWAP1 SWAP3 MSTORE ADD PUSH1 0x0 KECCAK256 SLOAD PUSH1 0xFF AND PUSH2 0x25FF JUMPI PUSH1 0x40 MLOAD PUSH4 0x65BA7FAB PUSH1 0xE1 SHL DUP2 MSTORE CALLER PUSH1 0x4 DUP3 ADD MSTORE PUSH1 0x24 ADD PUSH2 0x8DA JUMP JUMPDEST PUSH2 0x2676 JUMP JUMPDEST PUSH1 0x4D PUSH1 0x0 CALLER PUSH1 0x40 MLOAD PUSH1 0x20 ADD PUSH2 0x2619 SWAP2 SWAP1 PUSH2 0x3B76 JUMP JUMPDEST PUSH1 0x40 DUP1 MLOAD PUSH1 0x1F NOT DUP2 DUP5 SUB ADD DUP2 MSTORE SWAP2 DUP2 MSTORE DUP2 MLOAD PUSH1 0x20 SWAP3 DUP4 ADD KECCAK256 DUP4 MSTORE SWAP1 DUP3 ADD SWAP3 SWAP1 SWAP3 MSTORE ADD PUSH1 0x0 KECCAK256 SLOAD PUSH1 0xFF AND DUP1 PUSH2 0x2657 JUMPI POP PUSH1 0x56 SLOAD PUSH1 0x1 PUSH1 0x1 PUSH1 0xA0 SHL SUB AND ORIGIN EQ JUMPDEST PUSH2 0x2676 JUMPI PUSH1 0x40 MLOAD PUSH4 0x65BA7FAB PUSH1 0xE1 SHL DUP2 MSTORE CALLER PUSH1 0x4 DUP3 ADD MSTORE PUSH1 0x24 ADD PUSH2 0x8DA JUMP JUMPDEST PUSH1 0x0 SWAP2 DUP3 MSTORE PUSH1 0x4C PUSH1 0x20 MSTORE PUSH1 0x40 SWAP1 SWAP2 KECCAK256 DUP1 SLOAD PUSH1 0x1 PUSH1 0x1 PUSH1 0xA0 SHL SUB NOT AND PUSH1 0x1 PUSH1 0x1 PUSH1 0xA0 SHL SUB SWAP1 SWAP3 AND SWAP2 SWAP1 SWAP2 OR SWAP1 SSTORE JUMP JUMPDEST PUSH1 0x57 SLOAD PUSH1 0x1 PUSH1 0xA0 SHL SWAP1 DIV PUSH1 0xFF AND ISZERO ISZERO PUSH1 0x1 EQ ISZERO PUSH2 0x271D JUMPI PUSH1 0x4D PUSH1 0x0 CALLER PUSH1 0x40 MLOAD PUSH1 0x20 ADD PUSH2 0x26D0 SWAP2 SWAP1 PUSH2 0x3B76 JUMP JUMPDEST PUSH1 0x40 DUP1 MLOAD PUSH1 0x1F NOT DUP2 DUP5 SUB ADD DUP2 MSTORE SWAP2 DUP2 MSTORE DUP2 MLOAD PUSH1 0x20 SWAP3 DUP4 ADD KECCAK256 DUP4 MSTORE SWAP1 DUP3 ADD SWAP3 SWAP1 SWAP3 MSTORE ADD PUSH1 0x0 KECCAK256 SLOAD PUSH1 0xFF AND PUSH2 0x2718 JUMPI PUSH1 0x40 MLOAD PUSH4 0x65BA7FAB PUSH1 0xE1 SHL DUP2 MSTORE CALLER PUSH1 0x4 DUP3 ADD MSTORE PUSH1 0x24 ADD PUSH2 0x8DA JUMP JUMPDEST PUSH2 0x278F JUMP JUMPDEST PUSH1 0x4D PUSH1 0x0 CALLER PUSH1 0x40 MLOAD PUSH1 0x20 ADD PUSH2 0x2732 SWAP2 SWAP1 PUSH2 0x3B76 JUMP JUMPDEST PUSH1 0x40 DUP1 MLOAD PUSH1 0x1F NOT DUP2 DUP5 SUB ADD DUP2 MSTORE SWAP2 DUP2 MSTORE DUP2 MLOAD PUSH1 0x20 SWAP3 DUP4 ADD KECCAK256 DUP4 MSTORE SWAP1 DUP3 ADD SWAP3 SWAP1 SWAP3 MSTORE ADD PUSH1 0x0 KECCAK256 SLOAD PUSH1 0xFF AND DUP1 PUSH2 0x2770 JUMPI POP PUSH1 0x56 SLOAD PUSH1 0x1 PUSH1 0x1 PUSH1 0xA0 SHL SUB AND ORIGIN EQ JUMPDEST PUSH2 0x278F JUMPI PUSH1 0x40 MLOAD PUSH4 0x65BA7FAB PUSH1 0xE1 SHL DUP2 MSTORE CALLER PUSH1 0x4 DUP3 ADD MSTORE PUSH1 0x24 ADD PUSH2 0x8DA JUMP JUMPDEST PUSH1 0x0 DUP2 DUP2 MSTORE PUSH1 0x50 PUSH1 0x20 MSTORE PUSH1 0x40 DUP2 KECCAK256 PUSH2 0xD07 SWAP2 PUSH2 0x31B1 JUMP JUMPDEST PUSH1 0x0 DUP2 DUP2 MSTORE PUSH1 0x55 PUSH1 0x20 SWAP1 DUP2 MSTORE PUSH1 0x40 SWAP2 DUP3 SWAP1 KECCAK256 DUP1 SLOAD DUP4 MLOAD DUP2 DUP5 MUL DUP2 ADD DUP5 ADD SWAP1 SWAP5 MSTORE DUP1 DUP5 MSTORE PUSH1 0x60 SWAP4 SWAP3 DUP4 ADD DUP3 DUP3 DUP1 ISZERO PUSH2 0xAEA JUMPI PUSH1 0x20 MUL DUP3 ADD SWAP2 SWAP1 PUSH1 0x0 MSTORE PUSH1 0x20 PUSH1 0x0 KECCAK256 SWAP1 DUP2 SLOAD DUP2 MSTORE PUSH1 0x20 ADD SWAP1 PUSH1 0x1 ADD SWAP1 DUP1 DUP4 GT PUSH2 0xE4F JUMPI POP POP POP POP POP SWAP1 POP SWAP2 SWAP1 POP JUMP JUMPDEST PUSH1 0x57 SLOAD PUSH1 0x1 PUSH1 0xA0 SHL SWAP1 DIV PUSH1 0xFF AND ISZERO ISZERO PUSH1 0x1 EQ ISZERO PUSH2 0x287F JUMPI PUSH1 0x4D PUSH1 0x0 CALLER PUSH1 0x40 MLOAD PUSH1 0x20 ADD PUSH2 0x2832 SWAP2 SWAP1 PUSH2 0x3B76 JUMP JUMPDEST PUSH1 0x40 DUP1 MLOAD PUSH1 0x1F NOT DUP2 DUP5 SUB ADD DUP2 MSTORE SWAP2 DUP2 MSTORE DUP2 MLOAD PUSH1 0x20 SWAP3 DUP4 ADD KECCAK256 DUP4 MSTORE SWAP1 DUP3 ADD SWAP3 SWAP1 SWAP3 MSTORE ADD PUSH1 0x0 KECCAK256 SLOAD PUSH1 0xFF AND PUSH2 0x287A JUMPI PUSH1 0x40 MLOAD PUSH4 0x65BA7FAB PUSH1 0xE1 SHL DUP2 MSTORE CALLER PUSH1 0x4 DUP3 ADD MSTORE PUSH1 0x24 ADD PUSH2 0x8DA JUMP JUMPDEST PUSH2 0x28F1 JUMP JUMPDEST PUSH1 0x4D PUSH1 0x0 CALLER PUSH1 0x40 MLOAD PUSH1 0x20 ADD PUSH2 0x2894 SWAP2 SWAP1 PUSH2 0x3B76 JUMP JUMPDEST PUSH1 0x40 DUP1 MLOAD PUSH1 0x1F NOT DUP2 DUP5 SUB ADD DUP2 MSTORE SWAP2 DUP2 MSTORE DUP2 MLOAD PUSH1 0x20 SWAP3 DUP4 ADD KECCAK256 DUP4 MSTORE SWAP1 DUP3 ADD SWAP3 SWAP1 SWAP3 MSTORE ADD PUSH1 0x0 KECCAK256 SLOAD PUSH1 0xFF AND DUP1 PUSH2 0x28D2 JUMPI POP PUSH1 0x56 SLOAD PUSH1 0x1 PUSH1 0x1 PUSH1 0xA0 SHL SUB AND ORIGIN EQ JUMPDEST PUSH2 0x28F1 JUMPI PUSH1 0x40 MLOAD PUSH4 0x65BA7FAB PUSH1 0xE1 SHL DUP2 MSTORE CALLER PUSH1 0x4 DUP3 ADD MSTORE PUSH1 0x24 ADD PUSH2 0x8DA JUMP JUMPDEST PUSH1 0x0 SWAP2 DUP3 MSTORE PUSH1 0x4A PUSH1 0x20 MSTORE PUSH1 0x40 SWAP1 SWAP2 KECCAK256 SSTORE JUMP JUMPDEST PUSH1 0x57 SLOAD PUSH1 0x1 PUSH1 0xA0 SHL SWAP1 DIV PUSH1 0xFF AND ISZERO ISZERO PUSH1 0x1 EQ ISZERO PUSH2 0x297C JUMPI PUSH1 0x4D PUSH1 0x0 CALLER PUSH1 0x40 MLOAD PUSH1 0x20 ADD PUSH2 0x292F SWAP2 SWAP1 PUSH2 0x3B76 JUMP JUMPDEST PUSH1 0x40 DUP1 MLOAD PUSH1 0x1F NOT DUP2 DUP5 SUB ADD DUP2 MSTORE SWAP2 DUP2 MSTORE DUP2 MLOAD PUSH1 0x20 SWAP3 DUP4 ADD KECCAK256 DUP4 MSTORE SWAP1 DUP3 ADD SWAP3 SWAP1 SWAP3 MSTORE ADD PUSH1 0x0 KECCAK256 SLOAD PUSH1 0xFF AND PUSH2 0x2977 JUMPI PUSH1 0x40 MLOAD PUSH4 0x65BA7FAB PUSH1 0xE1 SHL DUP2 MSTORE CALLER PUSH1 0x4 DUP3 ADD MSTORE PUSH1 0x24 ADD PUSH2 0x8DA JUMP JUMPDEST PUSH2 0x29EE JUMP JUMPDEST PUSH1 0x4D PUSH1 0x0 CALLER PUSH1 0x40 MLOAD PUSH1 0x20 ADD PUSH2 0x2991 SWAP2 SWAP1 PUSH2 0x3B76 JUMP JUMPDEST PUSH1 0x40 DUP1 MLOAD PUSH1 0x1F NOT DUP2 DUP5 SUB ADD DUP2 MSTORE SWAP2 DUP2 MSTORE DUP2 MLOAD PUSH1 0x20 SWAP3 DUP4 ADD KECCAK256 DUP4 MSTORE SWAP1 DUP3 ADD SWAP3 SWAP1 SWAP3 MSTORE ADD PUSH1 0x0 KECCAK256 SLOAD PUSH1 0xFF AND DUP1 PUSH2 0x29CF JUMPI POP PUSH1 0x56 SLOAD PUSH1 0x1 PUSH1 0x1 PUSH1 0xA0 SHL SUB AND ORIGIN EQ JUMPDEST PUSH2 0x29EE JUMPI PUSH1 0x40 MLOAD PUSH4 0x65BA7FAB PUSH1 0xE1 SHL DUP2 MSTORE CALLER PUSH1 0x4 DUP3 ADD MSTORE PUSH1 0x24 ADD PUSH2 0x8DA JUMP JUMPDEST PUSH1 0x0 SWAP1 DUP2 MSTORE PUSH1 0x4A PUSH1 0x20 MSTORE PUSH1 0x40 DUP2 KECCAK256 SSTORE JUMP JUMPDEST PUSH1 0x57 SLOAD PUSH1 0x1 PUSH1 0xA0 SHL SWAP1 DIV PUSH1 0xFF AND ISZERO ISZERO PUSH1 0x1 EQ ISZERO PUSH2 0x2A78 JUMPI PUSH1 0x4D PUSH1 0x0 CALLER PUSH1 0x40 MLOAD PUSH1 0x20 ADD PUSH2 0x2A2B SWAP2 SWAP1 PUSH2 0x3B76 JUMP JUMPDEST PUSH1 0x40 DUP1 MLOAD PUSH1 0x1F NOT DUP2 DUP5 SUB ADD DUP2 MSTORE SWAP2 DUP2 MSTORE DUP2 MLOAD PUSH1 0x20 SWAP3 DUP4 ADD KECCAK256 DUP4 MSTORE SWAP1 DUP3 ADD SWAP3 SWAP1 SWAP3 MSTORE ADD PUSH1 0x0 KECCAK256 SLOAD PUSH1 0xFF AND PUSH2 0x2A73 JUMPI PUSH1 0x40 MLOAD PUSH4 0x65BA7FAB PUSH1 0xE1 SHL DUP2 MSTORE CALLER PUSH1 0x4 DUP3 ADD MSTORE PUSH1 0x24 ADD PUSH2 0x8DA JUMP JUMPDEST PUSH2 0x2AEA JUMP JUMPDEST PUSH1 0x4D PUSH1 0x0 CALLER PUSH1 0x40 MLOAD PUSH1 0x20 ADD PUSH2 0x2A8D SWAP2 SWAP1 PUSH2 0x3B76 JUMP JUMPDEST PUSH1 0x40 DUP1 MLOAD PUSH1 0x1F NOT DUP2 DUP5 SUB ADD DUP2 MSTORE SWAP2 DUP2 MSTORE DUP2 MLOAD PUSH1 0x20 SWAP3 DUP4 ADD KECCAK256 DUP4 MSTORE SWAP1 DUP3 ADD SWAP3 SWAP1 SWAP3 MSTORE ADD PUSH1 0x0 KECCAK256 SLOAD PUSH1 0xFF AND DUP1 PUSH2 0x2ACB JUMPI POP PUSH1 0x56 SLOAD PUSH1 0x1 PUSH1 0x1 PUSH1 0xA0 SHL SUB AND ORIGIN EQ JUMPDEST PUSH2 0x2AEA JUMPI PUSH1 0x40 MLOAD PUSH4 0x65BA7FAB PUSH1 0xE1 SHL DUP2 MSTORE CALLER PUSH1 0x4 DUP3 ADD MSTORE PUSH1 0x24 ADD PUSH2 0x8DA JUMP JUMPDEST PUSH1 0x0 DUP2 DUP2 MSTORE PUSH1 0x52 PUSH1 0x20 MSTORE PUSH1 0x40 DUP2 KECCAK256 PUSH2 0xD07 SWAP2 PUSH2 0x3100 JUMP JUMPDEST PUSH1 0x57 SLOAD PUSH1 0x1 PUSH1 0xA0 SHL SWAP1 DIV PUSH1 0xFF AND ISZERO ISZERO PUSH1 0x1 EQ ISZERO PUSH2 0x2B7A JUMPI PUSH1 0x4D PUSH1 0x0 CALLER PUSH1 0x40 MLOAD PUSH1 0x20 ADD PUSH2 0x2B2D SWAP2 SWAP1 PUSH2 0x3B76 JUMP JUMPDEST PUSH1 0x40 DUP1 MLOAD PUSH1 0x1F NOT DUP2 DUP5 SUB ADD DUP2 MSTORE SWAP2 DUP2 MSTORE DUP2 MLOAD PUSH1 0x20 SWAP3 DUP4 ADD KECCAK256 DUP4 MSTORE SWAP1 DUP3 ADD SWAP3 SWAP1 SWAP3 MSTORE ADD PUSH1 0x0 KECCAK256 SLOAD PUSH1 0xFF AND PUSH2 0x2B75 JUMPI PUSH1 0x40 MLOAD PUSH4 0x65BA7FAB PUSH1 0xE1 SHL DUP2 MSTORE CALLER PUSH1 0x4 DUP3 ADD MSTORE PUSH1 0x24 ADD PUSH2 0x8DA JUMP JUMPDEST PUSH2 0x2BEC JUMP JUMPDEST PUSH1 0x4D PUSH1 0x0 CALLER PUSH1 0x40 MLOAD PUSH1 0x20 ADD PUSH2 0x2B8F SWAP2 SWAP1 PUSH2 0x3B76 JUMP JUMPDEST PUSH1 0x40 DUP1 MLOAD PUSH1 0x1F NOT DUP2 DUP5 SUB ADD DUP2 MSTORE SWAP2 DUP2 MSTORE DUP2 MLOAD PUSH1 0x20 SWAP3 DUP4 ADD KECCAK256 DUP4 MSTORE SWAP1 DUP3 ADD SWAP3 SWAP1 SWAP3 MSTORE ADD PUSH1 0x0 KECCAK256 SLOAD PUSH1 0xFF AND DUP1 PUSH2 0x2BCD JUMPI POP PUSH1 0x56 SLOAD PUSH1 0x1 PUSH1 0x1 PUSH1 0xA0 SHL SUB AND ORIGIN EQ JUMPDEST PUSH2 0x2BEC JUMPI PUSH1 0x40 MLOAD PUSH4 0x65BA7FAB PUSH1 0xE1 SHL DUP2 MSTORE CALLER PUSH1 0x4 DUP3 ADD MSTORE PUSH1 0x24 ADD PUSH2 0x8DA JUMP JUMPDEST PUSH1 0x0 DUP3 DUP2 MSTORE PUSH1 0x4A PUSH1 0x20 MSTORE PUSH1 0x40 SWAP1 KECCAK256 SLOAD PUSH2 0x24BF SWAP1 DUP3 SWAP1 PUSH2 0x3BF7 JUMP JUMPDEST PUSH1 0x57 SLOAD PUSH1 0x1 PUSH1 0xA0 SHL SWAP1 DIV PUSH1 0xFF AND ISZERO ISZERO PUSH1 0x1 EQ ISZERO PUSH2 0x2C7F JUMPI PUSH1 0x4D PUSH1 0x0 CALLER PUSH1 0x40 MLOAD PUSH1 0x20 ADD PUSH2 0x2C32 SWAP2 SWAP1 PUSH2 0x3B76 JUMP JUMPDEST PUSH1 0x40 DUP1 MLOAD PUSH1 0x1F NOT DUP2 DUP5 SUB ADD DUP2 MSTORE SWAP2 DUP2 MSTORE DUP2 MLOAD PUSH1 0x20 SWAP3 DUP4 ADD KECCAK256 DUP4 MSTORE SWAP1 DUP3 ADD SWAP3 SWAP1 SWAP3 MSTORE ADD PUSH1 0x0 KECCAK256 SLOAD PUSH1 0xFF AND PUSH2 0x2C7A JUMPI PUSH1 0x40 MLOAD PUSH4 0x65BA7FAB PUSH1 0xE1 SHL DUP2 MSTORE CALLER PUSH1 0x4 DUP3 ADD MSTORE PUSH1 0x24 ADD PUSH2 0x8DA JUMP JUMPDEST PUSH2 0x2CF1 JUMP JUMPDEST PUSH1 0x4D PUSH1 0x0 CALLER PUSH1 0x40 MLOAD PUSH1 0x20 ADD PUSH2 0x2C94 SWAP2 SWAP1 PUSH2 0x3B76 JUMP JUMPDEST PUSH1 0x40 DUP1 MLOAD PUSH1 0x1F NOT DUP2 DUP5 SUB ADD DUP2 MSTORE SWAP2 DUP2 MSTORE DUP2 MLOAD PUSH1 0x20 SWAP3 DUP4 ADD KECCAK256 DUP4 MSTORE SWAP1 DUP3 ADD SWAP3 SWAP1 SWAP3 MSTORE ADD PUSH1 0x0 KECCAK256 SLOAD PUSH1 0xFF AND DUP1 PUSH2 0x2CD2 JUMPI POP PUSH1 0x56 SLOAD PUSH1 0x1 PUSH1 0x1 PUSH1 0xA0 SHL SUB AND ORIGIN EQ JUMPDEST PUSH2 0x2CF1 JUMPI PUSH1 0x40 MLOAD PUSH4 0x65BA7FAB PUSH1 0xE1 SHL DUP2 MSTORE CALLER PUSH1 0x4 DUP3 ADD MSTORE PUSH1 0x24 ADD PUSH2 0x8DA JUMP JUMPDEST PUSH1 0x0 DUP3 DUP2 MSTORE PUSH1 0x53 PUSH1 0x20 SWAP1 DUP2 MSTORE PUSH1 0x40 SWAP1 SWAP2 KECCAK256 DUP3 MLOAD PUSH2 0xC00 SWAP3 DUP5 ADD SWAP1 PUSH2 0x31CF JUMP JUMPDEST PUSH1 0x57 SLOAD PUSH1 0x1 PUSH1 0xA0 SHL SWAP1 DIV PUSH1 0xFF AND ISZERO ISZERO PUSH1 0x1 EQ ISZERO PUSH2 0x2D89 JUMPI PUSH1 0x4D PUSH1 0x0 CALLER PUSH1 0x40 MLOAD PUSH1 0x20 ADD PUSH2 0x2D3C SWAP2 SWAP1 PUSH2 0x3B76 JUMP JUMPDEST PUSH1 0x40 DUP1 MLOAD PUSH1 0x1F NOT DUP2 DUP5 SUB ADD DUP2 MSTORE SWAP2 DUP2 MSTORE DUP2 MLOAD PUSH1 0x20 SWAP3 DUP4 ADD KECCAK256 DUP4 MSTORE SWAP1 DUP3 ADD SWAP3 SWAP1 SWAP3 MSTORE ADD PUSH1 0x0 KECCAK256 SLOAD PUSH1 0xFF AND PUSH2 0x2D84 JUMPI PUSH1 0x40 MLOAD PUSH4 0x65BA7FAB PUSH1 0xE1 SHL DUP2 MSTORE CALLER PUSH1 0x4 DUP3 ADD MSTORE PUSH1 0x24 ADD PUSH2 0x8DA JUMP JUMPDEST PUSH2 0x2DFB JUMP JUMPDEST PUSH1 0x4D PUSH1 0x0 CALLER PUSH1 0x40 MLOAD PUSH1 0x20 ADD PUSH2 0x2D9E SWAP2 SWAP1 PUSH2 0x3B76 JUMP JUMPDEST PUSH1 0x40 DUP1 MLOAD PUSH1 0x1F NOT DUP2 DUP5 SUB ADD DUP2 MSTORE SWAP2 DUP2 MSTORE DUP2 MLOAD PUSH1 0x20 SWAP3 DUP4 ADD KECCAK256 DUP4 MSTORE SWAP1 DUP3 ADD SWAP3 SWAP1 SWAP3 MSTORE ADD PUSH1 0x0 KECCAK256 SLOAD PUSH1 0xFF AND DUP1 PUSH2 0x2DDC JUMPI POP PUSH1 0x56 SLOAD PUSH1 0x1 PUSH1 0x1 PUSH1 0xA0 SHL SUB AND ORIGIN EQ JUMPDEST PUSH2 0x2DFB JUMPI PUSH1 0x40 MLOAD PUSH4 0x65BA7FAB PUSH1 0xE1 SHL DUP2 MSTORE CALLER PUSH1 0x4 DUP3 ADD MSTORE PUSH1 0x24 ADD PUSH2 0x8DA JUMP JUMPDEST PUSH1 0x0 DUP2 DUP2 MSTORE PUSH1 0x48 PUSH1 0x20 MSTORE PUSH1 0x40 DUP2 KECCAK256 PUSH2 0xD07 SWAP2 PUSH2 0x311E JUMP JUMPDEST PUSH1 0x57 SLOAD PUSH1 0x1 PUSH1 0xA0 SHL SWAP1 DIV PUSH1 0xFF AND ISZERO ISZERO PUSH1 0x1 EQ ISZERO PUSH2 0x2E8B JUMPI PUSH1 0x4D PUSH1 0x0 CALLER PUSH1 0x40 MLOAD PUSH1 0x20 ADD PUSH2 0x2E3E SWAP2 SWAP1 PUSH2 0x3B76 JUMP JUMPDEST PUSH1 0x40 DUP1 MLOAD PUSH1 0x1F NOT DUP2 DUP5 SUB ADD DUP2 MSTORE SWAP2 DUP2 MSTORE DUP2 MLOAD PUSH1 0x20 SWAP3 DUP4 ADD KECCAK256 DUP4 MSTORE SWAP1 DUP3 ADD SWAP3 SWAP1 SWAP3 MSTORE ADD PUSH1 0x0 KECCAK256 SLOAD PUSH1 0xFF AND PUSH2 0x2E86 JUMPI PUSH1 0x40 MLOAD PUSH4 0x65BA7FAB PUSH1 0xE1 SHL DUP2 MSTORE CALLER PUSH1 0x4 DUP3 ADD MSTORE PUSH1 0x24 ADD PUSH2 0x8DA JUMP JUMPDEST PUSH2 0x2EFD JUMP JUMPDEST PUSH1 0x4D PUSH1 0x0 CALLER PUSH1 0x40 MLOAD PUSH1 0x20 ADD PUSH2 0x2EA0 SWAP2 SWAP1 PUSH2 0x3B76 JUMP JUMPDEST PUSH1 0x40 DUP1 MLOAD PUSH1 0x1F NOT DUP2 DUP5 SUB ADD DUP2 MSTORE SWAP2 DUP2 MSTORE DUP2 MLOAD PUSH1 0x20 SWAP3 DUP4 ADD KECCAK256 DUP4 MSTORE SWAP1 DUP3 ADD SWAP3 SWAP1 SWAP3 MSTORE ADD PUSH1 0x0 KECCAK256 SLOAD PUSH1 0xFF AND DUP1 PUSH2 0x2EDE JUMPI POP PUSH1 0x56 SLOAD PUSH1 0x1 PUSH1 0x1 PUSH1 0xA0 SHL SUB AND ORIGIN EQ JUMPDEST PUSH2 0x2EFD JUMPI PUSH1 0x40 MLOAD PUSH4 0x65BA7FAB PUSH1 0xE1 SHL DUP2 MSTORE CALLER PUSH1 0x4 DUP3 ADD MSTORE PUSH1 0x24 ADD PUSH2 0x8DA JUMP JUMPDEST PUSH1 0x0 DUP3 DUP2 MSTORE PUSH1 0x50 PUSH1 0x20 SWAP1 DUP2 MSTORE PUSH1 0x40 SWAP1 SWAP2 KECCAK256 DUP3 MLOAD PUSH2 0xC00 SWAP3 DUP5 ADD SWAP1 PUSH2 0x3224 JUMP JUMPDEST PUSH1 0x56 SLOAD PUSH1 0x1 PUSH1 0x1 PUSH1 0xA0 SHL SUB AND CALLER EQ PUSH2 0x2F49 JUMPI PUSH1 0x40 MLOAD PUSH4 0xF8501425 PUSH1 0xE0 SHL DUP2 MSTORE CALLER PUSH1 0x4 DUP3 ADD MSTORE PUSH1 0x24 ADD PUSH2 0x8DA JUMP JUMPDEST PUSH1 0x57 DUP1 SLOAD PUSH1 0xFF PUSH1 0xA0 SHL NOT AND PUSH1 0x1 PUSH1 0xA0 SHL OR SWAP1 SSTORE JUMP JUMPDEST DUP3 DUP1 SLOAD DUP3 DUP3 SSTORE SWAP1 PUSH1 0x0 MSTORE PUSH1 0x20 PUSH1 0x0 KECCAK256 SWAP1 DUP2 ADD SWAP3 DUP3 ISZERO PUSH2 0x2F99 JUMPI SWAP2 PUSH1 0x20 MUL DUP3 ADD JUMPDEST DUP3 DUP2 GT ISZERO PUSH2 0x2F99 JUMPI DUP3 MLOAD DUP3 SSTORE SWAP2 PUSH1 0x20 ADD SWAP2 SWAP1 PUSH1 0x1 ADD SWAP1 PUSH2 0x2F7E JUMP JUMPDEST POP PUSH2 0x2FA5 SWAP3 SWAP2 POP PUSH2 0x327D JUMP JUMPDEST POP SWAP1 JUMP JUMPDEST POP DUP1 SLOAD PUSH1 0x0 DUP3 SSTORE PUSH1 0x1F ADD PUSH1 0x20 SWAP1 DIV SWAP1 PUSH1 0x0 MSTORE PUSH1 0x20 PUSH1 0x0 KECCAK256 SWAP1 DUP2 ADD SWAP1 PUSH2 0xD07 SWAP2 SWAP1 PUSH2 0x327D JUMP JUMPDEST DUP3 DUP1 SLOAD PUSH2 0x2FDA SWAP1 PUSH2 0x3B3B JUMP JUMPDEST SWAP1 PUSH1 0x0 MSTORE PUSH1 0x20 PUSH1 0x0 KECCAK256 SWAP1 PUSH1 0x1F ADD PUSH1 0x20 SWAP1 DIV DUP2 ADD SWAP3 DUP3 PUSH2 0x2FFC JUMPI PUSH1 0x0 DUP6 SSTORE PUSH2 0x2F99 JUMP JUMPDEST DUP3 PUSH1 0x1F LT PUSH2 0x3015 JUMPI DUP3 DUP1 ADD PUSH1 0xFF NOT DUP3 CALLDATALOAD AND OR DUP6 SSTORE PUSH2 0x2F99 JUMP JUMPDEST DUP3 DUP1 ADD PUSH1 0x1 ADD DUP6 SSTORE DUP3 ISZERO PUSH2 0x2F99 JUMPI SWAP2 DUP3 ADD JUMPDEST DUP3 DUP2 GT ISZERO PUSH2 0x2F99 JUMPI DUP3 CALLDATALOAD DUP3 SSTORE SWAP2 PUSH1 0x20 ADD SWAP2 SWAP1 PUSH1 0x1 ADD SWAP1 PUSH2 0x3027 JUMP JUMPDEST DUP3 DUP1 SLOAD DUP3 DUP3 SSTORE SWAP1 PUSH1 0x0 MSTORE PUSH1 0x20 PUSH1 0x0 KECCAK256 SWAP1 PUSH1 0x1F ADD PUSH1 0x20 SWAP1 DIV DUP2 ADD SWAP3 DUP3 ISZERO PUSH2 0x2F99 JUMPI SWAP2 PUSH1 0x20 MUL DUP3 ADD PUSH1 0x0 JUMPDEST DUP4 DUP3 GT ISZERO PUSH2 0x30A8 JUMPI DUP4 MLOAD DUP4 DUP3 PUSH2 0x100 EXP DUP2 SLOAD DUP2 PUSH1 0xFF MUL NOT AND SWAP1 DUP4 ISZERO ISZERO MUL OR SWAP1 SSTORE POP SWAP3 PUSH1 0x20 ADD SWAP3 PUSH1 0x1 ADD PUSH1 0x20 DUP2 PUSH1 0x0 ADD DIV SWAP3 DUP4 ADD SWAP3 PUSH1 0x1 SUB MUL PUSH2 0x306B JUMP JUMPDEST DUP1 ISZERO PUSH2 0x30D5 JUMPI DUP3 DUP2 PUSH2 0x100 EXP DUP2 SLOAD SWAP1 PUSH1 0xFF MUL NOT AND SWAP1 SSTORE PUSH1 0x1 ADD PUSH1 0x20 DUP2 PUSH1 0x0 ADD DIV SWAP3 DUP4 ADD SWAP3 PUSH1 0x1 SUB MUL PUSH2 0x30A8 JUMP JUMPDEST POP POP PUSH2 0x2FA5 SWAP3 SWAP2 POP PUSH2 0x327D JUMP JUMPDEST POP DUP1 SLOAD PUSH1 0x0 DUP3 SSTORE SWAP1 PUSH1 0x0 MSTORE PUSH1 0x20 PUSH1 0x0 KECCAK256 SWAP1 DUP2 ADD SWAP1 PUSH2 0xD07 SWAP2 SWAP1 PUSH2 0x3292 JUMP JUMPDEST POP DUP1 SLOAD PUSH1 0x0 DUP3 SSTORE SWAP1 PUSH1 0x0 MSTORE PUSH1 0x20 PUSH1 0x0 KECCAK256 SWAP1 DUP2 ADD SWAP1 PUSH2 0xD07 SWAP2 SWAP1 PUSH2 0x327D JUMP JUMPDEST POP DUP1 SLOAD PUSH2 0x312A SWAP1 PUSH2 0x3B3B JUMP JUMPDEST PUSH1 0x0 DUP3 SSTORE DUP1 PUSH1 0x1F LT PUSH2 0x313A JUMPI POP POP JUMP JUMPDEST PUSH1 0x1F ADD PUSH1 0x20 SWAP1 DIV SWAP1 PUSH1 0x0 MSTORE PUSH1 0x20 PUSH1 0x0 KECCAK256 SWAP1 DUP2 ADD SWAP1 PUSH2 0xD07 SWAP2 SWAP1 PUSH2 0x327D JUMP JUMPDEST DUP3 DUP1 SLOAD DUP3 DUP3 SSTORE SWAP1 PUSH1 0x0 MSTORE PUSH1 0x20 PUSH1 0x0 KECCAK256 SWAP1 DUP2 ADD SWAP3 DUP3 ISZERO PUSH2 0x31A5 JUMPI SWAP2 PUSH1 0x20 MUL DUP3 ADD JUMPDEST DUP3 DUP2 GT ISZERO PUSH2 0x31A5 JUMPI DUP3 MLOAD DUP1 MLOAD PUSH2 0x3195 SWAP2 DUP5 SWAP2 PUSH1 0x20 SWAP1 SWAP2 ADD SWAP1 PUSH2 0x32AF JUMP JUMPDEST POP SWAP2 PUSH1 0x20 ADD SWAP2 SWAP1 PUSH1 0x1 ADD SWAP1 PUSH2 0x3178 JUMP JUMPDEST POP PUSH2 0x2FA5 SWAP3 SWAP2 POP PUSH2 0x3292 JUMP JUMPDEST POP DUP1 SLOAD PUSH1 0x0 DUP3 SSTORE SWAP1 PUSH1 0x0 MSTORE PUSH1 0x20 PUSH1 0x0 KECCAK256 SWAP1 DUP2 ADD SWAP1 PUSH2 0xD07 SWAP2 SWAP1 PUSH2 0x3322 JUMP JUMPDEST DUP3 DUP1 SLOAD DUP3 DUP3 SSTORE SWAP1 PUSH1 0x0 MSTORE PUSH1 0x20 PUSH1 0x0 KECCAK256 SWAP1 DUP2 ADD SWAP3 DUP3 ISZERO PUSH2 0x2F99 JUMPI SWAP2 PUSH1 0x20 MUL DUP3 ADD JUMPDEST DUP3 DUP2 GT ISZERO PUSH2 0x2F99 JUMPI DUP3 MLOAD DUP3 SLOAD PUSH1 0x1 PUSH1 0x1 PUSH1 0xA0 SHL SUB NOT AND PUSH1 0x1 PUSH1 0x1 PUSH1 0xA0 SHL SUB SWAP1 SWAP2 AND OR DUP3 SSTORE PUSH1 0x20 SWAP1 SWAP3 ADD SWAP2 PUSH1 0x1 SWAP1 SWAP2 ADD SWAP1 PUSH2 0x31EF JUMP JUMPDEST DUP3 DUP1 SLOAD DUP3 DUP3 SSTORE SWAP1 PUSH1 0x0 MSTORE PUSH1 0x20 PUSH1 0x0 KECCAK256 SWAP1 DUP2 ADD SWAP3 DUP3 ISZERO PUSH2 0x3271 JUMPI SWAP2 PUSH1 0x20 MUL DUP3 ADD JUMPDEST DUP3 DUP2 GT ISZERO PUSH2 0x3271 JUMPI DUP3 MLOAD DUP1 MLOAD PUSH2 0x3261 SWAP2 DUP5 SWAP2 PUSH1 0x20 SWAP1 SWAP2 ADD SWAP1 PUSH2 0x32AF JUMP JUMPDEST POP SWAP2 PUSH1 0x20 ADD SWAP2 SWAP1 PUSH1 0x1 ADD SWAP1 PUSH2 0x3244 JUMP JUMPDEST POP PUSH2 0x2FA5 SWAP3 SWAP2 POP PUSH2 0x3322 JUMP JUMPDEST JUMPDEST DUP1 DUP3 GT ISZERO PUSH2 0x2FA5 JUMPI PUSH1 0x0 DUP2 SSTORE PUSH1 0x1 ADD PUSH2 0x327E JUMP JUMPDEST DUP1 DUP3 GT ISZERO PUSH2 0x2FA5 JUMPI PUSH1 0x0 PUSH2 0x32A6 DUP3 DUP3 PUSH2 0x311E JUMP JUMPDEST POP PUSH1 0x1 ADD PUSH2 0x3292 JUMP JUMPDEST DUP3 DUP1 SLOAD PUSH2 0x32BB SWAP1 PUSH2 0x3B3B JUMP JUMPDEST SWAP1 PUSH1 0x0 MSTORE PUSH1 0x20 PUSH1 0x0 KECCAK256 SWAP1 PUSH1 0x1F ADD PUSH1 0x20 SWAP1 DIV DUP2 ADD SWAP3 DUP3 PUSH2 0x32DD JUMPI PUSH1 0x0 DUP6 SSTORE PUSH2 0x2F99 JUMP JUMPDEST DUP3 PUSH1 0x1F LT PUSH2 0x32F6 JUMPI DUP1 MLOAD PUSH1 0xFF NOT AND DUP4 DUP1 ADD OR DUP6 SSTORE PUSH2 0x2F99 JUMP JUMPDEST DUP3 DUP1 ADD PUSH1 0x1 ADD DUP6 SSTORE DUP3 ISZERO PUSH2 0x2F99 JUMPI SWAP2 DUP3 ADD DUP3 DUP2 GT ISZERO PUSH2 0x2F99 JUMPI DUP3 MLOAD DUP3 SSTORE SWAP2 PUSH1 0x20 ADD SWAP2 SWAP1 PUSH1 0x1 ADD SWAP1 PUSH2 0x2F7E JUMP JUMPDEST DUP1 DUP3 GT ISZERO PUSH2 0x2FA5 JUMPI PUSH1 0x0 PUSH2 0x3336 DUP3 DUP3 PUSH2 0x311E JUMP JUMPDEST POP PUSH1 0x1 ADD PUSH2 0x3322 JUMP JUMPDEST PUSH1 0x0 PUSH1 0x20 DUP3 DUP5 SUB SLT ISZERO PUSH2 0x3351 JUMPI PUSH1 0x0 DUP1 REVERT JUMPDEST POP CALLDATALOAD SWAP2 SWAP1 POP JUMP JUMPDEST PUSH1 0x0 DUP2 MLOAD DUP1 DUP5 MSTORE PUSH1 0x0 JUMPDEST DUP2 DUP2 LT ISZERO PUSH2 0x337E JUMPI PUSH1 0x20 DUP2 DUP6 ADD DUP2 ADD MLOAD DUP7 DUP4 ADD DUP3 ADD MSTORE ADD PUSH2 0x3362 JUMP JUMPDEST DUP2 DUP2 GT ISZERO PUSH2 0x3390 JUMPI PUSH1 0x0 PUSH1 0x20 DUP4 DUP8 ADD ADD MSTORE JUMPDEST POP PUSH1 0x1F ADD PUSH1 0x1F NOT AND SWAP3 SWAP1 SWAP3 ADD PUSH1 0x20 ADD SWAP3 SWAP2 POP POP JUMP JUMPDEST PUSH1 0x0 PUSH1 0x20 DUP1 DUP4 ADD DUP2 DUP5 MSTORE DUP1 DUP6 MLOAD DUP1 DUP4 MSTORE PUSH1 0x40 DUP7 ADD SWAP2 POP PUSH1 0x40 DUP2 PUSH1 0x5 SHL DUP8 ADD ADD SWAP3 POP DUP4 DUP8 ADD PUSH1 0x0 JUMPDEST DUP3 DUP2 LT ISZERO PUSH2 0x33FA JUMPI PUSH1 0x3F NOT DUP9 DUP7 SUB ADD DUP5 MSTORE PUSH2 0x33E8 DUP6 DUP4 MLOAD PUSH2 0x3358 JUMP JUMPDEST SWAP5 POP SWAP3 DUP6 ADD SWAP3 SWAP1 DUP6 ADD SWAP1 PUSH1 0x1 ADD PUSH2 0x33CC JUMP JUMPDEST POP SWAP3 SWAP8 SWAP7 POP POP POP POP POP POP POP JUMP JUMPDEST PUSH1 0x20 DUP1 DUP3 MSTORE DUP3 MLOAD DUP3 DUP3 ADD DUP2 SWAP1 MSTORE PUSH1 0x0 SWAP2 SWAP1 DUP5 DUP3 ADD SWAP1 PUSH1 0x40 DUP6 ADD SWAP1 DUP5 JUMPDEST DUP2 DUP2 LT ISZERO PUSH2 0x3441 JUMPI DUP4 MLOAD ISZERO ISZERO DUP4 MSTORE SWAP3 DUP5 ADD SWAP3 SWAP2 DUP5 ADD SWAP2 PUSH1 0x1 ADD PUSH2 0x3423 JUMP JUMPDEST POP SWAP1 SWAP7 SWAP6 POP POP POP POP POP POP JUMP JUMPDEST PUSH4 0x4E487B71 PUSH1 0xE0 SHL PUSH1 0x0 MSTORE PUSH1 0x41 PUSH1 0x4 MSTORE PUSH1 0x24 PUSH1 0x0 REVERT JUMPDEST PUSH1 0x40 MLOAD PUSH1 0x1F DUP3 ADD PUSH1 0x1F NOT AND DUP2 ADD PUSH8 0xFFFFFFFFFFFFFFFF DUP2 GT DUP3 DUP3 LT OR ISZERO PUSH2 0x348C JUMPI PUSH2 0x348C PUSH2 0x344D JUMP JUMPDEST PUSH1 0x40 MSTORE SWAP2 SWAP1 POP JUMP JUMPDEST PUSH1 0x0 PUSH8 0xFFFFFFFFFFFFFFFF DUP3 GT ISZERO PUSH2 0x34AE JUMPI PUSH2 0x34AE PUSH2 0x344D JUMP JUMPDEST POP PUSH1 0x5 SHL PUSH1 0x20 ADD SWAP1 JUMP JUMPDEST PUSH1 0x0 DUP1 PUSH1 0x40 DUP4 DUP6 SUB SLT ISZERO PUSH2 0x34CB JUMPI PUSH1 0x0 DUP1 REVERT JUMPDEST DUP3 CALLDATALOAD SWAP2 POP PUSH1 0x20 DUP1 DUP5 ADD CALLDATALOAD PUSH8 0xFFFFFFFFFFFFFFFF DUP2 GT ISZERO PUSH2 0x34EA JUMPI PUSH1 0x0 DUP1 REVERT JUMPDEST DUP5 ADD PUSH1 0x1F DUP2 ADD DUP7 SGT PUSH2 0x34FB JUMPI PUSH1 0x0 DUP1 REVERT JUMPDEST DUP1 CALLDATALOAD PUSH2 0x350E PUSH2 0x3509 DUP3 PUSH2 0x3494 JUMP JUMPDEST PUSH2 0x3463 JUMP JUMPDEST DUP2 DUP2 MSTORE PUSH1 0x5 SWAP2 SWAP1 SWAP2 SHL DUP3 ADD DUP4 ADD SWAP1 DUP4 DUP2 ADD SWAP1 DUP9 DUP4 GT ISZERO PUSH2 0x352D JUMPI PUSH1 0x0 DUP1 REVERT JUMPDEST SWAP3 DUP5 ADD SWAP3 JUMPDEST DUP3 DUP5 LT ISZERO PUSH2 0x354B JUMPI DUP4 CALLDATALOAD DUP3 MSTORE SWAP3 DUP5 ADD SWAP3 SWAP1 DUP5 ADD SWAP1 PUSH2 0x3532 JUMP JUMPDEST DUP1 SWAP6 POP POP POP POP POP POP SWAP3 POP SWAP3 SWAP1 POP JUMP JUMPDEST PUSH1 0x20 DUP1 DUP3 MSTORE DUP3 MLOAD DUP3 DUP3 ADD DUP2 SWAP1 MSTORE PUSH1 0x0 SWAP2 SWAP1 DUP5 DUP3 ADD SWAP1 PUSH1 0x40 DUP6 ADD SWAP1 DUP5 JUMPDEST DUP2 DUP2 LT ISZERO PUSH2 0x3441 JUMPI DUP4 MLOAD DUP4 MSTORE SWAP3 DUP5 ADD SWAP3 SWAP2 DUP5 ADD SWAP2 PUSH1 0x1 ADD PUSH2 0x3576 JUMP JUMPDEST PUSH1 0x0 DUP1 DUP4 PUSH1 0x1F DUP5 ADD SLT PUSH2 0x35A4 JUMPI PUSH1 0x0 DUP1 REVERT JUMPDEST POP DUP2 CALLDATALOAD PUSH8 0xFFFFFFFFFFFFFFFF DUP2 GT ISZERO PUSH2 0x35BC JUMPI PUSH1 0x0 DUP1 REVERT JUMPDEST PUSH1 0x20 DUP4 ADD SWAP2 POP DUP4 PUSH1 0x20 DUP3 DUP6 ADD ADD GT ISZERO PUSH2 0x35D4 JUMPI PUSH1 0x0 DUP1 REVERT JUMPDEST SWAP3 POP SWAP3 SWAP1 POP JUMP JUMPDEST PUSH1 0x0 DUP1 PUSH1 0x0 PUSH1 0x40 DUP5 DUP7 SUB SLT ISZERO PUSH2 0x35F0 JUMPI PUSH1 0x0 DUP1 REVERT JUMPDEST DUP4 CALLDATALOAD SWAP3 POP PUSH1 0x20 DUP5 ADD CALLDATALOAD PUSH8 0xFFFFFFFFFFFFFFFF DUP2 GT ISZERO PUSH2 0x360E JUMPI PUSH1 0x0 DUP1 REVERT JUMPDEST PUSH2 0x361A DUP7 DUP3 DUP8 ADD PUSH2 0x3592 JUMP JUMPDEST SWAP5 SWAP8 SWAP1 SWAP7 POP SWAP4 SWAP5 POP POP POP POP JUMP JUMPDEST DUP1 CALLDATALOAD DUP1 ISZERO ISZERO DUP2 EQ PUSH2 0x3637 JUMPI PUSH1 0x0 DUP1 REVERT JUMPDEST SWAP2 SWAP1 POP JUMP JUMPDEST PUSH1 0x0 DUP1 PUSH1 0x40 DUP4 DUP6 SUB SLT ISZERO PUSH2 0x364F JUMPI PUSH1 0x0 DUP1 REVERT JUMPDEST DUP3 CALLDATALOAD SWAP2 POP PUSH1 0x20 DUP1 DUP5 ADD CALLDATALOAD PUSH8 0xFFFFFFFFFFFFFFFF DUP2 GT ISZERO PUSH2 0x366E JUMPI PUSH1 0x0 DUP1 REVERT JUMPDEST DUP5 ADD PUSH1 0x1F DUP2 ADD DUP7 SGT PUSH2 0x367F JUMPI PUSH1 0x0 DUP1 REVERT JUMPDEST DUP1 CALLDATALOAD PUSH2 0x368D PUSH2 0x3509 DUP3 PUSH2 0x3494 JUMP JUMPDEST DUP2 DUP2 MSTORE PUSH1 0x5 SWAP2 SWAP1 SWAP2 SHL DUP3 ADD DUP4 ADD SWAP1 DUP4 DUP2 ADD SWAP1 DUP9 DUP4 GT ISZERO PUSH2 0x36AC JUMPI PUSH1 0x0 DUP1 REVERT JUMPDEST SWAP3 DUP5 ADD SWAP3 JUMPDEST DUP3 DUP5 LT ISZERO PUSH2 0x354B JUMPI PUSH2 0x36C2 DUP5 PUSH2 0x3627 JUMP JUMPDEST DUP3 MSTORE SWAP3 DUP5 ADD SWAP3 SWAP1 DUP5 ADD SWAP1 PUSH2 0x36B1 JUMP JUMPDEST PUSH1 0x0 DUP1 PUSH1 0x40 DUP4 DUP6 SUB SLT ISZERO PUSH2 0x36E4 JUMPI PUSH1 0x0 DUP1 REVERT JUMPDEST POP POP DUP1 CALLDATALOAD SWAP3 PUSH1 0x20 SWAP1 SWAP2 ADD CALLDATALOAD SWAP2 POP JUMP JUMPDEST DUP1 CALLDATALOAD PUSH1 0x1 PUSH1 0x1 PUSH1 0xA0 SHL SUB DUP2 AND DUP2 EQ PUSH2 0x3637 JUMPI PUSH1 0x0 DUP1 REVERT JUMPDEST PUSH1 0x0 DUP1 PUSH1 0x0 PUSH1 0x40 DUP5 DUP7 SUB SLT ISZERO PUSH2 0x371F JUMPI PUSH1 0x0 DUP1 REVERT JUMPDEST DUP4 CALLDATALOAD PUSH8 0xFFFFFFFFFFFFFFFF DUP2 GT ISZERO PUSH2 0x3736 JUMPI PUSH1 0x0 DUP1 REVERT JUMPDEST PUSH2 0x3742 DUP7 DUP3 DUP8 ADD PUSH2 0x3592 JUMP JUMPDEST SWAP1 SWAP5 POP SWAP3 POP PUSH2 0x3755 SWAP1 POP PUSH1 0x20 DUP6 ADD PUSH2 0x36F3 JUMP JUMPDEST SWAP1 POP SWAP3 POP SWAP3 POP SWAP3 JUMP JUMPDEST PUSH1 0x20 DUP1 DUP3 MSTORE DUP3 MLOAD DUP3 DUP3 ADD DUP2 SWAP1 MSTORE PUSH1 0x0 SWAP2 SWAP1 DUP5 DUP3 ADD SWAP1 PUSH1 0x40 DUP6 ADD SWAP1 DUP5 JUMPDEST DUP2 DUP2 LT ISZERO PUSH2 0x3441 JUMPI DUP4 MLOAD PUSH1 0x1 PUSH1 0x1 PUSH1 0xA0 SHL SUB AND DUP4 MSTORE SWAP3 DUP5 ADD SWAP3 SWAP2 DUP5 ADD SWAP2 PUSH1 0x1 ADD PUSH2 0x377A JUMP JUMPDEST PUSH1 0x0 PUSH1 0x20 DUP3 DUP5 SUB SLT ISZERO PUSH2 0x37B1 JUMPI PUSH1 0x0 DUP1 REVERT JUMPDEST PUSH2 0x37BA DUP3 PUSH2 0x36F3 JUMP JUMPDEST SWAP4 SWAP3 POP POP POP JUMP JUMPDEST PUSH1 0x0 PUSH8 0xFFFFFFFFFFFFFFFF DUP4 GT ISZERO PUSH2 0x37DB JUMPI PUSH2 0x37DB PUSH2 0x344D JUMP JUMPDEST PUSH2 0x37EE PUSH1 0x1F DUP5 ADD PUSH1 0x1F NOT AND PUSH1 0x20 ADD PUSH2 0x3463 JUMP JUMPDEST SWAP1 POP DUP3 DUP2 MSTORE DUP4 DUP4 DUP4 ADD GT ISZERO PUSH2 0x3802 JUMPI PUSH1 0x0 DUP1 REVERT JUMPDEST DUP3 DUP3 PUSH1 0x20 DUP4 ADD CALLDATACOPY PUSH1 0x0 PUSH1 0x20 DUP5 DUP4 ADD ADD MSTORE SWAP4 SWAP3 POP POP POP JUMP JUMPDEST PUSH1 0x0 DUP1 PUSH1 0x40 DUP1 DUP5 DUP7 SUB SLT ISZERO PUSH2 0x382D JUMPI PUSH1 0x0 DUP1 REVERT JUMPDEST DUP4 CALLDATALOAD SWAP3 POP PUSH1 0x20 DUP1 DUP6 ADD CALLDATALOAD PUSH8 0xFFFFFFFFFFFFFFFF DUP1 DUP3 GT ISZERO PUSH2 0x384D JUMPI PUSH1 0x0 DUP1 REVERT JUMPDEST DUP2 DUP8 ADD SWAP2 POP DUP8 PUSH1 0x1F DUP4 ADD SLT PUSH2 0x3861 JUMPI PUSH1 0x0 DUP1 REVERT JUMPDEST DUP2 CALLDATALOAD PUSH2 0x386F PUSH2 0x3509 DUP3 PUSH2 0x3494 JUMP JUMPDEST DUP2 DUP2 MSTORE PUSH1 0x5 SWAP2 SWAP1 SWAP2 SHL DUP4 ADD DUP5 ADD SWAP1 DUP5 DUP2 ADD SWAP1 DUP11 DUP4 GT ISZERO PUSH2 0x388E JUMPI PUSH1 0x0 DUP1 REVERT JUMPDEST DUP6 DUP6 ADD JUMPDEST DUP4 DUP2 LT ISZERO PUSH2 0x38DA JUMPI DUP1 CALLDATALOAD DUP6 DUP2 GT ISZERO PUSH2 0x38AA JUMPI PUSH1 0x0 DUP1 DUP2 REVERT JUMPDEST DUP7 ADD PUSH1 0x3F DUP2 ADD DUP14 SGT PUSH2 0x38BC JUMPI PUSH1 0x0 DUP1 DUP2 REVERT JUMPDEST PUSH2 0x38CC DUP14 DUP10 DUP4 ADD CALLDATALOAD DUP12 DUP5 ADD PUSH2 0x37C1 JUMP JUMPDEST DUP5 MSTORE POP SWAP2 DUP7 ADD SWAP2 DUP7 ADD PUSH2 0x3892 JUMP JUMPDEST POP DUP1 SWAP8 POP POP POP POP POP POP POP POP SWAP3 POP SWAP3 SWAP1 POP JUMP JUMPDEST PUSH1 0x0 PUSH1 0x20 DUP1 DUP4 ADD DUP2 DUP5 MSTORE DUP1 DUP6 MLOAD DUP1 DUP4 MSTORE PUSH1 0x40 DUP7 ADD SWAP2 POP PUSH1 0x40 DUP2 PUSH1 0x5 SHL DUP8 ADD ADD SWAP3 POP DUP4 DUP8 ADD PUSH1 0x0 JUMPDEST DUP3 DUP2 LT ISZERO PUSH2 0x33FA JUMPI PUSH1 0x3F NOT DUP9 DUP7 SUB ADD DUP5 MSTORE PUSH2 0x392F DUP6 DUP4 MLOAD PUSH2 0x3358 JUMP JUMPDEST SWAP5 POP SWAP3 DUP6 ADD SWAP3 SWAP1 DUP6 ADD SWAP1 PUSH1 0x1 ADD PUSH2 0x3913 JUMP JUMPDEST PUSH1 0x0 DUP1 PUSH1 0x20 DUP4 DUP6 SUB SLT ISZERO PUSH2 0x3954 JUMPI PUSH1 0x0 DUP1 REVERT JUMPDEST DUP3 CALLDATALOAD PUSH8 0xFFFFFFFFFFFFFFFF DUP2 GT ISZERO PUSH2 0x396B JUMPI PUSH1 0x0 DUP1 REVERT JUMPDEST PUSH2 0x3977 DUP6 DUP3 DUP7 ADD PUSH2 0x3592 JUMP JUMPDEST SWAP1 SWAP7 SWAP1 SWAP6 POP SWAP4 POP POP POP POP JUMP JUMPDEST PUSH1 0x20 DUP2 MSTORE PUSH1 0x0 PUSH2 0x37BA PUSH1 0x20 DUP4 ADD DUP5 PUSH2 0x3358 JUMP JUMPDEST PUSH1 0x0 DUP1 PUSH1 0x40 DUP4 DUP6 SUB SLT ISZERO PUSH2 0x39A9 JUMPI PUSH1 0x0 DUP1 REVERT JUMPDEST DUP3 CALLDATALOAD SWAP2 POP PUSH2 0x39B9 PUSH1 0x20 DUP5 ADD PUSH2 0x3627 JUMP JUMPDEST SWAP1 POP SWAP3 POP SWAP3 SWAP1 POP JUMP JUMPDEST PUSH1 0x0 DUP1 PUSH1 0x40 DUP4 DUP6 SUB SLT ISZERO PUSH2 0x39D5 JUMPI PUSH1 0x0 DUP1 REVERT JUMPDEST DUP3 CALLDATALOAD SWAP2 POP PUSH2 0x39B9 PUSH1 0x20 DUP5 ADD PUSH2 0x36F3 JUMP JUMPDEST PUSH1 0x0 DUP1 PUSH1 0x40 DUP4 DUP6 SUB SLT ISZERO PUSH2 0x39F8 JUMPI PUSH1 0x0 DUP1 REVERT JUMPDEST DUP3 CALLDATALOAD SWAP2 POP PUSH1 0x20 DUP1 DUP5 ADD CALLDATALOAD PUSH8 0xFFFFFFFFFFFFFFFF DUP2 GT ISZERO PUSH2 0x3A17 JUMPI PUSH1 0x0 DUP1 REVERT JUMPDEST DUP5 ADD PUSH1 0x1F DUP2 ADD DUP7 SGT PUSH2 0x3A28 JUMPI PUSH1 0x0 DUP1 REVERT JUMPDEST DUP1 CALLDATALOAD PUSH2 0x3A36 PUSH2 0x3509 DUP3 PUSH2 0x3494 JUMP JUMPDEST DUP2 DUP2 MSTORE PUSH1 0x5 SWAP2 SWAP1 SWAP2 SHL DUP3 ADD DUP4 ADD SWAP1 DUP4 DUP2 ADD SWAP1 DUP9 DUP4 GT ISZERO PUSH2 0x3A55 JUMPI PUSH1 0x0 DUP1 REVERT JUMPDEST SWAP3 DUP5 ADD SWAP3 JUMPDEST DUP3 DUP5 LT ISZERO PUSH2 0x354B JUMPI PUSH2 0x3A6B DUP5 PUSH2 0x36F3 JUMP JUMPDEST DUP3 MSTORE SWAP3 DUP5 ADD SWAP3 SWAP1 DUP5 ADD SWAP1 PUSH2 0x3A5A JUMP JUMPDEST PUSH1 0x0 DUP1 PUSH1 0x40 DUP1 DUP5 DUP7 SUB SLT ISZERO PUSH2 0x3A8E JUMPI PUSH1 0x0 DUP1 REVERT JUMPDEST DUP4 CALLDATALOAD SWAP3 POP PUSH1 0x20 DUP1 DUP6 ADD CALLDATALOAD PUSH8 0xFFFFFFFFFFFFFFFF DUP1 DUP3 GT ISZERO PUSH2 0x3AAE JUMPI PUSH1 0x0 DUP1 REVERT JUMPDEST DUP2 DUP8 ADD SWAP2 POP DUP8 PUSH1 0x1F DUP4 ADD SLT PUSH2 0x3AC2 JUMPI PUSH1 0x0 DUP1 REVERT JUMPDEST DUP2 CALLDATALOAD PUSH2 0x3AD0 PUSH2 0x3509 DUP3 PUSH2 0x3494 JUMP JUMPDEST DUP2 DUP2 MSTORE PUSH1 0x5 SWAP2 SWAP1 SWAP2 SHL DUP4 ADD DUP5 ADD SWAP1 DUP5 DUP2 ADD SWAP1 DUP11 DUP4 GT ISZERO PUSH2 0x3AEF JUMPI PUSH1 0x0 DUP1 REVERT JUMPDEST DUP6 DUP6 ADD JUMPDEST DUP4 DUP2 LT ISZERO PUSH2 0x38DA JUMPI DUP1 CALLDATALOAD DUP6 DUP2 GT ISZERO PUSH2 0x3B0B JUMPI PUSH1 0x0 DUP1 DUP2 REVERT JUMPDEST DUP7 ADD PUSH1 0x3F DUP2 ADD DUP14 SGT PUSH2 0x3B1D JUMPI PUSH1 0x0 DUP1 DUP2 REVERT JUMPDEST PUSH2 0x3B2D DUP14 DUP10 DUP4 ADD CALLDATALOAD DUP12 DUP5 ADD PUSH2 0x37C1 JUMP JUMPDEST DUP5 MSTORE POP SWAP2 DUP7 ADD SWAP2 DUP7 ADD PUSH2 0x3AF3 JUMP JUMPDEST PUSH1 0x1 DUP2 DUP2 SHR SWAP1 DUP3 AND DUP1 PUSH2 0x3B4F JUMPI PUSH1 0x7F DUP3 AND SWAP2 POP JUMPDEST PUSH1 0x20 DUP3 LT DUP2 EQ ISZERO PUSH2 0x3B70 JUMPI PUSH4 0x4E487B71 PUSH1 0xE0 SHL PUSH1 0x0 MSTORE PUSH1 0x22 PUSH1 0x4 MSTORE PUSH1 0x24 PUSH1 0x0 REVERT JUMPDEST POP SWAP2 SWAP1 POP JUMP JUMPDEST PUSH32 0x7068616E746F6D2E636F6E74726163742E726567697374657265640000000000 DUP2 MSTORE PUSH1 0x60 SWAP2 SWAP1 SWAP2 SHL PUSH12 0xFFFFFFFFFFFFFFFFFFFFFFFF NOT AND PUSH1 0x1B DUP3 ADD MSTORE PUSH1 0x2F ADD SWAP1 JUMP JUMPDEST DUP2 DUP4 DUP3 CALLDATACOPY PUSH1 0x0 SWAP2 ADD SWAP1 DUP2 MSTORE SWAP2 SWAP1 POP JUMP JUMPDEST PUSH4 0x4E487B71 PUSH1 0xE0 SHL PUSH1 0x0 MSTORE PUSH1 0x11 PUSH1 0x4 MSTORE PUSH1 0x24 PUSH1 0x0 REVERT JUMPDEST PUSH1 0x0 DUP3 NOT DUP3 GT ISZERO PUSH2 0x3BF2 JUMPI PUSH2 0x3BF2 PUSH2 0x3BC9 JUMP JUMPDEST POP ADD SWAP1 JUMP JUMPDEST PUSH1 0x0 DUP3 DUP3 LT ISZERO PUSH2 0x3C09 JUMPI PUSH2 0x3C09 PUSH2 0x3BC9 JUMP JUMPDEST POP SUB SWAP1 JUMP INVALID LOG2 PUSH5 0x6970667358 0x22 SLT KECCAK256 0x2C 0xF7 EXP DELEGATECALL SWAP7 GT CALLER PUSH19 0xF9A21558FBA7197041BF103550EE34E9EE8A01 0xC7 DUP2 0xE6 PC 0xE8 PUSH5 0x736F6C6343 STOP ADDMOD EXP STOP CALLER ",
  "sha1": "48de78cff3e19b247a3bddd64796aa402d7e28a4",
  "source": "/* SPDX-License-Identifier: MIT */\npragma solidity =0.8.10;\n\n/* Internal Imports*/\nimport {PhantomStorageKeys} from \"./PhantomStorageKeys.sol\";\n\n/* Internal Interface Imports */\nimport {IPhantomStorage} from \"../../interfaces/storage/IPhantomStorage.sol\";\n\n/**\n * @title PhantomStorage()\n * @author PhantomDao Team\n * @notice The Eternal Storage contract powering the Phantom Network\n */\ncontract PhantomStorage is PhantomStorageKeys, IPhantomStorage {\n    //=================================================================================================================\n    // Storage Maps\n    //=================================================================================================================\n\n    mapping(bytes32 => string) private stringStorage;\n    mapping(bytes32 => bytes) private bytesStorage;\n    mapping(bytes32 => uint256) private uintStorage;\n    mapping(bytes32 => int256) private intStorage;\n    mapping(bytes32 => address) private addressStorage;\n    mapping(bytes32 => bool) private booleanStorage;\n    mapping(bytes32 => bytes32) private bytes32Storage;\n\n    mapping(bytes32 => string[]) private stringArrayStorage;\n    mapping(bytes32 => bytes[]) private bytesArrayStorage;\n    mapping(bytes32 => uint256[]) private uintArrayStorage;\n    mapping(bytes32 => int256[]) private intArrayStorage;\n    mapping(bytes32 => address[]) private addressArrayStorage;\n    mapping(bytes32 => bool[]) private booleanArrayStorage;\n    mapping(bytes32 => bytes32[]) private bytes32ArrayStorage;\n\n    //=================================================================================================================\n    // State Variables\n    //=================================================================================================================\n\n    address storageGuardian;\n    address newStorageGuardian;\n    bool storageInit = false;\n\n    //=================================================================================================================\n    // Constructor\n    //=================================================================================================================\n\n    constructor() {\n        storageGuardian = msg.sender;\n    }\n\n    //=================================================================================================================\n    // Modifiers\n    //=================================================================================================================\n\n    modifier onlyRegisteredContracts() {\n        if (storageInit == true) {\n            // Make sure the access is permitted to only contracts registered with the network\n            if (!booleanStorage[keccak256(abi.encodePacked(\"phantom.contract.registered\", msg.sender))]) {\n                revert PhantomStorage__ContractNotRegistered(msg.sender);\n            }\n        } else {\n            // tx.origin is only safe to use in this case for deployment since no external contracts are interacted with\n            if (\n                !(booleanStorage[keccak256(abi.encodePacked(\"phantom.contract.registered\", msg.sender))] ||\n                    tx.origin == storageGuardian)\n            ) revert PhantomStorage__ContractNotRegistered(msg.sender);\n        }\n        _;\n    }\n\n    //=================================================================================================================\n    // External Functions\n    //=================================================================================================================\n\n    function registerContract(bytes calldata contractName, address contractAddress)\n        external\n        override\n        onlyRegisteredContracts\n    {\n        booleanStorage[keccak256(abi.encodePacked(\"phantom.contract.registered\", contractAddress))] = true;\n        addressStorage[keccak256(abi.encodePacked(contractName))] = contractAddress;\n    }\n\n    function unregisterContract(bytes calldata contractName) external override onlyRegisteredContracts {\n        address contractAddress = addressStorage[keccak256(abi.encodePacked(contractName))];\n        delete booleanStorage[keccak256(abi.encodePacked(\"phantom.contract.registered\", contractAddress))];\n        delete addressStorage[keccak256(abi.encodePacked(contractName))];\n    }\n\n    function getGuardian() external view override returns (address) {\n        return storageGuardian;\n    }\n\n    function sendGuardianInvitation(address _newAddress) external override {\n        if (msg.sender != storageGuardian) revert PhantomStorage__NotStorageGuardian(msg.sender);\n        newStorageGuardian = _newAddress;\n    }\n\n    function acceptGuardianInvitation() external override {\n        if (msg.sender != newStorageGuardian) revert PhantomStorage__NoGuardianInvitation(msg.sender);\n        address oldGuardian = storageGuardian;\n        storageGuardian = newStorageGuardian;\n        delete newStorageGuardian;\n        emit GuardianChanged(oldGuardian, storageGuardian);\n    }\n\n    function getDeployedStatus() external view override returns (bool) {\n        return storageInit;\n    }\n\n    function setDeployedStatus() external {\n        if (msg.sender != storageGuardian) revert PhantomStorage__NotStorageGuardian(msg.sender);\n        storageInit = true;\n    }\n\n    //=================================================================================================================\n    // Accessors\n    //=================================================================================================================\n\n    /// @param _key The key for the record\n    function getAddress(bytes32 _key) external view override returns (address r) {\n        return addressStorage[_key];\n    }\n\n    /// @param _key The key for the record\n    function getUint(bytes32 _key) external view override returns (uint256 r) {\n        return uintStorage[_key];\n    }\n\n    /// @param _key The key for the record\n    function getString(bytes32 _key) external view override returns (string memory) {\n        return stringStorage[_key];\n    }\n\n    /// @param _key The key for the record\n    function getBytes(bytes32 _key) external view override returns (bytes memory) {\n        return bytesStorage[_key];\n    }\n\n    /// @param _key The key for the record\n    function getBool(bytes32 _key) external view override returns (bool r) {\n        return booleanStorage[_key];\n    }\n\n    /// @param _key The key for the record\n    function getInt(bytes32 _key) external view override returns (int256 r) {\n        return intStorage[_key];\n    }\n\n    /// @param _key The key for the record\n    function getBytes32(bytes32 _key) external view override returns (bytes32 r) {\n        return bytes32Storage[_key];\n    }\n\n    //=================================================================================================================\n    // Accessors Arrays\n    //=================================================================================================================\n\n    /// @param _key The key for the record\n    function getAddressArray(bytes32 _key) external view override returns (address[] memory r) {\n        return addressArrayStorage[_key];\n    }\n\n    /// @param _key The key for the record\n    function getUintArray(bytes32 _key) external view override returns (uint256[] memory r) {\n        return uintArrayStorage[_key];\n    }\n\n    /// @param _key The key for the record\n    function getStringArray(bytes32 _key) external view override returns (string[] memory) {\n        return stringArrayStorage[_key];\n    }\n\n    /// @param _key The key for the record\n    function getBytesArray(bytes32 _key) external view override returns (bytes[] memory) {\n        return bytesArrayStorage[_key];\n    }\n\n    /// @param _key The key for the record\n    function getBoolArray(bytes32 _key) external view override returns (bool[] memory r) {\n        return booleanArrayStorage[_key];\n    }\n\n    /// @param _key The key for the record\n    function getIntArray(bytes32 _key) external view override returns (int256[] memory r) {\n        return intArrayStorage[_key];\n    }\n\n    /// @param _key The key for the record\n    function getBytes32Array(bytes32 _key) external view override returns (bytes32[] memory r) {\n        return bytes32ArrayStorage[_key];\n    }\n\n    //=================================================================================================================\n    // Mutators\n    //=================================================================================================================\n\n    /// @param _key The key for the record\n    function setAddress(bytes32 _key, address _value) external override onlyRegisteredContracts {\n        addressStorage[_key] = _value;\n    }\n\n    // @param _key The key for the record\n    function setUint(bytes32 _key, uint256 _value) external override onlyRegisteredContracts {\n        uintStorage[_key] = _value;\n    }\n\n    /// @param _key The key for the record\n    function setString(bytes32 _key, string calldata _value) external override onlyRegisteredContracts {\n        stringStorage[_key] = _value;\n    }\n\n    /// @param _key The key for the record\n    function setBytes(bytes32 _key, bytes calldata _value) external override onlyRegisteredContracts {\n        bytesStorage[_key] = _value;\n    }\n\n    /// @param _key The key for the record\n    function setBool(bytes32 _key, bool _value) external override onlyRegisteredContracts {\n        booleanStorage[_key] = _value;\n    }\n\n    /// @param _key The key for the record\n    function setInt(bytes32 _key, int256 _value) external override onlyRegisteredContracts {\n        intStorage[_key] = _value;\n    }\n\n    /// @param _key The key for the record\n    function setBytes32(bytes32 _key, bytes32 _value) external override onlyRegisteredContracts {\n        bytes32Storage[_key] = _value;\n    }\n\n    //=================================================================================================================\n    // Mutators Arrays\n    //=================================================================================================================\n\n    /// @param _key The key for the record\n    function setAddressArray(bytes32 _key, address[] memory _value) external override onlyRegisteredContracts {\n        addressArrayStorage[_key] = _value;\n    }\n\n    // @param _key The key for the record\n    function setUintArray(bytes32 _key, uint256[] memory _value) external override onlyRegisteredContracts {\n        uintArrayStorage[_key] = _value;\n    }\n\n    /// @param _key The key for the record\n    function setStringArray(bytes32 _key, string[] memory _value) external override onlyRegisteredContracts {\n        stringArrayStorage[_key] = _value;\n    }\n\n    /// @param _key The key for the record\n    function setBytesArray(bytes32 _key, bytes[] memory _value) external override onlyRegisteredContracts {\n        bytesArrayStorage[_key] = _value;\n    }\n\n    /// @param _key The key for the record\n    function setBoolArray(bytes32 _key, bool[] memory _value) external override onlyRegisteredContracts {\n        booleanArrayStorage[_key] = _value;\n    }\n\n    /// @param _key The key for the record\n    function setIntArray(bytes32 _key, int256[] memory _value) external override onlyRegisteredContracts {\n        intArrayStorage[_key] = _value;\n    }\n\n    /// @param _key The key for the record\n    function setBytes32Array(bytes32 _key, bytes32[] memory _value) external override onlyRegisteredContracts {\n        bytes32ArrayStorage[_key] = _value;\n    }\n\n    //=================================================================================================================\n    // Deletion\n    //=================================================================================================================\n\n    /// @param _key The key for the record\n    function deleteBytes32(bytes32 _key) external override onlyRegisteredContracts {\n        delete bytes32Storage[_key];\n    }\n\n    /// @param _key The key for the record\n    function deleteAddress(bytes32 _key) external override onlyRegisteredContracts {\n        delete addressStorage[_key];\n    }\n\n    /// @param _key The key for the record\n    function deleteUint(bytes32 _key) external override onlyRegisteredContracts {\n        delete uintStorage[_key];\n    }\n\n    /// @param _key The key for the record\n    function deleteString(bytes32 _key) external override onlyRegisteredContracts {\n        delete stringStorage[_key];\n    }\n\n    /// @param _key The key for the record\n    function deleteBytes(bytes32 _key) external override onlyRegisteredContracts {\n        delete bytesStorage[_key];\n    }\n\n    /// @param _key The key for the record\n    function deleteBool(bytes32 _key) external override onlyRegisteredContracts {\n        delete booleanStorage[_key];\n    }\n\n    /// @param _key The key for the record\n    function deleteInt(bytes32 _key) external override onlyRegisteredContracts {\n        delete intStorage[_key];\n    }\n\n    //=================================================================================================================\n    // Deletion Arrays\n    //=================================================================================================================\n\n    /// @param _key The key for the record\n    function deleteBytes32Array(bytes32 _key) external override onlyRegisteredContracts {\n        delete bytes32ArrayStorage[_key];\n    }\n\n    /// @param _key The key for the record\n    function deleteAddressArray(bytes32 _key) external override onlyRegisteredContracts {\n        delete addressArrayStorage[_key];\n    }\n\n    /// @param _key The key for the record\n    function deleteUintArray(bytes32 _key) external override onlyRegisteredContracts {\n        delete uintArrayStorage[_key];\n    }\n\n    /// @param _key The key for the record\n    function deleteStringArray(bytes32 _key) external override onlyRegisteredContracts {\n        delete stringArrayStorage[_key];\n    }\n\n    /// @param _key The key for the record\n    function deleteBytesArray(bytes32 _key) external override onlyRegisteredContracts {\n        delete bytesArrayStorage[_key];\n    }\n\n    /// @param _key The key for the record\n    function deleteBoolArray(bytes32 _key) external override onlyRegisteredContracts {\n        delete booleanArrayStorage[_key];\n    }\n\n    /// @param _key The key for the record\n    function deleteIntArray(bytes32 _key) external override onlyRegisteredContracts {\n        delete intArrayStorage[_key];\n    }\n\n    //=================================================================================================================\n    // Arithmetic\n    //=================================================================================================================\n\n    /// @param _key The key for the record\n    /// @param _amount An amount to add to the record's value\n    function addUint(bytes32 _key, uint256 _amount) external override onlyRegisteredContracts {\n        uintStorage[_key] = uintStorage[_key] + _amount;\n    }\n\n    /// @param _key The key for the record\n    /// @param _amount An amount to subtract from the record's value\n    function subUint(bytes32 _key, uint256 _amount) external override onlyRegisteredContracts {\n        uintStorage[_key] = uintStorage[_key] - _amount;\n    }\n}\n",
  "sourcePath": "contracts/storage/PhantomStorage.sol",
  "type": "contract"
}