{
  "abi": [
    {
      "inputs": [
        {
          "internalType": "address",
          "name": "storageFactoryAddress",
          "type": "address"
        },
        {
          "internalType": "address",
          "name": "token",
          "type": "address"
        }
      ],
      "stateMutability": "nonpayable",
      "type": "constructor"
    },
    {
      "inputs": [
        {
          "internalType": "uint256",
          "name": "prod1",
          "type": "uint256"
        },
        {
          "internalType": "uint256",
          "name": "denominator",
          "type": "uint256"
        }
      ],
      "name": "PRBMath__MulDivOverflow",
      "type": "error"
    },
    {
      "inputs": [
        {
          "internalType": "address",
          "name": "contractAddress",
          "type": "address"
        }
      ],
      "name": "PhantomStorageMixin__ContractNotFoundByAddressOrIsOutdated",
      "type": "error"
    },
    {
      "inputs": [
        {
          "internalType": "bytes32",
          "name": "contractName",
          "type": "bytes32"
        }
      ],
      "name": "PhantomStorageMixin__ContractNotFoundByNameOrIsOutdated",
      "type": "error"
    },
    {
      "inputs": [
        {
          "internalType": "address",
          "name": "user",
          "type": "address"
        }
      ],
      "name": "PhantomStorageMixin__UserIsNotGuardian",
      "type": "error"
    },
    {
      "inputs": [
        {
          "internalType": "address",
          "name": "claimer",
          "type": "address"
        }
      ],
      "name": "purchase",
      "outputs": [],
      "stateMutability": "nonpayable",
      "type": "function"
    },
    {
      "inputs": [
        {
          "internalType": "address",
          "name": "claimer",
          "type": "address"
        },
        {
          "internalType": "uint256",
          "name": "amount",
          "type": "uint256"
        }
      ],
      "name": "registerAllotment",
      "outputs": [],
      "stateMutability": "nonpayable",
      "type": "function"
    },
    {
      "inputs": [
        {
          "internalType": "address",
          "name": "claimer",
          "type": "address"
        }
      ],
      "name": "remainingAllotment",
      "outputs": [
        {
          "internalType": "uint256",
          "name": "",
          "type": "uint256"
        }
      ],
      "stateMutability": "view",
      "type": "function"
    }
  ],
  "bytecode": "601260e08181527139b2b1bab934ba3c9730b2323932b9b9b7b360711b6101009081526080918252600d6101209081526c73656375726974792e6e616d6560981b6101405260a0526101a060405260136101609081527f73656375726974792e72656769737465726564000000000000000000000000006101805260c052909160009162000090918391906200169e565b506020828101518051620000ab92600185019201906200169e565b5060408201518051620000c99160028401916020909101906200169e565b5050604080516103c081018252601b61038082019081527f7068616e746f6d2e636f6e7472616374732e616c7068617377617000000000006103a0830152610100820190815282518084018452601a8082527f7068616e746f6d2e636f6e7472616374732e666f756e646572730000000000006020838101919091526101208501929092528451808601865260198082527f7068616e746f6d2e636f6e7472616374732e7374616b696e67000000000000008285015261014086019190915285518087018752601f81527f7068616e746f6d2e636f6e7472616374732e7374616b696e677761726d75700081850152610160860152855180870187529081527f7068616e746f6d2e636f6e7472616374732e626f6e64696e67000000000000008184015261018085015284518086018652601581527f7068616e746f6d2e636f6e7472616374732e70686d0000000000000000000000818401526101a08501528451808601865260168082527f7068616e746f6d2e636f6e7472616374732e7370686d00000000000000000000828501526101c0860191909152855180870187528181527f7068616e746f6d2e636f6e7472616374732e6770686d00000000000000000000818501526101e0860152855180870187528181527f7068616e746f6d2e636f6e7472616374732e6170686d0000000000000000000081850152610200860152855180870187528181527f7068616e746f6d2e636f6e7472616374732e6670686d00000000000000000000818501526102208601528551808701875260178082527f7068616e746f6d2e636f6e7472616374732e7661756c7400000000000000000082860152610240870191909152865180880188528381527f7068616e746f6d2e636f6e7472616374732e747265617375727900000000000081860152610260870152865180880188529182527f7068616e746f6d2e636f6e7472616374732e74776170000000000000000000008285015261028086019190915285518087018752601d81527f7068616e746f6d2e636f6e7472616374732e626f6e6470726963696e67000000818501526102a086015285518087018752601c81527f7068616e746f6d2e636f6e7472616374732e6465785f726f7574657200000000818501526102c086015285518087018752601e8082527f7068616e746f6d2e636f6e7472616374732e796561726e5f726f757465720000828601526102e0870191909152865180880188528381527f7068616e746f6d2e636f6e7472616374732e6578656375746f7200000000000081860152610300870152865180880188529283527f7068616e746f6d2e636f6e7472616374732e7061796d656e747300000000000083850152610320860192909252855180870187529081527f7068616e746f6d2e636f6e7472616374732e677561726400000000000000000081840152610340850152845180860186529081527f7068616e746f6d2e636f6e7472616374732e61756374696f6e636c61696d000081830152610360840152908252825160c08101909352602a6060840181815292945090840192918291620026e26080840139815260200160405180606001604052806040518060600160405280602b815260200162002667602b913981526020016040518060400160405280602081526020017f7068616e746f6d2e74726561737572792e6163636f756e745f6b65792e64616f8152508152602001604051806060016040528060258152602001620027f26025913990528152604080518082018252601981527f7068616e746f6d2e74726561737572792e62616c616e636573000000000000006020828101919091529283015291835281516101c0810190925260246101608301818152938201938392830191829160c0850191829190620025fd610180880139815260200160405180606001604052806025815260200162002861602591398152602001604051806060016040528060248152602001620028176024913981526020016040518060600160405280602b815260200162002692602b91398152602001604051806060016040528060248152602001620028866024913981525081526020016040518060600160405280602581526020016200275c602591398152602001604051806060016040528060298152602001620027c96029913981526020016040518060400160405280601b81526020017f7068616e746f6d2e616c6c6f6361746f722e746f6b656e732e6c70000000000081525081526020016040518060400160405280601f81526020017f7068616e746f6d2e616c6c6f6361746f722e746f6b656e732e73696e676c65008152508152508152508152602001604051806101a0016040528060405180606001604052806040518060600160405280602b81526020016200270c602b913981526020016040518060600160405280602c8152602001620025ab602c913981526020016040518060600160405280602f81526020016200257c602f913981525081526020016040518060400160405280601d81526020017f7068616e746f6d2e626f6e64696e672e76657374696e67626c6f636b7300000081525081526020016040518060400160405280601c81526020017f7068616e746f6d2e626f6e64696e672e70726f6669745f726174696f0000000081525081526020016040518060400160405280601b81526020017f7068616e746f6d2e626f6e64696e672e69735f72656465656d656400000000008152508152602001604051806060016040528060228152602001620027816022913981526020016040518060400160405280601881526020017f7068616e746f6d2e626f6e64696e672e69735f76616c6964000000000000000081525081526020016040518060400160405280601a81526020017f7068616e746f6d2e626f6e64696e672e6d756c7469706c69657200000000000081525081526020016040518060400160405280601481526020017f7068616e746f6d2e626f6e64696e672e6465627400000000000000000000000081525081526020016040518060400160405280601e81526020017f7068616e746f6d2e626f6e64696e672e6d61785f646562745f726174696f00008152508152602001604051806060016040528060248152602001620029776024913981526020016040518060400160405280601581526020017f7068616e746f6d2e626f6e64696e672e746f6b656e000000000000000000000081525081526020016040518060400160405280601d81526020017f7068616e746f6d2e626f6e64696e672e6c6173745f636c61696d5f617400000081525081526020016040518060400160405280601b81526020017f7068616e746f6d2e626f6e64696e672e766573745f6c656e6774680000000000815250815250815260200160405180604001604052806040518060400160405280601d81526020017f7068616e746f6d2e7374616b696e672e726562617365436f756e7465720000008152508152602001604051806060016040528060228152602001620029556022913990528152604080516101408101909152602160e08201818152602090930192829160608301918291620028ce610100860139815260200160405180606001604052806024815260200162002643602491398152602001604051806060016040528060268152602001620025d760269139815260408051808201825260208082527f7068616e746f6d2e666f756e6465722e636c61696d732e6c617374436c61696d828201529283015291835281516060810183528082018281527f7068616e746f6d2e666f756e6465722e6368616e6765732e6e65774f776e65728285015281528382015281518083018352601d81527f7068616e746f6d2e666f756e6465722e76657374696e675374617274730000008183015292820192909252918352815161016081019092526022610100830181815293909101928291620026216101208401398152602001604051806060016040528060238152602001620028ef60239139815260200160405180606001604052806025815260200162002737602591398152602001604051806060016040528060268152602001620027a3602691398152602001604051806060016040528060258152602001620026bd6025913981526020016040518060600160405280602681526020016200283b602691398152602001604051806060016040528060248152602001620028aa6024913981526020016040518060600160405280602a81526020016200299b602a9139815250815260200160405180608001604052806040518060400160405280601c81526020017f7068616e746f6d2e676f7665726e6f722e766f74696e6744656c61790000000081525081526020016040518060400160405280601d81526020017f7068616e746f6d2e676f7665726e6f722e766f74696e67506572696f6400000081525081526020016040518060600160405280602181526020016200291260219139815260200160405180606001604052806022815260200162002933602291399052905280518051805160039291839162000deb9183916020909101906200169e565b50602082810151805162000e0692600185019201906200169e565b506040820151805162000e249160028401916020909101906200169e565b506060820151805162000e429160038401916020909101906200169e565b506080820151805162000e609160048401916020909101906200169e565b5060a0820151805162000e7e9160058401916020909101906200169e565b5060c0820151805162000e9c9160068401916020909101906200169e565b5060e0820151805162000eba9160078401916020909101906200169e565b50610100820151805162000ed99160088401916020909101906200169e565b50610120820151805162000ef89160098401916020909101906200169e565b50610140820151805162000f1791600a8401916020909101906200169e565b50610160820151805162000f3691600b8401916020909101906200169e565b50610180820151805162000f5591600c8401916020909101906200169e565b506101a0820151805162000f7491600d8401916020909101906200169e565b506101c0820151805162000f9391600e8401916020909101906200169e565b506101e0820151805162000fb291600f8401916020909101906200169e565b50610200820151805162000fd19160108401916020909101906200169e565b50610220820151805162000ff09160118401916020909101906200169e565b5061024082015180516200100f9160128401916020909101906200169e565b5061026082015180516200102e9160138401916020909101906200169e565b50505060208281015180518051919260148501926200105192849201906200169e565b5060208281015180518051919260018501926200107292849201906200169e565b5060208281015180516200108d92600185019201906200169e565b5060408201518051620010ab9160028401916020909101906200169e565b50505060408201518051620010cb9160048401916020909101906200169e565b50505060408201518051805180518051601986019392849290918391620010f8918391602001906200169e565b5060208281015180516200111392600185019201906200169e565b5060408201518051620011319160028401916020909101906200169e565b50606082015180516200114f9160038401916020909101906200169e565b50608082015180516200116d9160048401916020909101906200169e565b50505060208281015180516200118a92600585019201906200169e565b5060408201518051620011a89160068401916020909101906200169e565b5060608201518051620011c69160078401916020909101906200169e565b5060808201518051620011e49160088401916020909101906200169e565b505050506060830151805180518051929350602285019283916200120e918391602001906200169e565b5060208281015180516200122992600185019201906200169e565b5060408201518051620012479160028401916020909101906200169e565b50505060208281015180516200126492600385019201906200169e565b5060408201518051620012829160048401916020909101906200169e565b5060608201518051620012a09160058401916020909101906200169e565b5060808201518051620012be9160068401916020909101906200169e565b5060a08201518051620012dc9160078401916020909101906200169e565b5060c08201518051620012fa9160088401916020909101906200169e565b5060e08201518051620013189160098401916020909101906200169e565b5061010082015180516200133791600a8401916020909101906200169e565b5061012082015180516200135691600b8401916020909101906200169e565b5061014082015180516200137591600c8401916020909101906200169e565b5061016082015180516200139491600d8401916020909101906200169e565b506101808201518051620013b391600e8401916020909101906200169e565b5050506080820151805180516031840191620013d5918391602001906200169e565b506020828101518051620013f092600185019201906200169e565b50505060a08201518051805180516033850192918391620014199183916020909101906200169e565b5060208281015180516200143492600185019201906200169e565b5060408201518051620014529160028401916020909101906200169e565b5060608201518051620014709160038401916020909101906200169e565b50505060208281015180518051919260048501926200149392849201906200169e565b50505060408201518051620014b39160058401916020909101906200169e565b50505060c0820151805180516039840191620014d5918391602001906200169e565b506020828101518051620014f092600185019201906200169e565b50604082015180516200150e9160028401916020909101906200169e565b50606082015180516200152c9160038401916020909101906200169e565b50608082015180516200154a9160048401916020909101906200169e565b5060a08201518051620015689160058401916020909101906200169e565b5060c08201518051620015869160068401916020909101906200169e565b5060e08201518051620015a49160078401916020909101906200169e565b50505060e0820151805180516041840191620015c6918391602001906200169e565b506020828101518051620015e192600185019201906200169e565b5060408201518051620015ff9160028401916020909101906200169e565b50606082015180516200161d9160038401916020909101906200169e565b50505050506d7068616e746f6d53746f7261676560901b604a553480156200164457600080fd5b50604051620029c5380380620029c5833981016040819052620016679162001761565b6001604855604980546001600160a01b039384166001600160a01b031991821617909155604b8054929093169116179055620017d6565b828054620016ac9062001799565b90600052602060002090601f016020900481019282620016d057600085556200171b565b82601f10620016eb57805160ff19168380011785556200171b565b828001600101855582156200171b579182015b828111156200171b578251825591602001919060010190620016fe565b50620017299291506200172d565b5090565b5b808211156200172957600081556001016200172e565b80516001600160a01b03811681146200175c57600080fd5b919050565b600080604083850312156200177557600080fd5b620017808362001744565b9150620017906020840162001744565b90509250929050565b600181811c90821680620017ae57607f821691505b60208210811415620017d057634e487b7160e01b600052602260045260246000fd5b50919050565b610d9680620017e66000396000f3fe608060405234801561001057600080fd5b50600436106100415760003560e01c806325b31a9714610046578063d21e4a2a1461005b578063f66496df1461006e575b600080fd5b610059610054366004610adf565b610093565b005b610059610069366004610afc565b6104bd565b61008161007c366004610adf565b6107d9565b60405190815260200160405180910390f35b60006100a76049546001600160a01b031690565b6001600160a01b0316631bed52416040518163ffffffff1660e01b8152600401602060405180830381865afa1580156100e4573d6000803e3d6000fd5b505050506040513d601f19601f820116820180604052508101906101089190610b28565b9050600181151514156101de576049546001600160a01b03166001600160a01b0316637ae1cfca336040516020016101409190610b4a565b604051602081830303815290604052805190602001206040518263ffffffff1660e01b815260040161017491815260200190565b602060405180830381865afa158015610191573d6000803e3d6000fd5b505050506040513d601f19601f820116820180604052508101906101b59190610b28565b6101d95760405163372463e360e01b81523360048201526024015b60405180910390fd5b610325565b6049546001600160a01b03166001600160a01b0316637ae1cfca336040516020016102099190610b4a565b604051602081830303815290604052805190602001206040518263ffffffff1660e01b815260040161023d91815260200190565b602060405180830381865afa15801561025a573d6000803e3d6000fd5b505050506040513d601f19601f8201168201806040525081019061027e9190610b28565b8061030657506049546001600160a01b03166001600160a01b031663a75b87d26040518163ffffffff1660e01b8152600401602060405180830381865afa1580156102cd573d6000803e3d6000fd5b505050506040513d601f19601f820116820180604052508101906102f19190610b8d565b6001600160a01b0316326001600160a01b0316145b6103255760405163372463e360e01b81523360048201526024016101d0565b600260485414156103785760405162461bcd60e51b815260206004820152601f60248201527f5265656e7472616e637947756172643a207265656e7472616e742063616c6c0060448201526064016101d0565b60026048556001600160a01b0382166000908152604c6020526040902054806103f95760405162461bcd60e51b815260206004820152602d60248201527f5068616e746f6d41756374696f6e436c61696d3a204e6f206150484d20746f6b60448201526c195b9cc8185b1b1bd8d85d1959609a1b60648201526084016101d0565b61040161080b565b604b546001600160a01b039182169163ddf0a2c491869185911661042e826802b5e3af16b18800006108aa565b6104366108c6565b61043e6108fd565b610446610991565b6040518863ffffffff1660e01b81526004016104689796959493929190610be5565b600060405180830381600087803b15801561048257600080fd5b505af1158015610496573d6000803e3d6000fd5b5050506001600160a01b039093166000908152604c60205260408120555050600160485550565b60006104d16049546001600160a01b031690565b6001600160a01b0316631bed52416040518163ffffffff1660e01b8152600401602060405180830381865afa15801561050e573d6000803e3d6000fd5b505050506040513d601f19601f820116820180604052508101906105329190610b28565b905060018115151415610603576049546001600160a01b03166001600160a01b0316637ae1cfca3360405160200161056a9190610b4a565b604051602081830303815290604052805190602001206040518263ffffffff1660e01b815260040161059e91815260200190565b602060405180830381865afa1580156105bb573d6000803e3d6000fd5b505050506040513d601f19601f820116820180604052508101906105df9190610b28565b6105fe5760405163372463e360e01b81523360048201526024016101d0565b61074a565b6049546001600160a01b03166001600160a01b0316637ae1cfca3360405160200161062e9190610b4a565b604051602081830303815290604052805190602001206040518263ffffffff1660e01b815260040161066291815260200190565b602060405180830381865afa15801561067f573d6000803e3d6000fd5b505050506040513d601f19601f820116820180604052508101906106a39190610b28565b8061072b57506049546001600160a01b03166001600160a01b031663a75b87d26040518163ffffffff1660e01b8152600401602060405180830381865afa1580156106f2573d6000803e3d6000fd5b505050506040513d601f19601f820116820180604052508101906107169190610b8d565b6001600160a01b0316326001600160a01b0316145b61074a5760405163372463e360e01b81523360048201526024016101d0565b6002604854141561079d5760405162461bcd60e51b815260206004820152601f60248201527f5265656e7472616e637947756172643a207265656e7472616e742063616c6c0060448201526064016101d0565b60026048556001600160a01b0383166000908152604c6020526040812080548492906107ca908490610c72565b90915550506001604855505050565b6001600160a01b0381166000908152604c6020526040812054610805906802b5e3af16b18800006108aa565b92915050565b600061081f6049546001600160a01b031690565b6001600160a01b03166321f8a7216003600001600b016040516108429190610c98565b60405190819003812060e083901b6001600160e01b03191682526004820152602401602060405180830381865afa158015610881573d6000803e3d6000fd5b505050506040513d601f19601f820116820180604052508101906108a59190610b8d565b905090565b60006108bf83670de0b6b3a7640000846109fa565b9392505050565b60006108da6049546001600160a01b031690565b6001600160a01b03166321f8a72160036000016008016040516108429190610c98565b60408051600280825260608083018452926000929190602083019080368337505060405191925061093191601a9150610c98565b60405180910390208160008151811061094c5761094c610d34565b602090810291909101015260405161096690601890610c98565b60405180910390208160018151811061098157610981610d34565b6020908102919091010152919050565b60408051600280825260608083018452926000929190602083019080368337019050509050670c7d713b49da0000816000815181106109d2576109d2610d34565b60200260200101818152505067016345785d8a00008160018151811061098157610981610d34565b600080806000198587098587029250828110838203039150508060001415610a3557838281610a2b57610a2b610d4a565b04925050506108bf565b838110610a5f57604051631dcf306360e21b815260048101829052602481018590526044016101d0565b600084868809600260036001881981018916988990049182028318808302840302808302840302808302840302808302840302808302840302918202909203026000889003889004909101858311909403939093029303949094049190911702949350505050565b6001600160a01b0381168114610adc57600080fd5b50565b600060208284031215610af157600080fd5b81356108bf81610ac7565b60008060408385031215610b0f57600080fd5b8235610b1a81610ac7565b946020939093013593505050565b600060208284031215610b3a57600080fd5b815180151581146108bf57600080fd5b7f7068616e746f6d2e636f6e74726163742e726567697374657265640000000000815260609190911b6bffffffffffffffffffffffff1916601b820152602f0190565b600060208284031215610b9f57600080fd5b81516108bf81610ac7565b600081518084526020808501945080840160005b83811015610bda57815187529582019590820190600101610bbe565b509495945050505050565b6001600160a01b0388811682526020808301899052878216604084015260608301879052908516608083015260e060a0830181905284519083018190526000918581019161010085019190845b81811015610c4e57845184529382019392820192600101610c32565b50505083810360c0850152610c638186610baa565b9b9a5050505050505050505050565b60008219821115610c9357634e487b7160e01b600052601160045260246000fd5b500190565b600080835481600182811c915080831680610cb457607f831692505b6020808410821415610cd457634e487b7160e01b86526022600452602486fd5b818015610ce85760018114610cf957610d26565b60ff19861689528489019650610d26565b60008a81526020902060005b86811015610d1e5781548b820152908501908301610d05565b505084890196505b509498975050505050505050565b634e487b7160e01b600052603260045260246000fd5b634e487b7160e01b600052601260045260246000fdfea264697066735822122000d8262318f6c55b32c3394e4fdd85965060384a1dcc72317f83ff08bfe3007164736f6c634300080a00337068616e746f6d2e626f6e64696e672e757365722e6c6f776573745f6e6f6e63655f7374696c6c5f76657374696e677068616e746f6d2e626f6e64696e672e757365722e6c6f776573745f61737369676e61626c655f6e6f6e63657068616e746f6d2e666f756e6465722e636c61696d732e72656d61696e696e67416d6f756e747068616e746f6d2e616c6c6f6361746f722e746f6b656e732e616464726573732e6461697068616e746f6d2e726f7574696e672e6465785f726f757465725f616464726573737068616e746f6d2e666f756e6465722e636c61696d732e696e697469616c416d6f756e747068616e746f6d2e74726561737572792e6163636f756e745f6b65792e76656e747572656361706974616c7068616e746f6d2e616c6c6f6361746f722e746f6b656e732e616464726573732e6461695f70686d5f6c707068616e746f6d2e726f7574696e672e73706f6f6b795f726f757465725f616464726573737068616e746f6d2e74726561737572792e617070726f7665642e65787465726e616c2e616464726573737068616e746f6d2e626f6e64696e672e757365722e66697273745f756e72656465656d65645f6e6f6e63657068616e746f6d2e726f7574696e672e7370697269745f726f757465725f616464726573737068616e746f6d2e616c6c6f6361746f722e746f6b656e732e64657374696e6174696f6e737068616e746f6d2e626f6e64696e672e76657374735f61745f74696d657374616d707068616e746f6d2e726f7574696e672e7370697269745f666163746f72795f616464726573737068616e746f6d2e616c6c6f6361746f722e746f6b656e732e646573745f70657263656e74616765737068616e746f6d2e74726561737572792e6163636f756e745f6b65792e72657365727665737068616e746f6d2e616c6c6f6361746f722e746f6b656e732e616464726573732e6d696d7068616e746f6d2e726f7574696e672e73706f6f6b795f666163746f72795f616464726573737068616e746f6d2e616c6c6f6361746f722e746f6b656e732e616464726573732e7766746d7068616e746f6d2e616c6c6f6361746f722e746f6b656e732e616464726573732e6465787068616e746f6d2e726f7574696e672e7370697269745f67617567655f616464726573737068616e746f6d2e666f756e6465722e636c61696d732e616c6c6f636174696f6e7068616e746f6d2e726f7574696e672e6465785f666163746f72795f616464726573737068616e746f6d2e676f7665726e6f722e71756f72756d50657263656e746167657068616e746f6d2e676f7665726e6f722e70726f706f73616c5468726573686f6c647068616e746f6d2e7374616b696e672e6e657874526562617365446561646c696e657068616e746f6d2e626f6e64696e672e72656d61696e696e675f7061796f75745f666f727068616e746f6d2e726f7574696e672e7370697269745f67617567655f70726f78795f61646472657373",
  "bytecodeSha1": "da39a3ee5e6b4b0d3255bfef95601890afd80709",
  "compiler": {
    "evm_version": "istanbul",
    "optimizer": {
      "enabled": true,
      "runs": 200
    },
    "version": "0.8.10+commit.fc410830"
  },
  "contractName": "PhantomAuctionClaim",
  "language": "Solidity",
  "natspec": {
    "author": "PhantomDao Team",
    "errors": {
      "PRBMath__MulDivOverflow(uint256,uint256)": [
        {
          "notice": "Emitted when the result overflows uint256."
        }
      ]
    },
    "kind": "dev",
    "methods": {
      "purchase(address)": {
        "details": "Issue claimer with aPHM tokens in return for frax"
      },
      "registerAllotment(address,uint256)": {
        "details": "register founder as having a claim to amount of FRAX (IE aPHM * PRICE)"
      }
    },
    "notice": "Claim allowed alotment of aPHM for 50 frax",
    "title": "PhantomWhitelist",
    "version": 1
  },
  "opcodes": "PUSH1 0x80 PUSH1 0x40 MSTORE CALLVALUE DUP1 ISZERO PUSH2 0x10 JUMPI PUSH1 0x0 DUP1 REVERT JUMPDEST POP PUSH1 0x4 CALLDATASIZE LT PUSH2 0x41 JUMPI PUSH1 0x0 CALLDATALOAD PUSH1 0xE0 SHR DUP1 PUSH4 0x25B31A97 EQ PUSH2 0x46 JUMPI DUP1 PUSH4 0xD21E4A2A EQ PUSH2 0x5B JUMPI DUP1 PUSH4 0xF66496DF EQ PUSH2 0x6E JUMPI JUMPDEST PUSH1 0x0 DUP1 REVERT JUMPDEST PUSH2 0x59 PUSH2 0x54 CALLDATASIZE PUSH1 0x4 PUSH2 0xADF JUMP JUMPDEST PUSH2 0x93 JUMP JUMPDEST STOP JUMPDEST PUSH2 0x59 PUSH2 0x69 CALLDATASIZE PUSH1 0x4 PUSH2 0xAFC JUMP JUMPDEST PUSH2 0x4BD JUMP JUMPDEST PUSH2 0x81 PUSH2 0x7C CALLDATASIZE PUSH1 0x4 PUSH2 0xADF JUMP JUMPDEST PUSH2 0x7D9 JUMP JUMPDEST PUSH1 0x40 MLOAD SWAP1 DUP2 MSTORE PUSH1 0x20 ADD PUSH1 0x40 MLOAD DUP1 SWAP2 SUB SWAP1 RETURN JUMPDEST PUSH1 0x0 PUSH2 0xA7 PUSH1 0x49 SLOAD PUSH1 0x1 PUSH1 0x1 PUSH1 0xA0 SHL SUB AND SWAP1 JUMP JUMPDEST PUSH1 0x1 PUSH1 0x1 PUSH1 0xA0 SHL SUB AND PUSH4 0x1BED5241 PUSH1 0x40 MLOAD DUP2 PUSH4 0xFFFFFFFF AND PUSH1 0xE0 SHL DUP2 MSTORE PUSH1 0x4 ADD PUSH1 0x20 PUSH1 0x40 MLOAD DUP1 DUP4 SUB DUP2 DUP7 GAS STATICCALL ISZERO DUP1 ISZERO PUSH2 0xE4 JUMPI RETURNDATASIZE PUSH1 0x0 DUP1 RETURNDATACOPY RETURNDATASIZE PUSH1 0x0 REVERT JUMPDEST POP POP POP POP PUSH1 0x40 MLOAD RETURNDATASIZE PUSH1 0x1F NOT PUSH1 0x1F DUP3 ADD AND DUP3 ADD DUP1 PUSH1 0x40 MSTORE POP DUP2 ADD SWAP1 PUSH2 0x108 SWAP2 SWAP1 PUSH2 0xB28 JUMP JUMPDEST SWAP1 POP PUSH1 0x1 DUP2 ISZERO ISZERO EQ ISZERO PUSH2 0x1DE JUMPI PUSH1 0x49 SLOAD PUSH1 0x1 PUSH1 0x1 PUSH1 0xA0 SHL SUB AND PUSH1 0x1 PUSH1 0x1 PUSH1 0xA0 SHL SUB AND PUSH4 0x7AE1CFCA CALLER PUSH1 0x40 MLOAD PUSH1 0x20 ADD PUSH2 0x140 SWAP2 SWAP1 PUSH2 0xB4A JUMP JUMPDEST PUSH1 0x40 MLOAD PUSH1 0x20 DUP2 DUP4 SUB SUB DUP2 MSTORE SWAP1 PUSH1 0x40 MSTORE DUP1 MLOAD SWAP1 PUSH1 0x20 ADD KECCAK256 PUSH1 0x40 MLOAD DUP3 PUSH4 0xFFFFFFFF AND PUSH1 0xE0 SHL DUP2 MSTORE PUSH1 0x4 ADD PUSH2 0x174 SWAP2 DUP2 MSTORE PUSH1 0x20 ADD SWAP1 JUMP JUMPDEST PUSH1 0x20 PUSH1 0x40 MLOAD DUP1 DUP4 SUB DUP2 DUP7 GAS STATICCALL ISZERO DUP1 ISZERO PUSH2 0x191 JUMPI RETURNDATASIZE PUSH1 0x0 DUP1 RETURNDATACOPY RETURNDATASIZE PUSH1 0x0 REVERT JUMPDEST POP POP POP POP PUSH1 0x40 MLOAD RETURNDATASIZE PUSH1 0x1F NOT PUSH1 0x1F DUP3 ADD AND DUP3 ADD DUP1 PUSH1 0x40 MSTORE POP DUP2 ADD SWAP1 PUSH2 0x1B5 SWAP2 SWAP1 PUSH2 0xB28 JUMP JUMPDEST PUSH2 0x1D9 JUMPI PUSH1 0x40 MLOAD PUSH4 0x372463E3 PUSH1 0xE0 SHL DUP2 MSTORE CALLER PUSH1 0x4 DUP3 ADD MSTORE PUSH1 0x24 ADD JUMPDEST PUSH1 0x40 MLOAD DUP1 SWAP2 SUB SWAP1 REVERT JUMPDEST PUSH2 0x325 JUMP JUMPDEST PUSH1 0x49 SLOAD PUSH1 0x1 PUSH1 0x1 PUSH1 0xA0 SHL SUB AND PUSH1 0x1 PUSH1 0x1 PUSH1 0xA0 SHL SUB AND PUSH4 0x7AE1CFCA CALLER PUSH1 0x40 MLOAD PUSH1 0x20 ADD PUSH2 0x209 SWAP2 SWAP1 PUSH2 0xB4A JUMP JUMPDEST PUSH1 0x40 MLOAD PUSH1 0x20 DUP2 DUP4 SUB SUB DUP2 MSTORE SWAP1 PUSH1 0x40 MSTORE DUP1 MLOAD SWAP1 PUSH1 0x20 ADD KECCAK256 PUSH1 0x40 MLOAD DUP3 PUSH4 0xFFFFFFFF AND PUSH1 0xE0 SHL DUP2 MSTORE PUSH1 0x4 ADD PUSH2 0x23D SWAP2 DUP2 MSTORE PUSH1 0x20 ADD SWAP1 JUMP JUMPDEST PUSH1 0x20 PUSH1 0x40 MLOAD DUP1 DUP4 SUB DUP2 DUP7 GAS STATICCALL ISZERO DUP1 ISZERO PUSH2 0x25A JUMPI RETURNDATASIZE PUSH1 0x0 DUP1 RETURNDATACOPY RETURNDATASIZE PUSH1 0x0 REVERT JUMPDEST POP POP POP POP PUSH1 0x40 MLOAD RETURNDATASIZE PUSH1 0x1F NOT PUSH1 0x1F DUP3 ADD AND DUP3 ADD DUP1 PUSH1 0x40 MSTORE POP DUP2 ADD SWAP1 PUSH2 0x27E SWAP2 SWAP1 PUSH2 0xB28 JUMP JUMPDEST DUP1 PUSH2 0x306 JUMPI POP PUSH1 0x49 SLOAD PUSH1 0x1 PUSH1 0x1 PUSH1 0xA0 SHL SUB AND PUSH1 0x1 PUSH1 0x1 PUSH1 0xA0 SHL SUB AND PUSH4 0xA75B87D2 PUSH1 0x40 MLOAD DUP2 PUSH4 0xFFFFFFFF AND PUSH1 0xE0 SHL DUP2 MSTORE PUSH1 0x4 ADD PUSH1 0x20 PUSH1 0x40 MLOAD DUP1 DUP4 SUB DUP2 DUP7 GAS STATICCALL ISZERO DUP1 ISZERO PUSH2 0x2CD JUMPI RETURNDATASIZE PUSH1 0x0 DUP1 RETURNDATACOPY RETURNDATASIZE PUSH1 0x0 REVERT JUMPDEST POP POP POP POP PUSH1 0x40 MLOAD RETURNDATASIZE PUSH1 0x1F NOT PUSH1 0x1F DUP3 ADD AND DUP3 ADD DUP1 PUSH1 0x40 MSTORE POP DUP2 ADD SWAP1 PUSH2 0x2F1 SWAP2 SWAP1 PUSH2 0xB8D JUMP JUMPDEST PUSH1 0x1 PUSH1 0x1 PUSH1 0xA0 SHL SUB AND ORIGIN PUSH1 0x1 PUSH1 0x1 PUSH1 0xA0 SHL SUB AND EQ JUMPDEST PUSH2 0x325 JUMPI PUSH1 0x40 MLOAD PUSH4 0x372463E3 PUSH1 0xE0 SHL DUP2 MSTORE CALLER PUSH1 0x4 DUP3 ADD MSTORE PUSH1 0x24 ADD PUSH2 0x1D0 JUMP JUMPDEST PUSH1 0x2 PUSH1 0x48 SLOAD EQ ISZERO PUSH2 0x378 JUMPI PUSH1 0x40 MLOAD PUSH3 0x461BCD PUSH1 0xE5 SHL DUP2 MSTORE PUSH1 0x20 PUSH1 0x4 DUP3 ADD MSTORE PUSH1 0x1F PUSH1 0x24 DUP3 ADD MSTORE PUSH32 0x5265656E7472616E637947756172643A207265656E7472616E742063616C6C00 PUSH1 0x44 DUP3 ADD MSTORE PUSH1 0x64 ADD PUSH2 0x1D0 JUMP JUMPDEST PUSH1 0x2 PUSH1 0x48 SSTORE PUSH1 0x1 PUSH1 0x1 PUSH1 0xA0 SHL SUB DUP3 AND PUSH1 0x0 SWAP1 DUP2 MSTORE PUSH1 0x4C PUSH1 0x20 MSTORE PUSH1 0x40 SWAP1 KECCAK256 SLOAD DUP1 PUSH2 0x3F9 JUMPI PUSH1 0x40 MLOAD PUSH3 0x461BCD PUSH1 0xE5 SHL DUP2 MSTORE PUSH1 0x20 PUSH1 0x4 DUP3 ADD MSTORE PUSH1 0x2D PUSH1 0x24 DUP3 ADD MSTORE PUSH32 0x5068616E746F6D41756374696F6E436C61696D3A204E6F206150484D20746F6B PUSH1 0x44 DUP3 ADD MSTORE PUSH13 0x195B9CC8185B1B1BD8D85D1959 PUSH1 0x9A SHL PUSH1 0x64 DUP3 ADD MSTORE PUSH1 0x84 ADD PUSH2 0x1D0 JUMP JUMPDEST PUSH2 0x401 PUSH2 0x80B JUMP JUMPDEST PUSH1 0x4B SLOAD PUSH1 0x1 PUSH1 0x1 PUSH1 0xA0 SHL SUB SWAP2 DUP3 AND SWAP2 PUSH4 0xDDF0A2C4 SWAP2 DUP7 SWAP2 DUP6 SWAP2 AND PUSH2 0x42E DUP3 PUSH9 0x2B5E3AF16B1880000 PUSH2 0x8AA JUMP JUMPDEST PUSH2 0x436 PUSH2 0x8C6 JUMP JUMPDEST PUSH2 0x43E PUSH2 0x8FD JUMP JUMPDEST PUSH2 0x446 PUSH2 0x991 JUMP JUMPDEST PUSH1 0x40 MLOAD DUP9 PUSH4 0xFFFFFFFF AND PUSH1 0xE0 SHL DUP2 MSTORE PUSH1 0x4 ADD PUSH2 0x468 SWAP8 SWAP7 SWAP6 SWAP5 SWAP4 SWAP3 SWAP2 SWAP1 PUSH2 0xBE5 JUMP JUMPDEST PUSH1 0x0 PUSH1 0x40 MLOAD DUP1 DUP4 SUB DUP2 PUSH1 0x0 DUP8 DUP1 EXTCODESIZE ISZERO DUP1 ISZERO PUSH2 0x482 JUMPI PUSH1 0x0 DUP1 REVERT JUMPDEST POP GAS CALL ISZERO DUP1 ISZERO PUSH2 0x496 JUMPI RETURNDATASIZE PUSH1 0x0 DUP1 RETURNDATACOPY RETURNDATASIZE PUSH1 0x0 REVERT JUMPDEST POP POP POP PUSH1 0x1 PUSH1 0x1 PUSH1 0xA0 SHL SUB SWAP1 SWAP4 AND PUSH1 0x0 SWAP1 DUP2 MSTORE PUSH1 0x4C PUSH1 0x20 MSTORE PUSH1 0x40 DUP2 KECCAK256 SSTORE POP POP PUSH1 0x1 PUSH1 0x48 SSTORE POP JUMP JUMPDEST PUSH1 0x0 PUSH2 0x4D1 PUSH1 0x49 SLOAD PUSH1 0x1 PUSH1 0x1 PUSH1 0xA0 SHL SUB AND SWAP1 JUMP JUMPDEST PUSH1 0x1 PUSH1 0x1 PUSH1 0xA0 SHL SUB AND PUSH4 0x1BED5241 PUSH1 0x40 MLOAD DUP2 PUSH4 0xFFFFFFFF AND PUSH1 0xE0 SHL DUP2 MSTORE PUSH1 0x4 ADD PUSH1 0x20 PUSH1 0x40 MLOAD DUP1 DUP4 SUB DUP2 DUP7 GAS STATICCALL ISZERO DUP1 ISZERO PUSH2 0x50E JUMPI RETURNDATASIZE PUSH1 0x0 DUP1 RETURNDATACOPY RETURNDATASIZE PUSH1 0x0 REVERT JUMPDEST POP POP POP POP PUSH1 0x40 MLOAD RETURNDATASIZE PUSH1 0x1F NOT PUSH1 0x1F DUP3 ADD AND DUP3 ADD DUP1 PUSH1 0x40 MSTORE POP DUP2 ADD SWAP1 PUSH2 0x532 SWAP2 SWAP1 PUSH2 0xB28 JUMP JUMPDEST SWAP1 POP PUSH1 0x1 DUP2 ISZERO ISZERO EQ ISZERO PUSH2 0x603 JUMPI PUSH1 0x49 SLOAD PUSH1 0x1 PUSH1 0x1 PUSH1 0xA0 SHL SUB AND PUSH1 0x1 PUSH1 0x1 PUSH1 0xA0 SHL SUB AND PUSH4 0x7AE1CFCA CALLER PUSH1 0x40 MLOAD PUSH1 0x20 ADD PUSH2 0x56A SWAP2 SWAP1 PUSH2 0xB4A JUMP JUMPDEST PUSH1 0x40 MLOAD PUSH1 0x20 DUP2 DUP4 SUB SUB DUP2 MSTORE SWAP1 PUSH1 0x40 MSTORE DUP1 MLOAD SWAP1 PUSH1 0x20 ADD KECCAK256 PUSH1 0x40 MLOAD DUP3 PUSH4 0xFFFFFFFF AND PUSH1 0xE0 SHL DUP2 MSTORE PUSH1 0x4 ADD PUSH2 0x59E SWAP2 DUP2 MSTORE PUSH1 0x20 ADD SWAP1 JUMP JUMPDEST PUSH1 0x20 PUSH1 0x40 MLOAD DUP1 DUP4 SUB DUP2 DUP7 GAS STATICCALL ISZERO DUP1 ISZERO PUSH2 0x5BB JUMPI RETURNDATASIZE PUSH1 0x0 DUP1 RETURNDATACOPY RETURNDATASIZE PUSH1 0x0 REVERT JUMPDEST POP POP POP POP PUSH1 0x40 MLOAD RETURNDATASIZE PUSH1 0x1F NOT PUSH1 0x1F DUP3 ADD AND DUP3 ADD DUP1 PUSH1 0x40 MSTORE POP DUP2 ADD SWAP1 PUSH2 0x5DF SWAP2 SWAP1 PUSH2 0xB28 JUMP JUMPDEST PUSH2 0x5FE JUMPI PUSH1 0x40 MLOAD PUSH4 0x372463E3 PUSH1 0xE0 SHL DUP2 MSTORE CALLER PUSH1 0x4 DUP3 ADD MSTORE PUSH1 0x24 ADD PUSH2 0x1D0 JUMP JUMPDEST PUSH2 0x74A JUMP JUMPDEST PUSH1 0x49 SLOAD PUSH1 0x1 PUSH1 0x1 PUSH1 0xA0 SHL SUB AND PUSH1 0x1 PUSH1 0x1 PUSH1 0xA0 SHL SUB AND PUSH4 0x7AE1CFCA CALLER PUSH1 0x40 MLOAD PUSH1 0x20 ADD PUSH2 0x62E SWAP2 SWAP1 PUSH2 0xB4A JUMP JUMPDEST PUSH1 0x40 MLOAD PUSH1 0x20 DUP2 DUP4 SUB SUB DUP2 MSTORE SWAP1 PUSH1 0x40 MSTORE DUP1 MLOAD SWAP1 PUSH1 0x20 ADD KECCAK256 PUSH1 0x40 MLOAD DUP3 PUSH4 0xFFFFFFFF AND PUSH1 0xE0 SHL DUP2 MSTORE PUSH1 0x4 ADD PUSH2 0x662 SWAP2 DUP2 MSTORE PUSH1 0x20 ADD SWAP1 JUMP JUMPDEST PUSH1 0x20 PUSH1 0x40 MLOAD DUP1 DUP4 SUB DUP2 DUP7 GAS STATICCALL ISZERO DUP1 ISZERO PUSH2 0x67F JUMPI RETURNDATASIZE PUSH1 0x0 DUP1 RETURNDATACOPY RETURNDATASIZE PUSH1 0x0 REVERT JUMPDEST POP POP POP POP PUSH1 0x40 MLOAD RETURNDATASIZE PUSH1 0x1F NOT PUSH1 0x1F DUP3 ADD AND DUP3 ADD DUP1 PUSH1 0x40 MSTORE POP DUP2 ADD SWAP1 PUSH2 0x6A3 SWAP2 SWAP1 PUSH2 0xB28 JUMP JUMPDEST DUP1 PUSH2 0x72B JUMPI POP PUSH1 0x49 SLOAD PUSH1 0x1 PUSH1 0x1 PUSH1 0xA0 SHL SUB AND PUSH1 0x1 PUSH1 0x1 PUSH1 0xA0 SHL SUB AND PUSH4 0xA75B87D2 PUSH1 0x40 MLOAD DUP2 PUSH4 0xFFFFFFFF AND PUSH1 0xE0 SHL DUP2 MSTORE PUSH1 0x4 ADD PUSH1 0x20 PUSH1 0x40 MLOAD DUP1 DUP4 SUB DUP2 DUP7 GAS STATICCALL ISZERO DUP1 ISZERO PUSH2 0x6F2 JUMPI RETURNDATASIZE PUSH1 0x0 DUP1 RETURNDATACOPY RETURNDATASIZE PUSH1 0x0 REVERT JUMPDEST POP POP POP POP PUSH1 0x40 MLOAD RETURNDATASIZE PUSH1 0x1F NOT PUSH1 0x1F DUP3 ADD AND DUP3 ADD DUP1 PUSH1 0x40 MSTORE POP DUP2 ADD SWAP1 PUSH2 0x716 SWAP2 SWAP1 PUSH2 0xB8D JUMP JUMPDEST PUSH1 0x1 PUSH1 0x1 PUSH1 0xA0 SHL SUB AND ORIGIN PUSH1 0x1 PUSH1 0x1 PUSH1 0xA0 SHL SUB AND EQ JUMPDEST PUSH2 0x74A JUMPI PUSH1 0x40 MLOAD PUSH4 0x372463E3 PUSH1 0xE0 SHL DUP2 MSTORE CALLER PUSH1 0x4 DUP3 ADD MSTORE PUSH1 0x24 ADD PUSH2 0x1D0 JUMP JUMPDEST PUSH1 0x2 PUSH1 0x48 SLOAD EQ ISZERO PUSH2 0x79D JUMPI PUSH1 0x40 MLOAD PUSH3 0x461BCD PUSH1 0xE5 SHL DUP2 MSTORE PUSH1 0x20 PUSH1 0x4 DUP3 ADD MSTORE PUSH1 0x1F PUSH1 0x24 DUP3 ADD MSTORE PUSH32 0x5265656E7472616E637947756172643A207265656E7472616E742063616C6C00 PUSH1 0x44 DUP3 ADD MSTORE PUSH1 0x64 ADD PUSH2 0x1D0 JUMP JUMPDEST PUSH1 0x2 PUSH1 0x48 SSTORE PUSH1 0x1 PUSH1 0x1 PUSH1 0xA0 SHL SUB DUP4 AND PUSH1 0x0 SWAP1 DUP2 MSTORE PUSH1 0x4C PUSH1 0x20 MSTORE PUSH1 0x40 DUP2 KECCAK256 DUP1 SLOAD DUP5 SWAP3 SWAP1 PUSH2 0x7CA SWAP1 DUP5 SWAP1 PUSH2 0xC72 JUMP JUMPDEST SWAP1 SWAP2 SSTORE POP POP PUSH1 0x1 PUSH1 0x48 SSTORE POP POP POP JUMP JUMPDEST PUSH1 0x1 PUSH1 0x1 PUSH1 0xA0 SHL SUB DUP2 AND PUSH1 0x0 SWAP1 DUP2 MSTORE PUSH1 0x4C PUSH1 0x20 MSTORE PUSH1 0x40 DUP2 KECCAK256 SLOAD PUSH2 0x805 SWAP1 PUSH9 0x2B5E3AF16B1880000 PUSH2 0x8AA JUMP JUMPDEST SWAP3 SWAP2 POP POP JUMP JUMPDEST PUSH1 0x0 PUSH2 0x81F PUSH1 0x49 SLOAD PUSH1 0x1 PUSH1 0x1 PUSH1 0xA0 SHL SUB AND SWAP1 JUMP JUMPDEST PUSH1 0x1 PUSH1 0x1 PUSH1 0xA0 SHL SUB AND PUSH4 0x21F8A721 PUSH1 0x3 PUSH1 0x0 ADD PUSH1 0xB ADD PUSH1 0x40 MLOAD PUSH2 0x842 SWAP2 SWAP1 PUSH2 0xC98 JUMP JUMPDEST PUSH1 0x40 MLOAD SWAP1 DUP2 SWAP1 SUB DUP2 KECCAK256 PUSH1 0xE0 DUP4 SWAP1 SHL PUSH1 0x1 PUSH1 0x1 PUSH1 0xE0 SHL SUB NOT AND DUP3 MSTORE PUSH1 0x4 DUP3 ADD MSTORE PUSH1 0x24 ADD PUSH1 0x20 PUSH1 0x40 MLOAD DUP1 DUP4 SUB DUP2 DUP7 GAS STATICCALL ISZERO DUP1 ISZERO PUSH2 0x881 JUMPI RETURNDATASIZE PUSH1 0x0 DUP1 RETURNDATACOPY RETURNDATASIZE PUSH1 0x0 REVERT JUMPDEST POP POP POP POP PUSH1 0x40 MLOAD RETURNDATASIZE PUSH1 0x1F NOT PUSH1 0x1F DUP3 ADD AND DUP3 ADD DUP1 PUSH1 0x40 MSTORE POP DUP2 ADD SWAP1 PUSH2 0x8A5 SWAP2 SWAP1 PUSH2 0xB8D JUMP JUMPDEST SWAP1 POP SWAP1 JUMP JUMPDEST PUSH1 0x0 PUSH2 0x8BF DUP4 PUSH8 0xDE0B6B3A7640000 DUP5 PUSH2 0x9FA JUMP JUMPDEST SWAP4 SWAP3 POP POP POP JUMP JUMPDEST PUSH1 0x0 PUSH2 0x8DA PUSH1 0x49 SLOAD PUSH1 0x1 PUSH1 0x1 PUSH1 0xA0 SHL SUB AND SWAP1 JUMP JUMPDEST PUSH1 0x1 PUSH1 0x1 PUSH1 0xA0 SHL SUB AND PUSH4 0x21F8A721 PUSH1 0x3 PUSH1 0x0 ADD PUSH1 0x8 ADD PUSH1 0x40 MLOAD PUSH2 0x842 SWAP2 SWAP1 PUSH2 0xC98 JUMP JUMPDEST PUSH1 0x40 DUP1 MLOAD PUSH1 0x2 DUP1 DUP3 MSTORE PUSH1 0x60 DUP1 DUP4 ADD DUP5 MSTORE SWAP3 PUSH1 0x0 SWAP3 SWAP2 SWAP1 PUSH1 0x20 DUP4 ADD SWAP1 DUP1 CALLDATASIZE DUP4 CALLDATACOPY POP POP PUSH1 0x40 MLOAD SWAP2 SWAP3 POP PUSH2 0x931 SWAP2 PUSH1 0x1A SWAP2 POP PUSH2 0xC98 JUMP JUMPDEST PUSH1 0x40 MLOAD DUP1 SWAP2 SUB SWAP1 KECCAK256 DUP2 PUSH1 0x0 DUP2 MLOAD DUP2 LT PUSH2 0x94C JUMPI PUSH2 0x94C PUSH2 0xD34 JUMP JUMPDEST PUSH1 0x20 SWAP1 DUP2 MUL SWAP2 SWAP1 SWAP2 ADD ADD MSTORE PUSH1 0x40 MLOAD PUSH2 0x966 SWAP1 PUSH1 0x18 SWAP1 PUSH2 0xC98 JUMP JUMPDEST PUSH1 0x40 MLOAD DUP1 SWAP2 SUB SWAP1 KECCAK256 DUP2 PUSH1 0x1 DUP2 MLOAD DUP2 LT PUSH2 0x981 JUMPI PUSH2 0x981 PUSH2 0xD34 JUMP JUMPDEST PUSH1 0x20 SWAP1 DUP2 MUL SWAP2 SWAP1 SWAP2 ADD ADD MSTORE SWAP2 SWAP1 POP JUMP JUMPDEST PUSH1 0x40 DUP1 MLOAD PUSH1 0x2 DUP1 DUP3 MSTORE PUSH1 0x60 DUP1 DUP4 ADD DUP5 MSTORE SWAP3 PUSH1 0x0 SWAP3 SWAP2 SWAP1 PUSH1 0x20 DUP4 ADD SWAP1 DUP1 CALLDATASIZE DUP4 CALLDATACOPY ADD SWAP1 POP POP SWAP1 POP PUSH8 0xC7D713B49DA0000 DUP2 PUSH1 0x0 DUP2 MLOAD DUP2 LT PUSH2 0x9D2 JUMPI PUSH2 0x9D2 PUSH2 0xD34 JUMP JUMPDEST PUSH1 0x20 MUL PUSH1 0x20 ADD ADD DUP2 DUP2 MSTORE POP POP PUSH8 0x16345785D8A0000 DUP2 PUSH1 0x1 DUP2 MLOAD DUP2 LT PUSH2 0x981 JUMPI PUSH2 0x981 PUSH2 0xD34 JUMP JUMPDEST PUSH1 0x0 DUP1 DUP1 PUSH1 0x0 NOT DUP6 DUP8 MULMOD DUP6 DUP8 MUL SWAP3 POP DUP3 DUP2 LT DUP4 DUP3 SUB SUB SWAP2 POP POP DUP1 PUSH1 0x0 EQ ISZERO PUSH2 0xA35 JUMPI DUP4 DUP3 DUP2 PUSH2 0xA2B JUMPI PUSH2 0xA2B PUSH2 0xD4A JUMP JUMPDEST DIV SWAP3 POP POP POP PUSH2 0x8BF JUMP JUMPDEST DUP4 DUP2 LT PUSH2 0xA5F JUMPI PUSH1 0x40 MLOAD PUSH4 0x1DCF3063 PUSH1 0xE2 SHL DUP2 MSTORE PUSH1 0x4 DUP2 ADD DUP3 SWAP1 MSTORE PUSH1 0x24 DUP2 ADD DUP6 SWAP1 MSTORE PUSH1 0x44 ADD PUSH2 0x1D0 JUMP JUMPDEST PUSH1 0x0 DUP5 DUP7 DUP9 MULMOD PUSH1 0x2 PUSH1 0x3 PUSH1 0x1 DUP9 NOT DUP2 ADD DUP10 AND SWAP9 DUP10 SWAP1 DIV SWAP2 DUP3 MUL DUP4 XOR DUP1 DUP4 MUL DUP5 SUB MUL DUP1 DUP4 MUL DUP5 SUB MUL DUP1 DUP4 MUL DUP5 SUB MUL DUP1 DUP4 MUL DUP5 SUB MUL DUP1 DUP4 MUL DUP5 SUB MUL SWAP2 DUP3 MUL SWAP1 SWAP3 SUB MUL PUSH1 0x0 DUP9 SWAP1 SUB DUP9 SWAP1 DIV SWAP1 SWAP2 ADD DUP6 DUP4 GT SWAP1 SWAP5 SUB SWAP4 SWAP1 SWAP4 MUL SWAP4 SUB SWAP5 SWAP1 SWAP5 DIV SWAP2 SWAP1 SWAP2 OR MUL SWAP5 SWAP4 POP POP POP POP JUMP JUMPDEST PUSH1 0x1 PUSH1 0x1 PUSH1 0xA0 SHL SUB DUP2 AND DUP2 EQ PUSH2 0xADC JUMPI PUSH1 0x0 DUP1 REVERT JUMPDEST POP JUMP JUMPDEST PUSH1 0x0 PUSH1 0x20 DUP3 DUP5 SUB SLT ISZERO PUSH2 0xAF1 JUMPI PUSH1 0x0 DUP1 REVERT JUMPDEST DUP2 CALLDATALOAD PUSH2 0x8BF DUP2 PUSH2 0xAC7 JUMP JUMPDEST PUSH1 0x0 DUP1 PUSH1 0x40 DUP4 DUP6 SUB SLT ISZERO PUSH2 0xB0F JUMPI PUSH1 0x0 DUP1 REVERT JUMPDEST DUP3 CALLDATALOAD PUSH2 0xB1A DUP2 PUSH2 0xAC7 JUMP JUMPDEST SWAP5 PUSH1 0x20 SWAP4 SWAP1 SWAP4 ADD CALLDATALOAD SWAP4 POP POP POP JUMP JUMPDEST PUSH1 0x0 PUSH1 0x20 DUP3 DUP5 SUB SLT ISZERO PUSH2 0xB3A JUMPI PUSH1 0x0 DUP1 REVERT JUMPDEST DUP2 MLOAD DUP1 ISZERO ISZERO DUP2 EQ PUSH2 0x8BF JUMPI PUSH1 0x0 DUP1 REVERT JUMPDEST PUSH32 0x7068616E746F6D2E636F6E74726163742E726567697374657265640000000000 DUP2 MSTORE PUSH1 0x60 SWAP2 SWAP1 SWAP2 SHL PUSH12 0xFFFFFFFFFFFFFFFFFFFFFFFF NOT AND PUSH1 0x1B DUP3 ADD MSTORE PUSH1 0x2F ADD SWAP1 JUMP JUMPDEST PUSH1 0x0 PUSH1 0x20 DUP3 DUP5 SUB SLT ISZERO PUSH2 0xB9F JUMPI PUSH1 0x0 DUP1 REVERT JUMPDEST DUP2 MLOAD PUSH2 0x8BF DUP2 PUSH2 0xAC7 JUMP JUMPDEST PUSH1 0x0 DUP2 MLOAD DUP1 DUP5 MSTORE PUSH1 0x20 DUP1 DUP6 ADD SWAP5 POP DUP1 DUP5 ADD PUSH1 0x0 JUMPDEST DUP4 DUP2 LT ISZERO PUSH2 0xBDA JUMPI DUP2 MLOAD DUP8 MSTORE SWAP6 DUP3 ADD SWAP6 SWAP1 DUP3 ADD SWAP1 PUSH1 0x1 ADD PUSH2 0xBBE JUMP JUMPDEST POP SWAP5 SWAP6 SWAP5 POP POP POP POP POP JUMP JUMPDEST PUSH1 0x1 PUSH1 0x1 PUSH1 0xA0 SHL SUB DUP9 DUP2 AND DUP3 MSTORE PUSH1 0x20 DUP1 DUP4 ADD DUP10 SWAP1 MSTORE DUP8 DUP3 AND PUSH1 0x40 DUP5 ADD MSTORE PUSH1 0x60 DUP4 ADD DUP8 SWAP1 MSTORE SWAP1 DUP6 AND PUSH1 0x80 DUP4 ADD MSTORE PUSH1 0xE0 PUSH1 0xA0 DUP4 ADD DUP2 SWAP1 MSTORE DUP5 MLOAD SWAP1 DUP4 ADD DUP2 SWAP1 MSTORE PUSH1 0x0 SWAP2 DUP6 DUP2 ADD SWAP2 PUSH2 0x100 DUP6 ADD SWAP2 SWAP1 DUP5 JUMPDEST DUP2 DUP2 LT ISZERO PUSH2 0xC4E JUMPI DUP5 MLOAD DUP5 MSTORE SWAP4 DUP3 ADD SWAP4 SWAP3 DUP3 ADD SWAP3 PUSH1 0x1 ADD PUSH2 0xC32 JUMP JUMPDEST POP POP POP DUP4 DUP2 SUB PUSH1 0xC0 DUP6 ADD MSTORE PUSH2 0xC63 DUP2 DUP7 PUSH2 0xBAA JUMP JUMPDEST SWAP12 SWAP11 POP POP POP POP POP POP POP POP POP POP POP JUMP JUMPDEST PUSH1 0x0 DUP3 NOT DUP3 GT ISZERO PUSH2 0xC93 JUMPI PUSH4 0x4E487B71 PUSH1 0xE0 SHL PUSH1 0x0 MSTORE PUSH1 0x11 PUSH1 0x4 MSTORE PUSH1 0x24 PUSH1 0x0 REVERT JUMPDEST POP ADD SWAP1 JUMP JUMPDEST PUSH1 0x0 DUP1 DUP4 SLOAD DUP2 PUSH1 0x1 DUP3 DUP2 SHR SWAP2 POP DUP1 DUP4 AND DUP1 PUSH2 0xCB4 JUMPI PUSH1 0x7F DUP4 AND SWAP3 POP JUMPDEST PUSH1 0x20 DUP1 DUP5 LT DUP3 EQ ISZERO PUSH2 0xCD4 JUMPI PUSH4 0x4E487B71 PUSH1 0xE0 SHL DUP7 MSTORE PUSH1 0x22 PUSH1 0x4 MSTORE PUSH1 0x24 DUP7 REVERT JUMPDEST DUP2 DUP1 ISZERO PUSH2 0xCE8 JUMPI PUSH1 0x1 DUP2 EQ PUSH2 0xCF9 JUMPI PUSH2 0xD26 JUMP JUMPDEST PUSH1 0xFF NOT DUP7 AND DUP10 MSTORE DUP5 DUP10 ADD SWAP7 POP PUSH2 0xD26 JUMP JUMPDEST PUSH1 0x0 DUP11 DUP2 MSTORE PUSH1 0x20 SWAP1 KECCAK256 PUSH1 0x0 JUMPDEST DUP7 DUP2 LT ISZERO PUSH2 0xD1E JUMPI DUP2 SLOAD DUP12 DUP3 ADD MSTORE SWAP1 DUP6 ADD SWAP1 DUP4 ADD PUSH2 0xD05 JUMP JUMPDEST POP POP DUP5 DUP10 ADD SWAP7 POP JUMPDEST POP SWAP5 SWAP9 SWAP8 POP POP POP POP POP POP POP POP JUMP JUMPDEST PUSH4 0x4E487B71 PUSH1 0xE0 SHL PUSH1 0x0 MSTORE PUSH1 0x32 PUSH1 0x4 MSTORE PUSH1 0x24 PUSH1 0x0 REVERT JUMPDEST PUSH4 0x4E487B71 PUSH1 0xE0 SHL PUSH1 0x0 MSTORE PUSH1 0x12 PUSH1 0x4 MSTORE PUSH1 0x24 PUSH1 0x0 REVERT INVALID LOG2 PUSH5 0x6970667358 0x22 SLT KECCAK256 STOP 0xD8 0x26 0x23 XOR 0xF6 0xC5 JUMPDEST ORIGIN 0xC3 CODECOPY 0x4E 0x4F 0xDD DUP6 SWAP7 POP PUSH1 0x38 0x4A SAR 0xCC PUSH19 0x317F83FF08BFE3007164736F6C634300080A00 CALLER ",
  "sha1": "2836f54db0c07bab769da04f9f89365633453dd4",
  "source": "/* SPDX-License-Identifier: MIT */\npragma solidity =0.8.10;\n\n/* Package Imports */\nimport {PRBMathUD60x18} from \"@hifi-finance/prb-math/contracts/PRBMathUD60x18.sol\";\nimport {SafeERC20} from \"@openzeppelin/contracts/token/ERC20/utils/SafeERC20.sol\";\n\n/* Internal Imports */\nimport {PhantomStorageMixin} from \"../../mixins/PhantomStorageMixin.sol\";\n\n/* Internal Interface Imports */\nimport {IaPHM} from \"../../../interfaces/core/erc20/IaPHM.sol\";\nimport {IPhantomAuctionClaim} from \"../../../interfaces/level0/launch/IPhantomAuctionClaim.sol\";\n\n/**\n * @title PhantomWhitelist\n * @author PhantomDao Team\n * @notice Claim allowed alotment of aPHM for 50 frax\n */\ncontract PhantomAuctionClaim is PhantomStorageMixin, IPhantomAuctionClaim {\n    using PRBMathUD60x18 for uint256;\n    using SafeERC20 for IaPHM;\n\n    uint256 internal constant PRICE = 50e18;\n    address internal _token;\n    mapping(address => uint256) internal allotments;\n\n    constructor(address storageFactoryAddress, address token) PhantomStorageMixin(storageFactoryAddress) {\n        _token = token;\n        return;\n    }\n\n    //=================================================================================================================\n    // External Functionss\n    //=================================================================================================================\n\n    /**\n     * @dev register founder as having a claim to amount of FRAX (IE aPHM * PRICE)\n     */\n    function registerAllotment(address claimer, uint256 amount) external override onlyRegisteredContracts nonReentrant {\n        allotments[claimer] += amount;\n    }\n\n    /**\n     * @dev Issue claimer with aPHM tokens in return for frax\n     */\n    function purchase(address claimer) external override onlyRegisteredContracts nonReentrant {\n        uint256 amount = allotments[claimer];\n        require(amount > 0, \"PhantomAuctionClaim: No aPHM tokens allocated\");\n\n        PhantomTreasury().swapMint(\n            claimer,\n            amount,\n            _token,\n            amount.div(PRICE),\n            address(aPHM()),\n            standardAccountKeys(),\n            standardAccountPercentages()\n        );\n        delete allotments[claimer];\n    }\n\n\n    //=================================================================================================================\n    // Public Functionss\n    //=================================================================================================================\n\n    function remainingAllotment(address claimer) public view override returns (uint256) {\n        return allotments[claimer].div(PRICE);\n    }\n}",
  "sourcePath": "contracts/level0/launch/PhantomAuctionClaim.sol",
  "type": "contract"
}