{
  "abi": [
    {
      "inputs": [
        {
          "internalType": "address",
          "name": "storageFactoryAddress",
          "type": "address"
        }
      ],
      "stateMutability": "nonpayable",
      "type": "constructor"
    },
    {
      "inputs": [
        {
          "internalType": "uint256",
          "name": "prod1",
          "type": "uint256"
        }
      ],
      "name": "PRBMath__MulDivFixedPointOverflow",
      "type": "error"
    },
    {
      "inputs": [
        {
          "internalType": "address",
          "name": "contractAddress",
          "type": "address"
        }
      ],
      "name": "PhantomStorageMixin__ContractNotFoundByAddressOrIsOutdated",
      "type": "error"
    },
    {
      "inputs": [
        {
          "internalType": "bytes32",
          "name": "contractName",
          "type": "bytes32"
        }
      ],
      "name": "PhantomStorageMixin__ContractNotFoundByNameOrIsOutdated",
      "type": "error"
    },
    {
      "inputs": [
        {
          "internalType": "address",
          "name": "user",
          "type": "address"
        }
      ],
      "name": "PhantomStorageMixin__UserIsNotGuardian",
      "type": "error"
    },
    {
      "inputs": [
        {
          "internalType": "address",
          "name": "target",
          "type": "address"
        },
        {
          "internalType": "uint256",
          "name": "value",
          "type": "uint256"
        },
        {
          "internalType": "bytes",
          "name": "data",
          "type": "bytes"
        }
      ],
      "name": "PhantomTreasury_ExternalCallReverted",
      "type": "error"
    },
    {
      "inputs": [
        {
          "internalType": "uint256",
          "name": "num",
          "type": "uint256"
        },
        {
          "internalType": "address",
          "name": "target",
          "type": "address"
        },
        {
          "internalType": "uint256",
          "name": "value",
          "type": "uint256"
        },
        {
          "internalType": "bytes",
          "name": "data",
          "type": "bytes"
        }
      ],
      "name": "PhantomTreasury_ExternalReturnedInsufficientTokens",
      "type": "error"
    },
    {
      "inputs": [
        {
          "internalType": "address",
          "name": "target",
          "type": "address"
        },
        {
          "internalType": "uint256",
          "name": "value",
          "type": "uint256"
        },
        {
          "internalType": "bytes",
          "name": "data",
          "type": "bytes"
        }
      ],
      "name": "PhantomTreasury_ExternalReturnedNoTokens",
      "type": "error"
    },
    {
      "inputs": [
        {
          "internalType": "uint256",
          "name": "numMint",
          "type": "uint256"
        },
        {
          "internalType": "address",
          "name": "token",
          "type": "address"
        }
      ],
      "name": "PhantomTreasury_InsufficientBalance",
      "type": "error"
    },
    {
      "inputs": [
        {
          "internalType": "uint256",
          "name": "numMint",
          "type": "uint256"
        }
      ],
      "name": "PhantomTreasury_InsufficientReserves",
      "type": "error"
    },
    {
      "inputs": [
        {
          "internalType": "address",
          "name": "inToken",
          "type": "address"
        }
      ],
      "name": "PhantomTreasury_InvalidToken",
      "type": "error"
    },
    {
      "inputs": [],
      "name": "PhantomTreasury_LengthsDoNotMatch",
      "type": "error"
    },
    {
      "inputs": [],
      "name": "PhantomTreasury_PercentagesDoNotAddTo100",
      "type": "error"
    },
    {
      "inputs": [
        {
          "internalType": "address",
          "name": "target",
          "type": "address"
        },
        {
          "internalType": "uint256",
          "name": "value",
          "type": "uint256"
        },
        {
          "internalType": "bytes",
          "name": "data",
          "type": "bytes"
        }
      ],
      "name": "PhantomTreasury_UnapprovedExternalCall",
      "type": "error"
    },
    {
      "anonymous": false,
      "inputs": [
        {
          "indexed": false,
          "internalType": "address",
          "name": "inToken",
          "type": "address"
        },
        {
          "indexed": false,
          "internalType": "address",
          "name": "fromUser",
          "type": "address"
        },
        {
          "indexed": false,
          "internalType": "uint256",
          "name": "amount",
          "type": "uint256"
        }
      ],
      "name": "PhantomTreasury_Burned",
      "type": "event"
    },
    {
      "anonymous": false,
      "inputs": [
        {
          "indexed": false,
          "internalType": "address",
          "name": "inToken",
          "type": "address"
        },
        {
          "indexed": false,
          "internalType": "address",
          "name": "fromUser",
          "type": "address"
        },
        {
          "indexed": false,
          "internalType": "uint256",
          "name": "amount",
          "type": "uint256"
        }
      ],
      "name": "PhantomTreasury_DepositedToVault",
      "type": "event"
    },
    {
      "anonymous": false,
      "inputs": [
        {
          "indexed": false,
          "internalType": "address",
          "name": "inToken",
          "type": "address"
        },
        {
          "indexed": false,
          "internalType": "address",
          "name": "toUser",
          "type": "address"
        },
        {
          "indexed": false,
          "internalType": "uint256",
          "name": "amount",
          "type": "uint256"
        }
      ],
      "name": "PhantomTreasury_Minted",
      "type": "event"
    },
    {
      "anonymous": false,
      "inputs": [
        {
          "indexed": false,
          "internalType": "address",
          "name": "inToken",
          "type": "address"
        },
        {
          "indexed": false,
          "internalType": "address",
          "name": "outToken",
          "type": "address"
        },
        {
          "indexed": false,
          "internalType": "address",
          "name": "forUser",
          "type": "address"
        },
        {
          "indexed": false,
          "internalType": "uint256",
          "name": "amount",
          "type": "uint256"
        }
      ],
      "name": "PhantomTreasury_Swap",
      "type": "event"
    },
    {
      "anonymous": false,
      "inputs": [
        {
          "indexed": false,
          "internalType": "address",
          "name": "inToken",
          "type": "address"
        },
        {
          "indexed": false,
          "internalType": "address",
          "name": "outToken",
          "type": "address"
        },
        {
          "indexed": false,
          "internalType": "address",
          "name": "forUser",
          "type": "address"
        },
        {
          "indexed": false,
          "internalType": "uint256",
          "name": "amount",
          "type": "uint256"
        }
      ],
      "name": "PhantomTreasury_SwapBurn",
      "type": "event"
    },
    {
      "anonymous": false,
      "inputs": [
        {
          "indexed": false,
          "internalType": "address",
          "name": "burnToken",
          "type": "address"
        },
        {
          "indexed": false,
          "internalType": "uint256",
          "name": "burnAmount",
          "type": "uint256"
        },
        {
          "indexed": false,
          "internalType": "address",
          "name": "forUser",
          "type": "address"
        },
        {
          "indexed": false,
          "internalType": "uint256",
          "name": "mintAmount",
          "type": "uint256"
        },
        {
          "indexed": false,
          "internalType": "address",
          "name": "mintToken",
          "type": "address"
        }
      ],
      "name": "PhantomTreasury_SwapBurnMint",
      "type": "event"
    },
    {
      "anonymous": false,
      "inputs": [
        {
          "indexed": false,
          "internalType": "address",
          "name": "inToken",
          "type": "address"
        },
        {
          "indexed": false,
          "internalType": "address",
          "name": "outToken",
          "type": "address"
        },
        {
          "indexed": false,
          "internalType": "address",
          "name": "forUser",
          "type": "address"
        },
        {
          "indexed": false,
          "internalType": "uint256",
          "name": "amount",
          "type": "uint256"
        }
      ],
      "name": "PhantomTreasury_SwapMint",
      "type": "event"
    },
    {
      "anonymous": false,
      "inputs": [
        {
          "indexed": false,
          "internalType": "address",
          "name": "inToken",
          "type": "address"
        },
        {
          "indexed": false,
          "internalType": "address",
          "name": "toUser",
          "type": "address"
        },
        {
          "indexed": false,
          "internalType": "uint256",
          "name": "amount",
          "type": "uint256"
        }
      ],
      "name": "PhantomTreasury_WithdrawalFromVault",
      "type": "event"
    },
    {
      "inputs": [
        {
          "internalType": "address",
          "name": "inDepositor",
          "type": "address"
        },
        {
          "internalType": "uint256",
          "name": "inAmount",
          "type": "uint256"
        },
        {
          "internalType": "address",
          "name": "inToken",
          "type": "address"
        },
        {
          "internalType": "bytes32[]",
          "name": "keys",
          "type": "bytes32[]"
        },
        {
          "internalType": "uint256[]",
          "name": "percentages",
          "type": "uint256[]"
        },
        {
          "internalType": "uint256",
          "name": "mintRatio",
          "type": "uint256"
        },
        {
          "internalType": "uint256",
          "name": "profitRatio",
          "type": "uint256"
        },
        {
          "internalType": "bytes32[]",
          "name": "profitKeys",
          "type": "bytes32[]"
        },
        {
          "internalType": "uint256[]",
          "name": "profitPercentages",
          "type": "uint256[]"
        }
      ],
      "name": "deposit",
      "outputs": [
        {
          "internalType": "uint256",
          "name": "",
          "type": "uint256"
        }
      ],
      "stateMutability": "nonpayable",
      "type": "function"
    },
    {
      "inputs": [
        {
          "internalType": "address",
          "name": "token",
          "type": "address"
        }
      ],
      "name": "isReserveToken",
      "outputs": [
        {
          "internalType": "bool",
          "name": "",
          "type": "bool"
        }
      ],
      "stateMutability": "view",
      "type": "function"
    },
    {
      "inputs": [
        {
          "internalType": "address",
          "name": "token",
          "type": "address"
        }
      ],
      "name": "registerReserveToken",
      "outputs": [],
      "stateMutability": "nonpayable",
      "type": "function"
    },
    {
      "inputs": [
        {
          "internalType": "address",
          "name": "vault",
          "type": "address"
        },
        {
          "internalType": "uint256",
          "name": "amount",
          "type": "uint256"
        },
        {
          "internalType": "bytes32[]",
          "name": "keys",
          "type": "bytes32[]"
        },
        {
          "internalType": "uint256[]",
          "name": "percentages",
          "type": "uint256[]"
        }
      ],
      "name": "sendToYearn",
      "outputs": [],
      "stateMutability": "nonpayable",
      "type": "function"
    },
    {
      "inputs": [
        {
          "internalType": "uint256[]",
          "name": "data",
          "type": "uint256[]"
        }
      ],
      "name": "sum",
      "outputs": [
        {
          "internalType": "uint256",
          "name": "",
          "type": "uint256"
        }
      ],
      "stateMutability": "pure",
      "type": "function"
    },
    {
      "inputs": [],
      "name": "sumReserves",
      "outputs": [
        {
          "internalType": "uint256",
          "name": "",
          "type": "uint256"
        }
      ],
      "stateMutability": "view",
      "type": "function"
    },
    {
      "inputs": [
        {
          "internalType": "address",
          "name": "forUser",
          "type": "address"
        },
        {
          "internalType": "uint256",
          "name": "inAmount",
          "type": "uint256"
        },
        {
          "internalType": "address",
          "name": "inToken",
          "type": "address"
        },
        {
          "internalType": "uint256",
          "name": "outAmount",
          "type": "uint256"
        },
        {
          "internalType": "address",
          "name": "outToken",
          "type": "address"
        },
        {
          "internalType": "bytes32[]",
          "name": "keys",
          "type": "bytes32[]"
        },
        {
          "internalType": "uint256[]",
          "name": "percentages",
          "type": "uint256[]"
        }
      ],
      "name": "swap",
      "outputs": [],
      "stateMutability": "nonpayable",
      "type": "function"
    },
    {
      "inputs": [
        {
          "internalType": "address",
          "name": "forUser",
          "type": "address"
        },
        {
          "internalType": "uint256",
          "name": "burnAmount",
          "type": "uint256"
        },
        {
          "internalType": "address",
          "name": "burnToken",
          "type": "address"
        },
        {
          "internalType": "uint256",
          "name": "outAmount",
          "type": "uint256"
        },
        {
          "internalType": "address",
          "name": "outToken",
          "type": "address"
        },
        {
          "internalType": "bytes32[]",
          "name": "keys",
          "type": "bytes32[]"
        },
        {
          "internalType": "uint256[]",
          "name": "percentages",
          "type": "uint256[]"
        }
      ],
      "name": "swapBurn",
      "outputs": [],
      "stateMutability": "nonpayable",
      "type": "function"
    },
    {
      "inputs": [
        {
          "internalType": "address",
          "name": "forUser",
          "type": "address"
        },
        {
          "internalType": "uint256",
          "name": "burnAmount",
          "type": "uint256"
        },
        {
          "internalType": "address",
          "name": "burnToken",
          "type": "address"
        },
        {
          "internalType": "uint256",
          "name": "mintAmount",
          "type": "uint256"
        },
        {
          "internalType": "address",
          "name": "mintToken",
          "type": "address"
        }
      ],
      "name": "swapBurnMint",
      "outputs": [],
      "stateMutability": "nonpayable",
      "type": "function"
    },
    {
      "inputs": [
        {
          "internalType": "address",
          "name": "forUser",
          "type": "address"
        },
        {
          "internalType": "uint256",
          "name": "inAmount",
          "type": "uint256"
        },
        {
          "internalType": "address",
          "name": "inToken",
          "type": "address"
        },
        {
          "internalType": "uint256",
          "name": "mintAmount",
          "type": "uint256"
        },
        {
          "internalType": "address",
          "name": "mintToken",
          "type": "address"
        },
        {
          "internalType": "bytes32[]",
          "name": "keys",
          "type": "bytes32[]"
        },
        {
          "internalType": "uint256[]",
          "name": "percentages",
          "type": "uint256[]"
        }
      ],
      "name": "swapMint",
      "outputs": [],
      "stateMutability": "nonpayable",
      "type": "function"
    },
    {
      "inputs": [
        {
          "internalType": "address",
          "name": "outWithdrawer",
          "type": "address"
        },
        {
          "internalType": "uint256",
          "name": "outAmount",
          "type": "uint256"
        },
        {
          "internalType": "address",
          "name": "outToken",
          "type": "address"
        },
        {
          "internalType": "bytes32[]",
          "name": "keys",
          "type": "bytes32[]"
        },
        {
          "internalType": "uint256[]",
          "name": "percentages",
          "type": "uint256[]"
        },
        {
          "internalType": "uint256",
          "name": "burnRatio",
          "type": "uint256"
        }
      ],
      "name": "withdraw",
      "outputs": [
        {
          "internalType": "uint256",
          "name": "",
          "type": "uint256"
        }
      ],
      "stateMutability": "nonpayable",
      "type": "function"
    },
    {
      "inputs": [
        {
          "internalType": "address",
          "name": "vault",
          "type": "address"
        },
        {
          "internalType": "uint256",
          "name": "maxShares",
          "type": "uint256"
        },
        {
          "internalType": "uint256",
          "name": "maxLoss",
          "type": "uint256"
        },
        {
          "internalType": "bytes32[]",
          "name": "keys",
          "type": "bytes32[]"
        },
        {
          "internalType": "uint256[]",
          "name": "percentages",
          "type": "uint256[]"
        }
      ],
      "name": "withdrawFromYearn",
      "outputs": [],
      "stateMutability": "nonpayable",
      "type": "function"
    }
  ],
  "bytecode": "601260e08181527139b2b1bab934ba3c9730b2323932b9b9b7b360711b6101009081526080918252600d6101209081526c73656375726974792e6e616d6560981b6101405260a0526101a060405260136101609081527f73656375726974792e72656769737465726564000000000000000000000000006101805260c0529091600091620000909183919062001690565b506020828101518051620000ab926001850192019062001690565b5060408201518051620000c991600284019160209091019062001690565b5050604080516103c081018252601b61038082019081527f7068616e746f6d2e636f6e7472616374732e616c7068617377617000000000006103a0830152610100820190815282518084018452601a8082527f7068616e746f6d2e636f6e7472616374732e666f756e646572730000000000006020838101919091526101208501929092528451808601865260198082527f7068616e746f6d2e636f6e7472616374732e7374616b696e67000000000000008285015261014086019190915285518087018752601f81527f7068616e746f6d2e636f6e7472616374732e7374616b696e677761726d75700081850152610160860152855180870187529081527f7068616e746f6d2e636f6e7472616374732e626f6e64696e67000000000000008184015261018085015284518086018652601581527f7068616e746f6d2e636f6e7472616374732e70686d0000000000000000000000818401526101a08501528451808601865260168082527f7068616e746f6d2e636f6e7472616374732e7370686d00000000000000000000828501526101c0860191909152855180870187528181527f7068616e746f6d2e636f6e7472616374732e6770686d00000000000000000000818501526101e0860152855180870187528181527f7068616e746f6d2e636f6e7472616374732e6170686d0000000000000000000081850152610200860152855180870187528181527f7068616e746f6d2e636f6e7472616374732e6670686d00000000000000000000818501526102208601528551808701875260178082527f7068616e746f6d2e636f6e7472616374732e7661756c7400000000000000000082860152610240870191909152865180880188528381527f7068616e746f6d2e636f6e7472616374732e747265617375727900000000000081860152610260870152865180880188529182527f7068616e746f6d2e636f6e7472616374732e74776170000000000000000000008285015261028086019190915285518087018752601d81527f7068616e746f6d2e636f6e7472616374732e626f6e6470726963696e67000000818501526102a086015285518087018752601c81527f7068616e746f6d2e636f6e7472616374732e6465785f726f7574657200000000818501526102c086015285518087018752601e8082527f7068616e746f6d2e636f6e7472616374732e796561726e5f726f757465720000828601526102e0870191909152865180880188528381527f7068616e746f6d2e636f6e7472616374732e6578656375746f7200000000000081860152610300870152865180880188529283527f7068616e746f6d2e636f6e7472616374732e7061796d656e747300000000000083850152610320860192909252855180870187529081527f7068616e746f6d2e636f6e7472616374732e677561726400000000000000000081840152610340850152845180860186529081527f7068616e746f6d2e636f6e7472616374732e61756374696f6e636c61696d000081830152610360840152908252825160c08101909352602a6060840181815292945090840192918291620055486080840139815260200160405180606001604052806040518060600160405280602b8152602001620054cd602b913981526020016040518060400160405280602081526020017f7068616e746f6d2e74726561737572792e6163636f756e745f6b65792e64616f8152508152602001604051806060016040528060258152602001620056586025913990528152604080518082018252601981527f7068616e746f6d2e74726561737572792e62616c616e636573000000000000006020828101919091529283015291835281516101c0810190925260246101608301818152938201938392830191829160c0850191829190620054636101808801398152602001604051806060016040528060258152602001620056c76025913981526020016040518060600160405280602481526020016200567d6024913981526020016040518060600160405280602b8152602001620054f8602b91398152602001604051806060016040528060248152602001620056ec602491398152508152602001604051806060016040528060258152602001620055c26025913981526020016040518060600160405280602981526020016200562f6029913981526020016040518060400160405280601b81526020017f7068616e746f6d2e616c6c6f6361746f722e746f6b656e732e6c70000000000081525081526020016040518060400160405280601f81526020017f7068616e746f6d2e616c6c6f6361746f722e746f6b656e732e73696e676c65008152508152508152508152602001604051806101a0016040528060405180606001604052806040518060600160405280602b815260200162005572602b913981526020016040518060600160405280602c815260200162005411602c913981526020016040518060600160405280602f8152602001620053e2602f913981525081526020016040518060400160405280601d81526020017f7068616e746f6d2e626f6e64696e672e76657374696e67626c6f636b7300000081525081526020016040518060400160405280601c81526020017f7068616e746f6d2e626f6e64696e672e70726f6669745f726174696f0000000081525081526020016040518060400160405280601b81526020017f7068616e746f6d2e626f6e64696e672e69735f72656465656d656400000000008152508152602001604051806060016040528060228152602001620055e76022913981526020016040518060400160405280601881526020017f7068616e746f6d2e626f6e64696e672e69735f76616c6964000000000000000081525081526020016040518060400160405280601a81526020017f7068616e746f6d2e626f6e64696e672e6d756c7469706c69657200000000000081525081526020016040518060400160405280601481526020017f7068616e746f6d2e626f6e64696e672e6465627400000000000000000000000081525081526020016040518060400160405280601e81526020017f7068616e746f6d2e626f6e64696e672e6d61785f646562745f726174696f00008152508152602001604051806060016040528060248152602001620057dd6024913981526020016040518060400160405280601581526020017f7068616e746f6d2e626f6e64696e672e746f6b656e000000000000000000000081525081526020016040518060400160405280601d81526020017f7068616e746f6d2e626f6e64696e672e6c6173745f636c61696d5f617400000081525081526020016040518060400160405280601b81526020017f7068616e746f6d2e626f6e64696e672e766573745f6c656e6774680000000000815250815250815260200160405180604001604052806040518060400160405280601d81526020017f7068616e746f6d2e7374616b696e672e726562617365436f756e7465720000008152508152602001604051806060016040528060228152602001620057bb6022913990528152604080516101408101909152602160e08201818152602090930192829160608301918291620057346101008601398152602001604051806060016040528060248152602001620054a96024913981526020016040518060600160405280602681526020016200543d60269139815260408051808201825260208082527f7068616e746f6d2e666f756e6465722e636c61696d732e6c617374436c61696d828201529283015291835281516060810183528082018281527f7068616e746f6d2e666f756e6465722e6368616e6765732e6e65774f776e65728285015281528382015281518083018352601d81527f7068616e746f6d2e666f756e6465722e76657374696e675374617274730000008183015292820192909252918352815161016081019092526022610100830181815293909101928291620054876101208401398152602001604051806060016040528060238152602001620057556023913981526020016040518060600160405280602581526020016200559d6025913981526020016040518060600160405280602681526020016200560960269139815260200160405180606001604052806025815260200162005523602591398152602001604051806060016040528060268152602001620056a1602691398152602001604051806060016040528060248152602001620057106024913981526020016040518060600160405280602a815260200162005801602a9139815250815260200160405180608001604052806040518060400160405280601c81526020017f7068616e746f6d2e676f7665726e6f722e766f74696e6744656c61790000000081525081526020016040518060400160405280601d81526020017f7068616e746f6d2e676f7665726e6f722e766f74696e67506572696f6400000081525081526020016040518060600160405280602181526020016200577860219139815260200160405180606001604052806022815260200162005799602291399052905280518051805160039291839162000deb91839160209091019062001690565b50602082810151805162000e06926001850192019062001690565b506040820151805162000e2491600284019160209091019062001690565b506060820151805162000e4291600384019160209091019062001690565b506080820151805162000e6091600484019160209091019062001690565b5060a0820151805162000e7e91600584019160209091019062001690565b5060c0820151805162000e9c91600684019160209091019062001690565b5060e0820151805162000eba91600784019160209091019062001690565b50610100820151805162000ed991600884019160209091019062001690565b50610120820151805162000ef891600984019160209091019062001690565b50610140820151805162000f1791600a84019160209091019062001690565b50610160820151805162000f3691600b84019160209091019062001690565b50610180820151805162000f5591600c84019160209091019062001690565b506101a0820151805162000f7491600d84019160209091019062001690565b506101c0820151805162000f9391600e84019160209091019062001690565b506101e0820151805162000fb291600f84019160209091019062001690565b50610200820151805162000fd191601084019160209091019062001690565b50610220820151805162000ff091601184019160209091019062001690565b5061024082015180516200100f91601284019160209091019062001690565b5061026082015180516200102e91601384019160209091019062001690565b505050602082810151805180519192601485019262001051928492019062001690565b50602082810151805180519192600185019262001072928492019062001690565b5060208281015180516200108d926001850192019062001690565b5060408201518051620010ab91600284019160209091019062001690565b50505060408201518051620010cb91600484019160209091019062001690565b50505060408201518051805180518051601986019392849290918391620010f89183916020019062001690565b50602082810151805162001113926001850192019062001690565b50604082015180516200113191600284019160209091019062001690565b50606082015180516200114f91600384019160209091019062001690565b50608082015180516200116d91600484019160209091019062001690565b50505060208281015180516200118a926005850192019062001690565b5060408201518051620011a891600684019160209091019062001690565b5060608201518051620011c691600784019160209091019062001690565b5060808201518051620011e491600884019160209091019062001690565b505050506060830151805180518051929350602285019283916200120e9183916020019062001690565b50602082810151805162001229926001850192019062001690565b50604082015180516200124791600284019160209091019062001690565b505050602082810151805162001264926003850192019062001690565b50604082015180516200128291600484019160209091019062001690565b5060608201518051620012a091600584019160209091019062001690565b5060808201518051620012be91600684019160209091019062001690565b5060a08201518051620012dc91600784019160209091019062001690565b5060c08201518051620012fa91600884019160209091019062001690565b5060e082015180516200131891600984019160209091019062001690565b5061010082015180516200133791600a84019160209091019062001690565b5061012082015180516200135691600b84019160209091019062001690565b5061014082015180516200137591600c84019160209091019062001690565b5061016082015180516200139491600d84019160209091019062001690565b506101808201518051620013b391600e84019160209091019062001690565b5050506080820151805180516031840191620013d59183916020019062001690565b506020828101518051620013f0926001850192019062001690565b50505060a082015180518051805160338501929183916200141991839160209091019062001690565b50602082810151805162001434926001850192019062001690565b50604082015180516200145291600284019160209091019062001690565b50606082015180516200147091600384019160209091019062001690565b505050602082810151805180519192600485019262001493928492019062001690565b50505060408201518051620014b391600584019160209091019062001690565b50505060c0820151805180516039840191620014d59183916020019062001690565b506020828101518051620014f0926001850192019062001690565b50604082015180516200150e91600284019160209091019062001690565b50606082015180516200152c91600384019160209091019062001690565b50608082015180516200154a91600484019160209091019062001690565b5060a082015180516200156891600584019160209091019062001690565b5060c082015180516200158691600684019160209091019062001690565b5060e08201518051620015a491600784019160209091019062001690565b50505060e0820151805180516041840191620015c69183916020019062001690565b506020828101518051620015e1926001850192019062001690565b5060408201518051620015ff91600284019160209091019062001690565b50606082015180516200161d91600384019160209091019062001690565b50505050506d7068616e746f6d53746f7261676560901b604a553480156200164457600080fd5b506040516200582b3803806200582b833981016040819052620016679162001736565b6001604855604980546001600160a01b0383166001600160a01b031990911617905550620017a5565b8280546200169e9062001768565b90600052602060002090601f016020900481019282620016c257600085556200170d565b82601f10620016dd57805160ff19168380011785556200170d565b828001600101855582156200170d579182015b828111156200170d578251825591602001919060010190620016f0565b506200171b9291506200171f565b5090565b5b808211156200171b576000815560010162001720565b6000602082840312156200174957600080fd5b81516001600160a01b03811681146200176157600080fd5b9392505050565b600181811c908216806200177d57607f821691505b602082108114156200179f57634e487b7160e01b600052602260045260246000fd5b50919050565b613c2d80620017b56000396000f3fe608060405234801561001057600080fd5b50600436106100b45760003560e01c8063a397104711610071578063a39710471461015e578063c41ac8cf14610171578063d480dd3f14610184578063db457c9114610197578063ddf0a2c4146101aa578063f6d78b1c146101bd57600080fd5b80630194db8e146100b957806349d13d43146100df57806368c31dd5146100e757806376997eb51461012357806391c65e191461013857806397d632b11461014b575b600080fd5b6100cc6100c7366004613530565b6101d0565b6040519081526020015b60405180910390f35b6100cc61021f565b6101136100f536600461358d565b6001600160a01b03166000908152604c602052604090205460ff1690565b60405190151581526020016100d6565b6101366101313660046135aa565b61045f565b005b6100cc610146366004613659565b6107fd565b610136610159366004613745565b610df3565b61013661016c3660046135aa565b61124e565b61013661017f3660046137cf565b61153c565b6100cc61019236600461382e565b611948565b6101366101a53660046138c9565b611e51565b6101366101b83660046135aa565b61223a565b6101366101cb36600461358d565b61259b565b60008060005b8351811015610218578381815181106101f1576101f1613949565b6020026020010151826102049190613975565b9150806102108161398d565b9150506101d6565b5092915050565b60008060005b604b54811015610459576000610261604b838154811061024757610247613949565b6000918252602090912001546001600160a01b03166128f9565b90506001600160a01b0381166102dc5760405162461bcd60e51b815260206004820152603560248201527f5068616e746f6d54726561737572793a204e6f207477617020726567697374656044820152743932b2103337b9103932b9b2b93b32903a37b5b2b760591b60648201526084015b60405180910390fd5b806001600160a01b0316633ddac953604b84815481106102fe576102fe613949565b6000918252602090912001546001600160a01b03166103db61031e6129cd565b60008151811061033057610330613949565b6020026020010151604b878154811061034b5761034b613949565b6000918252602090912001546001600160a01b03166370a0823161036d612a46565b6040516001600160e01b031960e084901b1681526001600160a01b039091166004820152602401602060405180830381865afa1580156103b1573d6000803e3d6000fd5b505050506040513d601f19601f820116820180604052508101906103d591906139a8565b90612ae5565b6040518363ffffffff1660e01b81526004016103f89291906139c1565b602060405180830381865afa158015610415573d6000803e3d6000fd5b505050506040513d601f19601f8201168201806040525081019061043991906139a8565b6104439084613975565b92505080806104519061398d565b915050610225565b50919050565b60006104736049546001600160a01b031690565b6001600160a01b0316631bed52416040518163ffffffff1660e01b8152600401602060405180830381865afa1580156104b0573d6000803e3d6000fd5b505050506040513d601f19601f820116820180604052508101906104d491906139da565b9050600181151514156105a5576049546001600160a01b03166001600160a01b0316637ae1cfca3360405160200161050c91906139fc565b604051602081830303815290604052805190602001206040518263ffffffff1660e01b815260040161054091815260200190565b602060405180830381865afa15801561055d573d6000803e3d6000fd5b505050506040513d601f19601f8201168201806040525081019061058191906139da565b6105a05760405163372463e360e01b81523360048201526024016102d3565b6106ec565b6049546001600160a01b03166001600160a01b0316637ae1cfca336040516020016105d091906139fc565b604051602081830303815290604052805190602001206040518263ffffffff1660e01b815260040161060491815260200190565b602060405180830381865afa158015610621573d6000803e3d6000fd5b505050506040513d601f19601f8201168201806040525081019061064591906139da565b806106cd57506049546001600160a01b03166001600160a01b031663a75b87d26040518163ffffffff1660e01b8152600401602060405180830381865afa158015610694573d6000803e3d6000fd5b505050506040513d601f19601f820116820180604052508101906106b89190613a3a565b6001600160a01b0316326001600160a01b0316145b6106ec5760405163372463e360e01b81523360048201526024016102d3565b856106f681612af8565b61071e576040516349e82b5f60e11b81526001600160a01b03821660048201526024016102d3565b61073c8961072a612a46565b6001600160a01b038a1691908b612ba7565b610744612a46565b604051633f34d4cf60e21b8152600481018a90526001600160a01b038981166024830152919091169063fcd3533c90604401600060405180830381600087803b15801561079057600080fd5b505af11580156107a4573d6000803e3d6000fd5b505050506107b58987878787612c18565b7f89e19257a72f4118164f2754032ae310fb86b3f1192fd8f6953c36e665e3ceec87868b8b6040516107ea9493929190613a57565b60405180910390a1505050505050505050565b6000806108126049546001600160a01b031690565b6001600160a01b0316631bed52416040518163ffffffff1660e01b8152600401602060405180830381865afa15801561084f573d6000803e3d6000fd5b505050506040513d601f19601f8201168201806040525081019061087391906139da565b905060018115151415610944576049546001600160a01b03166001600160a01b0316637ae1cfca336040516020016108ab91906139fc565b604051602081830303815290604052805190602001206040518263ffffffff1660e01b81526004016108df91815260200190565b602060405180830381865afa1580156108fc573d6000803e3d6000fd5b505050506040513d601f19601f8201168201806040525081019061092091906139da565b61093f5760405163372463e360e01b81523360048201526024016102d3565b610a8b565b6049546001600160a01b03166001600160a01b0316637ae1cfca3360405160200161096f91906139fc565b604051602081830303815290604052805190602001206040518263ffffffff1660e01b81526004016109a391815260200190565b602060405180830381865afa1580156109c0573d6000803e3d6000fd5b505050506040513d601f19601f820116820180604052508101906109e491906139da565b80610a6c57506049546001600160a01b03166001600160a01b031663a75b87d26040518163ffffffff1660e01b8152600401602060405180830381865afa158015610a33573d6000803e3d6000fd5b505050506040513d601f19601f82011682018060405250810190610a579190613a3a565b6001600160a01b0316326001600160a01b0316145b610a8b5760405163372463e360e01b81523360048201526024016102d3565b6001600160a01b0389166000908152604c602052604090205460ff16610b0a5760405162461bcd60e51b815260206004820152602e60248201527f5068616e746f6d54726561737572793a20696e546f6b656e2069736e2774206160448201526d103932b9b2b93b32903a37b5b2b760911b60648201526084016102d3565b6000610b158a6128f9565b90506001600160a01b038116610b835760405162461bcd60e51b815260206004820152602d60248201527f5068616e746f6d54726561737572793a204e6f2054574150206465706c6f796560448201526c32103337b91034b72a37b5b2b760991b60648201526084016102d3565b806001600160a01b031663a2e620456040518163ffffffff1660e01b8152600401600060405180830381600087803b158015610bbe57600080fd5b505af1158015610bd2573d6000803e3d6000fd5b505050506000816001600160a01b0316633ddac9538c8e6040518363ffffffff1660e01b8152600401610c069291906139c1565b602060405180830381865afa158015610c23573d6000803e3d6000fd5b505050506040513d601f19601f82011682018060405250810190610c4791906139a8565b9050610c568d8d8d8d8d612cc8565b6000610c62828a612ae5565b9050610c7781610c70612d10565b8d8d612d47565b610c7f612d10565b6001600160a01b03166340c10f19610c95612a46565b836040518363ffffffff1660e01b8152600401610cb39291906139c1565b600060405180830381600087803b158015610ccd57600080fd5b505af1158015610ce1573d6000803e3d6000fd5b505050506000610cfa8983612ae590919063ffffffff16565b9050610d04612d10565b6001600160a01b03166340c10f19610d1a612a46565b836040518363ffffffff1660e01b8152600401610d389291906139c1565b600060405180830381600087803b158015610d5257600080fd5b505af1158015610d66573d6000803e3d6000fd5b50505050610d7d81610d76612d10565b8a8a612d47565b7f65c8e1561580499f923aa822a51733482432ba4eb7d5fca6606044cd16c7157b610da6612d10565b610dae612a46565b610db88486613975565b604080516001600160a01b0394851681529390921660208401529082015260600160405180910390a1509d9c50505050505050505050505050565b6000610e076049546001600160a01b031690565b6001600160a01b0316631bed52416040518163ffffffff1660e01b8152600401602060405180830381865afa158015610e44573d6000803e3d6000fd5b505050506040513d601f19601f82011682018060405250810190610e6891906139da565b905060018115151415610f39576049546001600160a01b03166001600160a01b0316637ae1cfca33604051602001610ea091906139fc565b604051602081830303815290604052805190602001206040518263ffffffff1660e01b8152600401610ed491815260200190565b602060405180830381865afa158015610ef1573d6000803e3d6000fd5b505050506040513d601f19601f82011682018060405250810190610f1591906139da565b610f345760405163372463e360e01b81523360048201526024016102d3565b611080565b6049546001600160a01b03166001600160a01b0316637ae1cfca33604051602001610f6491906139fc565b604051602081830303815290604052805190602001206040518263ffffffff1660e01b8152600401610f9891815260200190565b602060405180830381865afa158015610fb5573d6000803e3d6000fd5b505050506040513d601f19601f82011682018060405250810190610fd991906139da565b8061106157506049546001600160a01b03166001600160a01b031663a75b87d26040518163ffffffff1660e01b8152600401602060405180830381865afa158015611028573d6000803e3d6000fd5b505050506040513d601f19601f8201168201806040525081019061104c9190613a3a565b6001600160a01b0316326001600160a01b0316145b6110805760405163372463e360e01b81523360048201526024016102d3565b6000866001600160a01b031663fc0c546a6040518163ffffffff1660e01b81526004016020604051808303816000875af11580156110c2573d6000803e3d6000fd5b505050506040513d601f19601f820116820180604052508101906110e69190613a3a565b90506110f53087898787612c18565b60405163095ea7b360e01b81526001600160a01b0388169063095ea7b390611123908a908a906004016139c1565b6020604051808303816000875af1158015611142573d6000803e3d6000fd5b505050506040513d601f19601f8201168201806040525081019061116691906139da565b50604051631cc6d2f960e31b815260048101879052306024820152604481018690526001600160a01b0388169063e63697c890606401600060405180830381600087803b1580156111b657600080fd5b505af11580156111ca573d6000803e3d6000fd5b50506040516370a0823160e01b81523060048201819052611245935091506001600160a01b038416906370a0823190602401602060405180830381865afa158015611219573d6000803e3d6000fd5b505050506040513d601f19601f8201168201806040525081019061123d91906139a8565b838787612cc8565b50505050505050565b60006112626049546001600160a01b031690565b6001600160a01b0316631bed52416040518163ffffffff1660e01b8152600401602060405180830381865afa15801561129f573d6000803e3d6000fd5b505050506040513d601f19601f820116820180604052508101906112c391906139da565b905060018115151415611394576049546001600160a01b03166001600160a01b0316637ae1cfca336040516020016112fb91906139fc565b604051602081830303815290604052805190602001206040518263ffffffff1660e01b815260040161132f91815260200190565b602060405180830381865afa15801561134c573d6000803e3d6000fd5b505050506040513d601f19601f8201168201806040525081019061137091906139da565b61138f5760405163372463e360e01b81523360048201526024016102d3565b6114db565b6049546001600160a01b03166001600160a01b0316637ae1cfca336040516020016113bf91906139fc565b604051602081830303815290604052805190602001206040518263ffffffff1660e01b81526004016113f391815260200190565b602060405180830381865afa158015611410573d6000803e3d6000fd5b505050506040513d601f19601f8201168201806040525081019061143491906139da565b806114bc57506049546001600160a01b03166001600160a01b031663a75b87d26040518163ffffffff1660e01b8152600401602060405180830381865afa158015611483573d6000803e3d6000fd5b505050506040513d601f19601f820116820180604052508101906114a79190613a3a565b6001600160a01b0316326001600160a01b0316145b6114db5760405163372463e360e01b81523360048201526024016102d3565b6114e88888888686612cc8565b6114f58886868686612c18565b7f6d29754df4dd9e7170da58f3c4e90c771e6f29f8d2387e37131c2dd725a4073f86858a8a60405161152a9493929190613a57565b60405180910390a15050505050505050565b60006115506049546001600160a01b031690565b6001600160a01b0316631bed52416040518163ffffffff1660e01b8152600401602060405180830381865afa15801561158d573d6000803e3d6000fd5b505050506040513d601f19601f820116820180604052508101906115b191906139da565b905060018115151415611682576049546001600160a01b03166001600160a01b0316637ae1cfca336040516020016115e991906139fc565b604051602081830303815290604052805190602001206040518263ffffffff1660e01b815260040161161d91815260200190565b602060405180830381865afa15801561163a573d6000803e3d6000fd5b505050506040513d601f19601f8201168201806040525081019061165e91906139da565b61167d5760405163372463e360e01b81523360048201526024016102d3565b6117c9565b6049546001600160a01b03166001600160a01b0316637ae1cfca336040516020016116ad91906139fc565b604051602081830303815290604052805190602001206040518263ffffffff1660e01b81526004016116e191815260200190565b602060405180830381865afa1580156116fe573d6000803e3d6000fd5b505050506040513d601f19601f8201168201806040525081019061172291906139da565b806117aa57506049546001600160a01b03166001600160a01b031663a75b87d26040518163ffffffff1660e01b8152600401602060405180830381865afa158015611771573d6000803e3d6000fd5b505050506040513d601f19601f820116820180604052508101906117959190613a3a565b6001600160a01b0316326001600160a01b0316145b6117c95760405163372463e360e01b81523360048201526024016102d3565b816117d381612af8565b6117fb576040516349e82b5f60e11b81526001600160a01b03821660048201526024016102d3565b61181987611807612a46565b6001600160a01b038816919089612ba7565b611821612a46565b604051633f34d4cf60e21b8152600481018890526001600160a01b038781166024830152919091169063fcd3533c90604401600060405180830381600087803b15801561186d57600080fd5b505af1158015611881573d6000803e3d6000fd5b50506040516340c10f1960e01b81526001600160a01b03861692506340c10f1991506118b3908a9088906004016139c1565b600060405180830381600087803b1580156118cd57600080fd5b505af11580156118e1573d6000803e3d6000fd5b5050604080516001600160a01b038981168252602082018b90528b811682840152606082018990528716608082015290517f93172819afebd69a5dac534316f8e5e7181cf128ecb33b0a24a0e1d8b203b65b93509081900360a0019150a150505050505050565b60008061195d6049546001600160a01b031690565b6001600160a01b0316631bed52416040518163ffffffff1660e01b8152600401602060405180830381865afa15801561199a573d6000803e3d6000fd5b505050506040513d601f19601f820116820180604052508101906119be91906139da565b905060018115151415611a8f576049546001600160a01b03166001600160a01b0316637ae1cfca336040516020016119f691906139fc565b604051602081830303815290604052805190602001206040518263ffffffff1660e01b8152600401611a2a91815260200190565b602060405180830381865afa158015611a47573d6000803e3d6000fd5b505050506040513d601f19601f82011682018060405250810190611a6b91906139da565b611a8a5760405163372463e360e01b81523360048201526024016102d3565b611bd6565b6049546001600160a01b03166001600160a01b0316637ae1cfca33604051602001611aba91906139fc565b604051602081830303815290604052805190602001206040518263ffffffff1660e01b8152600401611aee91815260200190565b602060405180830381865afa158015611b0b573d6000803e3d6000fd5b505050506040513d601f19601f82011682018060405250810190611b2f91906139da565b80611bb757506049546001600160a01b03166001600160a01b031663a75b87d26040518163ffffffff1660e01b8152600401602060405180830381865afa158015611b7e573d6000803e3d6000fd5b505050506040513d601f19601f82011682018060405250810190611ba29190613a3a565b6001600160a01b0316326001600160a01b0316145b611bd65760405163372463e360e01b81523360048201526024016102d3565b6001600160a01b0386166000908152604c602052604090205460ff16611c565760405162461bcd60e51b815260206004820152602f60248201527f5068616e746f6d54726561737572793a206f7574546f6b656e2069736e27742060448201526e30903932b9b2b93b32903a37b5b2b760891b60648201526084016102d3565b6000611c61876128f9565b90506001600160a01b038116611cd05760405162461bcd60e51b815260206004820152602e60248201527f5068616e746f6d54726561737572793a204e6f2054574150206465706c6f796560448201526d32103337b91037baba2a37b5b2b760911b60648201526084016102d3565b806001600160a01b031663a2e620456040518163ffffffff1660e01b8152600401600060405180830381600087803b158015611d0b57600080fd5b505af1158015611d1f573d6000803e3d6000fd5b5050604051633ddac95360e01b8152600092506001600160a01b0384169150633ddac95390611d54908b908d906004016139c1565b602060405180830381865afa158015611d71573d6000803e3d6000fd5b505050506040513d601f19601f82011682018060405250810190611d9591906139a8565b90506000611da38287612ae5565b9050611dad612a46565b6001600160a01b031663fcd3533c82611dc4612d10565b6040516001600160e01b031960e085901b16815260048101929092526001600160a01b03166024820152604401600060405180830381600087803b158015611e0b57600080fd5b505af1158015611e1f573d6000803e3d6000fd5b50505050611e3681611e2f612d10565b8a8a612e06565b611e438b8b8b8b8b612c18565b9a9950505050505050505050565b6000611e656049546001600160a01b031690565b6001600160a01b0316631bed52416040518163ffffffff1660e01b8152600401602060405180830381865afa158015611ea2573d6000803e3d6000fd5b505050506040513d601f19601f82011682018060405250810190611ec691906139da565b905060018115151415611f97576049546001600160a01b03166001600160a01b0316637ae1cfca33604051602001611efe91906139fc565b604051602081830303815290604052805190602001206040518263ffffffff1660e01b8152600401611f3291815260200190565b602060405180830381865afa158015611f4f573d6000803e3d6000fd5b505050506040513d601f19601f82011682018060405250810190611f7391906139da565b611f925760405163372463e360e01b81523360048201526024016102d3565b6120de565b6049546001600160a01b03166001600160a01b0316637ae1cfca33604051602001611fc291906139fc565b604051602081830303815290604052805190602001206040518263ffffffff1660e01b8152600401611ff691815260200190565b602060405180830381865afa158015612013573d6000803e3d6000fd5b505050506040513d601f19601f8201168201806040525081019061203791906139da565b806120bf57506049546001600160a01b03166001600160a01b031663a75b87d26040518163ffffffff1660e01b8152600401602060405180830381865afa158015612086573d6000803e3d6000fd5b505050506040513d601f19601f820116820180604052508101906120aa9190613a3a565b6001600160a01b0316326001600160a01b0316145b6120de5760405163372463e360e01b81523360048201526024016102d3565b6000856001600160a01b031663fc0c546a6040518163ffffffff1660e01b81526004016020604051808303816000875af1158015612120573d6000803e3d6000fd5b505050506040513d601f19601f820116820180604052508101906121449190613a3a565b90506121533086838787612c18565b60405163095ea7b360e01b81526001600160a01b0382169063095ea7b39061218190899089906004016139c1565b6020604051808303816000875af11580156121a0573d6000803e3d6000fd5b505050506040513d601f19601f820116820180604052508101906121c491906139da565b50604051636e553f6560e01b8152600481018690523060248201526001600160a01b03871690636e553f6590604401600060405180830381600087803b15801561220d57600080fd5b505af1158015612221573d6000803e3d6000fd5b505050506122323086888787612cc8565b505050505050565b600061224e6049546001600160a01b031690565b6001600160a01b0316631bed52416040518163ffffffff1660e01b8152600401602060405180830381865afa15801561228b573d6000803e3d6000fd5b505050506040513d601f19601f820116820180604052508101906122af91906139da565b905060018115151415612380576049546001600160a01b03166001600160a01b0316637ae1cfca336040516020016122e791906139fc565b604051602081830303815290604052805190602001206040518263ffffffff1660e01b815260040161231b91815260200190565b602060405180830381865afa158015612338573d6000803e3d6000fd5b505050506040513d601f19601f8201168201806040525081019061235c91906139da565b61237b5760405163372463e360e01b81523360048201526024016102d3565b6124c7565b6049546001600160a01b03166001600160a01b0316637ae1cfca336040516020016123ab91906139fc565b604051602081830303815290604052805190602001206040518263ffffffff1660e01b81526004016123df91815260200190565b602060405180830381865afa1580156123fc573d6000803e3d6000fd5b505050506040513d601f19601f8201168201806040525081019061242091906139da565b806124a857506049546001600160a01b03166001600160a01b031663a75b87d26040518163ffffffff1660e01b8152600401602060405180830381865afa15801561246f573d6000803e3d6000fd5b505050506040513d601f19601f820116820180604052508101906124939190613a3a565b6001600160a01b0316326001600160a01b0316145b6124c75760405163372463e360e01b81523360048201526024016102d3565b836124d181612af8565b6124f9576040516349e82b5f60e11b81526001600160a01b03821660048201526024016102d3565b6125068989898787612cc8565b6040516340c10f1960e01b81526001600160a01b038616906340c10f1990612534908c908a906004016139c1565b600060405180830381600087803b15801561254e57600080fd5b505af1158015612562573d6000803e3d6000fd5b505050507f33f7e8834abb6db2d9d937d5702755a17292c57cbdce1e3cf535e256bb9a999887868b8b6040516107ea9493929190613a57565b60006125af6049546001600160a01b031690565b6001600160a01b0316631bed52416040518163ffffffff1660e01b8152600401602060405180830381865afa1580156125ec573d6000803e3d6000fd5b505050506040513d601f19601f8201168201806040525081019061261091906139da565b9050600181151514156126e1576049546001600160a01b03166001600160a01b0316637ae1cfca3360405160200161264891906139fc565b604051602081830303815290604052805190602001206040518263ffffffff1660e01b815260040161267c91815260200190565b602060405180830381865afa158015612699573d6000803e3d6000fd5b505050506040513d601f19601f820116820180604052508101906126bd91906139da565b6126dc5760405163372463e360e01b81523360048201526024016102d3565b612828565b6049546001600160a01b03166001600160a01b0316637ae1cfca3360405160200161270c91906139fc565b604051602081830303815290604052805190602001206040518263ffffffff1660e01b815260040161274091815260200190565b602060405180830381865afa15801561275d573d6000803e3d6000fd5b505050506040513d601f19601f8201168201806040525081019061278191906139da565b8061280957506049546001600160a01b03166001600160a01b031663a75b87d26040518163ffffffff1660e01b8152600401602060405180830381865afa1580156127d0573d6000803e3d6000fd5b505050506040513d601f19601f820116820180604052508101906127f49190613a3a565b6001600160a01b0316326001600160a01b0316145b6128285760405163372463e360e01b81523360048201526024016102d3565b6001600160a01b0382166000908152604c602052604090205460ff16156128915760405162461bcd60e51b815260206004820152601860248201527f546f6b656e20616c72656164792072656769737465726564000000000000000060448201526064016102d3565b50604b805460018181019092557f17b0af156a929edf60c351f3df2d53ed643fdd750aef9eda90dc7c8759a104a80180546001600160a01b039093166001600160a01b0319909316831790556000918252604c6020526040909120805460ff19169091179055565b600061290d6049546001600160a01b031690565b6001600160a01b03166321f8a7216003600001600d0184604051602001612935929190613b1b565b60408051601f198184030181529082905261295291602001613b6f565b604051602081830303815290604052805190602001206040518263ffffffff1660e01b815260040161298691815260200190565b602060405180830381865afa1580156129a3573d6000803e3d6000fd5b505050506040513d601f19601f820116820180604052508101906129c79190613a3a565b92915050565b60408051600280825260608083018452926000929190602083019080368337019050509050670c7d713b49da000081600081518110612a0e57612a0e613949565b60200260200101818152505067016345785d8a000081600181518110612a3657612a36613949565b6020908102919091010152919050565b6000612a5a6049546001600160a01b031690565b6001600160a01b03166321f8a7216003600001600a01604051612a7d9190613b8b565b60405190819003812060e083901b6001600160e01b03191682526004820152602401602060405180830381865afa158015612abc573d6000803e3d6000fd5b505050506040513d601f19601f82011682018060405250810190612ae09190613a3a565b905090565b6000612af18383612eae565b9392505050565b6000612b02612d10565b6001600160a01b0316826001600160a01b03161480612b395750612b24612f70565b6001600160a01b0316826001600160a01b0316145b80612b5c5750612b47612fa7565b6001600160a01b0316826001600160a01b0316145b80612b7f5750612b6a612fde565b6001600160a01b0316826001600160a01b0316145b806129c75750612b8d613015565b6001600160a01b0316826001600160a01b03161492915050565b6040516001600160a01b0380851660248301528316604482015260648101829052612c129085906323b872dd60e01b906084015b60408051601f198184030181529190526020810180516001600160e01b03166001600160e01b03199093169290921790915261304c565b50505050565b831580612c2c57506001600160a01b038316155b15612c3657612cc1565b612c4284848484612e06565b612c4a612a46565b604051627b8a6760e11b8152600481018690526001600160a01b038581166024830152919091169062f714ce90604401600060405180830381600087803b158015612c9457600080fd5b505af1158015612ca8573d6000803e3d6000fd5b50612cc1925050506001600160a01b0384168686613123565b5050505050565b831580612cdc57506001600160a01b038316155b15612ce657612cc1565b612cf284848484612d47565b612cc185612cfe612a46565b6001600160a01b038616919087612ba7565b6000612d246049546001600160a01b031690565b6001600160a01b03166321f8a7216003600001600501604051612a7d9190613b8b565b612d50816101d0565b670de0b6b3a764000014612d7757604051634a6603c960e11b815260040160405180910390fd5b8051825114612d9957604051632f6b708f60e21b815260040160405180910390fd5b60005b8251811015612cc157612df4838281518110612dba57612dba613949565b602002602001015185612def858581518110612dd857612dd8613949565b602002602001015189612ae590919063ffffffff16565b613142565b612dff600182613975565b9050612d9c565b612e0f816101d0565b670de0b6b3a764000014612e3657604051634a6603c960e11b815260040160405180910390fd5b8051825114612e5857604051632f6b708f60e21b815260040160405180910390fd5b60005b8251811015612cc157612e9c838281518110612e7957612e79613949565b602002602001015185612e97858581518110612dd857612dd8613949565b6131d4565b612ea7600182613975565b9050612e5b565b60008080600019848609848602925082811083820303915050670de0b6b3a76400008110612ef25760405163698d9a0160e11b8152600481018290526024016102d3565b600080670de0b6b3a76400008688099150506706f05b59d3b1ffff811182612f2c5780670de0b6b3a76400008504019450505050506129c7565b620400008285030493909111909103600160ee1b02919091177faccb18165bd6fe31ae1cf318dc5b51eee0e1ba569b88cd74c1773b91fac106690201905092915050565b6000612f846049546001600160a01b031690565b6001600160a01b03166321f8a7216003600001600601604051612a7d9190613b8b565b6000612fbb6049546001600160a01b031690565b6001600160a01b03166321f8a7216003600001600901604051612a7d9190613b8b565b6000612ff26049546001600160a01b031690565b6001600160a01b03166321f8a7216003600001600801604051612a7d9190613b8b565b60006130296049546001600160a01b031690565b6001600160a01b03166321f8a7216003600001600701604051612a7d9190613b8b565b60006130a1826040518060400160405280602081526020017f5361666545524332303a206c6f772d6c6576656c2063616c6c206661696c6564815250856001600160a01b03166132e29092919063ffffffff16565b80519091501561311e57808060200190518101906130bf91906139da565b61311e5760405162461bcd60e51b815260206004820152602a60248201527f5361666545524332303a204552433230206f7065726174696f6e20646964206e6044820152691bdd081cdd58d8d9595960b21b60648201526084016102d3565b505050565b61311e8363a9059cbb60e01b8484604051602401612bdb9291906139c1565b6049546040516001600160a01b039091169063adb353dc9061316d90601b9086908890602001613b97565b60408051601f198184030181529082905280516020909101206001600160e01b031960e084901b168252600482015260248101849052604401600060405180830381600087803b1580156131c057600080fd5b505af1158015611245573d6000803e3d6000fd5b806131e76049546001600160a01b031690565b6001600160a01b031663bd02d0f56003601401600401858760405160200161321193929190613b97565b604051602081830303815290604052805190602001206040518263ffffffff1660e01b815260040161324591815260200190565b602060405180830381865afa158015613262573d6000803e3d6000fd5b505050506040513d601f19601f8201168201806040525081019061328691906139a8565b10156132b75760405163229585e760e11b8152600481018290526001600160a01b03831660248201526044016102d3565b6049546040516001600160a01b039091169063ebb9d8c99061316d90601b9086908890602001613b97565b60606132f184846000856132f9565b949350505050565b60608247101561335a5760405162461bcd60e51b815260206004820152602660248201527f416464726573733a20696e73756666696369656e742062616c616e636520666f6044820152651c8818d85b1b60d21b60648201526084016102d3565b843b6133a85760405162461bcd60e51b815260206004820152601d60248201527f416464726573733a2063616c6c20746f206e6f6e2d636f6e747261637400000060448201526064016102d3565b600080866001600160a01b031685876040516133c49190613b6f565b60006040518083038185875af1925050503d8060008114613401576040519150601f19603f3d011682016040523d82523d6000602084013e613406565b606091505b5091509150613416828286613421565b979650505050505050565b60608315613430575081612af1565b8251156134405782518084602001fd5b8160405162461bcd60e51b81526004016102d39190613bc4565b634e487b7160e01b600052604160045260246000fd5b604051601f8201601f1916810167ffffffffffffffff811182821017156134995761349961345a565b604052919050565b600067ffffffffffffffff8211156134bb576134bb61345a565b5060051b60200190565b600082601f8301126134d657600080fd5b813560206134eb6134e6836134a1565b613470565b82815260059290921b8401810191818101908684111561350a57600080fd5b8286015b84811015613525578035835291830191830161350e565b509695505050505050565b60006020828403121561354257600080fd5b813567ffffffffffffffff81111561355957600080fd5b6132f1848285016134c5565b6001600160a01b038116811461357a57600080fd5b50565b803561358881613565565b919050565b60006020828403121561359f57600080fd5b8135612af181613565565b600080600080600080600060e0888a0312156135c557600080fd5b87356135d081613565565b96506020880135955060408801356135e781613565565b94506060880135935060808801356135fe81613565565b925060a088013567ffffffffffffffff8082111561361b57600080fd5b6136278b838c016134c5565b935060c08a013591508082111561363d57600080fd5b5061364a8a828b016134c5565b91505092959891949750929550565b60008060008060008060008060006101208a8c03121561367857600080fd5b6136818a61357d565b985060208a0135975061369660408b0161357d565b965060608a013567ffffffffffffffff808211156136b357600080fd5b6136bf8d838e016134c5565b975060808c01359150808211156136d557600080fd5b6136e18d838e016134c5565b965060a08c0135955060c08c0135945060e08c013591508082111561370557600080fd5b6137118d838e016134c5565b93506101008c013591508082111561372857600080fd5b506137358c828d016134c5565b9150509295985092959850929598565b600080600080600060a0868803121561375d57600080fd5b853561376881613565565b94506020860135935060408601359250606086013567ffffffffffffffff8082111561379357600080fd5b61379f89838a016134c5565b935060808801359150808211156137b557600080fd5b506137c2888289016134c5565b9150509295509295909350565b600080600080600060a086880312156137e757600080fd5b85356137f281613565565b945060208601359350604086013561380981613565565b925060608601359150608086013561382081613565565b809150509295509295909350565b60008060008060008060c0878903121561384757600080fd5b863561385281613565565b955060208701359450604087013561386981613565565b9350606087013567ffffffffffffffff8082111561388657600080fd5b6138928a838b016134c5565b945060808901359150808211156138a857600080fd5b506138b589828a016134c5565b92505060a087013590509295509295509295565b600080600080608085870312156138df57600080fd5b84356138ea81613565565b935060208501359250604085013567ffffffffffffffff8082111561390e57600080fd5b61391a888389016134c5565b9350606087013591508082111561393057600080fd5b5061393d878288016134c5565b91505092959194509250565b634e487b7160e01b600052603260045260246000fd5b634e487b7160e01b600052601160045260246000fd5b600082198211156139885761398861395f565b500190565b60006000198214156139a1576139a161395f565b5060010190565b6000602082840312156139ba57600080fd5b5051919050565b6001600160a01b03929092168252602082015260400190565b6000602082840312156139ec57600080fd5b81518015158114612af157600080fd5b7f7068616e746f6d2e636f6e74726163742e726567697374657265640000000000815260609190911b6001600160601b031916601b820152602f0190565b600060208284031215613a4c57600080fd5b8151612af181613565565b6001600160a01b039485168152928416602084015292166040820152606081019190915260800190565b8054600090600181811c9080831680613a9b57607f831692505b6020808410821415613abd57634e487b7160e01b600052602260045260246000fd5b818015613ad15760018114613ae257613b0f565b60ff19861689528489019650613b0f565b60008881526020902060005b86811015613b075781548b820152908501908301613aee565b505084890196505b50505050505092915050565b6000613b278285613a81565b60609390931b6001600160601b03191683525050601401919050565b60005b83811015613b5e578181015183820152602001613b46565b83811115612c125750506000910152565b60008251613b81818460208701613b43565b9190910192915050565b6000612af18284613a81565b6000613ba38286613a81565b60609490941b6001600160601b031916845250506014820152603401919050565b6020815260008251806020840152613be3816040850160208701613b43565b601f01601f1916919091016040019291505056fea264697066735822122003d784e871726da5c7173c33ee7f6e390eed3715c103e756a53b2824239821fc64736f6c634300080a00337068616e746f6d2e626f6e64696e672e757365722e6c6f776573745f6e6f6e63655f7374696c6c5f76657374696e677068616e746f6d2e626f6e64696e672e757365722e6c6f776573745f61737369676e61626c655f6e6f6e63657068616e746f6d2e666f756e6465722e636c61696d732e72656d61696e696e67416d6f756e747068616e746f6d2e616c6c6f6361746f722e746f6b656e732e616464726573732e6461697068616e746f6d2e726f7574696e672e6465785f726f757465725f616464726573737068616e746f6d2e666f756e6465722e636c61696d732e696e697469616c416d6f756e747068616e746f6d2e74726561737572792e6163636f756e745f6b65792e76656e747572656361706974616c7068616e746f6d2e616c6c6f6361746f722e746f6b656e732e616464726573732e6461695f70686d5f6c707068616e746f6d2e726f7574696e672e73706f6f6b795f726f757465725f616464726573737068616e746f6d2e74726561737572792e617070726f7665642e65787465726e616c2e616464726573737068616e746f6d2e626f6e64696e672e757365722e66697273745f756e72656465656d65645f6e6f6e63657068616e746f6d2e726f7574696e672e7370697269745f726f757465725f616464726573737068616e746f6d2e616c6c6f6361746f722e746f6b656e732e64657374696e6174696f6e737068616e746f6d2e626f6e64696e672e76657374735f61745f74696d657374616d707068616e746f6d2e726f7574696e672e7370697269745f666163746f72795f616464726573737068616e746f6d2e616c6c6f6361746f722e746f6b656e732e646573745f70657263656e74616765737068616e746f6d2e74726561737572792e6163636f756e745f6b65792e72657365727665737068616e746f6d2e616c6c6f6361746f722e746f6b656e732e616464726573732e6d696d7068616e746f6d2e726f7574696e672e73706f6f6b795f666163746f72795f616464726573737068616e746f6d2e616c6c6f6361746f722e746f6b656e732e616464726573732e7766746d7068616e746f6d2e616c6c6f6361746f722e746f6b656e732e616464726573732e6465787068616e746f6d2e726f7574696e672e7370697269745f67617567655f616464726573737068616e746f6d2e666f756e6465722e636c61696d732e616c6c6f636174696f6e7068616e746f6d2e726f7574696e672e6465785f666163746f72795f616464726573737068616e746f6d2e676f7665726e6f722e71756f72756d50657263656e746167657068616e746f6d2e676f7665726e6f722e70726f706f73616c5468726573686f6c647068616e746f6d2e7374616b696e672e6e657874526562617365446561646c696e657068616e746f6d2e626f6e64696e672e72656d61696e696e675f7061796f75745f666f727068616e746f6d2e726f7574696e672e7370697269745f67617567655f70726f78795f61646472657373",
  "bytecodeSha1": "da39a3ee5e6b4b0d3255bfef95601890afd80709",
  "compiler": {
    "evm_version": "istanbul",
    "optimizer": {
      "enabled": true,
      "runs": 200
    },
    "version": "0.8.10+commit.fc410830"
  },
  "contractName": "PhantomTreasury",
  "language": "Solidity",
  "natspec": {
    "author": "PhantomDao Team",
    "errors": {
      "PRBMath__MulDivFixedPointOverflow(uint256)": [
        {
          "notice": "Emitted when the result overflows uint256."
        }
      ]
    },
    "kind": "dev",
    "methods": {
      "deposit(address,uint256,address,bytes32[],uint256[],uint256,uint256,bytes32[],uint256[])": {
        "details": "deposit funds into the treasury",
        "params": {
          "inAmount": "how much is being deposited?",
          "inDepositor": "who is depositing the money?",
          "inToken": "what type of token is being deposited?",
          "keys": "which balances need to be updated",
          "mintRatio": "what discount to apply to price of inToken in order to determine how many PHM to mint.",
          "percentages": "what percentage of this transaction should be attributed to each balance",
          "profitKeys": "where DAO profit should be credited to",
          "profitPercentages": "in what percentages should the profit be allocated across profitKeys ",
          "profitRatio": "want multiplier to use to determine DAO profit amount in PHM"
        },
        "returns": {
          "_0": "the amount deposited"
        }
      },
      "registerReserveToken(address)": {
        "details": "register a token as being one of the reserve tokens"
      },
      "swap(address,uint256,address,uint256,address,bytes32[],uint256[])": {
        "details": "swap some tokens in the treasury for another type of token",
        "params": {
          "forUser": "who is doing this swap?",
          "inAmount": "amount of tokens to be swapped",
          "inToken": "the token type being swapped",
          "keys": "which balances need to be updated",
          "outAmount": "the amount of new tokens to receive in exchange",
          "outToken": "the type of token to receive in exchange",
          "percentages": "what percentage of this transaction should be attributed to each balance"
        }
      },
      "swapBurn(address,uint256,address,uint256,address,bytes32[],uint256[])": {
        "details": "swap some tokens in the treasury for another type of token, burning the original tokens",
        "params": {
          "burnAmount": "amount of tokens to be brned",
          "burnToken": "the token type being burned",
          "forUser": "who is doing this swap?",
          "keys": "which balances need to be updated",
          "outAmount": "the amount of new tokens to receive in exchange",
          "outToken": "the type of token to receive in exchange",
          "percentages": "what percentage of this transaction should be attributed to each balance"
        }
      },
      "swapBurnMint(address,uint256,address,uint256,address)": {
        "details": "burn an amount of tokens and mint an amount of tokens in its place",
        "params": {
          "burnAmount": "amount of tokens to be burned",
          "burnToken": "the token type being burned",
          "forUser": "who is doing this swap?",
          "mintAmount": "the amount of new tokens to be minted and receive in exchange",
          "mintToken": "the type of token to be minted and receive in exchange"
        }
      },
      "swapMint(address,uint256,address,uint256,address,bytes32[],uint256[])": {
        "details": "swap some tokens in the treasury for another type of newly minted tokens",
        "params": {
          "forUser": "who is doing this swap?",
          "inAmount": "amount of tokens to be swapped",
          "inToken": "the token type being swapped",
          "keys": "which balances need to be updated",
          "mintAmount": "the amount of new tokens to be minted and receive in exchange",
          "mintToken": "the type of token to be minted and receive in exchange",
          "percentages": "what percentage of this transaction should be attributed to each balance"
        }
      },
      "withdraw(address,uint256,address,bytes32[],uint256[],uint256)": {
        "details": "Withdraw funds from the treasury",
        "params": {
          "burnRatio": "what discount to apply to price of inToken in order to determine how many PHM to burn.",
          "keys": "which balances need to be updated",
          "outAmount": "how much is being withdrawn?",
          "outToken": "what type of token is being withdrawn?",
          "outWithdrawer": "who is withdrawing the funds?",
          "percentages": "what percentage of this transaction should be attributed to each balance"
        },
        "returns": {
          "_0": "the amount withdrawn"
        }
      }
    },
    "notice": "The contract responsible for handle all token transactions",
    "title": "PhantomTreasury",
    "version": 1
  },
  "opcodes": "PUSH1 0x80 PUSH1 0x40 MSTORE CALLVALUE DUP1 ISZERO PUSH2 0x10 JUMPI PUSH1 0x0 DUP1 REVERT JUMPDEST POP PUSH1 0x4 CALLDATASIZE LT PUSH2 0xB4 JUMPI PUSH1 0x0 CALLDATALOAD PUSH1 0xE0 SHR DUP1 PUSH4 0xA3971047 GT PUSH2 0x71 JUMPI DUP1 PUSH4 0xA3971047 EQ PUSH2 0x15E JUMPI DUP1 PUSH4 0xC41AC8CF EQ PUSH2 0x171 JUMPI DUP1 PUSH4 0xD480DD3F EQ PUSH2 0x184 JUMPI DUP1 PUSH4 0xDB457C91 EQ PUSH2 0x197 JUMPI DUP1 PUSH4 0xDDF0A2C4 EQ PUSH2 0x1AA JUMPI DUP1 PUSH4 0xF6D78B1C EQ PUSH2 0x1BD JUMPI PUSH1 0x0 DUP1 REVERT JUMPDEST DUP1 PUSH4 0x194DB8E EQ PUSH2 0xB9 JUMPI DUP1 PUSH4 0x49D13D43 EQ PUSH2 0xDF JUMPI DUP1 PUSH4 0x68C31DD5 EQ PUSH2 0xE7 JUMPI DUP1 PUSH4 0x76997EB5 EQ PUSH2 0x123 JUMPI DUP1 PUSH4 0x91C65E19 EQ PUSH2 0x138 JUMPI DUP1 PUSH4 0x97D632B1 EQ PUSH2 0x14B JUMPI JUMPDEST PUSH1 0x0 DUP1 REVERT JUMPDEST PUSH2 0xCC PUSH2 0xC7 CALLDATASIZE PUSH1 0x4 PUSH2 0x3530 JUMP JUMPDEST PUSH2 0x1D0 JUMP JUMPDEST PUSH1 0x40 MLOAD SWAP1 DUP2 MSTORE PUSH1 0x20 ADD JUMPDEST PUSH1 0x40 MLOAD DUP1 SWAP2 SUB SWAP1 RETURN JUMPDEST PUSH2 0xCC PUSH2 0x21F JUMP JUMPDEST PUSH2 0x113 PUSH2 0xF5 CALLDATASIZE PUSH1 0x4 PUSH2 0x358D JUMP JUMPDEST PUSH1 0x1 PUSH1 0x1 PUSH1 0xA0 SHL SUB AND PUSH1 0x0 SWAP1 DUP2 MSTORE PUSH1 0x4C PUSH1 0x20 MSTORE PUSH1 0x40 SWAP1 KECCAK256 SLOAD PUSH1 0xFF AND SWAP1 JUMP JUMPDEST PUSH1 0x40 MLOAD SWAP1 ISZERO ISZERO DUP2 MSTORE PUSH1 0x20 ADD PUSH2 0xD6 JUMP JUMPDEST PUSH2 0x136 PUSH2 0x131 CALLDATASIZE PUSH1 0x4 PUSH2 0x35AA JUMP JUMPDEST PUSH2 0x45F JUMP JUMPDEST STOP JUMPDEST PUSH2 0xCC PUSH2 0x146 CALLDATASIZE PUSH1 0x4 PUSH2 0x3659 JUMP JUMPDEST PUSH2 0x7FD JUMP JUMPDEST PUSH2 0x136 PUSH2 0x159 CALLDATASIZE PUSH1 0x4 PUSH2 0x3745 JUMP JUMPDEST PUSH2 0xDF3 JUMP JUMPDEST PUSH2 0x136 PUSH2 0x16C CALLDATASIZE PUSH1 0x4 PUSH2 0x35AA JUMP JUMPDEST PUSH2 0x124E JUMP JUMPDEST PUSH2 0x136 PUSH2 0x17F CALLDATASIZE PUSH1 0x4 PUSH2 0x37CF JUMP JUMPDEST PUSH2 0x153C JUMP JUMPDEST PUSH2 0xCC PUSH2 0x192 CALLDATASIZE PUSH1 0x4 PUSH2 0x382E JUMP JUMPDEST PUSH2 0x1948 JUMP JUMPDEST PUSH2 0x136 PUSH2 0x1A5 CALLDATASIZE PUSH1 0x4 PUSH2 0x38C9 JUMP JUMPDEST PUSH2 0x1E51 JUMP JUMPDEST PUSH2 0x136 PUSH2 0x1B8 CALLDATASIZE PUSH1 0x4 PUSH2 0x35AA JUMP JUMPDEST PUSH2 0x223A JUMP JUMPDEST PUSH2 0x136 PUSH2 0x1CB CALLDATASIZE PUSH1 0x4 PUSH2 0x358D JUMP JUMPDEST PUSH2 0x259B JUMP JUMPDEST PUSH1 0x0 DUP1 PUSH1 0x0 JUMPDEST DUP4 MLOAD DUP2 LT ISZERO PUSH2 0x218 JUMPI DUP4 DUP2 DUP2 MLOAD DUP2 LT PUSH2 0x1F1 JUMPI PUSH2 0x1F1 PUSH2 0x3949 JUMP JUMPDEST PUSH1 0x20 MUL PUSH1 0x20 ADD ADD MLOAD DUP3 PUSH2 0x204 SWAP2 SWAP1 PUSH2 0x3975 JUMP JUMPDEST SWAP2 POP DUP1 PUSH2 0x210 DUP2 PUSH2 0x398D JUMP JUMPDEST SWAP2 POP POP PUSH2 0x1D6 JUMP JUMPDEST POP SWAP3 SWAP2 POP POP JUMP JUMPDEST PUSH1 0x0 DUP1 PUSH1 0x0 JUMPDEST PUSH1 0x4B SLOAD DUP2 LT ISZERO PUSH2 0x459 JUMPI PUSH1 0x0 PUSH2 0x261 PUSH1 0x4B DUP4 DUP2 SLOAD DUP2 LT PUSH2 0x247 JUMPI PUSH2 0x247 PUSH2 0x3949 JUMP JUMPDEST PUSH1 0x0 SWAP2 DUP3 MSTORE PUSH1 0x20 SWAP1 SWAP2 KECCAK256 ADD SLOAD PUSH1 0x1 PUSH1 0x1 PUSH1 0xA0 SHL SUB AND PUSH2 0x28F9 JUMP JUMPDEST SWAP1 POP PUSH1 0x1 PUSH1 0x1 PUSH1 0xA0 SHL SUB DUP2 AND PUSH2 0x2DC JUMPI PUSH1 0x40 MLOAD PUSH3 0x461BCD PUSH1 0xE5 SHL DUP2 MSTORE PUSH1 0x20 PUSH1 0x4 DUP3 ADD MSTORE PUSH1 0x35 PUSH1 0x24 DUP3 ADD MSTORE PUSH32 0x5068616E746F6D54726561737572793A204E6F20747761702072656769737465 PUSH1 0x44 DUP3 ADD MSTORE PUSH21 0x3932B2103337B9103932B9B2B93B32903A37B5B2B7 PUSH1 0x59 SHL PUSH1 0x64 DUP3 ADD MSTORE PUSH1 0x84 ADD JUMPDEST PUSH1 0x40 MLOAD DUP1 SWAP2 SUB SWAP1 REVERT JUMPDEST DUP1 PUSH1 0x1 PUSH1 0x1 PUSH1 0xA0 SHL SUB AND PUSH4 0x3DDAC953 PUSH1 0x4B DUP5 DUP2 SLOAD DUP2 LT PUSH2 0x2FE JUMPI PUSH2 0x2FE PUSH2 0x3949 JUMP JUMPDEST PUSH1 0x0 SWAP2 DUP3 MSTORE PUSH1 0x20 SWAP1 SWAP2 KECCAK256 ADD SLOAD PUSH1 0x1 PUSH1 0x1 PUSH1 0xA0 SHL SUB AND PUSH2 0x3DB PUSH2 0x31E PUSH2 0x29CD JUMP JUMPDEST PUSH1 0x0 DUP2 MLOAD DUP2 LT PUSH2 0x330 JUMPI PUSH2 0x330 PUSH2 0x3949 JUMP JUMPDEST PUSH1 0x20 MUL PUSH1 0x20 ADD ADD MLOAD PUSH1 0x4B DUP8 DUP2 SLOAD DUP2 LT PUSH2 0x34B JUMPI PUSH2 0x34B PUSH2 0x3949 JUMP JUMPDEST PUSH1 0x0 SWAP2 DUP3 MSTORE PUSH1 0x20 SWAP1 SWAP2 KECCAK256 ADD SLOAD PUSH1 0x1 PUSH1 0x1 PUSH1 0xA0 SHL SUB AND PUSH4 0x70A08231 PUSH2 0x36D PUSH2 0x2A46 JUMP JUMPDEST PUSH1 0x40 MLOAD PUSH1 0x1 PUSH1 0x1 PUSH1 0xE0 SHL SUB NOT PUSH1 0xE0 DUP5 SWAP1 SHL AND DUP2 MSTORE PUSH1 0x1 PUSH1 0x1 PUSH1 0xA0 SHL SUB SWAP1 SWAP2 AND PUSH1 0x4 DUP3 ADD MSTORE PUSH1 0x24 ADD PUSH1 0x20 PUSH1 0x40 MLOAD DUP1 DUP4 SUB DUP2 DUP7 GAS STATICCALL ISZERO DUP1 ISZERO PUSH2 0x3B1 JUMPI RETURNDATASIZE PUSH1 0x0 DUP1 RETURNDATACOPY RETURNDATASIZE PUSH1 0x0 REVERT JUMPDEST POP POP POP POP PUSH1 0x40 MLOAD RETURNDATASIZE PUSH1 0x1F NOT PUSH1 0x1F DUP3 ADD AND DUP3 ADD DUP1 PUSH1 0x40 MSTORE POP DUP2 ADD SWAP1 PUSH2 0x3D5 SWAP2 SWAP1 PUSH2 0x39A8 JUMP JUMPDEST SWAP1 PUSH2 0x2AE5 JUMP JUMPDEST PUSH1 0x40 MLOAD DUP4 PUSH4 0xFFFFFFFF AND PUSH1 0xE0 SHL DUP2 MSTORE PUSH1 0x4 ADD PUSH2 0x3F8 SWAP3 SWAP2 SWAP1 PUSH2 0x39C1 JUMP JUMPDEST PUSH1 0x20 PUSH1 0x40 MLOAD DUP1 DUP4 SUB DUP2 DUP7 GAS STATICCALL ISZERO DUP1 ISZERO PUSH2 0x415 JUMPI RETURNDATASIZE PUSH1 0x0 DUP1 RETURNDATACOPY RETURNDATASIZE PUSH1 0x0 REVERT JUMPDEST POP POP POP POP PUSH1 0x40 MLOAD RETURNDATASIZE PUSH1 0x1F NOT PUSH1 0x1F DUP3 ADD AND DUP3 ADD DUP1 PUSH1 0x40 MSTORE POP DUP2 ADD SWAP1 PUSH2 0x439 SWAP2 SWAP1 PUSH2 0x39A8 JUMP JUMPDEST PUSH2 0x443 SWAP1 DUP5 PUSH2 0x3975 JUMP JUMPDEST SWAP3 POP POP DUP1 DUP1 PUSH2 0x451 SWAP1 PUSH2 0x398D JUMP JUMPDEST SWAP2 POP POP PUSH2 0x225 JUMP JUMPDEST POP SWAP2 SWAP1 POP JUMP JUMPDEST PUSH1 0x0 PUSH2 0x473 PUSH1 0x49 SLOAD PUSH1 0x1 PUSH1 0x1 PUSH1 0xA0 SHL SUB AND SWAP1 JUMP JUMPDEST PUSH1 0x1 PUSH1 0x1 PUSH1 0xA0 SHL SUB AND PUSH4 0x1BED5241 PUSH1 0x40 MLOAD DUP2 PUSH4 0xFFFFFFFF AND PUSH1 0xE0 SHL DUP2 MSTORE PUSH1 0x4 ADD PUSH1 0x20 PUSH1 0x40 MLOAD DUP1 DUP4 SUB DUP2 DUP7 GAS STATICCALL ISZERO DUP1 ISZERO PUSH2 0x4B0 JUMPI RETURNDATASIZE PUSH1 0x0 DUP1 RETURNDATACOPY RETURNDATASIZE PUSH1 0x0 REVERT JUMPDEST POP POP POP POP PUSH1 0x40 MLOAD RETURNDATASIZE PUSH1 0x1F NOT PUSH1 0x1F DUP3 ADD AND DUP3 ADD DUP1 PUSH1 0x40 MSTORE POP DUP2 ADD SWAP1 PUSH2 0x4D4 SWAP2 SWAP1 PUSH2 0x39DA JUMP JUMPDEST SWAP1 POP PUSH1 0x1 DUP2 ISZERO ISZERO EQ ISZERO PUSH2 0x5A5 JUMPI PUSH1 0x49 SLOAD PUSH1 0x1 PUSH1 0x1 PUSH1 0xA0 SHL SUB AND PUSH1 0x1 PUSH1 0x1 PUSH1 0xA0 SHL SUB AND PUSH4 0x7AE1CFCA CALLER PUSH1 0x40 MLOAD PUSH1 0x20 ADD PUSH2 0x50C SWAP2 SWAP1 PUSH2 0x39FC JUMP JUMPDEST PUSH1 0x40 MLOAD PUSH1 0x20 DUP2 DUP4 SUB SUB DUP2 MSTORE SWAP1 PUSH1 0x40 MSTORE DUP1 MLOAD SWAP1 PUSH1 0x20 ADD KECCAK256 PUSH1 0x40 MLOAD DUP3 PUSH4 0xFFFFFFFF AND PUSH1 0xE0 SHL DUP2 MSTORE PUSH1 0x4 ADD PUSH2 0x540 SWAP2 DUP2 MSTORE PUSH1 0x20 ADD SWAP1 JUMP JUMPDEST PUSH1 0x20 PUSH1 0x40 MLOAD DUP1 DUP4 SUB DUP2 DUP7 GAS STATICCALL ISZERO DUP1 ISZERO PUSH2 0x55D JUMPI RETURNDATASIZE PUSH1 0x0 DUP1 RETURNDATACOPY RETURNDATASIZE PUSH1 0x0 REVERT JUMPDEST POP POP POP POP PUSH1 0x40 MLOAD RETURNDATASIZE PUSH1 0x1F NOT PUSH1 0x1F DUP3 ADD AND DUP3 ADD DUP1 PUSH1 0x40 MSTORE POP DUP2 ADD SWAP1 PUSH2 0x581 SWAP2 SWAP1 PUSH2 0x39DA JUMP JUMPDEST PUSH2 0x5A0 JUMPI PUSH1 0x40 MLOAD PUSH4 0x372463E3 PUSH1 0xE0 SHL DUP2 MSTORE CALLER PUSH1 0x4 DUP3 ADD MSTORE PUSH1 0x24 ADD PUSH2 0x2D3 JUMP JUMPDEST PUSH2 0x6EC JUMP JUMPDEST PUSH1 0x49 SLOAD PUSH1 0x1 PUSH1 0x1 PUSH1 0xA0 SHL SUB AND PUSH1 0x1 PUSH1 0x1 PUSH1 0xA0 SHL SUB AND PUSH4 0x7AE1CFCA CALLER PUSH1 0x40 MLOAD PUSH1 0x20 ADD PUSH2 0x5D0 SWAP2 SWAP1 PUSH2 0x39FC JUMP JUMPDEST PUSH1 0x40 MLOAD PUSH1 0x20 DUP2 DUP4 SUB SUB DUP2 MSTORE SWAP1 PUSH1 0x40 MSTORE DUP1 MLOAD SWAP1 PUSH1 0x20 ADD KECCAK256 PUSH1 0x40 MLOAD DUP3 PUSH4 0xFFFFFFFF AND PUSH1 0xE0 SHL DUP2 MSTORE PUSH1 0x4 ADD PUSH2 0x604 SWAP2 DUP2 MSTORE PUSH1 0x20 ADD SWAP1 JUMP JUMPDEST PUSH1 0x20 PUSH1 0x40 MLOAD DUP1 DUP4 SUB DUP2 DUP7 GAS STATICCALL ISZERO DUP1 ISZERO PUSH2 0x621 JUMPI RETURNDATASIZE PUSH1 0x0 DUP1 RETURNDATACOPY RETURNDATASIZE PUSH1 0x0 REVERT JUMPDEST POP POP POP POP PUSH1 0x40 MLOAD RETURNDATASIZE PUSH1 0x1F NOT PUSH1 0x1F DUP3 ADD AND DUP3 ADD DUP1 PUSH1 0x40 MSTORE POP DUP2 ADD SWAP1 PUSH2 0x645 SWAP2 SWAP1 PUSH2 0x39DA JUMP JUMPDEST DUP1 PUSH2 0x6CD JUMPI POP PUSH1 0x49 SLOAD PUSH1 0x1 PUSH1 0x1 PUSH1 0xA0 SHL SUB AND PUSH1 0x1 PUSH1 0x1 PUSH1 0xA0 SHL SUB AND PUSH4 0xA75B87D2 PUSH1 0x40 MLOAD DUP2 PUSH4 0xFFFFFFFF AND PUSH1 0xE0 SHL DUP2 MSTORE PUSH1 0x4 ADD PUSH1 0x20 PUSH1 0x40 MLOAD DUP1 DUP4 SUB DUP2 DUP7 GAS STATICCALL ISZERO DUP1 ISZERO PUSH2 0x694 JUMPI RETURNDATASIZE PUSH1 0x0 DUP1 RETURNDATACOPY RETURNDATASIZE PUSH1 0x0 REVERT JUMPDEST POP POP POP POP PUSH1 0x40 MLOAD RETURNDATASIZE PUSH1 0x1F NOT PUSH1 0x1F DUP3 ADD AND DUP3 ADD DUP1 PUSH1 0x40 MSTORE POP DUP2 ADD SWAP1 PUSH2 0x6B8 SWAP2 SWAP1 PUSH2 0x3A3A JUMP JUMPDEST PUSH1 0x1 PUSH1 0x1 PUSH1 0xA0 SHL SUB AND ORIGIN PUSH1 0x1 PUSH1 0x1 PUSH1 0xA0 SHL SUB AND EQ JUMPDEST PUSH2 0x6EC JUMPI PUSH1 0x40 MLOAD PUSH4 0x372463E3 PUSH1 0xE0 SHL DUP2 MSTORE CALLER PUSH1 0x4 DUP3 ADD MSTORE PUSH1 0x24 ADD PUSH2 0x2D3 JUMP JUMPDEST DUP6 PUSH2 0x6F6 DUP2 PUSH2 0x2AF8 JUMP JUMPDEST PUSH2 0x71E JUMPI PUSH1 0x40 MLOAD PUSH4 0x49E82B5F PUSH1 0xE1 SHL DUP2 MSTORE PUSH1 0x1 PUSH1 0x1 PUSH1 0xA0 SHL SUB DUP3 AND PUSH1 0x4 DUP3 ADD MSTORE PUSH1 0x24 ADD PUSH2 0x2D3 JUMP JUMPDEST PUSH2 0x73C DUP10 PUSH2 0x72A PUSH2 0x2A46 JUMP JUMPDEST PUSH1 0x1 PUSH1 0x1 PUSH1 0xA0 SHL SUB DUP11 AND SWAP2 SWAP1 DUP12 PUSH2 0x2BA7 JUMP JUMPDEST PUSH2 0x744 PUSH2 0x2A46 JUMP JUMPDEST PUSH1 0x40 MLOAD PUSH4 0x3F34D4CF PUSH1 0xE2 SHL DUP2 MSTORE PUSH1 0x4 DUP2 ADD DUP11 SWAP1 MSTORE PUSH1 0x1 PUSH1 0x1 PUSH1 0xA0 SHL SUB DUP10 DUP2 AND PUSH1 0x24 DUP4 ADD MSTORE SWAP2 SWAP1 SWAP2 AND SWAP1 PUSH4 0xFCD3533C SWAP1 PUSH1 0x44 ADD PUSH1 0x0 PUSH1 0x40 MLOAD DUP1 DUP4 SUB DUP2 PUSH1 0x0 DUP8 DUP1 EXTCODESIZE ISZERO DUP1 ISZERO PUSH2 0x790 JUMPI PUSH1 0x0 DUP1 REVERT JUMPDEST POP GAS CALL ISZERO DUP1 ISZERO PUSH2 0x7A4 JUMPI RETURNDATASIZE PUSH1 0x0 DUP1 RETURNDATACOPY RETURNDATASIZE PUSH1 0x0 REVERT JUMPDEST POP POP POP POP PUSH2 0x7B5 DUP10 DUP8 DUP8 DUP8 DUP8 PUSH2 0x2C18 JUMP JUMPDEST PUSH32 0x89E19257A72F4118164F2754032AE310FB86B3F1192FD8F6953C36E665E3CEEC DUP8 DUP7 DUP12 DUP12 PUSH1 0x40 MLOAD PUSH2 0x7EA SWAP5 SWAP4 SWAP3 SWAP2 SWAP1 PUSH2 0x3A57 JUMP JUMPDEST PUSH1 0x40 MLOAD DUP1 SWAP2 SUB SWAP1 LOG1 POP POP POP POP POP POP POP POP POP JUMP JUMPDEST PUSH1 0x0 DUP1 PUSH2 0x812 PUSH1 0x49 SLOAD PUSH1 0x1 PUSH1 0x1 PUSH1 0xA0 SHL SUB AND SWAP1 JUMP JUMPDEST PUSH1 0x1 PUSH1 0x1 PUSH1 0xA0 SHL SUB AND PUSH4 0x1BED5241 PUSH1 0x40 MLOAD DUP2 PUSH4 0xFFFFFFFF AND PUSH1 0xE0 SHL DUP2 MSTORE PUSH1 0x4 ADD PUSH1 0x20 PUSH1 0x40 MLOAD DUP1 DUP4 SUB DUP2 DUP7 GAS STATICCALL ISZERO DUP1 ISZERO PUSH2 0x84F JUMPI RETURNDATASIZE PUSH1 0x0 DUP1 RETURNDATACOPY RETURNDATASIZE PUSH1 0x0 REVERT JUMPDEST POP POP POP POP PUSH1 0x40 MLOAD RETURNDATASIZE PUSH1 0x1F NOT PUSH1 0x1F DUP3 ADD AND DUP3 ADD DUP1 PUSH1 0x40 MSTORE POP DUP2 ADD SWAP1 PUSH2 0x873 SWAP2 SWAP1 PUSH2 0x39DA JUMP JUMPDEST SWAP1 POP PUSH1 0x1 DUP2 ISZERO ISZERO EQ ISZERO PUSH2 0x944 JUMPI PUSH1 0x49 SLOAD PUSH1 0x1 PUSH1 0x1 PUSH1 0xA0 SHL SUB AND PUSH1 0x1 PUSH1 0x1 PUSH1 0xA0 SHL SUB AND PUSH4 0x7AE1CFCA CALLER PUSH1 0x40 MLOAD PUSH1 0x20 ADD PUSH2 0x8AB SWAP2 SWAP1 PUSH2 0x39FC JUMP JUMPDEST PUSH1 0x40 MLOAD PUSH1 0x20 DUP2 DUP4 SUB SUB DUP2 MSTORE SWAP1 PUSH1 0x40 MSTORE DUP1 MLOAD SWAP1 PUSH1 0x20 ADD KECCAK256 PUSH1 0x40 MLOAD DUP3 PUSH4 0xFFFFFFFF AND PUSH1 0xE0 SHL DUP2 MSTORE PUSH1 0x4 ADD PUSH2 0x8DF SWAP2 DUP2 MSTORE PUSH1 0x20 ADD SWAP1 JUMP JUMPDEST PUSH1 0x20 PUSH1 0x40 MLOAD DUP1 DUP4 SUB DUP2 DUP7 GAS STATICCALL ISZERO DUP1 ISZERO PUSH2 0x8FC JUMPI RETURNDATASIZE PUSH1 0x0 DUP1 RETURNDATACOPY RETURNDATASIZE PUSH1 0x0 REVERT JUMPDEST POP POP POP POP PUSH1 0x40 MLOAD RETURNDATASIZE PUSH1 0x1F NOT PUSH1 0x1F DUP3 ADD AND DUP3 ADD DUP1 PUSH1 0x40 MSTORE POP DUP2 ADD SWAP1 PUSH2 0x920 SWAP2 SWAP1 PUSH2 0x39DA JUMP JUMPDEST PUSH2 0x93F JUMPI PUSH1 0x40 MLOAD PUSH4 0x372463E3 PUSH1 0xE0 SHL DUP2 MSTORE CALLER PUSH1 0x4 DUP3 ADD MSTORE PUSH1 0x24 ADD PUSH2 0x2D3 JUMP JUMPDEST PUSH2 0xA8B JUMP JUMPDEST PUSH1 0x49 SLOAD PUSH1 0x1 PUSH1 0x1 PUSH1 0xA0 SHL SUB AND PUSH1 0x1 PUSH1 0x1 PUSH1 0xA0 SHL SUB AND PUSH4 0x7AE1CFCA CALLER PUSH1 0x40 MLOAD PUSH1 0x20 ADD PUSH2 0x96F SWAP2 SWAP1 PUSH2 0x39FC JUMP JUMPDEST PUSH1 0x40 MLOAD PUSH1 0x20 DUP2 DUP4 SUB SUB DUP2 MSTORE SWAP1 PUSH1 0x40 MSTORE DUP1 MLOAD SWAP1 PUSH1 0x20 ADD KECCAK256 PUSH1 0x40 MLOAD DUP3 PUSH4 0xFFFFFFFF AND PUSH1 0xE0 SHL DUP2 MSTORE PUSH1 0x4 ADD PUSH2 0x9A3 SWAP2 DUP2 MSTORE PUSH1 0x20 ADD SWAP1 JUMP JUMPDEST PUSH1 0x20 PUSH1 0x40 MLOAD DUP1 DUP4 SUB DUP2 DUP7 GAS STATICCALL ISZERO DUP1 ISZERO PUSH2 0x9C0 JUMPI RETURNDATASIZE PUSH1 0x0 DUP1 RETURNDATACOPY RETURNDATASIZE PUSH1 0x0 REVERT JUMPDEST POP POP POP POP PUSH1 0x40 MLOAD RETURNDATASIZE PUSH1 0x1F NOT PUSH1 0x1F DUP3 ADD AND DUP3 ADD DUP1 PUSH1 0x40 MSTORE POP DUP2 ADD SWAP1 PUSH2 0x9E4 SWAP2 SWAP1 PUSH2 0x39DA JUMP JUMPDEST DUP1 PUSH2 0xA6C JUMPI POP PUSH1 0x49 SLOAD PUSH1 0x1 PUSH1 0x1 PUSH1 0xA0 SHL SUB AND PUSH1 0x1 PUSH1 0x1 PUSH1 0xA0 SHL SUB AND PUSH4 0xA75B87D2 PUSH1 0x40 MLOAD DUP2 PUSH4 0xFFFFFFFF AND PUSH1 0xE0 SHL DUP2 MSTORE PUSH1 0x4 ADD PUSH1 0x20 PUSH1 0x40 MLOAD DUP1 DUP4 SUB DUP2 DUP7 GAS STATICCALL ISZERO DUP1 ISZERO PUSH2 0xA33 JUMPI RETURNDATASIZE PUSH1 0x0 DUP1 RETURNDATACOPY RETURNDATASIZE PUSH1 0x0 REVERT JUMPDEST POP POP POP POP PUSH1 0x40 MLOAD RETURNDATASIZE PUSH1 0x1F NOT PUSH1 0x1F DUP3 ADD AND DUP3 ADD DUP1 PUSH1 0x40 MSTORE POP DUP2 ADD SWAP1 PUSH2 0xA57 SWAP2 SWAP1 PUSH2 0x3A3A JUMP JUMPDEST PUSH1 0x1 PUSH1 0x1 PUSH1 0xA0 SHL SUB AND ORIGIN PUSH1 0x1 PUSH1 0x1 PUSH1 0xA0 SHL SUB AND EQ JUMPDEST PUSH2 0xA8B JUMPI PUSH1 0x40 MLOAD PUSH4 0x372463E3 PUSH1 0xE0 SHL DUP2 MSTORE CALLER PUSH1 0x4 DUP3 ADD MSTORE PUSH1 0x24 ADD PUSH2 0x2D3 JUMP JUMPDEST PUSH1 0x1 PUSH1 0x1 PUSH1 0xA0 SHL SUB DUP10 AND PUSH1 0x0 SWAP1 DUP2 MSTORE PUSH1 0x4C PUSH1 0x20 MSTORE PUSH1 0x40 SWAP1 KECCAK256 SLOAD PUSH1 0xFF AND PUSH2 0xB0A JUMPI PUSH1 0x40 MLOAD PUSH3 0x461BCD PUSH1 0xE5 SHL DUP2 MSTORE PUSH1 0x20 PUSH1 0x4 DUP3 ADD MSTORE PUSH1 0x2E PUSH1 0x24 DUP3 ADD MSTORE PUSH32 0x5068616E746F6D54726561737572793A20696E546F6B656E2069736E27742061 PUSH1 0x44 DUP3 ADD MSTORE PUSH14 0x103932B9B2B93B32903A37B5B2B7 PUSH1 0x91 SHL PUSH1 0x64 DUP3 ADD MSTORE PUSH1 0x84 ADD PUSH2 0x2D3 JUMP JUMPDEST PUSH1 0x0 PUSH2 0xB15 DUP11 PUSH2 0x28F9 JUMP JUMPDEST SWAP1 POP PUSH1 0x1 PUSH1 0x1 PUSH1 0xA0 SHL SUB DUP2 AND PUSH2 0xB83 JUMPI PUSH1 0x40 MLOAD PUSH3 0x461BCD PUSH1 0xE5 SHL DUP2 MSTORE PUSH1 0x20 PUSH1 0x4 DUP3 ADD MSTORE PUSH1 0x2D PUSH1 0x24 DUP3 ADD MSTORE PUSH32 0x5068616E746F6D54726561737572793A204E6F2054574150206465706C6F7965 PUSH1 0x44 DUP3 ADD MSTORE PUSH13 0x32103337B91034B72A37B5B2B7 PUSH1 0x99 SHL PUSH1 0x64 DUP3 ADD MSTORE PUSH1 0x84 ADD PUSH2 0x2D3 JUMP JUMPDEST DUP1 PUSH1 0x1 PUSH1 0x1 PUSH1 0xA0 SHL SUB AND PUSH4 0xA2E62045 PUSH1 0x40 MLOAD DUP2 PUSH4 0xFFFFFFFF AND PUSH1 0xE0 SHL DUP2 MSTORE PUSH1 0x4 ADD PUSH1 0x0 PUSH1 0x40 MLOAD DUP1 DUP4 SUB DUP2 PUSH1 0x0 DUP8 DUP1 EXTCODESIZE ISZERO DUP1 ISZERO PUSH2 0xBBE JUMPI PUSH1 0x0 DUP1 REVERT JUMPDEST POP GAS CALL ISZERO DUP1 ISZERO PUSH2 0xBD2 JUMPI RETURNDATASIZE PUSH1 0x0 DUP1 RETURNDATACOPY RETURNDATASIZE PUSH1 0x0 REVERT JUMPDEST POP POP POP POP PUSH1 0x0 DUP2 PUSH1 0x1 PUSH1 0x1 PUSH1 0xA0 SHL SUB AND PUSH4 0x3DDAC953 DUP13 DUP15 PUSH1 0x40 MLOAD DUP4 PUSH4 0xFFFFFFFF AND PUSH1 0xE0 SHL DUP2 MSTORE PUSH1 0x4 ADD PUSH2 0xC06 SWAP3 SWAP2 SWAP1 PUSH2 0x39C1 JUMP JUMPDEST PUSH1 0x20 PUSH1 0x40 MLOAD DUP1 DUP4 SUB DUP2 DUP7 GAS STATICCALL ISZERO DUP1 ISZERO PUSH2 0xC23 JUMPI RETURNDATASIZE PUSH1 0x0 DUP1 RETURNDATACOPY RETURNDATASIZE PUSH1 0x0 REVERT JUMPDEST POP POP POP POP PUSH1 0x40 MLOAD RETURNDATASIZE PUSH1 0x1F NOT PUSH1 0x1F DUP3 ADD AND DUP3 ADD DUP1 PUSH1 0x40 MSTORE POP DUP2 ADD SWAP1 PUSH2 0xC47 SWAP2 SWAP1 PUSH2 0x39A8 JUMP JUMPDEST SWAP1 POP PUSH2 0xC56 DUP14 DUP14 DUP14 DUP14 DUP14 PUSH2 0x2CC8 JUMP JUMPDEST PUSH1 0x0 PUSH2 0xC62 DUP3 DUP11 PUSH2 0x2AE5 JUMP JUMPDEST SWAP1 POP PUSH2 0xC77 DUP2 PUSH2 0xC70 PUSH2 0x2D10 JUMP JUMPDEST DUP14 DUP14 PUSH2 0x2D47 JUMP JUMPDEST PUSH2 0xC7F PUSH2 0x2D10 JUMP JUMPDEST PUSH1 0x1 PUSH1 0x1 PUSH1 0xA0 SHL SUB AND PUSH4 0x40C10F19 PUSH2 0xC95 PUSH2 0x2A46 JUMP JUMPDEST DUP4 PUSH1 0x40 MLOAD DUP4 PUSH4 0xFFFFFFFF AND PUSH1 0xE0 SHL DUP2 MSTORE PUSH1 0x4 ADD PUSH2 0xCB3 SWAP3 SWAP2 SWAP1 PUSH2 0x39C1 JUMP JUMPDEST PUSH1 0x0 PUSH1 0x40 MLOAD DUP1 DUP4 SUB DUP2 PUSH1 0x0 DUP8 DUP1 EXTCODESIZE ISZERO DUP1 ISZERO PUSH2 0xCCD JUMPI PUSH1 0x0 DUP1 REVERT JUMPDEST POP GAS CALL ISZERO DUP1 ISZERO PUSH2 0xCE1 JUMPI RETURNDATASIZE PUSH1 0x0 DUP1 RETURNDATACOPY RETURNDATASIZE PUSH1 0x0 REVERT JUMPDEST POP POP POP POP PUSH1 0x0 PUSH2 0xCFA DUP10 DUP4 PUSH2 0x2AE5 SWAP1 SWAP2 SWAP1 PUSH4 0xFFFFFFFF AND JUMP JUMPDEST SWAP1 POP PUSH2 0xD04 PUSH2 0x2D10 JUMP JUMPDEST PUSH1 0x1 PUSH1 0x1 PUSH1 0xA0 SHL SUB AND PUSH4 0x40C10F19 PUSH2 0xD1A PUSH2 0x2A46 JUMP JUMPDEST DUP4 PUSH1 0x40 MLOAD DUP4 PUSH4 0xFFFFFFFF AND PUSH1 0xE0 SHL DUP2 MSTORE PUSH1 0x4 ADD PUSH2 0xD38 SWAP3 SWAP2 SWAP1 PUSH2 0x39C1 JUMP JUMPDEST PUSH1 0x0 PUSH1 0x40 MLOAD DUP1 DUP4 SUB DUP2 PUSH1 0x0 DUP8 DUP1 EXTCODESIZE ISZERO DUP1 ISZERO PUSH2 0xD52 JUMPI PUSH1 0x0 DUP1 REVERT JUMPDEST POP GAS CALL ISZERO DUP1 ISZERO PUSH2 0xD66 JUMPI RETURNDATASIZE PUSH1 0x0 DUP1 RETURNDATACOPY RETURNDATASIZE PUSH1 0x0 REVERT JUMPDEST POP POP POP POP PUSH2 0xD7D DUP2 PUSH2 0xD76 PUSH2 0x2D10 JUMP JUMPDEST DUP11 DUP11 PUSH2 0x2D47 JUMP JUMPDEST PUSH32 0x65C8E1561580499F923AA822A51733482432BA4EB7D5FCA6606044CD16C7157B PUSH2 0xDA6 PUSH2 0x2D10 JUMP JUMPDEST PUSH2 0xDAE PUSH2 0x2A46 JUMP JUMPDEST PUSH2 0xDB8 DUP5 DUP7 PUSH2 0x3975 JUMP JUMPDEST PUSH1 0x40 DUP1 MLOAD PUSH1 0x1 PUSH1 0x1 PUSH1 0xA0 SHL SUB SWAP5 DUP6 AND DUP2 MSTORE SWAP4 SWAP1 SWAP3 AND PUSH1 0x20 DUP5 ADD MSTORE SWAP1 DUP3 ADD MSTORE PUSH1 0x60 ADD PUSH1 0x40 MLOAD DUP1 SWAP2 SUB SWAP1 LOG1 POP SWAP14 SWAP13 POP POP POP POP POP POP POP POP POP POP POP POP POP JUMP JUMPDEST PUSH1 0x0 PUSH2 0xE07 PUSH1 0x49 SLOAD PUSH1 0x1 PUSH1 0x1 PUSH1 0xA0 SHL SUB AND SWAP1 JUMP JUMPDEST PUSH1 0x1 PUSH1 0x1 PUSH1 0xA0 SHL SUB AND PUSH4 0x1BED5241 PUSH1 0x40 MLOAD DUP2 PUSH4 0xFFFFFFFF AND PUSH1 0xE0 SHL DUP2 MSTORE PUSH1 0x4 ADD PUSH1 0x20 PUSH1 0x40 MLOAD DUP1 DUP4 SUB DUP2 DUP7 GAS STATICCALL ISZERO DUP1 ISZERO PUSH2 0xE44 JUMPI RETURNDATASIZE PUSH1 0x0 DUP1 RETURNDATACOPY RETURNDATASIZE PUSH1 0x0 REVERT JUMPDEST POP POP POP POP PUSH1 0x40 MLOAD RETURNDATASIZE PUSH1 0x1F NOT PUSH1 0x1F DUP3 ADD AND DUP3 ADD DUP1 PUSH1 0x40 MSTORE POP DUP2 ADD SWAP1 PUSH2 0xE68 SWAP2 SWAP1 PUSH2 0x39DA JUMP JUMPDEST SWAP1 POP PUSH1 0x1 DUP2 ISZERO ISZERO EQ ISZERO PUSH2 0xF39 JUMPI PUSH1 0x49 SLOAD PUSH1 0x1 PUSH1 0x1 PUSH1 0xA0 SHL SUB AND PUSH1 0x1 PUSH1 0x1 PUSH1 0xA0 SHL SUB AND PUSH4 0x7AE1CFCA CALLER PUSH1 0x40 MLOAD PUSH1 0x20 ADD PUSH2 0xEA0 SWAP2 SWAP1 PUSH2 0x39FC JUMP JUMPDEST PUSH1 0x40 MLOAD PUSH1 0x20 DUP2 DUP4 SUB SUB DUP2 MSTORE SWAP1 PUSH1 0x40 MSTORE DUP1 MLOAD SWAP1 PUSH1 0x20 ADD KECCAK256 PUSH1 0x40 MLOAD DUP3 PUSH4 0xFFFFFFFF AND PUSH1 0xE0 SHL DUP2 MSTORE PUSH1 0x4 ADD PUSH2 0xED4 SWAP2 DUP2 MSTORE PUSH1 0x20 ADD SWAP1 JUMP JUMPDEST PUSH1 0x20 PUSH1 0x40 MLOAD DUP1 DUP4 SUB DUP2 DUP7 GAS STATICCALL ISZERO DUP1 ISZERO PUSH2 0xEF1 JUMPI RETURNDATASIZE PUSH1 0x0 DUP1 RETURNDATACOPY RETURNDATASIZE PUSH1 0x0 REVERT JUMPDEST POP POP POP POP PUSH1 0x40 MLOAD RETURNDATASIZE PUSH1 0x1F NOT PUSH1 0x1F DUP3 ADD AND DUP3 ADD DUP1 PUSH1 0x40 MSTORE POP DUP2 ADD SWAP1 PUSH2 0xF15 SWAP2 SWAP1 PUSH2 0x39DA JUMP JUMPDEST PUSH2 0xF34 JUMPI PUSH1 0x40 MLOAD PUSH4 0x372463E3 PUSH1 0xE0 SHL DUP2 MSTORE CALLER PUSH1 0x4 DUP3 ADD MSTORE PUSH1 0x24 ADD PUSH2 0x2D3 JUMP JUMPDEST PUSH2 0x1080 JUMP JUMPDEST PUSH1 0x49 SLOAD PUSH1 0x1 PUSH1 0x1 PUSH1 0xA0 SHL SUB AND PUSH1 0x1 PUSH1 0x1 PUSH1 0xA0 SHL SUB AND PUSH4 0x7AE1CFCA CALLER PUSH1 0x40 MLOAD PUSH1 0x20 ADD PUSH2 0xF64 SWAP2 SWAP1 PUSH2 0x39FC JUMP JUMPDEST PUSH1 0x40 MLOAD PUSH1 0x20 DUP2 DUP4 SUB SUB DUP2 MSTORE SWAP1 PUSH1 0x40 MSTORE DUP1 MLOAD SWAP1 PUSH1 0x20 ADD KECCAK256 PUSH1 0x40 MLOAD DUP3 PUSH4 0xFFFFFFFF AND PUSH1 0xE0 SHL DUP2 MSTORE PUSH1 0x4 ADD PUSH2 0xF98 SWAP2 DUP2 MSTORE PUSH1 0x20 ADD SWAP1 JUMP JUMPDEST PUSH1 0x20 PUSH1 0x40 MLOAD DUP1 DUP4 SUB DUP2 DUP7 GAS STATICCALL ISZERO DUP1 ISZERO PUSH2 0xFB5 JUMPI RETURNDATASIZE PUSH1 0x0 DUP1 RETURNDATACOPY RETURNDATASIZE PUSH1 0x0 REVERT JUMPDEST POP POP POP POP PUSH1 0x40 MLOAD RETURNDATASIZE PUSH1 0x1F NOT PUSH1 0x1F DUP3 ADD AND DUP3 ADD DUP1 PUSH1 0x40 MSTORE POP DUP2 ADD SWAP1 PUSH2 0xFD9 SWAP2 SWAP1 PUSH2 0x39DA JUMP JUMPDEST DUP1 PUSH2 0x1061 JUMPI POP PUSH1 0x49 SLOAD PUSH1 0x1 PUSH1 0x1 PUSH1 0xA0 SHL SUB AND PUSH1 0x1 PUSH1 0x1 PUSH1 0xA0 SHL SUB AND PUSH4 0xA75B87D2 PUSH1 0x40 MLOAD DUP2 PUSH4 0xFFFFFFFF AND PUSH1 0xE0 SHL DUP2 MSTORE PUSH1 0x4 ADD PUSH1 0x20 PUSH1 0x40 MLOAD DUP1 DUP4 SUB DUP2 DUP7 GAS STATICCALL ISZERO DUP1 ISZERO PUSH2 0x1028 JUMPI RETURNDATASIZE PUSH1 0x0 DUP1 RETURNDATACOPY RETURNDATASIZE PUSH1 0x0 REVERT JUMPDEST POP POP POP POP PUSH1 0x40 MLOAD RETURNDATASIZE PUSH1 0x1F NOT PUSH1 0x1F DUP3 ADD AND DUP3 ADD DUP1 PUSH1 0x40 MSTORE POP DUP2 ADD SWAP1 PUSH2 0x104C SWAP2 SWAP1 PUSH2 0x3A3A JUMP JUMPDEST PUSH1 0x1 PUSH1 0x1 PUSH1 0xA0 SHL SUB AND ORIGIN PUSH1 0x1 PUSH1 0x1 PUSH1 0xA0 SHL SUB AND EQ JUMPDEST PUSH2 0x1080 JUMPI PUSH1 0x40 MLOAD PUSH4 0x372463E3 PUSH1 0xE0 SHL DUP2 MSTORE CALLER PUSH1 0x4 DUP3 ADD MSTORE PUSH1 0x24 ADD PUSH2 0x2D3 JUMP JUMPDEST PUSH1 0x0 DUP7 PUSH1 0x1 PUSH1 0x1 PUSH1 0xA0 SHL SUB AND PUSH4 0xFC0C546A PUSH1 0x40 MLOAD DUP2 PUSH4 0xFFFFFFFF AND PUSH1 0xE0 SHL DUP2 MSTORE PUSH1 0x4 ADD PUSH1 0x20 PUSH1 0x40 MLOAD DUP1 DUP4 SUB DUP2 PUSH1 0x0 DUP8 GAS CALL ISZERO DUP1 ISZERO PUSH2 0x10C2 JUMPI RETURNDATASIZE PUSH1 0x0 DUP1 RETURNDATACOPY RETURNDATASIZE PUSH1 0x0 REVERT JUMPDEST POP POP POP POP PUSH1 0x40 MLOAD RETURNDATASIZE PUSH1 0x1F NOT PUSH1 0x1F DUP3 ADD AND DUP3 ADD DUP1 PUSH1 0x40 MSTORE POP DUP2 ADD SWAP1 PUSH2 0x10E6 SWAP2 SWAP1 PUSH2 0x3A3A JUMP JUMPDEST SWAP1 POP PUSH2 0x10F5 ADDRESS DUP8 DUP10 DUP8 DUP8 PUSH2 0x2C18 JUMP JUMPDEST PUSH1 0x40 MLOAD PUSH4 0x95EA7B3 PUSH1 0xE0 SHL DUP2 MSTORE PUSH1 0x1 PUSH1 0x1 PUSH1 0xA0 SHL SUB DUP9 AND SWAP1 PUSH4 0x95EA7B3 SWAP1 PUSH2 0x1123 SWAP1 DUP11 SWAP1 DUP11 SWAP1 PUSH1 0x4 ADD PUSH2 0x39C1 JUMP JUMPDEST PUSH1 0x20 PUSH1 0x40 MLOAD DUP1 DUP4 SUB DUP2 PUSH1 0x0 DUP8 GAS CALL ISZERO DUP1 ISZERO PUSH2 0x1142 JUMPI RETURNDATASIZE PUSH1 0x0 DUP1 RETURNDATACOPY RETURNDATASIZE PUSH1 0x0 REVERT JUMPDEST POP POP POP POP PUSH1 0x40 MLOAD RETURNDATASIZE PUSH1 0x1F NOT PUSH1 0x1F DUP3 ADD AND DUP3 ADD DUP1 PUSH1 0x40 MSTORE POP DUP2 ADD SWAP1 PUSH2 0x1166 SWAP2 SWAP1 PUSH2 0x39DA JUMP JUMPDEST POP PUSH1 0x40 MLOAD PUSH4 0x1CC6D2F9 PUSH1 0xE3 SHL DUP2 MSTORE PUSH1 0x4 DUP2 ADD DUP8 SWAP1 MSTORE ADDRESS PUSH1 0x24 DUP3 ADD MSTORE PUSH1 0x44 DUP2 ADD DUP7 SWAP1 MSTORE PUSH1 0x1 PUSH1 0x1 PUSH1 0xA0 SHL SUB DUP9 AND SWAP1 PUSH4 0xE63697C8 SWAP1 PUSH1 0x64 ADD PUSH1 0x0 PUSH1 0x40 MLOAD DUP1 DUP4 SUB DUP2 PUSH1 0x0 DUP8 DUP1 EXTCODESIZE ISZERO DUP1 ISZERO PUSH2 0x11B6 JUMPI PUSH1 0x0 DUP1 REVERT JUMPDEST POP GAS CALL ISZERO DUP1 ISZERO PUSH2 0x11CA JUMPI RETURNDATASIZE PUSH1 0x0 DUP1 RETURNDATACOPY RETURNDATASIZE PUSH1 0x0 REVERT JUMPDEST POP POP PUSH1 0x40 MLOAD PUSH4 0x70A08231 PUSH1 0xE0 SHL DUP2 MSTORE ADDRESS PUSH1 0x4 DUP3 ADD DUP2 SWAP1 MSTORE PUSH2 0x1245 SWAP4 POP SWAP2 POP PUSH1 0x1 PUSH1 0x1 PUSH1 0xA0 SHL SUB DUP5 AND SWAP1 PUSH4 0x70A08231 SWAP1 PUSH1 0x24 ADD PUSH1 0x20 PUSH1 0x40 MLOAD DUP1 DUP4 SUB DUP2 DUP7 GAS STATICCALL ISZERO DUP1 ISZERO PUSH2 0x1219 JUMPI RETURNDATASIZE PUSH1 0x0 DUP1 RETURNDATACOPY RETURNDATASIZE PUSH1 0x0 REVERT JUMPDEST POP POP POP POP PUSH1 0x40 MLOAD RETURNDATASIZE PUSH1 0x1F NOT PUSH1 0x1F DUP3 ADD AND DUP3 ADD DUP1 PUSH1 0x40 MSTORE POP DUP2 ADD SWAP1 PUSH2 0x123D SWAP2 SWAP1 PUSH2 0x39A8 JUMP JUMPDEST DUP4 DUP8 DUP8 PUSH2 0x2CC8 JUMP JUMPDEST POP POP POP POP POP POP POP JUMP JUMPDEST PUSH1 0x0 PUSH2 0x1262 PUSH1 0x49 SLOAD PUSH1 0x1 PUSH1 0x1 PUSH1 0xA0 SHL SUB AND SWAP1 JUMP JUMPDEST PUSH1 0x1 PUSH1 0x1 PUSH1 0xA0 SHL SUB AND PUSH4 0x1BED5241 PUSH1 0x40 MLOAD DUP2 PUSH4 0xFFFFFFFF AND PUSH1 0xE0 SHL DUP2 MSTORE PUSH1 0x4 ADD PUSH1 0x20 PUSH1 0x40 MLOAD DUP1 DUP4 SUB DUP2 DUP7 GAS STATICCALL ISZERO DUP1 ISZERO PUSH2 0x129F JUMPI RETURNDATASIZE PUSH1 0x0 DUP1 RETURNDATACOPY RETURNDATASIZE PUSH1 0x0 REVERT JUMPDEST POP POP POP POP PUSH1 0x40 MLOAD RETURNDATASIZE PUSH1 0x1F NOT PUSH1 0x1F DUP3 ADD AND DUP3 ADD DUP1 PUSH1 0x40 MSTORE POP DUP2 ADD SWAP1 PUSH2 0x12C3 SWAP2 SWAP1 PUSH2 0x39DA JUMP JUMPDEST SWAP1 POP PUSH1 0x1 DUP2 ISZERO ISZERO EQ ISZERO PUSH2 0x1394 JUMPI PUSH1 0x49 SLOAD PUSH1 0x1 PUSH1 0x1 PUSH1 0xA0 SHL SUB AND PUSH1 0x1 PUSH1 0x1 PUSH1 0xA0 SHL SUB AND PUSH4 0x7AE1CFCA CALLER PUSH1 0x40 MLOAD PUSH1 0x20 ADD PUSH2 0x12FB SWAP2 SWAP1 PUSH2 0x39FC JUMP JUMPDEST PUSH1 0x40 MLOAD PUSH1 0x20 DUP2 DUP4 SUB SUB DUP2 MSTORE SWAP1 PUSH1 0x40 MSTORE DUP1 MLOAD SWAP1 PUSH1 0x20 ADD KECCAK256 PUSH1 0x40 MLOAD DUP3 PUSH4 0xFFFFFFFF AND PUSH1 0xE0 SHL DUP2 MSTORE PUSH1 0x4 ADD PUSH2 0x132F SWAP2 DUP2 MSTORE PUSH1 0x20 ADD SWAP1 JUMP JUMPDEST PUSH1 0x20 PUSH1 0x40 MLOAD DUP1 DUP4 SUB DUP2 DUP7 GAS STATICCALL ISZERO DUP1 ISZERO PUSH2 0x134C JUMPI RETURNDATASIZE PUSH1 0x0 DUP1 RETURNDATACOPY RETURNDATASIZE PUSH1 0x0 REVERT JUMPDEST POP POP POP POP PUSH1 0x40 MLOAD RETURNDATASIZE PUSH1 0x1F NOT PUSH1 0x1F DUP3 ADD AND DUP3 ADD DUP1 PUSH1 0x40 MSTORE POP DUP2 ADD SWAP1 PUSH2 0x1370 SWAP2 SWAP1 PUSH2 0x39DA JUMP JUMPDEST PUSH2 0x138F JUMPI PUSH1 0x40 MLOAD PUSH4 0x372463E3 PUSH1 0xE0 SHL DUP2 MSTORE CALLER PUSH1 0x4 DUP3 ADD MSTORE PUSH1 0x24 ADD PUSH2 0x2D3 JUMP JUMPDEST PUSH2 0x14DB JUMP JUMPDEST PUSH1 0x49 SLOAD PUSH1 0x1 PUSH1 0x1 PUSH1 0xA0 SHL SUB AND PUSH1 0x1 PUSH1 0x1 PUSH1 0xA0 SHL SUB AND PUSH4 0x7AE1CFCA CALLER PUSH1 0x40 MLOAD PUSH1 0x20 ADD PUSH2 0x13BF SWAP2 SWAP1 PUSH2 0x39FC JUMP JUMPDEST PUSH1 0x40 MLOAD PUSH1 0x20 DUP2 DUP4 SUB SUB DUP2 MSTORE SWAP1 PUSH1 0x40 MSTORE DUP1 MLOAD SWAP1 PUSH1 0x20 ADD KECCAK256 PUSH1 0x40 MLOAD DUP3 PUSH4 0xFFFFFFFF AND PUSH1 0xE0 SHL DUP2 MSTORE PUSH1 0x4 ADD PUSH2 0x13F3 SWAP2 DUP2 MSTORE PUSH1 0x20 ADD SWAP1 JUMP JUMPDEST PUSH1 0x20 PUSH1 0x40 MLOAD DUP1 DUP4 SUB DUP2 DUP7 GAS STATICCALL ISZERO DUP1 ISZERO PUSH2 0x1410 JUMPI RETURNDATASIZE PUSH1 0x0 DUP1 RETURNDATACOPY RETURNDATASIZE PUSH1 0x0 REVERT JUMPDEST POP POP POP POP PUSH1 0x40 MLOAD RETURNDATASIZE PUSH1 0x1F NOT PUSH1 0x1F DUP3 ADD AND DUP3 ADD DUP1 PUSH1 0x40 MSTORE POP DUP2 ADD SWAP1 PUSH2 0x1434 SWAP2 SWAP1 PUSH2 0x39DA JUMP JUMPDEST DUP1 PUSH2 0x14BC JUMPI POP PUSH1 0x49 SLOAD PUSH1 0x1 PUSH1 0x1 PUSH1 0xA0 SHL SUB AND PUSH1 0x1 PUSH1 0x1 PUSH1 0xA0 SHL SUB AND PUSH4 0xA75B87D2 PUSH1 0x40 MLOAD DUP2 PUSH4 0xFFFFFFFF AND PUSH1 0xE0 SHL DUP2 MSTORE PUSH1 0x4 ADD PUSH1 0x20 PUSH1 0x40 MLOAD DUP1 DUP4 SUB DUP2 DUP7 GAS STATICCALL ISZERO DUP1 ISZERO PUSH2 0x1483 JUMPI RETURNDATASIZE PUSH1 0x0 DUP1 RETURNDATACOPY RETURNDATASIZE PUSH1 0x0 REVERT JUMPDEST POP POP POP POP PUSH1 0x40 MLOAD RETURNDATASIZE PUSH1 0x1F NOT PUSH1 0x1F DUP3 ADD AND DUP3 ADD DUP1 PUSH1 0x40 MSTORE POP DUP2 ADD SWAP1 PUSH2 0x14A7 SWAP2 SWAP1 PUSH2 0x3A3A JUMP JUMPDEST PUSH1 0x1 PUSH1 0x1 PUSH1 0xA0 SHL SUB AND ORIGIN PUSH1 0x1 PUSH1 0x1 PUSH1 0xA0 SHL SUB AND EQ JUMPDEST PUSH2 0x14DB JUMPI PUSH1 0x40 MLOAD PUSH4 0x372463E3 PUSH1 0xE0 SHL DUP2 MSTORE CALLER PUSH1 0x4 DUP3 ADD MSTORE PUSH1 0x24 ADD PUSH2 0x2D3 JUMP JUMPDEST PUSH2 0x14E8 DUP9 DUP9 DUP9 DUP7 DUP7 PUSH2 0x2CC8 JUMP JUMPDEST PUSH2 0x14F5 DUP9 DUP7 DUP7 DUP7 DUP7 PUSH2 0x2C18 JUMP JUMPDEST PUSH32 0x6D29754DF4DD9E7170DA58F3C4E90C771E6F29F8D2387E37131C2DD725A4073F DUP7 DUP6 DUP11 DUP11 PUSH1 0x40 MLOAD PUSH2 0x152A SWAP5 SWAP4 SWAP3 SWAP2 SWAP1 PUSH2 0x3A57 JUMP JUMPDEST PUSH1 0x40 MLOAD DUP1 SWAP2 SUB SWAP1 LOG1 POP POP POP POP POP POP POP POP JUMP JUMPDEST PUSH1 0x0 PUSH2 0x1550 PUSH1 0x49 SLOAD PUSH1 0x1 PUSH1 0x1 PUSH1 0xA0 SHL SUB AND SWAP1 JUMP JUMPDEST PUSH1 0x1 PUSH1 0x1 PUSH1 0xA0 SHL SUB AND PUSH4 0x1BED5241 PUSH1 0x40 MLOAD DUP2 PUSH4 0xFFFFFFFF AND PUSH1 0xE0 SHL DUP2 MSTORE PUSH1 0x4 ADD PUSH1 0x20 PUSH1 0x40 MLOAD DUP1 DUP4 SUB DUP2 DUP7 GAS STATICCALL ISZERO DUP1 ISZERO PUSH2 0x158D JUMPI RETURNDATASIZE PUSH1 0x0 DUP1 RETURNDATACOPY RETURNDATASIZE PUSH1 0x0 REVERT JUMPDEST POP POP POP POP PUSH1 0x40 MLOAD RETURNDATASIZE PUSH1 0x1F NOT PUSH1 0x1F DUP3 ADD AND DUP3 ADD DUP1 PUSH1 0x40 MSTORE POP DUP2 ADD SWAP1 PUSH2 0x15B1 SWAP2 SWAP1 PUSH2 0x39DA JUMP JUMPDEST SWAP1 POP PUSH1 0x1 DUP2 ISZERO ISZERO EQ ISZERO PUSH2 0x1682 JUMPI PUSH1 0x49 SLOAD PUSH1 0x1 PUSH1 0x1 PUSH1 0xA0 SHL SUB AND PUSH1 0x1 PUSH1 0x1 PUSH1 0xA0 SHL SUB AND PUSH4 0x7AE1CFCA CALLER PUSH1 0x40 MLOAD PUSH1 0x20 ADD PUSH2 0x15E9 SWAP2 SWAP1 PUSH2 0x39FC JUMP JUMPDEST PUSH1 0x40 MLOAD PUSH1 0x20 DUP2 DUP4 SUB SUB DUP2 MSTORE SWAP1 PUSH1 0x40 MSTORE DUP1 MLOAD SWAP1 PUSH1 0x20 ADD KECCAK256 PUSH1 0x40 MLOAD DUP3 PUSH4 0xFFFFFFFF AND PUSH1 0xE0 SHL DUP2 MSTORE PUSH1 0x4 ADD PUSH2 0x161D SWAP2 DUP2 MSTORE PUSH1 0x20 ADD SWAP1 JUMP JUMPDEST PUSH1 0x20 PUSH1 0x40 MLOAD DUP1 DUP4 SUB DUP2 DUP7 GAS STATICCALL ISZERO DUP1 ISZERO PUSH2 0x163A JUMPI RETURNDATASIZE PUSH1 0x0 DUP1 RETURNDATACOPY RETURNDATASIZE PUSH1 0x0 REVERT JUMPDEST POP POP POP POP PUSH1 0x40 MLOAD RETURNDATASIZE PUSH1 0x1F NOT PUSH1 0x1F DUP3 ADD AND DUP3 ADD DUP1 PUSH1 0x40 MSTORE POP DUP2 ADD SWAP1 PUSH2 0x165E SWAP2 SWAP1 PUSH2 0x39DA JUMP JUMPDEST PUSH2 0x167D JUMPI PUSH1 0x40 MLOAD PUSH4 0x372463E3 PUSH1 0xE0 SHL DUP2 MSTORE CALLER PUSH1 0x4 DUP3 ADD MSTORE PUSH1 0x24 ADD PUSH2 0x2D3 JUMP JUMPDEST PUSH2 0x17C9 JUMP JUMPDEST PUSH1 0x49 SLOAD PUSH1 0x1 PUSH1 0x1 PUSH1 0xA0 SHL SUB AND PUSH1 0x1 PUSH1 0x1 PUSH1 0xA0 SHL SUB AND PUSH4 0x7AE1CFCA CALLER PUSH1 0x40 MLOAD PUSH1 0x20 ADD PUSH2 0x16AD SWAP2 SWAP1 PUSH2 0x39FC JUMP JUMPDEST PUSH1 0x40 MLOAD PUSH1 0x20 DUP2 DUP4 SUB SUB DUP2 MSTORE SWAP1 PUSH1 0x40 MSTORE DUP1 MLOAD SWAP1 PUSH1 0x20 ADD KECCAK256 PUSH1 0x40 MLOAD DUP3 PUSH4 0xFFFFFFFF AND PUSH1 0xE0 SHL DUP2 MSTORE PUSH1 0x4 ADD PUSH2 0x16E1 SWAP2 DUP2 MSTORE PUSH1 0x20 ADD SWAP1 JUMP JUMPDEST PUSH1 0x20 PUSH1 0x40 MLOAD DUP1 DUP4 SUB DUP2 DUP7 GAS STATICCALL ISZERO DUP1 ISZERO PUSH2 0x16FE JUMPI RETURNDATASIZE PUSH1 0x0 DUP1 RETURNDATACOPY RETURNDATASIZE PUSH1 0x0 REVERT JUMPDEST POP POP POP POP PUSH1 0x40 MLOAD RETURNDATASIZE PUSH1 0x1F NOT PUSH1 0x1F DUP3 ADD AND DUP3 ADD DUP1 PUSH1 0x40 MSTORE POP DUP2 ADD SWAP1 PUSH2 0x1722 SWAP2 SWAP1 PUSH2 0x39DA JUMP JUMPDEST DUP1 PUSH2 0x17AA JUMPI POP PUSH1 0x49 SLOAD PUSH1 0x1 PUSH1 0x1 PUSH1 0xA0 SHL SUB AND PUSH1 0x1 PUSH1 0x1 PUSH1 0xA0 SHL SUB AND PUSH4 0xA75B87D2 PUSH1 0x40 MLOAD DUP2 PUSH4 0xFFFFFFFF AND PUSH1 0xE0 SHL DUP2 MSTORE PUSH1 0x4 ADD PUSH1 0x20 PUSH1 0x40 MLOAD DUP1 DUP4 SUB DUP2 DUP7 GAS STATICCALL ISZERO DUP1 ISZERO PUSH2 0x1771 JUMPI RETURNDATASIZE PUSH1 0x0 DUP1 RETURNDATACOPY RETURNDATASIZE PUSH1 0x0 REVERT JUMPDEST POP POP POP POP PUSH1 0x40 MLOAD RETURNDATASIZE PUSH1 0x1F NOT PUSH1 0x1F DUP3 ADD AND DUP3 ADD DUP1 PUSH1 0x40 MSTORE POP DUP2 ADD SWAP1 PUSH2 0x1795 SWAP2 SWAP1 PUSH2 0x3A3A JUMP JUMPDEST PUSH1 0x1 PUSH1 0x1 PUSH1 0xA0 SHL SUB AND ORIGIN PUSH1 0x1 PUSH1 0x1 PUSH1 0xA0 SHL SUB AND EQ JUMPDEST PUSH2 0x17C9 JUMPI PUSH1 0x40 MLOAD PUSH4 0x372463E3 PUSH1 0xE0 SHL DUP2 MSTORE CALLER PUSH1 0x4 DUP3 ADD MSTORE PUSH1 0x24 ADD PUSH2 0x2D3 JUMP JUMPDEST DUP2 PUSH2 0x17D3 DUP2 PUSH2 0x2AF8 JUMP JUMPDEST PUSH2 0x17FB JUMPI PUSH1 0x40 MLOAD PUSH4 0x49E82B5F PUSH1 0xE1 SHL DUP2 MSTORE PUSH1 0x1 PUSH1 0x1 PUSH1 0xA0 SHL SUB DUP3 AND PUSH1 0x4 DUP3 ADD MSTORE PUSH1 0x24 ADD PUSH2 0x2D3 JUMP JUMPDEST PUSH2 0x1819 DUP8 PUSH2 0x1807 PUSH2 0x2A46 JUMP JUMPDEST PUSH1 0x1 PUSH1 0x1 PUSH1 0xA0 SHL SUB DUP9 AND SWAP2 SWAP1 DUP10 PUSH2 0x2BA7 JUMP JUMPDEST PUSH2 0x1821 PUSH2 0x2A46 JUMP JUMPDEST PUSH1 0x40 MLOAD PUSH4 0x3F34D4CF PUSH1 0xE2 SHL DUP2 MSTORE PUSH1 0x4 DUP2 ADD DUP9 SWAP1 MSTORE PUSH1 0x1 PUSH1 0x1 PUSH1 0xA0 SHL SUB DUP8 DUP2 AND PUSH1 0x24 DUP4 ADD MSTORE SWAP2 SWAP1 SWAP2 AND SWAP1 PUSH4 0xFCD3533C SWAP1 PUSH1 0x44 ADD PUSH1 0x0 PUSH1 0x40 MLOAD DUP1 DUP4 SUB DUP2 PUSH1 0x0 DUP8 DUP1 EXTCODESIZE ISZERO DUP1 ISZERO PUSH2 0x186D JUMPI PUSH1 0x0 DUP1 REVERT JUMPDEST POP GAS CALL ISZERO DUP1 ISZERO PUSH2 0x1881 JUMPI RETURNDATASIZE PUSH1 0x0 DUP1 RETURNDATACOPY RETURNDATASIZE PUSH1 0x0 REVERT JUMPDEST POP POP PUSH1 0x40 MLOAD PUSH4 0x40C10F19 PUSH1 0xE0 SHL DUP2 MSTORE PUSH1 0x1 PUSH1 0x1 PUSH1 0xA0 SHL SUB DUP7 AND SWAP3 POP PUSH4 0x40C10F19 SWAP2 POP PUSH2 0x18B3 SWAP1 DUP11 SWAP1 DUP9 SWAP1 PUSH1 0x4 ADD PUSH2 0x39C1 JUMP JUMPDEST PUSH1 0x0 PUSH1 0x40 MLOAD DUP1 DUP4 SUB DUP2 PUSH1 0x0 DUP8 DUP1 EXTCODESIZE ISZERO DUP1 ISZERO PUSH2 0x18CD JUMPI PUSH1 0x0 DUP1 REVERT JUMPDEST POP GAS CALL ISZERO DUP1 ISZERO PUSH2 0x18E1 JUMPI RETURNDATASIZE PUSH1 0x0 DUP1 RETURNDATACOPY RETURNDATASIZE PUSH1 0x0 REVERT JUMPDEST POP POP PUSH1 0x40 DUP1 MLOAD PUSH1 0x1 PUSH1 0x1 PUSH1 0xA0 SHL SUB DUP10 DUP2 AND DUP3 MSTORE PUSH1 0x20 DUP3 ADD DUP12 SWAP1 MSTORE DUP12 DUP2 AND DUP3 DUP5 ADD MSTORE PUSH1 0x60 DUP3 ADD DUP10 SWAP1 MSTORE DUP8 AND PUSH1 0x80 DUP3 ADD MSTORE SWAP1 MLOAD PUSH32 0x93172819AFEBD69A5DAC534316F8E5E7181CF128ECB33B0A24A0E1D8B203B65B SWAP4 POP SWAP1 DUP2 SWAP1 SUB PUSH1 0xA0 ADD SWAP2 POP LOG1 POP POP POP POP POP POP POP JUMP JUMPDEST PUSH1 0x0 DUP1 PUSH2 0x195D PUSH1 0x49 SLOAD PUSH1 0x1 PUSH1 0x1 PUSH1 0xA0 SHL SUB AND SWAP1 JUMP JUMPDEST PUSH1 0x1 PUSH1 0x1 PUSH1 0xA0 SHL SUB AND PUSH4 0x1BED5241 PUSH1 0x40 MLOAD DUP2 PUSH4 0xFFFFFFFF AND PUSH1 0xE0 SHL DUP2 MSTORE PUSH1 0x4 ADD PUSH1 0x20 PUSH1 0x40 MLOAD DUP1 DUP4 SUB DUP2 DUP7 GAS STATICCALL ISZERO DUP1 ISZERO PUSH2 0x199A JUMPI RETURNDATASIZE PUSH1 0x0 DUP1 RETURNDATACOPY RETURNDATASIZE PUSH1 0x0 REVERT JUMPDEST POP POP POP POP PUSH1 0x40 MLOAD RETURNDATASIZE PUSH1 0x1F NOT PUSH1 0x1F DUP3 ADD AND DUP3 ADD DUP1 PUSH1 0x40 MSTORE POP DUP2 ADD SWAP1 PUSH2 0x19BE SWAP2 SWAP1 PUSH2 0x39DA JUMP JUMPDEST SWAP1 POP PUSH1 0x1 DUP2 ISZERO ISZERO EQ ISZERO PUSH2 0x1A8F JUMPI PUSH1 0x49 SLOAD PUSH1 0x1 PUSH1 0x1 PUSH1 0xA0 SHL SUB AND PUSH1 0x1 PUSH1 0x1 PUSH1 0xA0 SHL SUB AND PUSH4 0x7AE1CFCA CALLER PUSH1 0x40 MLOAD PUSH1 0x20 ADD PUSH2 0x19F6 SWAP2 SWAP1 PUSH2 0x39FC JUMP JUMPDEST PUSH1 0x40 MLOAD PUSH1 0x20 DUP2 DUP4 SUB SUB DUP2 MSTORE SWAP1 PUSH1 0x40 MSTORE DUP1 MLOAD SWAP1 PUSH1 0x20 ADD KECCAK256 PUSH1 0x40 MLOAD DUP3 PUSH4 0xFFFFFFFF AND PUSH1 0xE0 SHL DUP2 MSTORE PUSH1 0x4 ADD PUSH2 0x1A2A SWAP2 DUP2 MSTORE PUSH1 0x20 ADD SWAP1 JUMP JUMPDEST PUSH1 0x20 PUSH1 0x40 MLOAD DUP1 DUP4 SUB DUP2 DUP7 GAS STATICCALL ISZERO DUP1 ISZERO PUSH2 0x1A47 JUMPI RETURNDATASIZE PUSH1 0x0 DUP1 RETURNDATACOPY RETURNDATASIZE PUSH1 0x0 REVERT JUMPDEST POP POP POP POP PUSH1 0x40 MLOAD RETURNDATASIZE PUSH1 0x1F NOT PUSH1 0x1F DUP3 ADD AND DUP3 ADD DUP1 PUSH1 0x40 MSTORE POP DUP2 ADD SWAP1 PUSH2 0x1A6B SWAP2 SWAP1 PUSH2 0x39DA JUMP JUMPDEST PUSH2 0x1A8A JUMPI PUSH1 0x40 MLOAD PUSH4 0x372463E3 PUSH1 0xE0 SHL DUP2 MSTORE CALLER PUSH1 0x4 DUP3 ADD MSTORE PUSH1 0x24 ADD PUSH2 0x2D3 JUMP JUMPDEST PUSH2 0x1BD6 JUMP JUMPDEST PUSH1 0x49 SLOAD PUSH1 0x1 PUSH1 0x1 PUSH1 0xA0 SHL SUB AND PUSH1 0x1 PUSH1 0x1 PUSH1 0xA0 SHL SUB AND PUSH4 0x7AE1CFCA CALLER PUSH1 0x40 MLOAD PUSH1 0x20 ADD PUSH2 0x1ABA SWAP2 SWAP1 PUSH2 0x39FC JUMP JUMPDEST PUSH1 0x40 MLOAD PUSH1 0x20 DUP2 DUP4 SUB SUB DUP2 MSTORE SWAP1 PUSH1 0x40 MSTORE DUP1 MLOAD SWAP1 PUSH1 0x20 ADD KECCAK256 PUSH1 0x40 MLOAD DUP3 PUSH4 0xFFFFFFFF AND PUSH1 0xE0 SHL DUP2 MSTORE PUSH1 0x4 ADD PUSH2 0x1AEE SWAP2 DUP2 MSTORE PUSH1 0x20 ADD SWAP1 JUMP JUMPDEST PUSH1 0x20 PUSH1 0x40 MLOAD DUP1 DUP4 SUB DUP2 DUP7 GAS STATICCALL ISZERO DUP1 ISZERO PUSH2 0x1B0B JUMPI RETURNDATASIZE PUSH1 0x0 DUP1 RETURNDATACOPY RETURNDATASIZE PUSH1 0x0 REVERT JUMPDEST POP POP POP POP PUSH1 0x40 MLOAD RETURNDATASIZE PUSH1 0x1F NOT PUSH1 0x1F DUP3 ADD AND DUP3 ADD DUP1 PUSH1 0x40 MSTORE POP DUP2 ADD SWAP1 PUSH2 0x1B2F SWAP2 SWAP1 PUSH2 0x39DA JUMP JUMPDEST DUP1 PUSH2 0x1BB7 JUMPI POP PUSH1 0x49 SLOAD PUSH1 0x1 PUSH1 0x1 PUSH1 0xA0 SHL SUB AND PUSH1 0x1 PUSH1 0x1 PUSH1 0xA0 SHL SUB AND PUSH4 0xA75B87D2 PUSH1 0x40 MLOAD DUP2 PUSH4 0xFFFFFFFF AND PUSH1 0xE0 SHL DUP2 MSTORE PUSH1 0x4 ADD PUSH1 0x20 PUSH1 0x40 MLOAD DUP1 DUP4 SUB DUP2 DUP7 GAS STATICCALL ISZERO DUP1 ISZERO PUSH2 0x1B7E JUMPI RETURNDATASIZE PUSH1 0x0 DUP1 RETURNDATACOPY RETURNDATASIZE PUSH1 0x0 REVERT JUMPDEST POP POP POP POP PUSH1 0x40 MLOAD RETURNDATASIZE PUSH1 0x1F NOT PUSH1 0x1F DUP3 ADD AND DUP3 ADD DUP1 PUSH1 0x40 MSTORE POP DUP2 ADD SWAP1 PUSH2 0x1BA2 SWAP2 SWAP1 PUSH2 0x3A3A JUMP JUMPDEST PUSH1 0x1 PUSH1 0x1 PUSH1 0xA0 SHL SUB AND ORIGIN PUSH1 0x1 PUSH1 0x1 PUSH1 0xA0 SHL SUB AND EQ JUMPDEST PUSH2 0x1BD6 JUMPI PUSH1 0x40 MLOAD PUSH4 0x372463E3 PUSH1 0xE0 SHL DUP2 MSTORE CALLER PUSH1 0x4 DUP3 ADD MSTORE PUSH1 0x24 ADD PUSH2 0x2D3 JUMP JUMPDEST PUSH1 0x1 PUSH1 0x1 PUSH1 0xA0 SHL SUB DUP7 AND PUSH1 0x0 SWAP1 DUP2 MSTORE PUSH1 0x4C PUSH1 0x20 MSTORE PUSH1 0x40 SWAP1 KECCAK256 SLOAD PUSH1 0xFF AND PUSH2 0x1C56 JUMPI PUSH1 0x40 MLOAD PUSH3 0x461BCD PUSH1 0xE5 SHL DUP2 MSTORE PUSH1 0x20 PUSH1 0x4 DUP3 ADD MSTORE PUSH1 0x2F PUSH1 0x24 DUP3 ADD MSTORE PUSH32 0x5068616E746F6D54726561737572793A206F7574546F6B656E2069736E277420 PUSH1 0x44 DUP3 ADD MSTORE PUSH15 0x30903932B9B2B93B32903A37B5B2B7 PUSH1 0x89 SHL PUSH1 0x64 DUP3 ADD MSTORE PUSH1 0x84 ADD PUSH2 0x2D3 JUMP JUMPDEST PUSH1 0x0 PUSH2 0x1C61 DUP8 PUSH2 0x28F9 JUMP JUMPDEST SWAP1 POP PUSH1 0x1 PUSH1 0x1 PUSH1 0xA0 SHL SUB DUP2 AND PUSH2 0x1CD0 JUMPI PUSH1 0x40 MLOAD PUSH3 0x461BCD PUSH1 0xE5 SHL DUP2 MSTORE PUSH1 0x20 PUSH1 0x4 DUP3 ADD MSTORE PUSH1 0x2E PUSH1 0x24 DUP3 ADD MSTORE PUSH32 0x5068616E746F6D54726561737572793A204E6F2054574150206465706C6F7965 PUSH1 0x44 DUP3 ADD MSTORE PUSH14 0x32103337B91037BABA2A37B5B2B7 PUSH1 0x91 SHL PUSH1 0x64 DUP3 ADD MSTORE PUSH1 0x84 ADD PUSH2 0x2D3 JUMP JUMPDEST DUP1 PUSH1 0x1 PUSH1 0x1 PUSH1 0xA0 SHL SUB AND PUSH4 0xA2E62045 PUSH1 0x40 MLOAD DUP2 PUSH4 0xFFFFFFFF AND PUSH1 0xE0 SHL DUP2 MSTORE PUSH1 0x4 ADD PUSH1 0x0 PUSH1 0x40 MLOAD DUP1 DUP4 SUB DUP2 PUSH1 0x0 DUP8 DUP1 EXTCODESIZE ISZERO DUP1 ISZERO PUSH2 0x1D0B JUMPI PUSH1 0x0 DUP1 REVERT JUMPDEST POP GAS CALL ISZERO DUP1 ISZERO PUSH2 0x1D1F JUMPI RETURNDATASIZE PUSH1 0x0 DUP1 RETURNDATACOPY RETURNDATASIZE PUSH1 0x0 REVERT JUMPDEST POP POP PUSH1 0x40 MLOAD PUSH4 0x3DDAC953 PUSH1 0xE0 SHL DUP2 MSTORE PUSH1 0x0 SWAP3 POP PUSH1 0x1 PUSH1 0x1 PUSH1 0xA0 SHL SUB DUP5 AND SWAP2 POP PUSH4 0x3DDAC953 SWAP1 PUSH2 0x1D54 SWAP1 DUP12 SWAP1 DUP14 SWAP1 PUSH1 0x4 ADD PUSH2 0x39C1 JUMP JUMPDEST PUSH1 0x20 PUSH1 0x40 MLOAD DUP1 DUP4 SUB DUP2 DUP7 GAS STATICCALL ISZERO DUP1 ISZERO PUSH2 0x1D71 JUMPI RETURNDATASIZE PUSH1 0x0 DUP1 RETURNDATACOPY RETURNDATASIZE PUSH1 0x0 REVERT JUMPDEST POP POP POP POP PUSH1 0x40 MLOAD RETURNDATASIZE PUSH1 0x1F NOT PUSH1 0x1F DUP3 ADD AND DUP3 ADD DUP1 PUSH1 0x40 MSTORE POP DUP2 ADD SWAP1 PUSH2 0x1D95 SWAP2 SWAP1 PUSH2 0x39A8 JUMP JUMPDEST SWAP1 POP PUSH1 0x0 PUSH2 0x1DA3 DUP3 DUP8 PUSH2 0x2AE5 JUMP JUMPDEST SWAP1 POP PUSH2 0x1DAD PUSH2 0x2A46 JUMP JUMPDEST PUSH1 0x1 PUSH1 0x1 PUSH1 0xA0 SHL SUB AND PUSH4 0xFCD3533C DUP3 PUSH2 0x1DC4 PUSH2 0x2D10 JUMP JUMPDEST PUSH1 0x40 MLOAD PUSH1 0x1 PUSH1 0x1 PUSH1 0xE0 SHL SUB NOT PUSH1 0xE0 DUP6 SWAP1 SHL AND DUP2 MSTORE PUSH1 0x4 DUP2 ADD SWAP3 SWAP1 SWAP3 MSTORE PUSH1 0x1 PUSH1 0x1 PUSH1 0xA0 SHL SUB AND PUSH1 0x24 DUP3 ADD MSTORE PUSH1 0x44 ADD PUSH1 0x0 PUSH1 0x40 MLOAD DUP1 DUP4 SUB DUP2 PUSH1 0x0 DUP8 DUP1 EXTCODESIZE ISZERO DUP1 ISZERO PUSH2 0x1E0B JUMPI PUSH1 0x0 DUP1 REVERT JUMPDEST POP GAS CALL ISZERO DUP1 ISZERO PUSH2 0x1E1F JUMPI RETURNDATASIZE PUSH1 0x0 DUP1 RETURNDATACOPY RETURNDATASIZE PUSH1 0x0 REVERT JUMPDEST POP POP POP POP PUSH2 0x1E36 DUP2 PUSH2 0x1E2F PUSH2 0x2D10 JUMP JUMPDEST DUP11 DUP11 PUSH2 0x2E06 JUMP JUMPDEST PUSH2 0x1E43 DUP12 DUP12 DUP12 DUP12 DUP12 PUSH2 0x2C18 JUMP JUMPDEST SWAP11 SWAP10 POP POP POP POP POP POP POP POP POP POP JUMP JUMPDEST PUSH1 0x0 PUSH2 0x1E65 PUSH1 0x49 SLOAD PUSH1 0x1 PUSH1 0x1 PUSH1 0xA0 SHL SUB AND SWAP1 JUMP JUMPDEST PUSH1 0x1 PUSH1 0x1 PUSH1 0xA0 SHL SUB AND PUSH4 0x1BED5241 PUSH1 0x40 MLOAD DUP2 PUSH4 0xFFFFFFFF AND PUSH1 0xE0 SHL DUP2 MSTORE PUSH1 0x4 ADD PUSH1 0x20 PUSH1 0x40 MLOAD DUP1 DUP4 SUB DUP2 DUP7 GAS STATICCALL ISZERO DUP1 ISZERO PUSH2 0x1EA2 JUMPI RETURNDATASIZE PUSH1 0x0 DUP1 RETURNDATACOPY RETURNDATASIZE PUSH1 0x0 REVERT JUMPDEST POP POP POP POP PUSH1 0x40 MLOAD RETURNDATASIZE PUSH1 0x1F NOT PUSH1 0x1F DUP3 ADD AND DUP3 ADD DUP1 PUSH1 0x40 MSTORE POP DUP2 ADD SWAP1 PUSH2 0x1EC6 SWAP2 SWAP1 PUSH2 0x39DA JUMP JUMPDEST SWAP1 POP PUSH1 0x1 DUP2 ISZERO ISZERO EQ ISZERO PUSH2 0x1F97 JUMPI PUSH1 0x49 SLOAD PUSH1 0x1 PUSH1 0x1 PUSH1 0xA0 SHL SUB AND PUSH1 0x1 PUSH1 0x1 PUSH1 0xA0 SHL SUB AND PUSH4 0x7AE1CFCA CALLER PUSH1 0x40 MLOAD PUSH1 0x20 ADD PUSH2 0x1EFE SWAP2 SWAP1 PUSH2 0x39FC JUMP JUMPDEST PUSH1 0x40 MLOAD PUSH1 0x20 DUP2 DUP4 SUB SUB DUP2 MSTORE SWAP1 PUSH1 0x40 MSTORE DUP1 MLOAD SWAP1 PUSH1 0x20 ADD KECCAK256 PUSH1 0x40 MLOAD DUP3 PUSH4 0xFFFFFFFF AND PUSH1 0xE0 SHL DUP2 MSTORE PUSH1 0x4 ADD PUSH2 0x1F32 SWAP2 DUP2 MSTORE PUSH1 0x20 ADD SWAP1 JUMP JUMPDEST PUSH1 0x20 PUSH1 0x40 MLOAD DUP1 DUP4 SUB DUP2 DUP7 GAS STATICCALL ISZERO DUP1 ISZERO PUSH2 0x1F4F JUMPI RETURNDATASIZE PUSH1 0x0 DUP1 RETURNDATACOPY RETURNDATASIZE PUSH1 0x0 REVERT JUMPDEST POP POP POP POP PUSH1 0x40 MLOAD RETURNDATASIZE PUSH1 0x1F NOT PUSH1 0x1F DUP3 ADD AND DUP3 ADD DUP1 PUSH1 0x40 MSTORE POP DUP2 ADD SWAP1 PUSH2 0x1F73 SWAP2 SWAP1 PUSH2 0x39DA JUMP JUMPDEST PUSH2 0x1F92 JUMPI PUSH1 0x40 MLOAD PUSH4 0x372463E3 PUSH1 0xE0 SHL DUP2 MSTORE CALLER PUSH1 0x4 DUP3 ADD MSTORE PUSH1 0x24 ADD PUSH2 0x2D3 JUMP JUMPDEST PUSH2 0x20DE JUMP JUMPDEST PUSH1 0x49 SLOAD PUSH1 0x1 PUSH1 0x1 PUSH1 0xA0 SHL SUB AND PUSH1 0x1 PUSH1 0x1 PUSH1 0xA0 SHL SUB AND PUSH4 0x7AE1CFCA CALLER PUSH1 0x40 MLOAD PUSH1 0x20 ADD PUSH2 0x1FC2 SWAP2 SWAP1 PUSH2 0x39FC JUMP JUMPDEST PUSH1 0x40 MLOAD PUSH1 0x20 DUP2 DUP4 SUB SUB DUP2 MSTORE SWAP1 PUSH1 0x40 MSTORE DUP1 MLOAD SWAP1 PUSH1 0x20 ADD KECCAK256 PUSH1 0x40 MLOAD DUP3 PUSH4 0xFFFFFFFF AND PUSH1 0xE0 SHL DUP2 MSTORE PUSH1 0x4 ADD PUSH2 0x1FF6 SWAP2 DUP2 MSTORE PUSH1 0x20 ADD SWAP1 JUMP JUMPDEST PUSH1 0x20 PUSH1 0x40 MLOAD DUP1 DUP4 SUB DUP2 DUP7 GAS STATICCALL ISZERO DUP1 ISZERO PUSH2 0x2013 JUMPI RETURNDATASIZE PUSH1 0x0 DUP1 RETURNDATACOPY RETURNDATASIZE PUSH1 0x0 REVERT JUMPDEST POP POP POP POP PUSH1 0x40 MLOAD RETURNDATASIZE PUSH1 0x1F NOT PUSH1 0x1F DUP3 ADD AND DUP3 ADD DUP1 PUSH1 0x40 MSTORE POP DUP2 ADD SWAP1 PUSH2 0x2037 SWAP2 SWAP1 PUSH2 0x39DA JUMP JUMPDEST DUP1 PUSH2 0x20BF JUMPI POP PUSH1 0x49 SLOAD PUSH1 0x1 PUSH1 0x1 PUSH1 0xA0 SHL SUB AND PUSH1 0x1 PUSH1 0x1 PUSH1 0xA0 SHL SUB AND PUSH4 0xA75B87D2 PUSH1 0x40 MLOAD DUP2 PUSH4 0xFFFFFFFF AND PUSH1 0xE0 SHL DUP2 MSTORE PUSH1 0x4 ADD PUSH1 0x20 PUSH1 0x40 MLOAD DUP1 DUP4 SUB DUP2 DUP7 GAS STATICCALL ISZERO DUP1 ISZERO PUSH2 0x2086 JUMPI RETURNDATASIZE PUSH1 0x0 DUP1 RETURNDATACOPY RETURNDATASIZE PUSH1 0x0 REVERT JUMPDEST POP POP POP POP PUSH1 0x40 MLOAD RETURNDATASIZE PUSH1 0x1F NOT PUSH1 0x1F DUP3 ADD AND DUP3 ADD DUP1 PUSH1 0x40 MSTORE POP DUP2 ADD SWAP1 PUSH2 0x20AA SWAP2 SWAP1 PUSH2 0x3A3A JUMP JUMPDEST PUSH1 0x1 PUSH1 0x1 PUSH1 0xA0 SHL SUB AND ORIGIN PUSH1 0x1 PUSH1 0x1 PUSH1 0xA0 SHL SUB AND EQ JUMPDEST PUSH2 0x20DE JUMPI PUSH1 0x40 MLOAD PUSH4 0x372463E3 PUSH1 0xE0 SHL DUP2 MSTORE CALLER PUSH1 0x4 DUP3 ADD MSTORE PUSH1 0x24 ADD PUSH2 0x2D3 JUMP JUMPDEST PUSH1 0x0 DUP6 PUSH1 0x1 PUSH1 0x1 PUSH1 0xA0 SHL SUB AND PUSH4 0xFC0C546A PUSH1 0x40 MLOAD DUP2 PUSH4 0xFFFFFFFF AND PUSH1 0xE0 SHL DUP2 MSTORE PUSH1 0x4 ADD PUSH1 0x20 PUSH1 0x40 MLOAD DUP1 DUP4 SUB DUP2 PUSH1 0x0 DUP8 GAS CALL ISZERO DUP1 ISZERO PUSH2 0x2120 JUMPI RETURNDATASIZE PUSH1 0x0 DUP1 RETURNDATACOPY RETURNDATASIZE PUSH1 0x0 REVERT JUMPDEST POP POP POP POP PUSH1 0x40 MLOAD RETURNDATASIZE PUSH1 0x1F NOT PUSH1 0x1F DUP3 ADD AND DUP3 ADD DUP1 PUSH1 0x40 MSTORE POP DUP2 ADD SWAP1 PUSH2 0x2144 SWAP2 SWAP1 PUSH2 0x3A3A JUMP JUMPDEST SWAP1 POP PUSH2 0x2153 ADDRESS DUP7 DUP4 DUP8 DUP8 PUSH2 0x2C18 JUMP JUMPDEST PUSH1 0x40 MLOAD PUSH4 0x95EA7B3 PUSH1 0xE0 SHL DUP2 MSTORE PUSH1 0x1 PUSH1 0x1 PUSH1 0xA0 SHL SUB DUP3 AND SWAP1 PUSH4 0x95EA7B3 SWAP1 PUSH2 0x2181 SWAP1 DUP10 SWAP1 DUP10 SWAP1 PUSH1 0x4 ADD PUSH2 0x39C1 JUMP JUMPDEST PUSH1 0x20 PUSH1 0x40 MLOAD DUP1 DUP4 SUB DUP2 PUSH1 0x0 DUP8 GAS CALL ISZERO DUP1 ISZERO PUSH2 0x21A0 JUMPI RETURNDATASIZE PUSH1 0x0 DUP1 RETURNDATACOPY RETURNDATASIZE PUSH1 0x0 REVERT JUMPDEST POP POP POP POP PUSH1 0x40 MLOAD RETURNDATASIZE PUSH1 0x1F NOT PUSH1 0x1F DUP3 ADD AND DUP3 ADD DUP1 PUSH1 0x40 MSTORE POP DUP2 ADD SWAP1 PUSH2 0x21C4 SWAP2 SWAP1 PUSH2 0x39DA JUMP JUMPDEST POP PUSH1 0x40 MLOAD PUSH4 0x6E553F65 PUSH1 0xE0 SHL DUP2 MSTORE PUSH1 0x4 DUP2 ADD DUP7 SWAP1 MSTORE ADDRESS PUSH1 0x24 DUP3 ADD MSTORE PUSH1 0x1 PUSH1 0x1 PUSH1 0xA0 SHL SUB DUP8 AND SWAP1 PUSH4 0x6E553F65 SWAP1 PUSH1 0x44 ADD PUSH1 0x0 PUSH1 0x40 MLOAD DUP1 DUP4 SUB DUP2 PUSH1 0x0 DUP8 DUP1 EXTCODESIZE ISZERO DUP1 ISZERO PUSH2 0x220D JUMPI PUSH1 0x0 DUP1 REVERT JUMPDEST POP GAS CALL ISZERO DUP1 ISZERO PUSH2 0x2221 JUMPI RETURNDATASIZE PUSH1 0x0 DUP1 RETURNDATACOPY RETURNDATASIZE PUSH1 0x0 REVERT JUMPDEST POP POP POP POP PUSH2 0x2232 ADDRESS DUP7 DUP9 DUP8 DUP8 PUSH2 0x2CC8 JUMP JUMPDEST POP POP POP POP POP POP JUMP JUMPDEST PUSH1 0x0 PUSH2 0x224E PUSH1 0x49 SLOAD PUSH1 0x1 PUSH1 0x1 PUSH1 0xA0 SHL SUB AND SWAP1 JUMP JUMPDEST PUSH1 0x1 PUSH1 0x1 PUSH1 0xA0 SHL SUB AND PUSH4 0x1BED5241 PUSH1 0x40 MLOAD DUP2 PUSH4 0xFFFFFFFF AND PUSH1 0xE0 SHL DUP2 MSTORE PUSH1 0x4 ADD PUSH1 0x20 PUSH1 0x40 MLOAD DUP1 DUP4 SUB DUP2 DUP7 GAS STATICCALL ISZERO DUP1 ISZERO PUSH2 0x228B JUMPI RETURNDATASIZE PUSH1 0x0 DUP1 RETURNDATACOPY RETURNDATASIZE PUSH1 0x0 REVERT JUMPDEST POP POP POP POP PUSH1 0x40 MLOAD RETURNDATASIZE PUSH1 0x1F NOT PUSH1 0x1F DUP3 ADD AND DUP3 ADD DUP1 PUSH1 0x40 MSTORE POP DUP2 ADD SWAP1 PUSH2 0x22AF SWAP2 SWAP1 PUSH2 0x39DA JUMP JUMPDEST SWAP1 POP PUSH1 0x1 DUP2 ISZERO ISZERO EQ ISZERO PUSH2 0x2380 JUMPI PUSH1 0x49 SLOAD PUSH1 0x1 PUSH1 0x1 PUSH1 0xA0 SHL SUB AND PUSH1 0x1 PUSH1 0x1 PUSH1 0xA0 SHL SUB AND PUSH4 0x7AE1CFCA CALLER PUSH1 0x40 MLOAD PUSH1 0x20 ADD PUSH2 0x22E7 SWAP2 SWAP1 PUSH2 0x39FC JUMP JUMPDEST PUSH1 0x40 MLOAD PUSH1 0x20 DUP2 DUP4 SUB SUB DUP2 MSTORE SWAP1 PUSH1 0x40 MSTORE DUP1 MLOAD SWAP1 PUSH1 0x20 ADD KECCAK256 PUSH1 0x40 MLOAD DUP3 PUSH4 0xFFFFFFFF AND PUSH1 0xE0 SHL DUP2 MSTORE PUSH1 0x4 ADD PUSH2 0x231B SWAP2 DUP2 MSTORE PUSH1 0x20 ADD SWAP1 JUMP JUMPDEST PUSH1 0x20 PUSH1 0x40 MLOAD DUP1 DUP4 SUB DUP2 DUP7 GAS STATICCALL ISZERO DUP1 ISZERO PUSH2 0x2338 JUMPI RETURNDATASIZE PUSH1 0x0 DUP1 RETURNDATACOPY RETURNDATASIZE PUSH1 0x0 REVERT JUMPDEST POP POP POP POP PUSH1 0x40 MLOAD RETURNDATASIZE PUSH1 0x1F NOT PUSH1 0x1F DUP3 ADD AND DUP3 ADD DUP1 PUSH1 0x40 MSTORE POP DUP2 ADD SWAP1 PUSH2 0x235C SWAP2 SWAP1 PUSH2 0x39DA JUMP JUMPDEST PUSH2 0x237B JUMPI PUSH1 0x40 MLOAD PUSH4 0x372463E3 PUSH1 0xE0 SHL DUP2 MSTORE CALLER PUSH1 0x4 DUP3 ADD MSTORE PUSH1 0x24 ADD PUSH2 0x2D3 JUMP JUMPDEST PUSH2 0x24C7 JUMP JUMPDEST PUSH1 0x49 SLOAD PUSH1 0x1 PUSH1 0x1 PUSH1 0xA0 SHL SUB AND PUSH1 0x1 PUSH1 0x1 PUSH1 0xA0 SHL SUB AND PUSH4 0x7AE1CFCA CALLER PUSH1 0x40 MLOAD PUSH1 0x20 ADD PUSH2 0x23AB SWAP2 SWAP1 PUSH2 0x39FC JUMP JUMPDEST PUSH1 0x40 MLOAD PUSH1 0x20 DUP2 DUP4 SUB SUB DUP2 MSTORE SWAP1 PUSH1 0x40 MSTORE DUP1 MLOAD SWAP1 PUSH1 0x20 ADD KECCAK256 PUSH1 0x40 MLOAD DUP3 PUSH4 0xFFFFFFFF AND PUSH1 0xE0 SHL DUP2 MSTORE PUSH1 0x4 ADD PUSH2 0x23DF SWAP2 DUP2 MSTORE PUSH1 0x20 ADD SWAP1 JUMP JUMPDEST PUSH1 0x20 PUSH1 0x40 MLOAD DUP1 DUP4 SUB DUP2 DUP7 GAS STATICCALL ISZERO DUP1 ISZERO PUSH2 0x23FC JUMPI RETURNDATASIZE PUSH1 0x0 DUP1 RETURNDATACOPY RETURNDATASIZE PUSH1 0x0 REVERT JUMPDEST POP POP POP POP PUSH1 0x40 MLOAD RETURNDATASIZE PUSH1 0x1F NOT PUSH1 0x1F DUP3 ADD AND DUP3 ADD DUP1 PUSH1 0x40 MSTORE POP DUP2 ADD SWAP1 PUSH2 0x2420 SWAP2 SWAP1 PUSH2 0x39DA JUMP JUMPDEST DUP1 PUSH2 0x24A8 JUMPI POP PUSH1 0x49 SLOAD PUSH1 0x1 PUSH1 0x1 PUSH1 0xA0 SHL SUB AND PUSH1 0x1 PUSH1 0x1 PUSH1 0xA0 SHL SUB AND PUSH4 0xA75B87D2 PUSH1 0x40 MLOAD DUP2 PUSH4 0xFFFFFFFF AND PUSH1 0xE0 SHL DUP2 MSTORE PUSH1 0x4 ADD PUSH1 0x20 PUSH1 0x40 MLOAD DUP1 DUP4 SUB DUP2 DUP7 GAS STATICCALL ISZERO DUP1 ISZERO PUSH2 0x246F JUMPI RETURNDATASIZE PUSH1 0x0 DUP1 RETURNDATACOPY RETURNDATASIZE PUSH1 0x0 REVERT JUMPDEST POP POP POP POP PUSH1 0x40 MLOAD RETURNDATASIZE PUSH1 0x1F NOT PUSH1 0x1F DUP3 ADD AND DUP3 ADD DUP1 PUSH1 0x40 MSTORE POP DUP2 ADD SWAP1 PUSH2 0x2493 SWAP2 SWAP1 PUSH2 0x3A3A JUMP JUMPDEST PUSH1 0x1 PUSH1 0x1 PUSH1 0xA0 SHL SUB AND ORIGIN PUSH1 0x1 PUSH1 0x1 PUSH1 0xA0 SHL SUB AND EQ JUMPDEST PUSH2 0x24C7 JUMPI PUSH1 0x40 MLOAD PUSH4 0x372463E3 PUSH1 0xE0 SHL DUP2 MSTORE CALLER PUSH1 0x4 DUP3 ADD MSTORE PUSH1 0x24 ADD PUSH2 0x2D3 JUMP JUMPDEST DUP4 PUSH2 0x24D1 DUP2 PUSH2 0x2AF8 JUMP JUMPDEST PUSH2 0x24F9 JUMPI PUSH1 0x40 MLOAD PUSH4 0x49E82B5F PUSH1 0xE1 SHL DUP2 MSTORE PUSH1 0x1 PUSH1 0x1 PUSH1 0xA0 SHL SUB DUP3 AND PUSH1 0x4 DUP3 ADD MSTORE PUSH1 0x24 ADD PUSH2 0x2D3 JUMP JUMPDEST PUSH2 0x2506 DUP10 DUP10 DUP10 DUP8 DUP8 PUSH2 0x2CC8 JUMP JUMPDEST PUSH1 0x40 MLOAD PUSH4 0x40C10F19 PUSH1 0xE0 SHL DUP2 MSTORE PUSH1 0x1 PUSH1 0x1 PUSH1 0xA0 SHL SUB DUP7 AND SWAP1 PUSH4 0x40C10F19 SWAP1 PUSH2 0x2534 SWAP1 DUP13 SWAP1 DUP11 SWAP1 PUSH1 0x4 ADD PUSH2 0x39C1 JUMP JUMPDEST PUSH1 0x0 PUSH1 0x40 MLOAD DUP1 DUP4 SUB DUP2 PUSH1 0x0 DUP8 DUP1 EXTCODESIZE ISZERO DUP1 ISZERO PUSH2 0x254E JUMPI PUSH1 0x0 DUP1 REVERT JUMPDEST POP GAS CALL ISZERO DUP1 ISZERO PUSH2 0x2562 JUMPI RETURNDATASIZE PUSH1 0x0 DUP1 RETURNDATACOPY RETURNDATASIZE PUSH1 0x0 REVERT JUMPDEST POP POP POP POP PUSH32 0x33F7E8834ABB6DB2D9D937D5702755A17292C57CBDCE1E3CF535E256BB9A9998 DUP8 DUP7 DUP12 DUP12 PUSH1 0x40 MLOAD PUSH2 0x7EA SWAP5 SWAP4 SWAP3 SWAP2 SWAP1 PUSH2 0x3A57 JUMP JUMPDEST PUSH1 0x0 PUSH2 0x25AF PUSH1 0x49 SLOAD PUSH1 0x1 PUSH1 0x1 PUSH1 0xA0 SHL SUB AND SWAP1 JUMP JUMPDEST PUSH1 0x1 PUSH1 0x1 PUSH1 0xA0 SHL SUB AND PUSH4 0x1BED5241 PUSH1 0x40 MLOAD DUP2 PUSH4 0xFFFFFFFF AND PUSH1 0xE0 SHL DUP2 MSTORE PUSH1 0x4 ADD PUSH1 0x20 PUSH1 0x40 MLOAD DUP1 DUP4 SUB DUP2 DUP7 GAS STATICCALL ISZERO DUP1 ISZERO PUSH2 0x25EC JUMPI RETURNDATASIZE PUSH1 0x0 DUP1 RETURNDATACOPY RETURNDATASIZE PUSH1 0x0 REVERT JUMPDEST POP POP POP POP PUSH1 0x40 MLOAD RETURNDATASIZE PUSH1 0x1F NOT PUSH1 0x1F DUP3 ADD AND DUP3 ADD DUP1 PUSH1 0x40 MSTORE POP DUP2 ADD SWAP1 PUSH2 0x2610 SWAP2 SWAP1 PUSH2 0x39DA JUMP JUMPDEST SWAP1 POP PUSH1 0x1 DUP2 ISZERO ISZERO EQ ISZERO PUSH2 0x26E1 JUMPI PUSH1 0x49 SLOAD PUSH1 0x1 PUSH1 0x1 PUSH1 0xA0 SHL SUB AND PUSH1 0x1 PUSH1 0x1 PUSH1 0xA0 SHL SUB AND PUSH4 0x7AE1CFCA CALLER PUSH1 0x40 MLOAD PUSH1 0x20 ADD PUSH2 0x2648 SWAP2 SWAP1 PUSH2 0x39FC JUMP JUMPDEST PUSH1 0x40 MLOAD PUSH1 0x20 DUP2 DUP4 SUB SUB DUP2 MSTORE SWAP1 PUSH1 0x40 MSTORE DUP1 MLOAD SWAP1 PUSH1 0x20 ADD KECCAK256 PUSH1 0x40 MLOAD DUP3 PUSH4 0xFFFFFFFF AND PUSH1 0xE0 SHL DUP2 MSTORE PUSH1 0x4 ADD PUSH2 0x267C SWAP2 DUP2 MSTORE PUSH1 0x20 ADD SWAP1 JUMP JUMPDEST PUSH1 0x20 PUSH1 0x40 MLOAD DUP1 DUP4 SUB DUP2 DUP7 GAS STATICCALL ISZERO DUP1 ISZERO PUSH2 0x2699 JUMPI RETURNDATASIZE PUSH1 0x0 DUP1 RETURNDATACOPY RETURNDATASIZE PUSH1 0x0 REVERT JUMPDEST POP POP POP POP PUSH1 0x40 MLOAD RETURNDATASIZE PUSH1 0x1F NOT PUSH1 0x1F DUP3 ADD AND DUP3 ADD DUP1 PUSH1 0x40 MSTORE POP DUP2 ADD SWAP1 PUSH2 0x26BD SWAP2 SWAP1 PUSH2 0x39DA JUMP JUMPDEST PUSH2 0x26DC JUMPI PUSH1 0x40 MLOAD PUSH4 0x372463E3 PUSH1 0xE0 SHL DUP2 MSTORE CALLER PUSH1 0x4 DUP3 ADD MSTORE PUSH1 0x24 ADD PUSH2 0x2D3 JUMP JUMPDEST PUSH2 0x2828 JUMP JUMPDEST PUSH1 0x49 SLOAD PUSH1 0x1 PUSH1 0x1 PUSH1 0xA0 SHL SUB AND PUSH1 0x1 PUSH1 0x1 PUSH1 0xA0 SHL SUB AND PUSH4 0x7AE1CFCA CALLER PUSH1 0x40 MLOAD PUSH1 0x20 ADD PUSH2 0x270C SWAP2 SWAP1 PUSH2 0x39FC JUMP JUMPDEST PUSH1 0x40 MLOAD PUSH1 0x20 DUP2 DUP4 SUB SUB DUP2 MSTORE SWAP1 PUSH1 0x40 MSTORE DUP1 MLOAD SWAP1 PUSH1 0x20 ADD KECCAK256 PUSH1 0x40 MLOAD DUP3 PUSH4 0xFFFFFFFF AND PUSH1 0xE0 SHL DUP2 MSTORE PUSH1 0x4 ADD PUSH2 0x2740 SWAP2 DUP2 MSTORE PUSH1 0x20 ADD SWAP1 JUMP JUMPDEST PUSH1 0x20 PUSH1 0x40 MLOAD DUP1 DUP4 SUB DUP2 DUP7 GAS STATICCALL ISZERO DUP1 ISZERO PUSH2 0x275D JUMPI RETURNDATASIZE PUSH1 0x0 DUP1 RETURNDATACOPY RETURNDATASIZE PUSH1 0x0 REVERT JUMPDEST POP POP POP POP PUSH1 0x40 MLOAD RETURNDATASIZE PUSH1 0x1F NOT PUSH1 0x1F DUP3 ADD AND DUP3 ADD DUP1 PUSH1 0x40 MSTORE POP DUP2 ADD SWAP1 PUSH2 0x2781 SWAP2 SWAP1 PUSH2 0x39DA JUMP JUMPDEST DUP1 PUSH2 0x2809 JUMPI POP PUSH1 0x49 SLOAD PUSH1 0x1 PUSH1 0x1 PUSH1 0xA0 SHL SUB AND PUSH1 0x1 PUSH1 0x1 PUSH1 0xA0 SHL SUB AND PUSH4 0xA75B87D2 PUSH1 0x40 MLOAD DUP2 PUSH4 0xFFFFFFFF AND PUSH1 0xE0 SHL DUP2 MSTORE PUSH1 0x4 ADD PUSH1 0x20 PUSH1 0x40 MLOAD DUP1 DUP4 SUB DUP2 DUP7 GAS STATICCALL ISZERO DUP1 ISZERO PUSH2 0x27D0 JUMPI RETURNDATASIZE PUSH1 0x0 DUP1 RETURNDATACOPY RETURNDATASIZE PUSH1 0x0 REVERT JUMPDEST POP POP POP POP PUSH1 0x40 MLOAD RETURNDATASIZE PUSH1 0x1F NOT PUSH1 0x1F DUP3 ADD AND DUP3 ADD DUP1 PUSH1 0x40 MSTORE POP DUP2 ADD SWAP1 PUSH2 0x27F4 SWAP2 SWAP1 PUSH2 0x3A3A JUMP JUMPDEST PUSH1 0x1 PUSH1 0x1 PUSH1 0xA0 SHL SUB AND ORIGIN PUSH1 0x1 PUSH1 0x1 PUSH1 0xA0 SHL SUB AND EQ JUMPDEST PUSH2 0x2828 JUMPI PUSH1 0x40 MLOAD PUSH4 0x372463E3 PUSH1 0xE0 SHL DUP2 MSTORE CALLER PUSH1 0x4 DUP3 ADD MSTORE PUSH1 0x24 ADD PUSH2 0x2D3 JUMP JUMPDEST PUSH1 0x1 PUSH1 0x1 PUSH1 0xA0 SHL SUB DUP3 AND PUSH1 0x0 SWAP1 DUP2 MSTORE PUSH1 0x4C PUSH1 0x20 MSTORE PUSH1 0x40 SWAP1 KECCAK256 SLOAD PUSH1 0xFF AND ISZERO PUSH2 0x2891 JUMPI PUSH1 0x40 MLOAD PUSH3 0x461BCD PUSH1 0xE5 SHL DUP2 MSTORE PUSH1 0x20 PUSH1 0x4 DUP3 ADD MSTORE PUSH1 0x18 PUSH1 0x24 DUP3 ADD MSTORE PUSH32 0x546F6B656E20616C726561647920726567697374657265640000000000000000 PUSH1 0x44 DUP3 ADD MSTORE PUSH1 0x64 ADD PUSH2 0x2D3 JUMP JUMPDEST POP PUSH1 0x4B DUP1 SLOAD PUSH1 0x1 DUP2 DUP2 ADD SWAP1 SWAP3 SSTORE PUSH32 0x17B0AF156A929EDF60C351F3DF2D53ED643FDD750AEF9EDA90DC7C8759A104A8 ADD DUP1 SLOAD PUSH1 0x1 PUSH1 0x1 PUSH1 0xA0 SHL SUB SWAP1 SWAP4 AND PUSH1 0x1 PUSH1 0x1 PUSH1 0xA0 SHL SUB NOT SWAP1 SWAP4 AND DUP4 OR SWAP1 SSTORE PUSH1 0x0 SWAP2 DUP3 MSTORE PUSH1 0x4C PUSH1 0x20 MSTORE PUSH1 0x40 SWAP1 SWAP2 KECCAK256 DUP1 SLOAD PUSH1 0xFF NOT AND SWAP1 SWAP2 OR SWAP1 SSTORE JUMP JUMPDEST PUSH1 0x0 PUSH2 0x290D PUSH1 0x49 SLOAD PUSH1 0x1 PUSH1 0x1 PUSH1 0xA0 SHL SUB AND SWAP1 JUMP JUMPDEST PUSH1 0x1 PUSH1 0x1 PUSH1 0xA0 SHL SUB AND PUSH4 0x21F8A721 PUSH1 0x3 PUSH1 0x0 ADD PUSH1 0xD ADD DUP5 PUSH1 0x40 MLOAD PUSH1 0x20 ADD PUSH2 0x2935 SWAP3 SWAP2 SWAP1 PUSH2 0x3B1B JUMP JUMPDEST PUSH1 0x40 DUP1 MLOAD PUSH1 0x1F NOT DUP2 DUP5 SUB ADD DUP2 MSTORE SWAP1 DUP3 SWAP1 MSTORE PUSH2 0x2952 SWAP2 PUSH1 0x20 ADD PUSH2 0x3B6F JUMP JUMPDEST PUSH1 0x40 MLOAD PUSH1 0x20 DUP2 DUP4 SUB SUB DUP2 MSTORE SWAP1 PUSH1 0x40 MSTORE DUP1 MLOAD SWAP1 PUSH1 0x20 ADD KECCAK256 PUSH1 0x40 MLOAD DUP3 PUSH4 0xFFFFFFFF AND PUSH1 0xE0 SHL DUP2 MSTORE PUSH1 0x4 ADD PUSH2 0x2986 SWAP2 DUP2 MSTORE PUSH1 0x20 ADD SWAP1 JUMP JUMPDEST PUSH1 0x20 PUSH1 0x40 MLOAD DUP1 DUP4 SUB DUP2 DUP7 GAS STATICCALL ISZERO DUP1 ISZERO PUSH2 0x29A3 JUMPI RETURNDATASIZE PUSH1 0x0 DUP1 RETURNDATACOPY RETURNDATASIZE PUSH1 0x0 REVERT JUMPDEST POP POP POP POP PUSH1 0x40 MLOAD RETURNDATASIZE PUSH1 0x1F NOT PUSH1 0x1F DUP3 ADD AND DUP3 ADD DUP1 PUSH1 0x40 MSTORE POP DUP2 ADD SWAP1 PUSH2 0x29C7 SWAP2 SWAP1 PUSH2 0x3A3A JUMP JUMPDEST SWAP3 SWAP2 POP POP JUMP JUMPDEST PUSH1 0x40 DUP1 MLOAD PUSH1 0x2 DUP1 DUP3 MSTORE PUSH1 0x60 DUP1 DUP4 ADD DUP5 MSTORE SWAP3 PUSH1 0x0 SWAP3 SWAP2 SWAP1 PUSH1 0x20 DUP4 ADD SWAP1 DUP1 CALLDATASIZE DUP4 CALLDATACOPY ADD SWAP1 POP POP SWAP1 POP PUSH8 0xC7D713B49DA0000 DUP2 PUSH1 0x0 DUP2 MLOAD DUP2 LT PUSH2 0x2A0E JUMPI PUSH2 0x2A0E PUSH2 0x3949 JUMP JUMPDEST PUSH1 0x20 MUL PUSH1 0x20 ADD ADD DUP2 DUP2 MSTORE POP POP PUSH8 0x16345785D8A0000 DUP2 PUSH1 0x1 DUP2 MLOAD DUP2 LT PUSH2 0x2A36 JUMPI PUSH2 0x2A36 PUSH2 0x3949 JUMP JUMPDEST PUSH1 0x20 SWAP1 DUP2 MUL SWAP2 SWAP1 SWAP2 ADD ADD MSTORE SWAP2 SWAP1 POP JUMP JUMPDEST PUSH1 0x0 PUSH2 0x2A5A PUSH1 0x49 SLOAD PUSH1 0x1 PUSH1 0x1 PUSH1 0xA0 SHL SUB AND SWAP1 JUMP JUMPDEST PUSH1 0x1 PUSH1 0x1 PUSH1 0xA0 SHL SUB AND PUSH4 0x21F8A721 PUSH1 0x3 PUSH1 0x0 ADD PUSH1 0xA ADD PUSH1 0x40 MLOAD PUSH2 0x2A7D SWAP2 SWAP1 PUSH2 0x3B8B JUMP JUMPDEST PUSH1 0x40 MLOAD SWAP1 DUP2 SWAP1 SUB DUP2 KECCAK256 PUSH1 0xE0 DUP4 SWAP1 SHL PUSH1 0x1 PUSH1 0x1 PUSH1 0xE0 SHL SUB NOT AND DUP3 MSTORE PUSH1 0x4 DUP3 ADD MSTORE PUSH1 0x24 ADD PUSH1 0x20 PUSH1 0x40 MLOAD DUP1 DUP4 SUB DUP2 DUP7 GAS STATICCALL ISZERO DUP1 ISZERO PUSH2 0x2ABC JUMPI RETURNDATASIZE PUSH1 0x0 DUP1 RETURNDATACOPY RETURNDATASIZE PUSH1 0x0 REVERT JUMPDEST POP POP POP POP PUSH1 0x40 MLOAD RETURNDATASIZE PUSH1 0x1F NOT PUSH1 0x1F DUP3 ADD AND DUP3 ADD DUP1 PUSH1 0x40 MSTORE POP DUP2 ADD SWAP1 PUSH2 0x2AE0 SWAP2 SWAP1 PUSH2 0x3A3A JUMP JUMPDEST SWAP1 POP SWAP1 JUMP JUMPDEST PUSH1 0x0 PUSH2 0x2AF1 DUP4 DUP4 PUSH2 0x2EAE JUMP JUMPDEST SWAP4 SWAP3 POP POP POP JUMP JUMPDEST PUSH1 0x0 PUSH2 0x2B02 PUSH2 0x2D10 JUMP JUMPDEST PUSH1 0x1 PUSH1 0x1 PUSH1 0xA0 SHL SUB AND DUP3 PUSH1 0x1 PUSH1 0x1 PUSH1 0xA0 SHL SUB AND EQ DUP1 PUSH2 0x2B39 JUMPI POP PUSH2 0x2B24 PUSH2 0x2F70 JUMP JUMPDEST PUSH1 0x1 PUSH1 0x1 PUSH1 0xA0 SHL SUB AND DUP3 PUSH1 0x1 PUSH1 0x1 PUSH1 0xA0 SHL SUB AND EQ JUMPDEST DUP1 PUSH2 0x2B5C JUMPI POP PUSH2 0x2B47 PUSH2 0x2FA7 JUMP JUMPDEST PUSH1 0x1 PUSH1 0x1 PUSH1 0xA0 SHL SUB AND DUP3 PUSH1 0x1 PUSH1 0x1 PUSH1 0xA0 SHL SUB AND EQ JUMPDEST DUP1 PUSH2 0x2B7F JUMPI POP PUSH2 0x2B6A PUSH2 0x2FDE JUMP JUMPDEST PUSH1 0x1 PUSH1 0x1 PUSH1 0xA0 SHL SUB AND DUP3 PUSH1 0x1 PUSH1 0x1 PUSH1 0xA0 SHL SUB AND EQ JUMPDEST DUP1 PUSH2 0x29C7 JUMPI POP PUSH2 0x2B8D PUSH2 0x3015 JUMP JUMPDEST PUSH1 0x1 PUSH1 0x1 PUSH1 0xA0 SHL SUB AND DUP3 PUSH1 0x1 PUSH1 0x1 PUSH1 0xA0 SHL SUB AND EQ SWAP3 SWAP2 POP POP JUMP JUMPDEST PUSH1 0x40 MLOAD PUSH1 0x1 PUSH1 0x1 PUSH1 0xA0 SHL SUB DUP1 DUP6 AND PUSH1 0x24 DUP4 ADD MSTORE DUP4 AND PUSH1 0x44 DUP3 ADD MSTORE PUSH1 0x64 DUP2 ADD DUP3 SWAP1 MSTORE PUSH2 0x2C12 SWAP1 DUP6 SWAP1 PUSH4 0x23B872DD PUSH1 0xE0 SHL SWAP1 PUSH1 0x84 ADD JUMPDEST PUSH1 0x40 DUP1 MLOAD PUSH1 0x1F NOT DUP2 DUP5 SUB ADD DUP2 MSTORE SWAP2 SWAP1 MSTORE PUSH1 0x20 DUP2 ADD DUP1 MLOAD PUSH1 0x1 PUSH1 0x1 PUSH1 0xE0 SHL SUB AND PUSH1 0x1 PUSH1 0x1 PUSH1 0xE0 SHL SUB NOT SWAP1 SWAP4 AND SWAP3 SWAP1 SWAP3 OR SWAP1 SWAP2 MSTORE PUSH2 0x304C JUMP JUMPDEST POP POP POP POP JUMP JUMPDEST DUP4 ISZERO DUP1 PUSH2 0x2C2C JUMPI POP PUSH1 0x1 PUSH1 0x1 PUSH1 0xA0 SHL SUB DUP4 AND ISZERO JUMPDEST ISZERO PUSH2 0x2C36 JUMPI PUSH2 0x2CC1 JUMP JUMPDEST PUSH2 0x2C42 DUP5 DUP5 DUP5 DUP5 PUSH2 0x2E06 JUMP JUMPDEST PUSH2 0x2C4A PUSH2 0x2A46 JUMP JUMPDEST PUSH1 0x40 MLOAD PUSH3 0x7B8A67 PUSH1 0xE1 SHL DUP2 MSTORE PUSH1 0x4 DUP2 ADD DUP7 SWAP1 MSTORE PUSH1 0x1 PUSH1 0x1 PUSH1 0xA0 SHL SUB DUP6 DUP2 AND PUSH1 0x24 DUP4 ADD MSTORE SWAP2 SWAP1 SWAP2 AND SWAP1 PUSH3 0xF714CE SWAP1 PUSH1 0x44 ADD PUSH1 0x0 PUSH1 0x40 MLOAD DUP1 DUP4 SUB DUP2 PUSH1 0x0 DUP8 DUP1 EXTCODESIZE ISZERO DUP1 ISZERO PUSH2 0x2C94 JUMPI PUSH1 0x0 DUP1 REVERT JUMPDEST POP GAS CALL ISZERO DUP1 ISZERO PUSH2 0x2CA8 JUMPI RETURNDATASIZE PUSH1 0x0 DUP1 RETURNDATACOPY RETURNDATASIZE PUSH1 0x0 REVERT JUMPDEST POP PUSH2 0x2CC1 SWAP3 POP POP POP PUSH1 0x1 PUSH1 0x1 PUSH1 0xA0 SHL SUB DUP5 AND DUP7 DUP7 PUSH2 0x3123 JUMP JUMPDEST POP POP POP POP POP JUMP JUMPDEST DUP4 ISZERO DUP1 PUSH2 0x2CDC JUMPI POP PUSH1 0x1 PUSH1 0x1 PUSH1 0xA0 SHL SUB DUP4 AND ISZERO JUMPDEST ISZERO PUSH2 0x2CE6 JUMPI PUSH2 0x2CC1 JUMP JUMPDEST PUSH2 0x2CF2 DUP5 DUP5 DUP5 DUP5 PUSH2 0x2D47 JUMP JUMPDEST PUSH2 0x2CC1 DUP6 PUSH2 0x2CFE PUSH2 0x2A46 JUMP JUMPDEST PUSH1 0x1 PUSH1 0x1 PUSH1 0xA0 SHL SUB DUP7 AND SWAP2 SWAP1 DUP8 PUSH2 0x2BA7 JUMP JUMPDEST PUSH1 0x0 PUSH2 0x2D24 PUSH1 0x49 SLOAD PUSH1 0x1 PUSH1 0x1 PUSH1 0xA0 SHL SUB AND SWAP1 JUMP JUMPDEST PUSH1 0x1 PUSH1 0x1 PUSH1 0xA0 SHL SUB AND PUSH4 0x21F8A721 PUSH1 0x3 PUSH1 0x0 ADD PUSH1 0x5 ADD PUSH1 0x40 MLOAD PUSH2 0x2A7D SWAP2 SWAP1 PUSH2 0x3B8B JUMP JUMPDEST PUSH2 0x2D50 DUP2 PUSH2 0x1D0 JUMP JUMPDEST PUSH8 0xDE0B6B3A7640000 EQ PUSH2 0x2D77 JUMPI PUSH1 0x40 MLOAD PUSH4 0x4A6603C9 PUSH1 0xE1 SHL DUP2 MSTORE PUSH1 0x4 ADD PUSH1 0x40 MLOAD DUP1 SWAP2 SUB SWAP1 REVERT JUMPDEST DUP1 MLOAD DUP3 MLOAD EQ PUSH2 0x2D99 JUMPI PUSH1 0x40 MLOAD PUSH4 0x2F6B708F PUSH1 0xE2 SHL DUP2 MSTORE PUSH1 0x4 ADD PUSH1 0x40 MLOAD DUP1 SWAP2 SUB SWAP1 REVERT JUMPDEST PUSH1 0x0 JUMPDEST DUP3 MLOAD DUP2 LT ISZERO PUSH2 0x2CC1 JUMPI PUSH2 0x2DF4 DUP4 DUP3 DUP2 MLOAD DUP2 LT PUSH2 0x2DBA JUMPI PUSH2 0x2DBA PUSH2 0x3949 JUMP JUMPDEST PUSH1 0x20 MUL PUSH1 0x20 ADD ADD MLOAD DUP6 PUSH2 0x2DEF DUP6 DUP6 DUP2 MLOAD DUP2 LT PUSH2 0x2DD8 JUMPI PUSH2 0x2DD8 PUSH2 0x3949 JUMP JUMPDEST PUSH1 0x20 MUL PUSH1 0x20 ADD ADD MLOAD DUP10 PUSH2 0x2AE5 SWAP1 SWAP2 SWAP1 PUSH4 0xFFFFFFFF AND JUMP JUMPDEST PUSH2 0x3142 JUMP JUMPDEST PUSH2 0x2DFF PUSH1 0x1 DUP3 PUSH2 0x3975 JUMP JUMPDEST SWAP1 POP PUSH2 0x2D9C JUMP JUMPDEST PUSH2 0x2E0F DUP2 PUSH2 0x1D0 JUMP JUMPDEST PUSH8 0xDE0B6B3A7640000 EQ PUSH2 0x2E36 JUMPI PUSH1 0x40 MLOAD PUSH4 0x4A6603C9 PUSH1 0xE1 SHL DUP2 MSTORE PUSH1 0x4 ADD PUSH1 0x40 MLOAD DUP1 SWAP2 SUB SWAP1 REVERT JUMPDEST DUP1 MLOAD DUP3 MLOAD EQ PUSH2 0x2E58 JUMPI PUSH1 0x40 MLOAD PUSH4 0x2F6B708F PUSH1 0xE2 SHL DUP2 MSTORE PUSH1 0x4 ADD PUSH1 0x40 MLOAD DUP1 SWAP2 SUB SWAP1 REVERT JUMPDEST PUSH1 0x0 JUMPDEST DUP3 MLOAD DUP2 LT ISZERO PUSH2 0x2CC1 JUMPI PUSH2 0x2E9C DUP4 DUP3 DUP2 MLOAD DUP2 LT PUSH2 0x2E79 JUMPI PUSH2 0x2E79 PUSH2 0x3949 JUMP JUMPDEST PUSH1 0x20 MUL PUSH1 0x20 ADD ADD MLOAD DUP6 PUSH2 0x2E97 DUP6 DUP6 DUP2 MLOAD DUP2 LT PUSH2 0x2DD8 JUMPI PUSH2 0x2DD8 PUSH2 0x3949 JUMP JUMPDEST PUSH2 0x31D4 JUMP JUMPDEST PUSH2 0x2EA7 PUSH1 0x1 DUP3 PUSH2 0x3975 JUMP JUMPDEST SWAP1 POP PUSH2 0x2E5B JUMP JUMPDEST PUSH1 0x0 DUP1 DUP1 PUSH1 0x0 NOT DUP5 DUP7 MULMOD DUP5 DUP7 MUL SWAP3 POP DUP3 DUP2 LT DUP4 DUP3 SUB SUB SWAP2 POP POP PUSH8 0xDE0B6B3A7640000 DUP2 LT PUSH2 0x2EF2 JUMPI PUSH1 0x40 MLOAD PUSH4 0x698D9A01 PUSH1 0xE1 SHL DUP2 MSTORE PUSH1 0x4 DUP2 ADD DUP3 SWAP1 MSTORE PUSH1 0x24 ADD PUSH2 0x2D3 JUMP JUMPDEST PUSH1 0x0 DUP1 PUSH8 0xDE0B6B3A7640000 DUP7 DUP9 MULMOD SWAP2 POP POP PUSH8 0x6F05B59D3B1FFFF DUP2 GT DUP3 PUSH2 0x2F2C JUMPI DUP1 PUSH8 0xDE0B6B3A7640000 DUP6 DIV ADD SWAP5 POP POP POP POP POP PUSH2 0x29C7 JUMP JUMPDEST PUSH3 0x40000 DUP3 DUP6 SUB DIV SWAP4 SWAP1 SWAP2 GT SWAP1 SWAP2 SUB PUSH1 0x1 PUSH1 0xEE SHL MUL SWAP2 SWAP1 SWAP2 OR PUSH32 0xACCB18165BD6FE31AE1CF318DC5B51EEE0E1BA569B88CD74C1773B91FAC10669 MUL ADD SWAP1 POP SWAP3 SWAP2 POP POP JUMP JUMPDEST PUSH1 0x0 PUSH2 0x2F84 PUSH1 0x49 SLOAD PUSH1 0x1 PUSH1 0x1 PUSH1 0xA0 SHL SUB AND SWAP1 JUMP JUMPDEST PUSH1 0x1 PUSH1 0x1 PUSH1 0xA0 SHL SUB AND PUSH4 0x21F8A721 PUSH1 0x3 PUSH1 0x0 ADD PUSH1 0x6 ADD PUSH1 0x40 MLOAD PUSH2 0x2A7D SWAP2 SWAP1 PUSH2 0x3B8B JUMP JUMPDEST PUSH1 0x0 PUSH2 0x2FBB PUSH1 0x49 SLOAD PUSH1 0x1 PUSH1 0x1 PUSH1 0xA0 SHL SUB AND SWAP1 JUMP JUMPDEST PUSH1 0x1 PUSH1 0x1 PUSH1 0xA0 SHL SUB AND PUSH4 0x21F8A721 PUSH1 0x3 PUSH1 0x0 ADD PUSH1 0x9 ADD PUSH1 0x40 MLOAD PUSH2 0x2A7D SWAP2 SWAP1 PUSH2 0x3B8B JUMP JUMPDEST PUSH1 0x0 PUSH2 0x2FF2 PUSH1 0x49 SLOAD PUSH1 0x1 PUSH1 0x1 PUSH1 0xA0 SHL SUB AND SWAP1 JUMP JUMPDEST PUSH1 0x1 PUSH1 0x1 PUSH1 0xA0 SHL SUB AND PUSH4 0x21F8A721 PUSH1 0x3 PUSH1 0x0 ADD PUSH1 0x8 ADD PUSH1 0x40 MLOAD PUSH2 0x2A7D SWAP2 SWAP1 PUSH2 0x3B8B JUMP JUMPDEST PUSH1 0x0 PUSH2 0x3029 PUSH1 0x49 SLOAD PUSH1 0x1 PUSH1 0x1 PUSH1 0xA0 SHL SUB AND SWAP1 JUMP JUMPDEST PUSH1 0x1 PUSH1 0x1 PUSH1 0xA0 SHL SUB AND PUSH4 0x21F8A721 PUSH1 0x3 PUSH1 0x0 ADD PUSH1 0x7 ADD PUSH1 0x40 MLOAD PUSH2 0x2A7D SWAP2 SWAP1 PUSH2 0x3B8B JUMP JUMPDEST PUSH1 0x0 PUSH2 0x30A1 DUP3 PUSH1 0x40 MLOAD DUP1 PUSH1 0x40 ADD PUSH1 0x40 MSTORE DUP1 PUSH1 0x20 DUP2 MSTORE PUSH1 0x20 ADD PUSH32 0x5361666545524332303A206C6F772D6C6576656C2063616C6C206661696C6564 DUP2 MSTORE POP DUP6 PUSH1 0x1 PUSH1 0x1 PUSH1 0xA0 SHL SUB AND PUSH2 0x32E2 SWAP1 SWAP3 SWAP2 SWAP1 PUSH4 0xFFFFFFFF AND JUMP JUMPDEST DUP1 MLOAD SWAP1 SWAP2 POP ISZERO PUSH2 0x311E JUMPI DUP1 DUP1 PUSH1 0x20 ADD SWAP1 MLOAD DUP2 ADD SWAP1 PUSH2 0x30BF SWAP2 SWAP1 PUSH2 0x39DA JUMP JUMPDEST PUSH2 0x311E JUMPI PUSH1 0x40 MLOAD PUSH3 0x461BCD PUSH1 0xE5 SHL DUP2 MSTORE PUSH1 0x20 PUSH1 0x4 DUP3 ADD MSTORE PUSH1 0x2A PUSH1 0x24 DUP3 ADD MSTORE PUSH32 0x5361666545524332303A204552433230206F7065726174696F6E20646964206E PUSH1 0x44 DUP3 ADD MSTORE PUSH10 0x1BDD081CDD58D8D95959 PUSH1 0xB2 SHL PUSH1 0x64 DUP3 ADD MSTORE PUSH1 0x84 ADD PUSH2 0x2D3 JUMP JUMPDEST POP POP POP JUMP JUMPDEST PUSH2 0x311E DUP4 PUSH4 0xA9059CBB PUSH1 0xE0 SHL DUP5 DUP5 PUSH1 0x40 MLOAD PUSH1 0x24 ADD PUSH2 0x2BDB SWAP3 SWAP2 SWAP1 PUSH2 0x39C1 JUMP JUMPDEST PUSH1 0x49 SLOAD PUSH1 0x40 MLOAD PUSH1 0x1 PUSH1 0x1 PUSH1 0xA0 SHL SUB SWAP1 SWAP2 AND SWAP1 PUSH4 0xADB353DC SWAP1 PUSH2 0x316D SWAP1 PUSH1 0x1B SWAP1 DUP7 SWAP1 DUP9 SWAP1 PUSH1 0x20 ADD PUSH2 0x3B97 JUMP JUMPDEST PUSH1 0x40 DUP1 MLOAD PUSH1 0x1F NOT DUP2 DUP5 SUB ADD DUP2 MSTORE SWAP1 DUP3 SWAP1 MSTORE DUP1 MLOAD PUSH1 0x20 SWAP1 SWAP2 ADD KECCAK256 PUSH1 0x1 PUSH1 0x1 PUSH1 0xE0 SHL SUB NOT PUSH1 0xE0 DUP5 SWAP1 SHL AND DUP3 MSTORE PUSH1 0x4 DUP3 ADD MSTORE PUSH1 0x24 DUP2 ADD DUP5 SWAP1 MSTORE PUSH1 0x44 ADD PUSH1 0x0 PUSH1 0x40 MLOAD DUP1 DUP4 SUB DUP2 PUSH1 0x0 DUP8 DUP1 EXTCODESIZE ISZERO DUP1 ISZERO PUSH2 0x31C0 JUMPI PUSH1 0x0 DUP1 REVERT JUMPDEST POP GAS CALL ISZERO DUP1 ISZERO PUSH2 0x1245 JUMPI RETURNDATASIZE PUSH1 0x0 DUP1 RETURNDATACOPY RETURNDATASIZE PUSH1 0x0 REVERT JUMPDEST DUP1 PUSH2 0x31E7 PUSH1 0x49 SLOAD PUSH1 0x1 PUSH1 0x1 PUSH1 0xA0 SHL SUB AND SWAP1 JUMP JUMPDEST PUSH1 0x1 PUSH1 0x1 PUSH1 0xA0 SHL SUB AND PUSH4 0xBD02D0F5 PUSH1 0x3 PUSH1 0x14 ADD PUSH1 0x4 ADD DUP6 DUP8 PUSH1 0x40 MLOAD PUSH1 0x20 ADD PUSH2 0x3211 SWAP4 SWAP3 SWAP2 SWAP1 PUSH2 0x3B97 JUMP JUMPDEST PUSH1 0x40 MLOAD PUSH1 0x20 DUP2 DUP4 SUB SUB DUP2 MSTORE SWAP1 PUSH1 0x40 MSTORE DUP1 MLOAD SWAP1 PUSH1 0x20 ADD KECCAK256 PUSH1 0x40 MLOAD DUP3 PUSH4 0xFFFFFFFF AND PUSH1 0xE0 SHL DUP2 MSTORE PUSH1 0x4 ADD PUSH2 0x3245 SWAP2 DUP2 MSTORE PUSH1 0x20 ADD SWAP1 JUMP JUMPDEST PUSH1 0x20 PUSH1 0x40 MLOAD DUP1 DUP4 SUB DUP2 DUP7 GAS STATICCALL ISZERO DUP1 ISZERO PUSH2 0x3262 JUMPI RETURNDATASIZE PUSH1 0x0 DUP1 RETURNDATACOPY RETURNDATASIZE PUSH1 0x0 REVERT JUMPDEST POP POP POP POP PUSH1 0x40 MLOAD RETURNDATASIZE PUSH1 0x1F NOT PUSH1 0x1F DUP3 ADD AND DUP3 ADD DUP1 PUSH1 0x40 MSTORE POP DUP2 ADD SWAP1 PUSH2 0x3286 SWAP2 SWAP1 PUSH2 0x39A8 JUMP JUMPDEST LT ISZERO PUSH2 0x32B7 JUMPI PUSH1 0x40 MLOAD PUSH4 0x229585E7 PUSH1 0xE1 SHL DUP2 MSTORE PUSH1 0x4 DUP2 ADD DUP3 SWAP1 MSTORE PUSH1 0x1 PUSH1 0x1 PUSH1 0xA0 SHL SUB DUP4 AND PUSH1 0x24 DUP3 ADD MSTORE PUSH1 0x44 ADD PUSH2 0x2D3 JUMP JUMPDEST PUSH1 0x49 SLOAD PUSH1 0x40 MLOAD PUSH1 0x1 PUSH1 0x1 PUSH1 0xA0 SHL SUB SWAP1 SWAP2 AND SWAP1 PUSH4 0xEBB9D8C9 SWAP1 PUSH2 0x316D SWAP1 PUSH1 0x1B SWAP1 DUP7 SWAP1 DUP9 SWAP1 PUSH1 0x20 ADD PUSH2 0x3B97 JUMP JUMPDEST PUSH1 0x60 PUSH2 0x32F1 DUP5 DUP5 PUSH1 0x0 DUP6 PUSH2 0x32F9 JUMP JUMPDEST SWAP5 SWAP4 POP POP POP POP JUMP JUMPDEST PUSH1 0x60 DUP3 SELFBALANCE LT ISZERO PUSH2 0x335A JUMPI PUSH1 0x40 MLOAD PUSH3 0x461BCD PUSH1 0xE5 SHL DUP2 MSTORE PUSH1 0x20 PUSH1 0x4 DUP3 ADD MSTORE PUSH1 0x26 PUSH1 0x24 DUP3 ADD MSTORE PUSH32 0x416464726573733A20696E73756666696369656E742062616C616E636520666F PUSH1 0x44 DUP3 ADD MSTORE PUSH6 0x1C8818D85B1B PUSH1 0xD2 SHL PUSH1 0x64 DUP3 ADD MSTORE PUSH1 0x84 ADD PUSH2 0x2D3 JUMP JUMPDEST DUP5 EXTCODESIZE PUSH2 0x33A8 JUMPI PUSH1 0x40 MLOAD PUSH3 0x461BCD PUSH1 0xE5 SHL DUP2 MSTORE PUSH1 0x20 PUSH1 0x4 DUP3 ADD MSTORE PUSH1 0x1D PUSH1 0x24 DUP3 ADD MSTORE PUSH32 0x416464726573733A2063616C6C20746F206E6F6E2D636F6E7472616374000000 PUSH1 0x44 DUP3 ADD MSTORE PUSH1 0x64 ADD PUSH2 0x2D3 JUMP JUMPDEST PUSH1 0x0 DUP1 DUP7 PUSH1 0x1 PUSH1 0x1 PUSH1 0xA0 SHL SUB AND DUP6 DUP8 PUSH1 0x40 MLOAD PUSH2 0x33C4 SWAP2 SWAP1 PUSH2 0x3B6F JUMP JUMPDEST PUSH1 0x0 PUSH1 0x40 MLOAD DUP1 DUP4 SUB DUP2 DUP6 DUP8 GAS CALL SWAP3 POP POP POP RETURNDATASIZE DUP1 PUSH1 0x0 DUP2 EQ PUSH2 0x3401 JUMPI PUSH1 0x40 MLOAD SWAP2 POP PUSH1 0x1F NOT PUSH1 0x3F RETURNDATASIZE ADD AND DUP3 ADD PUSH1 0x40 MSTORE RETURNDATASIZE DUP3 MSTORE RETURNDATASIZE PUSH1 0x0 PUSH1 0x20 DUP5 ADD RETURNDATACOPY PUSH2 0x3406 JUMP JUMPDEST PUSH1 0x60 SWAP2 POP JUMPDEST POP SWAP2 POP SWAP2 POP PUSH2 0x3416 DUP3 DUP3 DUP7 PUSH2 0x3421 JUMP JUMPDEST SWAP8 SWAP7 POP POP POP POP POP POP POP JUMP JUMPDEST PUSH1 0x60 DUP4 ISZERO PUSH2 0x3430 JUMPI POP DUP2 PUSH2 0x2AF1 JUMP JUMPDEST DUP3 MLOAD ISZERO PUSH2 0x3440 JUMPI DUP3 MLOAD DUP1 DUP5 PUSH1 0x20 ADD REVERT JUMPDEST DUP2 PUSH1 0x40 MLOAD PUSH3 0x461BCD PUSH1 0xE5 SHL DUP2 MSTORE PUSH1 0x4 ADD PUSH2 0x2D3 SWAP2 SWAP1 PUSH2 0x3BC4 JUMP JUMPDEST PUSH4 0x4E487B71 PUSH1 0xE0 SHL PUSH1 0x0 MSTORE PUSH1 0x41 PUSH1 0x4 MSTORE PUSH1 0x24 PUSH1 0x0 REVERT JUMPDEST PUSH1 0x40 MLOAD PUSH1 0x1F DUP3 ADD PUSH1 0x1F NOT AND DUP2 ADD PUSH8 0xFFFFFFFFFFFFFFFF DUP2 GT DUP3 DUP3 LT OR ISZERO PUSH2 0x3499 JUMPI PUSH2 0x3499 PUSH2 0x345A JUMP JUMPDEST PUSH1 0x40 MSTORE SWAP2 SWAP1 POP JUMP JUMPDEST PUSH1 0x0 PUSH8 0xFFFFFFFFFFFFFFFF DUP3 GT ISZERO PUSH2 0x34BB JUMPI PUSH2 0x34BB PUSH2 0x345A JUMP JUMPDEST POP PUSH1 0x5 SHL PUSH1 0x20 ADD SWAP1 JUMP JUMPDEST PUSH1 0x0 DUP3 PUSH1 0x1F DUP4 ADD SLT PUSH2 0x34D6 JUMPI PUSH1 0x0 DUP1 REVERT JUMPDEST DUP2 CALLDATALOAD PUSH1 0x20 PUSH2 0x34EB PUSH2 0x34E6 DUP4 PUSH2 0x34A1 JUMP JUMPDEST PUSH2 0x3470 JUMP JUMPDEST DUP3 DUP2 MSTORE PUSH1 0x5 SWAP3 SWAP1 SWAP3 SHL DUP5 ADD DUP2 ADD SWAP2 DUP2 DUP2 ADD SWAP1 DUP7 DUP5 GT ISZERO PUSH2 0x350A JUMPI PUSH1 0x0 DUP1 REVERT JUMPDEST DUP3 DUP7 ADD JUMPDEST DUP5 DUP2 LT ISZERO PUSH2 0x3525 JUMPI DUP1 CALLDATALOAD DUP4 MSTORE SWAP2 DUP4 ADD SWAP2 DUP4 ADD PUSH2 0x350E JUMP JUMPDEST POP SWAP7 SWAP6 POP POP POP POP POP POP JUMP JUMPDEST PUSH1 0x0 PUSH1 0x20 DUP3 DUP5 SUB SLT ISZERO PUSH2 0x3542 JUMPI PUSH1 0x0 DUP1 REVERT JUMPDEST DUP2 CALLDATALOAD PUSH8 0xFFFFFFFFFFFFFFFF DUP2 GT ISZERO PUSH2 0x3559 JUMPI PUSH1 0x0 DUP1 REVERT JUMPDEST PUSH2 0x32F1 DUP5 DUP3 DUP6 ADD PUSH2 0x34C5 JUMP JUMPDEST PUSH1 0x1 PUSH1 0x1 PUSH1 0xA0 SHL SUB DUP2 AND DUP2 EQ PUSH2 0x357A JUMPI PUSH1 0x0 DUP1 REVERT JUMPDEST POP JUMP JUMPDEST DUP1 CALLDATALOAD PUSH2 0x3588 DUP2 PUSH2 0x3565 JUMP JUMPDEST SWAP2 SWAP1 POP JUMP JUMPDEST PUSH1 0x0 PUSH1 0x20 DUP3 DUP5 SUB SLT ISZERO PUSH2 0x359F JUMPI PUSH1 0x0 DUP1 REVERT JUMPDEST DUP2 CALLDATALOAD PUSH2 0x2AF1 DUP2 PUSH2 0x3565 JUMP JUMPDEST PUSH1 0x0 DUP1 PUSH1 0x0 DUP1 PUSH1 0x0 DUP1 PUSH1 0x0 PUSH1 0xE0 DUP9 DUP11 SUB SLT ISZERO PUSH2 0x35C5 JUMPI PUSH1 0x0 DUP1 REVERT JUMPDEST DUP8 CALLDATALOAD PUSH2 0x35D0 DUP2 PUSH2 0x3565 JUMP JUMPDEST SWAP7 POP PUSH1 0x20 DUP9 ADD CALLDATALOAD SWAP6 POP PUSH1 0x40 DUP9 ADD CALLDATALOAD PUSH2 0x35E7 DUP2 PUSH2 0x3565 JUMP JUMPDEST SWAP5 POP PUSH1 0x60 DUP9 ADD CALLDATALOAD SWAP4 POP PUSH1 0x80 DUP9 ADD CALLDATALOAD PUSH2 0x35FE DUP2 PUSH2 0x3565 JUMP JUMPDEST SWAP3 POP PUSH1 0xA0 DUP9 ADD CALLDATALOAD PUSH8 0xFFFFFFFFFFFFFFFF DUP1 DUP3 GT ISZERO PUSH2 0x361B JUMPI PUSH1 0x0 DUP1 REVERT JUMPDEST PUSH2 0x3627 DUP12 DUP4 DUP13 ADD PUSH2 0x34C5 JUMP JUMPDEST SWAP4 POP PUSH1 0xC0 DUP11 ADD CALLDATALOAD SWAP2 POP DUP1 DUP3 GT ISZERO PUSH2 0x363D JUMPI PUSH1 0x0 DUP1 REVERT JUMPDEST POP PUSH2 0x364A DUP11 DUP3 DUP12 ADD PUSH2 0x34C5 JUMP JUMPDEST SWAP2 POP POP SWAP3 SWAP6 SWAP9 SWAP2 SWAP5 SWAP8 POP SWAP3 SWAP6 POP JUMP JUMPDEST PUSH1 0x0 DUP1 PUSH1 0x0 DUP1 PUSH1 0x0 DUP1 PUSH1 0x0 DUP1 PUSH1 0x0 PUSH2 0x120 DUP11 DUP13 SUB SLT ISZERO PUSH2 0x3678 JUMPI PUSH1 0x0 DUP1 REVERT JUMPDEST PUSH2 0x3681 DUP11 PUSH2 0x357D JUMP JUMPDEST SWAP9 POP PUSH1 0x20 DUP11 ADD CALLDATALOAD SWAP8 POP PUSH2 0x3696 PUSH1 0x40 DUP12 ADD PUSH2 0x357D JUMP JUMPDEST SWAP7 POP PUSH1 0x60 DUP11 ADD CALLDATALOAD PUSH8 0xFFFFFFFFFFFFFFFF DUP1 DUP3 GT ISZERO PUSH2 0x36B3 JUMPI PUSH1 0x0 DUP1 REVERT JUMPDEST PUSH2 0x36BF DUP14 DUP4 DUP15 ADD PUSH2 0x34C5 JUMP JUMPDEST SWAP8 POP PUSH1 0x80 DUP13 ADD CALLDATALOAD SWAP2 POP DUP1 DUP3 GT ISZERO PUSH2 0x36D5 JUMPI PUSH1 0x0 DUP1 REVERT JUMPDEST PUSH2 0x36E1 DUP14 DUP4 DUP15 ADD PUSH2 0x34C5 JUMP JUMPDEST SWAP7 POP PUSH1 0xA0 DUP13 ADD CALLDATALOAD SWAP6 POP PUSH1 0xC0 DUP13 ADD CALLDATALOAD SWAP5 POP PUSH1 0xE0 DUP13 ADD CALLDATALOAD SWAP2 POP DUP1 DUP3 GT ISZERO PUSH2 0x3705 JUMPI PUSH1 0x0 DUP1 REVERT JUMPDEST PUSH2 0x3711 DUP14 DUP4 DUP15 ADD PUSH2 0x34C5 JUMP JUMPDEST SWAP4 POP PUSH2 0x100 DUP13 ADD CALLDATALOAD SWAP2 POP DUP1 DUP3 GT ISZERO PUSH2 0x3728 JUMPI PUSH1 0x0 DUP1 REVERT JUMPDEST POP PUSH2 0x3735 DUP13 DUP3 DUP14 ADD PUSH2 0x34C5 JUMP JUMPDEST SWAP2 POP POP SWAP3 SWAP6 SWAP9 POP SWAP3 SWAP6 SWAP9 POP SWAP3 SWAP6 SWAP9 JUMP JUMPDEST PUSH1 0x0 DUP1 PUSH1 0x0 DUP1 PUSH1 0x0 PUSH1 0xA0 DUP7 DUP9 SUB SLT ISZERO PUSH2 0x375D JUMPI PUSH1 0x0 DUP1 REVERT JUMPDEST DUP6 CALLDATALOAD PUSH2 0x3768 DUP2 PUSH2 0x3565 JUMP JUMPDEST SWAP5 POP PUSH1 0x20 DUP7 ADD CALLDATALOAD SWAP4 POP PUSH1 0x40 DUP7 ADD CALLDATALOAD SWAP3 POP PUSH1 0x60 DUP7 ADD CALLDATALOAD PUSH8 0xFFFFFFFFFFFFFFFF DUP1 DUP3 GT ISZERO PUSH2 0x3793 JUMPI PUSH1 0x0 DUP1 REVERT JUMPDEST PUSH2 0x379F DUP10 DUP4 DUP11 ADD PUSH2 0x34C5 JUMP JUMPDEST SWAP4 POP PUSH1 0x80 DUP9 ADD CALLDATALOAD SWAP2 POP DUP1 DUP3 GT ISZERO PUSH2 0x37B5 JUMPI PUSH1 0x0 DUP1 REVERT JUMPDEST POP PUSH2 0x37C2 DUP9 DUP3 DUP10 ADD PUSH2 0x34C5 JUMP JUMPDEST SWAP2 POP POP SWAP3 SWAP6 POP SWAP3 SWAP6 SWAP1 SWAP4 POP JUMP JUMPDEST PUSH1 0x0 DUP1 PUSH1 0x0 DUP1 PUSH1 0x0 PUSH1 0xA0 DUP7 DUP9 SUB SLT ISZERO PUSH2 0x37E7 JUMPI PUSH1 0x0 DUP1 REVERT JUMPDEST DUP6 CALLDATALOAD PUSH2 0x37F2 DUP2 PUSH2 0x3565 JUMP JUMPDEST SWAP5 POP PUSH1 0x20 DUP7 ADD CALLDATALOAD SWAP4 POP PUSH1 0x40 DUP7 ADD CALLDATALOAD PUSH2 0x3809 DUP2 PUSH2 0x3565 JUMP JUMPDEST SWAP3 POP PUSH1 0x60 DUP7 ADD CALLDATALOAD SWAP2 POP PUSH1 0x80 DUP7 ADD CALLDATALOAD PUSH2 0x3820 DUP2 PUSH2 0x3565 JUMP JUMPDEST DUP1 SWAP2 POP POP SWAP3 SWAP6 POP SWAP3 SWAP6 SWAP1 SWAP4 POP JUMP JUMPDEST PUSH1 0x0 DUP1 PUSH1 0x0 DUP1 PUSH1 0x0 DUP1 PUSH1 0xC0 DUP8 DUP10 SUB SLT ISZERO PUSH2 0x3847 JUMPI PUSH1 0x0 DUP1 REVERT JUMPDEST DUP7 CALLDATALOAD PUSH2 0x3852 DUP2 PUSH2 0x3565 JUMP JUMPDEST SWAP6 POP PUSH1 0x20 DUP8 ADD CALLDATALOAD SWAP5 POP PUSH1 0x40 DUP8 ADD CALLDATALOAD PUSH2 0x3869 DUP2 PUSH2 0x3565 JUMP JUMPDEST SWAP4 POP PUSH1 0x60 DUP8 ADD CALLDATALOAD PUSH8 0xFFFFFFFFFFFFFFFF DUP1 DUP3 GT ISZERO PUSH2 0x3886 JUMPI PUSH1 0x0 DUP1 REVERT JUMPDEST PUSH2 0x3892 DUP11 DUP4 DUP12 ADD PUSH2 0x34C5 JUMP JUMPDEST SWAP5 POP PUSH1 0x80 DUP10 ADD CALLDATALOAD SWAP2 POP DUP1 DUP3 GT ISZERO PUSH2 0x38A8 JUMPI PUSH1 0x0 DUP1 REVERT JUMPDEST POP PUSH2 0x38B5 DUP10 DUP3 DUP11 ADD PUSH2 0x34C5 JUMP JUMPDEST SWAP3 POP POP PUSH1 0xA0 DUP8 ADD CALLDATALOAD SWAP1 POP SWAP3 SWAP6 POP SWAP3 SWAP6 POP SWAP3 SWAP6 JUMP JUMPDEST PUSH1 0x0 DUP1 PUSH1 0x0 DUP1 PUSH1 0x80 DUP6 DUP8 SUB SLT ISZERO PUSH2 0x38DF JUMPI PUSH1 0x0 DUP1 REVERT JUMPDEST DUP5 CALLDATALOAD PUSH2 0x38EA DUP2 PUSH2 0x3565 JUMP JUMPDEST SWAP4 POP PUSH1 0x20 DUP6 ADD CALLDATALOAD SWAP3 POP PUSH1 0x40 DUP6 ADD CALLDATALOAD PUSH8 0xFFFFFFFFFFFFFFFF DUP1 DUP3 GT ISZERO PUSH2 0x390E JUMPI PUSH1 0x0 DUP1 REVERT JUMPDEST PUSH2 0x391A DUP9 DUP4 DUP10 ADD PUSH2 0x34C5 JUMP JUMPDEST SWAP4 POP PUSH1 0x60 DUP8 ADD CALLDATALOAD SWAP2 POP DUP1 DUP3 GT ISZERO PUSH2 0x3930 JUMPI PUSH1 0x0 DUP1 REVERT JUMPDEST POP PUSH2 0x393D DUP8 DUP3 DUP9 ADD PUSH2 0x34C5 JUMP JUMPDEST SWAP2 POP POP SWAP3 SWAP6 SWAP2 SWAP5 POP SWAP3 POP JUMP JUMPDEST PUSH4 0x4E487B71 PUSH1 0xE0 SHL PUSH1 0x0 MSTORE PUSH1 0x32 PUSH1 0x4 MSTORE PUSH1 0x24 PUSH1 0x0 REVERT JUMPDEST PUSH4 0x4E487B71 PUSH1 0xE0 SHL PUSH1 0x0 MSTORE PUSH1 0x11 PUSH1 0x4 MSTORE PUSH1 0x24 PUSH1 0x0 REVERT JUMPDEST PUSH1 0x0 DUP3 NOT DUP3 GT ISZERO PUSH2 0x3988 JUMPI PUSH2 0x3988 PUSH2 0x395F JUMP JUMPDEST POP ADD SWAP1 JUMP JUMPDEST PUSH1 0x0 PUSH1 0x0 NOT DUP3 EQ ISZERO PUSH2 0x39A1 JUMPI PUSH2 0x39A1 PUSH2 0x395F JUMP JUMPDEST POP PUSH1 0x1 ADD SWAP1 JUMP JUMPDEST PUSH1 0x0 PUSH1 0x20 DUP3 DUP5 SUB SLT ISZERO PUSH2 0x39BA JUMPI PUSH1 0x0 DUP1 REVERT JUMPDEST POP MLOAD SWAP2 SWAP1 POP JUMP JUMPDEST PUSH1 0x1 PUSH1 0x1 PUSH1 0xA0 SHL SUB SWAP3 SWAP1 SWAP3 AND DUP3 MSTORE PUSH1 0x20 DUP3 ADD MSTORE PUSH1 0x40 ADD SWAP1 JUMP JUMPDEST PUSH1 0x0 PUSH1 0x20 DUP3 DUP5 SUB SLT ISZERO PUSH2 0x39EC JUMPI PUSH1 0x0 DUP1 REVERT JUMPDEST DUP2 MLOAD DUP1 ISZERO ISZERO DUP2 EQ PUSH2 0x2AF1 JUMPI PUSH1 0x0 DUP1 REVERT JUMPDEST PUSH32 0x7068616E746F6D2E636F6E74726163742E726567697374657265640000000000 DUP2 MSTORE PUSH1 0x60 SWAP2 SWAP1 SWAP2 SHL PUSH1 0x1 PUSH1 0x1 PUSH1 0x60 SHL SUB NOT AND PUSH1 0x1B DUP3 ADD MSTORE PUSH1 0x2F ADD SWAP1 JUMP JUMPDEST PUSH1 0x0 PUSH1 0x20 DUP3 DUP5 SUB SLT ISZERO PUSH2 0x3A4C JUMPI PUSH1 0x0 DUP1 REVERT JUMPDEST DUP2 MLOAD PUSH2 0x2AF1 DUP2 PUSH2 0x3565 JUMP JUMPDEST PUSH1 0x1 PUSH1 0x1 PUSH1 0xA0 SHL SUB SWAP5 DUP6 AND DUP2 MSTORE SWAP3 DUP5 AND PUSH1 0x20 DUP5 ADD MSTORE SWAP3 AND PUSH1 0x40 DUP3 ADD MSTORE PUSH1 0x60 DUP2 ADD SWAP2 SWAP1 SWAP2 MSTORE PUSH1 0x80 ADD SWAP1 JUMP JUMPDEST DUP1 SLOAD PUSH1 0x0 SWAP1 PUSH1 0x1 DUP2 DUP2 SHR SWAP1 DUP1 DUP4 AND DUP1 PUSH2 0x3A9B JUMPI PUSH1 0x7F DUP4 AND SWAP3 POP JUMPDEST PUSH1 0x20 DUP1 DUP5 LT DUP3 EQ ISZERO PUSH2 0x3ABD JUMPI PUSH4 0x4E487B71 PUSH1 0xE0 SHL PUSH1 0x0 MSTORE PUSH1 0x22 PUSH1 0x4 MSTORE PUSH1 0x24 PUSH1 0x0 REVERT JUMPDEST DUP2 DUP1 ISZERO PUSH2 0x3AD1 JUMPI PUSH1 0x1 DUP2 EQ PUSH2 0x3AE2 JUMPI PUSH2 0x3B0F JUMP JUMPDEST PUSH1 0xFF NOT DUP7 AND DUP10 MSTORE DUP5 DUP10 ADD SWAP7 POP PUSH2 0x3B0F JUMP JUMPDEST PUSH1 0x0 DUP9 DUP2 MSTORE PUSH1 0x20 SWAP1 KECCAK256 PUSH1 0x0 JUMPDEST DUP7 DUP2 LT ISZERO PUSH2 0x3B07 JUMPI DUP2 SLOAD DUP12 DUP3 ADD MSTORE SWAP1 DUP6 ADD SWAP1 DUP4 ADD PUSH2 0x3AEE JUMP JUMPDEST POP POP DUP5 DUP10 ADD SWAP7 POP JUMPDEST POP POP POP POP POP POP SWAP3 SWAP2 POP POP JUMP JUMPDEST PUSH1 0x0 PUSH2 0x3B27 DUP3 DUP6 PUSH2 0x3A81 JUMP JUMPDEST PUSH1 0x60 SWAP4 SWAP1 SWAP4 SHL PUSH1 0x1 PUSH1 0x1 PUSH1 0x60 SHL SUB NOT AND DUP4 MSTORE POP POP PUSH1 0x14 ADD SWAP2 SWAP1 POP JUMP JUMPDEST PUSH1 0x0 JUMPDEST DUP4 DUP2 LT ISZERO PUSH2 0x3B5E JUMPI DUP2 DUP2 ADD MLOAD DUP4 DUP3 ADD MSTORE PUSH1 0x20 ADD PUSH2 0x3B46 JUMP JUMPDEST DUP4 DUP2 GT ISZERO PUSH2 0x2C12 JUMPI POP POP PUSH1 0x0 SWAP2 ADD MSTORE JUMP JUMPDEST PUSH1 0x0 DUP3 MLOAD PUSH2 0x3B81 DUP2 DUP5 PUSH1 0x20 DUP8 ADD PUSH2 0x3B43 JUMP JUMPDEST SWAP2 SWAP1 SWAP2 ADD SWAP3 SWAP2 POP POP JUMP JUMPDEST PUSH1 0x0 PUSH2 0x2AF1 DUP3 DUP5 PUSH2 0x3A81 JUMP JUMPDEST PUSH1 0x0 PUSH2 0x3BA3 DUP3 DUP7 PUSH2 0x3A81 JUMP JUMPDEST PUSH1 0x60 SWAP5 SWAP1 SWAP5 SHL PUSH1 0x1 PUSH1 0x1 PUSH1 0x60 SHL SUB NOT AND DUP5 MSTORE POP POP PUSH1 0x14 DUP3 ADD MSTORE PUSH1 0x34 ADD SWAP2 SWAP1 POP JUMP JUMPDEST PUSH1 0x20 DUP2 MSTORE PUSH1 0x0 DUP3 MLOAD DUP1 PUSH1 0x20 DUP5 ADD MSTORE PUSH2 0x3BE3 DUP2 PUSH1 0x40 DUP6 ADD PUSH1 0x20 DUP8 ADD PUSH2 0x3B43 JUMP JUMPDEST PUSH1 0x1F ADD PUSH1 0x1F NOT AND SWAP2 SWAP1 SWAP2 ADD PUSH1 0x40 ADD SWAP3 SWAP2 POP POP JUMP INVALID LOG2 PUSH5 0x6970667358 0x22 SLT KECCAK256 SUB 0xD7 DUP5 0xE8 PUSH18 0x726DA5C7173C33EE7F6E390EED3715C103E7 JUMP 0xA5 EXTCODESIZE 0x28 0x24 0x23 SWAP9 0x21 0xFC PUSH5 0x736F6C6343 STOP ADDMOD EXP STOP CALLER ",
  "sha1": "03ee977bfdb61808d480bab354103db7aa37ead9",
  "source": "/* SPDX-License-Identifier: MIT */\npragma solidity =0.8.10;\n\n/* Package Imports */\nimport {PRBMathUD60x18} from \"@hifi-finance/prb-math/contracts/PRBMathUD60x18.sol\";\nimport {SafeERC20} from \"@openzeppelin/contracts/token/ERC20/utils/SafeERC20.sol\";\n\n/* Package Interface Imports */\nimport {IERC20} from \"@openzeppelin/contracts/token/ERC20/IERC20.sol\";\n\n/* Internal Imports */\nimport {PhantomStorageMixin} from \"../mixins/PhantomStorageMixin.sol\";\n\n/* Internal Interface Imports */\nimport {IPhantomERC20} from \"../../interfaces/core/erc20/IPhantomERC20.sol\";\nimport {IPhantomTreasury} from \"../../interfaces/core/IPhantomTreasury.sol\";\nimport {IyVault} from \"../../interfaces/external/IyVault.sol\";\nimport {IPhantomTWAP} from \"../../interfaces/core/IPhantomTWAP.sol\";\n\n/**\n * @title PhantomTreasury\n * @author PhantomDao Team\n * @notice The contract responsible for handle all token transactions\n */\ncontract PhantomTreasury is PhantomStorageMixin, IPhantomTreasury {\n    using PRBMathUD60x18 for uint256;\n    using SafeERC20 for IERC20;\n    using SafeERC20 for IPhantomERC20;\n\n    address[] reserveTokens;\n    mapping(address => bool) _isReserveToken;\n    address constant FRAX = 0xaf319E5789945197e365E7f7fbFc56B130523B33;\n\n    constructor(address storageFactoryAddress) PhantomStorageMixin(storageFactoryAddress) {\n        return;\n    }\n\n    //=================================================================================================================\n    // External Functions\n    //=================================================================================================================\n\n    function swap(\n        address forUser,\n        uint256 inAmount,\n        address inToken,\n        uint256 outAmount,\n        address outToken,\n        bytes32[] memory keys,\n        uint256[] memory percentages\n    ) external virtual override onlyRegisteredContracts {\n        transferFromUserToVault(forUser, inAmount, inToken, keys, percentages);\n        transferFromVaultToUser(forUser, outAmount, outToken, keys, percentages);\n        emit PhantomTreasury_Swap(inToken, outToken, forUser, inAmount);\n    }\n\n    function swapBurn(\n        address forUser,\n        uint256 burnAmount,\n        address burnToken,\n        uint256 outAmount,\n        address outToken,\n        bytes32[] memory keys,\n        uint256[] memory percentages\n    ) external virtual override onlyRegisteredContracts requirePHMTypeToken(burnToken) {\n        // Burn\n        IPhantomERC20(burnToken).safeTransferFrom(forUser, address(PhantomVault()), burnAmount);\n        PhantomVault().burn(burnAmount, burnToken);\n        // Swap\n        transferFromVaultToUser(forUser, outAmount, outToken, keys, percentages);\n        emit PhantomTreasury_SwapBurn(burnToken, outToken, forUser, burnAmount);\n    }\n\n    function swapMint(\n        address forUser,\n        uint256 inAmount,\n        address inToken,\n        uint256 mintAmount,\n        address mintToken,\n        bytes32[] memory keys,\n        uint256[] memory percentages\n    ) external virtual override onlyRegisteredContracts requirePHMTypeToken(mintToken) {\n        transferFromUserToVault(forUser, inAmount, inToken, keys, percentages);\n        IPhantomERC20(mintToken).mint(forUser, mintAmount);\n        emit PhantomTreasury_SwapMint(inToken, mintToken, forUser, inAmount);\n    }\n\n    function swapBurnMint(\n        address forUser,\n        uint256 burnAmount,\n        address burnToken,\n        uint256 mintAmount,\n        address mintToken\n    ) external virtual override onlyRegisteredContracts requirePHMTypeToken(mintToken) {\n        // Burn\n        IERC20(burnToken).safeTransferFrom(forUser, address(PhantomVault()), burnAmount);\n        PhantomVault().burn(burnAmount, burnToken);\n        // Mint\n        IPhantomERC20(mintToken).mint(forUser, mintAmount);\n        emit PhantomTreasury_SwapBurnMint(burnToken, burnAmount, forUser, mintAmount, mintToken);\n    }\n\n    function deposit(\n        address inDepositor,\n        uint256 inAmount,\n        address inToken,\n        bytes32[] memory keys,\n        uint256[] memory percentages,\n        uint256 mintRatio,\n        uint256 profitRatio,\n        bytes32[] memory profitKeys,\n        uint256[] memory profitPercentages\n    ) external virtual override onlyRegisteredContracts returns (uint256) {\n        require(_isReserveToken[inToken], \"PhantomTreasury: inToken isn't a reserve token\");\n\n        // For a given bonding token retrieve the desired oracle to use for bond pricing\n        IPhantomTWAP twap = PhantomBondPricing(inToken);\n        require(address(twap) != address(0), \"PhantomTreasury: No TWAP deployed for inToken\");\n        // Trigger an update to get the latest price\n        twap.update();\n\n        // Get Quote\n        uint256 quote = twap.consult(inToken, inAmount);\n        // if (quote > excessReserves()) revert PhantomTreasury_InsufficientReserves(inAmount);\n        transferFromUserToVault(inDepositor, inAmount, inToken, keys, percentages);\n        // Apply the bond discount and mint the reward for the deposit\n        uint256 mintAmount = quote.mul(mintRatio);\n        splitCredit(mintAmount, address(PHM()), keys, percentages);\n        PHM().mint(address(PhantomVault()), mintAmount);\n        // Mint profits\n        uint256 profitAmount = mintAmount.mul(profitRatio);\n        PHM().mint(address(PhantomVault()), profitAmount);\n        splitCredit(profitAmount, address(PHM()), profitKeys, profitPercentages);\n        emit PhantomTreasury_Minted(address(PHM()), address(PhantomVault()), mintAmount + profitAmount);\n        return mintAmount;\n    }\n\n    function withdraw(\n        address outWithdrawer,\n        uint256 outAmount,\n        address outToken,\n        bytes32[] memory keys,\n        uint256[] memory percentages,\n        uint256 burnRatio\n    ) external virtual override onlyRegisteredContracts returns (uint256) {\n        require(_isReserveToken[outToken], \"PhantomTreasury: outToken isn't a reserve token\");\n\n        // For a given bonding token retrieve the desired oracle to use for bond pricing\n\n        IPhantomTWAP twap = PhantomBondPricing(outToken);\n        require(address(twap) != address(0), \"PhantomTreasury: No TWAP deployed for outToken\");\n        // Trigger an update to get the latest price\n        twap.update();\n\n        // Get Quote\n        uint256 quote = twap.consult(outToken, outAmount);\n        uint256 burnAmount = quote.mul(burnRatio);\n        PhantomVault().burn(burnAmount, address(PHM()));\n        splitDebit(burnAmount, address(PHM()), keys, percentages);\n        transferFromVaultToUser(outWithdrawer, outAmount, outToken, keys, percentages);\n        return burnAmount;\n    }\n\n    function sendToYearn(\n        address vault,\n        uint256 amount,\n        bytes32[] memory keys,\n        uint256[] memory percentages\n    ) external override onlyRegisteredContracts {\n        IERC20 token = IyVault(vault).token();\n        transferFromVaultToUser(address(this), amount, address(token), keys, percentages);\n        token.approve(vault, amount);\n        IyVault(vault).deposit(amount, address(this));\n        transferFromUserToVault(address(this), amount, vault, keys, percentages);\n    }\n\n    function withdrawFromYearn(\n        address vault,\n        uint256 maxShares,\n        uint256 maxLoss,\n        bytes32[] memory keys,\n        uint256[] memory percentages\n    ) external override onlyRegisteredContracts {\n        IERC20 token = IyVault(vault).token();\n        transferFromVaultToUser(address(this), maxShares, vault, keys, percentages);\n        IERC20(vault).approve(vault, maxShares);\n        IyVault(vault).withdraw(maxShares, address(this), maxLoss);\n        transferFromUserToVault(address(this), token.balanceOf(address(this)), address(token), keys, percentages);\n    }\n\n    /**\n     * @dev register a token as being one of the reserve tokens\n     */\n    function registerReserveToken(address token) external override onlyRegisteredContracts {\n        require(_isReserveToken[token] == false, \"Token already registered\");\n        reserveTokens.push(token);\n        _isReserveToken[token] = true;\n    }\n\n    function sumReserves() public view override returns (uint256) {\n        uint256 S;\n        for (uint256 i; i < reserveTokens.length; i++) {\n            IPhantomTWAP twap = PhantomBondPricing(reserveTokens[i]);\n            require(address(twap) != address(0), \"PhantomTreasury: No twap registered for reserve token\");\n\n            S += twap.consult(\n                reserveTokens[i], \n                IERC20(reserveTokens[i]).balanceOf(address(PhantomVault())).mul(standardAccountPercentages()[0])\n            );\n        }\n        return S;\n    }\n\n    //=================================================================================================================\n    // Public Functions\n    //=================================================================================================================\n\n    function isReserveToken(address token) public view returns (bool) {\n        return _isReserveToken[token];\n    }\n\n    //=================================================================================================================\n    // Internal Functions\n    //=================================================================================================================\n\n    function transferFromUserToVault(\n        address forUser,\n        uint256 inAmount,\n        address inToken,\n        bytes32[] memory keys,\n        uint256[] memory percentages\n    ) internal {\n        if (inAmount == 0 || inToken == address(0)) return;\n        splitCredit(inAmount, inToken, keys, percentages);\n        IERC20(inToken).safeTransferFrom(forUser, address(PhantomVault()), inAmount);\n    }\n\n    function transferFromVaultToUser(\n        address forUser,\n        uint256 outAmount,\n        address outToken,\n        bytes32[] memory keys,\n        uint256[] memory percentages\n    ) internal {\n        /*\n         * Vault only ever sends to the Treasury, this intermediate step increases gas consumption\n         * but provides an extra layer of security. By doing this step in two transfers the Vault never has to be approved\n         * to withdrawl directly to a users wallet. Overkill? Probably, but risk mitigation is important.\n         * TODO: Discuss this design choice\n         */\n        if (outAmount == 0 || outToken == address(0)) return;\n        splitDebit(outAmount, outToken, keys, percentages);\n        PhantomVault().withdraw(outAmount, outToken);\n        IERC20(outToken).safeTransfer(forUser, outAmount);\n    }\n\n    function excessReserves() internal returns (uint256) {\n        uint256 supply = PHM().totalSupply();\n        uint256 balance;\n        for (uint256 i; i < reserveTokens.length; i++) {\n            IPhantomTWAP twap = PhantomBondPricing(reserveTokens[i]);\n            require(address(twap) != address(0), \"PhantomTreasury: No twap registered for reserve token\");\n\n            twap.update();\n            balance += twap.consult(\n                reserveTokens[i], \n                getBalanceFor(reserveKey()[0], reserveTokens[i])\n            );\n        }\n\n        if (balance < supply) return 0;\n        return balance - supply;\n    }\n\n    function getBalanceFor(bytes32 accountKey, address token) internal view returns (uint256) {\n        return PhantomStorage().getUint(keccak256(abi.encodePacked(phantom.treasury.balances, token, accountKey)));\n    }\n\n    function increaseBalanceFor(\n        bytes32 accountKey,\n        address token,\n        uint256 amount\n    ) internal {\n        PhantomStorage().addUint(keccak256(abi.encodePacked(phantom.treasury.balances, token, accountKey)), amount);\n    }\n\n    function decreaseBalanceFor(\n        bytes32 accountKey,\n        address token,\n        uint256 amount\n    ) internal {\n        if (\n            PhantomStorage().getUint(keccak256(abi.encodePacked(phantom.treasury.balances, token, accountKey))) < amount\n        ) {\n            revert PhantomTreasury_InsufficientBalance(amount, token);\n        }\n        PhantomStorage().subUint(keccak256(abi.encodePacked(phantom.treasury.balances, token, accountKey)), amount);\n    }\n\n    function isPHMTypeToken(address inToken) internal view returns (bool) {\n        return\n            inToken == address(PHM()) ||\n            inToken == address(sPHM()) ||\n            inToken == address(fPHM()) ||\n            inToken == address(aPHM()) ||\n            inToken == address(gPHM());\n    }\n\n    function splitDebit(\n        uint256 outAmount,\n        address outToken,\n        bytes32[] memory keys,\n        uint256[] memory percentages\n    ) internal {\n        if (sum(percentages) != 1e18) revert PhantomTreasury_PercentagesDoNotAddTo100();\n        if (keys.length != percentages.length) revert PhantomTreasury_LengthsDoNotMatch();\n        for (uint256 i = 0; i < keys.length; i += 1) {\n            decreaseBalanceFor(keys[i], outToken, outAmount.mul(percentages[i]));\n        }\n    }\n\n    function splitCredit(\n        uint256 inAmount,\n        address inToken,\n        bytes32[] memory keys,\n        uint256[] memory percentages\n    ) internal {\n        if (sum(percentages) != 1e18) revert PhantomTreasury_PercentagesDoNotAddTo100();\n        if (keys.length != percentages.length) revert PhantomTreasury_LengthsDoNotMatch();\n        for (uint256 i = 0; i < keys.length; i += 1) {\n            increaseBalanceFor(keys[i], inToken, inAmount.mul(percentages[i]));\n        }\n    }\n\n    function sum(uint256[] memory data) public pure returns (uint256) {\n        uint256 S;\n        for (uint256 i; i < data.length; i++) {\n            S += (data[i]);\n        }\n        return S;\n    }\n\n    //=================================================================================================================\n    // Modifiers\n    //=================================================================================================================\n\n    modifier requirePHMTypeToken(address inToken) {\n        if (!isPHMTypeToken(inToken)) revert PhantomTreasury_InvalidToken(inToken);\n        _;\n    }\n}\n",
  "sourcePath": "contracts/core/PhantomTreasury.sol",
  "type": "contract"
}