{
  "abi": [
    {
      "inputs": [
        {
          "internalType": "address",
          "name": "storageAddress",
          "type": "address"
        }
      ],
      "stateMutability": "nonpayable",
      "type": "constructor"
    },
    {
      "inputs": [
        {
          "internalType": "address",
          "name": "contractAddress",
          "type": "address"
        }
      ],
      "name": "PhantomStorageMixin__ContractNotFoundByAddressOrIsOutdated",
      "type": "error"
    },
    {
      "inputs": [
        {
          "internalType": "bytes32",
          "name": "contractName",
          "type": "bytes32"
        }
      ],
      "name": "PhantomStorageMixin__ContractNotFoundByNameOrIsOutdated",
      "type": "error"
    },
    {
      "inputs": [
        {
          "internalType": "address",
          "name": "user",
          "type": "address"
        }
      ],
      "name": "PhantomStorageMixin__UserIsNotGuardian",
      "type": "error"
    },
    {
      "anonymous": false,
      "inputs": [
        {
          "indexed": true,
          "internalType": "bytes32",
          "name": "src",
          "type": "bytes32"
        },
        {
          "indexed": true,
          "internalType": "bytes32",
          "name": "dst",
          "type": "bytes32"
        },
        {
          "indexed": true,
          "internalType": "bytes32",
          "name": "sig",
          "type": "bytes32"
        }
      ],
      "name": "LogForbid",
      "type": "event"
    },
    {
      "anonymous": false,
      "inputs": [
        {
          "indexed": true,
          "internalType": "bytes32",
          "name": "src",
          "type": "bytes32"
        },
        {
          "indexed": true,
          "internalType": "bytes32",
          "name": "dst",
          "type": "bytes32"
        },
        {
          "indexed": true,
          "internalType": "bytes32",
          "name": "sig",
          "type": "bytes32"
        }
      ],
      "name": "LogPermit",
      "type": "event"
    },
    {
      "inputs": [],
      "name": "ANY",
      "outputs": [
        {
          "internalType": "bytes32",
          "name": "",
          "type": "bytes32"
        }
      ],
      "stateMutability": "view",
      "type": "function"
    },
    {
      "inputs": [
        {
          "internalType": "bytes32",
          "name": "",
          "type": "bytes32"
        },
        {
          "internalType": "bytes32",
          "name": "",
          "type": "bytes32"
        },
        {
          "internalType": "bytes32",
          "name": "",
          "type": "bytes32"
        }
      ],
      "name": "acl",
      "outputs": [
        {
          "internalType": "bool",
          "name": "",
          "type": "bool"
        }
      ],
      "stateMutability": "view",
      "type": "function"
    },
    {
      "inputs": [
        {
          "internalType": "address",
          "name": "src_",
          "type": "address"
        },
        {
          "internalType": "address",
          "name": "dst_",
          "type": "address"
        },
        {
          "internalType": "bytes4",
          "name": "sig_",
          "type": "bytes4"
        }
      ],
      "name": "canCall",
      "outputs": [
        {
          "internalType": "bool",
          "name": "",
          "type": "bool"
        }
      ],
      "stateMutability": "view",
      "type": "function"
    },
    {
      "inputs": [
        {
          "internalType": "bytes32",
          "name": "src",
          "type": "bytes32"
        },
        {
          "internalType": "bytes32",
          "name": "dst",
          "type": "bytes32"
        },
        {
          "internalType": "bytes32",
          "name": "sig",
          "type": "bytes32"
        }
      ],
      "name": "forbid",
      "outputs": [],
      "stateMutability": "nonpayable",
      "type": "function"
    },
    {
      "inputs": [
        {
          "internalType": "address",
          "name": "src",
          "type": "address"
        },
        {
          "internalType": "address",
          "name": "dst",
          "type": "address"
        },
        {
          "internalType": "bytes4",
          "name": "sig",
          "type": "bytes4"
        }
      ],
      "name": "forbid",
      "outputs": [],
      "stateMutability": "nonpayable",
      "type": "function"
    },
    {
      "inputs": [
        {
          "internalType": "address",
          "name": "src",
          "type": "address"
        },
        {
          "internalType": "address",
          "name": "dst",
          "type": "address"
        },
        {
          "internalType": "bytes4",
          "name": "sig",
          "type": "bytes4"
        }
      ],
      "name": "permit",
      "outputs": [],
      "stateMutability": "nonpayable",
      "type": "function"
    },
    {
      "inputs": [
        {
          "internalType": "bytes32",
          "name": "src",
          "type": "bytes32"
        },
        {
          "internalType": "bytes32",
          "name": "dst",
          "type": "bytes32"
        },
        {
          "internalType": "bytes32",
          "name": "sig",
          "type": "bytes32"
        }
      ],
      "name": "permit",
      "outputs": [],
      "stateMutability": "nonpayable",
      "type": "function"
    }
  ],
  "bytecode": "601260e08181527139b2b1bab934ba3c9730b2323932b9b9b7b360711b6101009081526080918252600d6101209081526c73656375726974792e6e616d6560981b6101405260a0526101a060405260136101609081527f73656375726974792e72656769737465726564000000000000000000000000006101805260c0529091600091620000909183919062001690565b506020828101518051620000ab926001850192019062001690565b5060408201518051620000c991600284019160209091019062001690565b5050604080516103c081018252601b61038082019081527f7068616e746f6d2e636f6e7472616374732e616c7068617377617000000000006103a0830152610100820190815282518084018452601a8082527f7068616e746f6d2e636f6e7472616374732e666f756e646572730000000000006020838101919091526101208501929092528451808601865260198082527f7068616e746f6d2e636f6e7472616374732e7374616b696e67000000000000008285015261014086019190915285518087018752601f81527f7068616e746f6d2e636f6e7472616374732e7374616b696e677761726d75700081850152610160860152855180870187529081527f7068616e746f6d2e636f6e7472616374732e626f6e64696e67000000000000008184015261018085015284518086018652601581527f7068616e746f6d2e636f6e7472616374732e70686d0000000000000000000000818401526101a08501528451808601865260168082527f7068616e746f6d2e636f6e7472616374732e7370686d00000000000000000000828501526101c0860191909152855180870187528181527f7068616e746f6d2e636f6e7472616374732e6770686d00000000000000000000818501526101e0860152855180870187528181527f7068616e746f6d2e636f6e7472616374732e6170686d0000000000000000000081850152610200860152855180870187528181527f7068616e746f6d2e636f6e7472616374732e6670686d00000000000000000000818501526102208601528551808701875260178082527f7068616e746f6d2e636f6e7472616374732e7661756c7400000000000000000082860152610240870191909152865180880188528381527f7068616e746f6d2e636f6e7472616374732e747265617375727900000000000081860152610260870152865180880188529182527f7068616e746f6d2e636f6e7472616374732e74776170000000000000000000008285015261028086019190915285518087018752601d81527f7068616e746f6d2e636f6e7472616374732e626f6e6470726963696e67000000818501526102a086015285518087018752601c81527f7068616e746f6d2e636f6e7472616374732e6465785f726f7574657200000000818501526102c086015285518087018752601e8082527f7068616e746f6d2e636f6e7472616374732e796561726e5f726f757465720000828601526102e0870191909152865180880188528381527f7068616e746f6d2e636f6e7472616374732e6578656375746f7200000000000081860152610300870152865180880188529283527f7068616e746f6d2e636f6e7472616374732e7061796d656e747300000000000083850152610320860192909252855180870187529081527f7068616e746f6d2e636f6e7472616374732e677561726400000000000000000081840152610340850152845180860186529081527f7068616e746f6d2e636f6e7472616374732e61756374696f6e636c61696d000081830152610360840152908252825160c08101909352602a6060840181815292945090840192918291620029046080840139815260200160405180606001604052806040518060600160405280602b815260200162002889602b913981526020016040518060400160405280602081526020017f7068616e746f6d2e74726561737572792e6163636f756e745f6b65792e64616f815250815260200160405180606001604052806025815260200162002a146025913990528152604080518082018252601981527f7068616e746f6d2e74726561737572792e62616c616e636573000000000000006020828101919091529283015291835281516101c0810190925260246101608301818152938201938392830191829160c08501918291906200281f610180880139815260200160405180606001604052806025815260200162002a8360259139815260200160405180606001604052806024815260200162002a396024913981526020016040518060600160405280602b8152602001620028b4602b9139815260200160405180606001604052806024815260200162002aa86024913981525081526020016040518060600160405280602581526020016200297e602591398152602001604051806060016040528060298152602001620029eb6029913981526020016040518060400160405280601b81526020017f7068616e746f6d2e616c6c6f6361746f722e746f6b656e732e6c70000000000081525081526020016040518060400160405280601f81526020017f7068616e746f6d2e616c6c6f6361746f722e746f6b656e732e73696e676c65008152508152508152508152602001604051806101a0016040528060405180606001604052806040518060600160405280602b81526020016200292e602b913981526020016040518060600160405280602c8152602001620027cd602c913981526020016040518060600160405280602f81526020016200279e602f913981525081526020016040518060400160405280601d81526020017f7068616e746f6d2e626f6e64696e672e76657374696e67626c6f636b7300000081525081526020016040518060400160405280601c81526020017f7068616e746f6d2e626f6e64696e672e70726f6669745f726174696f0000000081525081526020016040518060400160405280601b81526020017f7068616e746f6d2e626f6e64696e672e69735f72656465656d656400000000008152508152602001604051806060016040528060228152602001620029a36022913981526020016040518060400160405280601881526020017f7068616e746f6d2e626f6e64696e672e69735f76616c6964000000000000000081525081526020016040518060400160405280601a81526020017f7068616e746f6d2e626f6e64696e672e6d756c7469706c69657200000000000081525081526020016040518060400160405280601481526020017f7068616e746f6d2e626f6e64696e672e6465627400000000000000000000000081525081526020016040518060400160405280601e81526020017f7068616e746f6d2e626f6e64696e672e6d61785f646562745f726174696f0000815250815260200160405180606001604052806024815260200162002b996024913981526020016040518060400160405280601581526020017f7068616e746f6d2e626f6e64696e672e746f6b656e000000000000000000000081525081526020016040518060400160405280601d81526020017f7068616e746f6d2e626f6e64696e672e6c6173745f636c61696d5f617400000081525081526020016040518060400160405280601b81526020017f7068616e746f6d2e626f6e64696e672e766573745f6c656e6774680000000000815250815250815260200160405180604001604052806040518060400160405280601d81526020017f7068616e746f6d2e7374616b696e672e726562617365436f756e746572000000815250815260200160405180606001604052806022815260200162002b776022913990528152604080516101408101909152602160e0820181815260209093019282916060830191829162002af0610100860139815260200160405180606001604052806024815260200162002865602491398152602001604051806060016040528060268152602001620027f960269139815260408051808201825260208082527f7068616e746f6d2e666f756e6465722e636c61696d732e6c617374436c61696d828201529283015291835281516060810183528082018281527f7068616e746f6d2e666f756e6465722e6368616e6765732e6e65774f776e65728285015281528382015281518083018352601d81527f7068616e746f6d2e666f756e6465722e76657374696e67537461727473000000818301529282019290925291835281516101608101909252602261010083018181529390910192829162002843610120840139815260200160405180606001604052806023815260200162002b1160239139815260200160405180606001604052806025815260200162002959602591398152602001604051806060016040528060268152602001620029c5602691398152602001604051806060016040528060258152602001620028df60259139815260200160405180606001604052806026815260200162002a5d60269139815260200160405180606001604052806024815260200162002acc6024913981526020016040518060600160405280602a815260200162002bbd602a9139815250815260200160405180608001604052806040518060400160405280601c81526020017f7068616e746f6d2e676f7665726e6f722e766f74696e6744656c61790000000081525081526020016040518060400160405280601d81526020017f7068616e746f6d2e676f7665726e6f722e766f74696e67506572696f64000000815250815260200160405180606001604052806021815260200162002b3460219139815260200160405180606001604052806022815260200162002b55602291399052905280518051805160039291839162000deb91839160209091019062001690565b50602082810151805162000e06926001850192019062001690565b506040820151805162000e2491600284019160209091019062001690565b506060820151805162000e4291600384019160209091019062001690565b506080820151805162000e6091600484019160209091019062001690565b5060a0820151805162000e7e91600584019160209091019062001690565b5060c0820151805162000e9c91600684019160209091019062001690565b5060e0820151805162000eba91600784019160209091019062001690565b50610100820151805162000ed991600884019160209091019062001690565b50610120820151805162000ef891600984019160209091019062001690565b50610140820151805162000f1791600a84019160209091019062001690565b50610160820151805162000f3691600b84019160209091019062001690565b50610180820151805162000f5591600c84019160209091019062001690565b506101a0820151805162000f7491600d84019160209091019062001690565b506101c0820151805162000f9391600e84019160209091019062001690565b506101e0820151805162000fb291600f84019160209091019062001690565b50610200820151805162000fd191601084019160209091019062001690565b50610220820151805162000ff091601184019160209091019062001690565b5061024082015180516200100f91601284019160209091019062001690565b5061026082015180516200102e91601384019160209091019062001690565b505050602082810151805180519192601485019262001051928492019062001690565b50602082810151805180519192600185019262001072928492019062001690565b5060208281015180516200108d926001850192019062001690565b5060408201518051620010ab91600284019160209091019062001690565b50505060408201518051620010cb91600484019160209091019062001690565b50505060408201518051805180518051601986019392849290918391620010f89183916020019062001690565b50602082810151805162001113926001850192019062001690565b50604082015180516200113191600284019160209091019062001690565b50606082015180516200114f91600384019160209091019062001690565b50608082015180516200116d91600484019160209091019062001690565b50505060208281015180516200118a926005850192019062001690565b5060408201518051620011a891600684019160209091019062001690565b5060608201518051620011c691600784019160209091019062001690565b5060808201518051620011e491600884019160209091019062001690565b505050506060830151805180518051929350602285019283916200120e9183916020019062001690565b50602082810151805162001229926001850192019062001690565b50604082015180516200124791600284019160209091019062001690565b505050602082810151805162001264926003850192019062001690565b50604082015180516200128291600484019160209091019062001690565b5060608201518051620012a091600584019160209091019062001690565b5060808201518051620012be91600684019160209091019062001690565b5060a08201518051620012dc91600784019160209091019062001690565b5060c08201518051620012fa91600884019160209091019062001690565b5060e082015180516200131891600984019160209091019062001690565b5061010082015180516200133791600a84019160209091019062001690565b5061012082015180516200135691600b84019160209091019062001690565b5061014082015180516200137591600c84019160209091019062001690565b5061016082015180516200139491600d84019160209091019062001690565b506101808201518051620013b391600e84019160209091019062001690565b5050506080820151805180516031840191620013d59183916020019062001690565b506020828101518051620013f0926001850192019062001690565b50505060a082015180518051805160338501929183916200141991839160209091019062001690565b50602082810151805162001434926001850192019062001690565b50604082015180516200145291600284019160209091019062001690565b50606082015180516200147091600384019160209091019062001690565b505050602082810151805180519192600485019262001493928492019062001690565b50505060408201518051620014b391600584019160209091019062001690565b50505060c0820151805180516039840191620014d59183916020019062001690565b506020828101518051620014f0926001850192019062001690565b50604082015180516200150e91600284019160209091019062001690565b50606082015180516200152c91600384019160209091019062001690565b50608082015180516200154a91600484019160209091019062001690565b5060a082015180516200156891600584019160209091019062001690565b5060c082015180516200158691600684019160209091019062001690565b5060e08201518051620015a491600784019160209091019062001690565b50505060e0820151805180516041840191620015c69183916020019062001690565b506020828101518051620015e1926001850192019062001690565b5060408201518051620015ff91600284019160209091019062001690565b50606082015180516200161d91600384019160209091019062001690565b50505050506d7068616e746f6d53746f7261676560901b604a553480156200164457600080fd5b5060405162002be738038062002be7833981016040819052620016679162001736565b6001604855604980546001600160a01b0383166001600160a01b031990911617905550620017a5565b8280546200169e9062001768565b90600052602060002090601f016020900481019282620016c257600085556200170d565b82601f10620016dd57805160ff19168380011785556200170d565b828001600101855582156200170d579182015b828111156200170d578251825591602001919060010190620016f0565b506200171b9291506200171f565b5090565b5b808211156200171b576000815560010162001720565b6000602082840312156200174957600080fd5b81516001600160a01b03811681146200176157600080fd5b9392505050565b600181811c908216806200177d57607f821691505b602082108114156200179f57634e487b7160e01b600052602260045260246000fd5b50919050565b610fe980620017b56000396000f3fe608060405234801561001057600080fd5b506004361061007d5760003560e01c8063b70096131161005b578063b7009613146100c6578063bfc019c6146100e9578063d2d30b45146100fc578063f0217ce51461013057600080fd5b806379d88d87146100825780639c21e90914610097578063a8542f66146100aa575b600080fd5b610095610090366004610e8e565b610143565b005b6100956100a5366004610ed2565b61042f565b6100b360001981565b6040519081526020015b60405180910390f35b6100d96100d4366004610ed2565b6106f1565b60405190151581526020016100bd565b6100956100f7366004610ed2565b6108ec565b6100d961010a366004610e8e565b604b60209081526000938452604080852082529284528284209052825290205460ff1681565b61009561013e366004610e8e565b610ba4565b60006101576049546001600160a01b031690565b6001600160a01b0316631bed52416040518163ffffffff1660e01b8152600401602060405180830381865afa158015610194573d6000803e3d6000fd5b505050506040513d601f19601f820116820180604052508101906101b89190610f2a565b90506001811515141561028e576049546001600160a01b03166001600160a01b0316637ae1cfca336040516020016101f09190610f53565b604051602081830303815290604052805190602001206040518263ffffffff1660e01b815260040161022491815260200190565b602060405180830381865afa158015610241573d6000803e3d6000fd5b505050506040513d601f19601f820116820180604052508101906102659190610f2a565b6102895760405163372463e360e01b81523360048201526024015b60405180910390fd5b6103d5565b6049546001600160a01b03166001600160a01b0316637ae1cfca336040516020016102b99190610f53565b604051602081830303815290604052805190602001206040518263ffffffff1660e01b81526004016102ed91815260200190565b602060405180830381865afa15801561030a573d6000803e3d6000fd5b505050506040513d601f19601f8201168201806040525081019061032e9190610f2a565b806103b657506049546001600160a01b03166001600160a01b031663a75b87d26040518163ffffffff1660e01b8152600401602060405180830381865afa15801561037d573d6000803e3d6000fd5b505050506040513d601f19601f820116820180604052508101906103a19190610f96565b6001600160a01b0316326001600160a01b0316145b6103d55760405163372463e360e01b8152336004820152602401610280565b6000848152604b602090815260408083208684528252808320858452909152808220805460ff19169055518391859187917f95ba64c95d85e67ac83a0476c4a62ac2cf8ab2d0407545b8c9d79c3eefa6282991a450505050565b60006104436049546001600160a01b031690565b6001600160a01b0316631bed52416040518163ffffffff1660e01b8152600401602060405180830381865afa158015610480573d6000803e3d6000fd5b505050506040513d601f19601f820116820180604052508101906104a49190610f2a565b905060018115151415610575576049546001600160a01b03166001600160a01b0316637ae1cfca336040516020016104dc9190610f53565b604051602081830303815290604052805190602001206040518263ffffffff1660e01b815260040161051091815260200190565b602060405180830381865afa15801561052d573d6000803e3d6000fd5b505050506040513d601f19601f820116820180604052508101906105519190610f2a565b6105705760405163372463e360e01b8152336004820152602401610280565b6106bc565b6049546001600160a01b03166001600160a01b0316637ae1cfca336040516020016105a09190610f53565b604051602081830303815290604052805190602001206040518263ffffffff1660e01b81526004016105d491815260200190565b602060405180830381865afa1580156105f1573d6000803e3d6000fd5b505050506040513d601f19601f820116820180604052508101906106159190610f2a565b8061069d57506049546001600160a01b03166001600160a01b031663a75b87d26040518163ffffffff1660e01b8152600401602060405180830381865afa158015610664573d6000803e3d6000fd5b505050506040513d601f19601f820116820180604052508101906106889190610f96565b6001600160a01b0316326001600160a01b0316145b6106bc5760405163372463e360e01b8152336004820152602401610280565b6106eb8460601b6001600160601b0319168460601b6001600160601b031916846001600160e01b031916610143565b50505050565b6bffffffffffffffffffffffff19606084811b82166000818152604b602090815260408083209488901b9095168083529381528482206001600160e01b0319871680845291529381205490939192919060ff168061077257506000838152604b602090815260408083208584528252808320600019845290915290205460ff165b806107a057506000838152604b602090815260408083206000198452825280832084845290915290205460ff165b806107cb57506000838152604b602090815260408083206000198452825280832090915290205460ff165b8061080e575060008281527ff6676e7f7b4580e86081c05b7637652ecdfc94f4c426ac6bf0c2d6d3d3661ba26020908152604080832084845290915290205460ff165b80610853575060008281527ff6676e7f7b4580e86081c05b7637652ecdfc94f4c426ac6bf0c2d6d3d3661ba260209081526040808320600019845290915290205460ff165b8061088b575060008181527fd9f6532a3360a18190d67eb48dff37e9464c6e694544059148a5bc5befcb757a602052604090205460ff165b806108e157506000196000527fd9f6532a3360a18190d67eb48dff37e9464c6e694544059148a5bc5befcb757a6020527f7881cae4b6406e369e3db264f7fb13f8a3312df6ff769026ae5227663ab7163e5460ff165b979650505050505050565b60006109006049546001600160a01b031690565b6001600160a01b0316631bed52416040518163ffffffff1660e01b8152600401602060405180830381865afa15801561093d573d6000803e3d6000fd5b505050506040513d601f19601f820116820180604052508101906109619190610f2a565b905060018115151415610a32576049546001600160a01b03166001600160a01b0316637ae1cfca336040516020016109999190610f53565b604051602081830303815290604052805190602001206040518263ffffffff1660e01b81526004016109cd91815260200190565b602060405180830381865afa1580156109ea573d6000803e3d6000fd5b505050506040513d601f19601f82011682018060405250810190610a0e9190610f2a565b610a2d5760405163372463e360e01b8152336004820152602401610280565b610b79565b6049546001600160a01b03166001600160a01b0316637ae1cfca33604051602001610a5d9190610f53565b604051602081830303815290604052805190602001206040518263ffffffff1660e01b8152600401610a9191815260200190565b602060405180830381865afa158015610aae573d6000803e3d6000fd5b505050506040513d601f19601f82011682018060405250810190610ad29190610f2a565b80610b5a57506049546001600160a01b03166001600160a01b031663a75b87d26040518163ffffffff1660e01b8152600401602060405180830381865afa158015610b21573d6000803e3d6000fd5b505050506040513d601f19601f82011682018060405250810190610b459190610f96565b6001600160a01b0316326001600160a01b0316145b610b795760405163372463e360e01b8152336004820152602401610280565b6106eb8460601b6001600160601b0319168460601b6001600160601b031916846001600160e01b0319165b6000610bb86049546001600160a01b031690565b6001600160a01b0316631bed52416040518163ffffffff1660e01b8152600401602060405180830381865afa158015610bf5573d6000803e3d6000fd5b505050506040513d601f19601f82011682018060405250810190610c199190610f2a565b905060018115151415610cea576049546001600160a01b03166001600160a01b0316637ae1cfca33604051602001610c519190610f53565b604051602081830303815290604052805190602001206040518263ffffffff1660e01b8152600401610c8591815260200190565b602060405180830381865afa158015610ca2573d6000803e3d6000fd5b505050506040513d601f19601f82011682018060405250810190610cc69190610f2a565b610ce55760405163372463e360e01b8152336004820152602401610280565b610e31565b6049546001600160a01b03166001600160a01b0316637ae1cfca33604051602001610d159190610f53565b604051602081830303815290604052805190602001206040518263ffffffff1660e01b8152600401610d4991815260200190565b602060405180830381865afa158015610d66573d6000803e3d6000fd5b505050506040513d601f19601f82011682018060405250810190610d8a9190610f2a565b80610e1257506049546001600160a01b03166001600160a01b031663a75b87d26040518163ffffffff1660e01b8152600401602060405180830381865afa158015610dd9573d6000803e3d6000fd5b505050506040513d601f19601f82011682018060405250810190610dfd9190610f96565b6001600160a01b0316326001600160a01b0316145b610e315760405163372463e360e01b8152336004820152602401610280565b6000848152604b602090815260408083208684528252808320858452909152808220805460ff19166001179055518391859187917f6f50375045128971c5469d343039ba7b8e30a5b190453737b28bda6f7a30677191a450505050565b600080600060608486031215610ea357600080fd5b505081359360208301359350604090920135919050565b6001600160a01b0381168114610ecf57600080fd5b50565b600080600060608486031215610ee757600080fd5b8335610ef281610eba565b92506020840135610f0281610eba565b915060408401356001600160e01b031981168114610f1f57600080fd5b809150509250925092565b600060208284031215610f3c57600080fd5b81518015158114610f4c57600080fd5b9392505050565b7f7068616e746f6d2e636f6e74726163742e726567697374657265640000000000815260609190911b6bffffffffffffffffffffffff1916601b820152602f0190565b600060208284031215610fa857600080fd5b8151610f4c81610eba56fea2646970667358221220a7afebfc98f2ac650c7774e1b231cf9dbe5344ceb94ca9ed72a280983cdb2fee64736f6c634300080a00337068616e746f6d2e626f6e64696e672e757365722e6c6f776573745f6e6f6e63655f7374696c6c5f76657374696e677068616e746f6d2e626f6e64696e672e757365722e6c6f776573745f61737369676e61626c655f6e6f6e63657068616e746f6d2e666f756e6465722e636c61696d732e72656d61696e696e67416d6f756e747068616e746f6d2e616c6c6f6361746f722e746f6b656e732e616464726573732e6461697068616e746f6d2e726f7574696e672e6465785f726f757465725f616464726573737068616e746f6d2e666f756e6465722e636c61696d732e696e697469616c416d6f756e747068616e746f6d2e74726561737572792e6163636f756e745f6b65792e76656e747572656361706974616c7068616e746f6d2e616c6c6f6361746f722e746f6b656e732e616464726573732e6461695f70686d5f6c707068616e746f6d2e726f7574696e672e73706f6f6b795f726f757465725f616464726573737068616e746f6d2e74726561737572792e617070726f7665642e65787465726e616c2e616464726573737068616e746f6d2e626f6e64696e672e757365722e66697273745f756e72656465656d65645f6e6f6e63657068616e746f6d2e726f7574696e672e7370697269745f726f757465725f616464726573737068616e746f6d2e616c6c6f6361746f722e746f6b656e732e64657374696e6174696f6e737068616e746f6d2e626f6e64696e672e76657374735f61745f74696d657374616d707068616e746f6d2e726f7574696e672e7370697269745f666163746f72795f616464726573737068616e746f6d2e616c6c6f6361746f722e746f6b656e732e646573745f70657263656e74616765737068616e746f6d2e74726561737572792e6163636f756e745f6b65792e72657365727665737068616e746f6d2e616c6c6f6361746f722e746f6b656e732e616464726573732e6d696d7068616e746f6d2e726f7574696e672e73706f6f6b795f666163746f72795f616464726573737068616e746f6d2e616c6c6f6361746f722e746f6b656e732e616464726573732e7766746d7068616e746f6d2e616c6c6f6361746f722e746f6b656e732e616464726573732e6465787068616e746f6d2e726f7574696e672e7370697269745f67617567655f616464726573737068616e746f6d2e666f756e6465722e636c61696d732e616c6c6f636174696f6e7068616e746f6d2e726f7574696e672e6465785f666163746f72795f616464726573737068616e746f6d2e676f7665726e6f722e71756f72756d50657263656e746167657068616e746f6d2e676f7665726e6f722e70726f706f73616c5468726573686f6c647068616e746f6d2e7374616b696e672e6e657874526562617365446561646c696e657068616e746f6d2e626f6e64696e672e72656d61696e696e675f7061796f75745f666f727068616e746f6d2e726f7574696e672e7370697269745f67617567655f70726f78795f61646472657373",
  "bytecodeSha1": "da39a3ee5e6b4b0d3255bfef95601890afd80709",
  "compiler": {
    "evm_version": "istanbul",
    "optimizer": {
      "enabled": true,
      "runs": 200
    },
    "version": "0.8.10+commit.fc410830"
  },
  "contractName": "PhantomGuard",
  "language": "Solidity",
  "natspec": {
    "kind": "dev",
    "methods": {},
    "version": 1
  },
  "opcodes": "PUSH1 0x80 PUSH1 0x40 MSTORE CALLVALUE DUP1 ISZERO PUSH2 0x10 JUMPI PUSH1 0x0 DUP1 REVERT JUMPDEST POP PUSH1 0x4 CALLDATASIZE LT PUSH2 0x7D JUMPI PUSH1 0x0 CALLDATALOAD PUSH1 0xE0 SHR DUP1 PUSH4 0xB7009613 GT PUSH2 0x5B JUMPI DUP1 PUSH4 0xB7009613 EQ PUSH2 0xC6 JUMPI DUP1 PUSH4 0xBFC019C6 EQ PUSH2 0xE9 JUMPI DUP1 PUSH4 0xD2D30B45 EQ PUSH2 0xFC JUMPI DUP1 PUSH4 0xF0217CE5 EQ PUSH2 0x130 JUMPI PUSH1 0x0 DUP1 REVERT JUMPDEST DUP1 PUSH4 0x79D88D87 EQ PUSH2 0x82 JUMPI DUP1 PUSH4 0x9C21E909 EQ PUSH2 0x97 JUMPI DUP1 PUSH4 0xA8542F66 EQ PUSH2 0xAA JUMPI JUMPDEST PUSH1 0x0 DUP1 REVERT JUMPDEST PUSH2 0x95 PUSH2 0x90 CALLDATASIZE PUSH1 0x4 PUSH2 0xE8E JUMP JUMPDEST PUSH2 0x143 JUMP JUMPDEST STOP JUMPDEST PUSH2 0x95 PUSH2 0xA5 CALLDATASIZE PUSH1 0x4 PUSH2 0xED2 JUMP JUMPDEST PUSH2 0x42F JUMP JUMPDEST PUSH2 0xB3 PUSH1 0x0 NOT DUP2 JUMP JUMPDEST PUSH1 0x40 MLOAD SWAP1 DUP2 MSTORE PUSH1 0x20 ADD JUMPDEST PUSH1 0x40 MLOAD DUP1 SWAP2 SUB SWAP1 RETURN JUMPDEST PUSH2 0xD9 PUSH2 0xD4 CALLDATASIZE PUSH1 0x4 PUSH2 0xED2 JUMP JUMPDEST PUSH2 0x6F1 JUMP JUMPDEST PUSH1 0x40 MLOAD SWAP1 ISZERO ISZERO DUP2 MSTORE PUSH1 0x20 ADD PUSH2 0xBD JUMP JUMPDEST PUSH2 0x95 PUSH2 0xF7 CALLDATASIZE PUSH1 0x4 PUSH2 0xED2 JUMP JUMPDEST PUSH2 0x8EC JUMP JUMPDEST PUSH2 0xD9 PUSH2 0x10A CALLDATASIZE PUSH1 0x4 PUSH2 0xE8E JUMP JUMPDEST PUSH1 0x4B PUSH1 0x20 SWAP1 DUP2 MSTORE PUSH1 0x0 SWAP4 DUP5 MSTORE PUSH1 0x40 DUP1 DUP6 KECCAK256 DUP3 MSTORE SWAP3 DUP5 MSTORE DUP3 DUP5 KECCAK256 SWAP1 MSTORE DUP3 MSTORE SWAP1 KECCAK256 SLOAD PUSH1 0xFF AND DUP2 JUMP JUMPDEST PUSH2 0x95 PUSH2 0x13E CALLDATASIZE PUSH1 0x4 PUSH2 0xE8E JUMP JUMPDEST PUSH2 0xBA4 JUMP JUMPDEST PUSH1 0x0 PUSH2 0x157 PUSH1 0x49 SLOAD PUSH1 0x1 PUSH1 0x1 PUSH1 0xA0 SHL SUB AND SWAP1 JUMP JUMPDEST PUSH1 0x1 PUSH1 0x1 PUSH1 0xA0 SHL SUB AND PUSH4 0x1BED5241 PUSH1 0x40 MLOAD DUP2 PUSH4 0xFFFFFFFF AND PUSH1 0xE0 SHL DUP2 MSTORE PUSH1 0x4 ADD PUSH1 0x20 PUSH1 0x40 MLOAD DUP1 DUP4 SUB DUP2 DUP7 GAS STATICCALL ISZERO DUP1 ISZERO PUSH2 0x194 JUMPI RETURNDATASIZE PUSH1 0x0 DUP1 RETURNDATACOPY RETURNDATASIZE PUSH1 0x0 REVERT JUMPDEST POP POP POP POP PUSH1 0x40 MLOAD RETURNDATASIZE PUSH1 0x1F NOT PUSH1 0x1F DUP3 ADD AND DUP3 ADD DUP1 PUSH1 0x40 MSTORE POP DUP2 ADD SWAP1 PUSH2 0x1B8 SWAP2 SWAP1 PUSH2 0xF2A JUMP JUMPDEST SWAP1 POP PUSH1 0x1 DUP2 ISZERO ISZERO EQ ISZERO PUSH2 0x28E JUMPI PUSH1 0x49 SLOAD PUSH1 0x1 PUSH1 0x1 PUSH1 0xA0 SHL SUB AND PUSH1 0x1 PUSH1 0x1 PUSH1 0xA0 SHL SUB AND PUSH4 0x7AE1CFCA CALLER PUSH1 0x40 MLOAD PUSH1 0x20 ADD PUSH2 0x1F0 SWAP2 SWAP1 PUSH2 0xF53 JUMP JUMPDEST PUSH1 0x40 MLOAD PUSH1 0x20 DUP2 DUP4 SUB SUB DUP2 MSTORE SWAP1 PUSH1 0x40 MSTORE DUP1 MLOAD SWAP1 PUSH1 0x20 ADD KECCAK256 PUSH1 0x40 MLOAD DUP3 PUSH4 0xFFFFFFFF AND PUSH1 0xE0 SHL DUP2 MSTORE PUSH1 0x4 ADD PUSH2 0x224 SWAP2 DUP2 MSTORE PUSH1 0x20 ADD SWAP1 JUMP JUMPDEST PUSH1 0x20 PUSH1 0x40 MLOAD DUP1 DUP4 SUB DUP2 DUP7 GAS STATICCALL ISZERO DUP1 ISZERO PUSH2 0x241 JUMPI RETURNDATASIZE PUSH1 0x0 DUP1 RETURNDATACOPY RETURNDATASIZE PUSH1 0x0 REVERT JUMPDEST POP POP POP POP PUSH1 0x40 MLOAD RETURNDATASIZE PUSH1 0x1F NOT PUSH1 0x1F DUP3 ADD AND DUP3 ADD DUP1 PUSH1 0x40 MSTORE POP DUP2 ADD SWAP1 PUSH2 0x265 SWAP2 SWAP1 PUSH2 0xF2A JUMP JUMPDEST PUSH2 0x289 JUMPI PUSH1 0x40 MLOAD PUSH4 0x372463E3 PUSH1 0xE0 SHL DUP2 MSTORE CALLER PUSH1 0x4 DUP3 ADD MSTORE PUSH1 0x24 ADD JUMPDEST PUSH1 0x40 MLOAD DUP1 SWAP2 SUB SWAP1 REVERT JUMPDEST PUSH2 0x3D5 JUMP JUMPDEST PUSH1 0x49 SLOAD PUSH1 0x1 PUSH1 0x1 PUSH1 0xA0 SHL SUB AND PUSH1 0x1 PUSH1 0x1 PUSH1 0xA0 SHL SUB AND PUSH4 0x7AE1CFCA CALLER PUSH1 0x40 MLOAD PUSH1 0x20 ADD PUSH2 0x2B9 SWAP2 SWAP1 PUSH2 0xF53 JUMP JUMPDEST PUSH1 0x40 MLOAD PUSH1 0x20 DUP2 DUP4 SUB SUB DUP2 MSTORE SWAP1 PUSH1 0x40 MSTORE DUP1 MLOAD SWAP1 PUSH1 0x20 ADD KECCAK256 PUSH1 0x40 MLOAD DUP3 PUSH4 0xFFFFFFFF AND PUSH1 0xE0 SHL DUP2 MSTORE PUSH1 0x4 ADD PUSH2 0x2ED SWAP2 DUP2 MSTORE PUSH1 0x20 ADD SWAP1 JUMP JUMPDEST PUSH1 0x20 PUSH1 0x40 MLOAD DUP1 DUP4 SUB DUP2 DUP7 GAS STATICCALL ISZERO DUP1 ISZERO PUSH2 0x30A JUMPI RETURNDATASIZE PUSH1 0x0 DUP1 RETURNDATACOPY RETURNDATASIZE PUSH1 0x0 REVERT JUMPDEST POP POP POP POP PUSH1 0x40 MLOAD RETURNDATASIZE PUSH1 0x1F NOT PUSH1 0x1F DUP3 ADD AND DUP3 ADD DUP1 PUSH1 0x40 MSTORE POP DUP2 ADD SWAP1 PUSH2 0x32E SWAP2 SWAP1 PUSH2 0xF2A JUMP JUMPDEST DUP1 PUSH2 0x3B6 JUMPI POP PUSH1 0x49 SLOAD PUSH1 0x1 PUSH1 0x1 PUSH1 0xA0 SHL SUB AND PUSH1 0x1 PUSH1 0x1 PUSH1 0xA0 SHL SUB AND PUSH4 0xA75B87D2 PUSH1 0x40 MLOAD DUP2 PUSH4 0xFFFFFFFF AND PUSH1 0xE0 SHL DUP2 MSTORE PUSH1 0x4 ADD PUSH1 0x20 PUSH1 0x40 MLOAD DUP1 DUP4 SUB DUP2 DUP7 GAS STATICCALL ISZERO DUP1 ISZERO PUSH2 0x37D JUMPI RETURNDATASIZE PUSH1 0x0 DUP1 RETURNDATACOPY RETURNDATASIZE PUSH1 0x0 REVERT JUMPDEST POP POP POP POP PUSH1 0x40 MLOAD RETURNDATASIZE PUSH1 0x1F NOT PUSH1 0x1F DUP3 ADD AND DUP3 ADD DUP1 PUSH1 0x40 MSTORE POP DUP2 ADD SWAP1 PUSH2 0x3A1 SWAP2 SWAP1 PUSH2 0xF96 JUMP JUMPDEST PUSH1 0x1 PUSH1 0x1 PUSH1 0xA0 SHL SUB AND ORIGIN PUSH1 0x1 PUSH1 0x1 PUSH1 0xA0 SHL SUB AND EQ JUMPDEST PUSH2 0x3D5 JUMPI PUSH1 0x40 MLOAD PUSH4 0x372463E3 PUSH1 0xE0 SHL DUP2 MSTORE CALLER PUSH1 0x4 DUP3 ADD MSTORE PUSH1 0x24 ADD PUSH2 0x280 JUMP JUMPDEST PUSH1 0x0 DUP5 DUP2 MSTORE PUSH1 0x4B PUSH1 0x20 SWAP1 DUP2 MSTORE PUSH1 0x40 DUP1 DUP4 KECCAK256 DUP7 DUP5 MSTORE DUP3 MSTORE DUP1 DUP4 KECCAK256 DUP6 DUP5 MSTORE SWAP1 SWAP2 MSTORE DUP1 DUP3 KECCAK256 DUP1 SLOAD PUSH1 0xFF NOT AND SWAP1 SSTORE MLOAD DUP4 SWAP2 DUP6 SWAP2 DUP8 SWAP2 PUSH32 0x95BA64C95D85E67AC83A0476C4A62AC2CF8AB2D0407545B8C9D79C3EEFA62829 SWAP2 LOG4 POP POP POP POP JUMP JUMPDEST PUSH1 0x0 PUSH2 0x443 PUSH1 0x49 SLOAD PUSH1 0x1 PUSH1 0x1 PUSH1 0xA0 SHL SUB AND SWAP1 JUMP JUMPDEST PUSH1 0x1 PUSH1 0x1 PUSH1 0xA0 SHL SUB AND PUSH4 0x1BED5241 PUSH1 0x40 MLOAD DUP2 PUSH4 0xFFFFFFFF AND PUSH1 0xE0 SHL DUP2 MSTORE PUSH1 0x4 ADD PUSH1 0x20 PUSH1 0x40 MLOAD DUP1 DUP4 SUB DUP2 DUP7 GAS STATICCALL ISZERO DUP1 ISZERO PUSH2 0x480 JUMPI RETURNDATASIZE PUSH1 0x0 DUP1 RETURNDATACOPY RETURNDATASIZE PUSH1 0x0 REVERT JUMPDEST POP POP POP POP PUSH1 0x40 MLOAD RETURNDATASIZE PUSH1 0x1F NOT PUSH1 0x1F DUP3 ADD AND DUP3 ADD DUP1 PUSH1 0x40 MSTORE POP DUP2 ADD SWAP1 PUSH2 0x4A4 SWAP2 SWAP1 PUSH2 0xF2A JUMP JUMPDEST SWAP1 POP PUSH1 0x1 DUP2 ISZERO ISZERO EQ ISZERO PUSH2 0x575 JUMPI PUSH1 0x49 SLOAD PUSH1 0x1 PUSH1 0x1 PUSH1 0xA0 SHL SUB AND PUSH1 0x1 PUSH1 0x1 PUSH1 0xA0 SHL SUB AND PUSH4 0x7AE1CFCA CALLER PUSH1 0x40 MLOAD PUSH1 0x20 ADD PUSH2 0x4DC SWAP2 SWAP1 PUSH2 0xF53 JUMP JUMPDEST PUSH1 0x40 MLOAD PUSH1 0x20 DUP2 DUP4 SUB SUB DUP2 MSTORE SWAP1 PUSH1 0x40 MSTORE DUP1 MLOAD SWAP1 PUSH1 0x20 ADD KECCAK256 PUSH1 0x40 MLOAD DUP3 PUSH4 0xFFFFFFFF AND PUSH1 0xE0 SHL DUP2 MSTORE PUSH1 0x4 ADD PUSH2 0x510 SWAP2 DUP2 MSTORE PUSH1 0x20 ADD SWAP1 JUMP JUMPDEST PUSH1 0x20 PUSH1 0x40 MLOAD DUP1 DUP4 SUB DUP2 DUP7 GAS STATICCALL ISZERO DUP1 ISZERO PUSH2 0x52D JUMPI RETURNDATASIZE PUSH1 0x0 DUP1 RETURNDATACOPY RETURNDATASIZE PUSH1 0x0 REVERT JUMPDEST POP POP POP POP PUSH1 0x40 MLOAD RETURNDATASIZE PUSH1 0x1F NOT PUSH1 0x1F DUP3 ADD AND DUP3 ADD DUP1 PUSH1 0x40 MSTORE POP DUP2 ADD SWAP1 PUSH2 0x551 SWAP2 SWAP1 PUSH2 0xF2A JUMP JUMPDEST PUSH2 0x570 JUMPI PUSH1 0x40 MLOAD PUSH4 0x372463E3 PUSH1 0xE0 SHL DUP2 MSTORE CALLER PUSH1 0x4 DUP3 ADD MSTORE PUSH1 0x24 ADD PUSH2 0x280 JUMP JUMPDEST PUSH2 0x6BC JUMP JUMPDEST PUSH1 0x49 SLOAD PUSH1 0x1 PUSH1 0x1 PUSH1 0xA0 SHL SUB AND PUSH1 0x1 PUSH1 0x1 PUSH1 0xA0 SHL SUB AND PUSH4 0x7AE1CFCA CALLER PUSH1 0x40 MLOAD PUSH1 0x20 ADD PUSH2 0x5A0 SWAP2 SWAP1 PUSH2 0xF53 JUMP JUMPDEST PUSH1 0x40 MLOAD PUSH1 0x20 DUP2 DUP4 SUB SUB DUP2 MSTORE SWAP1 PUSH1 0x40 MSTORE DUP1 MLOAD SWAP1 PUSH1 0x20 ADD KECCAK256 PUSH1 0x40 MLOAD DUP3 PUSH4 0xFFFFFFFF AND PUSH1 0xE0 SHL DUP2 MSTORE PUSH1 0x4 ADD PUSH2 0x5D4 SWAP2 DUP2 MSTORE PUSH1 0x20 ADD SWAP1 JUMP JUMPDEST PUSH1 0x20 PUSH1 0x40 MLOAD DUP1 DUP4 SUB DUP2 DUP7 GAS STATICCALL ISZERO DUP1 ISZERO PUSH2 0x5F1 JUMPI RETURNDATASIZE PUSH1 0x0 DUP1 RETURNDATACOPY RETURNDATASIZE PUSH1 0x0 REVERT JUMPDEST POP POP POP POP PUSH1 0x40 MLOAD RETURNDATASIZE PUSH1 0x1F NOT PUSH1 0x1F DUP3 ADD AND DUP3 ADD DUP1 PUSH1 0x40 MSTORE POP DUP2 ADD SWAP1 PUSH2 0x615 SWAP2 SWAP1 PUSH2 0xF2A JUMP JUMPDEST DUP1 PUSH2 0x69D JUMPI POP PUSH1 0x49 SLOAD PUSH1 0x1 PUSH1 0x1 PUSH1 0xA0 SHL SUB AND PUSH1 0x1 PUSH1 0x1 PUSH1 0xA0 SHL SUB AND PUSH4 0xA75B87D2 PUSH1 0x40 MLOAD DUP2 PUSH4 0xFFFFFFFF AND PUSH1 0xE0 SHL DUP2 MSTORE PUSH1 0x4 ADD PUSH1 0x20 PUSH1 0x40 MLOAD DUP1 DUP4 SUB DUP2 DUP7 GAS STATICCALL ISZERO DUP1 ISZERO PUSH2 0x664 JUMPI RETURNDATASIZE PUSH1 0x0 DUP1 RETURNDATACOPY RETURNDATASIZE PUSH1 0x0 REVERT JUMPDEST POP POP POP POP PUSH1 0x40 MLOAD RETURNDATASIZE PUSH1 0x1F NOT PUSH1 0x1F DUP3 ADD AND DUP3 ADD DUP1 PUSH1 0x40 MSTORE POP DUP2 ADD SWAP1 PUSH2 0x688 SWAP2 SWAP1 PUSH2 0xF96 JUMP JUMPDEST PUSH1 0x1 PUSH1 0x1 PUSH1 0xA0 SHL SUB AND ORIGIN PUSH1 0x1 PUSH1 0x1 PUSH1 0xA0 SHL SUB AND EQ JUMPDEST PUSH2 0x6BC JUMPI PUSH1 0x40 MLOAD PUSH4 0x372463E3 PUSH1 0xE0 SHL DUP2 MSTORE CALLER PUSH1 0x4 DUP3 ADD MSTORE PUSH1 0x24 ADD PUSH2 0x280 JUMP JUMPDEST PUSH2 0x6EB DUP5 PUSH1 0x60 SHL PUSH1 0x1 PUSH1 0x1 PUSH1 0x60 SHL SUB NOT AND DUP5 PUSH1 0x60 SHL PUSH1 0x1 PUSH1 0x1 PUSH1 0x60 SHL SUB NOT AND DUP5 PUSH1 0x1 PUSH1 0x1 PUSH1 0xE0 SHL SUB NOT AND PUSH2 0x143 JUMP JUMPDEST POP POP POP POP JUMP JUMPDEST PUSH12 0xFFFFFFFFFFFFFFFFFFFFFFFF NOT PUSH1 0x60 DUP5 DUP2 SHL DUP3 AND PUSH1 0x0 DUP2 DUP2 MSTORE PUSH1 0x4B PUSH1 0x20 SWAP1 DUP2 MSTORE PUSH1 0x40 DUP1 DUP4 KECCAK256 SWAP5 DUP9 SWAP1 SHL SWAP1 SWAP6 AND DUP1 DUP4 MSTORE SWAP4 DUP2 MSTORE DUP5 DUP3 KECCAK256 PUSH1 0x1 PUSH1 0x1 PUSH1 0xE0 SHL SUB NOT DUP8 AND DUP1 DUP5 MSTORE SWAP2 MSTORE SWAP4 DUP2 KECCAK256 SLOAD SWAP1 SWAP4 SWAP2 SWAP3 SWAP2 SWAP1 PUSH1 0xFF AND DUP1 PUSH2 0x772 JUMPI POP PUSH1 0x0 DUP4 DUP2 MSTORE PUSH1 0x4B PUSH1 0x20 SWAP1 DUP2 MSTORE PUSH1 0x40 DUP1 DUP4 KECCAK256 DUP6 DUP5 MSTORE DUP3 MSTORE DUP1 DUP4 KECCAK256 PUSH1 0x0 NOT DUP5 MSTORE SWAP1 SWAP2 MSTORE SWAP1 KECCAK256 SLOAD PUSH1 0xFF AND JUMPDEST DUP1 PUSH2 0x7A0 JUMPI POP PUSH1 0x0 DUP4 DUP2 MSTORE PUSH1 0x4B PUSH1 0x20 SWAP1 DUP2 MSTORE PUSH1 0x40 DUP1 DUP4 KECCAK256 PUSH1 0x0 NOT DUP5 MSTORE DUP3 MSTORE DUP1 DUP4 KECCAK256 DUP5 DUP5 MSTORE SWAP1 SWAP2 MSTORE SWAP1 KECCAK256 SLOAD PUSH1 0xFF AND JUMPDEST DUP1 PUSH2 0x7CB JUMPI POP PUSH1 0x0 DUP4 DUP2 MSTORE PUSH1 0x4B PUSH1 0x20 SWAP1 DUP2 MSTORE PUSH1 0x40 DUP1 DUP4 KECCAK256 PUSH1 0x0 NOT DUP5 MSTORE DUP3 MSTORE DUP1 DUP4 KECCAK256 SWAP1 SWAP2 MSTORE SWAP1 KECCAK256 SLOAD PUSH1 0xFF AND JUMPDEST DUP1 PUSH2 0x80E JUMPI POP PUSH1 0x0 DUP3 DUP2 MSTORE PUSH32 0xF6676E7F7B4580E86081C05B7637652ECDFC94F4C426AC6BF0C2D6D3D3661BA2 PUSH1 0x20 SWAP1 DUP2 MSTORE PUSH1 0x40 DUP1 DUP4 KECCAK256 DUP5 DUP5 MSTORE SWAP1 SWAP2 MSTORE SWAP1 KECCAK256 SLOAD PUSH1 0xFF AND JUMPDEST DUP1 PUSH2 0x853 JUMPI POP PUSH1 0x0 DUP3 DUP2 MSTORE PUSH32 0xF6676E7F7B4580E86081C05B7637652ECDFC94F4C426AC6BF0C2D6D3D3661BA2 PUSH1 0x20 SWAP1 DUP2 MSTORE PUSH1 0x40 DUP1 DUP4 KECCAK256 PUSH1 0x0 NOT DUP5 MSTORE SWAP1 SWAP2 MSTORE SWAP1 KECCAK256 SLOAD PUSH1 0xFF AND JUMPDEST DUP1 PUSH2 0x88B JUMPI POP PUSH1 0x0 DUP2 DUP2 MSTORE PUSH32 0xD9F6532A3360A18190D67EB48DFF37E9464C6E694544059148A5BC5BEFCB757A PUSH1 0x20 MSTORE PUSH1 0x40 SWAP1 KECCAK256 SLOAD PUSH1 0xFF AND JUMPDEST DUP1 PUSH2 0x8E1 JUMPI POP PUSH1 0x0 NOT PUSH1 0x0 MSTORE PUSH32 0xD9F6532A3360A18190D67EB48DFF37E9464C6E694544059148A5BC5BEFCB757A PUSH1 0x20 MSTORE PUSH32 0x7881CAE4B6406E369E3DB264F7FB13F8A3312DF6FF769026AE5227663AB7163E SLOAD PUSH1 0xFF AND JUMPDEST SWAP8 SWAP7 POP POP POP POP POP POP POP JUMP JUMPDEST PUSH1 0x0 PUSH2 0x900 PUSH1 0x49 SLOAD PUSH1 0x1 PUSH1 0x1 PUSH1 0xA0 SHL SUB AND SWAP1 JUMP JUMPDEST PUSH1 0x1 PUSH1 0x1 PUSH1 0xA0 SHL SUB AND PUSH4 0x1BED5241 PUSH1 0x40 MLOAD DUP2 PUSH4 0xFFFFFFFF AND PUSH1 0xE0 SHL DUP2 MSTORE PUSH1 0x4 ADD PUSH1 0x20 PUSH1 0x40 MLOAD DUP1 DUP4 SUB DUP2 DUP7 GAS STATICCALL ISZERO DUP1 ISZERO PUSH2 0x93D JUMPI RETURNDATASIZE PUSH1 0x0 DUP1 RETURNDATACOPY RETURNDATASIZE PUSH1 0x0 REVERT JUMPDEST POP POP POP POP PUSH1 0x40 MLOAD RETURNDATASIZE PUSH1 0x1F NOT PUSH1 0x1F DUP3 ADD AND DUP3 ADD DUP1 PUSH1 0x40 MSTORE POP DUP2 ADD SWAP1 PUSH2 0x961 SWAP2 SWAP1 PUSH2 0xF2A JUMP JUMPDEST SWAP1 POP PUSH1 0x1 DUP2 ISZERO ISZERO EQ ISZERO PUSH2 0xA32 JUMPI PUSH1 0x49 SLOAD PUSH1 0x1 PUSH1 0x1 PUSH1 0xA0 SHL SUB AND PUSH1 0x1 PUSH1 0x1 PUSH1 0xA0 SHL SUB AND PUSH4 0x7AE1CFCA CALLER PUSH1 0x40 MLOAD PUSH1 0x20 ADD PUSH2 0x999 SWAP2 SWAP1 PUSH2 0xF53 JUMP JUMPDEST PUSH1 0x40 MLOAD PUSH1 0x20 DUP2 DUP4 SUB SUB DUP2 MSTORE SWAP1 PUSH1 0x40 MSTORE DUP1 MLOAD SWAP1 PUSH1 0x20 ADD KECCAK256 PUSH1 0x40 MLOAD DUP3 PUSH4 0xFFFFFFFF AND PUSH1 0xE0 SHL DUP2 MSTORE PUSH1 0x4 ADD PUSH2 0x9CD SWAP2 DUP2 MSTORE PUSH1 0x20 ADD SWAP1 JUMP JUMPDEST PUSH1 0x20 PUSH1 0x40 MLOAD DUP1 DUP4 SUB DUP2 DUP7 GAS STATICCALL ISZERO DUP1 ISZERO PUSH2 0x9EA JUMPI RETURNDATASIZE PUSH1 0x0 DUP1 RETURNDATACOPY RETURNDATASIZE PUSH1 0x0 REVERT JUMPDEST POP POP POP POP PUSH1 0x40 MLOAD RETURNDATASIZE PUSH1 0x1F NOT PUSH1 0x1F DUP3 ADD AND DUP3 ADD DUP1 PUSH1 0x40 MSTORE POP DUP2 ADD SWAP1 PUSH2 0xA0E SWAP2 SWAP1 PUSH2 0xF2A JUMP JUMPDEST PUSH2 0xA2D JUMPI PUSH1 0x40 MLOAD PUSH4 0x372463E3 PUSH1 0xE0 SHL DUP2 MSTORE CALLER PUSH1 0x4 DUP3 ADD MSTORE PUSH1 0x24 ADD PUSH2 0x280 JUMP JUMPDEST PUSH2 0xB79 JUMP JUMPDEST PUSH1 0x49 SLOAD PUSH1 0x1 PUSH1 0x1 PUSH1 0xA0 SHL SUB AND PUSH1 0x1 PUSH1 0x1 PUSH1 0xA0 SHL SUB AND PUSH4 0x7AE1CFCA CALLER PUSH1 0x40 MLOAD PUSH1 0x20 ADD PUSH2 0xA5D SWAP2 SWAP1 PUSH2 0xF53 JUMP JUMPDEST PUSH1 0x40 MLOAD PUSH1 0x20 DUP2 DUP4 SUB SUB DUP2 MSTORE SWAP1 PUSH1 0x40 MSTORE DUP1 MLOAD SWAP1 PUSH1 0x20 ADD KECCAK256 PUSH1 0x40 MLOAD DUP3 PUSH4 0xFFFFFFFF AND PUSH1 0xE0 SHL DUP2 MSTORE PUSH1 0x4 ADD PUSH2 0xA91 SWAP2 DUP2 MSTORE PUSH1 0x20 ADD SWAP1 JUMP JUMPDEST PUSH1 0x20 PUSH1 0x40 MLOAD DUP1 DUP4 SUB DUP2 DUP7 GAS STATICCALL ISZERO DUP1 ISZERO PUSH2 0xAAE JUMPI RETURNDATASIZE PUSH1 0x0 DUP1 RETURNDATACOPY RETURNDATASIZE PUSH1 0x0 REVERT JUMPDEST POP POP POP POP PUSH1 0x40 MLOAD RETURNDATASIZE PUSH1 0x1F NOT PUSH1 0x1F DUP3 ADD AND DUP3 ADD DUP1 PUSH1 0x40 MSTORE POP DUP2 ADD SWAP1 PUSH2 0xAD2 SWAP2 SWAP1 PUSH2 0xF2A JUMP JUMPDEST DUP1 PUSH2 0xB5A JUMPI POP PUSH1 0x49 SLOAD PUSH1 0x1 PUSH1 0x1 PUSH1 0xA0 SHL SUB AND PUSH1 0x1 PUSH1 0x1 PUSH1 0xA0 SHL SUB AND PUSH4 0xA75B87D2 PUSH1 0x40 MLOAD DUP2 PUSH4 0xFFFFFFFF AND PUSH1 0xE0 SHL DUP2 MSTORE PUSH1 0x4 ADD PUSH1 0x20 PUSH1 0x40 MLOAD DUP1 DUP4 SUB DUP2 DUP7 GAS STATICCALL ISZERO DUP1 ISZERO PUSH2 0xB21 JUMPI RETURNDATASIZE PUSH1 0x0 DUP1 RETURNDATACOPY RETURNDATASIZE PUSH1 0x0 REVERT JUMPDEST POP POP POP POP PUSH1 0x40 MLOAD RETURNDATASIZE PUSH1 0x1F NOT PUSH1 0x1F DUP3 ADD AND DUP3 ADD DUP1 PUSH1 0x40 MSTORE POP DUP2 ADD SWAP1 PUSH2 0xB45 SWAP2 SWAP1 PUSH2 0xF96 JUMP JUMPDEST PUSH1 0x1 PUSH1 0x1 PUSH1 0xA0 SHL SUB AND ORIGIN PUSH1 0x1 PUSH1 0x1 PUSH1 0xA0 SHL SUB AND EQ JUMPDEST PUSH2 0xB79 JUMPI PUSH1 0x40 MLOAD PUSH4 0x372463E3 PUSH1 0xE0 SHL DUP2 MSTORE CALLER PUSH1 0x4 DUP3 ADD MSTORE PUSH1 0x24 ADD PUSH2 0x280 JUMP JUMPDEST PUSH2 0x6EB DUP5 PUSH1 0x60 SHL PUSH1 0x1 PUSH1 0x1 PUSH1 0x60 SHL SUB NOT AND DUP5 PUSH1 0x60 SHL PUSH1 0x1 PUSH1 0x1 PUSH1 0x60 SHL SUB NOT AND DUP5 PUSH1 0x1 PUSH1 0x1 PUSH1 0xE0 SHL SUB NOT AND JUMPDEST PUSH1 0x0 PUSH2 0xBB8 PUSH1 0x49 SLOAD PUSH1 0x1 PUSH1 0x1 PUSH1 0xA0 SHL SUB AND SWAP1 JUMP JUMPDEST PUSH1 0x1 PUSH1 0x1 PUSH1 0xA0 SHL SUB AND PUSH4 0x1BED5241 PUSH1 0x40 MLOAD DUP2 PUSH4 0xFFFFFFFF AND PUSH1 0xE0 SHL DUP2 MSTORE PUSH1 0x4 ADD PUSH1 0x20 PUSH1 0x40 MLOAD DUP1 DUP4 SUB DUP2 DUP7 GAS STATICCALL ISZERO DUP1 ISZERO PUSH2 0xBF5 JUMPI RETURNDATASIZE PUSH1 0x0 DUP1 RETURNDATACOPY RETURNDATASIZE PUSH1 0x0 REVERT JUMPDEST POP POP POP POP PUSH1 0x40 MLOAD RETURNDATASIZE PUSH1 0x1F NOT PUSH1 0x1F DUP3 ADD AND DUP3 ADD DUP1 PUSH1 0x40 MSTORE POP DUP2 ADD SWAP1 PUSH2 0xC19 SWAP2 SWAP1 PUSH2 0xF2A JUMP JUMPDEST SWAP1 POP PUSH1 0x1 DUP2 ISZERO ISZERO EQ ISZERO PUSH2 0xCEA JUMPI PUSH1 0x49 SLOAD PUSH1 0x1 PUSH1 0x1 PUSH1 0xA0 SHL SUB AND PUSH1 0x1 PUSH1 0x1 PUSH1 0xA0 SHL SUB AND PUSH4 0x7AE1CFCA CALLER PUSH1 0x40 MLOAD PUSH1 0x20 ADD PUSH2 0xC51 SWAP2 SWAP1 PUSH2 0xF53 JUMP JUMPDEST PUSH1 0x40 MLOAD PUSH1 0x20 DUP2 DUP4 SUB SUB DUP2 MSTORE SWAP1 PUSH1 0x40 MSTORE DUP1 MLOAD SWAP1 PUSH1 0x20 ADD KECCAK256 PUSH1 0x40 MLOAD DUP3 PUSH4 0xFFFFFFFF AND PUSH1 0xE0 SHL DUP2 MSTORE PUSH1 0x4 ADD PUSH2 0xC85 SWAP2 DUP2 MSTORE PUSH1 0x20 ADD SWAP1 JUMP JUMPDEST PUSH1 0x20 PUSH1 0x40 MLOAD DUP1 DUP4 SUB DUP2 DUP7 GAS STATICCALL ISZERO DUP1 ISZERO PUSH2 0xCA2 JUMPI RETURNDATASIZE PUSH1 0x0 DUP1 RETURNDATACOPY RETURNDATASIZE PUSH1 0x0 REVERT JUMPDEST POP POP POP POP PUSH1 0x40 MLOAD RETURNDATASIZE PUSH1 0x1F NOT PUSH1 0x1F DUP3 ADD AND DUP3 ADD DUP1 PUSH1 0x40 MSTORE POP DUP2 ADD SWAP1 PUSH2 0xCC6 SWAP2 SWAP1 PUSH2 0xF2A JUMP JUMPDEST PUSH2 0xCE5 JUMPI PUSH1 0x40 MLOAD PUSH4 0x372463E3 PUSH1 0xE0 SHL DUP2 MSTORE CALLER PUSH1 0x4 DUP3 ADD MSTORE PUSH1 0x24 ADD PUSH2 0x280 JUMP JUMPDEST PUSH2 0xE31 JUMP JUMPDEST PUSH1 0x49 SLOAD PUSH1 0x1 PUSH1 0x1 PUSH1 0xA0 SHL SUB AND PUSH1 0x1 PUSH1 0x1 PUSH1 0xA0 SHL SUB AND PUSH4 0x7AE1CFCA CALLER PUSH1 0x40 MLOAD PUSH1 0x20 ADD PUSH2 0xD15 SWAP2 SWAP1 PUSH2 0xF53 JUMP JUMPDEST PUSH1 0x40 MLOAD PUSH1 0x20 DUP2 DUP4 SUB SUB DUP2 MSTORE SWAP1 PUSH1 0x40 MSTORE DUP1 MLOAD SWAP1 PUSH1 0x20 ADD KECCAK256 PUSH1 0x40 MLOAD DUP3 PUSH4 0xFFFFFFFF AND PUSH1 0xE0 SHL DUP2 MSTORE PUSH1 0x4 ADD PUSH2 0xD49 SWAP2 DUP2 MSTORE PUSH1 0x20 ADD SWAP1 JUMP JUMPDEST PUSH1 0x20 PUSH1 0x40 MLOAD DUP1 DUP4 SUB DUP2 DUP7 GAS STATICCALL ISZERO DUP1 ISZERO PUSH2 0xD66 JUMPI RETURNDATASIZE PUSH1 0x0 DUP1 RETURNDATACOPY RETURNDATASIZE PUSH1 0x0 REVERT JUMPDEST POP POP POP POP PUSH1 0x40 MLOAD RETURNDATASIZE PUSH1 0x1F NOT PUSH1 0x1F DUP3 ADD AND DUP3 ADD DUP1 PUSH1 0x40 MSTORE POP DUP2 ADD SWAP1 PUSH2 0xD8A SWAP2 SWAP1 PUSH2 0xF2A JUMP JUMPDEST DUP1 PUSH2 0xE12 JUMPI POP PUSH1 0x49 SLOAD PUSH1 0x1 PUSH1 0x1 PUSH1 0xA0 SHL SUB AND PUSH1 0x1 PUSH1 0x1 PUSH1 0xA0 SHL SUB AND PUSH4 0xA75B87D2 PUSH1 0x40 MLOAD DUP2 PUSH4 0xFFFFFFFF AND PUSH1 0xE0 SHL DUP2 MSTORE PUSH1 0x4 ADD PUSH1 0x20 PUSH1 0x40 MLOAD DUP1 DUP4 SUB DUP2 DUP7 GAS STATICCALL ISZERO DUP1 ISZERO PUSH2 0xDD9 JUMPI RETURNDATASIZE PUSH1 0x0 DUP1 RETURNDATACOPY RETURNDATASIZE PUSH1 0x0 REVERT JUMPDEST POP POP POP POP PUSH1 0x40 MLOAD RETURNDATASIZE PUSH1 0x1F NOT PUSH1 0x1F DUP3 ADD AND DUP3 ADD DUP1 PUSH1 0x40 MSTORE POP DUP2 ADD SWAP1 PUSH2 0xDFD SWAP2 SWAP1 PUSH2 0xF96 JUMP JUMPDEST PUSH1 0x1 PUSH1 0x1 PUSH1 0xA0 SHL SUB AND ORIGIN PUSH1 0x1 PUSH1 0x1 PUSH1 0xA0 SHL SUB AND EQ JUMPDEST PUSH2 0xE31 JUMPI PUSH1 0x40 MLOAD PUSH4 0x372463E3 PUSH1 0xE0 SHL DUP2 MSTORE CALLER PUSH1 0x4 DUP3 ADD MSTORE PUSH1 0x24 ADD PUSH2 0x280 JUMP JUMPDEST PUSH1 0x0 DUP5 DUP2 MSTORE PUSH1 0x4B PUSH1 0x20 SWAP1 DUP2 MSTORE PUSH1 0x40 DUP1 DUP4 KECCAK256 DUP7 DUP5 MSTORE DUP3 MSTORE DUP1 DUP4 KECCAK256 DUP6 DUP5 MSTORE SWAP1 SWAP2 MSTORE DUP1 DUP3 KECCAK256 DUP1 SLOAD PUSH1 0xFF NOT AND PUSH1 0x1 OR SWAP1 SSTORE MLOAD DUP4 SWAP2 DUP6 SWAP2 DUP8 SWAP2 PUSH32 0x6F50375045128971C5469D343039BA7B8E30A5B190453737B28BDA6F7A306771 SWAP2 LOG4 POP POP POP POP JUMP JUMPDEST PUSH1 0x0 DUP1 PUSH1 0x0 PUSH1 0x60 DUP5 DUP7 SUB SLT ISZERO PUSH2 0xEA3 JUMPI PUSH1 0x0 DUP1 REVERT JUMPDEST POP POP DUP2 CALLDATALOAD SWAP4 PUSH1 0x20 DUP4 ADD CALLDATALOAD SWAP4 POP PUSH1 0x40 SWAP1 SWAP3 ADD CALLDATALOAD SWAP2 SWAP1 POP JUMP JUMPDEST PUSH1 0x1 PUSH1 0x1 PUSH1 0xA0 SHL SUB DUP2 AND DUP2 EQ PUSH2 0xECF JUMPI PUSH1 0x0 DUP1 REVERT JUMPDEST POP JUMP JUMPDEST PUSH1 0x0 DUP1 PUSH1 0x0 PUSH1 0x60 DUP5 DUP7 SUB SLT ISZERO PUSH2 0xEE7 JUMPI PUSH1 0x0 DUP1 REVERT JUMPDEST DUP4 CALLDATALOAD PUSH2 0xEF2 DUP2 PUSH2 0xEBA JUMP JUMPDEST SWAP3 POP PUSH1 0x20 DUP5 ADD CALLDATALOAD PUSH2 0xF02 DUP2 PUSH2 0xEBA JUMP JUMPDEST SWAP2 POP PUSH1 0x40 DUP5 ADD CALLDATALOAD PUSH1 0x1 PUSH1 0x1 PUSH1 0xE0 SHL SUB NOT DUP2 AND DUP2 EQ PUSH2 0xF1F JUMPI PUSH1 0x0 DUP1 REVERT JUMPDEST DUP1 SWAP2 POP POP SWAP3 POP SWAP3 POP SWAP3 JUMP JUMPDEST PUSH1 0x0 PUSH1 0x20 DUP3 DUP5 SUB SLT ISZERO PUSH2 0xF3C JUMPI PUSH1 0x0 DUP1 REVERT JUMPDEST DUP2 MLOAD DUP1 ISZERO ISZERO DUP2 EQ PUSH2 0xF4C JUMPI PUSH1 0x0 DUP1 REVERT JUMPDEST SWAP4 SWAP3 POP POP POP JUMP JUMPDEST PUSH32 0x7068616E746F6D2E636F6E74726163742E726567697374657265640000000000 DUP2 MSTORE PUSH1 0x60 SWAP2 SWAP1 SWAP2 SHL PUSH12 0xFFFFFFFFFFFFFFFFFFFFFFFF NOT AND PUSH1 0x1B DUP3 ADD MSTORE PUSH1 0x2F ADD SWAP1 JUMP JUMPDEST PUSH1 0x0 PUSH1 0x20 DUP3 DUP5 SUB SLT ISZERO PUSH2 0xFA8 JUMPI PUSH1 0x0 DUP1 REVERT JUMPDEST DUP2 MLOAD PUSH2 0xF4C DUP2 PUSH2 0xEBA JUMP INVALID LOG2 PUSH5 0x6970667358 0x22 SLT KECCAK256 0xA7 0xAF 0xEB 0xFC SWAP9 CALLCODE 0xAC PUSH6 0xC7774E1B231 0xCF SWAP14 0xBE MSTORE8 DIFFICULTY 0xCE 0xB9 0x4C 0xA9 0xED PUSH19 0xA280983CDB2FEE64736F6C634300080A003300 ",
  "sha1": "f6b9d8ef410c96b03fbf1fd53c7fa25ad5ab11e8",
  "source": "/* SPDX-License-Identifier: MIT */\npragma solidity =0.8.10;\n\n/* Package Imports */\nimport \"../libs/DSAuth.sol\";\n\n/* Internal Imports */\nimport {PhantomStorageMixin} from \"../mixins/PhantomStorageMixin.sol\";\n\n/* Internal Interface Imports */\nimport {IPhantomGuard} from \"../../interfaces/auth/IPhantomGuard.sol\";\n\ncontract DSGuardEvents {\n}\n\ncontract PhantomGuard is DSAuthority, DSGuardEvents, PhantomStorageMixin, IPhantomGuard {\n    bytes32 public constant ANY = bytes32(type(uint256).max);\n\n    mapping(bytes32 => mapping(bytes32 => mapping(bytes32 => bool))) public acl;\n\n    constructor(address storageAddress) PhantomStorageMixin(storageAddress) {\n        return;\n    }\n\n    function canCall(address src_, address dst_, bytes4 sig_) public view returns (bool) {\n        bytes32 src = bytes32(bytes20(src_));\n        bytes32 dst = bytes32(bytes20(dst_));\n        bytes32 sig = bytes32(sig_);\n\n        return\n            acl[src][dst][sig] ||\n            acl[src][dst][ANY] ||\n            acl[src][ANY][sig] ||\n            acl[src][ANY][ANY] ||\n            acl[ANY][dst][sig] ||\n            acl[ANY][dst][ANY] ||\n            acl[ANY][ANY][sig] ||\n            acl[ANY][ANY][ANY];\n    }\n\n    function permit(bytes32 src, bytes32 dst, bytes32 sig) public onlyRegisteredContracts {\n        acl[src][dst][sig] = true;\n        emit LogPermit(src, dst, sig);\n    }\n\n    function forbid(bytes32 src, bytes32 dst, bytes32 sig) public onlyRegisteredContracts {\n        acl[src][dst][sig] = false;\n        emit LogForbid(src, dst, sig);\n    }\n\n    function permit(address src, address dst, bytes4 sig) public onlyRegisteredContracts {\n        permit(bytes32(bytes20(src)), bytes32(bytes20(dst)), bytes32(sig));\n    }\n\n    function forbid(address src, address dst, bytes4 sig) public onlyRegisteredContracts {\n        forbid(bytes32(bytes20(src)), bytes32(bytes20(dst)), bytes32(sig));\n    }\n}",
  "sourcePath": "contracts/auth/PhantomGuard.sol",
  "type": "contract"
}