{
  "abi": [
    {
      "inputs": [
        {
          "internalType": "address",
          "name": "storageAddress",
          "type": "address"
        },
        {
          "internalType": "uint256",
          "name": "compoindingPeriodsPerYear",
          "type": "uint256"
        }
      ],
      "stateMutability": "nonpayable",
      "type": "constructor"
    },
    {
      "inputs": [
        {
          "internalType": "uint256",
          "name": "x",
          "type": "uint256"
        }
      ],
      "name": "PRBMathUD60x18__Exp2InputTooBig",
      "type": "error"
    },
    {
      "inputs": [
        {
          "internalType": "uint256",
          "name": "x",
          "type": "uint256"
        }
      ],
      "name": "PRBMathUD60x18__FromUintOverflow",
      "type": "error"
    },
    {
      "inputs": [
        {
          "internalType": "uint256",
          "name": "x",
          "type": "uint256"
        }
      ],
      "name": "PRBMathUD60x18__LogInputTooSmall",
      "type": "error"
    },
    {
      "inputs": [
        {
          "internalType": "uint256",
          "name": "prod1",
          "type": "uint256"
        }
      ],
      "name": "PRBMath__MulDivFixedPointOverflow",
      "type": "error"
    },
    {
      "inputs": [
        {
          "internalType": "uint256",
          "name": "prod1",
          "type": "uint256"
        },
        {
          "internalType": "uint256",
          "name": "denominator",
          "type": "uint256"
        }
      ],
      "name": "PRBMath__MulDivOverflow",
      "type": "error"
    },
    {
      "inputs": [
        {
          "internalType": "address",
          "name": "contractAddress",
          "type": "address"
        }
      ],
      "name": "PhantomStorageMixin__ContractNotFoundByAddressOrIsOutdated",
      "type": "error"
    },
    {
      "inputs": [
        {
          "internalType": "bytes32",
          "name": "contractName",
          "type": "bytes32"
        }
      ],
      "name": "PhantomStorageMixin__ContractNotFoundByNameOrIsOutdated",
      "type": "error"
    },
    {
      "inputs": [
        {
          "internalType": "address",
          "name": "user",
          "type": "address"
        }
      ],
      "name": "PhantomStorageMixin__UserIsNotGuardian",
      "type": "error"
    },
    {
      "anonymous": false,
      "inputs": [
        {
          "indexed": true,
          "internalType": "address",
          "name": "owner",
          "type": "address"
        },
        {
          "indexed": true,
          "internalType": "address",
          "name": "spender",
          "type": "address"
        },
        {
          "indexed": false,
          "internalType": "uint256",
          "name": "value",
          "type": "uint256"
        }
      ],
      "name": "Approval",
      "type": "event"
    },
    {
      "anonymous": false,
      "inputs": [
        {
          "indexed": false,
          "internalType": "uint256",
          "name": "epochNumber",
          "type": "uint256"
        },
        {
          "indexed": false,
          "internalType": "uint256",
          "name": "rewardYield",
          "type": "uint256"
        },
        {
          "indexed": false,
          "internalType": "uint256",
          "name": "scalingFactor",
          "type": "uint256"
        }
      ],
      "name": "Phantom_Rebase",
      "type": "event"
    },
    {
      "anonymous": false,
      "inputs": [
        {
          "indexed": false,
          "internalType": "uint256",
          "name": "oldRewardRate",
          "type": "uint256"
        },
        {
          "indexed": false,
          "internalType": "uint256",
          "name": "newRewardRate",
          "type": "uint256"
        }
      ],
      "name": "Phantom_RewardRateUpdate",
      "type": "event"
    },
    {
      "anonymous": false,
      "inputs": [
        {
          "indexed": true,
          "internalType": "address",
          "name": "from",
          "type": "address"
        },
        {
          "indexed": true,
          "internalType": "address",
          "name": "to",
          "type": "address"
        },
        {
          "indexed": false,
          "internalType": "uint256",
          "name": "value",
          "type": "uint256"
        }
      ],
      "name": "Transfer",
      "type": "event"
    },
    {
      "inputs": [],
      "name": "DOMAIN_SEPARATOR",
      "outputs": [
        {
          "internalType": "bytes32",
          "name": "",
          "type": "bytes32"
        }
      ],
      "stateMutability": "view",
      "type": "function"
    },
    {
      "inputs": [],
      "name": "PERMIT_TYPEHASH",
      "outputs": [
        {
          "internalType": "bytes32",
          "name": "",
          "type": "bytes32"
        }
      ],
      "stateMutability": "view",
      "type": "function"
    },
    {
      "inputs": [],
      "name": "_apr",
      "outputs": [
        {
          "internalType": "uint256",
          "name": "",
          "type": "uint256"
        }
      ],
      "stateMutability": "view",
      "type": "function"
    },
    {
      "inputs": [],
      "name": "_apy",
      "outputs": [
        {
          "internalType": "uint256",
          "name": "",
          "type": "uint256"
        }
      ],
      "stateMutability": "view",
      "type": "function"
    },
    {
      "inputs": [
        {
          "internalType": "address",
          "name": "",
          "type": "address"
        }
      ],
      "name": "_balanceOf",
      "outputs": [
        {
          "internalType": "uint256",
          "name": "",
          "type": "uint256"
        }
      ],
      "stateMutability": "view",
      "type": "function"
    },
    {
      "inputs": [],
      "name": "_compoundingPeriodsPerYear",
      "outputs": [
        {
          "internalType": "uint256",
          "name": "",
          "type": "uint256"
        }
      ],
      "stateMutability": "view",
      "type": "function"
    },
    {
      "inputs": [],
      "name": "_newCompoundingPeriodsPerYear",
      "outputs": [
        {
          "internalType": "uint256",
          "name": "",
          "type": "uint256"
        }
      ],
      "stateMutability": "view",
      "type": "function"
    },
    {
      "inputs": [],
      "name": "_rewardRate",
      "outputs": [
        {
          "internalType": "uint256",
          "name": "",
          "type": "uint256"
        }
      ],
      "stateMutability": "view",
      "type": "function"
    },
    {
      "inputs": [],
      "name": "_scalingFactorBase",
      "outputs": [
        {
          "internalType": "uint256",
          "name": "",
          "type": "uint256"
        }
      ],
      "stateMutability": "view",
      "type": "function"
    },
    {
      "inputs": [],
      "name": "_timestampOfLastRebase",
      "outputs": [
        {
          "internalType": "uint256",
          "name": "",
          "type": "uint256"
        }
      ],
      "stateMutability": "view",
      "type": "function"
    },
    {
      "inputs": [],
      "name": "_totalSupplyInternal",
      "outputs": [
        {
          "internalType": "uint256",
          "name": "",
          "type": "uint256"
        }
      ],
      "stateMutability": "view",
      "type": "function"
    },
    {
      "inputs": [
        {
          "internalType": "address",
          "name": "",
          "type": "address"
        },
        {
          "internalType": "address",
          "name": "",
          "type": "address"
        }
      ],
      "name": "allowance",
      "outputs": [
        {
          "internalType": "uint256",
          "name": "",
          "type": "uint256"
        }
      ],
      "stateMutability": "view",
      "type": "function"
    },
    {
      "inputs": [
        {
          "internalType": "address",
          "name": "spender",
          "type": "address"
        },
        {
          "internalType": "uint256",
          "name": "amount",
          "type": "uint256"
        }
      ],
      "name": "approve",
      "outputs": [
        {
          "internalType": "bool",
          "name": "",
          "type": "bool"
        }
      ],
      "stateMutability": "nonpayable",
      "type": "function"
    },
    {
      "inputs": [],
      "name": "apr",
      "outputs": [
        {
          "internalType": "uint256",
          "name": "",
          "type": "uint256"
        }
      ],
      "stateMutability": "view",
      "type": "function"
    },
    {
      "inputs": [],
      "name": "apy",
      "outputs": [
        {
          "internalType": "uint256",
          "name": "",
          "type": "uint256"
        }
      ],
      "stateMutability": "view",
      "type": "function"
    },
    {
      "inputs": [
        {
          "internalType": "address",
          "name": "user",
          "type": "address"
        }
      ],
      "name": "balanceOf",
      "outputs": [
        {
          "internalType": "uint256",
          "name": "",
          "type": "uint256"
        }
      ],
      "stateMutability": "view",
      "type": "function"
    },
    {
      "inputs": [
        {
          "internalType": "address",
          "name": "fromUser",
          "type": "address"
        },
        {
          "internalType": "uint256",
          "name": "burnAmount",
          "type": "uint256"
        }
      ],
      "name": "burn",
      "outputs": [],
      "stateMutability": "nonpayable",
      "type": "function"
    },
    {
      "inputs": [],
      "name": "decimals",
      "outputs": [
        {
          "internalType": "uint8",
          "name": "",
          "type": "uint8"
        }
      ],
      "stateMutability": "view",
      "type": "function"
    },
    {
      "inputs": [
        {
          "internalType": "uint256",
          "name": "epochNumber",
          "type": "uint256"
        }
      ],
      "name": "doRebase",
      "outputs": [],
      "stateMutability": "nonpayable",
      "type": "function"
    },
    {
      "inputs": [
        {
          "internalType": "uint256",
          "name": "internalAmount",
          "type": "uint256"
        }
      ],
      "name": "externalValueOf",
      "outputs": [
        {
          "internalType": "uint256",
          "name": "",
          "type": "uint256"
        }
      ],
      "stateMutability": "view",
      "type": "function"
    },
    {
      "inputs": [],
      "name": "interestPerPeriod",
      "outputs": [
        {
          "internalType": "uint256",
          "name": "",
          "type": "uint256"
        }
      ],
      "stateMutability": "view",
      "type": "function"
    },
    {
      "inputs": [
        {
          "internalType": "address",
          "name": "user",
          "type": "address"
        }
      ],
      "name": "internalBalanceOf",
      "outputs": [
        {
          "internalType": "uint256",
          "name": "",
          "type": "uint256"
        }
      ],
      "stateMutability": "view",
      "type": "function"
    },
    {
      "inputs": [
        {
          "internalType": "address",
          "name": "",
          "type": "address"
        }
      ],
      "name": "internalBalances",
      "outputs": [
        {
          "internalType": "uint256",
          "name": "",
          "type": "uint256"
        }
      ],
      "stateMutability": "view",
      "type": "function"
    },
    {
      "inputs": [
        {
          "internalType": "uint256",
          "name": "amount",
          "type": "uint256"
        }
      ],
      "name": "internalValueOf",
      "outputs": [
        {
          "internalType": "uint256",
          "name": "",
          "type": "uint256"
        }
      ],
      "stateMutability": "view",
      "type": "function"
    },
    {
      "inputs": [
        {
          "internalType": "address",
          "name": "inUser",
          "type": "address"
        },
        {
          "internalType": "uint256",
          "name": "inAmount",
          "type": "uint256"
        }
      ],
      "name": "mint",
      "outputs": [],
      "stateMutability": "nonpayable",
      "type": "function"
    },
    {
      "inputs": [],
      "name": "name",
      "outputs": [
        {
          "internalType": "string",
          "name": "",
          "type": "string"
        }
      ],
      "stateMutability": "view",
      "type": "function"
    },
    {
      "inputs": [
        {
          "internalType": "address",
          "name": "",
          "type": "address"
        }
      ],
      "name": "nonces",
      "outputs": [
        {
          "internalType": "uint256",
          "name": "",
          "type": "uint256"
        }
      ],
      "stateMutability": "view",
      "type": "function"
    },
    {
      "inputs": [],
      "name": "periodsPerYear",
      "outputs": [
        {
          "internalType": "uint256",
          "name": "",
          "type": "uint256"
        }
      ],
      "stateMutability": "view",
      "type": "function"
    },
    {
      "inputs": [
        {
          "internalType": "address",
          "name": "owner",
          "type": "address"
        },
        {
          "internalType": "address",
          "name": "spender",
          "type": "address"
        },
        {
          "internalType": "uint256",
          "name": "value",
          "type": "uint256"
        },
        {
          "internalType": "uint256",
          "name": "deadline",
          "type": "uint256"
        },
        {
          "internalType": "uint8",
          "name": "v",
          "type": "uint8"
        },
        {
          "internalType": "bytes32",
          "name": "r",
          "type": "bytes32"
        },
        {
          "internalType": "bytes32",
          "name": "s",
          "type": "bytes32"
        }
      ],
      "name": "permit",
      "outputs": [],
      "stateMutability": "nonpayable",
      "type": "function"
    },
    {
      "inputs": [],
      "name": "relativeCurrentTimeStamp",
      "outputs": [
        {
          "internalType": "uint256",
          "name": "",
          "type": "uint256"
        }
      ],
      "stateMutability": "view",
      "type": "function"
    },
    {
      "inputs": [],
      "name": "rewardRate",
      "outputs": [
        {
          "internalType": "uint256",
          "name": "",
          "type": "uint256"
        }
      ],
      "stateMutability": "view",
      "type": "function"
    },
    {
      "inputs": [],
      "name": "rewardYield",
      "outputs": [
        {
          "internalType": "uint256",
          "name": "",
          "type": "uint256"
        }
      ],
      "stateMutability": "view",
      "type": "function"
    },
    {
      "inputs": [],
      "name": "scalingFactor",
      "outputs": [
        {
          "internalType": "uint256",
          "name": "",
          "type": "uint256"
        }
      ],
      "stateMutability": "view",
      "type": "function"
    },
    {
      "inputs": [],
      "name": "scalingFactorBase",
      "outputs": [
        {
          "internalType": "uint256",
          "name": "",
          "type": "uint256"
        }
      ],
      "stateMutability": "view",
      "type": "function"
    },
    {
      "inputs": [],
      "name": "secondsPerCompoundingPeriod",
      "outputs": [
        {
          "internalType": "uint256",
          "name": "",
          "type": "uint256"
        }
      ],
      "stateMutability": "view",
      "type": "function"
    },
    {
      "inputs": [],
      "name": "symbol",
      "outputs": [
        {
          "internalType": "string",
          "name": "",
          "type": "string"
        }
      ],
      "stateMutability": "view",
      "type": "function"
    },
    {
      "inputs": [],
      "name": "totalSupply",
      "outputs": [
        {
          "internalType": "uint256",
          "name": "",
          "type": "uint256"
        }
      ],
      "stateMutability": "view",
      "type": "function"
    },
    {
      "inputs": [
        {
          "internalType": "address",
          "name": "recipient",
          "type": "address"
        },
        {
          "internalType": "uint256",
          "name": "amount",
          "type": "uint256"
        }
      ],
      "name": "transfer",
      "outputs": [
        {
          "internalType": "bool",
          "name": "",
          "type": "bool"
        }
      ],
      "stateMutability": "nonpayable",
      "type": "function"
    },
    {
      "inputs": [
        {
          "internalType": "address",
          "name": "from",
          "type": "address"
        },
        {
          "internalType": "address",
          "name": "to",
          "type": "address"
        },
        {
          "internalType": "uint256",
          "name": "amount",
          "type": "uint256"
        }
      ],
      "name": "transferFrom",
      "outputs": [
        {
          "internalType": "bool",
          "name": "",
          "type": "bool"
        }
      ],
      "stateMutability": "nonpayable",
      "type": "function"
    },
    {
      "inputs": [
        {
          "internalType": "uint256",
          "name": "newPeriods",
          "type": "uint256"
        }
      ],
      "name": "updateCompoundingPeriodsPeriodYear",
      "outputs": [],
      "stateMutability": "nonpayable",
      "type": "function"
    },
    {
      "inputs": [
        {
          "internalType": "uint256",
          "name": "newRewardRate",
          "type": "uint256"
        }
      ],
      "name": "updateRewardRate",
      "outputs": [],
      "stateMutability": "nonpayable",
      "type": "function"
    }
  ],
  "bytecode": "60126101408181527139b2b1bab934ba3c9730b2323932b9b9b7b360711b61016090815260e0918252600d6101809081526c73656375726974792e6e616d6560981b6101a0526101005261020060405260136101c09081527f73656375726974792e72656769737465726564000000000000000000000000006101e05261012052909160009162000093918391906200147e565b506020828101518051620000ae92600185019201906200147e565b5060408201518051620000cc9160028401916020909101906200147e565b50506040805161032081018252601b6102e082019081527f7068616e746f6d2e636f6e7472616374732e616c706861737761700000000000610300830152610100820190815282518084018452601a8082527f7068616e746f6d2e636f6e7472616374732e666f756e646572730000000000006020838101919091526101208501929092528451808601865260198082527f7068616e746f6d2e636f6e7472616374732e7374616b696e67000000000000008285015261014086019190915285518087018752601f81527f7068616e746f6d2e636f6e7472616374732e7374616b696e677761726d75700081850152610160860152855180870187529081527f7068616e746f6d2e636f6e7472616374732e626f6e64696e67000000000000008184015261018085015284518086018652601581527f7068616e746f6d2e636f6e7472616374732e70686d0000000000000000000000818401526101a08501528451808601865260168082527f7068616e746f6d2e636f6e7472616374732e7370686d00000000000000000000828501526101c0860191909152855180870187528181527f7068616e746f6d2e636f6e7472616374732e6770686d00000000000000000000818501526101e0860152855180870187528181527f7068616e746f6d2e636f6e7472616374732e6170686d0000000000000000000081850152610200860152855180870187529081527f7068616e746f6d2e636f6e7472616374732e6670686d000000000000000000008184015261022085015284518086018652601781527f7068616e746f6d2e636f6e7472616374732e7661756c7400000000000000000081840152610240850152845180860186528181527f7068616e746f6d2e636f6e7472616374732e74726561737572790000000000008184015261026085015284518086018652601c81527f7068616e746f6d2e636f6e7472616374732e6465785f726f75746572000000008184015261028085015284518086018652601e81527f7068616e746f6d2e636f6e7472616374732e796561726e5f726f757465720000818401526102a0850152845180860186529081527f7068616e746f6d2e636f6e7472616374732e6578656375746f72000000000000818301526102c0840152908252825160c08101909352602a6060840181815292945090840192918291620044466080840139815260200160405180606001604052806040518060600160405280602b8152602001620043cb602b913981526020016040518060400160405280602081526020017f7068616e746f6d2e74726561737572792e6163636f756e745f6b65792e64616f8152508152602001604051806060016040528060258152602001620045346025913990528152604080518082018252601981527f7068616e746f6d2e74726561737572792e62616c616e636573000000000000006020828101919091529283015291835281516101c0810190925260246101608301818152938201938392830191829160c0850191829190620043616101808801398152602001604051806060016040528060258152602001620045a3602591398152602001604051806060016040528060248152602001620045596024913981526020016040518060600160405280602b8152602001620043f6602b91398152602001604051806060016040528060248152602001620045c8602491398152508152602001604051806060016040528060258152602001620044c06025913981526020016040518060600160405280602981526020016200450b6029913981526020016040518060400160405280601b81526020017f7068616e746f6d2e616c6c6f6361746f722e746f6b656e732e6c70000000000081525081526020016040518060400160405280601f81526020017f7068616e746f6d2e616c6c6f6361746f722e746f6b656e732e73696e676c6500815250815250815250815260200160405180610100016040528060405180604001604052806040518060400160405280601a81526020017f7068616e746f6d2e626f6e64696e672e757365722e6e6f6e636500000000000081525081526020016040518060600160405280602b815260200162004470602b913981525081526020016040518060400160405280601d81526020017f7068616e746f6d2e626f6e64696e672e76657374696e67626c6f636b7300000081525081526020016040518060400160405280601c81526020017f7068616e746f6d2e626f6e64696e672e70726f6669745f726174696f0000000081525081526020016040518060400160405280601881526020017f7068616e746f6d2e626f6e64696e672e646973636f756e74000000000000000081525081526020016040518060400160405280601b81526020017f7068616e746f6d2e626f6e64696e672e69735f72656465656d6564000000000081525081526020016040518060400160405280601681526020017f7068616e746f6d2e626f6e64696e672e7061796f75740000000000000000000081525081526020016040518060400160405280601e81526020017f7068616e746f6d2e626f6e64696e672e76657374735f61745f626c6f636b000081525081526020016040518060400160405280601881526020017f7068616e746f6d2e626f6e64696e672e69735f76616c69640000000000000000815250815250815260200160405180604001604052806040518060400160405280601d81526020017f7068616e746f6d2e7374616b696e672e726562617365436f756e7465720000008152508152602001604051806060016040528060228152602001620046976022913990528152604080516101408101909152602160e08201818152602090930192829160608301918291620046106101008601398152602001604051806060016040528060248152602001620043a76024913981526020016040518060600160405280602681526020016200433b60269139815260408051808201825260208082527f7068616e746f6d2e666f756e6465722e636c61696d732e6c617374436c61696d828201529283015291835281516060810183528082018281527f7068616e746f6d2e666f756e6465722e6368616e6765732e6e65774f776e65728285015281528382015281518083018352601d81527f7068616e746f6d2e666f756e6465722e76657374696e675374617274730000008183015292820192909252918352815161016081019092526022610100830181815293909101928291620043856101208401398152602001604051806060016040528060238152602001620046316023913981526020016040518060600160405280602581526020016200449b602591398152602001604051806060016040528060268152602001620044e5602691398152602001604051806060016040528060258152602001620044216025913981526020016040518060600160405280602681526020016200457d602691398152602001604051806060016040528060248152602001620045ec6024913981526020016040518060600160405280602a8152602001620046b9602a9139815250815260200160405180608001604052806040518060400160405280601c81526020017f7068616e746f6d2e676f7665726e6f722e766f74696e6744656c61790000000081525081526020016040518060400160405280601d81526020017f7068616e746f6d2e676f7665726e6f722e766f74696e67506572696f6400000081525081526020016040518060600160405280602181526020016200465460219139815260200160405180606001604052806022815260200162004675602291399052905280518051805160039291839162000be49183916020909101906200147e565b50602082810151805162000bff92600185019201906200147e565b506040820151805162000c1d9160028401916020909101906200147e565b506060820151805162000c3b9160038401916020909101906200147e565b506080820151805162000c599160048401916020909101906200147e565b5060a0820151805162000c779160058401916020909101906200147e565b5060c0820151805162000c959160068401916020909101906200147e565b5060e0820151805162000cb39160078401916020909101906200147e565b50610100820151805162000cd29160088401916020909101906200147e565b50610120820151805162000cf19160098401916020909101906200147e565b50610140820151805162000d1091600a8401916020909101906200147e565b50610160820151805162000d2f91600b8401916020909101906200147e565b50610180820151805162000d4e91600c8401916020909101906200147e565b506101a0820151805162000d6d91600d8401916020909101906200147e565b506101c0820151805162000d8c91600e8401916020909101906200147e565b505050602082810151805180519192600f85019262000daf92849201906200147e565b50602082810151805180519192600185019262000dd092849201906200147e565b50602082810151805162000deb92600185019201906200147e565b506040820151805162000e099160028401916020909101906200147e565b5050506040820151805162000e299160048401916020909101906200147e565b5050506040820151805180518051805160148601939284929091839162000e56918391602001906200147e565b50602082810151805162000e7192600185019201906200147e565b506040820151805162000e8f9160028401916020909101906200147e565b506060820151805162000ead9160038401916020909101906200147e565b506080820151805162000ecb9160048401916020909101906200147e565b505050602082810151805162000ee892600585019201906200147e565b506040820151805162000f069160068401916020909101906200147e565b506060820151805162000f249160078401916020909101906200147e565b506080820151805162000f429160088401916020909101906200147e565b505050506060830151805180518051929350601d850192839162000f6c918391602001906200147e565b50602082810151805162000f8792600185019201906200147e565b505050602082810151805162000fa492600285019201906200147e565b506040820151805162000fc29160038401916020909101906200147e565b506060820151805162000fe09160048401916020909101906200147e565b506080820151805162000ffe9160058401916020909101906200147e565b5060a082015180516200101c9160068401916020909101906200147e565b5060c082015180516200103a9160078401916020909101906200147e565b5060e08201518051620010589160088401916020909101906200147e565b50505060808201518051805160268401916200107a918391602001906200147e565b5060208281015180516200109592600185019201906200147e565b50505060a08201518051805180516028850192918391620010be9183916020909101906200147e565b506020828101518051620010d992600185019201906200147e565b5060408201518051620010f79160028401916020909101906200147e565b5060608201518051620011159160038401916020909101906200147e565b50505060208281015180518051919260048501926200113892849201906200147e565b50505060408201518051620011589160058401916020909101906200147e565b50505060c082015180518051602e8401916200117a918391602001906200147e565b5060208281015180516200119592600185019201906200147e565b5060408201518051620011b39160028401916020909101906200147e565b5060608201518051620011d19160038401916020909101906200147e565b5060808201518051620011ef9160048401916020909101906200147e565b5060a082015180516200120d9160058401916020909101906200147e565b5060c082015180516200122b9160068401916020909101906200147e565b5060e08201518051620012499160078401916020909101906200147e565b50505060e08201518051805160368401916200126b918391602001906200147e565b5060208281015180516200128692600185019201906200147e565b5060408201518051620012a49160028401916020909101906200147e565b5060608201518051620012c29160038401916020909101906200147e565b50505050506d7068616e746f6d53746f7261676560901b603f55348015620012e957600080fd5b50604051620046e3380380620046e38339810160408190526200130c9162001524565b604080518082018252600e81526d5374616b6564205068616e746f6d60901b60208083019182528351808501855260048152637350484d60e01b918101919091526001603d55603e80546001600160a01b0319166001600160a01b0388161790558251929390926012926200138292916200147e565b508151620013989060419060208501906200147e565b5060ff81166080524660a052620013ae620013ce565b60c05250504260485550670de0b6b3a76400006047556049555062001641565b60007f8b73c3c69bb8fe3d512ecc4cf759cc79239f7b179b0ffacaa9a75d522b39400f604080516200140191906200159d565b60408051918290038220828201825260018352603160f81b6020938401528151928301939093528101919091527fc89efdaa54c0f20c7adf612882df0950f5a951637e0307cdcb4c672f298b8bc660608201524660808201523060a082015260c00160405160208183030381529060405280519060200120905090565b8280546200148c9062001560565b90600052602060002090601f016020900481019282620014b05760008555620014fb565b82601f10620014cb57805160ff1916838001178555620014fb565b82800160010185558215620014fb579182015b82811115620014fb578251825591602001919060010190620014de565b50620015099291506200150d565b5090565b5b808211156200150957600081556001016200150e565b600080604083850312156200153857600080fd5b82516001600160a01b03811681146200155057600080fd5b6020939093015192949293505050565b600181811c908216806200157557607f821691505b602082108114156200159757634e487b7160e01b600052602260045260246000fd5b50919050565b600080835481600182811c915080831680620015ba57607f831692505b6020808410821415620015db57634e487b7160e01b86526022600452602486fd5b818015620015f25760018114620016045762001633565b60ff1986168952848901965062001633565b60008a81526020902060005b868110156200162b5781548b82015290850190830162001610565b505084890196505b509498975050505050505050565b60805160a05160c051612cca620016716000396000610b6e01526000610b3e015260006103540152612cca6000f3fe608060405234801561001057600080fd5b50600436106102525760003560e01c8063610c40e4116101465780639ef3a261116100c3578063cca3e83211610087578063cca3e832146104b7578063d505accf146104d7578063dd62ed3e146104ea578063e2ffdc9314610515578063e6e90db81461051e578063ed3437f81461053157600080fd5b80639ef3a26114610477578063a9059cbb1461048a578063ae531d1c1461049d578063b35c8662146104a5578063cc1787c3146104ae57600080fd5b80637b0a47ee1161010a5780637b0a47ee146104215780637ecebe001461042957806395d89b41146104495780639d33c8d7146104515780639dc29fac1461046457600080fd5b8063610c40e4146103eb57806366bbd03b146103f357806368fd25cd146103fc57806370a082311461040557806378d81bfe1461041857600080fd5b806330adf81f116101d4578063451117ca11610198578063451117ca146103ab5780634d55fe5f146103cb57806356a2f1f3146103d357806357ded9c9146103db5780635d187338146103e357600080fd5b806330adf81f14610328578063313ce5671461034f5780633644e515146103885780633bcfc4b81461039057806340c10f191461039857600080fd5b80631ae813c71161021b5780631ae813c7146102bb5780631afa7cb2146102e45780632218e199146102f757806323b872dd1461030c57806326a5e9c41461031f57600080fd5b8062bec3291461025757806306fdde0314610273578063095ea7b3146102885780630af08314146102ab57806318160ddd146102b3575b600080fd5b610260604a5481565b6040519081526020015b60405180910390f35b61027b610539565b60405161026a91906128bc565b61029b610296366004612929565b6105c7565b604051901515815260200161026a565b610260610634565b610260610713565b6102606102c9366004612955565b6001600160a01b03166000908152604e602052604090205490565b6102606102f2366004612972565b61072e565b61030a610305366004612972565b610742565b005b61029b61031a36600461298b565b610a3c565b61026060465481565b6102607f6e71edae12b1b97f4d1f60370fef10105fa2faae0126114a169c64845d6126c981565b6103767f000000000000000000000000000000000000000000000000000000000000000081565b60405160ff909116815260200161026a565b610260610b3a565b604b54610260565b61030a6103a6366004612929565b610b90565b6102606103b9366004612955565b604e6020526000908152604090205481565b610260610e2c565b610260610e44565b604c54610260565b610260610e61565b604754610260565b61026060495481565b610260604d5481565b610260610413366004612955565b610e7a565b610260604c5481565b604d54610260565b610260610437366004612955565b60456020526000908152604090205481565b61027b610ea5565b61030a61045f366004612972565b610eb2565b61030a610472366004612929565b6111f2565b61030a610485366004612972565b611489565b61029b610498366004612929565b611758565b6102606117d4565b610260604b5481565b61026060485481565b6102606104c5366004612955565b60436020526000908152604090205481565b61030a6104e53660046129cc565b6117e4565b6102606104f8366004612a43565b604460209081526000928352604080842090915290825290205481565b61026060475481565b61026061052c366004612972565b611a44565b610260611a58565b6040805461054690612a7c565b80601f016020809104026020016040519081016040528092919081815260200182805461057290612a7c565b80156105bf5780601f10610594576101008083540402835291602001916105bf565b820191906000526020600020905b8154815290600101906020018083116105a257829003601f168201915b505050505081565b3360008181526044602090815260408083206001600160a01b038716808552925280832085905551919290917f8c5be1e5ebec7d5bd14f71427d1e84f3dd0314c0f7b2291e5b200ac8c7c3b925906106229086815260200190565b60405180910390a35060015b92915050565b6000806106b1610642611a58565b61064a611aa6565b6001600160a01b03166318160ddd6040518163ffffffff1660e01b8152600401602060405180830381865afa158015610687573d6000803e3d6000fd5b505050506040513d601f19601f820116820180604052508101906106ab9190612ab7565b90611b40565b6106c46106bc611a58565b61064a611b4c565b6106cc610713565b6106d69190612ae6565b6106e09190612ae6565b9050806106ef57600091505090565b61070d816107076106ff604d5490565b61064a611b83565b90611bba565b91505090565b6000610729610720611a58565b60465490611b40565b905090565b600061062e61073b611a58565b8390611b40565b6000610756603e546001600160a01b031690565b6001600160a01b0316631bed52416040518163ffffffff1660e01b8152600401602060405180830381865afa158015610793573d6000803e3d6000fd5b505050506040513d601f19601f820116820180604052508101906107b79190612afe565b90506001811515141561088d57603e546001600160a01b03166001600160a01b0316637ae1cfca336040516020016107ef9190612b20565b604051602081830303815290604052805190602001206040518263ffffffff1660e01b815260040161082391815260200190565b602060405180830381865afa158015610840573d6000803e3d6000fd5b505050506040513d601f19601f820116820180604052508101906108649190612afe565b6108885760405163372463e360e01b81523360048201526024015b60405180910390fd5b6109d4565b603e546001600160a01b03166001600160a01b0316637ae1cfca336040516020016108b89190612b20565b604051602081830303815290604052805190602001206040518263ffffffff1660e01b81526004016108ec91815260200190565b602060405180830381865afa158015610909573d6000803e3d6000fd5b505050506040513d601f19601f8201168201806040525081019061092d9190612afe565b806109b55750603e546001600160a01b03166001600160a01b031663a75b87d26040518163ffffffff1660e01b8152600401602060405180830381865afa15801561097c573d6000803e3d6000fd5b505050506040513d601f19601f820116820180604052508101906109a09190612b63565b6001600160a01b0316326001600160a01b0316145b6109d45760405163372463e360e01b815233600482015260240161087f565b60008211610a365760405162461bcd60e51b815260206004820152602960248201527f436f6d70756e64696e6720706572696f6473206d75737420626520677265617460448201526806572207468616e20360bc1b606482015260840161087f565b50604a55565b6001600160a01b038316600090815260446020908152604080832033845290915281205460001914610aa1576001600160a01b038416600090815260446020908152604080832033845290915281208054849290610a9b908490612b80565b90915550505b610aaa82611a44565b6001600160a01b0385166000908152604e602052604081208054909190610ad2908490612b80565b90915550610ae1905082611a44565b6001600160a01b038085166000818152604e6020526040908190208054909401909355915190861690600080516020612c7583398151915290610b279086815260200190565b60405180910390a35060015b9392505050565b60007f00000000000000000000000000000000000000000000000000000000000000004614610b6b57610729611bcf565b507f000000000000000000000000000000000000000000000000000000000000000090565b6000610ba4603e546001600160a01b031690565b6001600160a01b0316631bed52416040518163ffffffff1660e01b8152600401602060405180830381865afa158015610be1573d6000803e3d6000fd5b505050506040513d601f19601f82011682018060405250810190610c059190612afe565b905060018115151415610cd657603e546001600160a01b03166001600160a01b0316637ae1cfca33604051602001610c3d9190612b20565b604051602081830303815290604052805190602001206040518263ffffffff1660e01b8152600401610c7191815260200190565b602060405180830381865afa158015610c8e573d6000803e3d6000fd5b505050506040513d601f19601f82011682018060405250810190610cb29190612afe565b610cd15760405163372463e360e01b815233600482015260240161087f565b610e1d565b603e546001600160a01b03166001600160a01b0316637ae1cfca33604051602001610d019190612b20565b604051602081830303815290604052805190602001206040518263ffffffff1660e01b8152600401610d3591815260200190565b602060405180830381865afa158015610d52573d6000803e3d6000fd5b505050506040513d601f19601f82011682018060405250810190610d769190612afe565b80610dfe5750603e546001600160a01b03166001600160a01b031663a75b87d26040518163ffffffff1660e01b8152600401602060405180830381865afa158015610dc5573d6000803e3d6000fd5b505050506040513d601f19601f82011682018060405250810190610de99190612b63565b6001600160a01b0316326001600160a01b0316145b610e1d5760405163372463e360e01b815233600482015260240161087f565b610e278383611c7d565b505050565b6000610e36610e61565b610729906301e13380612bad565b6000610729610e59610e54610e61565b611cf5565b604c54610707565b6000604954600014610e74575060495490565b50600190565b600061062e610e87611a58565b6001600160a01b0384166000908152604e60205260409020546106ab565b6041805461054690612a7c565b6000610ec6603e546001600160a01b031690565b6001600160a01b0316631bed52416040518163ffffffff1660e01b8152600401602060405180830381865afa158015610f03573d6000803e3d6000fd5b505050506040513d601f19601f82011682018060405250810190610f279190612afe565b905060018115151415610ff857603e546001600160a01b03166001600160a01b0316637ae1cfca33604051602001610f5f9190612b20565b604051602081830303815290604052805190602001206040518263ffffffff1660e01b8152600401610f9391815260200190565b602060405180830381865afa158015610fb0573d6000803e3d6000fd5b505050506040513d601f19601f82011682018060405250810190610fd49190612afe565b610ff35760405163372463e360e01b815233600482015260240161087f565b61113f565b603e546001600160a01b03166001600160a01b0316637ae1cfca336040516020016110239190612b20565b604051602081830303815290604052805190602001206040518263ffffffff1660e01b815260040161105791815260200190565b602060405180830381865afa158015611074573d6000803e3d6000fd5b505050506040513d601f19601f820116820180604052508101906110989190612afe565b806111205750603e546001600160a01b03166001600160a01b031663a75b87d26040518163ffffffff1660e01b8152600401602060405180830381865afa1580156110e7573d6000803e3d6000fd5b505050506040513d601f19601f8201168201806040525081019061110b9190612b63565b6001600160a01b0316326001600160a01b0316145b61113f5760405163372463e360e01b815233600482015260240161087f565b6000611149610634565b9050611160611159610e54610e61565b8290611b40565b604c5561118661116e610e61565b61118083670de0b6b3a7640000612ae6565b90611d42565b604b55611191611a58565b604781905542604855604080518581526020810184905280820192909252517fed95920730f8aae6fc7d6265cf7618ceb1cd62479df9e2cce6c5a2bf966e237b9181900360600190a1604a5415610e2757604a805460495560009055505050565b6000611206603e546001600160a01b031690565b6001600160a01b0316631bed52416040518163ffffffff1660e01b8152600401602060405180830381865afa158015611243573d6000803e3d6000fd5b505050506040513d601f19601f820116820180604052508101906112679190612afe565b90506001811515141561133857603e546001600160a01b03166001600160a01b0316637ae1cfca3360405160200161129f9190612b20565b604051602081830303815290604052805190602001206040518263ffffffff1660e01b81526004016112d391815260200190565b602060405180830381865afa1580156112f0573d6000803e3d6000fd5b505050506040513d601f19601f820116820180604052508101906113149190612afe565b6113335760405163372463e360e01b815233600482015260240161087f565b61147f565b603e546001600160a01b03166001600160a01b0316637ae1cfca336040516020016113639190612b20565b604051602081830303815290604052805190602001206040518263ffffffff1660e01b815260040161139791815260200190565b602060405180830381865afa1580156113b4573d6000803e3d6000fd5b505050506040513d601f19601f820116820180604052508101906113d89190612afe565b806114605750603e546001600160a01b03166001600160a01b031663a75b87d26040518163ffffffff1660e01b8152600401602060405180830381865afa158015611427573d6000803e3d6000fd5b505050506040513d601f19601f8201168201806040525081019061144b9190612b63565b6001600160a01b0316326001600160a01b0316145b61147f5760405163372463e360e01b815233600482015260240161087f565b610e278383611d9c565b600061149d603e546001600160a01b031690565b6001600160a01b0316631bed52416040518163ffffffff1660e01b8152600401602060405180830381865afa1580156114da573d6000803e3d6000fd5b505050506040513d601f19601f820116820180604052508101906114fe9190612afe565b9050600181151514156115cf57603e546001600160a01b03166001600160a01b0316637ae1cfca336040516020016115369190612b20565b604051602081830303815290604052805190602001206040518263ffffffff1660e01b815260040161156a91815260200190565b602060405180830381865afa158015611587573d6000803e3d6000fd5b505050506040513d601f19601f820116820180604052508101906115ab9190612afe565b6115ca5760405163372463e360e01b815233600482015260240161087f565b611716565b603e546001600160a01b03166001600160a01b0316637ae1cfca336040516020016115fa9190612b20565b604051602081830303815290604052805190602001206040518263ffffffff1660e01b815260040161162e91815260200190565b602060405180830381865afa15801561164b573d6000803e3d6000fd5b505050506040513d601f19601f8201168201806040525081019061166f9190612afe565b806116f75750603e546001600160a01b03166001600160a01b031663a75b87d26040518163ffffffff1660e01b8152600401602060405180830381865afa1580156116be573d6000803e3d6000fd5b505050506040513d601f19601f820116820180604052508101906116e29190612b63565b6001600160a01b0316326001600160a01b0316145b6117165760405163372463e360e01b815233600482015260240161087f565b604d5460408051918252602082018490527fe6c6202176b9910736c13699d11916229b3a0d31fad1d2af08dabdf8716709db910160405180910390a150604d55565b600061176382611a44565b336000908152604e602052604081208054909190611782908490612b80565b90915550611791905082611a44565b6001600160a01b0384166000818152604e602052604090819020805490930190925590513390600080516020612c75833981519152906106229086815260200190565b6000604854426107299190612b80565b428410156118345760405162461bcd60e51b815260206004820152601760248201527f5045524d49545f444541444c494e455f45585049524544000000000000000000604482015260640161087f565b600061183e610b3a565b6001600160a01b0389811660008181526045602090815260409182902080546001810190915582517f6e71edae12b1b97f4d1f60370fef10105fa2faae0126114a169c64845d6126c98184015280840194909452938c166060840152608083018b905260a083019390935260c08083018a90528151808403909101815260e08301909152805192019190912061190160f01b6101008301526101028201929092526101228101919091526101420160408051601f198184030181528282528051602091820120600080855291840180845281905260ff88169284019290925260608301869052608083018590529092509060019060a0016020604051602081039080840390855afa158015611957573d6000803e3d6000fd5b5050604051601f1901519150506001600160a01b0381161580159061198d5750886001600160a01b0316816001600160a01b0316145b6119d95760405162461bcd60e51b815260206004820152601860248201527f494e56414c49445f5045524d49545f5349474e41545552450000000000000000604482015260640161087f565b6001600160a01b0390811660009081526044602090815260408083208b8516808552908352928190208a905551898152919350918a16917f8c5be1e5ebec7d5bd14f71427d1e84f3dd0314c0f7b2291e5b200ac8c7c3b925910160405180910390a350505050505050565b600061062e611a51611a58565b8390611bba565b6000610729611a9d611a7d611a6b610e2c565b611a736117d4565b610e549190612bad565b611a85610e44565b611a9790670de0b6b3a7640000612ae6565b90611e12565b60475490611b40565b6000611aba603e546001600160a01b031690565b6001600160a01b03166321f8a7216003600001600901604051611add9190612c68565b60405190819003812060e083901b6001600160e01b03191682526004820152602401602060405180830381865afa158015611b1c573d6000803e3d6000fd5b505050506040513d601f19601f820116820180604052508101906107299190612b63565b6000610b338383611e51565b6000611b60603e546001600160a01b031690565b6001600160a01b03166321f8a7216003600001600701604051611add9190612c68565b6000611b97603e546001600160a01b031690565b6001600160a01b03166321f8a7216003600001600501604051611add9190612c68565b6000610b3383670de0b6b3a764000084611f13565b60007f8b73c3c69bb8fe3d512ecc4cf759cc79239f7b179b0ffacaa9a75d522b39400f60408051611c009190612c68565b60408051918290038220828201825260018352603160f81b6020938401528151928301939093528101919091527fc89efdaa54c0f20c7adf612882df0950f5a951637e0307cdcb4c672f298b8bc660608201524660808201523060a082015260c00160405160208183030381529060405280519060200120905090565b611c8681611a44565b60466000828254611c979190612ae6565b90915550611ca6905081611a44565b6001600160a01b0383166000818152604e602052604080822080549094019093559151909190600080516020612c7583398151915290611ce99085815260200190565b60405180910390a35050565b60007812725dd1d243aba0e75fe645cc4873f9e65afe688c928e1f21821115611d3457604051633492ffd960e01b81526004810183905260240161087f565b50670de0b6b3a76400000290565b6000808260011611611d5c57670de0b6b3a7640000611d5e565b825b9050600182901c91505b811561062e57611d788384611e51565b92506001821615611d9057611d8d8184611e51565b90505b600182901c9150611d68565b611da581611a44565b6001600160a01b0383166000908152604e602052604081208054909190611dcd908490612b80565b90915550611ddc905081611a44565b604680549190910390556040518181526000906001600160a01b03841690600080516020612c7583398151915290602001611ce9565b600082611e37578115611e26576000611e30565b670de0b6b3a76400005b905061062e565b610b33611e4c611e4685611fe1565b84611b40565b612091565b60008080600019848609848602925082811083820303915050670de0b6b3a76400008110611e955760405163698d9a0160e11b81526004810182905260240161087f565b600080670de0b6b3a76400008688099150506706f05b59d3b1ffff811182611ecf5780670de0b6b3a764000085040194505050505061062e565b620400008285030493909111909103600160ee1b02919091177faccb18165bd6fe31ae1cf318dc5b51eee0e1ba569b88cd74c1773b91fac106690201905092915050565b600080806000198587098587029250828110838203039150508060001415611f4e57838281611f4457611f44612b97565b0492505050610b33565b838110611f7857604051631dcf306360e21b8152600481018290526024810185905260440161087f565b60008486880960026001871981018816978890046003810283188082028403028082028403028082028403028082028403028082028403029081029092039091026000889003889004909101858311909403939093029303949094049190911702949350505050565b6000670de0b6b3a764000082101561200f57604051633621413760e21b81526004810183905260240161087f565b6000612024670de0b6b3a764000084046120d7565b670de0b6b3a7640000808202935090915083821c90811415612047575050919050565b6706f05b59d3b200005b801561208957670de0b6b3a7640000828002049150671bc16d674ec800008210612081579283019260019190911c905b60011c612051565b505050919050565b6000680a688906bd8b00000082106120bf57604051634a4f26f160e01b81526004810183905260240161087f565b670de0b6b3a7640000604083901b04610b33816121c0565b6000600160801b82106120f757608091821c916120f49082612ae6565b90505b68010000000000000000821061211a57604091821c916121179082612ae6565b90505b640100000000821061213957602091821c916121369082612ae6565b90505b62010000821061215657601091821c916121539082612ae6565b90505b610100821061217257600891821c9161216f9082612ae6565b90505b6010821061218d57600491821c9161218a9082612ae6565b90505b600482106121a857600291821c916121a59082612ae6565b90505b600282106121bb5761062e600182612ae6565b919050565b600160bf1b6780000000000000008216156121e45768016a09e667f3bcc9090260401c5b674000000000000000821615612203576801306fe0a31b7152df0260401c5b672000000000000000821615612222576801172b83c7d517adce0260401c5b6710000000000000008216156122415768010b5586cf9890f62a0260401c5b670800000000000000821615612260576801059b0d31585743ae0260401c5b67040000000000000082161561227f57680102c9a3e778060ee70260401c5b67020000000000000082161561229e5768010163da9fb33356d80260401c5b6701000000000000008216156122bd57680100b1afa5abcbed610260401c5b66800000000000008216156122db5768010058c86da1c09ea20260401c5b66400000000000008216156122f9576801002c605e2e8cec500260401c5b662000000000000082161561231757680100162f3904051fa10260401c5b6610000000000000821615612335576801000b175effdc76ba0260401c5b660800000000000082161561235357680100058ba01fb9f96d0260401c5b66040000000000008216156123715768010002c5cc37da94920260401c5b660200000000000082161561238f576801000162e525ee05470260401c5b66010000000000008216156123ad5768010000b17255775c040260401c5b658000000000008216156123ca576801000058b91b5bc9ae0260401c5b654000000000008216156123e757680100002c5c89d5ec6d0260401c5b652000000000008216156124045768010000162e43f4f8310260401c5b6510000000000082161561242157680100000b1721bcfc9a0260401c5b6508000000000082161561243e5768010000058b90cf1e6e0260401c5b6504000000000082161561245b576801000002c5c863b73f0260401c5b6502000000000082161561247857680100000162e430e5a20260401c5b65010000000000821615612495576801000000b1721835510260401c5b6480000000008216156124b157680100000058b90c0b490260401c5b6440000000008216156124cd5768010000002c5c8601cc0260401c5b6420000000008216156124e9576801000000162e42fff00260401c5b6410000000008216156125055768010000000b17217fbb0260401c5b640800000000821615612521576801000000058b90bfce0260401c5b64040000000082161561253d57680100000002c5c85fe30260401c5b6402000000008216156125595768010000000162e42ff10260401c5b64010000000082161561257557680100000000b17217f80260401c5b63800000008216156125905768010000000058b90bfc0260401c5b63400000008216156125ab576801000000002c5c85fe0260401c5b63200000008216156125c657680100000000162e42ff0260401c5b63100000008216156125e1576801000000000b17217f0260401c5b63080000008216156125fc57680100000000058b90c00260401c5b63040000008216156126175768010000000002c5c8600260401c5b6302000000821615612632576801000000000162e4300260401c5b630100000082161561264d5768010000000000b172180260401c5b62800000821615612667576801000000000058b90c0260401c5b6240000082161561268157680100000000002c5c860260401c5b6220000082161561269b5768010000000000162e430260401c5b621000008216156126b557680100000000000b17210260401c5b620800008216156126cf5768010000000000058b910260401c5b620400008216156126e9576801000000000002c5c80260401c5b6202000082161561270357680100000000000162e40260401c5b6201000082161561271d576801000000000000b1720260401c5b61800082161561273657680100000000000058b90260401c5b61400082161561274f5768010000000000002c5d0260401c5b612000821615612768576801000000000000162e0260401c5b6110008216156127815768010000000000000b170260401c5b61080082161561279a576801000000000000058c0260401c5b6104008216156127b357680100000000000002c60260401c5b6102008216156127cc57680100000000000001630260401c5b6101008216156127e557680100000000000000b10260401c5b60808216156127fd57680100000000000000590260401c5b6040821615612815576801000000000000002c0260401c5b602082161561282d57680100000000000000160260401c5b6010821615612845576801000000000000000b0260401c5b600882161561285d57680100000000000000060260401c5b600482161561287557680100000000000000030260401c5b600282161561288d57680100000000000000010260401c5b60018216156128a557680100000000000000010260401c5b670de0b6b3a76400000260409190911c60bf031c90565b600060208083528351808285015260005b818110156128e9578581018301518582016040015282016128cd565b818111156128fb576000604083870101525b50601f01601f1916929092016040019392505050565b6001600160a01b038116811461292657600080fd5b50565b6000806040838503121561293c57600080fd5b823561294781612911565b946020939093013593505050565b60006020828403121561296757600080fd5b8135610b3381612911565b60006020828403121561298457600080fd5b5035919050565b6000806000606084860312156129a057600080fd5b83356129ab81612911565b925060208401356129bb81612911565b929592945050506040919091013590565b600080600080600080600060e0888a0312156129e757600080fd5b87356129f281612911565b96506020880135612a0281612911565b95506040880135945060608801359350608088013560ff81168114612a2657600080fd5b9699959850939692959460a0840135945060c09093013592915050565b60008060408385031215612a5657600080fd5b8235612a6181612911565b91506020830135612a7181612911565b809150509250929050565b600181811c90821680612a9057607f821691505b60208210811415612ab157634e487b7160e01b600052602260045260246000fd5b50919050565b600060208284031215612ac957600080fd5b5051919050565b634e487b7160e01b600052601160045260246000fd5b60008219821115612af957612af9612ad0565b500190565b600060208284031215612b1057600080fd5b81518015158114610b3357600080fd5b7f7068616e746f6d2e636f6e74726163742e726567697374657265640000000000815260609190911b6bffffffffffffffffffffffff1916601b820152602f0190565b600060208284031215612b7557600080fd5b8151610b3381612911565b600082821015612b9257612b92612ad0565b500390565b634e487b7160e01b600052601260045260246000fd5b600082612bca57634e487b7160e01b600052601260045260246000fd5b500490565b8054600090600181811c9080831680612be957607f831692505b6020808410821415612c0b57634e487b7160e01b600052602260045260246000fd5b818015612c1f5760018114612c3057612c5c565b60ff19861689528489019650612c5c565b876000528160002060005b86811015612c545781548b820152908501908301612c3b565b505084890196505b50505050505092915050565b6000610b338284612bcf56feddf252ad1be2c89b69c2b068fc378daa952ba7f163c4a11628f55a4df523b3efa26469706673582212202440ccdec2d8d008963bcf862852553bb93188bcd9f2254caf37f882a4929c0064736f6c634300080a00337068616e746f6d2e666f756e6465722e636c61696d732e72656d61696e696e67416d6f756e747068616e746f6d2e616c6c6f6361746f722e746f6b656e732e616464726573732e6461697068616e746f6d2e726f7574696e672e6465785f726f757465725f616464726573737068616e746f6d2e666f756e6465722e636c61696d732e696e697469616c416d6f756e747068616e746f6d2e74726561737572792e6163636f756e745f6b65792e76656e747572656361706974616c7068616e746f6d2e616c6c6f6361746f722e746f6b656e732e616464726573732e6461695f70686d5f6c707068616e746f6d2e726f7574696e672e73706f6f6b795f726f757465725f616464726573737068616e746f6d2e74726561737572792e617070726f7665642e65787465726e616c2e616464726573737068616e746f6d2e626f6e64696e672e757365722e66697273745f756e72656465656d65645f6e6f6e63657068616e746f6d2e726f7574696e672e7370697269745f726f757465725f616464726573737068616e746f6d2e616c6c6f6361746f722e746f6b656e732e64657374696e6174696f6e737068616e746f6d2e726f7574696e672e7370697269745f666163746f72795f616464726573737068616e746f6d2e616c6c6f6361746f722e746f6b656e732e646573745f70657263656e74616765737068616e746f6d2e74726561737572792e6163636f756e745f6b65792e72657365727665737068616e746f6d2e616c6c6f6361746f722e746f6b656e732e616464726573732e6d696d7068616e746f6d2e726f7574696e672e73706f6f6b795f666163746f72795f616464726573737068616e746f6d2e616c6c6f6361746f722e746f6b656e732e616464726573732e7766746d7068616e746f6d2e616c6c6f6361746f722e746f6b656e732e616464726573732e6465787068616e746f6d2e726f7574696e672e7370697269745f67617567655f616464726573737068616e746f6d2e666f756e6465722e636c61696d732e616c6c6f636174696f6e7068616e746f6d2e726f7574696e672e6465785f666163746f72795f616464726573737068616e746f6d2e676f7665726e6f722e71756f72756d50657263656e746167657068616e746f6d2e676f7665726e6f722e70726f706f73616c5468726573686f6c647068616e746f6d2e7374616b696e672e6e657874526562617365446561646c696e657068616e746f6d2e726f7574696e672e7370697269745f67617567655f70726f78795f61646472657373",
  "bytecodeSha1": "da39a3ee5e6b4b0d3255bfef95601890afd80709",
  "compiler": {
    "evm_version": "istanbul",
    "optimizer": {
      "enabled": true,
      "runs": 200
    },
    "version": "0.8.10+commit.fc410830"
  },
  "contractName": "sPHM",
  "language": "Solidity",
  "natspec": {
    "author": "PhantomDao Team",
    "errors": {
      "PRBMathUD60x18__Exp2InputTooBig(uint256)": [
        {
          "notice": "Emitted when the input is greater than 192."
        }
      ],
      "PRBMathUD60x18__FromUintOverflow(uint256)": [
        {
          "notice": "Emitted when converting a basic integer to the fixed-point format format overflows UD60x18."
        }
      ],
      "PRBMathUD60x18__LogInputTooSmall(uint256)": [
        {
          "notice": "Emitted when the input is less than 1."
        }
      ],
      "PRBMath__MulDivFixedPointOverflow(uint256)": [
        {
          "notice": "Emitted when the result overflows uint256."
        }
      ],
      "PRBMath__MulDivOverflow(uint256,uint256)": [
        {
          "notice": "Emitted when the result overflows uint256."
        }
      ]
    },
    "kind": "dev",
    "methods": {
      "DOMAIN_SEPARATOR()": {
        "details": "Returns the domain separator used in the encoding of the signature for {permit}, as defined by {EIP712}."
      },
      "approve(address,uint256)": {
        "details": "Sets `amount` as the allowance of `spender` over the caller's tokens. Returns a boolean value indicating whether the operation succeeded. IMPORTANT: Beware that changing an allowance with this method brings the risk that someone may use both the old and the new allowance by unfortunate transaction ordering. One possible solution to mitigate this race condition is to first reduce the spender's allowance to 0 and set the desired value afterwards: https://github.com/ethereum/EIPs/issues/20#issuecomment-263524729 Emits an {Approval} event."
      },
      "doRebase(uint256)": {
        "details": "Perform a rebase. In reality, this calculates the new APY and updates the _scalingFactorBase. This needs to be called by the contract responsible for triggering rebases."
      },
      "permit(address,address,uint256,uint256,uint8,bytes32,bytes32)": {
        "details": "Sets `value` as the allowance of `spender` over ``owner``'s tokens, given ``owner``'s signed approval. IMPORTANT: The same issues {IERC20-approve} has related to transaction ordering also apply here. Emits an {Approval} event. Requirements: - `spender` cannot be the zero address. - `deadline` must be a timestamp in the future. - `v`, `r` and `s` must be a valid `secp256k1` signature from `owner` over the EIP712-formatted function arguments. - the signature must use ``owner``'s current nonce (see {nonces}). For more information on the signature format, see the https://eips.ethereum.org/EIPS/eip-2612#specification[relevant EIP section]."
      },
      "rewardYield()": {
        "details": "Get the current rewardYeild. This depends on supply of PHM, sPHM, gPHM and fPHM."
      },
      "updateCompoundingPeriodsPeriodYear(uint256)": {
        "details": "Update the number of compounding periods per year.",
        "params": {
          "newPeriods": "uint256 a number greater than 0"
        }
      },
      "updateRewardRate(uint256)": {
        "details": "Update the rewardRate",
        "params": {
          "newRewardRate": "uint256 the new reward rate. 1e18 == 100% 1e17 == 10%, 1e16 == 1%, 1e15 == 0.5%, 0 = 0%"
        }
      }
    },
    "notice": "The Staked Phantom Token",
    "title": "sPHM",
    "version": 1
  },
  "opcodes": "PUSH1 0x80 PUSH1 0x40 MSTORE CALLVALUE DUP1 ISZERO PUSH2 0x10 JUMPI PUSH1 0x0 DUP1 REVERT JUMPDEST POP PUSH1 0x4 CALLDATASIZE LT PUSH2 0x252 JUMPI PUSH1 0x0 CALLDATALOAD PUSH1 0xE0 SHR DUP1 PUSH4 0x610C40E4 GT PUSH2 0x146 JUMPI DUP1 PUSH4 0x9EF3A261 GT PUSH2 0xC3 JUMPI DUP1 PUSH4 0xCCA3E832 GT PUSH2 0x87 JUMPI DUP1 PUSH4 0xCCA3E832 EQ PUSH2 0x4B7 JUMPI DUP1 PUSH4 0xD505ACCF EQ PUSH2 0x4D7 JUMPI DUP1 PUSH4 0xDD62ED3E EQ PUSH2 0x4EA JUMPI DUP1 PUSH4 0xE2FFDC93 EQ PUSH2 0x515 JUMPI DUP1 PUSH4 0xE6E90DB8 EQ PUSH2 0x51E JUMPI DUP1 PUSH4 0xED3437F8 EQ PUSH2 0x531 JUMPI PUSH1 0x0 DUP1 REVERT JUMPDEST DUP1 PUSH4 0x9EF3A261 EQ PUSH2 0x477 JUMPI DUP1 PUSH4 0xA9059CBB EQ PUSH2 0x48A JUMPI DUP1 PUSH4 0xAE531D1C EQ PUSH2 0x49D JUMPI DUP1 PUSH4 0xB35C8662 EQ PUSH2 0x4A5 JUMPI DUP1 PUSH4 0xCC1787C3 EQ PUSH2 0x4AE JUMPI PUSH1 0x0 DUP1 REVERT JUMPDEST DUP1 PUSH4 0x7B0A47EE GT PUSH2 0x10A JUMPI DUP1 PUSH4 0x7B0A47EE EQ PUSH2 0x421 JUMPI DUP1 PUSH4 0x7ECEBE00 EQ PUSH2 0x429 JUMPI DUP1 PUSH4 0x95D89B41 EQ PUSH2 0x449 JUMPI DUP1 PUSH4 0x9D33C8D7 EQ PUSH2 0x451 JUMPI DUP1 PUSH4 0x9DC29FAC EQ PUSH2 0x464 JUMPI PUSH1 0x0 DUP1 REVERT JUMPDEST DUP1 PUSH4 0x610C40E4 EQ PUSH2 0x3EB JUMPI DUP1 PUSH4 0x66BBD03B EQ PUSH2 0x3F3 JUMPI DUP1 PUSH4 0x68FD25CD EQ PUSH2 0x3FC JUMPI DUP1 PUSH4 0x70A08231 EQ PUSH2 0x405 JUMPI DUP1 PUSH4 0x78D81BFE EQ PUSH2 0x418 JUMPI PUSH1 0x0 DUP1 REVERT JUMPDEST DUP1 PUSH4 0x30ADF81F GT PUSH2 0x1D4 JUMPI DUP1 PUSH4 0x451117CA GT PUSH2 0x198 JUMPI DUP1 PUSH4 0x451117CA EQ PUSH2 0x3AB JUMPI DUP1 PUSH4 0x4D55FE5F EQ PUSH2 0x3CB JUMPI DUP1 PUSH4 0x56A2F1F3 EQ PUSH2 0x3D3 JUMPI DUP1 PUSH4 0x57DED9C9 EQ PUSH2 0x3DB JUMPI DUP1 PUSH4 0x5D187338 EQ PUSH2 0x3E3 JUMPI PUSH1 0x0 DUP1 REVERT JUMPDEST DUP1 PUSH4 0x30ADF81F EQ PUSH2 0x328 JUMPI DUP1 PUSH4 0x313CE567 EQ PUSH2 0x34F JUMPI DUP1 PUSH4 0x3644E515 EQ PUSH2 0x388 JUMPI DUP1 PUSH4 0x3BCFC4B8 EQ PUSH2 0x390 JUMPI DUP1 PUSH4 0x40C10F19 EQ PUSH2 0x398 JUMPI PUSH1 0x0 DUP1 REVERT JUMPDEST DUP1 PUSH4 0x1AE813C7 GT PUSH2 0x21B JUMPI DUP1 PUSH4 0x1AE813C7 EQ PUSH2 0x2BB JUMPI DUP1 PUSH4 0x1AFA7CB2 EQ PUSH2 0x2E4 JUMPI DUP1 PUSH4 0x2218E199 EQ PUSH2 0x2F7 JUMPI DUP1 PUSH4 0x23B872DD EQ PUSH2 0x30C JUMPI DUP1 PUSH4 0x26A5E9C4 EQ PUSH2 0x31F JUMPI PUSH1 0x0 DUP1 REVERT JUMPDEST DUP1 PUSH3 0xBEC329 EQ PUSH2 0x257 JUMPI DUP1 PUSH4 0x6FDDE03 EQ PUSH2 0x273 JUMPI DUP1 PUSH4 0x95EA7B3 EQ PUSH2 0x288 JUMPI DUP1 PUSH4 0xAF08314 EQ PUSH2 0x2AB JUMPI DUP1 PUSH4 0x18160DDD EQ PUSH2 0x2B3 JUMPI JUMPDEST PUSH1 0x0 DUP1 REVERT JUMPDEST PUSH2 0x260 PUSH1 0x4A SLOAD DUP2 JUMP JUMPDEST PUSH1 0x40 MLOAD SWAP1 DUP2 MSTORE PUSH1 0x20 ADD JUMPDEST PUSH1 0x40 MLOAD DUP1 SWAP2 SUB SWAP1 RETURN JUMPDEST PUSH2 0x27B PUSH2 0x539 JUMP JUMPDEST PUSH1 0x40 MLOAD PUSH2 0x26A SWAP2 SWAP1 PUSH2 0x28BC JUMP JUMPDEST PUSH2 0x29B PUSH2 0x296 CALLDATASIZE PUSH1 0x4 PUSH2 0x2929 JUMP JUMPDEST PUSH2 0x5C7 JUMP JUMPDEST PUSH1 0x40 MLOAD SWAP1 ISZERO ISZERO DUP2 MSTORE PUSH1 0x20 ADD PUSH2 0x26A JUMP JUMPDEST PUSH2 0x260 PUSH2 0x634 JUMP JUMPDEST PUSH2 0x260 PUSH2 0x713 JUMP JUMPDEST PUSH2 0x260 PUSH2 0x2C9 CALLDATASIZE PUSH1 0x4 PUSH2 0x2955 JUMP JUMPDEST PUSH1 0x1 PUSH1 0x1 PUSH1 0xA0 SHL SUB AND PUSH1 0x0 SWAP1 DUP2 MSTORE PUSH1 0x4E PUSH1 0x20 MSTORE PUSH1 0x40 SWAP1 KECCAK256 SLOAD SWAP1 JUMP JUMPDEST PUSH2 0x260 PUSH2 0x2F2 CALLDATASIZE PUSH1 0x4 PUSH2 0x2972 JUMP JUMPDEST PUSH2 0x72E JUMP JUMPDEST PUSH2 0x30A PUSH2 0x305 CALLDATASIZE PUSH1 0x4 PUSH2 0x2972 JUMP JUMPDEST PUSH2 0x742 JUMP JUMPDEST STOP JUMPDEST PUSH2 0x29B PUSH2 0x31A CALLDATASIZE PUSH1 0x4 PUSH2 0x298B JUMP JUMPDEST PUSH2 0xA3C JUMP JUMPDEST PUSH2 0x260 PUSH1 0x46 SLOAD DUP2 JUMP JUMPDEST PUSH2 0x260 PUSH32 0x6E71EDAE12B1B97F4D1F60370FEF10105FA2FAAE0126114A169C64845D6126C9 DUP2 JUMP JUMPDEST PUSH2 0x376 PUSH32 0x0 DUP2 JUMP JUMPDEST PUSH1 0x40 MLOAD PUSH1 0xFF SWAP1 SWAP2 AND DUP2 MSTORE PUSH1 0x20 ADD PUSH2 0x26A JUMP JUMPDEST PUSH2 0x260 PUSH2 0xB3A JUMP JUMPDEST PUSH1 0x4B SLOAD PUSH2 0x260 JUMP JUMPDEST PUSH2 0x30A PUSH2 0x3A6 CALLDATASIZE PUSH1 0x4 PUSH2 0x2929 JUMP JUMPDEST PUSH2 0xB90 JUMP JUMPDEST PUSH2 0x260 PUSH2 0x3B9 CALLDATASIZE PUSH1 0x4 PUSH2 0x2955 JUMP JUMPDEST PUSH1 0x4E PUSH1 0x20 MSTORE PUSH1 0x0 SWAP1 DUP2 MSTORE PUSH1 0x40 SWAP1 KECCAK256 SLOAD DUP2 JUMP JUMPDEST PUSH2 0x260 PUSH2 0xE2C JUMP JUMPDEST PUSH2 0x260 PUSH2 0xE44 JUMP JUMPDEST PUSH1 0x4C SLOAD PUSH2 0x260 JUMP JUMPDEST PUSH2 0x260 PUSH2 0xE61 JUMP JUMPDEST PUSH1 0x47 SLOAD PUSH2 0x260 JUMP JUMPDEST PUSH2 0x260 PUSH1 0x49 SLOAD DUP2 JUMP JUMPDEST PUSH2 0x260 PUSH1 0x4D SLOAD DUP2 JUMP JUMPDEST PUSH2 0x260 PUSH2 0x413 CALLDATASIZE PUSH1 0x4 PUSH2 0x2955 JUMP JUMPDEST PUSH2 0xE7A JUMP JUMPDEST PUSH2 0x260 PUSH1 0x4C SLOAD DUP2 JUMP JUMPDEST PUSH1 0x4D SLOAD PUSH2 0x260 JUMP JUMPDEST PUSH2 0x260 PUSH2 0x437 CALLDATASIZE PUSH1 0x4 PUSH2 0x2955 JUMP JUMPDEST PUSH1 0x45 PUSH1 0x20 MSTORE PUSH1 0x0 SWAP1 DUP2 MSTORE PUSH1 0x40 SWAP1 KECCAK256 SLOAD DUP2 JUMP JUMPDEST PUSH2 0x27B PUSH2 0xEA5 JUMP JUMPDEST PUSH2 0x30A PUSH2 0x45F CALLDATASIZE PUSH1 0x4 PUSH2 0x2972 JUMP JUMPDEST PUSH2 0xEB2 JUMP JUMPDEST PUSH2 0x30A PUSH2 0x472 CALLDATASIZE PUSH1 0x4 PUSH2 0x2929 JUMP JUMPDEST PUSH2 0x11F2 JUMP JUMPDEST PUSH2 0x30A PUSH2 0x485 CALLDATASIZE PUSH1 0x4 PUSH2 0x2972 JUMP JUMPDEST PUSH2 0x1489 JUMP JUMPDEST PUSH2 0x29B PUSH2 0x498 CALLDATASIZE PUSH1 0x4 PUSH2 0x2929 JUMP JUMPDEST PUSH2 0x1758 JUMP JUMPDEST PUSH2 0x260 PUSH2 0x17D4 JUMP JUMPDEST PUSH2 0x260 PUSH1 0x4B SLOAD DUP2 JUMP JUMPDEST PUSH2 0x260 PUSH1 0x48 SLOAD DUP2 JUMP JUMPDEST PUSH2 0x260 PUSH2 0x4C5 CALLDATASIZE PUSH1 0x4 PUSH2 0x2955 JUMP JUMPDEST PUSH1 0x43 PUSH1 0x20 MSTORE PUSH1 0x0 SWAP1 DUP2 MSTORE PUSH1 0x40 SWAP1 KECCAK256 SLOAD DUP2 JUMP JUMPDEST PUSH2 0x30A PUSH2 0x4E5 CALLDATASIZE PUSH1 0x4 PUSH2 0x29CC JUMP JUMPDEST PUSH2 0x17E4 JUMP JUMPDEST PUSH2 0x260 PUSH2 0x4F8 CALLDATASIZE PUSH1 0x4 PUSH2 0x2A43 JUMP JUMPDEST PUSH1 0x44 PUSH1 0x20 SWAP1 DUP2 MSTORE PUSH1 0x0 SWAP3 DUP4 MSTORE PUSH1 0x40 DUP1 DUP5 KECCAK256 SWAP1 SWAP2 MSTORE SWAP1 DUP3 MSTORE SWAP1 KECCAK256 SLOAD DUP2 JUMP JUMPDEST PUSH2 0x260 PUSH1 0x47 SLOAD DUP2 JUMP JUMPDEST PUSH2 0x260 PUSH2 0x52C CALLDATASIZE PUSH1 0x4 PUSH2 0x2972 JUMP JUMPDEST PUSH2 0x1A44 JUMP JUMPDEST PUSH2 0x260 PUSH2 0x1A58 JUMP JUMPDEST PUSH1 0x40 DUP1 SLOAD PUSH2 0x546 SWAP1 PUSH2 0x2A7C JUMP JUMPDEST DUP1 PUSH1 0x1F ADD PUSH1 0x20 DUP1 SWAP2 DIV MUL PUSH1 0x20 ADD PUSH1 0x40 MLOAD SWAP1 DUP2 ADD PUSH1 0x40 MSTORE DUP1 SWAP3 SWAP2 SWAP1 DUP2 DUP2 MSTORE PUSH1 0x20 ADD DUP3 DUP1 SLOAD PUSH2 0x572 SWAP1 PUSH2 0x2A7C JUMP JUMPDEST DUP1 ISZERO PUSH2 0x5BF JUMPI DUP1 PUSH1 0x1F LT PUSH2 0x594 JUMPI PUSH2 0x100 DUP1 DUP4 SLOAD DIV MUL DUP4 MSTORE SWAP2 PUSH1 0x20 ADD SWAP2 PUSH2 0x5BF JUMP JUMPDEST DUP3 ADD SWAP2 SWAP1 PUSH1 0x0 MSTORE PUSH1 0x20 PUSH1 0x0 KECCAK256 SWAP1 JUMPDEST DUP2 SLOAD DUP2 MSTORE SWAP1 PUSH1 0x1 ADD SWAP1 PUSH1 0x20 ADD DUP1 DUP4 GT PUSH2 0x5A2 JUMPI DUP3 SWAP1 SUB PUSH1 0x1F AND DUP3 ADD SWAP2 JUMPDEST POP POP POP POP POP DUP2 JUMP JUMPDEST CALLER PUSH1 0x0 DUP2 DUP2 MSTORE PUSH1 0x44 PUSH1 0x20 SWAP1 DUP2 MSTORE PUSH1 0x40 DUP1 DUP4 KECCAK256 PUSH1 0x1 PUSH1 0x1 PUSH1 0xA0 SHL SUB DUP8 AND DUP1 DUP6 MSTORE SWAP3 MSTORE DUP1 DUP4 KECCAK256 DUP6 SWAP1 SSTORE MLOAD SWAP2 SWAP3 SWAP1 SWAP2 PUSH32 0x8C5BE1E5EBEC7D5BD14F71427D1E84F3DD0314C0F7B2291E5B200AC8C7C3B925 SWAP1 PUSH2 0x622 SWAP1 DUP7 DUP2 MSTORE PUSH1 0x20 ADD SWAP1 JUMP JUMPDEST PUSH1 0x40 MLOAD DUP1 SWAP2 SUB SWAP1 LOG3 POP PUSH1 0x1 JUMPDEST SWAP3 SWAP2 POP POP JUMP JUMPDEST PUSH1 0x0 DUP1 PUSH2 0x6B1 PUSH2 0x642 PUSH2 0x1A58 JUMP JUMPDEST PUSH2 0x64A PUSH2 0x1AA6 JUMP JUMPDEST PUSH1 0x1 PUSH1 0x1 PUSH1 0xA0 SHL SUB AND PUSH4 0x18160DDD PUSH1 0x40 MLOAD DUP2 PUSH4 0xFFFFFFFF AND PUSH1 0xE0 SHL DUP2 MSTORE PUSH1 0x4 ADD PUSH1 0x20 PUSH1 0x40 MLOAD DUP1 DUP4 SUB DUP2 DUP7 GAS STATICCALL ISZERO DUP1 ISZERO PUSH2 0x687 JUMPI RETURNDATASIZE PUSH1 0x0 DUP1 RETURNDATACOPY RETURNDATASIZE PUSH1 0x0 REVERT JUMPDEST POP POP POP POP PUSH1 0x40 MLOAD RETURNDATASIZE PUSH1 0x1F NOT PUSH1 0x1F DUP3 ADD AND DUP3 ADD DUP1 PUSH1 0x40 MSTORE POP DUP2 ADD SWAP1 PUSH2 0x6AB SWAP2 SWAP1 PUSH2 0x2AB7 JUMP JUMPDEST SWAP1 PUSH2 0x1B40 JUMP JUMPDEST PUSH2 0x6C4 PUSH2 0x6BC PUSH2 0x1A58 JUMP JUMPDEST PUSH2 0x64A PUSH2 0x1B4C JUMP JUMPDEST PUSH2 0x6CC PUSH2 0x713 JUMP JUMPDEST PUSH2 0x6D6 SWAP2 SWAP1 PUSH2 0x2AE6 JUMP JUMPDEST PUSH2 0x6E0 SWAP2 SWAP1 PUSH2 0x2AE6 JUMP JUMPDEST SWAP1 POP DUP1 PUSH2 0x6EF JUMPI PUSH1 0x0 SWAP2 POP POP SWAP1 JUMP JUMPDEST PUSH2 0x70D DUP2 PUSH2 0x707 PUSH2 0x6FF PUSH1 0x4D SLOAD SWAP1 JUMP JUMPDEST PUSH2 0x64A PUSH2 0x1B83 JUMP JUMPDEST SWAP1 PUSH2 0x1BBA JUMP JUMPDEST SWAP2 POP POP SWAP1 JUMP JUMPDEST PUSH1 0x0 PUSH2 0x729 PUSH2 0x720 PUSH2 0x1A58 JUMP JUMPDEST PUSH1 0x46 SLOAD SWAP1 PUSH2 0x1B40 JUMP JUMPDEST SWAP1 POP SWAP1 JUMP JUMPDEST PUSH1 0x0 PUSH2 0x62E PUSH2 0x73B PUSH2 0x1A58 JUMP JUMPDEST DUP4 SWAP1 PUSH2 0x1B40 JUMP JUMPDEST PUSH1 0x0 PUSH2 0x756 PUSH1 0x3E SLOAD PUSH1 0x1 PUSH1 0x1 PUSH1 0xA0 SHL SUB AND SWAP1 JUMP JUMPDEST PUSH1 0x1 PUSH1 0x1 PUSH1 0xA0 SHL SUB AND PUSH4 0x1BED5241 PUSH1 0x40 MLOAD DUP2 PUSH4 0xFFFFFFFF AND PUSH1 0xE0 SHL DUP2 MSTORE PUSH1 0x4 ADD PUSH1 0x20 PUSH1 0x40 MLOAD DUP1 DUP4 SUB DUP2 DUP7 GAS STATICCALL ISZERO DUP1 ISZERO PUSH2 0x793 JUMPI RETURNDATASIZE PUSH1 0x0 DUP1 RETURNDATACOPY RETURNDATASIZE PUSH1 0x0 REVERT JUMPDEST POP POP POP POP PUSH1 0x40 MLOAD RETURNDATASIZE PUSH1 0x1F NOT PUSH1 0x1F DUP3 ADD AND DUP3 ADD DUP1 PUSH1 0x40 MSTORE POP DUP2 ADD SWAP1 PUSH2 0x7B7 SWAP2 SWAP1 PUSH2 0x2AFE JUMP JUMPDEST SWAP1 POP PUSH1 0x1 DUP2 ISZERO ISZERO EQ ISZERO PUSH2 0x88D JUMPI PUSH1 0x3E SLOAD PUSH1 0x1 PUSH1 0x1 PUSH1 0xA0 SHL SUB AND PUSH1 0x1 PUSH1 0x1 PUSH1 0xA0 SHL SUB AND PUSH4 0x7AE1CFCA CALLER PUSH1 0x40 MLOAD PUSH1 0x20 ADD PUSH2 0x7EF SWAP2 SWAP1 PUSH2 0x2B20 JUMP JUMPDEST PUSH1 0x40 MLOAD PUSH1 0x20 DUP2 DUP4 SUB SUB DUP2 MSTORE SWAP1 PUSH1 0x40 MSTORE DUP1 MLOAD SWAP1 PUSH1 0x20 ADD KECCAK256 PUSH1 0x40 MLOAD DUP3 PUSH4 0xFFFFFFFF AND PUSH1 0xE0 SHL DUP2 MSTORE PUSH1 0x4 ADD PUSH2 0x823 SWAP2 DUP2 MSTORE PUSH1 0x20 ADD SWAP1 JUMP JUMPDEST PUSH1 0x20 PUSH1 0x40 MLOAD DUP1 DUP4 SUB DUP2 DUP7 GAS STATICCALL ISZERO DUP1 ISZERO PUSH2 0x840 JUMPI RETURNDATASIZE PUSH1 0x0 DUP1 RETURNDATACOPY RETURNDATASIZE PUSH1 0x0 REVERT JUMPDEST POP POP POP POP PUSH1 0x40 MLOAD RETURNDATASIZE PUSH1 0x1F NOT PUSH1 0x1F DUP3 ADD AND DUP3 ADD DUP1 PUSH1 0x40 MSTORE POP DUP2 ADD SWAP1 PUSH2 0x864 SWAP2 SWAP1 PUSH2 0x2AFE JUMP JUMPDEST PUSH2 0x888 JUMPI PUSH1 0x40 MLOAD PUSH4 0x372463E3 PUSH1 0xE0 SHL DUP2 MSTORE CALLER PUSH1 0x4 DUP3 ADD MSTORE PUSH1 0x24 ADD JUMPDEST PUSH1 0x40 MLOAD DUP1 SWAP2 SUB SWAP1 REVERT JUMPDEST PUSH2 0x9D4 JUMP JUMPDEST PUSH1 0x3E SLOAD PUSH1 0x1 PUSH1 0x1 PUSH1 0xA0 SHL SUB AND PUSH1 0x1 PUSH1 0x1 PUSH1 0xA0 SHL SUB AND PUSH4 0x7AE1CFCA CALLER PUSH1 0x40 MLOAD PUSH1 0x20 ADD PUSH2 0x8B8 SWAP2 SWAP1 PUSH2 0x2B20 JUMP JUMPDEST PUSH1 0x40 MLOAD PUSH1 0x20 DUP2 DUP4 SUB SUB DUP2 MSTORE SWAP1 PUSH1 0x40 MSTORE DUP1 MLOAD SWAP1 PUSH1 0x20 ADD KECCAK256 PUSH1 0x40 MLOAD DUP3 PUSH4 0xFFFFFFFF AND PUSH1 0xE0 SHL DUP2 MSTORE PUSH1 0x4 ADD PUSH2 0x8EC SWAP2 DUP2 MSTORE PUSH1 0x20 ADD SWAP1 JUMP JUMPDEST PUSH1 0x20 PUSH1 0x40 MLOAD DUP1 DUP4 SUB DUP2 DUP7 GAS STATICCALL ISZERO DUP1 ISZERO PUSH2 0x909 JUMPI RETURNDATASIZE PUSH1 0x0 DUP1 RETURNDATACOPY RETURNDATASIZE PUSH1 0x0 REVERT JUMPDEST POP POP POP POP PUSH1 0x40 MLOAD RETURNDATASIZE PUSH1 0x1F NOT PUSH1 0x1F DUP3 ADD AND DUP3 ADD DUP1 PUSH1 0x40 MSTORE POP DUP2 ADD SWAP1 PUSH2 0x92D SWAP2 SWAP1 PUSH2 0x2AFE JUMP JUMPDEST DUP1 PUSH2 0x9B5 JUMPI POP PUSH1 0x3E SLOAD PUSH1 0x1 PUSH1 0x1 PUSH1 0xA0 SHL SUB AND PUSH1 0x1 PUSH1 0x1 PUSH1 0xA0 SHL SUB AND PUSH4 0xA75B87D2 PUSH1 0x40 MLOAD DUP2 PUSH4 0xFFFFFFFF AND PUSH1 0xE0 SHL DUP2 MSTORE PUSH1 0x4 ADD PUSH1 0x20 PUSH1 0x40 MLOAD DUP1 DUP4 SUB DUP2 DUP7 GAS STATICCALL ISZERO DUP1 ISZERO PUSH2 0x97C JUMPI RETURNDATASIZE PUSH1 0x0 DUP1 RETURNDATACOPY RETURNDATASIZE PUSH1 0x0 REVERT JUMPDEST POP POP POP POP PUSH1 0x40 MLOAD RETURNDATASIZE PUSH1 0x1F NOT PUSH1 0x1F DUP3 ADD AND DUP3 ADD DUP1 PUSH1 0x40 MSTORE POP DUP2 ADD SWAP1 PUSH2 0x9A0 SWAP2 SWAP1 PUSH2 0x2B63 JUMP JUMPDEST PUSH1 0x1 PUSH1 0x1 PUSH1 0xA0 SHL SUB AND ORIGIN PUSH1 0x1 PUSH1 0x1 PUSH1 0xA0 SHL SUB AND EQ JUMPDEST PUSH2 0x9D4 JUMPI PUSH1 0x40 MLOAD PUSH4 0x372463E3 PUSH1 0xE0 SHL DUP2 MSTORE CALLER PUSH1 0x4 DUP3 ADD MSTORE PUSH1 0x24 ADD PUSH2 0x87F JUMP JUMPDEST PUSH1 0x0 DUP3 GT PUSH2 0xA36 JUMPI PUSH1 0x40 MLOAD PUSH3 0x461BCD PUSH1 0xE5 SHL DUP2 MSTORE PUSH1 0x20 PUSH1 0x4 DUP3 ADD MSTORE PUSH1 0x29 PUSH1 0x24 DUP3 ADD MSTORE PUSH32 0x436F6D70756E64696E6720706572696F6473206D757374206265206772656174 PUSH1 0x44 DUP3 ADD MSTORE PUSH9 0x6572207468616E203 PUSH1 0xBC SHL PUSH1 0x64 DUP3 ADD MSTORE PUSH1 0x84 ADD PUSH2 0x87F JUMP JUMPDEST POP PUSH1 0x4A SSTORE JUMP JUMPDEST PUSH1 0x1 PUSH1 0x1 PUSH1 0xA0 SHL SUB DUP4 AND PUSH1 0x0 SWAP1 DUP2 MSTORE PUSH1 0x44 PUSH1 0x20 SWAP1 DUP2 MSTORE PUSH1 0x40 DUP1 DUP4 KECCAK256 CALLER DUP5 MSTORE SWAP1 SWAP2 MSTORE DUP2 KECCAK256 SLOAD PUSH1 0x0 NOT EQ PUSH2 0xAA1 JUMPI PUSH1 0x1 PUSH1 0x1 PUSH1 0xA0 SHL SUB DUP5 AND PUSH1 0x0 SWAP1 DUP2 MSTORE PUSH1 0x44 PUSH1 0x20 SWAP1 DUP2 MSTORE PUSH1 0x40 DUP1 DUP4 KECCAK256 CALLER DUP5 MSTORE SWAP1 SWAP2 MSTORE DUP2 KECCAK256 DUP1 SLOAD DUP5 SWAP3 SWAP1 PUSH2 0xA9B SWAP1 DUP5 SWAP1 PUSH2 0x2B80 JUMP JUMPDEST SWAP1 SWAP2 SSTORE POP POP JUMPDEST PUSH2 0xAAA DUP3 PUSH2 0x1A44 JUMP JUMPDEST PUSH1 0x1 PUSH1 0x1 PUSH1 0xA0 SHL SUB DUP6 AND PUSH1 0x0 SWAP1 DUP2 MSTORE PUSH1 0x4E PUSH1 0x20 MSTORE PUSH1 0x40 DUP2 KECCAK256 DUP1 SLOAD SWAP1 SWAP2 SWAP1 PUSH2 0xAD2 SWAP1 DUP5 SWAP1 PUSH2 0x2B80 JUMP JUMPDEST SWAP1 SWAP2 SSTORE POP PUSH2 0xAE1 SWAP1 POP DUP3 PUSH2 0x1A44 JUMP JUMPDEST PUSH1 0x1 PUSH1 0x1 PUSH1 0xA0 SHL SUB DUP1 DUP6 AND PUSH1 0x0 DUP2 DUP2 MSTORE PUSH1 0x4E PUSH1 0x20 MSTORE PUSH1 0x40 SWAP1 DUP2 SWAP1 KECCAK256 DUP1 SLOAD SWAP1 SWAP5 ADD SWAP1 SWAP4 SSTORE SWAP2 MLOAD SWAP1 DUP7 AND SWAP1 PUSH1 0x0 DUP1 MLOAD PUSH1 0x20 PUSH2 0x2C75 DUP4 CODECOPY DUP2 MLOAD SWAP2 MSTORE SWAP1 PUSH2 0xB27 SWAP1 DUP7 DUP2 MSTORE PUSH1 0x20 ADD SWAP1 JUMP JUMPDEST PUSH1 0x40 MLOAD DUP1 SWAP2 SUB SWAP1 LOG3 POP PUSH1 0x1 JUMPDEST SWAP4 SWAP3 POP POP POP JUMP JUMPDEST PUSH1 0x0 PUSH32 0x0 CHAINID EQ PUSH2 0xB6B JUMPI PUSH2 0x729 PUSH2 0x1BCF JUMP JUMPDEST POP PUSH32 0x0 SWAP1 JUMP JUMPDEST PUSH1 0x0 PUSH2 0xBA4 PUSH1 0x3E SLOAD PUSH1 0x1 PUSH1 0x1 PUSH1 0xA0 SHL SUB AND SWAP1 JUMP JUMPDEST PUSH1 0x1 PUSH1 0x1 PUSH1 0xA0 SHL SUB AND PUSH4 0x1BED5241 PUSH1 0x40 MLOAD DUP2 PUSH4 0xFFFFFFFF AND PUSH1 0xE0 SHL DUP2 MSTORE PUSH1 0x4 ADD PUSH1 0x20 PUSH1 0x40 MLOAD DUP1 DUP4 SUB DUP2 DUP7 GAS STATICCALL ISZERO DUP1 ISZERO PUSH2 0xBE1 JUMPI RETURNDATASIZE PUSH1 0x0 DUP1 RETURNDATACOPY RETURNDATASIZE PUSH1 0x0 REVERT JUMPDEST POP POP POP POP PUSH1 0x40 MLOAD RETURNDATASIZE PUSH1 0x1F NOT PUSH1 0x1F DUP3 ADD AND DUP3 ADD DUP1 PUSH1 0x40 MSTORE POP DUP2 ADD SWAP1 PUSH2 0xC05 SWAP2 SWAP1 PUSH2 0x2AFE JUMP JUMPDEST SWAP1 POP PUSH1 0x1 DUP2 ISZERO ISZERO EQ ISZERO PUSH2 0xCD6 JUMPI PUSH1 0x3E SLOAD PUSH1 0x1 PUSH1 0x1 PUSH1 0xA0 SHL SUB AND PUSH1 0x1 PUSH1 0x1 PUSH1 0xA0 SHL SUB AND PUSH4 0x7AE1CFCA CALLER PUSH1 0x40 MLOAD PUSH1 0x20 ADD PUSH2 0xC3D SWAP2 SWAP1 PUSH2 0x2B20 JUMP JUMPDEST PUSH1 0x40 MLOAD PUSH1 0x20 DUP2 DUP4 SUB SUB DUP2 MSTORE SWAP1 PUSH1 0x40 MSTORE DUP1 MLOAD SWAP1 PUSH1 0x20 ADD KECCAK256 PUSH1 0x40 MLOAD DUP3 PUSH4 0xFFFFFFFF AND PUSH1 0xE0 SHL DUP2 MSTORE PUSH1 0x4 ADD PUSH2 0xC71 SWAP2 DUP2 MSTORE PUSH1 0x20 ADD SWAP1 JUMP JUMPDEST PUSH1 0x20 PUSH1 0x40 MLOAD DUP1 DUP4 SUB DUP2 DUP7 GAS STATICCALL ISZERO DUP1 ISZERO PUSH2 0xC8E JUMPI RETURNDATASIZE PUSH1 0x0 DUP1 RETURNDATACOPY RETURNDATASIZE PUSH1 0x0 REVERT JUMPDEST POP POP POP POP PUSH1 0x40 MLOAD RETURNDATASIZE PUSH1 0x1F NOT PUSH1 0x1F DUP3 ADD AND DUP3 ADD DUP1 PUSH1 0x40 MSTORE POP DUP2 ADD SWAP1 PUSH2 0xCB2 SWAP2 SWAP1 PUSH2 0x2AFE JUMP JUMPDEST PUSH2 0xCD1 JUMPI PUSH1 0x40 MLOAD PUSH4 0x372463E3 PUSH1 0xE0 SHL DUP2 MSTORE CALLER PUSH1 0x4 DUP3 ADD MSTORE PUSH1 0x24 ADD PUSH2 0x87F JUMP JUMPDEST PUSH2 0xE1D JUMP JUMPDEST PUSH1 0x3E SLOAD PUSH1 0x1 PUSH1 0x1 PUSH1 0xA0 SHL SUB AND PUSH1 0x1 PUSH1 0x1 PUSH1 0xA0 SHL SUB AND PUSH4 0x7AE1CFCA CALLER PUSH1 0x40 MLOAD PUSH1 0x20 ADD PUSH2 0xD01 SWAP2 SWAP1 PUSH2 0x2B20 JUMP JUMPDEST PUSH1 0x40 MLOAD PUSH1 0x20 DUP2 DUP4 SUB SUB DUP2 MSTORE SWAP1 PUSH1 0x40 MSTORE DUP1 MLOAD SWAP1 PUSH1 0x20 ADD KECCAK256 PUSH1 0x40 MLOAD DUP3 PUSH4 0xFFFFFFFF AND PUSH1 0xE0 SHL DUP2 MSTORE PUSH1 0x4 ADD PUSH2 0xD35 SWAP2 DUP2 MSTORE PUSH1 0x20 ADD SWAP1 JUMP JUMPDEST PUSH1 0x20 PUSH1 0x40 MLOAD DUP1 DUP4 SUB DUP2 DUP7 GAS STATICCALL ISZERO DUP1 ISZERO PUSH2 0xD52 JUMPI RETURNDATASIZE PUSH1 0x0 DUP1 RETURNDATACOPY RETURNDATASIZE PUSH1 0x0 REVERT JUMPDEST POP POP POP POP PUSH1 0x40 MLOAD RETURNDATASIZE PUSH1 0x1F NOT PUSH1 0x1F DUP3 ADD AND DUP3 ADD DUP1 PUSH1 0x40 MSTORE POP DUP2 ADD SWAP1 PUSH2 0xD76 SWAP2 SWAP1 PUSH2 0x2AFE JUMP JUMPDEST DUP1 PUSH2 0xDFE JUMPI POP PUSH1 0x3E SLOAD PUSH1 0x1 PUSH1 0x1 PUSH1 0xA0 SHL SUB AND PUSH1 0x1 PUSH1 0x1 PUSH1 0xA0 SHL SUB AND PUSH4 0xA75B87D2 PUSH1 0x40 MLOAD DUP2 PUSH4 0xFFFFFFFF AND PUSH1 0xE0 SHL DUP2 MSTORE PUSH1 0x4 ADD PUSH1 0x20 PUSH1 0x40 MLOAD DUP1 DUP4 SUB DUP2 DUP7 GAS STATICCALL ISZERO DUP1 ISZERO PUSH2 0xDC5 JUMPI RETURNDATASIZE PUSH1 0x0 DUP1 RETURNDATACOPY RETURNDATASIZE PUSH1 0x0 REVERT JUMPDEST POP POP POP POP PUSH1 0x40 MLOAD RETURNDATASIZE PUSH1 0x1F NOT PUSH1 0x1F DUP3 ADD AND DUP3 ADD DUP1 PUSH1 0x40 MSTORE POP DUP2 ADD SWAP1 PUSH2 0xDE9 SWAP2 SWAP1 PUSH2 0x2B63 JUMP JUMPDEST PUSH1 0x1 PUSH1 0x1 PUSH1 0xA0 SHL SUB AND ORIGIN PUSH1 0x1 PUSH1 0x1 PUSH1 0xA0 SHL SUB AND EQ JUMPDEST PUSH2 0xE1D JUMPI PUSH1 0x40 MLOAD PUSH4 0x372463E3 PUSH1 0xE0 SHL DUP2 MSTORE CALLER PUSH1 0x4 DUP3 ADD MSTORE PUSH1 0x24 ADD PUSH2 0x87F JUMP JUMPDEST PUSH2 0xE27 DUP4 DUP4 PUSH2 0x1C7D JUMP JUMPDEST POP POP POP JUMP JUMPDEST PUSH1 0x0 PUSH2 0xE36 PUSH2 0xE61 JUMP JUMPDEST PUSH2 0x729 SWAP1 PUSH4 0x1E13380 PUSH2 0x2BAD JUMP JUMPDEST PUSH1 0x0 PUSH2 0x729 PUSH2 0xE59 PUSH2 0xE54 PUSH2 0xE61 JUMP JUMPDEST PUSH2 0x1CF5 JUMP JUMPDEST PUSH1 0x4C SLOAD PUSH2 0x707 JUMP JUMPDEST PUSH1 0x0 PUSH1 0x49 SLOAD PUSH1 0x0 EQ PUSH2 0xE74 JUMPI POP PUSH1 0x49 SLOAD SWAP1 JUMP JUMPDEST POP PUSH1 0x1 SWAP1 JUMP JUMPDEST PUSH1 0x0 PUSH2 0x62E PUSH2 0xE87 PUSH2 0x1A58 JUMP JUMPDEST PUSH1 0x1 PUSH1 0x1 PUSH1 0xA0 SHL SUB DUP5 AND PUSH1 0x0 SWAP1 DUP2 MSTORE PUSH1 0x4E PUSH1 0x20 MSTORE PUSH1 0x40 SWAP1 KECCAK256 SLOAD PUSH2 0x6AB JUMP JUMPDEST PUSH1 0x41 DUP1 SLOAD PUSH2 0x546 SWAP1 PUSH2 0x2A7C JUMP JUMPDEST PUSH1 0x0 PUSH2 0xEC6 PUSH1 0x3E SLOAD PUSH1 0x1 PUSH1 0x1 PUSH1 0xA0 SHL SUB AND SWAP1 JUMP JUMPDEST PUSH1 0x1 PUSH1 0x1 PUSH1 0xA0 SHL SUB AND PUSH4 0x1BED5241 PUSH1 0x40 MLOAD DUP2 PUSH4 0xFFFFFFFF AND PUSH1 0xE0 SHL DUP2 MSTORE PUSH1 0x4 ADD PUSH1 0x20 PUSH1 0x40 MLOAD DUP1 DUP4 SUB DUP2 DUP7 GAS STATICCALL ISZERO DUP1 ISZERO PUSH2 0xF03 JUMPI RETURNDATASIZE PUSH1 0x0 DUP1 RETURNDATACOPY RETURNDATASIZE PUSH1 0x0 REVERT JUMPDEST POP POP POP POP PUSH1 0x40 MLOAD RETURNDATASIZE PUSH1 0x1F NOT PUSH1 0x1F DUP3 ADD AND DUP3 ADD DUP1 PUSH1 0x40 MSTORE POP DUP2 ADD SWAP1 PUSH2 0xF27 SWAP2 SWAP1 PUSH2 0x2AFE JUMP JUMPDEST SWAP1 POP PUSH1 0x1 DUP2 ISZERO ISZERO EQ ISZERO PUSH2 0xFF8 JUMPI PUSH1 0x3E SLOAD PUSH1 0x1 PUSH1 0x1 PUSH1 0xA0 SHL SUB AND PUSH1 0x1 PUSH1 0x1 PUSH1 0xA0 SHL SUB AND PUSH4 0x7AE1CFCA CALLER PUSH1 0x40 MLOAD PUSH1 0x20 ADD PUSH2 0xF5F SWAP2 SWAP1 PUSH2 0x2B20 JUMP JUMPDEST PUSH1 0x40 MLOAD PUSH1 0x20 DUP2 DUP4 SUB SUB DUP2 MSTORE SWAP1 PUSH1 0x40 MSTORE DUP1 MLOAD SWAP1 PUSH1 0x20 ADD KECCAK256 PUSH1 0x40 MLOAD DUP3 PUSH4 0xFFFFFFFF AND PUSH1 0xE0 SHL DUP2 MSTORE PUSH1 0x4 ADD PUSH2 0xF93 SWAP2 DUP2 MSTORE PUSH1 0x20 ADD SWAP1 JUMP JUMPDEST PUSH1 0x20 PUSH1 0x40 MLOAD DUP1 DUP4 SUB DUP2 DUP7 GAS STATICCALL ISZERO DUP1 ISZERO PUSH2 0xFB0 JUMPI RETURNDATASIZE PUSH1 0x0 DUP1 RETURNDATACOPY RETURNDATASIZE PUSH1 0x0 REVERT JUMPDEST POP POP POP POP PUSH1 0x40 MLOAD RETURNDATASIZE PUSH1 0x1F NOT PUSH1 0x1F DUP3 ADD AND DUP3 ADD DUP1 PUSH1 0x40 MSTORE POP DUP2 ADD SWAP1 PUSH2 0xFD4 SWAP2 SWAP1 PUSH2 0x2AFE JUMP JUMPDEST PUSH2 0xFF3 JUMPI PUSH1 0x40 MLOAD PUSH4 0x372463E3 PUSH1 0xE0 SHL DUP2 MSTORE CALLER PUSH1 0x4 DUP3 ADD MSTORE PUSH1 0x24 ADD PUSH2 0x87F JUMP JUMPDEST PUSH2 0x113F JUMP JUMPDEST PUSH1 0x3E SLOAD PUSH1 0x1 PUSH1 0x1 PUSH1 0xA0 SHL SUB AND PUSH1 0x1 PUSH1 0x1 PUSH1 0xA0 SHL SUB AND PUSH4 0x7AE1CFCA CALLER PUSH1 0x40 MLOAD PUSH1 0x20 ADD PUSH2 0x1023 SWAP2 SWAP1 PUSH2 0x2B20 JUMP JUMPDEST PUSH1 0x40 MLOAD PUSH1 0x20 DUP2 DUP4 SUB SUB DUP2 MSTORE SWAP1 PUSH1 0x40 MSTORE DUP1 MLOAD SWAP1 PUSH1 0x20 ADD KECCAK256 PUSH1 0x40 MLOAD DUP3 PUSH4 0xFFFFFFFF AND PUSH1 0xE0 SHL DUP2 MSTORE PUSH1 0x4 ADD PUSH2 0x1057 SWAP2 DUP2 MSTORE PUSH1 0x20 ADD SWAP1 JUMP JUMPDEST PUSH1 0x20 PUSH1 0x40 MLOAD DUP1 DUP4 SUB DUP2 DUP7 GAS STATICCALL ISZERO DUP1 ISZERO PUSH2 0x1074 JUMPI RETURNDATASIZE PUSH1 0x0 DUP1 RETURNDATACOPY RETURNDATASIZE PUSH1 0x0 REVERT JUMPDEST POP POP POP POP PUSH1 0x40 MLOAD RETURNDATASIZE PUSH1 0x1F NOT PUSH1 0x1F DUP3 ADD AND DUP3 ADD DUP1 PUSH1 0x40 MSTORE POP DUP2 ADD SWAP1 PUSH2 0x1098 SWAP2 SWAP1 PUSH2 0x2AFE JUMP JUMPDEST DUP1 PUSH2 0x1120 JUMPI POP PUSH1 0x3E SLOAD PUSH1 0x1 PUSH1 0x1 PUSH1 0xA0 SHL SUB AND PUSH1 0x1 PUSH1 0x1 PUSH1 0xA0 SHL SUB AND PUSH4 0xA75B87D2 PUSH1 0x40 MLOAD DUP2 PUSH4 0xFFFFFFFF AND PUSH1 0xE0 SHL DUP2 MSTORE PUSH1 0x4 ADD PUSH1 0x20 PUSH1 0x40 MLOAD DUP1 DUP4 SUB DUP2 DUP7 GAS STATICCALL ISZERO DUP1 ISZERO PUSH2 0x10E7 JUMPI RETURNDATASIZE PUSH1 0x0 DUP1 RETURNDATACOPY RETURNDATASIZE PUSH1 0x0 REVERT JUMPDEST POP POP POP POP PUSH1 0x40 MLOAD RETURNDATASIZE PUSH1 0x1F NOT PUSH1 0x1F DUP3 ADD AND DUP3 ADD DUP1 PUSH1 0x40 MSTORE POP DUP2 ADD SWAP1 PUSH2 0x110B SWAP2 SWAP1 PUSH2 0x2B63 JUMP JUMPDEST PUSH1 0x1 PUSH1 0x1 PUSH1 0xA0 SHL SUB AND ORIGIN PUSH1 0x1 PUSH1 0x1 PUSH1 0xA0 SHL SUB AND EQ JUMPDEST PUSH2 0x113F JUMPI PUSH1 0x40 MLOAD PUSH4 0x372463E3 PUSH1 0xE0 SHL DUP2 MSTORE CALLER PUSH1 0x4 DUP3 ADD MSTORE PUSH1 0x24 ADD PUSH2 0x87F JUMP JUMPDEST PUSH1 0x0 PUSH2 0x1149 PUSH2 0x634 JUMP JUMPDEST SWAP1 POP PUSH2 0x1160 PUSH2 0x1159 PUSH2 0xE54 PUSH2 0xE61 JUMP JUMPDEST DUP3 SWAP1 PUSH2 0x1B40 JUMP JUMPDEST PUSH1 0x4C SSTORE PUSH2 0x1186 PUSH2 0x116E PUSH2 0xE61 JUMP JUMPDEST PUSH2 0x1180 DUP4 PUSH8 0xDE0B6B3A7640000 PUSH2 0x2AE6 JUMP JUMPDEST SWAP1 PUSH2 0x1D42 JUMP JUMPDEST PUSH1 0x4B SSTORE PUSH2 0x1191 PUSH2 0x1A58 JUMP JUMPDEST PUSH1 0x47 DUP2 SWAP1 SSTORE TIMESTAMP PUSH1 0x48 SSTORE PUSH1 0x40 DUP1 MLOAD DUP6 DUP2 MSTORE PUSH1 0x20 DUP2 ADD DUP5 SWAP1 MSTORE DUP1 DUP3 ADD SWAP3 SWAP1 SWAP3 MSTORE MLOAD PUSH32 0xED95920730F8AAE6FC7D6265CF7618CEB1CD62479DF9E2CCE6C5A2BF966E237B SWAP2 DUP2 SWAP1 SUB PUSH1 0x60 ADD SWAP1 LOG1 PUSH1 0x4A SLOAD ISZERO PUSH2 0xE27 JUMPI PUSH1 0x4A DUP1 SLOAD PUSH1 0x49 SSTORE PUSH1 0x0 SWAP1 SSTORE POP POP POP JUMP JUMPDEST PUSH1 0x0 PUSH2 0x1206 PUSH1 0x3E SLOAD PUSH1 0x1 PUSH1 0x1 PUSH1 0xA0 SHL SUB AND SWAP1 JUMP JUMPDEST PUSH1 0x1 PUSH1 0x1 PUSH1 0xA0 SHL SUB AND PUSH4 0x1BED5241 PUSH1 0x40 MLOAD DUP2 PUSH4 0xFFFFFFFF AND PUSH1 0xE0 SHL DUP2 MSTORE PUSH1 0x4 ADD PUSH1 0x20 PUSH1 0x40 MLOAD DUP1 DUP4 SUB DUP2 DUP7 GAS STATICCALL ISZERO DUP1 ISZERO PUSH2 0x1243 JUMPI RETURNDATASIZE PUSH1 0x0 DUP1 RETURNDATACOPY RETURNDATASIZE PUSH1 0x0 REVERT JUMPDEST POP POP POP POP PUSH1 0x40 MLOAD RETURNDATASIZE PUSH1 0x1F NOT PUSH1 0x1F DUP3 ADD AND DUP3 ADD DUP1 PUSH1 0x40 MSTORE POP DUP2 ADD SWAP1 PUSH2 0x1267 SWAP2 SWAP1 PUSH2 0x2AFE JUMP JUMPDEST SWAP1 POP PUSH1 0x1 DUP2 ISZERO ISZERO EQ ISZERO PUSH2 0x1338 JUMPI PUSH1 0x3E SLOAD PUSH1 0x1 PUSH1 0x1 PUSH1 0xA0 SHL SUB AND PUSH1 0x1 PUSH1 0x1 PUSH1 0xA0 SHL SUB AND PUSH4 0x7AE1CFCA CALLER PUSH1 0x40 MLOAD PUSH1 0x20 ADD PUSH2 0x129F SWAP2 SWAP1 PUSH2 0x2B20 JUMP JUMPDEST PUSH1 0x40 MLOAD PUSH1 0x20 DUP2 DUP4 SUB SUB DUP2 MSTORE SWAP1 PUSH1 0x40 MSTORE DUP1 MLOAD SWAP1 PUSH1 0x20 ADD KECCAK256 PUSH1 0x40 MLOAD DUP3 PUSH4 0xFFFFFFFF AND PUSH1 0xE0 SHL DUP2 MSTORE PUSH1 0x4 ADD PUSH2 0x12D3 SWAP2 DUP2 MSTORE PUSH1 0x20 ADD SWAP1 JUMP JUMPDEST PUSH1 0x20 PUSH1 0x40 MLOAD DUP1 DUP4 SUB DUP2 DUP7 GAS STATICCALL ISZERO DUP1 ISZERO PUSH2 0x12F0 JUMPI RETURNDATASIZE PUSH1 0x0 DUP1 RETURNDATACOPY RETURNDATASIZE PUSH1 0x0 REVERT JUMPDEST POP POP POP POP PUSH1 0x40 MLOAD RETURNDATASIZE PUSH1 0x1F NOT PUSH1 0x1F DUP3 ADD AND DUP3 ADD DUP1 PUSH1 0x40 MSTORE POP DUP2 ADD SWAP1 PUSH2 0x1314 SWAP2 SWAP1 PUSH2 0x2AFE JUMP JUMPDEST PUSH2 0x1333 JUMPI PUSH1 0x40 MLOAD PUSH4 0x372463E3 PUSH1 0xE0 SHL DUP2 MSTORE CALLER PUSH1 0x4 DUP3 ADD MSTORE PUSH1 0x24 ADD PUSH2 0x87F JUMP JUMPDEST PUSH2 0x147F JUMP JUMPDEST PUSH1 0x3E SLOAD PUSH1 0x1 PUSH1 0x1 PUSH1 0xA0 SHL SUB AND PUSH1 0x1 PUSH1 0x1 PUSH1 0xA0 SHL SUB AND PUSH4 0x7AE1CFCA CALLER PUSH1 0x40 MLOAD PUSH1 0x20 ADD PUSH2 0x1363 SWAP2 SWAP1 PUSH2 0x2B20 JUMP JUMPDEST PUSH1 0x40 MLOAD PUSH1 0x20 DUP2 DUP4 SUB SUB DUP2 MSTORE SWAP1 PUSH1 0x40 MSTORE DUP1 MLOAD SWAP1 PUSH1 0x20 ADD KECCAK256 PUSH1 0x40 MLOAD DUP3 PUSH4 0xFFFFFFFF AND PUSH1 0xE0 SHL DUP2 MSTORE PUSH1 0x4 ADD PUSH2 0x1397 SWAP2 DUP2 MSTORE PUSH1 0x20 ADD SWAP1 JUMP JUMPDEST PUSH1 0x20 PUSH1 0x40 MLOAD DUP1 DUP4 SUB DUP2 DUP7 GAS STATICCALL ISZERO DUP1 ISZERO PUSH2 0x13B4 JUMPI RETURNDATASIZE PUSH1 0x0 DUP1 RETURNDATACOPY RETURNDATASIZE PUSH1 0x0 REVERT JUMPDEST POP POP POP POP PUSH1 0x40 MLOAD RETURNDATASIZE PUSH1 0x1F NOT PUSH1 0x1F DUP3 ADD AND DUP3 ADD DUP1 PUSH1 0x40 MSTORE POP DUP2 ADD SWAP1 PUSH2 0x13D8 SWAP2 SWAP1 PUSH2 0x2AFE JUMP JUMPDEST DUP1 PUSH2 0x1460 JUMPI POP PUSH1 0x3E SLOAD PUSH1 0x1 PUSH1 0x1 PUSH1 0xA0 SHL SUB AND PUSH1 0x1 PUSH1 0x1 PUSH1 0xA0 SHL SUB AND PUSH4 0xA75B87D2 PUSH1 0x40 MLOAD DUP2 PUSH4 0xFFFFFFFF AND PUSH1 0xE0 SHL DUP2 MSTORE PUSH1 0x4 ADD PUSH1 0x20 PUSH1 0x40 MLOAD DUP1 DUP4 SUB DUP2 DUP7 GAS STATICCALL ISZERO DUP1 ISZERO PUSH2 0x1427 JUMPI RETURNDATASIZE PUSH1 0x0 DUP1 RETURNDATACOPY RETURNDATASIZE PUSH1 0x0 REVERT JUMPDEST POP POP POP POP PUSH1 0x40 MLOAD RETURNDATASIZE PUSH1 0x1F NOT PUSH1 0x1F DUP3 ADD AND DUP3 ADD DUP1 PUSH1 0x40 MSTORE POP DUP2 ADD SWAP1 PUSH2 0x144B SWAP2 SWAP1 PUSH2 0x2B63 JUMP JUMPDEST PUSH1 0x1 PUSH1 0x1 PUSH1 0xA0 SHL SUB AND ORIGIN PUSH1 0x1 PUSH1 0x1 PUSH1 0xA0 SHL SUB AND EQ JUMPDEST PUSH2 0x147F JUMPI PUSH1 0x40 MLOAD PUSH4 0x372463E3 PUSH1 0xE0 SHL DUP2 MSTORE CALLER PUSH1 0x4 DUP3 ADD MSTORE PUSH1 0x24 ADD PUSH2 0x87F JUMP JUMPDEST PUSH2 0xE27 DUP4 DUP4 PUSH2 0x1D9C JUMP JUMPDEST PUSH1 0x0 PUSH2 0x149D PUSH1 0x3E SLOAD PUSH1 0x1 PUSH1 0x1 PUSH1 0xA0 SHL SUB AND SWAP1 JUMP JUMPDEST PUSH1 0x1 PUSH1 0x1 PUSH1 0xA0 SHL SUB AND PUSH4 0x1BED5241 PUSH1 0x40 MLOAD DUP2 PUSH4 0xFFFFFFFF AND PUSH1 0xE0 SHL DUP2 MSTORE PUSH1 0x4 ADD PUSH1 0x20 PUSH1 0x40 MLOAD DUP1 DUP4 SUB DUP2 DUP7 GAS STATICCALL ISZERO DUP1 ISZERO PUSH2 0x14DA JUMPI RETURNDATASIZE PUSH1 0x0 DUP1 RETURNDATACOPY RETURNDATASIZE PUSH1 0x0 REVERT JUMPDEST POP POP POP POP PUSH1 0x40 MLOAD RETURNDATASIZE PUSH1 0x1F NOT PUSH1 0x1F DUP3 ADD AND DUP3 ADD DUP1 PUSH1 0x40 MSTORE POP DUP2 ADD SWAP1 PUSH2 0x14FE SWAP2 SWAP1 PUSH2 0x2AFE JUMP JUMPDEST SWAP1 POP PUSH1 0x1 DUP2 ISZERO ISZERO EQ ISZERO PUSH2 0x15CF JUMPI PUSH1 0x3E SLOAD PUSH1 0x1 PUSH1 0x1 PUSH1 0xA0 SHL SUB AND PUSH1 0x1 PUSH1 0x1 PUSH1 0xA0 SHL SUB AND PUSH4 0x7AE1CFCA CALLER PUSH1 0x40 MLOAD PUSH1 0x20 ADD PUSH2 0x1536 SWAP2 SWAP1 PUSH2 0x2B20 JUMP JUMPDEST PUSH1 0x40 MLOAD PUSH1 0x20 DUP2 DUP4 SUB SUB DUP2 MSTORE SWAP1 PUSH1 0x40 MSTORE DUP1 MLOAD SWAP1 PUSH1 0x20 ADD KECCAK256 PUSH1 0x40 MLOAD DUP3 PUSH4 0xFFFFFFFF AND PUSH1 0xE0 SHL DUP2 MSTORE PUSH1 0x4 ADD PUSH2 0x156A SWAP2 DUP2 MSTORE PUSH1 0x20 ADD SWAP1 JUMP JUMPDEST PUSH1 0x20 PUSH1 0x40 MLOAD DUP1 DUP4 SUB DUP2 DUP7 GAS STATICCALL ISZERO DUP1 ISZERO PUSH2 0x1587 JUMPI RETURNDATASIZE PUSH1 0x0 DUP1 RETURNDATACOPY RETURNDATASIZE PUSH1 0x0 REVERT JUMPDEST POP POP POP POP PUSH1 0x40 MLOAD RETURNDATASIZE PUSH1 0x1F NOT PUSH1 0x1F DUP3 ADD AND DUP3 ADD DUP1 PUSH1 0x40 MSTORE POP DUP2 ADD SWAP1 PUSH2 0x15AB SWAP2 SWAP1 PUSH2 0x2AFE JUMP JUMPDEST PUSH2 0x15CA JUMPI PUSH1 0x40 MLOAD PUSH4 0x372463E3 PUSH1 0xE0 SHL DUP2 MSTORE CALLER PUSH1 0x4 DUP3 ADD MSTORE PUSH1 0x24 ADD PUSH2 0x87F JUMP JUMPDEST PUSH2 0x1716 JUMP JUMPDEST PUSH1 0x3E SLOAD PUSH1 0x1 PUSH1 0x1 PUSH1 0xA0 SHL SUB AND PUSH1 0x1 PUSH1 0x1 PUSH1 0xA0 SHL SUB AND PUSH4 0x7AE1CFCA CALLER PUSH1 0x40 MLOAD PUSH1 0x20 ADD PUSH2 0x15FA SWAP2 SWAP1 PUSH2 0x2B20 JUMP JUMPDEST PUSH1 0x40 MLOAD PUSH1 0x20 DUP2 DUP4 SUB SUB DUP2 MSTORE SWAP1 PUSH1 0x40 MSTORE DUP1 MLOAD SWAP1 PUSH1 0x20 ADD KECCAK256 PUSH1 0x40 MLOAD DUP3 PUSH4 0xFFFFFFFF AND PUSH1 0xE0 SHL DUP2 MSTORE PUSH1 0x4 ADD PUSH2 0x162E SWAP2 DUP2 MSTORE PUSH1 0x20 ADD SWAP1 JUMP JUMPDEST PUSH1 0x20 PUSH1 0x40 MLOAD DUP1 DUP4 SUB DUP2 DUP7 GAS STATICCALL ISZERO DUP1 ISZERO PUSH2 0x164B JUMPI RETURNDATASIZE PUSH1 0x0 DUP1 RETURNDATACOPY RETURNDATASIZE PUSH1 0x0 REVERT JUMPDEST POP POP POP POP PUSH1 0x40 MLOAD RETURNDATASIZE PUSH1 0x1F NOT PUSH1 0x1F DUP3 ADD AND DUP3 ADD DUP1 PUSH1 0x40 MSTORE POP DUP2 ADD SWAP1 PUSH2 0x166F SWAP2 SWAP1 PUSH2 0x2AFE JUMP JUMPDEST DUP1 PUSH2 0x16F7 JUMPI POP PUSH1 0x3E SLOAD PUSH1 0x1 PUSH1 0x1 PUSH1 0xA0 SHL SUB AND PUSH1 0x1 PUSH1 0x1 PUSH1 0xA0 SHL SUB AND PUSH4 0xA75B87D2 PUSH1 0x40 MLOAD DUP2 PUSH4 0xFFFFFFFF AND PUSH1 0xE0 SHL DUP2 MSTORE PUSH1 0x4 ADD PUSH1 0x20 PUSH1 0x40 MLOAD DUP1 DUP4 SUB DUP2 DUP7 GAS STATICCALL ISZERO DUP1 ISZERO PUSH2 0x16BE JUMPI RETURNDATASIZE PUSH1 0x0 DUP1 RETURNDATACOPY RETURNDATASIZE PUSH1 0x0 REVERT JUMPDEST POP POP POP POP PUSH1 0x40 MLOAD RETURNDATASIZE PUSH1 0x1F NOT PUSH1 0x1F DUP3 ADD AND DUP3 ADD DUP1 PUSH1 0x40 MSTORE POP DUP2 ADD SWAP1 PUSH2 0x16E2 SWAP2 SWAP1 PUSH2 0x2B63 JUMP JUMPDEST PUSH1 0x1 PUSH1 0x1 PUSH1 0xA0 SHL SUB AND ORIGIN PUSH1 0x1 PUSH1 0x1 PUSH1 0xA0 SHL SUB AND EQ JUMPDEST PUSH2 0x1716 JUMPI PUSH1 0x40 MLOAD PUSH4 0x372463E3 PUSH1 0xE0 SHL DUP2 MSTORE CALLER PUSH1 0x4 DUP3 ADD MSTORE PUSH1 0x24 ADD PUSH2 0x87F JUMP JUMPDEST PUSH1 0x4D SLOAD PUSH1 0x40 DUP1 MLOAD SWAP2 DUP3 MSTORE PUSH1 0x20 DUP3 ADD DUP5 SWAP1 MSTORE PUSH32 0xE6C6202176B9910736C13699D11916229B3A0D31FAD1D2AF08DABDF8716709DB SWAP2 ADD PUSH1 0x40 MLOAD DUP1 SWAP2 SUB SWAP1 LOG1 POP PUSH1 0x4D SSTORE JUMP JUMPDEST PUSH1 0x0 PUSH2 0x1763 DUP3 PUSH2 0x1A44 JUMP JUMPDEST CALLER PUSH1 0x0 SWAP1 DUP2 MSTORE PUSH1 0x4E PUSH1 0x20 MSTORE PUSH1 0x40 DUP2 KECCAK256 DUP1 SLOAD SWAP1 SWAP2 SWAP1 PUSH2 0x1782 SWAP1 DUP5 SWAP1 PUSH2 0x2B80 JUMP JUMPDEST SWAP1 SWAP2 SSTORE POP PUSH2 0x1791 SWAP1 POP DUP3 PUSH2 0x1A44 JUMP JUMPDEST PUSH1 0x1 PUSH1 0x1 PUSH1 0xA0 SHL SUB DUP5 AND PUSH1 0x0 DUP2 DUP2 MSTORE PUSH1 0x4E PUSH1 0x20 MSTORE PUSH1 0x40 SWAP1 DUP2 SWAP1 KECCAK256 DUP1 SLOAD SWAP1 SWAP4 ADD SWAP1 SWAP3 SSTORE SWAP1 MLOAD CALLER SWAP1 PUSH1 0x0 DUP1 MLOAD PUSH1 0x20 PUSH2 0x2C75 DUP4 CODECOPY DUP2 MLOAD SWAP2 MSTORE SWAP1 PUSH2 0x622 SWAP1 DUP7 DUP2 MSTORE PUSH1 0x20 ADD SWAP1 JUMP JUMPDEST PUSH1 0x0 PUSH1 0x48 SLOAD TIMESTAMP PUSH2 0x729 SWAP2 SWAP1 PUSH2 0x2B80 JUMP JUMPDEST TIMESTAMP DUP5 LT ISZERO PUSH2 0x1834 JUMPI PUSH1 0x40 MLOAD PUSH3 0x461BCD PUSH1 0xE5 SHL DUP2 MSTORE PUSH1 0x20 PUSH1 0x4 DUP3 ADD MSTORE PUSH1 0x17 PUSH1 0x24 DUP3 ADD MSTORE PUSH32 0x5045524D49545F444541444C494E455F45585049524544000000000000000000 PUSH1 0x44 DUP3 ADD MSTORE PUSH1 0x64 ADD PUSH2 0x87F JUMP JUMPDEST PUSH1 0x0 PUSH2 0x183E PUSH2 0xB3A JUMP JUMPDEST PUSH1 0x1 PUSH1 0x1 PUSH1 0xA0 SHL SUB DUP10 DUP2 AND PUSH1 0x0 DUP2 DUP2 MSTORE PUSH1 0x45 PUSH1 0x20 SWAP1 DUP2 MSTORE PUSH1 0x40 SWAP2 DUP3 SWAP1 KECCAK256 DUP1 SLOAD PUSH1 0x1 DUP2 ADD SWAP1 SWAP2 SSTORE DUP3 MLOAD PUSH32 0x6E71EDAE12B1B97F4D1F60370FEF10105FA2FAAE0126114A169C64845D6126C9 DUP2 DUP5 ADD MSTORE DUP1 DUP5 ADD SWAP5 SWAP1 SWAP5 MSTORE SWAP4 DUP13 AND PUSH1 0x60 DUP5 ADD MSTORE PUSH1 0x80 DUP4 ADD DUP12 SWAP1 MSTORE PUSH1 0xA0 DUP4 ADD SWAP4 SWAP1 SWAP4 MSTORE PUSH1 0xC0 DUP1 DUP4 ADD DUP11 SWAP1 MSTORE DUP2 MLOAD DUP1 DUP5 SUB SWAP1 SWAP2 ADD DUP2 MSTORE PUSH1 0xE0 DUP4 ADD SWAP1 SWAP2 MSTORE DUP1 MLOAD SWAP3 ADD SWAP2 SWAP1 SWAP2 KECCAK256 PUSH2 0x1901 PUSH1 0xF0 SHL PUSH2 0x100 DUP4 ADD MSTORE PUSH2 0x102 DUP3 ADD SWAP3 SWAP1 SWAP3 MSTORE PUSH2 0x122 DUP2 ADD SWAP2 SWAP1 SWAP2 MSTORE PUSH2 0x142 ADD PUSH1 0x40 DUP1 MLOAD PUSH1 0x1F NOT DUP2 DUP5 SUB ADD DUP2 MSTORE DUP3 DUP3 MSTORE DUP1 MLOAD PUSH1 0x20 SWAP2 DUP3 ADD KECCAK256 PUSH1 0x0 DUP1 DUP6 MSTORE SWAP2 DUP5 ADD DUP1 DUP5 MSTORE DUP2 SWAP1 MSTORE PUSH1 0xFF DUP9 AND SWAP3 DUP5 ADD SWAP3 SWAP1 SWAP3 MSTORE PUSH1 0x60 DUP4 ADD DUP7 SWAP1 MSTORE PUSH1 0x80 DUP4 ADD DUP6 SWAP1 MSTORE SWAP1 SWAP3 POP SWAP1 PUSH1 0x1 SWAP1 PUSH1 0xA0 ADD PUSH1 0x20 PUSH1 0x40 MLOAD PUSH1 0x20 DUP2 SUB SWAP1 DUP1 DUP5 SUB SWAP1 DUP6 GAS STATICCALL ISZERO DUP1 ISZERO PUSH2 0x1957 JUMPI RETURNDATASIZE PUSH1 0x0 DUP1 RETURNDATACOPY RETURNDATASIZE PUSH1 0x0 REVERT JUMPDEST POP POP PUSH1 0x40 MLOAD PUSH1 0x1F NOT ADD MLOAD SWAP2 POP POP PUSH1 0x1 PUSH1 0x1 PUSH1 0xA0 SHL SUB DUP2 AND ISZERO DUP1 ISZERO SWAP1 PUSH2 0x198D JUMPI POP DUP9 PUSH1 0x1 PUSH1 0x1 PUSH1 0xA0 SHL SUB AND DUP2 PUSH1 0x1 PUSH1 0x1 PUSH1 0xA0 SHL SUB AND EQ JUMPDEST PUSH2 0x19D9 JUMPI PUSH1 0x40 MLOAD PUSH3 0x461BCD PUSH1 0xE5 SHL DUP2 MSTORE PUSH1 0x20 PUSH1 0x4 DUP3 ADD MSTORE PUSH1 0x18 PUSH1 0x24 DUP3 ADD MSTORE PUSH32 0x494E56414C49445F5045524D49545F5349474E41545552450000000000000000 PUSH1 0x44 DUP3 ADD MSTORE PUSH1 0x64 ADD PUSH2 0x87F JUMP JUMPDEST PUSH1 0x1 PUSH1 0x1 PUSH1 0xA0 SHL SUB SWAP1 DUP2 AND PUSH1 0x0 SWAP1 DUP2 MSTORE PUSH1 0x44 PUSH1 0x20 SWAP1 DUP2 MSTORE PUSH1 0x40 DUP1 DUP4 KECCAK256 DUP12 DUP6 AND DUP1 DUP6 MSTORE SWAP1 DUP4 MSTORE SWAP3 DUP2 SWAP1 KECCAK256 DUP11 SWAP1 SSTORE MLOAD DUP10 DUP2 MSTORE SWAP2 SWAP4 POP SWAP2 DUP11 AND SWAP2 PUSH32 0x8C5BE1E5EBEC7D5BD14F71427D1E84F3DD0314C0F7B2291E5B200AC8C7C3B925 SWAP2 ADD PUSH1 0x40 MLOAD DUP1 SWAP2 SUB SWAP1 LOG3 POP POP POP POP POP POP POP JUMP JUMPDEST PUSH1 0x0 PUSH2 0x62E PUSH2 0x1A51 PUSH2 0x1A58 JUMP JUMPDEST DUP4 SWAP1 PUSH2 0x1BBA JUMP JUMPDEST PUSH1 0x0 PUSH2 0x729 PUSH2 0x1A9D PUSH2 0x1A7D PUSH2 0x1A6B PUSH2 0xE2C JUMP JUMPDEST PUSH2 0x1A73 PUSH2 0x17D4 JUMP JUMPDEST PUSH2 0xE54 SWAP2 SWAP1 PUSH2 0x2BAD JUMP JUMPDEST PUSH2 0x1A85 PUSH2 0xE44 JUMP JUMPDEST PUSH2 0x1A97 SWAP1 PUSH8 0xDE0B6B3A7640000 PUSH2 0x2AE6 JUMP JUMPDEST SWAP1 PUSH2 0x1E12 JUMP JUMPDEST PUSH1 0x47 SLOAD SWAP1 PUSH2 0x1B40 JUMP JUMPDEST PUSH1 0x0 PUSH2 0x1ABA PUSH1 0x3E SLOAD PUSH1 0x1 PUSH1 0x1 PUSH1 0xA0 SHL SUB AND SWAP1 JUMP JUMPDEST PUSH1 0x1 PUSH1 0x1 PUSH1 0xA0 SHL SUB AND PUSH4 0x21F8A721 PUSH1 0x3 PUSH1 0x0 ADD PUSH1 0x9 ADD PUSH1 0x40 MLOAD PUSH2 0x1ADD SWAP2 SWAP1 PUSH2 0x2C68 JUMP JUMPDEST PUSH1 0x40 MLOAD SWAP1 DUP2 SWAP1 SUB DUP2 KECCAK256 PUSH1 0xE0 DUP4 SWAP1 SHL PUSH1 0x1 PUSH1 0x1 PUSH1 0xE0 SHL SUB NOT AND DUP3 MSTORE PUSH1 0x4 DUP3 ADD MSTORE PUSH1 0x24 ADD PUSH1 0x20 PUSH1 0x40 MLOAD DUP1 DUP4 SUB DUP2 DUP7 GAS STATICCALL ISZERO DUP1 ISZERO PUSH2 0x1B1C JUMPI RETURNDATASIZE PUSH1 0x0 DUP1 RETURNDATACOPY RETURNDATASIZE PUSH1 0x0 REVERT JUMPDEST POP POP POP POP PUSH1 0x40 MLOAD RETURNDATASIZE PUSH1 0x1F NOT PUSH1 0x1F DUP3 ADD AND DUP3 ADD DUP1 PUSH1 0x40 MSTORE POP DUP2 ADD SWAP1 PUSH2 0x729 SWAP2 SWAP1 PUSH2 0x2B63 JUMP JUMPDEST PUSH1 0x0 PUSH2 0xB33 DUP4 DUP4 PUSH2 0x1E51 JUMP JUMPDEST PUSH1 0x0 PUSH2 0x1B60 PUSH1 0x3E SLOAD PUSH1 0x1 PUSH1 0x1 PUSH1 0xA0 SHL SUB AND SWAP1 JUMP JUMPDEST PUSH1 0x1 PUSH1 0x1 PUSH1 0xA0 SHL SUB AND PUSH4 0x21F8A721 PUSH1 0x3 PUSH1 0x0 ADD PUSH1 0x7 ADD PUSH1 0x40 MLOAD PUSH2 0x1ADD SWAP2 SWAP1 PUSH2 0x2C68 JUMP JUMPDEST PUSH1 0x0 PUSH2 0x1B97 PUSH1 0x3E SLOAD PUSH1 0x1 PUSH1 0x1 PUSH1 0xA0 SHL SUB AND SWAP1 JUMP JUMPDEST PUSH1 0x1 PUSH1 0x1 PUSH1 0xA0 SHL SUB AND PUSH4 0x21F8A721 PUSH1 0x3 PUSH1 0x0 ADD PUSH1 0x5 ADD PUSH1 0x40 MLOAD PUSH2 0x1ADD SWAP2 SWAP1 PUSH2 0x2C68 JUMP JUMPDEST PUSH1 0x0 PUSH2 0xB33 DUP4 PUSH8 0xDE0B6B3A7640000 DUP5 PUSH2 0x1F13 JUMP JUMPDEST PUSH1 0x0 PUSH32 0x8B73C3C69BB8FE3D512ECC4CF759CC79239F7B179B0FFACAA9A75D522B39400F PUSH1 0x40 DUP1 MLOAD PUSH2 0x1C00 SWAP2 SWAP1 PUSH2 0x2C68 JUMP JUMPDEST PUSH1 0x40 DUP1 MLOAD SWAP2 DUP3 SWAP1 SUB DUP3 KECCAK256 DUP3 DUP3 ADD DUP3 MSTORE PUSH1 0x1 DUP4 MSTORE PUSH1 0x31 PUSH1 0xF8 SHL PUSH1 0x20 SWAP4 DUP5 ADD MSTORE DUP2 MLOAD SWAP3 DUP4 ADD SWAP4 SWAP1 SWAP4 MSTORE DUP2 ADD SWAP2 SWAP1 SWAP2 MSTORE PUSH32 0xC89EFDAA54C0F20C7ADF612882DF0950F5A951637E0307CDCB4C672F298B8BC6 PUSH1 0x60 DUP3 ADD MSTORE CHAINID PUSH1 0x80 DUP3 ADD MSTORE ADDRESS PUSH1 0xA0 DUP3 ADD MSTORE PUSH1 0xC0 ADD PUSH1 0x40 MLOAD PUSH1 0x20 DUP2 DUP4 SUB SUB DUP2 MSTORE SWAP1 PUSH1 0x40 MSTORE DUP1 MLOAD SWAP1 PUSH1 0x20 ADD KECCAK256 SWAP1 POP SWAP1 JUMP JUMPDEST PUSH2 0x1C86 DUP2 PUSH2 0x1A44 JUMP JUMPDEST PUSH1 0x46 PUSH1 0x0 DUP3 DUP3 SLOAD PUSH2 0x1C97 SWAP2 SWAP1 PUSH2 0x2AE6 JUMP JUMPDEST SWAP1 SWAP2 SSTORE POP PUSH2 0x1CA6 SWAP1 POP DUP2 PUSH2 0x1A44 JUMP JUMPDEST PUSH1 0x1 PUSH1 0x1 PUSH1 0xA0 SHL SUB DUP4 AND PUSH1 0x0 DUP2 DUP2 MSTORE PUSH1 0x4E PUSH1 0x20 MSTORE PUSH1 0x40 DUP1 DUP3 KECCAK256 DUP1 SLOAD SWAP1 SWAP5 ADD SWAP1 SWAP4 SSTORE SWAP2 MLOAD SWAP1 SWAP2 SWAP1 PUSH1 0x0 DUP1 MLOAD PUSH1 0x20 PUSH2 0x2C75 DUP4 CODECOPY DUP2 MLOAD SWAP2 MSTORE SWAP1 PUSH2 0x1CE9 SWAP1 DUP6 DUP2 MSTORE PUSH1 0x20 ADD SWAP1 JUMP JUMPDEST PUSH1 0x40 MLOAD DUP1 SWAP2 SUB SWAP1 LOG3 POP POP JUMP JUMPDEST PUSH1 0x0 PUSH25 0x12725DD1D243ABA0E75FE645CC4873F9E65AFE688C928E1F21 DUP3 GT ISZERO PUSH2 0x1D34 JUMPI PUSH1 0x40 MLOAD PUSH4 0x3492FFD9 PUSH1 0xE0 SHL DUP2 MSTORE PUSH1 0x4 DUP2 ADD DUP4 SWAP1 MSTORE PUSH1 0x24 ADD PUSH2 0x87F JUMP JUMPDEST POP PUSH8 0xDE0B6B3A7640000 MUL SWAP1 JUMP JUMPDEST PUSH1 0x0 DUP1 DUP3 PUSH1 0x1 AND GT PUSH2 0x1D5C JUMPI PUSH8 0xDE0B6B3A7640000 PUSH2 0x1D5E JUMP JUMPDEST DUP3 JUMPDEST SWAP1 POP PUSH1 0x1 DUP3 SWAP1 SHR SWAP2 POP JUMPDEST DUP2 ISZERO PUSH2 0x62E JUMPI PUSH2 0x1D78 DUP4 DUP5 PUSH2 0x1E51 JUMP JUMPDEST SWAP3 POP PUSH1 0x1 DUP3 AND ISZERO PUSH2 0x1D90 JUMPI PUSH2 0x1D8D DUP2 DUP5 PUSH2 0x1E51 JUMP JUMPDEST SWAP1 POP JUMPDEST PUSH1 0x1 DUP3 SWAP1 SHR SWAP2 POP PUSH2 0x1D68 JUMP JUMPDEST PUSH2 0x1DA5 DUP2 PUSH2 0x1A44 JUMP JUMPDEST PUSH1 0x1 PUSH1 0x1 PUSH1 0xA0 SHL SUB DUP4 AND PUSH1 0x0 SWAP1 DUP2 MSTORE PUSH1 0x4E PUSH1 0x20 MSTORE PUSH1 0x40 DUP2 KECCAK256 DUP1 SLOAD SWAP1 SWAP2 SWAP1 PUSH2 0x1DCD SWAP1 DUP5 SWAP1 PUSH2 0x2B80 JUMP JUMPDEST SWAP1 SWAP2 SSTORE POP PUSH2 0x1DDC SWAP1 POP DUP2 PUSH2 0x1A44 JUMP JUMPDEST PUSH1 0x46 DUP1 SLOAD SWAP2 SWAP1 SWAP2 SUB SWAP1 SSTORE PUSH1 0x40 MLOAD DUP2 DUP2 MSTORE PUSH1 0x0 SWAP1 PUSH1 0x1 PUSH1 0x1 PUSH1 0xA0 SHL SUB DUP5 AND SWAP1 PUSH1 0x0 DUP1 MLOAD PUSH1 0x20 PUSH2 0x2C75 DUP4 CODECOPY DUP2 MLOAD SWAP2 MSTORE SWAP1 PUSH1 0x20 ADD PUSH2 0x1CE9 JUMP JUMPDEST PUSH1 0x0 DUP3 PUSH2 0x1E37 JUMPI DUP2 ISZERO PUSH2 0x1E26 JUMPI PUSH1 0x0 PUSH2 0x1E30 JUMP JUMPDEST PUSH8 0xDE0B6B3A7640000 JUMPDEST SWAP1 POP PUSH2 0x62E JUMP JUMPDEST PUSH2 0xB33 PUSH2 0x1E4C PUSH2 0x1E46 DUP6 PUSH2 0x1FE1 JUMP JUMPDEST DUP5 PUSH2 0x1B40 JUMP JUMPDEST PUSH2 0x2091 JUMP JUMPDEST PUSH1 0x0 DUP1 DUP1 PUSH1 0x0 NOT DUP5 DUP7 MULMOD DUP5 DUP7 MUL SWAP3 POP DUP3 DUP2 LT DUP4 DUP3 SUB SUB SWAP2 POP POP PUSH8 0xDE0B6B3A7640000 DUP2 LT PUSH2 0x1E95 JUMPI PUSH1 0x40 MLOAD PUSH4 0x698D9A01 PUSH1 0xE1 SHL DUP2 MSTORE PUSH1 0x4 DUP2 ADD DUP3 SWAP1 MSTORE PUSH1 0x24 ADD PUSH2 0x87F JUMP JUMPDEST PUSH1 0x0 DUP1 PUSH8 0xDE0B6B3A7640000 DUP7 DUP9 MULMOD SWAP2 POP POP PUSH8 0x6F05B59D3B1FFFF DUP2 GT DUP3 PUSH2 0x1ECF JUMPI DUP1 PUSH8 0xDE0B6B3A7640000 DUP6 DIV ADD SWAP5 POP POP POP POP POP PUSH2 0x62E JUMP JUMPDEST PUSH3 0x40000 DUP3 DUP6 SUB DIV SWAP4 SWAP1 SWAP2 GT SWAP1 SWAP2 SUB PUSH1 0x1 PUSH1 0xEE SHL MUL SWAP2 SWAP1 SWAP2 OR PUSH32 0xACCB18165BD6FE31AE1CF318DC5B51EEE0E1BA569B88CD74C1773B91FAC10669 MUL ADD SWAP1 POP SWAP3 SWAP2 POP POP JUMP JUMPDEST PUSH1 0x0 DUP1 DUP1 PUSH1 0x0 NOT DUP6 DUP8 MULMOD DUP6 DUP8 MUL SWAP3 POP DUP3 DUP2 LT DUP4 DUP3 SUB SUB SWAP2 POP POP DUP1 PUSH1 0x0 EQ ISZERO PUSH2 0x1F4E JUMPI DUP4 DUP3 DUP2 PUSH2 0x1F44 JUMPI PUSH2 0x1F44 PUSH2 0x2B97 JUMP JUMPDEST DIV SWAP3 POP POP POP PUSH2 0xB33 JUMP JUMPDEST DUP4 DUP2 LT PUSH2 0x1F78 JUMPI PUSH1 0x40 MLOAD PUSH4 0x1DCF3063 PUSH1 0xE2 SHL DUP2 MSTORE PUSH1 0x4 DUP2 ADD DUP3 SWAP1 MSTORE PUSH1 0x24 DUP2 ADD DUP6 SWAP1 MSTORE PUSH1 0x44 ADD PUSH2 0x87F JUMP JUMPDEST PUSH1 0x0 DUP5 DUP7 DUP9 MULMOD PUSH1 0x2 PUSH1 0x1 DUP8 NOT DUP2 ADD DUP9 AND SWAP8 DUP9 SWAP1 DIV PUSH1 0x3 DUP2 MUL DUP4 XOR DUP1 DUP3 MUL DUP5 SUB MUL DUP1 DUP3 MUL DUP5 SUB MUL DUP1 DUP3 MUL DUP5 SUB MUL DUP1 DUP3 MUL DUP5 SUB MUL DUP1 DUP3 MUL DUP5 SUB MUL SWAP1 DUP2 MUL SWAP1 SWAP3 SUB SWAP1 SWAP2 MUL PUSH1 0x0 DUP9 SWAP1 SUB DUP9 SWAP1 DIV SWAP1 SWAP2 ADD DUP6 DUP4 GT SWAP1 SWAP5 SUB SWAP4 SWAP1 SWAP4 MUL SWAP4 SUB SWAP5 SWAP1 SWAP5 DIV SWAP2 SWAP1 SWAP2 OR MUL SWAP5 SWAP4 POP POP POP POP JUMP JUMPDEST PUSH1 0x0 PUSH8 0xDE0B6B3A7640000 DUP3 LT ISZERO PUSH2 0x200F JUMPI PUSH1 0x40 MLOAD PUSH4 0x36214137 PUSH1 0xE2 SHL DUP2 MSTORE PUSH1 0x4 DUP2 ADD DUP4 SWAP1 MSTORE PUSH1 0x24 ADD PUSH2 0x87F JUMP JUMPDEST PUSH1 0x0 PUSH2 0x2024 PUSH8 0xDE0B6B3A7640000 DUP5 DIV PUSH2 0x20D7 JUMP JUMPDEST PUSH8 0xDE0B6B3A7640000 DUP1 DUP3 MUL SWAP4 POP SWAP1 SWAP2 POP DUP4 DUP3 SHR SWAP1 DUP2 EQ ISZERO PUSH2 0x2047 JUMPI POP POP SWAP2 SWAP1 POP JUMP JUMPDEST PUSH8 0x6F05B59D3B20000 JUMPDEST DUP1 ISZERO PUSH2 0x2089 JUMPI PUSH8 0xDE0B6B3A7640000 DUP3 DUP1 MUL DIV SWAP2 POP PUSH8 0x1BC16D674EC80000 DUP3 LT PUSH2 0x2081 JUMPI SWAP3 DUP4 ADD SWAP3 PUSH1 0x1 SWAP2 SWAP1 SWAP2 SHR SWAP1 JUMPDEST PUSH1 0x1 SHR PUSH2 0x2051 JUMP JUMPDEST POP POP POP SWAP2 SWAP1 POP JUMP JUMPDEST PUSH1 0x0 PUSH9 0xA688906BD8B000000 DUP3 LT PUSH2 0x20BF JUMPI PUSH1 0x40 MLOAD PUSH4 0x4A4F26F1 PUSH1 0xE0 SHL DUP2 MSTORE PUSH1 0x4 DUP2 ADD DUP4 SWAP1 MSTORE PUSH1 0x24 ADD PUSH2 0x87F JUMP JUMPDEST PUSH8 0xDE0B6B3A7640000 PUSH1 0x40 DUP4 SWAP1 SHL DIV PUSH2 0xB33 DUP2 PUSH2 0x21C0 JUMP JUMPDEST PUSH1 0x0 PUSH1 0x1 PUSH1 0x80 SHL DUP3 LT PUSH2 0x20F7 JUMPI PUSH1 0x80 SWAP2 DUP3 SHR SWAP2 PUSH2 0x20F4 SWAP1 DUP3 PUSH2 0x2AE6 JUMP JUMPDEST SWAP1 POP JUMPDEST PUSH9 0x10000000000000000 DUP3 LT PUSH2 0x211A JUMPI PUSH1 0x40 SWAP2 DUP3 SHR SWAP2 PUSH2 0x2117 SWAP1 DUP3 PUSH2 0x2AE6 JUMP JUMPDEST SWAP1 POP JUMPDEST PUSH5 0x100000000 DUP3 LT PUSH2 0x2139 JUMPI PUSH1 0x20 SWAP2 DUP3 SHR SWAP2 PUSH2 0x2136 SWAP1 DUP3 PUSH2 0x2AE6 JUMP JUMPDEST SWAP1 POP JUMPDEST PUSH3 0x10000 DUP3 LT PUSH2 0x2156 JUMPI PUSH1 0x10 SWAP2 DUP3 SHR SWAP2 PUSH2 0x2153 SWAP1 DUP3 PUSH2 0x2AE6 JUMP JUMPDEST SWAP1 POP JUMPDEST PUSH2 0x100 DUP3 LT PUSH2 0x2172 JUMPI PUSH1 0x8 SWAP2 DUP3 SHR SWAP2 PUSH2 0x216F SWAP1 DUP3 PUSH2 0x2AE6 JUMP JUMPDEST SWAP1 POP JUMPDEST PUSH1 0x10 DUP3 LT PUSH2 0x218D JUMPI PUSH1 0x4 SWAP2 DUP3 SHR SWAP2 PUSH2 0x218A SWAP1 DUP3 PUSH2 0x2AE6 JUMP JUMPDEST SWAP1 POP JUMPDEST PUSH1 0x4 DUP3 LT PUSH2 0x21A8 JUMPI PUSH1 0x2 SWAP2 DUP3 SHR SWAP2 PUSH2 0x21A5 SWAP1 DUP3 PUSH2 0x2AE6 JUMP JUMPDEST SWAP1 POP JUMPDEST PUSH1 0x2 DUP3 LT PUSH2 0x21BB JUMPI PUSH2 0x62E PUSH1 0x1 DUP3 PUSH2 0x2AE6 JUMP JUMPDEST SWAP2 SWAP1 POP JUMP JUMPDEST PUSH1 0x1 PUSH1 0xBF SHL PUSH8 0x8000000000000000 DUP3 AND ISZERO PUSH2 0x21E4 JUMPI PUSH9 0x16A09E667F3BCC909 MUL PUSH1 0x40 SHR JUMPDEST PUSH8 0x4000000000000000 DUP3 AND ISZERO PUSH2 0x2203 JUMPI PUSH9 0x1306FE0A31B7152DF MUL PUSH1 0x40 SHR JUMPDEST PUSH8 0x2000000000000000 DUP3 AND ISZERO PUSH2 0x2222 JUMPI PUSH9 0x1172B83C7D517ADCE MUL PUSH1 0x40 SHR JUMPDEST PUSH8 0x1000000000000000 DUP3 AND ISZERO PUSH2 0x2241 JUMPI PUSH9 0x10B5586CF9890F62A MUL PUSH1 0x40 SHR JUMPDEST PUSH8 0x800000000000000 DUP3 AND ISZERO PUSH2 0x2260 JUMPI PUSH9 0x1059B0D31585743AE MUL PUSH1 0x40 SHR JUMPDEST PUSH8 0x400000000000000 DUP3 AND ISZERO PUSH2 0x227F JUMPI PUSH9 0x102C9A3E778060EE7 MUL PUSH1 0x40 SHR JUMPDEST PUSH8 0x200000000000000 DUP3 AND ISZERO PUSH2 0x229E JUMPI PUSH9 0x10163DA9FB33356D8 MUL PUSH1 0x40 SHR JUMPDEST PUSH8 0x100000000000000 DUP3 AND ISZERO PUSH2 0x22BD JUMPI PUSH9 0x100B1AFA5ABCBED61 MUL PUSH1 0x40 SHR JUMPDEST PUSH7 0x80000000000000 DUP3 AND ISZERO PUSH2 0x22DB JUMPI PUSH9 0x10058C86DA1C09EA2 MUL PUSH1 0x40 SHR JUMPDEST PUSH7 0x40000000000000 DUP3 AND ISZERO PUSH2 0x22F9 JUMPI PUSH9 0x1002C605E2E8CEC50 MUL PUSH1 0x40 SHR JUMPDEST PUSH7 0x20000000000000 DUP3 AND ISZERO PUSH2 0x2317 JUMPI PUSH9 0x100162F3904051FA1 MUL PUSH1 0x40 SHR JUMPDEST PUSH7 0x10000000000000 DUP3 AND ISZERO PUSH2 0x2335 JUMPI PUSH9 0x1000B175EFFDC76BA MUL PUSH1 0x40 SHR JUMPDEST PUSH7 0x8000000000000 DUP3 AND ISZERO PUSH2 0x2353 JUMPI PUSH9 0x100058BA01FB9F96D MUL PUSH1 0x40 SHR JUMPDEST PUSH7 0x4000000000000 DUP3 AND ISZERO PUSH2 0x2371 JUMPI PUSH9 0x10002C5CC37DA9492 MUL PUSH1 0x40 SHR JUMPDEST PUSH7 0x2000000000000 DUP3 AND ISZERO PUSH2 0x238F JUMPI PUSH9 0x1000162E525EE0547 MUL PUSH1 0x40 SHR JUMPDEST PUSH7 0x1000000000000 DUP3 AND ISZERO PUSH2 0x23AD JUMPI PUSH9 0x10000B17255775C04 MUL PUSH1 0x40 SHR JUMPDEST PUSH6 0x800000000000 DUP3 AND ISZERO PUSH2 0x23CA JUMPI PUSH9 0x1000058B91B5BC9AE MUL PUSH1 0x40 SHR JUMPDEST PUSH6 0x400000000000 DUP3 AND ISZERO PUSH2 0x23E7 JUMPI PUSH9 0x100002C5C89D5EC6D MUL PUSH1 0x40 SHR JUMPDEST PUSH6 0x200000000000 DUP3 AND ISZERO PUSH2 0x2404 JUMPI PUSH9 0x10000162E43F4F831 MUL PUSH1 0x40 SHR JUMPDEST PUSH6 0x100000000000 DUP3 AND ISZERO PUSH2 0x2421 JUMPI PUSH9 0x100000B1721BCFC9A MUL PUSH1 0x40 SHR JUMPDEST PUSH6 0x80000000000 DUP3 AND ISZERO PUSH2 0x243E JUMPI PUSH9 0x10000058B90CF1E6E MUL PUSH1 0x40 SHR JUMPDEST PUSH6 0x40000000000 DUP3 AND ISZERO PUSH2 0x245B JUMPI PUSH9 0x1000002C5C863B73F MUL PUSH1 0x40 SHR JUMPDEST PUSH6 0x20000000000 DUP3 AND ISZERO PUSH2 0x2478 JUMPI PUSH9 0x100000162E430E5A2 MUL PUSH1 0x40 SHR JUMPDEST PUSH6 0x10000000000 DUP3 AND ISZERO PUSH2 0x2495 JUMPI PUSH9 0x1000000B172183551 MUL PUSH1 0x40 SHR JUMPDEST PUSH5 0x8000000000 DUP3 AND ISZERO PUSH2 0x24B1 JUMPI PUSH9 0x100000058B90C0B49 MUL PUSH1 0x40 SHR JUMPDEST PUSH5 0x4000000000 DUP3 AND ISZERO PUSH2 0x24CD JUMPI PUSH9 0x10000002C5C8601CC MUL PUSH1 0x40 SHR JUMPDEST PUSH5 0x2000000000 DUP3 AND ISZERO PUSH2 0x24E9 JUMPI PUSH9 0x1000000162E42FFF0 MUL PUSH1 0x40 SHR JUMPDEST PUSH5 0x1000000000 DUP3 AND ISZERO PUSH2 0x2505 JUMPI PUSH9 0x10000000B17217FBB MUL PUSH1 0x40 SHR JUMPDEST PUSH5 0x800000000 DUP3 AND ISZERO PUSH2 0x2521 JUMPI PUSH9 0x1000000058B90BFCE MUL PUSH1 0x40 SHR JUMPDEST PUSH5 0x400000000 DUP3 AND ISZERO PUSH2 0x253D JUMPI PUSH9 0x100000002C5C85FE3 MUL PUSH1 0x40 SHR JUMPDEST PUSH5 0x200000000 DUP3 AND ISZERO PUSH2 0x2559 JUMPI PUSH9 0x10000000162E42FF1 MUL PUSH1 0x40 SHR JUMPDEST PUSH5 0x100000000 DUP3 AND ISZERO PUSH2 0x2575 JUMPI PUSH9 0x100000000B17217F8 MUL PUSH1 0x40 SHR JUMPDEST PUSH4 0x80000000 DUP3 AND ISZERO PUSH2 0x2590 JUMPI PUSH9 0x10000000058B90BFC MUL PUSH1 0x40 SHR JUMPDEST PUSH4 0x40000000 DUP3 AND ISZERO PUSH2 0x25AB JUMPI PUSH9 0x1000000002C5C85FE MUL PUSH1 0x40 SHR JUMPDEST PUSH4 0x20000000 DUP3 AND ISZERO PUSH2 0x25C6 JUMPI PUSH9 0x100000000162E42FF MUL PUSH1 0x40 SHR JUMPDEST PUSH4 0x10000000 DUP3 AND ISZERO PUSH2 0x25E1 JUMPI PUSH9 0x1000000000B17217F MUL PUSH1 0x40 SHR JUMPDEST PUSH4 0x8000000 DUP3 AND ISZERO PUSH2 0x25FC JUMPI PUSH9 0x100000000058B90C0 MUL PUSH1 0x40 SHR JUMPDEST PUSH4 0x4000000 DUP3 AND ISZERO PUSH2 0x2617 JUMPI PUSH9 0x10000000002C5C860 MUL PUSH1 0x40 SHR JUMPDEST PUSH4 0x2000000 DUP3 AND ISZERO PUSH2 0x2632 JUMPI PUSH9 0x1000000000162E430 MUL PUSH1 0x40 SHR JUMPDEST PUSH4 0x1000000 DUP3 AND ISZERO PUSH2 0x264D JUMPI PUSH9 0x10000000000B17218 MUL PUSH1 0x40 SHR JUMPDEST PUSH3 0x800000 DUP3 AND ISZERO PUSH2 0x2667 JUMPI PUSH9 0x1000000000058B90C MUL PUSH1 0x40 SHR JUMPDEST PUSH3 0x400000 DUP3 AND ISZERO PUSH2 0x2681 JUMPI PUSH9 0x100000000002C5C86 MUL PUSH1 0x40 SHR JUMPDEST PUSH3 0x200000 DUP3 AND ISZERO PUSH2 0x269B JUMPI PUSH9 0x10000000000162E43 MUL PUSH1 0x40 SHR JUMPDEST PUSH3 0x100000 DUP3 AND ISZERO PUSH2 0x26B5 JUMPI PUSH9 0x100000000000B1721 MUL PUSH1 0x40 SHR JUMPDEST PUSH3 0x80000 DUP3 AND ISZERO PUSH2 0x26CF JUMPI PUSH9 0x10000000000058B91 MUL PUSH1 0x40 SHR JUMPDEST PUSH3 0x40000 DUP3 AND ISZERO PUSH2 0x26E9 JUMPI PUSH9 0x1000000000002C5C8 MUL PUSH1 0x40 SHR JUMPDEST PUSH3 0x20000 DUP3 AND ISZERO PUSH2 0x2703 JUMPI PUSH9 0x100000000000162E4 MUL PUSH1 0x40 SHR JUMPDEST PUSH3 0x10000 DUP3 AND ISZERO PUSH2 0x271D JUMPI PUSH9 0x1000000000000B172 MUL PUSH1 0x40 SHR JUMPDEST PUSH2 0x8000 DUP3 AND ISZERO PUSH2 0x2736 JUMPI PUSH9 0x100000000000058B9 MUL PUSH1 0x40 SHR JUMPDEST PUSH2 0x4000 DUP3 AND ISZERO PUSH2 0x274F JUMPI PUSH9 0x10000000000002C5D MUL PUSH1 0x40 SHR JUMPDEST PUSH2 0x2000 DUP3 AND ISZERO PUSH2 0x2768 JUMPI PUSH9 0x1000000000000162E MUL PUSH1 0x40 SHR JUMPDEST PUSH2 0x1000 DUP3 AND ISZERO PUSH2 0x2781 JUMPI PUSH9 0x10000000000000B17 MUL PUSH1 0x40 SHR JUMPDEST PUSH2 0x800 DUP3 AND ISZERO PUSH2 0x279A JUMPI PUSH9 0x1000000000000058C MUL PUSH1 0x40 SHR JUMPDEST PUSH2 0x400 DUP3 AND ISZERO PUSH2 0x27B3 JUMPI PUSH9 0x100000000000002C6 MUL PUSH1 0x40 SHR JUMPDEST PUSH2 0x200 DUP3 AND ISZERO PUSH2 0x27CC JUMPI PUSH9 0x10000000000000163 MUL PUSH1 0x40 SHR JUMPDEST PUSH2 0x100 DUP3 AND ISZERO PUSH2 0x27E5 JUMPI PUSH9 0x100000000000000B1 MUL PUSH1 0x40 SHR JUMPDEST PUSH1 0x80 DUP3 AND ISZERO PUSH2 0x27FD JUMPI PUSH9 0x10000000000000059 MUL PUSH1 0x40 SHR JUMPDEST PUSH1 0x40 DUP3 AND ISZERO PUSH2 0x2815 JUMPI PUSH9 0x1000000000000002C MUL PUSH1 0x40 SHR JUMPDEST PUSH1 0x20 DUP3 AND ISZERO PUSH2 0x282D JUMPI PUSH9 0x10000000000000016 MUL PUSH1 0x40 SHR JUMPDEST PUSH1 0x10 DUP3 AND ISZERO PUSH2 0x2845 JUMPI PUSH9 0x1000000000000000B MUL PUSH1 0x40 SHR JUMPDEST PUSH1 0x8 DUP3 AND ISZERO PUSH2 0x285D JUMPI PUSH9 0x10000000000000006 MUL PUSH1 0x40 SHR JUMPDEST PUSH1 0x4 DUP3 AND ISZERO PUSH2 0x2875 JUMPI PUSH9 0x10000000000000003 MUL PUSH1 0x40 SHR JUMPDEST PUSH1 0x2 DUP3 AND ISZERO PUSH2 0x288D JUMPI PUSH9 0x10000000000000001 MUL PUSH1 0x40 SHR JUMPDEST PUSH1 0x1 DUP3 AND ISZERO PUSH2 0x28A5 JUMPI PUSH9 0x10000000000000001 MUL PUSH1 0x40 SHR JUMPDEST PUSH8 0xDE0B6B3A7640000 MUL PUSH1 0x40 SWAP2 SWAP1 SWAP2 SHR PUSH1 0xBF SUB SHR SWAP1 JUMP JUMPDEST PUSH1 0x0 PUSH1 0x20 DUP1 DUP4 MSTORE DUP4 MLOAD DUP1 DUP3 DUP6 ADD MSTORE PUSH1 0x0 JUMPDEST DUP2 DUP2 LT ISZERO PUSH2 0x28E9 JUMPI DUP6 DUP2 ADD DUP4 ADD MLOAD DUP6 DUP3 ADD PUSH1 0x40 ADD MSTORE DUP3 ADD PUSH2 0x28CD JUMP JUMPDEST DUP2 DUP2 GT ISZERO PUSH2 0x28FB JUMPI PUSH1 0x0 PUSH1 0x40 DUP4 DUP8 ADD ADD MSTORE JUMPDEST POP PUSH1 0x1F ADD PUSH1 0x1F NOT AND SWAP3 SWAP1 SWAP3 ADD PUSH1 0x40 ADD SWAP4 SWAP3 POP POP POP JUMP JUMPDEST PUSH1 0x1 PUSH1 0x1 PUSH1 0xA0 SHL SUB DUP2 AND DUP2 EQ PUSH2 0x2926 JUMPI PUSH1 0x0 DUP1 REVERT JUMPDEST POP JUMP JUMPDEST PUSH1 0x0 DUP1 PUSH1 0x40 DUP4 DUP6 SUB SLT ISZERO PUSH2 0x293C JUMPI PUSH1 0x0 DUP1 REVERT JUMPDEST DUP3 CALLDATALOAD PUSH2 0x2947 DUP2 PUSH2 0x2911 JUMP JUMPDEST SWAP5 PUSH1 0x20 SWAP4 SWAP1 SWAP4 ADD CALLDATALOAD SWAP4 POP POP POP JUMP JUMPDEST PUSH1 0x0 PUSH1 0x20 DUP3 DUP5 SUB SLT ISZERO PUSH2 0x2967 JUMPI PUSH1 0x0 DUP1 REVERT JUMPDEST DUP2 CALLDATALOAD PUSH2 0xB33 DUP2 PUSH2 0x2911 JUMP JUMPDEST PUSH1 0x0 PUSH1 0x20 DUP3 DUP5 SUB SLT ISZERO PUSH2 0x2984 JUMPI PUSH1 0x0 DUP1 REVERT JUMPDEST POP CALLDATALOAD SWAP2 SWAP1 POP JUMP JUMPDEST PUSH1 0x0 DUP1 PUSH1 0x0 PUSH1 0x60 DUP5 DUP7 SUB SLT ISZERO PUSH2 0x29A0 JUMPI PUSH1 0x0 DUP1 REVERT JUMPDEST DUP4 CALLDATALOAD PUSH2 0x29AB DUP2 PUSH2 0x2911 JUMP JUMPDEST SWAP3 POP PUSH1 0x20 DUP5 ADD CALLDATALOAD PUSH2 0x29BB DUP2 PUSH2 0x2911 JUMP JUMPDEST SWAP3 SWAP6 SWAP3 SWAP5 POP POP POP PUSH1 0x40 SWAP2 SWAP1 SWAP2 ADD CALLDATALOAD SWAP1 JUMP JUMPDEST PUSH1 0x0 DUP1 PUSH1 0x0 DUP1 PUSH1 0x0 DUP1 PUSH1 0x0 PUSH1 0xE0 DUP9 DUP11 SUB SLT ISZERO PUSH2 0x29E7 JUMPI PUSH1 0x0 DUP1 REVERT JUMPDEST DUP8 CALLDATALOAD PUSH2 0x29F2 DUP2 PUSH2 0x2911 JUMP JUMPDEST SWAP7 POP PUSH1 0x20 DUP9 ADD CALLDATALOAD PUSH2 0x2A02 DUP2 PUSH2 0x2911 JUMP JUMPDEST SWAP6 POP PUSH1 0x40 DUP9 ADD CALLDATALOAD SWAP5 POP PUSH1 0x60 DUP9 ADD CALLDATALOAD SWAP4 POP PUSH1 0x80 DUP9 ADD CALLDATALOAD PUSH1 0xFF DUP2 AND DUP2 EQ PUSH2 0x2A26 JUMPI PUSH1 0x0 DUP1 REVERT JUMPDEST SWAP7 SWAP10 SWAP6 SWAP9 POP SWAP4 SWAP7 SWAP3 SWAP6 SWAP5 PUSH1 0xA0 DUP5 ADD CALLDATALOAD SWAP5 POP PUSH1 0xC0 SWAP1 SWAP4 ADD CALLDATALOAD SWAP3 SWAP2 POP POP JUMP JUMPDEST PUSH1 0x0 DUP1 PUSH1 0x40 DUP4 DUP6 SUB SLT ISZERO PUSH2 0x2A56 JUMPI PUSH1 0x0 DUP1 REVERT JUMPDEST DUP3 CALLDATALOAD PUSH2 0x2A61 DUP2 PUSH2 0x2911 JUMP JUMPDEST SWAP2 POP PUSH1 0x20 DUP4 ADD CALLDATALOAD PUSH2 0x2A71 DUP2 PUSH2 0x2911 JUMP JUMPDEST DUP1 SWAP2 POP POP SWAP3 POP SWAP3 SWAP1 POP JUMP JUMPDEST PUSH1 0x1 DUP2 DUP2 SHR SWAP1 DUP3 AND DUP1 PUSH2 0x2A90 JUMPI PUSH1 0x7F DUP3 AND SWAP2 POP JUMPDEST PUSH1 0x20 DUP3 LT DUP2 EQ ISZERO PUSH2 0x2AB1 JUMPI PUSH4 0x4E487B71 PUSH1 0xE0 SHL PUSH1 0x0 MSTORE PUSH1 0x22 PUSH1 0x4 MSTORE PUSH1 0x24 PUSH1 0x0 REVERT JUMPDEST POP SWAP2 SWAP1 POP JUMP JUMPDEST PUSH1 0x0 PUSH1 0x20 DUP3 DUP5 SUB SLT ISZERO PUSH2 0x2AC9 JUMPI PUSH1 0x0 DUP1 REVERT JUMPDEST POP MLOAD SWAP2 SWAP1 POP JUMP JUMPDEST PUSH4 0x4E487B71 PUSH1 0xE0 SHL PUSH1 0x0 MSTORE PUSH1 0x11 PUSH1 0x4 MSTORE PUSH1 0x24 PUSH1 0x0 REVERT JUMPDEST PUSH1 0x0 DUP3 NOT DUP3 GT ISZERO PUSH2 0x2AF9 JUMPI PUSH2 0x2AF9 PUSH2 0x2AD0 JUMP JUMPDEST POP ADD SWAP1 JUMP JUMPDEST PUSH1 0x0 PUSH1 0x20 DUP3 DUP5 SUB SLT ISZERO PUSH2 0x2B10 JUMPI PUSH1 0x0 DUP1 REVERT JUMPDEST DUP2 MLOAD DUP1 ISZERO ISZERO DUP2 EQ PUSH2 0xB33 JUMPI PUSH1 0x0 DUP1 REVERT JUMPDEST PUSH32 0x7068616E746F6D2E636F6E74726163742E726567697374657265640000000000 DUP2 MSTORE PUSH1 0x60 SWAP2 SWAP1 SWAP2 SHL PUSH12 0xFFFFFFFFFFFFFFFFFFFFFFFF NOT AND PUSH1 0x1B DUP3 ADD MSTORE PUSH1 0x2F ADD SWAP1 JUMP JUMPDEST PUSH1 0x0 PUSH1 0x20 DUP3 DUP5 SUB SLT ISZERO PUSH2 0x2B75 JUMPI PUSH1 0x0 DUP1 REVERT JUMPDEST DUP2 MLOAD PUSH2 0xB33 DUP2 PUSH2 0x2911 JUMP JUMPDEST PUSH1 0x0 DUP3 DUP3 LT ISZERO PUSH2 0x2B92 JUMPI PUSH2 0x2B92 PUSH2 0x2AD0 JUMP JUMPDEST POP SUB SWAP1 JUMP JUMPDEST PUSH4 0x4E487B71 PUSH1 0xE0 SHL PUSH1 0x0 MSTORE PUSH1 0x12 PUSH1 0x4 MSTORE PUSH1 0x24 PUSH1 0x0 REVERT JUMPDEST PUSH1 0x0 DUP3 PUSH2 0x2BCA JUMPI PUSH4 0x4E487B71 PUSH1 0xE0 SHL PUSH1 0x0 MSTORE PUSH1 0x12 PUSH1 0x4 MSTORE PUSH1 0x24 PUSH1 0x0 REVERT JUMPDEST POP DIV SWAP1 JUMP JUMPDEST DUP1 SLOAD PUSH1 0x0 SWAP1 PUSH1 0x1 DUP2 DUP2 SHR SWAP1 DUP1 DUP4 AND DUP1 PUSH2 0x2BE9 JUMPI PUSH1 0x7F DUP4 AND SWAP3 POP JUMPDEST PUSH1 0x20 DUP1 DUP5 LT DUP3 EQ ISZERO PUSH2 0x2C0B JUMPI PUSH4 0x4E487B71 PUSH1 0xE0 SHL PUSH1 0x0 MSTORE PUSH1 0x22 PUSH1 0x4 MSTORE PUSH1 0x24 PUSH1 0x0 REVERT JUMPDEST DUP2 DUP1 ISZERO PUSH2 0x2C1F JUMPI PUSH1 0x1 DUP2 EQ PUSH2 0x2C30 JUMPI PUSH2 0x2C5C JUMP JUMPDEST PUSH1 0xFF NOT DUP7 AND DUP10 MSTORE DUP5 DUP10 ADD SWAP7 POP PUSH2 0x2C5C JUMP JUMPDEST DUP8 PUSH1 0x0 MSTORE DUP2 PUSH1 0x0 KECCAK256 PUSH1 0x0 JUMPDEST DUP7 DUP2 LT ISZERO PUSH2 0x2C54 JUMPI DUP2 SLOAD DUP12 DUP3 ADD MSTORE SWAP1 DUP6 ADD SWAP1 DUP4 ADD PUSH2 0x2C3B JUMP JUMPDEST POP POP DUP5 DUP10 ADD SWAP7 POP JUMPDEST POP POP POP POP POP POP SWAP3 SWAP2 POP POP JUMP JUMPDEST PUSH1 0x0 PUSH2 0xB33 DUP3 DUP5 PUSH2 0x2BCF JUMP INVALID 0xDD CALLCODE MSTORE 0xAD SHL 0xE2 0xC8 SWAP12 PUSH10 0xC2B068FC378DAA952BA7 CALL PUSH4 0xC4A11628 CREATE2 GAS 0x4D CREATE2 0x23 0xB3 0xEF LOG2 PUSH5 0x6970667358 0x22 SLT KECCAK256 0x24 BLOCKHASH 0xCC 0xDE 0xC2 0xD8 0xD0 ADDMOD SWAP7 EXTCODESIZE 0xCF DUP7 0x28 MSTORE SSTORE EXTCODESIZE 0xB9 BALANCE DUP9 0xBC 0xD9 CALLCODE 0x25 0x4C 0xAF CALLDATACOPY 0xF8 DUP3 LOG4 SWAP3 SWAP13 STOP PUSH5 0x736F6C6343 STOP ADDMOD EXP STOP CALLER ",
  "sha1": "93271db2ee73d23fee7ebf6864fb30e0579fe9e2",
  "source": "/* SPDX-License-Identifier: MIT */\npragma solidity =0.8.10;\n\n/* Package Imports */\nimport {ERC20} from \"./SolmateERC20.sol\";\nimport {PRBMathUD60x18} from \"@hifi-finance/prb-math/contracts/PRBMathUD60x18.sol\";\n\n/* Interface Imports */\nimport {IERC20} from \"@openzeppelin/contracts/token/ERC20/IERC20.sol\";\n\n/* Internal Imports */\nimport {PhantomStorageMixin} from \"../../mixins/PhantomStorageMixin.sol\";\n\n/* Internal Interface Imports */\nimport {IsPHM} from \"../../../interfaces/core/erc20/IsPHM.sol\";\n\n/**\n * @title sPHM\n * @author PhantomDao Team\n * @notice The Staked Phantom Token\n */\ncontract sPHM is PhantomStorageMixin, IsPHM, ERC20 {\n    using PRBMathUD60x18 for uint256;\n\n    uint256 public _totalSupplyInternal; // UD60x18\n    uint256 public _scalingFactorBase; // UD60x18\n    uint256 public _timestampOfLastRebase;\n    uint256 public _compoundingPeriodsPerYear;\n    uint256 public _newCompoundingPeriodsPerYear;\n    uint256 public _apy;\n    uint256 public _apr;\n    uint256 public _rewardRate;\n\n    mapping(address => uint256) public internalBalances;\n\n    constructor(address storageAddress, uint256 compoindingPeriodsPerYear)\n        ERC20(\"Staked Phantom\", \"sPHM\", 18)\n        PhantomStorageMixin(storageAddress)\n    {\n        _timestampOfLastRebase = block.timestamp;\n        _scalingFactorBase = 1e18;\n        _compoundingPeriodsPerYear = compoindingPeriodsPerYear;\n    }\n\n    //=================================================================================================================\n    // Public Functions\n    //=================================================================================================================\n\n    uint256 internal constant SECONDS_PER_YEAR = 31_536_000;\n\n    function scalingFactor() public view returns (uint256) {\n        return\n            _scalingFactorBase.mul(\n                (1e18 + interestPerPeriod()).pow(\n                    (relativeCurrentTimeStamp() / secondsPerCompoundingPeriod()).fromUint()\n                ) // intentional integer division with loss of precision, so that balances only update once a period\n            );\n    }\n\n    /**\n     * @dev Get the current rewardYeild. This depends on supply of PHM, sPHM, gPHM and fPHM.\n     */\n    function rewardYield() public view returns (uint256) {\n        uint256 supply = totalSupply() +\n            gPHM().totalSupply().mul(scalingFactor()) +\n            fPHM().totalSupply().mul(scalingFactor());\n        if (supply == 0) return 0;\n\n        return PHM().totalSupply().mul(rewardRate()).div(supply);\n    }\n\n    function rewardRate() public view returns (uint256) {\n        return _rewardRate;\n    }\n\n    function apy() public view returns (uint256) {\n        return _apy;\n    }\n\n    function apr() public view returns (uint256) {\n        return _apr;\n    }\n\n    function relativeCurrentTimeStamp() public view returns (uint256) {\n        return block.timestamp - _timestampOfLastRebase;\n    }\n\n    function interestPerPeriod() public view returns (uint256) {\n        return apr().div(periodsPerYear().fromUint());\n    }\n\n    function periodsPerYear() public view returns (uint256) {\n        return _compoundingPeriodsPerYear == 0 ? 1 : _compoundingPeriodsPerYear;\n    }\n\n    function secondsPerCompoundingPeriod() public view returns (uint256) {\n        return SECONDS_PER_YEAR / periodsPerYear();\n    }\n\n    function internalValueOf(uint256 amount) public view returns (uint256) {\n        return amount.div(scalingFactor());\n    }\n\n    function externalValueOf(uint256 internalAmount) public view returns (uint256) {\n        return internalAmount.mul(scalingFactor());\n    }\n\n    function internalBalanceOf(address user) public view returns (uint256) {\n        return internalBalances[user];\n    }\n\n    function balanceOf(address user) public view override(ERC20, IERC20) returns (uint256) {\n        return (internalBalanceOf(user).mul(scalingFactor()));\n    }\n\n    //=================================================================================================================\n    // External Functions\n    //=================================================================================================================\n\n    /**\n     * @dev Perform a rebase. In reality, this calculates the new APY and updates the _scalingFactorBase.\n     * This needs to be called by the contract responsible for triggering rebases.\n     */\n    function doRebase(uint256 epochNumber) external onlyRegisteredContracts {\n        uint256 rewardYield_ = rewardYield();\n\n        _apr = rewardYield_.mul(periodsPerYear().fromUint());\n        _apy = (ONE_18D + rewardYield_).powu(periodsPerYear());\n        _scalingFactorBase = scalingFactor();\n        _timestampOfLastRebase = block.timestamp;\n\n        emit Phantom_Rebase(epochNumber, rewardYield_, _scalingFactorBase);\n\n        if (_newCompoundingPeriodsPerYear > 0) {\n            _compoundingPeriodsPerYear = _newCompoundingPeriodsPerYear;\n            _newCompoundingPeriodsPerYear = 0;\n        }\n    }\n\n    /**\n     * @dev Update the rewardRate\n     * @param newRewardRate uint256 the new reward rate. 1e18 == 100% 1e17 == 10%,\n     * 1e16 == 1%, 1e15 == 0.5%, 0 = 0%\n     */\n    function updateRewardRate(uint256 newRewardRate) external onlyRegisteredContracts {\n        emit Phantom_RewardRateUpdate(_rewardRate, newRewardRate);\n        _rewardRate = newRewardRate;\n    }\n\n    /**\n     * @dev Update the number of compounding periods per year.\n     * @param newPeriods uint256 a number greater than 0\n     */\n    function updateCompoundingPeriodsPeriodYear(uint256 newPeriods) external onlyRegisteredContracts {\n        require(newPeriods > 0, \"Compunding periods must be greater than 0\");\n        _newCompoundingPeriodsPerYear = newPeriods;\n    }\n\n    function mint(address inUser, uint256 inAmount) external override onlyRegisteredContracts {\n        _mint(inUser, inAmount);\n    }\n\n    function burn(address fromUser, uint256 burnAmount) external override onlyRegisteredContracts {\n        _burn(fromUser, burnAmount);\n    }\n\n    function scalingFactorBase() external view returns (uint256) {\n        return _scalingFactorBase;\n    }\n\n    //=================================================================================================================\n    // ERC20 Overrides\n    //=================================================================================================================\n\n    function totalSupply() public view override(ERC20, IERC20) returns (uint256) {\n        return _totalSupplyInternal.mul(scalingFactor());\n    }\n\n    function transfer(address recipient, uint256 amount) public virtual override(ERC20, IERC20) returns (bool) {\n        internalBalances[msg.sender] -= internalValueOf(amount);\n\n        // Cannot overflow because the sum of all user\n        // balances can't exceed the max uint256 value.\n        unchecked {\n            internalBalances[recipient] += internalValueOf(amount);\n        }\n        emit Transfer(msg.sender, recipient, amount);\n        return true;\n    }\n\n    function transferFrom(\n        address from,\n        address to,\n        uint256 amount\n    ) public virtual override(ERC20, IERC20) returns (bool) {\n        if (allowance[from][msg.sender] != type(uint256).max) {\n            allowance[from][msg.sender] -= amount;\n        }\n\n        internalBalances[from] -= internalValueOf(amount);\n\n        // Cannot overflow because the sum of all user\n        // balances can't exceed the max uint256 value.\n        unchecked {\n            internalBalances[to] += internalValueOf(amount);\n        }\n\n        emit Transfer(from, to, amount);\n        return true;\n    }\n\n    function _mint(address to, uint256 amount) internal virtual override {\n        _totalSupplyInternal += internalValueOf(amount);\n\n        // Cannot overflow because the sum of all user\n        // balances can't exceed the max uint256 value.\n        unchecked {\n            internalBalances[to] += internalValueOf(amount);\n        }\n\n        emit Transfer(address(0), to, amount);\n    }\n\n    function _burn(address from, uint256 amount) internal virtual override {\n        internalBalances[from] -= internalValueOf(amount);\n\n        // Cannot underflow because a user's balance\n        // will never be larger than the total supply.\n        unchecked {\n            _totalSupplyInternal -= internalValueOf(amount);\n        }\n\n        emit Transfer(from, address(0), amount);\n    }\n\n    /**\n     * @dev prevent more than 4.76% ownership unless you are the treasury\n     */\n    function _afterTokenTransfer(\n        address from,\n        address to,\n        uint256 amount\n    ) internal virtual override(ERC20) {\n        if (to != address(PhantomVault()) && to != address(0)) {\n            require(\n                PHM().balanceAllDenoms(to) < PHM().maxBalancePerWallet(),\n                \"sPHM transfer blocked due to owning over 4.76% of supply\"\n            );\n        }\n    }\n}\n",
  "sourcePath": "contracts/core/erc20/sPHM.sol",
  "type": "contract"
}